{
  "address": "0x0972077897e634305869baadc94b76fe449d3ff0",
  "abi": [
    {
      "inputs": [
        {
          "internalType": "address",
          "name": "_pool",
          "type": "address"
        },
        {
          "internalType": "address",
          "name": "_swapManager",
          "type": "address"
        }
      ],
      "stateMutability": "nonpayable",
      "type": "constructor"
    },
    {
      "anonymous": false,
      "inputs": [
        {
          "indexed": true,
          "internalType": "address",
          "name": "previousFeeCollector",
          "type": "address"
        },
        {
          "indexed": true,
          "internalType": "address",
          "name": "newFeeCollector",
          "type": "address"
        }
      ],
      "name": "UpdatedFeeCollector",
      "type": "event"
    },
    {
      "anonymous": false,
      "inputs": [
        {
          "indexed": false,
          "internalType": "uint256",
          "name": "oldPeriod",
          "type": "uint256"
        },
        {
          "indexed": false,
          "internalType": "uint256",
          "name": "newPeriod",
          "type": "uint256"
        },
        {
          "indexed": false,
          "internalType": "uint256",
          "name": "oldRouterIdx",
          "type": "uint256"
        },
        {
          "indexed": false,
          "internalType": "uint256",
          "name": "newRouterIdx",
          "type": "uint256"
        }
      ],
      "name": "UpdatedOracleConfig",
      "type": "event"
    },
    {
      "anonymous": false,
      "inputs": [
        {
          "indexed": true,
          "internalType": "address",
          "name": "previousSwapManager",
          "type": "address"
        },
        {
          "indexed": true,
          "internalType": "address",
          "name": "newSwapManager",
          "type": "address"
        }
      ],
      "name": "UpdatedSwapManager",
      "type": "event"
    },
    {
      "anonymous": false,
      "inputs": [
        {
          "indexed": false,
          "internalType": "uint256",
          "name": "oldSwapSlippage",
          "type": "uint256"
        },
        {
          "indexed": false,
          "internalType": "uint256",
          "name": "newSwapSlippage",
          "type": "uint256"
        }
      ],
      "name": "UpdatedSwapSlippage",
      "type": "event"
    },
    {
      "inputs": [],
      "name": "NAME",
      "outputs": [
        {
          "internalType": "string",
          "name": "",
          "type": "string"
        }
      ],
      "stateMutability": "view",
      "type": "function"
    },
    {
      "inputs": [],
      "name": "VERSION",
      "outputs": [
        {
          "internalType": "string",
          "name": "",
          "type": "string"
        }
      ],
      "stateMutability": "view",
      "type": "function"
    },
    {
      "inputs": [
        {
          "internalType": "address",
          "name": "_keeperAddress",
          "type": "address"
        }
      ],
      "name": "addKeeper",
      "outputs": [],
      "stateMutability": "nonpayable",
      "type": "function"
    },
    {
      "inputs": [],
      "name": "approveToken",
      "outputs": [],
      "stateMutability": "nonpayable",
      "type": "function"
    },
    {
      "inputs": [],
      "name": "collateralToken",
      "outputs": [
        {
          "internalType": "contract IERC20",
          "name": "",
          "type": "address"
        }
      ],
      "stateMutability": "view",
      "type": "function"
    },
    {
      "inputs": [
        {
          "internalType": "uint256",
          "name": "amount",
          "type": "uint256"
        }
      ],
      "name": "convertFrom18",
      "outputs": [
        {
          "internalType": "uint256",
          "name": "",
          "type": "uint256"
        }
      ],
      "stateMutability": "pure",
      "type": "function"
    },
    {
      "inputs": [],
      "name": "feeCollector",
      "outputs": [
        {
          "internalType": "address",
          "name": "",
          "type": "address"
        }
      ],
      "stateMutability": "view",
      "type": "function"
    },
    {
      "inputs": [
        {
          "internalType": "address",
          "name": "_addressListFactory",
          "type": "address"
        }
      ],
      "name": "init",
      "outputs": [],
      "stateMutability": "nonpayable",
      "type": "function"
    },
    {
      "inputs": [
        {
          "internalType": "address",
          "name": "_token",
          "type": "address"
        }
      ],
      "name": "isReservedToken",
      "outputs": [
        {
          "internalType": "bool",
          "name": "",
          "type": "bool"
        }
      ],
      "stateMutability": "view",
      "type": "function"
    },
    {
      "inputs": [],
      "name": "keepers",
      "outputs": [
        {
          "internalType": "contract IAddressList",
          "name": "",
          "type": "address"
        }
      ],
      "stateMutability": "view",
      "type": "function"
    },
    {
      "inputs": [
        {
          "internalType": "address",
          "name": "_newStrategy",
          "type": "address"
        }
      ],
      "name": "migrate",
      "outputs": [],
      "stateMutability": "nonpayable",
      "type": "function"
    },
    {
      "inputs": [],
      "name": "oraclePeriod",
      "outputs": [
        {
          "internalType": "uint256",
          "name": "",
          "type": "uint256"
        }
      ],
      "stateMutability": "view",
      "type": "function"
    },
    {
      "inputs": [],
      "name": "oracleRouterIdx",
      "outputs": [
        {
          "internalType": "uint256",
          "name": "",
          "type": "uint256"
        }
      ],
      "stateMutability": "view",
      "type": "function"
    },
    {
      "inputs": [],
      "name": "pool",
      "outputs": [
        {
          "internalType": "address",
          "name": "",
          "type": "address"
        }
      ],
      "stateMutability": "view",
      "type": "function"
    },
    {
      "inputs": [],
      "name": "rebalance",
      "outputs": [],
      "stateMutability": "nonpayable",
      "type": "function"
    },
    {
      "inputs": [],
      "name": "receiptToken",
      "outputs": [
        {
          "internalType": "address",
          "name": "",
          "type": "address"
        }
      ],
      "stateMutability": "view",
      "type": "function"
    },
    {
      "inputs": [
        {
          "internalType": "address",
          "name": "_keeperAddress",
          "type": "address"
        }
      ],
      "name": "removeKeeper",
      "outputs": [],
      "stateMutability": "nonpayable",
      "type": "function"
    },
    {
      "inputs": [],
      "name": "setupOracles",
      "outputs": [],
      "stateMutability": "nonpayable",
      "type": "function"
    },
    {
      "inputs": [],
      "name": "swapManager",
      "outputs": [
        {
          "internalType": "contract ISwapManager",
          "name": "",
          "type": "address"
        }
      ],
      "stateMutability": "view",
      "type": "function"
    },
    {
      "inputs": [],
      "name": "swapSlippage",
      "outputs": [
        {
          "internalType": "uint256",
          "name": "",
          "type": "uint256"
        }
      ],
      "stateMutability": "view",
      "type": "function"
    },
    {
      "inputs": [
        {
          "internalType": "address",
          "name": "_fromToken",
          "type": "address"
        }
      ],
      "name": "sweepERC20",
      "outputs": [],
      "stateMutability": "nonpayable",
      "type": "function"
    },
    {
      "inputs": [],
      "name": "token",
      "outputs": [
        {
          "internalType": "address",
          "name": "",
          "type": "address"
        }
      ],
      "stateMutability": "view",
      "type": "function"
    },
    {
      "inputs": [],
      "name": "totalValue",
      "outputs": [
        {
          "internalType": "uint256",
          "name": "_totalValue",
          "type": "uint256"
        }
      ],
      "stateMutability": "view",
      "type": "function"
    },
    {
      "inputs": [],
      "name": "totalValueCurrent",
      "outputs": [
        {
          "internalType": "uint256",
          "name": "_totalValue",
          "type": "uint256"
        }
      ],
      "stateMutability": "nonpayable",
      "type": "function"
    },
    {
      "inputs": [
        {
          "internalType": "address",
          "name": "_feeCollector",
          "type": "address"
        }
      ],
      "name": "updateFeeCollector",
      "outputs": [],
      "stateMutability": "nonpayable",
      "type": "function"
    },
    {
      "inputs": [
        {
          "internalType": "uint256",
          "name": "_newPeriod",
          "type": "uint256"
        },
        {
          "internalType": "uint256",
          "name": "_newRouterIdx",
          "type": "uint256"
        }
      ],
      "name": "updateOracleConfig",
      "outputs": [],
      "stateMutability": "nonpayable",
      "type": "function"
    },
    {
      "inputs": [
        {
          "internalType": "address",
          "name": "_swapManager",
          "type": "address"
        }
      ],
      "name": "updateSwapManager",
      "outputs": [],
      "stateMutability": "nonpayable",
      "type": "function"
    },
    {
      "inputs": [
        {
          "internalType": "uint256",
          "name": "_newSwapSlippage",
          "type": "uint256"
        }
      ],
      "name": "updateSwapSlippage",
      "outputs": [],
      "stateMutability": "nonpayable",
      "type": "function"
    },
    {
      "inputs": [
        {
          "internalType": "uint256",
          "name": "_amount",
          "type": "uint256"
        }
      ],
      "name": "withdraw",
      "outputs": [],
      "stateMutability": "nonpayable",
      "type": "function"
    }
  ],
  "transactionHash": "0x55840d17ec0feac87210fb89fc1421fe7ffe1de158a5f0e3d9d896c1ff7a75b2",
  "args": [
    "0xb4C912714f07FcD078d17479010f705F807bB115",
    "0xe382d9f2394A359B01006faa8A1864b8a60d2710"
  ],
  "solcInputHash": "1b24176c26d26ad371c283ded0d788b4",
  "bytecode": "0x60c0604052610e1060045560006005556127106006553480156200002257600080fd5b506040516200406e3803806200406e833981016040819052620000459162000269565b8181735d3a536e4d6dbd6114cc1ead35777bab948e36438282828282826001600160a01b038316620000be5760405162461bcd60e51b815260206004820152601460248201527f706f6f6c2d616464726573732d69732d7a65726f00000000000000000000000060448201526064015b60405180910390fd5b6001600160a01b0382166200010b5760405162461bcd60e51b8152602060048201526012602482015271736d2d616464726573732d69732d7a65726f60701b6044820152606401620000b5565b600380546001600160a01b0319166001600160a01b0384811691909117909155606084901b6001600160601b03191660a05260408051637e062a3560e11b815290519185169163fc0c546a91600480820192602092909190829003018186803b1580156200017857600080fd5b505afa1580156200018d573d6000803e3d6000fd5b505050506040513d601f19601f82011682018060405250810190620001b39190620002a7565b60601b6001600160601b031916608052600080546001600160a01b0319166001600160a01b039283161790558316151591506200023590505760405162461bcd60e51b815260206004820152601660248201527f63546f6b656e2d616464726573732d69732d7a65726f000000000000000000006044820152606401620000b5565b600780546001600160a01b0319166001600160a01b0392909216919091179055505061271060065550620002e69350505050565b600080604083850312156200027c578182fd5b82516200028981620002cd565b60208401519092506200029c81620002cd565b809150509250929050565b600060208284031215620002b9578081fd5b8151620002c681620002cd565b9392505050565b6001600160a01b0381168114620002e357600080fd5b50565b60805160601c60a05160601c613c83620003eb600039600081816101ee01528181610450015281816105df0152818161085a015281816108d601528181610a9901528181610c4c01528181610e7c01528181610fa3015281816112860152818161134f015281816115a501528181611b0301528181611b8201528181611c1f01528181611e5f01528181612778015261283001526000818161036e015281816114f70152818161157c015281816118f701528181611b2d01528181611cdb01528181611e3d01528181611e95015281816120b2015281816121390152818161230601528181612664015281816126f0015281816128c501526129ad0152613c836000f3fe608060405234801561001057600080fd5b50600436106101cf5760003560e01c8063a3f4df7e11610104578063d2c35ce8116100a2578063ec78e83211610071578063ec78e832146103f5578063fb589de214610408578063fc0c546a14610419578063ffa1ad741461042a576101cf565b8063d2c35ce8146103bf578063d4c3eea0146103d2578063e00af4a7146103da578063e645c202146103ed576101cf565b8063b2016bd4116100de578063b2016bd414610369578063c415b95c14610390578063cd2d7ebe146103a3578063ce5494bb146103ac576101cf565b8063a3f4df7e14610305578063a923b2a61461034e578063aa10188614610361576101cf565b8063440d724811610171578063709d039d1161014b578063709d039d146102cf5780637d7c2a1c146102e2578063951dc22c146102ea57806399b71d5c146102fd576101cf565b8063440d7248146102865780634c36fad7146102a957806367f5e4b8146102bc576101cf565b80631aedeabe116101ad5780631aedeabe146102405780632e1a7d4d146102575780634032b72b1461026a57806342189c8f1461027d576101cf565b806314ae9f2e146101d457806316f0115b146101e957806319ab453c1461022d575b600080fd5b6101e76101e236600461377f565b61044e565b005b6102107f000000000000000000000000000000000000000000000000000000000000000081565b6040516001600160a01b0390911681526020015b60405180910390f35b6101e761023b36600461377f565b6105dd565b61024960065481565b604051908152602001610224565b6101e76102653660046138f7565b610857565b6101e761027836600461377f565b6108d4565b61024960045481565b61029961029436600461377f565b610a54565b6040519015158152602001610224565b6101e76102b736600461377f565b610a97565b6101e76102ca3660046138f7565b610c4a565b600354610210906001600160a01b031681565b6101e7610d96565b600154610210906001600160a01b031681565b6101e7610ee5565b6103416040518060400160405280601c81526020017f436f6d706f756e642d537461626c652d53747261746567792d4441490000000081525081565b6040516102249190613a28565b6101e761035c366004613927565b610fa1565b6101e76111d6565b6102107f000000000000000000000000000000000000000000000000000000000000000081565b600254610210906001600160a01b031681565b61024960055481565b6101e76103ba36600461377f565b611283565b6101e76103cd36600461377f565b6115a3565b61024961176c565b6101e76103e836600461377f565b611800565b610249611a9b565b600054610210906001600160a01b031681565b6102496104163660046138f7565b90565b6000546001600160a01b0316610210565b610341604051806040016040528060058152602001640332e302e360dc1b81525081565b7f00000000000000000000000000000000000000000000000000000000000000006001600160a01b0316630c340a246040518163ffffffff1660e01b815260040160206040518083038186803b1580156104a757600080fd5b505afa1580156104bb573d6000803e3d6000fd5b505050506040513d601f19601f820116820180604052508101906104df919061379b565b6001600160a01b0316336001600160a01b0316146105185760405162461bcd60e51b815260040161050f90613a8b565b60405180910390fd5b600154604051631484968760e11b81526001600160a01b038381166004830152909116906329092d0e90602401602060405180830381600087803b15801561055f57600080fd5b505af1158015610573573d6000803e3d6000fd5b505050506040513d601f19601f8201168201806040525081019061059791906138dd565b6105da5760405162461bcd60e51b81526020600482015260146024820152731c995b5bdd994b5ad9595c195c8b59985a5b195960621b604482015260640161050f565b50565b7f00000000000000000000000000000000000000000000000000000000000000006001600160a01b0316630c340a246040518163ffffffff1660e01b815260040160206040518083038186803b15801561063657600080fd5b505afa15801561064a573d6000803e3d6000fd5b505050506040513d601f19601f8201168201806040525081019061066e919061379b565b6001600160a01b0316336001600160a01b03161461069e5760405162461bcd60e51b815260040161050f90613a8b565b6001546001600160a01b0316156106f75760405162461bcd60e51b815260206004820152601b60248201527f6b65657065722d6c6973742d616c72656164792d637265617465640000000000604482015260640161050f565b6000819050806001600160a01b0316630fab4d256040518163ffffffff1660e01b8152600401602060405180830381600087803b15801561073757600080fd5b505af115801561074b573d6000803e3d6000fd5b505050506040513d601f19601f8201168201806040525081019061076f919061379b565b600180546001600160a01b0319166001600160a01b03929092169182179055630a3b0a4f61079a3390565b6040516001600160e01b031960e084901b1681526001600160a01b039091166004820152602401602060405180830381600087803b1580156107db57600080fd5b505af11580156107ef573d6000803e3d6000fd5b505050506040513d601f19601f8201168201806040525081019061081391906138dd565b6108535760405162461bcd60e51b81526020600482015260116024820152701859190b5ad9595c195c8b59985a5b1959607a1b604482015260640161050f565b5050565b337f00000000000000000000000000000000000000000000000000000000000000006001600160a01b0316146108cb5760405162461bcd60e51b815260206004820152601960248201527818d85b1b195c8b5a5ccb5b9bdd0b5d995cdc195c8b5c1bdbdb603a1b604482015260640161050f565b6105da81611ae0565b7f00000000000000000000000000000000000000000000000000000000000000006001600160a01b0316630c340a246040518163ffffffff1660e01b815260040160206040518083038186803b15801561092d57600080fd5b505afa158015610941573d6000803e3d6000fd5b505050506040513d601f19601f82011682018060405250810190610965919061379b565b6001600160a01b0316336001600160a01b0316146109955760405162461bcd60e51b815260040161050f90613a8b565b600154604051630a3b0a4f60e01b81526001600160a01b03838116600483015290911690630a3b0a4f90602401602060405180830381600087803b1580156109dc57600080fd5b505af11580156109f0573d6000803e3d6000fd5b505050506040513d601f19601f82011682018060405250810190610a1491906138dd565b6105da5760405162461bcd60e51b81526020600482015260116024820152701859190b5ad9595c195c8b59985a5b1959607a1b604482015260640161050f565b6007546000906001600160a01b0383811691161480610a8f57506001600160a01b03821673c00e94cb662c3520282e6f5717214004a7f26888145b90505b919050565b7f00000000000000000000000000000000000000000000000000000000000000006001600160a01b0316630c340a246040518163ffffffff1660e01b815260040160206040518083038186803b158015610af057600080fd5b505afa158015610b04573d6000803e3d6000fd5b505050506040513d601f19601f82011682018060405250810190610b28919061379b565b6001600160a01b0316336001600160a01b031614610b585760405162461bcd60e51b815260040161050f90613a8b565b6001600160a01b038116610ba35760405162461bcd60e51b8152602060048201526012602482015271736d2d616464726573732d69732d7a65726f60701b604482015260640161050f565b6003546001600160a01b0382811691161415610bee5760405162461bcd60e51b815260206004820152600a602482015269736d2d69732d73616d6560b01b604482015260640161050f565b6003546040516001600160a01b038084169216907f2d19927e7cac08ceb98b38898a4fdff6da6a27295b9a2d62fe250408ebe044e190600090a3600380546001600160a01b0319166001600160a01b0392909216919091179055565b7f00000000000000000000000000000000000000000000000000000000000000006001600160a01b0316630c340a246040518163ffffffff1660e01b815260040160206040518083038186803b158015610ca357600080fd5b505afa158015610cb7573d6000803e3d6000fd5b505050506040513d601f19601f82011682018060405250810190610cdb919061379b565b6001600160a01b0316336001600160a01b031614610d0b5760405162461bcd60e51b815260040161050f90613a8b565b612710811115610d565760405162461bcd60e51b8152602060048201526016602482015275696e76616c69642d736c6970706167652d76616c756560501b604482015260640161050f565b60065460408051918252602082018390527ef1c5db862c7598b3b6765552ca951f498611e06412c2d57f8d0b58f82e7f82910160405180910390a1600655565b6001546001600160a01b0316635dbe47e8336040516001600160e01b031960e084901b1681526001600160a01b03909116600482015260240160206040518083038186803b158015610de757600080fd5b505afa158015610dfb573d6000803e3d6000fd5b505050506040513d601f19601f82011682018060405250810190610e1f91906138dd565b610e3b5760405162461bcd60e51b815260040161050f90613a5b565b6000806000610e48611b5c565b6040516302df682360e11b815260048101849052602481018390526044810182905292955090935091506001600160a01b037f000000000000000000000000000000000000000000000000000000000000000016906305bed04690606401600060405180830381600087803b158015610ec057600080fd5b505af1158015610ed4573d6000803e3d6000fd5b50505050610ee0611cc3565b505050565b6001546001600160a01b0316635dbe47e8336040516001600160e01b031960e084901b1681526001600160a01b03909116600482015260240160206040518083038186803b158015610f3657600080fd5b505afa158015610f4a573d6000803e3d6000fd5b505050506040513d601f19601f82011682018060405250810190610f6e91906138dd565b610f8a5760405162461bcd60e51b815260040161050f90613a5b565b610f946000611e30565b610f9f600019611e30565b565b7f00000000000000000000000000000000000000000000000000000000000000006001600160a01b0316630c340a246040518163ffffffff1660e01b815260040160206040518083038186803b158015610ffa57600080fd5b505afa15801561100e573d6000803e3d6000fd5b505050506040513d601f19601f82011682018060405250810190611032919061379b565b6001600160a01b0316336001600160a01b0316146110625760405162461bcd60e51b815260040161050f90613a8b565b600360009054906101000a90046001600160a01b03166001600160a01b031663c2fba6676040518163ffffffff1660e01b815260040160206040518083038186803b1580156110b057600080fd5b505afa1580156110c4573d6000803e3d6000fd5b505050506040513d601f19601f820116820180604052508101906110e8919061390f565b811061112d5760405162461bcd60e51b81526020600482015260146024820152730d2dcecc2d8d2c85ae4deeae8cae45ad2dcc8caf60631b604482015260640161050f565b816111385760045491505b603b82116111805760405162461bcd60e51b81526020600482015260156024820152741a5b9d985b1a590b5bdc9858db194b5c195c9a5bd9605a1b604482015260640161050f565b6004546005546040805192835260208301859052820152606081018290527f83bc5ab8030537fcf1d29c2334f6d22c26c82dcbe5ff03923d2cff5c692c0a7f9060800160405180910390a1600491909155600555565b6001546001600160a01b0316635dbe47e8336040516001600160e01b031960e084901b1681526001600160a01b03909116600482015260240160206040518083038186803b15801561122757600080fd5b505afa15801561123b573d6000803e3d6000fd5b505050506040513d601f19601f8201168201806040525081019061125f91906138dd565b61127b5760405162461bcd60e51b815260040161050f90613a5b565b610f9f611ffa565b337f00000000000000000000000000000000000000000000000000000000000000006001600160a01b0316146112f75760405162461bcd60e51b815260206004820152601960248201527818d85b1b195c8b5a5ccb5b9bdd0b5d995cdc195c8b5c1bdbdb603a1b604482015260640161050f565b6001600160a01b03811661134d5760405162461bcd60e51b815260206004820152601c60248201527f6e65772d73747261746567792d616464726573732d69732d7a65726f00000000604482015260640161050f565b7f00000000000000000000000000000000000000000000000000000000000000006001600160a01b0316816001600160a01b03166316f0115b6040518163ffffffff1660e01b815260040160206040518083038186803b1580156113b057600080fd5b505afa1580156113c4573d6000803e3d6000fd5b505050506040513d601f19601f820116820180604052508101906113e8919061379b565b6001600160a01b0316146114375760405162461bcd60e51b81526020600482015260166024820152756e6f742d76616c69642d6e65772d737472617465677960501b604482015260640161050f565b611440816121b5565b6000546040516370a0823160e01b81523060048201526114d49183916001600160a01b03909116906370a082319060240160206040518083038186803b15801561148957600080fd5b505afa15801561149d573d6000803e3d6000fd5b505050506040513d601f19601f820116820180604052508101906114c1919061390f565b6000546001600160a01b0316919061225d565b6040516370a0823160e01b81523060048201526105da9082906001600160a01b037f000000000000000000000000000000000000000000000000000000000000000016906370a08231906024015b60206040518083038186803b15801561153a57600080fd5b505afa15801561154e573d6000803e3d6000fd5b505050506040513d601f19601f82011682018060405250810190611572919061390f565b6001600160a01b037f000000000000000000000000000000000000000000000000000000000000000016919061225d565b7f00000000000000000000000000000000000000000000000000000000000000006001600160a01b0316630c340a246040518163ffffffff1660e01b815260040160206040518083038186803b1580156115fc57600080fd5b505afa158015611610573d6000803e3d6000fd5b505050506040513d601f19601f82011682018060405250810190611634919061379b565b6001600160a01b0316336001600160a01b0316146116645760405162461bcd60e51b815260040161050f90613a8b565b6001600160a01b0381166116ba5760405162461bcd60e51b815260206004820152601d60248201527f6665652d636f6c6c6563746f722d616464726573732d69732d7a65726f000000604482015260640161050f565b6002546001600160a01b03828116911614156117105760405162461bcd60e51b81526020600482015260156024820152746665652d636f6c6c6563746f722d69732d73616d6560581b604482015260640161050f565b6002546040516001600160a01b038084169216907f0f06062680f9bd68e786e9980d9bb03d73d5620fc3b345e417b6eacb310b970690600090a3600280546001600160a01b0319166001600160a01b0392909216919091179055565b60405163331faf7160e21b81523060048201526000906117fb90733d9819210a31b4961b30ef54be2aed79b9c9cd3b9063cc7ebdc4906024015b60206040518083038186803b1580156117be57600080fd5b505afa1580156117d2573d6000803e3d6000fd5b505050506040513d601f19601f820116820180604052508101906117f6919061390f565b6122c0565b905090565b6001546001600160a01b0316635dbe47e8336040516001600160e01b031960e084901b1681526001600160a01b03909116600482015260240160206040518083038186803b15801561185157600080fd5b505afa158015611865573d6000803e3d6000fd5b505050506040513d601f19601f8201168201806040525081019061188991906138dd565b6118a55760405162461bcd60e51b815260040161050f90613a5b565b6002546001600160a01b03166118f55760405162461bcd60e51b81526020600482015260156024820152741999594b58dbdb1b1958dd1bdc8b5b9bdd0b5cd95d605a1b604482015260640161050f565b7f00000000000000000000000000000000000000000000000000000000000000006001600160a01b0316816001600160a01b031614156119775760405162461bcd60e51b815260206004820152601f60248201527f6e6f742d616c6c6f7765642d746f2d73776565702d636f6c6c61746572616c00604482015260640161050f565b61198081610a54565b156119c45760405162461bcd60e51b815260206004820152601460248201527306e6f742d616c6c6f7765642d746f2d73776565760641b604482015260640161050f565b6001600160a01b03811673eeeeeeeeeeeeeeeeeeeeeeeeeeeeeeeeeeeeeeee1415611a04576002546119ff906001600160a01b031647612418565b6105da565b6040516370a0823160e01b81523060048201526000906001600160a01b038316906370a082319060240160206040518083038186803b158015611a4657600080fd5b505afa158015611a5a573d6000803e3d6000fd5b505050506040513d601f19601f82011682018060405250810190611a7e919061390f565b600254909150610853906001600160a01b0384811691168361225d565b6000611aa5612531565b6040516370a0823160e01b81523060048201526117fb9073c00e94cb662c3520282e6f5717214004a7f26888906370a08231906024016117a6565b611ae981612606565b506040516370a0823160e01b81523060048201526105da907f0000000000000000000000000000000000000000000000000000000000000000906001600160a01b037f000000000000000000000000000000000000000000000000000000000000000016906370a0823190602401611522565b604051636a9eee1360e11b81523060048201526000908190819081906001600160a01b037f0000000000000000000000000000000000000000000000000000000000000000169063d53ddc269060240160206040518083038186803b158015611bc457600080fd5b505afa158015611bd8573d6000803e3d6000fd5b505050506040513d601f19601f82011682018060405250810190611bfc919061390f565b604051639f2b283360e01b81523060048201529091506000906001600160a01b037f00000000000000000000000000000000000000000000000000000000000000001690639f2b28339060240160206040518083038186803b158015611c6157600080fd5b505afa158015611c75573d6000803e3d6000fd5b505050506040513d601f19601f82011682018060405250810190611c99919061390f565b9050611ca48161265d565b9450611caf81612ab4565b9350611cba82612b05565b92505050909192565b6040516370a0823160e01b81523060048201526000907f00000000000000000000000000000000000000000000000000000000000000006001600160a01b0316906370a082319060240160206040518083038186803b158015611d2557600080fd5b505afa158015611d39573d6000803e3d6000fd5b505050506040513d601f19601f82011682018060405250810190611d5d919061390f565b905080156105da5760075460405163140e25ad60e31b8152600481018390526001600160a01b039091169063a0712d6890602401602060405180830381600087803b158015611dab57600080fd5b505af1158015611dbf573d6000803e3d6000fd5b505050506040513d601f19601f82011682018060405250810190611de3919061390f565b156105da5760405162461bcd60e51b815260206004820152601a60248201527f6465706f7369742d746f2d636f6d706f756e642d6661696c6564000000000000604482015260640161050f565b611e846001600160a01b037f0000000000000000000000000000000000000000000000000000000000000000167f000000000000000000000000000000000000000000000000000000000000000083612b16565b600754611ebe906001600160a01b037f00000000000000000000000000000000000000000000000000000000000000008116911683612b16565b60005b600360009054906101000a90046001600160a01b03166001600160a01b031663c2fba6676040518163ffffffff1660e01b815260040160206040518083038186803b158015611f0f57600080fd5b505afa158015611f23573d6000803e3d6000fd5b505050506040513d601f19601f82011682018060405250810190611f47919061390f565b81101561085357600354604051636e74a6f760e01b815260048101839052611fe8916001600160a01b031690636e74a6f79060240160206040518083038186803b158015611f9457600080fd5b505afa158015611fa8573d6000803e3d6000fd5b505050506040513d601f19601f82011682018060405250810190611fcc919061379b565b73c00e94cb662c3520282e6f5717214004a7f268889084612b16565b80611ff281613bf1565b915050611ec1565b60035460048054600554604051630f30f2d360e21b81526001600160a01b0390941693633cc3cb4c9361205d9373c00e94cb662c3520282e6f5717214004a7f268889373c02aaa39b223fe8d0a0e5c4f27ead9083c756cc29391929091016139db565b602060405180830381600087803b15801561207757600080fd5b505af115801561208b573d6000803e3d6000fd5b505050506040513d601f19601f820116820180604052508101906120af919061379b565b507f00000000000000000000000000000000000000000000000000000000000000006001600160a01b031673c02aaa39b223fe8d0a0e5c4f27ead9083c756cc214610f9f5760035460048054600554604051630f30f2d360e21b81526001600160a01b0390941693633cc3cb4c936121639373c02aaa39b223fe8d0a0e5c4f27ead9083c756cc2937f00000000000000000000000000000000000000000000000000000000000000009391929091016139db565b602060405180830381600087803b15801561217d57600080fd5b505af1158015612191573d6000803e3d6000fd5b505050506040513d601f19601f820116820180604052508101906105da919061379b565b6121bd612531565b6040516370a0823160e01b81523060048201526105da90829073c00e94cb662c3520282e6f5717214004a7f26888906370a082319060240160206040518083038186803b15801561220d57600080fd5b505afa158015612221573d6000803e3d6000fd5b505050506040513d601f19601f82011682018060405250810190612245919061390f565b73c00e94cb662c3520282e6f5717214004a7f2688891905b6040516001600160a01b038316602482015260448101829052610ee090849063a9059cbb60e01b906064015b60408051601f198184030181529190526020810180516001600160e01b03166001600160e01b031990931692909217909152612c3a565b6000811561238b576003546040516340b4c54560e11b81526001600160a01b03909116906381698a8a906123339073c00e94cb662c3520282e6f5717214004a7f26888907f00000000000000000000000000000000000000000000000000000000000000009087906000906004016139db565b60006040518083038186803b15801561234b57600080fd5b505afa15801561235f573d6000803e3d6000fd5b505050506040513d6000823e601f3d908101601f1916820160405261238791908101906137b7565b9150505b6007546040516370a0823160e01b815230600482015261240e916001600160a01b0316906370a08231906024015b60206040518083038186803b1580156123d157600080fd5b505afa1580156123e5573d6000803e3d6000fd5b505050506040513d601f19601f82011682018060405250810190612409919061390f565b612d0c565b610a8f9082613b53565b804710156124685760405162461bcd60e51b815260206004820152601d60248201527f416464726573733a20696e73756666696369656e742062616c616e6365000000604482015260640161050f565b6000826001600160a01b03168260405160006040518083038185875af1925050503d80600081146124b5576040519150601f19603f3d011682016040523d82523d6000602084013e6124ba565b606091505b5050905080610ee05760405162461bcd60e51b815260206004820152603a60248201527f416464726573733a20756e61626c6520746f2073656e642076616c75652c207260448201527f6563697069656e74206d61792068617665207265766572746564000000000000606482015260840161050f565b60408051600180825281830190925260009160208083019080368337505060075482519293506001600160a01b03169183915060009061258157634e487b7160e01b600052603260045260246000fd5b6001600160a01b039092166020928302919091019091015260405162e1ed9760e51b8152733d9819210a31b4961b30ef54be2aed79b9c9cd3b90631c3db2e0906125d19030908590600401613a04565b600060405180830381600087803b1580156125eb57600080fd5b505af11580156125ff573d6000803e3d6000fd5b5050505050565b6007546040516370a0823160e01b8152306004820152600091829161263d916001600160a01b0316906370a08231906024016123b9565b905061265681841061264f5781612651565b835b612db1565b9392505050565b60006126887f0000000000000000000000000000000000000000000000000000000000000000612e88565b6007546040516370a0823160e01b81523060048201526000916126bf916001600160a01b03909116906370a08231906024016123b9565b9050828111156126d8576126d66126518483613baa565b505b6040516370a0823160e01b81523060048201526000907f00000000000000000000000000000000000000000000000000000000000000006001600160a01b0316906370a082319060240160206040518083038186803b15801561273a57600080fd5b505afa15801561274e573d6000803e3d6000fd5b505050506040513d601f19601f82011682018060405250810190612772919061390f565b905060007f00000000000000000000000000000000000000000000000000000000000000006001600160a01b031663edaafe206040518163ffffffff1660e01b815260040160206040518083038186803b1580156127cf57600080fd5b505afa1580156127e3573d6000803e3d6000fd5b505050506040513d601f19601f82011682018060405250810190612807919061379b565b90506001600160a01b03811615612aac5760405163c6d7026d60e01b81523060048201526000907f00000000000000000000000000000000000000000000000000000000000000006001600160a01b03169063c6d7026d9060240160206040518083038186803b15801561287a57600080fd5b505afa15801561288e573d6000803e3d6000fd5b505050506040513d601f19601f820116820180604052508101906128b2919061390f565b905080831061297c576001600160a01b037f00000000000000000000000000000000000000000000000000000000000000001663a9059cbb836128f58487613baa565b6040516001600160e01b031960e085901b1681526001600160a01b0390921660048301526024820152604401602060405180830381600087803b15801561293b57600080fd5b505af115801561294f573d6000803e3d6000fd5b505050506040513d601f19601f8201168201806040525081019061297391906138dd565b50809250612aaa565b60006129888483613baa565b6040516370a0823160e01b81526001600160a01b0385811660048301529192506000917f000000000000000000000000000000000000000000000000000000000000000016906370a082319060240160206040518083038186803b1580156129ef57600080fd5b505afa158015612a03573d6000803e3d6000fd5b505050506040513d601f19601f82011682018060405250810190612a27919061390f565b9050600082821015612a395781612a3b565b825b60405163d845a4b360e01b8152600481018290529091506001600160a01b0386169063d845a4b390602401600060405180830381600087803b158015612a8057600080fd5b505af1158015612a94573d6000803e3d6000fd5b505050508086612aa49190613b53565b95505050505b505b509392505050565b6007546040516370a0823160e01b81523060048201526000918291612aeb916001600160a01b0316906370a08231906024016123b9565b905082811015612aff576126568184613baa565b50919050565b60008115610a9257610a8f82612606565b801580612b9f5750604051636eb1769f60e11b81523060048201526001600160a01b03838116602483015284169063dd62ed3e9060440160206040518083038186803b158015612b6557600080fd5b505afa158015612b79573d6000803e3d6000fd5b505050506040513d601f19601f82011682018060405250810190612b9d919061390f565b155b612c0a5760405162461bcd60e51b815260206004820152603660248201527f5361666545524332303a20617070726f76652066726f6d206e6f6e2d7a65726f60448201527520746f206e6f6e2d7a65726f20616c6c6f77616e636560501b606482015260840161050f565b6040516001600160a01b038316602482015260448101829052610ee090849063095ea7b360e01b90606401612289565b6000612c8f826040518060400160405280602081526020017f5361666545524332303a206c6f772d6c6576656c2063616c6c206661696c6564815250856001600160a01b0316612f869092919063ffffffff16565b805190915015610ee05780806020019051810190612cad91906138dd565b610ee05760405162461bcd60e51b815260206004820152602a60248201527f5361666545524332303a204552433230206f7065726174696f6e20646964206e6044820152691bdd081cdd58d8d9595960b21b606482015260840161050f565b6000670de0b6b3a7640000600760009054906101000a90046001600160a01b03166001600160a01b031663182df0f56040518163ffffffff1660e01b815260040160206040518083038186803b158015612d6557600080fd5b505afa158015612d79573d6000803e3d6000fd5b505050506040513d601f19601f82011682018060405250810190612d9d919061390f565b612da79084613b8b565b610a8f9190613b6b565b60008115612e845760075460405163852a12e360e01b8152600481018490526001600160a01b039091169063852a12e390602401602060405180830381600087803b158015612dff57600080fd5b505af1158015612e13573d6000803e3d6000fd5b505050506040513d601f19601f82011682018060405250810190612e37919061390f565b15612e845760405162461bcd60e51b815260206004820152601d60248201527f77697468647261772d66726f6d2d636f6d706f756e642d6661696c6564000000604482015260640161050f565b5090565b612e90612531565b6040516370a0823160e01b815230600482015260009073c00e94cb662c3520282e6f5717214004a7f26888906370a082319060240160206040518083038186803b158015612edd57600080fd5b505afa158015612ef1573d6000803e3d6000fd5b505050506040513d601f19601f82011682018060405250810190612f15919061390f565b905080156108535760006006546127101415612f32576001612f64565b612f64612f5c612f5673c00e94cb662c3520282e6f5717214004a7f2688886612f9d565b84613196565b6006546132c1565b9050610ee073c00e94cb662c3520282e6f5717214004a7f268888484846132e4565b6060612f9584846000856134a5565b949350505050565b60606001600160a01b03831673c02aaa39b223fe8d0a0e5c4f27ead9083c756cc21480612fe657506001600160a01b03821673c02aaa39b223fe8d0a0e5c4f27ead9083c756cc2145b15613094576040805160028082526060820183529091602083019080368337019050509050828160008151811061302d57634e487b7160e01b600052603260045260246000fd5b60200260200101906001600160a01b031690816001600160a01b031681525050818160018151811061306f57634e487b7160e01b600052603260045260246000fd5b60200260200101906001600160a01b031690816001600160a01b031681525050613190565b60408051600380825260808201909252906020820160608036833701905050905082816000815181106130d757634e487b7160e01b600052603260045260246000fd5b60200260200101906001600160a01b031690816001600160a01b03168152505073c02aaa39b223fe8d0a0e5c4f27ead9083c756cc28160018151811061312d57634e487b7160e01b600052603260045260246000fd5b60200260200101906001600160a01b031690816001600160a01b031681525050818160028151811061316f57634e487b7160e01b600052603260045260246000fd5b60200260200101906001600160a01b031690816001600160a01b0316815250505b92915050565b600060018351116131df5760405162461bcd60e51b81526020600482015260136024820152720d2dcecc2d8d2c85adee4c2c6d8ca5ae0c2e8d606b1b604482015260640161050f565b50806000805b600185516131f39190613baa565b8110156132b95761325f85828151811061321d57634e487b7160e01b600052603260045260246000fd5b6020026020010151868360016132339190613b53565b8151811061325157634e487b7160e01b600052603260045260246000fd5b6020026020010151856135cd565b9093509150816132a75760405162461bcd60e51b8152602060048201526013602482015272696e76616c69642d6f7261636c652d7261746560681b604482015260640161050f565b806132b181613bf1565b9150506131e5565b505092915050565b60006127106132d08382613baa565b6132da9085613b8b565b6126569190613b6b565b600354604051631d1f307960e31b81526001600160a01b038681166004830152858116602483015260448201859052600092839283929091169063e8f983c89060640160006040518083038186803b15801561333f57600080fd5b505afa158015613353573d6000803e3d6000fd5b505050506040513d6000823e601f3d908101601f1916820160405261337b91908101906137fc565b925092509250836000141561338f57600193505b811561349c57600354604051636e74a6f760e01b8152600481018390526001600160a01b0390911690636e74a6f79060240160206040518083038186803b1580156133d957600080fd5b505afa1580156133ed573d6000803e3d6000fd5b505050506040513d601f19601f82011682018060405250810190613411919061379b565b6001600160a01b03166338ed173986868630426040518663ffffffff1660e01b8152600401613444959493929190613ac2565b600060405180830381600087803b15801561345e57600080fd5b505af1158015613472573d6000803e3d6000fd5b505050506040513d6000823e601f3d908101601f1916820160405261349a919081019061384a565b505b50505050505050565b6060824710156135065760405162461bcd60e51b815260206004820152602660248201527f416464726573733a20696e73756666696369656e742062616c616e636520666f6044820152651c8818d85b1b60d21b606482015260840161050f565b843b6135545760405162461bcd60e51b815260206004820152601d60248201527f416464726573733a2063616c6c20746f206e6f6e2d636f6e7472616374000000604482015260640161050f565b600080866001600160a01b0316858760405161357091906139bf565b60006040518083038185875af1925050503d80600081146135ad576040519150601f19603f3d011682016040523d82523d6000602084013e6135b2565b606091505b50915091506135c28282866136be565b979650505050505050565b6003546004805460055460405163b67bb24d60e01b81526001600160a01b038881169482019490945286841660248201526044810186905260648101929092526084820152600092839283928392919091169063b67bb24d9060a401606060405180830381600087803b15801561364357600080fd5b505af1158015613657573d6000803e3d6000fd5b505050506040513d601f19601f8201168201806040525081019061367b9190613948565b50915091506004544261368e9190613baa565b8111801561369b57508115155b156136ac57509150600190506136b6565b6000809350935050505b935093915050565b606083156136cd575081612656565b8251156136dd5782518084602001fd5b8160405162461bcd60e51b815260040161050f9190613a28565b600082601f830112613707578081fd5b8151602061371c61371783613b2f565b613afe565b80838252828201915082860187848660051b890101111561373b578586fd5b855b8581101561376257815161375081613c38565b8452928401929084019060010161373d565b5090979650505050505050565b80518015158114610a9257600080fd5b600060208284031215613790578081fd5b813561265681613c38565b6000602082840312156137ac578081fd5b815161265681613c38565b600080604083850312156137c9578081fd5b825167ffffffffffffffff8111156137df578182fd5b6137eb858286016136f7565b925050602083015190509250929050565b600080600060608486031215613810578081fd5b835167ffffffffffffffff811115613826578182fd5b613832868287016136f7565b93505060208401519150604084015190509250925092565b6000602080838503121561385c578182fd5b825167ffffffffffffffff811115613872578283fd5b8301601f81018513613882578283fd5b805161389061371782613b2f565b80828252848201915084840188868560051b87010111156138af578687fd5b8694505b838510156138d15780518352600194909401939185019185016138b3565b50979650505050505050565b6000602082840312156138ee578081fd5b6126568261376f565b600060208284031215613908578081fd5b5035919050565b600060208284031215613920578081fd5b5051919050565b60008060408385031215613939578182fd5b50508035926020909101359150565b60008060006060848603121561395c578283fd5b83519250602084015191506139736040850161376f565b90509250925092565b6000815180845260208085019450808401835b838110156139b45781516001600160a01b03168752958201959082019060010161398f565b509495945050505050565b600082516139d1818460208701613bc1565b9190910192915050565b6001600160a01b0394851681529290931660208301526040820152606081019190915260800190565b6001600160a01b0383168152604060208201819052600090612f959083018461397c565b6000602082528251806020840152613a47816040850160208701613bc1565b601f01601f19169190910160400192915050565b60208082526016908201527531b0b63632b916b4b996b737ba16b096b5b2b2b832b960511b604082015260600190565b6020808252601a908201527f63616c6c65722d69732d6e6f742d7468652d676f7665726e6f72000000000000604082015260600190565b600086825285602083015260a06040830152613ae160a083018661397c565b6001600160a01b0394909416606083015250608001529392505050565b604051601f8201601f1916810167ffffffffffffffff81118282101715613b2757613b27613c22565b604052919050565b600067ffffffffffffffff821115613b4957613b49613c22565b5060051b60200190565b60008219821115613b6657613b66613c0c565b500190565b600082613b8657634e487b7160e01b81526012600452602481fd5b500490565b6000816000190483118215151615613ba557613ba5613c0c565b500290565b600082821015613bbc57613bbc613c0c565b500390565b60005b83811015613bdc578181015183820152602001613bc4565b83811115613beb576000848401525b50505050565b6000600019821415613c0557613c05613c0c565b5060010190565b634e487b7160e01b600052601160045260246000fd5b634e487b7160e01b600052604160045260246000fd5b6001600160a01b03811681146105da57600080fdfea26469706673582212207aa25febc642524df9531c237e9f7c7851329f80de892af95044b53240f995c764736f6c63430008030033",
  "devdoc": {
    "kind": "dev",
    "methods": {
      "addKeeper(address)": {
        "params": {
          "_keeperAddress": "keeper address to add."
        }
      },
      "approveToken()": {
        "details": "Approve all required tokens"
      },
      "convertFrom18(uint256)": {
        "details": "Convert from 18 decimals to token defined decimals. Default no conversion."
      },
      "init(address)": {
        "params": {
          "_addressListFactory": "To support same code in eth side chain, user _addressListFactory as param ethereum- 0xded8217De022706A191eE7Ee0Dc9df1185Fb5dA3 polygon-0xD10D5696A350D65A9AA15FE8B258caB4ab1bF291"
        }
      },
      "migrate(address)": {
        "details": "_beforeMigration hook can be implemented in child strategy to do extra steps.",
        "params": {
          "_newStrategy": "Address of new strategy"
        }
      },
      "rebalance()": {
        "details": "Rebalance profit, loss and investment of this strategy"
      },
      "removeKeeper(address)": {
        "params": {
          "_keeperAddress": "keeper address to remove."
        }
      },
      "sweepERC20(address)": {
        "details": "sweep given token to feeCollector of strategy",
        "params": {
          "_fromToken": "token address to sweep"
        }
      },
      "totalValue()": {
        "details": "Report total value in collateral token"
      },
      "totalValueCurrent()": {
        "details": "Report total value in collateral token"
      },
      "updateFeeCollector(address)": {
        "params": {
          "_feeCollector": "fee collector address"
        }
      },
      "updateSwapManager(address)": {
        "params": {
          "_swapManager": "swap manager address"
        }
      },
      "withdraw(uint256)": {
        "details": "Withdraw collateral token from lending pool.",
        "params": {
          "_amount": "Amount of collateral token"
        }
      }
    },
    "version": 1
  },
  "userdoc": {
    "kind": "user",
    "methods": {
      "addKeeper(address)": {
        "notice": "Add given address in keepers list."
      },
      "init(address)": {
        "notice": "Create keeper list NOTE: Any function with onlyKeeper modifier will not work until this function is called. NOTE: Due to gas constraint this function cannot be called in constructor."
      },
      "isReservedToken(address)": {
        "notice": "Check whether given token is reserved or not. Reserved tokens are not allowed to sweep."
      },
      "migrate(address)": {
        "notice": "Migrate all asset and vault ownership,if any, to new strategy"
      },
      "removeKeeper(address)": {
        "notice": "Remove given address from keepers list."
      },
      "token()": {
        "notice": "Returns address of token correspond to collateral token"
      },
      "totalValue()": {
        "notice": "Calculate total value using COMP accrued and cToken"
      },
      "totalValueCurrent()": {
        "notice": "Calculate total value of asset under management (in real-time)"
      },
      "updateFeeCollector(address)": {
        "notice": "Update fee collector"
      },
      "updateSwapManager(address)": {
        "notice": "Update swap manager address"
      }
    },
    "version": 1
  },
  "storageLayout": {
    "storage": [
      {
        "astId": 11050,
        "contract": "contracts/strategies/compound/vfr/CompoundStableStrategyDAI.sol:CompoundStableStrategyDAI",
        "label": "receiptToken",
        "offset": 0,
        "slot": "0",
        "type": "t_address"
      },
      {
        "astId": 11056,
        "contract": "contracts/strategies/compound/vfr/CompoundStableStrategyDAI.sol:CompoundStableStrategyDAI",
        "label": "keepers",
        "offset": 0,
        "slot": "1",
        "type": "t_contract(IAddressList)3647"
      },
      {
        "astId": 11059,
        "contract": "contracts/strategies/compound/vfr/CompoundStableStrategyDAI.sol:CompoundStableStrategyDAI",
        "label": "feeCollector",
        "offset": 0,
        "slot": "2",
        "type": "t_address"
      },
      {
        "astId": 11062,
        "contract": "contracts/strategies/compound/vfr/CompoundStableStrategyDAI.sol:CompoundStableStrategyDAI",
        "label": "swapManager",
        "offset": 0,
        "slot": "3",
        "type": "t_contract(ISwapManager)3950"
      },
      {
        "astId": 11065,
        "contract": "contracts/strategies/compound/vfr/CompoundStableStrategyDAI.sol:CompoundStableStrategyDAI",
        "label": "oraclePeriod",
        "offset": 0,
        "slot": "4",
        "type": "t_uint256"
      },
      {
        "astId": 11068,
        "contract": "contracts/strategies/compound/vfr/CompoundStableStrategyDAI.sol:CompoundStableStrategyDAI",
        "label": "oracleRouterIdx",
        "offset": 0,
        "slot": "5",
        "type": "t_uint256"
      },
      {
        "astId": 11071,
        "contract": "contracts/strategies/compound/vfr/CompoundStableStrategyDAI.sol:CompoundStableStrategyDAI",
        "label": "swapSlippage",
        "offset": 0,
        "slot": "6",
        "type": "t_uint256"
      },
      {
        "astId": 15251,
        "contract": "contracts/strategies/compound/vfr/CompoundStableStrategyDAI.sol:CompoundStableStrategyDAI",
        "label": "cToken",
        "offset": 0,
        "slot": "7",
        "type": "t_contract(CToken)4062"
      }
    ],
    "types": {
      "t_address": {
        "encoding": "inplace",
        "label": "address",
        "numberOfBytes": "20"
      },
      "t_contract(CToken)4062": {
        "encoding": "inplace",
        "label": "contract CToken",
        "numberOfBytes": "20"
      },
      "t_contract(IAddressList)3647": {
        "encoding": "inplace",
        "label": "contract IAddressList",
        "numberOfBytes": "20"
      },
      "t_contract(ISwapManager)3950": {
        "encoding": "inplace",
        "label": "contract ISwapManager",
        "numberOfBytes": "20"
      },
      "t_uint256": {
        "encoding": "inplace",
        "label": "uint256",
        "numberOfBytes": "32"
      }
    }
  }
}