{
  "address": "0x71a659A9dbb2dCeFAfaE4A89FF12eCAa788c3456",
  "abi": [
    {
      "inputs": [
        {
          "internalType": "address",
          "name": "_stablePool",
          "type": "address"
        },
        {
          "internalType": "address",
          "name": "_coveragePool",
          "type": "address"
        },
        {
          "internalType": "uint256",
          "name": "_coverageTime",
          "type": "uint256"
        }
      ],
      "stateMutability": "nonpayable",
      "type": "constructor"
    },
    {
      "anonymous": false,
      "inputs": [
        {
          "indexed": false,
          "internalType": "uint256",
          "name": "oldCoverageTime",
          "type": "uint256"
        },
        {
          "indexed": false,
          "internalType": "uint256",
          "name": "newCoverageTime",
          "type": "uint256"
        }
      ],
      "name": "CoverageTimeUpdated",
      "type": "event"
    },
    {
      "inputs": [],
      "name": "coveragePool",
      "outputs": [
        {
          "internalType": "address",
          "name": "",
          "type": "address"
        }
      ],
      "stateMutability": "view",
      "type": "function"
    },
    {
      "inputs": [],
      "name": "coverageTime",
      "outputs": [
        {
          "internalType": "uint256",
          "name": "",
          "type": "uint256"
        }
      ],
      "stateMutability": "view",
      "type": "function"
    },
    {
      "inputs": [],
      "name": "flush",
      "outputs": [],
      "stateMutability": "nonpayable",
      "type": "function"
    },
    {
      "inputs": [
        {
          "internalType": "uint256",
          "name": "_amount",
          "type": "uint256"
        }
      ],
      "name": "request",
      "outputs": [],
      "stateMutability": "nonpayable",
      "type": "function"
    },
    {
      "inputs": [],
      "name": "stablePool",
      "outputs": [
        {
          "internalType": "address",
          "name": "",
          "type": "address"
        }
      ],
      "stateMutability": "view",
      "type": "function"
    },
    {
      "inputs": [],
      "name": "target",
      "outputs": [
        {
          "internalType": "uint256",
          "name": "amount",
          "type": "uint256"
        }
      ],
      "stateMutability": "view",
      "type": "function"
    },
    {
      "inputs": [],
      "name": "token",
      "outputs": [
        {
          "internalType": "address",
          "name": "",
          "type": "address"
        }
      ],
      "stateMutability": "view",
      "type": "function"
    },
    {
      "inputs": [
        {
          "internalType": "uint256",
          "name": "_coverageTime",
          "type": "uint256"
        }
      ],
      "name": "updateCoverageTime",
      "outputs": [],
      "stateMutability": "nonpayable",
      "type": "function"
    }
  ],
  "transactionHash": "0xe34d93205cb05361ea98eb7b48ca753fcd57d4797386af811e2de0457519d243",
  "args": [
    "0xb4C912714f07FcD078d17479010f705F807bB115",
    "0x0b1E5e449CA0d7D8937d038e298737e023e86Dc5",
    86400
  ],
  "solcInputHash": "1b24176c26d26ad371c283ded0d788b4",
  "bytecode": "0x60806040523480156200001157600080fd5b5060405162000df638038062000df68339810160408190526200003491620001d5565b6000836001600160a01b031663fc0c546a6040518163ffffffff1660e01b815260040160206040518083038186803b1580156200007057600080fd5b505afa15801562000085573d6000803e3d6000fd5b505050506040513d601f19601f82011682018060405250810190620000ab91906200021c565b90506000836001600160a01b031663fc0c546a6040518163ffffffff1660e01b815260040160206040518083038186803b158015620000e957600080fd5b505afa158015620000fe573d6000803e3d6000fd5b505050506040513d601f19601f820116820180604052508101906200012491906200021c565b9050806001600160a01b0316826001600160a01b0316146200018c5760405162461bcd60e51b815260206004820152601360248201527f6e6f6e2d6d61746368696e672d746f6b656e7300000000000000000000000000604482015260640160405180910390fd5b50600080546001600160a01b03199081166001600160a01b039384161790915560018054821695831695909517909455600280549094169216919091179091556003556200025b565b600080600060608486031215620001ea578283fd5b8351620001f78162000242565b60208501519093506200020a8162000242565b80925050604084015190509250925092565b6000602082840312156200022e578081fd5b81516200023b8162000242565b9392505050565b6001600160a01b03811681146200025857600080fd5b50565b610b8b806200026b6000396000f3fe608060405234801561001057600080fd5b50600436106100885760003560e01c8063b5ae618e1161005b578063b5ae618e146100f1578063d4b8399214610104578063d845a4b31461010c578063fc0c546a1461011f57610088565b80631ce9e8a21461008d5780633de7afb2146100a95780636b9f96ea146100d457806395ef4fa5146100de575b600080fd5b61009660035481565b6040519081526020015b60405180910390f35b6002546100bc906001600160a01b031681565b6040516001600160a01b0390911681526020016100a0565b6100dc610132565b005b6001546100bc906001600160a01b031681565b6100dc6100ff366004610aa1565b61037a565b6100966104f5565b6100dc61011a366004610aa1565b610731565b6000546100bc906001600160a01b031681565b600160009054906101000a90046001600160a01b03166001600160a01b031663951dc22c6040518163ffffffff1660e01b815260040160206040518083038186803b15801561018057600080fd5b505afa158015610194573d6000803e3d6000fd5b505050506040513d601f19601f820116820180604052508101906101b89190610a7a565b604051630bb7c8fd60e31b81523360048201526001600160a01b039190911690635dbe47e89060240160206040518083038186803b1580156101f957600080fd5b505afa15801561020d573d6000803e3d6000fd5b505050506040513d601f19601f8201168201806040525081019061023191906109f4565b6102715760405162461bcd60e51b815260206004820152600c60248201526b3737ba16b096b5b2b2b832b960a11b60448201526064015b60405180910390fd5b6000546002546040516370a0823160e01b81523060048201526001600160a01b039283169263a9059cbb92169083906370a082319060240160206040518083038186803b1580156102c157600080fd5b505afa1580156102d5573d6000803e3d6000fd5b505050506040513d601f19601f820116820180604052508101906102f99190610ab9565b6040516001600160e01b031960e085901b1681526001600160a01b0390921660048301526024820152604401602060405180830381600087803b15801561033f57600080fd5b505af1158015610353573d6000803e3d6000fd5b505050506040513d601f19601f8201168201806040525081019061037791906109f4565b50565b600160009054906101000a90046001600160a01b03166001600160a01b031663951dc22c6040518163ffffffff1660e01b815260040160206040518083038186803b1580156103c857600080fd5b505afa1580156103dc573d6000803e3d6000fd5b505050506040513d601f19601f820116820180604052508101906104009190610a7a565b604051630bb7c8fd60e31b81523360048201526001600160a01b039190911690635dbe47e89060240160206040518083038186803b15801561044157600080fd5b505afa158015610455573d6000803e3d6000fd5b505050506040513d601f19601f8201168201806040525081019061047991906109f4565b6104b45760405162461bcd60e51b815260206004820152600c60248201526b3737ba16b096b5b2b2b832b960a11b6044820152606401610268565b60035460408051918252602082018390527f947a05bfd3162fc4183b1562bbec3be4889ea793cf9ab6a4a1d4f383c1de9a2b910160405180910390a1600355565b600080600160009054906101000a90046001600160a01b03166001600160a01b031663e6d012e46040518163ffffffff1660e01b815260040160206040518083038186803b15801561054657600080fd5b505afa15801561055a573d6000803e3d6000fd5b505050506040513d601f19601f8201168201806040525081019061057e9190610ab9565b90506000600160009054906101000a90046001600160a01b03166001600160a01b03166399530b066040518163ffffffff1660e01b815260040160206040518083038186803b1580156105d057600080fd5b505afa1580156105e4573d6000803e3d6000fd5b505050506040513d601f19601f820116820180604052508101906106089190610ab9565b905060006a1a1601fc4ea7109e00000060035484846106279190610b09565b6106319190610b09565b61063b9190610ae9565b6106459083610ad1565b90506000600160009054906101000a90046001600160a01b03166001600160a01b03166318160ddd6040518163ffffffff1660e01b815260040160206040518083038186803b15801561069757600080fd5b505afa1580156106ab573d6000803e3d6000fd5b505050506040513d601f19601f820116820180604052508101906106cf9190610ab9565b90506000670de0b6b3a76400006106e68386610b09565b6106f09190610ae9565b90506000670de0b6b3a76400006107078486610b09565b6107119190610ae9565b905081811115610728576107258282610b28565b96505b50505050505090565b60015460405163228bfd9f60e01b81523360048201526000916001600160a01b03169063228bfd9f906024016101006040518083038186803b15801561077657600080fd5b505afa15801561078a573d6000803e3d6000fd5b505050506040513d601f19601f820116820180604052508101906107ae9190610a15565b505060025460405163228bfd9f60e01b81523360048201529697506000966001600160a01b03909116955063228bfd9f945060240192506107ed915050565b6101006040518083038186803b15801561080657600080fd5b505afa15801561081a573d6000803e3d6000fd5b505050506040513d601f19601f8201168201806040525081019061083e9190610a15565b50505050505050905081806108505750805b61088f5760405162461bcd60e51b815260206004820152601060248201526f696e76616c69642d737472617465677960801b6044820152606401610268565b600080546040516370a0823160e01b81523060048201526001600160a01b03909116906370a082319060240160206040518083038186803b1580156108d357600080fd5b505afa1580156108e7573d6000803e3d6000fd5b505050506040513d601f19601f8201168201806040525081019061090b9190610ab9565b9050838110156109545760405162461bcd60e51b8152602060048201526014602482015273696e73756666696369656e742d62616c616e636560601b6044820152606401610268565b60005460405163a9059cbb60e01b8152336004820152602481018690526001600160a01b039091169063a9059cbb90604401602060405180830381600087803b1580156109a057600080fd5b505af11580156109b4573d6000803e3d6000fd5b505050506040513d601f19601f820116820180604052508101906109d891906109f4565b5050505050565b805180151581146109ef57600080fd5b919050565b600060208284031215610a05578081fd5b610a0e826109df565b9392505050565b600080600080600080600080610100898b031215610a31578384fd5b610a3a896109df565b97506020890151965060408901519550606089015194506080890151935060a0890151925060c0890151915060e089015190509295985092959890939650565b600060208284031215610a8b578081fd5b81516001600160a01b0381168114610a0e578182fd5b600060208284031215610ab2578081fd5b5035919050565b600060208284031215610aca578081fd5b5051919050565b60008219821115610ae457610ae4610b3f565b500190565b600082610b0457634e487b7160e01b81526012600452602481fd5b500490565b6000816000190483118215151615610b2357610b23610b3f565b500290565b600082821015610b3a57610b3a610b3f565b500390565b634e487b7160e01b600052601160045260246000fdfea2646970667358221220e74085a27175927f8a9342a6132d8203af54c390c2fc120d11f461c2f871970a64736f6c63430008030033",
  "devdoc": {
    "kind": "dev",
    "methods": {},
    "version": 1
  },
  "userdoc": {
    "kind": "user",
    "methods": {},
    "version": 1
  },
  "storageLayout": {
    "storage": [
      {
        "astId": 9252,
        "contract": "contracts/pool/VFRBuffer.sol:VFRBuffer",
        "label": "token",
        "offset": 0,
        "slot": "0",
        "type": "t_address"
      },
      {
        "astId": 9254,
        "contract": "contracts/pool/VFRBuffer.sol:VFRBuffer",
        "label": "stablePool",
        "offset": 0,
        "slot": "1",
        "type": "t_address"
      },
      {
        "astId": 9256,
        "contract": "contracts/pool/VFRBuffer.sol:VFRBuffer",
        "label": "coveragePool",
        "offset": 0,
        "slot": "2",
        "type": "t_address"
      },
      {
        "astId": 9258,
        "contract": "contracts/pool/VFRBuffer.sol:VFRBuffer",
        "label": "coverageTime",
        "offset": 0,
        "slot": "3",
        "type": "t_uint256"
      }
    ],
    "types": {
      "t_address": {
        "encoding": "inplace",
        "label": "address",
        "numberOfBytes": "20"
      },
      "t_uint256": {
        "encoding": "inplace",
        "label": "uint256",
        "numberOfBytes": "32"
      }
    }
  }
}