{
  "address": "0x92D12a8182feF81Fab7c25BC6C586278636C5C22",
  "abi": [
    {
      "inputs": [
        {
          "internalType": "string",
          "name": "_name",
          "type": "string"
        },
        {
          "internalType": "string",
          "name": "_symbol",
          "type": "string"
        },
        {
          "internalType": "address",
          "name": "_token",
          "type": "address"
        }
      ],
      "stateMutability": "nonpayable",
      "type": "constructor"
    },
    {
      "anonymous": false,
      "inputs": [
        {
          "indexed": true,
          "internalType": "address",
          "name": "owner",
          "type": "address"
        },
        {
          "indexed": true,
          "internalType": "address",
          "name": "spender",
          "type": "address"
        },
        {
          "indexed": false,
          "internalType": "uint256",
          "name": "value",
          "type": "uint256"
        }
      ],
      "name": "Approval",
      "type": "event"
    },
    {
      "anonymous": false,
      "inputs": [
        {
          "indexed": false,
          "internalType": "address",
          "name": "buffer",
          "type": "address"
        }
      ],
      "name": "BufferSet",
      "type": "event"
    },
    {
      "anonymous": false,
      "inputs": [
        {
          "indexed": true,
          "internalType": "address",
          "name": "owner",
          "type": "address"
        },
        {
          "indexed": false,
          "internalType": "uint256",
          "name": "shares",
          "type": "uint256"
        },
        {
          "indexed": false,
          "internalType": "uint256",
          "name": "amount",
          "type": "uint256"
        }
      ],
      "name": "Deposit",
      "type": "event"
    },
    {
      "anonymous": false,
      "inputs": [
        {
          "indexed": false,
          "internalType": "address",
          "name": "account",
          "type": "address"
        }
      ],
      "name": "Open",
      "type": "event"
    },
    {
      "anonymous": false,
      "inputs": [
        {
          "indexed": false,
          "internalType": "address",
          "name": "account",
          "type": "address"
        }
      ],
      "name": "Paused",
      "type": "event"
    },
    {
      "anonymous": false,
      "inputs": [
        {
          "indexed": false,
          "internalType": "address",
          "name": "account",
          "type": "address"
        }
      ],
      "name": "Shutdown",
      "type": "event"
    },
    {
      "anonymous": false,
      "inputs": [
        {
          "indexed": true,
          "internalType": "address",
          "name": "from",
          "type": "address"
        },
        {
          "indexed": true,
          "internalType": "address",
          "name": "to",
          "type": "address"
        },
        {
          "indexed": false,
          "internalType": "uint256",
          "name": "value",
          "type": "uint256"
        }
      ],
      "name": "Transfer",
      "type": "event"
    },
    {
      "anonymous": false,
      "inputs": [
        {
          "indexed": false,
          "internalType": "address",
          "name": "account",
          "type": "address"
        }
      ],
      "name": "Unpaused",
      "type": "event"
    },
    {
      "anonymous": false,
      "inputs": [
        {
          "indexed": true,
          "internalType": "address",
          "name": "previousFeeCollector",
          "type": "address"
        },
        {
          "indexed": true,
          "internalType": "address",
          "name": "newFeeCollector",
          "type": "address"
        }
      ],
      "name": "UpdatedFeeCollector",
      "type": "event"
    },
    {
      "anonymous": false,
      "inputs": [
        {
          "indexed": true,
          "internalType": "address",
          "name": "previousGovernor",
          "type": "address"
        },
        {
          "indexed": true,
          "internalType": "address",
          "name": "proposedGovernor",
          "type": "address"
        }
      ],
      "name": "UpdatedGovernor",
      "type": "event"
    },
    {
      "anonymous": false,
      "inputs": [
        {
          "indexed": true,
          "internalType": "address",
          "name": "previousPoolRewards",
          "type": "address"
        },
        {
          "indexed": true,
          "internalType": "address",
          "name": "newPoolRewards",
          "type": "address"
        }
      ],
      "name": "UpdatedPoolRewards",
      "type": "event"
    },
    {
      "anonymous": false,
      "inputs": [
        {
          "indexed": false,
          "internalType": "uint256",
          "name": "previousWithdrawFee",
          "type": "uint256"
        },
        {
          "indexed": false,
          "internalType": "uint256",
          "name": "newWithdrawFee",
          "type": "uint256"
        }
      ],
      "name": "UpdatedWithdrawFee",
      "type": "event"
    },
    {
      "anonymous": false,
      "inputs": [
        {
          "indexed": true,
          "internalType": "address",
          "name": "owner",
          "type": "address"
        },
        {
          "indexed": false,
          "internalType": "uint256",
          "name": "shares",
          "type": "uint256"
        },
        {
          "indexed": false,
          "internalType": "uint256",
          "name": "amount",
          "type": "uint256"
        }
      ],
      "name": "Withdraw",
      "type": "event"
    },
    {
      "inputs": [],
      "name": "DOMAIN_SEPARATOR",
      "outputs": [
        {
          "internalType": "bytes32",
          "name": "",
          "type": "bytes32"
        }
      ],
      "stateMutability": "view",
      "type": "function"
    },
    {
      "inputs": [],
      "name": "MAX_BPS",
      "outputs": [
        {
          "internalType": "uint256",
          "name": "",
          "type": "uint256"
        }
      ],
      "stateMutability": "view",
      "type": "function"
    },
    {
      "inputs": [],
      "name": "VERSION",
      "outputs": [
        {
          "internalType": "string",
          "name": "",
          "type": "string"
        }
      ],
      "stateMutability": "view",
      "type": "function"
    },
    {
      "inputs": [],
      "name": "acceptGovernorship",
      "outputs": [],
      "stateMutability": "nonpayable",
      "type": "function"
    },
    {
      "inputs": [
        {
          "internalType": "address",
          "name": "_listToUpdate",
          "type": "address"
        },
        {
          "internalType": "address",
          "name": "_addressToAdd",
          "type": "address"
        }
      ],
      "name": "addInList",
      "outputs": [],
      "stateMutability": "nonpayable",
      "type": "function"
    },
    {
      "inputs": [
        {
          "internalType": "address",
          "name": "owner",
          "type": "address"
        },
        {
          "internalType": "address",
          "name": "spender",
          "type": "address"
        }
      ],
      "name": "allowance",
      "outputs": [
        {
          "internalType": "uint256",
          "name": "",
          "type": "uint256"
        }
      ],
      "stateMutability": "view",
      "type": "function"
    },
    {
      "inputs": [
        {
          "internalType": "address",
          "name": "spender",
          "type": "address"
        },
        {
          "internalType": "uint256",
          "name": "amount",
          "type": "uint256"
        }
      ],
      "name": "approve",
      "outputs": [
        {
          "internalType": "bool",
          "name": "",
          "type": "bool"
        }
      ],
      "stateMutability": "nonpayable",
      "type": "function"
    },
    {
      "inputs": [
        {
          "internalType": "address",
          "name": "_strategy",
          "type": "address"
        }
      ],
      "name": "availableCreditLimit",
      "outputs": [
        {
          "internalType": "uint256",
          "name": "",
          "type": "uint256"
        }
      ],
      "stateMutability": "view",
      "type": "function"
    },
    {
      "inputs": [
        {
          "internalType": "address",
          "name": "account",
          "type": "address"
        }
      ],
      "name": "balanceOf",
      "outputs": [
        {
          "internalType": "uint256",
          "name": "",
          "type": "uint256"
        }
      ],
      "stateMutability": "view",
      "type": "function"
    },
    {
      "inputs": [],
      "name": "buffer",
      "outputs": [
        {
          "internalType": "address",
          "name": "",
          "type": "address"
        }
      ],
      "stateMutability": "view",
      "type": "function"
    },
    {
      "inputs": [
        {
          "internalType": "uint256",
          "name": "_amount",
          "type": "uint256"
        }
      ],
      "name": "convertFrom18",
      "outputs": [
        {
          "internalType": "uint256",
          "name": "",
          "type": "uint256"
        }
      ],
      "stateMutability": "view",
      "type": "function"
    },
    {
      "inputs": [],
      "name": "decimalConversionFactor",
      "outputs": [
        {
          "internalType": "uint256",
          "name": "",
          "type": "uint256"
        }
      ],
      "stateMutability": "view",
      "type": "function"
    },
    {
      "inputs": [],
      "name": "decimals",
      "outputs": [
        {
          "internalType": "uint8",
          "name": "",
          "type": "uint8"
        }
      ],
      "stateMutability": "view",
      "type": "function"
    },
    {
      "inputs": [
        {
          "internalType": "address",
          "name": "spender",
          "type": "address"
        },
        {
          "internalType": "uint256",
          "name": "subtractedValue",
          "type": "uint256"
        }
      ],
      "name": "decreaseAllowance",
      "outputs": [
        {
          "internalType": "bool",
          "name": "",
          "type": "bool"
        }
      ],
      "stateMutability": "nonpayable",
      "type": "function"
    },
    {
      "inputs": [
        {
          "internalType": "uint256",
          "name": "_amount",
          "type": "uint256"
        }
      ],
      "name": "deposit",
      "outputs": [],
      "stateMutability": "nonpayable",
      "type": "function"
    },
    {
      "inputs": [
        {
          "internalType": "uint256",
          "name": "_amount",
          "type": "uint256"
        },
        {
          "internalType": "uint256",
          "name": "_deadline",
          "type": "uint256"
        },
        {
          "internalType": "uint8",
          "name": "_v",
          "type": "uint8"
        },
        {
          "internalType": "bytes32",
          "name": "_r",
          "type": "bytes32"
        },
        {
          "internalType": "bytes32",
          "name": "_s",
          "type": "bytes32"
        }
      ],
      "name": "depositWithPermit",
      "outputs": [],
      "stateMutability": "nonpayable",
      "type": "function"
    },
    {
      "inputs": [
        {
          "internalType": "address",
          "name": "_strategy",
          "type": "address"
        }
      ],
      "name": "excessDebt",
      "outputs": [
        {
          "internalType": "uint256",
          "name": "",
          "type": "uint256"
        }
      ],
      "stateMutability": "view",
      "type": "function"
    },
    {
      "inputs": [],
      "name": "feeCollector",
      "outputs": [
        {
          "internalType": "address",
          "name": "",
          "type": "address"
        }
      ],
      "stateMutability": "view",
      "type": "function"
    },
    {
      "inputs": [],
      "name": "feeWhitelist",
      "outputs": [
        {
          "internalType": "address",
          "name": "",
          "type": "address"
        }
      ],
      "stateMutability": "view",
      "type": "function"
    },
    {
      "inputs": [],
      "name": "getStrategies",
      "outputs": [
        {
          "internalType": "address[]",
          "name": "",
          "type": "address[]"
        }
      ],
      "stateMutability": "view",
      "type": "function"
    },
    {
      "inputs": [],
      "name": "getWithdrawQueue",
      "outputs": [
        {
          "internalType": "address[]",
          "name": "",
          "type": "address[]"
        }
      ],
      "stateMutability": "view",
      "type": "function"
    },
    {
      "inputs": [],
      "name": "governor",
      "outputs": [
        {
          "internalType": "address",
          "name": "",
          "type": "address"
        }
      ],
      "stateMutability": "view",
      "type": "function"
    },
    {
      "inputs": [
        {
          "internalType": "address",
          "name": "spender",
          "type": "address"
        },
        {
          "internalType": "uint256",
          "name": "addedValue",
          "type": "uint256"
        }
      ],
      "name": "increaseAllowance",
      "outputs": [
        {
          "internalType": "bool",
          "name": "",
          "type": "bool"
        }
      ],
      "stateMutability": "nonpayable",
      "type": "function"
    },
    {
      "inputs": [
        {
          "internalType": "string",
          "name": "_name",
          "type": "string"
        },
        {
          "internalType": "string",
          "name": "_symbol",
          "type": "string"
        },
        {
          "internalType": "address",
          "name": "_token",
          "type": "address"
        },
        {
          "internalType": "address",
          "name": "_poolAccountant",
          "type": "address"
        },
        {
          "internalType": "address",
          "name": "_addressListFactory",
          "type": "address"
        }
      ],
      "name": "initialize",
      "outputs": [],
      "stateMutability": "nonpayable",
      "type": "function"
    },
    {
      "inputs": [],
      "name": "keepers",
      "outputs": [
        {
          "internalType": "address",
          "name": "",
          "type": "address"
        }
      ],
      "stateMutability": "view",
      "type": "function"
    },
    {
      "inputs": [],
      "name": "maintainers",
      "outputs": [
        {
          "internalType": "address",
          "name": "",
          "type": "address"
        }
      ],
      "stateMutability": "view",
      "type": "function"
    },
    {
      "inputs": [
        {
          "internalType": "address",
          "name": "_old",
          "type": "address"
        },
        {
          "internalType": "address",
          "name": "_new",
          "type": "address"
        }
      ],
      "name": "migrateStrategy",
      "outputs": [],
      "stateMutability": "nonpayable",
      "type": "function"
    },
    {
      "inputs": [
        {
          "internalType": "address[]",
          "name": "_recipients",
          "type": "address[]"
        },
        {
          "internalType": "uint256[]",
          "name": "_amounts",
          "type": "uint256[]"
        }
      ],
      "name": "multiTransfer",
      "outputs": [
        {
          "internalType": "bool",
          "name": "",
          "type": "bool"
        }
      ],
      "stateMutability": "nonpayable",
      "type": "function"
    },
    {
      "inputs": [],
      "name": "name",
      "outputs": [
        {
          "internalType": "string",
          "name": "",
          "type": "string"
        }
      ],
      "stateMutability": "view",
      "type": "function"
    },
    {
      "inputs": [
        {
          "internalType": "address",
          "name": "",
          "type": "address"
        }
      ],
      "name": "nonces",
      "outputs": [
        {
          "internalType": "uint256",
          "name": "",
          "type": "uint256"
        }
      ],
      "stateMutability": "view",
      "type": "function"
    },
    {
      "inputs": [],
      "name": "open",
      "outputs": [],
      "stateMutability": "nonpayable",
      "type": "function"
    },
    {
      "inputs": [],
      "name": "pause",
      "outputs": [],
      "stateMutability": "nonpayable",
      "type": "function"
    },
    {
      "inputs": [],
      "name": "paused",
      "outputs": [
        {
          "internalType": "bool",
          "name": "",
          "type": "bool"
        }
      ],
      "stateMutability": "view",
      "type": "function"
    },
    {
      "inputs": [
        {
          "internalType": "address",
          "name": "owner",
          "type": "address"
        },
        {
          "internalType": "address",
          "name": "spender",
          "type": "address"
        },
        {
          "internalType": "uint256",
          "name": "value",
          "type": "uint256"
        },
        {
          "internalType": "uint256",
          "name": "deadline",
          "type": "uint256"
        },
        {
          "internalType": "uint8",
          "name": "v",
          "type": "uint8"
        },
        {
          "internalType": "bytes32",
          "name": "r",
          "type": "bytes32"
        },
        {
          "internalType": "bytes32",
          "name": "s",
          "type": "bytes32"
        }
      ],
      "name": "permit",
      "outputs": [],
      "stateMutability": "nonpayable",
      "type": "function"
    },
    {
      "inputs": [],
      "name": "poolAccountant",
      "outputs": [
        {
          "internalType": "address",
          "name": "",
          "type": "address"
        }
      ],
      "stateMutability": "view",
      "type": "function"
    },
    {
      "inputs": [],
      "name": "poolRewards",
      "outputs": [
        {
          "internalType": "address",
          "name": "",
          "type": "address"
        }
      ],
      "stateMutability": "view",
      "type": "function"
    },
    {
      "inputs": [],
      "name": "pricePerShare",
      "outputs": [
        {
          "internalType": "uint256",
          "name": "",
          "type": "uint256"
        }
      ],
      "stateMutability": "view",
      "type": "function"
    },
    {
      "inputs": [
        {
          "internalType": "address",
          "name": "_listToUpdate",
          "type": "address"
        },
        {
          "internalType": "address",
          "name": "_addressToRemove",
          "type": "address"
        }
      ],
      "name": "removeFromList",
      "outputs": [],
      "stateMutability": "nonpayable",
      "type": "function"
    },
    {
      "inputs": [
        {
          "internalType": "uint256",
          "name": "_profit",
          "type": "uint256"
        },
        {
          "internalType": "uint256",
          "name": "_loss",
          "type": "uint256"
        },
        {
          "internalType": "uint256",
          "name": "_payback",
          "type": "uint256"
        }
      ],
      "name": "reportEarning",
      "outputs": [],
      "stateMutability": "nonpayable",
      "type": "function"
    },
    {
      "inputs": [
        {
          "internalType": "uint256",
          "name": "_loss",
          "type": "uint256"
        }
      ],
      "name": "reportLoss",
      "outputs": [],
      "stateMutability": "nonpayable",
      "type": "function"
    },
    {
      "inputs": [
        {
          "internalType": "address",
          "name": "_buffer",
          "type": "address"
        }
      ],
      "name": "setBuffer",
      "outputs": [],
      "stateMutability": "nonpayable",
      "type": "function"
    },
    {
      "inputs": [],
      "name": "shutdown",
      "outputs": [],
      "stateMutability": "nonpayable",
      "type": "function"
    },
    {
      "inputs": [],
      "name": "stopEverything",
      "outputs": [
        {
          "internalType": "bool",
          "name": "",
          "type": "bool"
        }
      ],
      "stateMutability": "view",
      "type": "function"
    },
    {
      "inputs": [
        {
          "internalType": "address",
          "name": "_strategy",
          "type": "address"
        }
      ],
      "name": "strategy",
      "outputs": [
        {
          "internalType": "bool",
          "name": "_active",
          "type": "bool"
        },
        {
          "internalType": "uint256",
          "name": "_interestFee",
          "type": "uint256"
        },
        {
          "internalType": "uint256",
          "name": "_debtRate",
          "type": "uint256"
        },
        {
          "internalType": "uint256",
          "name": "_lastRebalance",
          "type": "uint256"
        },
        {
          "internalType": "uint256",
          "name": "_totalDebt",
          "type": "uint256"
        },
        {
          "internalType": "uint256",
          "name": "_totalLoss",
          "type": "uint256"
        },
        {
          "internalType": "uint256",
          "name": "_totalProfit",
          "type": "uint256"
        },
        {
          "internalType": "uint256",
          "name": "_debtRatio",
          "type": "uint256"
        }
      ],
      "stateMutability": "view",
      "type": "function"
    },
    {
      "inputs": [
        {
          "internalType": "address",
          "name": "_fromToken",
          "type": "address"
        }
      ],
      "name": "sweepERC20",
      "outputs": [],
      "stateMutability": "nonpayable",
      "type": "function"
    },
    {
      "inputs": [],
      "name": "symbol",
      "outputs": [
        {
          "internalType": "string",
          "name": "",
          "type": "string"
        }
      ],
      "stateMutability": "view",
      "type": "function"
    },
    {
      "inputs": [],
      "name": "token",
      "outputs": [
        {
          "internalType": "contract IERC20",
          "name": "",
          "type": "address"
        }
      ],
      "stateMutability": "view",
      "type": "function"
    },
    {
      "inputs": [],
      "name": "tokensHere",
      "outputs": [
        {
          "internalType": "uint256",
          "name": "",
          "type": "uint256"
        }
      ],
      "stateMutability": "view",
      "type": "function"
    },
    {
      "inputs": [],
      "name": "totalDebt",
      "outputs": [
        {
          "internalType": "uint256",
          "name": "",
          "type": "uint256"
        }
      ],
      "stateMutability": "view",
      "type": "function"
    },
    {
      "inputs": [
        {
          "internalType": "address",
          "name": "_strategy",
          "type": "address"
        }
      ],
      "name": "totalDebtOf",
      "outputs": [
        {
          "internalType": "uint256",
          "name": "",
          "type": "uint256"
        }
      ],
      "stateMutability": "view",
      "type": "function"
    },
    {
      "inputs": [],
      "name": "totalDebtRatio",
      "outputs": [
        {
          "internalType": "uint256",
          "name": "",
          "type": "uint256"
        }
      ],
      "stateMutability": "view",
      "type": "function"
    },
    {
      "inputs": [],
      "name": "totalSupply",
      "outputs": [
        {
          "internalType": "uint256",
          "name": "",
          "type": "uint256"
        }
      ],
      "stateMutability": "view",
      "type": "function"
    },
    {
      "inputs": [],
      "name": "totalValue",
      "outputs": [
        {
          "internalType": "uint256",
          "name": "",
          "type": "uint256"
        }
      ],
      "stateMutability": "view",
      "type": "function"
    },
    {
      "inputs": [
        {
          "internalType": "address",
          "name": "recipient",
          "type": "address"
        },
        {
          "internalType": "uint256",
          "name": "amount",
          "type": "uint256"
        }
      ],
      "name": "transfer",
      "outputs": [
        {
          "internalType": "bool",
          "name": "",
          "type": "bool"
        }
      ],
      "stateMutability": "nonpayable",
      "type": "function"
    },
    {
      "inputs": [
        {
          "internalType": "address",
          "name": "sender",
          "type": "address"
        },
        {
          "internalType": "address",
          "name": "recipient",
          "type": "address"
        },
        {
          "internalType": "uint256",
          "name": "amount",
          "type": "uint256"
        }
      ],
      "name": "transferFrom",
      "outputs": [
        {
          "internalType": "bool",
          "name": "",
          "type": "bool"
        }
      ],
      "stateMutability": "nonpayable",
      "type": "function"
    },
    {
      "inputs": [
        {
          "internalType": "address",
          "name": "_proposedGovernor",
          "type": "address"
        }
      ],
      "name": "transferGovernorship",
      "outputs": [],
      "stateMutability": "nonpayable",
      "type": "function"
    },
    {
      "inputs": [],
      "name": "unpause",
      "outputs": [],
      "stateMutability": "nonpayable",
      "type": "function"
    },
    {
      "inputs": [
        {
          "internalType": "address",
          "name": "_newFeeCollector",
          "type": "address"
        }
      ],
      "name": "updateFeeCollector",
      "outputs": [],
      "stateMutability": "nonpayable",
      "type": "function"
    },
    {
      "inputs": [
        {
          "internalType": "address",
          "name": "_newPoolRewards",
          "type": "address"
        }
      ],
      "name": "updatePoolRewards",
      "outputs": [],
      "stateMutability": "nonpayable",
      "type": "function"
    },
    {
      "inputs": [
        {
          "internalType": "uint256",
          "name": "_newWithdrawFee",
          "type": "uint256"
        }
      ],
      "name": "updateWithdrawFee",
      "outputs": [],
      "stateMutability": "nonpayable",
      "type": "function"
    },
    {
      "inputs": [
        {
          "internalType": "uint256",
          "name": "_shares",
          "type": "uint256"
        }
      ],
      "name": "whitelistedWithdraw",
      "outputs": [],
      "stateMutability": "nonpayable",
      "type": "function"
    },
    {
      "inputs": [
        {
          "internalType": "uint256",
          "name": "_shares",
          "type": "uint256"
        }
      ],
      "name": "withdraw",
      "outputs": [],
      "stateMutability": "nonpayable",
      "type": "function"
    },
    {
      "inputs": [],
      "name": "withdrawFee",
      "outputs": [
        {
          "internalType": "uint256",
          "name": "",
          "type": "uint256"
        }
      ],
      "stateMutability": "view",
      "type": "function"
    }
  ],
  "transactionHash": "0x3de1760900b566484c0e62a345f62b99e9d2324d9469f905295deff066773d15",
  "args": [
    "vfrcDAI Pool",
    "vfrcDAI",
    "0x6B175474E89094C44Da98b954EedeAC495271d0F"
  ],
  "solcInputHash": "1b24176c26d26ad371c283ded0d788b4",
  "bytecode": "0x60806040523480156200001157600080fd5b5060405162004d1e38038062004d1e833981016040819052620000349162000264565b82828282828282828282828160039080519060200190620000579291906200010b565b5080516200006d9060049060208401906200010b565b5050506000620000826200010760201b60201c565b600a80546001600160a01b0319166001600160a01b038316908117909155604051919250906000907fd4459d5b8b913cab0244230fd9b1c08b6ceace7fe9230e60d0f74cbffdf849d0908290a3506001600c55600d80546001600160a01b0319166001600160a01b039290921691909117905550620003409950505050505050505050565b3390565b8280546200011990620002ed565b90600052602060002090601f0160209004810192826200013d576000855562000188565b82601f106200015857805160ff191683800117855562000188565b8280016001018555821562000188579182015b82811115620001885782518255916020019190600101906200016b565b50620001969291506200019a565b5090565b5b808211156200019657600081556001016200019b565b600082601f830112620001c2578081fd5b81516001600160401b0380821115620001df57620001df6200032a565b604051601f8301601f19908116603f011681019082821181831017156200020a576200020a6200032a565b8160405283815260209250868385880101111562000226578485fd5b8491505b838210156200024957858201830151818301840152908201906200022a565b838211156200025a57848385830101525b9695505050505050565b60008060006060848603121562000279578283fd5b83516001600160401b038082111562000290578485fd5b6200029e87838801620001b1565b94506020860151915080821115620002b4578384fd5b50620002c386828701620001b1565b604086015190935090506001600160a01b0381168114620002e2578182fd5b809150509250925092565b600181811c908216806200030257607f821691505b602082108114156200032457634e487b7160e01b600052602260045260246000fd5b50919050565b634e487b7160e01b600052604160045260246000fd5b6149ce80620003506000396000f3fe608060405234801561001057600080fd5b50600436106103c55760003560e01c80639f2b2833116101ff578063dd62ed3e1161011a578063fc0c546a116100ad578063fcfff16f1161007c578063fcfff16f1461083c578063fd967f4714610844578063ff643a7c1461084d578063ffa1ad7414610860576103c5565b8063fc0c546a14610806578063fc0e74d114610819578063fc76781014610821578063fc7b9c1814610834576103c5565b8063e95c41c3116100e9578063e95c41c3146107c0578063edaafe20146107d3578063f3b27bc3146107eb578063fb589de2146107f3576103c5565b8063dd62ed3e14610758578063ddd6d26014610791578063e00af4a7146107a4578063e941fa78146107b7576103c5565b8063c12d636b11610192578063d505accf11610161578063d505accf1461070c578063d53ddc261461071f578063daf635de14610732578063db0ed6a014610745576103c5565b8063c12d636b146106cb578063c415b95c146106de578063d2c35ce8146106f1578063d4c3eea014610704576103c5565b8063b64321ec116101ce578063b64321ec1461068a578063b6aa515b1461069d578063b6b55f25146106b0578063b8cb343d146106c3576103c5565b80639f2b283314610649578063a457c2d71461065c578063a9059cbb1461066f578063b49a60bb14610682576103c5565b80633f4ba83a116102ef5780637ecebe0011610282578063940c408211610251578063940c408214610613578063951dc22c1461062657806395d89b411461063957806399530b0614610641576103c5565b80637ecebe00146105cf5780638456cb59146105ef5780638bc6beb2146105f75780638fe91ffb1461060a576103c5565b80635c975abb116102be5780635c975abb1461058257806367187d3d146105965780636cb56d19146105a957806370a08231146105bc576103c5565b80633f4ba83a146105405780634938649a1461054857806349eeb8601461055c5780634a970be71461056f576103c5565b80631e89d545116103675780632e1a7d4d116103365780632e1a7d4d14610503578063313ce567146105165780633644e51514610525578063395093511461052d576103c5565b80631e89d54514610485578063228bfd9f1461049857806323b872dd146104e85780632df9eab9146104fb576103c5565b80630c340a24116103a35780630c340a2414610420578063111830521461044b57806318160ddd146104605780631e751ac114610472576103c5565b806305bed046146103ca57806306fdde03146103df578063095ea7b3146103fd575b600080fd5b6103dd6103d83660046144a4565b610884565b005b6103e76109ba565b6040516103f491906145c9565b60405180910390f35b61041061040b366004614212565b610a4d565b60405190151581526020016103f4565b600a54610433906001600160a01b031681565b6040516001600160a01b0390911681526020016103f4565b610453610a63565b6040516103f4919061457c565b6002545b6040519081526020016103f4565b6103dd61048036600461412a565b610ae9565b61041061049336600461423d565b610c51565b6104ab6104a63660046140f2565b610d53565b6040805198151589526020890197909752958701949094526060860192909252608085015260a084015260c083015260e0820152610100016103f4565b6104106104f6366004614162565b610dfc565b610464610eaf565b6103dd610511366004614474565b610f2c565b604051601281526020016103f4565b610464610f8f565b61041061053b366004614212565b610f99565b6103dd610fd0565b600b5461041090600160a81b900460ff1681565b601254610433906001600160a01b031681565b6103dd61057d3660046144fc565b61107f565b600b5461041090600160a01b900460ff1681565b6103dd6105a436600461412a565b61117c565b6103dd6105b736600461412a565b6112d5565b6104646105ca3660046140f2565b611511565b6104646105dd3660046140f2565b60096020526000908152604090205481565b6103dd611530565b600f54610433906001600160a01b031681565b61046460155481565b6103dd6106213660046140f2565b6115dd565b601154610433906001600160a01b031681565b6103e76116a4565b6104646116b3565b6104646106573660046140f2565b611713565b61041061066a366004614212565b611798565b61041061067d366004614212565b611833565b610453611840565b6104646106983660046140f2565b611885565b6103dd6106ab3660046140f2565b6118b8565b6103dd6106be366004614474565b61195a565b6104646119b5565b600e54610433906001600160a01b031681565b601354610433906001600160a01b031681565b6103dd6106ff3660046140f2565b6119f9565b610464611ac0565b6103dd61071a3660046141a2565b611b5a565b61046461072d3660046140f2565b611d1a565b6103dd610740366004614474565b611d4d565b6103dd6107533660046143d9565b611e38565b61046461076636600461412a565b6001600160a01b03918216600090815260016020908152604080832093909416825291909152205490565b6103dd61079f366004614474565b611eb5565b6103dd6107b23660046140f2565b611f1d565b61046460145481565b6103dd6107ce3660046140f2565b6120e5565b6016546104339061010090046001600160a01b031681565b6103dd612213565b610464610801366004614474565b6122d3565b600d54610433906001600160a01b031681565b6103dd6122e3565b601054610433906001600160a01b031681565b610464612390565b6103dd6123d5565b61046461271081565b6103dd61085b366004614474565b612482565b6103e7604051806040016040528060058152602001640ccb8c0b8d60da1b81525081565b600e54600090819081906001600160a01b031663a066654b336040516001600160e01b031960e084901b1681526001600160a01b039091166004820152602481018990526044810188905260648101879052608401606060405180830381600087803b1580156108f357600080fd5b505af1158015610907573d6000803e3d6000fd5b505050506040513d601f19601f8201168201806040525081019061092b91906144cf565b91945092509050600061093e8488614744565b90508281101561096e576109693361095683866148af565b600d546001600160a01b0316919061259f565b610999565b8281111561099957610999333061098586856148af565b600d546001600160a01b0316929190612602565b81156109b1576109b1336109ac84612640565b6126de565b50505050505050565b6060600380546109c9906148f2565b80601f01602080910402602001604051908101604052809291908181526020018280546109f5906148f2565b8015610a425780601f10610a1757610100808354040283529160200191610a42565b820191906000526020600020905b815481529060010190602001808311610a2557829003601f168201915b505050505090505b90565b6000610a5a3384846127bd565b50600192915050565b600e546040805163088c182960e11b815290516060926001600160a01b0316916311183052916004808301926000929190829003018186803b158015610aa857600080fd5b505afa158015610abc573d6000803e3d6000fd5b505050506040513d6000823e601f3d908101601f19168201604052610ae491908101906142a6565b905090565b6011546001600160a01b0316635dbe47e8336040516001600160e01b031960e084901b1681526001600160a01b03909116600482015260240160206040518083038186803b158015610b3a57600080fd5b505afa158015610b4e573d6000803e3d6000fd5b505050506040513d601f19601f82011682018060405250810190610b72919061435a565b610b975760405162461bcd60e51b8152600401610b8e9061464a565b60405180910390fd5b604051630a3b0a4f60e01b81526001600160a01b038281166004830152831690630a3b0a4f906024015b602060405180830381600087803b158015610bdb57600080fd5b505af1158015610bef573d6000803e3d6000fd5b505050506040513d601f19601f82011682018060405250810190610c13919061435a565b60405180604001604052806002815260200161313360f01b81525090610c4c5760405162461bcd60e51b8152600401610b8e91906145c9565b505050565b6040805180820190915260018152600d60fa1b6020820152600090848314610c8c5760405162461bcd60e51b8152600401610b8e91906145c9565b5060005b84811015610d4757610cfc868683818110610cbb57634e487b7160e01b600052603260045260246000fd5b9050602002016020810190610cd091906140f2565b858584818110610cf057634e487b7160e01b600052603260045260246000fd5b90506020020135611833565b604051806040016040528060018152602001601b60f91b81525090610d345760405162461bcd60e51b8152600401610b8e91906145c9565b5080610d3f8161492d565b915050610c90565b50600195945050505050565b600e5460405163228bfd9f60e01b81526001600160a01b038381166004830152600092839283928392839283928392839291169063228bfd9f906024016101006040518083038186803b158015610da957600080fd5b505afa158015610dbd573d6000803e3d6000fd5b505050506040513d601f19601f82011682018060405250810190610de19190614374565b97509750975097509750975097509750919395975091939597565b6000610e098484846128e2565b6001600160a01b038416600090815260016020908152604080832033845290915290205482811015610e8e5760405162461bcd60e51b815260206004820152602860248201527f45524332303a207472616e7366657220616d6f756e74206578636565647320616044820152676c6c6f77616e636560c01b6064820152608401610b8e565b610ea28533610e9d86856148af565b6127bd565b60019150505b9392505050565b600e5460408051632df9eab960e01b815290516000926001600160a01b031691632df9eab9916004808301926020929190829003018186803b158015610ef457600080fd5b505afa158015610f08573d6000803e3d6000fd5b505050506040513d601f19601f82011682018060405250810190610ae4919061448c565b6002600c541415610f4f5760405162461bcd60e51b8152600401610b8e90614692565b6002600c55600b54600160a81b900460ff1615610f7e5760405162461bcd60e51b8152600401610b8e90614670565b610f87816129bd565b506001600c55565b6000610ae4612b16565b3360008181526001602090815260408083206001600160a01b03871684529091528120549091610a5a918590610e9d908690614744565b6011546001600160a01b0316635dbe47e8336040516001600160e01b031960e084901b1681526001600160a01b03909116600482015260240160206040518083038186803b15801561102157600080fd5b505afa158015611035573d6000803e3d6000fd5b505050506040513d601f19601f82011682018060405250810190611059919061435a565b6110755760405162461bcd60e51b8152600401610b8e9061464a565b61107d612b93565b565b6002600c5414156110a25760405162461bcd60e51b8152600401610b8e90614692565b6002600c55600b54600160a01b900460ff16156110d15760405162461bcd60e51b8152600401610b8e906146c9565b600d546001600160a01b031663d505accf336040516001600160e01b031960e084901b1681526001600160a01b039091166004820152306024820152604481018890526064810187905260ff8616608482015260a4810185905260c4810184905260e401600060405180830381600087803b15801561114f57600080fd5b505af1158015611163573d6000803e3d6000fd5b5050505061117085612c50565b50506001600c55505050565b6011546001600160a01b0316635dbe47e8336040516001600160e01b031960e084901b1681526001600160a01b03909116600482015260240160206040518083038186803b1580156111cd57600080fd5b505afa1580156111e1573d6000803e3d6000fd5b505050506040513d601f19601f82011682018060405250810190611205919061435a565b6112215760405162461bcd60e51b8152600401610b8e9061464a565b604051631484968760e11b81526001600160a01b0382811660048301528316906329092d0e90602401602060405180830381600087803b15801561126457600080fd5b505af1158015611278573d6000803e3d6000fd5b505050506040513d601f19601f8201168201806040525081019061129c919061435a565b604051806040016040528060028152602001610c4d60f21b81525090610c4c5760405162461bcd60e51b8152600401610b8e91906145c9565b600a546001600160a01b031633146112ff5760405162461bcd60e51b8152600401610b8e906146e9565b306001600160a01b0316816001600160a01b03166316f0115b6040518163ffffffff1660e01b815260040160206040518083038186803b15801561134257600080fd5b505afa158015611356573d6000803e3d6000fd5b505050506040513d601f19601f8201168201806040525081019061137a919061410e565b6001600160a01b03161480156114115750306001600160a01b0316826001600160a01b03166316f0115b6040518163ffffffff1660e01b815260040160206040518083038186803b1580156113ce57600080fd5b505afa1580156113e2573d6000803e3d6000fd5b505050506040513d601f19601f82011682018060405250810190611406919061410e565b6001600160a01b0316145b60405180604001604052806002815260200161313760f01b8152509061144a5760405162461bcd60e51b8152600401610b8e91906145c9565b50600e54604051636cb56d1960e01b81526001600160a01b038481166004830152838116602483015290911690636cb56d1990604401600060405180830381600087803b15801561149a57600080fd5b505af11580156114ae573d6000803e3d6000fd5b505060405163ce5494bb60e01b81526001600160a01b0384811660048301528516925063ce5494bb9150602401600060405180830381600087803b1580156114f557600080fd5b505af1158015611509573d6000803e3d6000fd5b505050505050565b6001600160a01b0381166000908152602081905260409020545b919050565b6011546001600160a01b0316635dbe47e8336040516001600160e01b031960e084901b1681526001600160a01b03909116600482015260240160206040518083038186803b15801561158157600080fd5b505afa158015611595573d6000803e3d6000fd5b505050506040513d601f19601f820116820180604052508101906115b9919061435a565b6115d55760405162461bcd60e51b8152600401610b8e9061464a565b61107d612cb8565b600a546001600160a01b031633146116075760405162461bcd60e51b8152600401610b8e906146e9565b604080518082019091526002815261031360f41b60208201526001600160a01b0382166116475760405162461bcd60e51b8152600401610b8e91906145c9565b50600f546040516001600160a01b038084169216907fe239974dad08ac696e723caf1886bd0b5afc0870088f9a1266082757f824927690600090a3600f80546001600160a01b0319166001600160a01b0392909216919091179055565b6060600480546109c9906148f2565b60006116be60025490565b15806116cf57506116cd611ac0565b155b156116ec576116e5670de0b6b3a76400006122d3565b9050610a4a565b6002546116f7611ac0565b61170990670de0b6b3a7640000614890565b610ae4919061475c565b600e54604051639f2b283360e01b81526001600160a01b0383811660048301526000921690639f2b2833906024015b60206040518083038186803b15801561175a57600080fd5b505afa15801561176e573d6000803e3d6000fd5b505050506040513d601f19601f82011682018060405250810190611792919061448c565b92915050565b3360009081526001602090815260408083206001600160a01b03861684529091528120548281101561181a5760405162461bcd60e51b815260206004820152602560248201527f45524332303a2064656372656173656420616c6c6f77616e63652062656c6f77604482015264207a65726f60d81b6064820152608401610b8e565b6118293385610e9d86856148af565b5060019392505050565b6000610a5a3384846128e2565b600e546040805163b49a60bb60e01b815290516060926001600160a01b03169163b49a60bb916004808301926000929190829003018186803b158015610aa857600080fd5b600e54604051632d90c87b60e21b81526001600160a01b038381166004830152600092169063b64321ec90602401611742565b600a546001600160a01b031633146118e25760405162461bcd60e51b8152600401610b8e906146e9565b6001600160a01b0381166119385760405162461bcd60e51b815260206004820152601960248201527f70726f706f7365642d676f7665726e6f722d69732d7a65726f000000000000006044820152606401610b8e565b600b80546001600160a01b0319166001600160a01b0392909216919091179055565b6002600c54141561197d5760405162461bcd60e51b8152600401610b8e90614692565b6002600c55600b54600160a01b900460ff16156119ac5760405162461bcd60e51b8152600401610b8e906146c9565b610f8781612c50565b600d546040516370a0823160e01b81523060048201526000916001600160a01b0316906370a082319060240160206040518083038186803b158015610ef457600080fd5b600a546001600160a01b03163314611a235760405162461bcd60e51b8152600401610b8e906146e9565b604080518082019091526002815261031360f41b60208201526001600160a01b038216611a635760405162461bcd60e51b8152600401610b8e91906145c9565b506013546040516001600160a01b038084169216907f0f06062680f9bd68e786e9980d9bb03d73d5620fc3b345e417b6eacb310b970690600090a3601380546001600160a01b0319166001600160a01b0392909216919091179055565b6000611aca6119b5565b600e60009054906101000a90046001600160a01b03166001600160a01b031663fc7b9c186040518163ffffffff1660e01b815260040160206040518083038186803b158015611b1857600080fd5b505afa158015611b2c573d6000803e3d6000fd5b505050506040513d601f19601f82011682018060405250810190611b50919061448c565b610ae49190614744565b83421115611baa5760405162461bcd60e51b815260206004820152601d60248201527f45524332305065726d69743a206578706972656420646561646c696e650000006044820152606401610b8e565b6001600160a01b0387811660008181526009602090815260408083205481517f6e71edae12b1b97f4d1f60370fef10105fa2faae0126114a169c64845d6126c98185015280830195909552948b166060850152608084018a905260a0840185905260c08085018a90528151808603909101815260e09094019052825192019190912090611c35612b16565b60405161190160f01b60208201526022810191909152604281018390526062016040516020818303038152906040528051906020012090506000611c7b82888888612d1d565b90508a6001600160a01b0316816001600160a01b031614611cde5760405162461bcd60e51b815260206004820152601e60248201527f45524332305065726d69743a20696e76616c6964207369676e617475726500006044820152606401610b8e565b611ce9846001614744565b6001600160a01b038c16600090815260096020526040902055611d0d8b8b8b6127bd565b5050505050505050505050565b600e54604051636a9eee1360e11b81526001600160a01b038381166004830152600092169063d53ddc2690602401611742565b600a546001600160a01b03163314611d775760405162461bcd60e51b8152600401610b8e906146e9565b6013546040805180820190915260018152603760f81b6020820152906001600160a01b0316611db95760405162461bcd60e51b8152600401610b8e91906145c9565b50604080518082019091526002815261313160f01b6020820152612710821115611df65760405162461bcd60e51b8152600401610b8e91906145c9565b5060145460408051918252602082018390527f2bf847f5692332004b0f69e0d84a8f85ed020bcf8573b3ede68afc92009965bf910160405180910390a1601455565b600554610100900460ff1680611e51575060055460ff16155b611e6d5760405162461bcd60e51b8152600401610b8e906145fc565b600554610100900460ff16158015611e8f576005805461ffff19166101011790555b611e9c8686868686612ec6565b8015611509576005805461ff0019169055505050505050565b600e54604051633f89843760e11b8152336004820152602481018390526001600160a01b0390911690637f13086e906044015b600060405180830381600087803b158015611f0257600080fd5b505af1158015611f16573d6000803e3d6000fd5b5050505050565b6011546001600160a01b0316635dbe47e8336040516001600160e01b031960e084901b1681526001600160a01b03909116600482015260240160206040518083038186803b158015611f6e57600080fd5b505afa158015611f82573d6000803e3d6000fd5b505050506040513d601f19601f82011682018060405250810190611fa6919061435a565b611fc25760405162461bcd60e51b8152600401610b8e9061464a565b600d546040805180820190915260018152600760fb1b6020820152906001600160a01b038381169116141561200a5760405162461bcd60e51b8152600401610b8e91906145c9565b506013546040805180820190915260018152603760f81b6020820152906001600160a01b031661204d5760405162461bcd60e51b8152600401610b8e91906145c9565b506013546040516370a0823160e01b81523060048201526120e2916001600160a01b0390811691908416906370a082319060240160206040518083038186803b15801561209957600080fd5b505afa1580156120ad573d6000803e3d6000fd5b505050506040513d601f19601f820116820180604052508101906120d1919061448c565b6001600160a01b038416919061259f565b50565b600a546001600160a01b0316331461210f5760405162461bcd60e51b8152600401610b8e906146e9565b6001600160a01b03811661215e5760405162461bcd60e51b81526020600482015260166024820152756275666665722d616464726573732d69732d7a65726f60501b6044820152606401610b8e565b6016546001600160a01b038281166101009092041614156121b75760405162461bcd60e51b815260206004820152601360248201527273616d652d6275666665722d6164647265737360681b6044820152606401610b8e565b60168054610100600160a81b0319166101006001600160a01b038416908102919091179091556040519081527f1bc855d20748c354ceb1d1009b4bb7a6e960f897c885a5c9feef00daf984be7e9060200160405180910390a150565b600b546001600160a01b0316331461226d5760405162461bcd60e51b815260206004820152601960248201527f6e6f742d7468652d70726f706f7365642d676f7665726e6f72000000000000006044820152606401610b8e565b600b54600a546040516001600160a01b0392831692909116907fd4459d5b8b913cab0244230fd9b1c08b6ceace7fe9230e60d0f74cbffdf849d090600090a3600b8054600a80546001600160a01b03199081166001600160a01b03841617909155169055565b600060155482611792919061475c565b6011546001600160a01b0316635dbe47e8336040516001600160e01b031960e084901b1681526001600160a01b03909116600482015260240160206040518083038186803b15801561233457600080fd5b505afa158015612348573d6000803e3d6000fd5b505050506040513d601f19601f8201168201806040525081019061236c919061435a565b6123885760405162461bcd60e51b8152600401610b8e9061464a565b61107d612fef565b600e5460408051631f8f738360e31b815290516000926001600160a01b03169163fc7b9c18916004808301926020929190829003018186803b158015610ef457600080fd5b6011546001600160a01b0316635dbe47e8336040516001600160e01b031960e084901b1681526001600160a01b03909116600482015260240160206040518083038186803b15801561242657600080fd5b505afa15801561243a573d6000803e3d6000fd5b505050506040513d601f19601f8201168201806040525081019061245e919061435a565b61247a5760405162461bcd60e51b8152600401610b8e9061464a565b61107d613056565b6002600c5414156124a55760405162461bcd60e51b8152600401610b8e90614692565b6002600c55600b54600160a81b900460ff16156124d45760405162461bcd60e51b8152600401610b8e90614670565b6010546001600160a01b0316635dbe47e8336040516001600160e01b031960e084901b1681526001600160a01b03909116600482015260240160206040518083038186803b15801561252557600080fd5b505afa158015612539573d6000803e3d6000fd5b505050506040513d601f19601f8201168201806040525081019061255d919061435a565b604051806040016040528060018152602001603560f81b815250906125955760405162461bcd60e51b8152600401610b8e91906145c9565b50610f87816130d2565b6040516001600160a01b038316602482015260448101829052610c4c90849063a9059cbb60e01b906064015b60408051601f198184030181529190526020810180516001600160e01b03166001600160e01b03199093169290921790915261319b565b6040516001600160a01b038085166024830152831660448201526064810182905261263a9085906323b872dd60e01b906084016125cb565b50505050565b6040805180820190915260018152603160f81b6020820152600090826126795760405162461bcd60e51b8152600401610b8e91906145c9565b5060006126846116b3565b61269684670de0b6b3a7640000614890565b6126a0919061475c565b9050670de0b6b3a76400006126b36116b3565b6126bd9083614890565b6126c7919061475c565b83116126d35780610ea8565b610ea8816001614744565b6001600160a01b0382166127345760405162461bcd60e51b815260206004820152601f60248201527f45524332303a206d696e7420746f20746865207a65726f2061646472657373006044820152606401610b8e565b80600260008282546127469190614744565b90915550506001600160a01b03821660009081526020819052604081208054839290612773908490614744565b90915550506040518181526001600160a01b038316906000907fddf252ad1be2c89b69c2b068fc378daa952ba7f163c4a11628f55a4df523b3ef9060200160405180910390a35050565b6001600160a01b03831661281f5760405162461bcd60e51b8152602060048201526024808201527f45524332303a20617070726f76652066726f6d20746865207a65726f206164646044820152637265737360e01b6064820152608401610b8e565b6001600160a01b0382166128805760405162461bcd60e51b815260206004820152602260248201527f45524332303a20617070726f766520746f20746865207a65726f206164647265604482015261737360f01b6064820152608401610b8e565b6001600160a01b0383811660008181526001602090815260408083209487168084529482529182902085905590518481527f8c5be1e5ebec7d5bd14f71427d1e84f3dd0314c0f7b2291e5b200ac8c7c3b92591015b60405180910390a3505050565b600f546001600160a01b0316156129b257600f5460405163632447c960e01b81526001600160a01b0385811660048301529091169063632447c990602401600060405180830381600087803b15801561293a57600080fd5b505af115801561294e573d6000803e3d6000fd5b5050600f5460405163632447c960e01b81526001600160a01b038681166004830152909116925063632447c99150602401600060405180830381600087803b15801561299957600080fd5b505af11580156129ad573d6000803e3d6000fd5b505050505b610c4c83838361326d565b6014546129d2576129cd816130d2565b6120e2565b6040805180820190915260018152601960f91b602082015281612a085760405162461bcd60e51b8152600401610b8e91906145c9565b50612a13335b613445565b600061271060145483612a269190614890565b612a30919061475c565b90506000612a3e82846148af565b90506000612a4b82613488565b90506000612a5882612640565b9050612a63836122d3565b612a6c826122d3565b1015612aa957601454612a81906127106148af565b612a8d61271083614890565b612a97919061475c565b9450612aa381866148af565b93508092505b612ab4335b846134fa565b612aca336013546001600160a01b0316866128e2565b612ad382613649565b50604080518681526020810184905233917ff279e6a1f5e320cca91135676d9cb6e44ca8a08c0b88342bcdb1144f6511b568910160405180910390a25050505050565b6000600854461415612b2b5750600654610a4a565b6007546040805180820190915260018152603160f81b6020909101526116e5907f8b73c3c69bb8fe3d512ecc4cf759cc79239f7b179b0ffacaa9a75d522b39400f907fc89efdaa54c0f20c7adf612882df0950f5a951637e0307cdcb4c672f298b8bc6613666565b600b54600160a01b900460ff16612bd95760405162461bcd60e51b815260206004820152600a6024820152691b9bdd0b5c185d5cd95960b21b6044820152606401610b8e565b600b54600160a81b900460ff1615612c035760405162461bcd60e51b8152600401610b8e90614670565b600b805460ff60a01b191690557f5db9ee0a495bf2e6ff9c91a7834c1ba4fdd244a5e8aa4e537bd38aeae4b073aa335b6040516001600160a01b03909116815260200160405180910390a1565b612c5933612a0e565b6000612c6482612640565b9050612c6f826136af565b612c7933826126de565b604080518281526020810184905233917f90890809c654f11d6e72a28fa60149770a0d11ec6c92319d6ceb2bb0a4ea1a15910160405180910390a25050565b600b54600160a01b900460ff1615612ce25760405162461bcd60e51b8152600401610b8e906146c9565b600b805460ff60a01b1916600160a01b1790557f62e78cea01bee320cd4e420270b5ea74000d11b0c9f74754ebdbfc544b05a258612c333390565b60007f7fffffffffffffffffffffffffffffff5d576e7357a4501ddfe92f46681b20a0821115612d9a5760405162461bcd60e51b815260206004820152602260248201527f45434453413a20696e76616c6964207369676e6174757265202773272076616c604482015261756560f01b6064820152608401610b8e565b8360ff16601b1480612daf57508360ff16601c145b612e065760405162461bcd60e51b815260206004820152602260248201527f45434453413a20696e76616c6964207369676e6174757265202776272076616c604482015261756560f01b6064820152608401610b8e565b6040805160008082526020820180845288905260ff871692820192909252606081018590526080810184905260019060a0016020604051602081039080840390855afa158015612e5a573d6000803e3d6000fd5b5050604051601f1901519150506001600160a01b038116612ebd5760405162461bcd60e51b815260206004820152601860248201527f45434453413a20696e76616c6964207369676e617475726500000000000000006044820152606401610b8e565b95945050505050565b600554610100900460ff1680612edf575060055460ff16155b612efb5760405162461bcd60e51b8152600401610b8e906145fc565b600554610100900460ff16158015612f1d576005805461ffff19166101011790555b604080518082019091526002815261031360f41b60208201526001600160a01b038416612f5d5760405162461bcd60e51b8152600401610b8e91906145c9565b50604080518082019091526002815261031360f41b60208201526001600160a01b038316612f9e5760405162461bcd60e51b8152600401610b8e91906145c9565b50612faa8686866136c7565b612fb261383f565b612fbb826138ed565b600e80546001600160a01b0319166001600160a01b0385161790558015611509576005805461ff0019169055505050505050565b600b54600160a81b900460ff16156130195760405162461bcd60e51b8152600401610b8e90614670565b600b805461ffff60a01b191661010160a01b1790557f28b4c24cb1012c094cd2f59f98e89d791973295f8fda6eaa118022d6d318960a612c333390565b600b54600160a81b900460ff1661309e5760405162461bcd60e51b815260206004820152600c60248201526b3737ba16b9b43aba3237bbb760a11b6044820152606401610b8e565b600b805460ff60a81b191690557fece7583a70a505ef0e36d4dec768f5ae597713e09c26011022599ee01abdabfc33612c33565b6040805180820190915260018152601960f91b6020820152816131085760405162461bcd60e51b8152600401610b8e91906145c9565b5061311233612a0e565b600061311d82613488565b9050600061312a82612640565b9050613135836122d3565b61313e826122d3565b1015613148578092505b61315133612aae565b61315a82613649565b50604080518481526020810184905233917ff279e6a1f5e320cca91135676d9cb6e44ca8a08c0b88342bcdb1144f6511b568910160405180910390a2505050565b60006131f0826040518060400160405280602081526020017f5361666545524332303a206c6f772d6c6576656c2063616c6c206661696c6564815250856001600160a01b0316613beb9092919063ffffffff16565b805190915015610c4c578080602001905181019061320e919061435a565b610c4c5760405162461bcd60e51b815260206004820152602a60248201527f5361666545524332303a204552433230206f7065726174696f6e20646964206e6044820152691bdd081cdd58d8d9595960b21b6064820152608401610b8e565b6001600160a01b0383166132d15760405162461bcd60e51b815260206004820152602560248201527f45524332303a207472616e736665722066726f6d20746865207a65726f206164604482015264647265737360d81b6064820152608401610b8e565b6001600160a01b0382166133335760405162461bcd60e51b815260206004820152602360248201527f45524332303a207472616e7366657220746f20746865207a65726f206164647260448201526265737360e81b6064820152608401610b8e565b6001600160a01b038316600090815260208190526040902054818110156133ab5760405162461bcd60e51b815260206004820152602660248201527f45524332303a207472616e7366657220616d6f756e7420657863656564732062604482015265616c616e636560d01b6064820152608401610b8e565b6133b582826148af565b6001600160a01b0380861660009081526020819052604080822093909355908516815290812080548492906133eb908490614744565b92505081905550826001600160a01b0316846001600160a01b03167fddf252ad1be2c89b69c2b068fc378daa952ba7f163c4a11628f55a4df523b3ef8460405161343791815260200190565b60405180910390a350505050565b600f546001600160a01b0316156120e257600f5460405163d279c19160e01b81526001600160a01b0383811660048301529091169063d279c19190602401611ee8565b600080670de0b6b3a764000061349c6116b3565b6134a69085614890565b6134b0919061475c565b905060006134bc6119b5565b9050808211156134e3576134d86134d382846148af565b613bfa565b6134e06119b5565b90505b8181106134f057816134f2565b805b949350505050565b6001600160a01b03821661355a5760405162461bcd60e51b815260206004820152602160248201527f45524332303a206275726e2066726f6d20746865207a65726f206164647265736044820152607360f81b6064820152608401610b8e565b6001600160a01b038216600090815260208190526040902054818110156135ce5760405162461bcd60e51b815260206004820152602260248201527f45524332303a206275726e20616d6f756e7420657863656564732062616c616e604482015261636560f01b6064820152608401610b8e565b6135d882826148af565b6001600160a01b038416600090815260208190526040812091909155600280548492906136069084906148af565b90915550506040518281526000906001600160a01b038516907fddf252ad1be2c89b69c2b068fc378daa952ba7f163c4a11628f55a4df523b3ef906020016128d5565b600061366233600d546001600160a01b0316908461259f565b5090565b6040805160208101859052908101839052606081018290524660808201523060a082015260009060c0016040516020818303038152906040528051906020012090509392505050565b6120e233600d546001600160a01b0316903084612602565b600554610100900460ff16806136e0575060055460ff16155b6136fc5760405162461bcd60e51b8152600401610b8e906145fc565b600554610100900460ff1615801561371e576005805461ffff19166101011790555b604080518082019091526002815261031360f41b60208201526001600160a01b03831661375e5760405162461bcd60e51b8152600401610b8e91906145c9565b5061376884613d93565b61377183613daa565b61377a84613dbd565b600d80546001600160a01b0319166001600160a01b0384169081179091556040805163313ce56760e01b815290516000929163313ce567916004808301926020929190829003018186803b1580156137d157600080fd5b505afa1580156137e5573d6000803e3d6000fd5b505050506040513d601f19601f820116820180604052508101906138099190614544565b60ff1690506138198160126148af565b61382490600a6147c2565b60155550801561263a576005805461ff001916905550505050565b600554610100900460ff1680613858575060055460ff16155b6138745760405162461bcd60e51b8152600401610b8e906145fc565b600554610100900460ff16158015613896576005805461ffff19166101011790555b600a80546001600160a01b0319163390811790915560405181906000907fd4459d5b8b913cab0244230fd9b1c08b6ceace7fe9230e60d0f74cbffdf849d0908290a35080156120e2576005805461ff001916905550565b601154604080518082019091526002815261189960f11b6020820152906001600160a01b0316156139315760405162461bcd60e51b8152600401610b8e91906145c9565b506000819050806001600160a01b0316630fab4d256040518163ffffffff1660e01b8152600401602060405180830381600087803b15801561397257600080fd5b505af1158015613986573d6000803e3d6000fd5b505050506040513d601f19601f820116820180604052508101906139aa919061410e565b601060006101000a8154816001600160a01b0302191690836001600160a01b03160217905550806001600160a01b0316630fab4d256040518163ffffffff1660e01b8152600401602060405180830381600087803b158015613a0b57600080fd5b505af1158015613a1f573d6000803e3d6000fd5b505050506040513d601f19601f82011682018060405250810190613a43919061410e565b601160006101000a8154816001600160a01b0302191690836001600160a01b03160217905550806001600160a01b0316630fab4d256040518163ffffffff1660e01b8152600401602060405180830381600087803b158015613aa457600080fd5b505af1158015613ab8573d6000803e3d6000fd5b505050506040513d601f19601f82011682018060405250810190613adc919061410e565b601280546001600160a01b0319166001600160a01b0392831617905560115416630a3b0a4f613b083390565b6040516001600160e01b031960e084901b1681526001600160a01b039091166004820152602401602060405180830381600087803b158015613b4957600080fd5b505af1158015613b5d573d6000803e3d6000fd5b505050506040513d601f19601f82011682018060405250810190613b81919061435a565b60405180604001604052806002815260200161313360f01b81525090613bba5760405162461bcd60e51b8152600401610b8e91906145c9565b50601254604051630a3b0a4f60e01b81523360048201526001600160a01b0390911690630a3b0a4f90602401610bc1565b60606134f28484600085613e3c565b6000808080848180613c0a610a63565b805190915060005b81811015613d87576000838281518110613c3c57634e487b7160e01b600052603260045260246000fd5b60200260200101519050613c4f81611713565b995089613c5c5750613d75565b89861115613c68578995505b613c706119b5565b604051632e1a7d4d60e01b8152600481018890529098506001600160a01b03821690632e1a7d4d90602401600060405180830381600087803b158015613cb557600080fd5b505af1925050508015613cc6575060015b613cd05750613d75565b613cd86119b5565b9850613ce4888a6148af565b600e54604051632fb9ba3160e01b81526001600160a01b03848116600483015260248201849052929950911690632fb9ba3190604401600060405180830381600087803b158015613d3457600080fd5b505af1158015613d48573d6000803e3d6000fd5b505050508685613d589190614744565b94508a8510613d675750613d87565b613d71858c6148af565b9550505b80613d7f8161492d565b915050613c12565b50505050505050505050565b8051613da6906003906020840190613f9d565b5050565b8051613da6906004906020840190613f9d565b80516020808301919091206007819055466008556040805180820190915260018152603160f81b920191909152613e36907f8b73c3c69bb8fe3d512ecc4cf759cc79239f7b179b0ffacaa9a75d522b39400f907fc89efdaa54c0f20c7adf612882df0950f5a951637e0307cdcb4c672f298b8bc6613666565b60065550565b606082471015613e9d5760405162461bcd60e51b815260206004820152602660248201527f416464726573733a20696e73756666696369656e742062616c616e636520666f6044820152651c8818d85b1b60d21b6064820152608401610b8e565b843b613eeb5760405162461bcd60e51b815260206004820152601d60248201527f416464726573733a2063616c6c20746f206e6f6e2d636f6e74726163740000006044820152606401610b8e565b600080866001600160a01b03168587604051613f079190614560565b60006040518083038185875af1925050503d8060008114613f44576040519150601f19603f3d011682016040523d82523d6000602084013e613f49565b606091505b5091509150613f59828286613f64565b979650505050505050565b60608315613f73575081610ea8565b825115613f835782518084602001fd5b8160405162461bcd60e51b8152600401610b8e91906145c9565b828054613fa9906148f2565b90600052602060002090601f016020900481019282613fcb5760008555614011565b82601f10613fe457805160ff1916838001178555614011565b82800160010185558215614011579182015b82811115614011578251825591602001919060010190613ff6565b506136629291505b808211156136625760008155600101614019565b60008083601f84011261403e578182fd5b50813567ffffffffffffffff811115614055578182fd5b6020830191508360208260051b850101111561407057600080fd5b9250929050565b8051801515811461152b57600080fd5b600082601f830112614097578081fd5b813567ffffffffffffffff8111156140b1576140b161495e565b6140c4601f8201601f1916602001614713565b8181528460208386010111156140d8578283fd5b816020850160208301379081016020019190915292915050565b600060208284031215614103578081fd5b8135610ea881614974565b60006020828403121561411f578081fd5b8151610ea881614974565b6000806040838503121561413c578081fd5b823561414781614974565b9150602083013561415781614974565b809150509250929050565b600080600060608486031215614176578081fd5b833561418181614974565b9250602084013561419181614974565b929592945050506040919091013590565b600080600080600080600060e0888a0312156141bc578283fd5b87356141c781614974565b965060208801356141d781614974565b9550604088013594506060880135935060808801356141f581614989565b9699959850939692959460a0840135945060c09093013592915050565b60008060408385031215614224578182fd5b823561422f81614974565b946020939093013593505050565b60008060008060408587031215614252578384fd5b843567ffffffffffffffff80821115614269578586fd5b6142758883890161402d565b9096509450602087013591508082111561428d578384fd5b5061429a8782880161402d565b95989497509550505050565b600060208083850312156142b8578182fd5b825167ffffffffffffffff808211156142cf578384fd5b818501915085601f8301126142e2578384fd5b8151818111156142f4576142f461495e565b8060051b9150614305848301614713565b8181528481019084860184860187018a101561431f578788fd5b8795505b8386101561434d578051945061433885614974565b84835260019590950194918601918601614323565b5098975050505050505050565b60006020828403121561436b578081fd5b610ea882614077565b600080600080600080600080610100898b031215614390578182fd5b61439989614077565b97506020890151965060408901519550606089015194506080890151935060a0890151925060c0890151915060e089015190509295985092959890939650565b600080600080600060a086880312156143f0578283fd5b853567ffffffffffffffff80821115614407578485fd5b61441389838a01614087565b96506020880135915080821115614428578485fd5b5061443588828901614087565b945050604086013561444681614974565b9250606086013561445681614974565b9150608086013561446681614974565b809150509295509295909350565b600060208284031215614485578081fd5b5035919050565b60006020828403121561449d578081fd5b5051919050565b6000806000606084860312156144b8578081fd5b505081359360208301359350604090920135919050565b6000806000606084860312156144e3578081fd5b8351925060208401519150604084015190509250925092565b600080600080600060a08688031215614513578283fd5b8535945060208601359350604086013561452c81614989565b94979396509394606081013594506080013592915050565b600060208284031215614555578081fd5b8151610ea881614989565b600082516145728184602087016148c6565b9190910192915050565b6020808252825182820181905260009190848201906040850190845b818110156145bd5783516001600160a01b031683529284019291840191600101614598565b50909695505050505050565b60006020825282518060208401526145e88160408501602087016148c6565b601f01601f19169190910160400192915050565b6020808252602e908201527f496e697469616c697a61626c653a20636f6e747261637420697320616c72656160408201526d191e481a5b9a5d1a585b1a5e995960921b606082015260800190565b6020808252600c908201526b3737ba16b096b5b2b2b832b960a11b604082015260600190565b60208082526008908201526739b43aba3237bbb760c11b604082015260600190565b6020808252601f908201527f5265656e7472616e637947756172643a207265656e7472616e742063616c6c00604082015260600190565b6020808252600690820152651c185d5cd95960d21b604082015260600190565b60208082526010908201526f3737ba16ba343296b3b7bb32b93737b960811b604082015260600190565b604051601f8201601f1916810167ffffffffffffffff8111828210171561473c5761473c61495e565b604052919050565b6000821982111561475757614757614948565b500190565b60008261477757634e487b7160e01b81526012600452602481fd5b500490565b80825b600180861161478e57506147b9565b8187048211156147a0576147a0614948565b808616156147ad57918102915b9490941c93800261477f565b94509492505050565b6000610ea860001984846000826147db57506001610ea8565b816147e857506000610ea8565b81600181146147fe576002811461480857614835565b6001915050610ea8565b60ff84111561481957614819614948565b6001841b91508482111561482f5761482f614948565b50610ea8565b5060208310610133831016604e8410600b8410161715614868575081810a8381111561486357614863614948565b610ea8565b614875848484600161477c565b80860482111561488757614887614948565b02949350505050565b60008160001904831182151516156148aa576148aa614948565b500290565b6000828210156148c1576148c1614948565b500390565b60005b838110156148e15781810151838201526020016148c9565b8381111561263a5750506000910152565b600181811c9082168061490657607f821691505b6020821081141561492757634e487b7160e01b600052602260045260246000fd5b50919050565b600060001982141561494157614941614948565b5060010190565b634e487b7160e01b600052601160045260246000fd5b634e487b7160e01b600052604160045260246000fd5b6001600160a01b03811681146120e257600080fd5b60ff811681146120e257600080fdfea2646970667358221220783950a1ae2b1aad6aece77beb2799eacdb2cc515660582219a86f336cb6549764736f6c63430008030033",
  "devdoc": {
    "kind": "dev",
    "methods": {
      "DOMAIN_SEPARATOR()": {
        "details": "See {IERC20Permit-DOMAIN_SEPARATOR}."
      },
      "acceptGovernorship()": {
        "details": "Allows new governor to accept governorship of the contract."
      },
      "addInList(address,address)": {
        "details": "Use it to add keeper in keepers list and to add address in feeWhitelist",
        "params": {
          "_addressToAdd": "address which we want to add in AddressList.",
          "_listToUpdate": "address of AddressList contract."
        }
      },
      "allowance(address,address)": {
        "details": "See {IERC20-allowance}."
      },
      "approve(address,uint256)": {
        "details": "See {IERC20-approve}. Requirements: - `spender` cannot be the zero address."
      },
      "availableCreditLimit(address)": {
        "details": "Available credit limit is calculated based on current debt of pool and strategy, current debt limit of pool and strategy. credit available = min(pool's debt limit, strategy's debt limit, max debt per rebalance) when some strategy do not pay back outstanding debt, this impact credit line of other strategy if totalDebt of pool >= debtLimit of pool",
        "params": {
          "_strategy": "Strategy address"
        }
      },
      "balanceOf(address)": {
        "details": "Returns the amount of tokens owned by `account`."
      },
      "convertFrom18(uint256)": {
        "details": "Convert from 18 decimals to token defined decimals."
      },
      "decimals()": {
        "details": "Returns the decimals of the token. default to 18"
      },
      "decreaseAllowance(address,uint256)": {
        "details": "Atomically decreases the allowance granted to `spender` by the caller. This is an alternative to {approve} that can be used as a mitigation for problems described in {IERC20-approve}. Emits an {Approval} event indicating the updated allowance. Requirements: - `spender` cannot be the zero address. - `spender` must have allowance for the caller of at least `subtractedValue`."
      },
      "deposit(uint256)": {
        "params": {
          "_amount": "ERC20 token amount."
        }
      },
      "depositWithPermit(uint256,uint256,uint8,bytes32,bytes32)": {
        "params": {
          "_amount": "ERC20 token amount.",
          "_deadline": "The time at which signature will expire",
          "_r": "Half of the ECDSA signature pair",
          "_s": "Half of the ECDSA signature pair",
          "_v": "The recovery byte of the signature"
        }
      },
      "excessDebt(address)": {
        "params": {
          "_strategy": "Address of strategy"
        }
      },
      "increaseAllowance(address,uint256)": {
        "details": "Atomically increases the allowance granted to `spender` by the caller. This is an alternative to {approve} that can be used as a mitigation for problems described in {IERC20-approve}. Emits an {Approval} event indicating the updated allowance. Requirements: - `spender` cannot be the zero address."
      },
      "migrateStrategy(address,address)": {
        "details": "Migrating strategy aka old and new strategy should be of same type.",
        "params": {
          "_new": "Address of new strategy",
          "_old": "Address of strategy being migrated"
        }
      },
      "multiTransfer(address[],uint256[])": {
        "details": "Address array and amount array are 1:1 and are in order.",
        "params": {
          "_amounts": "array of token amounts",
          "_recipients": "array of recipient addresses"
        },
        "returns": {
          "_0": "true/false"
        }
      },
      "name()": {
        "details": "Returns the name of the token."
      },
      "permit(address,address,uint256,uint256,uint8,bytes32,bytes32)": {
        "details": "See {IERC20Permit-permit}."
      },
      "pricePerShare()": {
        "details": "Return value will be in token defined decimals."
      },
      "removeFromList(address,address)": {
        "details": "Use it to remove keeper from keepers list and to remove address from feeWhitelist",
        "params": {
          "_addressToRemove": "address which we want to remove from AddressList.",
          "_listToUpdate": "address of AddressList contract."
        }
      },
      "reportEarning(uint256,uint256,uint256)": {
        "details": "Strategy call this in regular interval.",
        "params": {
          "_loss": "Reduce debt ,also reduce debtRatio, increase loss in record.",
          "_payback": "strategy willing to payback outstanding above debtLimit. no performance fee on this amount.  when governance has reduced debtRatio of strategy, strategy will report profit and payback amount separately.",
          "_profit": "yield generated by strategy. Strategy get performance fee on this amount"
        }
      },
      "reportLoss(uint256)": {
        "details": "Some strategies pay deposit fee thus realizing loss at deposit. For example: Curve's 3pool has some slippage due to deposit of one asset in 3pool. Strategy may want report this loss instead of waiting for next rebalance.",
        "params": {
          "_loss": "Loss that strategy want to report"
        }
      },
      "sweepERC20(address)": {
        "details": "Transfer given ERC20 token to feeCollector",
        "params": {
          "_fromToken": "Token address to sweep"
        }
      },
      "symbol()": {
        "details": "Returns the symbol of the token, usually a shorter version of the name."
      },
      "tokensHere()": {
        "details": "Returns the token stored in the pool. It will be in token defined decimals."
      },
      "totalDebtOf(address)": {
        "params": {
          "_strategy": "Strategy address"
        }
      },
      "totalSupply()": {
        "details": "Returns total supply of the token."
      },
      "totalValue()": {
        "details": "Returns total value of vesper pool, in terms of collateral token"
      },
      "transfer(address,uint256)": {
        "details": "See {IERC20-transfer}. Requirements: - `recipient` cannot be the zero address. - the caller must have a balance of at least `amount`."
      },
      "transferFrom(address,address,uint256)": {
        "details": "See {IERC20-transferFrom}. Emits an {Approval} event indicating the updated allowance. This is not required by the EIP. See the note at the beginning of {ERC20}. Requirements: - `sender` and `recipient` cannot be the zero address. - `sender` must have a balance of at least `amount`. - the caller must have allowance for ``sender``'s tokens of at least `amount`."
      },
      "transferGovernorship(address)": {
        "details": "Transfers governorship of the contract to a new account (`proposedGovernor`). Can only be called by the current owner."
      },
      "updateFeeCollector(address)": {
        "params": {
          "_newFeeCollector": "new fee collector address"
        }
      },
      "updatePoolRewards(address)": {
        "params": {
          "_newPoolRewards": "new pool rewards address"
        }
      },
      "updateWithdrawFee(uint256)": {
        "details": "Format: 1500 = 15% fee, 100 = 1%",
        "params": {
          "_newWithdrawFee": "new withdraw fee"
        }
      },
      "whitelistedWithdraw(uint256)": {
        "details": "Burn shares and return collateral. No withdraw fee will be assessed when this function is called. Only some white listed address can call this function.",
        "params": {
          "_shares": "Pool shares. It will be in 18 decimals."
        }
      },
      "withdraw(uint256)": {
        "params": {
          "_shares": "Pool shares. It will be in 18 decimals."
        }
      }
    },
    "version": 1
  },
  "userdoc": {
    "kind": "user",
    "methods": {
      "addInList(address,address)": {
        "notice": "Add given address in provided address list."
      },
      "availableCreditLimit(address)": {
        "notice": "Get available credit limit of strategy. This is the amount strategy can borrow from pool"
      },
      "deposit(uint256)": {
        "notice": "Deposit ERC20 tokens and receive pool shares depending on the current share price."
      },
      "depositWithPermit(uint256,uint256,uint8,bytes32,bytes32)": {
        "notice": "Deposit ERC20 tokens with permit aka gasless approval."
      },
      "excessDebt(address)": {
        "notice": "Debt above current debt limit"
      },
      "migrateStrategy(address,address)": {
        "notice": "Migrate existing strategy to new strategy."
      },
      "multiTransfer(address[],uint256[])": {
        "notice": "Transfer tokens to multiple recipient"
      },
      "pricePerShare()": {
        "notice": "Get price per share"
      },
      "removeFromList(address,address)": {
        "notice": "Remove given address from provided address list."
      },
      "reportLoss(uint256)": {
        "notice": "Report loss outside of rebalance activity."
      },
      "totalDebt()": {
        "notice": "Get total debt of pool"
      },
      "totalDebtOf(address)": {
        "notice": "Get total debt of given strategy"
      },
      "totalDebtRatio()": {
        "notice": "Get total debt ratio. Total debt ratio helps us keep buffer in pool"
      },
      "updateFeeCollector(address)": {
        "notice": "Update fee collector address for this pool"
      },
      "updatePoolRewards(address)": {
        "notice": "Update pool rewards address for this pool"
      },
      "updateWithdrawFee(uint256)": {
        "notice": "Update withdraw fee for this pool"
      },
      "whitelistedWithdraw(uint256)": {
        "notice": "Withdraw collateral based on given shares and the current share price."
      },
      "withdraw(uint256)": {
        "notice": "Withdraw collateral based on given shares and the current share price. Withdraw fee, if any, will be deduced from given shares and transferred to feeCollector. Burn remaining shares and return collateral."
      }
    },
    "version": 1
  },
  "storageLayout": {
    "storage": [
      {
        "astId": 7127,
        "contract": "contracts/pool/VFRCoveragePool.sol:VFRCoveragePool",
        "label": "_balances",
        "offset": 0,
        "slot": "0",
        "type": "t_mapping(t_address,t_uint256)"
      },
      {
        "astId": 7133,
        "contract": "contracts/pool/VFRCoveragePool.sol:VFRCoveragePool",
        "label": "_allowances",
        "offset": 0,
        "slot": "1",
        "type": "t_mapping(t_address,t_mapping(t_address,t_uint256))"
      },
      {
        "astId": 7135,
        "contract": "contracts/pool/VFRCoveragePool.sol:VFRCoveragePool",
        "label": "_totalSupply",
        "offset": 0,
        "slot": "2",
        "type": "t_uint256"
      },
      {
        "astId": 7137,
        "contract": "contracts/pool/VFRCoveragePool.sol:VFRCoveragePool",
        "label": "_name",
        "offset": 0,
        "slot": "3",
        "type": "t_string_storage"
      },
      {
        "astId": 7139,
        "contract": "contracts/pool/VFRCoveragePool.sol:VFRCoveragePool",
        "label": "_symbol",
        "offset": 0,
        "slot": "4",
        "type": "t_string_storage"
      },
      {
        "astId": 887,
        "contract": "contracts/pool/VFRCoveragePool.sol:VFRCoveragePool",
        "label": "_initialized",
        "offset": 0,
        "slot": "5",
        "type": "t_bool"
      },
      {
        "astId": 890,
        "contract": "contracts/pool/VFRCoveragePool.sol:VFRCoveragePool",
        "label": "_initializing",
        "offset": 1,
        "slot": "5",
        "type": "t_bool"
      },
      {
        "astId": 7668,
        "contract": "contracts/pool/VFRCoveragePool.sol:VFRCoveragePool",
        "label": "_CACHED_DOMAIN_SEPARATOR",
        "offset": 0,
        "slot": "6",
        "type": "t_bytes32"
      },
      {
        "astId": 7670,
        "contract": "contracts/pool/VFRCoveragePool.sol:VFRCoveragePool",
        "label": "_HASHED_NAME",
        "offset": 0,
        "slot": "7",
        "type": "t_bytes32"
      },
      {
        "astId": 7672,
        "contract": "contracts/pool/VFRCoveragePool.sol:VFRCoveragePool",
        "label": "_CACHED_CHAIN_ID",
        "offset": 0,
        "slot": "8",
        "type": "t_uint256"
      },
      {
        "astId": 7678,
        "contract": "contracts/pool/VFRCoveragePool.sol:VFRCoveragePool",
        "label": "nonces",
        "offset": 0,
        "slot": "9",
        "type": "t_mapping(t_address,t_uint256)"
      },
      {
        "astId": 3080,
        "contract": "contracts/pool/VFRCoveragePool.sol:VFRCoveragePool",
        "label": "governor",
        "offset": 0,
        "slot": "10",
        "type": "t_address"
      },
      {
        "astId": 3082,
        "contract": "contracts/pool/VFRCoveragePool.sol:VFRCoveragePool",
        "label": "proposedGovernor",
        "offset": 0,
        "slot": "11",
        "type": "t_address"
      },
      {
        "astId": 3224,
        "contract": "contracts/pool/VFRCoveragePool.sol:VFRCoveragePool",
        "label": "paused",
        "offset": 20,
        "slot": "11",
        "type": "t_bool"
      },
      {
        "astId": 3226,
        "contract": "contracts/pool/VFRCoveragePool.sol:VFRCoveragePool",
        "label": "stopEverything",
        "offset": 21,
        "slot": "11",
        "type": "t_bool"
      },
      {
        "astId": 938,
        "contract": "contracts/pool/VFRCoveragePool.sol:VFRCoveragePool",
        "label": "_status",
        "offset": 0,
        "slot": "12",
        "type": "t_uint256"
      },
      {
        "astId": 9052,
        "contract": "contracts/pool/VFRCoveragePool.sol:VFRCoveragePool",
        "label": "token",
        "offset": 0,
        "slot": "13",
        "type": "t_contract(IERC20)1552"
      },
      {
        "astId": 9054,
        "contract": "contracts/pool/VFRCoveragePool.sol:VFRCoveragePool",
        "label": "poolAccountant",
        "offset": 0,
        "slot": "14",
        "type": "t_address"
      },
      {
        "astId": 9056,
        "contract": "contracts/pool/VFRCoveragePool.sol:VFRCoveragePool",
        "label": "poolRewards",
        "offset": 0,
        "slot": "15",
        "type": "t_address"
      },
      {
        "astId": 9058,
        "contract": "contracts/pool/VFRCoveragePool.sol:VFRCoveragePool",
        "label": "feeWhitelist",
        "offset": 0,
        "slot": "16",
        "type": "t_address"
      },
      {
        "astId": 9060,
        "contract": "contracts/pool/VFRCoveragePool.sol:VFRCoveragePool",
        "label": "keepers",
        "offset": 0,
        "slot": "17",
        "type": "t_address"
      },
      {
        "astId": 9062,
        "contract": "contracts/pool/VFRCoveragePool.sol:VFRCoveragePool",
        "label": "maintainers",
        "offset": 0,
        "slot": "18",
        "type": "t_address"
      },
      {
        "astId": 9064,
        "contract": "contracts/pool/VFRCoveragePool.sol:VFRCoveragePool",
        "label": "feeCollector",
        "offset": 0,
        "slot": "19",
        "type": "t_address"
      },
      {
        "astId": 9066,
        "contract": "contracts/pool/VFRCoveragePool.sol:VFRCoveragePool",
        "label": "withdrawFee",
        "offset": 0,
        "slot": "20",
        "type": "t_uint256"
      },
      {
        "astId": 9068,
        "contract": "contracts/pool/VFRCoveragePool.sol:VFRCoveragePool",
        "label": "decimalConversionFactor",
        "offset": 0,
        "slot": "21",
        "type": "t_uint256"
      },
      {
        "astId": 9070,
        "contract": "contracts/pool/VFRCoveragePool.sol:VFRCoveragePool",
        "label": "withdrawInETH",
        "offset": 0,
        "slot": "22",
        "type": "t_bool"
      },
      {
        "astId": 9552,
        "contract": "contracts/pool/VFRCoveragePool.sol:VFRCoveragePool",
        "label": "buffer",
        "offset": 1,
        "slot": "22",
        "type": "t_address"
      }
    ],
    "types": {
      "t_address": {
        "encoding": "inplace",
        "label": "address",
        "numberOfBytes": "20"
      },
      "t_bool": {
        "encoding": "inplace",
        "label": "bool",
        "numberOfBytes": "1"
      },
      "t_bytes32": {
        "encoding": "inplace",
        "label": "bytes32",
        "numberOfBytes": "32"
      },
      "t_contract(IERC20)1552": {
        "encoding": "inplace",
        "label": "contract IERC20",
        "numberOfBytes": "20"
      },
      "t_mapping(t_address,t_mapping(t_address,t_uint256))": {
        "encoding": "mapping",
        "key": "t_address",
        "label": "mapping(address => mapping(address => uint256))",
        "numberOfBytes": "32",
        "value": "t_mapping(t_address,t_uint256)"
      },
      "t_mapping(t_address,t_uint256)": {
        "encoding": "mapping",
        "key": "t_address",
        "label": "mapping(address => uint256)",
        "numberOfBytes": "32",
        "value": "t_uint256"
      },
      "t_string_storage": {
        "encoding": "bytes",
        "label": "string",
        "numberOfBytes": "32"
      },
      "t_uint256": {
        "encoding": "inplace",
        "label": "uint256",
        "numberOfBytes": "32"
      }
    }
  }
}