{
  "address": "0xB0582CcAD2E265924E3E75539a84717449396d66",
  "abi": [
    {
      "inputs": [
        {
          "internalType": "string",
          "name": "_name",
          "type": "string"
        },
        {
          "internalType": "string",
          "name": "_symbol",
          "type": "string"
        },
        {
          "internalType": "address",
          "name": "_token",
          "type": "address"
        }
      ],
      "stateMutability": "nonpayable",
      "type": "constructor"
    },
    {
      "anonymous": false,
      "inputs": [
        {
          "indexed": true,
          "internalType": "address",
          "name": "owner",
          "type": "address"
        },
        {
          "indexed": true,
          "internalType": "address",
          "name": "spender",
          "type": "address"
        },
        {
          "indexed": false,
          "internalType": "uint256",
          "name": "value",
          "type": "uint256"
        }
      ],
      "name": "Approval",
      "type": "event"
    },
    {
      "anonymous": false,
      "inputs": [
        {
          "indexed": true,
          "internalType": "address",
          "name": "owner",
          "type": "address"
        },
        {
          "indexed": false,
          "internalType": "uint256",
          "name": "shares",
          "type": "uint256"
        },
        {
          "indexed": false,
          "internalType": "uint256",
          "name": "amount",
          "type": "uint256"
        }
      ],
      "name": "Deposit",
      "type": "event"
    },
    {
      "anonymous": false,
      "inputs": [
        {
          "indexed": false,
          "internalType": "address",
          "name": "account",
          "type": "address"
        }
      ],
      "name": "Open",
      "type": "event"
    },
    {
      "anonymous": false,
      "inputs": [
        {
          "indexed": false,
          "internalType": "address",
          "name": "account",
          "type": "address"
        }
      ],
      "name": "Paused",
      "type": "event"
    },
    {
      "anonymous": false,
      "inputs": [
        {
          "indexed": false,
          "internalType": "address",
          "name": "account",
          "type": "address"
        }
      ],
      "name": "Shutdown",
      "type": "event"
    },
    {
      "anonymous": false,
      "inputs": [
        {
          "indexed": true,
          "internalType": "address",
          "name": "from",
          "type": "address"
        },
        {
          "indexed": true,
          "internalType": "address",
          "name": "to",
          "type": "address"
        },
        {
          "indexed": false,
          "internalType": "uint256",
          "name": "value",
          "type": "uint256"
        }
      ],
      "name": "Transfer",
      "type": "event"
    },
    {
      "anonymous": false,
      "inputs": [
        {
          "indexed": false,
          "internalType": "address",
          "name": "account",
          "type": "address"
        }
      ],
      "name": "Unpaused",
      "type": "event"
    },
    {
      "anonymous": false,
      "inputs": [
        {
          "indexed": true,
          "internalType": "address",
          "name": "previousFeeCollector",
          "type": "address"
        },
        {
          "indexed": true,
          "internalType": "address",
          "name": "newFeeCollector",
          "type": "address"
        }
      ],
      "name": "UpdatedFeeCollector",
      "type": "event"
    },
    {
      "anonymous": false,
      "inputs": [
        {
          "indexed": true,
          "internalType": "address",
          "name": "previousGovernor",
          "type": "address"
        },
        {
          "indexed": true,
          "internalType": "address",
          "name": "proposedGovernor",
          "type": "address"
        }
      ],
      "name": "UpdatedGovernor",
      "type": "event"
    },
    {
      "anonymous": false,
      "inputs": [
        {
          "indexed": true,
          "internalType": "address",
          "name": "previousPoolRewards",
          "type": "address"
        },
        {
          "indexed": true,
          "internalType": "address",
          "name": "newPoolRewards",
          "type": "address"
        }
      ],
      "name": "UpdatedPoolRewards",
      "type": "event"
    },
    {
      "anonymous": false,
      "inputs": [
        {
          "indexed": false,
          "internalType": "uint256",
          "name": "previousWithdrawFee",
          "type": "uint256"
        },
        {
          "indexed": false,
          "internalType": "uint256",
          "name": "newWithdrawFee",
          "type": "uint256"
        }
      ],
      "name": "UpdatedWithdrawFee",
      "type": "event"
    },
    {
      "anonymous": false,
      "inputs": [
        {
          "indexed": true,
          "internalType": "address",
          "name": "owner",
          "type": "address"
        },
        {
          "indexed": false,
          "internalType": "uint256",
          "name": "shares",
          "type": "uint256"
        },
        {
          "indexed": false,
          "internalType": "uint256",
          "name": "amount",
          "type": "uint256"
        }
      ],
      "name": "Withdraw",
      "type": "event"
    },
    {
      "inputs": [],
      "name": "DOMAIN_SEPARATOR",
      "outputs": [
        {
          "internalType": "bytes32",
          "name": "",
          "type": "bytes32"
        }
      ],
      "stateMutability": "view",
      "type": "function"
    },
    {
      "inputs": [],
      "name": "MAX_BPS",
      "outputs": [
        {
          "internalType": "uint256",
          "name": "",
          "type": "uint256"
        }
      ],
      "stateMutability": "view",
      "type": "function"
    },
    {
      "inputs": [],
      "name": "VERSION",
      "outputs": [
        {
          "internalType": "string",
          "name": "",
          "type": "string"
        }
      ],
      "stateMutability": "view",
      "type": "function"
    },
    {
      "inputs": [],
      "name": "acceptGovernorship",
      "outputs": [],
      "stateMutability": "nonpayable",
      "type": "function"
    },
    {
      "inputs": [
        {
          "internalType": "address",
          "name": "_listToUpdate",
          "type": "address"
        },
        {
          "internalType": "address",
          "name": "_addressToAdd",
          "type": "address"
        }
      ],
      "name": "addInList",
      "outputs": [],
      "stateMutability": "nonpayable",
      "type": "function"
    },
    {
      "inputs": [
        {
          "internalType": "address",
          "name": "owner",
          "type": "address"
        },
        {
          "internalType": "address",
          "name": "spender",
          "type": "address"
        }
      ],
      "name": "allowance",
      "outputs": [
        {
          "internalType": "uint256",
          "name": "",
          "type": "uint256"
        }
      ],
      "stateMutability": "view",
      "type": "function"
    },
    {
      "inputs": [
        {
          "internalType": "address",
          "name": "spender",
          "type": "address"
        },
        {
          "internalType": "uint256",
          "name": "amount",
          "type": "uint256"
        }
      ],
      "name": "approve",
      "outputs": [
        {
          "internalType": "bool",
          "name": "",
          "type": "bool"
        }
      ],
      "stateMutability": "nonpayable",
      "type": "function"
    },
    {
      "inputs": [
        {
          "internalType": "address",
          "name": "_strategy",
          "type": "address"
        }
      ],
      "name": "availableCreditLimit",
      "outputs": [
        {
          "internalType": "uint256",
          "name": "",
          "type": "uint256"
        }
      ],
      "stateMutability": "view",
      "type": "function"
    },
    {
      "inputs": [
        {
          "internalType": "address",
          "name": "account",
          "type": "address"
        }
      ],
      "name": "balanceOf",
      "outputs": [
        {
          "internalType": "uint256",
          "name": "",
          "type": "uint256"
        }
      ],
      "stateMutability": "view",
      "type": "function"
    },
    {
      "inputs": [
        {
          "internalType": "uint256",
          "name": "_amount",
          "type": "uint256"
        }
      ],
      "name": "convertFrom18",
      "outputs": [
        {
          "internalType": "uint256",
          "name": "",
          "type": "uint256"
        }
      ],
      "stateMutability": "view",
      "type": "function"
    },
    {
      "inputs": [],
      "name": "decimalConversionFactor",
      "outputs": [
        {
          "internalType": "uint256",
          "name": "",
          "type": "uint256"
        }
      ],
      "stateMutability": "view",
      "type": "function"
    },
    {
      "inputs": [],
      "name": "decimals",
      "outputs": [
        {
          "internalType": "uint8",
          "name": "",
          "type": "uint8"
        }
      ],
      "stateMutability": "view",
      "type": "function"
    },
    {
      "inputs": [
        {
          "internalType": "address",
          "name": "spender",
          "type": "address"
        },
        {
          "internalType": "uint256",
          "name": "subtractedValue",
          "type": "uint256"
        }
      ],
      "name": "decreaseAllowance",
      "outputs": [
        {
          "internalType": "bool",
          "name": "",
          "type": "bool"
        }
      ],
      "stateMutability": "nonpayable",
      "type": "function"
    },
    {
      "inputs": [
        {
          "internalType": "uint256",
          "name": "_amount",
          "type": "uint256"
        }
      ],
      "name": "deposit",
      "outputs": [],
      "stateMutability": "nonpayable",
      "type": "function"
    },
    {
      "inputs": [
        {
          "internalType": "uint256",
          "name": "_amount",
          "type": "uint256"
        },
        {
          "internalType": "uint256",
          "name": "_deadline",
          "type": "uint256"
        },
        {
          "internalType": "uint8",
          "name": "_v",
          "type": "uint8"
        },
        {
          "internalType": "bytes32",
          "name": "_r",
          "type": "bytes32"
        },
        {
          "internalType": "bytes32",
          "name": "_s",
          "type": "bytes32"
        }
      ],
      "name": "depositWithPermit",
      "outputs": [],
      "stateMutability": "nonpayable",
      "type": "function"
    },
    {
      "inputs": [
        {
          "internalType": "address",
          "name": "_strategy",
          "type": "address"
        }
      ],
      "name": "excessDebt",
      "outputs": [
        {
          "internalType": "uint256",
          "name": "",
          "type": "uint256"
        }
      ],
      "stateMutability": "view",
      "type": "function"
    },
    {
      "inputs": [],
      "name": "feeCollector",
      "outputs": [
        {
          "internalType": "address",
          "name": "",
          "type": "address"
        }
      ],
      "stateMutability": "view",
      "type": "function"
    },
    {
      "inputs": [],
      "name": "feeWhitelist",
      "outputs": [
        {
          "internalType": "address",
          "name": "",
          "type": "address"
        }
      ],
      "stateMutability": "view",
      "type": "function"
    },
    {
      "inputs": [],
      "name": "getStrategies",
      "outputs": [
        {
          "internalType": "address[]",
          "name": "",
          "type": "address[]"
        }
      ],
      "stateMutability": "view",
      "type": "function"
    },
    {
      "inputs": [],
      "name": "getWithdrawQueue",
      "outputs": [
        {
          "internalType": "address[]",
          "name": "",
          "type": "address[]"
        }
      ],
      "stateMutability": "view",
      "type": "function"
    },
    {
      "inputs": [],
      "name": "governor",
      "outputs": [
        {
          "internalType": "address",
          "name": "",
          "type": "address"
        }
      ],
      "stateMutability": "view",
      "type": "function"
    },
    {
      "inputs": [
        {
          "internalType": "address",
          "name": "spender",
          "type": "address"
        },
        {
          "internalType": "uint256",
          "name": "addedValue",
          "type": "uint256"
        }
      ],
      "name": "increaseAllowance",
      "outputs": [
        {
          "internalType": "bool",
          "name": "",
          "type": "bool"
        }
      ],
      "stateMutability": "nonpayable",
      "type": "function"
    },
    {
      "inputs": [
        {
          "internalType": "string",
          "name": "_name",
          "type": "string"
        },
        {
          "internalType": "string",
          "name": "_symbol",
          "type": "string"
        },
        {
          "internalType": "address",
          "name": "_token",
          "type": "address"
        },
        {
          "internalType": "address",
          "name": "_poolAccountant",
          "type": "address"
        },
        {
          "internalType": "address",
          "name": "_addressListFactory",
          "type": "address"
        }
      ],
      "name": "initialize",
      "outputs": [],
      "stateMutability": "nonpayable",
      "type": "function"
    },
    {
      "inputs": [],
      "name": "keepers",
      "outputs": [
        {
          "internalType": "address",
          "name": "",
          "type": "address"
        }
      ],
      "stateMutability": "view",
      "type": "function"
    },
    {
      "inputs": [],
      "name": "maintainers",
      "outputs": [
        {
          "internalType": "address",
          "name": "",
          "type": "address"
        }
      ],
      "stateMutability": "view",
      "type": "function"
    },
    {
      "inputs": [
        {
          "internalType": "address",
          "name": "_old",
          "type": "address"
        },
        {
          "internalType": "address",
          "name": "_new",
          "type": "address"
        }
      ],
      "name": "migrateStrategy",
      "outputs": [],
      "stateMutability": "nonpayable",
      "type": "function"
    },
    {
      "inputs": [
        {
          "internalType": "address[]",
          "name": "_recipients",
          "type": "address[]"
        },
        {
          "internalType": "uint256[]",
          "name": "_amounts",
          "type": "uint256[]"
        }
      ],
      "name": "multiTransfer",
      "outputs": [
        {
          "internalType": "bool",
          "name": "",
          "type": "bool"
        }
      ],
      "stateMutability": "nonpayable",
      "type": "function"
    },
    {
      "inputs": [],
      "name": "name",
      "outputs": [
        {
          "internalType": "string",
          "name": "",
          "type": "string"
        }
      ],
      "stateMutability": "view",
      "type": "function"
    },
    {
      "inputs": [
        {
          "internalType": "address",
          "name": "",
          "type": "address"
        }
      ],
      "name": "nonces",
      "outputs": [
        {
          "internalType": "uint256",
          "name": "",
          "type": "uint256"
        }
      ],
      "stateMutability": "view",
      "type": "function"
    },
    {
      "inputs": [],
      "name": "open",
      "outputs": [],
      "stateMutability": "nonpayable",
      "type": "function"
    },
    {
      "inputs": [],
      "name": "pause",
      "outputs": [],
      "stateMutability": "nonpayable",
      "type": "function"
    },
    {
      "inputs": [],
      "name": "paused",
      "outputs": [
        {
          "internalType": "bool",
          "name": "",
          "type": "bool"
        }
      ],
      "stateMutability": "view",
      "type": "function"
    },
    {
      "inputs": [
        {
          "internalType": "address",
          "name": "owner",
          "type": "address"
        },
        {
          "internalType": "address",
          "name": "spender",
          "type": "address"
        },
        {
          "internalType": "uint256",
          "name": "value",
          "type": "uint256"
        },
        {
          "internalType": "uint256",
          "name": "deadline",
          "type": "uint256"
        },
        {
          "internalType": "uint8",
          "name": "v",
          "type": "uint8"
        },
        {
          "internalType": "bytes32",
          "name": "r",
          "type": "bytes32"
        },
        {
          "internalType": "bytes32",
          "name": "s",
          "type": "bytes32"
        }
      ],
      "name": "permit",
      "outputs": [],
      "stateMutability": "nonpayable",
      "type": "function"
    },
    {
      "inputs": [],
      "name": "poolAccountant",
      "outputs": [
        {
          "internalType": "address",
          "name": "",
          "type": "address"
        }
      ],
      "stateMutability": "view",
      "type": "function"
    },
    {
      "inputs": [],
      "name": "poolRewards",
      "outputs": [
        {
          "internalType": "address",
          "name": "",
          "type": "address"
        }
      ],
      "stateMutability": "view",
      "type": "function"
    },
    {
      "inputs": [],
      "name": "pricePerShare",
      "outputs": [
        {
          "internalType": "uint256",
          "name": "",
          "type": "uint256"
        }
      ],
      "stateMutability": "view",
      "type": "function"
    },
    {
      "inputs": [
        {
          "internalType": "address",
          "name": "_listToUpdate",
          "type": "address"
        },
        {
          "internalType": "address",
          "name": "_addressToRemove",
          "type": "address"
        }
      ],
      "name": "removeFromList",
      "outputs": [],
      "stateMutability": "nonpayable",
      "type": "function"
    },
    {
      "inputs": [
        {
          "internalType": "uint256",
          "name": "_profit",
          "type": "uint256"
        },
        {
          "internalType": "uint256",
          "name": "_loss",
          "type": "uint256"
        },
        {
          "internalType": "uint256",
          "name": "_payback",
          "type": "uint256"
        }
      ],
      "name": "reportEarning",
      "outputs": [],
      "stateMutability": "nonpayable",
      "type": "function"
    },
    {
      "inputs": [
        {
          "internalType": "uint256",
          "name": "_loss",
          "type": "uint256"
        }
      ],
      "name": "reportLoss",
      "outputs": [],
      "stateMutability": "nonpayable",
      "type": "function"
    },
    {
      "inputs": [],
      "name": "shutdown",
      "outputs": [],
      "stateMutability": "nonpayable",
      "type": "function"
    },
    {
      "inputs": [],
      "name": "stopEverything",
      "outputs": [
        {
          "internalType": "bool",
          "name": "",
          "type": "bool"
        }
      ],
      "stateMutability": "view",
      "type": "function"
    },
    {
      "inputs": [
        {
          "internalType": "address",
          "name": "_strategy",
          "type": "address"
        }
      ],
      "name": "strategy",
      "outputs": [
        {
          "internalType": "bool",
          "name": "_active",
          "type": "bool"
        },
        {
          "internalType": "uint256",
          "name": "_interestFee",
          "type": "uint256"
        },
        {
          "internalType": "uint256",
          "name": "_debtRate",
          "type": "uint256"
        },
        {
          "internalType": "uint256",
          "name": "_lastRebalance",
          "type": "uint256"
        },
        {
          "internalType": "uint256",
          "name": "_totalDebt",
          "type": "uint256"
        },
        {
          "internalType": "uint256",
          "name": "_totalLoss",
          "type": "uint256"
        },
        {
          "internalType": "uint256",
          "name": "_totalProfit",
          "type": "uint256"
        },
        {
          "internalType": "uint256",
          "name": "_debtRatio",
          "type": "uint256"
        }
      ],
      "stateMutability": "view",
      "type": "function"
    },
    {
      "inputs": [
        {
          "internalType": "address",
          "name": "_fromToken",
          "type": "address"
        }
      ],
      "name": "sweepERC20",
      "outputs": [],
      "stateMutability": "nonpayable",
      "type": "function"
    },
    {
      "inputs": [],
      "name": "symbol",
      "outputs": [
        {
          "internalType": "string",
          "name": "",
          "type": "string"
        }
      ],
      "stateMutability": "view",
      "type": "function"
    },
    {
      "inputs": [],
      "name": "token",
      "outputs": [
        {
          "internalType": "contract IERC20",
          "name": "",
          "type": "address"
        }
      ],
      "stateMutability": "view",
      "type": "function"
    },
    {
      "inputs": [],
      "name": "tokensHere",
      "outputs": [
        {
          "internalType": "uint256",
          "name": "",
          "type": "uint256"
        }
      ],
      "stateMutability": "view",
      "type": "function"
    },
    {
      "inputs": [],
      "name": "totalDebt",
      "outputs": [
        {
          "internalType": "uint256",
          "name": "",
          "type": "uint256"
        }
      ],
      "stateMutability": "view",
      "type": "function"
    },
    {
      "inputs": [
        {
          "internalType": "address",
          "name": "_strategy",
          "type": "address"
        }
      ],
      "name": "totalDebtOf",
      "outputs": [
        {
          "internalType": "uint256",
          "name": "",
          "type": "uint256"
        }
      ],
      "stateMutability": "view",
      "type": "function"
    },
    {
      "inputs": [],
      "name": "totalDebtRatio",
      "outputs": [
        {
          "internalType": "uint256",
          "name": "",
          "type": "uint256"
        }
      ],
      "stateMutability": "view",
      "type": "function"
    },
    {
      "inputs": [],
      "name": "totalSupply",
      "outputs": [
        {
          "internalType": "uint256",
          "name": "",
          "type": "uint256"
        }
      ],
      "stateMutability": "view",
      "type": "function"
    },
    {
      "inputs": [],
      "name": "totalValue",
      "outputs": [
        {
          "internalType": "uint256",
          "name": "",
          "type": "uint256"
        }
      ],
      "stateMutability": "view",
      "type": "function"
    },
    {
      "inputs": [
        {
          "internalType": "address",
          "name": "recipient",
          "type": "address"
        },
        {
          "internalType": "uint256",
          "name": "amount",
          "type": "uint256"
        }
      ],
      "name": "transfer",
      "outputs": [
        {
          "internalType": "bool",
          "name": "",
          "type": "bool"
        }
      ],
      "stateMutability": "nonpayable",
      "type": "function"
    },
    {
      "inputs": [
        {
          "internalType": "address",
          "name": "sender",
          "type": "address"
        },
        {
          "internalType": "address",
          "name": "recipient",
          "type": "address"
        },
        {
          "internalType": "uint256",
          "name": "amount",
          "type": "uint256"
        }
      ],
      "name": "transferFrom",
      "outputs": [
        {
          "internalType": "bool",
          "name": "",
          "type": "bool"
        }
      ],
      "stateMutability": "nonpayable",
      "type": "function"
    },
    {
      "inputs": [
        {
          "internalType": "address",
          "name": "_proposedGovernor",
          "type": "address"
        }
      ],
      "name": "transferGovernorship",
      "outputs": [],
      "stateMutability": "nonpayable",
      "type": "function"
    },
    {
      "inputs": [],
      "name": "unpause",
      "outputs": [],
      "stateMutability": "nonpayable",
      "type": "function"
    },
    {
      "inputs": [
        {
          "internalType": "address",
          "name": "_newFeeCollector",
          "type": "address"
        }
      ],
      "name": "updateFeeCollector",
      "outputs": [],
      "stateMutability": "nonpayable",
      "type": "function"
    },
    {
      "inputs": [
        {
          "internalType": "address",
          "name": "_newPoolRewards",
          "type": "address"
        }
      ],
      "name": "updatePoolRewards",
      "outputs": [],
      "stateMutability": "nonpayable",
      "type": "function"
    },
    {
      "inputs": [
        {
          "internalType": "uint256",
          "name": "_newWithdrawFee",
          "type": "uint256"
        }
      ],
      "name": "updateWithdrawFee",
      "outputs": [],
      "stateMutability": "nonpayable",
      "type": "function"
    },
    {
      "inputs": [
        {
          "internalType": "uint256",
          "name": "_shares",
          "type": "uint256"
        }
      ],
      "name": "whitelistedWithdraw",
      "outputs": [],
      "stateMutability": "nonpayable",
      "type": "function"
    },
    {
      "inputs": [
        {
          "internalType": "uint256",
          "name": "_shares",
          "type": "uint256"
        }
      ],
      "name": "withdraw",
      "outputs": [],
      "stateMutability": "nonpayable",
      "type": "function"
    },
    {
      "inputs": [],
      "name": "withdrawFee",
      "outputs": [
        {
          "internalType": "uint256",
          "name": "",
          "type": "uint256"
        }
      ],
      "stateMutability": "view",
      "type": "function"
    }
  ],
  "transactionHash": "0xade5ec1803abc54d401758a8adfbfe7ceffded6cfb32ed0fb8f504c3d1554c67",
  "args": [
    "vaFRAX Pool",
    "vaFRAX",
    "0x853d955aCEf822Db058eb8505911ED77F175b99e"
  ],
  "solcInputHash": "4999e1cde647e51808b26a57da360c5e",
  "bytecode": "0x60806040523480156200001157600080fd5b5060405162004c1938038062004c1983398101604081905262000034916200025e565b828282828282828281600390805190602001906200005492919062000105565b5080516200006a90600490602084019062000105565b50505060006200007f6200010160201b60201c565b600a80546001600160a01b0319166001600160a01b038316908117909155604051919250906000907fd4459d5b8b913cab0244230fd9b1c08b6ceace7fe9230e60d0f74cbffdf849d0908290a3506001600c55600d80546001600160a01b0319166001600160a01b0392909216919091179055506200033a9650505050505050565b3390565b8280546200011390620002e7565b90600052602060002090601f01602090048101928262000137576000855562000182565b82601f106200015257805160ff191683800117855562000182565b8280016001018555821562000182579182015b828111156200018257825182559160200191906001019062000165565b506200019092915062000194565b5090565b5b8082111562000190576000815560010162000195565b600082601f830112620001bc578081fd5b81516001600160401b0380821115620001d957620001d962000324565b604051601f8301601f19908116603f0116810190828211818310171562000204576200020462000324565b8160405283815260209250868385880101111562000220578485fd5b8491505b8382101562000243578582018301518183018401529082019062000224565b838211156200025457848385830101525b9695505050505050565b60008060006060848603121562000273578283fd5b83516001600160401b03808211156200028a578485fd5b6200029887838801620001ab565b94506020860151915080821115620002ae578384fd5b50620002bd86828701620001ab565b604086015190935090506001600160a01b0381168114620002dc578182fd5b809150509250925092565b600181811c90821680620002fc57607f821691505b602082108114156200031e57634e487b7160e01b600052602260045260246000fd5b50919050565b634e487b7160e01b600052604160045260246000fd5b6148cf806200034a6000396000f3fe608060405234801561001057600080fd5b50600436106103af5760003560e01c806399530b06116101f4578063daf635de1161011a578063fc0c546a116100ad578063fcfff16f1161007c578063fcfff16f146107fb578063fd967f4714610803578063ff643a7c1461080c578063ffa1ad741461081f576103af565b8063fc0c546a146107c5578063fc0e74d1146107d8578063fc767810146107e0578063fc7b9c18146107f3576103af565b8063e00af4a7116100e9578063e00af4a71461078e578063e941fa78146107a1578063f3b27bc3146107aa578063fb589de2146107b2576103af565b8063daf635de1461071c578063db0ed6a01461072f578063dd62ed3e14610742578063ddd6d2601461077b576103af565b8063b6b55f2511610192578063d2c35ce811610161578063d2c35ce8146106db578063d4c3eea0146106ee578063d505accf146106f6578063d53ddc2614610709576103af565b8063b6b55f251461069a578063b8cb343d146106ad578063c12d636b146106b5578063c415b95c146106c8576103af565b8063a9059cbb116101ce578063a9059cbb14610659578063b49a60bb1461066c578063b64321ec14610674578063b6aa515b14610687576103af565b806399530b061461062b5780639f2b283314610633578063a457c2d714610646576103af565b80633f4ba83a116102d957806370a08231116102775780638fe91ffb116102465780638fe91ffb146105f4578063940c4082146105fd578063951dc22c1461061057806395d89b4114610623576103af565b806370a08231146105a65780637ecebe00146105b95780638456cb59146105d95780638bc6beb2146105e1576103af565b80634a970be7116102b35780634a970be7146105595780635c975abb1461056c57806367187d3d146105805780636cb56d1914610593576103af565b80633f4ba83a1461052a5780634938649a1461053257806349eeb86014610546576103af565b80631e89d545116103515780632e1a7d4d116103205780632e1a7d4d146104ed578063313ce567146105005780633644e5151461050f5780633950935114610517576103af565b80631e89d5451461046f578063228bfd9f1461048257806323b872dd146104d25780632df9eab9146104e5576103af565b80630c340a241161038d5780630c340a241461040a578063111830521461043557806318160ddd1461044a5780631e751ac11461045c576103af565b806305bed046146103b457806306fdde03146103c9578063095ea7b3146103e7575b600080fd5b6103c76103c23660046143a5565b610843565b005b6103d16109e9565b6040516103de91906144ca565b60405180910390f35b6103fa6103f5366004614113565b610a7c565b60405190151581526020016103de565b600a5461041d906001600160a01b031681565b6040516001600160a01b0390911681526020016103de565b61043d610a92565b6040516103de919061447d565b6002545b6040519081526020016103de565b6103c761046a36600461402b565b610b18565b6103fa61047d36600461413e565b610c80565b610495610490366004613ff3565b610d82565b6040805198151589526020890197909752958701949094526060860192909252608085015260a084015260c083015260e0820152610100016103de565b6103fa6104e0366004614063565b610e2b565b61044e610ede565b6103c76104fb366004614375565b610f5b565b604051601281526020016103de565b61044e610fbe565b6103fa610525366004614113565b610fc8565b6103c7610fff565b600b546103fa90600160a81b900460ff1681565b60125461041d906001600160a01b031681565b6103c76105673660046143fd565b6110ae565b600b546103fa90600160a01b900460ff1681565b6103c761058e36600461402b565b6111ab565b6103c76105a136600461402b565b611304565b61044e6105b4366004613ff3565b611540565b61044e6105c7366004613ff3565b60096020526000908152604090205481565b6103c761155f565b600f5461041d906001600160a01b031681565b61044e60155481565b6103c761060b366004613ff3565b61160c565b60115461041d906001600160a01b031681565b6103d16116d3565b61044e6116e2565b61044e610641366004613ff3565b611742565b6103fa610654366004614113565b6117c7565b6103fa610667366004614113565b611862565b61043d61186f565b61044e610682366004613ff3565b6118b4565b6103c7610695366004613ff3565b6118e7565b6103c76106a8366004614375565b611989565b61044e6119e4565b600e5461041d906001600160a01b031681565b60135461041d906001600160a01b031681565b6103c76106e9366004613ff3565b611a28565b61044e611aef565b6103c76107043660046140a3565b611b89565b61044e610717366004613ff3565b611d49565b6103c761072a366004614375565b611d7c565b6103c761073d3660046142da565b611e67565b61044e61075036600461402b565b6001600160a01b03918216600090815260016020908152604080832093909416825291909152205490565b6103c7610789366004614375565b611ee4565b6103c761079c366004613ff3565b611f4c565b61044e60145481565b6103c7612114565b61044e6107c0366004614375565b6121d4565b600d5461041d906001600160a01b031681565b6103c76121e4565b60105461041d906001600160a01b031681565b61044e612291565b6103c76122d6565b61044e61271081565b6103c761081a366004614375565b612383565b6103d1604051806040016040528060058152602001640ccb8c0b8d60da1b81525081565b600e54600090819081906001600160a01b031663a066654b336040516001600160e01b031960e084901b1681526001600160a01b039091166004820152602481018990526044810188905260648101879052608401606060405180830381600087803b1580156108b257600080fd5b505af11580156108c6573d6000803e3d6000fd5b505050506040513d601f19601f820116820180604052508101906108ea91906143d0565b9194509250905060006108fd8488614645565b90508281101561092d576109283361091583866147b0565b600d546001600160a01b031691906124a0565b610958565b8281111561095857610958333061094486856147b0565b600d546001600160a01b0316929190612503565b81156109e0576109e0336001600160a01b031663c415b95c6040518163ffffffff1660e01b815260040160206040518083038186803b15801561099a57600080fd5b505afa1580156109ae573d6000803e3d6000fd5b505050506040513d601f19601f820116820180604052508101906109d2919061400f565b6109db84612541565b6125df565b50505050505050565b6060600380546109f8906147f3565b80601f0160208091040260200160405190810160405280929190818152602001828054610a24906147f3565b8015610a715780601f10610a4657610100808354040283529160200191610a71565b820191906000526020600020905b815481529060010190602001808311610a5457829003601f168201915b505050505090505b90565b6000610a893384846126be565b50600192915050565b600e546040805163088c182960e11b815290516060926001600160a01b0316916311183052916004808301926000929190829003018186803b158015610ad757600080fd5b505afa158015610aeb573d6000803e3d6000fd5b505050506040513d6000823e601f3d908101601f19168201604052610b1391908101906141a7565b905090565b6011546001600160a01b0316635dbe47e8336040516001600160e01b031960e084901b1681526001600160a01b03909116600482015260240160206040518083038186803b158015610b6957600080fd5b505afa158015610b7d573d6000803e3d6000fd5b505050506040513d601f19601f82011682018060405250810190610ba1919061425b565b610bc65760405162461bcd60e51b8152600401610bbd9061454b565b60405180910390fd5b604051630a3b0a4f60e01b81526001600160a01b038281166004830152831690630a3b0a4f906024015b602060405180830381600087803b158015610c0a57600080fd5b505af1158015610c1e573d6000803e3d6000fd5b505050506040513d601f19601f82011682018060405250810190610c42919061425b565b60405180604001604052806002815260200161313360f01b81525090610c7b5760405162461bcd60e51b8152600401610bbd91906144ca565b505050565b6040805180820190915260018152600d60fa1b6020820152600090848314610cbb5760405162461bcd60e51b8152600401610bbd91906144ca565b5060005b84811015610d7657610d2b868683818110610cea57634e487b7160e01b600052603260045260246000fd5b9050602002016020810190610cff9190613ff3565b858584818110610d1f57634e487b7160e01b600052603260045260246000fd5b90506020020135611862565b604051806040016040528060018152602001601b60f91b81525090610d635760405162461bcd60e51b8152600401610bbd91906144ca565b5080610d6e8161482e565b915050610cbf565b50600195945050505050565b600e5460405163228bfd9f60e01b81526001600160a01b038381166004830152600092839283928392839283928392839291169063228bfd9f906024016101006040518083038186803b158015610dd857600080fd5b505afa158015610dec573d6000803e3d6000fd5b505050506040513d601f19601f82011682018060405250810190610e109190614275565b97509750975097509750975097509750919395975091939597565b6000610e388484846127e3565b6001600160a01b038416600090815260016020908152604080832033845290915290205482811015610ebd5760405162461bcd60e51b815260206004820152602860248201527f45524332303a207472616e7366657220616d6f756e74206578636565647320616044820152676c6c6f77616e636560c01b6064820152608401610bbd565b610ed18533610ecc86856147b0565b6126be565b60019150505b9392505050565b600e5460408051632df9eab960e01b815290516000926001600160a01b031691632df9eab9916004808301926020929190829003018186803b158015610f2357600080fd5b505afa158015610f37573d6000803e3d6000fd5b505050506040513d601f19601f82011682018060405250810190610b13919061438d565b6002600c541415610f7e5760405162461bcd60e51b8152600401610bbd90614593565b6002600c55600b54600160a81b900460ff1615610fad5760405162461bcd60e51b8152600401610bbd90614571565b610fb6816128be565b506001600c55565b6000610b13612a17565b3360008181526001602090815260408083206001600160a01b03871684529091528120549091610a89918590610ecc908690614645565b6011546001600160a01b0316635dbe47e8336040516001600160e01b031960e084901b1681526001600160a01b03909116600482015260240160206040518083038186803b15801561105057600080fd5b505afa158015611064573d6000803e3d6000fd5b505050506040513d601f19601f82011682018060405250810190611088919061425b565b6110a45760405162461bcd60e51b8152600401610bbd9061454b565b6110ac612a94565b565b6002600c5414156110d15760405162461bcd60e51b8152600401610bbd90614593565b6002600c55600b54600160a01b900460ff16156111005760405162461bcd60e51b8152600401610bbd906145ca565b600d546001600160a01b031663d505accf336040516001600160e01b031960e084901b1681526001600160a01b039091166004820152306024820152604481018890526064810187905260ff8616608482015260a4810185905260c4810184905260e401600060405180830381600087803b15801561117e57600080fd5b505af1158015611192573d6000803e3d6000fd5b5050505061119f85612b51565b50506001600c55505050565b6011546001600160a01b0316635dbe47e8336040516001600160e01b031960e084901b1681526001600160a01b03909116600482015260240160206040518083038186803b1580156111fc57600080fd5b505afa158015611210573d6000803e3d6000fd5b505050506040513d601f19601f82011682018060405250810190611234919061425b565b6112505760405162461bcd60e51b8152600401610bbd9061454b565b604051631484968760e11b81526001600160a01b0382811660048301528316906329092d0e90602401602060405180830381600087803b15801561129357600080fd5b505af11580156112a7573d6000803e3d6000fd5b505050506040513d601f19601f820116820180604052508101906112cb919061425b565b604051806040016040528060028152602001610c4d60f21b81525090610c7b5760405162461bcd60e51b8152600401610bbd91906144ca565b600a546001600160a01b0316331461132e5760405162461bcd60e51b8152600401610bbd906145ea565b306001600160a01b0316816001600160a01b03166316f0115b6040518163ffffffff1660e01b815260040160206040518083038186803b15801561137157600080fd5b505afa158015611385573d6000803e3d6000fd5b505050506040513d601f19601f820116820180604052508101906113a9919061400f565b6001600160a01b03161480156114405750306001600160a01b0316826001600160a01b03166316f0115b6040518163ffffffff1660e01b815260040160206040518083038186803b1580156113fd57600080fd5b505afa158015611411573d6000803e3d6000fd5b505050506040513d601f19601f82011682018060405250810190611435919061400f565b6001600160a01b0316145b60405180604001604052806002815260200161313760f01b815250906114795760405162461bcd60e51b8152600401610bbd91906144ca565b50600e54604051636cb56d1960e01b81526001600160a01b038481166004830152838116602483015290911690636cb56d1990604401600060405180830381600087803b1580156114c957600080fd5b505af11580156114dd573d6000803e3d6000fd5b505060405163ce5494bb60e01b81526001600160a01b0384811660048301528516925063ce5494bb9150602401600060405180830381600087803b15801561152457600080fd5b505af1158015611538573d6000803e3d6000fd5b505050505050565b6001600160a01b0381166000908152602081905260409020545b919050565b6011546001600160a01b0316635dbe47e8336040516001600160e01b031960e084901b1681526001600160a01b03909116600482015260240160206040518083038186803b1580156115b057600080fd5b505afa1580156115c4573d6000803e3d6000fd5b505050506040513d601f19601f820116820180604052508101906115e8919061425b565b6116045760405162461bcd60e51b8152600401610bbd9061454b565b6110ac612bb9565b600a546001600160a01b031633146116365760405162461bcd60e51b8152600401610bbd906145ea565b604080518082019091526002815261031360f41b60208201526001600160a01b0382166116765760405162461bcd60e51b8152600401610bbd91906144ca565b50600f546040516001600160a01b038084169216907fe239974dad08ac696e723caf1886bd0b5afc0870088f9a1266082757f824927690600090a3600f80546001600160a01b0319166001600160a01b0392909216919091179055565b6060600480546109f8906147f3565b60006116ed60025490565b15806116fe57506116fc611aef565b155b1561171b57611714670de0b6b3a76400006121d4565b9050610a79565b600254611726611aef565b61173890670de0b6b3a7640000614791565b610b13919061465d565b600e54604051639f2b283360e01b81526001600160a01b0383811660048301526000921690639f2b2833906024015b60206040518083038186803b15801561178957600080fd5b505afa15801561179d573d6000803e3d6000fd5b505050506040513d601f19601f820116820180604052508101906117c1919061438d565b92915050565b3360009081526001602090815260408083206001600160a01b0386168452909152812054828110156118495760405162461bcd60e51b815260206004820152602560248201527f45524332303a2064656372656173656420616c6c6f77616e63652062656c6f77604482015264207a65726f60d81b6064820152608401610bbd565b6118583385610ecc86856147b0565b5060019392505050565b6000610a893384846127e3565b600e546040805163b49a60bb60e01b815290516060926001600160a01b03169163b49a60bb916004808301926000929190829003018186803b158015610ad757600080fd5b600e54604051632d90c87b60e21b81526001600160a01b038381166004830152600092169063b64321ec90602401611771565b600a546001600160a01b031633146119115760405162461bcd60e51b8152600401610bbd906145ea565b6001600160a01b0381166119675760405162461bcd60e51b815260206004820152601960248201527f70726f706f7365642d676f7665726e6f722d69732d7a65726f000000000000006044820152606401610bbd565b600b80546001600160a01b0319166001600160a01b0392909216919091179055565b6002600c5414156119ac5760405162461bcd60e51b8152600401610bbd90614593565b6002600c55600b54600160a01b900460ff16156119db5760405162461bcd60e51b8152600401610bbd906145ca565b610fb681612b51565b600d546040516370a0823160e01b81523060048201526000916001600160a01b0316906370a082319060240160206040518083038186803b158015610f2357600080fd5b600a546001600160a01b03163314611a525760405162461bcd60e51b8152600401610bbd906145ea565b604080518082019091526002815261031360f41b60208201526001600160a01b038216611a925760405162461bcd60e51b8152600401610bbd91906144ca565b506013546040516001600160a01b038084169216907f0f06062680f9bd68e786e9980d9bb03d73d5620fc3b345e417b6eacb310b970690600090a3601380546001600160a01b0319166001600160a01b0392909216919091179055565b6000611af96119e4565b600e60009054906101000a90046001600160a01b03166001600160a01b031663fc7b9c186040518163ffffffff1660e01b815260040160206040518083038186803b158015611b4757600080fd5b505afa158015611b5b573d6000803e3d6000fd5b505050506040513d601f19601f82011682018060405250810190611b7f919061438d565b610b139190614645565b83421115611bd95760405162461bcd60e51b815260206004820152601d60248201527f45524332305065726d69743a206578706972656420646561646c696e650000006044820152606401610bbd565b6001600160a01b0387811660008181526009602090815260408083205481517f6e71edae12b1b97f4d1f60370fef10105fa2faae0126114a169c64845d6126c98185015280830195909552948b166060850152608084018a905260a0840185905260c08085018a90528151808603909101815260e09094019052825192019190912090611c64612a17565b60405161190160f01b60208201526022810191909152604281018390526062016040516020818303038152906040528051906020012090506000611caa82888888612c1e565b90508a6001600160a01b0316816001600160a01b031614611d0d5760405162461bcd60e51b815260206004820152601e60248201527f45524332305065726d69743a20696e76616c6964207369676e617475726500006044820152606401610bbd565b611d18846001614645565b6001600160a01b038c16600090815260096020526040902055611d3c8b8b8b6126be565b5050505050505050505050565b600e54604051636a9eee1360e11b81526001600160a01b038381166004830152600092169063d53ddc2690602401611771565b600a546001600160a01b03163314611da65760405162461bcd60e51b8152600401610bbd906145ea565b6013546040805180820190915260018152603760f81b6020820152906001600160a01b0316611de85760405162461bcd60e51b8152600401610bbd91906144ca565b50604080518082019091526002815261313160f01b6020820152612710821115611e255760405162461bcd60e51b8152600401610bbd91906144ca565b5060145460408051918252602082018390527f2bf847f5692332004b0f69e0d84a8f85ed020bcf8573b3ede68afc92009965bf910160405180910390a1601455565b600554610100900460ff1680611e80575060055460ff16155b611e9c5760405162461bcd60e51b8152600401610bbd906144fd565b600554610100900460ff16158015611ebe576005805461ffff19166101011790555b611ecb8686868686612dc7565b8015611538576005805461ff0019169055505050505050565b600e54604051633f89843760e11b8152336004820152602481018390526001600160a01b0390911690637f13086e906044015b600060405180830381600087803b158015611f3157600080fd5b505af1158015611f45573d6000803e3d6000fd5b5050505050565b6011546001600160a01b0316635dbe47e8336040516001600160e01b031960e084901b1681526001600160a01b03909116600482015260240160206040518083038186803b158015611f9d57600080fd5b505afa158015611fb1573d6000803e3d6000fd5b505050506040513d601f19601f82011682018060405250810190611fd5919061425b565b611ff15760405162461bcd60e51b8152600401610bbd9061454b565b600d546040805180820190915260018152600760fb1b6020820152906001600160a01b03838116911614156120395760405162461bcd60e51b8152600401610bbd91906144ca565b506013546040805180820190915260018152603760f81b6020820152906001600160a01b031661207c5760405162461bcd60e51b8152600401610bbd91906144ca565b506013546040516370a0823160e01b8152306004820152612111916001600160a01b0390811691908416906370a082319060240160206040518083038186803b1580156120c857600080fd5b505afa1580156120dc573d6000803e3d6000fd5b505050506040513d601f19601f82011682018060405250810190612100919061438d565b6001600160a01b03841691906124a0565b50565b600b546001600160a01b0316331461216e5760405162461bcd60e51b815260206004820152601960248201527f6e6f742d7468652d70726f706f7365642d676f7665726e6f72000000000000006044820152606401610bbd565b600b54600a546040516001600160a01b0392831692909116907fd4459d5b8b913cab0244230fd9b1c08b6ceace7fe9230e60d0f74cbffdf849d090600090a3600b8054600a80546001600160a01b03199081166001600160a01b03841617909155169055565b6000601554826117c1919061465d565b6011546001600160a01b0316635dbe47e8336040516001600160e01b031960e084901b1681526001600160a01b03909116600482015260240160206040518083038186803b15801561223557600080fd5b505afa158015612249573d6000803e3d6000fd5b505050506040513d601f19601f8201168201806040525081019061226d919061425b565b6122895760405162461bcd60e51b8152600401610bbd9061454b565b6110ac612ef0565b600e5460408051631f8f738360e31b815290516000926001600160a01b03169163fc7b9c18916004808301926020929190829003018186803b158015610f2357600080fd5b6011546001600160a01b0316635dbe47e8336040516001600160e01b031960e084901b1681526001600160a01b03909116600482015260240160206040518083038186803b15801561232757600080fd5b505afa15801561233b573d6000803e3d6000fd5b505050506040513d601f19601f8201168201806040525081019061235f919061425b565b61237b5760405162461bcd60e51b8152600401610bbd9061454b565b6110ac612f57565b6002600c5414156123a65760405162461bcd60e51b8152600401610bbd90614593565b6002600c55600b54600160a81b900460ff16156123d55760405162461bcd60e51b8152600401610bbd90614571565b6010546001600160a01b0316635dbe47e8336040516001600160e01b031960e084901b1681526001600160a01b03909116600482015260240160206040518083038186803b15801561242657600080fd5b505afa15801561243a573d6000803e3d6000fd5b505050506040513d601f19601f8201168201806040525081019061245e919061425b565b604051806040016040528060018152602001603560f81b815250906124965760405162461bcd60e51b8152600401610bbd91906144ca565b50610fb681612fd3565b6040516001600160a01b038316602482015260448101829052610c7b90849063a9059cbb60e01b906064015b60408051601f198184030181529190526020810180516001600160e01b03166001600160e01b03199093169290921790915261309c565b6040516001600160a01b038085166024830152831660448201526064810182905261253b9085906323b872dd60e01b906084016124cc565b50505050565b6040805180820190915260018152603160f81b60208201526000908261257a5760405162461bcd60e51b8152600401610bbd91906144ca565b5060006125856116e2565b61259784670de0b6b3a7640000614791565b6125a1919061465d565b9050670de0b6b3a76400006125b46116e2565b6125be9083614791565b6125c8919061465d565b83116125d45780610ed7565b610ed7816001614645565b6001600160a01b0382166126355760405162461bcd60e51b815260206004820152601f60248201527f45524332303a206d696e7420746f20746865207a65726f2061646472657373006044820152606401610bbd565b80600260008282546126479190614645565b90915550506001600160a01b03821660009081526020819052604081208054839290612674908490614645565b90915550506040518181526001600160a01b038316906000907fddf252ad1be2c89b69c2b068fc378daa952ba7f163c4a11628f55a4df523b3ef9060200160405180910390a35050565b6001600160a01b0383166127205760405162461bcd60e51b8152602060048201526024808201527f45524332303a20617070726f76652066726f6d20746865207a65726f206164646044820152637265737360e01b6064820152608401610bbd565b6001600160a01b0382166127815760405162461bcd60e51b815260206004820152602260248201527f45524332303a20617070726f766520746f20746865207a65726f206164647265604482015261737360f01b6064820152608401610bbd565b6001600160a01b0383811660008181526001602090815260408083209487168084529482529182902085905590518481527f8c5be1e5ebec7d5bd14f71427d1e84f3dd0314c0f7b2291e5b200ac8c7c3b92591015b60405180910390a3505050565b600f546001600160a01b0316156128b357600f5460405163632447c960e01b81526001600160a01b0385811660048301529091169063632447c990602401600060405180830381600087803b15801561283b57600080fd5b505af115801561284f573d6000803e3d6000fd5b5050600f5460405163632447c960e01b81526001600160a01b038681166004830152909116925063632447c99150602401600060405180830381600087803b15801561289a57600080fd5b505af11580156128ae573d6000803e3d6000fd5b505050505b610c7b83838361316e565b6014546128d3576128ce81612fd3565b612111565b6040805180820190915260018152601960f91b6020820152816129095760405162461bcd60e51b8152600401610bbd91906144ca565b50612914335b613346565b6000612710601454836129279190614791565b612931919061465d565b9050600061293f82846147b0565b9050600061294c82613389565b9050600061295982612541565b9050612964836121d4565b61296d826121d4565b10156129aa57601454612982906127106147b0565b61298e61271083614791565b612998919061465d565b94506129a481866147b0565b93508092505b6129b5335b846133fb565b6129cb336013546001600160a01b0316866127e3565b6129d48261354a565b50604080518681526020810184905233917ff279e6a1f5e320cca91135676d9cb6e44ca8a08c0b88342bcdb1144f6511b568910160405180910390a25050505050565b6000600854461415612a2c5750600654610a79565b6007546040805180820190915260018152603160f81b602090910152611714907f8b73c3c69bb8fe3d512ecc4cf759cc79239f7b179b0ffacaa9a75d522b39400f907fc89efdaa54c0f20c7adf612882df0950f5a951637e0307cdcb4c672f298b8bc6613567565b600b54600160a01b900460ff16612ada5760405162461bcd60e51b815260206004820152600a6024820152691b9bdd0b5c185d5cd95960b21b6044820152606401610bbd565b600b54600160a81b900460ff1615612b045760405162461bcd60e51b8152600401610bbd90614571565b600b805460ff60a01b191690557f5db9ee0a495bf2e6ff9c91a7834c1ba4fdd244a5e8aa4e537bd38aeae4b073aa335b6040516001600160a01b03909116815260200160405180910390a1565b612b5a3361290f565b6000612b6582612541565b9050612b70826135b0565b612b7a33826125df565b604080518281526020810184905233917f90890809c654f11d6e72a28fa60149770a0d11ec6c92319d6ceb2bb0a4ea1a15910160405180910390a25050565b600b54600160a01b900460ff1615612be35760405162461bcd60e51b8152600401610bbd906145ca565b600b805460ff60a01b1916600160a01b1790557f62e78cea01bee320cd4e420270b5ea74000d11b0c9f74754ebdbfc544b05a258612b343390565b60007f7fffffffffffffffffffffffffffffff5d576e7357a4501ddfe92f46681b20a0821115612c9b5760405162461bcd60e51b815260206004820152602260248201527f45434453413a20696e76616c6964207369676e6174757265202773272076616c604482015261756560f01b6064820152608401610bbd565b8360ff16601b1480612cb057508360ff16601c145b612d075760405162461bcd60e51b815260206004820152602260248201527f45434453413a20696e76616c6964207369676e6174757265202776272076616c604482015261756560f01b6064820152608401610bbd565b6040805160008082526020820180845288905260ff871692820192909252606081018590526080810184905260019060a0016020604051602081039080840390855afa158015612d5b573d6000803e3d6000fd5b5050604051601f1901519150506001600160a01b038116612dbe5760405162461bcd60e51b815260206004820152601860248201527f45434453413a20696e76616c6964207369676e617475726500000000000000006044820152606401610bbd565b95945050505050565b600554610100900460ff1680612de0575060055460ff16155b612dfc5760405162461bcd60e51b8152600401610bbd906144fd565b600554610100900460ff16158015612e1e576005805461ffff19166101011790555b604080518082019091526002815261031360f41b60208201526001600160a01b038416612e5e5760405162461bcd60e51b8152600401610bbd91906144ca565b50604080518082019091526002815261031360f41b60208201526001600160a01b038316612e9f5760405162461bcd60e51b8152600401610bbd91906144ca565b50612eab8686866135c8565b612eb3613740565b612ebc826137ee565b600e80546001600160a01b0319166001600160a01b0385161790558015611538576005805461ff0019169055505050505050565b600b54600160a81b900460ff1615612f1a5760405162461bcd60e51b8152600401610bbd90614571565b600b805461ffff60a01b191661010160a01b1790557f28b4c24cb1012c094cd2f59f98e89d791973295f8fda6eaa118022d6d318960a612b343390565b600b54600160a81b900460ff16612f9f5760405162461bcd60e51b815260206004820152600c60248201526b3737ba16b9b43aba3237bbb760a11b6044820152606401610bbd565b600b805460ff60a81b191690557fece7583a70a505ef0e36d4dec768f5ae597713e09c26011022599ee01abdabfc33612b34565b6040805180820190915260018152601960f91b6020820152816130095760405162461bcd60e51b8152600401610bbd91906144ca565b506130133361290f565b600061301e82613389565b9050600061302b82612541565b9050613036836121d4565b61303f826121d4565b1015613049578092505b613052336129af565b61305b8261354a565b50604080518481526020810184905233917ff279e6a1f5e320cca91135676d9cb6e44ca8a08c0b88342bcdb1144f6511b568910160405180910390a2505050565b60006130f1826040518060400160405280602081526020017f5361666545524332303a206c6f772d6c6576656c2063616c6c206661696c6564815250856001600160a01b0316613aec9092919063ffffffff16565b805190915015610c7b578080602001905181019061310f919061425b565b610c7b5760405162461bcd60e51b815260206004820152602a60248201527f5361666545524332303a204552433230206f7065726174696f6e20646964206e6044820152691bdd081cdd58d8d9595960b21b6064820152608401610bbd565b6001600160a01b0383166131d25760405162461bcd60e51b815260206004820152602560248201527f45524332303a207472616e736665722066726f6d20746865207a65726f206164604482015264647265737360d81b6064820152608401610bbd565b6001600160a01b0382166132345760405162461bcd60e51b815260206004820152602360248201527f45524332303a207472616e7366657220746f20746865207a65726f206164647260448201526265737360e81b6064820152608401610bbd565b6001600160a01b038316600090815260208190526040902054818110156132ac5760405162461bcd60e51b815260206004820152602660248201527f45524332303a207472616e7366657220616d6f756e7420657863656564732062604482015265616c616e636560d01b6064820152608401610bbd565b6132b682826147b0565b6001600160a01b0380861660009081526020819052604080822093909355908516815290812080548492906132ec908490614645565b92505081905550826001600160a01b0316846001600160a01b03167fddf252ad1be2c89b69c2b068fc378daa952ba7f163c4a11628f55a4df523b3ef8460405161333891815260200190565b60405180910390a350505050565b600f546001600160a01b03161561211157600f5460405163d279c19160e01b81526001600160a01b0383811660048301529091169063d279c19190602401611f17565b600080670de0b6b3a764000061339d6116e2565b6133a79085614791565b6133b1919061465d565b905060006133bd6119e4565b9050808211156133e4576133d96133d482846147b0565b613afb565b6133e16119e4565b90505b8181106133f157816133f3565b805b949350505050565b6001600160a01b03821661345b5760405162461bcd60e51b815260206004820152602160248201527f45524332303a206275726e2066726f6d20746865207a65726f206164647265736044820152607360f81b6064820152608401610bbd565b6001600160a01b038216600090815260208190526040902054818110156134cf5760405162461bcd60e51b815260206004820152602260248201527f45524332303a206275726e20616d6f756e7420657863656564732062616c616e604482015261636560f01b6064820152608401610bbd565b6134d982826147b0565b6001600160a01b038416600090815260208190526040812091909155600280548492906135079084906147b0565b90915550506040518281526000906001600160a01b038516907fddf252ad1be2c89b69c2b068fc378daa952ba7f163c4a11628f55a4df523b3ef906020016127d6565b600061356333600d546001600160a01b031690846124a0565b5090565b6040805160208101859052908101839052606081018290524660808201523060a082015260009060c0016040516020818303038152906040528051906020012090509392505050565b61211133600d546001600160a01b0316903084612503565b600554610100900460ff16806135e1575060055460ff16155b6135fd5760405162461bcd60e51b8152600401610bbd906144fd565b600554610100900460ff1615801561361f576005805461ffff19166101011790555b604080518082019091526002815261031360f41b60208201526001600160a01b03831661365f5760405162461bcd60e51b8152600401610bbd91906144ca565b5061366984613c94565b61367283613cab565b61367b84613cbe565b600d80546001600160a01b0319166001600160a01b0384169081179091556040805163313ce56760e01b815290516000929163313ce567916004808301926020929190829003018186803b1580156136d257600080fd5b505afa1580156136e6573d6000803e3d6000fd5b505050506040513d601f19601f8201168201806040525081019061370a9190614445565b60ff16905061371a8160126147b0565b61372590600a6146c3565b60155550801561253b576005805461ff001916905550505050565b600554610100900460ff1680613759575060055460ff16155b6137755760405162461bcd60e51b8152600401610bbd906144fd565b600554610100900460ff16158015613797576005805461ffff19166101011790555b600a80546001600160a01b0319163390811790915560405181906000907fd4459d5b8b913cab0244230fd9b1c08b6ceace7fe9230e60d0f74cbffdf849d0908290a3508015612111576005805461ff001916905550565b601154604080518082019091526002815261189960f11b6020820152906001600160a01b0316156138325760405162461bcd60e51b8152600401610bbd91906144ca565b506000819050806001600160a01b0316630fab4d256040518163ffffffff1660e01b8152600401602060405180830381600087803b15801561387357600080fd5b505af1158015613887573d6000803e3d6000fd5b505050506040513d601f19601f820116820180604052508101906138ab919061400f565b601060006101000a8154816001600160a01b0302191690836001600160a01b03160217905550806001600160a01b0316630fab4d256040518163ffffffff1660e01b8152600401602060405180830381600087803b15801561390c57600080fd5b505af1158015613920573d6000803e3d6000fd5b505050506040513d601f19601f82011682018060405250810190613944919061400f565b601160006101000a8154816001600160a01b0302191690836001600160a01b03160217905550806001600160a01b0316630fab4d256040518163ffffffff1660e01b8152600401602060405180830381600087803b1580156139a557600080fd5b505af11580156139b9573d6000803e3d6000fd5b505050506040513d601f19601f820116820180604052508101906139dd919061400f565b601280546001600160a01b0319166001600160a01b0392831617905560115416630a3b0a4f613a093390565b6040516001600160e01b031960e084901b1681526001600160a01b039091166004820152602401602060405180830381600087803b158015613a4a57600080fd5b505af1158015613a5e573d6000803e3d6000fd5b505050506040513d601f19601f82011682018060405250810190613a82919061425b565b60405180604001604052806002815260200161313360f01b81525090613abb5760405162461bcd60e51b8152600401610bbd91906144ca565b50601254604051630a3b0a4f60e01b81523360048201526001600160a01b0390911690630a3b0a4f90602401610bf0565b60606133f38484600085613d3d565b6000808080848180613b0b610a92565b805190915060005b81811015613c88576000838281518110613b3d57634e487b7160e01b600052603260045260246000fd5b60200260200101519050613b5081611742565b995089613b5d5750613c76565b89861115613b69578995505b613b716119e4565b604051632e1a7d4d60e01b8152600481018890529098506001600160a01b03821690632e1a7d4d90602401600060405180830381600087803b158015613bb657600080fd5b505af1925050508015613bc7575060015b613bd15750613c76565b613bd96119e4565b9850613be5888a6147b0565b600e54604051632fb9ba3160e01b81526001600160a01b03848116600483015260248201849052929950911690632fb9ba3190604401600060405180830381600087803b158015613c3557600080fd5b505af1158015613c49573d6000803e3d6000fd5b505050508685613c599190614645565b94508a8510613c685750613c88565b613c72858c6147b0565b9550505b80613c808161482e565b915050613b13565b50505050505050505050565b8051613ca7906003906020840190613e9e565b5050565b8051613ca7906004906020840190613e9e565b80516020808301919091206007819055466008556040805180820190915260018152603160f81b920191909152613d37907f8b73c3c69bb8fe3d512ecc4cf759cc79239f7b179b0ffacaa9a75d522b39400f907fc89efdaa54c0f20c7adf612882df0950f5a951637e0307cdcb4c672f298b8bc6613567565b60065550565b606082471015613d9e5760405162461bcd60e51b815260206004820152602660248201527f416464726573733a20696e73756666696369656e742062616c616e636520666f6044820152651c8818d85b1b60d21b6064820152608401610bbd565b843b613dec5760405162461bcd60e51b815260206004820152601d60248201527f416464726573733a2063616c6c20746f206e6f6e2d636f6e74726163740000006044820152606401610bbd565b600080866001600160a01b03168587604051613e089190614461565b60006040518083038185875af1925050503d8060008114613e45576040519150601f19603f3d011682016040523d82523d6000602084013e613e4a565b606091505b5091509150613e5a828286613e65565b979650505050505050565b60608315613e74575081610ed7565b825115613e845782518084602001fd5b8160405162461bcd60e51b8152600401610bbd91906144ca565b828054613eaa906147f3565b90600052602060002090601f016020900481019282613ecc5760008555613f12565b82601f10613ee557805160ff1916838001178555613f12565b82800160010185558215613f12579182015b82811115613f12578251825591602001919060010190613ef7565b506135639291505b808211156135635760008155600101613f1a565b60008083601f840112613f3f578182fd5b50813567ffffffffffffffff811115613f56578182fd5b6020830191508360208260051b8501011115613f7157600080fd5b9250929050565b8051801515811461155a57600080fd5b600082601f830112613f98578081fd5b813567ffffffffffffffff811115613fb257613fb261485f565b613fc5601f8201601f1916602001614614565b818152846020838601011115613fd9578283fd5b816020850160208301379081016020019190915292915050565b600060208284031215614004578081fd5b8135610ed781614875565b600060208284031215614020578081fd5b8151610ed781614875565b6000806040838503121561403d578081fd5b823561404881614875565b9150602083013561405881614875565b809150509250929050565b600080600060608486031215614077578081fd5b833561408281614875565b9250602084013561409281614875565b929592945050506040919091013590565b600080600080600080600060e0888a0312156140bd578283fd5b87356140c881614875565b965060208801356140d881614875565b9550604088013594506060880135935060808801356140f68161488a565b9699959850939692959460a0840135945060c09093013592915050565b60008060408385031215614125578182fd5b823561413081614875565b946020939093013593505050565b60008060008060408587031215614153578384fd5b843567ffffffffffffffff8082111561416a578586fd5b61417688838901613f2e565b9096509450602087013591508082111561418e578384fd5b5061419b87828801613f2e565b95989497509550505050565b600060208083850312156141b9578182fd5b825167ffffffffffffffff808211156141d0578384fd5b818501915085601f8301126141e3578384fd5b8151818111156141f5576141f561485f565b8060051b9150614206848301614614565b8181528481019084860184860187018a1015614220578788fd5b8795505b8386101561424e578051945061423985614875565b84835260019590950194918601918601614224565b5098975050505050505050565b60006020828403121561426c578081fd5b610ed782613f78565b600080600080600080600080610100898b031215614291578182fd5b61429a89613f78565b97506020890151965060408901519550606089015194506080890151935060a0890151925060c0890151915060e089015190509295985092959890939650565b600080600080600060a086880312156142f1578283fd5b853567ffffffffffffffff80821115614308578485fd5b61431489838a01613f88565b96506020880135915080821115614329578485fd5b5061433688828901613f88565b945050604086013561434781614875565b9250606086013561435781614875565b9150608086013561436781614875565b809150509295509295909350565b600060208284031215614386578081fd5b5035919050565b60006020828403121561439e578081fd5b5051919050565b6000806000606084860312156143b9578081fd5b505081359360208301359350604090920135919050565b6000806000606084860312156143e4578081fd5b8351925060208401519150604084015190509250925092565b600080600080600060a08688031215614414578283fd5b8535945060208601359350604086013561442d8161488a565b94979396509394606081013594506080013592915050565b600060208284031215614456578081fd5b8151610ed78161488a565b600082516144738184602087016147c7565b9190910192915050565b6020808252825182820181905260009190848201906040850190845b818110156144be5783516001600160a01b031683529284019291840191600101614499565b50909695505050505050565b60006020825282518060208401526144e98160408501602087016147c7565b601f01601f19169190910160400192915050565b6020808252602e908201527f496e697469616c697a61626c653a20636f6e747261637420697320616c72656160408201526d191e481a5b9a5d1a585b1a5e995960921b606082015260800190565b6020808252600c908201526b3737ba16b096b5b2b2b832b960a11b604082015260600190565b60208082526008908201526739b43aba3237bbb760c11b604082015260600190565b6020808252601f908201527f5265656e7472616e637947756172643a207265656e7472616e742063616c6c00604082015260600190565b6020808252600690820152651c185d5cd95960d21b604082015260600190565b60208082526010908201526f3737ba16ba343296b3b7bb32b93737b960811b604082015260600190565b604051601f8201601f1916810167ffffffffffffffff8111828210171561463d5761463d61485f565b604052919050565b6000821982111561465857614658614849565b500190565b60008261467857634e487b7160e01b81526012600452602481fd5b500490565b80825b600180861161468f57506146ba565b8187048211156146a1576146a1614849565b808616156146ae57918102915b9490941c938002614680565b94509492505050565b6000610ed760001984846000826146dc57506001610ed7565b816146e957506000610ed7565b81600181146146ff576002811461470957614736565b6001915050610ed7565b60ff84111561471a5761471a614849565b6001841b91508482111561473057614730614849565b50610ed7565b5060208310610133831016604e8410600b8410161715614769575081810a8381111561476457614764614849565b610ed7565b614776848484600161467d565b80860482111561478857614788614849565b02949350505050565b60008160001904831182151516156147ab576147ab614849565b500290565b6000828210156147c2576147c2614849565b500390565b60005b838110156147e25781810151838201526020016147ca565b8381111561253b5750506000910152565b600181811c9082168061480757607f821691505b6020821081141561482857634e487b7160e01b600052602260045260246000fd5b50919050565b600060001982141561484257614842614849565b5060010190565b634e487b7160e01b600052601160045260246000fd5b634e487b7160e01b600052604160045260246000fd5b6001600160a01b038116811461211157600080fd5b60ff8116811461211157600080fdfea26469706673582212205ed483d07383fc0cb437e0bbc29ca432485dac40eacaab966a6cb15cd30cf38764736f6c63430008030033",
  "devdoc": {
    "kind": "dev",
    "methods": {
      "DOMAIN_SEPARATOR()": {
        "details": "See {IERC20Permit-DOMAIN_SEPARATOR}."
      },
      "acceptGovernorship()": {
        "details": "Allows new governor to accept governorship of the contract."
      },
      "addInList(address,address)": {
        "details": "Use it to add keeper in keepers list and to add address in feeWhitelist",
        "params": {
          "_addressToAdd": "address which we want to add in AddressList.",
          "_listToUpdate": "address of AddressList contract."
        }
      },
      "allowance(address,address)": {
        "details": "See {IERC20-allowance}."
      },
      "approve(address,uint256)": {
        "details": "See {IERC20-approve}. Requirements: - `spender` cannot be the zero address."
      },
      "availableCreditLimit(address)": {
        "details": "Available credit limit is calculated based on current debt of pool and strategy, current debt limit of pool and strategy. credit available = min(pool's debt limit, strategy's debt limit, max debt per rebalance) when some strategy do not pay back outstanding debt, this impact credit line of other strategy if totalDebt of pool >= debtLimit of pool",
        "params": {
          "_strategy": "Strategy address"
        }
      },
      "balanceOf(address)": {
        "details": "Returns the amount of tokens owned by `account`."
      },
      "convertFrom18(uint256)": {
        "details": "Convert from 18 decimals to token defined decimals."
      },
      "decimals()": {
        "details": "Returns the decimals of the token. default to 18"
      },
      "decreaseAllowance(address,uint256)": {
        "details": "Atomically decreases the allowance granted to `spender` by the caller. This is an alternative to {approve} that can be used as a mitigation for problems described in {IERC20-approve}. Emits an {Approval} event indicating the updated allowance. Requirements: - `spender` cannot be the zero address. - `spender` must have allowance for the caller of at least `subtractedValue`."
      },
      "deposit(uint256)": {
        "params": {
          "_amount": "ERC20 token amount."
        }
      },
      "depositWithPermit(uint256,uint256,uint8,bytes32,bytes32)": {
        "params": {
          "_amount": "ERC20 token amount.",
          "_deadline": "The time at which signature will expire",
          "_r": "Half of the ECDSA signature pair",
          "_s": "Half of the ECDSA signature pair",
          "_v": "The recovery byte of the signature"
        }
      },
      "excessDebt(address)": {
        "params": {
          "_strategy": "Address of strategy"
        }
      },
      "increaseAllowance(address,uint256)": {
        "details": "Atomically increases the allowance granted to `spender` by the caller. This is an alternative to {approve} that can be used as a mitigation for problems described in {IERC20-approve}. Emits an {Approval} event indicating the updated allowance. Requirements: - `spender` cannot be the zero address."
      },
      "migrateStrategy(address,address)": {
        "details": "Migrating strategy aka old and new strategy should be of same type.",
        "params": {
          "_new": "Address of new strategy",
          "_old": "Address of strategy being migrated"
        }
      },
      "multiTransfer(address[],uint256[])": {
        "details": "Address array and amount array are 1:1 and are in order.",
        "params": {
          "_amounts": "array of token amounts",
          "_recipients": "array of recipient addresses"
        },
        "returns": {
          "_0": "true/false"
        }
      },
      "name()": {
        "details": "Returns the name of the token."
      },
      "permit(address,address,uint256,uint256,uint8,bytes32,bytes32)": {
        "details": "See {IERC20Permit-permit}."
      },
      "pricePerShare()": {
        "details": "Return value will be in token defined decimals."
      },
      "removeFromList(address,address)": {
        "details": "Use it to remove keeper from keepers list and to remove address from feeWhitelist",
        "params": {
          "_addressToRemove": "address which we want to remove from AddressList.",
          "_listToUpdate": "address of AddressList contract."
        }
      },
      "reportEarning(uint256,uint256,uint256)": {
        "details": "Strategy call this in regular interval.",
        "params": {
          "_loss": "Reduce debt ,also reduce debtRatio, increase loss in record.",
          "_payback": "strategy willing to payback outstanding above debtLimit. no performance fee on this amount.  when governance has reduced debtRatio of strategy, strategy will report profit and payback amount separately.",
          "_profit": "yield generated by strategy. Strategy get performance fee on this amount"
        }
      },
      "reportLoss(uint256)": {
        "details": "Some strategies pay deposit fee thus realizing loss at deposit. For example: Curve's 3pool has some slippage due to deposit of one asset in 3pool. Strategy may want report this loss instead of waiting for next rebalance.",
        "params": {
          "_loss": "Loss that strategy want to report"
        }
      },
      "sweepERC20(address)": {
        "details": "Transfer given ERC20 token to feeCollector",
        "params": {
          "_fromToken": "Token address to sweep"
        }
      },
      "symbol()": {
        "details": "Returns the symbol of the token, usually a shorter version of the name."
      },
      "tokensHere()": {
        "details": "Returns the token stored in the pool. It will be in token defined decimals."
      },
      "totalDebtOf(address)": {
        "params": {
          "_strategy": "Strategy address"
        }
      },
      "totalSupply()": {
        "details": "Returns total supply of the token."
      },
      "totalValue()": {
        "details": "Returns total value of vesper pool, in terms of collateral token"
      },
      "transfer(address,uint256)": {
        "details": "See {IERC20-transfer}. Requirements: - `recipient` cannot be the zero address. - the caller must have a balance of at least `amount`."
      },
      "transferFrom(address,address,uint256)": {
        "details": "See {IERC20-transferFrom}. Emits an {Approval} event indicating the updated allowance. This is not required by the EIP. See the note at the beginning of {ERC20}. Requirements: - `sender` and `recipient` cannot be the zero address. - `sender` must have a balance of at least `amount`. - the caller must have allowance for ``sender``'s tokens of at least `amount`."
      },
      "transferGovernorship(address)": {
        "details": "Transfers governorship of the contract to a new account (`proposedGovernor`). Can only be called by the current owner."
      },
      "updateFeeCollector(address)": {
        "params": {
          "_newFeeCollector": "new fee collector address"
        }
      },
      "updatePoolRewards(address)": {
        "params": {
          "_newPoolRewards": "new pool rewards address"
        }
      },
      "updateWithdrawFee(uint256)": {
        "details": "Format: 1500 = 15% fee, 100 = 1%",
        "params": {
          "_newWithdrawFee": "new withdraw fee"
        }
      },
      "whitelistedWithdraw(uint256)": {
        "details": "Burn shares and return collateral. No withdraw fee will be assessed when this function is called. Only some white listed address can call this function.",
        "params": {
          "_shares": "Pool shares. It will be in 18 decimals."
        }
      },
      "withdraw(uint256)": {
        "params": {
          "_shares": "Pool shares. It will be in 18 decimals."
        }
      }
    },
    "version": 1
  },
  "userdoc": {
    "kind": "user",
    "methods": {
      "addInList(address,address)": {
        "notice": "Add given address in provided address list."
      },
      "availableCreditLimit(address)": {
        "notice": "Get available credit limit of strategy. This is the amount strategy can borrow from pool"
      },
      "deposit(uint256)": {
        "notice": "Deposit ERC20 tokens and receive pool shares depending on the current share price."
      },
      "depositWithPermit(uint256,uint256,uint8,bytes32,bytes32)": {
        "notice": "Deposit ERC20 tokens with permit aka gasless approval."
      },
      "excessDebt(address)": {
        "notice": "Debt above current debt limit"
      },
      "migrateStrategy(address,address)": {
        "notice": "Migrate existing strategy to new strategy."
      },
      "multiTransfer(address[],uint256[])": {
        "notice": "Transfer tokens to multiple recipient"
      },
      "pricePerShare()": {
        "notice": "Get price per share"
      },
      "removeFromList(address,address)": {
        "notice": "Remove given address from provided address list."
      },
      "reportLoss(uint256)": {
        "notice": "Report loss outside of rebalance activity."
      },
      "totalDebt()": {
        "notice": "Get total debt of pool"
      },
      "totalDebtOf(address)": {
        "notice": "Get total debt of given strategy"
      },
      "totalDebtRatio()": {
        "notice": "Get total debt ratio. Total debt ratio helps us keep buffer in pool"
      },
      "updateFeeCollector(address)": {
        "notice": "Update fee collector address for this pool"
      },
      "updatePoolRewards(address)": {
        "notice": "Update pool rewards address for this pool"
      },
      "updateWithdrawFee(uint256)": {
        "notice": "Update withdraw fee for this pool"
      },
      "whitelistedWithdraw(uint256)": {
        "notice": "Withdraw collateral based on given shares and the current share price."
      },
      "withdraw(uint256)": {
        "notice": "Withdraw collateral based on given shares and the current share price. Withdraw fee, if any, will be deduced from given shares and transferred to feeCollector. Burn remaining shares and return collateral."
      }
    },
    "version": 1
  },
  "storageLayout": {
    "storage": [
      {
        "astId": 8262,
        "contract": "contracts/pool/VPool.sol:VPool",
        "label": "_balances",
        "offset": 0,
        "slot": "0",
        "type": "t_mapping(t_address,t_uint256)"
      },
      {
        "astId": 8268,
        "contract": "contracts/pool/VPool.sol:VPool",
        "label": "_allowances",
        "offset": 0,
        "slot": "1",
        "type": "t_mapping(t_address,t_mapping(t_address,t_uint256))"
      },
      {
        "astId": 8270,
        "contract": "contracts/pool/VPool.sol:VPool",
        "label": "_totalSupply",
        "offset": 0,
        "slot": "2",
        "type": "t_uint256"
      },
      {
        "astId": 8272,
        "contract": "contracts/pool/VPool.sol:VPool",
        "label": "_name",
        "offset": 0,
        "slot": "3",
        "type": "t_string_storage"
      },
      {
        "astId": 8274,
        "contract": "contracts/pool/VPool.sol:VPool",
        "label": "_symbol",
        "offset": 0,
        "slot": "4",
        "type": "t_string_storage"
      },
      {
        "astId": 887,
        "contract": "contracts/pool/VPool.sol:VPool",
        "label": "_initialized",
        "offset": 0,
        "slot": "5",
        "type": "t_bool"
      },
      {
        "astId": 890,
        "contract": "contracts/pool/VPool.sol:VPool",
        "label": "_initializing",
        "offset": 1,
        "slot": "5",
        "type": "t_bool"
      },
      {
        "astId": 8803,
        "contract": "contracts/pool/VPool.sol:VPool",
        "label": "_CACHED_DOMAIN_SEPARATOR",
        "offset": 0,
        "slot": "6",
        "type": "t_bytes32"
      },
      {
        "astId": 8805,
        "contract": "contracts/pool/VPool.sol:VPool",
        "label": "_HASHED_NAME",
        "offset": 0,
        "slot": "7",
        "type": "t_bytes32"
      },
      {
        "astId": 8807,
        "contract": "contracts/pool/VPool.sol:VPool",
        "label": "_CACHED_CHAIN_ID",
        "offset": 0,
        "slot": "8",
        "type": "t_uint256"
      },
      {
        "astId": 8813,
        "contract": "contracts/pool/VPool.sol:VPool",
        "label": "nonces",
        "offset": 0,
        "slot": "9",
        "type": "t_mapping(t_address,t_uint256)"
      },
      {
        "astId": 3732,
        "contract": "contracts/pool/VPool.sol:VPool",
        "label": "governor",
        "offset": 0,
        "slot": "10",
        "type": "t_address"
      },
      {
        "astId": 3734,
        "contract": "contracts/pool/VPool.sol:VPool",
        "label": "proposedGovernor",
        "offset": 0,
        "slot": "11",
        "type": "t_address"
      },
      {
        "astId": 3876,
        "contract": "contracts/pool/VPool.sol:VPool",
        "label": "paused",
        "offset": 20,
        "slot": "11",
        "type": "t_bool"
      },
      {
        "astId": 3878,
        "contract": "contracts/pool/VPool.sol:VPool",
        "label": "stopEverything",
        "offset": 21,
        "slot": "11",
        "type": "t_bool"
      },
      {
        "astId": 938,
        "contract": "contracts/pool/VPool.sol:VPool",
        "label": "_status",
        "offset": 0,
        "slot": "12",
        "type": "t_uint256"
      },
      {
        "astId": 10754,
        "contract": "contracts/pool/VPool.sol:VPool",
        "label": "token",
        "offset": 0,
        "slot": "13",
        "type": "t_contract(IERC20)1552"
      },
      {
        "astId": 10756,
        "contract": "contracts/pool/VPool.sol:VPool",
        "label": "poolAccountant",
        "offset": 0,
        "slot": "14",
        "type": "t_address"
      },
      {
        "astId": 10758,
        "contract": "contracts/pool/VPool.sol:VPool",
        "label": "poolRewards",
        "offset": 0,
        "slot": "15",
        "type": "t_address"
      },
      {
        "astId": 10760,
        "contract": "contracts/pool/VPool.sol:VPool",
        "label": "feeWhitelist",
        "offset": 0,
        "slot": "16",
        "type": "t_address"
      },
      {
        "astId": 10762,
        "contract": "contracts/pool/VPool.sol:VPool",
        "label": "keepers",
        "offset": 0,
        "slot": "17",
        "type": "t_address"
      },
      {
        "astId": 10764,
        "contract": "contracts/pool/VPool.sol:VPool",
        "label": "maintainers",
        "offset": 0,
        "slot": "18",
        "type": "t_address"
      },
      {
        "astId": 10766,
        "contract": "contracts/pool/VPool.sol:VPool",
        "label": "feeCollector",
        "offset": 0,
        "slot": "19",
        "type": "t_address"
      },
      {
        "astId": 10768,
        "contract": "contracts/pool/VPool.sol:VPool",
        "label": "withdrawFee",
        "offset": 0,
        "slot": "20",
        "type": "t_uint256"
      },
      {
        "astId": 10770,
        "contract": "contracts/pool/VPool.sol:VPool",
        "label": "decimalConversionFactor",
        "offset": 0,
        "slot": "21",
        "type": "t_uint256"
      },
      {
        "astId": 10772,
        "contract": "contracts/pool/VPool.sol:VPool",
        "label": "withdrawInETH",
        "offset": 0,
        "slot": "22",
        "type": "t_bool"
      }
    ],
    "types": {
      "t_address": {
        "encoding": "inplace",
        "label": "address",
        "numberOfBytes": "20"
      },
      "t_bool": {
        "encoding": "inplace",
        "label": "bool",
        "numberOfBytes": "1"
      },
      "t_bytes32": {
        "encoding": "inplace",
        "label": "bytes32",
        "numberOfBytes": "32"
      },
      "t_contract(IERC20)1552": {
        "encoding": "inplace",
        "label": "contract IERC20",
        "numberOfBytes": "20"
      },
      "t_mapping(t_address,t_mapping(t_address,t_uint256))": {
        "encoding": "mapping",
        "key": "t_address",
        "label": "mapping(address => mapping(address => uint256))",
        "numberOfBytes": "32",
        "value": "t_mapping(t_address,t_uint256)"
      },
      "t_mapping(t_address,t_uint256)": {
        "encoding": "mapping",
        "key": "t_address",
        "label": "mapping(address => uint256)",
        "numberOfBytes": "32",
        "value": "t_uint256"
      },
      "t_string_storage": {
        "encoding": "bytes",
        "label": "string",
        "numberOfBytes": "32"
      },
      "t_uint256": {
        "encoding": "inplace",
        "label": "uint256",
        "numberOfBytes": "32"
      }
    }
  }
}