{
  "address": "0x5cC192ba3F27A4A7741C858bE6c7f2847dfB812a",
  "abi": [
    {
      "inputs": [
        {
          "internalType": "address",
          "name": "_pool",
          "type": "address"
        },
        {
          "internalType": "address",
          "name": "_swapManager",
          "type": "address"
        }
      ],
      "stateMutability": "nonpayable",
      "type": "constructor"
    },
    {
      "anonymous": false,
      "inputs": [
        {
          "indexed": true,
          "internalType": "address",
          "name": "previousFeeCollector",
          "type": "address"
        },
        {
          "indexed": true,
          "internalType": "address",
          "name": "newFeeCollector",
          "type": "address"
        }
      ],
      "name": "UpdatedFeeCollector",
      "type": "event"
    },
    {
      "anonymous": false,
      "inputs": [
        {
          "indexed": false,
          "internalType": "uint256",
          "name": "oldPeriod",
          "type": "uint256"
        },
        {
          "indexed": false,
          "internalType": "uint256",
          "name": "newPeriod",
          "type": "uint256"
        },
        {
          "indexed": false,
          "internalType": "uint256",
          "name": "oldRouterIdx",
          "type": "uint256"
        },
        {
          "indexed": false,
          "internalType": "uint256",
          "name": "newRouterIdx",
          "type": "uint256"
        }
      ],
      "name": "UpdatedOracleConfig",
      "type": "event"
    },
    {
      "anonymous": false,
      "inputs": [
        {
          "indexed": true,
          "internalType": "address",
          "name": "previousSwapManager",
          "type": "address"
        },
        {
          "indexed": true,
          "internalType": "address",
          "name": "newSwapManager",
          "type": "address"
        }
      ],
      "name": "UpdatedSwapManager",
      "type": "event"
    },
    {
      "anonymous": false,
      "inputs": [
        {
          "indexed": false,
          "internalType": "uint256",
          "name": "oldSwapSlippage",
          "type": "uint256"
        },
        {
          "indexed": false,
          "internalType": "uint256",
          "name": "newSwapSlippage",
          "type": "uint256"
        }
      ],
      "name": "UpdatedSwapSlippage",
      "type": "event"
    },
    {
      "inputs": [],
      "name": "AAVE",
      "outputs": [
        {
          "internalType": "address",
          "name": "",
          "type": "address"
        }
      ],
      "stateMutability": "view",
      "type": "function"
    },
    {
      "inputs": [],
      "name": "NAME",
      "outputs": [
        {
          "internalType": "string",
          "name": "",
          "type": "string"
        }
      ],
      "stateMutability": "view",
      "type": "function"
    },
    {
      "inputs": [],
      "name": "VERSION",
      "outputs": [
        {
          "internalType": "string",
          "name": "",
          "type": "string"
        }
      ],
      "stateMutability": "view",
      "type": "function"
    },
    {
      "inputs": [],
      "name": "aaveAddressesProvider",
      "outputs": [
        {
          "internalType": "contract AaveLendingPoolAddressesProvider",
          "name": "",
          "type": "address"
        }
      ],
      "stateMutability": "view",
      "type": "function"
    },
    {
      "inputs": [],
      "name": "aaveIncentivesController",
      "outputs": [
        {
          "internalType": "contract AaveIncentivesController",
          "name": "",
          "type": "address"
        }
      ],
      "stateMutability": "view",
      "type": "function"
    },
    {
      "inputs": [],
      "name": "aaveLendingPool",
      "outputs": [
        {
          "internalType": "contract AaveLendingPool",
          "name": "",
          "type": "address"
        }
      ],
      "stateMutability": "view",
      "type": "function"
    },
    {
      "inputs": [],
      "name": "aaveProtocolDataProvider",
      "outputs": [
        {
          "internalType": "contract AaveProtocolDataProvider",
          "name": "",
          "type": "address"
        }
      ],
      "stateMutability": "view",
      "type": "function"
    },
    {
      "inputs": [
        {
          "internalType": "address",
          "name": "_keeperAddress",
          "type": "address"
        }
      ],
      "name": "addKeeper",
      "outputs": [],
      "stateMutability": "nonpayable",
      "type": "function"
    },
    {
      "inputs": [],
      "name": "approveToken",
      "outputs": [],
      "stateMutability": "nonpayable",
      "type": "function"
    },
    {
      "inputs": [],
      "name": "canStartCooldown",
      "outputs": [
        {
          "internalType": "bool",
          "name": "",
          "type": "bool"
        }
      ],
      "stateMutability": "view",
      "type": "function"
    },
    {
      "inputs": [],
      "name": "canUnstake",
      "outputs": [
        {
          "internalType": "bool",
          "name": "",
          "type": "bool"
        }
      ],
      "stateMutability": "view",
      "type": "function"
    },
    {
      "inputs": [],
      "name": "collateralToken",
      "outputs": [
        {
          "internalType": "contract IERC20",
          "name": "",
          "type": "address"
        }
      ],
      "stateMutability": "view",
      "type": "function"
    },
    {
      "inputs": [
        {
          "internalType": "uint256",
          "name": "amount",
          "type": "uint256"
        }
      ],
      "name": "convertFrom18",
      "outputs": [
        {
          "internalType": "uint256",
          "name": "",
          "type": "uint256"
        }
      ],
      "stateMutability": "pure",
      "type": "function"
    },
    {
      "inputs": [],
      "name": "cooldownData",
      "outputs": [
        {
          "internalType": "uint256",
          "name": "_cooldownStart",
          "type": "uint256"
        },
        {
          "internalType": "uint256",
          "name": "_cooldownEnd",
          "type": "uint256"
        },
        {
          "internalType": "uint256",
          "name": "_unstakeEnd",
          "type": "uint256"
        }
      ],
      "stateMutability": "view",
      "type": "function"
    },
    {
      "inputs": [],
      "name": "feeCollector",
      "outputs": [
        {
          "internalType": "address",
          "name": "",
          "type": "address"
        }
      ],
      "stateMutability": "view",
      "type": "function"
    },
    {
      "inputs": [
        {
          "internalType": "address",
          "name": "_addressListFactory",
          "type": "address"
        }
      ],
      "name": "init",
      "outputs": [],
      "stateMutability": "nonpayable",
      "type": "function"
    },
    {
      "inputs": [
        {
          "internalType": "address",
          "name": "_token",
          "type": "address"
        }
      ],
      "name": "isReservedToken",
      "outputs": [
        {
          "internalType": "bool",
          "name": "",
          "type": "bool"
        }
      ],
      "stateMutability": "view",
      "type": "function"
    },
    {
      "inputs": [],
      "name": "keepers",
      "outputs": [
        {
          "internalType": "contract IAddressList",
          "name": "",
          "type": "address"
        }
      ],
      "stateMutability": "view",
      "type": "function"
    },
    {
      "inputs": [
        {
          "internalType": "address",
          "name": "_newStrategy",
          "type": "address"
        }
      ],
      "name": "migrate",
      "outputs": [],
      "stateMutability": "nonpayable",
      "type": "function"
    },
    {
      "inputs": [],
      "name": "oraclePeriod",
      "outputs": [
        {
          "internalType": "uint256",
          "name": "",
          "type": "uint256"
        }
      ],
      "stateMutability": "view",
      "type": "function"
    },
    {
      "inputs": [],
      "name": "oracleRouterIdx",
      "outputs": [
        {
          "internalType": "uint256",
          "name": "",
          "type": "uint256"
        }
      ],
      "stateMutability": "view",
      "type": "function"
    },
    {
      "inputs": [],
      "name": "pool",
      "outputs": [
        {
          "internalType": "address",
          "name": "",
          "type": "address"
        }
      ],
      "stateMutability": "view",
      "type": "function"
    },
    {
      "inputs": [],
      "name": "rebalance",
      "outputs": [],
      "stateMutability": "nonpayable",
      "type": "function"
    },
    {
      "inputs": [],
      "name": "receiptToken",
      "outputs": [
        {
          "internalType": "address",
          "name": "",
          "type": "address"
        }
      ],
      "stateMutability": "view",
      "type": "function"
    },
    {
      "inputs": [
        {
          "internalType": "address",
          "name": "_keeperAddress",
          "type": "address"
        }
      ],
      "name": "removeKeeper",
      "outputs": [],
      "stateMutability": "nonpayable",
      "type": "function"
    },
    {
      "inputs": [],
      "name": "setupOracles",
      "outputs": [],
      "stateMutability": "nonpayable",
      "type": "function"
    },
    {
      "inputs": [],
      "name": "startCooldown",
      "outputs": [
        {
          "internalType": "bool",
          "name": "",
          "type": "bool"
        }
      ],
      "stateMutability": "nonpayable",
      "type": "function"
    },
    {
      "inputs": [],
      "name": "stkAAVE",
      "outputs": [
        {
          "internalType": "contract StakedAave",
          "name": "",
          "type": "address"
        }
      ],
      "stateMutability": "view",
      "type": "function"
    },
    {
      "inputs": [],
      "name": "swapManager",
      "outputs": [
        {
          "internalType": "contract ISwapManager",
          "name": "",
          "type": "address"
        }
      ],
      "stateMutability": "view",
      "type": "function"
    },
    {
      "inputs": [],
      "name": "swapSlippage",
      "outputs": [
        {
          "internalType": "uint256",
          "name": "",
          "type": "uint256"
        }
      ],
      "stateMutability": "view",
      "type": "function"
    },
    {
      "inputs": [
        {
          "internalType": "address",
          "name": "_fromToken",
          "type": "address"
        }
      ],
      "name": "sweepERC20",
      "outputs": [],
      "stateMutability": "nonpayable",
      "type": "function"
    },
    {
      "inputs": [],
      "name": "token",
      "outputs": [
        {
          "internalType": "address",
          "name": "",
          "type": "address"
        }
      ],
      "stateMutability": "view",
      "type": "function"
    },
    {
      "inputs": [],
      "name": "totalValue",
      "outputs": [
        {
          "internalType": "uint256",
          "name": "",
          "type": "uint256"
        }
      ],
      "stateMutability": "view",
      "type": "function"
    },
    {
      "inputs": [],
      "name": "totalValueCurrent",
      "outputs": [
        {
          "internalType": "uint256",
          "name": "",
          "type": "uint256"
        }
      ],
      "stateMutability": "nonpayable",
      "type": "function"
    },
    {
      "inputs": [],
      "name": "unstakeAave",
      "outputs": [],
      "stateMutability": "nonpayable",
      "type": "function"
    },
    {
      "inputs": [
        {
          "internalType": "address",
          "name": "_feeCollector",
          "type": "address"
        }
      ],
      "name": "updateFeeCollector",
      "outputs": [],
      "stateMutability": "nonpayable",
      "type": "function"
    },
    {
      "inputs": [
        {
          "internalType": "uint256",
          "name": "_newPeriod",
          "type": "uint256"
        },
        {
          "internalType": "uint256",
          "name": "_newRouterIdx",
          "type": "uint256"
        }
      ],
      "name": "updateOracleConfig",
      "outputs": [],
      "stateMutability": "nonpayable",
      "type": "function"
    },
    {
      "inputs": [
        {
          "internalType": "address",
          "name": "_swapManager",
          "type": "address"
        }
      ],
      "name": "updateSwapManager",
      "outputs": [],
      "stateMutability": "nonpayable",
      "type": "function"
    },
    {
      "inputs": [
        {
          "internalType": "uint256",
          "name": "_newSwapSlippage",
          "type": "uint256"
        }
      ],
      "name": "updateSwapSlippage",
      "outputs": [],
      "stateMutability": "nonpayable",
      "type": "function"
    },
    {
      "inputs": [
        {
          "internalType": "uint256",
          "name": "_amount",
          "type": "uint256"
        }
      ],
      "name": "withdraw",
      "outputs": [],
      "stateMutability": "nonpayable",
      "type": "function"
    }
  ],
  "transactionHash": "0xac1bd3879c03d131152f1eeb6cef73c90b05332dd23eb9ce11dd5d99572a0ec8",
  "args": [
    "0x3553e7420B1D68A010ad447b782fae6388f5F37F",
    "0xe382d9f2394A359B01006faa8A1864b8a60d2710"
  ],
  "solcInputHash": "dbc9bb7041e73d47cb7787cb4e25a294",
  "bytecode": "0x610140604052610e106004556000600555612710600655600780546001600160a01b03191673b53c1a33016b2dc2ff3653530bff1848a515c8c51790553480156200004957600080fd5b5060405162004ce238038062004ce28339810160408190526200006c91620004d8565b818173bcca60bb61934080951369a648fb03df4f96263c808383826001600160a01b038316620000e35760405162461bcd60e51b815260206004820152601460248201527f706f6f6c2d616464726573732d69732d7a65726f00000000000000000000000060448201526064015b60405180910390fd5b6001600160a01b038216620001305760405162461bcd60e51b8152602060048201526012602482015271736d2d616464726573732d69732d7a65726f60701b6044820152606401620000da565b600380546001600160a01b0319166001600160a01b0384811691909117909155606084901b6001600160601b03191660a05260408051637e062a3560e11b815290519185169163fc0c546a91600480820192602092909190829003018186803b1580156200019d57600080fd5b505afa158015620001b2573d6000803e3d6000fd5b505050506040513d601f19601f82011682018060405250810190620001d89190620004b2565b60601b6001600160601b031916608052600080546001600160a01b0319166001600160a01b039283161790558316151591506200025a90505760405162461bcd60e51b815260206004820152601660248201527f61546f6b656e2d616464726573732d69732d7a65726f000000000000000000006044820152606401620000da565b806001600160a01b0316610120816001600160a01b031660601b81525050806001600160a01b03166375d264136040518163ffffffff1660e01b815260040160206040518083038186803b158015620002b257600080fd5b505afa925050508015620002e5575060408051601f3d908101601f19168201909252620002e291810190620004b2565b60015b620002f05762000378565b50806001600160a01b03166375d264136040518163ffffffff1660e01b815260040160206040518083038186803b1580156200032b57600080fd5b505afa15801562000340573d6000803e3d6000fd5b505050506040513d601f19601f82011682018060405250810190620003669190620004b2565b60601b6001600160601b031916610100525b600760009054906101000a90046001600160a01b03166001600160a01b0316630261bf8b6040518163ffffffff1660e01b815260040160206040518083038186803b158015620003c757600080fd5b505afa158015620003dc573d6000803e3d6000fd5b505050506040513d601f19601f82011682018060405250810190620004029190620004b2565b60601b6001600160601b03191660c0526007546040516321f8a72160e01b8152600160f81b60048201526001600160a01b03909116906321f8a7219060240160206040518083038186803b1580156200045a57600080fd5b505afa1580156200046f573d6000803e3d6000fd5b505050506040513d601f19601f82011682018060405250810190620004959190620004b2565b60601b6001600160601b03191660e052506200052f945050505050565b600060208284031215620004c4578081fd5b8151620004d18162000516565b9392505050565b60008060408385031215620004eb578081fd5b8251620004f88162000516565b60208401519092506200050b8162000516565b809150509250929050565b6001600160a01b03811681146200052c57600080fd5b50565b60805160601c60a05160601c60c05160601c60e05160601c6101005160601c6101205160601c61461d620006c560003960008181611bf001528181611d560152818161215b01528181612a1101528181612d6a01528181612efb0152818161307101526135fb0152600081816103a8015281816129b901528181612b790152818161357d01526136600152600081816103cf0152612e0901526000818161053401528181612580015281816131710152613415015260008181610297015281816105b9015281816107f701528181610c1201528181610c8e01528181610e2101528181610ff7015281816112dc01528181611401015281816116e4015281816117ad01528181611a02015281816121320152818161231a015281816123b7015261252c0152600081816104a801528181611955015281816119d901528181611cae01528181611eda01528181612111015281816124740152818161250a0152818161255e015281816127a50152818161282401528181612ebf01528181612f8c01528181612fcd0152613112015261461d6000f3fe608060405234801561001057600080fd5b50600436106102485760003560e01c80637d7c2a1c1161013b578063d2c35ce8116100b8578063ec78e8321161007c578063ec78e83214610556578063f51896f814610569578063fb589de214610571578063fc0c546a14610582578063ffa1ad741461059357610248565b8063d2c35ce8146104f9578063d4c3eea01461050c578063e00af4a714610514578063e645c20214610527578063e9d337b81461052f57610248565b8063aa101886116100ff578063aa1018861461049b578063b2016bd4146104a3578063c415b95c146104ca578063cd2d7ebe146104dd578063ce5494bb146104e657610248565b80637d7c2a1c14610427578063951dc22c1461042f57806399b71d5c14610442578063a3f4df7e1461044a578063a923b2a61461048857610248565b806342189c8f116101c95780635f9d4d2e1161018d5780635f9d4d2e146103ca57806360a05a85146103f157806367f5e4b8146103f9578063680ff4581461040c578063709d039d1461041457610248565b806342189c8f14610349578063440d72481461035257806348ccda3c146103755780634c36fad7146103905780635f2475ca146103a357610248565b80631aedeabe116102105780631aedeabe146102d45780631fc29c01146102eb57806321fc6bb0146103005780632e1a7d4d146103235780634032b72b1461033657610248565b806308bfa40a1461024d57806314ae9f2e1461027d57806316f0115b14610292578063189adf76146102b957806319ab453c146102c1575b600080fd5b600754610260906001600160a01b031681565b6040516001600160a01b0390911681526020015b60405180910390f35b61029061028b366004614045565b6105b7565b005b6102607f000000000000000000000000000000000000000000000000000000000000000081565b610290610746565b6102906102cf366004614045565b6107f5565b6102dd60065481565b604051908152602001610274565b6102606000805160206145c883398151915281565b610308610a6f565b60408051938452602084019290925290820152606001610274565b6102906103313660046141de565b610c0f565b610290610344366004614045565b610c8c565b6102dd60045481565b610365610360366004614045565b610e0c565b6040519015158152602001610274565b610260737fc66500c84a76ad7e9c93437bfc5ac33e2ddae981565b61029061039e366004614045565b610e1f565b6102607f000000000000000000000000000000000000000000000000000000000000000081565b6102607f000000000000000000000000000000000000000000000000000000000000000081565b610365610fd2565b6102906104073660046141de565b610ff5565b610365611141565b600354610260906001600160a01b031681565b6102906111f6565b600154610260906001600160a01b031681565b610290611345565b61047b60405180604001604052806012815260200171416176652d53747261746567792d5553444360701b81525081565b60405161027491906143a6565b61029061049636600461420e565b6113ff565b610290611634565b6102607f000000000000000000000000000000000000000000000000000000000000000081565b600254610260906001600160a01b031681565b6102dd60055481565b6102906104f4366004614045565b6116e1565b610290610507366004614045565b611a00565b6102dd611bc9565b610290610522366004614045565b611de3565b6102dd61207e565b6102607f000000000000000000000000000000000000000000000000000000000000000081565b600054610260906001600160a01b031681565b610365612088565b6102dd61057f3660046141de565b90565b6000546001600160a01b0316610260565b61047b60405180604001604052806005815260200164332e302e3160d81b81525081565b7f00000000000000000000000000000000000000000000000000000000000000006001600160a01b0316630c340a246040518163ffffffff1660e01b815260040160206040518083038186803b15801561061057600080fd5b505afa158015610624573d6000803e3d6000fd5b505050506040513d601f19601f820116820180604052508101906106489190614061565b6001600160a01b0316336001600160a01b0316146106815760405162461bcd60e51b815260040161067890614409565b60405180910390fd5b600154604051631484968760e11b81526001600160a01b038381166004830152909116906329092d0e90602401602060405180830381600087803b1580156106c857600080fd5b505af11580156106dc573d6000803e3d6000fd5b505050506040513d601f19601f8201168201806040525081019061070091906141c4565b6107435760405162461bcd60e51b81526020600482015260146024820152731c995b5bdd994b5ad9595c195c8b59985a5b195960621b6044820152606401610678565b50565b6001546001600160a01b0316635dbe47e8336040516001600160e01b031960e084901b1681526001600160a01b03909116600482015260240160206040518083038186803b15801561079757600080fd5b505afa1580156107ab573d6000803e3d6000fd5b505050506040513d601f19601f820116820180604052508101906107cf91906141c4565b6107eb5760405162461bcd60e51b8152600401610678906143d9565b6107f36120a4565b565b7f00000000000000000000000000000000000000000000000000000000000000006001600160a01b0316630c340a246040518163ffffffff1660e01b815260040160206040518083038186803b15801561084e57600080fd5b505afa158015610862573d6000803e3d6000fd5b505050506040513d601f19601f820116820180604052508101906108869190614061565b6001600160a01b0316336001600160a01b0316146108b65760405162461bcd60e51b815260040161067890614409565b6001546001600160a01b03161561090f5760405162461bcd60e51b815260206004820152601b60248201527f6b65657065722d6c6973742d616c72656164792d6372656174656400000000006044820152606401610678565b6000819050806001600160a01b0316630fab4d256040518163ffffffff1660e01b8152600401602060405180830381600087803b15801561094f57600080fd5b505af1158015610963573d6000803e3d6000fd5b505050506040513d601f19601f820116820180604052508101906109879190614061565b600180546001600160a01b0319166001600160a01b03929092169182179055630a3b0a4f6109b23390565b6040516001600160e01b031960e084901b1681526001600160a01b039091166004820152602401602060405180830381600087803b1580156109f357600080fd5b505af1158015610a07573d6000803e3d6000fd5b505050506040513d601f19601f82011682018060405250810190610a2b91906141c4565b610a6b5760405162461bcd60e51b81526020600482015260116024820152701859190b5ad9595c195c8b59985a5b1959607a1b6044820152606401610678565b5050565b60405163091030c360e01b8152306004820152600090819081906000805160206145c88339815191529063091030c39060240160206040518083038186803b158015610aba57600080fd5b505afa158015610ace573d6000803e3d6000fd5b505050506040513d601f19601f82011682018060405250810190610af291906141f6565b92506000805160206145c88339815191526001600160a01b03166372b49d636040518163ffffffff1660e01b815260040160206040518083038186803b158015610b3b57600080fd5b505afa158015610b4f573d6000803e3d6000fd5b505050506040513d601f19601f82011682018060405250810190610b7391906141f6565b610b7d90846144d1565b91506000805160206145c88339815191526001600160a01b031663359c4a966040518163ffffffff1660e01b815260040160206040518083038186803b158015610bc657600080fd5b505afa158015610bda573d6000803e3d6000fd5b505050506040513d601f19601f82011682018060405250810190610bfe91906141f6565b610c0890836144d1565b9050909192565b337f00000000000000000000000000000000000000000000000000000000000000006001600160a01b031614610c835760405162461bcd60e51b815260206004820152601960248201527818d85b1b195c8b5a5ccb5b9bdd0b5d995cdc195c8b5c1bdbdb603a1b6044820152606401610678565b6107438161210c565b7f00000000000000000000000000000000000000000000000000000000000000006001600160a01b0316630c340a246040518163ffffffff1660e01b815260040160206040518083038186803b158015610ce557600080fd5b505afa158015610cf9573d6000803e3d6000fd5b505050506040513d601f19601f82011682018060405250810190610d1d9190614061565b6001600160a01b0316336001600160a01b031614610d4d5760405162461bcd60e51b815260040161067890614409565b600154604051630a3b0a4f60e01b81526001600160a01b03838116600483015290911690630a3b0a4f90602401602060405180830381600087803b158015610d9457600080fd5b505af1158015610da8573d6000803e3d6000fd5b505050506040513d601f19601f82011682018060405250810190610dcc91906141c4565b6107435760405162461bcd60e51b81526020600482015260116024820152701859190b5ad9595c195c8b59985a5b1959607a1b6044820152606401610678565b6000610e1782612157565b90505b919050565b7f00000000000000000000000000000000000000000000000000000000000000006001600160a01b0316630c340a246040518163ffffffff1660e01b815260040160206040518083038186803b158015610e7857600080fd5b505afa158015610e8c573d6000803e3d6000fd5b505050506040513d601f19601f82011682018060405250810190610eb09190614061565b6001600160a01b0316336001600160a01b031614610ee05760405162461bcd60e51b815260040161067890614409565b6001600160a01b038116610f2b5760405162461bcd60e51b8152602060048201526012602482015271736d2d616464726573732d69732d7a65726f60701b6044820152606401610678565b6003546001600160a01b0382811691161415610f765760405162461bcd60e51b815260206004820152600a602482015269736d2d69732d73616d6560b01b6044820152606401610678565b6003546040516001600160a01b038084169216907f2d19927e7cac08ceb98b38898a4fdff6da6a27295b9a2d62fe250408ebe044e190600090a3600380546001600160a01b0319166001600160a01b0392909216919091179055565b6000806000610fdf610a6f565b9250509150610fee82826121d8565b9250505090565b7f00000000000000000000000000000000000000000000000000000000000000006001600160a01b0316630c340a246040518163ffffffff1660e01b815260040160206040518083038186803b15801561104e57600080fd5b505afa158015611062573d6000803e3d6000fd5b505050506040513d601f19601f820116820180604052508101906110869190614061565b6001600160a01b0316336001600160a01b0316146110b65760405162461bcd60e51b815260040161067890614409565b6127108111156111015760405162461bcd60e51b8152602060048201526016602482015275696e76616c69642d736c6970706167652d76616c756560501b6044820152606401610678565b60065460408051918252602082018390527ef1c5db862c7598b3b6765552ca951f498611e06412c2d57f8d0b58f82e7f82910160405180910390a1600655565b6001546000906001600160a01b0316635dbe47e8336040516001600160e01b031960e084901b1681526001600160a01b03909116600482015260240160206040518083038186803b15801561119557600080fd5b505afa1580156111a9573d6000803e3d6000fd5b505050506040513d601f19601f820116820180604052508101906111cd91906141c4565b6111e95760405162461bcd60e51b8152600401610678906143d9565b6111f1612275565b905090565b6001546001600160a01b0316635dbe47e8336040516001600160e01b031960e084901b1681526001600160a01b03909116600482015260240160206040518083038186803b15801561124757600080fd5b505afa15801561125b573d6000803e3d6000fd5b505050506040513d601f19601f8201168201806040525081019061127f91906141c4565b61129b5760405162461bcd60e51b8152600401610678906143d9565b60008060006112a86122f4565b6040516302df682360e11b815260048101849052602481018390526044810182905292955090935091506001600160a01b037f000000000000000000000000000000000000000000000000000000000000000016906305bed04690606401600060405180830381600087803b15801561132057600080fd5b505af1158015611334573d6000803e3d6000fd5b5050505061134061245b565b505050565b6001546001600160a01b0316635dbe47e8336040516001600160e01b031960e084901b1681526001600160a01b03909116600482015260240160206040518083038186803b15801561139657600080fd5b505afa1580156113aa573d6000803e3d6000fd5b505050506040513d601f19601f820116820180604052508101906113ce91906141c4565b6113ea5760405162461bcd60e51b8152600401610678906143d9565b6113f460006124fd565b6107f36000196124fd565b7f00000000000000000000000000000000000000000000000000000000000000006001600160a01b0316630c340a246040518163ffffffff1660e01b815260040160206040518083038186803b15801561145857600080fd5b505afa15801561146c573d6000803e3d6000fd5b505050506040513d601f19601f820116820180604052508101906114909190614061565b6001600160a01b0316336001600160a01b0316146114c05760405162461bcd60e51b815260040161067890614409565b600360009054906101000a90046001600160a01b03166001600160a01b031663c2fba6676040518163ffffffff1660e01b815260040160206040518083038186803b15801561150e57600080fd5b505afa158015611522573d6000803e3d6000fd5b505050506040513d601f19601f8201168201806040525081019061154691906141f6565b811061158b5760405162461bcd60e51b81526020600482015260146024820152730d2dcecc2d8d2c85ae4deeae8cae45ad2dcc8caf60631b6044820152606401610678565b816115965760045491505b603b82116115de5760405162461bcd60e51b81526020600482015260156024820152741a5b9d985b1a590b5bdc9858db194b5c195c9a5bd9605a1b6044820152606401610678565b6004546005546040805192835260208301859052820152606081018290527f83bc5ab8030537fcf1d29c2334f6d22c26c82dcbe5ff03923d2cff5c692c0a7f9060800160405180910390a1600491909155600555565b6001546001600160a01b0316635dbe47e8336040516001600160e01b031960e084901b1681526001600160a01b03909116600482015260240160206040518083038186803b15801561168557600080fd5b505afa158015611699573d6000803e3d6000fd5b505050506040513d601f19601f820116820180604052508101906116bd91906141c4565b6116d95760405162461bcd60e51b8152600401610678906143d9565b6107f36126e1565b337f00000000000000000000000000000000000000000000000000000000000000006001600160a01b0316146117555760405162461bcd60e51b815260206004820152601960248201527818d85b1b195c8b5a5ccb5b9bdd0b5d995cdc195c8b5c1bdbdb603a1b6044820152606401610678565b6001600160a01b0381166117ab5760405162461bcd60e51b815260206004820152601c60248201527f6e65772d73747261746567792d616464726573732d69732d7a65726f000000006044820152606401610678565b7f00000000000000000000000000000000000000000000000000000000000000006001600160a01b0316816001600160a01b03166316f0115b6040518163ffffffff1660e01b815260040160206040518083038186803b15801561180e57600080fd5b505afa158015611822573d6000803e3d6000fd5b505050506040513d601f19601f820116820180604052508101906118469190614061565b6001600160a01b0316146118955760405162461bcd60e51b81526020600482015260166024820152756e6f742d76616c69642d6e65772d737472617465677960501b6044820152606401610678565b61189e816128b6565b6000546040516370a0823160e01b81523060048201526119329183916001600160a01b03909116906370a082319060240160206040518083038186803b1580156118e757600080fd5b505afa1580156118fb573d6000803e3d6000fd5b505050506040513d601f19601f8201168201806040525081019061191f91906141f6565b6000546001600160a01b03169190612952565b6040516370a0823160e01b81523060048201526107439082906001600160a01b037f000000000000000000000000000000000000000000000000000000000000000016906370a082319060240160206040518083038186803b15801561199757600080fd5b505afa1580156119ab573d6000803e3d6000fd5b505050506040513d601f19601f820116820180604052508101906119cf91906141f6565b6001600160a01b037f0000000000000000000000000000000000000000000000000000000000000000169190612952565b7f00000000000000000000000000000000000000000000000000000000000000006001600160a01b0316630c340a246040518163ffffffff1660e01b815260040160206040518083038186803b158015611a5957600080fd5b505afa158015611a6d573d6000803e3d6000fd5b505050506040513d601f19601f82011682018060405250810190611a919190614061565b6001600160a01b0316336001600160a01b031614611ac15760405162461bcd60e51b815260040161067890614409565b6001600160a01b038116611b175760405162461bcd60e51b815260206004820152601d60248201527f6665652d636f6c6c6563746f722d616464726573732d69732d7a65726f0000006044820152606401610678565b6002546001600160a01b0382811691161415611b6d5760405162461bcd60e51b81526020600482015260156024820152746665652d636f6c6c6563746f722d69732d73616d6560581b6044820152606401610678565b6002546040516001600160a01b038084169216907f0f06062680f9bd68e786e9980d9bb03d73d5620fc3b345e417b6eacb310b970690600090a3600280546001600160a01b0319166001600160a01b0392909216919091179055565b600080611bd46129b5565b905080611c7a576040516370a0823160e01b81523060048201527f00000000000000000000000000000000000000000000000000000000000000006001600160a01b0316906370a082319060240160206040518083038186803b158015611c3a57600080fd5b505afa158015611c4e573d6000803e3d6000fd5b505050506040513d601f19601f82011682018060405250810190611c7291906141f6565b91505061057f565b600354604051631d1f307960e31b8152737fc66500c84a76ad7e9c93437bfc5ac33e2ddae960048201526001600160a01b037f00000000000000000000000000000000000000000000000000000000000000008116602483015260448201849052600092169063e8f983c89060640160006040518083038186803b158015611d0157600080fd5b505afa158015611d15573d6000803e3d6000fd5b505050506040513d6000823e601f3d908101601f19168201604052611d3d919081019061407d565b506040516370a0823160e01b81523060048201529092507f00000000000000000000000000000000000000000000000000000000000000006001600160a01b031691506370a082319060240160206040518083038186803b158015611da157600080fd5b505afa158015611db5573d6000803e3d6000fd5b505050506040513d601f19601f82011682018060405250810190611dd991906141f6565b610fee90826144d1565b6001546001600160a01b0316635dbe47e8336040516001600160e01b031960e084901b1681526001600160a01b03909116600482015260240160206040518083038186803b158015611e3457600080fd5b505afa158015611e48573d6000803e3d6000fd5b505050506040513d601f19601f82011682018060405250810190611e6c91906141c4565b611e885760405162461bcd60e51b8152600401610678906143d9565b6002546001600160a01b0316611ed85760405162461bcd60e51b81526020600482015260156024820152741999594b58dbdb1b1958dd1bdc8b5b9bdd0b5cd95d605a1b6044820152606401610678565b7f00000000000000000000000000000000000000000000000000000000000000006001600160a01b0316816001600160a01b03161415611f5a5760405162461bcd60e51b815260206004820152601f60248201527f6e6f742d616c6c6f7765642d746f2d73776565702d636f6c6c61746572616c006044820152606401610678565b611f6381610e0c565b15611fa75760405162461bcd60e51b815260206004820152601460248201527306e6f742d616c6c6f7765642d746f2d73776565760641b6044820152606401610678565b6001600160a01b03811673eeeeeeeeeeeeeeeeeeeeeeeeeeeeeeeeeeeeeeee1415611fe757600254611fe2906001600160a01b031647612c1a565b610743565b6040516370a0823160e01b81523060048201526000906001600160a01b038316906370a082319060240160206040518083038186803b15801561202957600080fd5b505afa15801561203d573d6000803e3d6000fd5b505050506040513d601f19601f8201168201806040525081019061206191906141f6565b600254909150610a6b906001600160a01b03848116911683612952565b60006111f1611bc9565b6000806000612095610a6f565b9250925050610fee8282612d33565b6040516301e9a69560e41b815230600482015260001960248201526000805160206145c883398151915290631e9a695090604401600060405180830381600087803b1580156120f257600080fd5b505af1158015612106573d6000803e3d6000fd5b50505050565b610a6b7f00000000000000000000000000000000000000000000000000000000000000007f000000000000000000000000000000000000000000000000000000000000000083612d48565b60007f00000000000000000000000000000000000000000000000000000000000000006001600160a01b0316826001600160a01b031614806121b557506001600160a01b038216737fc66500c84a76ad7e9c93437bfc5ac33e2ddae9145b80610e175750506001600160a01b03166000805160206145c88339815191521490565b6040516370a0823160e01b81523060048201526000906000805160206145c8833981519152906370a082319060240160206040518083038186803b15801561221f57600080fd5b505afa158015612233573d6000803e3d6000fd5b505050506040513d601f19601f8201168201806040525081019061225791906141f6565b1580159061226c575082158061226c57508142115b90505b92915050565b600061227f610fd2565b156122ee576000805160206145c88339815191526001600160a01b031663787a08a66040518163ffffffff1660e01b8152600401600060405180830381600087803b1580156122cd57600080fd5b505af11580156122e1573d6000803e3d6000fd5b505050506001905061057f565b50600090565b604051636a9eee1360e11b81523060048201526000908190819081906001600160a01b037f0000000000000000000000000000000000000000000000000000000000000000169063d53ddc269060240160206040518083038186803b15801561235c57600080fd5b505afa158015612370573d6000803e3d6000fd5b505050506040513d601f19601f8201168201806040525081019061239491906141f6565b604051639f2b283360e01b81523060048201529091506000906001600160a01b037f00000000000000000000000000000000000000000000000000000000000000001690639f2b28339060240160206040518083038186803b1580156123f957600080fd5b505afa15801561240d573d6000803e3d6000fd5b505050506040513d601f19601f8201168201806040525081019061243191906141f6565b905061243c81612eb8565b94506124478161304f565b935061245282613105565b92505050909192565b6040516370a0823160e01b81523060048201526107f3907f0000000000000000000000000000000000000000000000000000000000000000906001600160a01b038216906370a082319060240160206040518083038186803b1580156124c057600080fd5b505afa1580156124d4573d6000803e3d6000fd5b505050506040513d601f19601f820116820180604052508101906124f891906141f6565b613138565b6125516001600160a01b037f0000000000000000000000000000000000000000000000000000000000000000167f0000000000000000000000000000000000000000000000000000000000000000836131d1565b6125a56001600160a01b037f0000000000000000000000000000000000000000000000000000000000000000167f0000000000000000000000000000000000000000000000000000000000000000836131d1565b60005b600360009054906101000a90046001600160a01b03166001600160a01b031663c2fba6676040518163ffffffff1660e01b815260040160206040518083038186803b1580156125f657600080fd5b505afa15801561260a573d6000803e3d6000fd5b505050506040513d601f19601f8201168201806040525081019061262e91906141f6565b811015610a6b57600354604051636e74a6f760e01b8152600481018390526126cf916001600160a01b031690636e74a6f79060240160206040518083038186803b15801561267b57600080fd5b505afa15801561268f573d6000803e3d6000fd5b505050506040513d601f19601f820116820180604052508101906126b39190614061565b737fc66500c84a76ad7e9c93437bfc5ac33e2ddae990846131d1565b806126d98161456b565b9150506125a8565b60035460048054600554604051630f30f2d360e21b8152737fc66500c84a76ad7e9c93437bfc5ac33e2ddae99381019390935273c02aaa39b223fe8d0a0e5c4f27ead9083c756cc26024840152604483019190915260648201526001600160a01b0390911690633cc3cb4c90608401602060405180830381600087803b15801561276a57600080fd5b505af115801561277e573d6000803e3d6000fd5b505050506040513d601f19601f820116820180604052508101906127a29190614061565b507f00000000000000000000000000000000000000000000000000000000000000006001600160a01b031673c02aaa39b223fe8d0a0e5c4f27ead9083c756cc2146107f35760035460048054600554604051630f30f2d360e21b8152737fc66500c84a76ad7e9c93437bfc5ac33e2ddae9938101939093526001600160a01b037f0000000000000000000000000000000000000000000000000000000000000000811660248501526044840192909252606483015290911690633cc3cb4c90608401602060405180830381600087803b15801561287e57600080fd5b505af1158015612892573d6000803e3d6000fd5b505050506040513d601f19601f820116820180604052508101906107439190614061565b6040516370a0823160e01b81523060048201526000906000805160206145c8833981519152906370a082319060240160206040518083038186803b1580156128fd57600080fd5b505afa158015612911573d6000803e3d6000fd5b505050506040513d601f19601f8201168201806040525081019061293591906141f6565b90508015610a6b57610a6b6000805160206145c883398151915283835b6040516001600160a01b03831660248201526044810182905261134090849063a9059cbb60e01b906064015b60408051601f198184030181529190526020810180516001600160e01b03166001600160e01b0319909316929092179091526132f5565b60007f00000000000000000000000000000000000000000000000000000000000000006001600160a01b03166129ed5750600061057f565b604080516001808252818301909252600091602080830190803683370190505090507f000000000000000000000000000000000000000000000000000000000000000081600081518110612a5157634e487b7160e01b600052603260045260246000fd5b6001600160a01b0392909216602092830291909101909101526040516346df7f7160e11b81523060048201526000805160206145c883398151915290638dbefee29060240160206040518083038186803b158015612aae57600080fd5b505afa158015612ac2573d6000803e3d6000fd5b505050506040513d601f19601f82011682018060405250810190612ae691906141f6565b6040516370a0823160e01b81523060048201526000805160206145c8833981519152906370a082319060240160206040518083038186803b158015612b2a57600080fd5b505afa158015612b3e573d6000803e3d6000fd5b505050506040513d601f19601f82011682018060405250810190612b6291906141f6565b6040516345accf9360e11b81526001600160a01b037f00000000000000000000000000000000000000000000000000000000000000001690638b599f2690612bb09086903090600401614349565b60206040518083038186803b158015612bc857600080fd5b505afa158015612bdc573d6000803e3d6000fd5b505050506040513d601f19601f82011682018060405250810190612c0091906141f6565b612c0a91906144d1565b612c1491906144d1565b91505090565b80471015612c6a5760405162461bcd60e51b815260206004820152601d60248201527f416464726573733a20696e73756666696369656e742062616c616e63650000006044820152606401610678565b6000826001600160a01b03168260405160006040518083038185875af1925050503d8060008114612cb7576040519150601f19603f3d011682016040523d82523d6000602084013e612cbc565b606091505b50509050806113405760405162461bcd60e51b815260206004820152603a60248201527f416464726573733a20756e61626c6520746f2073656e642076616c75652c207260448201527f6563697069656e74206d617920686176652072657665727465640000000000006064820152608401610678565b6000824211801561226c575050421115919050565b6040516370a0823160e01b815230600482015260009081906001600160a01b037f000000000000000000000000000000000000000000000000000000000000000016906370a082319060240160206040518083038186803b158015612dac57600080fd5b505afa158015612dc0573d6000803e3d6000fd5b505050506040513d601f19601f82011682018060405250810190612de491906141f6565b6040516335ea6a7560e01b81526001600160a01b0387811660048301529192506000917f000000000000000000000000000000000000000000000000000000000000000016906335ea6a75906024016101406040518083038186803b158015612e4c57600080fd5b505afa158015612e60573d6000803e3d6000fd5b505050506040513d601f19601f82011682018060405250810190612e849190614263565b5050505050505050509050612eac8686612ea787612ea287876133c7565b6133c7565b6133dd565b925050505b9392505050565b6000612ee37f00000000000000000000000000000000000000000000000000000000000000006134e7565b6040516370a0823160e01b81523060048201526000907f00000000000000000000000000000000000000000000000000000000000000006001600160a01b0316906370a082319060240160206040518083038186803b158015612f4557600080fd5b505afa158015612f59573d6000803e3d6000fd5b505050506040513d601f19601f82011682018060405250810190612f7d91906141f6565b905082811115612fb857612fb67f000000000000000000000000000000000000000000000000000000000000000030612ea78685614528565b505b6040516370a0823160e01b81523060048201527f00000000000000000000000000000000000000000000000000000000000000006001600160a01b0316906370a082319060240160206040518083038186803b15801561301757600080fd5b505afa15801561302b573d6000803e3d6000fd5b505050506040513d601f19601f82011682018060405250810190612eb191906141f6565b6040516370a0823160e01b815230600482015260009081906001600160a01b037f000000000000000000000000000000000000000000000000000000000000000016906370a082319060240160206040518083038186803b1580156130b357600080fd5b505afa1580156130c7573d6000803e3d6000fd5b505050506040513d601f19601f820116820180604052508101906130eb91906141f6565b9050828110156130ff57612eb18184614528565b50919050565b60008115610e1a57610e177f00000000000000000000000000000000000000000000000000000000000000003084612d48565b8015610a6b5760405163e8eda9df60e01b81526001600160a01b03838116600483015260248201839052306044830152600060648301527f0000000000000000000000000000000000000000000000000000000000000000169063e8eda9df90608401600060405180830381600087803b1580156131b557600080fd5b505af11580156131c9573d6000803e3d6000fd5b505050505050565b80158061325a5750604051636eb1769f60e11b81523060048201526001600160a01b03838116602483015284169063dd62ed3e9060440160206040518083038186803b15801561322057600080fd5b505afa158015613234573d6000803e3d6000fd5b505050506040513d601f19601f8201168201806040525081019061325891906141f6565b155b6132c55760405162461bcd60e51b815260206004820152603660248201527f5361666545524332303a20617070726f76652066726f6d206e6f6e2d7a65726f60448201527520746f206e6f6e2d7a65726f20616c6c6f77616e636560501b6064820152608401610678565b6040516001600160a01b03831660248201526044810182905261134090849063095ea7b360e01b9060640161297e565b600061334a826040518060400160405280602081526020017f5361666545524332303a206c6f772d6c6576656c2063616c6c206661696c6564815250856001600160a01b03166135629092919063ffffffff16565b805190915015611340578080602001905181019061336891906141c4565b6113405760405162461bcd60e51b815260206004820152602a60248201527f5361666545524332303a204552433230206f7065726174696f6e20646964206e6044820152691bdd081cdd58d8d9595960b21b6064820152608401610678565b60008183106133d6578161226c565b5090919050565b600081156134e057604051631a4ca37b60e21b81526001600160a01b03858116600483015260248201849052848116604483015283917f0000000000000000000000000000000000000000000000000000000000000000909116906369328dec90606401602060405180830381600087803b15801561345b57600080fd5b505af115801561346f573d6000803e3d6000fd5b505050506040513d601f19601f8201168201806040525081019061349391906141f6565b146134e05760405162461bcd60e51b815260206004820152601f60248201527f77697468647261776e2d616d6f756e742d69732d6e6f742d636f7272656374006044820152606401610678565b5092915050565b60006134f1613579565b90508015610a6b576000600654612710141561350e576001613540565b613540613538613532737fc66500c84a76ad7e9c93437bfc5ac33e2ddae9866138dc565b84613ad4565b600654613bff565b9050611340737fc66500c84a76ad7e9c93437bfc5ac33e2ddae9848484613c22565b60606135718484600085613de3565b949350505050565b60007f00000000000000000000000000000000000000000000000000000000000000006001600160a01b03166135b15750600061057f565b60008060006135be610a6f565b92509250925082600014806135d257508042115b156136f257604080516001808252818301909252600091602080830190803683370190505090507f00000000000000000000000000000000000000000000000000000000000000008160008151811061363b57634e487b7160e01b600052603260045260246000fd5b6001600160a01b039283166020918202929092010152604051633111e7b360e01b81527f000000000000000000000000000000000000000000000000000000000000000090911690633111e7b39061369d908490600019903090600401614373565b602060405180830381600087803b1580156136b757600080fd5b505af11580156136cb573d6000803e3d6000fd5b505050506040513d601f19601f820116820180604052508101906136ef91906141f6565b50505b6136fa610a6f565b9194509250905061370b8282612d33565b1561377b576040516301e9a69560e41b815230600482015260001960248201526000805160206145c883398151915290631e9a695090604401600060405180830381600087803b15801561375e57600080fd5b505af1158015613772573d6000803e3d6000fd5b505050506137ec565b61378583826121d8565b156137ec576000805160206145c88339815191526001600160a01b031663787a08a66040518163ffffffff1660e01b8152600401600060405180830381600087803b1580156137d357600080fd5b505af11580156137e7573d6000803e3d6000fd5b505050505b6040516309a99b4f60e41b815230600482015260001960248201526000805160206145c883398151915290639a99b4f090604401600060405180830381600087803b15801561383a57600080fd5b505af115801561384e573d6000803e3d6000fd5b50506040516370a0823160e01b8152306004820152737fc66500c84a76ad7e9c93437bfc5ac33e2ddae992506370a08231915060240160206040518083038186803b15801561389c57600080fd5b505afa1580156138b0573d6000803e3d6000fd5b505050506040513d601f19601f820116820180604052508101906138d491906141f6565b935050505090565b60606001600160a01b03831673c02aaa39b223fe8d0a0e5c4f27ead9083c756cc2148061392557506001600160a01b03821673c02aaa39b223fe8d0a0e5c4f27ead9083c756cc2145b156139d3576040805160028082526060820183529091602083019080368337019050509050828160008151811061396c57634e487b7160e01b600052603260045260246000fd5b60200260200101906001600160a01b031690816001600160a01b03168152505081816001815181106139ae57634e487b7160e01b600052603260045260246000fd5b60200260200101906001600160a01b031690816001600160a01b03168152505061226f565b6040805160038082526080820190925290602082016060803683370190505090508281600081518110613a1657634e487b7160e01b600052603260045260246000fd5b60200260200101906001600160a01b031690816001600160a01b03168152505073c02aaa39b223fe8d0a0e5c4f27ead9083c756cc281600181518110613a6c57634e487b7160e01b600052603260045260246000fd5b60200260200101906001600160a01b031690816001600160a01b0316815250508181600281518110613aae57634e487b7160e01b600052603260045260246000fd5b60200260200101906001600160a01b031690816001600160a01b03168152505092915050565b60006001835111613b1d5760405162461bcd60e51b81526020600482015260136024820152720d2dcecc2d8d2c85adee4c2c6d8ca5ae0c2e8d606b1b6044820152606401610678565b50806000805b60018551613b319190614528565b811015613bf757613b9d858281518110613b5b57634e487b7160e01b600052603260045260246000fd5b602002602001015186836001613b7191906144d1565b81518110613b8f57634e487b7160e01b600052603260045260246000fd5b602002602001015185613f0b565b909350915081613be55760405162461bcd60e51b8152602060048201526013602482015272696e76616c69642d6f7261636c652d7261746560681b6044820152606401610678565b80613bef8161456b565b915050613b23565b505092915050565b6000612710613c0e8382614528565b613c189085614509565b61226c91906144e9565b600354604051631d1f307960e31b81526001600160a01b038681166004830152858116602483015260448201859052600092839283929091169063e8f983c89060640160006040518083038186803b158015613c7d57600080fd5b505afa158015613c91573d6000803e3d6000fd5b505050506040513d6000823e601f3d908101601f19168201604052613cb9919081019061407d565b9250925092508360001415613ccd57600193505b8115613dda57600354604051636e74a6f760e01b8152600481018390526001600160a01b0390911690636e74a6f79060240160206040518083038186803b158015613d1757600080fd5b505afa158015613d2b573d6000803e3d6000fd5b505050506040513d601f19601f82011682018060405250810190613d4f9190614061565b6001600160a01b03166338ed173986868630426040518663ffffffff1660e01b8152600401613d82959493929190614440565b600060405180830381600087803b158015613d9c57600080fd5b505af1158015613db0573d6000803e3d6000fd5b505050506040513d6000823e601f3d908101601f19168201604052613dd89190810190614131565b505b50505050505050565b606082471015613e445760405162461bcd60e51b815260206004820152602660248201527f416464726573733a20696e73756666696369656e742062616c616e636520666f6044820152651c8818d85b1b60d21b6064820152608401610678565b843b613e925760405162461bcd60e51b815260206004820152601d60248201527f416464726573733a2063616c6c20746f206e6f6e2d636f6e74726163740000006044820152606401610678565b600080866001600160a01b03168587604051613eae919061432d565b60006040518083038185875af1925050503d8060008114613eeb576040519150601f19603f3d011682016040523d82523d6000602084013e613ef0565b606091505b5091509150613f00828286613ffc565b979650505050505050565b6003546004805460055460405163b67bb24d60e01b81526001600160a01b038881169482019490945286841660248201526044810186905260648101929092526084820152600092839283928392919091169063b67bb24d9060a401606060405180830381600087803b158015613f8157600080fd5b505af1158015613f95573d6000803e3d6000fd5b505050506040513d601f19601f82011682018060405250810190613fb9919061422f565b509150915060045442613fcc9190614528565b81118015613fd957508115155b15613fea5750915060019050613ff4565b6000809350935050505b935093915050565b6060831561400b575081612eb1565b82511561401b5782518084602001fd5b8160405162461bcd60e51b815260040161067891906143a6565b80518015158114610e1a57600080fd5b600060208284031215614056578081fd5b8135612eb1816145b2565b600060208284031215614072578081fd5b8151612eb1816145b2565b600080600060608486031215614091578182fd5b835167ffffffffffffffff8111156140a7578283fd5b8401601f810186136140b7578283fd5b805160206140cc6140c7836144ad565b61447c565b8083825282820191508285018a848660051b88010111156140eb578788fd5b8795505b84861015614116578051614102816145b2565b8352600195909501949183019183016140ef565b50918801516040909801519199979850909695505050505050565b60006020808385031215614143578182fd5b825167ffffffffffffffff811115614159578283fd5b8301601f81018513614169578283fd5b80516141776140c7826144ad565b80828252848201915084840188868560051b8701011115614196578687fd5b8694505b838510156141b857805183526001949094019391850191850161419a565b50979650505050505050565b6000602082840312156141d5578081fd5b61226c82614035565b6000602082840312156141ef578081fd5b5035919050565b600060208284031215614207578081fd5b5051919050565b60008060408385031215614220578182fd5b50508035926020909101359150565b600080600060608486031215614243578283fd5b835192506020840151915061425a60408501614035565b90509250925092565b6000806000806000806000806000806101408b8d031215614282578586fd5b8a51995060208b0151985060408b0151975060608b0151965060808b0151955060a08b0151945060c08b0151935060e08b015192506101008b015191506101208b015164ffffffffff811681146142d7578182fd5b809150509295989b9194979a5092959850565b6000815180845260208085019450808401835b838110156143225781516001600160a01b0316875295820195908201906001016142fd565b509495945050505050565b6000825161433f81846020870161453f565b9190910192915050565b60006040825261435c60408301856142ea565b905060018060a01b03831660208301529392505050565b60006060825261438660608301866142ea565b6020830194909452506001600160a01b0391909116604090910152919050565b60006020825282518060208401526143c581604085016020870161453f565b601f01601f19169190910160400192915050565b60208082526016908201527531b0b63632b916b4b996b737ba16b096b5b2b2b832b960511b604082015260600190565b6020808252601a908201527f63616c6c65722d69732d6e6f742d7468652d676f7665726e6f72000000000000604082015260600190565b600086825285602083015260a0604083015261445f60a08301866142ea565b6001600160a01b0394909416606083015250608001529392505050565b604051601f8201601f1916810167ffffffffffffffff811182821017156144a5576144a561459c565b604052919050565b600067ffffffffffffffff8211156144c7576144c761459c565b5060051b60200190565b600082198211156144e4576144e4614586565b500190565b60008261450457634e487b7160e01b81526012600452602481fd5b500490565b600081600019048311821515161561452357614523614586565b500290565b60008282101561453a5761453a614586565b500390565b60005b8381101561455a578181015183820152602001614542565b838111156121065750506000910152565b600060001982141561457f5761457f614586565b5060010190565b634e487b7160e01b600052601160045260246000fd5b634e487b7160e01b600052604160045260246000fd5b6001600160a01b038116811461074357600080fdfe0000000000000000000000004da27a545c0c5b758a6ba100e3a049001de870f5a26469706673582212207e4e14d51113bba766f9d10b1a84c83b7218decd8bdc1c354cc23049c22eac9864736f6c63430008030033",
  "devdoc": {
    "kind": "dev",
    "methods": {
      "addKeeper(address)": {
        "params": {
          "_keeperAddress": "keeper address to add."
        }
      },
      "approveToken()": {
        "details": "Approve all required tokens"
      },
      "convertFrom18(uint256)": {
        "details": "Convert from 18 decimals to token defined decimals. Default no conversion."
      },
      "init(address)": {
        "params": {
          "_addressListFactory": "To support same code in eth side chain, user _addressListFactory as param ethereum- 0xded8217De022706A191eE7Ee0Dc9df1185Fb5dA3 polygon-0xD10D5696A350D65A9AA15FE8B258caB4ab1bF291"
        }
      },
      "migrate(address)": {
        "details": "_beforeMigration hook can be implemented in child strategy to do extra steps.",
        "params": {
          "_newStrategy": "Address of new strategy"
        }
      },
      "rebalance()": {
        "details": "Rebalance profit, loss and investment of this strategy"
      },
      "removeKeeper(address)": {
        "params": {
          "_keeperAddress": "keeper address to remove."
        }
      },
      "sweepERC20(address)": {
        "details": "sweep given token to feeCollector of strategy",
        "params": {
          "_fromToken": "token address to sweep"
        }
      },
      "totalValue()": {
        "details": "aToken and collateral are 1:1"
      },
      "totalValueCurrent()": {
        "details": "Report total value in collateral token"
      },
      "updateFeeCollector(address)": {
        "params": {
          "_feeCollector": "fee collector address"
        }
      },
      "updateSwapManager(address)": {
        "params": {
          "_swapManager": "swap manager address"
        }
      },
      "withdraw(uint256)": {
        "details": "Withdraw collateral token from lending pool.",
        "params": {
          "_amount": "Amount of collateral token"
        }
      }
    },
    "version": 1
  },
  "userdoc": {
    "kind": "user",
    "methods": {
      "addKeeper(address)": {
        "notice": "Add given address in keepers list."
      },
      "canStartCooldown()": {
        "notice": "Returns true if we should start cooldown"
      },
      "canUnstake()": {
        "notice": "Returns true if Aave can be unstaked"
      },
      "cooldownData()": {
        "notice": "Return cooldown related timestamps"
      },
      "init(address)": {
        "notice": "Create keeper list NOTE: Any function with onlyKeeper modifier will not work until this function is called. NOTE: Due to gas constraint this function cannot be called in constructor."
      },
      "isReservedToken(address)": {
        "notice": "Check whether given token is reserved or not. Reserved tokens are not allowed to sweep."
      },
      "migrate(address)": {
        "notice": "Migrate all asset and vault ownership,if any, to new strategy"
      },
      "removeKeeper(address)": {
        "notice": "Remove given address from keepers list."
      },
      "startCooldown()": {
        "notice": "Initiate cooldown to unstake aave."
      },
      "token()": {
        "notice": "Returns address of token correspond to collateral token"
      },
      "totalValue()": {
        "notice": "Report total value"
      },
      "totalValueCurrent()": {
        "notice": "Calculate total value of asset under management (in real-time)"
      },
      "unstakeAave()": {
        "notice": "Unstake Aave from stakedAave contract"
      },
      "updateFeeCollector(address)": {
        "notice": "Update fee collector"
      },
      "updateSwapManager(address)": {
        "notice": "Update swap manager address"
      }
    },
    "version": 1
  },
  "storageLayout": {
    "storage": [
      {
        "astId": 13227,
        "contract": "contracts/strategies/aave/AaveStrategyUSDC.sol:AaveStrategyUSDC",
        "label": "receiptToken",
        "offset": 0,
        "slot": "0",
        "type": "t_address"
      },
      {
        "astId": 13233,
        "contract": "contracts/strategies/aave/AaveStrategyUSDC.sol:AaveStrategyUSDC",
        "label": "keepers",
        "offset": 0,
        "slot": "1",
        "type": "t_contract(IAddressList)4281"
      },
      {
        "astId": 13236,
        "contract": "contracts/strategies/aave/AaveStrategyUSDC.sol:AaveStrategyUSDC",
        "label": "feeCollector",
        "offset": 0,
        "slot": "2",
        "type": "t_address"
      },
      {
        "astId": 13239,
        "contract": "contracts/strategies/aave/AaveStrategyUSDC.sol:AaveStrategyUSDC",
        "label": "swapManager",
        "offset": 0,
        "slot": "3",
        "type": "t_contract(ISwapManager)4584"
      },
      {
        "astId": 13242,
        "contract": "contracts/strategies/aave/AaveStrategyUSDC.sol:AaveStrategyUSDC",
        "label": "oraclePeriod",
        "offset": 0,
        "slot": "4",
        "type": "t_uint256"
      },
      {
        "astId": 13245,
        "contract": "contracts/strategies/aave/AaveStrategyUSDC.sol:AaveStrategyUSDC",
        "label": "oracleRouterIdx",
        "offset": 0,
        "slot": "5",
        "type": "t_uint256"
      },
      {
        "astId": 13248,
        "contract": "contracts/strategies/aave/AaveStrategyUSDC.sol:AaveStrategyUSDC",
        "label": "swapSlippage",
        "offset": 0,
        "slot": "6",
        "type": "t_uint256"
      },
      {
        "astId": 14526,
        "contract": "contracts/strategies/aave/AaveStrategyUSDC.sol:AaveStrategyUSDC",
        "label": "aaveAddressesProvider",
        "offset": 0,
        "slot": "7",
        "type": "t_contract(AaveLendingPoolAddressesProvider)3965"
      }
    ],
    "types": {
      "t_address": {
        "encoding": "inplace",
        "label": "address",
        "numberOfBytes": "20"
      },
      "t_contract(AaveLendingPoolAddressesProvider)3965": {
        "encoding": "inplace",
        "label": "contract AaveLendingPoolAddressesProvider",
        "numberOfBytes": "20"
      },
      "t_contract(IAddressList)4281": {
        "encoding": "inplace",
        "label": "contract IAddressList",
        "numberOfBytes": "20"
      },
      "t_contract(ISwapManager)4584": {
        "encoding": "inplace",
        "label": "contract ISwapManager",
        "numberOfBytes": "20"
      },
      "t_uint256": {
        "encoding": "inplace",
        "label": "uint256",
        "numberOfBytes": "32"
      }
    }
  }
}