{
  "address": "0x093c8428A6C46A3216D554957610aA70876c6e5c",
  "abi": [
    {
      "inputs": [
        {
          "internalType": "address",
          "name": "_pool",
          "type": "address"
        },
        {
          "internalType": "address",
          "name": "_swapManager",
          "type": "address"
        }
      ],
      "stateMutability": "nonpayable",
      "type": "constructor"
    },
    {
      "anonymous": false,
      "inputs": [
        {
          "indexed": true,
          "internalType": "address",
          "name": "previousFeeCollector",
          "type": "address"
        },
        {
          "indexed": true,
          "internalType": "address",
          "name": "newFeeCollector",
          "type": "address"
        }
      ],
      "name": "UpdatedFeeCollector",
      "type": "event"
    },
    {
      "anonymous": false,
      "inputs": [
        {
          "indexed": false,
          "internalType": "uint256",
          "name": "oldPeriod",
          "type": "uint256"
        },
        {
          "indexed": false,
          "internalType": "uint256",
          "name": "newPeriod",
          "type": "uint256"
        },
        {
          "indexed": false,
          "internalType": "uint256",
          "name": "oldRouterIdx",
          "type": "uint256"
        },
        {
          "indexed": false,
          "internalType": "uint256",
          "name": "newRouterIdx",
          "type": "uint256"
        }
      ],
      "name": "UpdatedOracleConfig",
      "type": "event"
    },
    {
      "anonymous": false,
      "inputs": [
        {
          "indexed": true,
          "internalType": "address",
          "name": "previousSwapManager",
          "type": "address"
        },
        {
          "indexed": true,
          "internalType": "address",
          "name": "newSwapManager",
          "type": "address"
        }
      ],
      "name": "UpdatedSwapManager",
      "type": "event"
    },
    {
      "anonymous": false,
      "inputs": [
        {
          "indexed": false,
          "internalType": "uint256",
          "name": "oldSwapSlippage",
          "type": "uint256"
        },
        {
          "indexed": false,
          "internalType": "uint256",
          "name": "newSwapSlippage",
          "type": "uint256"
        }
      ],
      "name": "UpdatedSwapSlippage",
      "type": "event"
    },
    {
      "inputs": [],
      "name": "NAME",
      "outputs": [
        {
          "internalType": "string",
          "name": "",
          "type": "string"
        }
      ],
      "stateMutability": "view",
      "type": "function"
    },
    {
      "inputs": [],
      "name": "VERSION",
      "outputs": [
        {
          "internalType": "string",
          "name": "",
          "type": "string"
        }
      ],
      "stateMutability": "view",
      "type": "function"
    },
    {
      "inputs": [
        {
          "internalType": "address",
          "name": "_keeperAddress",
          "type": "address"
        }
      ],
      "name": "addKeeper",
      "outputs": [],
      "stateMutability": "nonpayable",
      "type": "function"
    },
    {
      "inputs": [],
      "name": "approveToken",
      "outputs": [],
      "stateMutability": "nonpayable",
      "type": "function"
    },
    {
      "inputs": [],
      "name": "collateralToken",
      "outputs": [
        {
          "internalType": "contract IERC20",
          "name": "",
          "type": "address"
        }
      ],
      "stateMutability": "view",
      "type": "function"
    },
    {
      "inputs": [
        {
          "internalType": "uint256",
          "name": "amount",
          "type": "uint256"
        }
      ],
      "name": "convertFrom18",
      "outputs": [
        {
          "internalType": "uint256",
          "name": "",
          "type": "uint256"
        }
      ],
      "stateMutability": "pure",
      "type": "function"
    },
    {
      "inputs": [],
      "name": "feeCollector",
      "outputs": [
        {
          "internalType": "address",
          "name": "",
          "type": "address"
        }
      ],
      "stateMutability": "view",
      "type": "function"
    },
    {
      "inputs": [
        {
          "internalType": "address",
          "name": "_addressListFactory",
          "type": "address"
        }
      ],
      "name": "init",
      "outputs": [],
      "stateMutability": "nonpayable",
      "type": "function"
    },
    {
      "inputs": [
        {
          "internalType": "address",
          "name": "_token",
          "type": "address"
        }
      ],
      "name": "isReservedToken",
      "outputs": [
        {
          "internalType": "bool",
          "name": "",
          "type": "bool"
        }
      ],
      "stateMutability": "view",
      "type": "function"
    },
    {
      "inputs": [],
      "name": "keepers",
      "outputs": [
        {
          "internalType": "contract IAddressList",
          "name": "",
          "type": "address"
        }
      ],
      "stateMutability": "view",
      "type": "function"
    },
    {
      "inputs": [
        {
          "internalType": "address",
          "name": "_newStrategy",
          "type": "address"
        }
      ],
      "name": "migrate",
      "outputs": [],
      "stateMutability": "nonpayable",
      "type": "function"
    },
    {
      "inputs": [],
      "name": "oraclePeriod",
      "outputs": [
        {
          "internalType": "uint256",
          "name": "",
          "type": "uint256"
        }
      ],
      "stateMutability": "view",
      "type": "function"
    },
    {
      "inputs": [],
      "name": "oracleRouterIdx",
      "outputs": [
        {
          "internalType": "uint256",
          "name": "",
          "type": "uint256"
        }
      ],
      "stateMutability": "view",
      "type": "function"
    },
    {
      "inputs": [],
      "name": "pool",
      "outputs": [
        {
          "internalType": "address",
          "name": "",
          "type": "address"
        }
      ],
      "stateMutability": "view",
      "type": "function"
    },
    {
      "inputs": [],
      "name": "rebalance",
      "outputs": [],
      "stateMutability": "nonpayable",
      "type": "function"
    },
    {
      "inputs": [],
      "name": "receiptToken",
      "outputs": [
        {
          "internalType": "address",
          "name": "",
          "type": "address"
        }
      ],
      "stateMutability": "view",
      "type": "function"
    },
    {
      "inputs": [
        {
          "internalType": "address",
          "name": "_keeperAddress",
          "type": "address"
        }
      ],
      "name": "removeKeeper",
      "outputs": [],
      "stateMutability": "nonpayable",
      "type": "function"
    },
    {
      "inputs": [],
      "name": "setupOracles",
      "outputs": [],
      "stateMutability": "nonpayable",
      "type": "function"
    },
    {
      "inputs": [],
      "name": "swapManager",
      "outputs": [
        {
          "internalType": "contract ISwapManager",
          "name": "",
          "type": "address"
        }
      ],
      "stateMutability": "view",
      "type": "function"
    },
    {
      "inputs": [],
      "name": "swapSlippage",
      "outputs": [
        {
          "internalType": "uint256",
          "name": "",
          "type": "uint256"
        }
      ],
      "stateMutability": "view",
      "type": "function"
    },
    {
      "inputs": [
        {
          "internalType": "address",
          "name": "_fromToken",
          "type": "address"
        }
      ],
      "name": "sweepERC20",
      "outputs": [],
      "stateMutability": "nonpayable",
      "type": "function"
    },
    {
      "inputs": [],
      "name": "token",
      "outputs": [
        {
          "internalType": "address",
          "name": "",
          "type": "address"
        }
      ],
      "stateMutability": "view",
      "type": "function"
    },
    {
      "inputs": [],
      "name": "totalValue",
      "outputs": [
        {
          "internalType": "uint256",
          "name": "_totalValue",
          "type": "uint256"
        }
      ],
      "stateMutability": "view",
      "type": "function"
    },
    {
      "inputs": [],
      "name": "totalValueCurrent",
      "outputs": [
        {
          "internalType": "uint256",
          "name": "_totalValue",
          "type": "uint256"
        }
      ],
      "stateMutability": "nonpayable",
      "type": "function"
    },
    {
      "inputs": [
        {
          "internalType": "address",
          "name": "_feeCollector",
          "type": "address"
        }
      ],
      "name": "updateFeeCollector",
      "outputs": [],
      "stateMutability": "nonpayable",
      "type": "function"
    },
    {
      "inputs": [
        {
          "internalType": "uint256",
          "name": "_newPeriod",
          "type": "uint256"
        },
        {
          "internalType": "uint256",
          "name": "_newRouterIdx",
          "type": "uint256"
        }
      ],
      "name": "updateOracleConfig",
      "outputs": [],
      "stateMutability": "nonpayable",
      "type": "function"
    },
    {
      "inputs": [
        {
          "internalType": "address",
          "name": "_swapManager",
          "type": "address"
        }
      ],
      "name": "updateSwapManager",
      "outputs": [],
      "stateMutability": "nonpayable",
      "type": "function"
    },
    {
      "inputs": [
        {
          "internalType": "uint256",
          "name": "_newSwapSlippage",
          "type": "uint256"
        }
      ],
      "name": "updateSwapSlippage",
      "outputs": [],
      "stateMutability": "nonpayable",
      "type": "function"
    },
    {
      "inputs": [
        {
          "internalType": "uint256",
          "name": "_amount",
          "type": "uint256"
        }
      ],
      "name": "withdraw",
      "outputs": [],
      "stateMutability": "nonpayable",
      "type": "function"
    }
  ],
  "transactionHash": "0x2a27c03314f712617687686ba6fa55fcc33891e65623f07970c35f4e1bce0768",
  "args": [
    "0x3553e7420B1D68A010ad447b782fae6388f5F37F",
    "0xe382d9f2394A359B01006faa8A1864b8a60d2710"
  ],
  "solcInputHash": "dbc9bb7041e73d47cb7787cb4e25a294",
  "bytecode": "0x60c0604052610e1060045560006005556127106006553480156200002257600080fd5b5060405162003da638038062003da6833981016040819052620000459162000263565b81817339aa39c021dfbae8fac545936693ac917d5e75638282826001600160a01b038316620000bb5760405162461bcd60e51b815260206004820152601460248201527f706f6f6c2d616464726573732d69732d7a65726f00000000000000000000000060448201526064015b60405180910390fd5b6001600160a01b038216620001085760405162461bcd60e51b8152602060048201526012602482015271736d2d616464726573732d69732d7a65726f60701b6044820152606401620000b2565b600380546001600160a01b0319166001600160a01b0384811691909117909155606084901b6001600160601b03191660a05260408051637e062a3560e11b815290519185169163fc0c546a91600480820192602092909190829003018186803b1580156200017557600080fd5b505afa1580156200018a573d6000803e3d6000fd5b505050506040513d601f19601f82011682018060405250810190620001b09190620002a1565b60601b6001600160601b031916608052600080546001600160a01b0319166001600160a01b039283161790558316151591506200023290505760405162461bcd60e51b815260206004820152601660248201527f63546f6b656e2d616464726573732d69732d7a65726f000000000000000000006044820152606401620000b2565b600780546001600160a01b0319166001600160a01b0392909216919091179055505061271060065550620002e09050565b6000806040838503121562000276578182fd5b82516200028381620002c7565b60208401519092506200029681620002c7565b809150509250929050565b600060208284031215620002b3578081fd5b8151620002c081620002c7565b9392505050565b6001600160a01b0381168114620002dd57600080fd5b50565b60805160601c60a05160601c6139dd620003c9600039600081816101ee01528181610449015281816105d801528181610853015281816108cf01528181610a9201528181610c4501528181610e7501528181610f9c0152818161127f015281816113480152818161159e01528181611afc01528181611b7b01528181611c180152611e58015260008181610367015281816114f001528181611575015281816118f001528181611b2601528181611cd401528181611e3601528181611e8e015281816120ab01528181612132015281816122ff015281816126fc015261278501526139dd6000f3fe608060405234801561001057600080fd5b50600436106101cf5760003560e01c8063a3f4df7e11610104578063d2c35ce8116100a2578063ec78e83211610071578063ec78e832146103ee578063fb589de214610401578063fc0c546a14610412578063ffa1ad7414610423576101cf565b8063d2c35ce8146103b8578063d4c3eea0146103cb578063e00af4a7146103d3578063e645c202146103e6576101cf565b8063b2016bd4116100de578063b2016bd414610362578063c415b95c14610389578063cd2d7ebe1461039c578063ce5494bb146103a5576101cf565b8063a3f4df7e14610305578063a923b2a614610347578063aa1018861461035a576101cf565b8063440d724811610171578063709d039d1161014b578063709d039d146102cf5780637d7c2a1c146102e2578063951dc22c146102ea57806399b71d5c146102fd576101cf565b8063440d7248146102865780634c36fad7146102a957806367f5e4b8146102bc576101cf565b80631aedeabe116101ad5780631aedeabe146102405780632e1a7d4d146102575780634032b72b1461026a57806342189c8f1461027d576101cf565b806314ae9f2e146101d457806316f0115b146101e957806319ab453c1461022d575b600080fd5b6101e76101e23660046134d9565b610447565b005b6102107f000000000000000000000000000000000000000000000000000000000000000081565b6040516001600160a01b0390911681526020015b60405180910390f35b6101e761023b3660046134d9565b6105d6565b61024960065481565b604051908152602001610224565b6101e7610265366004613651565b610850565b6101e76102783660046134d9565b6108cd565b61024960045481565b6102996102943660046134d9565b610a4d565b6040519015158152602001610224565b6101e76102b73660046134d9565b610a90565b6101e76102ca366004613651565b610c43565b600354610210906001600160a01b031681565b6101e7610d8f565b600154610210906001600160a01b031681565b6101e7610ede565b61033a60405180604001604052806016815260200175436f6d706f756e642d53747261746567792d5553444360501b81525081565b6040516102249190613782565b6101e7610355366004613681565b610f9a565b6101e76111cf565b6102107f000000000000000000000000000000000000000000000000000000000000000081565b600254610210906001600160a01b031681565b61024960055481565b6101e76103b33660046134d9565b61127c565b6101e76103c63660046134d9565b61159c565b610249611765565b6101e76103e13660046134d9565b6117f9565b610249611a94565b600054610210906001600160a01b031681565b61024961040f366004613651565b90565b6000546001600160a01b0316610210565b61033a604051806040016040528060058152602001640332e302e360dc1b81525081565b7f00000000000000000000000000000000000000000000000000000000000000006001600160a01b0316630c340a246040518163ffffffff1660e01b815260040160206040518083038186803b1580156104a057600080fd5b505afa1580156104b4573d6000803e3d6000fd5b505050506040513d601f19601f820116820180604052508101906104d891906134f5565b6001600160a01b0316336001600160a01b0316146105115760405162461bcd60e51b8152600401610508906137e5565b60405180910390fd5b600154604051631484968760e11b81526001600160a01b038381166004830152909116906329092d0e90602401602060405180830381600087803b15801561055857600080fd5b505af115801561056c573d6000803e3d6000fd5b505050506040513d601f19601f820116820180604052508101906105909190613637565b6105d35760405162461bcd60e51b81526020600482015260146024820152731c995b5bdd994b5ad9595c195c8b59985a5b195960621b6044820152606401610508565b50565b7f00000000000000000000000000000000000000000000000000000000000000006001600160a01b0316630c340a246040518163ffffffff1660e01b815260040160206040518083038186803b15801561062f57600080fd5b505afa158015610643573d6000803e3d6000fd5b505050506040513d601f19601f8201168201806040525081019061066791906134f5565b6001600160a01b0316336001600160a01b0316146106975760405162461bcd60e51b8152600401610508906137e5565b6001546001600160a01b0316156106f05760405162461bcd60e51b815260206004820152601b60248201527f6b65657065722d6c6973742d616c72656164792d6372656174656400000000006044820152606401610508565b6000819050806001600160a01b0316630fab4d256040518163ffffffff1660e01b8152600401602060405180830381600087803b15801561073057600080fd5b505af1158015610744573d6000803e3d6000fd5b505050506040513d601f19601f8201168201806040525081019061076891906134f5565b600180546001600160a01b0319166001600160a01b03929092169182179055630a3b0a4f6107933390565b6040516001600160e01b031960e084901b1681526001600160a01b039091166004820152602401602060405180830381600087803b1580156107d457600080fd5b505af11580156107e8573d6000803e3d6000fd5b505050506040513d601f19601f8201168201806040525081019061080c9190613637565b61084c5760405162461bcd60e51b81526020600482015260116024820152701859190b5ad9595c195c8b59985a5b1959607a1b6044820152606401610508565b5050565b337f00000000000000000000000000000000000000000000000000000000000000006001600160a01b0316146108c45760405162461bcd60e51b815260206004820152601960248201527818d85b1b195c8b5a5ccb5b9bdd0b5d995cdc195c8b5c1bdbdb603a1b6044820152606401610508565b6105d381611ad9565b7f00000000000000000000000000000000000000000000000000000000000000006001600160a01b0316630c340a246040518163ffffffff1660e01b815260040160206040518083038186803b15801561092657600080fd5b505afa15801561093a573d6000803e3d6000fd5b505050506040513d601f19601f8201168201806040525081019061095e91906134f5565b6001600160a01b0316336001600160a01b03161461098e5760405162461bcd60e51b8152600401610508906137e5565b600154604051630a3b0a4f60e01b81526001600160a01b03838116600483015290911690630a3b0a4f90602401602060405180830381600087803b1580156109d557600080fd5b505af11580156109e9573d6000803e3d6000fd5b505050506040513d601f19601f82011682018060405250810190610a0d9190613637565b6105d35760405162461bcd60e51b81526020600482015260116024820152701859190b5ad9595c195c8b59985a5b1959607a1b6044820152606401610508565b6007546000906001600160a01b0383811691161480610a8857506001600160a01b03821673c00e94cb662c3520282e6f5717214004a7f26888145b90505b919050565b7f00000000000000000000000000000000000000000000000000000000000000006001600160a01b0316630c340a246040518163ffffffff1660e01b815260040160206040518083038186803b158015610ae957600080fd5b505afa158015610afd573d6000803e3d6000fd5b505050506040513d601f19601f82011682018060405250810190610b2191906134f5565b6001600160a01b0316336001600160a01b031614610b515760405162461bcd60e51b8152600401610508906137e5565b6001600160a01b038116610b9c5760405162461bcd60e51b8152602060048201526012602482015271736d2d616464726573732d69732d7a65726f60701b6044820152606401610508565b6003546001600160a01b0382811691161415610be75760405162461bcd60e51b815260206004820152600a602482015269736d2d69732d73616d6560b01b6044820152606401610508565b6003546040516001600160a01b038084169216907f2d19927e7cac08ceb98b38898a4fdff6da6a27295b9a2d62fe250408ebe044e190600090a3600380546001600160a01b0319166001600160a01b0392909216919091179055565b7f00000000000000000000000000000000000000000000000000000000000000006001600160a01b0316630c340a246040518163ffffffff1660e01b815260040160206040518083038186803b158015610c9c57600080fd5b505afa158015610cb0573d6000803e3d6000fd5b505050506040513d601f19601f82011682018060405250810190610cd491906134f5565b6001600160a01b0316336001600160a01b031614610d045760405162461bcd60e51b8152600401610508906137e5565b612710811115610d4f5760405162461bcd60e51b8152602060048201526016602482015275696e76616c69642d736c6970706167652d76616c756560501b6044820152606401610508565b60065460408051918252602082018390527ef1c5db862c7598b3b6765552ca951f498611e06412c2d57f8d0b58f82e7f82910160405180910390a1600655565b6001546001600160a01b0316635dbe47e8336040516001600160e01b031960e084901b1681526001600160a01b03909116600482015260240160206040518083038186803b158015610de057600080fd5b505afa158015610df4573d6000803e3d6000fd5b505050506040513d601f19601f82011682018060405250810190610e189190613637565b610e345760405162461bcd60e51b8152600401610508906137b5565b6000806000610e41611b55565b6040516302df682360e11b815260048101849052602481018390526044810182905292955090935091506001600160a01b037f000000000000000000000000000000000000000000000000000000000000000016906305bed04690606401600060405180830381600087803b158015610eb957600080fd5b505af1158015610ecd573d6000803e3d6000fd5b50505050610ed9611cbc565b505050565b6001546001600160a01b0316635dbe47e8336040516001600160e01b031960e084901b1681526001600160a01b03909116600482015260240160206040518083038186803b158015610f2f57600080fd5b505afa158015610f43573d6000803e3d6000fd5b505050506040513d601f19601f82011682018060405250810190610f679190613637565b610f835760405162461bcd60e51b8152600401610508906137b5565b610f8d6000611e29565b610f98600019611e29565b565b7f00000000000000000000000000000000000000000000000000000000000000006001600160a01b0316630c340a246040518163ffffffff1660e01b815260040160206040518083038186803b158015610ff357600080fd5b505afa158015611007573d6000803e3d6000fd5b505050506040513d601f19601f8201168201806040525081019061102b91906134f5565b6001600160a01b0316336001600160a01b03161461105b5760405162461bcd60e51b8152600401610508906137e5565b600360009054906101000a90046001600160a01b03166001600160a01b031663c2fba6676040518163ffffffff1660e01b815260040160206040518083038186803b1580156110a957600080fd5b505afa1580156110bd573d6000803e3d6000fd5b505050506040513d601f19601f820116820180604052508101906110e19190613669565b81106111265760405162461bcd60e51b81526020600482015260146024820152730d2dcecc2d8d2c85ae4deeae8cae45ad2dcc8caf60631b6044820152606401610508565b816111315760045491505b603b82116111795760405162461bcd60e51b81526020600482015260156024820152741a5b9d985b1a590b5bdc9858db194b5c195c9a5bd9605a1b6044820152606401610508565b6004546005546040805192835260208301859052820152606081018290527f83bc5ab8030537fcf1d29c2334f6d22c26c82dcbe5ff03923d2cff5c692c0a7f9060800160405180910390a1600491909155600555565b6001546001600160a01b0316635dbe47e8336040516001600160e01b031960e084901b1681526001600160a01b03909116600482015260240160206040518083038186803b15801561122057600080fd5b505afa158015611234573d6000803e3d6000fd5b505050506040513d601f19601f820116820180604052508101906112589190613637565b6112745760405162461bcd60e51b8152600401610508906137b5565b610f98611ff3565b337f00000000000000000000000000000000000000000000000000000000000000006001600160a01b0316146112f05760405162461bcd60e51b815260206004820152601960248201527818d85b1b195c8b5a5ccb5b9bdd0b5d995cdc195c8b5c1bdbdb603a1b6044820152606401610508565b6001600160a01b0381166113465760405162461bcd60e51b815260206004820152601c60248201527f6e65772d73747261746567792d616464726573732d69732d7a65726f000000006044820152606401610508565b7f00000000000000000000000000000000000000000000000000000000000000006001600160a01b0316816001600160a01b03166316f0115b6040518163ffffffff1660e01b815260040160206040518083038186803b1580156113a957600080fd5b505afa1580156113bd573d6000803e3d6000fd5b505050506040513d601f19601f820116820180604052508101906113e191906134f5565b6001600160a01b0316146114305760405162461bcd60e51b81526020600482015260166024820152756e6f742d76616c69642d6e65772d737472617465677960501b6044820152606401610508565b611439816121ae565b6000546040516370a0823160e01b81523060048201526114cd9183916001600160a01b03909116906370a082319060240160206040518083038186803b15801561148257600080fd5b505afa158015611496573d6000803e3d6000fd5b505050506040513d601f19601f820116820180604052508101906114ba9190613669565b6000546001600160a01b03169190612256565b6040516370a0823160e01b81523060048201526105d39082906001600160a01b037f000000000000000000000000000000000000000000000000000000000000000016906370a08231906024015b60206040518083038186803b15801561153357600080fd5b505afa158015611547573d6000803e3d6000fd5b505050506040513d601f19601f8201168201806040525081019061156b9190613669565b6001600160a01b037f0000000000000000000000000000000000000000000000000000000000000000169190612256565b7f00000000000000000000000000000000000000000000000000000000000000006001600160a01b0316630c340a246040518163ffffffff1660e01b815260040160206040518083038186803b1580156115f557600080fd5b505afa158015611609573d6000803e3d6000fd5b505050506040513d601f19601f8201168201806040525081019061162d91906134f5565b6001600160a01b0316336001600160a01b03161461165d5760405162461bcd60e51b8152600401610508906137e5565b6001600160a01b0381166116b35760405162461bcd60e51b815260206004820152601d60248201527f6665652d636f6c6c6563746f722d616464726573732d69732d7a65726f0000006044820152606401610508565b6002546001600160a01b03828116911614156117095760405162461bcd60e51b81526020600482015260156024820152746665652d636f6c6c6563746f722d69732d73616d6560581b6044820152606401610508565b6002546040516001600160a01b038084169216907f0f06062680f9bd68e786e9980d9bb03d73d5620fc3b345e417b6eacb310b970690600090a3600280546001600160a01b0319166001600160a01b0392909216919091179055565b60405163331faf7160e21b81523060048201526000906117f490733d9819210a31b4961b30ef54be2aed79b9c9cd3b9063cc7ebdc4906024015b60206040518083038186803b1580156117b757600080fd5b505afa1580156117cb573d6000803e3d6000fd5b505050506040513d601f19601f820116820180604052508101906117ef9190613669565b6122b9565b905090565b6001546001600160a01b0316635dbe47e8336040516001600160e01b031960e084901b1681526001600160a01b03909116600482015260240160206040518083038186803b15801561184a57600080fd5b505afa15801561185e573d6000803e3d6000fd5b505050506040513d601f19601f820116820180604052508101906118829190613637565b61189e5760405162461bcd60e51b8152600401610508906137b5565b6002546001600160a01b03166118ee5760405162461bcd60e51b81526020600482015260156024820152741999594b58dbdb1b1958dd1bdc8b5b9bdd0b5cd95d605a1b6044820152606401610508565b7f00000000000000000000000000000000000000000000000000000000000000006001600160a01b0316816001600160a01b031614156119705760405162461bcd60e51b815260206004820152601f60248201527f6e6f742d616c6c6f7765642d746f2d73776565702d636f6c6c61746572616c006044820152606401610508565b61197981610a4d565b156119bd5760405162461bcd60e51b815260206004820152601460248201527306e6f742d616c6c6f7765642d746f2d73776565760641b6044820152606401610508565b6001600160a01b03811673eeeeeeeeeeeeeeeeeeeeeeeeeeeeeeeeeeeeeeee14156119fd576002546119f8906001600160a01b031647612411565b6105d3565b6040516370a0823160e01b81523060048201526000906001600160a01b038316906370a082319060240160206040518083038186803b158015611a3f57600080fd5b505afa158015611a53573d6000803e3d6000fd5b505050506040513d601f19601f82011682018060405250810190611a779190613669565b60025490915061084c906001600160a01b03848116911683612256565b6000611a9e61252a565b6040516370a0823160e01b81523060048201526117f49073c00e94cb662c3520282e6f5717214004a7f26888906370a082319060240161179f565b611ae2816125ff565b506040516370a0823160e01b81523060048201526105d3907f0000000000000000000000000000000000000000000000000000000000000000906001600160a01b037f000000000000000000000000000000000000000000000000000000000000000016906370a082319060240161151b565b604051636a9eee1360e11b81523060048201526000908190819081906001600160a01b037f0000000000000000000000000000000000000000000000000000000000000000169063d53ddc269060240160206040518083038186803b158015611bbd57600080fd5b505afa158015611bd1573d6000803e3d6000fd5b505050506040513d601f19601f82011682018060405250810190611bf59190613669565b604051639f2b283360e01b81523060048201529091506000906001600160a01b037f00000000000000000000000000000000000000000000000000000000000000001690639f2b28339060240160206040518083038186803b158015611c5a57600080fd5b505afa158015611c6e573d6000803e3d6000fd5b505050506040513d601f19601f82011682018060405250810190611c929190613669565b9050611c9d816126f5565b9450611ca88161280e565b9350611cb38261285f565b92505050909192565b6040516370a0823160e01b81523060048201526000907f00000000000000000000000000000000000000000000000000000000000000006001600160a01b0316906370a082319060240160206040518083038186803b158015611d1e57600080fd5b505afa158015611d32573d6000803e3d6000fd5b505050506040513d601f19601f82011682018060405250810190611d569190613669565b905080156105d35760075460405163140e25ad60e31b8152600481018390526001600160a01b039091169063a0712d6890602401602060405180830381600087803b158015611da457600080fd5b505af1158015611db8573d6000803e3d6000fd5b505050506040513d601f19601f82011682018060405250810190611ddc9190613669565b156105d35760405162461bcd60e51b815260206004820152601a60248201527f6465706f7369742d746f2d636f6d706f756e642d6661696c65640000000000006044820152606401610508565b611e7d6001600160a01b037f0000000000000000000000000000000000000000000000000000000000000000167f000000000000000000000000000000000000000000000000000000000000000083612870565b600754611eb7906001600160a01b037f00000000000000000000000000000000000000000000000000000000000000008116911683612870565b60005b600360009054906101000a90046001600160a01b03166001600160a01b031663c2fba6676040518163ffffffff1660e01b815260040160206040518083038186803b158015611f0857600080fd5b505afa158015611f1c573d6000803e3d6000fd5b505050506040513d601f19601f82011682018060405250810190611f409190613669565b81101561084c57600354604051636e74a6f760e01b815260048101839052611fe1916001600160a01b031690636e74a6f79060240160206040518083038186803b158015611f8d57600080fd5b505afa158015611fa1573d6000803e3d6000fd5b505050506040513d601f19601f82011682018060405250810190611fc591906134f5565b73c00e94cb662c3520282e6f5717214004a7f268889084612870565b80611feb8161394b565b915050611eba565b60035460048054600554604051630f30f2d360e21b81526001600160a01b0390941693633cc3cb4c936120569373c00e94cb662c3520282e6f5717214004a7f268889373c02aaa39b223fe8d0a0e5c4f27ead9083c756cc2939192909101613735565b602060405180830381600087803b15801561207057600080fd5b505af1158015612084573d6000803e3d6000fd5b505050506040513d601f19601f820116820180604052508101906120a891906134f5565b507f00000000000000000000000000000000000000000000000000000000000000006001600160a01b031673c02aaa39b223fe8d0a0e5c4f27ead9083c756cc214610f985760035460048054600554604051630f30f2d360e21b81526001600160a01b0390941693633cc3cb4c9361215c9373c02aaa39b223fe8d0a0e5c4f27ead9083c756cc2937f0000000000000000000000000000000000000000000000000000000000000000939192909101613735565b602060405180830381600087803b15801561217657600080fd5b505af115801561218a573d6000803e3d6000fd5b505050506040513d601f19601f820116820180604052508101906105d391906134f5565b6121b661252a565b6040516370a0823160e01b81523060048201526105d390829073c00e94cb662c3520282e6f5717214004a7f26888906370a082319060240160206040518083038186803b15801561220657600080fd5b505afa15801561221a573d6000803e3d6000fd5b505050506040513d601f19601f8201168201806040525081019061223e9190613669565b73c00e94cb662c3520282e6f5717214004a7f2688891905b6040516001600160a01b038316602482015260448101829052610ed990849063a9059cbb60e01b906064015b60408051601f198184030181529190526020810180516001600160e01b03166001600160e01b031990931692909217909152612994565b60008115612384576003546040516340b4c54560e11b81526001600160a01b03909116906381698a8a9061232c9073c00e94cb662c3520282e6f5717214004a7f26888907f0000000000000000000000000000000000000000000000000000000000000000908790600090600401613735565b60006040518083038186803b15801561234457600080fd5b505afa158015612358573d6000803e3d6000fd5b505050506040513d6000823e601f3d908101601f191682016040526123809190810190613511565b9150505b6007546040516370a0823160e01b8152306004820152612407916001600160a01b0316906370a08231906024015b60206040518083038186803b1580156123ca57600080fd5b505afa1580156123de573d6000803e3d6000fd5b505050506040513d601f19601f820116820180604052508101906124029190613669565b612a66565b610a8890826138ad565b804710156124615760405162461bcd60e51b815260206004820152601d60248201527f416464726573733a20696e73756666696369656e742062616c616e63650000006044820152606401610508565b6000826001600160a01b03168260405160006040518083038185875af1925050503d80600081146124ae576040519150601f19603f3d011682016040523d82523d6000602084013e6124b3565b606091505b5050905080610ed95760405162461bcd60e51b815260206004820152603a60248201527f416464726573733a20756e61626c6520746f2073656e642076616c75652c207260448201527f6563697069656e74206d617920686176652072657665727465640000000000006064820152608401610508565b60408051600180825281830190925260009160208083019080368337505060075482519293506001600160a01b03169183915060009061257a57634e487b7160e01b600052603260045260246000fd5b6001600160a01b039092166020928302919091019091015260405162e1ed9760e51b8152733d9819210a31b4961b30ef54be2aed79b9c9cd3b90631c3db2e0906125ca903090859060040161375e565b600060405180830381600087803b1580156125e457600080fd5b505af11580156125f8573d6000803e3d6000fd5b5050505050565b6007546040516370a0823160e01b81523060048201526000918291612636916001600160a01b0316906370a08231906024016123b2565b90506000600760009054906101000a90046001600160a01b03166001600160a01b0316633b1d21a26040518163ffffffff1660e01b815260040160206040518083038186803b15801561268857600080fd5b505afa15801561269c573d6000803e3d6000fd5b505050506040513d601f19601f820116820180604052508101906126c09190613669565b905060008185106126d157816126d3565b845b90506126ec8382106126e557836126e7565b815b612b0b565b95945050505050565b60006127207f0000000000000000000000000000000000000000000000000000000000000000612be2565b6007546040516370a0823160e01b8152306004820152600091612757916001600160a01b03909116906370a08231906024016123b2565b9050828111156127705761276e6126e78483613904565b505b6040516370a0823160e01b81523060048201527f00000000000000000000000000000000000000000000000000000000000000006001600160a01b0316906370a082319060240160206040518083038186803b1580156127cf57600080fd5b505afa1580156127e3573d6000803e3d6000fd5b505050506040513d601f19601f820116820180604052508101906128079190613669565b9392505050565b6007546040516370a0823160e01b81523060048201526000918291612845916001600160a01b0316906370a08231906024016123b2565b905082811015612859576128078184613904565b50919050565b60008115610a8b57610a88826125ff565b8015806128f95750604051636eb1769f60e11b81523060048201526001600160a01b03838116602483015284169063dd62ed3e9060440160206040518083038186803b1580156128bf57600080fd5b505afa1580156128d3573d6000803e3d6000fd5b505050506040513d601f19601f820116820180604052508101906128f79190613669565b155b6129645760405162461bcd60e51b815260206004820152603660248201527f5361666545524332303a20617070726f76652066726f6d206e6f6e2d7a65726f60448201527520746f206e6f6e2d7a65726f20616c6c6f77616e636560501b6064820152608401610508565b6040516001600160a01b038316602482015260448101829052610ed990849063095ea7b360e01b90606401612282565b60006129e9826040518060400160405280602081526020017f5361666545524332303a206c6f772d6c6576656c2063616c6c206661696c6564815250856001600160a01b0316612ce09092919063ffffffff16565b805190915015610ed95780806020019051810190612a079190613637565b610ed95760405162461bcd60e51b815260206004820152602a60248201527f5361666545524332303a204552433230206f7065726174696f6e20646964206e6044820152691bdd081cdd58d8d9595960b21b6064820152608401610508565b6000670de0b6b3a7640000600760009054906101000a90046001600160a01b03166001600160a01b031663182df0f56040518163ffffffff1660e01b815260040160206040518083038186803b158015612abf57600080fd5b505afa158015612ad3573d6000803e3d6000fd5b505050506040513d601f19601f82011682018060405250810190612af79190613669565b612b0190846138e5565b610a8891906138c5565b60008115612bde5760075460405163852a12e360e01b8152600481018490526001600160a01b039091169063852a12e390602401602060405180830381600087803b158015612b5957600080fd5b505af1158015612b6d573d6000803e3d6000fd5b505050506040513d601f19601f82011682018060405250810190612b919190613669565b15612bde5760405162461bcd60e51b815260206004820152601d60248201527f77697468647261772d66726f6d2d636f6d706f756e642d6661696c65640000006044820152606401610508565b5090565b612bea61252a565b6040516370a0823160e01b815230600482015260009073c00e94cb662c3520282e6f5717214004a7f26888906370a082319060240160206040518083038186803b158015612c3757600080fd5b505afa158015612c4b573d6000803e3d6000fd5b505050506040513d601f19601f82011682018060405250810190612c6f9190613669565b9050801561084c5760006006546127101415612c8c576001612cbe565b612cbe612cb6612cb073c00e94cb662c3520282e6f5717214004a7f2688886612cf7565b84612ef0565b60065461301b565b9050610ed973c00e94cb662c3520282e6f5717214004a7f2688884848461303e565b6060612cef84846000856131ff565b949350505050565b60606001600160a01b03831673c02aaa39b223fe8d0a0e5c4f27ead9083c756cc21480612d4057506001600160a01b03821673c02aaa39b223fe8d0a0e5c4f27ead9083c756cc2145b15612dee5760408051600280825260608201835290916020830190803683370190505090508281600081518110612d8757634e487b7160e01b600052603260045260246000fd5b60200260200101906001600160a01b031690816001600160a01b0316815250508181600181518110612dc957634e487b7160e01b600052603260045260246000fd5b60200260200101906001600160a01b031690816001600160a01b031681525050612eea565b6040805160038082526080820190925290602082016060803683370190505090508281600081518110612e3157634e487b7160e01b600052603260045260246000fd5b60200260200101906001600160a01b031690816001600160a01b03168152505073c02aaa39b223fe8d0a0e5c4f27ead9083c756cc281600181518110612e8757634e487b7160e01b600052603260045260246000fd5b60200260200101906001600160a01b031690816001600160a01b0316815250508181600281518110612ec957634e487b7160e01b600052603260045260246000fd5b60200260200101906001600160a01b031690816001600160a01b0316815250505b92915050565b60006001835111612f395760405162461bcd60e51b81526020600482015260136024820152720d2dcecc2d8d2c85adee4c2c6d8ca5ae0c2e8d606b1b6044820152606401610508565b50806000805b60018551612f4d9190613904565b81101561301357612fb9858281518110612f7757634e487b7160e01b600052603260045260246000fd5b602002602001015186836001612f8d91906138ad565b81518110612fab57634e487b7160e01b600052603260045260246000fd5b602002602001015185613327565b9093509150816130015760405162461bcd60e51b8152602060048201526013602482015272696e76616c69642d6f7261636c652d7261746560681b6044820152606401610508565b8061300b8161394b565b915050612f3f565b505092915050565b600061271061302a8382613904565b61303490856138e5565b61280791906138c5565b600354604051631d1f307960e31b81526001600160a01b038681166004830152858116602483015260448201859052600092839283929091169063e8f983c89060640160006040518083038186803b15801561309957600080fd5b505afa1580156130ad573d6000803e3d6000fd5b505050506040513d6000823e601f3d908101601f191682016040526130d59190810190613556565b92509250925083600014156130e957600193505b81156131f657600354604051636e74a6f760e01b8152600481018390526001600160a01b0390911690636e74a6f79060240160206040518083038186803b15801561313357600080fd5b505afa158015613147573d6000803e3d6000fd5b505050506040513d601f19601f8201168201806040525081019061316b91906134f5565b6001600160a01b03166338ed173986868630426040518663ffffffff1660e01b815260040161319e95949392919061381c565b600060405180830381600087803b1580156131b857600080fd5b505af11580156131cc573d6000803e3d6000fd5b505050506040513d6000823e601f3d908101601f191682016040526131f491908101906135a4565b505b50505050505050565b6060824710156132605760405162461bcd60e51b815260206004820152602660248201527f416464726573733a20696e73756666696369656e742062616c616e636520666f6044820152651c8818d85b1b60d21b6064820152608401610508565b843b6132ae5760405162461bcd60e51b815260206004820152601d60248201527f416464726573733a2063616c6c20746f206e6f6e2d636f6e74726163740000006044820152606401610508565b600080866001600160a01b031685876040516132ca9190613719565b60006040518083038185875af1925050503d8060008114613307576040519150601f19603f3d011682016040523d82523d6000602084013e61330c565b606091505b509150915061331c828286613418565b979650505050505050565b6003546004805460055460405163b67bb24d60e01b81526001600160a01b038881169482019490945286841660248201526044810186905260648101929092526084820152600092839283928392919091169063b67bb24d9060a401606060405180830381600087803b15801561339d57600080fd5b505af11580156133b1573d6000803e3d6000fd5b505050506040513d601f19601f820116820180604052508101906133d591906136a2565b5091509150600454426133e89190613904565b811180156133f557508115155b156134065750915060019050613410565b6000809350935050505b935093915050565b60608315613427575081612807565b8251156134375782518084602001fd5b8160405162461bcd60e51b81526004016105089190613782565b600082601f830112613461578081fd5b8151602061347661347183613889565b613858565b80838252828201915082860187848660051b8901011115613495578586fd5b855b858110156134bc5781516134aa81613992565b84529284019290840190600101613497565b5090979650505050505050565b80518015158114610a8b57600080fd5b6000602082840312156134ea578081fd5b813561280781613992565b600060208284031215613506578081fd5b815161280781613992565b60008060408385031215613523578081fd5b825167ffffffffffffffff811115613539578182fd5b61354585828601613451565b925050602083015190509250929050565b60008060006060848603121561356a578081fd5b835167ffffffffffffffff811115613580578182fd5b61358c86828701613451565b93505060208401519150604084015190509250925092565b600060208083850312156135b6578182fd5b825167ffffffffffffffff8111156135cc578283fd5b8301601f810185136135dc578283fd5b80516135ea61347182613889565b80828252848201915084840188868560051b8701011115613609578687fd5b8694505b8385101561362b57805183526001949094019391850191850161360d565b50979650505050505050565b600060208284031215613648578081fd5b612807826134c9565b600060208284031215613662578081fd5b5035919050565b60006020828403121561367a578081fd5b5051919050565b60008060408385031215613693578182fd5b50508035926020909101359150565b6000806000606084860312156136b6578283fd5b83519250602084015191506136cd604085016134c9565b90509250925092565b6000815180845260208085019450808401835b8381101561370e5781516001600160a01b0316875295820195908201906001016136e9565b509495945050505050565b6000825161372b81846020870161391b565b9190910192915050565b6001600160a01b0394851681529290931660208301526040820152606081019190915260800190565b6001600160a01b0383168152604060208201819052600090612cef908301846136d6565b60006020825282518060208401526137a181604085016020870161391b565b601f01601f19169190910160400192915050565b60208082526016908201527531b0b63632b916b4b996b737ba16b096b5b2b2b832b960511b604082015260600190565b6020808252601a908201527f63616c6c65722d69732d6e6f742d7468652d676f7665726e6f72000000000000604082015260600190565b600086825285602083015260a0604083015261383b60a08301866136d6565b6001600160a01b0394909416606083015250608001529392505050565b604051601f8201601f1916810167ffffffffffffffff811182821017156138815761388161397c565b604052919050565b600067ffffffffffffffff8211156138a3576138a361397c565b5060051b60200190565b600082198211156138c0576138c0613966565b500190565b6000826138e057634e487b7160e01b81526012600452602481fd5b500490565b60008160001904831182151516156138ff576138ff613966565b500290565b60008282101561391657613916613966565b500390565b60005b8381101561393657818101518382015260200161391e565b83811115613945576000848401525b50505050565b600060001982141561395f5761395f613966565b5060010190565b634e487b7160e01b600052601160045260246000fd5b634e487b7160e01b600052604160045260246000fd5b6001600160a01b03811681146105d357600080fdfea2646970667358221220e8252288865d4e38e7337f4195d013309440fa0e9bdb7196d0f9717fcd27d01764736f6c63430008030033",
  "devdoc": {
    "kind": "dev",
    "methods": {
      "addKeeper(address)": {
        "params": {
          "_keeperAddress": "keeper address to add."
        }
      },
      "approveToken()": {
        "details": "Approve all required tokens"
      },
      "convertFrom18(uint256)": {
        "details": "Convert from 18 decimals to token defined decimals. Default no conversion."
      },
      "init(address)": {
        "params": {
          "_addressListFactory": "To support same code in eth side chain, user _addressListFactory as param ethereum- 0xded8217De022706A191eE7Ee0Dc9df1185Fb5dA3 polygon-0xD10D5696A350D65A9AA15FE8B258caB4ab1bF291"
        }
      },
      "migrate(address)": {
        "details": "_beforeMigration hook can be implemented in child strategy to do extra steps.",
        "params": {
          "_newStrategy": "Address of new strategy"
        }
      },
      "rebalance()": {
        "details": "Rebalance profit, loss and investment of this strategy"
      },
      "removeKeeper(address)": {
        "params": {
          "_keeperAddress": "keeper address to remove."
        }
      },
      "sweepERC20(address)": {
        "details": "sweep given token to feeCollector of strategy",
        "params": {
          "_fromToken": "token address to sweep"
        }
      },
      "totalValue()": {
        "details": "Report total value in collateral token"
      },
      "totalValueCurrent()": {
        "details": "Report total value in collateral token"
      },
      "updateFeeCollector(address)": {
        "params": {
          "_feeCollector": "fee collector address"
        }
      },
      "updateSwapManager(address)": {
        "params": {
          "_swapManager": "swap manager address"
        }
      },
      "withdraw(uint256)": {
        "details": "Withdraw collateral token from lending pool.",
        "params": {
          "_amount": "Amount of collateral token"
        }
      }
    },
    "title": "Deposit USDC in Compound and earn interest.",
    "version": 1
  },
  "userdoc": {
    "kind": "user",
    "methods": {
      "addKeeper(address)": {
        "notice": "Add given address in keepers list."
      },
      "init(address)": {
        "notice": "Create keeper list NOTE: Any function with onlyKeeper modifier will not work until this function is called. NOTE: Due to gas constraint this function cannot be called in constructor."
      },
      "isReservedToken(address)": {
        "notice": "Check whether given token is reserved or not. Reserved tokens are not allowed to sweep."
      },
      "migrate(address)": {
        "notice": "Migrate all asset and vault ownership,if any, to new strategy"
      },
      "removeKeeper(address)": {
        "notice": "Remove given address from keepers list."
      },
      "token()": {
        "notice": "Returns address of token correspond to collateral token"
      },
      "totalValue()": {
        "notice": "Calculate total value using COMP accrued and cToken"
      },
      "totalValueCurrent()": {
        "notice": "Calculate total value of asset under management (in real-time)"
      },
      "updateFeeCollector(address)": {
        "notice": "Update fee collector"
      },
      "updateSwapManager(address)": {
        "notice": "Update swap manager address"
      }
    },
    "version": 1
  },
  "storageLayout": {
    "storage": [
      {
        "astId": 13227,
        "contract": "contracts/strategies/compound/CompoundStrategyUSDC.sol:CompoundStrategyUSDC",
        "label": "receiptToken",
        "offset": 0,
        "slot": "0",
        "type": "t_address"
      },
      {
        "astId": 13233,
        "contract": "contracts/strategies/compound/CompoundStrategyUSDC.sol:CompoundStrategyUSDC",
        "label": "keepers",
        "offset": 0,
        "slot": "1",
        "type": "t_contract(IAddressList)4281"
      },
      {
        "astId": 13236,
        "contract": "contracts/strategies/compound/CompoundStrategyUSDC.sol:CompoundStrategyUSDC",
        "label": "feeCollector",
        "offset": 0,
        "slot": "2",
        "type": "t_address"
      },
      {
        "astId": 13239,
        "contract": "contracts/strategies/compound/CompoundStrategyUSDC.sol:CompoundStrategyUSDC",
        "label": "swapManager",
        "offset": 0,
        "slot": "3",
        "type": "t_contract(ISwapManager)4584"
      },
      {
        "astId": 13242,
        "contract": "contracts/strategies/compound/CompoundStrategyUSDC.sol:CompoundStrategyUSDC",
        "label": "oraclePeriod",
        "offset": 0,
        "slot": "4",
        "type": "t_uint256"
      },
      {
        "astId": 13245,
        "contract": "contracts/strategies/compound/CompoundStrategyUSDC.sol:CompoundStrategyUSDC",
        "label": "oracleRouterIdx",
        "offset": 0,
        "slot": "5",
        "type": "t_uint256"
      },
      {
        "astId": 13248,
        "contract": "contracts/strategies/compound/CompoundStrategyUSDC.sol:CompoundStrategyUSDC",
        "label": "swapSlippage",
        "offset": 0,
        "slot": "6",
        "type": "t_uint256"
      },
      {
        "astId": 19970,
        "contract": "contracts/strategies/compound/CompoundStrategyUSDC.sol:CompoundStrategyUSDC",
        "label": "cToken",
        "offset": 0,
        "slot": "7",
        "type": "t_contract(CToken)4714"
      }
    ],
    "types": {
      "t_address": {
        "encoding": "inplace",
        "label": "address",
        "numberOfBytes": "20"
      },
      "t_contract(CToken)4714": {
        "encoding": "inplace",
        "label": "contract CToken",
        "numberOfBytes": "20"
      },
      "t_contract(IAddressList)4281": {
        "encoding": "inplace",
        "label": "contract IAddressList",
        "numberOfBytes": "20"
      },
      "t_contract(ISwapManager)4584": {
        "encoding": "inplace",
        "label": "contract ISwapManager",
        "numberOfBytes": "20"
      },
      "t_uint256": {
        "encoding": "inplace",
        "label": "uint256",
        "numberOfBytes": "32"
      }
    }
  }
}