{
  "address": "0x0C712Fa5BA0DC3FC46caBEf2D373c4F9f5e29cE3",
  "abi": [
    {
      "inputs": [
        {
          "internalType": "address",
          "name": "_pool",
          "type": "address"
        },
        {
          "internalType": "address",
          "name": "_swapManager",
          "type": "address"
        }
      ],
      "stateMutability": "nonpayable",
      "type": "constructor"
    },
    {
      "anonymous": false,
      "inputs": [
        {
          "indexed": false,
          "internalType": "string",
          "name": "reason",
          "type": "string"
        }
      ],
      "name": "DepositFailed",
      "type": "event"
    },
    {
      "anonymous": false,
      "inputs": [
        {
          "indexed": false,
          "internalType": "uint256",
          "name": "oldSlippage",
          "type": "uint256"
        },
        {
          "indexed": false,
          "internalType": "uint256",
          "name": "newSlippage",
          "type": "uint256"
        }
      ],
      "name": "UpdatedDepositSlippage",
      "type": "event"
    },
    {
      "anonymous": false,
      "inputs": [
        {
          "indexed": true,
          "internalType": "address",
          "name": "previousFeeCollector",
          "type": "address"
        },
        {
          "indexed": true,
          "internalType": "address",
          "name": "newFeeCollector",
          "type": "address"
        }
      ],
      "name": "UpdatedFeeCollector",
      "type": "event"
    },
    {
      "anonymous": false,
      "inputs": [
        {
          "indexed": true,
          "internalType": "address",
          "name": "previousSwapManager",
          "type": "address"
        },
        {
          "indexed": true,
          "internalType": "address",
          "name": "newSwapManager",
          "type": "address"
        }
      ],
      "name": "UpdatedSwapManager",
      "type": "event"
    },
    {
      "inputs": [
        {
          "internalType": "uint256",
          "name": "",
          "type": "uint256"
        }
      ],
      "name": "COINS",
      "outputs": [
        {
          "internalType": "string",
          "name": "",
          "type": "string"
        }
      ],
      "stateMutability": "view",
      "type": "function"
    },
    {
      "inputs": [
        {
          "internalType": "uint256",
          "name": "",
          "type": "uint256"
        }
      ],
      "name": "COIN_ADDRS",
      "outputs": [
        {
          "internalType": "address",
          "name": "",
          "type": "address"
        }
      ],
      "stateMutability": "view",
      "type": "function"
    },
    {
      "inputs": [],
      "name": "CRV",
      "outputs": [
        {
          "internalType": "address",
          "name": "",
          "type": "address"
        }
      ],
      "stateMutability": "view",
      "type": "function"
    },
    {
      "inputs": [],
      "name": "CRV_MINTER",
      "outputs": [
        {
          "internalType": "address",
          "name": "",
          "type": "address"
        }
      ],
      "stateMutability": "view",
      "type": "function"
    },
    {
      "inputs": [
        {
          "internalType": "uint256",
          "name": "",
          "type": "uint256"
        }
      ],
      "name": "DECIMALS",
      "outputs": [
        {
          "internalType": "uint256",
          "name": "",
          "type": "uint256"
        }
      ],
      "stateMutability": "view",
      "type": "function"
    },
    {
      "inputs": [],
      "name": "GAUGE",
      "outputs": [
        {
          "internalType": "address",
          "name": "",
          "type": "address"
        }
      ],
      "stateMutability": "view",
      "type": "function"
    },
    {
      "inputs": [],
      "name": "N",
      "outputs": [
        {
          "internalType": "uint256",
          "name": "",
          "type": "uint256"
        }
      ],
      "stateMutability": "view",
      "type": "function"
    },
    {
      "inputs": [],
      "name": "NAME",
      "outputs": [
        {
          "internalType": "string",
          "name": "",
          "type": "string"
        }
      ],
      "stateMutability": "view",
      "type": "function"
    },
    {
      "inputs": [],
      "name": "ORACLE_PERIOD",
      "outputs": [
        {
          "internalType": "uint256",
          "name": "",
          "type": "uint256"
        }
      ],
      "stateMutability": "view",
      "type": "function"
    },
    {
      "inputs": [],
      "name": "THREECRV",
      "outputs": [
        {
          "internalType": "address",
          "name": "",
          "type": "address"
        }
      ],
      "stateMutability": "view",
      "type": "function"
    },
    {
      "inputs": [],
      "name": "THREEPOOL",
      "outputs": [
        {
          "internalType": "contract IStableSwap3Pool",
          "name": "",
          "type": "address"
        }
      ],
      "stateMutability": "view",
      "type": "function"
    },
    {
      "inputs": [],
      "name": "VERSION",
      "outputs": [
        {
          "internalType": "string",
          "name": "",
          "type": "string"
        }
      ],
      "stateMutability": "view",
      "type": "function"
    },
    {
      "inputs": [
        {
          "internalType": "address",
          "name": "_keeperAddress",
          "type": "address"
        }
      ],
      "name": "addKeeper",
      "outputs": [],
      "stateMutability": "nonpayable",
      "type": "function"
    },
    {
      "inputs": [],
      "name": "approveToken",
      "outputs": [],
      "stateMutability": "nonpayable",
      "type": "function"
    },
    {
      "inputs": [
        {
          "internalType": "uint256",
          "name": "_amtNeeded",
          "type": "uint256"
        },
        {
          "internalType": "uint256",
          "name": "i",
          "type": "uint256"
        }
      ],
      "name": "calcWithdrawLpAs",
      "outputs": [
        {
          "internalType": "uint256",
          "name": "lpToWithdraw",
          "type": "uint256"
        },
        {
          "internalType": "uint256",
          "name": "unstakeAmt",
          "type": "uint256"
        }
      ],
      "stateMutability": "view",
      "type": "function"
    },
    {
      "inputs": [],
      "name": "claimableRewards",
      "outputs": [
        {
          "internalType": "uint256",
          "name": "",
          "type": "uint256"
        }
      ],
      "stateMutability": "view",
      "type": "function"
    },
    {
      "inputs": [],
      "name": "collIdx",
      "outputs": [
        {
          "internalType": "uint256",
          "name": "",
          "type": "uint256"
        }
      ],
      "stateMutability": "view",
      "type": "function"
    },
    {
      "inputs": [],
      "name": "collateralToken",
      "outputs": [
        {
          "internalType": "contract IERC20",
          "name": "",
          "type": "address"
        }
      ],
      "stateMutability": "view",
      "type": "function"
    },
    {
      "inputs": [
        {
          "internalType": "uint256",
          "name": "amount",
          "type": "uint256"
        }
      ],
      "name": "convertFrom18",
      "outputs": [
        {
          "internalType": "uint256",
          "name": "",
          "type": "uint256"
        }
      ],
      "stateMutability": "pure",
      "type": "function"
    },
    {
      "inputs": [],
      "name": "crvGauge",
      "outputs": [
        {
          "internalType": "address",
          "name": "",
          "type": "address"
        }
      ],
      "stateMutability": "view",
      "type": "function"
    },
    {
      "inputs": [],
      "name": "crvLp",
      "outputs": [
        {
          "internalType": "address",
          "name": "",
          "type": "address"
        }
      ],
      "stateMutability": "view",
      "type": "function"
    },
    {
      "inputs": [],
      "name": "crvPool",
      "outputs": [
        {
          "internalType": "address",
          "name": "",
          "type": "address"
        }
      ],
      "stateMutability": "view",
      "type": "function"
    },
    {
      "inputs": [],
      "name": "depositError",
      "outputs": [
        {
          "internalType": "bool",
          "name": "",
          "type": "bool"
        }
      ],
      "stateMutability": "view",
      "type": "function"
    },
    {
      "inputs": [],
      "name": "depositSlippage",
      "outputs": [
        {
          "internalType": "uint256",
          "name": "",
          "type": "uint256"
        }
      ],
      "stateMutability": "view",
      "type": "function"
    },
    {
      "inputs": [
        {
          "internalType": "uint256",
          "name": "_amount",
          "type": "uint256"
        }
      ],
      "name": "estimateFeeImpact",
      "outputs": [
        {
          "internalType": "uint256",
          "name": "",
          "type": "uint256"
        }
      ],
      "stateMutability": "view",
      "type": "function"
    },
    {
      "inputs": [],
      "name": "estimatedFees",
      "outputs": [
        {
          "internalType": "uint256",
          "name": "",
          "type": "uint256"
        }
      ],
      "stateMutability": "view",
      "type": "function"
    },
    {
      "inputs": [],
      "name": "feeCollector",
      "outputs": [
        {
          "internalType": "address",
          "name": "",
          "type": "address"
        }
      ],
      "stateMutability": "view",
      "type": "function"
    },
    {
      "inputs": [
        {
          "internalType": "uint256",
          "name": "_lpAmount",
          "type": "uint256"
        }
      ],
      "name": "getLpValue",
      "outputs": [
        {
          "internalType": "uint256",
          "name": "",
          "type": "uint256"
        }
      ],
      "stateMutability": "view",
      "type": "function"
    },
    {
      "inputs": [
        {
          "internalType": "uint256",
          "name": "_lpAmount",
          "type": "uint256"
        },
        {
          "internalType": "uint256",
          "name": "i",
          "type": "uint256"
        }
      ],
      "name": "getLpValueAs",
      "outputs": [
        {
          "internalType": "uint256",
          "name": "",
          "type": "uint256"
        }
      ],
      "stateMutability": "view",
      "type": "function"
    },
    {
      "inputs": [
        {
          "internalType": "address",
          "name": "_addressListFactory",
          "type": "address"
        }
      ],
      "name": "init",
      "outputs": [],
      "stateMutability": "nonpayable",
      "type": "function"
    },
    {
      "inputs": [
        {
          "internalType": "address",
          "name": "_token",
          "type": "address"
        }
      ],
      "name": "isReservedToken",
      "outputs": [
        {
          "internalType": "bool",
          "name": "",
          "type": "bool"
        }
      ],
      "stateMutability": "view",
      "type": "function"
    },
    {
      "inputs": [],
      "name": "keepers",
      "outputs": [
        {
          "internalType": "contract IAddressList",
          "name": "",
          "type": "address"
        }
      ],
      "stateMutability": "view",
      "type": "function"
    },
    {
      "inputs": [
        {
          "internalType": "address",
          "name": "_newStrategy",
          "type": "address"
        }
      ],
      "name": "migrate",
      "outputs": [],
      "stateMutability": "nonpayable",
      "type": "function"
    },
    {
      "inputs": [],
      "name": "pool",
      "outputs": [
        {
          "internalType": "address",
          "name": "",
          "type": "address"
        }
      ],
      "stateMutability": "view",
      "type": "function"
    },
    {
      "inputs": [],
      "name": "rebalance",
      "outputs": [],
      "stateMutability": "nonpayable",
      "type": "function"
    },
    {
      "inputs": [],
      "name": "receiptToken",
      "outputs": [
        {
          "internalType": "address",
          "name": "",
          "type": "address"
        }
      ],
      "stateMutability": "view",
      "type": "function"
    },
    {
      "inputs": [
        {
          "internalType": "address",
          "name": "_keeperAddress",
          "type": "address"
        }
      ],
      "name": "removeKeeper",
      "outputs": [],
      "stateMutability": "nonpayable",
      "type": "function"
    },
    {
      "inputs": [],
      "name": "setCheckpoint",
      "outputs": [],
      "stateMutability": "nonpayable",
      "type": "function"
    },
    {
      "inputs": [],
      "name": "swapManager",
      "outputs": [
        {
          "internalType": "contract ISwapManager",
          "name": "",
          "type": "address"
        }
      ],
      "stateMutability": "view",
      "type": "function"
    },
    {
      "inputs": [
        {
          "internalType": "address",
          "name": "_fromToken",
          "type": "address"
        }
      ],
      "name": "sweepERC20",
      "outputs": [],
      "stateMutability": "nonpayable",
      "type": "function"
    },
    {
      "inputs": [],
      "name": "token",
      "outputs": [
        {
          "internalType": "address",
          "name": "",
          "type": "address"
        }
      ],
      "stateMutability": "view",
      "type": "function"
    },
    {
      "inputs": [],
      "name": "totalLp",
      "outputs": [
        {
          "internalType": "uint256",
          "name": "total",
          "type": "uint256"
        }
      ],
      "stateMutability": "view",
      "type": "function"
    },
    {
      "inputs": [],
      "name": "totalValue",
      "outputs": [
        {
          "internalType": "uint256",
          "name": "_value",
          "type": "uint256"
        }
      ],
      "stateMutability": "view",
      "type": "function"
    },
    {
      "inputs": [
        {
          "internalType": "uint256",
          "name": "_newSlippage",
          "type": "uint256"
        }
      ],
      "name": "updateDepositSlippage",
      "outputs": [],
      "stateMutability": "nonpayable",
      "type": "function"
    },
    {
      "inputs": [
        {
          "internalType": "address",
          "name": "_feeCollector",
          "type": "address"
        }
      ],
      "name": "updateFeeCollector",
      "outputs": [],
      "stateMutability": "nonpayable",
      "type": "function"
    },
    {
      "inputs": [
        {
          "internalType": "address",
          "name": "_swapManager",
          "type": "address"
        }
      ],
      "name": "updateSwapManager",
      "outputs": [],
      "stateMutability": "nonpayable",
      "type": "function"
    },
    {
      "inputs": [],
      "name": "usdRate",
      "outputs": [
        {
          "internalType": "uint256",
          "name": "",
          "type": "uint256"
        }
      ],
      "stateMutability": "view",
      "type": "function"
    },
    {
      "inputs": [],
      "name": "usdRateTimestamp",
      "outputs": [
        {
          "internalType": "uint256",
          "name": "",
          "type": "uint256"
        }
      ],
      "stateMutability": "view",
      "type": "function"
    },
    {
      "inputs": [
        {
          "internalType": "uint256",
          "name": "_amount",
          "type": "uint256"
        }
      ],
      "name": "withdraw",
      "outputs": [],
      "stateMutability": "nonpayable",
      "type": "function"
    }
  ],
  "transactionHash": "0x1e69fcef8905216617ef70c398fc7bb3f863179bf7589152d8a6d900bf93c875",
  "args": [
    "0x8b3C8626cbfaA71d44bd76C1304214f4858E3639",
    "0xb3361918F2651409a6302DcEC2B1F0C6241fEC2e"
  ],
  "solcInputHash": "5faedc222364d5f9d97d6aa219760ccc",
  "bytecode": "0x60036101c08181526244414960e81b6101e0526101609081526004610200818152635553444360e01b6102205261018052610280604052610240908152631554d11560e21b610260526101a0526200005b9160009190620007b7565b5060408051606081018252736b175474e89094c44da98b954eedeac495271d0f815273a0b86991c6218b36c1d19d4a2e9eb0ce3606eb48602082015273dac17f958d2ee523a2206206994597c13d831ec791810191909152620000c290600390816200080e565b506040805160608101825260128152600660208201819052918101829052620000ee9190600362000867565b506101f46011553480156200010257600080fd5b5060405162004fba38038062004fba8339810160408190526200012591620009ba565b818160008282736c3f90f043a72fa612cbac8115ee7e52bde6e49073bebc44782c7db0a1a60cb6fe97d0b483032ff1c78173bfcf63294ad7105dea65aa58f8ae5be2d9d0952a6200017a565b60405180910390fd5b6001600160a01b038216620001d25760405162461bcd60e51b815260206004820152601860248201527f4352564d67723a20696e76616c6964206c7020746f6b656e0000000000000000604482015260640162000171565b6001600160a01b0381166200022a5760405162461bcd60e51b815260206004820152601560248201527f4352564d67723a20696e76616c69642067617567650000000000000000000000604482015260640162000171565b6001600160601b0319606093841b811660805291831b821660a05290911b1660c0526001600160a01b038316620002a45760405162461bcd60e51b815260206004820152601460248201527f706f6f6c2d616464726573732d69732d7a65726f000000000000000000000000604482015260640162000171565b6001600160a01b038216620002f15760405162461bcd60e51b8152602060048201526012602482015271736d2d616464726573732d69732d7a65726f60701b604482015260640162000171565b600b80546001600160a01b0319166001600160a01b0384811691909117909155606084901b6001600160601b0319166101205260408051637e062a3560e11b815290519185169163fc0c546a91600480820192602092909190829003018186803b1580156200035f57600080fd5b505afa15801562000374573d6000803e3d6000fd5b505050506040513d601f19601f820116820180604052508101906200039a919062000994565b6001600160601b0319606091821b811660e05291901b1661010052505060038110620004095760405162461bcd60e51b815260206004820152601c60248201527f496e76616c696420636f6c6c61746572616c20666f722033506f6f6c00000000604482015260640162000171565b826001600160a01b031663fc0c546a6040518163ffffffff1660e01b815260040160206040518083038186803b1580156200044357600080fd5b505afa15801562000458573d6000803e3d6000fd5b505050506040513d601f19601f820116820180604052508101906200047e919062000994565b6001600160a01b031660038260038110620004a957634e487b7160e01b600052603260045260246000fd5b01546001600160a01b031614620005035760405162461bcd60e51b815260206004820152601960248201527f436f6c6c61746572616c20646f6573206e6f74206d6174636800000000000000604482015260640162000171565b600c6020527f9c9b4dd64bedd55eab545df24c51a45b7ee75f381e872264963530ae5325b4658054600160ff19918216811790925573d533a949740bb3306d119cc777fa900ba034cd526000527f81a0871aad47152ce487f66bcde625bb29d1a22b63052928024f6ac66d6b2517805490911690911790556101408190526200058b62000596565b505050505062000a73565b600b54604051630f30f2d360e21b815273d533a949740bb3306d119cc777fa900ba034cd52600482015273c02aaa39b223fe8d0a0e5c4f27ead9083c756cc26024820152610e10604482015260006064820152600d916001600160a01b031690633cc3cb4c90608401602060405180830381600087803b1580156200061a57600080fd5b505af11580156200062f573d6000803e3d6000fd5b505050506040513d601f19601f8201168201806040525081019062000655919062000994565b81546001810183556000928352602083200180546001600160a01b0319166001600160a01b03929092169190911790555b6003811015620007b457600b54600d906001600160a01b0316633cc3cb4c600384818110620006c557634e487b7160e01b600052603260045260246000fd5b015460405160e083901b6001600160e01b03191681526001600160a01b03909116600482015273c02aaa39b223fe8d0a0e5c4f27ead9083c756cc26024820152610e10604482015260006064820152608401602060405180830381600087803b1580156200073257600080fd5b505af115801562000747573d6000803e3d6000fd5b505050506040513d601f19601f820116820180604052508101906200076d919062000994565b81546001810183556000928352602090922090910180546001600160a01b0319166001600160a01b0390921691909117905580620007ab8162000a35565b91505062000686565b50565b8260038101928215620007fc579160200282015b82811115620007fc5782518051620007eb9184916020909101906200089d565b5091602001919060010190620007cb565b506200080a9291506200091a565b5090565b826003810192821562000859579160200282015b828111156200085957825182546001600160a01b0319166001600160a01b0390911617825560209092019160019091019062000822565b506200080a9291506200093b565b826003810192821562000859579160200282015b8281111562000859578251829060ff169055916020019190600101906200087b565b828054620008ab90620009f8565b90600052602060002090601f016020900481019282620008cf576000855562000859565b82601f10620008ea57805160ff191683800117855562000859565b8280016001018555821562000859579182015b8281111562000859578251825591602001919060010190620008fd565b808211156200080a57600062000931828262000952565b506001016200091a565b5b808211156200080a57600081556001016200093c565b5080546200096090620009f8565b6000825580601f10620009745750620007b4565b601f016020900490600052602060002090810190620007b491906200093b565b600060208284031215620009a6578081fd5b8151620009b38162000a5d565b9392505050565b60008060408385031215620009cd578081fd5b8251620009da8162000a5d565b6020840151909250620009ed8162000a5d565b809150509250929050565b600181811c9082168062000a0d57607f821691505b6020821081141562000a2f57634e487b7160e01b600052602260045260246000fd5b50919050565b600060001982141562000a5657634e487b7160e01b81526011600452602481fd5b5060010190565b6001600160a01b0381168114620007b457600080fd5b60805160601c60a05160601c60c05160601c60e05160601c6101005160601c6101205160601c6101405161437c62000c3e600039600081816103bb0152818161278b015281816127d30152612d5a0152600081816103000152818161080f0152818161099e01528181610d7101528181611035015281816111b50152818161154f015281816117cb0152818161185d015281816118f001528181611ad401528181611b9d01528181611e2c0152818161242a015281816125940152818161263101526129bb015260008181610666015281816106dc01528181611cb10152611d350152600081816105bc01528181611d7f01528181611e0301528181612015015281816121430152818161235b01528181612408015281816126f501528181612999015281816129ed01528181612de301528181612ea201528181612f230152612fa301526000818161070501528181610c2e01528181610eac01528181611415015281816114c1015281816124ea01528181612ba001528181613325015281816134ca0152818161363f01526138cb0152600081816104f101528181610cc501528181610e0f01528181612b7e01526132850152600081816105e30152612a0f015261437c6000f3fe608060405234801561001057600080fd5b50600436106102bb5760003560e01c80637f44579b11610182578063ce5494bb116100e9578063f9c52ed7116100a2578063fc0c546a1161007c578063fc0c546a146106da578063fd57a4df14610700578063fe406a7d14610727578063ffa1ad7414610730576102bb565b8063f9c52ed7146106a3578063fb589de2146106b6578063fbf5141c146106c7576102bb565b8063ce5494bb14610620578063d2c35ce814610633578063d4c3eea014610646578063e00af4a71461064e578063ec78e83214610661578063f03ae74514610688576102bb565b8063a3f4df7e1161013b578063a3f4df7e14610572578063aacaa71a146105ae578063b2016bd4146105b7578063b20fdc0d146105de578063c415b95c14610605578063c9e525df14610618576102bb565b80637f44579b146104ec578063945c91421461051357806394cb55951461052e578063951dc22c1461054e57806396dd5a781461056157806399b71d5c1461056a576102bb565b80634c36fad71161022657806374db9ad4116101df57806374db9ad41461048a5780637651b1e6146104a5578063795cf2be146104c057806379b37a86146104d357806379d5279f146104dc5780637d7c2a1c146104e4576102bb565b80634c36fad71461042c578063513ab2201461043f578063571f64d41461045a5780636c003a9b146104625780636fe702c01461046a578063709d039d14610477576102bb565b80632e1a7d4d116102785780632e1a7d4d14610368578063319a444d1461037b578063379173bb146103a357806337d265db146103b65780634032b72b146103dd578063440d7248146103f0576102bb565b8063058062b3146102c057806314ae9f2e146102e657806316f0115b146102fb57806319ab453c1461033a578063242c135d1461034d5780632530901e14610355575b600080fd5b6102d36102ce366004613e2a565b610754565b6040519081526020015b60405180910390f35b6102f96102f4366004613c82565b61080d565b005b6103227f000000000000000000000000000000000000000000000000000000000000000081565b6040516001600160a01b0390911681526020016102dd565b6102f9610348366004613c82565b61099c565b6102d3610c16565b6102d3610363366004613e2a565b610d57565b6102f9610376366004613e2a565b610d6e565b61038e610389366004613e5a565b610deb565b604080519283526020830191909152016102dd565b6102d36103b1366004613e5a565b610f81565b6102d37f000000000000000000000000000000000000000000000000000000000000000081565b6102f96103eb366004613c82565b611033565b61041c6103fe366004613c82565b6001600160a01b03166000908152600c602052604090205460ff1690565b60405190151581526020016102dd565b6102f961043a366004613c82565b6111b3565b61032273bebc44782c7db0a1a60cb6fe97d0b483032ff1c781565b6102d3611366565b6102d36113f8565b60105461041c9060ff1681565b600b54610322906001600160a01b031681565b61032273d061d61a4d941c39e5453435b6345dc261c2fce081565b61032273bfcf63294ad7105dea65aa58f8ae5be2d9d0952a81565b6102f96104ce366004613e2a565b61154d565b6102d3600e5481565b6102f96116db565b6102f96116e5565b6103227f000000000000000000000000000000000000000000000000000000000000000081565b61032273d533a949740bb3306d119cc777fa900ba034cd5281565b61054161053c366004613e2a565b611977565b6040516102dd9190613f03565b600954610322906001600160a01b031681565b6102d3600f5481565b6102f9611a17565b6105416040518060400160405280601881526020017f43757276652d33706f6f6c2d4441492d5374726174656779000000000000000081525081565b6102d360115481565b6103227f000000000000000000000000000000000000000000000000000000000000000081565b6103227f000000000000000000000000000000000000000000000000000000000000000081565b600a54610322906001600160a01b031681565b6102d3600381565b6102f961062e366004613c82565b611ad1565b6102f9610641366004613c82565b611e2a565b6102d3611ff3565b6102f961065c366004613c82565b61204c565b6103227f000000000000000000000000000000000000000000000000000000000000000081565b610322736c3f90f043a72fa612cbac8115ee7e52bde6e49081565b6102d36106b1366004613e2a565b6122fa565b6102d36106c4366004613e2a565b90565b6103226106d5366004613e2a565b612323565b7f0000000000000000000000000000000000000000000000000000000000000000610322565b6103227f000000000000000000000000000000000000000000000000000000000000000081565b6102d3610e1081565b610541604051806040016040528060058152602001640332e302e360dc1b81525081565b600081610762576000610805565b670de0b6b3a76400008273bebc44782c7db0a1a60cb6fe97d0b483032ff1c76001600160a01b031663bb7b8b806040518163ffffffff1660e01b815260040160206040518083038186803b1580156107b957600080fd5b505afa1580156107cd573d6000803e3d6000fd5b505050506040513d601f19601f820116820180604052508101906107f19190613e42565b6107fb919061417d565b6108059190614049565b90505b919050565b7f00000000000000000000000000000000000000000000000000000000000000006001600160a01b0316630c340a246040518163ffffffff1660e01b815260040160206040518083038186803b15801561086657600080fd5b505afa15801561087a573d6000803e3d6000fd5b505050506040513d601f19601f8201168201806040525081019061089e9190613c9e565b6001600160a01b0316336001600160a01b0316146108d75760405162461bcd60e51b81526004016108ce90613f66565b60405180910390fd5b600954604051631484968760e11b81526001600160a01b038381166004830152909116906329092d0e90602401602060405180830381600087803b15801561091e57600080fd5b505af1158015610932573d6000803e3d6000fd5b505050506040513d601f19601f820116820180604052508101906109569190613e10565b6109995760405162461bcd60e51b81526020600482015260146024820152731c995b5bdd994b5ad9595c195c8b59985a5b195960621b60448201526064016108ce565b50565b7f00000000000000000000000000000000000000000000000000000000000000006001600160a01b0316630c340a246040518163ffffffff1660e01b815260040160206040518083038186803b1580156109f557600080fd5b505afa158015610a09573d6000803e3d6000fd5b505050506040513d601f19601f82011682018060405250810190610a2d9190613c9e565b6001600160a01b0316336001600160a01b031614610a5d5760405162461bcd60e51b81526004016108ce90613f66565b6009546001600160a01b031615610ab65760405162461bcd60e51b815260206004820152601b60248201527f6b65657065722d6c6973742d616c72656164792d63726561746564000000000060448201526064016108ce565b6000819050806001600160a01b0316630fab4d256040518163ffffffff1660e01b8152600401602060405180830381600087803b158015610af657600080fd5b505af1158015610b0a573d6000803e3d6000fd5b505050506040513d601f19601f82011682018060405250810190610b2e9190613c9e565b600980546001600160a01b0319166001600160a01b03929092169182179055630a3b0a4f610b593390565b6040516001600160e01b031960e084901b1681526001600160a01b039091166004820152602401602060405180830381600087803b158015610b9a57600080fd5b505af1158015610bae573d6000803e3d6000fd5b505050506040513d601f19601f82011682018060405250810190610bd29190613e10565b610c125760405162461bcd60e51b81526020600482015260116024820152701859190b5ad9595c195c8b59985a5b1959607a1b60448201526064016108ce565b5050565b6040516370a0823160e01b81523060048201526000907f00000000000000000000000000000000000000000000000000000000000000006001600160a01b0316906370a082319060240160206040518083038186803b158015610c7857600080fd5b505afa158015610c8c573d6000803e3d6000fd5b505050506040513d601f19601f82011682018060405250810190610cb09190613e42565b6040516370a0823160e01b81523060048201527f00000000000000000000000000000000000000000000000000000000000000006001600160a01b0316906370a08231906024015b60206040518083038186803b158015610d1057600080fd5b505afa158015610d24573d6000803e3d6000fd5b505050506040513d601f19601f82011682018060405250810190610d489190613e42565b610d529190614031565b905090565b60068160038110610d6757600080fd5b0154905081565b337f00000000000000000000000000000000000000000000000000000000000000006001600160a01b031614610de25760405162461bcd60e51b815260206004820152601960248201527818d85b1b195c8b5a5ccb5b9bdd0b5d995cdc195c8b5c1bdbdb603a1b60448201526064016108ce565b61099981612343565b6040516370a0823160e01b8152306004820152600090819081906001600160a01b037f000000000000000000000000000000000000000000000000000000000000000016906370a082319060240160206040518083038186803b158015610e5157600080fd5b505afa158015610e65573d6000803e3d6000fd5b505050506040513d601f19601f82011682018060405250810190610e899190613e42565b6040516370a0823160e01b81523060048201529091506000906001600160a01b037f000000000000000000000000000000000000000000000000000000000000000016906370a082319060240160206040518083038186803b158015610eee57600080fd5b505afa158015610f02573d6000803e3d6000fd5b505050506040513d601f19601f82011682018060405250810190610f269190613e42565b610f309083614031565b9050610f3c8186610f81565b610f46828861417d565b610f509190614049565b9350808411610f5f5783610f61565b805b935081841115610f7857610f75828561419c565b92505b50509250929050565b600082610f8f57600061102a565b73bebc44782c7db0a1a60cb6fe97d0b483032ff1c763cc2b27d784610fb38561244f565b6040516001600160e01b031960e085901b1681526004810192909252600f0b602482015260440160206040518083038186803b158015610ff257600080fd5b505afa158015611006573d6000803e3d6000fd5b505050506040513d601f19601f8201168201806040525081019061102a9190613e42565b90505b92915050565b7f00000000000000000000000000000000000000000000000000000000000000006001600160a01b0316630c340a246040518163ffffffff1660e01b815260040160206040518083038186803b15801561108c57600080fd5b505afa1580156110a0573d6000803e3d6000fd5b505050506040513d601f19601f820116820180604052508101906110c49190613c9e565b6001600160a01b0316336001600160a01b0316146110f45760405162461bcd60e51b81526004016108ce90613f66565b600954604051630a3b0a4f60e01b81526001600160a01b03838116600483015290911690630a3b0a4f90602401602060405180830381600087803b15801561113b57600080fd5b505af115801561114f573d6000803e3d6000fd5b505050506040513d601f19601f820116820180604052508101906111739190613e10565b6109995760405162461bcd60e51b81526020600482015260116024820152701859190b5ad9595c195c8b59985a5b1959607a1b60448201526064016108ce565b7f00000000000000000000000000000000000000000000000000000000000000006001600160a01b0316630c340a246040518163ffffffff1660e01b815260040160206040518083038186803b15801561120c57600080fd5b505afa158015611220573d6000803e3d6000fd5b505050506040513d601f19601f820116820180604052508101906112449190613c9e565b6001600160a01b0316336001600160a01b0316146112745760405162461bcd60e51b81526004016108ce90613f66565b6001600160a01b0381166112bf5760405162461bcd60e51b8152602060048201526012602482015271736d2d616464726573732d69732d7a65726f60701b60448201526064016108ce565b600b546001600160a01b038281169116141561130a5760405162461bcd60e51b815260206004820152600a602482015269736d2d69732d73616d6560b01b60448201526064016108ce565b600b546040516001600160a01b038084169216907f2d19927e7cac08ceb98b38898a4fdff6da6a27295b9a2d62fe250408ebe044e190600090a3600b80546001600160a01b0319166001600160a01b0392909216919091179055565b600073bebc44782c7db0a1a60cb6fe97d0b483032ff1c76001600160a01b031663ddca3f436040518163ffffffff1660e01b815260040160206040518083038186803b1580156113b557600080fd5b505afa1580156113c9573d6000803e3d6000fd5b505050506040513d601f19601f820116820180604052508101906113ed9190613e42565b610d5290600461417d565b6040516308b752bb60e41b81523060048201526001600160a01b037f000000000000000000000000000000000000000000000000000000000000000016602482015260009073d061d61a4d941c39e5453435b6345dc261c2fce090638b752bb09060440160206040518083038186803b15801561147457600080fd5b505afa158015611488573d6000803e3d6000fd5b505050506040513d601f19601f820116820180604052508101906114ac9190613e42565b604051630940070760e01b81523060048201527f00000000000000000000000000000000000000000000000000000000000000006001600160a01b03169063094007079060240160206040518083038186803b15801561150b57600080fd5b505afa15801561151f573d6000803e3d6000fd5b505050506040513d601f19601f820116820180604052508101906115439190613e42565b610d52919061419c565b7f00000000000000000000000000000000000000000000000000000000000000006001600160a01b0316630c340a246040518163ffffffff1660e01b815260040160206040518083038186803b1580156115a657600080fd5b505afa1580156115ba573d6000803e3d6000fd5b505050506040513d601f19601f820116820180604052508101906115de9190613c9e565b6001600160a01b0316336001600160a01b03161461160e5760405162461bcd60e51b81526004016108ce90613f66565b6011548114156116505760405162461bcd60e51b815260206004820152600d60248201526c73616d652d736c69707061676560981b60448201526064016108ce565b612710811061169a5760405162461bcd60e51b8152602060048201526016602482015275696e76616c69642d736c6970706167652d76616c756560501b60448201526064016108ce565b60115460408051918252602082018390527fa0e416abea6b25d6e9300e43881c4ea060c88ad393c7f9f841e2fc3118ede9e4910160405180910390a1601155565b6116e36124d5565b565b6009546001600160a01b0316635dbe47e8336040516001600160e01b031960e084901b1681526001600160a01b03909116600482015260240160206040518083038186803b15801561173657600080fd5b505afa15801561174a573d6000803e3d6000fd5b505050506040513d601f19601f8201168201806040525081019061176e9190613e10565b61178a5760405162461bcd60e51b81526004016108ce90613f36565b600080600061179761256e565b6040516302df682360e11b815260048101849052602481018390526044810182905292955090935091506001600160a01b037f000000000000000000000000000000000000000000000000000000000000000016906305bed04690606401600060405180830381600087803b15801561180f57600080fd5b505af1158015611823573d6000803e3d6000fd5b5050505061182f6126d3565b60105460ff1661197257604051639f2b283360e01b81523060048201526000906118dc906001600160a01b037f00000000000000000000000000000000000000000000000000000000000000001690639f2b28339060240160206040518083038186803b15801561189f57600080fd5b505afa1580156118b3573d6000803e3d6000fd5b505050506040513d601f19601f820116820180604052508101906118d79190613e42565b61295b565b905082811115611970576001600160a01b037f00000000000000000000000000000000000000000000000000000000000000001663ddd6d26061191f858461419c565b6040518263ffffffff1660e01b815260040161193d91815260200190565b600060405180830381600087803b15801561195757600080fd5b505af115801561196b573d6000803e3d6000fd5b505050505b505b505050565b6000816003811061198757600080fd5b018054909150611996906141df565b80601f01602080910402602001604051908101604052809291908181526020018280546119c2906141df565b8015611a0f5780601f106119e457610100808354040283529160200191611a0f565b820191906000526020600020905b8154815290600101906020018083116119f257829003601f168201915b505050505081565b6009546001600160a01b0316635dbe47e8336040516001600160e01b031960e084901b1681526001600160a01b03909116600482015260240160206040518083038186803b158015611a6857600080fd5b505afa158015611a7c573d6000803e3d6000fd5b505050506040513d601f19601f82011682018060405250810190611aa09190613e10565b611abc5760405162461bcd60e51b81526004016108ce90613f36565b611ac6600061298c565b6116e360001961298c565b337f00000000000000000000000000000000000000000000000000000000000000006001600160a01b031614611b455760405162461bcd60e51b815260206004820152601960248201527818d85b1b195c8b5a5ccb5b9bdd0b5d995cdc195c8b5c1bdbdb603a1b60448201526064016108ce565b6001600160a01b038116611b9b5760405162461bcd60e51b815260206004820152601c60248201527f6e65772d73747261746567792d616464726573732d69732d7a65726f0000000060448201526064016108ce565b7f00000000000000000000000000000000000000000000000000000000000000006001600160a01b0316816001600160a01b03166316f0115b6040518163ffffffff1660e01b815260040160206040518083038186803b158015611bfe57600080fd5b505afa158015611c12573d6000803e3d6000fd5b505050506040513d601f19601f82011682018060405250810190611c369190613c9e565b6001600160a01b031614611c855760405162461bcd60e51b81526020600482015260166024820152756e6f742d76616c69642d6e65772d737472617465677960501b60448201526064016108ce565b611c8e81612bc5565b6040516370a0823160e01b8152306004820152611d5c9082906001600160a01b037f000000000000000000000000000000000000000000000000000000000000000016906370a082319060240160206040518083038186803b158015611cf357600080fd5b505afa158015611d07573d6000803e3d6000fd5b505050506040513d601f19601f82011682018060405250810190611d2b9190613e42565b6001600160a01b037f0000000000000000000000000000000000000000000000000000000000000000169190612bcd565b6040516370a0823160e01b81523060048201526109999082906001600160a01b037f000000000000000000000000000000000000000000000000000000000000000016906370a082319060240160206040518083038186803b158015611dc157600080fd5b505afa158015611dd5573d6000803e3d6000fd5b505050506040513d601f19601f82011682018060405250810190611df99190613e42565b6001600160a01b037f0000000000000000000000000000000000000000000000000000000000000000169190612bcd565b7f00000000000000000000000000000000000000000000000000000000000000006001600160a01b0316630c340a246040518163ffffffff1660e01b815260040160206040518083038186803b158015611e8357600080fd5b505afa158015611e97573d6000803e3d6000fd5b505050506040513d601f19601f82011682018060405250810190611ebb9190613c9e565b6001600160a01b0316336001600160a01b031614611eeb5760405162461bcd60e51b81526004016108ce90613f66565b6001600160a01b038116611f415760405162461bcd60e51b815260206004820152601d60248201527f6665652d636f6c6c6563746f722d616464726573732d69732d7a65726f00000060448201526064016108ce565b600a546001600160a01b0382811691161415611f975760405162461bcd60e51b81526020600482015260156024820152746665652d636f6c6c6563746f722d69732d73616d6560581b60448201526064016108ce565b600a546040516001600160a01b038084169216907f0f06062680f9bd68e786e9980d9bb03d73d5620fc3b345e417b6eacb310b970690600090a3600a80546001600160a01b0319166001600160a01b0392909216919091179055565b60006120006102ce610c16565b6040516370a0823160e01b81523060048201527f00000000000000000000000000000000000000000000000000000000000000006001600160a01b0316906370a0823190602401610cf8565b6009546001600160a01b0316635dbe47e8336040516001600160e01b031960e084901b1681526001600160a01b03909116600482015260240160206040518083038186803b15801561209d57600080fd5b505afa1580156120b1573d6000803e3d6000fd5b505050506040513d601f19601f820116820180604052508101906120d59190613e10565b6120f15760405162461bcd60e51b81526004016108ce90613f36565b600a546001600160a01b03166121415760405162461bcd60e51b81526020600482015260156024820152741999594b58dbdb1b1958dd1bdc8b5b9bdd0b5cd95d605a1b60448201526064016108ce565b7f00000000000000000000000000000000000000000000000000000000000000006001600160a01b0316816001600160a01b031614156121c35760405162461bcd60e51b815260206004820152601f60248201527f6e6f742d616c6c6f7765642d746f2d73776565702d636f6c6c61746572616c0060448201526064016108ce565b6001600160a01b0381166000908152600c602052604090205460ff16156122235760405162461bcd60e51b815260206004820152601460248201527306e6f742d616c6c6f7765642d746f2d73776565760641b60448201526064016108ce565b6001600160a01b03811673eeeeeeeeeeeeeeeeeeeeeeeeeeeeeeeeeeeeeeee141561226357600a5461225e906001600160a01b031647612c30565b610999565b6040516370a0823160e01b81523060048201526000906001600160a01b038316906370a082319060240160206040518083038186803b1580156122a557600080fd5b505afa1580156122b9573d6000803e3d6000fd5b505050506040513d601f19601f820116820180604052508101906122dd9190613e42565b600a54909150610c12906001600160a01b03848116911683612bcd565b60006402540be40061230a611366565b612319906402540be40061419c565b6107fb908461417d565b6003816003811061233357600080fd5b01546001600160a01b0316905081565b6040516370a0823160e01b81523060048201526000907f00000000000000000000000000000000000000000000000000000000000000006001600160a01b0316906370a082319060240160206040518083038186803b1580156123a557600080fd5b505afa1580156123b9573d6000803e3d6000fd5b505050506040513d601f19601f820116820180604052508101906123dd9190613e42565b9050808211156123fb576123f96123f4828461419c565b612d49565b505b610c126001600160a01b037f0000000000000000000000000000000000000000000000000000000000000000167f000000000000000000000000000000000000000000000000000000000000000084612bcd565b60006f7fffffffffffffffffffffffffffffff19821215801561247557506001607f1b82125b6124d15760405162461bcd60e51b815260206004820152602760248201527f53616665436173743a2076616c756520646f65736e27742066697420696e20316044820152663238206269747360c81b60648201526084016108ce565b5090565b604051634b82009360e01b81523060048201527f00000000000000000000000000000000000000000000000000000000000000006001600160a01b031690634b82009390602401602060405180830381600087803b15801561253657600080fd5b505af115801561254a573d6000803e3d6000fd5b505050506040513d601f19601f820116820180604052508101906109999190613e10565b604051636a9eee1360e11b81523060048201526000908190819081906001600160a01b037f0000000000000000000000000000000000000000000000000000000000000000169063d53ddc269060240160206040518083038186803b1580156125d657600080fd5b505afa1580156125ea573d6000803e3d6000fd5b505050506040513d601f19601f8201168201806040525081019061260e9190613e42565b604051639f2b283360e01b81523060048201529091506000906001600160a01b037f00000000000000000000000000000000000000000000000000000000000000001690639f2b28339060240160206040518083038186803b15801561267357600080fd5b505afa158015612687573d6000803e3d6000fd5b505050506040513d601f19601f820116820180604052508101906126ab9190613e42565b905060006126b882612e7c565b919750955090506126c9838261306e565b9350505050909192565b6010805460ff191690556040516370a0823160e01b81523060048201526000907f00000000000000000000000000000000000000000000000000000000000000006001600160a01b0316906370a082319060240160206040518083038186803b15801561273f57600080fd5b505afa158015612753573d6000803e3d6000fd5b505050506040513d601f19601f820116820180604052508101906127779190613e42565b9050801561099957612787613c54565b81817f0000000000000000000000000000000000000000000000000000000000000000600381106127c857634e487b7160e01b600052603260045260246000fd5b6020020152600060067f00000000000000000000000000000000000000000000000000000000000000006003811061281057634e487b7160e01b600052603260045260246000fd5b015461281d90601261419c565b61282890600a6140af565b61285f61283b61283661308e565b6131f1565b61284d86670de0b6b3a764000061417d565b6128579190614049565b60115461324a565b612869919061417d565b604051634515cef360e01b815290915073bebc44782c7db0a1a60cb6fe97d0b483032ff1c790634515cef3906128a59085908590600401613ecb565b600060405180830381600087803b1580156128bf57600080fd5b505af19250505080156128d0575060015b612953576128dc614288565b806308c379a0141561294757506128f161429f565b806128fc5750612949565b6010805460ff191660011790556040517f63299ad14374170063e6f2e5559417926f3a23da67eefa83fc2e9bf9f21e915c90612939908390613f03565b60405180910390a150612953565b505b3d6000803e3d6000fd5b61197261326d565b60008061296f6106c46106b16102ce610c16565b90508281101561298657612983818461419c565b91505b50919050565b6129e06001600160a01b037f0000000000000000000000000000000000000000000000000000000000000000167f00000000000000000000000000000000000000000000000000000000000000008361338d565b612a346001600160a01b037f0000000000000000000000000000000000000000000000000000000000000000167f00000000000000000000000000000000000000000000000000000000000000008361338d565b60005b600b60009054906101000a90046001600160a01b03166001600160a01b031663c2fba6676040518163ffffffff1660e01b815260040160206040518083038186803b158015612a8557600080fd5b505afa158015612a99573d6000803e3d6000fd5b505050506040513d601f19601f82011682018060405250810190612abd9190613e42565b811015612b7057600b54604051636e74a6f760e01b815260048101839052612b5e916001600160a01b031690636e74a6f79060240160206040518083038186803b158015612b0a57600080fd5b505afa158015612b1e573d6000803e3d6000fd5b505050506040513d601f19601f82011682018060405250810190612b429190613c9e565b73d533a949740bb3306d119cc777fa900ba034cd52908461338d565b80612b6881614241565b915050612a37565b506109996001600160a01b037f0000000000000000000000000000000000000000000000000000000000000000167f00000000000000000000000000000000000000000000000000000000000000008361338d565b6109996134b1565b6040516001600160a01b03831660248201526044810182905261197290849063a9059cbb60e01b906064015b60408051601f198184030181529190526020810180516001600160e01b03166001600160e01b031990931692909217909152613551565b80471015612c805760405162461bcd60e51b815260206004820152601d60248201527f416464726573733a20696e73756666696369656e742062616c616e636500000060448201526064016108ce565b6000826001600160a01b03168260405160006040518083038185875af1925050503d8060008114612ccd576040519150601f19603f3d011682016040523d82523d6000602084013e612cd2565b606091505b50509050806119725760405162461bcd60e51b815260206004820152603a60248201527f416464726573733a20756e61626c6520746f2073656e642076616c75652c207260448201527f6563697069656e74206d6179206861766520726576657274656400000000000060648201526084016108ce565b600081612d5857506000610808565b7f0000000000000000000000000000000000000000000000000000000000000000600080612d868584610deb565b91509150612d9381613623565b6000670de0b6b3a764000083612dad6106c461283661308e565b612db7919061417d565b612dc19190614049565b9050612dce838286613676565b6040516370a0823160e01b81523060048201527f00000000000000000000000000000000000000000000000000000000000000006001600160a01b0316906370a082319060240160206040518083038186803b158015612e2d57600080fd5b505afa158015612e41573d6000803e3d6000fd5b505050506040513d601f19601f82011682018060405250810190612e659190613e42565b945085851115612e73578594505b50505050919050565b6040516370a0823160e01b81523060048201526000908190819081906001600160a01b037f000000000000000000000000000000000000000000000000000000000000000016906370a082319060240160206040518083038186803b158015612ee457600080fd5b505afa158015612ef8573d6000803e3d6000fd5b505050506040513d601f19601f82011682018060405250810190612f1c9190613e42565b9050612f477f00000000000000000000000000000000000000000000000000000000000000006136ff565b6000612f5a6106c46106b16102ce610c16565b905085811115612f7557612f6e868261419c565b9250612f82565b612f7f818761419c565b93505b6040516370a0823160e01b8152306004820152829084906001600160a01b037f000000000000000000000000000000000000000000000000000000000000000016906370a082319060240160206040518083038186803b158015612fe557600080fd5b505afa158015612ff9573d6000803e3d6000fd5b505050506040513d601f19601f8201168201806040525081019061301d9190613e42565b6130279190614031565b613031919061419c565b94508385111561305057613045848661419c565b945060009350613065565b61305a858561419c565b935060009450600092505b50509193909250565b600061307d6123f48385614031565b90508281111561102d575090919050565b600061309c610e104261419c565b600f541180156130ad5750600e5415155b156130bb5750600e546106c4565b60008060005b600381101561318457600080613144600384600381106130f157634e487b7160e01b600052603260045260246000fd5b01546001600160a01b031673c02aaa39b223fe8d0a0e5c4f27ead9083c756cc26006866003811061313257634e487b7160e01b600052603260045260246000fd5b015461313f90600a6140af565b6137b5565b91509150801561316f5784158061315a57508482105b15613163578194505b8184101561316f578193505b5050808061317c90614241565b9150506130c1565b50816131c45760405162461bcd60e51b815260206004820152600f60248201526e6e6f2d6f7261636c652d726174657360881b60448201526064016108ce565b42600f55806131db83670de0b6b3a764000061417d565b6131e59190614049565b600e8190559250505090565b6000670de0b6b3a76400008273bebc44782c7db0a1a60cb6fe97d0b483032ff1c76001600160a01b031663bb7b8b806040518163ffffffff1660e01b815260040160206040518083038186803b1580156107b957600080fd5b6000612710613259838261419c565b613263908561417d565b61102a9190614049565b6040516370a0823160e01b81523060048201526000907f00000000000000000000000000000000000000000000000000000000000000006001600160a01b0316906370a082319060240160206040518083038186803b1580156132cf57600080fd5b505afa1580156132e3573d6000803e3d6000fd5b505050506040513d601f19601f820116820180604052508101906133079190613e42565b905080156109995760405163b6b55f2560e01b8152600481018290527f00000000000000000000000000000000000000000000000000000000000000006001600160a01b03169063b6b55f25906024015b600060405180830381600087803b15801561337257600080fd5b505af1158015613386573d6000803e3d6000fd5b5050505050565b8015806134165750604051636eb1769f60e11b81523060048201526001600160a01b03838116602483015284169063dd62ed3e9060440160206040518083038186803b1580156133dc57600080fd5b505afa1580156133f0573d6000803e3d6000fd5b505050506040513d601f19601f820116820180604052508101906134149190613e42565b155b6134815760405162461bcd60e51b815260206004820152603660248201527f5361666545524332303a20617070726f76652066726f6d206e6f6e2d7a65726f60448201527520746f206e6f6e2d7a65726f20616c6c6f77616e636560501b60648201526084016108ce565b6040516001600160a01b03831660248201526044810182905261197290849063095ea7b360e01b90606401612bf9565b6040516370a0823160e01b81523060048201526116e3907f00000000000000000000000000000000000000000000000000000000000000006001600160a01b0316906370a082319060240160206040518083038186803b15801561351457600080fd5b505afa158015613528573d6000803e3d6000fd5b505050506040513d601f19601f8201168201806040525081019061354c9190613e42565b613623565b60006135a6826040518060400160405280602081526020017f5361666545524332303a206c6f772d6c6576656c2063616c6c206661696c6564815250856001600160a01b031661389b9092919063ffffffff16565b80519091501561197257808060200190518101906135c49190613e10565b6119725760405162461bcd60e51b815260206004820152602a60248201527f5361666545524332303a204552433230206f7065726174696f6e20646964206e6044820152691bdd081cdd58d8d9595960b21b60648201526084016108ce565b801561099957604051632e1a7d4d60e01b8152600481018290527f00000000000000000000000000000000000000000000000000000000000000006001600160a01b031690632e1a7d4d90602401613358565b73bebc44782c7db0a1a60cb6fe97d0b483032ff1c7631a4d01d28461369a8461244f565b6040516001600160e01b031960e085901b1681526004810192909252600f0b602482015260448101859052606401600060405180830381600087803b1580156136e257600080fd5b505af11580156136f6573d6000803e3d6000fd5b50505050505050565b6137076138b4565b6040516370a0823160e01b815230600482015260009073d533a949740bb3306d119cc777fa900ba034cd52906370a082319060240160206040518083038186803b15801561375457600080fd5b505afa158015613768573d6000803e3d6000fd5b505050506040513d601f19601f8201168201806040525081019061378c9190613e42565b90508015610c1257610c1273d533a949740bb3306d119cc777fa900ba034cd528383600161393d565b600b5460405163b67bb24d60e01b81526001600160a01b038581166004830152848116602483015260448201849052610e10606483015260006084830181905292839283928392169063b67bb24d9060a401606060405180830381600087803b15801561382157600080fd5b505af1158015613835573d6000803e3d6000fd5b505050506040513d601f19601f820116820180604052508101906138599190613e7b565b50909250905061386b610e104261419c565b8111801561387857508115155b156138895750915060019050613893565b6000809350935050505b935093915050565b60606138aa8484600085613af3565b90505b9392505050565b6040516335313c2160e11b81526001600160a01b037f000000000000000000000000000000000000000000000000000000000000000016600482015273d061d61a4d941c39e5453435b6345dc261c2fce090636a62784290602401600060405180830381600087803b15801561392957600080fd5b505af1158015611970573d6000803e3d6000fd5b600b54604051631d1f307960e31b81526001600160a01b038681166004830152858116602483015260448201859052600092839283929091169063e8f983c89060640160006040518083038186803b15801561399857600080fd5b505afa1580156139ac573d6000803e3d6000fd5b505050506040513d6000823e601f3d908101601f191682016040526139d49190810190613cba565b92509250925083600014156139e857600193505b81156136f657600b54604051636e74a6f760e01b8152600481018390526001600160a01b0390911690636e74a6f79060240160206040518083038186803b158015613a3257600080fd5b505afa158015613a46573d6000803e3d6000fd5b505050506040513d601f19601f82011682018060405250810190613a6a9190613c9e565b6001600160a01b03166338ed173986868630426040518663ffffffff1660e01b8152600401613a9d959493929190613f9d565b600060405180830381600087803b158015613ab757600080fd5b505af1158015613acb573d6000803e3d6000fd5b505050506040513d6000823e601f3d908101601f1916820160405261196b9190810190613d73565b606082471015613b545760405162461bcd60e51b815260206004820152602660248201527f416464726573733a20696e73756666696369656e742062616c616e636520666f6044820152651c8818d85b1b60d21b60648201526084016108ce565b843b613ba25760405162461bcd60e51b815260206004820152601d60248201527f416464726573733a2063616c6c20746f206e6f6e2d636f6e747261637400000060448201526064016108ce565b600080866001600160a01b03168587604051613bbe9190613eaf565b60006040518083038185875af1925050503d8060008114613bfb576040519150601f19603f3d011682016040523d82523d6000602084013e613c00565b606091505b5091509150613c10828286613c1b565b979650505050505050565b60608315613c2a5750816138ad565b825115613c3a5782518084602001fd5b8160405162461bcd60e51b81526004016108ce9190613f03565b60405180606001604052806003906020820280368337509192915050565b8051801515811461080857600080fd5b600060208284031215613c93578081fd5b81356138ad81614331565b600060208284031215613caf578081fd5b81516138ad81614331565b600080600060608486031215613cce578182fd5b835167ffffffffffffffff811115613ce4578283fd5b8401601f81018613613cf4578283fd5b80516020613d018261400d565b604051613d0e8282614214565b8381528281019150848301600585901b860184018b1015613d2d578788fd5b8795505b84861015613d58578051613d4481614331565b835260019590950194918301918301613d31565b50918801516040909801519199979850909695505050505050565b60006020808385031215613d85578182fd5b825167ffffffffffffffff811115613d9b578283fd5b8301601f81018513613dab578283fd5b8051613db68161400d565b604051613dc38282614214565b8281528481019150838501600584901b85018601891015613de2578687fd5b8694505b83851015613e04578051835260019490940193918501918501613de6565b50979650505050505050565b600060208284031215613e21578081fd5b61102a82613c72565b600060208284031215613e3b578081fd5b5035919050565b600060208284031215613e53578081fd5b5051919050565b60008060408385031215613e6c578182fd5b50508035926020909101359150565b600080600060608486031215613e8f578283fd5b8351925060208401519150613ea660408501613c72565b90509250925092565b60008251613ec18184602087016141b3565b9190910192915050565b60808101818460005b6003811015613ef3578151835260209283019290910190600101613ed4565b5050508260608301529392505050565b6000602082528251806020840152613f228160408501602087016141b3565b601f01601f19169190910160400192915050565b60208082526016908201527531b0b63632b916b4b996b737ba16b096b5b2b2b832b960511b604082015260600190565b6020808252601a908201527f63616c6c65722d69732d6e6f742d7468652d676f7665726e6f72000000000000604082015260600190565b600060a082018783526020878185015260a0604085015281875180845260c0860191508289019350845b81811015613fec5784516001600160a01b031683529383019391830191600101613fc7565b50506001600160a01b03969096166060850152505050608001529392505050565b600067ffffffffffffffff82111561402757614027614272565b5060051b60200190565b600082198211156140445761404461425c565b500190565b60008261406457634e487b7160e01b81526012600452602481fd5b500490565b80825b600180861161407b57506140a6565b81870482111561408d5761408d61425c565b8086161561409a57918102915b9490941c93800261406c565b94509492505050565b600061102a60001984846000826140c8575060016138ad565b816140d5575060006138ad565b81600181146140eb57600281146140f557614122565b60019150506138ad565b60ff8411156141065761410661425c565b6001841b91508482111561411c5761411c61425c565b506138ad565b5060208310610133831016604e8410600b8410161715614155575081810a838111156141505761415061425c565b6138ad565b6141628484846001614069565b8086048211156141745761417461425c565b02949350505050565b60008160001904831182151516156141975761419761425c565b500290565b6000828210156141ae576141ae61425c565b500390565b60005b838110156141ce5781810151838201526020016141b6565b838111156119705750506000910152565b600181811c908216806141f357607f821691505b6020821081141561298657634e487b7160e01b600052602260045260246000fd5b601f8201601f1916810167ffffffffffffffff8111828210171561423a5761423a614272565b6040525050565b60006000198214156142555761425561425c565b5060010190565b634e487b7160e01b600052601160045260246000fd5b634e487b7160e01b600052604160045260246000fd5b600060033d11156106c457600481823e5160e01c90565b600060443d10156142af576106c4565b6040516003193d81016004833e81513d67ffffffffffffffff81602484011181841117156142e15750505050506106c4565b82850191508151818111156142fb575050505050506106c4565b843d8701016020828501011115614317575050505050506106c4565b61432660208286010187614214565b509094505050505090565b6001600160a01b038116811461099957600080fdfea26469706673582212203da34fa992ae5a87fccaf0d20867320ee0c5584c0c9643d419c4adaf91185c8b64736f6c63430008030033",
  "devdoc": {
    "kind": "dev",
    "methods": {
      "addKeeper(address)": {
        "params": {
          "_keeperAddress": "keeper address to add."
        }
      },
      "approveToken()": {
        "details": "Approve all required tokens"
      },
      "convertFrom18(uint256)": {
        "details": "Convert from 18 decimals to token defined decimals. Default no conversion."
      },
      "init(address)": {
        "params": {
          "_addressListFactory": "To support same code in eth side chain, user _addressListFactory as param ethereum- 0xded8217De022706A191eE7Ee0Dc9df1185Fb5dA3 polygon-0xD10D5696A350D65A9AA15FE8B258caB4ab1bF291"
        }
      },
      "isReservedToken(address)": {
        "details": "Check whether given token is reserved or not. Reserved tokens are not allowed to sweep."
      },
      "migrate(address)": {
        "details": "_beforeMigration hook can be implemented in child strategy to do extra steps.",
        "params": {
          "_newStrategy": "Address of new strategy"
        }
      },
      "rebalance()": {
        "details": "Rebalance profit, loss and investment of this strategy"
      },
      "removeKeeper(address)": {
        "params": {
          "_keeperAddress": "keeper address to remove."
        }
      },
      "sweepERC20(address)": {
        "details": "sweep given token to feeCollector of strategy",
        "params": {
          "_fromToken": "token address to sweep"
        }
      },
      "totalValue()": {
        "details": "Report total value in collateral token"
      },
      "updateFeeCollector(address)": {
        "params": {
          "_feeCollector": "fee collector address"
        }
      },
      "updateSwapManager(address)": {
        "params": {
          "_swapManager": "swap manager address"
        }
      },
      "withdraw(uint256)": {
        "details": "Withdraw collateral token from lending pool.",
        "params": {
          "_amount": "Amount of collateral token"
        }
      }
    },
    "version": 1
  },
  "userdoc": {
    "kind": "user",
    "methods": {
      "addKeeper(address)": {
        "notice": "Add given address in keepers list."
      },
      "init(address)": {
        "notice": "Create keeper list NOTE: Any function with onlyKeeper modifier will not work until this function is called. NOTE: Due to gas constraint this function cannot be called in constructor."
      },
      "migrate(address)": {
        "notice": "Migrate all asset and vault ownership,if any, to new strategy"
      },
      "removeKeeper(address)": {
        "notice": "Remove given address from keepers list."
      },
      "token()": {
        "notice": "Returns address of token correspond to collateral token"
      },
      "totalValue()": {
        "notice": "Calculate total value of asset under management"
      },
      "updateFeeCollector(address)": {
        "notice": "Update fee collector"
      },
      "updateSwapManager(address)": {
        "notice": "Update swap manager address"
      }
    },
    "version": 1
  },
  "storageLayout": {
    "storage": [
      {
        "astId": 13315,
        "contract": "contracts/strategies/curve/Crv3PoolStrategyDAI.sol:Crv3PoolStrategyDAI",
        "label": "COINS",
        "offset": 0,
        "slot": "0",
        "type": "t_array(t_string_storage)3_storage"
      },
      {
        "astId": 13323,
        "contract": "contracts/strategies/curve/Crv3PoolStrategyDAI.sol:Crv3PoolStrategyDAI",
        "label": "COIN_ADDRS",
        "offset": 0,
        "slot": "3",
        "type": "t_array(t_address)3_storage"
      },
      {
        "astId": 13331,
        "contract": "contracts/strategies/curve/Crv3PoolStrategyDAI.sol:Crv3PoolStrategyDAI",
        "label": "DECIMALS",
        "offset": 0,
        "slot": "6",
        "type": "t_array(t_uint256)3_storage"
      },
      {
        "astId": 9453,
        "contract": "contracts/strategies/curve/Crv3PoolStrategyDAI.sol:Crv3PoolStrategyDAI",
        "label": "keepers",
        "offset": 0,
        "slot": "9",
        "type": "t_contract(IAddressList)3591"
      },
      {
        "astId": 9456,
        "contract": "contracts/strategies/curve/Crv3PoolStrategyDAI.sol:Crv3PoolStrategyDAI",
        "label": "feeCollector",
        "offset": 0,
        "slot": "10",
        "type": "t_address"
      },
      {
        "astId": 9459,
        "contract": "contracts/strategies/curve/Crv3PoolStrategyDAI.sol:Crv3PoolStrategyDAI",
        "label": "swapManager",
        "offset": 0,
        "slot": "11",
        "type": "t_contract(ISwapManager)3894"
      },
      {
        "astId": 13611,
        "contract": "contracts/strategies/curve/Crv3PoolStrategyDAI.sol:Crv3PoolStrategyDAI",
        "label": "reservedToken",
        "offset": 0,
        "slot": "12",
        "type": "t_mapping(t_address,t_bool)"
      },
      {
        "astId": 13614,
        "contract": "contracts/strategies/curve/Crv3PoolStrategyDAI.sol:Crv3PoolStrategyDAI",
        "label": "oracles",
        "offset": 0,
        "slot": "13",
        "type": "t_array(t_address)dyn_storage"
      },
      {
        "astId": 13621,
        "contract": "contracts/strategies/curve/Crv3PoolStrategyDAI.sol:Crv3PoolStrategyDAI",
        "label": "usdRate",
        "offset": 0,
        "slot": "14",
        "type": "t_uint256"
      },
      {
        "astId": 13623,
        "contract": "contracts/strategies/curve/Crv3PoolStrategyDAI.sol:Crv3PoolStrategyDAI",
        "label": "usdRateTimestamp",
        "offset": 0,
        "slot": "15",
        "type": "t_uint256"
      },
      {
        "astId": 13625,
        "contract": "contracts/strategies/curve/Crv3PoolStrategyDAI.sol:Crv3PoolStrategyDAI",
        "label": "depositError",
        "offset": 0,
        "slot": "16",
        "type": "t_bool"
      },
      {
        "astId": 13628,
        "contract": "contracts/strategies/curve/Crv3PoolStrategyDAI.sol:Crv3PoolStrategyDAI",
        "label": "depositSlippage",
        "offset": 0,
        "slot": "17",
        "type": "t_uint256"
      }
    ],
    "types": {
      "t_address": {
        "encoding": "inplace",
        "label": "address",
        "numberOfBytes": "20"
      },
      "t_array(t_address)3_storage": {
        "base": "t_address",
        "encoding": "inplace",
        "label": "address[3]",
        "numberOfBytes": "96"
      },
      "t_array(t_address)dyn_storage": {
        "base": "t_address",
        "encoding": "dynamic_array",
        "label": "address[]",
        "numberOfBytes": "32"
      },
      "t_array(t_string_storage)3_storage": {
        "base": "t_string_storage",
        "encoding": "inplace",
        "label": "string[3]",
        "numberOfBytes": "96"
      },
      "t_array(t_uint256)3_storage": {
        "base": "t_uint256",
        "encoding": "inplace",
        "label": "uint256[3]",
        "numberOfBytes": "96"
      },
      "t_bool": {
        "encoding": "inplace",
        "label": "bool",
        "numberOfBytes": "1"
      },
      "t_contract(IAddressList)3591": {
        "encoding": "inplace",
        "label": "contract IAddressList",
        "numberOfBytes": "20"
      },
      "t_contract(ISwapManager)3894": {
        "encoding": "inplace",
        "label": "contract ISwapManager",
        "numberOfBytes": "20"
      },
      "t_mapping(t_address,t_bool)": {
        "encoding": "mapping",
        "key": "t_address",
        "label": "mapping(address => bool)",
        "numberOfBytes": "32",
        "value": "t_bool"
      },
      "t_string_storage": {
        "encoding": "bytes",
        "label": "string",
        "numberOfBytes": "32"
      },
      "t_uint256": {
        "encoding": "inplace",
        "label": "uint256",
        "numberOfBytes": "32"
      }
    }
  }
}