{
  "address": "0x9bcdf1130b20856f86267074de136c5902e314fe",
  "abi": [
    {
      "inputs": [
        {
          "internalType": "address",
          "name": "_governor",
          "type": "address"
        },
        {
          "internalType": "address",
          "name": "_weth",
          "type": "address"
        },
        {
          "internalType": "contract IVesperPool",
          "name": "_vVSP",
          "type": "address"
        },
        {
          "internalType": "contract IAddressListFactory",
          "name": "_listFactory",
          "type": "address"
        },
        {
          "internalType": "contract ISwapManager",
          "name": "_swapManager",
          "type": "address"
        }
      ],
      "stateMutability": "nonpayable",
      "type": "constructor"
    },
    {
      "anonymous": false,
      "inputs": [
        {
          "indexed": false,
          "internalType": "contract IERC20",
          "name": "asset",
          "type": "address"
        },
        {
          "indexed": false,
          "internalType": "uint256",
          "name": "amount",
          "type": "uint256"
        }
      ],
      "name": "MigratedAsset",
      "type": "event"
    },
    {
      "anonymous": false,
      "inputs": [
        {
          "indexed": true,
          "internalType": "address",
          "name": "previousGovernor",
          "type": "address"
        },
        {
          "indexed": true,
          "internalType": "address",
          "name": "proposedGovernor",
          "type": "address"
        }
      ],
      "name": "UpdatedGovernor",
      "type": "event"
    },
    {
      "anonymous": false,
      "inputs": [
        {
          "indexed": false,
          "internalType": "uint256",
          "name": "oldPeriod",
          "type": "uint256"
        },
        {
          "indexed": false,
          "internalType": "uint256",
          "name": "newPeriod",
          "type": "uint256"
        },
        {
          "indexed": false,
          "internalType": "uint256",
          "name": "oldRouterIdx",
          "type": "uint256"
        },
        {
          "indexed": false,
          "internalType": "uint256",
          "name": "newRouterIdx",
          "type": "uint256"
        }
      ],
      "name": "UpdatedOracleConfig",
      "type": "event"
    },
    {
      "anonymous": false,
      "inputs": [
        {
          "indexed": true,
          "internalType": "address",
          "name": "oldSwapManager",
          "type": "address"
        },
        {
          "indexed": true,
          "internalType": "address",
          "name": "newSwapManager",
          "type": "address"
        }
      ],
      "name": "UpdatedSwapManager",
      "type": "event"
    },
    {
      "anonymous": false,
      "inputs": [
        {
          "indexed": false,
          "internalType": "uint256",
          "name": "oldSwapSlippage",
          "type": "uint256"
        },
        {
          "indexed": false,
          "internalType": "uint256",
          "name": "newSwapSlippage",
          "type": "uint256"
        }
      ],
      "name": "UpdatedSwapSlippage",
      "type": "event"
    },
    {
      "inputs": [],
      "name": "acceptGovernorship",
      "outputs": [],
      "stateMutability": "nonpayable",
      "type": "function"
    },
    {
      "inputs": [
        {
          "internalType": "address",
          "name": "_addressToAdd",
          "type": "address"
        }
      ],
      "name": "addInKeepersList",
      "outputs": [],
      "stateMutability": "nonpayable",
      "type": "function"
    },
    {
      "inputs": [
        {
          "internalType": "bytes[]",
          "name": "calls",
          "type": "bytes[]"
        },
        {
          "internalType": "bool",
          "name": "revertOnFail",
          "type": "bool"
        }
      ],
      "name": "batch",
      "outputs": [],
      "stateMutability": "payable",
      "type": "function"
    },
    {
      "inputs": [
        {
          "internalType": "contract IVesperPool",
          "name": "_vPool",
          "type": "address"
        },
        {
          "internalType": "uint256",
          "name": "_amount",
          "type": "uint256"
        }
      ],
      "name": "depositAndUnwrap",
      "outputs": [],
      "stateMutability": "nonpayable",
      "type": "function"
    },
    {
      "inputs": [
        {
          "internalType": "contract IERC20",
          "name": "_unwrapped",
          "type": "address"
        }
      ],
      "name": "doInfinityApproval",
      "outputs": [],
      "stateMutability": "nonpayable",
      "type": "function"
    },
    {
      "inputs": [],
      "name": "governor",
      "outputs": [
        {
          "internalType": "address",
          "name": "",
          "type": "address"
        }
      ],
      "stateMutability": "view",
      "type": "function"
    },
    {
      "inputs": [],
      "name": "keepers",
      "outputs": [
        {
          "internalType": "address",
          "name": "",
          "type": "address"
        }
      ],
      "stateMutability": "view",
      "type": "function"
    },
    {
      "inputs": [
        {
          "internalType": "address[]",
          "name": "_assets",
          "type": "address[]"
        },
        {
          "internalType": "address",
          "name": "_to",
          "type": "address"
        }
      ],
      "name": "migrateAssets",
      "outputs": [],
      "stateMutability": "nonpayable",
      "type": "function"
    },
    {
      "inputs": [],
      "name": "oraclePeriod",
      "outputs": [
        {
          "internalType": "uint256",
          "name": "",
          "type": "uint256"
        }
      ],
      "stateMutability": "view",
      "type": "function"
    },
    {
      "inputs": [],
      "name": "oracleRouterIdx",
      "outputs": [
        {
          "internalType": "uint256",
          "name": "",
          "type": "uint256"
        }
      ],
      "stateMutability": "view",
      "type": "function"
    },
    {
      "inputs": [
        {
          "internalType": "address",
          "name": "_addressToRemove",
          "type": "address"
        }
      ],
      "name": "removeFromKeepersList",
      "outputs": [],
      "stateMutability": "nonpayable",
      "type": "function"
    },
    {
      "inputs": [
        {
          "internalType": "address",
          "name": "_tokenIn",
          "type": "address"
        },
        {
          "internalType": "uint256",
          "name": "_amountIn",
          "type": "uint256"
        }
      ],
      "name": "swapForVspAndTransferToVVSP",
      "outputs": [],
      "stateMutability": "nonpayable",
      "type": "function"
    },
    {
      "inputs": [],
      "name": "swapManager",
      "outputs": [
        {
          "internalType": "contract ISwapManager",
          "name": "",
          "type": "address"
        }
      ],
      "stateMutability": "view",
      "type": "function"
    },
    {
      "inputs": [],
      "name": "swapSlippage",
      "outputs": [
        {
          "internalType": "uint256",
          "name": "",
          "type": "uint256"
        }
      ],
      "stateMutability": "view",
      "type": "function"
    },
    {
      "inputs": [],
      "name": "transferAllVspToVVSP",
      "outputs": [],
      "stateMutability": "nonpayable",
      "type": "function"
    },
    {
      "inputs": [
        {
          "internalType": "address",
          "name": "_proposedGovernor",
          "type": "address"
        }
      ],
      "name": "transferGovernorship",
      "outputs": [],
      "stateMutability": "nonpayable",
      "type": "function"
    },
    {
      "inputs": [
        {
          "internalType": "uint256",
          "name": "_amount",
          "type": "uint256"
        }
      ],
      "name": "transferVspToVVSP",
      "outputs": [],
      "stateMutability": "nonpayable",
      "type": "function"
    },
    {
      "inputs": [
        {
          "internalType": "contract IVesperPool",
          "name": "_vPool",
          "type": "address"
        },
        {
          "internalType": "uint256",
          "name": "_amount",
          "type": "uint256"
        }
      ],
      "name": "unwrap",
      "outputs": [],
      "stateMutability": "nonpayable",
      "type": "function"
    },
    {
      "inputs": [
        {
          "internalType": "contract IVesperPool",
          "name": "_vPool",
          "type": "address"
        }
      ],
      "name": "unwrapAll",
      "outputs": [],
      "stateMutability": "nonpayable",
      "type": "function"
    },
    {
      "inputs": [
        {
          "internalType": "uint256",
          "name": "_newPeriod",
          "type": "uint256"
        },
        {
          "internalType": "uint256",
          "name": "_newRouterIdx",
          "type": "uint256"
        }
      ],
      "name": "updateOracleConfig",
      "outputs": [],
      "stateMutability": "nonpayable",
      "type": "function"
    },
    {
      "inputs": [
        {
          "internalType": "address",
          "name": "_swapManager",
          "type": "address"
        }
      ],
      "name": "updateSwapManager",
      "outputs": [],
      "stateMutability": "nonpayable",
      "type": "function"
    },
    {
      "inputs": [
        {
          "internalType": "uint256",
          "name": "_newSwapSlippage",
          "type": "uint256"
        }
      ],
      "name": "updateSwapSlippage",
      "outputs": [],
      "stateMutability": "nonpayable",
      "type": "function"
    },
    {
      "inputs": [],
      "name": "vVSP",
      "outputs": [
        {
          "internalType": "contract IVesperPool",
          "name": "",
          "type": "address"
        }
      ],
      "stateMutability": "view",
      "type": "function"
    },
    {
      "inputs": [],
      "name": "vsp",
      "outputs": [
        {
          "internalType": "contract IERC20",
          "name": "",
          "type": "address"
        }
      ],
      "stateMutability": "view",
      "type": "function"
    }
  ],
  "transactionHash": "0xdcbb009a96a640df91098426582b5eb630ee2947db063a12d877929652c76a09",
  "args": [
    "0xdf826ff6518e609E4cEE86299d40611C148099d5",
    "0xC02aaA39b223FE8D0A0e5C4F27eAD9083C756Cc2",
    "0xbA4cFE5741b357FA371b506e5db0774aBFeCf8Fc",
    "0xded8217De022706A191eE7Ee0Dc9df1185Fb5dA3",
    "0xe382d9f2394A359B01006faa8A1864b8a60d2710"
  ],
  "solcInputHash": "21475ae0820dd4c0901cd85de360402e",
  "bytecode": "0x6080604052610e1060045560006005556103e86006553480156200002257600080fd5b5060405162002f0538038062002f0583398101604081905262000045916200046d565b83816000336000805462010000600160b01b031916620100006001600160a01b038416908102919091178255604051929350917fd4459d5b8b913cab0244230fd9b1c08b6ceace7fe9230e60d0f74cbffdf849d0908290a3506001600160a01b038216620000e95760405162461bcd60e51b815260206004820152600c60248201526b1dd95d1a0b5a5ccb5b9d5b1b60a21b60448201526064015b60405180910390fd5b6001600160a01b038116620001415760405162461bcd60e51b815260206004820152601460248201527f737761702d6d616e616765722d69732d6e756c6c0000000000000000000000006044820152606401620000e0565b600280546001600160a01b03199081166001600160a01b0394851617909155600380549091169183169190911790558316620001af5760405162461bcd60e51b815260206004820152600c60248201526b1d9d9cdc0b5a5ccb5b9d5b1b60a21b6044820152606401620000e0565b6001600160a01b038216620002075760405162461bcd60e51b815260206004820152601c60248201527f616464726573732d6c6973742d666163746f72792d69732d6e756c6c000000006044820152606401620000e0565b600080546001600160a01b03808816620100000262010000600160b01b031990921691909117909155600880549185166001600160a01b03199092168217905560408051637e062a3560e11b8152905163fc0c546a91600480820192602092909190829003018186803b1580156200027e57600080fd5b505afa15801562000293573d6000803e3d6000fd5b505050506040513d601f19601f82011682018060405250810190620002b9919062000447565b600760006101000a8154816001600160a01b0302191690836001600160a01b03160217905550816001600160a01b0316630fab4d256040518163ffffffff1660e01b8152600401602060405180830381600087803b1580156200031b57600080fd5b505af115801562000330573d6000803e3d6000fd5b505050506040513d601f19601f8201168201806040525081019062000356919062000447565b600980546001600160a01b0319166001600160a01b03929092169182179055630a3b0a4f620003823390565b6040516001600160e01b031960e084901b1681526001600160a01b039091166004820152602401602060405180830381600087803b158015620003c457600080fd5b505af1158015620003d9573d6000803e3d6000fd5b505050506040513d601f19601f82011682018060405250810190620003ff9190620004ec565b60405180604001604052806002815260200161313360f01b815250906200043b5760405162461bcd60e51b8152600401620000e091906200050e565b5050505050506200057d565b60006020828403121562000459578081fd5b8151620004668162000564565b9392505050565b600080600080600060a0868803121562000485578081fd5b8551620004928162000564565b6020870151909550620004a58162000564565b6040870151909450620004b88162000564565b6060870151909350620004cb8162000564565b6080870151909250620004de8162000564565b809150509295509295909350565b600060208284031215620004fe578081fd5b8151801515811462000466578182fd5b6000602080835283518082850152825b818110156200053c578581018301518582016040015282016200051e565b818111156200054e5783604083870101525b50601f01601f1916929092016040019392505050565b6001600160a01b03811681146200057a57600080fd5b50565b612978806200058d6000396000f3fe60806040526004361061014b5760003560e01c806389dafc70116100b6578063be9f13691161006f578063be9f1369146103a4578063cd2d7ebe146103c4578063d2423b51146103da578063d6c22f36146103ed578063dda5c03d1461040d578063f3b27bc31461042d5761014b565b806389dafc70146102e457806392226ef414610304578063951dc22c14610324578063a712260c14610344578063a923b2a614610364578063b6aa515b146103845761014b565b806339d7738e1161010857806339d7738e1461022e57806339f476931461024e57806342189c8f1461026e5780634c36fad71461028457806367f5e4b8146102a4578063709d039d146102c45761014b565b806309e7814d146101505780630c340a24146101725780631ad31d68146101b55780631aedeabe146101ca57806324d9f2c1146101ee57806329ba73ed1461020e575b600080fd5b34801561015c57600080fd5b5061017061016b366004612600565b610442565b005b34801561017e57600080fd5b50600054610198906201000090046001600160a01b031681565b6040516001600160a01b0390911681526020015b60405180910390f35b3480156101c157600080fd5b50610170610510565b3480156101d657600080fd5b506101e060065481565b6040519081526020016101ac565b3480156101fa57600080fd5b50610170610209366004612285565b610634565b34801561021a57600080fd5b50600754610198906001600160a01b031681565b34801561023a57600080fd5b50610170610249366004612269565b61074c565b34801561025a57600080fd5b5061017061026936600461255e565b6108a9565b34801561027a57600080fd5b506101e060045481565b34801561029057600080fd5b5061017061029f366004612269565b6109ad565b3480156102b057600080fd5b506101706102bf366004612600565b610ad0565b3480156102d057600080fd5b50600354610198906001600160a01b031681565b3480156102f057600080fd5b506101706102ff36600461255e565b610b8c565b34801561031057600080fd5b5061017061031f3660046122b0565b610cf5565b34801561033057600080fd5b50600954610198906001600160a01b031681565b34801561035057600080fd5b5061017061035f366004612269565b610ee8565b34801561037057600080fd5b5061017061037f366004612630565b611045565b34801561039057600080fd5b5061017061039f366004612269565b6111ea565b3480156103b057600080fd5b506101706103bf366004612269565b611293565b3480156103d057600080fd5b506101e060055481565b6101706103e8366004612412565b6113b5565b3480156103f957600080fd5b50610170610408366004612269565b611496565b34801561041957600080fd5b50600854610198906001600160a01b031681565b34801561043957600080fd5b50610170611547565b6009546001600160a01b0316635dbe47e8336040516001600160e01b031960e084901b1681526001600160a01b03909116600482015260240160206040518083038186803b15801561049357600080fd5b505afa1580156104a7573d6000803e3d6000fd5b505050506040513d601f19601f820116820180604052508101906104cb9190612526565b6104f05760405162461bcd60e51b81526004016104e7906126dd565b60405180910390fd5b60085460075461050d916001600160a01b03918216911683611619565b50565b6009546001600160a01b0316635dbe47e8336040516001600160e01b031960e084901b1681526001600160a01b03909116600482015260240160206040518083038186803b15801561056157600080fd5b505afa158015610575573d6000803e3d6000fd5b505050506040513d601f19601f820116820180604052508101906105999190612526565b6105b55760405162461bcd60e51b81526004016104e7906126dd565b6007546040516370a0823160e01b8152306004820152610632916001600160a01b0316906370a082319060240160206040518083038186803b1580156105fa57600080fd5b505afa15801561060e573d6000803e3d6000fd5b505050506040513d601f19601f8201168201806040525081019061016b9190612618565b565b6009546001600160a01b0316635dbe47e8336040516001600160e01b031960e084901b1681526001600160a01b03909116600482015260240160206040518083038186803b15801561068557600080fd5b505afa158015610699573d6000803e3d6000fd5b505050506040513d601f19601f820116820180604052508101906106bd9190612526565b6106d95760405162461bcd60e51b81526004016104e7906126dd565b801561074857600060065461271014156106f4576001610721565b60075461072190610719906107139086906001600160a01b031661167c565b84611841565b60065461196c565b6007546008549192506107469185916001600160a01b03908116918691869116611996565b505b5050565b6009546001600160a01b0316635dbe47e8336040516001600160e01b031960e084901b1681526001600160a01b03909116600482015260240160206040518083038186803b15801561079d57600080fd5b505afa1580156107b1573d6000803e3d6000fd5b505050506040513d601f19601f820116820180604052508101906107d59190612526565b6107f15760405162461bcd60e51b81526004016104e7906126dd565b600954604051631484968760e11b81526001600160a01b038381166004830152909116906329092d0e90602401602060405180830381600087803b15801561083857600080fd5b505af115801561084c573d6000803e3d6000fd5b505050506040513d601f19601f820116820180604052508101906108709190612526565b604051806040016040528060028152602001610c4d60f21b815250906107485760405162461bcd60e51b81526004016104e791906126aa565b6009546001600160a01b0316635dbe47e8336040516001600160e01b031960e084901b1681526001600160a01b03909116600482015260240160206040518083038186803b1580156108fa57600080fd5b505afa15801561090e573d6000803e3d6000fd5b505050506040513d601f19601f820116820180604052508101906109329190612526565b61094e5760405162461bcd60e51b81526004016104e7906126dd565b604051632e1a7d4d60e01b8152600481018290526001600160a01b03831690632e1a7d4d906024015b600060405180830381600087803b15801561099157600080fd5b505af11580156109a5573d6000803e3d6000fd5b505050505050565b6000546001600160a01b03620100009091041633146109de5760405162461bcd60e51b81526004016104e790612703565b6001600160a01b038116610a295760405162461bcd60e51b8152602060048201526012602482015271736d2d616464726573732d69732d7a65726f60701b60448201526064016104e7565b6003546001600160a01b0382811691161415610a745760405162461bcd60e51b815260206004820152600a602482015269736d2d69732d73616d6560b01b60448201526064016104e7565b6003546040516001600160a01b038084169216907f2d19927e7cac08ceb98b38898a4fdff6da6a27295b9a2d62fe250408ebe044e190600090a3600380546001600160a01b0319166001600160a01b0392909216919091179055565b6000546001600160a01b0362010000909104163314610b015760405162461bcd60e51b81526004016104e790612703565b612710811115610b4c5760405162461bcd60e51b8152602060048201526016602482015275696e76616c69642d736c6970706167652d76616c756560501b60448201526064016104e7565b60065460408051918252602082018390527ef1c5db862c7598b3b6765552ca951f498611e06412c2d57f8d0b58f82e7f82910160405180910390a1600655565b6009546001600160a01b0316635dbe47e8336040516001600160e01b031960e084901b1681526001600160a01b03909116600482015260240160206040518083038186803b158015610bdd57600080fd5b505afa158015610bf1573d6000803e3d6000fd5b505050506040513d601f19601f82011682018060405250810190610c159190612526565b610c315760405162461bcd60e51b81526004016104e7906126dd565b6001600160a01b0382166323b872dd336040516001600160e01b031960e084901b1681526001600160a01b03909116600482015230602482015260448101849052606401602060405180830381600087803b158015610c8f57600080fd5b505af1158015610ca3573d6000803e3d6000fd5b505050506040513d601f19601f82011682018060405250810190610cc79190612526565b50604051632e1a7d4d60e01b8152600481018290526001600160a01b03831690632e1a7d4d90602401610977565b6000546001600160a01b0362010000909104163314610d265760405162461bcd60e51b81526004016104e790612703565b6000825111610d6e5760405162461bcd60e51b81526020600482015260146024820152736173736574732d6c6973742d69732d656d70747960601b60448201526064016104e7565b6001600160a01b038116301415610dc75760405162461bcd60e51b815260206004820152601760248201527f6e65772d636f6e74726163742d69732d696e76616c696400000000000000000060448201526064016104e7565b60005b8251811015610746576000838281518110610df557634e487b7160e01b600052603260045260246000fd5b60209081029190910101516040516370a0823160e01b81523060048201529091506000906001600160a01b038316906370a082319060240160206040518083038186803b158015610e4557600080fd5b505afa158015610e59573d6000803e3d6000fd5b505050506040513d601f19601f82011682018060405250810190610e7d9190612618565b9050610e936001600160a01b0383168583611619565b604080516001600160a01b0384168152602081018390527f89e3a121d1cd78499f7e8aff03cca5860941384d8829eea0ff8f93cda53de52b910160405180910390a1505080610ee1906128d8565b9050610dca565b6009546001600160a01b0316635dbe47e8336040516001600160e01b031960e084901b1681526001600160a01b03909116600482015260240160206040518083038186803b158015610f3957600080fd5b505afa158015610f4d573d6000803e3d6000fd5b505050506040513d601f19601f82011682018060405250810190610f719190612526565b610f8d5760405162461bcd60e51b81526004016104e7906126dd565b600954604051630a3b0a4f60e01b81526001600160a01b03838116600483015290911690630a3b0a4f90602401602060405180830381600087803b158015610fd457600080fd5b505af1158015610fe8573d6000803e3d6000fd5b505050506040513d601f19601f8201168201806040525081019061100c9190612526565b60405180604001604052806002815260200161313360f01b815250906107485760405162461bcd60e51b81526004016104e791906126aa565b6000546001600160a01b03620100009091041633146110765760405162461bcd60e51b81526004016104e790612703565b600360009054906101000a90046001600160a01b03166001600160a01b031663c2fba6676040518163ffffffff1660e01b815260040160206040518083038186803b1580156110c457600080fd5b505afa1580156110d8573d6000803e3d6000fd5b505050506040513d601f19601f820116820180604052508101906110fc9190612618565b81106111415760405162461bcd60e51b81526020600482015260146024820152730d2dcecc2d8d2c85ae4deeae8cae45ad2dcc8caf60631b60448201526064016104e7565b8161114c5760045491505b603b82116111945760405162461bcd60e51b81526020600482015260156024820152741a5b9d985b1a590b5bdc9858db194b5c195c9a5bd9605a1b60448201526064016104e7565b6004546005546040805192835260208301859052820152606081018290527f83bc5ab8030537fcf1d29c2334f6d22c26c82dcbe5ff03923d2cff5c692c0a7f9060800160405180910390a1600491909155600555565b6000546001600160a01b036201000090910416331461121b5760405162461bcd60e51b81526004016104e790612703565b6001600160a01b0381166112715760405162461bcd60e51b815260206004820152601960248201527f70726f706f7365642d676f7665726e6f722d69732d7a65726f0000000000000060448201526064016104e7565b600180546001600160a01b0319166001600160a01b0392909216919091179055565b6009546001600160a01b0316635dbe47e8336040516001600160e01b031960e084901b1681526001600160a01b03909116600482015260240160206040518083038186803b1580156112e457600080fd5b505afa1580156112f8573d6000803e3d6000fd5b505050506040513d601f19601f8201168201806040525081019061131c9190612526565b6113385760405162461bcd60e51b81526004016104e7906126dd565b6040516370a0823160e01b815230600482015261050d9082906001600160a01b038216906370a082319060240160206040518083038186803b15801561137d57600080fd5b505afa158015611391573d6000803e3d6000fd5b505050506040513d601f19601f820116820180604052508101906102699190612618565b60005b8281101561149057600080308686858181106113e457634e487b7160e01b600052603260045260246000fd5b90506020028101906113f6919061279d565b60405161140492919061267e565b600060405180830381855af49150503d806000811461143f576040519150601f19603f3d011682016040523d82523d6000602084013e611444565b606091505b5091509150811580156114545750835b1561147b5761146281611b58565b60405162461bcd60e51b81526004016104e791906126aa565b50508080611488906128d8565b9150506113b8565b50505050565b6009546001600160a01b0316635dbe47e8336040516001600160e01b031960e084901b1681526001600160a01b03909116600482015260240160206040518083038186803b1580156114e757600080fd5b505afa1580156114fb573d6000803e3d6000fd5b505050506040513d601f19601f8201168201806040525081019061151f9190612526565b61153b5760405162461bcd60e51b81526004016104e7906126dd565b61050d81600019611bc0565b6001546001600160a01b031633146115a15760405162461bcd60e51b815260206004820152601960248201527f6e6f742d7468652d70726f706f7365642d676f7665726e6f720000000000000060448201526064016104e7565b600154600080546040516001600160a01b039384169362010000909204909116917fd4459d5b8b913cab0244230fd9b1c08b6ceace7fe9230e60d0f74cbffdf849d091a3600180546000805462010000600160b01b0319166001600160a01b03831662010000021790556001600160a01b0319169055565b6040516001600160a01b03831660248201526044810182905261074690849063a9059cbb60e01b906064015b60408051601f198184030181529190526020810180516001600160e01b03166001600160e01b031990931692909217909152611dff565b6002546060906001600160a01b03848116911614806116a857506002546001600160a01b038381169116145b1561175657604080516002808252606082018352909160208301908036833701905050905082816000815181106116ef57634e487b7160e01b600052603260045260246000fd5b60200260200101906001600160a01b031690816001600160a01b031681525050818160018151811061173157634e487b7160e01b600052603260045260246000fd5b60200260200101906001600160a01b031690816001600160a01b03168152505061183b565b604080516003808252608082019092529060208201606080368337019050509050828160008151811061179957634e487b7160e01b600052603260045260246000fd5b6001600160a01b0392831660209182029290920101526002548251911690829060019081106117d857634e487b7160e01b600052603260045260246000fd5b60200260200101906001600160a01b031690816001600160a01b031681525050818160028151811061181a57634e487b7160e01b600052603260045260246000fd5b60200260200101906001600160a01b031690816001600160a01b0316815250505b92915050565b6000600183511161188a5760405162461bcd60e51b81526020600482015260136024820152720d2dcecc2d8d2c85adee4c2c6d8ca5ae0c2e8d606b1b60448201526064016104e7565b50806000805b6001855161189e9190612895565b8110156119645761190a8582815181106118c857634e487b7160e01b600052603260045260246000fd5b6020026020010151868360016118de919061283e565b815181106118fc57634e487b7160e01b600052603260045260246000fd5b602002602001015185611ed1565b9093509150816119525760405162461bcd60e51b8152602060048201526013602482015272696e76616c69642d6f7261636c652d7261746560681b60448201526064016104e7565b8061195c816128d8565b915050611890565b505092915050565b600061271061197b8382612895565b6119859085612876565b61198f9190612856565b9392505050565b600354604051631d1f307960e31b81526001600160a01b038781166004830152868116602483015260448201869052600092839283929091169063e8f983c89060640160006040518083038186803b1580156119f157600080fd5b505afa158015611a05573d6000803e3d6000fd5b505050506040513d6000823e601f3d908101601f19168201604052611a2d9190810190612363565b9250925092508460001415611a4157600194505b8115611b4e57600354604051636e74a6f760e01b8152600481018390526001600160a01b0390911690636e74a6f79060240160206040518083038186803b158015611a8b57600080fd5b505afa158015611a9f573d6000803e3d6000fd5b505050506040513d601f19601f82011682018060405250810190611ac39190612542565b6001600160a01b03166338ed173987878688426040518663ffffffff1660e01b8152600401611af695949392919061272d565b600060405180830381600087803b158015611b1057600080fd5b505af1158015611b24573d6000803e3d6000fd5b505050506040513d6000823e601f3d908101601f19168201604052611b4c9190810190612493565b505b5050505050505050565b6060604482511015611b9e575060408051808201909152601d81527f5472616e73616374696f6e2072657665727465642073696c656e746c790000006020820152611bbb565b60048201915081806020019051810190611bb89190612570565b90505b919050565b60005b600360009054906101000a90046001600160a01b03166001600160a01b031663c2fba6676040518163ffffffff1660e01b815260040160206040518083038186803b158015611c1157600080fd5b505afa158015611c25573d6000803e3d6000fd5b505050506040513d601f19601f82011682018060405250810190611c499190612618565b81101561074657600354604051636e74a6f760e01b81526004810183905283916001600160a01b038681169263dd62ed3e9230921690636e74a6f79060240160206040518083038186803b158015611ca057600080fd5b505afa158015611cb4573d6000803e3d6000fd5b505050506040513d601f19601f82011682018060405250810190611cd89190612542565b6040516001600160e01b031960e085901b1681526001600160a01b0392831660048201529116602482015260440160206040518083038186803b158015611d1e57600080fd5b505afa158015611d32573d6000803e3d6000fd5b505050506040513d601f19601f82011682018060405250810190611d569190612618565b1015611ded57600354604051636e74a6f760e01b815260048101839052611ded916001600160a01b031690636e74a6f79060240160206040518083038186803b158015611da257600080fd5b505afa158015611db6573d6000803e3d6000fd5b505050506040513d601f19601f82011682018060405250810190611dda9190612542565b6001600160a01b03851690600019611fc2565b80611df7816128d8565b915050611bc3565b6000611e54826040518060400160405280602081526020017f5361666545524332303a206c6f772d6c6576656c2063616c6c206661696c6564815250856001600160a01b03166120e69092919063ffffffff16565b8051909150156107465780806020019051810190611e729190612526565b6107465760405162461bcd60e51b815260206004820152602a60248201527f5361666545524332303a204552433230206f7065726174696f6e20646964206e6044820152691bdd081cdd58d8d9595960b21b60648201526084016104e7565b6003546004805460055460405163b67bb24d60e01b81526001600160a01b038881169482019490945286841660248201526044810186905260648101929092526084820152600092839283928392919091169063b67bb24d9060a401606060405180830381600087803b158015611f4757600080fd5b505af1158015611f5b573d6000803e3d6000fd5b505050506040513d601f19601f82011682018060405250810190611f7f9190612651565b509150915060045442611f929190612895565b81118015611f9f57508115155b15611fb05750915060019050611fba565b6000809350935050505b935093915050565b80158061204b5750604051636eb1769f60e11b81523060048201526001600160a01b03838116602483015284169063dd62ed3e9060440160206040518083038186803b15801561201157600080fd5b505afa158015612025573d6000803e3d6000fd5b505050506040513d601f19601f820116820180604052508101906120499190612618565b155b6120b65760405162461bcd60e51b815260206004820152603660248201527f5361666545524332303a20617070726f76652066726f6d206e6f6e2d7a65726f60448201527520746f206e6f6e2d7a65726f20616c6c6f77616e636560501b60648201526084016104e7565b6040516001600160a01b03831660248201526044810182905261074690849063095ea7b360e01b90606401611645565b60606120f584846000856120fd565b949350505050565b60608247101561215e5760405162461bcd60e51b815260206004820152602660248201527f416464726573733a20696e73756666696369656e742062616c616e636520666f6044820152651c8818d85b1b60d21b60648201526084016104e7565b843b6121ac5760405162461bcd60e51b815260206004820152601d60248201527f416464726573733a2063616c6c20746f206e6f6e2d636f6e747261637400000060448201526064016104e7565b600080866001600160a01b031685876040516121c8919061268e565b60006040518083038185875af1925050503d8060008114612205576040519150601f19603f3d011682016040523d82523d6000602084013e61220a565b606091505b509150915061221a828286612225565b979650505050505050565b6060831561223457508161198f565b8251156122445782518084602001fd5b8160405162461bcd60e51b81526004016104e791906126aa565b8035611bbb8161291f565b60006020828403121561227a578081fd5b813561198f8161291f565b60008060408385031215612297578081fd5b82356122a28161291f565b946020939093013593505050565b600080604083850312156122c2578182fd5b823567ffffffffffffffff8111156122d8578283fd5b8301601f810185136122e8578283fd5b803560206122fd6122f88361281a565b6127e9565b80838252828201915082850189848660051b880101111561231c578788fd5b8795505b848610156123475780356123338161291f565b835260019590950194918301918301612320565b509550612357905086820161225e565b93505050509250929050565b600080600060608486031215612377578081fd5b835167ffffffffffffffff81111561238d578182fd5b8401601f8101861361239d578182fd5b805160206123ad6122f88361281a565b8083825282820191508285018a848660051b88010111156123cc578687fd5b8695505b848610156123f75780516123e38161291f565b8352600195909501949183019183016123d0565b50918801516040909801519199979850909695505050505050565b600080600060408486031215612426578283fd5b833567ffffffffffffffff8082111561243d578485fd5b818601915086601f830112612450578485fd5b81358181111561245e578586fd5b8760208260051b8501011115612472578586fd5b6020928301955093505084013561248881612934565b809150509250925092565b600060208083850312156124a5578182fd5b825167ffffffffffffffff8111156124bb578283fd5b8301601f810185136124cb578283fd5b80516124d96122f88261281a565b80828252848201915084840188868560051b87010111156124f8578687fd5b8694505b8385101561251a5780518352600194909401939185019185016124fc565b50979650505050505050565b600060208284031215612537578081fd5b815161198f81612934565b600060208284031215612553578081fd5b815161198f8161291f565b60008060408385031215612297578182fd5b600060208284031215612581578081fd5b815167ffffffffffffffff80821115612598578283fd5b818401915084601f8301126125ab578283fd5b8151818111156125bd576125bd612909565b6125d0601f8201601f19166020016127e9565b91508082528560208285010111156125e6578384fd5b6125f78160208401602086016128ac565b50949350505050565b600060208284031215612611578081fd5b5035919050565b600060208284031215612629578081fd5b5051919050565b60008060408385031215612642578182fd5b50508035926020909101359150565b600080600060608486031215612665578081fd5b8351925060208401519150604084015161248881612934565b6000828483379101908152919050565b600082516126a08184602087016128ac565b9190910192915050565b60006020825282518060208401526126c98160408501602087016128ac565b601f01601f19169190910160400192915050565b6020808252600c908201526b3737ba16b096b5b2b2b832b960a11b604082015260600190565b60208082526010908201526f3737ba16ba343296b3b7bb32b93737b960811b604082015260600190565b600060a082018783526020878185015260a0604085015281875180845260c0860191508289019350845b8181101561277c5784516001600160a01b031683529383019391830191600101612757565b50506001600160a01b03969096166060850152505050608001529392505050565b6000808335601e198436030181126127b3578283fd5b83018035915067ffffffffffffffff8211156127cd578283fd5b6020019150368190038213156127e257600080fd5b9250929050565b604051601f8201601f1916810167ffffffffffffffff8111828210171561281257612812612909565b604052919050565b600067ffffffffffffffff82111561283457612834612909565b5060051b60200190565b60008219821115612851576128516128f3565b500190565b60008261287157634e487b7160e01b81526012600452602481fd5b500490565b6000816000190483118215151615612890576128906128f3565b500290565b6000828210156128a7576128a76128f3565b500390565b60005b838110156128c75781810151838201526020016128af565b838111156114905750506000910152565b60006000198214156128ec576128ec6128f3565b5060010190565b634e487b7160e01b600052601160045260246000fd5b634e487b7160e01b600052604160045260246000fd5b6001600160a01b038116811461050d57600080fd5b801515811461050d57600080fdfea2646970667358221220da0409dea33fc2c1397d848811d9627dbdc1484a0919277b5cd8049b4f22431164736f6c63430008030033",
  "devdoc": {
    "kind": "dev",
    "methods": {
      "acceptGovernorship()": {
        "details": "Allows new governor to accept governorship of the contract."
      },
      "addInKeepersList(address)": {
        "details": "Use it to add keeper in keepers list and to add address in feeWhitelist",
        "params": {
          "_addressToAdd": "address which we want to add in AddressList."
        }
      },
      "batch(bytes[],bool)": {
        "params": {
          "calls": "An array of inputs for each call.",
          "revertOnFail": "If True then reverts after a failed call and stops doing further calls."
        }
      },
      "migrateAssets(address[],address)": {
        "details": "The caller has to set the addresses list since we don't maintain a list of them",
        "params": {
          "_assets": "List of assets' address to transfer from",
          "_to": "Assets recipient"
        }
      },
      "removeFromKeepersList(address)": {
        "details": "Use it to remove keeper from keepers list and to remove address from feeWhitelist",
        "params": {
          "_addressToRemove": "address which we want to remove from AddressList."
        }
      },
      "swapForVspAndTransferToVVSP(address,uint256)": {
        "details": "The vVVSP is the beneficiary of the swapHave to check allowance to routers before calling this"
      },
      "transferAllVspToVVSP()": {
        "details": "Uses all held VSP tokens"
      },
      "transferGovernorship(address)": {
        "details": "Transfers governorship of the contract to a new account (`proposedGovernor`). Can only be called by the current owner."
      },
      "unwrapAll(address)": {
        "details": "Uses all held vPool tokens"
      },
      "updateSwapManager(address)": {
        "params": {
          "_swapManager": "swap manager address"
        }
      },
      "updateSwapSlippage(uint256)": {
        "params": {
          "_newSwapSlippage": "new swap slippage"
        }
      }
    },
    "version": 1
  },
  "userdoc": {
    "kind": "user",
    "methods": {
      "addInKeepersList(address)": {
        "notice": "Add given address in provided address list."
      },
      "batch(bytes[],bool)": {
        "notice": "Allows batched call to self (this contract)."
      },
      "depositAndUnwrap(address,uint256)": {
        "notice": "Deposit vPool tokens and unwrap them"
      },
      "doInfinityApproval(address)": {
        "notice": "Approve SwapManager routers if needed"
      },
      "migrateAssets(address[],address)": {
        "notice": "Migrate assets to a new contract"
      },
      "removeFromKeepersList(address)": {
        "notice": "Remove given address from provided address list."
      },
      "swapForVspAndTransferToVVSP(address,uint256)": {
        "notice": "Perform a slippage-protected swap for VSP"
      },
      "transferAllVspToVVSP()": {
        "notice": "Transfer VSP tokens to vVSP"
      },
      "transferVspToVVSP(uint256)": {
        "notice": "Transfer VSP tokens to vVSP"
      },
      "unwrap(address,uint256)": {
        "notice": "Withdraw (a.k.a. unwrap) underlying token from vPool"
      },
      "unwrapAll(address)": {
        "notice": "Withdraw (a.k.a. unwrap) underlying token from vPool"
      },
      "updateSwapManager(address)": {
        "notice": "Update swap manager address"
      },
      "updateSwapSlippage(uint256)": {
        "notice": "Update swap slippage value"
      }
    },
    "version": 1
  },
  "storageLayout": {
    "storage": [
      {
        "astId": 887,
        "contract": "contracts/utils/BuyBack.sol:BuyBack",
        "label": "_initialized",
        "offset": 0,
        "slot": "0",
        "type": "t_bool"
      },
      {
        "astId": 890,
        "contract": "contracts/utils/BuyBack.sol:BuyBack",
        "label": "_initializing",
        "offset": 1,
        "slot": "0",
        "type": "t_bool"
      },
      {
        "astId": 3732,
        "contract": "contracts/utils/BuyBack.sol:BuyBack",
        "label": "governor",
        "offset": 2,
        "slot": "0",
        "type": "t_address"
      },
      {
        "astId": 3734,
        "contract": "contracts/utils/BuyBack.sol:BuyBack",
        "label": "proposedGovernor",
        "offset": 0,
        "slot": "1",
        "type": "t_address"
      },
      {
        "astId": 40497,
        "contract": "contracts/utils/BuyBack.sol:BuyBack",
        "label": "weth",
        "offset": 0,
        "slot": "2",
        "type": "t_address"
      },
      {
        "astId": 40500,
        "contract": "contracts/utils/BuyBack.sol:BuyBack",
        "label": "swapManager",
        "offset": 0,
        "slot": "3",
        "type": "t_contract(ISwapManager)4660"
      },
      {
        "astId": 40503,
        "contract": "contracts/utils/BuyBack.sol:BuyBack",
        "label": "oraclePeriod",
        "offset": 0,
        "slot": "4",
        "type": "t_uint256"
      },
      {
        "astId": 40506,
        "contract": "contracts/utils/BuyBack.sol:BuyBack",
        "label": "oracleRouterIdx",
        "offset": 0,
        "slot": "5",
        "type": "t_uint256"
      },
      {
        "astId": 40509,
        "contract": "contracts/utils/BuyBack.sol:BuyBack",
        "label": "swapSlippage",
        "offset": 0,
        "slot": "6",
        "type": "t_uint256"
      },
      {
        "astId": 40087,
        "contract": "contracts/utils/BuyBack.sol:BuyBack",
        "label": "vsp",
        "offset": 0,
        "slot": "7",
        "type": "t_contract(IERC20)1552"
      },
      {
        "astId": 40090,
        "contract": "contracts/utils/BuyBack.sol:BuyBack",
        "label": "vVSP",
        "offset": 0,
        "slot": "8",
        "type": "t_contract(IVesperPool)6821"
      },
      {
        "astId": 40092,
        "contract": "contracts/utils/BuyBack.sol:BuyBack",
        "label": "keepers",
        "offset": 0,
        "slot": "9",
        "type": "t_address"
      }
    ],
    "types": {
      "t_address": {
        "encoding": "inplace",
        "label": "address",
        "numberOfBytes": "20"
      },
      "t_bool": {
        "encoding": "inplace",
        "label": "bool",
        "numberOfBytes": "1"
      },
      "t_contract(IERC20)1552": {
        "encoding": "inplace",
        "label": "contract IERC20",
        "numberOfBytes": "20"
      },
      "t_contract(ISwapManager)4660": {
        "encoding": "inplace",
        "label": "contract ISwapManager",
        "numberOfBytes": "20"
      },
      "t_contract(IVesperPool)6821": {
        "encoding": "inplace",
        "label": "contract IVesperPool",
        "numberOfBytes": "20"
      },
      "t_uint256": {
        "encoding": "inplace",
        "label": "uint256",
        "numberOfBytes": "32"
      }
    }
  }
}