{
  "address": "0x9B11078F5e8345d074498a83C4f9824942F796d3",
  "abi": [
    {
      "inputs": [
        {
          "internalType": "address",
          "name": "_pool",
          "type": "address"
        },
        {
          "internalType": "address",
          "name": "_swapManager",
          "type": "address"
        }
      ],
      "stateMutability": "nonpayable",
      "type": "constructor"
    },
    {
      "anonymous": false,
      "inputs": [
        {
          "indexed": false,
          "internalType": "uint256",
          "name": "oldDripPeriod",
          "type": "uint256"
        },
        {
          "indexed": false,
          "internalType": "uint256",
          "name": "newDripPeriod",
          "type": "uint256"
        }
      ],
      "name": "DripPeriodUpdated",
      "type": "event"
    },
    {
      "anonymous": false,
      "inputs": [
        {
          "indexed": true,
          "internalType": "address",
          "name": "previousFeeCollector",
          "type": "address"
        },
        {
          "indexed": true,
          "internalType": "address",
          "name": "newFeeCollector",
          "type": "address"
        }
      ],
      "name": "UpdatedFeeCollector",
      "type": "event"
    },
    {
      "anonymous": false,
      "inputs": [
        {
          "indexed": false,
          "internalType": "uint256",
          "name": "oldPeriod",
          "type": "uint256"
        },
        {
          "indexed": false,
          "internalType": "uint256",
          "name": "newPeriod",
          "type": "uint256"
        },
        {
          "indexed": false,
          "internalType": "uint256",
          "name": "oldRouterIdx",
          "type": "uint256"
        },
        {
          "indexed": false,
          "internalType": "uint256",
          "name": "newRouterIdx",
          "type": "uint256"
        }
      ],
      "name": "UpdatedOracleConfig",
      "type": "event"
    },
    {
      "anonymous": false,
      "inputs": [
        {
          "indexed": true,
          "internalType": "address",
          "name": "previousSwapManager",
          "type": "address"
        },
        {
          "indexed": true,
          "internalType": "address",
          "name": "newSwapManager",
          "type": "address"
        }
      ],
      "name": "UpdatedSwapManager",
      "type": "event"
    },
    {
      "anonymous": false,
      "inputs": [
        {
          "indexed": false,
          "internalType": "uint256",
          "name": "oldSwapSlippage",
          "type": "uint256"
        },
        {
          "indexed": false,
          "internalType": "uint256",
          "name": "newSwapSlippage",
          "type": "uint256"
        }
      ],
      "name": "UpdatedSwapSlippage",
      "type": "event"
    },
    {
      "inputs": [],
      "name": "NAME",
      "outputs": [
        {
          "internalType": "string",
          "name": "",
          "type": "string"
        }
      ],
      "stateMutability": "view",
      "type": "function"
    },
    {
      "inputs": [],
      "name": "VERSION",
      "outputs": [
        {
          "internalType": "string",
          "name": "",
          "type": "string"
        }
      ],
      "stateMutability": "view",
      "type": "function"
    },
    {
      "inputs": [
        {
          "internalType": "address",
          "name": "_keeperAddress",
          "type": "address"
        }
      ],
      "name": "addKeeper",
      "outputs": [],
      "stateMutability": "nonpayable",
      "type": "function"
    },
    {
      "inputs": [],
      "name": "approveGrowToken",
      "outputs": [],
      "stateMutability": "nonpayable",
      "type": "function"
    },
    {
      "inputs": [],
      "name": "approveToken",
      "outputs": [],
      "stateMutability": "nonpayable",
      "type": "function"
    },
    {
      "inputs": [],
      "name": "collateralToken",
      "outputs": [
        {
          "internalType": "contract IERC20",
          "name": "",
          "type": "address"
        }
      ],
      "stateMutability": "view",
      "type": "function"
    },
    {
      "inputs": [],
      "name": "dripPeriod",
      "outputs": [
        {
          "internalType": "uint256",
          "name": "",
          "type": "uint256"
        }
      ],
      "stateMutability": "view",
      "type": "function"
    },
    {
      "inputs": [],
      "name": "dripToken",
      "outputs": [
        {
          "internalType": "address",
          "name": "",
          "type": "address"
        }
      ],
      "stateMutability": "view",
      "type": "function"
    },
    {
      "inputs": [],
      "name": "feeCollector",
      "outputs": [
        {
          "internalType": "address",
          "name": "",
          "type": "address"
        }
      ],
      "stateMutability": "view",
      "type": "function"
    },
    {
      "inputs": [
        {
          "internalType": "address",
          "name": "_addressListFactory",
          "type": "address"
        }
      ],
      "name": "init",
      "outputs": [],
      "stateMutability": "nonpayable",
      "type": "function"
    },
    {
      "inputs": [
        {
          "internalType": "address",
          "name": "_token",
          "type": "address"
        }
      ],
      "name": "isReservedToken",
      "outputs": [
        {
          "internalType": "bool",
          "name": "",
          "type": "bool"
        }
      ],
      "stateMutability": "view",
      "type": "function"
    },
    {
      "inputs": [],
      "name": "keepers",
      "outputs": [
        {
          "internalType": "contract IAddressList",
          "name": "",
          "type": "address"
        }
      ],
      "stateMutability": "view",
      "type": "function"
    },
    {
      "inputs": [
        {
          "internalType": "address",
          "name": "_newStrategy",
          "type": "address"
        }
      ],
      "name": "migrate",
      "outputs": [],
      "stateMutability": "nonpayable",
      "type": "function"
    },
    {
      "inputs": [],
      "name": "oraclePeriod",
      "outputs": [
        {
          "internalType": "uint256",
          "name": "",
          "type": "uint256"
        }
      ],
      "stateMutability": "view",
      "type": "function"
    },
    {
      "inputs": [],
      "name": "oracleRouterIdx",
      "outputs": [
        {
          "internalType": "uint256",
          "name": "",
          "type": "uint256"
        }
      ],
      "stateMutability": "view",
      "type": "function"
    },
    {
      "inputs": [],
      "name": "pool",
      "outputs": [
        {
          "internalType": "address",
          "name": "",
          "type": "address"
        }
      ],
      "stateMutability": "view",
      "type": "function"
    },
    {
      "inputs": [],
      "name": "rebalance",
      "outputs": [],
      "stateMutability": "nonpayable",
      "type": "function"
    },
    {
      "inputs": [],
      "name": "receiptToken",
      "outputs": [
        {
          "internalType": "address",
          "name": "",
          "type": "address"
        }
      ],
      "stateMutability": "view",
      "type": "function"
    },
    {
      "inputs": [
        {
          "internalType": "address",
          "name": "_keeperAddress",
          "type": "address"
        }
      ],
      "name": "removeKeeper",
      "outputs": [],
      "stateMutability": "nonpayable",
      "type": "function"
    },
    {
      "inputs": [],
      "name": "setupOracles",
      "outputs": [],
      "stateMutability": "nonpayable",
      "type": "function"
    },
    {
      "inputs": [],
      "name": "swapManager",
      "outputs": [
        {
          "internalType": "contract ISwapManager",
          "name": "",
          "type": "address"
        }
      ],
      "stateMutability": "view",
      "type": "function"
    },
    {
      "inputs": [],
      "name": "swapSlippage",
      "outputs": [
        {
          "internalType": "uint256",
          "name": "",
          "type": "uint256"
        }
      ],
      "stateMutability": "view",
      "type": "function"
    },
    {
      "inputs": [
        {
          "internalType": "address",
          "name": "_fromToken",
          "type": "address"
        }
      ],
      "name": "sweepERC20",
      "outputs": [],
      "stateMutability": "nonpayable",
      "type": "function"
    },
    {
      "inputs": [],
      "name": "token",
      "outputs": [
        {
          "internalType": "address",
          "name": "",
          "type": "address"
        }
      ],
      "stateMutability": "view",
      "type": "function"
    },
    {
      "inputs": [],
      "name": "totalEarned",
      "outputs": [
        {
          "internalType": "uint256",
          "name": "",
          "type": "uint256"
        }
      ],
      "stateMutability": "view",
      "type": "function"
    },
    {
      "inputs": [],
      "name": "totalValue",
      "outputs": [
        {
          "internalType": "uint256",
          "name": "_totalValue",
          "type": "uint256"
        }
      ],
      "stateMutability": "view",
      "type": "function"
    },
    {
      "inputs": [],
      "name": "totalValueCurrent",
      "outputs": [
        {
          "internalType": "uint256",
          "name": "",
          "type": "uint256"
        }
      ],
      "stateMutability": "nonpayable",
      "type": "function"
    },
    {
      "inputs": [
        {
          "internalType": "uint256",
          "name": "_dripPeriod",
          "type": "uint256"
        }
      ],
      "name": "updateDripPeriod",
      "outputs": [],
      "stateMutability": "nonpayable",
      "type": "function"
    },
    {
      "inputs": [
        {
          "internalType": "address",
          "name": "_feeCollector",
          "type": "address"
        }
      ],
      "name": "updateFeeCollector",
      "outputs": [],
      "stateMutability": "nonpayable",
      "type": "function"
    },
    {
      "inputs": [
        {
          "internalType": "uint256",
          "name": "_newPeriod",
          "type": "uint256"
        },
        {
          "internalType": "uint256",
          "name": "_newRouterIdx",
          "type": "uint256"
        }
      ],
      "name": "updateOracleConfig",
      "outputs": [],
      "stateMutability": "nonpayable",
      "type": "function"
    },
    {
      "inputs": [
        {
          "internalType": "address",
          "name": "_swapManager",
          "type": "address"
        }
      ],
      "name": "updateSwapManager",
      "outputs": [],
      "stateMutability": "nonpayable",
      "type": "function"
    },
    {
      "inputs": [
        {
          "internalType": "uint256",
          "name": "_newSwapSlippage",
          "type": "uint256"
        }
      ],
      "name": "updateSwapSlippage",
      "outputs": [],
      "stateMutability": "nonpayable",
      "type": "function"
    },
    {
      "inputs": [
        {
          "internalType": "uint256",
          "name": "_amount",
          "type": "uint256"
        }
      ],
      "name": "withdraw",
      "outputs": [],
      "stateMutability": "nonpayable",
      "type": "function"
    }
  ],
  "transactionHash": "0x4fc29fb8f5ac8231b2ed2dc6efbc7db50f66c8615b3c26f7039ef157635857c3",
  "args": [
    "0x35B225880df01cde935Db463D0e70a9e737D516E",
    "0xe382d9f2394A359B01006faa8A1864b8a60d2710"
  ],
  "solcInputHash": "2b882e2a6c2e6a5349b73976cd40115e",
  "bytecode": "0x610100604052610e1060045560006005556127106006556202a3006007553480156200002a57600080fd5b50604051620046ee380380620046ee8339810160408190526200004d91620002cb565b8181730538c8bac84e95a9df8ac10aad17dbe81b9e36ee732260fac5e5542a773aa44fbcfedf7c193bc2c599808484848282826001600160a01b038316620000dc5760405162461bcd60e51b815260206004820152601460248201527f706f6f6c2d616464726573732d69732d7a65726f00000000000000000000000060448201526064015b60405180910390fd5b6001600160a01b038216620001295760405162461bcd60e51b8152602060048201526012602482015271736d2d616464726573732d69732d7a65726f60701b6044820152606401620000d3565b600380546001600160a01b0319166001600160a01b0384811691909117909155606084901b6001600160601b03191660a05260408051637e062a3560e11b815290519185169163fc0c546a91600480820192602092909190829003018186803b1580156200019657600080fd5b505afa158015620001ab573d6000803e3d6000fd5b505050506040513d601f19601f82011682018060405250810190620001d1919062000309565b60601b6001600160601b031916608052600080546001600160a01b0319166001600160a01b039283161790558316151591506200025390505760405162461bcd60e51b815260206004820152601660248201527f76546f6b656e2d616464726573732d69732d7a65726f000000000000000000006044820152606401620000d3565b60601b6001600160601b03191660c05250506001600160a01b038116620002ae5760405162461bcd60e51b815260206004820152600e60248201526d64726970546f6b656e2d7a65726f60901b6044820152606401620000d3565b60601b6001600160601b03191660e0525062000348945050505050565b60008060408385031215620002de578182fd5b8251620002eb816200032f565b6020840151909250620002fe816200032f565b809150509250929050565b6000602082840312156200031b578081fd5b815162000328816200032f565b9392505050565b6001600160a01b03811681146200034557600080fd5b50565b60805160601c60a05160601c60c05160601c60e05160601c614210620004de600039600081816102ae0152818161113a0152818161122a0152818161125f01528181612a2501528181612eab01528181612fa401528181613635015261368f015260008181610c4d015281816122f8015281816123e201528181612627015281816126db0152818161275f01528181612b61015281816132d5015261337501526000818161021a015281816104c00152818161064f015281816107d401528181610a4f01528181610acb01528181610c8a01528181610e3d015281816110300152818161136e01528181611495015281816117750152818161183e01528181611a8b01528181611f29015281816120ff0152818161219c0152818161238e01528181612d670152612df70152600081816103ee015281816119dd01528181611a6201528181611d5801528181611f53015281816122580152818161236c015281816123c0015281816125b901528181612ae301528181612bfd01528181612cc201528181613614015261366e01526142106000f3fe608060405234801561001057600080fd5b50600436106101fb5760003560e01c80637d7c2a1c1161011a578063cd2d7ebe116100ad578063e00af4a71161007c578063e00af4a71461045a578063e645c2021461046d578063ec78e83214610475578063fc0c546a14610488578063ffa1ad7414610499576101fb565b8063cd2d7ebe14610423578063ce5494bb1461042c578063d2c35ce81461043f578063d4c3eea014610452576101fb565b8063a923b2a6116100e9578063a923b2a6146103ce578063aa101886146103e1578063b2016bd4146103e9578063c415b95c14610410576101fb565b80637d7c2a1c14610362578063951dc22c1461036a57806399b71d5c1461037d578063a3f4df7e14610385576101fb565b806342189c8f116101925780636dfa8d99116101615780636dfa8d9914610335578063709d039d1461033e57806371506414146103515780637737b6721461035a576101fb565b806342189c8f146102e3578063440d7248146102ec5780634c36fad71461030f57806367f5e4b814610322576101fb565b80631aedeabe116101ce5780631aedeabe1461027f5780632e1a7d4d14610296578063335bbf11146102a95780634032b72b146102d0576101fb565b806314ae9f2e1461020057806316f0115b146102155780631960d1161461025957806319ab453c1461026c575b600080fd5b61021361020e366004613ce2565b6104be565b005b61023c7f000000000000000000000000000000000000000000000000000000000000000081565b6040516001600160a01b0390911681526020015b60405180910390f35b610213610267366004613ee0565b61064d565b61021361027a366004613ce2565b6107d2565b61028860065481565b604051908152602001610250565b6102136102a4366004613ee0565b610a4c565b61023c7f000000000000000000000000000000000000000000000000000000000000000081565b6102136102de366004613ce2565b610ac9565b61028860045481565b6102ff6102fa366004613ce2565b610c49565b6040519015158152602001610250565b61021361031d366004613ce2565b610c88565b610213610330366004613ee0565b610e3b565b61028860085481565b60035461023c906001600160a01b031681565b61028860075481565b610213610f87565b610213611288565b60015461023c906001600160a01b031681565b6102136113d7565b6103c16040518060400160405280601d81526020017f4561726e2d5665737065722d53747261746567792d4441492d5742544300000081525081565b6040516102509190613f81565b6102136103dc366004613f10565b611493565b6102136116c8565b61023c7f000000000000000000000000000000000000000000000000000000000000000081565b60025461023c906001600160a01b031681565b61028860055481565b61021361043a366004613ce2565b611772565b61021361044d366004613ce2565b611a89565b610288611c52565b610213610468366004613ce2565b611c61565b610288611efc565b60005461023c906001600160a01b031681565b6000546001600160a01b031661023c565b6103c160405180604001604052806006815260200165332e302e313560d01b81525081565b7f00000000000000000000000000000000000000000000000000000000000000006001600160a01b0316630c340a246040518163ffffffff1660e01b815260040160206040518083038186803b15801561051757600080fd5b505afa15801561052b573d6000803e3d6000fd5b505050506040513d601f19601f8201168201806040525081019061054f9190613cfe565b6001600160a01b0316336001600160a01b0316146105885760405162461bcd60e51b815260040161057f90613fe4565b60405180910390fd5b600154604051631484968760e11b81526001600160a01b038381166004830152909116906329092d0e90602401602060405180830381600087803b1580156105cf57600080fd5b505af11580156105e3573d6000803e3d6000fd5b505050506040513d601f19601f820116820180604052508101906106079190613e61565b61064a5760405162461bcd60e51b81526020600482015260146024820152731c995b5bdd994b5ad9595c195c8b59985a5b195960621b604482015260640161057f565b50565b7f00000000000000000000000000000000000000000000000000000000000000006001600160a01b0316630c340a246040518163ffffffff1660e01b815260040160206040518083038186803b1580156106a657600080fd5b505afa1580156106ba573d6000803e3d6000fd5b505050506040513d601f19601f820116820180604052508101906106de9190613cfe565b6001600160a01b0316336001600160a01b03161461070e5760405162461bcd60e51b815260040161057f90613fe4565b8061074d5760405162461bcd60e51b815260206004820152600f60248201526e64726970506572696f642d7a65726f60881b604482015260640161057f565b6007548114156107915760405162461bcd60e51b815260206004820152600f60248201526e1cd85b594b591c9a5c14195c9a5bd9608a1b604482015260640161057f565b60075460408051918252602082018390527f6a4a78fe36e2d43bd20405835c6211b888cc77a834e32ddc9ac64ded78f4b328910160405180910390a1600755565b7f00000000000000000000000000000000000000000000000000000000000000006001600160a01b0316630c340a246040518163ffffffff1660e01b815260040160206040518083038186803b15801561082b57600080fd5b505afa15801561083f573d6000803e3d6000fd5b505050506040513d601f19601f820116820180604052508101906108639190613cfe565b6001600160a01b0316336001600160a01b0316146108935760405162461bcd60e51b815260040161057f90613fe4565b6001546001600160a01b0316156108ec5760405162461bcd60e51b815260206004820152601b60248201527f6b65657065722d6c6973742d616c72656164792d637265617465640000000000604482015260640161057f565b6000819050806001600160a01b0316630fab4d256040518163ffffffff1660e01b8152600401602060405180830381600087803b15801561092c57600080fd5b505af1158015610940573d6000803e3d6000fd5b505050506040513d601f19601f820116820180604052508101906109649190613cfe565b600180546001600160a01b0319166001600160a01b03929092169182179055630a3b0a4f61098f3390565b6040516001600160e01b031960e084901b1681526001600160a01b039091166004820152602401602060405180830381600087803b1580156109d057600080fd5b505af11580156109e4573d6000803e3d6000fd5b505050506040513d601f19601f82011682018060405250810190610a089190613e61565b610a485760405162461bcd60e51b81526020600482015260116024820152701859190b5ad9595c195c8b59985a5b1959607a1b604482015260640161057f565b5050565b337f00000000000000000000000000000000000000000000000000000000000000006001600160a01b031614610ac05760405162461bcd60e51b815260206004820152601960248201527818d85b1b195c8b5a5ccb5b9bdd0b5d995cdc195c8b5c1bdbdb603a1b604482015260640161057f565b61064a81611f06565b7f00000000000000000000000000000000000000000000000000000000000000006001600160a01b0316630c340a246040518163ffffffff1660e01b815260040160206040518083038186803b158015610b2257600080fd5b505afa158015610b36573d6000803e3d6000fd5b505050506040513d601f19601f82011682018060405250810190610b5a9190613cfe565b6001600160a01b0316336001600160a01b031614610b8a5760405162461bcd60e51b815260040161057f90613fe4565b600154604051630a3b0a4f60e01b81526001600160a01b03838116600483015290911690630a3b0a4f90602401602060405180830381600087803b158015610bd157600080fd5b505af1158015610be5573d6000803e3d6000fd5b505050506040513d601f19601f82011682018060405250810190610c099190613e61565b61064a5760405162461bcd60e51b81526020600482015260116024820152701859190b5ad9595c195c8b59985a5b1959607a1b604482015260640161057f565b60007f00000000000000000000000000000000000000000000000000000000000000006001600160a01b0316826001600160a01b03161490505b919050565b7f00000000000000000000000000000000000000000000000000000000000000006001600160a01b0316630c340a246040518163ffffffff1660e01b815260040160206040518083038186803b158015610ce157600080fd5b505afa158015610cf5573d6000803e3d6000fd5b505050506040513d601f19601f82011682018060405250810190610d199190613cfe565b6001600160a01b0316336001600160a01b031614610d495760405162461bcd60e51b815260040161057f90613fe4565b6001600160a01b038116610d945760405162461bcd60e51b8152602060048201526012602482015271736d2d616464726573732d69732d7a65726f60701b604482015260640161057f565b6003546001600160a01b0382811691161415610ddf5760405162461bcd60e51b815260206004820152600a602482015269736d2d69732d73616d6560b01b604482015260640161057f565b6003546040516001600160a01b038084169216907f2d19927e7cac08ceb98b38898a4fdff6da6a27295b9a2d62fe250408ebe044e190600090a3600380546001600160a01b0319166001600160a01b0392909216919091179055565b7f00000000000000000000000000000000000000000000000000000000000000006001600160a01b0316630c340a246040518163ffffffff1660e01b815260040160206040518083038186803b158015610e9457600080fd5b505afa158015610ea8573d6000803e3d6000fd5b505050506040513d601f19601f82011682018060405250810190610ecc9190613cfe565b6001600160a01b0316336001600160a01b031614610efc5760405162461bcd60e51b815260040161057f90613fe4565b612710811115610f475760405162461bcd60e51b8152602060048201526016602482015275696e76616c69642d736c6970706167652d76616c756560501b604482015260640161057f565b60065460408051918252602082018390527ef1c5db862c7598b3b6765552ca951f498611e06412c2d57f8d0b58f82e7f82910160405180910390a1600655565b6001546001600160a01b0316635dbe47e8336040516001600160e01b031960e084901b1681526001600160a01b03909116600482015260240160206040518083038186803b158015610fd857600080fd5b505afa158015610fec573d6000803e3d6000fd5b505050506040513d601f19601f820116820180604052508101906110109190613e61565b61102c5760405162461bcd60e51b815260040161057f90613fb4565b60007f00000000000000000000000000000000000000000000000000000000000000006001600160a01b0316638bc6beb26040518163ffffffff1660e01b8152600401602060405180830381600087803b15801561108957600080fd5b505af115801561109d573d6000803e3d6000fd5b505050506040513d601f19601f820116820180604052508101906110c19190613cfe565b90506000816001600160a01b031663e49e463b6040518163ffffffff1660e01b815260040160206040518083038186803b1580156110fe57600080fd5b505afa158015611112573d6000803e3d6000fd5b505050506040513d601f19601f820116820180604052508101906111369190613cfe565b90507f00000000000000000000000000000000000000000000000000000000000000006001600160a01b0316816001600160a01b031663fc0c546a6040518163ffffffff1660e01b815260040160206040518083038186803b15801561119b57600080fd5b505afa1580156111af573d6000803e3d6000fd5b505050506040513d601f19601f820116820180604052508101906111d39190613cfe565b6001600160a01b03161461121d5760405162461bcd60e51b81526020600482015260116024820152701a5b9d985b1a590b59dc9bddcb5c1bdbdb607a1b604482015260640161057f565b6112526001600160a01b037f000000000000000000000000000000000000000000000000000000000000000016826000611f82565b610a486001600160a01b037f00000000000000000000000000000000000000000000000000000000000000001682600019611f82565b6001546001600160a01b0316635dbe47e8336040516001600160e01b031960e084901b1681526001600160a01b03909116600482015260240160206040518083038186803b1580156112d957600080fd5b505afa1580156112ed573d6000803e3d6000fd5b505050506040513d601f19601f820116820180604052508101906113119190613e61565b61132d5760405162461bcd60e51b815260040161057f90613fb4565b600080600061133a6120d9565b6040516302df682360e11b815260048101849052602481018390526044810182905292955090935091506001600160a01b037f000000000000000000000000000000000000000000000000000000000000000016906305bed04690606401600060405180830381600087803b1580156113b257600080fd5b505af11580156113c6573d6000803e3d6000fd5b505050506113d2612240565b505050565b6001546001600160a01b0316635dbe47e8336040516001600160e01b031960e084901b1681526001600160a01b03909116600482015260240160206040518083038186803b15801561142857600080fd5b505afa15801561143c573d6000803e3d6000fd5b505050506040513d601f19601f820116820180604052508101906114609190613e61565b61147c5760405162461bcd60e51b815260040161057f90613fb4565b611486600061235f565b61149160001961235f565b565b7f00000000000000000000000000000000000000000000000000000000000000006001600160a01b0316630c340a246040518163ffffffff1660e01b815260040160206040518083038186803b1580156114ec57600080fd5b505afa158015611500573d6000803e3d6000fd5b505050506040513d601f19601f820116820180604052508101906115249190613cfe565b6001600160a01b0316336001600160a01b0316146115545760405162461bcd60e51b815260040161057f90613fe4565b600360009054906101000a90046001600160a01b03166001600160a01b031663c2fba6676040518163ffffffff1660e01b815260040160206040518083038186803b1580156115a257600080fd5b505afa1580156115b6573d6000803e3d6000fd5b505050506040513d601f19601f820116820180604052508101906115da9190613ef8565b811061161f5760405162461bcd60e51b81526020600482015260146024820152730d2dcecc2d8d2c85ae4deeae8cae45ad2dcc8caf60631b604482015260640161057f565b8161162a5760045491505b603b82116116725760405162461bcd60e51b81526020600482015260156024820152741a5b9d985b1a590b5bdc9858db194b5c195c9a5bd9605a1b604482015260640161057f565b6004546005546040805192835260208301859052820152606081018290527f83bc5ab8030537fcf1d29c2334f6d22c26c82dcbe5ff03923d2cff5c692c0a7f9060800160405180910390a1600491909155600555565b6001546001600160a01b0316635dbe47e8336040516001600160e01b031960e084901b1681526001600160a01b03909116600482015260240160206040518083038186803b15801561171957600080fd5b505afa15801561172d573d6000803e3d6000fd5b505050506040513d601f19601f820116820180604052508101906117519190613e61565b61176d5760405162461bcd60e51b815260040161057f90613fb4565b611491565b337f00000000000000000000000000000000000000000000000000000000000000006001600160a01b0316146117e65760405162461bcd60e51b815260206004820152601960248201527818d85b1b195c8b5a5ccb5b9bdd0b5d995cdc195c8b5c1bdbdb603a1b604482015260640161057f565b6001600160a01b03811661183c5760405162461bcd60e51b815260206004820152601c60248201527f6e65772d73747261746567792d616464726573732d69732d7a65726f00000000604482015260640161057f565b7f00000000000000000000000000000000000000000000000000000000000000006001600160a01b0316816001600160a01b03166316f0115b6040518163ffffffff1660e01b815260040160206040518083038186803b15801561189f57600080fd5b505afa1580156118b3573d6000803e3d6000fd5b505050506040513d601f19601f820116820180604052508101906118d79190613cfe565b6001600160a01b0316146119265760405162461bcd60e51b81526020600482015260166024820152756e6f742d76616c69642d6e65772d737472617465677960501b604482015260640161057f565b6000546040516370a0823160e01b81523060048201526119ba9183916001600160a01b03909116906370a082319060240160206040518083038186803b15801561196f57600080fd5b505afa158015611983573d6000803e3d6000fd5b505050506040513d601f19601f820116820180604052508101906119a79190613ef8565b6000546001600160a01b031691906125f2565b6040516370a0823160e01b815230600482015261064a9082906001600160a01b037f000000000000000000000000000000000000000000000000000000000000000016906370a08231906024015b60206040518083038186803b158015611a2057600080fd5b505afa158015611a34573d6000803e3d6000fd5b505050506040513d601f19601f82011682018060405250810190611a589190613ef8565b6001600160a01b037f00000000000000000000000000000000000000000000000000000000000000001691906125f2565b7f00000000000000000000000000000000000000000000000000000000000000006001600160a01b0316630c340a246040518163ffffffff1660e01b815260040160206040518083038186803b158015611ae257600080fd5b505afa158015611af6573d6000803e3d6000fd5b505050506040513d601f19601f82011682018060405250810190611b1a9190613cfe565b6001600160a01b0316336001600160a01b031614611b4a5760405162461bcd60e51b815260040161057f90613fe4565b6001600160a01b038116611ba05760405162461bcd60e51b815260206004820152601d60248201527f6665652d636f6c6c6563746f722d616464726573732d69732d7a65726f000000604482015260640161057f565b6002546001600160a01b0382811691161415611bf65760405162461bcd60e51b81526020600482015260156024820152746665652d636f6c6c6563746f722d69732d73616d6560581b604482015260640161057f565b6002546040516001600160a01b038084169216907f0f06062680f9bd68e786e9980d9bb03d73d5620fc3b345e417b6eacb310b970690600090a3600280546001600160a01b0319166001600160a01b0392909216919091179055565b6000611c5c612622565b905090565b6001546001600160a01b0316635dbe47e8336040516001600160e01b031960e084901b1681526001600160a01b03909116600482015260240160206040518083038186803b158015611cb257600080fd5b505afa158015611cc6573d6000803e3d6000fd5b505050506040513d601f19601f82011682018060405250810190611cea9190613e61565b611d065760405162461bcd60e51b815260040161057f90613fb4565b6002546001600160a01b0316611d565760405162461bcd60e51b81526020600482015260156024820152741999594b58dbdb1b1958dd1bdc8b5b9bdd0b5cd95d605a1b604482015260640161057f565b7f00000000000000000000000000000000000000000000000000000000000000006001600160a01b0316816001600160a01b03161415611dd85760405162461bcd60e51b815260206004820152601f60248201527f6e6f742d616c6c6f7765642d746f2d73776565702d636f6c6c61746572616c00604482015260640161057f565b611de181610c49565b15611e255760405162461bcd60e51b815260206004820152601460248201527306e6f742d616c6c6f7765642d746f2d73776565760641b604482015260640161057f565b6001600160a01b03811673eeeeeeeeeeeeeeeeeeeeeeeeeeeeeeeeeeeeeeee1415611e6557600254611e60906001600160a01b031647612808565b61064a565b6040516370a0823160e01b81523060048201526000906001600160a01b038316906370a082319060240160206040518083038186803b158015611ea757600080fd5b505afa158015611ebb573d6000803e3d6000fd5b505050506040513d601f19601f82011682018060405250810190611edf9190613ef8565b600254909150610a48906001600160a01b038481169116836125f2565b6000611c5c611c52565b611f0f81612921565b506040516370a0823160e01b815230600482015261064a907f0000000000000000000000000000000000000000000000000000000000000000906001600160a01b037f000000000000000000000000000000000000000000000000000000000000000016906370a0823190602401611a08565b80158061200b5750604051636eb1769f60e11b81523060048201526001600160a01b03838116602483015284169063dd62ed3e9060440160206040518083038186803b158015611fd157600080fd5b505afa158015611fe5573d6000803e3d6000fd5b505050506040513d601f19601f820116820180604052508101906120099190613ef8565b155b6120765760405162461bcd60e51b815260206004820152603660248201527f5361666545524332303a20617070726f76652066726f6d206e6f6e2d7a65726f60448201527520746f206e6f6e2d7a65726f20616c6c6f77616e636560501b606482015260840161057f565b6040516001600160a01b0383166024820152604481018290526113d290849063095ea7b360e01b906064015b60408051601f198184030181529190526020810180516001600160e01b03166001600160e01b03199093169290921790915261294c565b604051636a9eee1360e11b81523060048201526000908190819081906001600160a01b037f0000000000000000000000000000000000000000000000000000000000000000169063d53ddc269060240160206040518083038186803b15801561214157600080fd5b505afa158015612155573d6000803e3d6000fd5b505050506040513d601f19601f820116820180604052508101906121799190613ef8565b604051639f2b283360e01b81523060048201529091506000906001600160a01b037f00000000000000000000000000000000000000000000000000000000000000001690639f2b28339060240160206040518083038186803b1580156121de57600080fd5b505afa1580156121f2573d6000803e3d6000fd5b505050506040513d601f19601f820116820180604052508101906122169190613ef8565b905061222181612a1e565b945061222c81612a85565b935061223782612aaa565b92505050909192565b6040516370a0823160e01b81523060048201526000907f00000000000000000000000000000000000000000000000000000000000000006001600160a01b0316906370a082319060240160206040518083038186803b1580156122a257600080fd5b505afa1580156122b6573d6000803e3d6000fd5b505050506040513d601f19601f820116820180604052508101906122da9190613ef8565b9050801561064a5760405163b6b55f2560e01b8152600481018290527f00000000000000000000000000000000000000000000000000000000000000006001600160a01b03169063b6b55f2590602401600060405180830381600087803b15801561234457600080fd5b505af1158015612358573d6000803e3d6000fd5b5050505050565b6123b36001600160a01b037f0000000000000000000000000000000000000000000000000000000000000000167f000000000000000000000000000000000000000000000000000000000000000083611f82565b6124076001600160a01b037f0000000000000000000000000000000000000000000000000000000000000000167f000000000000000000000000000000000000000000000000000000000000000083611f82565b60005b600360009054906101000a90046001600160a01b03166001600160a01b031663c2fba6676040518163ffffffff1660e01b815260040160206040518083038186803b15801561245857600080fd5b505afa15801561246c573d6000803e3d6000fd5b505050506040513d601f19601f820116820180604052508101906124909190613ef8565b811015610a4857600354604051636e74a6f760e01b815260048101839052612531916001600160a01b031690636e74a6f79060240160206040518083038186803b1580156124dd57600080fd5b505afa1580156124f1573d6000803e3d6000fd5b505050506040513d601f19601f820116820180604052508101906125159190613cfe565b731b40183efb4dd766f11bda7a7c3ad8982e9984219084611f82565b600354604051636e74a6f760e01b8152600481018390526125e0916001600160a01b031690636e74a6f79060240160206040518083038186803b15801561257757600080fd5b505afa15801561258b573d6000803e3d6000fd5b505050506040513d601f19601f820116820180604052508101906125af9190613cfe565b6001600160a01b037f0000000000000000000000000000000000000000000000000000000000000000169084611f82565b806125ea8161417e565b91505061240a565b6040516001600160a01b0383166024820152604481018290526113d290849063a9059cbb60e01b906064016120a2565b6000807f00000000000000000000000000000000000000000000000000000000000000006001600160a01b03166318160ddd6040518163ffffffff1660e01b815260040160206040518083038186803b15801561267e57600080fd5b505afa158015612692573d6000803e3d6000fd5b505050506040513d601f19601f820116820180604052508101906126b69190613ef8565b9050806126c4576000612802565b6040516370a0823160e01b815230600482015281907f00000000000000000000000000000000000000000000000000000000000000006001600160a01b0316906370a082319060240160206040518083038186803b15801561272557600080fd5b505afa158015612739573d6000803e3d6000fd5b505050506040513d601f19601f8201168201806040525081019061275d9190613ef8565b7f00000000000000000000000000000000000000000000000000000000000000006001600160a01b031663d4c3eea06040518163ffffffff1660e01b815260040160206040518083038186803b1580156127b657600080fd5b505afa1580156127ca573d6000803e3d6000fd5b505050506040513d601f19601f820116820180604052508101906127ee9190613ef8565b6127f89190614118565b61280291906140f8565b91505090565b804710156128585760405162461bcd60e51b815260206004820152601d60248201527f416464726573733a20696e73756666696369656e742062616c616e6365000000604482015260640161057f565b6000826001600160a01b03168260405160006040518083038185875af1925050503d80600081146128a5576040519150601f19603f3d011682016040523d82523d6000602084013e6128aa565b606091505b50509050806113d25760405162461bcd60e51b815260206004820152603a60248201527f416464726573733a20756e61626c6520746f2073656e642076616c75652c207260448201527f6563697069656e74206d61792068617665207265766572746564000000000000606482015260840161057f565b60008061292c612622565b905061294581841061293e5781612940565b835b612ac1565b9392505050565b60006129a1826040518060400160405280602081526020017f5361666545524332303a206c6f772d6c6576656c2063616c6c206661696c6564815250856001600160a01b0316612c8a9092919063ffffffff16565b8051909150156113d257808060200190518101906129bf9190613e61565b6113d25760405162461bcd60e51b815260206004820152602a60248201527f5361666545524332303a204552433230206f7065726174696f6e20646964206e6044820152691bdd081cdd58d8d9595960b21b606482015260840161057f565b6000612a497f0000000000000000000000000000000000000000000000000000000000000000612ca1565b6000612a53612622565b905082811115612a6c57612a6a6129408483614137565b505b612a74612caa565b612a7c612d4f565b50600092915050565b600080612a90612622565b905082811015612aa4576129458184614137565b50919050565b60008115610c8357612abb82612921565b92915050565b6040516370a0823160e01b815230600482015260009081906001600160a01b037f000000000000000000000000000000000000000000000000000000000000000016906370a082319060240160206040518083038186803b158015612b2557600080fd5b505afa158015612b39573d6000803e3d6000fd5b505050506040513d601f19601f82011682018060405250810190612b5d9190613ef8565b90507f00000000000000000000000000000000000000000000000000000000000000006001600160a01b031663ff643a7c612b97856132d0565b6040518263ffffffff1660e01b8152600401612bb591815260200190565b600060405180830381600087803b158015612bcf57600080fd5b505af1158015612be3573d6000803e3d6000fd5b50506040516370a0823160e01b81523060048201528392507f00000000000000000000000000000000000000000000000000000000000000006001600160a01b031691506370a082319060240160206040518083038186803b158015612c4857600080fd5b505afa158015612c5c573d6000803e3d6000fd5b505050506040513d601f19601f82011682018060405250810190612c809190613ef8565b6129459190614137565b6060612c998484600085613418565b949350505050565b61064a81613540565b6040516370a0823160e01b81523060048201526000907f00000000000000000000000000000000000000000000000000000000000000006001600160a01b0316906370a082319060240160206040518083038186803b158015612d0c57600080fd5b505afa158015612d20573d6000803e3d6000fd5b505050506040513d601f19601f82011682018060405250810190612d449190613ef8565b905061064a816135ee565b60405163228bfd9f60e01b81523060048201526000907f00000000000000000000000000000000000000000000000000000000000000006001600160a01b03169063228bfd9f906024016101006040518083038186803b158015612db257600080fd5b505afa158015612dc6573d6000803e3d6000fd5b505050506040513d601f19601f82011682018060405250810190612dea9190613e7b565b50505050505091505060007f00000000000000000000000000000000000000000000000000000000000000006001600160a01b0316638bc6beb26040518163ffffffff1660e01b8152600401602060405180830381600087803b158015612e5057600080fd5b505af1158015612e64573d6000803e3d6000fd5b505050506040513d601f19601f82011682018060405250810190612e889190613cfe565b6040516370a0823160e01b81523060048201529091506000906001600160a01b037f000000000000000000000000000000000000000000000000000000000000000016906370a082319060240160206040518083038186803b158015612eed57600080fd5b505afa158015612f01573d6000803e3d6000fd5b505050506040513d601f19601f82011682018060405250810190612f259190613ef8565b905080156113d2576000826001600160a01b031663e49e463b6040518163ffffffff1660e01b815260040160206040518083038186803b158015612f6857600080fd5b505afa158015612f7c573d6000803e3d6000fd5b505050506040513d601f19601f82011682018060405250810190612fa09190613cfe565b90507f00000000000000000000000000000000000000000000000000000000000000006001600160a01b0316816001600160a01b031663fc0c546a6040518163ffffffff1660e01b815260040160206040518083038186803b15801561300557600080fd5b505afa158015613019573d6000803e3d6000fd5b505050506040513d601f19601f8201168201806040525081019061303d9190613cfe565b6001600160a01b0316146130875760405162461bcd60e51b81526020600482015260116024820152701a5b9d985b1a590b59dc9bddcb5c1bdbdb607a1b604482015260640161057f565b816008600082825461309991906140e0565b90915550506040516370a0823160e01b81523060048201526000906001600160a01b038316906370a082319060240160206040518083038186803b1580156130e057600080fd5b505afa1580156130f4573d6000803e3d6000fd5b505050506040513d601f19601f820116820180604052508101906131189190613ef8565b60405163b6b55f2560e01b8152600481018590529091506001600160a01b0383169063b6b55f2590602401600060405180830381600087803b15801561315d57600080fd5b505af1158015613171573d6000803e3d6000fd5b50506040516370a0823160e01b8152306004820152600092508391506001600160a01b038516906370a082319060240160206040518083038186803b1580156131b957600080fd5b505afa1580156131cd573d6000803e3d6000fd5b505050506040513d601f19601f820116820180604052508101906131f19190613ef8565b6131fb9190614137565b9050600061271061320c8884614118565b61321691906140f8565b9050801561324557600254613238906001600160a01b038681169116836125f2565b6132428183614137565b91505b6132596001600160a01b03851687846125f2565b6007546040516328f362b160e21b81526001600160a01b0386811660048301526024820185905260448201929092529087169063a3cd8ac490606401600060405180830381600087803b1580156132af57600080fd5b505af11580156132c3573d6000803e3d6000fd5b5050505050505050505050565b6000807f00000000000000000000000000000000000000000000000000000000000000006001600160a01b031663d4c3eea06040518163ffffffff1660e01b815260040160206040518083038186803b15801561332c57600080fd5b505afa158015613340573d6000803e3d6000fd5b505050506040513d601f19601f820116820180604052508101906133649190613ef8565b905080613372576000612945565b807f00000000000000000000000000000000000000000000000000000000000000006001600160a01b03166318160ddd6040518163ffffffff1660e01b815260040160206040518083038186803b1580156133cc57600080fd5b505afa1580156133e0573d6000803e3d6000fd5b505050506040513d601f19601f820116820180604052508101906134049190613ef8565b61340e9085614118565b61294591906140f8565b6060824710156134795760405162461bcd60e51b815260206004820152602660248201527f416464726573733a20696e73756666696369656e742062616c616e636520666f6044820152651c8818d85b1b60d21b606482015260840161057f565b843b6134c75760405162461bcd60e51b815260206004820152601d60248201527f416464726573733a2063616c6c20746f206e6f6e2d636f6e7472616374000000604482015260640161057f565b600080866001600160a01b031685876040516134e39190613f65565b60006040518083038185875af1925050503d8060008114613520576040519150601f19603f3d011682016040523d82523d6000602084013e613525565b606091505b50915091506135358282866136b5565b979650505050505050565b6040516370a0823160e01b8152306004820152600090731b40183efb4dd766f11bda7a7c3ad8982e998421906370a082319060240160206040518083038186803b15801561358d57600080fd5b505afa1580156135a1573d6000803e3d6000fd5b505050506040513d601f19601f820116820180604052508101906135c59190613ef8565b90508015610a4857610a48731b40183efb4dd766f11bda7a7c3ad8982e998421838360016136ee565b801561064a5760006006546127101415613609576001613667565b61366761365f6136597f00000000000000000000000000000000000000000000000000000000000000007f00000000000000000000000000000000000000000000000000000000000000006138af565b84613aa7565b600654613bd2565b9050610a487f00000000000000000000000000000000000000000000000000000000000000007f000000000000000000000000000000000000000000000000000000000000000084846136ee565b606083156136c4575081612945565b8251156136d45782518084602001fd5b8160405162461bcd60e51b815260040161057f9190613f81565b600354604051631d1f307960e31b81526001600160a01b038681166004830152858116602483015260448201859052600092839283929091169063e8f983c89060640160006040518083038186803b15801561374957600080fd5b505afa15801561375d573d6000803e3d6000fd5b505050506040513d6000823e601f3d908101601f191682016040526137859190810190613d1a565b925092509250836000141561379957600193505b81156138a657600354604051636e74a6f760e01b8152600481018390526001600160a01b0390911690636e74a6f79060240160206040518083038186803b1580156137e357600080fd5b505afa1580156137f7573d6000803e3d6000fd5b505050506040513d601f19601f8201168201806040525081019061381b9190613cfe565b6001600160a01b03166338ed173986868630426040518663ffffffff1660e01b815260040161384e95949392919061401b565b600060405180830381600087803b15801561386857600080fd5b505af115801561387c573d6000803e3d6000fd5b505050506040513d6000823e601f3d908101601f191682016040526138a49190810190613dce565b505b50505050505050565b60606001600160a01b03831673c02aaa39b223fe8d0a0e5c4f27ead9083c756cc214806138f857506001600160a01b03821673c02aaa39b223fe8d0a0e5c4f27ead9083c756cc2145b156139a6576040805160028082526060820183529091602083019080368337019050509050828160008151811061393f57634e487b7160e01b600052603260045260246000fd5b60200260200101906001600160a01b031690816001600160a01b031681525050818160018151811061398157634e487b7160e01b600052603260045260246000fd5b60200260200101906001600160a01b031690816001600160a01b031681525050612abb565b60408051600380825260808201909252906020820160608036833701905050905082816000815181106139e957634e487b7160e01b600052603260045260246000fd5b60200260200101906001600160a01b031690816001600160a01b03168152505073c02aaa39b223fe8d0a0e5c4f27ead9083c756cc281600181518110613a3f57634e487b7160e01b600052603260045260246000fd5b60200260200101906001600160a01b031690816001600160a01b0316815250508181600281518110613a8157634e487b7160e01b600052603260045260246000fd5b60200260200101906001600160a01b031690816001600160a01b03168152505092915050565b60006001835111613af05760405162461bcd60e51b81526020600482015260136024820152720d2dcecc2d8d2c85adee4c2c6d8ca5ae0c2e8d606b1b604482015260640161057f565b50806000805b60018551613b049190614137565b811015613bca57613b70858281518110613b2e57634e487b7160e01b600052603260045260246000fd5b602002602001015186836001613b4491906140e0565b81518110613b6257634e487b7160e01b600052603260045260246000fd5b602002602001015185613be1565b909350915081613bb85760405162461bcd60e51b8152602060048201526013602482015272696e76616c69642d6f7261636c652d7261746560681b604482015260640161057f565b80613bc28161417e565b915050613af6565b505092915050565b60006127106134048382614137565b6003546004805460055460405163b67bb24d60e01b81526001600160a01b038881169482019490945286841660248201526044810186905260648101929092526084820152600092839283928392919091169063b67bb24d9060a401606060405180830381600087803b158015613c5757600080fd5b505af1158015613c6b573d6000803e3d6000fd5b505050506040513d601f19601f82011682018060405250810190613c8f9190613f31565b509150915060045442613ca29190614137565b81118015613caf57508115155b15613cc05750915060019050613cca565b6000809350935050505b935093915050565b80518015158114610c8357600080fd5b600060208284031215613cf3578081fd5b8135612945816141c5565b600060208284031215613d0f578081fd5b8151612945816141c5565b600080600060608486031215613d2e578182fd5b835167ffffffffffffffff811115613d44578283fd5b8401601f81018613613d54578283fd5b80516020613d69613d64836140bc565b61408b565b8083825282820191508285018a848660051b8801011115613d88578788fd5b8795505b84861015613db3578051613d9f816141c5565b835260019590950194918301918301613d8c565b50918801516040909801519199979850909695505050505050565b60006020808385031215613de0578182fd5b825167ffffffffffffffff811115613df6578283fd5b8301601f81018513613e06578283fd5b8051613e14613d64826140bc565b80828252848201915084840188868560051b8701011115613e33578687fd5b8694505b83851015613e55578051835260019490940193918501918501613e37565b50979650505050505050565b600060208284031215613e72578081fd5b61294582613cd2565b600080600080600080600080610100898b031215613e97578384fd5b613ea089613cd2565b97506020890151965060408901519550606089015194506080890151935060a0890151925060c0890151915060e089015190509295985092959890939650565b600060208284031215613ef1578081fd5b5035919050565b600060208284031215613f09578081fd5b5051919050565b60008060408385031215613f22578182fd5b50508035926020909101359150565b600080600060608486031215613f45578283fd5b8351925060208401519150613f5c60408501613cd2565b90509250925092565b60008251613f7781846020870161414e565b9190910192915050565b6000602082528251806020840152613fa081604085016020870161414e565b601f01601f19169190910160400192915050565b60208082526016908201527531b0b63632b916b4b996b737ba16b096b5b2b2b832b960511b604082015260600190565b6020808252601a908201527f63616c6c65722d69732d6e6f742d7468652d676f7665726e6f72000000000000604082015260600190565b600060a082018783526020878185015260a0604085015281875180845260c0860191508289019350845b8181101561406a5784516001600160a01b031683529383019391830191600101614045565b50506001600160a01b03969096166060850152505050608001529392505050565b604051601f8201601f1916810167ffffffffffffffff811182821017156140b4576140b46141af565b604052919050565b600067ffffffffffffffff8211156140d6576140d66141af565b5060051b60200190565b600082198211156140f3576140f3614199565b500190565b60008261411357634e487b7160e01b81526012600452602481fd5b500490565b600081600019048311821515161561413257614132614199565b500290565b60008282101561414957614149614199565b500390565b60005b83811015614169578181015183820152602001614151565b83811115614178576000848401525b50505050565b600060001982141561419257614192614199565b5060010190565b634e487b7160e01b600052601160045260246000fd5b634e487b7160e01b600052604160045260246000fd5b6001600160a01b038116811461064a57600080fdfea26469706673582212207fef2505da548740549502f317848766926cdaf2481d0f9694af6329f4c7181e64736f6c63430008030033",
  "devdoc": {
    "kind": "dev",
    "methods": {
      "addKeeper(address)": {
        "params": {
          "_keeperAddress": "keeper address to add."
        }
      },
      "approveGrowToken()": {
        "details": "Approves EarnDrip' Grow token to spend dripToken"
      },
      "approveToken()": {
        "details": "Approve all required tokens"
      },
      "init(address)": {
        "params": {
          "_addressListFactory": "To support same code in eth side chain, user _addressListFactory as param mainnet - 0xded8217De022706A191eE7Ee0Dc9df1185Fb5dA3 polygon - 0xD10D5696A350D65A9AA15FE8B258caB4ab1bF291 avalanche - 0xc5CdF8CBE886FC5c1EF5CD4fdd599C975eC6BB54"
        }
      },
      "migrate(address)": {
        "details": "_beforeMigration hook can be implemented in child strategy to do extra steps.",
        "params": {
          "_newStrategy": "Address of new strategy"
        }
      },
      "rebalance()": {
        "details": "Rebalance profit, loss and investment of this strategy"
      },
      "removeKeeper(address)": {
        "params": {
          "_keeperAddress": "keeper address to remove."
        }
      },
      "sweepERC20(address)": {
        "details": "sweep given token to feeCollector of strategy",
        "params": {
          "_fromToken": "token address to sweep"
        }
      },
      "totalValue()": {
        "details": "Report total value in collateral token"
      },
      "totalValueCurrent()": {
        "details": "Report total value in collateral token"
      },
      "updateDripPeriod(uint256)": {
        "details": "_dripPeriod in seconds"
      },
      "updateFeeCollector(address)": {
        "params": {
          "_feeCollector": "fee collector address"
        }
      },
      "updateSwapManager(address)": {
        "params": {
          "_swapManager": "swap manager address"
        }
      },
      "withdraw(uint256)": {
        "details": "Withdraw collateral token from lending pool.",
        "params": {
          "_amount": "Amount of collateral token"
        }
      }
    },
    "title": "Deposit DAI in a Vesper Grow Pool and earn interest in WBTC.",
    "version": 1
  },
  "userdoc": {
    "kind": "user",
    "methods": {
      "addKeeper(address)": {
        "notice": "Add given address in keepers list."
      },
      "init(address)": {
        "notice": "Create keeper list NOTE: Any function with onlyKeeper modifier will not work until this function is called. NOTE: Due to gas constraint this function cannot be called in constructor."
      },
      "isReservedToken(address)": {
        "notice": "Check whether given token is reserved or not. Reserved tokens are not allowed to sweep."
      },
      "migrate(address)": {
        "notice": "Migrate all asset and vault ownership,if any, to new strategy"
      },
      "removeKeeper(address)": {
        "notice": "Remove given address from keepers list."
      },
      "token()": {
        "notice": "Returns address of token correspond to collateral token"
      },
      "totalValue()": {
        "notice": "Calculate total value using underlying vToken"
      },
      "totalValueCurrent()": {
        "notice": "Calculate total value of asset under management (in real-time)"
      },
      "updateDripPeriod(uint256)": {
        "notice": "Update update period of distribution of earning done in one rebalance"
      },
      "updateFeeCollector(address)": {
        "notice": "Update fee collector"
      },
      "updateSwapManager(address)": {
        "notice": "Update swap manager address"
      }
    },
    "version": 1
  },
  "storageLayout": {
    "storage": [
      {
        "astId": 13633,
        "contract": "contracts/strategies/vesper/earn/EarnVesperStrategyDAIWBTC.sol:EarnVesperStrategyDAIWBTC",
        "label": "receiptToken",
        "offset": 0,
        "slot": "0",
        "type": "t_address"
      },
      {
        "astId": 13640,
        "contract": "contracts/strategies/vesper/earn/EarnVesperStrategyDAIWBTC.sol:EarnVesperStrategyDAIWBTC",
        "label": "keepers",
        "offset": 0,
        "slot": "1",
        "type": "t_contract(IAddressList)4357"
      },
      {
        "astId": 13643,
        "contract": "contracts/strategies/vesper/earn/EarnVesperStrategyDAIWBTC.sol:EarnVesperStrategyDAIWBTC",
        "label": "feeCollector",
        "offset": 0,
        "slot": "2",
        "type": "t_address"
      },
      {
        "astId": 13646,
        "contract": "contracts/strategies/vesper/earn/EarnVesperStrategyDAIWBTC.sol:EarnVesperStrategyDAIWBTC",
        "label": "swapManager",
        "offset": 0,
        "slot": "3",
        "type": "t_contract(ISwapManager)4660"
      },
      {
        "astId": 13649,
        "contract": "contracts/strategies/vesper/earn/EarnVesperStrategyDAIWBTC.sol:EarnVesperStrategyDAIWBTC",
        "label": "oraclePeriod",
        "offset": 0,
        "slot": "4",
        "type": "t_uint256"
      },
      {
        "astId": 13652,
        "contract": "contracts/strategies/vesper/earn/EarnVesperStrategyDAIWBTC.sol:EarnVesperStrategyDAIWBTC",
        "label": "oracleRouterIdx",
        "offset": 0,
        "slot": "5",
        "type": "t_uint256"
      },
      {
        "astId": 13655,
        "contract": "contracts/strategies/vesper/earn/EarnVesperStrategyDAIWBTC.sol:EarnVesperStrategyDAIWBTC",
        "label": "swapSlippage",
        "offset": 0,
        "slot": "6",
        "type": "t_uint256"
      },
      {
        "astId": 13291,
        "contract": "contracts/strategies/vesper/earn/EarnVesperStrategyDAIWBTC.sol:EarnVesperStrategyDAIWBTC",
        "label": "dripPeriod",
        "offset": 0,
        "slot": "7",
        "type": "t_uint256"
      },
      {
        "astId": 13293,
        "contract": "contracts/strategies/vesper/earn/EarnVesperStrategyDAIWBTC.sol:EarnVesperStrategyDAIWBTC",
        "label": "totalEarned",
        "offset": 0,
        "slot": "8",
        "type": "t_uint256"
      }
    ],
    "types": {
      "t_address": {
        "encoding": "inplace",
        "label": "address",
        "numberOfBytes": "20"
      },
      "t_contract(IAddressList)4357": {
        "encoding": "inplace",
        "label": "contract IAddressList",
        "numberOfBytes": "20"
      },
      "t_contract(ISwapManager)4660": {
        "encoding": "inplace",
        "label": "contract ISwapManager",
        "numberOfBytes": "20"
      },
      "t_uint256": {
        "encoding": "inplace",
        "label": "uint256",
        "numberOfBytes": "32"
      }
    }
  }
}