{
  "address": "0x747730E791aDB68F2E5d3A4B8c80f209E4874b0F",
  "abi": [
    {
      "inputs": [
        {
          "internalType": "address",
          "name": "_pool",
          "type": "address"
        },
        {
          "internalType": "address",
          "name": "_swapManager",
          "type": "address"
        }
      ],
      "stateMutability": "nonpayable",
      "type": "constructor"
    },
    {
      "anonymous": false,
      "inputs": [
        {
          "indexed": false,
          "internalType": "string",
          "name": "reason",
          "type": "string"
        }
      ],
      "name": "DepositFailed",
      "type": "event"
    },
    {
      "anonymous": false,
      "inputs": [
        {
          "indexed": false,
          "internalType": "uint256",
          "name": "oldCrvSlippage",
          "type": "uint256"
        },
        {
          "indexed": false,
          "internalType": "uint256",
          "name": "newCrvSlippage",
          "type": "uint256"
        }
      ],
      "name": "UpdatedCrvSlippage",
      "type": "event"
    },
    {
      "anonymous": false,
      "inputs": [
        {
          "indexed": true,
          "internalType": "address",
          "name": "previousFeeCollector",
          "type": "address"
        },
        {
          "indexed": true,
          "internalType": "address",
          "name": "newFeeCollector",
          "type": "address"
        }
      ],
      "name": "UpdatedFeeCollector",
      "type": "event"
    },
    {
      "anonymous": false,
      "inputs": [
        {
          "indexed": false,
          "internalType": "uint256",
          "name": "oldPeriod",
          "type": "uint256"
        },
        {
          "indexed": false,
          "internalType": "uint256",
          "name": "newPeriod",
          "type": "uint256"
        },
        {
          "indexed": false,
          "internalType": "uint256",
          "name": "oldRouterIdx",
          "type": "uint256"
        },
        {
          "indexed": false,
          "internalType": "uint256",
          "name": "newRouterIdx",
          "type": "uint256"
        }
      ],
      "name": "UpdatedOracleConfig",
      "type": "event"
    },
    {
      "anonymous": false,
      "inputs": [
        {
          "indexed": true,
          "internalType": "address",
          "name": "previousSwapManager",
          "type": "address"
        },
        {
          "indexed": true,
          "internalType": "address",
          "name": "newSwapManager",
          "type": "address"
        }
      ],
      "name": "UpdatedSwapManager",
      "type": "event"
    },
    {
      "anonymous": false,
      "inputs": [
        {
          "indexed": false,
          "internalType": "uint256",
          "name": "oldSwapSlippage",
          "type": "uint256"
        },
        {
          "indexed": false,
          "internalType": "uint256",
          "name": "newSwapSlippage",
          "type": "uint256"
        }
      ],
      "name": "UpdatedSwapSlippage",
      "type": "event"
    },
    {
      "inputs": [],
      "name": "BOOSTER",
      "outputs": [
        {
          "internalType": "address",
          "name": "",
          "type": "address"
        }
      ],
      "stateMutability": "view",
      "type": "function"
    },
    {
      "inputs": [],
      "name": "CRV",
      "outputs": [
        {
          "internalType": "address",
          "name": "",
          "type": "address"
        }
      ],
      "stateMutability": "view",
      "type": "function"
    },
    {
      "inputs": [],
      "name": "CRV_MINTER",
      "outputs": [
        {
          "internalType": "address",
          "name": "",
          "type": "address"
        }
      ],
      "stateMutability": "view",
      "type": "function"
    },
    {
      "inputs": [],
      "name": "CVX",
      "outputs": [
        {
          "internalType": "address",
          "name": "",
          "type": "address"
        }
      ],
      "stateMutability": "view",
      "type": "function"
    },
    {
      "inputs": [],
      "name": "N",
      "outputs": [
        {
          "internalType": "uint256",
          "name": "",
          "type": "uint256"
        }
      ],
      "stateMutability": "view",
      "type": "function"
    },
    {
      "inputs": [],
      "name": "NAME",
      "outputs": [
        {
          "internalType": "string",
          "name": "",
          "type": "string"
        }
      ],
      "stateMutability": "view",
      "type": "function"
    },
    {
      "inputs": [],
      "name": "VERSION",
      "outputs": [
        {
          "internalType": "string",
          "name": "",
          "type": "string"
        }
      ],
      "stateMutability": "view",
      "type": "function"
    },
    {
      "inputs": [
        {
          "internalType": "address",
          "name": "_keeperAddress",
          "type": "address"
        }
      ],
      "name": "addKeeper",
      "outputs": [],
      "stateMutability": "nonpayable",
      "type": "function"
    },
    {
      "inputs": [],
      "name": "approveToken",
      "outputs": [],
      "stateMutability": "nonpayable",
      "type": "function"
    },
    {
      "inputs": [
        {
          "internalType": "uint256",
          "name": "_amtNeeded",
          "type": "uint256"
        },
        {
          "internalType": "uint256",
          "name": "i",
          "type": "uint256"
        }
      ],
      "name": "calcWithdrawLpAs",
      "outputs": [
        {
          "internalType": "uint256",
          "name": "lpToWithdraw",
          "type": "uint256"
        },
        {
          "internalType": "uint256",
          "name": "unstakeAmt",
          "type": "uint256"
        }
      ],
      "stateMutability": "view",
      "type": "function"
    },
    {
      "inputs": [],
      "name": "claimableRewards",
      "outputs": [
        {
          "internalType": "uint256",
          "name": "",
          "type": "uint256"
        }
      ],
      "stateMutability": "view",
      "type": "function"
    },
    {
      "inputs": [
        {
          "internalType": "uint256",
          "name": "",
          "type": "uint256"
        }
      ],
      "name": "coinDecimals",
      "outputs": [
        {
          "internalType": "uint256",
          "name": "",
          "type": "uint256"
        }
      ],
      "stateMutability": "view",
      "type": "function"
    },
    {
      "inputs": [
        {
          "internalType": "uint256",
          "name": "",
          "type": "uint256"
        }
      ],
      "name": "coins",
      "outputs": [
        {
          "internalType": "address",
          "name": "",
          "type": "address"
        }
      ],
      "stateMutability": "view",
      "type": "function"
    },
    {
      "inputs": [],
      "name": "collIdx",
      "outputs": [
        {
          "internalType": "uint256",
          "name": "",
          "type": "uint256"
        }
      ],
      "stateMutability": "view",
      "type": "function"
    },
    {
      "inputs": [],
      "name": "collateralToken",
      "outputs": [
        {
          "internalType": "contract IERC20",
          "name": "",
          "type": "address"
        }
      ],
      "stateMutability": "view",
      "type": "function"
    },
    {
      "inputs": [
        {
          "internalType": "uint256",
          "name": "amount",
          "type": "uint256"
        }
      ],
      "name": "convertFrom18",
      "outputs": [
        {
          "internalType": "uint256",
          "name": "",
          "type": "uint256"
        }
      ],
      "stateMutability": "pure",
      "type": "function"
    },
    {
      "inputs": [],
      "name": "convexPoolId",
      "outputs": [
        {
          "internalType": "uint256",
          "name": "",
          "type": "uint256"
        }
      ],
      "stateMutability": "view",
      "type": "function"
    },
    {
      "inputs": [],
      "name": "crvGauge",
      "outputs": [
        {
          "internalType": "address",
          "name": "",
          "type": "address"
        }
      ],
      "stateMutability": "view",
      "type": "function"
    },
    {
      "inputs": [],
      "name": "crvLp",
      "outputs": [
        {
          "internalType": "address",
          "name": "",
          "type": "address"
        }
      ],
      "stateMutability": "view",
      "type": "function"
    },
    {
      "inputs": [],
      "name": "crvPool",
      "outputs": [
        {
          "internalType": "contract IStableSwapUnderlying",
          "name": "",
          "type": "address"
        }
      ],
      "stateMutability": "view",
      "type": "function"
    },
    {
      "inputs": [],
      "name": "crvSlippage",
      "outputs": [
        {
          "internalType": "uint256",
          "name": "",
          "type": "uint256"
        }
      ],
      "stateMutability": "view",
      "type": "function"
    },
    {
      "inputs": [],
      "name": "cvxCrvRewards",
      "outputs": [
        {
          "internalType": "address",
          "name": "",
          "type": "address"
        }
      ],
      "stateMutability": "view",
      "type": "function"
    },
    {
      "inputs": [],
      "name": "depositError",
      "outputs": [
        {
          "internalType": "bool",
          "name": "",
          "type": "bool"
        }
      ],
      "stateMutability": "view",
      "type": "function"
    },
    {
      "inputs": [],
      "name": "feeCollector",
      "outputs": [
        {
          "internalType": "address",
          "name": "",
          "type": "address"
        }
      ],
      "stateMutability": "view",
      "type": "function"
    },
    {
      "inputs": [
        {
          "internalType": "uint256",
          "name": "_lpAmount",
          "type": "uint256"
        }
      ],
      "name": "getLpValue",
      "outputs": [
        {
          "internalType": "uint256",
          "name": "",
          "type": "uint256"
        }
      ],
      "stateMutability": "view",
      "type": "function"
    },
    {
      "inputs": [
        {
          "internalType": "uint256",
          "name": "_lpAmount",
          "type": "uint256"
        },
        {
          "internalType": "uint256",
          "name": "i",
          "type": "uint256"
        }
      ],
      "name": "getLpValueAs",
      "outputs": [
        {
          "internalType": "uint256",
          "name": "",
          "type": "uint256"
        }
      ],
      "stateMutability": "view",
      "type": "function"
    },
    {
      "inputs": [
        {
          "internalType": "address",
          "name": "_addressListFactory",
          "type": "address"
        }
      ],
      "name": "init",
      "outputs": [],
      "stateMutability": "nonpayable",
      "type": "function"
    },
    {
      "inputs": [],
      "name": "isClaimExtras",
      "outputs": [
        {
          "internalType": "bool",
          "name": "",
          "type": "bool"
        }
      ],
      "stateMutability": "view",
      "type": "function"
    },
    {
      "inputs": [],
      "name": "isClaimRewards",
      "outputs": [
        {
          "internalType": "bool",
          "name": "",
          "type": "bool"
        }
      ],
      "stateMutability": "view",
      "type": "function"
    },
    {
      "inputs": [
        {
          "internalType": "address",
          "name": "_token",
          "type": "address"
        }
      ],
      "name": "isReservedToken",
      "outputs": [
        {
          "internalType": "bool",
          "name": "",
          "type": "bool"
        }
      ],
      "stateMutability": "view",
      "type": "function"
    },
    {
      "inputs": [],
      "name": "keepers",
      "outputs": [
        {
          "internalType": "contract IAddressList",
          "name": "",
          "type": "address"
        }
      ],
      "stateMutability": "view",
      "type": "function"
    },
    {
      "inputs": [
        {
          "internalType": "address",
          "name": "_newStrategy",
          "type": "address"
        }
      ],
      "name": "migrate",
      "outputs": [],
      "stateMutability": "nonpayable",
      "type": "function"
    },
    {
      "inputs": [],
      "name": "oraclePeriod",
      "outputs": [
        {
          "internalType": "uint256",
          "name": "",
          "type": "uint256"
        }
      ],
      "stateMutability": "view",
      "type": "function"
    },
    {
      "inputs": [],
      "name": "oracleRouterIdx",
      "outputs": [
        {
          "internalType": "uint256",
          "name": "",
          "type": "uint256"
        }
      ],
      "stateMutability": "view",
      "type": "function"
    },
    {
      "inputs": [],
      "name": "pool",
      "outputs": [
        {
          "internalType": "address",
          "name": "",
          "type": "address"
        }
      ],
      "stateMutability": "view",
      "type": "function"
    },
    {
      "inputs": [],
      "name": "rebalance",
      "outputs": [],
      "stateMutability": "nonpayable",
      "type": "function"
    },
    {
      "inputs": [],
      "name": "receiptToken",
      "outputs": [
        {
          "internalType": "address",
          "name": "",
          "type": "address"
        }
      ],
      "stateMutability": "view",
      "type": "function"
    },
    {
      "inputs": [
        {
          "internalType": "address",
          "name": "_keeperAddress",
          "type": "address"
        }
      ],
      "name": "removeKeeper",
      "outputs": [],
      "stateMutability": "nonpayable",
      "type": "function"
    },
    {
      "inputs": [],
      "name": "setCheckpoint",
      "outputs": [],
      "stateMutability": "nonpayable",
      "type": "function"
    },
    {
      "inputs": [],
      "name": "setupOracles",
      "outputs": [],
      "stateMutability": "nonpayable",
      "type": "function"
    },
    {
      "inputs": [],
      "name": "swapManager",
      "outputs": [
        {
          "internalType": "contract ISwapManager",
          "name": "",
          "type": "address"
        }
      ],
      "stateMutability": "view",
      "type": "function"
    },
    {
      "inputs": [],
      "name": "swapSlippage",
      "outputs": [
        {
          "internalType": "uint256",
          "name": "",
          "type": "uint256"
        }
      ],
      "stateMutability": "view",
      "type": "function"
    },
    {
      "inputs": [
        {
          "internalType": "address",
          "name": "_fromToken",
          "type": "address"
        }
      ],
      "name": "sweepERC20",
      "outputs": [],
      "stateMutability": "nonpayable",
      "type": "function"
    },
    {
      "inputs": [],
      "name": "threePool",
      "outputs": [
        {
          "internalType": "address",
          "name": "",
          "type": "address"
        }
      ],
      "stateMutability": "view",
      "type": "function"
    },
    {
      "inputs": [],
      "name": "token",
      "outputs": [
        {
          "internalType": "address",
          "name": "",
          "type": "address"
        }
      ],
      "stateMutability": "view",
      "type": "function"
    },
    {
      "inputs": [],
      "name": "totalLp",
      "outputs": [
        {
          "internalType": "uint256",
          "name": "total",
          "type": "uint256"
        }
      ],
      "stateMutability": "view",
      "type": "function"
    },
    {
      "inputs": [],
      "name": "totalStaked",
      "outputs": [
        {
          "internalType": "uint256",
          "name": "total",
          "type": "uint256"
        }
      ],
      "stateMutability": "view",
      "type": "function"
    },
    {
      "inputs": [],
      "name": "totalValue",
      "outputs": [
        {
          "internalType": "uint256",
          "name": "_value",
          "type": "uint256"
        }
      ],
      "stateMutability": "view",
      "type": "function"
    },
    {
      "inputs": [
        {
          "internalType": "bool",
          "name": "_isClaimExtras",
          "type": "bool"
        }
      ],
      "name": "updateClaimExtras",
      "outputs": [],
      "stateMutability": "nonpayable",
      "type": "function"
    },
    {
      "inputs": [
        {
          "internalType": "bool",
          "name": "_isClaimRewards",
          "type": "bool"
        }
      ],
      "name": "updateClaimRewards",
      "outputs": [],
      "stateMutability": "nonpayable",
      "type": "function"
    },
    {
      "inputs": [
        {
          "internalType": "uint256",
          "name": "_newCrvSlippage",
          "type": "uint256"
        }
      ],
      "name": "updateCrvSlippage",
      "outputs": [],
      "stateMutability": "nonpayable",
      "type": "function"
    },
    {
      "inputs": [
        {
          "internalType": "address",
          "name": "_feeCollector",
          "type": "address"
        }
      ],
      "name": "updateFeeCollector",
      "outputs": [],
      "stateMutability": "nonpayable",
      "type": "function"
    },
    {
      "inputs": [
        {
          "internalType": "uint256",
          "name": "_newPeriod",
          "type": "uint256"
        },
        {
          "internalType": "uint256",
          "name": "_newRouterIdx",
          "type": "uint256"
        }
      ],
      "name": "updateOracleConfig",
      "outputs": [],
      "stateMutability": "nonpayable",
      "type": "function"
    },
    {
      "inputs": [
        {
          "internalType": "address",
          "name": "_swapManager",
          "type": "address"
        }
      ],
      "name": "updateSwapManager",
      "outputs": [],
      "stateMutability": "nonpayable",
      "type": "function"
    },
    {
      "inputs": [
        {
          "internalType": "uint256",
          "name": "_newSwapSlippage",
          "type": "uint256"
        }
      ],
      "name": "updateSwapSlippage",
      "outputs": [],
      "stateMutability": "nonpayable",
      "type": "function"
    },
    {
      "inputs": [],
      "name": "usdRate",
      "outputs": [
        {
          "internalType": "uint256",
          "name": "",
          "type": "uint256"
        }
      ],
      "stateMutability": "view",
      "type": "function"
    },
    {
      "inputs": [],
      "name": "usdRateTimestamp",
      "outputs": [
        {
          "internalType": "uint256",
          "name": "",
          "type": "uint256"
        }
      ],
      "stateMutability": "view",
      "type": "function"
    },
    {
      "inputs": [
        {
          "internalType": "uint256",
          "name": "_amount",
          "type": "uint256"
        }
      ],
      "name": "withdraw",
      "outputs": [],
      "stateMutability": "nonpayable",
      "type": "function"
    }
  ],
  "transactionHash": "0x5c72f88a72efe4528c78c824237253aad66eb21be3ecc22a4d75b3726eeb53c7",
  "args": [
    "0x0538C8bAc84E95A9dF8aC10Aad17DbE81b9E36ee",
    "0xe382d9f2394A359B01006faa8A1864b8a60d2710"
  ],
  "solcInputHash": "c0ce425c4e531721d0ffe4f9b370424c",
  "bytecode": "0x61024060405260006101e0818152610200829052610220829052620000279190600362000768565b506040805160608101825260008082526020820181905291810191909152620000549060039081620007c5565b50610e10600a556000600b55612710600c55600a6011553480156200007857600080fd5b5060405162005dfe38038062005dfe8339810160408190526200009b9162000838565b8173bebc44782c7db0a1a60cb6fe97d0b483032ff1c7736c3f90f043a72fa612cbac8115ee7e52bde6e49073bfcf63294ad7105dea65aa58f8ae5be2d9d0952a8460006009868686868686858285878187828282620000fe565b60405180910390fd5b6001600160a01b038216620001565760405162461bcd60e51b815260206004820152601860248201527f4352564d67723a20696e76616c6964206c7020746f6b656e00000000000000006044820152606401620000f5565b6001600160a01b038116620001ae5760405162461bcd60e51b815260206004820152601560248201527f4352564d67723a20696e76616c696420676175676500000000000000000000006044820152606401620000f5565b6001600160601b0319606084811b821660805283811b821660a05282901b1660c052620001db83620005b3565b505050620001ef83620005b360201b60201c565b5050506001600160a01b0383166200024a5760405162461bcd60e51b815260206004820152601460248201527f706f6f6c2d616464726573732d69732d7a65726f0000000000000000000000006044820152606401620000f5565b6001600160a01b038216620002975760405162461bcd60e51b8152602060048201526012602482015271736d2d616464726573732d69732d7a65726f60701b6044820152606401620000f5565b600980546001600160a01b0319166001600160a01b0384811691909117909155606084901b6001600160601b0319166101005260408051637e062a3560e11b815290519185169163fc0c546a91600480820192602092909190829003018186803b1580156200030557600080fd5b505afa1580156200031a573d6000803e3d6000fd5b505050506040513d601f19601f8201168201806040525081019062000340919062000812565b60601b6001600160601b03191660e052600680546001600160a01b0319166001600160a01b0392909216919091179055505060038110620003b95760405162461bcd60e51b81526020600482015260126024820152711a5b9d985b1a590b58dbdb1b185d195c985b60721b6044820152606401620000f5565b606094851b6001600160601b03199081166101205284861b8116610140529290941b90911661016052506001600160a01b03166000908152600d60205260408082208054600160ff19918216811790925573d533a949740bb3306d119cc777fa900ba034cd5284527fe31f906f02761c534a3a259ad75c88b1f7b13d95bc1a0f4af2110d829a52457e80549091169091179055610180929092529051631526fe2760e01b815260048101849052909150819073f403c135812408bfbe8713b5a23a04b3d48aae3190631526fe279060240160c06040518083038186803b158015620004a357600080fd5b505afa158015620004b8573d6000803e3d6000fd5b505050506040513d601f19601f82011682018060405250810190620004de919062000876565b5050935050509150866001600160a01b0316826001600160a01b0316146200053e5760405162461bcd60e51b815260206004820152601260248201527134b731b7b93932b1ba16b63816ba37b5b2b760711b6044820152606401620000f5565b60601b6001600160601b0319166101a052506101c0525050734e3fbd56cd56c3e72c1403e103b45db9da5b9d2b6000525050600d60205250507f6f5ac935a07b431a4a566af1f40b4c7a4b493bd776ce2dececf9cacb04249b108054600160ff199091168117909155600b5550620009709050565b60005b6003811015620007645760405163c661065760e01b8152600481018290526001600160a01b0383169063c66106579060240160206040518083038186803b1580156200060157600080fd5b505afa15801562000616573d6000803e3d6000fd5b505050506040513d601f19601f820116820180604052508101906200063c919062000812565b600082600381106200065e57634e487b7160e01b600052603260045260246000fd5b0180546001600160a01b0319166001600160a01b0392909216919091179055600081600381106200069f57634e487b7160e01b600052603260045260246000fd5b0160009054906101000a90046001600160a01b03166001600160a01b031663313ce5676040518163ffffffff1660e01b815260040160206040518083038186803b158015620006ed57600080fd5b505afa15801562000702573d6000803e3d6000fd5b505050506040513d601f19601f820116820180604052508101906200072891906200090c565b60ff16600382600381106200074d57634e487b7160e01b600052603260045260246000fd5b0155806200075b816200092f565b915050620005b6565b5050565b8260038101928215620007b3579160200282015b82811115620007b357825182546001600160a01b0319166001600160a01b039091161782556020909201916001909101906200077c565b50620007c1929150620007fb565b5090565b8260038101928215620007b3579160200282015b82811115620007b3578251829060ff16905591602001919060010190620007d9565b5b80821115620007c15760008155600101620007fc565b60006020828403121562000824578081fd5b8151620008318162000957565b9392505050565b600080604083850312156200084b578081fd5b8251620008588162000957565b60208401519092506200086b8162000957565b809150509250929050565b60008060008060008060c087890312156200088f578182fd5b86516200089c8162000957565b6020880151909650620008af8162000957565b6040880151909550620008c28162000957565b6060880151909450620008d58162000957565b6080880151909350620008e88162000957565b60a08801519092508015158114620008fe578182fd5b809150509295509295509295565b6000602082840312156200091e578081fd5b815160ff8116811462000831578182fd5b60006000198214156200095057634e487b7160e01b81526011600452602481fd5b5060010190565b6001600160a01b03811681146200096d57600080fd5b50565b60805160601c60a05160601c60c05160601c60e05160601c6101005160601c6101205160601c6101405160601c6101605160601c610180516101a05160601c6101c05161524e62000bb060003960008181610815015261389f0152600081816106de01528181610ef201528181611b0301528181613ec50152818161401a01526142e00152600081816104c601528181613178015281816134e401526135d401526000505060005050600081816105480152613d8c015260008181610403015281816108b901528181610ae001528181610c660152818161101e01528181611266015281816113e6015281816115990152818161193f015281816119d101528181611a6401528181611c4101528181611f2301528181612017015281816120f3015281816121bc01528181612411015281816129d401528181612b3e01528181612bdb0152613a9601526000818161072001528181612364015281816123e8015281816126080152818161273601528181612905015281816129b201528181612c9f01528181613208015281816132c7015281816133480152818161338401528181613a740152613ac801526000818161087101528181611700015281816117ac01528181612a940152613c7b01526000818161062701528181610f89015281816110bc01528181612d82015281816138060152613c5901526000818161074701528181610a33015281816111ad015281816135440152818161362b0152818161370401528181613aea015281816141c3015261421c015261524e6000f3fe608060405234801561001057600080fd5b506004361061038e5760003560e01c80637f44579b116101de578063c66106571161010f578063d572fd7f116100ad578063fb589de21161007c578063fb589de21461084a578063fc0c546a1461085b578063fd57a4df1461086c578063ffa1ad74146108935761038e565b8063d572fd7f146107f4578063e00af4a7146107fd578063e529ee9514610810578063ec78e832146108375761038e565b8063cd2d7ebe116100e9578063cd2d7ebe146107bd578063ce5494bb146107c6578063d2c35ce8146107d9578063d4c3eea0146107ec5761038e565b8063c66106571461078f578063c9e525df146107a2578063ca9fa3ab146107aa5761038e565b8063a7404b701161017c578063b2016bd411610156578063b2016bd41461071b578063b20fdc0d14610742578063c415b95c14610769578063c609d46c1461077c5761038e565b8063a7404b70146106d9578063a923b2a614610700578063aa101886146107135761038e565b8063951dc22c116101b8578063951dc22c1461066c57806396dd5a781461067f57806399b71d5c14610688578063a3f4df7e146106905761038e565b80637f44579b14610622578063817b1cd214610649578063945c9142146106515761038e565b806342189c8f116102c3578063709d039d1161026157806375b0ffd11161023057806375b0ffd1146105ee57806379b37a861461060957806379d5279f146106125780637d7c2a1c1461061a5761038e565b8063709d039d1461059257806372db30f3146105a557806374db9ad4146105b8578063759cb53b146105d35761038e565b80635305bd8e1161029d5780635305bd8e1461054357806367f5e4b81461056a5780636c003a9b1461057d5780636fe702c0146105855761038e565b806342189c8f146104fb578063440d7248146105045780634c36fad7146105305761038e565b80631c459a7f11610330578063319a444d1161030a578063319a444d14610486578063379173bb146104ae57806337d265db146104c15780634032b72b146104e85761038e565b80631c459a7f14610459578063242c135d1461046b5780632e1a7d4d146104735761038e565b806314ae9f2e1161036c57806314ae9f2e146103eb57806316f0115b146103fe57806319ab453c1461043d5780631aedeabe146104505761038e565b806304f4efc514610393578063058062b3146103a85780630acd095b146103ce575b600080fd5b6103a66103a1366004614cd3565b6108b7565b005b6103bb6103b6366004614cd3565b610a19565b6040519081526020015b60405180910390f35b6012546103db9060ff1681565b60405190151581526020016103c5565b6103a66103f9366004614b0d565b610ade565b6104257f000000000000000000000000000000000000000000000000000000000000000081565b6040516001600160a01b0390911681526020016103c5565b6103a661044b366004614b0d565b610c64565b6103bb600c5481565b6012546103db90610100900460ff1681565b6103bb610eda565b6103a6610481366004614cd3565b61101b565b610499610494366004614d03565b611098565b604080519283526020830191909152016103c5565b6103bb6104bc366004614d03565b61119d565b6103bb7f000000000000000000000000000000000000000000000000000000000000000081565b6103a66104f6366004614b0d565b611264565b6103bb600a5481565b6103db610512366004614b0d565b6001600160a01b03166000908152600d602052604090205460ff1690565b6103a661053e366004614b0d565b6113e4565b6104257f000000000000000000000000000000000000000000000000000000000000000081565b6103a6610578366004614cd3565b611597565b6103bb6116e3565b6010546103db9060ff1681565b600954610425906001600160a01b031681565b6103bb6105b3366004614cd3565b611838565b61042573d061d61a4d941c39e5453435b6345dc261c2fce081565b610425734e3fbd56cd56c3e72c1403e103b45db9da5b9d2b81565b61042573f403c135812408bfbe8713b5a23a04b3d48aae3181565b6103bb600e5481565b6103a661184f565b6103a6611859565b6104257f000000000000000000000000000000000000000000000000000000000000000081565b6103bb611aeb565b61042573d533a949740bb3306d119cc777fa900ba034cd5281565b600754610425906001600160a01b031681565b6103bb600f5481565b6103a6611b85565b6106cc6040518060400160405280601f81526020017f43757276652d436f6e7665782d33706f6f6c2d4441492d53747261746567790081525081565b6040516103c59190614dfc565b6104257f000000000000000000000000000000000000000000000000000000000000000081565b6103a661070e366004614d03565b611c3f565b6103a6611e74565b6104257f000000000000000000000000000000000000000000000000000000000000000081565b6104257f000000000000000000000000000000000000000000000000000000000000000081565b600854610425906001600160a01b031681565b6103a661078a366004614c9b565b611f21565b61042561079d366004614cd3565b611ff5565b6103bb600381565b6103a66107b8366004614c9b565b612015565b6103bb600b5481565b6103a66107d4366004614b0d565b6120f0565b6103a66107e7366004614b0d565b61240f565b6103bb6125d8565b6103bb60115481565b6103a661080b366004614b0d565b61263f565b6103bb7f000000000000000000000000000000000000000000000000000000000000000081565b600654610425906001600160a01b031681565b6103bb610858366004614cd3565b90565b6006546001600160a01b0316610425565b6104257f000000000000000000000000000000000000000000000000000000000000000081565b6106cc60405180604001604052806005815260200164332e302e3960d81b81525081565b7f00000000000000000000000000000000000000000000000000000000000000006001600160a01b0316630c340a246040518163ffffffff1660e01b815260040160206040518083038186803b15801561091057600080fd5b505afa158015610924573d6000803e3d6000fd5b505050506040513d601f19601f820116820180604052508101906109489190614b29565b6001600160a01b0316336001600160a01b0316146109815760405162461bcd60e51b815260040161097890614e5f565b60405180910390fd5b61271081106109cb5760405162461bcd60e51b8152602060048201526016602482015275696e76616c69642d736c6970706167652d76616c756560501b6044820152606401610978565b60115460408051918252602082018390527f92a63de30132f370b1c9f477f770f1e326f1423d1b569641a4728fa610569f86910160405180910390a180601154610a159190615095565b5050565b600081610a27576000610ad6565b670de0b6b3a7640000827f00000000000000000000000000000000000000000000000000000000000000006001600160a01b031663bb7b8b806040518163ffffffff1660e01b815260040160206040518083038186803b158015610a8a57600080fd5b505afa158015610a9e573d6000803e3d6000fd5b505050506040513d601f19601f82011682018060405250810190610ac29190614ceb565b610acc9190615076565b610ad69190614f42565b90505b919050565b7f00000000000000000000000000000000000000000000000000000000000000006001600160a01b0316630c340a246040518163ffffffff1660e01b815260040160206040518083038186803b158015610b3757600080fd5b505afa158015610b4b573d6000803e3d6000fd5b505050506040513d601f19601f82011682018060405250810190610b6f9190614b29565b6001600160a01b0316336001600160a01b031614610b9f5760405162461bcd60e51b815260040161097890614e5f565b600754604051631484968760e11b81526001600160a01b038381166004830152909116906329092d0e90602401602060405180830381600087803b158015610be657600080fd5b505af1158015610bfa573d6000803e3d6000fd5b505050506040513d601f19601f82011682018060405250810190610c1e9190614cb7565b610c615760405162461bcd60e51b81526020600482015260146024820152731c995b5bdd994b5ad9595c195c8b59985a5b195960621b6044820152606401610978565b50565b7f00000000000000000000000000000000000000000000000000000000000000006001600160a01b0316630c340a246040518163ffffffff1660e01b815260040160206040518083038186803b158015610cbd57600080fd5b505afa158015610cd1573d6000803e3d6000fd5b505050506040513d601f19601f82011682018060405250810190610cf59190614b29565b6001600160a01b0316336001600160a01b031614610d255760405162461bcd60e51b815260040161097890614e5f565b6007546001600160a01b031615610d7e5760405162461bcd60e51b815260206004820152601b60248201527f6b65657065722d6c6973742d616c72656164792d6372656174656400000000006044820152606401610978565b6000819050806001600160a01b0316630fab4d256040518163ffffffff1660e01b8152600401602060405180830381600087803b158015610dbe57600080fd5b505af1158015610dd2573d6000803e3d6000fd5b505050506040513d601f19601f82011682018060405250810190610df69190614b29565b600780546001600160a01b0319166001600160a01b03929092169182179055630a3b0a4f610e213390565b6040516001600160e01b031960e084901b1681526001600160a01b039091166004820152602401602060405180830381600087803b158015610e6257600080fd5b505af1158015610e76573d6000803e3d6000fd5b505050506040513d601f19601f82011682018060405250810190610e9a9190614cb7565b610a155760405162461bcd60e51b81526020600482015260116024820152701859190b5ad9595c195c8b59985a5b1959607a1b6044820152606401610978565b6040516370a0823160e01b81523060048201526000907f00000000000000000000000000000000000000000000000000000000000000006001600160a01b0316906370a082319060240160206040518083038186803b158015610f3c57600080fd5b505afa158015610f50573d6000803e3d6000fd5b505050506040513d601f19601f82011682018060405250810190610f749190614ceb565b6040516370a0823160e01b81523060048201527f00000000000000000000000000000000000000000000000000000000000000006001600160a01b0316906370a08231906024015b60206040518083038186803b158015610fd457600080fd5b505afa158015610fe8573d6000803e3d6000fd5b505050506040513d601f19601f8201168201806040525081019061100c9190614ceb565b6110169190614f2a565b905090565b337f00000000000000000000000000000000000000000000000000000000000000006001600160a01b03161461108f5760405162461bcd60e51b815260206004820152601960248201527818d85b1b195c8b5a5ccb5b9bdd0b5d995cdc195c8b5c1bdbdb603a1b6044820152606401610978565b610c61816128ed565b6040516370a0823160e01b8152306004820152600090819081906001600160a01b037f000000000000000000000000000000000000000000000000000000000000000016906370a082319060240160206040518083038186803b1580156110fe57600080fd5b505afa158015611112573d6000803e3d6000fd5b505050506040513d601f19601f820116820180604052508101906111369190614ceb565b90506000611142611aeb565b61114c9083614f2a565b9050611158818661119d565b6111628288615076565b61116c9190614f42565b935080841161117b578361117d565b805b935081841115611194576111918285615095565b92505b50509250929050565b6000826111ab57600061125b565b7f00000000000000000000000000000000000000000000000000000000000000006001600160a01b031663cc2b27d7846111e4856129f9565b6040516001600160e01b031960e085901b1681526004810192909252600f0b602482015260440160206040518083038186803b15801561122357600080fd5b505afa158015611237573d6000803e3d6000fd5b505050506040513d601f19601f8201168201806040525081019061125b9190614ceb565b90505b92915050565b7f00000000000000000000000000000000000000000000000000000000000000006001600160a01b0316630c340a246040518163ffffffff1660e01b815260040160206040518083038186803b1580156112bd57600080fd5b505afa1580156112d1573d6000803e3d6000fd5b505050506040513d601f19601f820116820180604052508101906112f59190614b29565b6001600160a01b0316336001600160a01b0316146113255760405162461bcd60e51b815260040161097890614e5f565b600754604051630a3b0a4f60e01b81526001600160a01b03838116600483015290911690630a3b0a4f90602401602060405180830381600087803b15801561136c57600080fd5b505af1158015611380573d6000803e3d6000fd5b505050506040513d601f19601f820116820180604052508101906113a49190614cb7565b610c615760405162461bcd60e51b81526020600482015260116024820152701859190b5ad9595c195c8b59985a5b1959607a1b6044820152606401610978565b7f00000000000000000000000000000000000000000000000000000000000000006001600160a01b0316630c340a246040518163ffffffff1660e01b815260040160206040518083038186803b15801561143d57600080fd5b505afa158015611451573d6000803e3d6000fd5b505050506040513d601f19601f820116820180604052508101906114759190614b29565b6001600160a01b0316336001600160a01b0316146114a55760405162461bcd60e51b815260040161097890614e5f565b6001600160a01b0381166114f05760405162461bcd60e51b8152602060048201526012602482015271736d2d616464726573732d69732d7a65726f60701b6044820152606401610978565b6009546001600160a01b038281169116141561153b5760405162461bcd60e51b815260206004820152600a602482015269736d2d69732d73616d6560b01b6044820152606401610978565b6009546040516001600160a01b038084169216907f2d19927e7cac08ceb98b38898a4fdff6da6a27295b9a2d62fe250408ebe044e190600090a3600980546001600160a01b0319166001600160a01b0392909216919091179055565b7f00000000000000000000000000000000000000000000000000000000000000006001600160a01b0316630c340a246040518163ffffffff1660e01b815260040160206040518083038186803b1580156115f057600080fd5b505afa158015611604573d6000803e3d6000fd5b505050506040513d601f19601f820116820180604052508101906116289190614b29565b6001600160a01b0316336001600160a01b0316146116585760405162461bcd60e51b815260040161097890614e5f565b6127108111156116a35760405162461bcd60e51b8152602060048201526016602482015275696e76616c69642d736c6970706167652d76616c756560501b6044820152606401610978565b600c5460408051918252602082018390527ef1c5db862c7598b3b6765552ca951f498611e06412c2d57f8d0b58f82e7f82910160405180910390a1600c55565b6040516308b752bb60e41b81523060048201526001600160a01b037f000000000000000000000000000000000000000000000000000000000000000016602482015260009073d061d61a4d941c39e5453435b6345dc261c2fce090638b752bb09060440160206040518083038186803b15801561175f57600080fd5b505afa158015611773573d6000803e3d6000fd5b505050506040513d601f19601f820116820180604052508101906117979190614ceb565b604051630940070760e01b81523060048201527f00000000000000000000000000000000000000000000000000000000000000006001600160a01b03169063094007079060240160206040518083038186803b1580156117f657600080fd5b505afa15801561180a573d6000803e3d6000fd5b505050506040513d601f19601f8201168201806040525081019061182e9190614ceb565b6110169190615095565b6003816003811061184857600080fd5b0154905081565b611857612a7f565b565b6007546001600160a01b0316635dbe47e8336040516001600160e01b031960e084901b1681526001600160a01b03909116600482015260240160206040518083038186803b1580156118aa57600080fd5b505afa1580156118be573d6000803e3d6000fd5b505050506040513d601f19601f820116820180604052508101906118e29190614cb7565b6118fe5760405162461bcd60e51b815260040161097890614e2f565b600080600061190b612b18565b6040516302df682360e11b815260048101849052602481018390526044810182905292955090935091506001600160a01b037f000000000000000000000000000000000000000000000000000000000000000016906305bed04690606401600060405180830381600087803b15801561198357600080fd5b505af1158015611997573d6000803e3d6000fd5b505050506119a3612c7d565b60105460ff16611ae657604051639f2b283360e01b8152306004820152600090611a50906001600160a01b037f00000000000000000000000000000000000000000000000000000000000000001690639f2b28339060240160206040518083038186803b158015611a1357600080fd5b505afa158015611a27573d6000803e3d6000fd5b505050506040513d601f19601f82011682018060405250810190611a4b9190614ceb565b612d44565b905082811115611ae4576001600160a01b037f00000000000000000000000000000000000000000000000000000000000000001663ddd6d260611a938584615095565b6040518263ffffffff1660e01b8152600401611ab191815260200190565b600060405180830381600087803b158015611acb57600080fd5b505af1158015611adf573d6000803e3d6000fd5b505050505b505b505050565b6040516370a0823160e01b81523060048201526000907f00000000000000000000000000000000000000000000000000000000000000006001600160a01b0316906370a082319060240160206040518083038186803b158015611b4d57600080fd5b505afa158015611b61573d6000803e3d6000fd5b505050506040513d601f19601f820116820180604052508101906110169190614ceb565b6007546001600160a01b0316635dbe47e8336040516001600160e01b031960e084901b1681526001600160a01b03909116600482015260240160206040518083038186803b158015611bd657600080fd5b505afa158015611bea573d6000803e3d6000fd5b505050506040513d601f19601f82011682018060405250810190611c0e9190614cb7565b611c2a5760405162461bcd60e51b815260040161097890614e2f565b611c346000612d75565b611857600019612d75565b7f00000000000000000000000000000000000000000000000000000000000000006001600160a01b0316630c340a246040518163ffffffff1660e01b815260040160206040518083038186803b158015611c9857600080fd5b505afa158015611cac573d6000803e3d6000fd5b505050506040513d601f19601f82011682018060405250810190611cd09190614b29565b6001600160a01b0316336001600160a01b031614611d005760405162461bcd60e51b815260040161097890614e5f565b600960009054906101000a90046001600160a01b03166001600160a01b031663c2fba6676040518163ffffffff1660e01b815260040160206040518083038186803b158015611d4e57600080fd5b505afa158015611d62573d6000803e3d6000fd5b505050506040513d601f19601f82011682018060405250810190611d869190614ceb565b8110611dcb5760405162461bcd60e51b81526020600482015260146024820152730d2dcecc2d8d2c85ae4deeae8cae45ad2dcc8caf60631b6044820152606401610978565b81611dd657600a5491505b603b8211611e1e5760405162461bcd60e51b81526020600482015260156024820152741a5b9d985b1a590b5bdc9858db194b5c195c9a5bd9605a1b6044820152606401610978565b600a54600b546040805192835260208301859052820152606081018290527f83bc5ab8030537fcf1d29c2334f6d22c26c82dcbe5ff03923d2cff5c692c0a7f9060800160405180910390a1600a91909155600b55565b6007546001600160a01b0316635dbe47e8336040516001600160e01b031960e084901b1681526001600160a01b03909116600482015260240160206040518083038186803b158015611ec557600080fd5b505afa158015611ed9573d6000803e3d6000fd5b505050506040513d601f19601f82011682018060405250810190611efd9190614cb7565b611f195760405162461bcd60e51b815260040161097890614e2f565b611857612f03565b7f00000000000000000000000000000000000000000000000000000000000000006001600160a01b0316630c340a246040518163ffffffff1660e01b815260040160206040518083038186803b158015611f7a57600080fd5b505afa158015611f8e573d6000803e3d6000fd5b505050506040513d601f19601f82011682018060405250810190611fb29190614b29565b6001600160a01b0316336001600160a01b031614611fe25760405162461bcd60e51b815260040161097890614e5f565b6012805460ff1916911515919091179055565b6000816003811061200557600080fd5b01546001600160a01b0316905081565b7f00000000000000000000000000000000000000000000000000000000000000006001600160a01b0316630c340a246040518163ffffffff1660e01b815260040160206040518083038186803b15801561206e57600080fd5b505afa158015612082573d6000803e3d6000fd5b505050506040513d601f19601f820116820180604052508101906120a69190614b29565b6001600160a01b0316336001600160a01b0316146120d65760405162461bcd60e51b815260040161097890614e5f565b601280549115156101000261ff0019909216919091179055565b337f00000000000000000000000000000000000000000000000000000000000000006001600160a01b0316146121645760405162461bcd60e51b815260206004820152601960248201527818d85b1b195c8b5a5ccb5b9bdd0b5d995cdc195c8b5c1bdbdb603a1b6044820152606401610978565b6001600160a01b0381166121ba5760405162461bcd60e51b815260206004820152601c60248201527f6e65772d73747261746567792d616464726573732d69732d7a65726f000000006044820152606401610978565b7f00000000000000000000000000000000000000000000000000000000000000006001600160a01b0316816001600160a01b03166316f0115b6040518163ffffffff1660e01b815260040160206040518083038186803b15801561221d57600080fd5b505afa158015612231573d6000803e3d6000fd5b505050506040513d601f19601f820116820180604052508101906122559190614b29565b6001600160a01b0316146122a45760405162461bcd60e51b81526020600482015260166024820152756e6f742d76616c69642d6e65772d737472617465677960501b6044820152606401610978565b6122ad81612fc0565b6006546040516370a0823160e01b81523060048201526123419183916001600160a01b03909116906370a082319060240160206040518083038186803b1580156122f657600080fd5b505afa15801561230a573d6000803e3d6000fd5b505050506040513d601f19601f8201168201806040525081019061232e9190614ceb565b6006546001600160a01b03169190612fc8565b6040516370a0823160e01b8152306004820152610c619082906001600160a01b037f000000000000000000000000000000000000000000000000000000000000000016906370a082319060240160206040518083038186803b1580156123a657600080fd5b505afa1580156123ba573d6000803e3d6000fd5b505050506040513d601f19601f820116820180604052508101906123de9190614ceb565b6001600160a01b037f0000000000000000000000000000000000000000000000000000000000000000169190612fc8565b7f00000000000000000000000000000000000000000000000000000000000000006001600160a01b0316630c340a246040518163ffffffff1660e01b815260040160206040518083038186803b15801561246857600080fd5b505afa15801561247c573d6000803e3d6000fd5b505050506040513d601f19601f820116820180604052508101906124a09190614b29565b6001600160a01b0316336001600160a01b0316146124d05760405162461bcd60e51b815260040161097890614e5f565b6001600160a01b0381166125265760405162461bcd60e51b815260206004820152601d60248201527f6665652d636f6c6c6563746f722d616464726573732d69732d7a65726f0000006044820152606401610978565b6008546001600160a01b038281169116141561257c5760405162461bcd60e51b81526020600482015260156024820152746665652d636f6c6c6563746f722d69732d73616d6560581b6044820152606401610978565b6008546040516001600160a01b038084169216907f0f06062680f9bd68e786e9980d9bb03d73d5620fc3b345e417b6eacb310b970690600090a3600880546001600160a01b0319166001600160a01b0392909216919091179055565b60006125f36108586125eb6103b6610eda565b60115461302b565b6040516370a0823160e01b81523060048201527f00000000000000000000000000000000000000000000000000000000000000006001600160a01b0316906370a0823190602401610fbc565b6007546001600160a01b0316635dbe47e8336040516001600160e01b031960e084901b1681526001600160a01b03909116600482015260240160206040518083038186803b15801561269057600080fd5b505afa1580156126a4573d6000803e3d6000fd5b505050506040513d601f19601f820116820180604052508101906126c89190614cb7565b6126e45760405162461bcd60e51b815260040161097890614e2f565b6008546001600160a01b03166127345760405162461bcd60e51b81526020600482015260156024820152741999594b58dbdb1b1958dd1bdc8b5b9bdd0b5cd95d605a1b6044820152606401610978565b7f00000000000000000000000000000000000000000000000000000000000000006001600160a01b0316816001600160a01b031614156127b65760405162461bcd60e51b815260206004820152601f60248201527f6e6f742d616c6c6f7765642d746f2d73776565702d636f6c6c61746572616c006044820152606401610978565b6001600160a01b0381166000908152600d602052604090205460ff16156128165760405162461bcd60e51b815260206004820152601460248201527306e6f742d616c6c6f7765642d746f2d73776565760641b6044820152606401610978565b6001600160a01b03811673eeeeeeeeeeeeeeeeeeeeeeeeeeeeeeeeeeeeeeee141561285657600854612851906001600160a01b03164761304e565b610c61565b6040516370a0823160e01b81523060048201526000906001600160a01b038316906370a082319060240160206040518083038186803b15801561289857600080fd5b505afa1580156128ac573d6000803e3d6000fd5b505050506040513d601f19601f820116820180604052508101906128d09190614ceb565b600854909150610a15906001600160a01b03848116911683612fc8565b6040516370a0823160e01b81523060048201526000907f00000000000000000000000000000000000000000000000000000000000000006001600160a01b0316906370a082319060240160206040518083038186803b15801561294f57600080fd5b505afa158015612963573d6000803e3d6000fd5b505050506040513d601f19601f820116820180604052508101906129879190614ceb565b9050808211156129a5576129a361299e8284615095565b613167565b505b610a156001600160a01b037f0000000000000000000000000000000000000000000000000000000000000000167f000000000000000000000000000000000000000000000000000000000000000084612fc8565b60006f7fffffffffffffffffffffffffffffff198212158015612a1f57506001607f1b82125b612a7b5760405162461bcd60e51b815260206004820152602760248201527f53616665436173743a2076616c756520646f65736e27742066697420696e20316044820152663238206269747360c81b6064820152608401610978565b5090565b604051634b82009360e01b81523060048201527f00000000000000000000000000000000000000000000000000000000000000006001600160a01b031690634b82009390602401602060405180830381600087803b158015612ae057600080fd5b505af1158015612af4573d6000803e3d6000fd5b505050506040513d601f19601f82011682018060405250810190610c619190614cb7565b604051636a9eee1360e11b81523060048201526000908190819081906001600160a01b037f0000000000000000000000000000000000000000000000000000000000000000169063d53ddc269060240160206040518083038186803b158015612b8057600080fd5b505afa158015612b94573d6000803e3d6000fd5b505050506040513d601f19601f82011682018060405250810190612bb89190614ceb565b604051639f2b283360e01b81523060048201529091506000906001600160a01b037f00000000000000000000000000000000000000000000000000000000000000001690639f2b28339060240160206040518083038186803b158015612c1d57600080fd5b505afa158015612c31573d6000803e3d6000fd5b505050506040513d601f19601f82011682018060405250810190612c559190614ceb565b90506000612c62826132a1565b91975095509050612c7383826134b0565b9350505050909192565b6010805460ff191690556040516370a0823160e01b81523060048201526000907f00000000000000000000000000000000000000000000000000000000000000006001600160a01b0316906370a082319060240160206040518083038186803b158015612ce957600080fd5b505afa158015612cfd573d6000803e3d6000fd5b505050506040513d601f19601f82011682018060405250810190612d219190614ceb565b9050612d2c816134d0565b6010805460ff19169115919091179055610c616137ee565b600080612d586108586125eb6103b6610eda565b905082811015612d6f57612d6c8184615095565b91505b50919050565b612dbd6001600160a01b037f00000000000000000000000000000000000000000000000000000000000000001673f403c135812408bfbe8713b5a23a04b3d48aae3183613943565b60005b600960009054906101000a90046001600160a01b03166001600160a01b031663c2fba6676040518163ffffffff1660e01b815260040160206040518083038186803b158015612e0e57600080fd5b505afa158015612e22573d6000803e3d6000fd5b505050506040513d601f19601f82011682018060405250810190612e469190614ceb565b811015612ef957600954604051636e74a6f760e01b815260048101839052612ee7916001600160a01b031690636e74a6f79060240160206040518083038186803b158015612e9357600080fd5b505afa158015612ea7573d6000803e3d6000fd5b505050506040513d601f19601f82011682018060405250810190612ecb9190614b29565b734e3fbd56cd56c3e72c1403e103b45db9da5b9d2b9084613943565b80612ef181615105565b915050612dc0565b50610c6181613a67565b600954600a54600b54604051630f30f2d360e21b81526001600160a01b0390931692633cc3cb4c92612f6592734e3fbd56cd56c3e72c1403e103b45db9da5b9d2b9273c02aaa39b223fe8d0a0e5c4f27ead9083c756cc2929190600401614d9b565b602060405180830381600087803b158015612f7f57600080fd5b505af1158015612f93573d6000803e3d6000fd5b505050506040513d601f19601f82011682018060405250810190612fb79190614b29565b50611857613ca0565b610c61613ea7565b6040516001600160a01b038316602482015260448101829052611ae690849063a9059cbb60e01b906064015b60408051601f198184030181529190526020810180516001600160e01b03166001600160e01b031990931692909217909152613f25565b600061271061303a8382615095565b6130449085615076565b61125b9190614f42565b8047101561309e5760405162461bcd60e51b815260206004820152601d60248201527f416464726573733a20696e73756666696369656e742062616c616e63650000006044820152606401610978565b6000826001600160a01b03168260405160006040518083038185875af1925050503d80600081146130eb576040519150601f19603f3d011682016040523d82523d6000602084013e6130f0565b606091505b5050905080611ae65760405162461bcd60e51b815260206004820152603a60248201527f416464726573733a20756e61626c6520746f2073656e642076616c75652c207260448201527f6563697069656e74206d617920686176652072657665727465640000000000006064820152608401610978565b60008161317657506000610ad9565b7f00000000000000000000000000000000000000000000000000000000000000006000806131a48584611098565b915091506131b181613ff7565b60006131e6670de0b6b3a76400006131d26125eb6131cd614051565b6141b5565b6131dc9086615076565b6108589190614f42565b90506131f383828661421a565b6040516370a0823160e01b81523060048201527f00000000000000000000000000000000000000000000000000000000000000006001600160a01b0316906370a082319060240160206040518083038186803b15801561325257600080fd5b505afa158015613266573d6000803e3d6000fd5b505050506040513d601f19601f8201168201806040525081019061328a9190614ceb565b945085851115613298578594505b50505050919050565b6040516370a0823160e01b81523060048201526000908190819081906001600160a01b037f000000000000000000000000000000000000000000000000000000000000000016906370a082319060240160206040518083038186803b15801561330957600080fd5b505afa15801561331d573d6000803e3d6000fd5b505050506040513d601f19601f820116820180604052508101906133419190614ceb565b905061336c7f00000000000000000000000000000000000000000000000000000000000000006142b8565b6040516370a0823160e01b81523060048201526000907f00000000000000000000000000000000000000000000000000000000000000006001600160a01b0316906370a082319060240160206040518083038186803b1580156133ce57600080fd5b505afa1580156133e2573d6000803e3d6000fd5b505050506040513d601f19601f820116820180604052508101906134069190614ceb565b90506134128282615095565b945060006134276108586125eb6103b6610eda565b6134319084614f2a565b905086811115613456576134458782615095565b61344f9087614f2a565b9550613463565b6134608188615095565b94505b84861115613495576134758587615095565b955060009450818611156134905761348d8287615095565b93505b6134a6565b61349f8686615095565b9450600095505b5050509193909250565b60006134bf61299e8385614f2a565b90508281111561125e575090919050565b600081156137e6576134e0614aef565b82817f00000000000000000000000000000000000000000000000000000000000000006003811061352157634e487b7160e01b600052603260045260246000fd5b6020020152604051633883e11960e01b81526000906135cc906001600160a01b037f00000000000000000000000000000000000000000000000000000000000000001690633883e1199061357c908690600190600401614dc4565b60206040518083038186803b15801561359457600080fd5b505afa1580156135a8573d6000803e3d6000fd5b505050506040513d601f19601f820116820180604052508101906125eb9190614ceb565b9050600060037f00000000000000000000000000000000000000000000000000000000000000006003811061361157634e487b7160e01b600052603260045260246000fd5b015461361e906012615095565b61362990600a614fa8565b7f00000000000000000000000000000000000000000000000000000000000000006001600160a01b031663bb7b8b806040518163ffffffff1660e01b815260040160206040518083038186803b15801561368257600080fd5b505afa158015613696573d6000803e3d6000fd5b505050506040513d601f19601f820116820180604052508101906136ba9190614ceb565b6136c2614051565b6136cc9088615076565b6136d69190614f42565b6136e09190615076565b9050808211156136ed5750805b604051634515cef360e01b81526001600160a01b037f00000000000000000000000000000000000000000000000000000000000000001690634515cef39061373b9086908590600401614de1565b600060405180830381600087803b15801561375557600080fd5b505af1925050508015613766575060015b6137e25761377261514c565b806308c379a014156137d65750613787615163565b8061379257506137d8565b7f63299ad14374170063e6f2e5559417926f3a23da67eefa83fc2e9bf9f21e915c816040516137c19190614dfc565b60405180910390a16000945050505050610ad9565b505b3d6000803e3d6000fd5b5050505b506001919050565b6040516370a0823160e01b81523060048201526000907f00000000000000000000000000000000000000000000000000000000000000006001600160a01b0316906370a082319060240160206040518083038186803b15801561385057600080fd5b505afa158015613864573d6000803e3d6000fd5b505050506040513d601f19601f820116820180604052508101906138889190614ceb565b90508015610c61576040516321d0683360e11b81527f00000000000000000000000000000000000000000000000000000000000000006004820152602481018290526001604482015273f403c135812408bfbe8713b5a23a04b3d48aae31906343a0d066906064015b602060405180830381600087803b15801561390b57600080fd5b505af115801561391f573d6000803e3d6000fd5b505050506040513d601f19601f82011682018060405250810190610a159190614cb7565b8015806139cc5750604051636eb1769f60e11b81523060048201526001600160a01b03838116602483015284169063dd62ed3e9060440160206040518083038186803b15801561399257600080fd5b505afa1580156139a6573d6000803e3d6000fd5b505050506040513d601f19601f820116820180604052508101906139ca9190614ceb565b155b613a375760405162461bcd60e51b815260206004820152603660248201527f5361666545524332303a20617070726f76652066726f6d206e6f6e2d7a65726f60448201527520746f206e6f6e2d7a65726f20616c6c6f77616e636560501b6064820152608401610978565b6040516001600160a01b038316602482015260448101829052611ae690849063095ea7b360e01b90606401612ff4565b613abb6001600160a01b037f0000000000000000000000000000000000000000000000000000000000000000167f000000000000000000000000000000000000000000000000000000000000000083613943565b613b0f6001600160a01b037f0000000000000000000000000000000000000000000000000000000000000000167f000000000000000000000000000000000000000000000000000000000000000083613943565b60005b600960009054906101000a90046001600160a01b03166001600160a01b031663c2fba6676040518163ffffffff1660e01b815260040160206040518083038186803b158015613b6057600080fd5b505afa158015613b74573d6000803e3d6000fd5b505050506040513d601f19601f82011682018060405250810190613b989190614ceb565b811015613c4b57600954604051636e74a6f760e01b815260048101839052613c39916001600160a01b031690636e74a6f79060240160206040518083038186803b158015613be557600080fd5b505afa158015613bf9573d6000803e3d6000fd5b505050506040513d601f19601f82011682018060405250810190613c1d9190614b29565b73d533a949740bb3306d119cc777fa900ba034cd529084613943565b80613c4381615105565b915050613b12565b50610c616001600160a01b037f0000000000000000000000000000000000000000000000000000000000000000167f000000000000000000000000000000000000000000000000000000000000000083613943565b600954600a54600b54604051630f30f2d360e21b81526001600160a01b0390931692633cc3cb4c92613d029273d533a949740bb3306d119cc777fa900ba034cd529273c02aaa39b223fe8d0a0e5c4f27ead9083c756cc2929190600401614d9b565b602060405180830381600087803b158015613d1c57600080fd5b505af1158015613d30573d6000803e3d6000fd5b505050506040513d601f19601f82011682018060405250810190613d549190614b29565b5060005b6003811015610c615760095460405163c661065760e01b8152600481018390526001600160a01b0391821691633cc3cb4c917f00000000000000000000000000000000000000000000000000000000000000009091169063c66106579060240160206040518083038186803b158015613dd057600080fd5b505afa158015613de4573d6000803e3d6000fd5b505050506040513d601f19601f82011682018060405250810190613e089190614b29565b73c02aaa39b223fe8d0a0e5c4f27ead9083c756cc2600a54600b546040518563ffffffff1660e01b8152600401613e429493929190614d9b565b602060405180830381600087803b158015613e5c57600080fd5b505af1158015613e70573d6000803e3d6000fd5b505050506040513d601f19601f82011682018060405250810190613e949190614b29565b5080613e9f81615105565b915050613d58565b6012546040516324f81cd160e11b815260ff909116151560048201527f00000000000000000000000000000000000000000000000000000000000000006001600160a01b0316906349f039a290602401600060405180830381600087803b158015613f1157600080fd5b505af1158015611ae4573d6000803e3d6000fd5b6000613f7a826040518060400160405280602081526020017f5361666545524332303a206c6f772d6c6576656c2063616c6c206661696c6564815250856001600160a01b03166146ce9092919063ffffffff16565b805190915015611ae65780806020019051810190613f989190614cb7565b611ae65760405162461bcd60e51b815260206004820152602a60248201527f5361666545524332303a204552433230206f7065726174696f6e20646964206e6044820152691bdd081cdd58d8d9595960b21b6064820152608401610978565b8015610c6157604051636197390160e11b815260048101829052600060248201527f00000000000000000000000000000000000000000000000000000000000000006001600160a01b03169063c32e7202906044016138f1565b6000600a54426140619190615095565b600f541180156140725750600e5415155b156140805750600e54610858565b60008060005b600381101561414857600080614108600084600381106140b657634e487b7160e01b600052603260045260246000fd5b01546001600160a01b031673c02aaa39b223fe8d0a0e5c4f27ead9083c756cc26003868181106140f657634e487b7160e01b600052603260045260246000fd5b015461410390600a614fa8565b6146e7565b9150915080156141335784158061411e57508482105b15614127578194505b81841015614133578193505b5050808061414090615105565b915050614086565b50816141885760405162461bcd60e51b815260206004820152600f60248201526e6e6f2d6f7261636c652d726174657360881b6044820152606401610978565b42600f558061419f83670de0b6b3a7640000615076565b6141a99190614f42565b600e8190559250505090565b6000670de0b6b3a7640000827f00000000000000000000000000000000000000000000000000000000000000006001600160a01b031663bb7b8b806040518163ffffffff1660e01b815260040160206040518083038186803b158015610a8a57600080fd5b7f00000000000000000000000000000000000000000000000000000000000000006001600160a01b0316631a4d01d284614253846129f9565b6040516001600160e01b031960e085901b1681526004810192909252600f0b602482015260448101859052606401600060405180830381600087803b15801561429b57600080fd5b505af11580156142af573d6000803e3d6000fd5b50505050505050565b601254604051637050ccd960e01b815230600482015261010090910460ff16151560248201527f00000000000000000000000000000000000000000000000000000000000000006001600160a01b031690637050ccd990604401602060405180830381600087803b15801561432c57600080fd5b505af1158015614340573d6000803e3d6000fd5b505050506040513d601f19601f820116820180604052508101906143649190614cb7565b506040516370a0823160e01b815230600482015260009073d533a949740bb3306d119cc777fa900ba034cd52906370a082319060240160206040518083038186803b1580156143b257600080fd5b505afa1580156143c6573d6000803e3d6000fd5b505050506040513d601f19601f820116820180604052508101906143ea9190614ceb565b9050801561451c576000612710600c5410156144fa5760008061443673d533a949740bb3306d119cc777fa900ba034cd5273c02aaa39b223fe8d0a0e5c4f27ead9083c756cc2866146e7565b9150915060008061445c73c02aaa39b223fe8d0a0e5c4f27ead9083c756cc288866146e7565b91509150826144a05760405162461bcd60e51b815260206004820152601060248201526f7374616c652d6372762d6f7261636c6560801b6044820152606401610978565b806144e75760405162461bcd60e51b81526020600482015260176024820152767374616c652d636f6c6c61746572616c2d6f7261636c6560481b6044820152606401610978565b6144f382600c5461302b565b9450505050505b61451a73d533a949740bb3306d119cc777fa900ba034cd528484846147d8565b505b6040516370a0823160e01b8152306004820152734e3fbd56cd56c3e72c1403e103b45db9da5b9d2b906370a082319060240160206040518083038186803b15801561456657600080fd5b505afa15801561457a573d6000803e3d6000fd5b505050506040513d601f19601f8201168201806040525081019061459e9190614ceb565b90508015610a15576000612710600c5410156146ae576000806145ea734e3fbd56cd56c3e72c1403e103b45db9da5b9d2b73c02aaa39b223fe8d0a0e5c4f27ead9083c756cc2866146e7565b9150915060008061461073c02aaa39b223fe8d0a0e5c4f27ead9083c756cc288866146e7565b91509150826146545760405162461bcd60e51b815260206004820152601060248201526f7374616c652d6372762d6f7261636c6560801b6044820152606401610978565b8061469b5760405162461bcd60e51b81526020600482015260176024820152767374616c652d636f6c6c61746572616c2d6f7261636c6560481b6044820152606401610978565b6146a782600c5461302b565b9450505050505b611ae6734e3fbd56cd56c3e72c1403e103b45db9da5b9d2b8484846147d8565b60606146dd848460008561498e565b90505b9392505050565b600954600a54600b5460405163b67bb24d60e01b81526001600160a01b03878116600483015286811660248301526044820186905260648201939093526084810191909152600092839283928392919091169063b67bb24d9060a401606060405180830381600087803b15801561475d57600080fd5b505af1158015614771573d6000803e3d6000fd5b505050506040513d601f19601f820116820180604052508101906147959190614d24565b5091509150600a54426147a89190615095565b811180156147b557508115155b156147c657509150600190506147d0565b6000809350935050505b935093915050565b600954604051631d1f307960e31b81526001600160a01b038681166004830152858116602483015260448201859052600092839283929091169063e8f983c89060640160006040518083038186803b15801561483357600080fd5b505afa158015614847573d6000803e3d6000fd5b505050506040513d6000823e601f3d908101601f1916820160405261486f9190810190614b45565b925092509250836000141561488357600193505b81156142af57600954604051636e74a6f760e01b8152600481018390526001600160a01b0390911690636e74a6f79060240160206040518083038186803b1580156148cd57600080fd5b505afa1580156148e1573d6000803e3d6000fd5b505050506040513d601f19601f820116820180604052508101906149059190614b29565b6001600160a01b03166338ed173986868630426040518663ffffffff1660e01b8152600401614938959493929190614e96565b600060405180830381600087803b15801561495257600080fd5b505af1158015614966573d6000803e3d6000fd5b505050506040513d6000823e601f3d908101601f19168201604052611adf9190810190614bfe565b6060824710156149ef5760405162461bcd60e51b815260206004820152602660248201527f416464726573733a20696e73756666696369656e742062616c616e636520666f6044820152651c8818d85b1b60d21b6064820152608401610978565b843b614a3d5760405162461bcd60e51b815260206004820152601d60248201527f416464726573733a2063616c6c20746f206e6f6e2d636f6e74726163740000006044820152606401610978565b600080866001600160a01b03168587604051614a599190614d7f565b60006040518083038185875af1925050503d8060008114614a96576040519150601f19603f3d011682016040523d82523d6000602084013e614a9b565b606091505b5091509150614aab828286614ab6565b979650505050505050565b60608315614ac55750816146e0565b825115614ad55782518084602001fd5b8160405162461bcd60e51b81526004016109789190614dfc565b60405180606001604052806003906020820280368337509192915050565b600060208284031215614b1e578081fd5b81356146e0816151f5565b600060208284031215614b3a578081fd5b81516146e0816151f5565b600080600060608486031215614b59578182fd5b835167ffffffffffffffff811115614b6f578283fd5b8401601f81018613614b7f578283fd5b80516020614b8c82614f06565b604051614b9982826150d8565b8381528281019150848301600585901b860184018b1015614bb8578788fd5b8795505b84861015614be3578051614bcf816151f5565b835260019590950194918301918301614bbc565b50918801516040909801519199979850909695505050505050565b60006020808385031215614c10578182fd5b825167ffffffffffffffff811115614c26578283fd5b8301601f81018513614c36578283fd5b8051614c4181614f06565b604051614c4e82826150d8565b8281528481019150838501600584901b85018601891015614c6d578687fd5b8694505b83851015614c8f578051835260019490940193918501918501614c71565b50979650505050505050565b600060208284031215614cac578081fd5b81356146e08161520a565b600060208284031215614cc8578081fd5b81516146e08161520a565b600060208284031215614ce4578081fd5b5035919050565b600060208284031215614cfc578081fd5b5051919050565b60008060408385031215614d15578182fd5b50508035926020909101359150565b600080600060608486031215614d38578283fd5b83519250602084015191506040840151614d518161520a565b809150509250925092565b8060005b6003811015611ae4578151845260209384019390910190600101614d60565b60008251614d918184602087016150ac565b9190910192915050565b6001600160a01b0394851681529290931660208301526040820152606081019190915260800190565b60808101614dd28285614d5c565b82151560608301529392505050565b60808101614def8285614d5c565b8260608301529392505050565b6000602082528251806020840152614e1b8160408501602087016150ac565b601f01601f19169190910160400192915050565b60208082526016908201527531b0b63632b916b4b996b737ba16b096b5b2b2b832b960511b604082015260600190565b6020808252601a908201527f63616c6c65722d69732d6e6f742d7468652d676f7665726e6f72000000000000604082015260600190565b600060a082018783526020878185015260a0604085015281875180845260c0860191508289019350845b81811015614ee55784516001600160a01b031683529383019391830191600101614ec0565b50506001600160a01b03969096166060850152505050608001529392505050565b600067ffffffffffffffff821115614f2057614f20615136565b5060051b60200190565b60008219821115614f3d57614f3d615120565b500190565b600082614f5d57634e487b7160e01b81526012600452602481fd5b500490565b80825b6001808611614f745750614f9f565b818704821115614f8657614f86615120565b80861615614f9357918102915b9490941c938002614f65565b94509492505050565b600061125b6000198484600082614fc1575060016146e0565b81614fce575060006146e0565b8160018114614fe45760028114614fee5761501b565b60019150506146e0565b60ff841115614fff57614fff615120565b6001841b91508482111561501557615015615120565b506146e0565b5060208310610133831016604e8410600b841016171561504e575081810a8381111561504957615049615120565b6146e0565b61505b8484846001614f62565b80860482111561506d5761506d615120565b02949350505050565b600081600019048311821515161561509057615090615120565b500290565b6000828210156150a7576150a7615120565b500390565b60005b838110156150c75781810151838201526020016150af565b83811115611ae45750506000910152565b601f8201601f1916810167ffffffffffffffff811182821017156150fe576150fe615136565b6040525050565b600060001982141561511957615119615120565b5060010190565b634e487b7160e01b600052601160045260246000fd5b634e487b7160e01b600052604160045260246000fd5b600060033d111561085857600481823e5160e01c90565b600060443d101561517357610858565b6040516003193d81016004833e81513d67ffffffffffffffff81602484011181841117156151a5575050505050610858565b82850191508151818111156151bf57505050505050610858565b843d87010160208285010111156151db57505050505050610858565b6151ea602082860101876150d8565b509094505050505090565b6001600160a01b0381168114610c6157600080fd5b8015158114610c6157600080fdfea2646970667358221220cd3daf43b6b2f0ee1e6367b592903909bf6909331a4da4bb07af70171f5645b564736f6c63430008030033",
  "devdoc": {
    "kind": "dev",
    "methods": {
      "addKeeper(address)": {
        "params": {
          "_keeperAddress": "keeper address to add."
        }
      },
      "approveToken()": {
        "details": "Approve all required tokens"
      },
      "convertFrom18(uint256)": {
        "details": "Convert from 18 decimals to token defined decimals. Default no conversion."
      },
      "init(address)": {
        "params": {
          "_addressListFactory": "To support same code in eth side chain, user _addressListFactory as param ethereum- 0xded8217De022706A191eE7Ee0Dc9df1185Fb5dA3 polygon-0xD10D5696A350D65A9AA15FE8B258caB4ab1bF291"
        }
      },
      "isReservedToken(address)": {
        "details": "Check whether given token is reserved or not. Reserved tokens are not allowed to sweep."
      },
      "migrate(address)": {
        "details": "_beforeMigration hook can be implemented in child strategy to do extra steps.",
        "params": {
          "_newStrategy": "Address of new strategy"
        }
      },
      "rebalance()": {
        "details": "Rebalance profit, loss and investment of this strategy"
      },
      "removeKeeper(address)": {
        "params": {
          "_keeperAddress": "keeper address to remove."
        }
      },
      "sweepERC20(address)": {
        "details": "sweep given token to feeCollector of strategy",
        "params": {
          "_fromToken": "token address to sweep"
        }
      },
      "totalValue()": {
        "details": "Report total value in collateral token"
      },
      "updateFeeCollector(address)": {
        "params": {
          "_feeCollector": "fee collector address"
        }
      },
      "updateSwapManager(address)": {
        "params": {
          "_swapManager": "swap manager address"
        }
      },
      "withdraw(uint256)": {
        "details": "Withdraw collateral token from lending pool.",
        "params": {
          "_amount": "Amount of collateral token"
        }
      }
    },
    "version": 1
  },
  "userdoc": {
    "kind": "user",
    "methods": {
      "addKeeper(address)": {
        "notice": "Add given address in keepers list."
      },
      "init(address)": {
        "notice": "Create keeper list NOTE: Any function with onlyKeeper modifier will not work until this function is called. NOTE: Due to gas constraint this function cannot be called in constructor."
      },
      "migrate(address)": {
        "notice": "Migrate all asset and vault ownership,if any, to new strategy"
      },
      "removeKeeper(address)": {
        "notice": "Remove given address from keepers list."
      },
      "token()": {
        "notice": "Returns address of token correspond to collateral token"
      },
      "totalValue()": {
        "notice": "Calculate total value of asset under management"
      },
      "updateFeeCollector(address)": {
        "notice": "Update fee collector"
      },
      "updateSwapManager(address)": {
        "notice": "Update swap manager address"
      }
    },
    "version": 1
  },
  "storageLayout": {
    "storage": [
      {
        "astId": 17189,
        "contract": "contracts/strategies/convex/ConvexStrategyDAI.sol:ConvexStrategyDAI",
        "label": "coins",
        "offset": 0,
        "slot": "0",
        "type": "t_array(t_address)3_storage"
      },
      {
        "astId": 17197,
        "contract": "contracts/strategies/convex/ConvexStrategyDAI.sol:ConvexStrategyDAI",
        "label": "coinDecimals",
        "offset": 0,
        "slot": "3",
        "type": "t_array(t_uint256)3_storage"
      },
      {
        "astId": 10109,
        "contract": "contracts/strategies/convex/ConvexStrategyDAI.sol:ConvexStrategyDAI",
        "label": "receiptToken",
        "offset": 0,
        "slot": "6",
        "type": "t_address"
      },
      {
        "astId": 10115,
        "contract": "contracts/strategies/convex/ConvexStrategyDAI.sol:ConvexStrategyDAI",
        "label": "keepers",
        "offset": 0,
        "slot": "7",
        "type": "t_contract(IAddressList)3647"
      },
      {
        "astId": 10118,
        "contract": "contracts/strategies/convex/ConvexStrategyDAI.sol:ConvexStrategyDAI",
        "label": "feeCollector",
        "offset": 0,
        "slot": "8",
        "type": "t_address"
      },
      {
        "astId": 10121,
        "contract": "contracts/strategies/convex/ConvexStrategyDAI.sol:ConvexStrategyDAI",
        "label": "swapManager",
        "offset": 0,
        "slot": "9",
        "type": "t_contract(ISwapManager)3950"
      },
      {
        "astId": 10124,
        "contract": "contracts/strategies/convex/ConvexStrategyDAI.sol:ConvexStrategyDAI",
        "label": "oraclePeriod",
        "offset": 0,
        "slot": "10",
        "type": "t_uint256"
      },
      {
        "astId": 10127,
        "contract": "contracts/strategies/convex/ConvexStrategyDAI.sol:ConvexStrategyDAI",
        "label": "oracleRouterIdx",
        "offset": 0,
        "slot": "11",
        "type": "t_uint256"
      },
      {
        "astId": 10130,
        "contract": "contracts/strategies/convex/ConvexStrategyDAI.sol:ConvexStrategyDAI",
        "label": "swapSlippage",
        "offset": 0,
        "slot": "12",
        "type": "t_uint256"
      },
      {
        "astId": 16180,
        "contract": "contracts/strategies/convex/ConvexStrategyDAI.sol:ConvexStrategyDAI",
        "label": "reservedToken",
        "offset": 0,
        "slot": "13",
        "type": "t_mapping(t_address,t_bool)"
      },
      {
        "astId": 16190,
        "contract": "contracts/strategies/convex/ConvexStrategyDAI.sol:ConvexStrategyDAI",
        "label": "usdRate",
        "offset": 0,
        "slot": "14",
        "type": "t_uint256"
      },
      {
        "astId": 16192,
        "contract": "contracts/strategies/convex/ConvexStrategyDAI.sol:ConvexStrategyDAI",
        "label": "usdRateTimestamp",
        "offset": 0,
        "slot": "15",
        "type": "t_uint256"
      },
      {
        "astId": 16194,
        "contract": "contracts/strategies/convex/ConvexStrategyDAI.sol:ConvexStrategyDAI",
        "label": "depositError",
        "offset": 0,
        "slot": "16",
        "type": "t_bool"
      },
      {
        "astId": 16197,
        "contract": "contracts/strategies/convex/ConvexStrategyDAI.sol:ConvexStrategyDAI",
        "label": "crvSlippage",
        "offset": 0,
        "slot": "17",
        "type": "t_uint256"
      },
      {
        "astId": 15107,
        "contract": "contracts/strategies/convex/ConvexStrategyDAI.sol:ConvexStrategyDAI",
        "label": "isClaimRewards",
        "offset": 0,
        "slot": "18",
        "type": "t_bool"
      },
      {
        "astId": 15109,
        "contract": "contracts/strategies/convex/ConvexStrategyDAI.sol:ConvexStrategyDAI",
        "label": "isClaimExtras",
        "offset": 1,
        "slot": "18",
        "type": "t_bool"
      }
    ],
    "types": {
      "t_address": {
        "encoding": "inplace",
        "label": "address",
        "numberOfBytes": "20"
      },
      "t_array(t_address)3_storage": {
        "base": "t_address",
        "encoding": "inplace",
        "label": "address[3]",
        "numberOfBytes": "96"
      },
      "t_array(t_uint256)3_storage": {
        "base": "t_uint256",
        "encoding": "inplace",
        "label": "uint256[3]",
        "numberOfBytes": "96"
      },
      "t_bool": {
        "encoding": "inplace",
        "label": "bool",
        "numberOfBytes": "1"
      },
      "t_contract(IAddressList)3647": {
        "encoding": "inplace",
        "label": "contract IAddressList",
        "numberOfBytes": "20"
      },
      "t_contract(ISwapManager)3950": {
        "encoding": "inplace",
        "label": "contract ISwapManager",
        "numberOfBytes": "20"
      },
      "t_mapping(t_address,t_bool)": {
        "encoding": "mapping",
        "key": "t_address",
        "label": "mapping(address => bool)",
        "numberOfBytes": "32",
        "value": "t_bool"
      },
      "t_uint256": {
        "encoding": "inplace",
        "label": "uint256",
        "numberOfBytes": "32"
      }
    }
  }
}