{
  "address": "0xD11E6772A430c45C7B64927069AF37fa9ab3bE75",
  "abi": [
    {
      "inputs": [
        {
          "internalType": "address",
          "name": "_pool",
          "type": "address"
        },
        {
          "internalType": "address",
          "name": "_swapManager",
          "type": "address"
        }
      ],
      "stateMutability": "nonpayable",
      "type": "constructor"
    },
    {
      "anonymous": false,
      "inputs": [
        {
          "indexed": false,
          "internalType": "string",
          "name": "reason",
          "type": "string"
        }
      ],
      "name": "DepositFailed",
      "type": "event"
    },
    {
      "anonymous": false,
      "inputs": [
        {
          "indexed": true,
          "internalType": "address",
          "name": "previousFeeCollector",
          "type": "address"
        },
        {
          "indexed": true,
          "internalType": "address",
          "name": "newFeeCollector",
          "type": "address"
        }
      ],
      "name": "UpdatedFeeCollector",
      "type": "event"
    },
    {
      "anonymous": false,
      "inputs": [
        {
          "indexed": false,
          "internalType": "uint256",
          "name": "oldSwapSlippage",
          "type": "uint256"
        },
        {
          "indexed": false,
          "internalType": "uint256",
          "name": "newSwapSlippage",
          "type": "uint256"
        },
        {
          "indexed": false,
          "internalType": "uint256",
          "name": "oldCrvSlippage",
          "type": "uint256"
        },
        {
          "indexed": false,
          "internalType": "uint256",
          "name": "newCrvSlippage",
          "type": "uint256"
        }
      ],
      "name": "UpdatedSlippage",
      "type": "event"
    },
    {
      "anonymous": false,
      "inputs": [
        {
          "indexed": true,
          "internalType": "address",
          "name": "previousSwapManager",
          "type": "address"
        },
        {
          "indexed": true,
          "internalType": "address",
          "name": "newSwapManager",
          "type": "address"
        }
      ],
      "name": "UpdatedSwapManager",
      "type": "event"
    },
    {
      "inputs": [
        {
          "internalType": "uint256",
          "name": "",
          "type": "uint256"
        }
      ],
      "name": "COINS",
      "outputs": [
        {
          "internalType": "string",
          "name": "",
          "type": "string"
        }
      ],
      "stateMutability": "view",
      "type": "function"
    },
    {
      "inputs": [
        {
          "internalType": "uint256",
          "name": "",
          "type": "uint256"
        }
      ],
      "name": "COIN_ADDRS",
      "outputs": [
        {
          "internalType": "address",
          "name": "",
          "type": "address"
        }
      ],
      "stateMutability": "view",
      "type": "function"
    },
    {
      "inputs": [],
      "name": "CRV",
      "outputs": [
        {
          "internalType": "address",
          "name": "",
          "type": "address"
        }
      ],
      "stateMutability": "view",
      "type": "function"
    },
    {
      "inputs": [],
      "name": "CRV_MINTER",
      "outputs": [
        {
          "internalType": "address",
          "name": "",
          "type": "address"
        }
      ],
      "stateMutability": "view",
      "type": "function"
    },
    {
      "inputs": [
        {
          "internalType": "uint256",
          "name": "",
          "type": "uint256"
        }
      ],
      "name": "DECIMALS",
      "outputs": [
        {
          "internalType": "uint256",
          "name": "",
          "type": "uint256"
        }
      ],
      "stateMutability": "view",
      "type": "function"
    },
    {
      "inputs": [],
      "name": "GAUGE",
      "outputs": [
        {
          "internalType": "address",
          "name": "",
          "type": "address"
        }
      ],
      "stateMutability": "view",
      "type": "function"
    },
    {
      "inputs": [],
      "name": "N",
      "outputs": [
        {
          "internalType": "uint256",
          "name": "",
          "type": "uint256"
        }
      ],
      "stateMutability": "view",
      "type": "function"
    },
    {
      "inputs": [],
      "name": "NAME",
      "outputs": [
        {
          "internalType": "string",
          "name": "",
          "type": "string"
        }
      ],
      "stateMutability": "view",
      "type": "function"
    },
    {
      "inputs": [],
      "name": "ORACLE_PERIOD",
      "outputs": [
        {
          "internalType": "uint256",
          "name": "",
          "type": "uint256"
        }
      ],
      "stateMutability": "view",
      "type": "function"
    },
    {
      "inputs": [],
      "name": "ORACLE_ROUTER",
      "outputs": [
        {
          "internalType": "uint256",
          "name": "",
          "type": "uint256"
        }
      ],
      "stateMutability": "view",
      "type": "function"
    },
    {
      "inputs": [],
      "name": "THREECRV",
      "outputs": [
        {
          "internalType": "address",
          "name": "",
          "type": "address"
        }
      ],
      "stateMutability": "view",
      "type": "function"
    },
    {
      "inputs": [],
      "name": "THREEPOOL",
      "outputs": [
        {
          "internalType": "contract IStableSwap3Pool",
          "name": "",
          "type": "address"
        }
      ],
      "stateMutability": "view",
      "type": "function"
    },
    {
      "inputs": [],
      "name": "VERSION",
      "outputs": [
        {
          "internalType": "string",
          "name": "",
          "type": "string"
        }
      ],
      "stateMutability": "view",
      "type": "function"
    },
    {
      "inputs": [
        {
          "internalType": "address",
          "name": "_keeperAddress",
          "type": "address"
        }
      ],
      "name": "addKeeper",
      "outputs": [],
      "stateMutability": "nonpayable",
      "type": "function"
    },
    {
      "inputs": [],
      "name": "approveToken",
      "outputs": [],
      "stateMutability": "nonpayable",
      "type": "function"
    },
    {
      "inputs": [
        {
          "internalType": "uint256",
          "name": "_amtNeeded",
          "type": "uint256"
        },
        {
          "internalType": "uint256",
          "name": "i",
          "type": "uint256"
        }
      ],
      "name": "calcWithdrawLpAs",
      "outputs": [
        {
          "internalType": "uint256",
          "name": "lpToWithdraw",
          "type": "uint256"
        },
        {
          "internalType": "uint256",
          "name": "unstakeAmt",
          "type": "uint256"
        }
      ],
      "stateMutability": "view",
      "type": "function"
    },
    {
      "inputs": [],
      "name": "claimableRewards",
      "outputs": [
        {
          "internalType": "uint256",
          "name": "",
          "type": "uint256"
        }
      ],
      "stateMutability": "view",
      "type": "function"
    },
    {
      "inputs": [],
      "name": "collIdx",
      "outputs": [
        {
          "internalType": "uint256",
          "name": "",
          "type": "uint256"
        }
      ],
      "stateMutability": "view",
      "type": "function"
    },
    {
      "inputs": [],
      "name": "collateralToken",
      "outputs": [
        {
          "internalType": "contract IERC20",
          "name": "",
          "type": "address"
        }
      ],
      "stateMutability": "view",
      "type": "function"
    },
    {
      "inputs": [
        {
          "internalType": "uint256",
          "name": "amount",
          "type": "uint256"
        }
      ],
      "name": "convertFrom18",
      "outputs": [
        {
          "internalType": "uint256",
          "name": "",
          "type": "uint256"
        }
      ],
      "stateMutability": "pure",
      "type": "function"
    },
    {
      "inputs": [],
      "name": "crvGauge",
      "outputs": [
        {
          "internalType": "address",
          "name": "",
          "type": "address"
        }
      ],
      "stateMutability": "view",
      "type": "function"
    },
    {
      "inputs": [],
      "name": "crvLp",
      "outputs": [
        {
          "internalType": "address",
          "name": "",
          "type": "address"
        }
      ],
      "stateMutability": "view",
      "type": "function"
    },
    {
      "inputs": [],
      "name": "crvPool",
      "outputs": [
        {
          "internalType": "address",
          "name": "",
          "type": "address"
        }
      ],
      "stateMutability": "view",
      "type": "function"
    },
    {
      "inputs": [],
      "name": "crvSlippage",
      "outputs": [
        {
          "internalType": "uint256",
          "name": "",
          "type": "uint256"
        }
      ],
      "stateMutability": "view",
      "type": "function"
    },
    {
      "inputs": [],
      "name": "depositError",
      "outputs": [
        {
          "internalType": "bool",
          "name": "",
          "type": "bool"
        }
      ],
      "stateMutability": "view",
      "type": "function"
    },
    {
      "inputs": [],
      "name": "feeCollector",
      "outputs": [
        {
          "internalType": "address",
          "name": "",
          "type": "address"
        }
      ],
      "stateMutability": "view",
      "type": "function"
    },
    {
      "inputs": [
        {
          "internalType": "uint256",
          "name": "_lpAmount",
          "type": "uint256"
        }
      ],
      "name": "getLpValue",
      "outputs": [
        {
          "internalType": "uint256",
          "name": "",
          "type": "uint256"
        }
      ],
      "stateMutability": "view",
      "type": "function"
    },
    {
      "inputs": [
        {
          "internalType": "uint256",
          "name": "_lpAmount",
          "type": "uint256"
        },
        {
          "internalType": "uint256",
          "name": "i",
          "type": "uint256"
        }
      ],
      "name": "getLpValueAs",
      "outputs": [
        {
          "internalType": "uint256",
          "name": "",
          "type": "uint256"
        }
      ],
      "stateMutability": "view",
      "type": "function"
    },
    {
      "inputs": [
        {
          "internalType": "address",
          "name": "_addressListFactory",
          "type": "address"
        }
      ],
      "name": "init",
      "outputs": [],
      "stateMutability": "nonpayable",
      "type": "function"
    },
    {
      "inputs": [
        {
          "internalType": "address",
          "name": "_token",
          "type": "address"
        }
      ],
      "name": "isReservedToken",
      "outputs": [
        {
          "internalType": "bool",
          "name": "",
          "type": "bool"
        }
      ],
      "stateMutability": "view",
      "type": "function"
    },
    {
      "inputs": [],
      "name": "keepers",
      "outputs": [
        {
          "internalType": "contract IAddressList",
          "name": "",
          "type": "address"
        }
      ],
      "stateMutability": "view",
      "type": "function"
    },
    {
      "inputs": [
        {
          "internalType": "address",
          "name": "_newStrategy",
          "type": "address"
        }
      ],
      "name": "migrate",
      "outputs": [],
      "stateMutability": "nonpayable",
      "type": "function"
    },
    {
      "inputs": [],
      "name": "pool",
      "outputs": [
        {
          "internalType": "address",
          "name": "",
          "type": "address"
        }
      ],
      "stateMutability": "view",
      "type": "function"
    },
    {
      "inputs": [],
      "name": "rebalance",
      "outputs": [],
      "stateMutability": "nonpayable",
      "type": "function"
    },
    {
      "inputs": [],
      "name": "receiptToken",
      "outputs": [
        {
          "internalType": "address",
          "name": "",
          "type": "address"
        }
      ],
      "stateMutability": "view",
      "type": "function"
    },
    {
      "inputs": [
        {
          "internalType": "address",
          "name": "_keeperAddress",
          "type": "address"
        }
      ],
      "name": "removeKeeper",
      "outputs": [],
      "stateMutability": "nonpayable",
      "type": "function"
    },
    {
      "inputs": [],
      "name": "setCheckpoint",
      "outputs": [],
      "stateMutability": "nonpayable",
      "type": "function"
    },
    {
      "inputs": [],
      "name": "setupOracles",
      "outputs": [],
      "stateMutability": "nonpayable",
      "type": "function"
    },
    {
      "inputs": [],
      "name": "swapManager",
      "outputs": [
        {
          "internalType": "contract ISwapManager",
          "name": "",
          "type": "address"
        }
      ],
      "stateMutability": "view",
      "type": "function"
    },
    {
      "inputs": [],
      "name": "swapSlippage",
      "outputs": [
        {
          "internalType": "uint256",
          "name": "",
          "type": "uint256"
        }
      ],
      "stateMutability": "view",
      "type": "function"
    },
    {
      "inputs": [
        {
          "internalType": "address",
          "name": "_fromToken",
          "type": "address"
        }
      ],
      "name": "sweepERC20",
      "outputs": [],
      "stateMutability": "nonpayable",
      "type": "function"
    },
    {
      "inputs": [],
      "name": "token",
      "outputs": [
        {
          "internalType": "address",
          "name": "",
          "type": "address"
        }
      ],
      "stateMutability": "view",
      "type": "function"
    },
    {
      "inputs": [],
      "name": "totalLp",
      "outputs": [
        {
          "internalType": "uint256",
          "name": "total",
          "type": "uint256"
        }
      ],
      "stateMutability": "view",
      "type": "function"
    },
    {
      "inputs": [],
      "name": "totalValue",
      "outputs": [
        {
          "internalType": "uint256",
          "name": "_value",
          "type": "uint256"
        }
      ],
      "stateMutability": "view",
      "type": "function"
    },
    {
      "inputs": [
        {
          "internalType": "address",
          "name": "_feeCollector",
          "type": "address"
        }
      ],
      "name": "updateFeeCollector",
      "outputs": [],
      "stateMutability": "nonpayable",
      "type": "function"
    },
    {
      "inputs": [
        {
          "internalType": "uint256",
          "name": "_newSwapSlippage",
          "type": "uint256"
        },
        {
          "internalType": "uint256",
          "name": "_newCrvSlippage",
          "type": "uint256"
        }
      ],
      "name": "updateSlippage",
      "outputs": [],
      "stateMutability": "nonpayable",
      "type": "function"
    },
    {
      "inputs": [
        {
          "internalType": "address",
          "name": "_swapManager",
          "type": "address"
        }
      ],
      "name": "updateSwapManager",
      "outputs": [],
      "stateMutability": "nonpayable",
      "type": "function"
    },
    {
      "inputs": [],
      "name": "usdRate",
      "outputs": [
        {
          "internalType": "uint256",
          "name": "",
          "type": "uint256"
        }
      ],
      "stateMutability": "view",
      "type": "function"
    },
    {
      "inputs": [],
      "name": "usdRateTimestamp",
      "outputs": [
        {
          "internalType": "uint256",
          "name": "",
          "type": "uint256"
        }
      ],
      "stateMutability": "view",
      "type": "function"
    },
    {
      "inputs": [
        {
          "internalType": "uint256",
          "name": "_amount",
          "type": "uint256"
        }
      ],
      "name": "withdraw",
      "outputs": [],
      "stateMutability": "nonpayable",
      "type": "function"
    }
  ],
  "transactionHash": "0xfe09a4ba32c5caa247b0562ed573738d292e212cdaa1478b00a4bf96e86c5696",
  "args": [
    "0x0538C8bAc84E95A9dF8aC10Aad17DbE81b9E36ee",
    "0xe382d9f2394A359B01006faa8A1864b8a60d2710"
  ],
  "solcInputHash": "c913a96689eb2d738f3c473cb5b2163b",
  "bytecode": "0x60036101c08181526244414960e81b6101e0526101609081526004610200818152635553444360e01b6102205261018052610280604052610240908152631554d11560e21b610260526101a0526200005b9160009190620007bb565b5060408051606081018252736b175474e89094c44da98b954eedeac495271d0f815273a0b86991c6218b36c1d19d4a2e9eb0ce3606eb48602082015273dac17f958d2ee523a2206206994597c13d831ec791810191909152620000c2906003908162000812565b506040805160608101825260128152600660208201819052918101829052620000ee919060036200086b565b506064601155600a6012553480156200010657600080fd5b5060405162005464380380620054648339810160408190526200012991620009be565b818160008282736c3f90f043a72fa612cbac8115ee7e52bde6e49073bebc44782c7db0a1a60cb6fe97d0b483032ff1c78173bfcf63294ad7105dea65aa58f8ae5be2d9d0952a6200017e565b60405180910390fd5b6001600160a01b038216620001d65760405162461bcd60e51b815260206004820152601860248201527f4352564d67723a20696e76616c6964206c7020746f6b656e0000000000000000604482015260640162000175565b6001600160a01b0381166200022e5760405162461bcd60e51b815260206004820152601560248201527f4352564d67723a20696e76616c69642067617567650000000000000000000000604482015260640162000175565b6001600160601b0319606093841b811660805291831b821660a05290911b1660c0526001600160a01b038316620002a85760405162461bcd60e51b815260206004820152601460248201527f706f6f6c2d616464726573732d69732d7a65726f000000000000000000000000604482015260640162000175565b6001600160a01b038216620002f55760405162461bcd60e51b8152602060048201526012602482015271736d2d616464726573732d69732d7a65726f60701b604482015260640162000175565b600b80546001600160a01b0319166001600160a01b0384811691909117909155606084901b6001600160601b0319166101205260408051637e062a3560e11b815290519185169163fc0c546a91600480820192602092909190829003018186803b1580156200036357600080fd5b505afa15801562000378573d6000803e3d6000fd5b505050506040513d601f19601f820116820180604052508101906200039e919062000998565b6001600160601b0319606091821b811660e05291901b16610100525050600381106200040d5760405162461bcd60e51b815260206004820152601c60248201527f496e76616c696420636f6c6c61746572616c20666f722033506f6f6c00000000604482015260640162000175565b826001600160a01b031663fc0c546a6040518163ffffffff1660e01b815260040160206040518083038186803b1580156200044757600080fd5b505afa1580156200045c573d6000803e3d6000fd5b505050506040513d601f19601f8201168201806040525081019062000482919062000998565b6001600160a01b031660038260038110620004ad57634e487b7160e01b600052603260045260246000fd5b01546001600160a01b031614620005075760405162461bcd60e51b815260206004820152601960248201527f436f6c6c61746572616c20646f6573206e6f74206d6174636800000000000000604482015260640162000175565b600c6020527f9c9b4dd64bedd55eab545df24c51a45b7ee75f381e872264963530ae5325b4658054600160ff19918216811790925573d533a949740bb3306d119cc777fa900ba034cd526000527f81a0871aad47152ce487f66bcde625bb29d1a22b63052928024f6ac66d6b2517805490911690911790556101408190526200058f6200059a565b505050505062000a77565b600b54604051630f30f2d360e21b815273d533a949740bb3306d119cc777fa900ba034cd52600482015273c02aaa39b223fe8d0a0e5c4f27ead9083c756cc26024820152610e10604482015260006064820152600d916001600160a01b031690633cc3cb4c90608401602060405180830381600087803b1580156200061e57600080fd5b505af115801562000633573d6000803e3d6000fd5b505050506040513d601f19601f8201168201806040525081019062000659919062000998565b81546001810183556000928352602083200180546001600160a01b0319166001600160a01b03929092169190911790555b6003811015620007b857600b54600d906001600160a01b0316633cc3cb4c600384818110620006c957634e487b7160e01b600052603260045260246000fd5b015460405160e083901b6001600160e01b03191681526001600160a01b03909116600482015273c02aaa39b223fe8d0a0e5c4f27ead9083c756cc26024820152610e10604482015260006064820152608401602060405180830381600087803b1580156200073657600080fd5b505af11580156200074b573d6000803e3d6000fd5b505050506040513d601f19601f8201168201806040525081019062000771919062000998565b81546001810183556000928352602090922090910180546001600160a01b0319166001600160a01b0390921691909117905580620007af8162000a39565b9150506200068a565b50565b826003810192821562000800579160200282015b82811115620008005782518051620007ef918491602090910190620008a1565b5091602001919060010190620007cf565b506200080e9291506200091e565b5090565b82600381019282156200085d579160200282015b828111156200085d57825182546001600160a01b0319166001600160a01b0390911617825560209092019160019091019062000826565b506200080e9291506200093f565b82600381019282156200085d579160200282015b828111156200085d578251829060ff169055916020019190600101906200087f565b828054620008af90620009fc565b90600052602060002090601f016020900481019282620008d357600085556200085d565b82601f10620008ee57805160ff19168380011785556200085d565b828001600101855582156200085d579182015b828111156200085d57825182559160200191906001019062000901565b808211156200080e57600062000935828262000956565b506001016200091e565b5b808211156200080e576000815560010162000940565b5080546200096490620009fc565b6000825580601f10620009785750620007b8565b601f016020900490600052602060002090810190620007b891906200093f565b600060208284031215620009aa578081fd5b8151620009b78162000a61565b9392505050565b60008060408385031215620009d1578081fd5b8251620009de8162000a61565b6020840151909250620009f18162000a61565b809150509250929050565b600181811c9082168062000a1157607f821691505b6020821081141562000a3357634e487b7160e01b600052602260045260246000fd5b50919050565b600060001982141562000a5a57634e487b7160e01b81526011600452602481fd5b5060010190565b6001600160a01b0381168114620007b857600080fd5b60805160601c60a05160601c60c05160601c60e05160601c6101005160601c6101205160601c6101405161481b62000c49600039600081816103df01528181612dce0152818161313a015261321501526000818161031b01528181610828015281816109b701528181610d8a0152818161104e015281816111ce015281816115c401528181611656015281816116e90152818161177201528181611af001528181611bb901528181611e480152818161242b015281816125950152818161263201526127fb015260008181610692015281816106f501528181611ccd0152611d510152600081816105df01528181611d9b01528181611e1f0152818161203f0152818161216d0152818161235c01528181612409015281816126f6015281816127d90152818161282d01528181612e5e01528181612f1d01528181612f9e01528181612fda0152613b4801526000818161071e01528181610c4701528181610ec50152818161139c01528181611448015281816124eb015281816129e0015281816134c60152818161366b015281816137e00152613d470152600081816104fa01528181610cde01528181610e28015281816129be0152613426015260008181610606015261284f015261481b6000f3fe608060405234801561001057600080fd5b50600436106102d65760003560e01c8063945c914211610182578063ce5494bb116100e9578063f03ae745116100a2578063fc0c546a1161007c578063fc0c546a146106f3578063fd57a4df14610719578063fe406a7d14610740578063ffa1ad7414610749576102d6565b8063f03ae745146106b4578063fb589de2146106cf578063fbf5141c146106e0576102d6565b8063ce5494bb14610643578063d2c35ce814610656578063d4c3eea014610669578063d572fd7f14610671578063e00af4a71461067a578063ec78e8321461068d576102d6565b8063a3f4df7e1161013b578063a3f4df7e14610596578063aa101886146105d2578063b2016bd4146105da578063b20fdc0d14610601578063c415b95c14610628578063c9e525df1461063b576102d6565b8063945c91421461052f57806394cb55951461054a578063951dc22c1461056a57806396dd5a781461057d57806399b71d5c146105865780639ff3df391461058e576102d6565b8063440d72481161024157806374db9ad4116101fa57806379d5279f116101d457806379d5279f146104e55780637d7c2a1c146104ed5780637f44579b146104f55780638c00ca9d1461051c576102d6565b806374db9ad4146104a65780637651b1e6146104c157806379b37a86146104dc576102d6565b8063440d7248146104145780634c36fad714610450578063513ab220146104635780636c003a9b1461047e5780636fe702c014610486578063709d039d14610493576102d6565b80632530901e116102935780632530901e146103795780632e1a7d4d1461038c578063319a444d1461039f578063379173bb146103c757806337d265db146103da5780634032b72b14610401576102d6565b8063058062b3146102db57806314ae9f2e1461030157806316f0115b1461031657806319ab453c146103555780631aedeabe14610368578063242c135d14610371575b600080fd5b6102ee6102e93660046142a6565b61076d565b6040519081526020015b60405180910390f35b61031461030f3660046140fe565b610826565b005b61033d7f000000000000000000000000000000000000000000000000000000000000000081565b6040516001600160a01b0390911681526020016102f8565b6103146103633660046140fe565b6109b5565b6102ee60115481565b6102ee610c2f565b6102ee6103873660046142a6565b610d70565b61031461039a3660046142a6565b610d87565b6103b26103ad3660046142d6565b610e04565b604080519283526020830191909152016102f8565b6102ee6103d53660046142d6565b610f9a565b6102ee7f000000000000000000000000000000000000000000000000000000000000000081565b61031461040f3660046140fe565b61104c565b6104406104223660046140fe565b6001600160a01b03166000908152600c602052604090205460ff1690565b60405190151581526020016102f8565b61031461045e3660046140fe565b6111cc565b61033d73bebc44782c7db0a1a60cb6fe97d0b483032ff1c781565b6102ee61137f565b6010546104409060ff1681565b600b5461033d906001600160a01b031681565b61033d73d061d61a4d941c39e5453435b6345dc261c2fce081565b61033d73bfcf63294ad7105dea65aa58f8ae5be2d9d0952a81565b6102ee600e5481565b6103146114d4565b6103146114de565b61033d7f000000000000000000000000000000000000000000000000000000000000000081565b61031461052a3660046142d6565b611770565b61033d73d533a949740bb3306d119cc777fa900ba034cd5281565b61055d6105583660046142a6565b6118e6565b6040516102f891906143a2565b60095461033d906001600160a01b031681565b6102ee600f5481565b610314611986565b6102ee600081565b61055d6040518060400160405280601881526020017f43757276652d33706f6f6c2d4441492d5374726174656779000000000000000081525081565b610314611a40565b61033d7f000000000000000000000000000000000000000000000000000000000000000081565b61033d7f000000000000000000000000000000000000000000000000000000000000000081565b600a5461033d906001600160a01b031681565b6102ee600381565b6103146106513660046140fe565b611aed565b6103146106643660046140fe565b611e46565b6102ee61200f565b6102ee60125481565b6103146106883660046140fe565b612076565b61033d7f000000000000000000000000000000000000000000000000000000000000000081565b61033d736c3f90f043a72fa612cbac8115ee7e52bde6e49081565b6102ee6106dd3660046142a6565b90565b61033d6106ee3660046142a6565b612324565b7f000000000000000000000000000000000000000000000000000000000000000061033d565b61033d7f000000000000000000000000000000000000000000000000000000000000000081565b6102ee610e1081565b61055d60405180604001604052806005815260200164332e302e3760d81b81525081565b60008161077b57600061081e565b670de0b6b3a76400008273bebc44782c7db0a1a60cb6fe97d0b483032ff1c76001600160a01b031663bb7b8b806040518163ffffffff1660e01b815260040160206040518083038186803b1580156107d257600080fd5b505afa1580156107e6573d6000803e3d6000fd5b505050506040513d601f19601f8201168201806040525081019061080a91906142be565b610814919061461c565b61081e91906144e8565b90505b919050565b7f00000000000000000000000000000000000000000000000000000000000000006001600160a01b0316630c340a246040518163ffffffff1660e01b815260040160206040518083038186803b15801561087f57600080fd5b505afa158015610893573d6000803e3d6000fd5b505050506040513d601f19601f820116820180604052508101906108b7919061411a565b6001600160a01b0316336001600160a01b0316146108f05760405162461bcd60e51b81526004016108e790614405565b60405180910390fd5b600954604051631484968760e11b81526001600160a01b038381166004830152909116906329092d0e90602401602060405180830381600087803b15801561093757600080fd5b505af115801561094b573d6000803e3d6000fd5b505050506040513d601f19601f8201168201806040525081019061096f919061428c565b6109b25760405162461bcd60e51b81526020600482015260146024820152731c995b5bdd994b5ad9595c195c8b59985a5b195960621b60448201526064016108e7565b50565b7f00000000000000000000000000000000000000000000000000000000000000006001600160a01b0316630c340a246040518163ffffffff1660e01b815260040160206040518083038186803b158015610a0e57600080fd5b505afa158015610a22573d6000803e3d6000fd5b505050506040513d601f19601f82011682018060405250810190610a46919061411a565b6001600160a01b0316336001600160a01b031614610a765760405162461bcd60e51b81526004016108e790614405565b6009546001600160a01b031615610acf5760405162461bcd60e51b815260206004820152601b60248201527f6b65657065722d6c6973742d616c72656164792d63726561746564000000000060448201526064016108e7565b6000819050806001600160a01b0316630fab4d256040518163ffffffff1660e01b8152600401602060405180830381600087803b158015610b0f57600080fd5b505af1158015610b23573d6000803e3d6000fd5b505050506040513d601f19601f82011682018060405250810190610b47919061411a565b600980546001600160a01b0319166001600160a01b03929092169182179055630a3b0a4f610b723390565b6040516001600160e01b031960e084901b1681526001600160a01b039091166004820152602401602060405180830381600087803b158015610bb357600080fd5b505af1158015610bc7573d6000803e3d6000fd5b505050506040513d601f19601f82011682018060405250810190610beb919061428c565b610c2b5760405162461bcd60e51b81526020600482015260116024820152701859190b5ad9595c195c8b59985a5b1959607a1b60448201526064016108e7565b5050565b6040516370a0823160e01b81523060048201526000907f00000000000000000000000000000000000000000000000000000000000000006001600160a01b0316906370a082319060240160206040518083038186803b158015610c9157600080fd5b505afa158015610ca5573d6000803e3d6000fd5b505050506040513d601f19601f82011682018060405250810190610cc991906142be565b6040516370a0823160e01b81523060048201527f00000000000000000000000000000000000000000000000000000000000000006001600160a01b0316906370a08231906024015b60206040518083038186803b158015610d2957600080fd5b505afa158015610d3d573d6000803e3d6000fd5b505050506040513d601f19601f82011682018060405250810190610d6191906142be565b610d6b91906144d0565b905090565b60068160038110610d8057600080fd5b0154905081565b337f00000000000000000000000000000000000000000000000000000000000000006001600160a01b031614610dfb5760405162461bcd60e51b815260206004820152601960248201527818d85b1b195c8b5a5ccb5b9bdd0b5d995cdc195c8b5c1bdbdb603a1b60448201526064016108e7565b6109b281612344565b6040516370a0823160e01b8152306004820152600090819081906001600160a01b037f000000000000000000000000000000000000000000000000000000000000000016906370a082319060240160206040518083038186803b158015610e6a57600080fd5b505afa158015610e7e573d6000803e3d6000fd5b505050506040513d601f19601f82011682018060405250810190610ea291906142be565b6040516370a0823160e01b81523060048201529091506000906001600160a01b037f000000000000000000000000000000000000000000000000000000000000000016906370a082319060240160206040518083038186803b158015610f0757600080fd5b505afa158015610f1b573d6000803e3d6000fd5b505050506040513d601f19601f82011682018060405250810190610f3f91906142be565b610f4990836144d0565b9050610f558186610f9a565b610f5f828861461c565b610f6991906144e8565b9350808411610f785783610f7a565b805b935081841115610f9157610f8e828561463b565b92505b50509250929050565b600082610fa8576000611043565b73bebc44782c7db0a1a60cb6fe97d0b483032ff1c763cc2b27d784610fcc85612450565b6040516001600160e01b031960e085901b1681526004810192909252600f0b602482015260440160206040518083038186803b15801561100b57600080fd5b505afa15801561101f573d6000803e3d6000fd5b505050506040513d601f19601f8201168201806040525081019061104391906142be565b90505b92915050565b7f00000000000000000000000000000000000000000000000000000000000000006001600160a01b0316630c340a246040518163ffffffff1660e01b815260040160206040518083038186803b1580156110a557600080fd5b505afa1580156110b9573d6000803e3d6000fd5b505050506040513d601f19601f820116820180604052508101906110dd919061411a565b6001600160a01b0316336001600160a01b03161461110d5760405162461bcd60e51b81526004016108e790614405565b600954604051630a3b0a4f60e01b81526001600160a01b03838116600483015290911690630a3b0a4f90602401602060405180830381600087803b15801561115457600080fd5b505af1158015611168573d6000803e3d6000fd5b505050506040513d601f19601f8201168201806040525081019061118c919061428c565b6109b25760405162461bcd60e51b81526020600482015260116024820152701859190b5ad9595c195c8b59985a5b1959607a1b60448201526064016108e7565b7f00000000000000000000000000000000000000000000000000000000000000006001600160a01b0316630c340a246040518163ffffffff1660e01b815260040160206040518083038186803b15801561122557600080fd5b505afa158015611239573d6000803e3d6000fd5b505050506040513d601f19601f8201168201806040525081019061125d919061411a565b6001600160a01b0316336001600160a01b03161461128d5760405162461bcd60e51b81526004016108e790614405565b6001600160a01b0381166112d85760405162461bcd60e51b8152602060048201526012602482015271736d2d616464726573732d69732d7a65726f60701b60448201526064016108e7565b600b546001600160a01b03828116911614156113235760405162461bcd60e51b815260206004820152600a602482015269736d2d69732d73616d6560b01b60448201526064016108e7565b600b546040516001600160a01b038084169216907f2d19927e7cac08ceb98b38898a4fdff6da6a27295b9a2d62fe250408ebe044e190600090a3600b80546001600160a01b0319166001600160a01b0392909216919091179055565b6040516308b752bb60e41b81523060048201526001600160a01b037f000000000000000000000000000000000000000000000000000000000000000016602482015260009073d061d61a4d941c39e5453435b6345dc261c2fce090638b752bb09060440160206040518083038186803b1580156113fb57600080fd5b505afa15801561140f573d6000803e3d6000fd5b505050506040513d601f19601f8201168201806040525081019061143391906142be565b604051630940070760e01b81523060048201527f00000000000000000000000000000000000000000000000000000000000000006001600160a01b03169063094007079060240160206040518083038186803b15801561149257600080fd5b505afa1580156114a6573d6000803e3d6000fd5b505050506040513d601f19601f820116820180604052508101906114ca91906142be565b610d6b919061463b565b6114dc6124d6565b565b6009546001600160a01b0316635dbe47e8336040516001600160e01b031960e084901b1681526001600160a01b03909116600482015260240160206040518083038186803b15801561152f57600080fd5b505afa158015611543573d6000803e3d6000fd5b505050506040513d601f19601f82011682018060405250810190611567919061428c565b6115835760405162461bcd60e51b81526004016108e7906143d5565b600080600061159061256f565b6040516302df682360e11b815260048101849052602481018390526044810182905292955090935091506001600160a01b037f000000000000000000000000000000000000000000000000000000000000000016906305bed04690606401600060405180830381600087803b15801561160857600080fd5b505af115801561161c573d6000803e3d6000fd5b505050506116286126d4565b60105460ff1661176b57604051639f2b283360e01b81523060048201526000906116d5906001600160a01b037f00000000000000000000000000000000000000000000000000000000000000001690639f2b28339060240160206040518083038186803b15801561169857600080fd5b505afa1580156116ac573d6000803e3d6000fd5b505050506040513d601f19601f820116820180604052508101906116d091906142be565b61279b565b905082811115611769576001600160a01b037f00000000000000000000000000000000000000000000000000000000000000001663ddd6d260611718858461463b565b6040518263ffffffff1660e01b815260040161173691815260200190565b600060405180830381600087803b15801561175057600080fd5b505af1158015611764573d6000803e3d6000fd5b505050505b505b505050565b7f00000000000000000000000000000000000000000000000000000000000000006001600160a01b0316630c340a246040518163ffffffff1660e01b815260040160206040518083038186803b1580156117c957600080fd5b505afa1580156117dd573d6000803e3d6000fd5b505050506040513d601f19601f82011682018060405250810190611801919061411a565b6001600160a01b0316336001600160a01b0316146118315760405162461bcd60e51b81526004016108e790614405565b61271082108015611843575061271081105b6118885760405162461bcd60e51b8152602060048201526016602482015275696e76616c69642d736c6970706167652d76616c756560501b60448201526064016108e7565b6011546012546040805192835260208301859052820152606081018290527f6aac706e3129ee8f40e8905801ff2ac76769953315c8d51a96265015848b937d9060800160405180910390a1601182905560125461176b90829061463b565b600081600381106118f657600080fd5b0180549091506119059061467e565b80601f01602080910402602001604051908101604052809291908181526020018280546119319061467e565b801561197e5780601f106119535761010080835404028352916020019161197e565b820191906000526020600020905b81548152906001019060200180831161196157829003601f168201915b505050505081565b6009546001600160a01b0316635dbe47e8336040516001600160e01b031960e084901b1681526001600160a01b03909116600482015260240160206040518083038186803b1580156119d757600080fd5b505afa1580156119eb573d6000803e3d6000fd5b505050506040513d601f19601f82011682018060405250810190611a0f919061428c565b611a2b5760405162461bcd60e51b81526004016108e7906143d5565b611a3560006127cc565b6114dc6000196127cc565b6009546001600160a01b0316635dbe47e8336040516001600160e01b031960e084901b1681526001600160a01b03909116600482015260240160206040518083038186803b158015611a9157600080fd5b505afa158015611aa5573d6000803e3d6000fd5b505050506040513d601f19601f82011682018060405250810190611ac9919061428c565b611ae55760405162461bcd60e51b81526004016108e7906143d5565b6114dc612a05565b337f00000000000000000000000000000000000000000000000000000000000000006001600160a01b031614611b615760405162461bcd60e51b815260206004820152601960248201527818d85b1b195c8b5a5ccb5b9bdd0b5d995cdc195c8b5c1bdbdb603a1b60448201526064016108e7565b6001600160a01b038116611bb75760405162461bcd60e51b815260206004820152601c60248201527f6e65772d73747261746567792d616464726573732d69732d7a65726f0000000060448201526064016108e7565b7f00000000000000000000000000000000000000000000000000000000000000006001600160a01b0316816001600160a01b03166316f0115b6040518163ffffffff1660e01b815260040160206040518083038186803b158015611c1a57600080fd5b505afa158015611c2e573d6000803e3d6000fd5b505050506040513d601f19601f82011682018060405250810190611c52919061411a565b6001600160a01b031614611ca15760405162461bcd60e51b81526020600482015260166024820152756e6f742d76616c69642d6e65772d737472617465677960501b60448201526064016108e7565b611caa81612c16565b6040516370a0823160e01b8152306004820152611d789082906001600160a01b037f000000000000000000000000000000000000000000000000000000000000000016906370a082319060240160206040518083038186803b158015611d0f57600080fd5b505afa158015611d23573d6000803e3d6000fd5b505050506040513d601f19601f82011682018060405250810190611d4791906142be565b6001600160a01b037f0000000000000000000000000000000000000000000000000000000000000000169190612c1e565b6040516370a0823160e01b81523060048201526109b29082906001600160a01b037f000000000000000000000000000000000000000000000000000000000000000016906370a082319060240160206040518083038186803b158015611ddd57600080fd5b505afa158015611df1573d6000803e3d6000fd5b505050506040513d601f19601f82011682018060405250810190611e1591906142be565b6001600160a01b037f0000000000000000000000000000000000000000000000000000000000000000169190612c1e565b7f00000000000000000000000000000000000000000000000000000000000000006001600160a01b0316630c340a246040518163ffffffff1660e01b815260040160206040518083038186803b158015611e9f57600080fd5b505afa158015611eb3573d6000803e3d6000fd5b505050506040513d601f19601f82011682018060405250810190611ed7919061411a565b6001600160a01b0316336001600160a01b031614611f075760405162461bcd60e51b81526004016108e790614405565b6001600160a01b038116611f5d5760405162461bcd60e51b815260206004820152601d60248201527f6665652d636f6c6c6563746f722d616464726573732d69732d7a65726f00000060448201526064016108e7565b600a546001600160a01b0382811691161415611fb35760405162461bcd60e51b81526020600482015260156024820152746665652d636f6c6c6563746f722d69732d73616d6560581b60448201526064016108e7565b600a546040516001600160a01b038084169216907f0f06062680f9bd68e786e9980d9bb03d73d5620fc3b345e417b6eacb310b970690600090a3600a80546001600160a01b0319166001600160a01b0392909216919091179055565b600061202a6106dd6120226102e9610c2f565b601254612c81565b6040516370a0823160e01b81523060048201527f00000000000000000000000000000000000000000000000000000000000000006001600160a01b0316906370a0823190602401610d11565b6009546001600160a01b0316635dbe47e8336040516001600160e01b031960e084901b1681526001600160a01b03909116600482015260240160206040518083038186803b1580156120c757600080fd5b505afa1580156120db573d6000803e3d6000fd5b505050506040513d601f19601f820116820180604052508101906120ff919061428c565b61211b5760405162461bcd60e51b81526004016108e7906143d5565b600a546001600160a01b031661216b5760405162461bcd60e51b81526020600482015260156024820152741999594b58dbdb1b1958dd1bdc8b5b9bdd0b5cd95d605a1b60448201526064016108e7565b7f00000000000000000000000000000000000000000000000000000000000000006001600160a01b0316816001600160a01b031614156121ed5760405162461bcd60e51b815260206004820152601f60248201527f6e6f742d616c6c6f7765642d746f2d73776565702d636f6c6c61746572616c0060448201526064016108e7565b6001600160a01b0381166000908152600c602052604090205460ff161561224d5760405162461bcd60e51b815260206004820152601460248201527306e6f742d616c6c6f7765642d746f2d73776565760641b60448201526064016108e7565b6001600160a01b03811673eeeeeeeeeeeeeeeeeeeeeeeeeeeeeeeeeeeeeeee141561228d57600a54612288906001600160a01b031647612ca4565b6109b2565b6040516370a0823160e01b81523060048201526000906001600160a01b038316906370a082319060240160206040518083038186803b1580156122cf57600080fd5b505afa1580156122e3573d6000803e3d6000fd5b505050506040513d601f19601f8201168201806040525081019061230791906142be565b600a54909150610c2b906001600160a01b03848116911683612c1e565b6003816003811061233457600080fd5b01546001600160a01b0316905081565b6040516370a0823160e01b81523060048201526000907f00000000000000000000000000000000000000000000000000000000000000006001600160a01b0316906370a082319060240160206040518083038186803b1580156123a657600080fd5b505afa1580156123ba573d6000803e3d6000fd5b505050506040513d601f19601f820116820180604052508101906123de91906142be565b9050808211156123fc576123fa6123f5828461463b565b612dbd565b505b610c2b6001600160a01b037f0000000000000000000000000000000000000000000000000000000000000000167f000000000000000000000000000000000000000000000000000000000000000084612c1e565b60006f7fffffffffffffffffffffffffffffff19821215801561247657506001607f1b82125b6124d25760405162461bcd60e51b815260206004820152602760248201527f53616665436173743a2076616c756520646f65736e27742066697420696e20316044820152663238206269747360c81b60648201526084016108e7565b5090565b604051634b82009360e01b81523060048201527f00000000000000000000000000000000000000000000000000000000000000006001600160a01b031690634b82009390602401602060405180830381600087803b15801561253757600080fd5b505af115801561254b573d6000803e3d6000fd5b505050506040513d601f19601f820116820180604052508101906109b2919061428c565b604051636a9eee1360e11b81523060048201526000908190819081906001600160a01b037f0000000000000000000000000000000000000000000000000000000000000000169063d53ddc269060240160206040518083038186803b1580156125d757600080fd5b505afa1580156125eb573d6000803e3d6000fd5b505050506040513d601f19601f8201168201806040525081019061260f91906142be565b604051639f2b283360e01b81523060048201529091506000906001600160a01b037f00000000000000000000000000000000000000000000000000000000000000001690639f2b28339060240160206040518083038186803b15801561267457600080fd5b505afa158015612688573d6000803e3d6000fd5b505050506040513d601f19601f820116820180604052508101906126ac91906142be565b905060006126b982612ef7565b919750955090506126ca8382613106565b9350505050909192565b6010805460ff191690556040516370a0823160e01b81523060048201526000907f00000000000000000000000000000000000000000000000000000000000000006001600160a01b0316906370a082319060240160206040518083038186803b15801561274057600080fd5b505afa158015612754573d6000803e3d6000fd5b505050506040513d601f19601f8201168201806040525081019061277891906142be565b905061278381613126565b6010805460ff191691159190911790556109b261340e565b6000806127af6106dd6120226102e9610c2f565b9050828110156127c6576127c3818461463b565b91505b50919050565b6128206001600160a01b037f0000000000000000000000000000000000000000000000000000000000000000167f00000000000000000000000000000000000000000000000000000000000000008361352e565b6128746001600160a01b037f0000000000000000000000000000000000000000000000000000000000000000167f00000000000000000000000000000000000000000000000000000000000000008361352e565b60005b600b60009054906101000a90046001600160a01b03166001600160a01b031663c2fba6676040518163ffffffff1660e01b815260040160206040518083038186803b1580156128c557600080fd5b505afa1580156128d9573d6000803e3d6000fd5b505050506040513d601f19601f820116820180604052508101906128fd91906142be565b8110156129b057600b54604051636e74a6f760e01b81526004810183905261299e916001600160a01b031690636e74a6f79060240160206040518083038186803b15801561294a57600080fd5b505afa15801561295e573d6000803e3d6000fd5b505050506040513d601f19601f82011682018060405250810190612982919061411a565b73d533a949740bb3306d119cc777fa900ba034cd52908461352e565b806129a8816146e0565b915050612877565b506109b26001600160a01b037f0000000000000000000000000000000000000000000000000000000000000000167f00000000000000000000000000000000000000000000000000000000000000008361352e565b600b54604051630f30f2d360e21b815273d533a949740bb3306d119cc777fa900ba034cd52600482015273c02aaa39b223fe8d0a0e5c4f27ead9083c756cc26024820152610e10604482015260006064820152600d916001600160a01b031690633cc3cb4c90608401602060405180830381600087803b158015612a8857600080fd5b505af1158015612a9c573d6000803e3d6000fd5b505050506040513d601f19601f82011682018060405250810190612ac0919061411a565b81546001810183556000928352602083200180546001600160a01b0319166001600160a01b03929092169190911790555b60038110156109b257600b54600d906001600160a01b0316633cc3cb4c600384818110612b2e57634e487b7160e01b600052603260045260246000fd5b015460405160e083901b6001600160e01b03191681526001600160a01b03909116600482015273c02aaa39b223fe8d0a0e5c4f27ead9083c756cc26024820152610e10604482015260006064820152608401602060405180830381600087803b158015612b9a57600080fd5b505af1158015612bae573d6000803e3d6000fd5b505050506040513d601f19601f82011682018060405250810190612bd2919061411a565b81546001810183556000928352602090922090910180546001600160a01b0319166001600160a01b0390921691909117905580612c0e816146e0565b915050612af1565b6109b2613652565b6040516001600160a01b03831660248201526044810182905261176b90849063a9059cbb60e01b906064015b60408051601f198184030181529190526020810180516001600160e01b03166001600160e01b0319909316929092179091526136f2565b6000612710612c90838261463b565b612c9a908561461c565b61104391906144e8565b80471015612cf45760405162461bcd60e51b815260206004820152601d60248201527f416464726573733a20696e73756666696369656e742062616c616e636500000060448201526064016108e7565b6000826001600160a01b03168260405160006040518083038185875af1925050503d8060008114612d41576040519150601f19603f3d011682016040523d82523d6000602084013e612d46565b606091505b505090508061176b5760405162461bcd60e51b815260206004820152603a60248201527f416464726573733a20756e61626c6520746f2073656e642076616c75652c207260448201527f6563697069656e74206d6179206861766520726576657274656400000000000060648201526084016108e7565b600081612dcc57506000610821565b7f0000000000000000000000000000000000000000000000000000000000000000600080612dfa8584610e04565b91509150612e07816137c4565b6000612e3c670de0b6b3a7640000612e28612022612e23613817565b61397a565b612e32908661461c565b6106dd91906144e8565b9050612e498382866139d3565b6040516370a0823160e01b81523060048201527f00000000000000000000000000000000000000000000000000000000000000006001600160a01b0316906370a082319060240160206040518083038186803b158015612ea857600080fd5b505afa158015612ebc573d6000803e3d6000fd5b505050506040513d601f19601f82011682018060405250810190612ee091906142be565b945085851115612eee578594505b50505050919050565b6040516370a0823160e01b81523060048201526000908190819081906001600160a01b037f000000000000000000000000000000000000000000000000000000000000000016906370a082319060240160206040518083038186803b158015612f5f57600080fd5b505afa158015612f73573d6000803e3d6000fd5b505050506040513d601f19601f82011682018060405250810190612f9791906142be565b9050612fc27f0000000000000000000000000000000000000000000000000000000000000000613a5c565b6040516370a0823160e01b81523060048201526000907f00000000000000000000000000000000000000000000000000000000000000006001600160a01b0316906370a082319060240160206040518083038186803b15801561302457600080fd5b505afa158015613038573d6000803e3d6000fd5b505050506040513d601f19601f8201168201806040525081019061305c91906142be565b9050613068828261463b565b9450600061307d6106dd6120226102e9610c2f565b61308790846144d0565b9050868111156130ac5761309b878261463b565b6130a590876144d0565b95506130b9565b6130b6818861463b565b94505b848611156130eb576130cb858761463b565b955060009450818611156130e6576130e3828761463b565b93505b6130fc565b6130f5868661463b565b9450600095505b5050509193909250565b60006131156123f583856144d0565b905082811115611046575090919050565b60008115613406576131366140d0565b82817f00000000000000000000000000000000000000000000000000000000000000006003811061317757634e487b7160e01b600052603260045260246000fd5b6020020152604051633883e11960e01b815260009061320d9073bebc44782c7db0a1a60cb6fe97d0b483032ff1c790633883e119906131bd90869060019060040161436a565b60206040518083038186803b1580156131d557600080fd5b505afa1580156131e9573d6000803e3d6000fd5b505050506040513d601f19601f8201168201806040525081019061202291906142be565b9050600060067f00000000000000000000000000000000000000000000000000000000000000006003811061325257634e487b7160e01b600052603260045260246000fd5b015461325f90601261463b565b61326a90600a61454e565b73bebc44782c7db0a1a60cb6fe97d0b483032ff1c76001600160a01b031663bb7b8b806040518163ffffffff1660e01b815260040160206040518083038186803b1580156132b757600080fd5b505afa1580156132cb573d6000803e3d6000fd5b505050506040513d601f19601f820116820180604052508101906132ef91906142be565b6132f7613817565b613301908861461c565b61330b91906144e8565b613315919061461c565b9050808211156133225750805b604051634515cef360e01b815273bebc44782c7db0a1a60cb6fe97d0b483032ff1c790634515cef39061335b9086908590600401614387565b600060405180830381600087803b15801561337557600080fd5b505af1925050508015613386575060015b61340257613392614727565b806308c379a014156133f657506133a761473e565b806133b257506133f8565b7f63299ad14374170063e6f2e5559417926f3a23da67eefa83fc2e9bf9f21e915c816040516133e191906143a2565b60405180910390a16000945050505050610821565b505b3d6000803e3d6000fd5b5050505b506001919050565b6040516370a0823160e01b81523060048201526000907f00000000000000000000000000000000000000000000000000000000000000006001600160a01b0316906370a082319060240160206040518083038186803b15801561347057600080fd5b505afa158015613484573d6000803e3d6000fd5b505050506040513d601f19601f820116820180604052508101906134a891906142be565b905080156109b25760405163b6b55f2560e01b8152600481018290527f00000000000000000000000000000000000000000000000000000000000000006001600160a01b03169063b6b55f25906024015b600060405180830381600087803b15801561351357600080fd5b505af1158015613527573d6000803e3d6000fd5b5050505050565b8015806135b75750604051636eb1769f60e11b81523060048201526001600160a01b03838116602483015284169063dd62ed3e9060440160206040518083038186803b15801561357d57600080fd5b505afa158015613591573d6000803e3d6000fd5b505050506040513d601f19601f820116820180604052508101906135b591906142be565b155b6136225760405162461bcd60e51b815260206004820152603660248201527f5361666545524332303a20617070726f76652066726f6d206e6f6e2d7a65726f60448201527520746f206e6f6e2d7a65726f20616c6c6f77616e636560501b60648201526084016108e7565b6040516001600160a01b03831660248201526044810182905261176b90849063095ea7b360e01b90606401612c4a565b6040516370a0823160e01b81523060048201526114dc907f00000000000000000000000000000000000000000000000000000000000000006001600160a01b0316906370a082319060240160206040518083038186803b1580156136b557600080fd5b505afa1580156136c9573d6000803e3d6000fd5b505050506040513d601f19601f820116820180604052508101906136ed91906142be565b6137c4565b6000613747826040518060400160405280602081526020017f5361666545524332303a206c6f772d6c6576656c2063616c6c206661696c6564815250856001600160a01b0316613c319092919063ffffffff16565b80519091501561176b5780806020019051810190613765919061428c565b61176b5760405162461bcd60e51b815260206004820152602a60248201527f5361666545524332303a204552433230206f7065726174696f6e20646964206e6044820152691bdd081cdd58d8d9595960b21b60648201526084016108e7565b80156109b257604051632e1a7d4d60e01b8152600481018290527f00000000000000000000000000000000000000000000000000000000000000006001600160a01b031690632e1a7d4d906024016134f9565b6000613825610e104261463b565b600f541180156138365750600e5415155b156138445750600e546106dd565b60008060005b600381101561390d576000806138cd6003846003811061387a57634e487b7160e01b600052603260045260246000fd5b01546001600160a01b031673c02aaa39b223fe8d0a0e5c4f27ead9083c756cc2600686600381106138bb57634e487b7160e01b600052603260045260246000fd5b01546138c890600a61454e565b613c4a565b9150915080156138f8578415806138e357508482105b156138ec578194505b818410156138f8578193505b50508080613905906146e0565b91505061384a565b508161394d5760405162461bcd60e51b815260206004820152600f60248201526e6e6f2d6f7261636c652d726174657360881b60448201526064016108e7565b42600f558061396483670de0b6b3a764000061461c565b61396e91906144e8565b600e8190559250505090565b6000670de0b6b3a76400008273bebc44782c7db0a1a60cb6fe97d0b483032ff1c76001600160a01b031663bb7b8b806040518163ffffffff1660e01b815260040160206040518083038186803b1580156107d257600080fd5b73bebc44782c7db0a1a60cb6fe97d0b483032ff1c7631a4d01d2846139f784612450565b6040516001600160e01b031960e085901b1681526004810192909252600f0b602482015260448101859052606401600060405180830381600087803b158015613a3f57600080fd5b505af1158015613a53573d6000803e3d6000fd5b50505050505050565b613a64613d30565b6040516370a0823160e01b815230600482015260009073d533a949740bb3306d119cc777fa900ba034cd52906370a082319060240160206040518083038186803b158015613ab157600080fd5b505afa158015613ac5573d6000803e3d6000fd5b505050506040513d601f19601f82011682018060405250810190613ae991906142be565b90508015610c2b57600080613b2773d533a949740bb3306d119cc777fa900ba034cd5273c02aaa39b223fe8d0a0e5c4f27ead9083c756cc285613c4a565b91509150600080613b6d73c02aaa39b223fe8d0a0e5c4f27ead9083c756cc27f000000000000000000000000000000000000000000000000000000000000000086613c4a565b9150915082613bb15760405162461bcd60e51b815260206004820152601060248201526f7374616c652d6372762d6f7261636c6560801b60448201526064016108e7565b80613bfe5760405162461bcd60e51b815260206004820152601760248201527f7374616c652d636f6c6c61746572616c2d6f7261636c6500000000000000000060448201526064016108e7565b613c2973d533a949740bb3306d119cc777fa900ba034cd528787613c2486601154612c81565b613db9565b505050505050565b6060613c408484600085613f6f565b90505b9392505050565b600b5460405163b67bb24d60e01b81526001600160a01b038581166004830152848116602483015260448201849052610e10606483015260006084830181905292839283928392169063b67bb24d9060a401606060405180830381600087803b158015613cb657600080fd5b505af1158015613cca573d6000803e3d6000fd5b505050506040513d601f19601f82011682018060405250810190613cee91906142f7565b509092509050613d00610e104261463b565b81118015613d0d57508115155b15613d1e5750915060019050613d28565b6000809350935050505b935093915050565b6040516335313c2160e11b81526001600160a01b037f000000000000000000000000000000000000000000000000000000000000000016600482015273d061d61a4d941c39e5453435b6345dc261c2fce090636a62784290602401600060405180830381600087803b158015613da557600080fd5b505af1158015611769573d6000803e3d6000fd5b600b54604051631d1f307960e31b81526001600160a01b038681166004830152858116602483015260448201859052600092839283929091169063e8f983c89060640160006040518083038186803b158015613e1457600080fd5b505afa158015613e28573d6000803e3d6000fd5b505050506040513d6000823e601f3d908101601f19168201604052613e509190810190614136565b9250925092508360001415613e6457600193505b8115613a5357600b54604051636e74a6f760e01b8152600481018390526001600160a01b0390911690636e74a6f79060240160206040518083038186803b158015613eae57600080fd5b505afa158015613ec2573d6000803e3d6000fd5b505050506040513d601f19601f82011682018060405250810190613ee6919061411a565b6001600160a01b03166338ed173986868630426040518663ffffffff1660e01b8152600401613f1995949392919061443c565b600060405180830381600087803b158015613f3357600080fd5b505af1158015613f47573d6000803e3d6000fd5b505050506040513d6000823e601f3d908101601f1916820160405261176491908101906141ef565b606082471015613fd05760405162461bcd60e51b815260206004820152602660248201527f416464726573733a20696e73756666696369656e742062616c616e636520666f6044820152651c8818d85b1b60d21b60648201526084016108e7565b843b61401e5760405162461bcd60e51b815260206004820152601d60248201527f416464726573733a2063616c6c20746f206e6f6e2d636f6e747261637400000060448201526064016108e7565b600080866001600160a01b0316858760405161403a919061434e565b60006040518083038185875af1925050503d8060008114614077576040519150601f19603f3d011682016040523d82523d6000602084013e61407c565b606091505b509150915061408c828286614097565b979650505050505050565b606083156140a6575081613c43565b8251156140b65782518084602001fd5b8160405162461bcd60e51b81526004016108e791906143a2565b60405180606001604052806003906020820280368337509192915050565b8051801515811461082157600080fd5b60006020828403121561410f578081fd5b8135613c43816147d0565b60006020828403121561412b578081fd5b8151613c43816147d0565b60008060006060848603121561414a578182fd5b835167ffffffffffffffff811115614160578283fd5b8401601f81018613614170578283fd5b8051602061417d826144ac565b60405161418a82826146b3565b8381528281019150848301600585901b860184018b10156141a9578788fd5b8795505b848610156141d45780516141c0816147d0565b8352600195909501949183019183016141ad565b50918801516040909801519199979850909695505050505050565b60006020808385031215614201578182fd5b825167ffffffffffffffff811115614217578283fd5b8301601f81018513614227578283fd5b8051614232816144ac565b60405161423f82826146b3565b8281528481019150838501600584901b8501860189101561425e578687fd5b8694505b83851015614280578051835260019490940193918501918501614262565b50979650505050505050565b60006020828403121561429d578081fd5b611043826140ee565b6000602082840312156142b7578081fd5b5035919050565b6000602082840312156142cf578081fd5b5051919050565b600080604083850312156142e8578182fd5b50508035926020909101359150565b60008060006060848603121561430b578283fd5b8351925060208401519150614322604085016140ee565b90509250925092565b8060005b600381101561176957815184526020938401939091019060010161432f565b60008251614360818460208701614652565b9190910192915050565b60808101614378828561432b565b82151560608301529392505050565b60808101614395828561432b565b8260608301529392505050565b60006020825282518060208401526143c1816040850160208701614652565b601f01601f19169190910160400192915050565b60208082526016908201527531b0b63632b916b4b996b737ba16b096b5b2b2b832b960511b604082015260600190565b6020808252601a908201527f63616c6c65722d69732d6e6f742d7468652d676f7665726e6f72000000000000604082015260600190565b600060a082018783526020878185015260a0604085015281875180845260c0860191508289019350845b8181101561448b5784516001600160a01b031683529383019391830191600101614466565b50506001600160a01b03969096166060850152505050608001529392505050565b600067ffffffffffffffff8211156144c6576144c6614711565b5060051b60200190565b600082198211156144e3576144e36146fb565b500190565b60008261450357634e487b7160e01b81526012600452602481fd5b500490565b80825b600180861161451a5750614545565b81870482111561452c5761452c6146fb565b8086161561453957918102915b9490941c93800261450b565b94509492505050565b6000611043600019848460008261456757506001613c43565b8161457457506000613c43565b816001811461458a5760028114614594576145c1565b6001915050613c43565b60ff8411156145a5576145a56146fb565b6001841b9150848211156145bb576145bb6146fb565b50613c43565b5060208310610133831016604e8410600b84101617156145f4575081810a838111156145ef576145ef6146fb565b613c43565b6146018484846001614508565b808604821115614613576146136146fb565b02949350505050565b6000816000190483118215151615614636576146366146fb565b500290565b60008282101561464d5761464d6146fb565b500390565b60005b8381101561466d578181015183820152602001614655565b838111156117695750506000910152565b600181811c9082168061469257607f821691505b602082108114156127c657634e487b7160e01b600052602260045260246000fd5b601f8201601f1916810167ffffffffffffffff811182821017156146d9576146d9614711565b6040525050565b60006000198214156146f4576146f46146fb565b5060010190565b634e487b7160e01b600052601160045260246000fd5b634e487b7160e01b600052604160045260246000fd5b600060033d11156106dd57600481823e5160e01c90565b600060443d101561474e576106dd565b6040516003193d81016004833e81513d67ffffffffffffffff81602484011181841117156147805750505050506106dd565b828501915081518181111561479a575050505050506106dd565b843d87010160208285010111156147b6575050505050506106dd565b6147c5602082860101876146b3565b509094505050505090565b6001600160a01b03811681146109b257600080fdfea264697066735822122049a75bb063d46f03bf1c023d85fdb336f84a62034802e3f733cd776c8cee540364736f6c63430008030033",
  "devdoc": {
    "kind": "dev",
    "methods": {
      "addKeeper(address)": {
        "params": {
          "_keeperAddress": "keeper address to add."
        }
      },
      "approveToken()": {
        "details": "Approve all required tokens"
      },
      "convertFrom18(uint256)": {
        "details": "Convert from 18 decimals to token defined decimals. Default no conversion."
      },
      "init(address)": {
        "params": {
          "_addressListFactory": "To support same code in eth side chain, user _addressListFactory as param ethereum- 0xded8217De022706A191eE7Ee0Dc9df1185Fb5dA3 polygon-0xD10D5696A350D65A9AA15FE8B258caB4ab1bF291"
        }
      },
      "isReservedToken(address)": {
        "details": "Check whether given token is reserved or not. Reserved tokens are not allowed to sweep."
      },
      "migrate(address)": {
        "details": "_beforeMigration hook can be implemented in child strategy to do extra steps.",
        "params": {
          "_newStrategy": "Address of new strategy"
        }
      },
      "rebalance()": {
        "details": "Rebalance profit, loss and investment of this strategy"
      },
      "removeKeeper(address)": {
        "params": {
          "_keeperAddress": "keeper address to remove."
        }
      },
      "sweepERC20(address)": {
        "details": "sweep given token to feeCollector of strategy",
        "params": {
          "_fromToken": "token address to sweep"
        }
      },
      "totalValue()": {
        "details": "Report total value in collateral token"
      },
      "updateFeeCollector(address)": {
        "params": {
          "_feeCollector": "fee collector address"
        }
      },
      "updateSwapManager(address)": {
        "params": {
          "_swapManager": "swap manager address"
        }
      },
      "withdraw(uint256)": {
        "details": "Withdraw collateral token from lending pool.",
        "params": {
          "_amount": "Amount of collateral token"
        }
      }
    },
    "version": 1
  },
  "userdoc": {
    "kind": "user",
    "methods": {
      "addKeeper(address)": {
        "notice": "Add given address in keepers list."
      },
      "init(address)": {
        "notice": "Create keeper list NOTE: Any function with onlyKeeper modifier will not work until this function is called. NOTE: Due to gas constraint this function cannot be called in constructor."
      },
      "migrate(address)": {
        "notice": "Migrate all asset and vault ownership,if any, to new strategy"
      },
      "removeKeeper(address)": {
        "notice": "Remove given address from keepers list."
      },
      "token()": {
        "notice": "Returns address of token correspond to collateral token"
      },
      "totalValue()": {
        "notice": "Calculate total value of asset under management"
      },
      "updateFeeCollector(address)": {
        "notice": "Update fee collector"
      },
      "updateSwapManager(address)": {
        "notice": "Update swap manager address"
      }
    },
    "version": 1
  },
  "storageLayout": {
    "storage": [
      {
        "astId": 14467,
        "contract": "contracts/strategies/curve/Crv3PoolStrategyDAI.sol:Crv3PoolStrategyDAI",
        "label": "COINS",
        "offset": 0,
        "slot": "0",
        "type": "t_array(t_string_storage)3_storage"
      },
      {
        "astId": 14475,
        "contract": "contracts/strategies/curve/Crv3PoolStrategyDAI.sol:Crv3PoolStrategyDAI",
        "label": "COIN_ADDRS",
        "offset": 0,
        "slot": "3",
        "type": "t_array(t_address)3_storage"
      },
      {
        "astId": 14483,
        "contract": "contracts/strategies/curve/Crv3PoolStrategyDAI.sol:Crv3PoolStrategyDAI",
        "label": "DECIMALS",
        "offset": 0,
        "slot": "6",
        "type": "t_array(t_uint256)3_storage"
      },
      {
        "astId": 9577,
        "contract": "contracts/strategies/curve/Crv3PoolStrategyDAI.sol:Crv3PoolStrategyDAI",
        "label": "keepers",
        "offset": 0,
        "slot": "9",
        "type": "t_contract(IAddressList)3647"
      },
      {
        "astId": 9580,
        "contract": "contracts/strategies/curve/Crv3PoolStrategyDAI.sol:Crv3PoolStrategyDAI",
        "label": "feeCollector",
        "offset": 0,
        "slot": "10",
        "type": "t_address"
      },
      {
        "astId": 9583,
        "contract": "contracts/strategies/curve/Crv3PoolStrategyDAI.sol:Crv3PoolStrategyDAI",
        "label": "swapManager",
        "offset": 0,
        "slot": "11",
        "type": "t_contract(ISwapManager)3950"
      },
      {
        "astId": 14724,
        "contract": "contracts/strategies/curve/Crv3PoolStrategyDAI.sol:Crv3PoolStrategyDAI",
        "label": "reservedToken",
        "offset": 0,
        "slot": "12",
        "type": "t_mapping(t_address,t_bool)"
      },
      {
        "astId": 14727,
        "contract": "contracts/strategies/curve/Crv3PoolStrategyDAI.sol:Crv3PoolStrategyDAI",
        "label": "oracles",
        "offset": 0,
        "slot": "13",
        "type": "t_array(t_address)dyn_storage"
      },
      {
        "astId": 14737,
        "contract": "contracts/strategies/curve/Crv3PoolStrategyDAI.sol:Crv3PoolStrategyDAI",
        "label": "usdRate",
        "offset": 0,
        "slot": "14",
        "type": "t_uint256"
      },
      {
        "astId": 14739,
        "contract": "contracts/strategies/curve/Crv3PoolStrategyDAI.sol:Crv3PoolStrategyDAI",
        "label": "usdRateTimestamp",
        "offset": 0,
        "slot": "15",
        "type": "t_uint256"
      },
      {
        "astId": 14741,
        "contract": "contracts/strategies/curve/Crv3PoolStrategyDAI.sol:Crv3PoolStrategyDAI",
        "label": "depositError",
        "offset": 0,
        "slot": "16",
        "type": "t_bool"
      },
      {
        "astId": 14744,
        "contract": "contracts/strategies/curve/Crv3PoolStrategyDAI.sol:Crv3PoolStrategyDAI",
        "label": "swapSlippage",
        "offset": 0,
        "slot": "17",
        "type": "t_uint256"
      },
      {
        "astId": 14747,
        "contract": "contracts/strategies/curve/Crv3PoolStrategyDAI.sol:Crv3PoolStrategyDAI",
        "label": "crvSlippage",
        "offset": 0,
        "slot": "18",
        "type": "t_uint256"
      }
    ],
    "types": {
      "t_address": {
        "encoding": "inplace",
        "label": "address",
        "numberOfBytes": "20"
      },
      "t_array(t_address)3_storage": {
        "base": "t_address",
        "encoding": "inplace",
        "label": "address[3]",
        "numberOfBytes": "96"
      },
      "t_array(t_address)dyn_storage": {
        "base": "t_address",
        "encoding": "dynamic_array",
        "label": "address[]",
        "numberOfBytes": "32"
      },
      "t_array(t_string_storage)3_storage": {
        "base": "t_string_storage",
        "encoding": "inplace",
        "label": "string[3]",
        "numberOfBytes": "96"
      },
      "t_array(t_uint256)3_storage": {
        "base": "t_uint256",
        "encoding": "inplace",
        "label": "uint256[3]",
        "numberOfBytes": "96"
      },
      "t_bool": {
        "encoding": "inplace",
        "label": "bool",
        "numberOfBytes": "1"
      },
      "t_contract(IAddressList)3647": {
        "encoding": "inplace",
        "label": "contract IAddressList",
        "numberOfBytes": "20"
      },
      "t_contract(ISwapManager)3950": {
        "encoding": "inplace",
        "label": "contract ISwapManager",
        "numberOfBytes": "20"
      },
      "t_mapping(t_address,t_bool)": {
        "encoding": "mapping",
        "key": "t_address",
        "label": "mapping(address => bool)",
        "numberOfBytes": "32",
        "value": "t_bool"
      },
      "t_string_storage": {
        "encoding": "bytes",
        "label": "string",
        "numberOfBytes": "32"
      },
      "t_uint256": {
        "encoding": "inplace",
        "label": "uint256",
        "numberOfBytes": "32"
      }
    }
  }
}