{
  "address": "0x5495f41144ECeF9233f15AC3E4283f5F653fc96c",
  "abi": [
    {
      "inputs": [
        {
          "internalType": "address",
          "name": "_pool",
          "type": "address"
        },
        {
          "internalType": "address",
          "name": "_swapManager",
          "type": "address"
        }
      ],
      "stateMutability": "nonpayable",
      "type": "constructor"
    },
    {
      "anonymous": false,
      "inputs": [
        {
          "indexed": true,
          "internalType": "uint256",
          "name": "newFusePoolId",
          "type": "uint256"
        },
        {
          "indexed": true,
          "internalType": "address",
          "name": "oldCToken",
          "type": "address"
        },
        {
          "indexed": true,
          "internalType": "address",
          "name": "newCToken",
          "type": "address"
        }
      ],
      "name": "FusePoolChanged",
      "type": "event"
    },
    {
      "anonymous": false,
      "inputs": [
        {
          "indexed": true,
          "internalType": "address",
          "name": "previousFeeCollector",
          "type": "address"
        },
        {
          "indexed": true,
          "internalType": "address",
          "name": "newFeeCollector",
          "type": "address"
        }
      ],
      "name": "UpdatedFeeCollector",
      "type": "event"
    },
    {
      "anonymous": false,
      "inputs": [
        {
          "indexed": false,
          "internalType": "uint256",
          "name": "oldPeriod",
          "type": "uint256"
        },
        {
          "indexed": false,
          "internalType": "uint256",
          "name": "newPeriod",
          "type": "uint256"
        },
        {
          "indexed": false,
          "internalType": "uint256",
          "name": "oldRouterIdx",
          "type": "uint256"
        },
        {
          "indexed": false,
          "internalType": "uint256",
          "name": "newRouterIdx",
          "type": "uint256"
        }
      ],
      "name": "UpdatedOracleConfig",
      "type": "event"
    },
    {
      "anonymous": false,
      "inputs": [
        {
          "indexed": true,
          "internalType": "address",
          "name": "previousSwapManager",
          "type": "address"
        },
        {
          "indexed": true,
          "internalType": "address",
          "name": "newSwapManager",
          "type": "address"
        }
      ],
      "name": "UpdatedSwapManager",
      "type": "event"
    },
    {
      "anonymous": false,
      "inputs": [
        {
          "indexed": false,
          "internalType": "uint256",
          "name": "oldSwapSlippage",
          "type": "uint256"
        },
        {
          "indexed": false,
          "internalType": "uint256",
          "name": "newSwapSlippage",
          "type": "uint256"
        }
      ],
      "name": "UpdatedSwapSlippage",
      "type": "event"
    },
    {
      "inputs": [],
      "name": "NAME",
      "outputs": [
        {
          "internalType": "string",
          "name": "",
          "type": "string"
        }
      ],
      "stateMutability": "view",
      "type": "function"
    },
    {
      "inputs": [],
      "name": "VERSION",
      "outputs": [
        {
          "internalType": "string",
          "name": "",
          "type": "string"
        }
      ],
      "stateMutability": "view",
      "type": "function"
    },
    {
      "inputs": [
        {
          "internalType": "address",
          "name": "_keeperAddress",
          "type": "address"
        }
      ],
      "name": "addKeeper",
      "outputs": [],
      "stateMutability": "nonpayable",
      "type": "function"
    },
    {
      "inputs": [],
      "name": "approveToken",
      "outputs": [],
      "stateMutability": "nonpayable",
      "type": "function"
    },
    {
      "inputs": [],
      "name": "collateralToken",
      "outputs": [
        {
          "internalType": "contract IERC20",
          "name": "",
          "type": "address"
        }
      ],
      "stateMutability": "view",
      "type": "function"
    },
    {
      "inputs": [
        {
          "internalType": "uint256",
          "name": "amount",
          "type": "uint256"
        }
      ],
      "name": "convertFrom18",
      "outputs": [
        {
          "internalType": "uint256",
          "name": "",
          "type": "uint256"
        }
      ],
      "stateMutability": "pure",
      "type": "function"
    },
    {
      "inputs": [],
      "name": "feeCollector",
      "outputs": [
        {
          "internalType": "address",
          "name": "",
          "type": "address"
        }
      ],
      "stateMutability": "view",
      "type": "function"
    },
    {
      "inputs": [
        {
          "internalType": "address",
          "name": "_addressListFactory",
          "type": "address"
        }
      ],
      "name": "init",
      "outputs": [],
      "stateMutability": "nonpayable",
      "type": "function"
    },
    {
      "inputs": [
        {
          "internalType": "address",
          "name": "_token",
          "type": "address"
        }
      ],
      "name": "isReservedToken",
      "outputs": [
        {
          "internalType": "bool",
          "name": "",
          "type": "bool"
        }
      ],
      "stateMutability": "view",
      "type": "function"
    },
    {
      "inputs": [],
      "name": "keepers",
      "outputs": [
        {
          "internalType": "contract IAddressList",
          "name": "",
          "type": "address"
        }
      ],
      "stateMutability": "view",
      "type": "function"
    },
    {
      "inputs": [
        {
          "internalType": "address",
          "name": "_newStrategy",
          "type": "address"
        }
      ],
      "name": "migrate",
      "outputs": [],
      "stateMutability": "nonpayable",
      "type": "function"
    },
    {
      "inputs": [
        {
          "internalType": "uint256",
          "name": "_newPoolId",
          "type": "uint256"
        }
      ],
      "name": "migrateFusePool",
      "outputs": [],
      "stateMutability": "nonpayable",
      "type": "function"
    },
    {
      "inputs": [],
      "name": "oraclePeriod",
      "outputs": [
        {
          "internalType": "uint256",
          "name": "",
          "type": "uint256"
        }
      ],
      "stateMutability": "view",
      "type": "function"
    },
    {
      "inputs": [],
      "name": "oracleRouterIdx",
      "outputs": [
        {
          "internalType": "uint256",
          "name": "",
          "type": "uint256"
        }
      ],
      "stateMutability": "view",
      "type": "function"
    },
    {
      "inputs": [],
      "name": "pool",
      "outputs": [
        {
          "internalType": "address",
          "name": "",
          "type": "address"
        }
      ],
      "stateMutability": "view",
      "type": "function"
    },
    {
      "inputs": [],
      "name": "rebalance",
      "outputs": [],
      "stateMutability": "nonpayable",
      "type": "function"
    },
    {
      "inputs": [],
      "name": "receiptToken",
      "outputs": [
        {
          "internalType": "address",
          "name": "",
          "type": "address"
        }
      ],
      "stateMutability": "view",
      "type": "function"
    },
    {
      "inputs": [
        {
          "internalType": "address",
          "name": "_keeperAddress",
          "type": "address"
        }
      ],
      "name": "removeKeeper",
      "outputs": [],
      "stateMutability": "nonpayable",
      "type": "function"
    },
    {
      "inputs": [],
      "name": "setupOracles",
      "outputs": [],
      "stateMutability": "nonpayable",
      "type": "function"
    },
    {
      "inputs": [],
      "name": "swapManager",
      "outputs": [
        {
          "internalType": "contract ISwapManager",
          "name": "",
          "type": "address"
        }
      ],
      "stateMutability": "view",
      "type": "function"
    },
    {
      "inputs": [],
      "name": "swapSlippage",
      "outputs": [
        {
          "internalType": "uint256",
          "name": "",
          "type": "uint256"
        }
      ],
      "stateMutability": "view",
      "type": "function"
    },
    {
      "inputs": [
        {
          "internalType": "address",
          "name": "_fromToken",
          "type": "address"
        }
      ],
      "name": "sweepERC20",
      "outputs": [],
      "stateMutability": "nonpayable",
      "type": "function"
    },
    {
      "inputs": [],
      "name": "token",
      "outputs": [
        {
          "internalType": "address",
          "name": "",
          "type": "address"
        }
      ],
      "stateMutability": "view",
      "type": "function"
    },
    {
      "inputs": [],
      "name": "totalValue",
      "outputs": [
        {
          "internalType": "uint256",
          "name": "_totalValue",
          "type": "uint256"
        }
      ],
      "stateMutability": "view",
      "type": "function"
    },
    {
      "inputs": [
        {
          "internalType": "address",
          "name": "_feeCollector",
          "type": "address"
        }
      ],
      "name": "updateFeeCollector",
      "outputs": [],
      "stateMutability": "nonpayable",
      "type": "function"
    },
    {
      "inputs": [
        {
          "internalType": "uint256",
          "name": "_newPeriod",
          "type": "uint256"
        },
        {
          "internalType": "uint256",
          "name": "_newRouterIdx",
          "type": "uint256"
        }
      ],
      "name": "updateOracleConfig",
      "outputs": [],
      "stateMutability": "nonpayable",
      "type": "function"
    },
    {
      "inputs": [
        {
          "internalType": "address",
          "name": "_swapManager",
          "type": "address"
        }
      ],
      "name": "updateSwapManager",
      "outputs": [],
      "stateMutability": "nonpayable",
      "type": "function"
    },
    {
      "inputs": [
        {
          "internalType": "uint256",
          "name": "_newSwapSlippage",
          "type": "uint256"
        }
      ],
      "name": "updateSwapSlippage",
      "outputs": [],
      "stateMutability": "nonpayable",
      "type": "function"
    },
    {
      "inputs": [
        {
          "internalType": "uint256",
          "name": "_amount",
          "type": "uint256"
        }
      ],
      "name": "withdraw",
      "outputs": [],
      "stateMutability": "nonpayable",
      "type": "function"
    }
  ],
  "transactionHash": "0xa271507a320673a7b31ff026193530907dd37496419875f87b161ad612bf61e9",
  "args": [
    "0x0538C8bAc84E95A9dF8aC10Aad17DbE81b9E36ee",
    "0xe382d9f2394A359B01006faa8A1864b8a60d2710"
  ],
  "solcInputHash": "c5adc886f043cc8e073ed4875e0491f7",
  "bytecode": "0x60c0604052610e1060045560006005556127106006553480156200002257600080fd5b506040516200398b3803806200398b83398101604081905262000045916200047f565b8181620000686012736b175474e89094c44da98b954eedeac495271d0f62000275565b8282828282826001600160a01b038316620000ca5760405162461bcd60e51b815260206004820152601460248201527f706f6f6c2d616464726573732d69732d7a65726f00000000000000000000000060448201526064015b60405180910390fd5b6001600160a01b038216620001175760405162461bcd60e51b8152602060048201526012602482015271736d2d616464726573732d69732d7a65726f60701b6044820152606401620000c1565b600380546001600160a01b0319166001600160a01b0384811691909117909155606084901b6001600160601b03191660a05260408051637e062a3560e11b815290519185169163fc0c546a91600480820192602092909190829003018186803b1580156200018457600080fd5b505afa15801562000199573d6000803e3d6000fd5b505050506040513d601f19601f82011682018060405250810190620001bf919062000459565b60601b6001600160601b031916608052600080546001600160a01b0319166001600160a01b039283161790558316151591506200024190505760405162461bcd60e51b815260206004820152601660248201527f63546f6b656e2d616464726573732d69732d7a65726f000000000000000000006044820152606401620000c1565b600780546001600160a01b0319166001600160a01b0392909216919091179055505061271060065550620005fc9350505050565b6040516315895f4760e31b815260048101839052600090819073835482fe0532f169024d5e9410199369aad5c77e9063ac4afa389060240160006040518083038186803b158015620002c657600080fd5b505afa158015620002db573d6000803e3d6000fd5b505050506040513d6000823e601f3d908101601f19168201604052620003059190810190620004bd565b509093505050506001600160a01b038116620003645760405162461bcd60e51b815260206004820152601d60248201527f726172692d667573652d696e76616c69642d636f6d7074726f6c6c65720000006044820152606401620000c1565b6040516318ffa3fd60e11b81526001600160a01b038481166004830152600091908316906331ff47fa9060240160206040518083038186803b158015620003aa57600080fd5b505afa158015620003bf573d6000803e3d6000fd5b505050506040513d601f19601f82011682018060405250810190620003e5919062000459565b90506001600160a01b0381166200043f5760405162461bcd60e51b815260206004820152601860248201527f726172692d667573652d696e76616c69642d63746f6b656e00000000000000006044820152606401620000c1565b949350505050565b80516200045481620005e3565b919050565b6000602082840312156200046b578081fd5b81516200047881620005e3565b9392505050565b6000806040838503121562000492578081fd5b82516200049f81620005e3565b6020840151909250620004b281620005e3565b809150509250929050565b600080600080600060a08688031215620004d5578081fd5b85516001600160401b0380821115620004ec578283fd5b818801915088601f83011262000500578283fd5b815181811115620005155762000515620005cd565b604051601f8201601f19908116603f01168101908382118183101715620005405762000540620005cd565b81604052828152602093508b848487010111156200055c578586fd5b8591505b828210156200057f578482018401518183018501529083019062000560565b828211156200059057858484830101525b9850620005a291505088820162000447565b95505050620005b46040870162000447565b6060870151608090970151959894975095949392505050565b634e487b7160e01b600052604160045260246000fd5b6001600160a01b0381168114620005f957600080fd5b50565b60805160601c60a05160601c613298620006f3600039600081816101ee01528181610454015281816105e30152818161085e015281816108da01528181610a7101528181610c24015281816110a4015281816112d4015281816113fb015281816116de015281816117a7015281816119f401528181611f06015281816122a20152818161233f015261257f01526000818161037901528181610ceb01528181610eb901528181610f4a01528181611946015281816119cb01528181611d3f01528181611f30015281816123fb0152818161255d015281816125b5015281816127de0152818161285d0152612c7101526132986000f3fe608060405234801561001057600080fd5b50600436106101cf5760003560e01c806399b71d5c11610104578063ce5494bb116100a2578063ec78e83211610071578063ec78e832146103f8578063fb589de21461040b578063fc0c546a1461041c578063ffa1ad741461042d576101cf565b8063ce5494bb146103b7578063d2c35ce8146103ca578063d4c3eea0146103dd578063e00af4a7146103e5576101cf565b8063aa101886116100de578063aa1018861461036c578063b2016bd414610374578063c415b95c1461039b578063cd2d7ebe146103ae576101cf565b806399b71d5c14610310578063a3f4df7e14610318578063a923b2a614610359576101cf565b8063440d72481161017157806367f5e4b81161014b57806367f5e4b8146102cf578063709d039d146102e25780637d7c2a1c146102f5578063951dc22c146102fd576101cf565b8063440d7248146102865780634c36fad7146102a95780634dda5222146102bc576101cf565b80631aedeabe116101ad5780631aedeabe146102405780632e1a7d4d146102575780634032b72b1461026a57806342189c8f1461027d576101cf565b806314ae9f2e146101d457806316f0115b146101e957806319ab453c1461022d575b600080fd5b6101e76101e2366004612f42565b610452565b005b6102107f000000000000000000000000000000000000000000000000000000000000000081565b6040516001600160a01b0390911681526020015b60405180910390f35b6101e761023b366004612f42565b6105e1565b61024960065481565b604051908152602001610224565b6101e7610265366004613079565b61085b565b6101e7610278366004612f42565b6108d8565b61024960045481565b610299610294366004612f42565b610a58565b6040519015158152602001610224565b6101e76102b7366004612f42565b610a6f565b6101e76102ca366004613079565b610c22565b6101e76102dd366004613079565b6110a2565b600354610210906001600160a01b031681565b6101e76111ee565b600154610210906001600160a01b031681565b6101e761133d565b61034c6040518060400160405280601581526020017452617269467573652d53747261746567792d44414960581b81525081565b60405161022491906130e6565b6101e76103673660046130a9565b6113f9565b6101e761162e565b6102107f000000000000000000000000000000000000000000000000000000000000000081565b600254610210906001600160a01b031681565b61024960055481565b6101e76103c5366004612f42565b6116db565b6101e76103d8366004612f42565b6119f2565b610249611bbb565b6101e76103f3366004612f42565b611c48565b600054610210906001600160a01b031681565b610249610419366004613079565b90565b6000546001600160a01b0316610210565b61034c60405180604001604052806006815260200165332e302e313160d01b81525081565b7f00000000000000000000000000000000000000000000000000000000000000006001600160a01b0316630c340a246040518163ffffffff1660e01b815260040160206040518083038186803b1580156104ab57600080fd5b505afa1580156104bf573d6000803e3d6000fd5b505050506040513d601f19601f820116820180604052508101906104e39190612f5e565b6001600160a01b0316336001600160a01b03161461051c5760405162461bcd60e51b815260040161051390613149565b60405180910390fd5b600154604051631484968760e11b81526001600160a01b038381166004830152909116906329092d0e90602401602060405180830381600087803b15801561056357600080fd5b505af1158015610577573d6000803e3d6000fd5b505050506040513d601f19601f8201168201806040525081019061059b9190612f7a565b6105de5760405162461bcd60e51b81526020600482015260146024820152731c995b5bdd994b5ad9595c195c8b59985a5b195960621b6044820152606401610513565b50565b7f00000000000000000000000000000000000000000000000000000000000000006001600160a01b0316630c340a246040518163ffffffff1660e01b815260040160206040518083038186803b15801561063a57600080fd5b505afa15801561064e573d6000803e3d6000fd5b505050506040513d601f19601f820116820180604052508101906106729190612f5e565b6001600160a01b0316336001600160a01b0316146106a25760405162461bcd60e51b815260040161051390613149565b6001546001600160a01b0316156106fb5760405162461bcd60e51b815260206004820152601b60248201527f6b65657065722d6c6973742d616c72656164792d6372656174656400000000006044820152606401610513565b6000819050806001600160a01b0316630fab4d256040518163ffffffff1660e01b8152600401602060405180830381600087803b15801561073b57600080fd5b505af115801561074f573d6000803e3d6000fd5b505050506040513d601f19601f820116820180604052508101906107739190612f5e565b600180546001600160a01b0319166001600160a01b03929092169182179055630a3b0a4f61079e3390565b6040516001600160e01b031960e084901b1681526001600160a01b039091166004820152602401602060405180830381600087803b1580156107df57600080fd5b505af11580156107f3573d6000803e3d6000fd5b505050506040513d601f19601f820116820180604052508101906108179190612f7a565b6108575760405162461bcd60e51b81526020600482015260116024820152701859190b5ad9595c195c8b59985a5b1959607a1b6044820152606401610513565b5050565b337f00000000000000000000000000000000000000000000000000000000000000006001600160a01b0316146108cf5760405162461bcd60e51b815260206004820152601960248201527818d85b1b195c8b5a5ccb5b9bdd0b5d995cdc195c8b5c1bdbdb603a1b6044820152606401610513565b6105de81611ee3565b7f00000000000000000000000000000000000000000000000000000000000000006001600160a01b0316630c340a246040518163ffffffff1660e01b815260040160206040518083038186803b15801561093157600080fd5b505afa158015610945573d6000803e3d6000fd5b505050506040513d601f19601f820116820180604052508101906109699190612f5e565b6001600160a01b0316336001600160a01b0316146109995760405162461bcd60e51b815260040161051390613149565b600154604051630a3b0a4f60e01b81526001600160a01b03838116600483015290911690630a3b0a4f90602401602060405180830381600087803b1580156109e057600080fd5b505af11580156109f4573d6000803e3d6000fd5b505050506040513d601f19601f82011682018060405250810190610a189190612f7a565b6105de5760405162461bcd60e51b81526020600482015260116024820152701859190b5ad9595c195c8b59985a5b1959607a1b6044820152606401610513565b6007546001600160a01b038281169116145b919050565b7f00000000000000000000000000000000000000000000000000000000000000006001600160a01b0316630c340a246040518163ffffffff1660e01b815260040160206040518083038186803b158015610ac857600080fd5b505afa158015610adc573d6000803e3d6000fd5b505050506040513d601f19601f82011682018060405250810190610b009190612f5e565b6001600160a01b0316336001600160a01b031614610b305760405162461bcd60e51b815260040161051390613149565b6001600160a01b038116610b7b5760405162461bcd60e51b8152602060048201526012602482015271736d2d616464726573732d69732d7a65726f60701b6044820152606401610513565b6003546001600160a01b0382811691161415610bc65760405162461bcd60e51b815260206004820152600a602482015269736d2d69732d73616d6560b01b6044820152606401610513565b6003546040516001600160a01b038084169216907f2d19927e7cac08ceb98b38898a4fdff6da6a27295b9a2d62fe250408ebe044e190600090a3600380546001600160a01b0319166001600160a01b0392909216919091179055565b7f00000000000000000000000000000000000000000000000000000000000000006001600160a01b0316630c340a246040518163ffffffff1660e01b815260040160206040518083038186803b158015610c7b57600080fd5b505afa158015610c8f573d6000803e3d6000fd5b505050506040513d601f19601f82011682018060405250810190610cb39190612f5e565b6001600160a01b0316336001600160a01b031614610ce35760405162461bcd60e51b815260040161051390613149565b6000610d0f827f0000000000000000000000000000000000000000000000000000000000000000611f5f565b6007549091506001600160a01b0380831691161415610d615760405162461bcd60e51b815260206004820152600e60248201526d1cd85b594b599d5cd94b5c1bdbdb60921b6044820152606401610513565b6007546040516370a0823160e01b81523060048201526001600160a01b039091169063db006a759082906370a082319060240160206040518083038186803b158015610dac57600080fd5b505afa158015610dc0573d6000803e3d6000fd5b505050506040513d601f19601f82011682018060405250810190610de49190613091565b6040518263ffffffff1660e01b8152600401610e0291815260200190565b602060405180830381600087803b158015610e1c57600080fd5b505af1158015610e30573d6000803e3d6000fd5b505050506040513d601f19601f82011682018060405250810190610e549190613091565b15610ea15760405162461bcd60e51b815260206004820152601e60248201527f77697468647261772d66726f6d2d667573652d706f6f6c2d6661696c656400006044820152606401610513565b6040516370a0823160e01b81523060048201526000907f00000000000000000000000000000000000000000000000000000000000000006001600160a01b0316906370a082319060240160206040518083038186803b158015610f0357600080fd5b505afa158015610f17573d6000803e3d6000fd5b505050506040513d601f19601f82011682018060405250810190610f3b9190613091565b9050610f716001600160a01b037f0000000000000000000000000000000000000000000000000000000000000000168383612125565b60405163140e25ad60e31b8152600481018290526001600160a01b0383169063a0712d6890602401602060405180830381600087803b158015610fb357600080fd5b505af1158015610fc7573d6000803e3d6000fd5b505050506040513d601f19601f82011682018060405250810190610feb9190613091565b156110385760405162461bcd60e51b815260206004820152601b60248201527f6465706f7369742d746f2d667573652d706f6f6c2d6661696c656400000000006044820152606401610513565b6007546040516001600160a01b0380851692169085907f7725294be69fa7d941c001b388e2086daa9acdf58fbbc7aef3fd8cce3c316b6e90600090a450600780546001600160a01b039092166001600160a01b031992831681179091556000805490921617905550565b7f00000000000000000000000000000000000000000000000000000000000000006001600160a01b0316630c340a246040518163ffffffff1660e01b815260040160206040518083038186803b1580156110fb57600080fd5b505afa15801561110f573d6000803e3d6000fd5b505050506040513d601f19601f820116820180604052508101906111339190612f5e565b6001600160a01b0316336001600160a01b0316146111635760405162461bcd60e51b815260040161051390613149565b6127108111156111ae5760405162461bcd60e51b8152602060048201526016602482015275696e76616c69642d736c6970706167652d76616c756560501b6044820152606401610513565b60065460408051918252602082018390527ef1c5db862c7598b3b6765552ca951f498611e06412c2d57f8d0b58f82e7f82910160405180910390a1600655565b6001546001600160a01b0316635dbe47e8336040516001600160e01b031960e084901b1681526001600160a01b03909116600482015260240160206040518083038186803b15801561123f57600080fd5b505afa158015611253573d6000803e3d6000fd5b505050506040513d601f19601f820116820180604052508101906112779190612f7a565b6112935760405162461bcd60e51b815260040161051390613119565b60008060006112a061227c565b6040516302df682360e11b815260048101849052602481018390526044810182905292955090935091506001600160a01b037f000000000000000000000000000000000000000000000000000000000000000016906305bed04690606401600060405180830381600087803b15801561131857600080fd5b505af115801561132c573d6000803e3d6000fd5b505050506113386123e3565b505050565b6001546001600160a01b0316635dbe47e8336040516001600160e01b031960e084901b1681526001600160a01b03909116600482015260240160206040518083038186803b15801561138e57600080fd5b505afa1580156113a2573d6000803e3d6000fd5b505050506040513d601f19601f820116820180604052508101906113c69190612f7a565b6113e25760405162461bcd60e51b815260040161051390613119565b6113ec6000612550565b6113f7600019612550565b565b7f00000000000000000000000000000000000000000000000000000000000000006001600160a01b0316630c340a246040518163ffffffff1660e01b815260040160206040518083038186803b15801561145257600080fd5b505afa158015611466573d6000803e3d6000fd5b505050506040513d601f19601f8201168201806040525081019061148a9190612f5e565b6001600160a01b0316336001600160a01b0316146114ba5760405162461bcd60e51b815260040161051390613149565b600360009054906101000a90046001600160a01b03166001600160a01b031663c2fba6676040518163ffffffff1660e01b815260040160206040518083038186803b15801561150857600080fd5b505afa15801561151c573d6000803e3d6000fd5b505050506040513d601f19601f820116820180604052508101906115409190613091565b81106115855760405162461bcd60e51b81526020600482015260146024820152730d2dcecc2d8d2c85ae4deeae8cae45ad2dcc8caf60631b6044820152606401610513565b816115905760045491505b603b82116115d85760405162461bcd60e51b81526020600482015260156024820152741a5b9d985b1a590b5bdc9858db194b5c195c9a5bd9605a1b6044820152606401610513565b6004546005546040805192835260208301859052820152606081018290527f83bc5ab8030537fcf1d29c2334f6d22c26c82dcbe5ff03923d2cff5c692c0a7f9060800160405180910390a1600491909155600555565b6001546001600160a01b0316635dbe47e8336040516001600160e01b031960e084901b1681526001600160a01b03909116600482015260240160206040518083038186803b15801561167f57600080fd5b505afa158015611693573d6000803e3d6000fd5b505050506040513d601f19601f820116820180604052508101906116b79190612f7a565b6116d35760405162461bcd60e51b815260040161051390613119565b6113f761271a565b337f00000000000000000000000000000000000000000000000000000000000000006001600160a01b03161461174f5760405162461bcd60e51b815260206004820152601960248201527818d85b1b195c8b5a5ccb5b9bdd0b5d995cdc195c8b5c1bdbdb603a1b6044820152606401610513565b6001600160a01b0381166117a55760405162461bcd60e51b815260206004820152601c60248201527f6e65772d73747261746567792d616464726573732d69732d7a65726f000000006044820152606401610513565b7f00000000000000000000000000000000000000000000000000000000000000006001600160a01b0316816001600160a01b03166316f0115b6040518163ffffffff1660e01b815260040160206040518083038186803b15801561180857600080fd5b505afa15801561181c573d6000803e3d6000fd5b505050506040513d601f19601f820116820180604052508101906118409190612f5e565b6001600160a01b03161461188f5760405162461bcd60e51b81526020600482015260166024820152756e6f742d76616c69642d6e65772d737472617465677960501b6044820152606401610513565b6000546040516370a0823160e01b81523060048201526119239183916001600160a01b03909116906370a082319060240160206040518083038186803b1580156118d857600080fd5b505afa1580156118ec573d6000803e3d6000fd5b505050506040513d601f19601f820116820180604052508101906119109190613091565b6000546001600160a01b031691906128ef565b6040516370a0823160e01b81523060048201526105de9082906001600160a01b037f000000000000000000000000000000000000000000000000000000000000000016906370a08231906024015b60206040518083038186803b15801561198957600080fd5b505afa15801561199d573d6000803e3d6000fd5b505050506040513d601f19601f820116820180604052508101906119c19190613091565b6001600160a01b037f00000000000000000000000000000000000000000000000000000000000000001691906128ef565b7f00000000000000000000000000000000000000000000000000000000000000006001600160a01b0316630c340a246040518163ffffffff1660e01b815260040160206040518083038186803b158015611a4b57600080fd5b505afa158015611a5f573d6000803e3d6000fd5b505050506040513d601f19601f82011682018060405250810190611a839190612f5e565b6001600160a01b0316336001600160a01b031614611ab35760405162461bcd60e51b815260040161051390613149565b6001600160a01b038116611b095760405162461bcd60e51b815260206004820152601d60248201527f6665652d636f6c6c6563746f722d616464726573732d69732d7a65726f0000006044820152606401610513565b6002546001600160a01b0382811691161415611b5f5760405162461bcd60e51b81526020600482015260156024820152746665652d636f6c6c6563746f722d69732d73616d6560581b6044820152606401610513565b6002546040516001600160a01b038084169216907f0f06062680f9bd68e786e9980d9bb03d73d5620fc3b345e417b6eacb310b970690600090a3600280546001600160a01b0319166001600160a01b0392909216919091179055565b6007546040516370a0823160e01b8152306004820152600091611c43916001600160a01b03909116906370a08231906024015b60206040518083038186803b158015611c0657600080fd5b505afa158015611c1a573d6000803e3d6000fd5b505050506040513d601f19601f82011682018060405250810190611c3e9190613091565b61291f565b905090565b6001546001600160a01b0316635dbe47e8336040516001600160e01b031960e084901b1681526001600160a01b03909116600482015260240160206040518083038186803b158015611c9957600080fd5b505afa158015611cad573d6000803e3d6000fd5b505050506040513d601f19601f82011682018060405250810190611cd19190612f7a565b611ced5760405162461bcd60e51b815260040161051390613119565b6002546001600160a01b0316611d3d5760405162461bcd60e51b81526020600482015260156024820152741999594b58dbdb1b1958dd1bdc8b5b9bdd0b5cd95d605a1b6044820152606401610513565b7f00000000000000000000000000000000000000000000000000000000000000006001600160a01b0316816001600160a01b03161415611dbf5760405162461bcd60e51b815260206004820152601f60248201527f6e6f742d616c6c6f7765642d746f2d73776565702d636f6c6c61746572616c006044820152606401610513565b611dc881610a58565b15611e0c5760405162461bcd60e51b815260206004820152601460248201527306e6f742d616c6c6f7765642d746f2d73776565760641b6044820152606401610513565b6001600160a01b03811673eeeeeeeeeeeeeeeeeeeeeeeeeeeeeeeeeeeeeeee1415611e4c57600254611e47906001600160a01b0316476129ca565b6105de565b6040516370a0823160e01b81523060048201526000906001600160a01b038316906370a082319060240160206040518083038186803b158015611e8e57600080fd5b505afa158015611ea2573d6000803e3d6000fd5b505050506040513d601f19601f82011682018060405250810190611ec69190613091565b600254909150610857906001600160a01b038481169116836128ef565b611eec81612ae3565b506040516370a0823160e01b81523060048201526105de907f0000000000000000000000000000000000000000000000000000000000000000906001600160a01b037f000000000000000000000000000000000000000000000000000000000000000016906370a0823190602401611971565b6040516315895f4760e31b815260048101839052600090819073835482fe0532f169024d5e9410199369aad5c77e9063ac4afa389060240160006040518083038186803b158015611faf57600080fd5b505afa158015611fc3573d6000803e3d6000fd5b505050506040513d6000823e601f3d908101601f19168201604052611feb9190810190612f9a565b509093505050506001600160a01b0381166120485760405162461bcd60e51b815260206004820152601d60248201527f726172692d667573652d696e76616c69642d636f6d7074726f6c6c65720000006044820152606401610513565b6040516318ffa3fd60e11b81526001600160a01b038481166004830152600091908316906331ff47fa9060240160206040518083038186803b15801561208d57600080fd5b505afa1580156120a1573d6000803e3d6000fd5b505050506040513d601f19601f820116820180604052508101906120c59190612f5e565b90506001600160a01b03811661211d5760405162461bcd60e51b815260206004820152601860248201527f726172692d667573652d696e76616c69642d63746f6b656e00000000000000006044820152606401610513565b949350505050565b8015806121ae5750604051636eb1769f60e11b81523060048201526001600160a01b03838116602483015284169063dd62ed3e9060440160206040518083038186803b15801561217457600080fd5b505afa158015612188573d6000803e3d6000fd5b505050506040513d601f19601f820116820180604052508101906121ac9190613091565b155b6122195760405162461bcd60e51b815260206004820152603660248201527f5361666545524332303a20617070726f76652066726f6d206e6f6e2d7a65726f60448201527520746f206e6f6e2d7a65726f20616c6c6f77616e636560501b6064820152608401610513565b6040516001600160a01b03831660248201526044810182905261133890849063095ea7b360e01b906064015b60408051601f198184030181529190526020810180516001600160e01b03166001600160e01b031990931692909217909152612b3a565b604051636a9eee1360e11b81523060048201526000908190819081906001600160a01b037f0000000000000000000000000000000000000000000000000000000000000000169063d53ddc269060240160206040518083038186803b1580156122e457600080fd5b505afa1580156122f8573d6000803e3d6000fd5b505050506040513d601f19601f8201168201806040525081019061231c9190613091565b604051639f2b283360e01b81523060048201529091506000906001600160a01b037f00000000000000000000000000000000000000000000000000000000000000001690639f2b28339060240160206040518083038186803b15801561238157600080fd5b505afa158015612395573d6000803e3d6000fd5b505050506040513d601f19601f820116820180604052508101906123b99190613091565b90506123c481612c0c565b94506123cf81612cf3565b93506123da82612d44565b92505050909192565b6040516370a0823160e01b81523060048201526000907f00000000000000000000000000000000000000000000000000000000000000006001600160a01b0316906370a082319060240160206040518083038186803b15801561244557600080fd5b505afa158015612459573d6000803e3d6000fd5b505050506040513d601f19601f8201168201806040525081019061247d9190613091565b905080156105de5760075460405163140e25ad60e31b8152600481018390526001600160a01b039091169063a0712d6890602401602060405180830381600087803b1580156124cb57600080fd5b505af11580156124df573d6000803e3d6000fd5b505050506040513d601f19601f820116820180604052508101906125039190613091565b156105de5760405162461bcd60e51b815260206004820152601a60248201527f6465706f7369742d746f2d636f6d706f756e642d6661696c65640000000000006044820152606401610513565b6125a46001600160a01b037f0000000000000000000000000000000000000000000000000000000000000000167f000000000000000000000000000000000000000000000000000000000000000083612125565b6007546125de906001600160a01b037f00000000000000000000000000000000000000000000000000000000000000008116911683612125565b60005b600360009054906101000a90046001600160a01b03166001600160a01b031663c2fba6676040518163ffffffff1660e01b815260040160206040518083038186803b15801561262f57600080fd5b505afa158015612643573d6000803e3d6000fd5b505050506040513d601f19601f820116820180604052508101906126679190613091565b81101561085757600354604051636e74a6f760e01b815260048101839052612708916001600160a01b031690636e74a6f79060240160206040518083038186803b1580156126b457600080fd5b505afa1580156126c8573d6000803e3d6000fd5b505050506040513d601f19601f820116820180604052508101906126ec9190612f5e565b73c00e94cb662c3520282e6f5717214004a7f268889084612125565b8061271281613206565b9150506125e1565b60035460048054600554604051630f30f2d360e21b815273c00e94cb662c3520282e6f5717214004a7f268889381019390935273c02aaa39b223fe8d0a0e5c4f27ead9083c756cc26024840152604483019190915260648201526001600160a01b0390911690633cc3cb4c90608401602060405180830381600087803b1580156127a357600080fd5b505af11580156127b7573d6000803e3d6000fd5b505050506040513d601f19601f820116820180604052508101906127db9190612f5e565b507f00000000000000000000000000000000000000000000000000000000000000006001600160a01b031673c02aaa39b223fe8d0a0e5c4f27ead9083c756cc2146113f75760035460048054600554604051630f30f2d360e21b815273c02aaa39b223fe8d0a0e5c4f27ead9083c756cc2938101939093526001600160a01b037f0000000000000000000000000000000000000000000000000000000000000000811660248501526044840192909252606483015290911690633cc3cb4c90608401602060405180830381600087803b1580156128b757600080fd5b505af11580156128cb573d6000803e3d6000fd5b505050506040513d601f19601f820116820180604052508101906105de9190612f5e565b6040516001600160a01b03831660248201526044810182905261133890849063a9059cbb60e01b90606401612245565b6000670de0b6b3a7640000600760009054906101000a90046001600160a01b03166001600160a01b031663182df0f56040518163ffffffff1660e01b815260040160206040518083038186803b15801561297857600080fd5b505afa15801561298c573d6000803e3d6000fd5b505050506040513d601f19601f820116820180604052508101906129b09190613091565b6129ba90846131a0565b6129c49190613180565b92915050565b80471015612a1a5760405162461bcd60e51b815260206004820152601d60248201527f416464726573733a20696e73756666696369656e742062616c616e63650000006044820152606401610513565b6000826001600160a01b03168260405160006040518083038185875af1925050503d8060008114612a67576040519150601f19603f3d011682016040523d82523d6000602084013e612a6c565b606091505b50509050806113385760405162461bcd60e51b815260206004820152603a60248201527f416464726573733a20756e61626c6520746f2073656e642076616c75652c207260448201527f6563697069656e74206d617920686176652072657665727465640000000000006064820152608401610513565b6007546040516370a0823160e01b81523060048201526000918291612b1a916001600160a01b0316906370a0823190602401611bee565b9050612b33818410612b2c5781612b2e565b835b612d55565b9392505050565b6000612b8f826040518060400160405280602081526020017f5361666545524332303a206c6f772d6c6576656c2063616c6c206661696c6564815250856001600160a01b0316612e2c9092919063ffffffff16565b8051909150156113385780806020019051810190612bad9190612f7a565b6113385760405162461bcd60e51b815260206004820152602a60248201527f5361666545524332303a204552433230206f7065726174696f6e20646964206e6044820152691bdd081cdd58d8d9595960b21b6064820152608401610513565b6007546040516370a0823160e01b81523060048201526000918291612c43916001600160a01b0316906370a0823190602401611bee565b905082811115612c5c57612c5a612b2e84836131bf565b505b6040516370a0823160e01b81523060048201527f00000000000000000000000000000000000000000000000000000000000000006001600160a01b0316906370a082319060240160206040518083038186803b158015612cbb57600080fd5b505afa158015612ccf573d6000803e3d6000fd5b505050506040513d601f19601f82011682018060405250810190612b339190613091565b6007546040516370a0823160e01b81523060048201526000918291612d2a916001600160a01b0316906370a0823190602401611bee565b905082811015612d3e57612b3381846131bf565b50919050565b60008115610a6a576129c482612ae3565b60008115612e285760075460405163852a12e360e01b8152600481018490526001600160a01b039091169063852a12e390602401602060405180830381600087803b158015612da357600080fd5b505af1158015612db7573d6000803e3d6000fd5b505050506040513d601f19601f82011682018060405250810190612ddb9190613091565b15612e285760405162461bcd60e51b815260206004820152601d60248201527f77697468647261772d66726f6d2d636f6d706f756e642d6661696c65640000006044820152606401610513565b5090565b606061211d848460008585843b612e855760405162461bcd60e51b815260206004820152601d60248201527f416464726573733a2063616c6c20746f206e6f6e2d636f6e74726163740000006044820152606401610513565b600080866001600160a01b03168587604051612ea191906130ca565b60006040518083038185875af1925050503d8060008114612ede576040519150601f19603f3d011682016040523d82523d6000602084013e612ee3565b606091505b5091509150612ef3828286612efe565b979650505050505050565b60608315612f0d575081612b33565b825115612f1d5782518084602001fd5b8160405162461bcd60e51b815260040161051391906130e6565b8051610a6a8161324d565b600060208284031215612f53578081fd5b8135612b338161324d565b600060208284031215612f6f578081fd5b8151612b338161324d565b600060208284031215612f8b578081fd5b81518015158114612b33578182fd5b600080600080600060a08688031215612fb1578081fd5b855167ffffffffffffffff80821115612fc8578283fd5b818801915088601f830112612fdb578283fd5b815181811115612fed57612fed613237565b604051601f8201601f19908116603f0116810190838211818310171561301557613015613237565b816040528281528b602084870101111561302d578586fd5b61303e8360208301602088016131d6565b809950505050505061305260208701612f37565b935061306060408701612f37565b6060870151608090970151959894975095949392505050565b60006020828403121561308a578081fd5b5035919050565b6000602082840312156130a2578081fd5b5051919050565b600080604083850312156130bb578182fd5b50508035926020909101359150565b600082516130dc8184602087016131d6565b9190910192915050565b60006020825282518060208401526131058160408501602087016131d6565b601f01601f19169190910160400192915050565b60208082526016908201527531b0b63632b916b4b996b737ba16b096b5b2b2b832b960511b604082015260600190565b6020808252601a908201527f63616c6c65722d69732d6e6f742d7468652d676f7665726e6f72000000000000604082015260600190565b60008261319b57634e487b7160e01b81526012600452602481fd5b500490565b60008160001904831182151516156131ba576131ba613221565b500290565b6000828210156131d1576131d1613221565b500390565b60005b838110156131f15781810151838201526020016131d9565b83811115613200576000848401525b50505050565b600060001982141561321a5761321a613221565b5060010190565b634e487b7160e01b600052601160045260246000fd5b634e487b7160e01b600052604160045260246000fd5b6001600160a01b03811681146105de57600080fdfea2646970667358221220876d4b50b93205ea880d3890822df7da3bee3372c324740f4e8afb39cfca5b9464736f6c63430008030033",
  "devdoc": {
    "kind": "dev",
    "methods": {
      "addKeeper(address)": {
        "params": {
          "_keeperAddress": "keeper address to add."
        }
      },
      "approveToken()": {
        "details": "Approve all required tokens"
      },
      "convertFrom18(uint256)": {
        "details": "Convert from 18 decimals to token defined decimals. Default no conversion."
      },
      "init(address)": {
        "params": {
          "_addressListFactory": "To support same code in eth side chain, user _addressListFactory as param ethereum- 0xded8217De022706A191eE7Ee0Dc9df1185Fb5dA3 polygon-0xD10D5696A350D65A9AA15FE8B258caB4ab1bF291"
        }
      },
      "migrate(address)": {
        "details": "_beforeMigration hook can be implemented in child strategy to do extra steps.",
        "params": {
          "_newStrategy": "Address of new strategy"
        }
      },
      "migrateFusePool(uint256)": {
        "details": "Redeems cTokens from current fuse pool and mints cTokens of new Fuse Pool",
        "params": {
          "_newPoolId": "Fuse Pool ID"
        }
      },
      "rebalance()": {
        "details": "Rebalance profit, loss and investment of this strategy"
      },
      "removeKeeper(address)": {
        "params": {
          "_keeperAddress": "keeper address to remove."
        }
      },
      "sweepERC20(address)": {
        "details": "sweep given token to feeCollector of strategy",
        "params": {
          "_fromToken": "token address to sweep"
        }
      },
      "totalValue()": {
        "details": "Report total value in collateral token"
      },
      "updateFeeCollector(address)": {
        "params": {
          "_feeCollector": "fee collector address"
        }
      },
      "updateSwapManager(address)": {
        "params": {
          "_swapManager": "swap manager address"
        }
      },
      "withdraw(uint256)": {
        "details": "Withdraw collateral token from lending pool.",
        "params": {
          "_amount": "Amount of collateral token"
        }
      }
    },
    "title": "Deposit DAI in a Rari Fuse Pool and earn interest.",
    "version": 1
  },
  "userdoc": {
    "kind": "user",
    "methods": {
      "addKeeper(address)": {
        "notice": "Add given address in keepers list."
      },
      "init(address)": {
        "notice": "Create keeper list NOTE: Any function with onlyKeeper modifier will not work until this function is called. NOTE: Due to gas constraint this function cannot be called in constructor."
      },
      "isReservedToken(address)": {
        "notice": "Check whether given token is reserved or not. Reserved tokens are not allowed to sweep."
      },
      "migrate(address)": {
        "notice": "Migrate all asset and vault ownership,if any, to new strategy"
      },
      "migrateFusePool(uint256)": {
        "notice": "Changes the underlying Fuse Pool to a new one"
      },
      "removeKeeper(address)": {
        "notice": "Remove given address from keepers list."
      },
      "token()": {
        "notice": "Returns address of token correspond to collateral token"
      },
      "totalValue()": {
        "notice": "Calculate total value using underlying token"
      },
      "updateFeeCollector(address)": {
        "notice": "Update fee collector"
      },
      "updateSwapManager(address)": {
        "notice": "Update swap manager address"
      }
    },
    "version": 1
  },
  "storageLayout": {
    "storage": [
      {
        "astId": 10129,
        "contract": "contracts/strategies/rari-fuse/RariFuseStrategyDAI.sol:RariFuseStrategyDAI",
        "label": "receiptToken",
        "offset": 0,
        "slot": "0",
        "type": "t_address"
      },
      {
        "astId": 10135,
        "contract": "contracts/strategies/rari-fuse/RariFuseStrategyDAI.sol:RariFuseStrategyDAI",
        "label": "keepers",
        "offset": 0,
        "slot": "1",
        "type": "t_contract(IAddressList)3647"
      },
      {
        "astId": 10138,
        "contract": "contracts/strategies/rari-fuse/RariFuseStrategyDAI.sol:RariFuseStrategyDAI",
        "label": "feeCollector",
        "offset": 0,
        "slot": "2",
        "type": "t_address"
      },
      {
        "astId": 10141,
        "contract": "contracts/strategies/rari-fuse/RariFuseStrategyDAI.sol:RariFuseStrategyDAI",
        "label": "swapManager",
        "offset": 0,
        "slot": "3",
        "type": "t_contract(ISwapManager)3950"
      },
      {
        "astId": 10144,
        "contract": "contracts/strategies/rari-fuse/RariFuseStrategyDAI.sol:RariFuseStrategyDAI",
        "label": "oraclePeriod",
        "offset": 0,
        "slot": "4",
        "type": "t_uint256"
      },
      {
        "astId": 10147,
        "contract": "contracts/strategies/rari-fuse/RariFuseStrategyDAI.sol:RariFuseStrategyDAI",
        "label": "oracleRouterIdx",
        "offset": 0,
        "slot": "5",
        "type": "t_uint256"
      },
      {
        "astId": 10150,
        "contract": "contracts/strategies/rari-fuse/RariFuseStrategyDAI.sol:RariFuseStrategyDAI",
        "label": "swapSlippage",
        "offset": 0,
        "slot": "6",
        "type": "t_uint256"
      },
      {
        "astId": 14319,
        "contract": "contracts/strategies/rari-fuse/RariFuseStrategyDAI.sol:RariFuseStrategyDAI",
        "label": "cToken",
        "offset": 0,
        "slot": "7",
        "type": "t_contract(CToken)4026"
      }
    ],
    "types": {
      "t_address": {
        "encoding": "inplace",
        "label": "address",
        "numberOfBytes": "20"
      },
      "t_contract(CToken)4026": {
        "encoding": "inplace",
        "label": "contract CToken",
        "numberOfBytes": "20"
      },
      "t_contract(IAddressList)3647": {
        "encoding": "inplace",
        "label": "contract IAddressList",
        "numberOfBytes": "20"
      },
      "t_contract(ISwapManager)3950": {
        "encoding": "inplace",
        "label": "contract ISwapManager",
        "numberOfBytes": "20"
      },
      "t_uint256": {
        "encoding": "inplace",
        "label": "uint256",
        "numberOfBytes": "32"
      }
    }
  }
}