{
  "address": "0x1c282eF2a23CF5C40DAF482785B0188ce3A3eaad",
  "abi": [
    {
      "anonymous": false,
      "inputs": [
        {
          "indexed": true,
          "internalType": "address",
          "name": "user",
          "type": "address"
        },
        {
          "indexed": true,
          "internalType": "address",
          "name": "rewardToken",
          "type": "address"
        },
        {
          "indexed": false,
          "internalType": "uint256",
          "name": "reward",
          "type": "uint256"
        }
      ],
      "name": "DripRewardPaid",
      "type": "event"
    },
    {
      "anonymous": false,
      "inputs": [
        {
          "indexed": true,
          "internalType": "address",
          "name": "oldGrowToken",
          "type": "address"
        },
        {
          "indexed": true,
          "internalType": "address",
          "name": "newGrowToken",
          "type": "address"
        }
      ],
      "name": "GrowTokenUpdated",
      "type": "event"
    },
    {
      "anonymous": false,
      "inputs": [
        {
          "indexed": true,
          "internalType": "address",
          "name": "rewardToken",
          "type": "address"
        },
        {
          "indexed": false,
          "internalType": "uint256",
          "name": "reward",
          "type": "uint256"
        },
        {
          "indexed": false,
          "internalType": "uint256",
          "name": "rewardDuration",
          "type": "uint256"
        }
      ],
      "name": "RewardAdded",
      "type": "event"
    },
    {
      "anonymous": false,
      "inputs": [
        {
          "indexed": true,
          "internalType": "address",
          "name": "user",
          "type": "address"
        },
        {
          "indexed": true,
          "internalType": "address",
          "name": "rewardToken",
          "type": "address"
        },
        {
          "indexed": false,
          "internalType": "uint256",
          "name": "reward",
          "type": "uint256"
        }
      ],
      "name": "RewardPaid",
      "type": "event"
    },
    {
      "anonymous": false,
      "inputs": [
        {
          "indexed": true,
          "internalType": "address",
          "name": "rewardToken",
          "type": "address"
        },
        {
          "indexed": false,
          "internalType": "address[]",
          "name": "existingRewardTokens",
          "type": "address[]"
        }
      ],
      "name": "RewardTokenAdded",
      "type": "event"
    },
    {
      "inputs": [],
      "name": "VERSION",
      "outputs": [
        {
          "internalType": "string",
          "name": "",
          "type": "string"
        }
      ],
      "stateMutability": "view",
      "type": "function"
    },
    {
      "inputs": [
        {
          "internalType": "address",
          "name": "_newRewardToken",
          "type": "address"
        }
      ],
      "name": "addRewardToken",
      "outputs": [],
      "stateMutability": "nonpayable",
      "type": "function"
    },
    {
      "inputs": [
        {
          "internalType": "address",
          "name": "_account",
          "type": "address"
        }
      ],
      "name": "claimReward",
      "outputs": [],
      "stateMutability": "nonpayable",
      "type": "function"
    },
    {
      "inputs": [
        {
          "internalType": "address",
          "name": "_account",
          "type": "address"
        }
      ],
      "name": "claimable",
      "outputs": [
        {
          "internalType": "address[]",
          "name": "_rewardTokens",
          "type": "address[]"
        },
        {
          "internalType": "uint256[]",
          "name": "_claimableAmounts",
          "type": "uint256[]"
        }
      ],
      "stateMutability": "view",
      "type": "function"
    },
    {
      "inputs": [],
      "name": "getRewardTokens",
      "outputs": [
        {
          "internalType": "address[]",
          "name": "",
          "type": "address[]"
        }
      ],
      "stateMutability": "view",
      "type": "function"
    },
    {
      "inputs": [],
      "name": "growToken",
      "outputs": [
        {
          "internalType": "address",
          "name": "",
          "type": "address"
        }
      ],
      "stateMutability": "view",
      "type": "function"
    },
    {
      "inputs": [
        {
          "internalType": "address",
          "name": "_pool",
          "type": "address"
        },
        {
          "internalType": "address[]",
          "name": "_rewardTokens",
          "type": "address[]"
        }
      ],
      "name": "initialize",
      "outputs": [],
      "stateMutability": "nonpayable",
      "type": "function"
    },
    {
      "inputs": [
        {
          "internalType": "address",
          "name": "",
          "type": "address"
        }
      ],
      "name": "isRewardToken",
      "outputs": [
        {
          "internalType": "bool",
          "name": "",
          "type": "bool"
        }
      ],
      "stateMutability": "view",
      "type": "function"
    },
    {
      "inputs": [
        {
          "internalType": "address",
          "name": "_rewardToken",
          "type": "address"
        }
      ],
      "name": "lastTimeRewardApplicable",
      "outputs": [
        {
          "internalType": "uint256",
          "name": "",
          "type": "uint256"
        }
      ],
      "stateMutability": "view",
      "type": "function"
    },
    {
      "inputs": [
        {
          "internalType": "address",
          "name": "",
          "type": "address"
        }
      ],
      "name": "lastUpdateTime",
      "outputs": [
        {
          "internalType": "uint256",
          "name": "",
          "type": "uint256"
        }
      ],
      "stateMutability": "view",
      "type": "function"
    },
    {
      "inputs": [
        {
          "internalType": "address",
          "name": "_rewardToken",
          "type": "address"
        },
        {
          "internalType": "uint256",
          "name": "_rewardAmount",
          "type": "uint256"
        },
        {
          "internalType": "uint256",
          "name": "_rewardDuration",
          "type": "uint256"
        }
      ],
      "name": "notifyRewardAmount",
      "outputs": [],
      "stateMutability": "nonpayable",
      "type": "function"
    },
    {
      "inputs": [
        {
          "internalType": "address[]",
          "name": "_rewardTokens",
          "type": "address[]"
        },
        {
          "internalType": "uint256[]",
          "name": "_rewardAmounts",
          "type": "uint256[]"
        },
        {
          "internalType": "uint256[]",
          "name": "_rewardDurations",
          "type": "uint256[]"
        }
      ],
      "name": "notifyRewardAmount",
      "outputs": [],
      "stateMutability": "nonpayable",
      "type": "function"
    },
    {
      "inputs": [
        {
          "internalType": "address",
          "name": "",
          "type": "address"
        }
      ],
      "name": "periodFinish",
      "outputs": [
        {
          "internalType": "uint256",
          "name": "",
          "type": "uint256"
        }
      ],
      "stateMutability": "view",
      "type": "function"
    },
    {
      "inputs": [],
      "name": "pool",
      "outputs": [
        {
          "internalType": "address",
          "name": "",
          "type": "address"
        }
      ],
      "stateMutability": "view",
      "type": "function"
    },
    {
      "inputs": [
        {
          "internalType": "address",
          "name": "",
          "type": "address"
        }
      ],
      "name": "rewardDuration",
      "outputs": [
        {
          "internalType": "uint256",
          "name": "",
          "type": "uint256"
        }
      ],
      "stateMutability": "view",
      "type": "function"
    },
    {
      "inputs": [],
      "name": "rewardForDuration",
      "outputs": [
        {
          "internalType": "address[]",
          "name": "_rewardTokens",
          "type": "address[]"
        },
        {
          "internalType": "uint256[]",
          "name": "_rewardForDuration",
          "type": "uint256[]"
        }
      ],
      "stateMutability": "view",
      "type": "function"
    },
    {
      "inputs": [],
      "name": "rewardPerToken",
      "outputs": [
        {
          "internalType": "address[]",
          "name": "_rewardTokens",
          "type": "address[]"
        },
        {
          "internalType": "uint256[]",
          "name": "_rewardPerTokenRate",
          "type": "uint256[]"
        }
      ],
      "stateMutability": "view",
      "type": "function"
    },
    {
      "inputs": [
        {
          "internalType": "address",
          "name": "",
          "type": "address"
        }
      ],
      "name": "rewardPerTokenStored",
      "outputs": [
        {
          "internalType": "uint256",
          "name": "",
          "type": "uint256"
        }
      ],
      "stateMutability": "view",
      "type": "function"
    },
    {
      "inputs": [
        {
          "internalType": "address",
          "name": "",
          "type": "address"
        }
      ],
      "name": "rewardRates",
      "outputs": [
        {
          "internalType": "uint256",
          "name": "",
          "type": "uint256"
        }
      ],
      "stateMutability": "view",
      "type": "function"
    },
    {
      "inputs": [
        {
          "internalType": "uint256",
          "name": "",
          "type": "uint256"
        }
      ],
      "name": "rewardTokens",
      "outputs": [
        {
          "internalType": "address",
          "name": "",
          "type": "address"
        }
      ],
      "stateMutability": "view",
      "type": "function"
    },
    {
      "inputs": [
        {
          "internalType": "address",
          "name": "",
          "type": "address"
        },
        {
          "internalType": "address",
          "name": "",
          "type": "address"
        }
      ],
      "name": "rewards",
      "outputs": [
        {
          "internalType": "uint256",
          "name": "",
          "type": "uint256"
        }
      ],
      "stateMutability": "view",
      "type": "function"
    },
    {
      "inputs": [
        {
          "internalType": "address",
          "name": "_newGrowToken",
          "type": "address"
        }
      ],
      "name": "updateGrowToken",
      "outputs": [],
      "stateMutability": "nonpayable",
      "type": "function"
    },
    {
      "inputs": [
        {
          "internalType": "address",
          "name": "_account",
          "type": "address"
        }
      ],
      "name": "updateReward",
      "outputs": [],
      "stateMutability": "nonpayable",
      "type": "function"
    },
    {
      "inputs": [
        {
          "internalType": "address",
          "name": "",
          "type": "address"
        },
        {
          "internalType": "address",
          "name": "",
          "type": "address"
        }
      ],
      "name": "userRewardPerTokenPaid",
      "outputs": [
        {
          "internalType": "uint256",
          "name": "",
          "type": "uint256"
        }
      ],
      "stateMutability": "view",
      "type": "function"
    },
    {
      "stateMutability": "payable",
      "type": "receive"
    }
  ],
  "transactionHash": "0x8e26afbb6c8d3d9e1154464b4bd6125445d514928c404a12986ce3191eb497b9",
  "args": [],
  "solcInputHash": "9c49ed26cdb21dc3aece13fa481cb7d2",
  "bytecode": "0x608060405234801561001057600080fd5b5060018055612f6f806100246000396000f3fe60806040526004361061014f5760003560e01c80639ce43f90116100b6578063d279c1911161006f578063d279c1911461047e578063da09d19d1461049e578063e49e463b146104cb578063e70b9e27146104eb578063e9c5448814610523578063ffa1ad7414610550576101b5565b80639ce43f901461039a578063a3cd8ac4146103c7578063b5fd73f8146103e7578063bcd68eb614610427578063c4f59f9b14610447578063cd3daf9d14610469576101b5565b8063638634ee11610108578063638634ee146102cd5780636946a235146102ed5780637035ab9814610302578063779158231461033a5780637bb7bed11461035a578063946d92041461037a576101b5565b806316f0115b146101ba5780631c03e6cc146101f75780632ce9aead146102175780633d3b260314610252578063402914f51461027f578063632447c9146102ad576101b5565b366101b5573373c02aaa39b223fe8d0a0e5c4f27ead9083c756cc2146101b35760405162461bcd60e51b815260206004820152601460248201527319195c1bdcda5d1ccb5b9bdd0b585b1b1bddd95960621b60448201526064015b60405180910390fd5b005b600080fd5b3480156101c657600080fd5b506002546101da906001600160a01b031681565b6040516001600160a01b0390911681526020015b60405180910390f35b34801561020357600080fd5b506101b3610212366004612a60565b61058f565b34801561022357600080fd5b50610244610232366004612a60565b60086020526000908152604090205481565b6040519081526020016101ee565b34801561025e57600080fd5b5061024461026d366004612a60565b60066020526000908152604090205481565b34801561028b57600080fd5b5061029f61029a366004612a60565b6107ad565b6040516101ee929190612cf7565b3480156102b957600080fd5b506101b36102c8366004612a60565b610afd565b3480156102d957600080fd5b506102446102e8366004612a60565b610c68565b3480156102f957600080fd5b5061029f610caf565b34801561030e57600080fd5b5061024461031d366004612a98565b600a60209081526000928352604080842090915290825290205481565b34801561034657600080fd5b506101b3610355366004612a60565b610e6d565b34801561036657600080fd5b506101da610375366004612c55565b61103d565b34801561038657600080fd5b506101b3610395366004612ad0565b611067565b3480156103a657600080fd5b506102446103b5366004612a60565b60096020526000908152604090205481565b3480156103d357600080fd5b506101b36103e2366004612b1e565b611255565b3480156103f357600080fd5b50610417610402366004612a60565b60046020526000908152604090205460ff1681565b60405190151581526020016101ee565b34801561043357600080fd5b506101b3610442366004612b52565b611453565b34801561045357600080fd5b5061045c61159a565b6040516101ee9190612ce4565b34801561047557600080fd5b5061029f6115fc565b34801561048a57600080fd5b506101b3610499366004612a60565b6117cb565b3480156104aa57600080fd5b506102446104b9366004612a60565b60056020526000908152604090205481565b3480156104d757600080fd5b50600c546101da906001600160a01b031681565b3480156104f757600080fd5b50610244610506366004612a98565b600b60209081526000928352604080842090915290825290205481565b34801561052f57600080fd5b5061024461053e366004612a60565b60076020526000908152604090205481565b34801561055c57600080fd5b5061058260405180604001604052806006815260200165332e302e313560d01b81525081565b6040516101ee9190612d90565b600260009054906101000a90046001600160a01b03166001600160a01b0316630c340a246040518163ffffffff1660e01b815260040160206040518083038186803b1580156105dd57600080fd5b505afa1580156105f1573d6000803e3d6000fd5b505050506040513d601f19601f820116820180604052508101906106159190612a7c565b6001600160a01b0316336001600160a01b0316146106455760405162461bcd60e51b81526004016101aa90612dc3565b6001600160a01b03811661069b5760405162461bcd60e51b815260206004820152601960248201527f7265776172642d746f6b656e2d616464726573732d7a65726f0000000000000060448201526064016101aa565b6001600160a01b03811660009081526004602052604090205460ff16156107045760405162461bcd60e51b815260206004820152601a60248201527f7265776172642d746f6b656e2d616c72656164792d657869737400000000000060448201526064016101aa565b806001600160a01b03167f438dc3ee1ea07ec168befb145c10eb363aad7cbec063f8a006b032031582ac2b600360405161073e9190612d40565b60405180910390a26003805460018181019092557fc2575a0e9e593c00f959f8c92f12db2869c3395a3b0502d05e2516446f71f85b0180546001600160a01b039093166001600160a01b031990931683179055600091825260046020526040909120805460ff19169091179055565b6060806000600260009054906101000a90046001600160a01b03166001600160a01b03166318160ddd6040518163ffffffff1660e01b815260040160206040518083038186803b15801561080057600080fd5b505afa158015610814573d6000803e3d6000fd5b505050506040513d601f19601f820116820180604052508101906108389190612c6d565b6002546040516370a0823160e01b81526001600160a01b038781166004830152929350600092909116906370a082319060240160206040518083038186803b15801561088357600080fd5b505afa158015610897573d6000803e3d6000fd5b505050506040513d601f19601f820116820180604052508101906108bb9190612c6d565b6003549091508067ffffffffffffffff8111156108e857634e487b7160e01b600052604160045260246000fd5b604051908082528060200260200182016040528015610911578160200160208202803683370190505b50935060005b81811015610a975760006109626003838154811061094557634e487b7160e01b600052603260045260246000fd5b6000918252602090912001546001600160a01b0316898787611acb565b600c54600380549293506001600160a01b03909116918490811061099657634e487b7160e01b600052603260045260246000fd5b6000918252602090912001546001600160a01b03161415610a5857670de0b6b3a764000081600c60009054906101000a90046001600160a01b03166001600160a01b03166399530b066040518163ffffffff1660e01b815260040160206040518083038186803b158015610a0957600080fd5b505afa158015610a1d573d6000803e3d6000fd5b505050506040513d601f19601f82011682018060405250810190610a419190612c6d565b610a4b9190612e78565b610a559190612e58565b90505b80868381518110610a7957634e487b7160e01b600052603260045260246000fd5b60209081029190910101525080610a8f81612eda565b915050610917565b506003805480602002602001604051908101604052809291908181526020018280548015610aee57602002820191906000526020600020905b81546001600160a01b03168152600190910190602001808311610ad0575b50505050509450505050915091565b600254604080516318160ddd60e01b815290516000926001600160a01b0316916318160ddd916004808301926020929190829003018186803b158015610b4257600080fd5b505afa158015610b56573d6000803e3d6000fd5b505050506040513d601f19601f82011682018060405250810190610b7a9190612c6d565b6002546040516370a0823160e01b81526001600160a01b038581166004830152929350600092909116906370a082319060240160206040518083038186803b158015610bc557600080fd5b505afa158015610bd9573d6000803e3d6000fd5b505050506040513d601f19601f82011682018060405250810190610bfd9190612c6d565b60035490915060005b81811015610c6157610c4f60038281548110610c3257634e487b7160e01b600052603260045260246000fd5b6000918252602090912001546001600160a01b0316868686611b69565b80610c5981612eda565b915050610c06565b5050505050565b6001600160a01b0381166000908152600560205260408120544210610ca5576001600160a01b038216600090815260056020526040902054610ca7565b425b90505b919050565b60035460609081908067ffffffffffffffff811115610cde57634e487b7160e01b600052604160045260246000fd5b604051908082528060200260200182016040528015610d07578160200160208202803683370190505b50915060005b81811015610e0a576007600060038381548110610d3a57634e487b7160e01b600052603260045260246000fd5b9060005260206000200160009054906101000a90046001600160a01b03166001600160a01b03166001600160a01b03168152602001908152602001600020546006600060038481548110610d9e57634e487b7160e01b600052603260045260246000fd5b60009182526020808320909101546001600160a01b03168352820192909252604001902054610dcd9190612e78565b838281518110610ded57634e487b7160e01b600052603260045260246000fd5b602090810291909101015280610e0281612eda565b915050610d0d565b506003805480602002602001604051908101604052809291908181526020018280548015610e6157602002820191906000526020600020905b81546001600160a01b03168152600190910190602001808311610e43575b50505050509250509091565b600260009054906101000a90046001600160a01b03166001600160a01b0316630c340a246040518163ffffffff1660e01b815260040160206040518083038186803b158015610ebb57600080fd5b505afa158015610ecf573d6000803e3d6000fd5b505050506040513d601f19601f82011682018060405250810190610ef39190612a7c565b6001600160a01b0316336001600160a01b031614610f235760405162461bcd60e51b81526004016101aa90612dc3565b6001600160a01b038116610f795760405162461bcd60e51b815260206004820152601760248201527f67726f772d746f6b656e2d616464726573732d7a65726f00000000000000000060448201526064016101aa565b6001600160a01b03811660009081526004602052604090205460ff16610fe15760405162461bcd60e51b815260206004820152601b60248201527f67726f772d746f6b656e2d6e6f742d7265776172642d746f6b656e000000000060448201526064016101aa565b600c546040516001600160a01b038084169216907fc6c586c49766db4941d0aabc5f53c29482efc6b62e9b1cc1a036f34b371da37290600090a3600c80546001600160a01b0319166001600160a01b0392909216919091179055565b6003818154811061104d57600080fd5b6000918252602090912001546001600160a01b0316905081565b600054610100900460ff1680611080575060005460ff16155b6110e35760405162461bcd60e51b815260206004820152602e60248201527f496e697469616c697a61626c653a20636f6e747261637420697320616c72656160448201526d191e481a5b9a5d1a585b1a5e995960921b60648201526084016101aa565b600054610100900460ff16158015611105576000805461ffff19166101011790555b6001600160a01b0383166111525760405162461bcd60e51b8152602060048201526014602482015273706f6f6c2d616464726573732d69732d7a65726f60601b60448201526064016101aa565b81516111985760405162461bcd60e51b8152602060048201526015602482015274696e76616c69642d7265776172642d746f6b656e7360581b60448201526064016101aa565b600280546001600160a01b0319166001600160a01b03851617905581516111c6906003906020850190612901565b5060005b825181101561123d576001600460008584815181106111f957634e487b7160e01b600052603260045260246000fd5b6020908102919091018101516001600160a01b03168252810191909152604001600020805460ff19169115159190911790558061123581612eda565b9150506111ca565b508015611250576000805461ff00191690555b505050565b60025460405163228bfd9f60e01b81523360048201526000916001600160a01b03169063228bfd9f906024016101006040518083038186803b15801561129a57600080fd5b505afa1580156112ae573d6000803e3d6000fd5b505050506040513d601f19601f820116820180604052508101906112d29190612bf0565b505050505050509050600260009054906101000a90046001600160a01b03166001600160a01b0316630c340a246040518163ffffffff1660e01b815260040160206040518083038186803b15801561132957600080fd5b505afa15801561133d573d6000803e3d6000fd5b505050506040513d601f19601f820116820180604052508101906113619190612a7c565b6001600160a01b0316336001600160a01b031614806113a057506001600160a01b03841660009081526004602052604090205460ff1680156113a05750805b6113bc5760405162461bcd60e51b81526004016101aa90612dc3565b61144d848484600260009054906101000a90046001600160a01b03166001600160a01b03166318160ddd6040518163ffffffff1660e01b815260040160206040518083038186803b15801561141057600080fd5b505afa158015611424573d6000803e3d6000fd5b505050506040513d601f19601f820116820180604052508101906114489190612c6d565b611c12565b50505050565b600260009054906101000a90046001600160a01b03166001600160a01b0316630c340a246040518163ffffffff1660e01b815260040160206040518083038186803b1580156114a157600080fd5b505afa1580156114b5573d6000803e3d6000fd5b505050506040513d601f19601f820116820180604052508101906114d99190612a7c565b6001600160a01b0316336001600160a01b0316146115095760405162461bcd60e51b81526004016101aa90612dc3565b611250838383600260009054906101000a90046001600160a01b03166001600160a01b03166318160ddd6040518163ffffffff1660e01b815260040160206040518083038186803b15801561155d57600080fd5b505afa158015611571573d6000803e3d6000fd5b505050506040513d601f19601f820116820180604052508101906115959190612c6d565b611fa9565b606060038054806020026020016040519081016040528092919081815260200182805480156115f257602002820191906000526020600020905b81546001600160a01b031681526001909101906020018083116115d4575b5050505050905090565b6060806000600260009054906101000a90046001600160a01b03166001600160a01b03166318160ddd6040518163ffffffff1660e01b815260040160206040518083038186803b15801561164f57600080fd5b505afa158015611663573d6000803e3d6000fd5b505050506040513d601f19601f820116820180604052508101906116879190612c6d565b6003549091508067ffffffffffffffff8111156116b457634e487b7160e01b600052604160045260246000fd5b6040519080825280602002602001820160405280156116dd578160200160208202803683370190505b50925060005b818110156117675761172a6003828154811061170f57634e487b7160e01b600052603260045260246000fd5b6000918252602090912001546001600160a01b031684612181565b84828151811061174a57634e487b7160e01b600052603260045260246000fd5b60209081029190910101528061175f81612eda565b9150506116e3565b5060038054806020026020016040519081016040528092919081815260200182805480156117be57602002820191906000526020600020905b81546001600160a01b031681526001909101906020018083116117a0575b5050505050935050509091565b6002600154141561181e5760405162461bcd60e51b815260206004820152601f60248201527f5265656e7472616e637947756172643a207265656e7472616e742063616c6c0060448201526064016101aa565b6002600181905554604080516318160ddd60e01b815290516000926001600160a01b0316916318160ddd916004808301926020929190829003018186803b15801561186857600080fd5b505afa15801561187c573d6000803e3d6000fd5b505050506040513d601f19601f820116820180604052508101906118a09190612c6d565b6002546040516370a0823160e01b81526001600160a01b038581166004830152929350600092909116906370a082319060240160206040518083038186803b1580156118eb57600080fd5b505afa1580156118ff573d6000803e3d6000fd5b505050506040513d601f19601f820116820180604052508101906119239190612c6d565b60035490915060005b81811015611ac05760006003828154811061195757634e487b7160e01b600052603260045260246000fd5b6000918252602090912001546001600160a01b0316905061197a81878787611b69565b6001600160a01b038082166000908152600b60209081526040808320938a16835292905220548015801590611a2557506040516370a0823160e01b81523060048201526001600160a01b038316906370a082319060240160206040518083038186803b1580156119e957600080fd5b505afa1580156119fd573d6000803e3d6000fd5b505050506040513d601f19601f82011682018060405250810190611a219190612c6d565b8111155b15611aab576001600160a01b038083166000908152600b60209081526040808320938b16835292905290812055611a5d82888361224e565b816001600160a01b0316876001600160a01b03167f540798df468d7b23d11f156fdb954cb19ad414d150722a7b6d55ba369dea792e83604051611aa291815260200190565b60405180910390a35b50508080611ab890612eda565b91505061192c565b505060018055505050565b6001600160a01b038085166000908152600a602090815260408083209387168352929052908120548190611aff8786612181565b611b099190612e97565b90506000670de0b6b3a7640000611b208386612e78565b611b2a9190612e58565b6001600160a01b038089166000908152600b60209081526040808320938b1683529290522054909150611b5e908290612e40565b979650505050505050565b6000611b758584612181565b6001600160a01b03861660009081526009602052604090208190559050611b9b85610c68565b6001600160a01b03808716600090815260086020526040902091909155841615610c6157611bcb85858585611acb565b6001600160a01b038087166000818152600b60209081526040808320948a1680845294825280832095909555918152600a8252838120928152919052208190555050505050565b6001600160a01b038416611c615760405162461bcd60e51b815260206004820152601660248201527534b731b7b93932b1ba16b932bbb0b93216ba37b5b2b760511b60448201526064016101aa565b82611cae5760405162461bcd60e51b815260206004820152601760248201527f696e636f72726563742d7265776172642d616d6f756e7400000000000000000060448201526064016101aa565b81611cfb5760405162461bcd60e51b815260206004820152601960248201527f696e636f72726563742d7265776172642d6475726174696f6e0000000000000060448201526064016101aa565b6001600160a01b03841660009081526004602052604090205460ff16611d5a5760405162461bcd60e51b815260206004820152601460248201527334b73b30b634b216b932bbb0b93216ba37b5b2b760611b60448201526064016101aa565b611d648482612181565b6001600160a01b0385166000908152600960209081526040808320939093556005905220544210611db757611d998284612e58565b6001600160a01b038516600090815260066020526040902055611e35565b6001600160a01b038416600090815260056020526040812054611ddb904290612e97565b6001600160a01b03861660009081526006602052604081205491925090611e029083612e78565b905083611e0f8287612e40565b611e199190612e58565b6001600160a01b03871660009081526006602052604090205550505b6040516370a0823160e01b81523060048201526000906001600160a01b038616906370a082319060240160206040518083038186803b158015611e7757600080fd5b505afa158015611e8b573d6000803e3d6000fd5b505050506040513d601f19601f82011682018060405250810190611eaf9190612c6d565b9050611ebb8382612e58565b6001600160a01b0386166000908152600660205260409020541115611f155760405162461bcd60e51b815260206004820152601060248201526f0e4caeec2e4c8e65ae8dede5ad0d2ced60831b60448201526064016101aa565b6001600160a01b0385166000908152600760209081526040808320869055600890915290204290819055611f4a908490612e40565b6001600160a01b03861660008181526005602090815260409182902093909355805187815292830186905290917f6a6f77044107a33658235d41bedbbaf2fe9ccdceb313143c947a5e76e1ec8474910160405180910390a25050505050565b83518351835182611ff45760405162461bcd60e51b8152602060048201526015602482015274696e76616c69642d7265776172642d746f6b656e7360581b60448201526064016101aa565b8161203a5760405162461bcd60e51b8152602060048201526016602482015275696e76616c69642d7265776172642d616d6f756e747360501b60448201526064016101aa565b806120875760405162461bcd60e51b815260206004820152601860248201527f696e76616c69642d7265776172642d6475726174696f6e73000000000000000060448201526064016101aa565b818314801561209557508083145b6120d95760405162461bcd60e51b81526020600482015260156024820152740c2e4e4c2f25ad8cadccee8d05adad2e6dac2e8c6d605b1b60448201526064016101aa565b60005b838110156121775761216588828151811061210757634e487b7160e01b600052603260045260246000fd5b602002602001015188838151811061212f57634e487b7160e01b600052603260045260246000fd5b602002602001015188848151811061215757634e487b7160e01b600052603260045260246000fd5b602002602001015188611c12565b8061216f81612eda565b9150506120dc565b5050505050505050565b6000816121a757506001600160a01b038216600090815260096020526040902054612248565b6001600160a01b0383166000908152600860205260408120546121c985610c68565b6121d39190612e97565b6001600160a01b038516600090815260066020526040812054919250906121fa9083612e78565b905060008461221183670de0b6b3a7640000612e78565b61221b9190612e58565b6001600160a01b038716600090815260096020526040902054909150612242908290612e40565b93505050505b92915050565b600c546001600160a01b038481169116141561253b576000836001600160a01b031663fc0c546a6040518163ffffffff1660e01b815260040160206040518083038186803b15801561229f57600080fd5b505afa1580156122b3573d6000803e3d6000fd5b505050506040513d601f19601f820116820180604052508101906122d79190612a7c565b6040516370a0823160e01b81523060048201529091506000906001600160a01b038316906370a082319060240160206040518083038186803b15801561231c57600080fd5b505afa158015612330573d6000803e3d6000fd5b505050506040513d601f19601f820116820180604052508101906123549190612c6d565b604051632e1a7d4d60e01b8152600481018590529091506001600160a01b03861690632e1a7d4d90602401600060405180830381600087803b15801561239957600080fd5b505af11580156123ad573d6000803e3d6000fd5b50506040516370a0823160e01b8152306004820152600092508391506001600160a01b038516906370a082319060240160206040518083038186803b1580156123f557600080fd5b505afa158015612409573d6000803e3d6000fd5b505050506040513d601f19601f8201168201806040525081019061242d9190612c6d565b6124379190612e97565b90506001600160a01b03831673c02aaa39b223fe8d0a0e5c4f27ead9083c756cc214156124d257604051632e1a7d4d60e01b81526004810182905273c02aaa39b223fe8d0a0e5c4f27ead9083c756cc290632e1a7d4d90602401600060405180830381600087803b1580156124ab57600080fd5b505af11580156124bf573d6000803e3d6000fd5b505050506124cd8582612546565b6124e6565b6124e66001600160a01b038416868361265f565b826001600160a01b0316856001600160a01b03167ff9d22c8b8042556a691815c80c733b36d6636b695259c99ca391be302bcb6ef78360405161252b91815260200190565b60405180910390a3505050611250565b6112508383836126b1565b804710156125965760405162461bcd60e51b815260206004820152601d60248201527f416464726573733a20696e73756666696369656e742062616c616e636500000060448201526064016101aa565b6000826001600160a01b03168260405160006040518083038185875af1925050503d80600081146125e3576040519150601f19603f3d011682016040523d82523d6000602084013e6125e8565b606091505b50509050806112505760405162461bcd60e51b815260206004820152603a60248201527f416464726573733a20756e61626c6520746f2073656e642076616c75652c207260448201527f6563697069656e74206d6179206861766520726576657274656400000000000060648201526084016101aa565b604080516001600160a01b038416602482015260448082018490528251808303909101815260649091019091526020810180516001600160e01b031663a9059cbb60e01b1790526112509084906126c5565b6112506001600160a01b038416838361265f565b600061271a826040518060400160405280602081526020017f5361666545524332303a206c6f772d6c6576656c2063616c6c206661696c6564815250856001600160a01b03166127979092919063ffffffff16565b80519091501561125057808060200190518101906127389190612bd6565b6112505760405162461bcd60e51b815260206004820152602a60248201527f5361666545524332303a204552433230206f7065726174696f6e20646964206e6044820152691bdd081cdd58d8d9595960b21b60648201526084016101aa565b60606127a684846000856127b0565b90505b9392505050565b6060824710156128115760405162461bcd60e51b815260206004820152602660248201527f416464726573733a20696e73756666696369656e742062616c616e636520666f6044820152651c8818d85b1b60d21b60648201526084016101aa565b843b61285f5760405162461bcd60e51b815260206004820152601d60248201527f416464726573733a2063616c6c20746f206e6f6e2d636f6e747261637400000060448201526064016101aa565b600080866001600160a01b0316858760405161287b9190612cc8565b60006040518083038185875af1925050503d80600081146128b8576040519150601f19603f3d011682016040523d82523d6000602084013e6128bd565b606091505b5091509150611b5e828286606083156128d75750816127a9565b8251156128e75782518084602001fd5b8160405162461bcd60e51b81526004016101aa9190612d90565b828054828255906000526020600020908101928215612956579160200282015b8281111561295657825182546001600160a01b0319166001600160a01b03909116178255602090920191600190910190612921565b50612962929150612966565b5090565b5b808211156129625760008155600101612967565b600082601f83011261298b578081fd5b813560206129a061299b83612e1c565b612deb565b80838252828201915082860187848660051b89010111156129bf578586fd5b855b858110156129e65781356129d481612f21565b845292840192908401906001016129c1565b5090979650505050505050565b600082601f830112612a03578081fd5b81356020612a1361299b83612e1c565b80838252828201915082860187848660051b8901011115612a32578586fd5b855b858110156129e657813584529284019290840190600101612a34565b80518015158114610caa57600080fd5b600060208284031215612a71578081fd5b81356127a981612f21565b600060208284031215612a8d578081fd5b81516127a981612f21565b60008060408385031215612aaa578081fd5b8235612ab581612f21565b91506020830135612ac581612f21565b809150509250929050565b60008060408385031215612ae2578182fd5b8235612aed81612f21565b9150602083013567ffffffffffffffff811115612b08578182fd5b612b148582860161297b565b9150509250929050565b600080600060608486031215612b32578081fd5b8335612b3d81612f21565b95602085013595506040909401359392505050565b600080600060608486031215612b66578283fd5b833567ffffffffffffffff80821115612b7d578485fd5b612b898783880161297b565b94506020860135915080821115612b9e578384fd5b612baa878388016129f3565b93506040860135915080821115612bbf578283fd5b50612bcc868287016129f3565b9150509250925092565b600060208284031215612be7578081fd5b6127a982612a50565b600080600080600080600080610100898b031215612c0c578384fd5b612c1589612a50565b97506020890151965060408901519550606089015194506080890151935060a0890151925060c0890151915060e089015190509295985092959890939650565b600060208284031215612c66578081fd5b5035919050565b600060208284031215612c7e578081fd5b5051919050565b6000815180845260208085019450808401835b83811015612cbd5781516001600160a01b031687529582019590820190600101612c98565b509495945050505050565b60008251612cda818460208701612eae565b9190910192915050565b6000602082526127a96020830184612c85565b600060408252612d0a6040830185612c85565b828103602084810191909152845180835285820192820190845b818110156129e657845183529383019391830191600101612d24565b6020808252825482820181905260008481528281209092916040850190845b81811015612d845783546001600160a01b031683526001938401939285019201612d5f565b50909695505050505050565b6000602082528251806020840152612daf816040850160208701612eae565b601f01601f19169190910160400192915050565b6020808252600e908201526d1b9bdd0b585d5d1a1bdc9a5e995960921b604082015260600190565b604051601f8201601f1916810167ffffffffffffffff81118282101715612e1457612e14612f0b565b604052919050565b600067ffffffffffffffff821115612e3657612e36612f0b565b5060051b60200190565b60008219821115612e5357612e53612ef5565b500190565b600082612e7357634e487b7160e01b81526012600452602481fd5b500490565b6000816000190483118215151615612e9257612e92612ef5565b500290565b600082821015612ea957612ea9612ef5565b500390565b60005b83811015612ec9578181015183820152602001612eb1565b8381111561144d5750506000910152565b6000600019821415612eee57612eee612ef5565b5060010190565b634e487b7160e01b600052601160045260246000fd5b634e487b7160e01b600052604160045260246000fd5b6001600160a01b0381168114612f3657600080fd5b5056fea2646970667358221220ddfca361f2e9fb0bd3c7355150f6ea4873d01ddd7b06e56c92606d882e397cc364736f6c63430008030033",
  "devdoc": {
    "kind": "dev",
    "methods": {
      "claimReward(address)": {
        "details": "This function will claim rewards for all tokens being rewarded"
      },
      "claimable(address)": {
        "details": "In case of growToken it will return the actual underlying value",
        "returns": {
          "_claimableAmounts": "Array of claimable for token on same index in rewardTokens",
          "_rewardTokens": "Array of tokens being rewarded"
        }
      },
      "initialize(address,address[])": {
        "details": "Called by proxy to initialize this contract",
        "params": {
          "_pool": "Vesper pool address",
          "_rewardTokens": "Array of reward token addresses"
        }
      },
      "notifyRewardAmount(address,uint256,uint256)": {
        "details": "Notify that reward is added. Also updates reward rate and reward earning period."
      },
      "notifyRewardAmount(address[],uint256[],uint256[])": {
        "details": "Also updates reward rate and reward earning period.",
        "params": {
          "_rewardAmounts": "Rewards amount for token on same index in rewardTokens array",
          "_rewardDurations": "Duration for which reward will be distributed",
          "_rewardTokens": "Tokens being rewarded"
        }
      },
      "rewardPerToken()": {
        "returns": {
          "_rewardPerTokenRate": "Array of Rewards rate for token on same index in rewardTokens",
          "_rewardTokens": "Array of tokens being rewarded"
        }
      },
      "updateGrowToken(address)": {
        "details": "growToken is used to check whether to call withdraw from Grow Pool or not"
      }
    },
    "version": 1
  },
  "userdoc": {
    "events": {
      "RewardAdded(address,uint256,uint256)": {
        "notice": "Emitted after reward added"
      },
      "RewardPaid(address,address,uint256)": {
        "notice": "Emitted whenever any user claim rewards"
      },
      "RewardTokenAdded(address,address[])": {
        "notice": "Emitted after adding new rewards token into rewardTokens array"
      }
    },
    "kind": "user",
    "methods": {
      "addRewardToken(address)": {
        "notice": "Add new reward token in existing rewardsToken array"
      },
      "claimReward(address)": {
        "notice": "Claim earned rewards."
      },
      "claimable(address)": {
        "notice": "Returns claimable reward amount."
      },
      "getRewardTokens()": {
        "notice": "Provides easy access to all rewardTokens"
      },
      "isRewardToken(address)": {
        "notice": "Reward token to valid/invalid flag mapping"
      },
      "lastTimeRewardApplicable(address)": {
        "notice": "Returns timestamp of last reward update"
      },
      "lastUpdateTime(address)": {
        "notice": "Reward token to Last reward drip update time stamp mapping"
      },
      "notifyRewardAmount(address[],uint256[],uint256[])": {
        "notice": "Notify that reward is added. Only authorized caller can call"
      },
      "periodFinish(address)": {
        "notice": "Reward token to period ending of current reward"
      },
      "pool()": {
        "notice": "Vesper pool address"
      },
      "rewardDuration(address)": {
        "notice": "Reward token to Duration of current reward distribution"
      },
      "rewardPerToken()": {
        "notice": "Rewards rate per pool token"
      },
      "rewardPerTokenStored(address)": {
        "notice": "Reward token to Reward per token mapping. Calculated and stored at last drip update"
      },
      "rewardRates(address)": {
        "notice": "Reward token to current reward rate mapping"
      },
      "rewardTokens(uint256)": {
        "notice": "Array of reward token addresses"
      },
      "rewards(address,address)": {
        "notice": "RewardToken => User => Rewards earned till last reward update"
      },
      "updateGrowToken(address)": {
        "notice": "Defines which rewardToken is a growToken"
      },
      "updateReward(address)": {
        "notice": "Updated reward for given account."
      },
      "userRewardPerTokenPaid(address,address)": {
        "notice": "Reward token => User => Reward per token stored at last reward update"
      }
    },
    "version": 1
  },
  "storageLayout": {
    "storage": [
      {
        "astId": 887,
        "contract": "contracts/pool/earn/EarnDrip.sol:VesperEarnDrip",
        "label": "_initialized",
        "offset": 0,
        "slot": "0",
        "type": "t_bool"
      },
      {
        "astId": 890,
        "contract": "contracts/pool/earn/EarnDrip.sol:VesperEarnDrip",
        "label": "_initializing",
        "offset": 1,
        "slot": "0",
        "type": "t_bool"
      },
      {
        "astId": 938,
        "contract": "contracts/pool/earn/EarnDrip.sol:VesperEarnDrip",
        "label": "_status",
        "offset": 0,
        "slot": "1",
        "type": "t_uint256"
      },
      {
        "astId": 9005,
        "contract": "contracts/pool/earn/EarnDrip.sol:VesperEarnDrip",
        "label": "pool",
        "offset": 0,
        "slot": "2",
        "type": "t_address"
      },
      {
        "astId": 9009,
        "contract": "contracts/pool/earn/EarnDrip.sol:VesperEarnDrip",
        "label": "rewardTokens",
        "offset": 0,
        "slot": "3",
        "type": "t_array(t_address)dyn_storage"
      },
      {
        "astId": 9014,
        "contract": "contracts/pool/earn/EarnDrip.sol:VesperEarnDrip",
        "label": "isRewardToken",
        "offset": 0,
        "slot": "4",
        "type": "t_mapping(t_address,t_bool)"
      },
      {
        "astId": 9019,
        "contract": "contracts/pool/earn/EarnDrip.sol:VesperEarnDrip",
        "label": "periodFinish",
        "offset": 0,
        "slot": "5",
        "type": "t_mapping(t_address,t_uint256)"
      },
      {
        "astId": 9024,
        "contract": "contracts/pool/earn/EarnDrip.sol:VesperEarnDrip",
        "label": "rewardRates",
        "offset": 0,
        "slot": "6",
        "type": "t_mapping(t_address,t_uint256)"
      },
      {
        "astId": 9029,
        "contract": "contracts/pool/earn/EarnDrip.sol:VesperEarnDrip",
        "label": "rewardDuration",
        "offset": 0,
        "slot": "7",
        "type": "t_mapping(t_address,t_uint256)"
      },
      {
        "astId": 9034,
        "contract": "contracts/pool/earn/EarnDrip.sol:VesperEarnDrip",
        "label": "lastUpdateTime",
        "offset": 0,
        "slot": "8",
        "type": "t_mapping(t_address,t_uint256)"
      },
      {
        "astId": 9039,
        "contract": "contracts/pool/earn/EarnDrip.sol:VesperEarnDrip",
        "label": "rewardPerTokenStored",
        "offset": 0,
        "slot": "9",
        "type": "t_mapping(t_address,t_uint256)"
      },
      {
        "astId": 9046,
        "contract": "contracts/pool/earn/EarnDrip.sol:VesperEarnDrip",
        "label": "userRewardPerTokenPaid",
        "offset": 0,
        "slot": "10",
        "type": "t_mapping(t_address,t_mapping(t_address,t_uint256))"
      },
      {
        "astId": 9053,
        "contract": "contracts/pool/earn/EarnDrip.sol:VesperEarnDrip",
        "label": "rewards",
        "offset": 0,
        "slot": "11",
        "type": "t_mapping(t_address,t_mapping(t_address,t_uint256))"
      },
      {
        "astId": 11908,
        "contract": "contracts/pool/earn/EarnDrip.sol:VesperEarnDrip",
        "label": "growToken",
        "offset": 0,
        "slot": "12",
        "type": "t_address"
      }
    ],
    "types": {
      "t_address": {
        "encoding": "inplace",
        "label": "address",
        "numberOfBytes": "20"
      },
      "t_array(t_address)dyn_storage": {
        "base": "t_address",
        "encoding": "dynamic_array",
        "label": "address[]",
        "numberOfBytes": "32"
      },
      "t_bool": {
        "encoding": "inplace",
        "label": "bool",
        "numberOfBytes": "1"
      },
      "t_mapping(t_address,t_bool)": {
        "encoding": "mapping",
        "key": "t_address",
        "label": "mapping(address => bool)",
        "numberOfBytes": "32",
        "value": "t_bool"
      },
      "t_mapping(t_address,t_mapping(t_address,t_uint256))": {
        "encoding": "mapping",
        "key": "t_address",
        "label": "mapping(address => mapping(address => uint256))",
        "numberOfBytes": "32",
        "value": "t_mapping(t_address,t_uint256)"
      },
      "t_mapping(t_address,t_uint256)": {
        "encoding": "mapping",
        "key": "t_address",
        "label": "mapping(address => uint256)",
        "numberOfBytes": "32",
        "value": "t_uint256"
      },
      "t_uint256": {
        "encoding": "inplace",
        "label": "uint256",
        "numberOfBytes": "32"
      }
    }
  }
}