{
  "address": "0xeCe0f32840280aD0069Dd89Ad97Ad6dF1bB0fF2A",
  "abi": [
    {
      "inputs": [
        {
          "internalType": "address",
          "name": "_pool",
          "type": "address"
        },
        {
          "internalType": "address",
          "name": "_swapManager",
          "type": "address"
        }
      ],
      "stateMutability": "nonpayable",
      "type": "constructor"
    },
    {
      "anonymous": false,
      "inputs": [
        {
          "indexed": true,
          "internalType": "address",
          "name": "previousFeeCollector",
          "type": "address"
        },
        {
          "indexed": true,
          "internalType": "address",
          "name": "newFeeCollector",
          "type": "address"
        }
      ],
      "name": "UpdatedFeeCollector",
      "type": "event"
    },
    {
      "anonymous": false,
      "inputs": [
        {
          "indexed": false,
          "internalType": "uint256",
          "name": "oldPeriod",
          "type": "uint256"
        },
        {
          "indexed": false,
          "internalType": "uint256",
          "name": "newPeriod",
          "type": "uint256"
        },
        {
          "indexed": false,
          "internalType": "uint256",
          "name": "oldRouterIdx",
          "type": "uint256"
        },
        {
          "indexed": false,
          "internalType": "uint256",
          "name": "newRouterIdx",
          "type": "uint256"
        }
      ],
      "name": "UpdatedOracleConfig",
      "type": "event"
    },
    {
      "anonymous": false,
      "inputs": [
        {
          "indexed": true,
          "internalType": "address",
          "name": "previousSwapManager",
          "type": "address"
        },
        {
          "indexed": true,
          "internalType": "address",
          "name": "newSwapManager",
          "type": "address"
        }
      ],
      "name": "UpdatedSwapManager",
      "type": "event"
    },
    {
      "anonymous": false,
      "inputs": [
        {
          "indexed": false,
          "internalType": "uint256",
          "name": "oldSwapSlippage",
          "type": "uint256"
        },
        {
          "indexed": false,
          "internalType": "uint256",
          "name": "newSwapSlippage",
          "type": "uint256"
        }
      ],
      "name": "UpdatedSwapSlippage",
      "type": "event"
    },
    {
      "inputs": [],
      "name": "NAME",
      "outputs": [
        {
          "internalType": "string",
          "name": "",
          "type": "string"
        }
      ],
      "stateMutability": "view",
      "type": "function"
    },
    {
      "inputs": [],
      "name": "VERSION",
      "outputs": [
        {
          "internalType": "string",
          "name": "",
          "type": "string"
        }
      ],
      "stateMutability": "view",
      "type": "function"
    },
    {
      "inputs": [
        {
          "internalType": "address",
          "name": "_keeperAddress",
          "type": "address"
        }
      ],
      "name": "addKeeper",
      "outputs": [],
      "stateMutability": "nonpayable",
      "type": "function"
    },
    {
      "inputs": [],
      "name": "approveToken",
      "outputs": [],
      "stateMutability": "nonpayable",
      "type": "function"
    },
    {
      "inputs": [
        {
          "internalType": "uint256",
          "name": "amount",
          "type": "uint256"
        },
        {
          "internalType": "bytes32[]",
          "name": "proof",
          "type": "bytes32[]"
        }
      ],
      "name": "claimUTokenReward",
      "outputs": [],
      "stateMutability": "nonpayable",
      "type": "function"
    },
    {
      "inputs": [],
      "name": "collateralToken",
      "outputs": [
        {
          "internalType": "contract IERC20",
          "name": "",
          "type": "address"
        }
      ],
      "stateMutability": "view",
      "type": "function"
    },
    {
      "inputs": [
        {
          "internalType": "uint256",
          "name": "amount",
          "type": "uint256"
        }
      ],
      "name": "convertFrom18",
      "outputs": [
        {
          "internalType": "uint256",
          "name": "",
          "type": "uint256"
        }
      ],
      "stateMutability": "pure",
      "type": "function"
    },
    {
      "inputs": [],
      "name": "feeCollector",
      "outputs": [
        {
          "internalType": "address",
          "name": "",
          "type": "address"
        }
      ],
      "stateMutability": "view",
      "type": "function"
    },
    {
      "inputs": [
        {
          "internalType": "address",
          "name": "_addressListFactory",
          "type": "address"
        }
      ],
      "name": "init",
      "outputs": [],
      "stateMutability": "nonpayable",
      "type": "function"
    },
    {
      "inputs": [
        {
          "internalType": "address",
          "name": "_token",
          "type": "address"
        }
      ],
      "name": "isReservedToken",
      "outputs": [
        {
          "internalType": "bool",
          "name": "",
          "type": "bool"
        }
      ],
      "stateMutability": "view",
      "type": "function"
    },
    {
      "inputs": [],
      "name": "keepers",
      "outputs": [
        {
          "internalType": "contract IAddressList",
          "name": "",
          "type": "address"
        }
      ],
      "stateMutability": "view",
      "type": "function"
    },
    {
      "inputs": [
        {
          "internalType": "address",
          "name": "_newStrategy",
          "type": "address"
        }
      ],
      "name": "migrate",
      "outputs": [],
      "stateMutability": "nonpayable",
      "type": "function"
    },
    {
      "inputs": [],
      "name": "oraclePeriod",
      "outputs": [
        {
          "internalType": "uint256",
          "name": "",
          "type": "uint256"
        }
      ],
      "stateMutability": "view",
      "type": "function"
    },
    {
      "inputs": [],
      "name": "oracleRouterIdx",
      "outputs": [
        {
          "internalType": "uint256",
          "name": "",
          "type": "uint256"
        }
      ],
      "stateMutability": "view",
      "type": "function"
    },
    {
      "inputs": [],
      "name": "pool",
      "outputs": [
        {
          "internalType": "address",
          "name": "",
          "type": "address"
        }
      ],
      "stateMutability": "view",
      "type": "function"
    },
    {
      "inputs": [],
      "name": "rebalance",
      "outputs": [],
      "stateMutability": "nonpayable",
      "type": "function"
    },
    {
      "inputs": [],
      "name": "receiptToken",
      "outputs": [
        {
          "internalType": "address",
          "name": "",
          "type": "address"
        }
      ],
      "stateMutability": "view",
      "type": "function"
    },
    {
      "inputs": [
        {
          "internalType": "address",
          "name": "_keeperAddress",
          "type": "address"
        }
      ],
      "name": "removeKeeper",
      "outputs": [],
      "stateMutability": "nonpayable",
      "type": "function"
    },
    {
      "inputs": [],
      "name": "setupOracles",
      "outputs": [],
      "stateMutability": "nonpayable",
      "type": "function"
    },
    {
      "inputs": [],
      "name": "swapManager",
      "outputs": [
        {
          "internalType": "contract ISwapManager",
          "name": "",
          "type": "address"
        }
      ],
      "stateMutability": "view",
      "type": "function"
    },
    {
      "inputs": [],
      "name": "swapSlippage",
      "outputs": [
        {
          "internalType": "uint256",
          "name": "",
          "type": "uint256"
        }
      ],
      "stateMutability": "view",
      "type": "function"
    },
    {
      "inputs": [
        {
          "internalType": "address",
          "name": "_fromToken",
          "type": "address"
        }
      ],
      "name": "sweepERC20",
      "outputs": [],
      "stateMutability": "nonpayable",
      "type": "function"
    },
    {
      "inputs": [],
      "name": "token",
      "outputs": [
        {
          "internalType": "address",
          "name": "",
          "type": "address"
        }
      ],
      "stateMutability": "view",
      "type": "function"
    },
    {
      "inputs": [],
      "name": "totalValue",
      "outputs": [
        {
          "internalType": "uint256",
          "name": "_totalValue",
          "type": "uint256"
        }
      ],
      "stateMutability": "view",
      "type": "function"
    },
    {
      "inputs": [
        {
          "internalType": "address",
          "name": "_feeCollector",
          "type": "address"
        }
      ],
      "name": "updateFeeCollector",
      "outputs": [],
      "stateMutability": "nonpayable",
      "type": "function"
    },
    {
      "inputs": [
        {
          "internalType": "uint256",
          "name": "_newPeriod",
          "type": "uint256"
        },
        {
          "internalType": "uint256",
          "name": "_newRouterIdx",
          "type": "uint256"
        }
      ],
      "name": "updateOracleConfig",
      "outputs": [],
      "stateMutability": "nonpayable",
      "type": "function"
    },
    {
      "inputs": [
        {
          "internalType": "address",
          "name": "_swapManager",
          "type": "address"
        }
      ],
      "name": "updateSwapManager",
      "outputs": [],
      "stateMutability": "nonpayable",
      "type": "function"
    },
    {
      "inputs": [
        {
          "internalType": "uint256",
          "name": "_newSwapSlippage",
          "type": "uint256"
        }
      ],
      "name": "updateSwapSlippage",
      "outputs": [],
      "stateMutability": "nonpayable",
      "type": "function"
    },
    {
      "inputs": [],
      "name": "updateTokenRate",
      "outputs": [
        {
          "internalType": "uint256",
          "name": "",
          "type": "uint256"
        }
      ],
      "stateMutability": "nonpayable",
      "type": "function"
    },
    {
      "inputs": [
        {
          "internalType": "uint256",
          "name": "_amount",
          "type": "uint256"
        }
      ],
      "name": "withdraw",
      "outputs": [],
      "stateMutability": "nonpayable",
      "type": "function"
    },
    {
      "stateMutability": "payable",
      "type": "receive"
    }
  ],
  "transactionHash": "0xee599ecb3c9b6e8fe2073862eec80e2a13ab81f53b21d4edf44ede8f83cca234",
  "args": [
    "0xd1C117319B3595fbc39b471AB1fd485629eb05F2",
    "0xe382d9f2394A359B01006faa8A1864b8a60d2710"
  ],
  "solcInputHash": "b399f1fb85769b515804c5518275fb6b",
  "bytecode": "0x60e0604052610e1060045560006005556127106006553480156200002257600080fd5b506040516200424438038062004244833981016040819052620000459162000361565b818173eea3311250fe4c3268f8e684f7c87a82ff183ec18282826001600160a01b038316620000bb5760405162461bcd60e51b815260206004820152601460248201527f706f6f6c2d616464726573732d69732d7a65726f00000000000000000000000060448201526064015b60405180910390fd5b6001600160a01b038216620001085760405162461bcd60e51b8152602060048201526012602482015271736d2d616464726573732d69732d7a65726f60701b6044820152606401620000b2565b600380546001600160a01b0319166001600160a01b0384811691909117909155606084901b6001600160601b03191660a05260408051637e062a3560e11b815290519185169163fc0c546a91600480820192602092909190829003018186803b1580156200017557600080fd5b505afa1580156200018a573d6000803e3d6000fd5b505050506040513d601f19601f82011682018060405250810190620001b091906200039f565b60601b6001600160601b031916608052600080546001600160a01b03199081166001600160a01b03938416179091556007805490911691851691821790556040805163313ce56760e01b8152905191935063313ce5679250600480820192602092909190829003018186803b1580156200022957600080fd5b505afa1580156200023e573d6000803e3d6000fd5b505050506040513d601f19601f82011682018060405250810190620002649190620003c5565b60ff1660c052620002758362000280565b5050505050620003fe565b73c02aaa39b223fe8d0a0e5c4f27ead9083c756cc26001600160a01b0316816001600160a01b031663fc0c546a6040518163ffffffff1660e01b815260040160206040518083038186803b158015620002d857600080fd5b505afa158015620002ed573d6000803e3d6000fd5b505050506040513d601f19601f820116820180604052508101906200031391906200039f565b6001600160a01b0316146200035e5760405162461bcd60e51b815260206004820152601060248201526f0ea5ae8ded6cadc5adad2e6dac2e8c6d60831b6044820152606401620000b2565b50565b6000806040838503121562000374578182fd5b82516200038181620003e8565b60208401519092506200039481620003e8565b809150509250929050565b600060208284031215620003b1578081fd5b8151620003be81620003e8565b9392505050565b600060208284031215620003d7578081fd5b815160ff81168114620003be578182fd5b6001600160a01b03811681146200035e57600080fd5b60805160601c60a05160601c60c051613d56620004ee600039600050506000818161028a0152818161066b015281816107f101528181610b6001528181610bdc01528181610d9d015281816110e50152818161115401528181611384015281816114ab0152818161178e0152818161185701528181611aa4015281816120ab0152818161212a015281816121c701526125c401526000818161050f015281816119f601528181611a7b01528181611de9015281816120d5015281816122480152818161235f0152818161243a015281816125a2015281816125fa0152818161282301526128a20152613d566000f3fe6080604052600436106101d15760003560e01c806399b71d5c116100f7578063ce5494bb11610095578063ec78e83211610064578063ec78e832146105dc578063fb589de2146105fc578063fc0c546a1461061a578063ffa1ad741461063857610253565b8063ce5494bb14610567578063d2c35ce814610587578063d4c3eea0146105a7578063e00af4a7146105bc57610253565b8063aa101886116100d1578063aa101886146104e8578063b2016bd4146104fd578063c415b95c14610531578063cd2d7ebe1461055157610253565b806399b71d5c1461045d578063a3f4df7e14610472578063a923b2a6146104c857610253565b806342189c8f1161016f57806367f5e4b81161013e57806367f5e4b8146103e8578063709d039d146104085780637d7c2a1c14610428578063951dc22c1461043d57610253565b806342189c8f14610362578063440d7248146103785780634c36fad7146103a8578063653b449e146103c857610253565b80631aedeabe116101ab5780631aedeabe146102e9578063234fe5ab1461030d5780632e1a7d4d146103225780634032b72b1461034257610253565b806314ae9f2e1461025857806316f0115b1461027857806319ab453c146102c957610253565b36610253576007546001600160a01b0316336001600160a01b0316148061020b57503373c02aaa39b223fe8d0a0e5c4f27ead9083c756cc2145b6102515760405162461bcd60e51b815260206004820152601260248201527134b73b30b634b216b2ba3416b9b2b73232b960711b60448201526064015b60405180910390fd5b005b600080fd5b34801561026457600080fd5b506102516102733660046137a1565b610669565b34801561028457600080fd5b506102ac7f000000000000000000000000000000000000000000000000000000000000000081565b6040516001600160a01b0390911681526020015b60405180910390f35b3480156102d557600080fd5b506102516102e43660046137a1565b6107ef565b3480156102f557600080fd5b506102ff60065481565b6040519081526020016102c0565b34801561031957600080fd5b506102ff610a69565b34801561032e57600080fd5b5061025161033d36600461393a565b610b5d565b34801561034e57600080fd5b5061025161035d3660046137a1565b610bda565b34801561036e57600080fd5b506102ff60045481565b34801561038457600080fd5b506103986103933660046137a1565b610d5a565b60405190151581526020016102c0565b3480156103b457600080fd5b506102516103c33660046137a1565b610d9b565b3480156103d457600080fd5b506102516103e336600461396a565b610f4e565b3480156103f457600080fd5b5061025161040336600461393a565b611152565b34801561041457600080fd5b506003546102ac906001600160a01b031681565b34801561043457600080fd5b5061025161129e565b34801561044957600080fd5b506001546102ac906001600160a01b031681565b34801561046957600080fd5b506102516113ed565b34801561047e57600080fd5b506104bb6040518060400160405280601781526020017f416c7068612d4c656e642d53747261746567792d45544800000000000000000081525081565b6040516102c09190613a7a565b3480156104d457600080fd5b506102516104e3366004613a09565b6114a9565b3480156104f457600080fd5b506102516116de565b34801561050957600080fd5b506102ac7f000000000000000000000000000000000000000000000000000000000000000081565b34801561053d57600080fd5b506002546102ac906001600160a01b031681565b34801561055d57600080fd5b506102ff60055481565b34801561057357600080fd5b506102516105823660046137a1565b61178b565b34801561059357600080fd5b506102516105a23660046137a1565b611aa2565b3480156105b357600080fd5b506102ff611c6b565b3480156105c857600080fd5b506102516105d73660046137a1565b611cf2565b3480156105e857600080fd5b506000546102ac906001600160a01b031681565b34801561060857600080fd5b506102ff61061736600461393a565b90565b34801561062657600080fd5b506000546001600160a01b03166102ac565b34801561064457600080fd5b506104bb604051806040016040528060058152602001640332e302e360dc1b81525081565b7f00000000000000000000000000000000000000000000000000000000000000006001600160a01b0316630c340a246040518163ffffffff1660e01b815260040160206040518083038186803b1580156106c257600080fd5b505afa1580156106d6573d6000803e3d6000fd5b505050506040513d601f19601f820116820180604052508101906106fa91906137bd565b6001600160a01b0316336001600160a01b03161461072a5760405162461bcd60e51b815260040161024890613add565b600154604051631484968760e11b81526001600160a01b038381166004830152909116906329092d0e90602401602060405180830381600087803b15801561077157600080fd5b505af1158015610785573d6000803e3d6000fd5b505050506040513d601f19601f820116820180604052508101906107a99190613920565b6107ec5760405162461bcd60e51b81526020600482015260146024820152731c995b5bdd994b5ad9595c195c8b59985a5b195960621b6044820152606401610248565b50565b7f00000000000000000000000000000000000000000000000000000000000000006001600160a01b0316630c340a246040518163ffffffff1660e01b815260040160206040518083038186803b15801561084857600080fd5b505afa15801561085c573d6000803e3d6000fd5b505050506040513d601f19601f8201168201806040525081019061088091906137bd565b6001600160a01b0316336001600160a01b0316146108b05760405162461bcd60e51b815260040161024890613add565b6001546001600160a01b0316156109095760405162461bcd60e51b815260206004820152601b60248201527f6b65657065722d6c6973742d616c72656164792d6372656174656400000000006044820152606401610248565b6000819050806001600160a01b0316630fab4d256040518163ffffffff1660e01b8152600401602060405180830381600087803b15801561094957600080fd5b505af115801561095d573d6000803e3d6000fd5b505050506040513d601f19601f8201168201806040525081019061098191906137bd565b600180546001600160a01b0319166001600160a01b03929092169182179055630a3b0a4f6109ac3390565b6040516001600160e01b031960e084901b1681526001600160a01b039091166004820152602401602060405180830381600087803b1580156109ed57600080fd5b505af1158015610a01573d6000803e3d6000fd5b505050506040513d601f19601f82011682018060405250810190610a259190613920565b610a655760405162461bcd60e51b81526020600482015260116024820152701859190b5ad9595c195c8b59985a5b1959607a1b6044820152606401610248565b5050565b600754604080516334f293ed60e11b815290516000926001600160a01b0316916369e527da916004808301926020929190829003018186803b158015610aae57600080fd5b505afa158015610ac2573d6000803e3d6000fd5b505050506040513d601f19601f82011682018060405250810190610ae691906137bd565b6001600160a01b031663bd6d894d6040518163ffffffff1660e01b8152600401602060405180830381600087803b158015610b2057600080fd5b505af1158015610b34573d6000803e3d6000fd5b505050506040513d601f19601f82011682018060405250810190610b589190613952565b905090565b337f00000000000000000000000000000000000000000000000000000000000000006001600160a01b031614610bd15760405162461bcd60e51b815260206004820152601960248201527818d85b1b195c8b5a5ccb5b9bdd0b5d995cdc195c8b5c1bdbdb603a1b6044820152606401610248565b6107ec81611f8d565b7f00000000000000000000000000000000000000000000000000000000000000006001600160a01b0316630c340a246040518163ffffffff1660e01b815260040160206040518083038186803b158015610c3357600080fd5b505afa158015610c47573d6000803e3d6000fd5b505050506040513d601f19601f82011682018060405250810190610c6b91906137bd565b6001600160a01b0316336001600160a01b031614610c9b5760405162461bcd60e51b815260040161024890613add565b600154604051630a3b0a4f60e01b81526001600160a01b03838116600483015290911690630a3b0a4f90602401602060405180830381600087803b158015610ce257600080fd5b505af1158015610cf6573d6000803e3d6000fd5b505050506040513d601f19601f82011682018060405250810190610d1a9190613920565b6107ec5760405162461bcd60e51b81526020600482015260116024820152701859190b5ad9595c195c8b59985a5b1959607a1b6044820152606401610248565b600080546001600160a01b0383811691161480610d9357506001600160a01b03821673a1faa113cbe53436df28ff0aee54275c13b40975145b90505b919050565b7f00000000000000000000000000000000000000000000000000000000000000006001600160a01b0316630c340a246040518163ffffffff1660e01b815260040160206040518083038186803b158015610df457600080fd5b505afa158015610e08573d6000803e3d6000fd5b505050506040513d601f19601f82011682018060405250810190610e2c91906137bd565b6001600160a01b0316336001600160a01b031614610e5c5760405162461bcd60e51b815260040161024890613add565b6001600160a01b038116610ea75760405162461bcd60e51b8152602060048201526012602482015271736d2d616464726573732d69732d7a65726f60701b6044820152606401610248565b6003546001600160a01b0382811691161415610ef25760405162461bcd60e51b815260206004820152600a602482015269736d2d69732d73616d6560b01b6044820152606401610248565b6003546040516001600160a01b038084169216907f2d19927e7cac08ceb98b38898a4fdff6da6a27295b9a2d62fe250408ebe044e190600090a3600380546001600160a01b0319166001600160a01b0392909216919091179055565b6001546001600160a01b0316635dbe47e8336040516001600160e01b031960e084901b1681526001600160a01b03909116600482015260240160206040518083038186803b158015610f9f57600080fd5b505afa158015610fb3573d6000803e3d6000fd5b505050506040513d601f19601f82011682018060405250810190610fd79190613920565b610ff35760405162461bcd60e51b815260040161024890613aad565b600754604051632f52ebb760e01b81526001600160a01b0390911690632f52ebb7906110259085908590600401613b14565b600060405180830381600087803b15801561103f57600080fd5b505af1158015611053573d6000803e3d6000fd5b50505050600047905073c02aaa39b223fe8d0a0e5c4f27ead9083c756cc26001600160a01b031663d0e30db0826040518263ffffffff1660e01b81526004016000604051808303818588803b1580156110ab57600080fd5b505af11580156110bf573d6000803e3d6000fd5b50506040516302df682360e11b81526004810185905260006024820181905260448201527f00000000000000000000000000000000000000000000000000000000000000006001600160a01b031693506305bed04692506064019050600060405180830381600087803b15801561113557600080fd5b505af1158015611149573d6000803e3d6000fd5b50505050505050565b7f00000000000000000000000000000000000000000000000000000000000000006001600160a01b0316630c340a246040518163ffffffff1660e01b815260040160206040518083038186803b1580156111ab57600080fd5b505afa1580156111bf573d6000803e3d6000fd5b505050506040513d601f19601f820116820180604052508101906111e391906137bd565b6001600160a01b0316336001600160a01b0316146112135760405162461bcd60e51b815260040161024890613add565b61271081111561125e5760405162461bcd60e51b8152602060048201526016602482015275696e76616c69642d736c6970706167652d76616c756560501b6044820152606401610248565b60065460408051918252602082018390527ef1c5db862c7598b3b6765552ca951f498611e06412c2d57f8d0b58f82e7f82910160405180910390a1600655565b6001546001600160a01b0316635dbe47e8336040516001600160e01b031960e084901b1681526001600160a01b03909116600482015260240160206040518083038186803b1580156112ef57600080fd5b505afa158015611303573d6000803e3d6000fd5b505050506040513d601f19601f820116820180604052508101906113279190613920565b6113435760405162461bcd60e51b815260040161024890613aad565b6000806000611350612104565b6040516302df682360e11b815260048101849052602481018390526044810182905292955090935091506001600160a01b037f000000000000000000000000000000000000000000000000000000000000000016906305bed04690606401600060405180830381600087803b1580156113c857600080fd5b505af11580156113dc573d6000803e3d6000fd5b505050506113e8612422565b505050565b6001546001600160a01b0316635dbe47e8336040516001600160e01b031960e084901b1681526001600160a01b03909116600482015260240160206040518083038186803b15801561143e57600080fd5b505afa158015611452573d6000803e3d6000fd5b505050506040513d601f19601f820116820180604052508101906114769190613920565b6114925760405162461bcd60e51b815260040161024890613aad565b61149c6000612595565b6114a7600019612595565b565b7f00000000000000000000000000000000000000000000000000000000000000006001600160a01b0316630c340a246040518163ffffffff1660e01b815260040160206040518083038186803b15801561150257600080fd5b505afa158015611516573d6000803e3d6000fd5b505050506040513d601f19601f8201168201806040525081019061153a91906137bd565b6001600160a01b0316336001600160a01b03161461156a5760405162461bcd60e51b815260040161024890613add565b600360009054906101000a90046001600160a01b03166001600160a01b031663c2fba6676040518163ffffffff1660e01b815260040160206040518083038186803b1580156115b857600080fd5b505afa1580156115cc573d6000803e3d6000fd5b505050506040513d601f19601f820116820180604052508101906115f09190613952565b81106116355760405162461bcd60e51b81526020600482015260146024820152730d2dcecc2d8d2c85ae4deeae8cae45ad2dcc8caf60631b6044820152606401610248565b816116405760045491505b603b82116116885760405162461bcd60e51b81526020600482015260156024820152741a5b9d985b1a590b5bdc9858db194b5c195c9a5bd9605a1b6044820152606401610248565b6004546005546040805192835260208301859052820152606081018290527f83bc5ab8030537fcf1d29c2334f6d22c26c82dcbe5ff03923d2cff5c692c0a7f9060800160405180910390a1600491909155600555565b6001546001600160a01b0316635dbe47e8336040516001600160e01b031960e084901b1681526001600160a01b03909116600482015260240160206040518083038186803b15801561172f57600080fd5b505afa158015611743573d6000803e3d6000fd5b505050506040513d601f19601f820116820180604052508101906117679190613920565b6117835760405162461bcd60e51b815260040161024890613aad565b6114a761275f565b337f00000000000000000000000000000000000000000000000000000000000000006001600160a01b0316146117ff5760405162461bcd60e51b815260206004820152601960248201527818d85b1b195c8b5a5ccb5b9bdd0b5d995cdc195c8b5c1bdbdb603a1b6044820152606401610248565b6001600160a01b0381166118555760405162461bcd60e51b815260206004820152601c60248201527f6e65772d73747261746567792d616464726573732d69732d7a65726f000000006044820152606401610248565b7f00000000000000000000000000000000000000000000000000000000000000006001600160a01b0316816001600160a01b03166316f0115b6040518163ffffffff1660e01b815260040160206040518083038186803b1580156118b857600080fd5b505afa1580156118cc573d6000803e3d6000fd5b505050506040513d601f19601f820116820180604052508101906118f091906137bd565b6001600160a01b03161461193f5760405162461bcd60e51b81526020600482015260166024820152756e6f742d76616c69642d6e65772d737472617465677960501b6044820152606401610248565b6000546040516370a0823160e01b81523060048201526119d39183916001600160a01b03909116906370a082319060240160206040518083038186803b15801561198857600080fd5b505afa15801561199c573d6000803e3d6000fd5b505050506040513d601f19601f820116820180604052508101906119c09190613952565b6000546001600160a01b03169190612934565b6040516370a0823160e01b81523060048201526107ec9082906001600160a01b037f000000000000000000000000000000000000000000000000000000000000000016906370a08231906024015b60206040518083038186803b158015611a3957600080fd5b505afa158015611a4d573d6000803e3d6000fd5b505050506040513d601f19601f82011682018060405250810190611a719190613952565b6001600160a01b037f0000000000000000000000000000000000000000000000000000000000000000169190612934565b7f00000000000000000000000000000000000000000000000000000000000000006001600160a01b0316630c340a246040518163ffffffff1660e01b815260040160206040518083038186803b158015611afb57600080fd5b505afa158015611b0f573d6000803e3d6000fd5b505050506040513d601f19601f82011682018060405250810190611b3391906137bd565b6001600160a01b0316336001600160a01b031614611b635760405162461bcd60e51b815260040161024890613add565b6001600160a01b038116611bb95760405162461bcd60e51b815260206004820152601d60248201527f6665652d636f6c6c6563746f722d616464726573732d69732d7a65726f0000006044820152606401610248565b6002546001600160a01b0382811691161415611c0f5760405162461bcd60e51b81526020600482015260156024820152746665652d636f6c6c6563746f722d69732d73616d6560581b6044820152606401610248565b6002546040516001600160a01b038084169216907f0f06062680f9bd68e786e9980d9bb03d73d5620fc3b345e417b6eacb310b970690600090a3600280546001600160a01b0319166001600160a01b0392909216919091179055565b6007546040516370a0823160e01b8152306004820152600091610b58916001600160a01b03909116906370a082319060240160206040518083038186803b158015611cb557600080fd5b505afa158015611cc9573d6000803e3d6000fd5b505050506040513d601f19601f82011682018060405250810190611ced9190613952565b612997565b6001546001600160a01b0316635dbe47e8336040516001600160e01b031960e084901b1681526001600160a01b03909116600482015260240160206040518083038186803b158015611d4357600080fd5b505afa158015611d57573d6000803e3d6000fd5b505050506040513d601f19601f82011682018060405250810190611d7b9190613920565b611d975760405162461bcd60e51b815260040161024890613aad565b6002546001600160a01b0316611de75760405162461bcd60e51b81526020600482015260156024820152741999594b58dbdb1b1958dd1bdc8b5b9bdd0b5cd95d605a1b6044820152606401610248565b7f00000000000000000000000000000000000000000000000000000000000000006001600160a01b0316816001600160a01b03161415611e695760405162461bcd60e51b815260206004820152601f60248201527f6e6f742d616c6c6f7765642d746f2d73776565702d636f6c6c61746572616c006044820152606401610248565b611e7281610d5a565b15611eb65760405162461bcd60e51b815260206004820152601460248201527306e6f742d616c6c6f7765642d746f2d73776565760641b6044820152606401610248565b6001600160a01b03811673eeeeeeeeeeeeeeeeeeeeeeeeeeeeeeeeeeeeeeee1415611ef657600254611ef1906001600160a01b031647612aac565b6107ec565b6040516370a0823160e01b81523060048201526000906001600160a01b038316906370a082319060240160206040518083038186803b158015611f3857600080fd5b505afa158015611f4c573d6000803e3d6000fd5b505050506040513d601f19601f82011682018060405250810190611f709190613952565b600254909150610a65906001600160a01b03848116911683612934565b6007546040516370a0823160e01b81523060048201526000916001600160a01b0316906370a082319060240160206040518083038186803b158015611fd157600080fd5b505afa158015611fe5573d6000803e3d6000fd5b505050506040513d601f19601f820116820180604052508101906120099190613952565b9050600061201682612997565b8310612022578161202b565b61202b83612bc5565b600754604051632e1a7d4d60e01b8152600481018390529192506001600160a01b031690632e1a7d4d90602401600060405180830381600087803b15801561207257600080fd5b505af1158015612086573d6000803e3d6000fd5b50505050612092612cc4565b6040516370a0823160e01b81523060048201526113e8907f0000000000000000000000000000000000000000000000000000000000000000906001600160a01b037f000000000000000000000000000000000000000000000000000000000000000016906370a0823190602401611a21565b604051636a9eee1360e11b81523060048201526000908190819081906001600160a01b037f0000000000000000000000000000000000000000000000000000000000000000169063d53ddc269060240160206040518083038186803b15801561216c57600080fd5b505afa158015612180573d6000803e3d6000fd5b505050506040513d601f19601f820116820180604052508101906121a49190613952565b604051639f2b283360e01b81523060048201529091506000906001600160a01b037f00000000000000000000000000000000000000000000000000000000000000001690639f2b28339060240160206040518083038186803b15801561220957600080fd5b505afa15801561221d573d6000803e3d6000fd5b505050506040513d601f19601f820116820180604052508101906122419190613952565b905061226c7f0000000000000000000000000000000000000000000000000000000000000000612d2e565b6007546040516370a0823160e01b81523060048201526001600160a01b0390911690632e1a7d4d9082906370a082319060240160206040518083038186803b1580156122b757600080fd5b505afa1580156122cb573d6000803e3d6000fd5b505050506040513d601f19601f820116820180604052508101906122ef9190613952565b6040518263ffffffff1660e01b815260040161230d91815260200190565b600060405180830381600087803b15801561232757600080fd5b505af115801561233b573d6000803e3d6000fd5b50505050612347612cc4565b6040516370a0823160e01b81523060048201526000907f00000000000000000000000000000000000000000000000000000000000000006001600160a01b0316906370a082319060240160206040518083038186803b1580156123a957600080fd5b505afa1580156123bd573d6000803e3d6000fd5b505050506040513d601f19601f820116820180604052508101906123e19190613952565b9050818111156123fc576123f58282613c7d565b9550612409565b6124068183613c7d565b94505b8083116124165782612418565b805b9350505050909192565b6040516370a0823160e01b81523060048201526000907f00000000000000000000000000000000000000000000000000000000000000006001600160a01b0316906370a082319060240160206040518083038186803b15801561248457600080fd5b505afa158015612498573d6000803e3d6000fd5b505050506040513d601f19601f820116820180604052508101906124bc9190613952565b905080156107ec57604051632e1a7d4d60e01b81526004810182905273c02aaa39b223fe8d0a0e5c4f27ead9083c756cc290632e1a7d4d90602401600060405180830381600087803b15801561251157600080fd5b505af1158015612525573d6000803e3d6000fd5b50505050600760009054906101000a90046001600160a01b03166001600160a01b031663d0e30db0826040518263ffffffff1660e01b81526004016000604051808303818588803b15801561257957600080fd5b505af115801561258d573d6000803e3d6000fd5b505050505050565b6125e96001600160a01b037f0000000000000000000000000000000000000000000000000000000000000000167f000000000000000000000000000000000000000000000000000000000000000083612e24565b600754612623906001600160a01b037f00000000000000000000000000000000000000000000000000000000000000008116911683612e24565b60005b600360009054906101000a90046001600160a01b03166001600160a01b031663c2fba6676040518163ffffffff1660e01b815260040160206040518083038186803b15801561267457600080fd5b505afa158015612688573d6000803e3d6000fd5b505050506040513d601f19601f820116820180604052508101906126ac9190613952565b811015610a6557600354604051636e74a6f760e01b81526004810183905261274d916001600160a01b031690636e74a6f79060240160206040518083038186803b1580156126f957600080fd5b505afa15801561270d573d6000803e3d6000fd5b505050506040513d601f19601f8201168201806040525081019061273191906137bd565b73a1faa113cbe53436df28ff0aee54275c13b409759084612e24565b8061275781613cc4565b915050612626565b60035460048054600554604051630f30f2d360e21b815273a1faa113cbe53436df28ff0aee54275c13b409759381019390935273c02aaa39b223fe8d0a0e5c4f27ead9083c756cc26024840152604483019190915260648201526001600160a01b0390911690633cc3cb4c90608401602060405180830381600087803b1580156127e857600080fd5b505af11580156127fc573d6000803e3d6000fd5b505050506040513d601f19601f8201168201806040525081019061282091906137bd565b507f00000000000000000000000000000000000000000000000000000000000000006001600160a01b031673c02aaa39b223fe8d0a0e5c4f27ead9083c756cc2146114a75760035460048054600554604051630f30f2d360e21b815273c02aaa39b223fe8d0a0e5c4f27ead9083c756cc2938101939093526001600160a01b037f0000000000000000000000000000000000000000000000000000000000000000811660248501526044840192909252606483015290911690633cc3cb4c90608401602060405180830381600087803b1580156128fc57600080fd5b505af1158015612910573d6000803e3d6000fd5b505050506040513d601f19601f820116820180604052508101906107ec91906137bd565b6040516001600160a01b0383166024820152604481018290526113e890849063a9059cbb60e01b906064015b60408051601f198184030181529190526020810180516001600160e01b03166001600160e01b031990931692909217909152612f48565b6000670de0b6b3a7640000600760009054906101000a90046001600160a01b03166001600160a01b03166369e527da6040518163ffffffff1660e01b815260040160206040518083038186803b1580156129f057600080fd5b505afa158015612a04573d6000803e3d6000fd5b505050506040513d601f19601f82011682018060405250810190612a2891906137bd565b6001600160a01b031663182df0f56040518163ffffffff1660e01b815260040160206040518083038186803b158015612a6057600080fd5b505afa158015612a74573d6000803e3d6000fd5b505050506040513d601f19601f82011682018060405250810190612a989190613952565b612aa29084613c5e565b610d939190613c3e565b80471015612afc5760405162461bcd60e51b815260206004820152601d60248201527f416464726573733a20696e73756666696369656e742062616c616e63650000006044820152606401610248565b6000826001600160a01b03168260405160006040518083038185875af1925050503d8060008114612b49576040519150601f19603f3d011682016040523d82523d6000602084013e612b4e565b606091505b50509050806113e85760405162461bcd60e51b815260206004820152603a60248201527f416464726573733a20756e61626c6520746f2073656e642076616c75652c207260448201527f6563697069656e74206d617920686176652072657665727465640000000000006064820152608401610248565b600754604080516334f293ed60e11b815290516000926001600160a01b0316916369e527da916004808301926020929190829003018186803b158015612c0a57600080fd5b505afa158015612c1e573d6000803e3d6000fd5b505050506040513d601f19601f82011682018060405250810190612c4291906137bd565b6001600160a01b031663182df0f56040518163ffffffff1660e01b815260040160206040518083038186803b158015612c7a57600080fd5b505afa158015612c8e573d6000803e3d6000fd5b505050506040513d601f19601f82011682018060405250810190612cb29190613952565b612aa283670de0b6b3a7640000613c5e565b73c02aaa39b223fe8d0a0e5c4f27ead9083c756cc26001600160a01b031663d0e30db0476040518263ffffffff1660e01b81526004016000604051808303818588803b158015612d1357600080fd5b505af1158015612d27573d6000803e3d6000fd5b5050505050565b6040516370a0823160e01b815230600482015260009073a1faa113cbe53436df28ff0aee54275c13b40975906370a082319060240160206040518083038186803b158015612d7b57600080fd5b505afa158015612d8f573d6000803e3d6000fd5b505050506040513d601f19601f82011682018060405250810190612db39190613952565b90508015610a655760006006546127101415612dd0576001612e02565b612e02612dfa612df473a1faa113cbe53436df28ff0aee54275c13b409758661301a565b84613213565b60065461333e565b90506113e873a1faa113cbe53436df28ff0aee54275c13b40975848484613368565b801580612ead5750604051636eb1769f60e11b81523060048201526001600160a01b03838116602483015284169063dd62ed3e9060440160206040518083038186803b158015612e7357600080fd5b505afa158015612e87573d6000803e3d6000fd5b505050506040513d601f19601f82011682018060405250810190612eab9190613952565b155b612f185760405162461bcd60e51b815260206004820152603660248201527f5361666545524332303a20617070726f76652066726f6d206e6f6e2d7a65726f60448201527520746f206e6f6e2d7a65726f20616c6c6f77616e636560501b6064820152608401610248565b6040516001600160a01b0383166024820152604481018290526113e890849063095ea7b360e01b90606401612960565b6000612f9d826040518060400160405280602081526020017f5361666545524332303a206c6f772d6c6576656c2063616c6c206661696c6564815250856001600160a01b03166135289092919063ffffffff16565b8051909150156113e85780806020019051810190612fbb9190613920565b6113e85760405162461bcd60e51b815260206004820152602a60248201527f5361666545524332303a204552433230206f7065726174696f6e20646964206e6044820152691bdd081cdd58d8d9595960b21b6064820152608401610248565b60606001600160a01b03831673c02aaa39b223fe8d0a0e5c4f27ead9083c756cc2148061306357506001600160a01b03821673c02aaa39b223fe8d0a0e5c4f27ead9083c756cc2145b1561311157604080516002808252606082018352909160208301908036833701905050905082816000815181106130aa57634e487b7160e01b600052603260045260246000fd5b60200260200101906001600160a01b031690816001600160a01b03168152505081816001815181106130ec57634e487b7160e01b600052603260045260246000fd5b60200260200101906001600160a01b031690816001600160a01b03168152505061320d565b604080516003808252608082019092529060208201606080368337019050509050828160008151811061315457634e487b7160e01b600052603260045260246000fd5b60200260200101906001600160a01b031690816001600160a01b03168152505073c02aaa39b223fe8d0a0e5c4f27ead9083c756cc2816001815181106131aa57634e487b7160e01b600052603260045260246000fd5b60200260200101906001600160a01b031690816001600160a01b03168152505081816002815181106131ec57634e487b7160e01b600052603260045260246000fd5b60200260200101906001600160a01b031690816001600160a01b0316815250505b92915050565b6000600183511161325c5760405162461bcd60e51b81526020600482015260136024820152720d2dcecc2d8d2c85adee4c2c6d8ca5ae0c2e8d606b1b6044820152606401610248565b50806000805b600185516132709190613c7d565b811015613336576132dc85828151811061329a57634e487b7160e01b600052603260045260246000fd5b6020026020010151868360016132b09190613c26565b815181106132ce57634e487b7160e01b600052603260045260246000fd5b60200260200101518561353f565b9093509150816133245760405162461bcd60e51b8152602060048201526013602482015272696e76616c69642d6f7261636c652d7261746560681b6044820152606401610248565b8061332e81613cc4565b915050613262565b505092915050565b600061271061334d8382613c7d565b6133579085613c5e565b6133619190613c3e565b9392505050565b600354604051631d1f307960e31b81526001600160a01b038681166004830152858116602483015260448201859052600092839283929091169063e8f983c89060640160006040518083038186803b1580156133c357600080fd5b505afa1580156133d7573d6000803e3d6000fd5b505050506040513d6000823e601f3d908101601f191682016040526133ff91908101906137d9565b925092509250836000141561341357600193505b811561114957600354604051636e74a6f760e01b8152600481018390526001600160a01b0390911690636e74a6f79060240160206040518083038186803b15801561345d57600080fd5b505afa158015613471573d6000803e3d6000fd5b505050506040513d601f19601f8201168201806040525081019061349591906137bd565b6001600160a01b03166338ed173986868630426040518663ffffffff1660e01b81526004016134c8959493929190613b61565b600060405180830381600087803b1580156134e257600080fd5b505af11580156134f6573d6000803e3d6000fd5b505050506040513d6000823e601f3d908101601f1916820160405261351e919081019061388d565b5050505050505050565b60606135378484600085613630565b949350505050565b6003546004805460055460405163b67bb24d60e01b81526001600160a01b038881169482019490945286841660248201526044810186905260648101929092526084820152600092839283928392919091169063b67bb24d9060a401606060405180830381600087803b1580156135b557600080fd5b505af11580156135c9573d6000803e3d6000fd5b505050506040513d601f19601f820116820180604052508101906135ed9190613a2a565b5091509150600454426136009190613c7d565b8111801561360d57508115155b1561361e5750915060019050613628565b6000809350935050505b935093915050565b6060824710156136915760405162461bcd60e51b815260206004820152602660248201527f416464726573733a20696e73756666696369656e742062616c616e636520666f6044820152651c8818d85b1b60d21b6064820152608401610248565b843b6136df5760405162461bcd60e51b815260206004820152601d60248201527f416464726573733a2063616c6c20746f206e6f6e2d636f6e74726163740000006044820152606401610248565b600080866001600160a01b031685876040516136fb9190613a5e565b60006040518083038185875af1925050503d8060008114613738576040519150601f19603f3d011682016040523d82523d6000602084013e61373d565b606091505b509150915061374d828286613758565b979650505050505050565b60608315613767575081613361565b8251156137775782518084602001fd5b8160405162461bcd60e51b81526004016102489190613a7a565b80518015158114610d9657600080fd5b6000602082840312156137b2578081fd5b813561336181613d0b565b6000602082840312156137ce578081fd5b815161336181613d0b565b6000806000606084860312156137ed578182fd5b835167ffffffffffffffff811115613803578283fd5b8401601f81018613613813578283fd5b8051602061382861382383613c02565b613bd1565b8083825282820191508285018a848660051b8801011115613847578788fd5b8795505b8486101561387257805161385e81613d0b565b83526001959095019491830191830161384b565b50918801516040909801519199979850909695505050505050565b6000602080838503121561389f578182fd5b825167ffffffffffffffff8111156138b5578283fd5b8301601f810185136138c5578283fd5b80516138d361382382613c02565b80828252848201915084840188868560051b87010111156138f2578687fd5b8694505b838510156139145780518352600194909401939185019185016138f6565b50979650505050505050565b600060208284031215613931578081fd5b61336182613791565b60006020828403121561394b578081fd5b5035919050565b600060208284031215613963578081fd5b5051919050565b6000806040838503121561397c578182fd5b8235915060208084013567ffffffffffffffff81111561399a578283fd5b8401601f810186136139aa578283fd5b80356139b861382382613c02565b80828252848201915084840189868560051b87010111156139d7578687fd5b8694505b838510156139f95780358352600194909401939185019185016139db565b5080955050505050509250929050565b60008060408385031215613a1b578182fd5b50508035926020909101359150565b600080600060608486031215613a3e578081fd5b8351925060208401519150613a5560408501613791565b90509250925092565b60008251613a70818460208701613c94565b9190910192915050565b6000602082528251806020840152613a99816040850160208701613c94565b601f01601f19169190910160400192915050565b60208082526016908201527531b0b63632b916b4b996b737ba16b096b5b2b2b832b960511b604082015260600190565b6020808252601a908201527f63616c6c65722d69732d6e6f742d7468652d676f7665726e6f72000000000000604082015260600190565b60006040820184835260206040818501528185518084526060860191508287019350845b81811015613b5457845183529383019391830191600101613b38565b5090979650505050505050565b600060a082018783526020878185015260a0604085015281875180845260c0860191508289019350845b81811015613bb05784516001600160a01b031683529383019391830191600101613b8b565b50506001600160a01b03969096166060850152505050608001529392505050565b604051601f8201601f1916810167ffffffffffffffff81118282101715613bfa57613bfa613cf5565b604052919050565b600067ffffffffffffffff821115613c1c57613c1c613cf5565b5060051b60200190565b60008219821115613c3957613c39613cdf565b500190565b600082613c5957634e487b7160e01b81526012600452602481fd5b500490565b6000816000190483118215151615613c7857613c78613cdf565b500290565b600082821015613c8f57613c8f613cdf565b500390565b60005b83811015613caf578181015183820152602001613c97565b83811115613cbe576000848401525b50505050565b6000600019821415613cd857613cd8613cdf565b5060010190565b634e487b7160e01b600052601160045260246000fd5b634e487b7160e01b600052604160045260246000fd5b6001600160a01b03811681146107ec57600080fdfea2646970667358221220efdfc1ad588818da3cb3f2f1a3487103abd11af36ffe3276f5818a31218b2d6f64736f6c63430008030033",
  "devdoc": {
    "kind": "dev",
    "methods": {
      "addKeeper(address)": {
        "params": {
          "_keeperAddress": "keeper address to add."
        }
      },
      "approveToken()": {
        "details": "Approve all required tokens"
      },
      "convertFrom18(uint256)": {
        "details": "Convert from 18 decimals to token defined decimals. Default no conversion."
      },
      "init(address)": {
        "params": {
          "_addressListFactory": "To support same code in eth side chain, user _addressListFactory as param ethereum- 0xded8217De022706A191eE7Ee0Dc9df1185Fb5dA3 polygon-0xD10D5696A350D65A9AA15FE8B258caB4ab1bF291"
        }
      },
      "migrate(address)": {
        "details": "_beforeMigration hook can be implemented in child strategy to do extra steps.",
        "params": {
          "_newStrategy": "Address of new strategy"
        }
      },
      "rebalance()": {
        "details": "Rebalance profit, loss and investment of this strategy"
      },
      "removeKeeper(address)": {
        "params": {
          "_keeperAddress": "keeper address to remove."
        }
      },
      "sweepERC20(address)": {
        "details": "sweep given token to feeCollector of strategy",
        "params": {
          "_fromToken": "token address to sweep"
        }
      },
      "totalValue()": {
        "details": "Report total value in collateral token"
      },
      "updateFeeCollector(address)": {
        "params": {
          "_feeCollector": "fee collector address"
        }
      },
      "updateSwapManager(address)": {
        "params": {
          "_swapManager": "swap manager address"
        }
      },
      "withdraw(uint256)": {
        "details": "Withdraw collateral token from lending pool.",
        "params": {
          "_amount": "Amount of collateral token"
        }
      }
    },
    "title": "Deposit ETH in Alpha and earn interest.",
    "version": 1
  },
  "userdoc": {
    "kind": "user",
    "methods": {
      "addKeeper(address)": {
        "notice": "Add given address in keepers list."
      },
      "init(address)": {
        "notice": "Create keeper list NOTE: Any function with onlyKeeper modifier will not work until this function is called. NOTE: Due to gas constraint this function cannot be called in constructor."
      },
      "isReservedToken(address)": {
        "notice": "Check whether given token is reserved or not. Reserved tokens are not allowed to sweep."
      },
      "migrate(address)": {
        "notice": "Migrate all asset and vault ownership,if any, to new strategy"
      },
      "removeKeeper(address)": {
        "notice": "Remove given address from keepers list."
      },
      "token()": {
        "notice": "Returns address of token correspond to collateral token"
      },
      "totalValue()": {
        "notice": "Calculate total value using ALPHA accrued and cToken"
      },
      "updateFeeCollector(address)": {
        "notice": "Update fee collector"
      },
      "updateSwapManager(address)": {
        "notice": "Update swap manager address"
      }
    },
    "version": 1
  },
  "storageLayout": {
    "storage": [
      {
        "astId": 10671,
        "contract": "contracts/strategies/alpha/AlphaLendStrategyETH.sol:AlphaLendStrategyETH",
        "label": "receiptToken",
        "offset": 0,
        "slot": "0",
        "type": "t_address"
      },
      {
        "astId": 10677,
        "contract": "contracts/strategies/alpha/AlphaLendStrategyETH.sol:AlphaLendStrategyETH",
        "label": "keepers",
        "offset": 0,
        "slot": "1",
        "type": "t_contract(IAddressList)3647"
      },
      {
        "astId": 10680,
        "contract": "contracts/strategies/alpha/AlphaLendStrategyETH.sol:AlphaLendStrategyETH",
        "label": "feeCollector",
        "offset": 0,
        "slot": "2",
        "type": "t_address"
      },
      {
        "astId": 10683,
        "contract": "contracts/strategies/alpha/AlphaLendStrategyETH.sol:AlphaLendStrategyETH",
        "label": "swapManager",
        "offset": 0,
        "slot": "3",
        "type": "t_contract(ISwapManager)3950"
      },
      {
        "astId": 10686,
        "contract": "contracts/strategies/alpha/AlphaLendStrategyETH.sol:AlphaLendStrategyETH",
        "label": "oraclePeriod",
        "offset": 0,
        "slot": "4",
        "type": "t_uint256"
      },
      {
        "astId": 10689,
        "contract": "contracts/strategies/alpha/AlphaLendStrategyETH.sol:AlphaLendStrategyETH",
        "label": "oracleRouterIdx",
        "offset": 0,
        "slot": "5",
        "type": "t_uint256"
      },
      {
        "astId": 10692,
        "contract": "contracts/strategies/alpha/AlphaLendStrategyETH.sol:AlphaLendStrategyETH",
        "label": "swapSlippage",
        "offset": 0,
        "slot": "6",
        "type": "t_uint256"
      },
      {
        "astId": 14043,
        "contract": "contracts/strategies/alpha/AlphaLendStrategyETH.sol:AlphaLendStrategyETH",
        "label": "safeBox",
        "offset": 0,
        "slot": "7",
        "type": "t_contract(ISafeBox)3604"
      }
    ],
    "types": {
      "t_address": {
        "encoding": "inplace",
        "label": "address",
        "numberOfBytes": "20"
      },
      "t_contract(IAddressList)3647": {
        "encoding": "inplace",
        "label": "contract IAddressList",
        "numberOfBytes": "20"
      },
      "t_contract(ISafeBox)3604": {
        "encoding": "inplace",
        "label": "contract ISafeBox",
        "numberOfBytes": "20"
      },
      "t_contract(ISwapManager)3950": {
        "encoding": "inplace",
        "label": "contract ISwapManager",
        "numberOfBytes": "20"
      },
      "t_uint256": {
        "encoding": "inplace",
        "label": "uint256",
        "numberOfBytes": "32"
      }
    }
  }
}