{
  "address": "0x3A41aD519a248a5682da0FaC424F74350C0e3017",
  "abi": [
    {
      "inputs": [
        {
          "internalType": "address",
          "name": "_pool",
          "type": "address"
        },
        {
          "internalType": "address",
          "name": "_swapManager",
          "type": "address"
        },
        {
          "internalType": "address",
          "name": "_comptroller",
          "type": "address"
        },
        {
          "internalType": "address",
          "name": "_rewardDistributor",
          "type": "address"
        },
        {
          "internalType": "address",
          "name": "_rewardToken",
          "type": "address"
        },
        {
          "internalType": "address",
          "name": "_aaveAddressesProvider",
          "type": "address"
        },
        {
          "internalType": "address",
          "name": "_receiptToken",
          "type": "address"
        },
        {
          "internalType": "string",
          "name": "_name",
          "type": "string"
        }
      ],
      "stateMutability": "nonpayable",
      "type": "constructor"
    },
    {
      "anonymous": false,
      "inputs": [
        {
          "indexed": false,
          "internalType": "uint256",
          "name": "previousMinBorrowRatio",
          "type": "uint256"
        },
        {
          "indexed": false,
          "internalType": "uint256",
          "name": "newMinBorrowRatio",
          "type": "uint256"
        },
        {
          "indexed": false,
          "internalType": "uint256",
          "name": "previousMaxBorrowRatio",
          "type": "uint256"
        },
        {
          "indexed": false,
          "internalType": "uint256",
          "name": "newMaxBorrowRatio",
          "type": "uint256"
        }
      ],
      "name": "UpdatedBorrowRatio",
      "type": "event"
    },
    {
      "anonymous": false,
      "inputs": [
        {
          "indexed": true,
          "internalType": "address",
          "name": "previousFeeCollector",
          "type": "address"
        },
        {
          "indexed": true,
          "internalType": "address",
          "name": "newFeeCollector",
          "type": "address"
        }
      ],
      "name": "UpdatedFeeCollector",
      "type": "event"
    },
    {
      "anonymous": false,
      "inputs": [
        {
          "indexed": false,
          "internalType": "uint256",
          "name": "oldPeriod",
          "type": "uint256"
        },
        {
          "indexed": false,
          "internalType": "uint256",
          "name": "newPeriod",
          "type": "uint256"
        },
        {
          "indexed": false,
          "internalType": "uint256",
          "name": "oldRouterIdx",
          "type": "uint256"
        },
        {
          "indexed": false,
          "internalType": "uint256",
          "name": "newRouterIdx",
          "type": "uint256"
        }
      ],
      "name": "UpdatedOracleConfig",
      "type": "event"
    },
    {
      "anonymous": false,
      "inputs": [
        {
          "indexed": true,
          "internalType": "address",
          "name": "previousSwapManager",
          "type": "address"
        },
        {
          "indexed": true,
          "internalType": "address",
          "name": "newSwapManager",
          "type": "address"
        }
      ],
      "name": "UpdatedSwapManager",
      "type": "event"
    },
    {
      "anonymous": false,
      "inputs": [
        {
          "indexed": false,
          "internalType": "uint256",
          "name": "oldSwapSlippage",
          "type": "uint256"
        },
        {
          "indexed": false,
          "internalType": "uint256",
          "name": "newSwapSlippage",
          "type": "uint256"
        }
      ],
      "name": "UpdatedSwapSlippage",
      "type": "event"
    },
    {
      "inputs": [],
      "name": "NAME",
      "outputs": [
        {
          "internalType": "string",
          "name": "",
          "type": "string"
        }
      ],
      "stateMutability": "view",
      "type": "function"
    },
    {
      "inputs": [],
      "name": "VERSION",
      "outputs": [
        {
          "internalType": "string",
          "name": "",
          "type": "string"
        }
      ],
      "stateMutability": "view",
      "type": "function"
    },
    {
      "inputs": [
        {
          "internalType": "address",
          "name": "_keeperAddress",
          "type": "address"
        }
      ],
      "name": "addKeeper",
      "outputs": [],
      "stateMutability": "nonpayable",
      "type": "function"
    },
    {
      "inputs": [],
      "name": "approveToken",
      "outputs": [],
      "stateMutability": "nonpayable",
      "type": "function"
    },
    {
      "inputs": [
        {
          "internalType": "address",
          "name": "_sender",
          "type": "address"
        },
        {
          "components": [
            {
              "internalType": "address",
              "name": "owner",
              "type": "address"
            },
            {
              "internalType": "uint256",
              "name": "number",
              "type": "uint256"
            }
          ],
          "internalType": "struct Account.Info",
          "name": "",
          "type": "tuple"
        },
        {
          "internalType": "bytes",
          "name": "_callData",
          "type": "bytes"
        }
      ],
      "name": "callFunction",
      "outputs": [],
      "stateMutability": "nonpayable",
      "type": "function"
    },
    {
      "inputs": [],
      "name": "collateralToken",
      "outputs": [
        {
          "internalType": "contract IERC20",
          "name": "",
          "type": "address"
        }
      ],
      "stateMutability": "view",
      "type": "function"
    },
    {
      "inputs": [],
      "name": "comptroller",
      "outputs": [
        {
          "internalType": "contract Comptroller",
          "name": "",
          "type": "address"
        }
      ],
      "stateMutability": "view",
      "type": "function"
    },
    {
      "inputs": [],
      "name": "currentBorrowRatio",
      "outputs": [
        {
          "internalType": "uint256",
          "name": "",
          "type": "uint256"
        }
      ],
      "stateMutability": "view",
      "type": "function"
    },
    {
      "inputs": [],
      "name": "dyDxMarketId",
      "outputs": [
        {
          "internalType": "uint256",
          "name": "",
          "type": "uint256"
        }
      ],
      "stateMutability": "view",
      "type": "function"
    },
    {
      "inputs": [
        {
          "internalType": "address[]",
          "name": "",
          "type": "address[]"
        },
        {
          "internalType": "uint256[]",
          "name": "_amounts",
          "type": "uint256[]"
        },
        {
          "internalType": "uint256[]",
          "name": "_premiums",
          "type": "uint256[]"
        },
        {
          "internalType": "address",
          "name": "_initiator",
          "type": "address"
        },
        {
          "internalType": "bytes",
          "name": "_data",
          "type": "bytes"
        }
      ],
      "name": "executeOperation",
      "outputs": [
        {
          "internalType": "bool",
          "name": "",
          "type": "bool"
        }
      ],
      "stateMutability": "nonpayable",
      "type": "function"
    },
    {
      "inputs": [],
      "name": "feeCollector",
      "outputs": [
        {
          "internalType": "address",
          "name": "",
          "type": "address"
        }
      ],
      "stateMutability": "view",
      "type": "function"
    },
    {
      "inputs": [],
      "name": "getPosition",
      "outputs": [
        {
          "internalType": "uint256",
          "name": "_supply",
          "type": "uint256"
        },
        {
          "internalType": "uint256",
          "name": "_borrow",
          "type": "uint256"
        }
      ],
      "stateMutability": "view",
      "type": "function"
    },
    {
      "inputs": [],
      "name": "isAaveActive",
      "outputs": [
        {
          "internalType": "bool",
          "name": "",
          "type": "bool"
        }
      ],
      "stateMutability": "view",
      "type": "function"
    },
    {
      "inputs": [],
      "name": "isDyDxActive",
      "outputs": [
        {
          "internalType": "bool",
          "name": "",
          "type": "bool"
        }
      ],
      "stateMutability": "view",
      "type": "function"
    },
    {
      "inputs": [],
      "name": "isLossMaking",
      "outputs": [
        {
          "internalType": "bool",
          "name": "",
          "type": "bool"
        }
      ],
      "stateMutability": "nonpayable",
      "type": "function"
    },
    {
      "inputs": [
        {
          "internalType": "address",
          "name": "_token",
          "type": "address"
        }
      ],
      "name": "isReservedToken",
      "outputs": [
        {
          "internalType": "bool",
          "name": "",
          "type": "bool"
        }
      ],
      "stateMutability": "view",
      "type": "function"
    },
    {
      "inputs": [],
      "name": "keepers",
      "outputs": [
        {
          "internalType": "address[]",
          "name": "",
          "type": "address[]"
        }
      ],
      "stateMutability": "view",
      "type": "function"
    },
    {
      "inputs": [],
      "name": "maxBorrowRatio",
      "outputs": [
        {
          "internalType": "uint256",
          "name": "",
          "type": "uint256"
        }
      ],
      "stateMutability": "view",
      "type": "function"
    },
    {
      "inputs": [
        {
          "internalType": "address",
          "name": "_newStrategy",
          "type": "address"
        }
      ],
      "name": "migrate",
      "outputs": [],
      "stateMutability": "nonpayable",
      "type": "function"
    },
    {
      "inputs": [],
      "name": "minBorrowRatio",
      "outputs": [
        {
          "internalType": "uint256",
          "name": "",
          "type": "uint256"
        }
      ],
      "stateMutability": "view",
      "type": "function"
    },
    {
      "inputs": [],
      "name": "oraclePeriod",
      "outputs": [
        {
          "internalType": "uint256",
          "name": "",
          "type": "uint256"
        }
      ],
      "stateMutability": "view",
      "type": "function"
    },
    {
      "inputs": [],
      "name": "oracleRouterIdx",
      "outputs": [
        {
          "internalType": "uint256",
          "name": "",
          "type": "uint256"
        }
      ],
      "stateMutability": "view",
      "type": "function"
    },
    {
      "inputs": [],
      "name": "pool",
      "outputs": [
        {
          "internalType": "address",
          "name": "",
          "type": "address"
        }
      ],
      "stateMutability": "view",
      "type": "function"
    },
    {
      "inputs": [],
      "name": "rebalance",
      "outputs": [],
      "stateMutability": "nonpayable",
      "type": "function"
    },
    {
      "inputs": [],
      "name": "receiptToken",
      "outputs": [
        {
          "internalType": "address",
          "name": "",
          "type": "address"
        }
      ],
      "stateMutability": "view",
      "type": "function"
    },
    {
      "inputs": [
        {
          "internalType": "address",
          "name": "_keeperAddress",
          "type": "address"
        }
      ],
      "name": "removeKeeper",
      "outputs": [],
      "stateMutability": "nonpayable",
      "type": "function"
    },
    {
      "inputs": [],
      "name": "rewardDistributor",
      "outputs": [
        {
          "internalType": "address",
          "name": "",
          "type": "address"
        }
      ],
      "stateMutability": "view",
      "type": "function"
    },
    {
      "inputs": [],
      "name": "rewardToken",
      "outputs": [
        {
          "internalType": "address",
          "name": "",
          "type": "address"
        }
      ],
      "stateMutability": "view",
      "type": "function"
    },
    {
      "inputs": [],
      "name": "setupOracles",
      "outputs": [],
      "stateMutability": "nonpayable",
      "type": "function"
    },
    {
      "inputs": [],
      "name": "swapManager",
      "outputs": [
        {
          "internalType": "contract ISwapManager",
          "name": "",
          "type": "address"
        }
      ],
      "stateMutability": "view",
      "type": "function"
    },
    {
      "inputs": [],
      "name": "swapSlippage",
      "outputs": [
        {
          "internalType": "uint256",
          "name": "",
          "type": "uint256"
        }
      ],
      "stateMutability": "view",
      "type": "function"
    },
    {
      "inputs": [
        {
          "internalType": "address",
          "name": "_fromToken",
          "type": "address"
        }
      ],
      "name": "sweepERC20",
      "outputs": [],
      "stateMutability": "nonpayable",
      "type": "function"
    },
    {
      "inputs": [],
      "name": "token",
      "outputs": [
        {
          "internalType": "address",
          "name": "",
          "type": "address"
        }
      ],
      "stateMutability": "view",
      "type": "function"
    },
    {
      "inputs": [],
      "name": "totalValue",
      "outputs": [
        {
          "internalType": "uint256",
          "name": "_totalValue",
          "type": "uint256"
        }
      ],
      "stateMutability": "view",
      "type": "function"
    },
    {
      "inputs": [],
      "name": "totalValueCurrent",
      "outputs": [
        {
          "internalType": "uint256",
          "name": "_totalValue",
          "type": "uint256"
        }
      ],
      "stateMutability": "nonpayable",
      "type": "function"
    },
    {
      "inputs": [
        {
          "internalType": "bool",
          "name": "_status",
          "type": "bool"
        }
      ],
      "name": "updateAaveStatus",
      "outputs": [],
      "stateMutability": "nonpayable",
      "type": "function"
    },
    {
      "inputs": [
        {
          "internalType": "uint256",
          "name": "_minBorrowRatio",
          "type": "uint256"
        },
        {
          "internalType": "uint256",
          "name": "_maxBorrowRatio",
          "type": "uint256"
        }
      ],
      "name": "updateBorrowRatio",
      "outputs": [],
      "stateMutability": "nonpayable",
      "type": "function"
    },
    {
      "inputs": [
        {
          "internalType": "bool",
          "name": "_status",
          "type": "bool"
        }
      ],
      "name": "updateDyDxStatus",
      "outputs": [],
      "stateMutability": "nonpayable",
      "type": "function"
    },
    {
      "inputs": [
        {
          "internalType": "address",
          "name": "_feeCollector",
          "type": "address"
        }
      ],
      "name": "updateFeeCollector",
      "outputs": [],
      "stateMutability": "nonpayable",
      "type": "function"
    },
    {
      "inputs": [
        {
          "internalType": "uint256",
          "name": "_newPeriod",
          "type": "uint256"
        },
        {
          "internalType": "uint256",
          "name": "_newRouterIdx",
          "type": "uint256"
        }
      ],
      "name": "updateOracleConfig",
      "outputs": [],
      "stateMutability": "nonpayable",
      "type": "function"
    },
    {
      "inputs": [
        {
          "internalType": "address",
          "name": "_swapManager",
          "type": "address"
        }
      ],
      "name": "updateSwapManager",
      "outputs": [],
      "stateMutability": "nonpayable",
      "type": "function"
    },
    {
      "inputs": [
        {
          "internalType": "uint256",
          "name": "_newSwapSlippage",
          "type": "uint256"
        }
      ],
      "name": "updateSwapSlippage",
      "outputs": [],
      "stateMutability": "nonpayable",
      "type": "function"
    },
    {
      "inputs": [
        {
          "internalType": "uint256",
          "name": "_amount",
          "type": "uint256"
        }
      ],
      "name": "withdraw",
      "outputs": [],
      "stateMutability": "nonpayable",
      "type": "function"
    },
    {
      "stateMutability": "payable",
      "type": "receive"
    }
  ],
  "transactionHash": "0x43b1324d6fbfa330c54708e22132fd0ba7c1240510a8d4569c1d4fb792e87549",
  "args": [
    "0xd1C117319B3595fbc39b471AB1fd485629eb05F2",
    "0xe382d9f2394A359B01006faa8A1864b8a60d2710",
    "0x4dCf7407AE5C07f8681e1659f626E114A7667339",
    "0x4dCf7407AE5C07f8681e1659f626E114A7667339",
    "0x41D5D79431A913C4aE7d69a668ecdfE5fF9DFB68",
    "0xB53C1a33016B2DC2fF3653530bfF1848a515c8c5",
    "0x697b4acAa24430F254224eB794d2a85ba1Fa1FB8",
    "InverseCompoundLeverageStrategyETH"
  ],
  "solcInputHash": "4c3b8015605c221439043450113685cb",
  "bytecode": "0x610100604052600080546001600160a01b03191673c02aaa39b223fe8d0a0e5c4f27ead9083c756cc2178155610e10600455600555612710600655600b805462ffffff19169055611388600d55611770600e553480156200005f57600080fd5b506040516200679a3803806200679a833981016040819052620000829162000588565b8787878787878787828888846001600160a01b038316620000ea5760405162461bcd60e51b815260206004820152601460248201527f706f6f6c2d616464726573732d69732d7a65726f00000000000000000000000060448201526064015b60405180910390fd5b6001600160a01b038216620001375760405162461bcd60e51b8152602060048201526012602482015271736d2d616464726573732d69732d7a65726f60701b6044820152606401620000e1565b600380546001600160a01b0319166001600160a01b0384811691909117909155606084901b6001600160601b03191660a05260408051637e062a3560e11b815290519185169163fc0c546a91600480820192602092909190829003018186803b158015620001a457600080fd5b505afa158015620001b9573d6000803e3d6000fd5b505050506040513d601f19601f82011682018060405250810190620001df9190620006f9565b60601b6001600160601b031916608052600180546001600160a01b0319166001600160a01b0383161790556200022c620002163390565b60076200047060201b620022d71790919060201c565b6200026e5760405162461bcd60e51b81526020600482015260116024820152701859190b5ad9595c195c8b59985a5b1959607a1b6044820152606401620000e1565b5050506001600160a01b038116620002c95760405162461bcd60e51b815260206004820152601560248201527f696e76616c69642d616176652d70726f766964657200000000000000000000006044820152606401620000e1565b600980546001600160a01b0319166001600160a01b03929092169190911790558051620002fe90600c906020840190620004e2565b506001600160a01b038616620003575760405162461bcd60e51b815260206004820152601b60248201527f636f6d7074726f6c6c65722d616464726573732d69732d7a65726f00000000006044820152606401620000e1565b6001600160601b0319606087811b821660c05285901b1660e0526001600160a01b038216620003c95760405162461bcd60e51b815260206004820152601660248201527f63546f6b656e2d616464726573732d69732d7a65726f000000000000000000006044820152606401620000e1565b600f80546001600160a01b0319166001600160a01b03848116919091179091558516620004395760405162461bcd60e51b815260206004820152601f60248201527f696e76616c69642d7265776172642d6469737472696275746f722d61646472006044820152606401620000e1565b5050601080546001600160a01b0319166001600160a01b039490941693909317909255506200078b9b505050505050505050505050565b600062000487836001600160a01b03841662000490565b90505b92915050565b6000818152600183016020526040812054620004d9575081546001818101845560008481526020808220909301849055845484825282860190935260409020919091556200048a565b5060006200048a565b828054620004f0906200071f565b90600052602060002090601f0160209004810192826200051457600085556200055f565b82601f106200052f57805160ff19168380011785556200055f565b828001600101855582156200055f579182015b828111156200055f57825182559160200191906001019062000542565b506200056d92915062000571565b5090565b5b808211156200056d576000815560010162000572565b600080600080600080600080610100898b031215620005a5578384fd5b8851620005b28162000772565b809850506020808a0151620005c78162000772565b60408b0151909850620005da8162000772565b60608b0151909750620005ed8162000772565b60808b0151909650620006008162000772565b60a08b0151909550620006138162000772565b60c08b0151909450620006268162000772565b60e08b01519093506001600160401b038082111562000643578384fd5b818c0191508c601f83011262000657578384fd5b8151818111156200066c576200066c6200075c565b604051601f8201601f19908116603f011681019083821181831017156200069757620006976200075c565b816040528281528f86848701011115620006af578687fd5b8693505b82841015620006d25784840186015181850187015292850192620006b3565b82841115620006e357868684830101525b8096505050505050509295985092959890939650565b6000602082840312156200070b578081fd5b8151620007188162000772565b9392505050565b600181811c908216806200073457607f821691505b602082108114156200075657634e487b7160e01b600052602260045260246000fd5b50919050565b634e487b7160e01b600052604160045260246000fd5b6001600160a01b03811681146200078857600080fd5b50565b60805160601c60a05160601c60c05160601c60e05160601c615e7262000928600039600081816107a601528181610ad801528181611fea01528181612bd301528181612e420152818161384a01526138dc01526000818161046d0152818161214d01528181612d8c015281816131480152613ce501526000818161030e0152818161084f01528181610962015281816109b201528181610b5001528181610d0301528181610e2d0152818161109b015281816113ad0152818161151d0152818161177d0152818161181a01528181611a7701528181611c40015281816120710152818161230d015281816123a2015281816124430152612a5c01526000818161063d01528181610b1401528181610dc8015281816119aa01528181611a4e01528181611d9b015281816124ed0152818161262e015281816127f80152818161291601528181612a3a01528181612a9201528181612c1201528181612e6401528181612efa015281816134050152818161351c015281816135570152818161360c01528181613bde01528181613c6a0152614b760152615e726000f3fe6080604052600436106102605760003560e01c80639b7166a911610144578063d3332539116100b6578063f23c47221161007a578063f23c472214610775578063f7c618c114610794578063f7c99bea146107c8578063fc0c546a146107de578063fef395d3146107fc578063ffa1ad741461081c576102d7565b8063d3332539146106eb578063d4c3eea01461070b578063e00af4a714610720578063e645c20214610740578063ec78e83214610755576102d7565b8063b2016bd411610108578063b2016bd41461062b578063b9098e3c1461065f578063c415b95c14610675578063cd2d7ebe14610695578063ce5494bb146106ab578063d2c35ce8146106cb576102d7565b80639b7166a91461059a578063a3f4df7e146105b4578063a923b2a6146105d6578063aa101886146105f6578063acc2166a1461060b576102d7565b80635abda028116101dd5780637d7c2a1c116101a15780637d7c2a1c146104f95780638b4187131461050e578063920f5c841461052e578063929860241461054e578063951dc22c1461056357806399b71d5c14610585576102d7565b80635abda028146104465780635fe3b5671461045b57806367f5e4b81461048f578063709d039d146104af5780637398ab18146104cf576102d7565b80634032b72b116102245780634032b72b146103a057806342189c8f146103c0578063440d7248146103d65780634c36fad714610406578063599e892a14610426576102d7565b806314ae9f2e146102dc57806316f0115b146102fc5780631aedeabe146103465780632a049a211461036a5780632e1a7d4d14610380576102d7565b366102d757600f546001600160a01b031633148061028857506000546001600160a01b031633145b6102d55760405162461bcd60e51b81526020600482015260196024820152783737ba16b0b63637bbb2b216ba3796b9b2b73216b2ba3432b960391b60448201526064015b60405180910390fd5b005b600080fd5b3480156102e857600080fd5b506102d56102f7366004615208565b61084d565b34801561030857600080fd5b506103307f000000000000000000000000000000000000000000000000000000000000000081565b60405161033d91906158d3565b60405180910390f35b34801561035257600080fd5b5061035c60065481565b60405190815260200161033d565b34801561037657600080fd5b5061035c600e5481565b34801561038c57600080fd5b506102d561039b3660046156a6565b61095f565b3480156103ac57600080fd5b506102d56103bb366004615208565b6109b0565b3480156103cc57600080fd5b5061035c60045481565b3480156103e257600080fd5b506103f66103f1366004615208565b610abc565b604051901515815260200161033d565b34801561041257600080fd5b506102d5610421366004615208565b610b4e565b34801561043257600080fd5b506102d5610441366004615547565b610d01565b34801561045257600080fd5b5061035c610dec565b34801561046757600080fd5b506103307f000000000000000000000000000000000000000000000000000000000000000081565b34801561049b57600080fd5b506102d56104aa3660046156a6565b610e2b565b3480156104bb57600080fd5b50600354610330906001600160a01b031681565b3480156104db57600080fd5b506104e4610f77565b6040805192835260208301919091520161033d565b34801561050557600080fd5b506102d5611031565b34801561051a57600080fd5b506102d5610529366004615240565b611104565b34801561053a57600080fd5b506103f661054936600461530b565b6111a4565b34801561055a57600080fd5b506103f6611393565b34801561056f57600080fd5b50610578611440565b60405161033d91906159ad565b34801561059157600080fd5b506102d5611451565b3480156105a657600080fd5b50600b546103f69060ff1681565b3480156105c057600080fd5b506105c961148d565b60405161033d9190615b12565b3480156105e257600080fd5b506102d56105f1366004615705565b61151b565b34801561060257600080fd5b506102d5611750565b34801561061757600080fd5b50601054610330906001600160a01b031681565b34801561063757600080fd5b506103307f000000000000000000000000000000000000000000000000000000000000000081565b34801561066b57600080fd5b5061035c600d5481565b34801561068157600080fd5b50600254610330906001600160a01b031681565b3480156106a157600080fd5b5061035c60055481565b3480156106b757600080fd5b506102d56106c6366004615208565b61177a565b3480156106d757600080fd5b506102d56106e6366004615208565b611a75565b3480156106f757600080fd5b506102d5610706366004615547565b611c3e565b34801561071757600080fd5b5061035c611d12565b34801561072c57600080fd5b506102d561073b366004615208565b611d24565b34801561074c57600080fd5b5061035c611f48565b34801561076157600080fd5b50600154610330906001600160a01b031681565b34801561078157600080fd5b50600b546103f690610100900460ff1681565b3480156107a057600080fd5b506103307f000000000000000000000000000000000000000000000000000000000000000081565b3480156107d457600080fd5b5061035c600a5481565b3480156107ea57600080fd5b506001546001600160a01b0316610330565b34801561080857600080fd5b506102d5610817366004615705565b61206f565b34801561082857600080fd5b506105c9604051806040016040528060058152602001640342e302e360dc1b81525081565b7f00000000000000000000000000000000000000000000000000000000000000006001600160a01b0316630c340a246040518163ffffffff1660e01b815260040160206040518083038186803b1580156108a657600080fd5b505afa1580156108ba573d6000803e3d6000fd5b505050506040513d601f19601f820116820180604052508101906108de9190615224565b6001600160a01b0316336001600160a01b03161461090e5760405162461bcd60e51b81526004016102cc90615bb7565b6109196007826122f3565b61095c5760405162461bcd60e51b81526020600482015260146024820152731c995b5bdd994b5ad9595c195c8b59985a5b195960621b60448201526064016102cc565b50565b337f00000000000000000000000000000000000000000000000000000000000000006001600160a01b0316146109a75760405162461bcd60e51b81526004016102cc90615bee565b61095c81612308565b7f00000000000000000000000000000000000000000000000000000000000000006001600160a01b0316630c340a246040518163ffffffff1660e01b815260040160206040518083038186803b158015610a0957600080fd5b505afa158015610a1d573d6000803e3d6000fd5b505050506040513d601f19601f82011682018060405250810190610a419190615224565b6001600160a01b0316336001600160a01b031614610a715760405162461bcd60e51b81526004016102cc90615bb7565b610a7c6007826122d7565b61095c5760405162461bcd60e51b81526020600482015260116024820152701859190b5ad9595c195c8b59985a5b1959607a1b60448201526064016102cc565b600f546000906001600160a01b0383811691161480610b0c57507f00000000000000000000000000000000000000000000000000000000000000006001600160a01b0316826001600160a01b0316145b80610b4857507f00000000000000000000000000000000000000000000000000000000000000006001600160a01b0316826001600160a01b0316145b92915050565b7f00000000000000000000000000000000000000000000000000000000000000006001600160a01b0316630c340a246040518163ffffffff1660e01b815260040160206040518083038186803b158015610ba757600080fd5b505afa158015610bbb573d6000803e3d6000fd5b505050506040513d601f19601f82011682018060405250810190610bdf9190615224565b6001600160a01b0316336001600160a01b031614610c0f5760405162461bcd60e51b81526004016102cc90615bb7565b6001600160a01b038116610c5a5760405162461bcd60e51b8152602060048201526012602482015271736d2d616464726573732d69732d7a65726f60701b60448201526064016102cc565b6003546001600160a01b0382811691161415610ca55760405162461bcd60e51b815260206004820152600a602482015269736d2d69732d73616d6560b01b60448201526064016102cc565b6003546040516001600160a01b038084169216907f2d19927e7cac08ceb98b38898a4fdff6da6a27295b9a2d62fe250408ebe044e190600090a3600380546001600160a01b0319166001600160a01b0392909216919091179055565b7f00000000000000000000000000000000000000000000000000000000000000006001600160a01b0316630c340a246040518163ffffffff1660e01b815260040160206040518083038186803b158015610d5a57600080fd5b505afa158015610d6e573d6000803e3d6000fd5b505050506040513d601f19601f82011682018060405250810190610d929190615224565b6001600160a01b0316336001600160a01b031614610dc25760405162461bcd60e51b81526004016102cc90615bb7565b61095c817f0000000000000000000000000000000000000000000000000000000000000000612335565b6000806000610df9610f77565b9150915080600014610e215781610e1261271083615d0f565b610e1c9190615cef565b610e24565b60005b9250505090565b7f00000000000000000000000000000000000000000000000000000000000000006001600160a01b0316630c340a246040518163ffffffff1660e01b815260040160206040518083038186803b158015610e8457600080fd5b505afa158015610e98573d6000803e3d6000fd5b505050506040513d601f19601f82011682018060405250810190610ebc9190615224565b6001600160a01b0316336001600160a01b031614610eec5760405162461bcd60e51b81526004016102cc90615bb7565b612710811115610f375760405162461bcd60e51b8152602060048201526016602482015275696e76616c69642d736c6970706167652d76616c756560501b60448201526064016102cc565b60065460408051918252602082018390527ef1c5db862c7598b3b6765552ca951f498611e06412c2d57f8d0b58f82e7f82910160405180910390a1600655565b600f546040516361bfb47160e11b815260009182918291829182916001600160a01b03169063c37f68e290610fb09030906004016158d3565b60806040518083038186803b158015610fc857600080fd5b505afa158015610fdc573d6000803e3d6000fd5b505050506040513d601f19601f820116820180604052508101906110009190615726565b93509350935050670de0b6b3a7640000818461101c9190615d0f565b6110269190615cef565b959194509092505050565b61103e335b600790612378565b61105a5760405162461bcd60e51b81526004016102cc90615b50565b600080600061106761239a565b6040516302df682360e11b815260048101849052602481018390526044810182905292955090935091506001600160a01b037f000000000000000000000000000000000000000000000000000000000000000016906305bed04690606401600060405180830381600087803b1580156110df57600080fd5b505af11580156110f3573d6000803e3d6000fd5b505050506110ff6127de565b505050565b6000808280602001905181019061111b919061562a565b909250905033731e0447b19bb6ecfdae1e4ae1694b0c3659614e4e1461116b5760405162461bcd60e51b815260206004820152600560248201526421736f6c6f60d81b60448201526064016102cc565b6001600160a01b03851630146111935760405162461bcd60e51b81526004016102cc90615b25565b61119d82826128f7565b5050505050565b60095460408051630261bf8b60e01b815290516000926001600160a01b031691630261bf8b916004808301926020929190829003018186803b1580156111e957600080fd5b505afa1580156111fd573d6000803e3d6000fd5b505050506040513d601f19601f820116820180604052508101906112219190615224565b6001600160a01b0316336001600160a01b03161461126e5760405162461bcd60e51b815260206004820152600a6024820152690858585d994b5c1bdbdb60b21b60448201526064016102cc565b600b5462010000900460ff166112bb5760405162461bcd60e51b815260206004820152601260248201527134b73b30b634b216b33630b9b416b637b0b760711b60448201526064016102cc565b6001600160a01b03841630146112e35760405162461bcd60e51b81526004016102cc90615b25565b60008686600081811061130657634e487b7160e01b600052603260045260246000fd5b905060200201358989600081811061132e57634e487b7160e01b600052603260045260246000fd5b9050602002013561133f9190615cd7565b905061138284848080601f0160208091040260200160405190810160405280939291908181526020018383808284376000920191909152508592506128f7915050565b5060019a9950505050505050505050565b604051639f2b283360e01b81526000906001600160a01b037f00000000000000000000000000000000000000000000000000000000000000001690639f2b2833906113e29030906004016158d3565b60206040518083038186803b1580156113fa57600080fd5b505afa15801561140e573d6000803e3d6000fd5b505050506040513d601f19601f8201168201806040525081019061143291906156be565b61143a611f48565b10905090565b606061144c6007612a20565b905090565b61145a33611036565b6114765760405162461bcd60e51b81526004016102cc90615b50565b6114806000612a2d565b61148b600019612a2d565b565b600c805461149a90615d71565b80601f01602080910402602001604051908101604052809291908181526020018280546114c690615d71565b80156115135780601f106114e857610100808354040283529160200191611513565b820191906000526020600020905b8154815290600101906020018083116114f657829003601f168201915b505050505081565b7f00000000000000000000000000000000000000000000000000000000000000006001600160a01b0316630c340a246040518163ffffffff1660e01b815260040160206040518083038186803b15801561157457600080fd5b505afa158015611588573d6000803e3d6000fd5b505050506040513d601f19601f820116820180604052508101906115ac9190615224565b6001600160a01b0316336001600160a01b0316146115dc5760405162461bcd60e51b81526004016102cc90615bb7565b600360009054906101000a90046001600160a01b03166001600160a01b031663c2fba6676040518163ffffffff1660e01b815260040160206040518083038186803b15801561162a57600080fd5b505afa15801561163e573d6000803e3d6000fd5b505050506040513d601f19601f8201168201806040525081019061166291906156be565b81106116a75760405162461bcd60e51b81526020600482015260146024820152730d2dcecc2d8d2c85ae4deeae8cae45ad2dcc8caf60631b60448201526064016102cc565b816116b25760045491505b603b82116116fa5760405162461bcd60e51b81526020600482015260156024820152741a5b9d985b1a590b5bdc9858db194b5c195c9a5bd9605a1b60448201526064016102cc565b6004546005546040805192835260208301859052820152606081018290527f83bc5ab8030537fcf1d29c2334f6d22c26c82dcbe5ff03923d2cff5c692c0a7f9060800160405180910390a1600491909155600555565b61175933611036565b6117755760405162461bcd60e51b81526004016102cc90615b50565b61148b565b337f00000000000000000000000000000000000000000000000000000000000000006001600160a01b0316146117c25760405162461bcd60e51b81526004016102cc90615bee565b6001600160a01b0381166118185760405162461bcd60e51b815260206004820152601c60248201527f6e65772d73747261746567792d616464726573732d69732d7a65726f0000000060448201526064016102cc565b7f00000000000000000000000000000000000000000000000000000000000000006001600160a01b0316816001600160a01b03166316f0115b6040518163ffffffff1660e01b815260040160206040518083038186803b15801561187b57600080fd5b505afa15801561188f573d6000803e3d6000fd5b505050506040513d601f19601f820116820180604052508101906118b39190615224565b6001600160a01b0316146119025760405162461bcd60e51b81526020600482015260166024820152756e6f742d76616c69642d6e65772d737472617465677960501b60448201526064016102cc565b61190b81612c37565b6001546040516370a0823160e01b81526119a49183916001600160a01b03909116906370a08231906119419030906004016158d3565b60206040518083038186803b15801561195957600080fd5b505afa15801561196d573d6000803e3d6000fd5b505050506040513d601f19601f8201168201806040525081019061199191906156be565b6001546001600160a01b03169190612d0f565b61095c817f00000000000000000000000000000000000000000000000000000000000000006001600160a01b03166370a08231306040518263ffffffff1660e01b81526004016119f491906158d3565b60206040518083038186803b158015611a0c57600080fd5b505afa158015611a20573d6000803e3d6000fd5b505050506040513d601f19601f82011682018060405250810190611a4491906156be565b6001600160a01b037f0000000000000000000000000000000000000000000000000000000000000000169190612d0f565b7f00000000000000000000000000000000000000000000000000000000000000006001600160a01b0316630c340a246040518163ffffffff1660e01b815260040160206040518083038186803b158015611ace57600080fd5b505afa158015611ae2573d6000803e3d6000fd5b505050506040513d601f19601f82011682018060405250810190611b069190615224565b6001600160a01b0316336001600160a01b031614611b365760405162461bcd60e51b81526004016102cc90615bb7565b6001600160a01b038116611b8c5760405162461bcd60e51b815260206004820152601d60248201527f6665652d636f6c6c6563746f722d616464726573732d69732d7a65726f00000060448201526064016102cc565b6002546001600160a01b0382811691161415611be25760405162461bcd60e51b81526020600482015260156024820152746665652d636f6c6c6563746f722d69732d73616d6560581b60448201526064016102cc565b6002546040516001600160a01b038084169216907f0f06062680f9bd68e786e9980d9bb03d73d5620fc3b345e417b6eacb310b970690600090a3600280546001600160a01b0319166001600160a01b0392909216919091179055565b7f00000000000000000000000000000000000000000000000000000000000000006001600160a01b0316630c340a246040518163ffffffff1660e01b815260040160206040518083038186803b158015611c9757600080fd5b505afa158015611cab573d6000803e3d6000fd5b505050506040513d601f19601f82011682018060405250810190611ccf9190615224565b6001600160a01b0316336001600160a01b031614611cff5760405162461bcd60e51b81526004016102cc90615bb7565b600b805460ff191682151517905561095c565b600061144c611d1f612d72565b612e11565b611d2d33611036565b611d495760405162461bcd60e51b81526004016102cc90615b50565b6002546001600160a01b0316611d995760405162461bcd60e51b81526020600482015260156024820152741999594b58dbdb1b1958dd1bdc8b5b9bdd0b5cd95d605a1b60448201526064016102cc565b7f00000000000000000000000000000000000000000000000000000000000000006001600160a01b0316816001600160a01b03161415611e1b5760405162461bcd60e51b815260206004820152601f60248201527f6e6f742d616c6c6f7765642d746f2d73776565702d636f6c6c61746572616c0060448201526064016102cc565b611e2481610abc565b15611e685760405162461bcd60e51b815260206004820152601460248201527306e6f742d616c6c6f7765642d746f2d73776565760641b60448201526064016102cc565b6001600160a01b03811673eeeeeeeeeeeeeeeeeeeeeeeeeeeeeeeeeeeeeeee1415611ea857600254611ea3906001600160a01b031647612fbb565b61095c565b6040516370a0823160e01b81526000906001600160a01b038316906370a0823190611ed79030906004016158d3565b60206040518083038186803b158015611eef57600080fd5b505afa158015611f03573d6000803e3d6000fd5b505050506040513d601f19601f82011682018060405250810190611f2791906156be565b600254909150611f44906001600160a01b03848116911683612d0f565b5050565b600f546040805163bd6d894d60e01b815290516000926001600160a01b03169163bd6d894d91600480830192602092919082900301818787803b158015611f8e57600080fd5b505af1158015611fa2573d6000803e3d6000fd5b505050506040513d601f19601f82011682018060405250810190611fc691906156be565b50611fcf6130d4565b6040516370a0823160e01b815261144c906001600160a01b037f000000000000000000000000000000000000000000000000000000000000000016906370a082319061201f9030906004016158d3565b60206040518083038186803b15801561203757600080fd5b505afa15801561204b573d6000803e3d6000fd5b505050506040513d601f19601f82011682018060405250810190611d1f91906156be565b7f00000000000000000000000000000000000000000000000000000000000000006001600160a01b0316630c340a246040518163ffffffff1660e01b815260040160206040518083038186803b1580156120c857600080fd5b505afa1580156120dc573d6000803e3d6000fd5b505050506040513d601f19601f820116820180604052508101906121009190615224565b6001600160a01b0316336001600160a01b0316146121305760405162461bcd60e51b81526004016102cc90615bb7565b600f54604051638e8f294b60e01b81526000916001600160a01b037f0000000000000000000000000000000000000000000000000000000000000000811692638e8f294b926121839216906004016158d3565b60606040518083038186803b15801561219b57600080fd5b505afa1580156121af573d6000803e3d6000fd5b505050506040513d601f19601f820116820180604052508101906121d3919061557f565b5091506121e89050655af3107a400082615cef565b82106122315760405162461bcd60e51b81526020600482015260186024820152771a5b9d985b1a590b5b585e0b589bdc9c9bddcb5b1a5b5a5d60421b60448201526064016102cc565b8282116122805760405162461bcd60e51b815260206004820152601d60248201527f6d61782d73686f756c642d62652d6869676865722d7468616e2d6d696e00000060448201526064016102cc565b600d54600e546040805192835260208301869052820152606081018390527f0e68fa4c4a80a75427bcce81b711855825bd765ea0e6e15e330653b2437db78e9060800160405180910390a150600d91909155600e55565b60006122ec836001600160a01b0384166131af565b9392505050565b60006122ec836001600160a01b0384166131fe565b61095c7f0000000000000000000000000000000000000000000000000000000000000000611a448361331b565b811561235d57612359731e0447b19bb6ecfdae1e4ae1694b0c3659614e4e826136a7565b600a555b50600b80549115156101000261ff0019909216919091179055565b6001600160a01b038116600090815260018301602052604081205415156122ec565b6000806000807f00000000000000000000000000000000000000000000000000000000000000006001600160a01b031663d53ddc26306040518263ffffffff1660e01b81526004016123ec91906158d3565b60206040518083038186803b15801561240457600080fd5b505afa158015612418573d6000803e3d6000fd5b505050506040513d601f19601f8201168201806040525081019061243c91906156be565b90506000807f00000000000000000000000000000000000000000000000000000000000000006001600160a01b031663228bfd9f306040518263ffffffff1660e01b815260040161248d91906158d3565b6101006040518083038186803b1580156124a657600080fd5b505afa1580156124ba573d6000803e3d6000fd5b505050506040513d601f19601f820116820180604052508101906124de91906155c1565b975050509550505050506125117f0000000000000000000000000000000000000000000000000000000000000000613828565b600f54604051633af9e66960e01b81526000916001600160a01b031690633af9e669906125429030906004016158d3565b602060405180830381600087803b15801561255c57600080fd5b505af1158015612570573d6000803e3d6000fd5b505050506040513d601f19601f8201168201806040525081019061259491906156be565b600f546040516395dd919360e01b81529192506000916001600160a01b03909116906395dd9193906125ca9030906004016158d3565b60206040518083038186803b1580156125e257600080fd5b505afa1580156125f6573d6000803e3d6000fd5b505050506040513d601f19601f8201168201806040525081019061261a91906156be565b905060006126288284615d2e565b905060007f00000000000000000000000000000000000000000000000000000000000000006001600160a01b03166370a08231306040518263ffffffff1660e01b815260040161267891906158d3565b60206040518083038186803b15801561269057600080fd5b505afa1580156126a4573d6000803e3d6000fd5b505050506040513d601f19601f820116820180604052508101906126c891906156be565b905060006126d68284615cd7565b9050600087821115612730576126ec8883615d2e565b9b508b8311612706576126ff838d615d2e565b905061272b565b612710898d615cd7565b831061271e5788995061272b565b6127288c84615d2e565b99505b61273d565b61273a8289615d2e565b9a505b60006127498b8b615d2e565b905060006127578383615cd7565b9050801561278d57600061276a8261331b565b90508381111561278b5761277e8482615d2e565b612788908e615cd7565b9c505b505b612795610f77565b9098509650881580156127a757508715155b80156127b1575086155b156127ce576127c1600019613902565b6127cb888f615cd7565b9d505b5050505050505050505050909192565b6040516370a0823160e01b81526000906001600160a01b037f000000000000000000000000000000000000000000000000000000000000000016906370a082319061282d9030906004016158d3565b60206040518083038186803b15801561284557600080fd5b505afa158015612859573d6000803e3d6000fd5b505050506040513d601f19601f8201168201806040525081019061287d91906156be565b905060008061288d836001613913565b9150915061289a83613b12565b6128a48282613b87565b6128ae9083615d2e565b915060005b6000831180156128c4575060068111155b156128f1576128d38383613c9a565b6128dd9084615d2e565b9250806128e981615dac565b9150506128b3565b50505050565b6000808380602001905181019061290e91906156d6565b9150915060007f00000000000000000000000000000000000000000000000000000000000000006001600160a01b03166370a08231306040518263ffffffff1660e01b815260040161296091906158d3565b60206040518083038186803b15801561297857600080fd5b505afa15801561298c573d6000803e3d6000fd5b505050506040513d601f19601f820116820180604052508101906129b091906156be565b9050828110156129f15760405162461bcd60e51b815260206004820152600c60248201526b11931054d217d1905253115160a21b60448201526064016102cc565b8115612a0e57612a0083613da0565b612a0984613902565b61119d565b612a1781613b12565b61119d84613df9565b606060006122ec83613e02565b612a816001600160a01b037f0000000000000000000000000000000000000000000000000000000000000000167f000000000000000000000000000000000000000000000000000000000000000083613e5e565b600f54612abb906001600160a01b037f00000000000000000000000000000000000000000000000000000000000000008116911683613e5e565b60005b600360009054906101000a90046001600160a01b03166001600160a01b031663c2fba6676040518163ffffffff1660e01b815260040160206040518083038186803b158015612b0c57600080fd5b505afa158015612b20573d6000803e3d6000fd5b505050506040513d601f19601f82011682018060405250810190612b4491906156be565b811015612c0c57600354604051636e74a6f760e01b815260048101839052612bfa916001600160a01b031690636e74a6f79060240160206040518083038186803b158015612b9157600080fd5b505afa158015612ba5573d6000803e3d6000fd5b505050506040513d601f19601f82011682018060405250810190612bc99190615224565b6001600160a01b037f0000000000000000000000000000000000000000000000000000000000000000169084613e5e565b80612c0481615dac565b915050612abe565b5061095c7f000000000000000000000000000000000000000000000000000000000000000082613f82565b600f5460408051637e062a3560e11b815290516001600160a01b039283169284169163fc0c546a916004808301926020929190829003018186803b158015612c7e57600080fd5b505afa158015612c92573d6000803e3d6000fd5b505050506040513d601f19601f82011682018060405250810190612cb69190615224565b6001600160a01b031614612d025760405162461bcd60e51b81526020600482015260136024820152723bb937b73396b932b1b2b4b83a16ba37b5b2b760691b60448201526064016102cc565b6000600d5561095c6127de565b6040516001600160a01b0383166024820152604481018290526110ff90849063a9059cbb60e01b906064015b60408051601f198184030181529190526020810180516001600160e01b03166001600160e01b031990931692909217909152614039565b60405163331faf7160e21b81526000906001600160a01b037f0000000000000000000000000000000000000000000000000000000000000000169063cc7ebdc490612dc19030906004016158d3565b60206040518083038186803b158015612dd957600080fd5b505afa158015612ded573d6000803e3d6000fd5b505050506040513d601f19601f8201168201806040525081019061144c91906156be565b6000808215612ee757600354604051631d1f307960e31b81526001600160a01b039091169063e8f983c890612e8e907f0000000000000000000000000000000000000000000000000000000000000000907f00000000000000000000000000000000000000000000000000000000000000009088906004016158e7565b60006040518083038186803b158015612ea657600080fd5b505afa158015612eba573d6000803e3d6000fd5b505050506040513d6000823e601f3d908101601f19168201604052612ee29190810190615407565b509150505b600080612ef2610f77565b9150915080827f00000000000000000000000000000000000000000000000000000000000000006001600160a01b03166370a08231306040518263ffffffff1660e01b8152600401612f4491906158d3565b60206040518083038186803b158015612f5c57600080fd5b505afa158015612f70573d6000803e3d6000fd5b505050506040513d601f19601f82011682018060405250810190612f9491906156be565b612f9e9086615cd7565b612fa89190615cd7565b612fb29190615d2e565b95945050505050565b8047101561300b5760405162461bcd60e51b815260206004820152601d60248201527f416464726573733a20696e73756666696369656e742062616c616e636500000060448201526064016102cc565b6000826001600160a01b03168260405160006040518083038185875af1925050503d8060008114613058576040519150601f19603f3d011682016040523d82523d6000602084013e61305d565b606091505b50509050806110ff5760405162461bcd60e51b815260206004820152603a60248201527f416464726573733a20756e61626c6520746f2073656e642076616c75652c207260448201527f6563697069656e74206d6179206861766520726576657274656400000000000060648201526084016102cc565b604080516001808252818301909252600091602080830190803683375050600f5482519293506001600160a01b03169183915060009061312457634e487b7160e01b600052603260045260246000fd5b6001600160a01b03928316602091820292909201015260405162e1ed9760e51b81527f000000000000000000000000000000000000000000000000000000000000000090911690631c3db2e090613181903090859060040161590b565b600060405180830381600087803b15801561319b57600080fd5b505af115801561119d573d6000803e3d6000fd5b60008181526001830160205260408120546131f657508154600181810184556000848152602080822090930184905584548482528286019093526040902091909155610b48565b506000610b48565b60008181526001830160205260408120548015613311576000613222600183615d2e565b855490915060009061323690600190615d2e565b90508181146132b757600086600001828154811061326457634e487b7160e01b600052603260045260246000fd5b906000526020600020015490508087600001848154811061329557634e487b7160e01b600052603260045260246000fd5b6000918252602080832090910192909255918252600188019052604090208390555b85548690806132d657634e487b7160e01b600052603160045260246000fd5b600190038181906000526020600020016000905590558560010160008681526020019081526020016000206000905560019350505050610b48565b6000915050610b48565b600080600061332b846000613913565b9150915080156133eb5761333f8282613b87565b6133499083615d2e565b915060005b60008311801561335f5750600a8111155b1561338d5761336f836001613c9a565b6133799084615d2e565b92508061338581615dac565b91505061334e565b82156133e95760008061339e610f77565b915091506000600e546000146133ca57600e546133bd61271084615d0f565b6133c79190615cef565b90505b60006133d68285615d2e565b9050808911156133e4578098505b505050505b505b6040516370a0823160e01b81526000906001600160a01b037f000000000000000000000000000000000000000000000000000000000000000016906370a082319061343a9030906004016158d3565b60206040518083038186803b15801561345257600080fd5b505afa158015613466573d6000803e3d6000fd5b505050506040513d601f19601f8201168201806040525081019061348a91906156be565b600f54604051633af9e66960e01b81529192506001600160a01b031690633af9e669906134bb9030906004016158d3565b602060405180830381600087803b1580156134d557600080fd5b505af11580156134e9573d6000803e3d6000fd5b505050506040513d601f19601f8201168201806040525081019061350d91906156be565b8511156135e9575060006135407f0000000000000000000000000000000000000000000000000000000000000000613828565b6040516370a0823160e01b81526001600160a01b037f000000000000000000000000000000000000000000000000000000000000000016906370a082319061358c9030906004016158d3565b60206040518083038186803b1580156135a457600080fd5b505afa1580156135b8573d6000803e3d6000fd5b505050506040513d601f19601f820116820180604052508101906135dc91906156be565b6135e69086615d2e565b94505b6135f285613902565b6040516370a0823160e01b81526000906001600160a01b037f000000000000000000000000000000000000000000000000000000000000000016906370a08231906136419030906004016158d3565b60206040518083038186803b15801561365957600080fd5b505afa15801561366d573d6000803e3d6000fd5b505050506040513d601f19601f8201168201806040525081019061369191906156be565b905061369d8282615d2e565b9695505050505050565b6000808390506000816001600160a01b031663295c39a56040518163ffffffff1660e01b815260040160206040518083038186803b1580156136e857600080fd5b505afa1580156136fc573d6000803e3d6000fd5b505050506040513d601f19601f8201168201806040525081019061372091906156be565b90506000805b828110156137df5760405163062bd3e960e01b8152600481018290526001600160a01b0385169063062bd3e99060240160206040518083038186803b15801561376e57600080fd5b505afa158015613782573d6000803e3d6000fd5b505050506040513d601f19601f820116820180604052508101906137a69190615224565b9150856001600160a01b0316826001600160a01b031614156137cd579350610b4892505050565b806137d781615dac565b915050613726565b5060405162461bcd60e51b815260206004820152601b60248201527f6e6f2d6d61726b657449642d666f756e642d666f722d746f6b656e000000000060448201526064016102cc565b6138306130d4565b6040516370a0823160e01b81526000906001600160a01b037f000000000000000000000000000000000000000000000000000000000000000016906370a082319061387f9030906004016158d3565b60206040518083038186803b15801561389757600080fd5b505afa1580156138ab573d6000803e3d6000fd5b505050506040513d601f19601f820116820180604052508101906138cf91906156be565b90508015611f4457611f447f0000000000000000000000000000000000000000000000000000000000000000838361410b565b61390b816141dc565b61095c614396565b600f54604051633af9e66960e01b8152600091829182916001600160a01b031690633af9e669906139489030906004016158d3565b602060405180830381600087803b15801561396257600080fd5b505af1158015613976573d6000803e3d6000fd5b505050506040513d601f19601f8201168201806040525081019061399a91906156be565b600f546040516395dd919360e01b81529192506000916001600160a01b03909116906395dd9193906139d09030906004016158d3565b60206040518083038186803b1580156139e857600080fd5b505afa1580156139fc573d6000803e3d6000fd5b505050506040513d601f19601f82011682018060405250810190613a2091906156be565b9050600d5460001415613a3a57925060019150613b0b9050565b6000613a468284615d2e565b9050600086613a6c57878211613a5d576000613a67565b613a678883615d2e565b613a76565b613a768883615cd7565b90506000600e54612710613a8a9190615d2e565b600e54613a979084615d0f565b613aa19190615cef565b90506000600d54612710613ab59190615d2e565b600d54613ac29085615d0f565b613acc9190615cef565b905081851115613aeb5760019650613ae48186615d2e565b9750613b04565b80851015613b045760009650613b018582615d2e565b97505b5050505050505b9250929050565b613b1b816143e4565b600f60009054906101000a90046001600160a01b03166001600160a01b0316631249c58b826040518263ffffffff1660e01b81526004016000604051808303818588803b158015613b6b57600080fd5b505af1158015613b7f573d6000803e3d6000fd5b505050505050565b600b546000908190610100900460ff168015613ba35750600084115b15613c145760008484604051602001613bc89291909182521515602082015260400190565b6040516020818303038152906040529050613c047f00000000000000000000000000000000000000000000000000000000000000008683614415565b9150613c108286615d2e565b9450505b600b5460ff168015613c235750825b8015613c2f5750600084115b156122ec5760008484604051602001613c549291909182521515602082015260400190565b6040516020818303038152906040529050613c907f00000000000000000000000000000000000000000000000000000000000000008683614723565b612fb29083615cd7565b6000806000613ca7610f77565b91509150806000148015613cb85750835b15613cc857600092505050610b48565b600f54604051638e8f294b60e01b81526000916001600160a01b037f0000000000000000000000000000000000000000000000000000000000000000811692638e8f294b92613d1b9216906004016158d3565b60606040518083038186803b158015613d3357600080fd5b505afa158015613d47573d6000803e3d6000fd5b505050506040513d601f19601f82011682018060405250810190613d6b919061557f565b509150508415613d8857613d8186848484614ab3565b9350613d97565b613d9486848484614b19565b93505b50505092915050565b613da9816143e4565b600f60009054906101000a90046001600160a01b03166001600160a01b0316634e4d9fea826040518263ffffffff1660e01b81526004016000604051808303818588803b158015613b6b57600080fd5b61390b81614c00565b606081600001805480602002602001604051908101604052809291908181526020018280548015613e5257602002820191906000526020600020905b815481526020019060010190808311613e3e575b50505050509050919050565b801580613ee75750604051636eb1769f60e11b81523060048201526001600160a01b03838116602483015284169063dd62ed3e9060440160206040518083038186803b158015613ead57600080fd5b505afa158015613ec1573d6000803e3d6000fd5b505050506040513d601f19601f82011682018060405250810190613ee591906156be565b155b613f525760405162461bcd60e51b815260206004820152603660248201527f5361666545524332303a20617070726f76652066726f6d206e6f6e2d7a65726f60448201527520746f206e6f6e2d7a65726f20616c6c6f77616e636560501b60648201526084016102cc565b6040516001600160a01b0383166024820152604481018290526110ff90849063095ea7b360e01b90606401612d3b565b613faa6001600160a01b038316731e0447b19bb6ecfdae1e4ae1694b0c3659614e4e83613e5e565b60095460408051630261bf8b60e01b81529051611f44926001600160a01b031691630261bf8b916004808301926020929190829003018186803b158015613ff057600080fd5b505afa158015614004573d6000803e3d6000fd5b505050506040513d601f19601f820116820180604052508101906140289190615224565b6001600160a01b0384169083613e5e565b600061408e826040518060400160405280602081526020017f5361666545524332303a206c6f772d6c6576656c2063616c6c206661696c6564815250856001600160a01b0316614ccb9092919063ffffffff16565b8051909150156110ff57808060200190518101906140ac9190615563565b6110ff5760405162461bcd60e51b815260206004820152602a60248201527f5361666545524332303a204552433230206f7065726174696f6e20646964206e6044820152691bdd081cdd58d8d9595960b21b60648201526084016102cc565b600060065461271014156141205760016141ce565b6040516358fac00360e01b81526001600160a01b0380861660048301526024820184905284166044820152610e1060648201526141ce90730f1f5a87f99f0918e6c81f16e59f3518698221ff906358fac0039060840160206040518083038186803b15801561418e57600080fd5b505afa1580156141a2573d6000803e3d6000fd5b505050506040513d601f19601f820116820180604052508101906141c691906156be565b600654614ce2565b90506128f184848484614d05565b6000198114156142fb57600f546040516370a0823160e01b81526001600160a01b039091169063db006a759082906370a082319061421e9030906004016158d3565b60206040518083038186803b15801561423657600080fd5b505afa15801561424a573d6000803e3d6000fd5b505050506040513d601f19601f8201168201806040525081019061426e91906156be565b6040518263ffffffff1660e01b815260040161428c91815260200190565b602060405180830381600087803b1580156142a657600080fd5b505af11580156142ba573d6000803e3d6000fd5b505050506040513d601f19601f820116820180604052508101906142de91906156be565b15611ea35760405162461bcd60e51b81526004016102cc90615b80565b600f5460405163852a12e360e01b8152600481018390526001600160a01b039091169063852a12e390602401602060405180830381600087803b15801561434157600080fd5b505af1158015614355573d6000803e3d6000fd5b505050506040513d601f19601f8201168201806040525081019061437991906156be565b1561095c5760405162461bcd60e51b81526004016102cc90615b80565b60008054906101000a90046001600160a01b03166001600160a01b031663d0e30db0476040518263ffffffff1660e01b81526004016000604051808303818588803b15801561319b57600080fd5b600054604051632e1a7d4d60e01b8152600481018390526001600160a01b0390911690632e1a7d4d90602401613181565b600b54600090610100900460ff1661446f5760405162461bcd60e51b815260206004820152601d60248201527f647964782d666c6173682d6c6f616e2d69732d6e6f742d61637469766500000060448201526064016102cc565b6040516370a0823160e01b81526000906001600160a01b038616906370a08231906144b290731e0447b19bb6ecfdae1e4ae1694b0c3659614e4e906004016158d3565b60206040518083038186803b1580156144ca57600080fd5b505afa1580156144de573d6000803e3d6000fd5b505050506040513d601f19601f8201168201806040525081019061450291906156be565b905080841115614510578093505b600061451d856002615cd7565b905060008482604051602001614534929190615af0565b60408051808303601f19018152600380845260808401909252925060009190816020015b614560615150565b815260200190600190039081614558579050509050614581600a5488614ebc565b816000815181106145a257634e487b7160e01b600052603260045260246000fd5b60200260200101819052506145b682614f46565b816001815181106145d757634e487b7160e01b600052603260045260246000fd5b60200260200101819052506145ee600a5484614fb4565b8160028151811061460f57634e487b7160e01b600052603260045260246000fd5b6020908102919091010152604080516001808252818301909252600091816020015b604080518082019091526000808252602082015281526020019060019003908161463157505060408051808201825260008082526020918201528151808301909252308252600190820152909150816000815181106146a057634e487b7160e01b600052603260045260246000fd5b602090810291909101015260405163a67a6a4560e01b8152731e0447b19bb6ecfdae1e4ae1694b0c3659614e4e9063a67a6a45906146e490849086906004016159c0565b600060405180830381600087803b1580156146fe57600080fd5b505af1158015614712573d6000803e3d6000fd5b50999b9a5050505050505050505050565b600b5460009060ff166147785760405162461bcd60e51b815260206004820152601d60248201527f616176652d666c6173682d6c6f616e2d69732d6e6f742d61637469766500000060448201526064016102cc565b60095460408051630261bf8b60e01b815290516000926001600160a01b031691630261bf8b916004808301926020929190829003018186803b1580156147bd57600080fd5b505afa1580156147d1573d6000803e3d6000fd5b505050506040513d601f19601f820116820180604052508101906147f59190615224565b6009546040516321f8a72160e01b8152600160f81b60048201529192506000916001600160a01b03909116906321f8a7219060240160206040518083038186803b15801561484257600080fd5b505afa158015614856573d6000803e3d6000fd5b505050506040513d601f19601f8201168201806040525081019061487a9190615224565b90506000816001600160a01b03166335ea6a75886040518263ffffffff1660e01b81526004016148aa91906158d3565b6101406040518083038186803b1580156148c357600080fd5b505afa1580156148d7573d6000803e3d6000fd5b505050506040513d601f19601f820116820180604052508101906148fb919061575b565b505050505050505050905080861115614912578095505b60408051600180825281830190925260009160208083019080368337019050509050878160008151811061495657634e487b7160e01b600052603260045260246000fd5b6001600160a01b03929092166020928302919091019091015260408051600180825281830190925260009181602001602082028036833701905050905087816000815181106149b557634e487b7160e01b600052603260045260246000fd5b6020908102919091010152604080516001808252818301909252600091816020016020820280368337019050509050600081600081518110614a0757634e487b7160e01b600052603260045260246000fd5b6020026020010181815250506001600b60026101000a81548160ff021916908315150217905550856001600160a01b031663ab9c4b5d30858585308e60006040518863ffffffff1660e01b8152600401614a67979695949392919061592f565b600060405180830381600087803b158015614a8157600080fd5b505af1158015614a95573d6000803e3d6000fd5b5050600b805462ff00001916905550989a9950505050505050505050565b6000808215614adc5782614acf85670de0b6b3a7640000615d0f565b614ad99190615cef565b90505b614ae68186615d2e565b9150838210614af3578391505b858210614afe578591505b614b0782613902565b614b1082613da0565b50949350505050565b600080670de0b6b3a7640000614b2f8487615d0f565b614b399190615cef565b9050614b458482615d2e565b9150858210614b52578591505b614b5b82613df9565b6040516370a0823160e01b8152614b10906001600160a01b037f000000000000000000000000000000000000000000000000000000000000000016906370a0823190614bab9030906004016158d3565b60206040518083038186803b158015614bc357600080fd5b505afa158015614bd7573d6000803e3d6000fd5b505050506040513d601f19601f82011682018060405250810190614bfb91906156be565b613b12565b600f5460405163317afabb60e21b8152600481018390526001600160a01b039091169063c5ebeaec90602401602060405180830381600087803b158015614c4657600080fd5b505af1158015614c5a573d6000803e3d6000fd5b505050506040513d601f19601f82011682018060405250810190614c7e91906156be565b1561095c5760405162461bcd60e51b815260206004820152601b60248201527f626f72726f772d66726f6d2d636f6d706f756e642d6661696c6564000000000060448201526064016102cc565b6060614cda8484600085614fef565b949350505050565b6000612710614cf18382615d2e565b614cfb9085615d0f565b6122ec9190615cef565b600354604051631d1f307960e31b8152600091829182916001600160a01b03169063e8f983c890614d3e908a908a908a906004016158e7565b60006040518083038186803b158015614d5657600080fd5b505afa158015614d6a573d6000803e3d6000fd5b505050506040513d6000823e601f3d908101601f19168201604052614d929190810190615407565b9250925092508360001415614da657600193505b8115614eb357600354604051636e74a6f760e01b8152600481018390526001600160a01b0390911690636e74a6f79060240160206040518083038186803b158015614df057600080fd5b505afa158015614e04573d6000803e3d6000fd5b505050506040513d601f19601f82011682018060405250810190614e289190615224565b6001600160a01b03166338ed173986868630426040518663ffffffff1660e01b8152600401614e5b959493929190615c21565b600060405180830381600087803b158015614e7557600080fd5b505af1158015614e89573d6000803e3d6000fd5b505050506040513d6000823e601f3d908101601f19168201604052614eb191908101906154b5565b505b50505050505050565b614ec4615150565b604080516101008101825260018152600060208083018290528351608081018552828152929384019291908201905b81526020016000815260200185815250815260200184815260200160008152602001306001600160a01b031681526020016000815260200160405180602001604052806000815250815250905092915050565b614f4e615150565b6040805161010081018252600881526000602080830182905283516080810185528281529293840192919082019081526020016000815260006020918201819052918352820181905260408201819052306060830152608082015260a001929092525090565b614fbc615150565b60408051610100810182526000808252602080830182905283516080810185526001815292938401929190820190614ef3565b6060824710156150505760405162461bcd60e51b815260206004820152602660248201527f416464726573733a20696e73756666696369656e742062616c616e636520666f6044820152651c8818d85b1b60d21b60648201526084016102cc565b843b61509e5760405162461bcd60e51b815260206004820152601d60248201527f416464726573733a2063616c6c20746f206e6f6e2d636f6e747261637400000060448201526064016102cc565b600080866001600160a01b031685876040516150ba91906158b7565b60006040518083038185875af1925050503d80600081146150f7576040519150601f19603f3d011682016040523d82523d6000602084013e6150fc565b606091505b509150915061510c828286615117565b979650505050505050565b606083156151265750816122ec565b8251156151365782518084602001fd5b8160405162461bcd60e51b81526004016102cc9190615b12565b604080516101008101825260008082526020820152908101615194604080516080810190915260008082526020820190815260200160008152602001600081525090565b8152602001600081526020016000815260200160006001600160a01b0316815260200160008152602001606081525090565b60008083601f8401126151d7578182fd5b5081356001600160401b038111156151ed578182fd5b6020830191508360208260051b8501011115613b0b57600080fd5b600060208284031215615219578081fd5b81356122ec81615e19565b600060208284031215615235578081fd5b81516122ec81615e19565b60008060008385036080811215615255578283fd5b843561526081615e19565b935060206040601f1983011215615275578384fd5b61527f6040615c5d565b91508086013561528e81615e19565b82526040860135818301529092506060850135906001600160401b038211156152b5578283fd5b818601915086601f8301126152c8578283fd5b81356152db6152d682615cb0565b615c5d565b81815288838386010111156152ee578485fd5b818385018483013784838383010152809450505050509250925092565b600080600080600080600080600060a08a8c031215615328578485fd5b89356001600160401b038082111561533e578687fd5b61534a8d838e016151c6565b909b50995060208c0135915080821115615362578687fd5b61536e8d838e016151c6565b909950975060408c0135915080821115615386578687fd5b6153928d838e016151c6565b909750955060608c013591506153a782615e19565b90935060808b013590808211156153bc578384fd5b818c0191508c601f8301126153cf578384fd5b8135818111156153dd578485fd5b8d60208285010111156153ee578485fd5b6020830194508093505050509295985092959850929598565b60008060006060848603121561541b578283fd5b83516001600160401b03811115615430578384fd5b8401601f81018613615440578384fd5b805160206154506152d683615c8d565b8083825282820191508285018a848660051b880101111561546f578889fd5b8895505b8486101561549a57805161548681615e19565b835260019590950194918301918301615473565b50918801516040909801519199979850909695505050505050565b600060208083850312156154c7578182fd5b82516001600160401b038111156154dc578283fd5b8301601f810185136154ec578283fd5b80516154fa6152d682615c8d565b80828252848201915084840188868560051b8701011115615519578687fd5b8694505b8385101561553b57805183526001949094019391850191850161551d565b50979650505050505050565b600060208284031215615558578081fd5b81356122ec81615e2e565b600060208284031215615574578081fd5b81516122ec81615e2e565b600080600060608486031215615593578081fd5b835161559e81615e2e565b6020850151604086015191945092506155b681615e2e565b809150509250925092565b600080600080600080600080610100898b0312156155dd578182fd5b88516155e881615e2e565b809850506020890151965060408901519550606089015194506080890151935060a0890151925060c0890151915060e089015190509295985092959890939650565b6000806040838503121561563c578182fd5b82516001600160401b03811115615651578283fd5b8301601f81018513615661578283fd5b805161566f6152d682615cb0565b818152866020838501011115615683578485fd5b615694826020830160208601615d45565b60209590950151949694955050505050565b6000602082840312156156b7578081fd5b5035919050565b6000602082840312156156cf578081fd5b5051919050565b600080604083850312156156e8578182fd5b8251915060208301516156fa81615e2e565b809150509250929050565b60008060408385031215615717578182fd5b50508035926020909101359150565b6000806000806080858703121561573b578182fd5b505082516020840151604085015160609095015191969095509092509050565b6000806000806000806000806000806101408b8d03121561577a578384fd5b8a51995060208b0151985060408b0151975060608b0151965060808b0151955060a08b0151945060c08b0151935060e08b015192506101008b015191506101208b015164ffffffffff811681146157cf578182fd5b809150509295989b9194979a5092959850565b6000815180845260208085019450808401835b8381101561581a5781516001600160a01b0316875295820195908201906001016157f5565b509495945050505050565b6000815180845260208085019450808401835b8381101561581a57815187529582019590820190600101615838565b6000815180845261586c816020860160208601615d45565b601f01601f19169290920160200192915050565b805115158252602081015161589481615e09565b602083015260408101516158a781615e09565b6040830152606090810151910152565b600082516158c9818460208701615d45565b9190910192915050565b6001600160a01b0391909116815260200190565b6001600160a01b039384168152919092166020820152604081019190915260600190565b6001600160a01b0383168152604060208201819052600090614cda908301846157e2565b600060018060a01b03808a16835260e0602084015261595160e084018a6157e2565b8381036040850152615963818a615825565b905083810360608501526159778189615825565b9050818716608085015283810360a08501526159938187615854565b9250505061ffff831660c083015298975050505050505050565b6000602082526122ec60208301846157e2565b6040808252835182820181905260009190606090818501906020808901865b83811015615a0d57815180516001600160a01b031686528301518386015293860193908201906001016159df565b50508683038188015287518084528184019250600581901b84018201898301885b83811015615adf57601f198784030186528151610160815160098110615a5657615a56615ddd565b855281870151878601528a820151615a708c870182615880565b508982015160c081818801526080840151915060e0828189015260a08501519250615aa76101008901846001600160a01b03169052565b908401516101208801529092015161014086018290529150615acb81860183615854565b978701979450505090840190600101615a2e565b50909b9a5050505050505050505050565b600060408252615b036040830185615854565b90508260208301529392505050565b6000602082526122ec6020830184615854565b60208082526011908201527034b73b30b634b216b4b734ba34b0ba37b960791b604082015260600190565b60208082526016908201527531b0b63632b916b4b996b737ba16b096b5b2b2b832b960511b604082015260600190565b6020808252601d908201527f77697468647261772d66726f6d2d636f6d706f756e642d6661696c6564000000604082015260600190565b6020808252601a908201527f63616c6c65722d69732d6e6f742d7468652d676f7665726e6f72000000000000604082015260600190565b60208082526019908201527818d85b1b195c8b5a5ccb5b9bdd0b5d995cdc195c8b5c1bdbdb603a1b604082015260600190565b600086825285602083015260a06040830152615c4060a08301866157e2565b6001600160a01b0394909416606083015250608001529392505050565b604051601f8201601f191681016001600160401b0381118282101715615c8557615c85615df3565b604052919050565b60006001600160401b03821115615ca657615ca6615df3565b5060051b60200190565b60006001600160401b03821115615cc957615cc9615df3565b50601f01601f191660200190565b60008219821115615cea57615cea615dc7565b500190565b600082615d0a57634e487b7160e01b81526012600452602481fd5b500490565b6000816000190483118215151615615d2957615d29615dc7565b500290565b600082821015615d4057615d40615dc7565b500390565b60005b83811015615d60578181015183820152602001615d48565b838111156128f15750506000910152565b600181811c90821680615d8557607f821691505b60208210811415615da657634e487b7160e01b600052602260045260246000fd5b50919050565b6000600019821415615dc057615dc0615dc7565b5060010190565b634e487b7160e01b600052601160045260246000fd5b634e487b7160e01b600052602160045260246000fd5b634e487b7160e01b600052604160045260246000fd5b6002811061095c5761095c615ddd565b6001600160a01b038116811461095c57600080fd5b801515811461095c57600080fdfea2646970667358221220d47a9dbba79d1b3d25009e4d355b8ee6a9d828a85f777da25965d2a3eb2f274964736f6c63430008030033",
  "devdoc": {
    "kind": "dev",
    "methods": {
      "addKeeper(address)": {
        "params": {
          "_keeperAddress": "keeper address to add."
        }
      },
      "approveToken()": {
        "details": "Approve all required tokens"
      },
      "callFunction(address,(address,uint256),bytes)": {
        "details": "DyDx calls this function after doing flash loan"
      },
      "executeOperation(address[],uint256[],uint256[],address,bytes)": {
        "details": "Aave will call this function after doing flash loan"
      },
      "migrate(address)": {
        "details": "_beforeMigration hook can be implemented in child strategy to do extra steps.",
        "params": {
          "_newStrategy": "Address of new strategy"
        }
      },
      "rebalance()": {
        "details": "Rebalance profit, loss and investment of this strategy"
      },
      "removeKeeper(address)": {
        "params": {
          "_keeperAddress": "keeper address to remove."
        }
      },
      "sweepERC20(address)": {
        "details": "sweep given token to feeCollector of strategy",
        "params": {
          "_fromToken": "token address to sweep"
        }
      },
      "totalValue()": {
        "details": "Compound calculate rewardToken accrued and store it when user interact with Compound contracts, i.e. deposit, withdraw or transfer tokens. So compAccrued() will return stored rewardToken accrued amount, which is olderFor up to date value check totalValueCurrent()"
      },
      "totalValueCurrent()": {
        "details": "Report total value in collateral tokenClaimed rewardToken will stay in strategy until next rebalance"
      },
      "updateBorrowRatio(uint256,uint256)": {
        "details": "It is possible to set 0 as _minBorrowRatio to not borrow anything",
        "params": {
          "_maxBorrowRatio": "Maximum % we want to borrow",
          "_minBorrowRatio": "Minimum % we want to borrow"
        }
      },
      "updateFeeCollector(address)": {
        "params": {
          "_feeCollector": "fee collector address"
        }
      },
      "updateSwapManager(address)": {
        "params": {
          "_swapManager": "swap manager address"
        }
      },
      "withdraw(uint256)": {
        "details": "Withdraw collateral token from lending pool.",
        "params": {
          "_amount": "Amount of collateral token"
        }
      }
    },
    "title": "Deposit ETH in Compound and earn interest.",
    "version": 1
  },
  "userdoc": {
    "kind": "user",
    "methods": {
      "addKeeper(address)": {
        "notice": "Add given address in keepers list."
      },
      "currentBorrowRatio()": {
        "notice": "Current borrow ratio, calculated as current borrow divide by max allowed borrow Return value is based on basis points, i.e. 7500 = 75% ratio"
      },
      "getPosition()": {
        "notice": "Return supply and borrow position. Position may return few block old value"
      },
      "isLossMaking()": {
        "notice": "Calculate current position using claimed rewardToken and current borrow."
      },
      "isReservedToken(address)": {
        "notice": "Check whether given token is reserved or not. Reserved tokens are not allowed to sweep."
      },
      "keepers()": {
        "notice": "Return list of keepers"
      },
      "migrate(address)": {
        "notice": "Migrate all asset and vault ownership,if any, to new strategy"
      },
      "removeKeeper(address)": {
        "notice": "Remove given address from keepers list."
      },
      "token()": {
        "notice": "Returns address of token correspond to collateral token"
      },
      "totalValue()": {
        "notice": "Calculate total value using rewardToken accrued, supply and borrow position"
      },
      "totalValueCurrent()": {
        "notice": "Calculate total value based on rewardToken claimed, supply and borrow position"
      },
      "updateBorrowRatio(uint256,uint256)": {
        "notice": "Update upper and lower borrow ratio"
      },
      "updateFeeCollector(address)": {
        "notice": "Update fee collector"
      },
      "updateSwapManager(address)": {
        "notice": "Update swap manager address"
      }
    },
    "version": 1
  },
  "storageLayout": {
    "storage": [
      {
        "astId": 14920,
        "contract": "contracts/strategies/compound/CompoundLeverageStrategyETH.sol:CompoundLeverageStrategyETH",
        "label": "WETH",
        "offset": 0,
        "slot": "0",
        "type": "t_address"
      },
      {
        "astId": 14925,
        "contract": "contracts/strategies/compound/CompoundLeverageStrategyETH.sol:CompoundLeverageStrategyETH",
        "label": "receiptToken",
        "offset": 0,
        "slot": "1",
        "type": "t_address"
      },
      {
        "astId": 14931,
        "contract": "contracts/strategies/compound/CompoundLeverageStrategyETH.sol:CompoundLeverageStrategyETH",
        "label": "feeCollector",
        "offset": 0,
        "slot": "2",
        "type": "t_address"
      },
      {
        "astId": 14934,
        "contract": "contracts/strategies/compound/CompoundLeverageStrategyETH.sol:CompoundLeverageStrategyETH",
        "label": "swapManager",
        "offset": 0,
        "slot": "3",
        "type": "t_contract(ISwapManager)5278"
      },
      {
        "astId": 14937,
        "contract": "contracts/strategies/compound/CompoundLeverageStrategyETH.sol:CompoundLeverageStrategyETH",
        "label": "oraclePeriod",
        "offset": 0,
        "slot": "4",
        "type": "t_uint256"
      },
      {
        "astId": 14940,
        "contract": "contracts/strategies/compound/CompoundLeverageStrategyETH.sol:CompoundLeverageStrategyETH",
        "label": "oracleRouterIdx",
        "offset": 0,
        "slot": "5",
        "type": "t_uint256"
      },
      {
        "astId": 14943,
        "contract": "contracts/strategies/compound/CompoundLeverageStrategyETH.sol:CompoundLeverageStrategyETH",
        "label": "swapSlippage",
        "offset": 0,
        "slot": "6",
        "type": "t_uint256"
      },
      {
        "astId": 14946,
        "contract": "contracts/strategies/compound/CompoundLeverageStrategyETH.sol:CompoundLeverageStrategyETH",
        "label": "_keepers",
        "offset": 0,
        "slot": "7",
        "type": "t_struct(AddressSet)4318_storage"
      },
      {
        "astId": 3083,
        "contract": "contracts/strategies/compound/CompoundLeverageStrategyETH.sol:CompoundLeverageStrategyETH",
        "label": "aaveAddressesProvider",
        "offset": 0,
        "slot": "9",
        "type": "t_contract(AaveLendingPoolAddressesProvider)4621"
      },
      {
        "astId": 3088,
        "contract": "contracts/strategies/compound/CompoundLeverageStrategyETH.sol:CompoundLeverageStrategyETH",
        "label": "dyDxMarketId",
        "offset": 0,
        "slot": "10",
        "type": "t_uint256"
      },
      {
        "astId": 3094,
        "contract": "contracts/strategies/compound/CompoundLeverageStrategyETH.sol:CompoundLeverageStrategyETH",
        "label": "isAaveActive",
        "offset": 0,
        "slot": "11",
        "type": "t_bool"
      },
      {
        "astId": 3097,
        "contract": "contracts/strategies/compound/CompoundLeverageStrategyETH.sol:CompoundLeverageStrategyETH",
        "label": "isDyDxActive",
        "offset": 1,
        "slot": "11",
        "type": "t_bool"
      },
      {
        "astId": 3189,
        "contract": "contracts/strategies/compound/CompoundLeverageStrategyETH.sol:CompoundLeverageStrategyETH",
        "label": "awaitingFlash",
        "offset": 2,
        "slot": "11",
        "type": "t_bool"
      },
      {
        "astId": 20777,
        "contract": "contracts/strategies/compound/CompoundLeverageStrategyETH.sol:CompoundLeverageStrategyETH",
        "label": "NAME",
        "offset": 0,
        "slot": "12",
        "type": "t_string_storage"
      },
      {
        "astId": 20786,
        "contract": "contracts/strategies/compound/CompoundLeverageStrategyETH.sol:CompoundLeverageStrategyETH",
        "label": "minBorrowRatio",
        "offset": 0,
        "slot": "13",
        "type": "t_uint256"
      },
      {
        "astId": 20789,
        "contract": "contracts/strategies/compound/CompoundLeverageStrategyETH.sol:CompoundLeverageStrategyETH",
        "label": "maxBorrowRatio",
        "offset": 0,
        "slot": "14",
        "type": "t_uint256"
      },
      {
        "astId": 20792,
        "contract": "contracts/strategies/compound/CompoundLeverageStrategyETH.sol:CompoundLeverageStrategyETH",
        "label": "cToken",
        "offset": 0,
        "slot": "15",
        "type": "t_contract(CToken)5408"
      },
      {
        "astId": 20808,
        "contract": "contracts/strategies/compound/CompoundLeverageStrategyETH.sol:CompoundLeverageStrategyETH",
        "label": "rewardDistributor",
        "offset": 0,
        "slot": "16",
        "type": "t_address"
      }
    ],
    "types": {
      "t_address": {
        "encoding": "inplace",
        "label": "address",
        "numberOfBytes": "20"
      },
      "t_array(t_bytes32)dyn_storage": {
        "base": "t_bytes32",
        "encoding": "dynamic_array",
        "label": "bytes32[]",
        "numberOfBytes": "32"
      },
      "t_bool": {
        "encoding": "inplace",
        "label": "bool",
        "numberOfBytes": "1"
      },
      "t_bytes32": {
        "encoding": "inplace",
        "label": "bytes32",
        "numberOfBytes": "32"
      },
      "t_contract(AaveLendingPoolAddressesProvider)4621": {
        "encoding": "inplace",
        "label": "contract AaveLendingPoolAddressesProvider",
        "numberOfBytes": "20"
      },
      "t_contract(CToken)5408": {
        "encoding": "inplace",
        "label": "contract CToken",
        "numberOfBytes": "20"
      },
      "t_contract(ISwapManager)5278": {
        "encoding": "inplace",
        "label": "contract ISwapManager",
        "numberOfBytes": "20"
      },
      "t_mapping(t_bytes32,t_uint256)": {
        "encoding": "mapping",
        "key": "t_bytes32",
        "label": "mapping(bytes32 => uint256)",
        "numberOfBytes": "32",
        "value": "t_uint256"
      },
      "t_string_storage": {
        "encoding": "bytes",
        "label": "string",
        "numberOfBytes": "32"
      },
      "t_struct(AddressSet)4318_storage": {
        "encoding": "inplace",
        "label": "struct EnumerableSet.AddressSet",
        "members": [
          {
            "astId": 4317,
            "contract": "contracts/strategies/compound/CompoundLeverageStrategyETH.sol:CompoundLeverageStrategyETH",
            "label": "_inner",
            "offset": 0,
            "slot": "0",
            "type": "t_struct(Set)4017_storage"
          }
        ],
        "numberOfBytes": "64"
      },
      "t_struct(Set)4017_storage": {
        "encoding": "inplace",
        "label": "struct EnumerableSet.Set",
        "members": [
          {
            "astId": 4012,
            "contract": "contracts/strategies/compound/CompoundLeverageStrategyETH.sol:CompoundLeverageStrategyETH",
            "label": "_values",
            "offset": 0,
            "slot": "0",
            "type": "t_array(t_bytes32)dyn_storage"
          },
          {
            "astId": 4016,
            "contract": "contracts/strategies/compound/CompoundLeverageStrategyETH.sol:CompoundLeverageStrategyETH",
            "label": "_indexes",
            "offset": 0,
            "slot": "1",
            "type": "t_mapping(t_bytes32,t_uint256)"
          }
        ],
        "numberOfBytes": "64"
      },
      "t_uint256": {
        "encoding": "inplace",
        "label": "uint256",
        "numberOfBytes": "32"
      }
    }
  }
}