{
  "address": "0x4769f18ba364658bf98Bf74606ef2f8cfB17D425",
  "abi": [
    {
      "inputs": [
        {
          "internalType": "address",
          "name": "_pool",
          "type": "address"
        },
        {
          "internalType": "address",
          "name": "_swapManager",
          "type": "address"
        },
        {
          "internalType": "uint256",
          "name": "_fusePoolId",
          "type": "uint256"
        }
      ],
      "stateMutability": "nonpayable",
      "type": "constructor"
    },
    {
      "anonymous": false,
      "inputs": [
        {
          "indexed": true,
          "internalType": "uint256",
          "name": "newFusePoolId",
          "type": "uint256"
        },
        {
          "indexed": true,
          "internalType": "address",
          "name": "oldCToken",
          "type": "address"
        },
        {
          "indexed": true,
          "internalType": "address",
          "name": "newCToken",
          "type": "address"
        }
      ],
      "name": "FusePoolChanged",
      "type": "event"
    },
    {
      "anonymous": false,
      "inputs": [
        {
          "indexed": true,
          "internalType": "address",
          "name": "previousFeeCollector",
          "type": "address"
        },
        {
          "indexed": true,
          "internalType": "address",
          "name": "newFeeCollector",
          "type": "address"
        }
      ],
      "name": "UpdatedFeeCollector",
      "type": "event"
    },
    {
      "anonymous": false,
      "inputs": [
        {
          "indexed": false,
          "internalType": "uint256",
          "name": "oldPeriod",
          "type": "uint256"
        },
        {
          "indexed": false,
          "internalType": "uint256",
          "name": "newPeriod",
          "type": "uint256"
        },
        {
          "indexed": false,
          "internalType": "uint256",
          "name": "oldRouterIdx",
          "type": "uint256"
        },
        {
          "indexed": false,
          "internalType": "uint256",
          "name": "newRouterIdx",
          "type": "uint256"
        }
      ],
      "name": "UpdatedOracleConfig",
      "type": "event"
    },
    {
      "anonymous": false,
      "inputs": [
        {
          "indexed": true,
          "internalType": "address",
          "name": "previousSwapManager",
          "type": "address"
        },
        {
          "indexed": true,
          "internalType": "address",
          "name": "newSwapManager",
          "type": "address"
        }
      ],
      "name": "UpdatedSwapManager",
      "type": "event"
    },
    {
      "anonymous": false,
      "inputs": [
        {
          "indexed": false,
          "internalType": "uint256",
          "name": "oldSwapSlippage",
          "type": "uint256"
        },
        {
          "indexed": false,
          "internalType": "uint256",
          "name": "newSwapSlippage",
          "type": "uint256"
        }
      ],
      "name": "UpdatedSwapSlippage",
      "type": "event"
    },
    {
      "inputs": [],
      "name": "NAME",
      "outputs": [
        {
          "internalType": "string",
          "name": "",
          "type": "string"
        }
      ],
      "stateMutability": "view",
      "type": "function"
    },
    {
      "inputs": [],
      "name": "VERSION",
      "outputs": [
        {
          "internalType": "string",
          "name": "",
          "type": "string"
        }
      ],
      "stateMutability": "view",
      "type": "function"
    },
    {
      "inputs": [
        {
          "internalType": "address",
          "name": "_keeperAddress",
          "type": "address"
        }
      ],
      "name": "addKeeper",
      "outputs": [],
      "stateMutability": "nonpayable",
      "type": "function"
    },
    {
      "inputs": [],
      "name": "approveToken",
      "outputs": [],
      "stateMutability": "nonpayable",
      "type": "function"
    },
    {
      "inputs": [],
      "name": "collateralToken",
      "outputs": [
        {
          "internalType": "contract IERC20",
          "name": "",
          "type": "address"
        }
      ],
      "stateMutability": "view",
      "type": "function"
    },
    {
      "inputs": [
        {
          "internalType": "uint256",
          "name": "amount",
          "type": "uint256"
        }
      ],
      "name": "convertFrom18",
      "outputs": [
        {
          "internalType": "uint256",
          "name": "",
          "type": "uint256"
        }
      ],
      "stateMutability": "pure",
      "type": "function"
    },
    {
      "inputs": [],
      "name": "feeCollector",
      "outputs": [
        {
          "internalType": "address",
          "name": "",
          "type": "address"
        }
      ],
      "stateMutability": "view",
      "type": "function"
    },
    {
      "inputs": [],
      "name": "fusePoolId",
      "outputs": [
        {
          "internalType": "uint256",
          "name": "",
          "type": "uint256"
        }
      ],
      "stateMutability": "view",
      "type": "function"
    },
    {
      "inputs": [
        {
          "internalType": "address",
          "name": "_addressListFactory",
          "type": "address"
        }
      ],
      "name": "init",
      "outputs": [],
      "stateMutability": "nonpayable",
      "type": "function"
    },
    {
      "inputs": [
        {
          "internalType": "address",
          "name": "_token",
          "type": "address"
        }
      ],
      "name": "isReservedToken",
      "outputs": [
        {
          "internalType": "bool",
          "name": "",
          "type": "bool"
        }
      ],
      "stateMutability": "view",
      "type": "function"
    },
    {
      "inputs": [],
      "name": "keepers",
      "outputs": [
        {
          "internalType": "contract IAddressList",
          "name": "",
          "type": "address"
        }
      ],
      "stateMutability": "view",
      "type": "function"
    },
    {
      "inputs": [
        {
          "internalType": "address",
          "name": "_newStrategy",
          "type": "address"
        }
      ],
      "name": "migrate",
      "outputs": [],
      "stateMutability": "nonpayable",
      "type": "function"
    },
    {
      "inputs": [
        {
          "internalType": "uint256",
          "name": "_newPoolId",
          "type": "uint256"
        }
      ],
      "name": "migrateFusePool",
      "outputs": [],
      "stateMutability": "nonpayable",
      "type": "function"
    },
    {
      "inputs": [],
      "name": "oraclePeriod",
      "outputs": [
        {
          "internalType": "uint256",
          "name": "",
          "type": "uint256"
        }
      ],
      "stateMutability": "view",
      "type": "function"
    },
    {
      "inputs": [],
      "name": "oracleRouterIdx",
      "outputs": [
        {
          "internalType": "uint256",
          "name": "",
          "type": "uint256"
        }
      ],
      "stateMutability": "view",
      "type": "function"
    },
    {
      "inputs": [],
      "name": "pool",
      "outputs": [
        {
          "internalType": "address",
          "name": "",
          "type": "address"
        }
      ],
      "stateMutability": "view",
      "type": "function"
    },
    {
      "inputs": [],
      "name": "rebalance",
      "outputs": [],
      "stateMutability": "nonpayable",
      "type": "function"
    },
    {
      "inputs": [],
      "name": "receiptToken",
      "outputs": [
        {
          "internalType": "address",
          "name": "",
          "type": "address"
        }
      ],
      "stateMutability": "view",
      "type": "function"
    },
    {
      "inputs": [
        {
          "internalType": "address",
          "name": "_keeperAddress",
          "type": "address"
        }
      ],
      "name": "removeKeeper",
      "outputs": [],
      "stateMutability": "nonpayable",
      "type": "function"
    },
    {
      "inputs": [],
      "name": "setupOracles",
      "outputs": [],
      "stateMutability": "nonpayable",
      "type": "function"
    },
    {
      "inputs": [],
      "name": "swapManager",
      "outputs": [
        {
          "internalType": "contract ISwapManager",
          "name": "",
          "type": "address"
        }
      ],
      "stateMutability": "view",
      "type": "function"
    },
    {
      "inputs": [],
      "name": "swapSlippage",
      "outputs": [
        {
          "internalType": "uint256",
          "name": "",
          "type": "uint256"
        }
      ],
      "stateMutability": "view",
      "type": "function"
    },
    {
      "inputs": [
        {
          "internalType": "address",
          "name": "_fromToken",
          "type": "address"
        }
      ],
      "name": "sweepERC20",
      "outputs": [],
      "stateMutability": "nonpayable",
      "type": "function"
    },
    {
      "inputs": [],
      "name": "token",
      "outputs": [
        {
          "internalType": "address",
          "name": "",
          "type": "address"
        }
      ],
      "stateMutability": "view",
      "type": "function"
    },
    {
      "inputs": [],
      "name": "totalValue",
      "outputs": [
        {
          "internalType": "uint256",
          "name": "_totalValue",
          "type": "uint256"
        }
      ],
      "stateMutability": "view",
      "type": "function"
    },
    {
      "inputs": [],
      "name": "totalValueCurrent",
      "outputs": [
        {
          "internalType": "uint256",
          "name": "_totalValue",
          "type": "uint256"
        }
      ],
      "stateMutability": "nonpayable",
      "type": "function"
    },
    {
      "inputs": [
        {
          "internalType": "address",
          "name": "_feeCollector",
          "type": "address"
        }
      ],
      "name": "updateFeeCollector",
      "outputs": [],
      "stateMutability": "nonpayable",
      "type": "function"
    },
    {
      "inputs": [
        {
          "internalType": "uint256",
          "name": "_newPeriod",
          "type": "uint256"
        },
        {
          "internalType": "uint256",
          "name": "_newRouterIdx",
          "type": "uint256"
        }
      ],
      "name": "updateOracleConfig",
      "outputs": [],
      "stateMutability": "nonpayable",
      "type": "function"
    },
    {
      "inputs": [
        {
          "internalType": "address",
          "name": "_swapManager",
          "type": "address"
        }
      ],
      "name": "updateSwapManager",
      "outputs": [],
      "stateMutability": "nonpayable",
      "type": "function"
    },
    {
      "inputs": [
        {
          "internalType": "uint256",
          "name": "_newSwapSlippage",
          "type": "uint256"
        }
      ],
      "name": "updateSwapSlippage",
      "outputs": [],
      "stateMutability": "nonpayable",
      "type": "function"
    },
    {
      "inputs": [
        {
          "internalType": "uint256",
          "name": "_amount",
          "type": "uint256"
        }
      ],
      "name": "withdraw",
      "outputs": [],
      "stateMutability": "nonpayable",
      "type": "function"
    }
  ],
  "transactionHash": "0x43304bd40b278b9869ee0e7439ba3cb1b6dc6655f4b2e9d4be5e73a8d6776721",
  "args": [
    "0xd1C117319B3595fbc39b471AB1fd485629eb05F2",
    "0xe382d9f2394A359B01006faa8A1864b8a60d2710",
    23
  ],
  "solcInputHash": "4ee33b63227f5520818647a65d923570",
  "bytecode": "0x60e0604052610e1060045560006005556127106006553480156200002257600080fd5b5060405162003f0438038062003f04833981016040819052620000459162000506565b8282620000c783866001600160a01b031663fc0c546a6040518163ffffffff1660e01b815260040160206040518083038186803b1580156200008657600080fd5b505afa1580156200009b573d6000803e3d6000fd5b505050506040513d601f19601f82011682018060405250810190620000c19190620004e0565b620002d1565b8282826001600160a01b038316620001265760405162461bcd60e51b815260206004820152601460248201527f706f6f6c2d616464726573732d69732d7a65726f00000000000000000000000060448201526064015b60405180910390fd5b6001600160a01b038216620001735760405162461bcd60e51b8152602060048201526012602482015271736d2d616464726573732d69732d7a65726f60701b60448201526064016200011d565b600380546001600160a01b0319166001600160a01b0384811691909117909155606084901b6001600160601b03191660a05260408051637e062a3560e11b815290519185169163fc0c546a91600480820192602092909190829003018186803b158015620001e057600080fd5b505afa158015620001f5573d6000803e3d6000fd5b505050506040513d601f19601f820116820180604052508101906200021b9190620004e0565b60601b6001600160601b031916608052600080546001600160a01b0319166001600160a01b039283161790558316151591506200029d90505760405162461bcd60e51b815260206004820152601660248201527f63546f6b656e2d616464726573732d69732d7a65726f0000000000000000000060448201526064016200011d565b600780546001600160a01b0319166001600160a01b0392909216919091179055505061271060065560c052506200068c9050565b6040516315895f4760e31b815260048101839052600090819073835482fe0532f169024d5e9410199369aad5c77e9063ac4afa389060240160006040518083038186803b1580156200032257600080fd5b505afa15801562000337573d6000803e3d6000fd5b505050506040513d6000823e601f3d908101601f191682016040526200036191908101906200054d565b509093505050506001600160a01b038116620003c05760405162461bcd60e51b815260206004820152601d60248201527f726172692d667573652d696e76616c69642d636f6d7074726f6c6c657200000060448201526064016200011d565b6001600160a01b03831673c02aaa39b223fe8d0a0e5c4f27ead9083c756cc21415620003eb57600092505b6040516318ffa3fd60e11b81526001600160a01b038481166004830152600091908316906331ff47fa9060240160206040518083038186803b1580156200043157600080fd5b505afa15801562000446573d6000803e3d6000fd5b505050506040513d601f19601f820116820180604052508101906200046c9190620004e0565b90506001600160a01b038116620004c65760405162461bcd60e51b815260206004820152601860248201527f726172692d667573652d696e76616c69642d63746f6b656e000000000000000060448201526064016200011d565b949350505050565b8051620004db8162000673565b919050565b600060208284031215620004f2578081fd5b8151620004ff8162000673565b9392505050565b6000806000606084860312156200051b578182fd5b8351620005288162000673565b60208501519093506200053b8162000673565b80925050604084015190509250925092565b600080600080600060a0868803121562000565578081fd5b85516001600160401b03808211156200057c578283fd5b818801915088601f83011262000590578283fd5b815181811115620005a557620005a56200065d565b604051601f8201601f19908116603f01168101908382118183101715620005d057620005d06200065d565b81604052828152602093508b84848701011115620005ec578586fd5b8591505b828210156200060f5784820184015181830185015290830190620005f0565b828211156200062057858484830101525b985062000632915050888201620004ce565b955050506200064460408701620004ce565b6060870151608090970151959894975095949392505050565b634e487b7160e01b600052604160045260246000fd5b6001600160a01b03811681146200068957600080fd5b50565b60805160601c60a05160601c60c05161377062000794600039600061033301526000818161020401528181610495015281816106240152818161089f0152818161091b01528181610ab201528181610c65015281816110e5015281816113150152818161143c0152818161171f015281816117e801528181611a3501528181611fdc015281816123a20152818161243f015261267f0152600081816103b201528181610d2c01528181610efa01528181610f8b0152818161198701528181611a0c01528181611d8001528181612006015281816124fb0152818161265d015281816126b5015281816128d20152818161295901528181612ce40152612fd201526137706000f3fe608060405234801561001057600080fd5b50600436106101e55760003560e01c80639b0db5d01161010f578063d2c35ce8116100a2578063ec78e83211610071578063ec78e83214610439578063fb589de21461044c578063fc0c546a1461045d578063ffa1ad741461046e576101e5565b8063d2c35ce814610403578063d4c3eea014610416578063e00af4a71461041e578063e645c20214610431576101e5565b8063b2016bd4116100de578063b2016bd4146103ad578063c415b95c146103d4578063cd2d7ebe146103e7578063ce5494bb146103f0576101e5565b80639b0db5d01461032e578063a3f4df7e14610355578063a923b2a614610392578063aa101886146103a5576101e5565b8063440d724811610187578063709d039d11610156578063709d039d146102f85780637d7c2a1c1461030b578063951dc22c1461031357806399b71d5c14610326576101e5565b8063440d72481461029c5780634c36fad7146102bf5780634dda5222146102d257806367f5e4b8146102e5576101e5565b80631aedeabe116101c35780631aedeabe146102565780632e1a7d4d1461026d5780634032b72b1461028057806342189c8f14610293576101e5565b806314ae9f2e146101ea57806316f0115b146101ff57806319ab453c14610243575b600080fd5b6101fd6101f83660046132aa565b610493565b005b6102267f000000000000000000000000000000000000000000000000000000000000000081565b6040516001600160a01b0390911681526020015b60405180910390f35b6101fd6102513660046132aa565b610622565b61025f60065481565b60405190815260200161023a565b6101fd61027b366004613483565b61089c565b6101fd61028e3660046132aa565b610919565b61025f60045481565b6102af6102aa3660046132aa565b610a99565b604051901515815260200161023a565b6101fd6102cd3660046132aa565b610ab0565b6101fd6102e0366004613483565b610c63565b6101fd6102f3366004613483565b6110e3565b600354610226906001600160a01b031681565b6101fd61122f565b600154610226906001600160a01b031681565b6101fd61137e565b61025f7f000000000000000000000000000000000000000000000000000000000000000081565b6103856040518060400160405280601181526020017052617269467573652d537472617465677960781b81525081565b60405161023a9190613575565b6101fd6103a03660046134b3565b61143a565b6101fd61166f565b6102267f000000000000000000000000000000000000000000000000000000000000000081565b600254610226906001600160a01b031681565b61025f60055481565b6101fd6103fe3660046132aa565b61171c565b6101fd6104113660046132aa565b611a33565b61025f611bfc565b6101fd61042c3660046132aa565b611c89565b61025f611f24565b600054610226906001600160a01b031681565b61025f61045a366004613483565b90565b6000546001600160a01b0316610226565b61038560405180604001604052806006815260200165332e302e313360d01b81525081565b7f00000000000000000000000000000000000000000000000000000000000000006001600160a01b0316630c340a246040518163ffffffff1660e01b815260040160206040518083038186803b1580156104ec57600080fd5b505afa158015610500573d6000803e3d6000fd5b505050506040513d601f19601f8201168201806040525081019061052491906132c6565b6001600160a01b0316336001600160a01b03161461055d5760405162461bcd60e51b8152600401610554906135d8565b60405180910390fd5b600154604051631484968760e11b81526001600160a01b038381166004830152909116906329092d0e90602401602060405180830381600087803b1580156105a457600080fd5b505af11580156105b8573d6000803e3d6000fd5b505050506040513d601f19601f820116820180604052508101906105dc919061339e565b61061f5760405162461bcd60e51b81526020600482015260146024820152731c995b5bdd994b5ad9595c195c8b59985a5b195960621b6044820152606401610554565b50565b7f00000000000000000000000000000000000000000000000000000000000000006001600160a01b0316630c340a246040518163ffffffff1660e01b815260040160206040518083038186803b15801561067b57600080fd5b505afa15801561068f573d6000803e3d6000fd5b505050506040513d601f19601f820116820180604052508101906106b391906132c6565b6001600160a01b0316336001600160a01b0316146106e35760405162461bcd60e51b8152600401610554906135d8565b6001546001600160a01b03161561073c5760405162461bcd60e51b815260206004820152601b60248201527f6b65657065722d6c6973742d616c72656164792d6372656174656400000000006044820152606401610554565b6000819050806001600160a01b0316630fab4d256040518163ffffffff1660e01b8152600401602060405180830381600087803b15801561077c57600080fd5b505af1158015610790573d6000803e3d6000fd5b505050506040513d601f19601f820116820180604052508101906107b491906132c6565b600180546001600160a01b0319166001600160a01b03929092169182179055630a3b0a4f6107df3390565b6040516001600160e01b031960e084901b1681526001600160a01b039091166004820152602401602060405180830381600087803b15801561082057600080fd5b505af1158015610834573d6000803e3d6000fd5b505050506040513d601f19601f82011682018060405250810190610858919061339e565b6108985760405162461bcd60e51b81526020600482015260116024820152701859190b5ad9595c195c8b59985a5b1959607a1b6044820152606401610554565b5050565b337f00000000000000000000000000000000000000000000000000000000000000006001600160a01b0316146109105760405162461bcd60e51b815260206004820152601960248201527818d85b1b195c8b5a5ccb5b9bdd0b5d995cdc195c8b5c1bdbdb603a1b6044820152606401610554565b61061f81611fb9565b7f00000000000000000000000000000000000000000000000000000000000000006001600160a01b0316630c340a246040518163ffffffff1660e01b815260040160206040518083038186803b15801561097257600080fd5b505afa158015610986573d6000803e3d6000fd5b505050506040513d601f19601f820116820180604052508101906109aa91906132c6565b6001600160a01b0316336001600160a01b0316146109da5760405162461bcd60e51b8152600401610554906135d8565b600154604051630a3b0a4f60e01b81526001600160a01b03838116600483015290911690630a3b0a4f90602401602060405180830381600087803b158015610a2157600080fd5b505af1158015610a35573d6000803e3d6000fd5b505050506040513d601f19601f82011682018060405250810190610a59919061339e565b61061f5760405162461bcd60e51b81526020600482015260116024820152701859190b5ad9595c195c8b59985a5b1959607a1b6044820152606401610554565b6007546001600160a01b038281169116145b919050565b7f00000000000000000000000000000000000000000000000000000000000000006001600160a01b0316630c340a246040518163ffffffff1660e01b815260040160206040518083038186803b158015610b0957600080fd5b505afa158015610b1d573d6000803e3d6000fd5b505050506040513d601f19601f82011682018060405250810190610b4191906132c6565b6001600160a01b0316336001600160a01b031614610b715760405162461bcd60e51b8152600401610554906135d8565b6001600160a01b038116610bbc5760405162461bcd60e51b8152602060048201526012602482015271736d2d616464726573732d69732d7a65726f60701b6044820152606401610554565b6003546001600160a01b0382811691161415610c075760405162461bcd60e51b815260206004820152600a602482015269736d2d69732d73616d6560b01b6044820152606401610554565b6003546040516001600160a01b038084169216907f2d19927e7cac08ceb98b38898a4fdff6da6a27295b9a2d62fe250408ebe044e190600090a3600380546001600160a01b0319166001600160a01b0392909216919091179055565b7f00000000000000000000000000000000000000000000000000000000000000006001600160a01b0316630c340a246040518163ffffffff1660e01b815260040160206040518083038186803b158015610cbc57600080fd5b505afa158015610cd0573d6000803e3d6000fd5b505050506040513d601f19601f82011682018060405250810190610cf491906132c6565b6001600160a01b0316336001600160a01b031614610d245760405162461bcd60e51b8152600401610554906135d8565b6000610d50827f0000000000000000000000000000000000000000000000000000000000000000612035565b6007549091506001600160a01b0380831691161415610da25760405162461bcd60e51b815260206004820152600e60248201526d1cd85b594b599d5cd94b5c1bdbdb60921b6044820152606401610554565b6007546040516370a0823160e01b81523060048201526001600160a01b039091169063db006a759082906370a082319060240160206040518083038186803b158015610ded57600080fd5b505afa158015610e01573d6000803e3d6000fd5b505050506040513d601f19601f82011682018060405250810190610e25919061349b565b6040518263ffffffff1660e01b8152600401610e4391815260200190565b602060405180830381600087803b158015610e5d57600080fd5b505af1158015610e71573d6000803e3d6000fd5b505050506040513d601f19601f82011682018060405250810190610e95919061349b565b15610ee25760405162461bcd60e51b815260206004820152601e60248201527f77697468647261772d66726f6d2d667573652d706f6f6c2d6661696c656400006044820152606401610554565b6040516370a0823160e01b81523060048201526000907f00000000000000000000000000000000000000000000000000000000000000006001600160a01b0316906370a082319060240160206040518083038186803b158015610f4457600080fd5b505afa158015610f58573d6000803e3d6000fd5b505050506040513d601f19601f82011682018060405250810190610f7c919061349b565b9050610fb26001600160a01b037f0000000000000000000000000000000000000000000000000000000000000000168383612225565b60405163140e25ad60e31b8152600481018290526001600160a01b0383169063a0712d6890602401602060405180830381600087803b158015610ff457600080fd5b505af1158015611008573d6000803e3d6000fd5b505050506040513d601f19601f8201168201806040525081019061102c919061349b565b156110795760405162461bcd60e51b815260206004820152601b60248201527f6465706f7369742d746f2d667573652d706f6f6c2d6661696c656400000000006044820152606401610554565b6007546040516001600160a01b0380851692169085907f7725294be69fa7d941c001b388e2086daa9acdf58fbbc7aef3fd8cce3c316b6e90600090a450600780546001600160a01b039092166001600160a01b031992831681179091556000805490921617905550565b7f00000000000000000000000000000000000000000000000000000000000000006001600160a01b0316630c340a246040518163ffffffff1660e01b815260040160206040518083038186803b15801561113c57600080fd5b505afa158015611150573d6000803e3d6000fd5b505050506040513d601f19601f8201168201806040525081019061117491906132c6565b6001600160a01b0316336001600160a01b0316146111a45760405162461bcd60e51b8152600401610554906135d8565b6127108111156111ef5760405162461bcd60e51b8152602060048201526016602482015275696e76616c69642d736c6970706167652d76616c756560501b6044820152606401610554565b60065460408051918252602082018390527ef1c5db862c7598b3b6765552ca951f498611e06412c2d57f8d0b58f82e7f82910160405180910390a1600655565b6001546001600160a01b0316635dbe47e8336040516001600160e01b031960e084901b1681526001600160a01b03909116600482015260240160206040518083038186803b15801561128057600080fd5b505afa158015611294573d6000803e3d6000fd5b505050506040513d601f19601f820116820180604052508101906112b8919061339e565b6112d45760405162461bcd60e51b8152600401610554906135a8565b60008060006112e161237c565b6040516302df682360e11b815260048101849052602481018390526044810182905292955090935091506001600160a01b037f000000000000000000000000000000000000000000000000000000000000000016906305bed04690606401600060405180830381600087803b15801561135957600080fd5b505af115801561136d573d6000803e3d6000fd5b505050506113796124e3565b505050565b6001546001600160a01b0316635dbe47e8336040516001600160e01b031960e084901b1681526001600160a01b03909116600482015260240160206040518083038186803b1580156113cf57600080fd5b505afa1580156113e3573d6000803e3d6000fd5b505050506040513d601f19601f82011682018060405250810190611407919061339e565b6114235760405162461bcd60e51b8152600401610554906135a8565b61142d6000612650565b611438600019612650565b565b7f00000000000000000000000000000000000000000000000000000000000000006001600160a01b0316630c340a246040518163ffffffff1660e01b815260040160206040518083038186803b15801561149357600080fd5b505afa1580156114a7573d6000803e3d6000fd5b505050506040513d601f19601f820116820180604052508101906114cb91906132c6565b6001600160a01b0316336001600160a01b0316146114fb5760405162461bcd60e51b8152600401610554906135d8565b600360009054906101000a90046001600160a01b03166001600160a01b031663c2fba6676040518163ffffffff1660e01b815260040160206040518083038186803b15801561154957600080fd5b505afa15801561155d573d6000803e3d6000fd5b505050506040513d601f19601f82011682018060405250810190611581919061349b565b81106115c65760405162461bcd60e51b81526020600482015260146024820152730d2dcecc2d8d2c85ae4deeae8cae45ad2dcc8caf60631b6044820152606401610554565b816115d15760045491505b603b82116116195760405162461bcd60e51b81526020600482015260156024820152741a5b9d985b1a590b5bdc9858db194b5c195c9a5bd9605a1b6044820152606401610554565b6004546005546040805192835260208301859052820152606081018290527f83bc5ab8030537fcf1d29c2334f6d22c26c82dcbe5ff03923d2cff5c692c0a7f9060800160405180910390a1600491909155600555565b6001546001600160a01b0316635dbe47e8336040516001600160e01b031960e084901b1681526001600160a01b03909116600482015260240160206040518083038186803b1580156116c057600080fd5b505afa1580156116d4573d6000803e3d6000fd5b505050506040513d601f19601f820116820180604052508101906116f8919061339e565b6117145760405162461bcd60e51b8152600401610554906135a8565b61143861281a565b337f00000000000000000000000000000000000000000000000000000000000000006001600160a01b0316146117905760405162461bcd60e51b815260206004820152601960248201527818d85b1b195c8b5a5ccb5b9bdd0b5d995cdc195c8b5c1bdbdb603a1b6044820152606401610554565b6001600160a01b0381166117e65760405162461bcd60e51b815260206004820152601c60248201527f6e65772d73747261746567792d616464726573732d69732d7a65726f000000006044820152606401610554565b7f00000000000000000000000000000000000000000000000000000000000000006001600160a01b0316816001600160a01b03166316f0115b6040518163ffffffff1660e01b815260040160206040518083038186803b15801561184957600080fd5b505afa15801561185d573d6000803e3d6000fd5b505050506040513d601f19601f8201168201806040525081019061188191906132c6565b6001600160a01b0316146118d05760405162461bcd60e51b81526020600482015260166024820152756e6f742d76616c69642d6e65772d737472617465677960501b6044820152606401610554565b6000546040516370a0823160e01b81523060048201526119649183916001600160a01b03909116906370a082319060240160206040518083038186803b15801561191957600080fd5b505afa15801561192d573d6000803e3d6000fd5b505050506040513d601f19601f82011682018060405250810190611951919061349b565b6000546001600160a01b031691906129d5565b6040516370a0823160e01b815230600482015261061f9082906001600160a01b037f000000000000000000000000000000000000000000000000000000000000000016906370a08231906024015b60206040518083038186803b1580156119ca57600080fd5b505afa1580156119de573d6000803e3d6000fd5b505050506040513d601f19601f82011682018060405250810190611a02919061349b565b6001600160a01b037f00000000000000000000000000000000000000000000000000000000000000001691906129d5565b7f00000000000000000000000000000000000000000000000000000000000000006001600160a01b0316630c340a246040518163ffffffff1660e01b815260040160206040518083038186803b158015611a8c57600080fd5b505afa158015611aa0573d6000803e3d6000fd5b505050506040513d601f19601f82011682018060405250810190611ac491906132c6565b6001600160a01b0316336001600160a01b031614611af45760405162461bcd60e51b8152600401610554906135d8565b6001600160a01b038116611b4a5760405162461bcd60e51b815260206004820152601d60248201527f6665652d636f6c6c6563746f722d616464726573732d69732d7a65726f0000006044820152606401610554565b6002546001600160a01b0382811691161415611ba05760405162461bcd60e51b81526020600482015260156024820152746665652d636f6c6c6563746f722d69732d73616d6560581b6044820152606401610554565b6002546040516001600160a01b038084169216907f0f06062680f9bd68e786e9980d9bb03d73d5620fc3b345e417b6eacb310b970690600090a3600280546001600160a01b0319166001600160a01b0392909216919091179055565b6007546040516370a0823160e01b8152306004820152600091611c84916001600160a01b03909116906370a08231906024015b60206040518083038186803b158015611c4757600080fd5b505afa158015611c5b573d6000803e3d6000fd5b505050506040513d601f19601f82011682018060405250810190611c7f919061349b565b612a05565b905090565b6001546001600160a01b0316635dbe47e8336040516001600160e01b031960e084901b1681526001600160a01b03909116600482015260240160206040518083038186803b158015611cda57600080fd5b505afa158015611cee573d6000803e3d6000fd5b505050506040513d601f19601f82011682018060405250810190611d12919061339e565b611d2e5760405162461bcd60e51b8152600401610554906135a8565b6002546001600160a01b0316611d7e5760405162461bcd60e51b81526020600482015260156024820152741999594b58dbdb1b1958dd1bdc8b5b9bdd0b5cd95d605a1b6044820152606401610554565b7f00000000000000000000000000000000000000000000000000000000000000006001600160a01b0316816001600160a01b03161415611e005760405162461bcd60e51b815260206004820152601f60248201527f6e6f742d616c6c6f7765642d746f2d73776565702d636f6c6c61746572616c006044820152606401610554565b611e0981610a99565b15611e4d5760405162461bcd60e51b815260206004820152601460248201527306e6f742d616c6c6f7765642d746f2d73776565760641b6044820152606401610554565b6001600160a01b03811673eeeeeeeeeeeeeeeeeeeeeeeeeeeeeeeeeeeeeeee1415611e8d57600254611e88906001600160a01b031647612ab0565b61061f565b6040516370a0823160e01b81523060048201526000906001600160a01b038316906370a082319060240160206040518083038186803b158015611ecf57600080fd5b505afa158015611ee3573d6000803e3d6000fd5b505050506040513d601f19601f82011682018060405250810190611f07919061349b565b600254909150610898906001600160a01b038481169116836129d5565b6000611f2e612bc9565b6040516370a0823160e01b8152306004820152611c849073c00e94cb662c3520282e6f5717214004a7f26888906370a082319060240160206040518083038186803b158015611f7c57600080fd5b505afa158015611f90573d6000803e3d6000fd5b505050506040513d601f19601f82011682018060405250810190611fb4919061349b565b612c9e565b611fc281612da5565b506040516370a0823160e01b815230600482015261061f907f0000000000000000000000000000000000000000000000000000000000000000906001600160a01b037f000000000000000000000000000000000000000000000000000000000000000016906370a08231906024016119b2565b6040516315895f4760e31b815260048101839052600090819073835482fe0532f169024d5e9410199369aad5c77e9063ac4afa389060240160006040518083038186803b15801561208557600080fd5b505afa158015612099573d6000803e3d6000fd5b505050506040513d6000823e601f3d908101601f191682016040526120c191908101906133be565b509093505050506001600160a01b03811661211e5760405162461bcd60e51b815260206004820152601d60248201527f726172692d667573652d696e76616c69642d636f6d7074726f6c6c65720000006044820152606401610554565b6001600160a01b03831673c02aaa39b223fe8d0a0e5c4f27ead9083c756cc2141561214857600092505b6040516318ffa3fd60e11b81526001600160a01b038481166004830152600091908316906331ff47fa9060240160206040518083038186803b15801561218d57600080fd5b505afa1580156121a1573d6000803e3d6000fd5b505050506040513d601f19601f820116820180604052508101906121c591906132c6565b90506001600160a01b03811661221d5760405162461bcd60e51b815260206004820152601860248201527f726172692d667573652d696e76616c69642d63746f6b656e00000000000000006044820152606401610554565b949350505050565b8015806122ae5750604051636eb1769f60e11b81523060048201526001600160a01b03838116602483015284169063dd62ed3e9060440160206040518083038186803b15801561227457600080fd5b505afa158015612288573d6000803e3d6000fd5b505050506040513d601f19601f820116820180604052508101906122ac919061349b565b155b6123195760405162461bcd60e51b815260206004820152603660248201527f5361666545524332303a20617070726f76652066726f6d206e6f6e2d7a65726f60448201527520746f206e6f6e2d7a65726f20616c6c6f77616e636560501b6064820152608401610554565b6040516001600160a01b03831660248201526044810182905261137990849063095ea7b360e01b906064015b60408051601f198184030181529190526020810180516001600160e01b03166001600160e01b031990931692909217909152612e9b565b604051636a9eee1360e11b81523060048201526000908190819081906001600160a01b037f0000000000000000000000000000000000000000000000000000000000000000169063d53ddc269060240160206040518083038186803b1580156123e457600080fd5b505afa1580156123f8573d6000803e3d6000fd5b505050506040513d601f19601f8201168201806040525081019061241c919061349b565b604051639f2b283360e01b81523060048201529091506000906001600160a01b037f00000000000000000000000000000000000000000000000000000000000000001690639f2b28339060240160206040518083038186803b15801561248157600080fd5b505afa158015612495573d6000803e3d6000fd5b505050506040513d601f19601f820116820180604052508101906124b9919061349b565b90506124c481612f6d565b94506124cf8161305b565b93506124da826130ac565b92505050909192565b6040516370a0823160e01b81523060048201526000907f00000000000000000000000000000000000000000000000000000000000000006001600160a01b0316906370a082319060240160206040518083038186803b15801561254557600080fd5b505afa158015612559573d6000803e3d6000fd5b505050506040513d601f19601f8201168201806040525081019061257d919061349b565b9050801561061f5760075460405163140e25ad60e31b8152600481018390526001600160a01b039091169063a0712d6890602401602060405180830381600087803b1580156125cb57600080fd5b505af11580156125df573d6000803e3d6000fd5b505050506040513d601f19601f82011682018060405250810190612603919061349b565b1561061f5760405162461bcd60e51b815260206004820152601a60248201527f6465706f7369742d746f2d636f6d706f756e642d6661696c65640000000000006044820152606401610554565b6126a46001600160a01b037f0000000000000000000000000000000000000000000000000000000000000000167f000000000000000000000000000000000000000000000000000000000000000083612225565b6007546126de906001600160a01b037f00000000000000000000000000000000000000000000000000000000000000008116911683612225565b60005b600360009054906101000a90046001600160a01b03166001600160a01b031663c2fba6676040518163ffffffff1660e01b815260040160206040518083038186803b15801561272f57600080fd5b505afa158015612743573d6000803e3d6000fd5b505050506040513d601f19601f82011682018060405250810190612767919061349b565b81101561089857600354604051636e74a6f760e01b815260048101839052612808916001600160a01b031690636e74a6f79060240160206040518083038186803b1580156127b457600080fd5b505afa1580156127c8573d6000803e3d6000fd5b505050506040513d601f19601f820116820180604052508101906127ec91906132c6565b73c00e94cb662c3520282e6f5717214004a7f268889084612225565b80612812816136de565b9150506126e1565b60035460048054600554604051630f30f2d360e21b81526001600160a01b0390941693633cc3cb4c9361287d9373c00e94cb662c3520282e6f5717214004a7f268889373c02aaa39b223fe8d0a0e5c4f27ead9083c756cc29391929091016134f0565b602060405180830381600087803b15801561289757600080fd5b505af11580156128ab573d6000803e3d6000fd5b505050506040513d601f19601f820116820180604052508101906128cf91906132c6565b507f00000000000000000000000000000000000000000000000000000000000000006001600160a01b031673c02aaa39b223fe8d0a0e5c4f27ead9083c756cc2146114385760035460048054600554604051630f30f2d360e21b81526001600160a01b0390941693633cc3cb4c936129839373c02aaa39b223fe8d0a0e5c4f27ead9083c756cc2937f00000000000000000000000000000000000000000000000000000000000000009391929091016134f0565b602060405180830381600087803b15801561299d57600080fd5b505af11580156129b1573d6000803e3d6000fd5b505050506040513d601f19601f8201168201806040525081019061061f91906132c6565b6040516001600160a01b03831660248201526044810182905261137990849063a9059cbb60e01b90606401612345565b6000670de0b6b3a7640000600760009054906101000a90046001600160a01b03166001600160a01b031663182df0f56040518163ffffffff1660e01b815260040160206040518083038186803b158015612a5e57600080fd5b505afa158015612a72573d6000803e3d6000fd5b505050506040513d601f19601f82011682018060405250810190612a96919061349b565b612aa09084613678565b612aaa9190613658565b92915050565b80471015612b005760405162461bcd60e51b815260206004820152601d60248201527f416464726573733a20696e73756666696369656e742062616c616e63650000006044820152606401610554565b6000826001600160a01b03168260405160006040518083038185875af1925050503d8060008114612b4d576040519150601f19603f3d011682016040523d82523d6000602084013e612b52565b606091505b50509050806113795760405162461bcd60e51b815260206004820152603a60248201527f416464726573733a20756e61626c6520746f2073656e642076616c75652c207260448201527f6563697069656e74206d617920686176652072657665727465640000000000006064820152608401610554565b60408051600180825281830190925260009160208083019080368337505060075482519293506001600160a01b031691839150600090612c1957634e487b7160e01b600052603260045260246000fd5b6001600160a01b039092166020928302919091019091015260405162e1ed9760e51b8152733d9819210a31b4961b30ef54be2aed79b9c9cd3b90631c3db2e090612c699030908590600401613519565b600060405180830381600087803b158015612c8357600080fd5b505af1158015612c97573d6000803e3d6000fd5b5050505050565b60008115612d69576003546040516340b4c54560e11b81526001600160a01b03909116906381698a8a90612d119073c00e94cb662c3520282e6f5717214004a7f26888907f00000000000000000000000000000000000000000000000000000000000000009087906000906004016134f0565b60006040518083038186803b158015612d2957600080fd5b505afa158015612d3d573d6000803e3d6000fd5b505050506040513d6000823e601f3d908101601f19168201604052612d6591908101906132e2565b9150505b6007546040516370a0823160e01b8152306004820152612d9b916001600160a01b0316906370a0823190602401611c2f565b612aaa9082613640565b6007546040516370a0823160e01b81523060048201526000918291612ddc916001600160a01b0316906370a0823190602401611c2f565b90506000600760009054906101000a90046001600160a01b03166001600160a01b0316633b1d21a26040518163ffffffff1660e01b815260040160206040518083038186803b158015612e2e57600080fd5b505afa158015612e42573d6000803e3d6000fd5b505050506040513d601f19601f82011682018060405250810190612e66919061349b565b90506000818510612e775781612e79565b845b9050612e92838210612e8b5783612e8d565b815b6130bd565b95945050505050565b6000612ef0826040518060400160405280602081526020017f5361666545524332303a206c6f772d6c6576656c2063616c6c206661696c6564815250856001600160a01b03166131949092919063ffffffff16565b8051909150156113795780806020019051810190612f0e919061339e565b6113795760405162461bcd60e51b815260206004820152602a60248201527f5361666545524332303a204552433230206f7065726174696f6e20646964206e6044820152691bdd081cdd58d8d9595960b21b6064820152608401610554565b6007546040516370a0823160e01b81523060048201526000918291612fa4916001600160a01b0316906370a0823190602401611c2f565b905082811115612fbd57612fbb612e8d8483613697565b505b6040516370a0823160e01b81523060048201527f00000000000000000000000000000000000000000000000000000000000000006001600160a01b0316906370a082319060240160206040518083038186803b15801561301c57600080fd5b505afa158015613030573d6000803e3d6000fd5b505050506040513d601f19601f82011682018060405250810190613054919061349b565b9392505050565b6007546040516370a0823160e01b81523060048201526000918291613092916001600160a01b0316906370a0823190602401611c2f565b9050828110156130a6576130548184613697565b50919050565b60008115610aab57612aaa82612da5565b600081156131905760075460405163852a12e360e01b8152600481018490526001600160a01b039091169063852a12e390602401602060405180830381600087803b15801561310b57600080fd5b505af115801561311f573d6000803e3d6000fd5b505050506040513d601f19601f82011682018060405250810190613143919061349b565b156131905760405162461bcd60e51b815260206004820152601d60248201527f77697468647261772d66726f6d2d636f6d706f756e642d6661696c65640000006044820152606401610554565b5090565b606061221d848460008585843b6131ed5760405162461bcd60e51b815260206004820152601d60248201527f416464726573733a2063616c6c20746f206e6f6e2d636f6e74726163740000006044820152606401610554565b600080866001600160a01b0316858760405161320991906134d4565b60006040518083038185875af1925050503d8060008114613246576040519150601f19603f3d011682016040523d82523d6000602084013e61324b565b606091505b509150915061325b828286613266565b979650505050505050565b60608315613275575081613054565b8251156132855782518084602001fd5b8160405162461bcd60e51b81526004016105549190613575565b8051610aab81613725565b6000602082840312156132bb578081fd5b813561305481613725565b6000602082840312156132d7578081fd5b815161305481613725565b600080604083850312156132f4578081fd5b825167ffffffffffffffff8082111561330b578283fd5b818501915085601f83011261331e578283fd5b81516020828211156133325761333261370f565b8160051b925061334381840161360f565b8281528181019085830185870184018b101561335d578788fd5b8796505b8487101561338b578051955061337686613725565b85835260019690960195918301918301613361565b5097909101519698969750505050505050565b6000602082840312156133af578081fd5b81518015158114613054578182fd5b600080600080600060a086880312156133d5578081fd5b855167ffffffffffffffff808211156133ec578283fd5b818801915088601f8301126133ff578283fd5b8151818111156134115761341161370f565b613424601f8201601f191660200161360f565b915080825289602082850101111561343a578384fd5b61344b8160208401602086016136ae565b50955061345c90506020870161329f565b935061346a6040870161329f565b6060870151608090970151959894975095949392505050565b600060208284031215613494578081fd5b5035919050565b6000602082840312156134ac578081fd5b5051919050565b600080604083850312156134c5578182fd5b50508035926020909101359150565b600082516134e68184602087016136ae565b9190910192915050565b6001600160a01b0394851681529290931660208301526040820152606081019190915260800190565b6001600160a01b038381168252604060208084018290528451918401829052600092858201929091906060860190855b81811015613567578551851683529483019491830191600101613549565b509098975050505050505050565b60006020825282518060208401526135948160408501602087016136ae565b601f01601f19169190910160400192915050565b60208082526016908201527531b0b63632b916b4b996b737ba16b096b5b2b2b832b960511b604082015260600190565b6020808252601a908201527f63616c6c65722d69732d6e6f742d7468652d676f7665726e6f72000000000000604082015260600190565b604051601f8201601f1916810167ffffffffffffffff811182821017156136385761363861370f565b604052919050565b60008219821115613653576136536136f9565b500190565b60008261367357634e487b7160e01b81526012600452602481fd5b500490565b6000816000190483118215151615613692576136926136f9565b500290565b6000828210156136a9576136a96136f9565b500390565b60005b838110156136c95781810151838201526020016136b1565b838111156136d8576000848401525b50505050565b60006000198214156136f2576136f26136f9565b5060010190565b634e487b7160e01b600052601160045260246000fd5b634e487b7160e01b600052604160045260246000fd5b6001600160a01b038116811461061f57600080fdfea26469706673582212203c9b7afd19ddfc438c789b2cd13f0786d0c57b0acb4817643cb023755f4dfd1864736f6c63430008030033",
  "devdoc": {
    "kind": "dev",
    "methods": {
      "addKeeper(address)": {
        "params": {
          "_keeperAddress": "keeper address to add."
        }
      },
      "approveToken()": {
        "details": "Approve all required tokens"
      },
      "convertFrom18(uint256)": {
        "details": "Convert from 18 decimals to token defined decimals. Default no conversion."
      },
      "init(address)": {
        "params": {
          "_addressListFactory": "To support same code in eth side chain, user _addressListFactory as param ethereum- 0xded8217De022706A191eE7Ee0Dc9df1185Fb5dA3 polygon-0xD10D5696A350D65A9AA15FE8B258caB4ab1bF291"
        }
      },
      "migrate(address)": {
        "details": "_beforeMigration hook can be implemented in child strategy to do extra steps.",
        "params": {
          "_newStrategy": "Address of new strategy"
        }
      },
      "migrateFusePool(uint256)": {
        "details": "Redeems cTokens from current fuse pool and mints cTokens of new Fuse Pool",
        "params": {
          "_newPoolId": "Fuse Pool ID"
        }
      },
      "rebalance()": {
        "details": "Rebalance profit, loss and investment of this strategy"
      },
      "removeKeeper(address)": {
        "params": {
          "_keeperAddress": "keeper address to remove."
        }
      },
      "sweepERC20(address)": {
        "details": "sweep given token to feeCollector of strategy",
        "params": {
          "_fromToken": "token address to sweep"
        }
      },
      "totalValue()": {
        "details": "Report total value in collateral token"
      },
      "totalValueCurrent()": {
        "details": "Report total value in collateral token"
      },
      "updateFeeCollector(address)": {
        "params": {
          "_feeCollector": "fee collector address"
        }
      },
      "updateSwapManager(address)": {
        "params": {
          "_swapManager": "swap manager address"
        }
      },
      "withdraw(uint256)": {
        "details": "Withdraw collateral token from lending pool.",
        "params": {
          "_amount": "Amount of collateral token"
        }
      }
    },
    "title": "This strategy will deposit collateral token in a Rari Fuse Pool and earn interest.",
    "version": 1
  },
  "userdoc": {
    "kind": "user",
    "methods": {
      "addKeeper(address)": {
        "notice": "Add given address in keepers list."
      },
      "init(address)": {
        "notice": "Create keeper list NOTE: Any function with onlyKeeper modifier will not work until this function is called. NOTE: Due to gas constraint this function cannot be called in constructor."
      },
      "isReservedToken(address)": {
        "notice": "Check whether given token is reserved or not. Reserved tokens are not allowed to sweep."
      },
      "migrate(address)": {
        "notice": "Migrate all asset and vault ownership,if any, to new strategy"
      },
      "migrateFusePool(uint256)": {
        "notice": "Changes the underlying Fuse Pool to a new one"
      },
      "removeKeeper(address)": {
        "notice": "Remove given address from keepers list."
      },
      "token()": {
        "notice": "Returns address of token correspond to collateral token"
      },
      "totalValue()": {
        "notice": "Calculate total value using underlying token"
      },
      "totalValueCurrent()": {
        "notice": "Calculate total value of asset under management (in real-time)"
      },
      "updateFeeCollector(address)": {
        "notice": "Update fee collector"
      },
      "updateSwapManager(address)": {
        "notice": "Update swap manager address"
      }
    },
    "version": 1
  },
  "storageLayout": {
    "storage": [
      {
        "astId": 11305,
        "contract": "contracts/strategies/rari-fuse/RariFuseStrategy.sol:RariFuseStrategy",
        "label": "receiptToken",
        "offset": 0,
        "slot": "0",
        "type": "t_address"
      },
      {
        "astId": 11311,
        "contract": "contracts/strategies/rari-fuse/RariFuseStrategy.sol:RariFuseStrategy",
        "label": "keepers",
        "offset": 0,
        "slot": "1",
        "type": "t_contract(IAddressList)3647"
      },
      {
        "astId": 11314,
        "contract": "contracts/strategies/rari-fuse/RariFuseStrategy.sol:RariFuseStrategy",
        "label": "feeCollector",
        "offset": 0,
        "slot": "2",
        "type": "t_address"
      },
      {
        "astId": 11317,
        "contract": "contracts/strategies/rari-fuse/RariFuseStrategy.sol:RariFuseStrategy",
        "label": "swapManager",
        "offset": 0,
        "slot": "3",
        "type": "t_contract(ISwapManager)3950"
      },
      {
        "astId": 11320,
        "contract": "contracts/strategies/rari-fuse/RariFuseStrategy.sol:RariFuseStrategy",
        "label": "oraclePeriod",
        "offset": 0,
        "slot": "4",
        "type": "t_uint256"
      },
      {
        "astId": 11323,
        "contract": "contracts/strategies/rari-fuse/RariFuseStrategy.sol:RariFuseStrategy",
        "label": "oracleRouterIdx",
        "offset": 0,
        "slot": "5",
        "type": "t_uint256"
      },
      {
        "astId": 11326,
        "contract": "contracts/strategies/rari-fuse/RariFuseStrategy.sol:RariFuseStrategy",
        "label": "swapSlippage",
        "offset": 0,
        "slot": "6",
        "type": "t_uint256"
      },
      {
        "astId": 17422,
        "contract": "contracts/strategies/rari-fuse/RariFuseStrategy.sol:RariFuseStrategy",
        "label": "cToken",
        "offset": 0,
        "slot": "7",
        "type": "t_contract(CToken)4080"
      }
    ],
    "types": {
      "t_address": {
        "encoding": "inplace",
        "label": "address",
        "numberOfBytes": "20"
      },
      "t_contract(CToken)4080": {
        "encoding": "inplace",
        "label": "contract CToken",
        "numberOfBytes": "20"
      },
      "t_contract(IAddressList)3647": {
        "encoding": "inplace",
        "label": "contract IAddressList",
        "numberOfBytes": "20"
      },
      "t_contract(ISwapManager)3950": {
        "encoding": "inplace",
        "label": "contract ISwapManager",
        "numberOfBytes": "20"
      },
      "t_uint256": {
        "encoding": "inplace",
        "label": "uint256",
        "numberOfBytes": "32"
      }
    }
  }
}