{
  "address": "0x67893865686C22f0a243114B0893De65117d2f3b",
  "abi": [
    {
      "inputs": [
        {
          "internalType": "address",
          "name": "_pool",
          "type": "address"
        },
        {
          "internalType": "address",
          "name": "_swapManager",
          "type": "address"
        },
        {
          "internalType": "uint256",
          "name": "_fusePoolId",
          "type": "uint256"
        }
      ],
      "stateMutability": "nonpayable",
      "type": "constructor"
    },
    {
      "anonymous": false,
      "inputs": [
        {
          "indexed": true,
          "internalType": "uint256",
          "name": "newFusePoolId",
          "type": "uint256"
        },
        {
          "indexed": true,
          "internalType": "address",
          "name": "oldCToken",
          "type": "address"
        },
        {
          "indexed": true,
          "internalType": "address",
          "name": "newCToken",
          "type": "address"
        }
      ],
      "name": "FusePoolChanged",
      "type": "event"
    },
    {
      "anonymous": false,
      "inputs": [
        {
          "indexed": true,
          "internalType": "address",
          "name": "previousFeeCollector",
          "type": "address"
        },
        {
          "indexed": true,
          "internalType": "address",
          "name": "newFeeCollector",
          "type": "address"
        }
      ],
      "name": "UpdatedFeeCollector",
      "type": "event"
    },
    {
      "anonymous": false,
      "inputs": [
        {
          "indexed": false,
          "internalType": "uint256",
          "name": "oldPeriod",
          "type": "uint256"
        },
        {
          "indexed": false,
          "internalType": "uint256",
          "name": "newPeriod",
          "type": "uint256"
        },
        {
          "indexed": false,
          "internalType": "uint256",
          "name": "oldRouterIdx",
          "type": "uint256"
        },
        {
          "indexed": false,
          "internalType": "uint256",
          "name": "newRouterIdx",
          "type": "uint256"
        }
      ],
      "name": "UpdatedOracleConfig",
      "type": "event"
    },
    {
      "anonymous": false,
      "inputs": [
        {
          "indexed": true,
          "internalType": "address",
          "name": "previousSwapManager",
          "type": "address"
        },
        {
          "indexed": true,
          "internalType": "address",
          "name": "newSwapManager",
          "type": "address"
        }
      ],
      "name": "UpdatedSwapManager",
      "type": "event"
    },
    {
      "anonymous": false,
      "inputs": [
        {
          "indexed": false,
          "internalType": "uint256",
          "name": "oldSwapSlippage",
          "type": "uint256"
        },
        {
          "indexed": false,
          "internalType": "uint256",
          "name": "newSwapSlippage",
          "type": "uint256"
        }
      ],
      "name": "UpdatedSwapSlippage",
      "type": "event"
    },
    {
      "inputs": [],
      "name": "NAME",
      "outputs": [
        {
          "internalType": "string",
          "name": "",
          "type": "string"
        }
      ],
      "stateMutability": "view",
      "type": "function"
    },
    {
      "inputs": [],
      "name": "VERSION",
      "outputs": [
        {
          "internalType": "string",
          "name": "",
          "type": "string"
        }
      ],
      "stateMutability": "view",
      "type": "function"
    },
    {
      "inputs": [
        {
          "internalType": "address",
          "name": "_keeperAddress",
          "type": "address"
        }
      ],
      "name": "addKeeper",
      "outputs": [],
      "stateMutability": "nonpayable",
      "type": "function"
    },
    {
      "inputs": [],
      "name": "approveToken",
      "outputs": [],
      "stateMutability": "nonpayable",
      "type": "function"
    },
    {
      "inputs": [],
      "name": "collateralToken",
      "outputs": [
        {
          "internalType": "contract IERC20",
          "name": "",
          "type": "address"
        }
      ],
      "stateMutability": "view",
      "type": "function"
    },
    {
      "inputs": [
        {
          "internalType": "uint256",
          "name": "amount",
          "type": "uint256"
        }
      ],
      "name": "convertFrom18",
      "outputs": [
        {
          "internalType": "uint256",
          "name": "",
          "type": "uint256"
        }
      ],
      "stateMutability": "pure",
      "type": "function"
    },
    {
      "inputs": [],
      "name": "feeCollector",
      "outputs": [
        {
          "internalType": "address",
          "name": "",
          "type": "address"
        }
      ],
      "stateMutability": "view",
      "type": "function"
    },
    {
      "inputs": [],
      "name": "fusePoolId",
      "outputs": [
        {
          "internalType": "uint256",
          "name": "",
          "type": "uint256"
        }
      ],
      "stateMutability": "view",
      "type": "function"
    },
    {
      "inputs": [
        {
          "internalType": "address",
          "name": "_addressListFactory",
          "type": "address"
        }
      ],
      "name": "init",
      "outputs": [],
      "stateMutability": "nonpayable",
      "type": "function"
    },
    {
      "inputs": [
        {
          "internalType": "address",
          "name": "_token",
          "type": "address"
        }
      ],
      "name": "isReservedToken",
      "outputs": [
        {
          "internalType": "bool",
          "name": "",
          "type": "bool"
        }
      ],
      "stateMutability": "view",
      "type": "function"
    },
    {
      "inputs": [],
      "name": "keepers",
      "outputs": [
        {
          "internalType": "contract IAddressList",
          "name": "",
          "type": "address"
        }
      ],
      "stateMutability": "view",
      "type": "function"
    },
    {
      "inputs": [
        {
          "internalType": "address",
          "name": "_newStrategy",
          "type": "address"
        }
      ],
      "name": "migrate",
      "outputs": [],
      "stateMutability": "nonpayable",
      "type": "function"
    },
    {
      "inputs": [
        {
          "internalType": "uint256",
          "name": "_newPoolId",
          "type": "uint256"
        }
      ],
      "name": "migrateFusePool",
      "outputs": [],
      "stateMutability": "nonpayable",
      "type": "function"
    },
    {
      "inputs": [],
      "name": "oraclePeriod",
      "outputs": [
        {
          "internalType": "uint256",
          "name": "",
          "type": "uint256"
        }
      ],
      "stateMutability": "view",
      "type": "function"
    },
    {
      "inputs": [],
      "name": "oracleRouterIdx",
      "outputs": [
        {
          "internalType": "uint256",
          "name": "",
          "type": "uint256"
        }
      ],
      "stateMutability": "view",
      "type": "function"
    },
    {
      "inputs": [],
      "name": "pool",
      "outputs": [
        {
          "internalType": "address",
          "name": "",
          "type": "address"
        }
      ],
      "stateMutability": "view",
      "type": "function"
    },
    {
      "inputs": [],
      "name": "rebalance",
      "outputs": [],
      "stateMutability": "nonpayable",
      "type": "function"
    },
    {
      "inputs": [],
      "name": "receiptToken",
      "outputs": [
        {
          "internalType": "address",
          "name": "",
          "type": "address"
        }
      ],
      "stateMutability": "view",
      "type": "function"
    },
    {
      "inputs": [
        {
          "internalType": "address",
          "name": "_keeperAddress",
          "type": "address"
        }
      ],
      "name": "removeKeeper",
      "outputs": [],
      "stateMutability": "nonpayable",
      "type": "function"
    },
    {
      "inputs": [],
      "name": "setupOracles",
      "outputs": [],
      "stateMutability": "nonpayable",
      "type": "function"
    },
    {
      "inputs": [],
      "name": "swapManager",
      "outputs": [
        {
          "internalType": "contract ISwapManager",
          "name": "",
          "type": "address"
        }
      ],
      "stateMutability": "view",
      "type": "function"
    },
    {
      "inputs": [],
      "name": "swapSlippage",
      "outputs": [
        {
          "internalType": "uint256",
          "name": "",
          "type": "uint256"
        }
      ],
      "stateMutability": "view",
      "type": "function"
    },
    {
      "inputs": [
        {
          "internalType": "address",
          "name": "_fromToken",
          "type": "address"
        }
      ],
      "name": "sweepERC20",
      "outputs": [],
      "stateMutability": "nonpayable",
      "type": "function"
    },
    {
      "inputs": [],
      "name": "token",
      "outputs": [
        {
          "internalType": "address",
          "name": "",
          "type": "address"
        }
      ],
      "stateMutability": "view",
      "type": "function"
    },
    {
      "inputs": [],
      "name": "totalValue",
      "outputs": [
        {
          "internalType": "uint256",
          "name": "_totalValue",
          "type": "uint256"
        }
      ],
      "stateMutability": "view",
      "type": "function"
    },
    {
      "inputs": [],
      "name": "totalValueCurrent",
      "outputs": [
        {
          "internalType": "uint256",
          "name": "_totalValue",
          "type": "uint256"
        }
      ],
      "stateMutability": "nonpayable",
      "type": "function"
    },
    {
      "inputs": [
        {
          "internalType": "address",
          "name": "_feeCollector",
          "type": "address"
        }
      ],
      "name": "updateFeeCollector",
      "outputs": [],
      "stateMutability": "nonpayable",
      "type": "function"
    },
    {
      "inputs": [
        {
          "internalType": "uint256",
          "name": "_newPeriod",
          "type": "uint256"
        },
        {
          "internalType": "uint256",
          "name": "_newRouterIdx",
          "type": "uint256"
        }
      ],
      "name": "updateOracleConfig",
      "outputs": [],
      "stateMutability": "nonpayable",
      "type": "function"
    },
    {
      "inputs": [
        {
          "internalType": "address",
          "name": "_swapManager",
          "type": "address"
        }
      ],
      "name": "updateSwapManager",
      "outputs": [],
      "stateMutability": "nonpayable",
      "type": "function"
    },
    {
      "inputs": [
        {
          "internalType": "uint256",
          "name": "_newSwapSlippage",
          "type": "uint256"
        }
      ],
      "name": "updateSwapSlippage",
      "outputs": [],
      "stateMutability": "nonpayable",
      "type": "function"
    },
    {
      "inputs": [
        {
          "internalType": "uint256",
          "name": "_amount",
          "type": "uint256"
        }
      ],
      "name": "withdraw",
      "outputs": [],
      "stateMutability": "nonpayable",
      "type": "function"
    },
    {
      "stateMutability": "payable",
      "type": "receive"
    }
  ],
  "transactionHash": "0x1c50b0176d12f07b013c0f866eac37fc04260a4e988022b82d5d8c34a169f2f0",
  "args": [
    "0xd1C117319B3595fbc39b471AB1fd485629eb05F2",
    "0xe382d9f2394A359B01006faa8A1864b8a60d2710",
    18
  ],
  "solcInputHash": "5f04fba5c8a61bceef48ee4c9b8cb8c1",
  "bytecode": "0x60c0604052610e1060045560006005556127106006553480156200002257600080fd5b50604051620040363803806200403683398101604081905262000045916200050c565b8282828282620000ca83866001600160a01b031663fc0c546a6040518163ffffffff1660e01b815260040160206040518083038186803b1580156200008957600080fd5b505afa1580156200009e573d6000803e3d6000fd5b505050506040513d601f19601f82011682018060405250810190620000c49190620004e6565b620002d7565b8282826001600160a01b038316620001295760405162461bcd60e51b815260206004820152601460248201527f706f6f6c2d616464726573732d69732d7a65726f00000000000000000000000060448201526064015b60405180910390fd5b6001600160a01b038216620001765760405162461bcd60e51b8152602060048201526012602482015271736d2d616464726573732d69732d7a65726f60701b604482015260640162000120565b600380546001600160a01b0319166001600160a01b0384811691909117909155606084901b6001600160601b03191660a05260408051637e062a3560e11b815290519185169163fc0c546a91600480820192602092909190829003018186803b158015620001e357600080fd5b505afa158015620001f8573d6000803e3d6000fd5b505050506040513d601f19601f820116820180604052508101906200021e9190620004e6565b60601b6001600160601b031916608052600080546001600160a01b0319166001600160a01b03928316179055831615159150620002a090505760405162461bcd60e51b815260206004820152601660248201527f63546f6b656e2d616464726573732d69732d7a65726f00000000000000000000604482015260640162000120565b600780546001600160a01b0319166001600160a01b0392909216919091179055505061271060065560085550620006929350505050565b6040516315895f4760e31b815260048101839052600090819073835482fe0532f169024d5e9410199369aad5c77e9063ac4afa389060240160006040518083038186803b1580156200032857600080fd5b505afa1580156200033d573d6000803e3d6000fd5b505050506040513d6000823e601f3d908101601f1916820160405262000367919081019062000553565b509093505050506001600160a01b038116620003c65760405162461bcd60e51b815260206004820152601d60248201527f726172692d667573652d696e76616c69642d636f6d7074726f6c6c6572000000604482015260640162000120565b6001600160a01b03831673c02aaa39b223fe8d0a0e5c4f27ead9083c756cc21415620003f157600092505b6040516318ffa3fd60e11b81526001600160a01b038481166004830152600091908316906331ff47fa9060240160206040518083038186803b1580156200043757600080fd5b505afa1580156200044c573d6000803e3d6000fd5b505050506040513d601f19601f82011682018060405250810190620004729190620004e6565b90506001600160a01b038116620004cc5760405162461bcd60e51b815260206004820152601860248201527f726172692d667573652d696e76616c69642d63746f6b656e0000000000000000604482015260640162000120565b949350505050565b8051620004e18162000679565b919050565b600060208284031215620004f8578081fd5b8151620005058162000679565b9392505050565b60008060006060848603121562000521578182fd5b83516200052e8162000679565b6020850151909350620005418162000679565b80925050604084015190509250925092565b600080600080600060a086880312156200056b578081fd5b85516001600160401b038082111562000582578283fd5b818801915088601f83011262000596578283fd5b815181811115620005ab57620005ab62000663565b604051601f8201601f19908116603f01168101908382118183101715620005d657620005d662000663565b81604052828152602093508b84848701011115620005f2578586fd5b8591505b82821015620006155784820184015181830185015290830190620005f6565b828211156200062657858484830101525b985062000638915050888201620004d4565b955050506200064a60408701620004d4565b6060870151608090970151959894975095949392505050565b634e487b7160e01b600052604160045260246000fd5b6001600160a01b03811681146200068f57600080fd5b50565b60805160601c60a05160601c6138bb6200077b60003960008181610297015281816106830152818161080901528181610a8401528181610b0001528181610c970152818161116e0152818161139e015281816114c5015281816117a80152818161187101528181611abe01528181612065015281816122d40152818161237101526125b701526000818161051101528181610ef501528181611a1001528181611a9501528181611e090152818161208f0152818161242d01528181612595015281816125ed0152818161280a0152818161289101528181612c4f0152612e6b01526138bb6000f3fe6080604052600436106101dc5760003560e01c80639b0db5d011610102578063d2c35ce811610095578063ec78e83211610064578063ec78e832146105f3578063fb589de214610613578063fc0c546a14610631578063ffa1ad741461064f57610260565b8063d2c35ce814610589578063d4c3eea0146105a9578063e00af4a7146105be578063e645c202146105de57610260565b8063b2016bd4116100d1578063b2016bd4146104ff578063c415b95c14610533578063cd2d7ebe14610553578063ce5494bb1461056957610260565b80639b0db5d01461046a578063a3f4df7e14610480578063a923b2a6146104ca578063aa101886146104ea57610260565b8063440d72481161017a578063709d039d11610149578063709d039d146104005780637d7c2a1c14610420578063951dc22c1461043557806399b71d5c1461045557610260565b8063440d7248146103705780634c36fad7146103a05780634dda5222146103c057806367f5e4b8146103e057610260565b80631aedeabe116101b65780631aedeabe146102f65780632e1a7d4d1461031a5780634032b72b1461033a57806342189c8f1461035a57610260565b806314ae9f2e1461026557806316f0115b1461028557806319ab453c146102d657610260565b36610260576007546001600160a01b031633148061020d57503373c02aaa39b223fe8d0a0e5c4f27ead9083c756cc2145b61025e5760405162461bcd60e51b815260206004820152601960248201527f6e6f742d616c6c6f7765642d746f2d73656e642d65746865720000000000000060448201526064015b60405180910390fd5b005b600080fd5b34801561027157600080fd5b5061025e6102803660046133f5565b610681565b34801561029157600080fd5b506102b97f000000000000000000000000000000000000000000000000000000000000000081565b6040516001600160a01b0390911681526020015b60405180910390f35b3480156102e257600080fd5b5061025e6102f13660046133f5565b610807565b34801561030257600080fd5b5061030c60065481565b6040519081526020016102cd565b34801561032657600080fd5b5061025e6103353660046135ce565b610a81565b34801561034657600080fd5b5061025e6103553660046133f5565b610afe565b34801561036657600080fd5b5061030c60045481565b34801561037c57600080fd5b5061039061038b3660046133f5565b610c7e565b60405190151581526020016102cd565b3480156103ac57600080fd5b5061025e6103bb3660046133f5565b610c95565b3480156103cc57600080fd5b5061025e6103db3660046135ce565b610e48565b3480156103ec57600080fd5b5061025e6103fb3660046135ce565b61116c565b34801561040c57600080fd5b506003546102b9906001600160a01b031681565b34801561042c57600080fd5b5061025e6112b8565b34801561044157600080fd5b506001546102b9906001600160a01b031681565b34801561046157600080fd5b5061025e611407565b34801561047657600080fd5b5061030c60085481565b34801561048c57600080fd5b506104bd6040518060400160405280601181526020017052617269467573652d537472617465677960781b81525081565b6040516102cd91906136c0565b3480156104d657600080fd5b5061025e6104e53660046135fe565b6114c3565b3480156104f657600080fd5b5061025e6116f8565b34801561050b57600080fd5b506102b97f000000000000000000000000000000000000000000000000000000000000000081565b34801561053f57600080fd5b506002546102b9906001600160a01b031681565b34801561055f57600080fd5b5061030c60055481565b34801561057557600080fd5b5061025e6105843660046133f5565b6117a5565b34801561059557600080fd5b5061025e6105a43660046133f5565b611abc565b3480156105b557600080fd5b5061030c611c85565b3480156105ca57600080fd5b5061025e6105d93660046133f5565b611d12565b3480156105ea57600080fd5b5061030c611fad565b3480156105ff57600080fd5b506000546102b9906001600160a01b031681565b34801561061f57600080fd5b5061030c61062e3660046135ce565b90565b34801561063d57600080fd5b506000546001600160a01b03166102b9565b34801561065b57600080fd5b506104bd60405180604001604052806006815260200165332e302e313360d01b81525081565b7f00000000000000000000000000000000000000000000000000000000000000006001600160a01b0316630c340a246040518163ffffffff1660e01b815260040160206040518083038186803b1580156106da57600080fd5b505afa1580156106ee573d6000803e3d6000fd5b505050506040513d601f19601f820116820180604052508101906107129190613411565b6001600160a01b0316336001600160a01b0316146107425760405162461bcd60e51b815260040161025590613723565b600154604051631484968760e11b81526001600160a01b038381166004830152909116906329092d0e90602401602060405180830381600087803b15801561078957600080fd5b505af115801561079d573d6000803e3d6000fd5b505050506040513d601f19601f820116820180604052508101906107c191906134e9565b6108045760405162461bcd60e51b81526020600482015260146024820152731c995b5bdd994b5ad9595c195c8b59985a5b195960621b6044820152606401610255565b50565b7f00000000000000000000000000000000000000000000000000000000000000006001600160a01b0316630c340a246040518163ffffffff1660e01b815260040160206040518083038186803b15801561086057600080fd5b505afa158015610874573d6000803e3d6000fd5b505050506040513d601f19601f820116820180604052508101906108989190613411565b6001600160a01b0316336001600160a01b0316146108c85760405162461bcd60e51b815260040161025590613723565b6001546001600160a01b0316156109215760405162461bcd60e51b815260206004820152601b60248201527f6b65657065722d6c6973742d616c72656164792d6372656174656400000000006044820152606401610255565b6000819050806001600160a01b0316630fab4d256040518163ffffffff1660e01b8152600401602060405180830381600087803b15801561096157600080fd5b505af1158015610975573d6000803e3d6000fd5b505050506040513d601f19601f820116820180604052508101906109999190613411565b600180546001600160a01b0319166001600160a01b03929092169182179055630a3b0a4f6109c43390565b6040516001600160e01b031960e084901b1681526001600160a01b039091166004820152602401602060405180830381600087803b158015610a0557600080fd5b505af1158015610a19573d6000803e3d6000fd5b505050506040513d601f19601f82011682018060405250810190610a3d91906134e9565b610a7d5760405162461bcd60e51b81526020600482015260116024820152701859190b5ad9595c195c8b59985a5b1959607a1b6044820152606401610255565b5050565b337f00000000000000000000000000000000000000000000000000000000000000006001600160a01b031614610af55760405162461bcd60e51b815260206004820152601960248201527818d85b1b195c8b5a5ccb5b9bdd0b5d995cdc195c8b5c1bdbdb603a1b6044820152606401610255565b61080481612042565b7f00000000000000000000000000000000000000000000000000000000000000006001600160a01b0316630c340a246040518163ffffffff1660e01b815260040160206040518083038186803b158015610b5757600080fd5b505afa158015610b6b573d6000803e3d6000fd5b505050506040513d601f19601f82011682018060405250810190610b8f9190613411565b6001600160a01b0316336001600160a01b031614610bbf5760405162461bcd60e51b815260040161025590613723565b600154604051630a3b0a4f60e01b81526001600160a01b03838116600483015290911690630a3b0a4f90602401602060405180830381600087803b158015610c0657600080fd5b505af1158015610c1a573d6000803e3d6000fd5b505050506040513d601f19601f82011682018060405250810190610c3e91906134e9565b6108045760405162461bcd60e51b81526020600482015260116024820152701859190b5ad9595c195c8b59985a5b1959607a1b6044820152606401610255565b6007546001600160a01b038281169116145b919050565b7f00000000000000000000000000000000000000000000000000000000000000006001600160a01b0316630c340a246040518163ffffffff1660e01b815260040160206040518083038186803b158015610cee57600080fd5b505afa158015610d02573d6000803e3d6000fd5b505050506040513d601f19601f82011682018060405250810190610d269190613411565b6001600160a01b0316336001600160a01b031614610d565760405162461bcd60e51b815260040161025590613723565b6001600160a01b038116610da15760405162461bcd60e51b8152602060048201526012602482015271736d2d616464726573732d69732d7a65726f60701b6044820152606401610255565b6003546001600160a01b0382811691161415610dec5760405162461bcd60e51b815260206004820152600a602482015269736d2d69732d73616d6560b01b6044820152606401610255565b6003546040516001600160a01b038084169216907f2d19927e7cac08ceb98b38898a4fdff6da6a27295b9a2d62fe250408ebe044e190600090a3600380546001600160a01b0319166001600160a01b0392909216919091179055565b6001546001600160a01b0316635dbe47e8336040516001600160e01b031960e084901b1681526001600160a01b03909116600482015260240160206040518083038186803b158015610e9957600080fd5b505afa158015610ead573d6000803e3d6000fd5b505050506040513d601f19601f82011682018060405250810190610ed191906134e9565b610eed5760405162461bcd60e51b8152600401610255906136f3565b6000610f19827f00000000000000000000000000000000000000000000000000000000000000006120be565b6007549091506001600160a01b0380831691161415610f6b5760405162461bcd60e51b815260206004820152600e60248201526d1cd85b594b599d5cd94b5c1bdbdb60921b6044820152606401610255565b6007546040516370a0823160e01b81523060048201526001600160a01b039091169063db006a759082906370a082319060240160206040518083038186803b158015610fb657600080fd5b505afa158015610fca573d6000803e3d6000fd5b505050506040513d601f19601f82011682018060405250810190610fee91906135e6565b6040518263ffffffff1660e01b815260040161100c91815260200190565b602060405180830381600087803b15801561102657600080fd5b505af115801561103a573d6000803e3d6000fd5b505050506040513d601f19601f8201168201806040525081019061105e91906135e6565b156110ab5760405162461bcd60e51b815260206004820152601e60248201527f77697468647261772d66726f6d2d667573652d706f6f6c2d6661696c656400006044820152606401610255565b806001600160a01b0316631249c58b476040518263ffffffff1660e01b81526004016000604051808303818588803b1580156110e657600080fd5b505af11580156110fa573d6000803e3d6000fd5b50506007546040516001600160a01b03868116955090911692508591507f7725294be69fa7d941c001b388e2086daa9acdf58fbbc7aef3fd8cce3c316b6e90600090a4600780546001600160a01b039092166001600160a01b0319928316811790915560008054909216179055600855565b7f00000000000000000000000000000000000000000000000000000000000000006001600160a01b0316630c340a246040518163ffffffff1660e01b815260040160206040518083038186803b1580156111c557600080fd5b505afa1580156111d9573d6000803e3d6000fd5b505050506040513d601f19601f820116820180604052508101906111fd9190613411565b6001600160a01b0316336001600160a01b03161461122d5760405162461bcd60e51b815260040161025590613723565b6127108111156112785760405162461bcd60e51b8152602060048201526016602482015275696e76616c69642d736c6970706167652d76616c756560501b6044820152606401610255565b60065460408051918252602082018390527ef1c5db862c7598b3b6765552ca951f498611e06412c2d57f8d0b58f82e7f82910160405180910390a1600655565b6001546001600160a01b0316635dbe47e8336040516001600160e01b031960e084901b1681526001600160a01b03909116600482015260240160206040518083038186803b15801561130957600080fd5b505afa15801561131d573d6000803e3d6000fd5b505050506040513d601f19601f8201168201806040525081019061134191906134e9565b61135d5760405162461bcd60e51b8152600401610255906136f3565b600080600061136a6122ae565b6040516302df682360e11b815260048101849052602481018390526044810182905292955090935091506001600160a01b037f000000000000000000000000000000000000000000000000000000000000000016906305bed04690606401600060405180830381600087803b1580156113e257600080fd5b505af11580156113f6573d6000803e3d6000fd5b50505050611402612415565b505050565b6001546001600160a01b0316635dbe47e8336040516001600160e01b031960e084901b1681526001600160a01b03909116600482015260240160206040518083038186803b15801561145857600080fd5b505afa15801561146c573d6000803e3d6000fd5b505050506040513d601f19601f8201168201806040525081019061149091906134e9565b6114ac5760405162461bcd60e51b8152600401610255906136f3565b6114b66000612588565b6114c1600019612588565b565b7f00000000000000000000000000000000000000000000000000000000000000006001600160a01b0316630c340a246040518163ffffffff1660e01b815260040160206040518083038186803b15801561151c57600080fd5b505afa158015611530573d6000803e3d6000fd5b505050506040513d601f19601f820116820180604052508101906115549190613411565b6001600160a01b0316336001600160a01b0316146115845760405162461bcd60e51b815260040161025590613723565b600360009054906101000a90046001600160a01b03166001600160a01b031663c2fba6676040518163ffffffff1660e01b815260040160206040518083038186803b1580156115d257600080fd5b505afa1580156115e6573d6000803e3d6000fd5b505050506040513d601f19601f8201168201806040525081019061160a91906135e6565b811061164f5760405162461bcd60e51b81526020600482015260146024820152730d2dcecc2d8d2c85ae4deeae8cae45ad2dcc8caf60631b6044820152606401610255565b8161165a5760045491505b603b82116116a25760405162461bcd60e51b81526020600482015260156024820152741a5b9d985b1a590b5bdc9858db194b5c195c9a5bd9605a1b6044820152606401610255565b6004546005546040805192835260208301859052820152606081018290527f83bc5ab8030537fcf1d29c2334f6d22c26c82dcbe5ff03923d2cff5c692c0a7f9060800160405180910390a1600491909155600555565b6001546001600160a01b0316635dbe47e8336040516001600160e01b031960e084901b1681526001600160a01b03909116600482015260240160206040518083038186803b15801561174957600080fd5b505afa15801561175d573d6000803e3d6000fd5b505050506040513d601f19601f8201168201806040525081019061178191906134e9565b61179d5760405162461bcd60e51b8152600401610255906136f3565b6114c1612752565b337f00000000000000000000000000000000000000000000000000000000000000006001600160a01b0316146118195760405162461bcd60e51b815260206004820152601960248201527818d85b1b195c8b5a5ccb5b9bdd0b5d995cdc195c8b5c1bdbdb603a1b6044820152606401610255565b6001600160a01b03811661186f5760405162461bcd60e51b815260206004820152601c60248201527f6e65772d73747261746567792d616464726573732d69732d7a65726f000000006044820152606401610255565b7f00000000000000000000000000000000000000000000000000000000000000006001600160a01b0316816001600160a01b03166316f0115b6040518163ffffffff1660e01b815260040160206040518083038186803b1580156118d257600080fd5b505afa1580156118e6573d6000803e3d6000fd5b505050506040513d601f19601f8201168201806040525081019061190a9190613411565b6001600160a01b0316146119595760405162461bcd60e51b81526020600482015260166024820152756e6f742d76616c69642d6e65772d737472617465677960501b6044820152606401610255565b6000546040516370a0823160e01b81523060048201526119ed9183916001600160a01b03909116906370a082319060240160206040518083038186803b1580156119a257600080fd5b505afa1580156119b6573d6000803e3d6000fd5b505050506040513d601f19601f820116820180604052508101906119da91906135e6565b6000546001600160a01b0316919061290d565b6040516370a0823160e01b81523060048201526108049082906001600160a01b037f000000000000000000000000000000000000000000000000000000000000000016906370a08231906024015b60206040518083038186803b158015611a5357600080fd5b505afa158015611a67573d6000803e3d6000fd5b505050506040513d601f19601f82011682018060405250810190611a8b91906135e6565b6001600160a01b037f000000000000000000000000000000000000000000000000000000000000000016919061290d565b7f00000000000000000000000000000000000000000000000000000000000000006001600160a01b0316630c340a246040518163ffffffff1660e01b815260040160206040518083038186803b158015611b1557600080fd5b505afa158015611b29573d6000803e3d6000fd5b505050506040513d601f19601f82011682018060405250810190611b4d9190613411565b6001600160a01b0316336001600160a01b031614611b7d5760405162461bcd60e51b815260040161025590613723565b6001600160a01b038116611bd35760405162461bcd60e51b815260206004820152601d60248201527f6665652d636f6c6c6563746f722d616464726573732d69732d7a65726f0000006044820152606401610255565b6002546001600160a01b0382811691161415611c295760405162461bcd60e51b81526020600482015260156024820152746665652d636f6c6c6563746f722d69732d73616d6560581b6044820152606401610255565b6002546040516001600160a01b038084169216907f0f06062680f9bd68e786e9980d9bb03d73d5620fc3b345e417b6eacb310b970690600090a3600280546001600160a01b0319166001600160a01b0392909216919091179055565b6007546040516370a0823160e01b8152306004820152600091611d0d916001600160a01b03909116906370a08231906024015b60206040518083038186803b158015611cd057600080fd5b505afa158015611ce4573d6000803e3d6000fd5b505050506040513d601f19601f82011682018060405250810190611d0891906135e6565b612970565b905090565b6001546001600160a01b0316635dbe47e8336040516001600160e01b031960e084901b1681526001600160a01b03909116600482015260240160206040518083038186803b158015611d6357600080fd5b505afa158015611d77573d6000803e3d6000fd5b505050506040513d601f19601f82011682018060405250810190611d9b91906134e9565b611db75760405162461bcd60e51b8152600401610255906136f3565b6002546001600160a01b0316611e075760405162461bcd60e51b81526020600482015260156024820152741999594b58dbdb1b1958dd1bdc8b5b9bdd0b5cd95d605a1b6044820152606401610255565b7f00000000000000000000000000000000000000000000000000000000000000006001600160a01b0316816001600160a01b03161415611e895760405162461bcd60e51b815260206004820152601f60248201527f6e6f742d616c6c6f7765642d746f2d73776565702d636f6c6c61746572616c006044820152606401610255565b611e9281610c7e565b15611ed65760405162461bcd60e51b815260206004820152601460248201527306e6f742d616c6c6f7765642d746f2d73776565760641b6044820152606401610255565b6001600160a01b03811673eeeeeeeeeeeeeeeeeeeeeeeeeeeeeeeeeeeeeeee1415611f1657600254611f11906001600160a01b031647612a1b565b610804565b6040516370a0823160e01b81523060048201526000906001600160a01b038316906370a082319060240160206040518083038186803b158015611f5857600080fd5b505afa158015611f6c573d6000803e3d6000fd5b505050506040513d601f19601f82011682018060405250810190611f9091906135e6565b600254909150610a7d906001600160a01b0384811691168361290d565b6000611fb7612b34565b6040516370a0823160e01b8152306004820152611d0d9073c00e94cb662c3520282e6f5717214004a7f26888906370a082319060240160206040518083038186803b15801561200557600080fd5b505afa158015612019573d6000803e3d6000fd5b505050506040513d601f19601f8201168201806040525081019061203d91906135e6565b612c09565b61204b81612d10565b506040516370a0823160e01b8152306004820152610804907f0000000000000000000000000000000000000000000000000000000000000000906001600160a01b037f000000000000000000000000000000000000000000000000000000000000000016906370a0823190602401611a3b565b6040516315895f4760e31b815260048101839052600090819073835482fe0532f169024d5e9410199369aad5c77e9063ac4afa389060240160006040518083038186803b15801561210e57600080fd5b505afa158015612122573d6000803e3d6000fd5b505050506040513d6000823e601f3d908101601f1916820160405261214a9190810190613509565b509093505050506001600160a01b0381166121a75760405162461bcd60e51b815260206004820152601d60248201527f726172692d667573652d696e76616c69642d636f6d7074726f6c6c65720000006044820152606401610255565b6001600160a01b03831673c02aaa39b223fe8d0a0e5c4f27ead9083c756cc214156121d157600092505b6040516318ffa3fd60e11b81526001600160a01b038481166004830152600091908316906331ff47fa9060240160206040518083038186803b15801561221657600080fd5b505afa15801561222a573d6000803e3d6000fd5b505050506040513d601f19601f8201168201806040525081019061224e9190613411565b90506001600160a01b0381166122a65760405162461bcd60e51b815260206004820152601860248201527f726172692d667573652d696e76616c69642d63746f6b656e00000000000000006044820152606401610255565b949350505050565b604051636a9eee1360e11b81523060048201526000908190819081906001600160a01b037f0000000000000000000000000000000000000000000000000000000000000000169063d53ddc269060240160206040518083038186803b15801561231657600080fd5b505afa15801561232a573d6000803e3d6000fd5b505050506040513d601f19601f8201168201806040525081019061234e91906135e6565b604051639f2b283360e01b81523060048201529091506000906001600160a01b037f00000000000000000000000000000000000000000000000000000000000000001690639f2b28339060240160206040518083038186803b1580156123b357600080fd5b505afa1580156123c7573d6000803e3d6000fd5b505050506040513d601f19601f820116820180604052508101906123eb91906135e6565b90506123f681612e06565b945061240181612ef4565b935061240c82612f45565b92505050909192565b6040516370a0823160e01b81523060048201526000907f00000000000000000000000000000000000000000000000000000000000000006001600160a01b0316906370a082319060240160206040518083038186803b15801561247757600080fd5b505afa15801561248b573d6000803e3d6000fd5b505050506040513d601f19601f820116820180604052508101906124af91906135e6565b9050801561080457604051632e1a7d4d60e01b81526004810182905273c02aaa39b223fe8d0a0e5c4f27ead9083c756cc290632e1a7d4d90602401600060405180830381600087803b15801561250457600080fd5b505af1158015612518573d6000803e3d6000fd5b50505050600760009054906101000a90046001600160a01b03166001600160a01b0316631249c58b826040518263ffffffff1660e01b81526004016000604051808303818588803b15801561256c57600080fd5b505af1158015612580573d6000803e3d6000fd5b505050505050565b6125dc6001600160a01b037f0000000000000000000000000000000000000000000000000000000000000000167f000000000000000000000000000000000000000000000000000000000000000083612f56565b600754612616906001600160a01b037f00000000000000000000000000000000000000000000000000000000000000008116911683612f56565b60005b600360009054906101000a90046001600160a01b03166001600160a01b031663c2fba6676040518163ffffffff1660e01b815260040160206040518083038186803b15801561266757600080fd5b505afa15801561267b573d6000803e3d6000fd5b505050506040513d601f19601f8201168201806040525081019061269f91906135e6565b811015610a7d57600354604051636e74a6f760e01b815260048101839052612740916001600160a01b031690636e74a6f79060240160206040518083038186803b1580156126ec57600080fd5b505afa158015612700573d6000803e3d6000fd5b505050506040513d601f19601f820116820180604052508101906127249190613411565b73c00e94cb662c3520282e6f5717214004a7f268889084612f56565b8061274a81613829565b915050612619565b60035460048054600554604051630f30f2d360e21b81526001600160a01b0390941693633cc3cb4c936127b59373c00e94cb662c3520282e6f5717214004a7f268889373c02aaa39b223fe8d0a0e5c4f27ead9083c756cc293919290910161363b565b602060405180830381600087803b1580156127cf57600080fd5b505af11580156127e3573d6000803e3d6000fd5b505050506040513d601f19601f820116820180604052508101906128079190613411565b507f00000000000000000000000000000000000000000000000000000000000000006001600160a01b031673c02aaa39b223fe8d0a0e5c4f27ead9083c756cc2146114c15760035460048054600554604051630f30f2d360e21b81526001600160a01b0390941693633cc3cb4c936128bb9373c02aaa39b223fe8d0a0e5c4f27ead9083c756cc2937f000000000000000000000000000000000000000000000000000000000000000093919290910161363b565b602060405180830381600087803b1580156128d557600080fd5b505af11580156128e9573d6000803e3d6000fd5b505050506040513d601f19601f820116820180604052508101906108049190613411565b6040516001600160a01b03831660248201526044810182905261140290849063a9059cbb60e01b906064015b60408051601f198184030181529190526020810180516001600160e01b03166001600160e01b03199093169290921790915261307a565b6000670de0b6b3a7640000600760009054906101000a90046001600160a01b03166001600160a01b031663182df0f56040518163ffffffff1660e01b815260040160206040518083038186803b1580156129c957600080fd5b505afa1580156129dd573d6000803e3d6000fd5b505050506040513d601f19601f82011682018060405250810190612a0191906135e6565b612a0b90846137c3565b612a1591906137a3565b92915050565b80471015612a6b5760405162461bcd60e51b815260206004820152601d60248201527f416464726573733a20696e73756666696369656e742062616c616e63650000006044820152606401610255565b6000826001600160a01b03168260405160006040518083038185875af1925050503d8060008114612ab8576040519150601f19603f3d011682016040523d82523d6000602084013e612abd565b606091505b50509050806114025760405162461bcd60e51b815260206004820152603a60248201527f416464726573733a20756e61626c6520746f2073656e642076616c75652c207260448201527f6563697069656e74206d617920686176652072657665727465640000000000006064820152608401610255565b60408051600180825281830190925260009160208083019080368337505060075482519293506001600160a01b031691839150600090612b8457634e487b7160e01b600052603260045260246000fd5b6001600160a01b039092166020928302919091019091015260405162e1ed9760e51b8152733d9819210a31b4961b30ef54be2aed79b9c9cd3b90631c3db2e090612bd49030908590600401613664565b600060405180830381600087803b158015612bee57600080fd5b505af1158015612c02573d6000803e3d6000fd5b5050505050565b60008115612cd4576003546040516340b4c54560e11b81526001600160a01b03909116906381698a8a90612c7c9073c00e94cb662c3520282e6f5717214004a7f26888907f000000000000000000000000000000000000000000000000000000000000000090879060009060040161363b565b60006040518083038186803b158015612c9457600080fd5b505afa158015612ca8573d6000803e3d6000fd5b505050506040513d6000823e601f3d908101601f19168201604052612cd0919081019061342d565b9150505b6007546040516370a0823160e01b8152306004820152612d06916001600160a01b0316906370a0823190602401611cb8565b612a15908261378b565b6007546040516370a0823160e01b81523060048201526000918291612d47916001600160a01b0316906370a0823190602401611cb8565b90506000600760009054906101000a90046001600160a01b03166001600160a01b0316633b1d21a26040518163ffffffff1660e01b815260040160206040518083038186803b158015612d9957600080fd5b505afa158015612dad573d6000803e3d6000fd5b505050506040513d601f19601f82011682018060405250810190612dd191906135e6565b90506000818510612de25781612de4565b845b9050612dfd838210612df65783612df8565b815b61314c565b95945050505050565b6007546040516370a0823160e01b81523060048201526000918291612e3d916001600160a01b0316906370a0823190602401611cb8565b905082811115612e5657612e54612df884836137e2565b505b6040516370a0823160e01b81523060048201527f00000000000000000000000000000000000000000000000000000000000000006001600160a01b0316906370a082319060240160206040518083038186803b158015612eb557600080fd5b505afa158015612ec9573d6000803e3d6000fd5b505050506040513d601f19601f82011682018060405250810190612eed91906135e6565b9392505050565b6007546040516370a0823160e01b81523060048201526000918291612f2b916001600160a01b0316906370a0823190602401611cb8565b905082811015612f3f57612eed81846137e2565b50919050565b60008115610c9057612a1582612d10565b801580612fdf5750604051636eb1769f60e11b81523060048201526001600160a01b03838116602483015284169063dd62ed3e9060440160206040518083038186803b158015612fa557600080fd5b505afa158015612fb9573d6000803e3d6000fd5b505050506040513d601f19601f82011682018060405250810190612fdd91906135e6565b155b61304a5760405162461bcd60e51b815260206004820152603660248201527f5361666545524332303a20617070726f76652066726f6d206e6f6e2d7a65726f60448201527520746f206e6f6e2d7a65726f20616c6c6f77616e636560501b6064820152608401610255565b6040516001600160a01b03831660248201526044810182905261140290849063095ea7b360e01b90606401612939565b60006130cf826040518060400160405280602081526020017f5361666545524332303a206c6f772d6c6576656c2063616c6c206661696c6564815250856001600160a01b031661322b9092919063ffffffff16565b80519091501561140257808060200190518101906130ed91906134e9565b6114025760405162461bcd60e51b815260206004820152602a60248201527f5361666545524332303a204552433230206f7065726174696f6e20646964206e6044820152691bdd081cdd58d8d9595960b21b6064820152608401610255565b600081156132275760075460405163852a12e360e01b8152600481018490526001600160a01b039091169063852a12e390602401602060405180830381600087803b15801561319a57600080fd5b505af11580156131ae573d6000803e3d6000fd5b505050506040513d601f19601f820116820180604052508101906131d291906135e6565b1561321f5760405162461bcd60e51b815260206004820152601d60248201527f77697468647261772d66726f6d2d636f6d706f756e642d6661696c65640000006044820152606401610255565b61322761323a565b5090565b60606122a68484600085613289565b73c02aaa39b223fe8d0a0e5c4f27ead9083c756cc26001600160a01b031663d0e30db0476040518263ffffffff1660e01b81526004016000604051808303818588803b158015612bee57600080fd5b6060824710156132ea5760405162461bcd60e51b815260206004820152602660248201527f416464726573733a20696e73756666696369656e742062616c616e636520666f6044820152651c8818d85b1b60d21b6064820152608401610255565b843b6133385760405162461bcd60e51b815260206004820152601d60248201527f416464726573733a2063616c6c20746f206e6f6e2d636f6e74726163740000006044820152606401610255565b600080866001600160a01b03168587604051613354919061361f565b60006040518083038185875af1925050503d8060008114613391576040519150601f19603f3d011682016040523d82523d6000602084013e613396565b606091505b50915091506133a68282866133b1565b979650505050505050565b606083156133c0575081612eed565b8251156133d05782518084602001fd5b8160405162461bcd60e51b815260040161025591906136c0565b8051610c9081613870565b600060208284031215613406578081fd5b8135612eed81613870565b600060208284031215613422578081fd5b8151612eed81613870565b6000806040838503121561343f578081fd5b825167ffffffffffffffff80821115613456578283fd5b818501915085601f830112613469578283fd5b815160208282111561347d5761347d61385a565b8160051b925061348e81840161375a565b8281528181019085830185870184018b10156134a8578788fd5b8796505b848710156134d657805195506134c186613870565b858352600196909601959183019183016134ac565b5097909101519698969750505050505050565b6000602082840312156134fa578081fd5b81518015158114612eed578182fd5b600080600080600060a08688031215613520578081fd5b855167ffffffffffffffff80821115613537578283fd5b818801915088601f83011261354a578283fd5b81518181111561355c5761355c61385a565b61356f601f8201601f191660200161375a565b9150808252896020828501011115613585578384fd5b6135968160208401602086016137f9565b5095506135a79050602087016133ea565b93506135b5604087016133ea565b6060870151608090970151959894975095949392505050565b6000602082840312156135df578081fd5b5035919050565b6000602082840312156135f7578081fd5b5051919050565b60008060408385031215613610578182fd5b50508035926020909101359150565b600082516136318184602087016137f9565b9190910192915050565b6001600160a01b0394851681529290931660208301526040820152606081019190915260800190565b6001600160a01b038381168252604060208084018290528451918401829052600092858201929091906060860190855b818110156136b2578551851683529483019491830191600101613694565b509098975050505050505050565b60006020825282518060208401526136df8160408501602087016137f9565b601f01601f19169190910160400192915050565b60208082526016908201527531b0b63632b916b4b996b737ba16b096b5b2b2b832b960511b604082015260600190565b6020808252601a908201527f63616c6c65722d69732d6e6f742d7468652d676f7665726e6f72000000000000604082015260600190565b604051601f8201601f1916810167ffffffffffffffff811182821017156137835761378361385a565b604052919050565b6000821982111561379e5761379e613844565b500190565b6000826137be57634e487b7160e01b81526012600452602481fd5b500490565b60008160001904831182151516156137dd576137dd613844565b500290565b6000828210156137f4576137f4613844565b500390565b60005b838110156138145781810151838201526020016137fc565b83811115613823576000848401525b50505050565b600060001982141561383d5761383d613844565b5060010190565b634e487b7160e01b600052601160045260246000fd5b634e487b7160e01b600052604160045260246000fd5b6001600160a01b038116811461080457600080fdfea264697066735822122064b511f1ca3a9f94d2a421d1f0ce00a3010f91e46069e51fd6d825ceb823bc5d64736f6c63430008030033",
  "devdoc": {
    "kind": "dev",
    "methods": {
      "addKeeper(address)": {
        "params": {
          "_keeperAddress": "keeper address to add."
        }
      },
      "approveToken()": {
        "details": "Approve all required tokens"
      },
      "convertFrom18(uint256)": {
        "details": "Convert from 18 decimals to token defined decimals. Default no conversion."
      },
      "init(address)": {
        "params": {
          "_addressListFactory": "To support same code in eth side chain, user _addressListFactory as param ethereum- 0xded8217De022706A191eE7Ee0Dc9df1185Fb5dA3 polygon-0xD10D5696A350D65A9AA15FE8B258caB4ab1bF291"
        }
      },
      "migrate(address)": {
        "details": "_beforeMigration hook can be implemented in child strategy to do extra steps.",
        "params": {
          "_newStrategy": "Address of new strategy"
        }
      },
      "migrateFusePool(uint256)": {
        "details": "Redeems cTokens from current fuse pool and mints cTokens of new Fuse Pool",
        "params": {
          "_newPoolId": "Fuse Pool ID"
        }
      },
      "rebalance()": {
        "details": "Rebalance profit, loss and investment of this strategy"
      },
      "removeKeeper(address)": {
        "params": {
          "_keeperAddress": "keeper address to remove."
        }
      },
      "sweepERC20(address)": {
        "details": "sweep given token to feeCollector of strategy",
        "params": {
          "_fromToken": "token address to sweep"
        }
      },
      "totalValue()": {
        "details": "Report total value in collateral token"
      },
      "totalValueCurrent()": {
        "details": "Report total value in collateral token"
      },
      "updateFeeCollector(address)": {
        "params": {
          "_feeCollector": "fee collector address"
        }
      },
      "updateSwapManager(address)": {
        "params": {
          "_swapManager": "swap manager address"
        }
      },
      "withdraw(uint256)": {
        "details": "Withdraw collateral token from lending pool.",
        "params": {
          "_amount": "Amount of collateral token"
        }
      }
    },
    "title": "Deposit ETH in a Rari Fuse Pool and earn interest.",
    "version": 1
  },
  "userdoc": {
    "kind": "user",
    "methods": {
      "addKeeper(address)": {
        "notice": "Add given address in keepers list."
      },
      "init(address)": {
        "notice": "Create keeper list NOTE: Any function with onlyKeeper modifier will not work until this function is called. NOTE: Due to gas constraint this function cannot be called in constructor."
      },
      "isReservedToken(address)": {
        "notice": "Check whether given token is reserved or not. Reserved tokens are not allowed to sweep."
      },
      "migrate(address)": {
        "notice": "Migrate all asset and vault ownership,if any, to new strategy"
      },
      "migrateFusePool(uint256)": {
        "notice": "Changes the underlying Fuse Pool to a new one"
      },
      "removeKeeper(address)": {
        "notice": "Remove given address from keepers list."
      },
      "token()": {
        "notice": "Returns address of token correspond to collateral token"
      },
      "totalValue()": {
        "notice": "Calculate total value using underlying token"
      },
      "totalValueCurrent()": {
        "notice": "Calculate total value of asset under management (in real-time)"
      },
      "updateFeeCollector(address)": {
        "notice": "Update fee collector"
      },
      "updateSwapManager(address)": {
        "notice": "Update swap manager address"
      }
    },
    "version": 1
  },
  "storageLayout": {
    "storage": [
      {
        "astId": 13425,
        "contract": "contracts/strategies/rari-fuse/RariFuseStrategyETH.sol:RariFuseStrategyETH",
        "label": "receiptToken",
        "offset": 0,
        "slot": "0",
        "type": "t_address"
      },
      {
        "astId": 13431,
        "contract": "contracts/strategies/rari-fuse/RariFuseStrategyETH.sol:RariFuseStrategyETH",
        "label": "keepers",
        "offset": 0,
        "slot": "1",
        "type": "t_contract(IAddressList)4320"
      },
      {
        "astId": 13434,
        "contract": "contracts/strategies/rari-fuse/RariFuseStrategyETH.sol:RariFuseStrategyETH",
        "label": "feeCollector",
        "offset": 0,
        "slot": "2",
        "type": "t_address"
      },
      {
        "astId": 13437,
        "contract": "contracts/strategies/rari-fuse/RariFuseStrategyETH.sol:RariFuseStrategyETH",
        "label": "swapManager",
        "offset": 0,
        "slot": "3",
        "type": "t_contract(ISwapManager)4623"
      },
      {
        "astId": 13440,
        "contract": "contracts/strategies/rari-fuse/RariFuseStrategyETH.sol:RariFuseStrategyETH",
        "label": "oraclePeriod",
        "offset": 0,
        "slot": "4",
        "type": "t_uint256"
      },
      {
        "astId": 13443,
        "contract": "contracts/strategies/rari-fuse/RariFuseStrategyETH.sol:RariFuseStrategyETH",
        "label": "oracleRouterIdx",
        "offset": 0,
        "slot": "5",
        "type": "t_uint256"
      },
      {
        "astId": 13446,
        "contract": "contracts/strategies/rari-fuse/RariFuseStrategyETH.sol:RariFuseStrategyETH",
        "label": "swapSlippage",
        "offset": 0,
        "slot": "6",
        "type": "t_uint256"
      },
      {
        "astId": 20185,
        "contract": "contracts/strategies/rari-fuse/RariFuseStrategyETH.sol:RariFuseStrategyETH",
        "label": "cToken",
        "offset": 0,
        "slot": "7",
        "type": "t_contract(CToken)4753"
      },
      {
        "astId": 32528,
        "contract": "contracts/strategies/rari-fuse/RariFuseStrategyETH.sol:RariFuseStrategyETH",
        "label": "fusePoolId",
        "offset": 0,
        "slot": "8",
        "type": "t_uint256"
      }
    ],
    "types": {
      "t_address": {
        "encoding": "inplace",
        "label": "address",
        "numberOfBytes": "20"
      },
      "t_contract(CToken)4753": {
        "encoding": "inplace",
        "label": "contract CToken",
        "numberOfBytes": "20"
      },
      "t_contract(IAddressList)4320": {
        "encoding": "inplace",
        "label": "contract IAddressList",
        "numberOfBytes": "20"
      },
      "t_contract(ISwapManager)4623": {
        "encoding": "inplace",
        "label": "contract ISwapManager",
        "numberOfBytes": "20"
      },
      "t_uint256": {
        "encoding": "inplace",
        "label": "uint256",
        "numberOfBytes": "32"
      }
    }
  }
}