{
  "address": "0xA14D4c41b989DC4Ae20150AA2Ec7A6C6B5622406",
  "abi": [
    {
      "inputs": [
        {
          "internalType": "address",
          "name": "_pool",
          "type": "address"
        },
        {
          "internalType": "address",
          "name": "_swapManager",
          "type": "address"
        },
        {
          "internalType": "address",
          "name": "_rewardToken",
          "type": "address"
        },
        {
          "internalType": "address",
          "name": "_receiptToken",
          "type": "address"
        },
        {
          "internalType": "address",
          "name": "_borrowToken",
          "type": "address"
        },
        {
          "internalType": "address",
          "name": "_vPool",
          "type": "address"
        },
        {
          "internalType": "address",
          "name": "_vspAddress",
          "type": "address"
        },
        {
          "internalType": "string",
          "name": "_name",
          "type": "string"
        }
      ],
      "stateMutability": "nonpayable",
      "type": "constructor"
    },
    {
      "anonymous": false,
      "inputs": [
        {
          "indexed": false,
          "internalType": "uint256",
          "name": "previousMinBorrowLimit",
          "type": "uint256"
        },
        {
          "indexed": false,
          "internalType": "uint256",
          "name": "newMinBorrowLimit",
          "type": "uint256"
        },
        {
          "indexed": false,
          "internalType": "uint256",
          "name": "previousMaxBorrowLimit",
          "type": "uint256"
        },
        {
          "indexed": false,
          "internalType": "uint256",
          "name": "newMaxBorrowLimit",
          "type": "uint256"
        }
      ],
      "name": "UpdatedBorrowLimit",
      "type": "event"
    },
    {
      "anonymous": false,
      "inputs": [
        {
          "indexed": true,
          "internalType": "address",
          "name": "previousFeeCollector",
          "type": "address"
        },
        {
          "indexed": true,
          "internalType": "address",
          "name": "newFeeCollector",
          "type": "address"
        }
      ],
      "name": "UpdatedFeeCollector",
      "type": "event"
    },
    {
      "anonymous": false,
      "inputs": [
        {
          "indexed": false,
          "internalType": "uint256",
          "name": "oldPeriod",
          "type": "uint256"
        },
        {
          "indexed": false,
          "internalType": "uint256",
          "name": "newPeriod",
          "type": "uint256"
        },
        {
          "indexed": false,
          "internalType": "uint256",
          "name": "oldRouterIdx",
          "type": "uint256"
        },
        {
          "indexed": false,
          "internalType": "uint256",
          "name": "newRouterIdx",
          "type": "uint256"
        }
      ],
      "name": "UpdatedOracleConfig",
      "type": "event"
    },
    {
      "anonymous": false,
      "inputs": [
        {
          "indexed": true,
          "internalType": "address",
          "name": "previousSwapManager",
          "type": "address"
        },
        {
          "indexed": true,
          "internalType": "address",
          "name": "newSwapManager",
          "type": "address"
        }
      ],
      "name": "UpdatedSwapManager",
      "type": "event"
    },
    {
      "anonymous": false,
      "inputs": [
        {
          "indexed": false,
          "internalType": "uint256",
          "name": "oldSwapSlippage",
          "type": "uint256"
        },
        {
          "indexed": false,
          "internalType": "uint256",
          "name": "newSwapSlippage",
          "type": "uint256"
        }
      ],
      "name": "UpdatedSwapSlippage",
      "type": "event"
    },
    {
      "inputs": [],
      "name": "AAVE",
      "outputs": [
        {
          "internalType": "address",
          "name": "",
          "type": "address"
        }
      ],
      "stateMutability": "view",
      "type": "function"
    },
    {
      "inputs": [],
      "name": "NAME",
      "outputs": [
        {
          "internalType": "string",
          "name": "",
          "type": "string"
        }
      ],
      "stateMutability": "view",
      "type": "function"
    },
    {
      "inputs": [],
      "name": "VERSION",
      "outputs": [
        {
          "internalType": "string",
          "name": "",
          "type": "string"
        }
      ],
      "stateMutability": "view",
      "type": "function"
    },
    {
      "inputs": [],
      "name": "aaveIncentivesController",
      "outputs": [
        {
          "internalType": "contract AaveIncentivesController",
          "name": "",
          "type": "address"
        }
      ],
      "stateMutability": "view",
      "type": "function"
    },
    {
      "inputs": [],
      "name": "aaveLendingPool",
      "outputs": [
        {
          "internalType": "contract AaveLendingPool",
          "name": "",
          "type": "address"
        }
      ],
      "stateMutability": "view",
      "type": "function"
    },
    {
      "inputs": [],
      "name": "aaveProtocolDataProvider",
      "outputs": [
        {
          "internalType": "contract AaveProtocolDataProvider",
          "name": "",
          "type": "address"
        }
      ],
      "stateMutability": "view",
      "type": "function"
    },
    {
      "inputs": [
        {
          "internalType": "address",
          "name": "_keeperAddress",
          "type": "address"
        }
      ],
      "name": "addKeeper",
      "outputs": [],
      "stateMutability": "nonpayable",
      "type": "function"
    },
    {
      "inputs": [],
      "name": "approveToken",
      "outputs": [],
      "stateMutability": "nonpayable",
      "type": "function"
    },
    {
      "inputs": [],
      "name": "borrowToken",
      "outputs": [
        {
          "internalType": "address",
          "name": "",
          "type": "address"
        }
      ],
      "stateMutability": "view",
      "type": "function"
    },
    {
      "inputs": [],
      "name": "canStartCooldown",
      "outputs": [
        {
          "internalType": "bool",
          "name": "",
          "type": "bool"
        }
      ],
      "stateMutability": "view",
      "type": "function"
    },
    {
      "inputs": [],
      "name": "canUnstake",
      "outputs": [
        {
          "internalType": "bool",
          "name": "",
          "type": "bool"
        }
      ],
      "stateMutability": "view",
      "type": "function"
    },
    {
      "inputs": [],
      "name": "collateralToken",
      "outputs": [
        {
          "internalType": "contract IERC20",
          "name": "",
          "type": "address"
        }
      ],
      "stateMutability": "view",
      "type": "function"
    },
    {
      "inputs": [],
      "name": "cooldownData",
      "outputs": [
        {
          "internalType": "uint256",
          "name": "_cooldownStart",
          "type": "uint256"
        },
        {
          "internalType": "uint256",
          "name": "_cooldownEnd",
          "type": "uint256"
        },
        {
          "internalType": "uint256",
          "name": "_unstakeEnd",
          "type": "uint256"
        }
      ],
      "stateMutability": "view",
      "type": "function"
    },
    {
      "inputs": [],
      "name": "feeCollector",
      "outputs": [
        {
          "internalType": "address",
          "name": "",
          "type": "address"
        }
      ],
      "stateMutability": "view",
      "type": "function"
    },
    {
      "inputs": [],
      "name": "isLossMaking",
      "outputs": [
        {
          "internalType": "bool",
          "name": "",
          "type": "bool"
        }
      ],
      "stateMutability": "view",
      "type": "function"
    },
    {
      "inputs": [
        {
          "internalType": "address",
          "name": "_token",
          "type": "address"
        }
      ],
      "name": "isReservedToken",
      "outputs": [
        {
          "internalType": "bool",
          "name": "",
          "type": "bool"
        }
      ],
      "stateMutability": "view",
      "type": "function"
    },
    {
      "inputs": [],
      "name": "keepers",
      "outputs": [
        {
          "internalType": "address[]",
          "name": "",
          "type": "address[]"
        }
      ],
      "stateMutability": "view",
      "type": "function"
    },
    {
      "inputs": [],
      "name": "maxBorrowLimit",
      "outputs": [
        {
          "internalType": "uint256",
          "name": "",
          "type": "uint256"
        }
      ],
      "stateMutability": "view",
      "type": "function"
    },
    {
      "inputs": [
        {
          "internalType": "address",
          "name": "_newStrategy",
          "type": "address"
        }
      ],
      "name": "migrate",
      "outputs": [],
      "stateMutability": "nonpayable",
      "type": "function"
    },
    {
      "inputs": [],
      "name": "minBorrowLimit",
      "outputs": [
        {
          "internalType": "uint256",
          "name": "",
          "type": "uint256"
        }
      ],
      "stateMutability": "view",
      "type": "function"
    },
    {
      "inputs": [],
      "name": "oraclePeriod",
      "outputs": [
        {
          "internalType": "uint256",
          "name": "",
          "type": "uint256"
        }
      ],
      "stateMutability": "view",
      "type": "function"
    },
    {
      "inputs": [],
      "name": "oracleRouterIdx",
      "outputs": [
        {
          "internalType": "uint256",
          "name": "",
          "type": "uint256"
        }
      ],
      "stateMutability": "view",
      "type": "function"
    },
    {
      "inputs": [],
      "name": "pool",
      "outputs": [
        {
          "internalType": "address",
          "name": "",
          "type": "address"
        }
      ],
      "stateMutability": "view",
      "type": "function"
    },
    {
      "inputs": [],
      "name": "rebalance",
      "outputs": [],
      "stateMutability": "nonpayable",
      "type": "function"
    },
    {
      "inputs": [],
      "name": "receiptToken",
      "outputs": [
        {
          "internalType": "address",
          "name": "",
          "type": "address"
        }
      ],
      "stateMutability": "view",
      "type": "function"
    },
    {
      "inputs": [
        {
          "internalType": "address",
          "name": "_keeperAddress",
          "type": "address"
        }
      ],
      "name": "removeKeeper",
      "outputs": [],
      "stateMutability": "nonpayable",
      "type": "function"
    },
    {
      "inputs": [],
      "name": "rewardToken",
      "outputs": [
        {
          "internalType": "address",
          "name": "",
          "type": "address"
        }
      ],
      "stateMutability": "view",
      "type": "function"
    },
    {
      "inputs": [],
      "name": "setupOracles",
      "outputs": [],
      "stateMutability": "nonpayable",
      "type": "function"
    },
    {
      "inputs": [],
      "name": "stkAAVE",
      "outputs": [
        {
          "internalType": "contract StakedAave",
          "name": "",
          "type": "address"
        }
      ],
      "stateMutability": "view",
      "type": "function"
    },
    {
      "inputs": [],
      "name": "swapManager",
      "outputs": [
        {
          "internalType": "contract ISwapManager",
          "name": "",
          "type": "address"
        }
      ],
      "stateMutability": "view",
      "type": "function"
    },
    {
      "inputs": [],
      "name": "swapSlippage",
      "outputs": [
        {
          "internalType": "uint256",
          "name": "",
          "type": "uint256"
        }
      ],
      "stateMutability": "view",
      "type": "function"
    },
    {
      "inputs": [
        {
          "internalType": "address",
          "name": "_fromToken",
          "type": "address"
        }
      ],
      "name": "sweepERC20",
      "outputs": [],
      "stateMutability": "nonpayable",
      "type": "function"
    },
    {
      "inputs": [],
      "name": "token",
      "outputs": [
        {
          "internalType": "address",
          "name": "",
          "type": "address"
        }
      ],
      "stateMutability": "view",
      "type": "function"
    },
    {
      "inputs": [],
      "name": "totalValue",
      "outputs": [
        {
          "internalType": "uint256",
          "name": "_totalValue",
          "type": "uint256"
        }
      ],
      "stateMutability": "view",
      "type": "function"
    },
    {
      "inputs": [],
      "name": "totalValueCurrent",
      "outputs": [
        {
          "internalType": "uint256",
          "name": "",
          "type": "uint256"
        }
      ],
      "stateMutability": "nonpayable",
      "type": "function"
    },
    {
      "inputs": [
        {
          "internalType": "uint256",
          "name": "_minBorrowLimit",
          "type": "uint256"
        },
        {
          "internalType": "uint256",
          "name": "_maxBorrowLimit",
          "type": "uint256"
        }
      ],
      "name": "updateBorrowLimit",
      "outputs": [],
      "stateMutability": "nonpayable",
      "type": "function"
    },
    {
      "inputs": [
        {
          "internalType": "address",
          "name": "_feeCollector",
          "type": "address"
        }
      ],
      "name": "updateFeeCollector",
      "outputs": [],
      "stateMutability": "nonpayable",
      "type": "function"
    },
    {
      "inputs": [
        {
          "internalType": "uint256",
          "name": "_newPeriod",
          "type": "uint256"
        },
        {
          "internalType": "uint256",
          "name": "_newRouterIdx",
          "type": "uint256"
        }
      ],
      "name": "updateOracleConfig",
      "outputs": [],
      "stateMutability": "nonpayable",
      "type": "function"
    },
    {
      "inputs": [
        {
          "internalType": "address",
          "name": "_swapManager",
          "type": "address"
        }
      ],
      "name": "updateSwapManager",
      "outputs": [],
      "stateMutability": "nonpayable",
      "type": "function"
    },
    {
      "inputs": [
        {
          "internalType": "uint256",
          "name": "_newSwapSlippage",
          "type": "uint256"
        }
      ],
      "name": "updateSwapSlippage",
      "outputs": [],
      "stateMutability": "nonpayable",
      "type": "function"
    },
    {
      "inputs": [],
      "name": "vPool",
      "outputs": [
        {
          "internalType": "address",
          "name": "",
          "type": "address"
        }
      ],
      "stateMutability": "view",
      "type": "function"
    },
    {
      "inputs": [],
      "name": "vdToken",
      "outputs": [
        {
          "internalType": "contract AToken",
          "name": "",
          "type": "address"
        }
      ],
      "stateMutability": "view",
      "type": "function"
    },
    {
      "inputs": [],
      "name": "vsp",
      "outputs": [
        {
          "internalType": "address",
          "name": "",
          "type": "address"
        }
      ],
      "stateMutability": "view",
      "type": "function"
    },
    {
      "inputs": [
        {
          "internalType": "uint256",
          "name": "_amount",
          "type": "uint256"
        }
      ],
      "name": "withdraw",
      "outputs": [],
      "stateMutability": "nonpayable",
      "type": "function"
    }
  ],
  "transactionHash": "0x66fa2a5ea3a88b68d7b38cc52efe7d70f530908a39e327d6a48189d44fdca899",
  "args": [
    "0xd1C117319B3595fbc39b471AB1fd485629eb05F2",
    "0xe382d9f2394A359B01006faa8A1864b8a60d2710",
    "0x7Fc66500c84A76Ad7e9c93437bFc5Ac33E2DDaE9",
    "0x030bA81f1c18d280636F32af80b9AAd02Cf0854e",
    "0x956F47F50A910163D8BF957Cf5846D573E7f87CA",
    "0x2B6c40Ef15Db0D78D08A7D1b4E12d57E88a3e324",
    "0x1b40183EFB4Dd766f11bDa7A7c3AD8982e998421",
    "VesperAaveXYStrategyETH_FEI"
  ],
  "numDeployments": 1,
  "solcInputHash": "0c127abe11d6bc13fb99083a5f2331b8",
  "bytecode": "0x610180604052600080546001600160a01b03191673c02aaa39b223fe8d0a0e5c4f27ead9083c756cc2178155610e10600455600555612710600655611b58600b55612134600c553480156200005357600080fd5b506040516200682438038062006824833981016040819052620000769162000805565b878787878785828686826001600160a01b038316620000dc5760405162461bcd60e51b815260206004820152601460248201527f706f6f6c2d616464726573732d69732d7a65726f00000000000000000000000060448201526064015b60405180910390fd5b6001600160a01b038216620001295760405162461bcd60e51b8152602060048201526012602482015271736d2d616464726573732d69732d7a65726f60701b6044820152606401620000d3565b600380546001600160a01b0319166001600160a01b0384811691909117909155831660a081905260408051637e062a3560e11b8152905163fc0c546a91600480820192602092909190829003018186803b1580156200018757600080fd5b505afa1580156200019c573d6000803e3d6000fd5b505050506040513d601f19601f82011682018060405250810190620001c2919062000957565b6001600160a01b03908116608052600180546001600160a01b03191691831691909117905562000209620001f33390565b60076200068b60201b62001d441790919060201c565b6200024b5760405162461bcd60e51b81526020600482015260116024820152701859190b5ad9595c195c8b59985a5b1959607a1b6044820152606401620000d3565b5050604080518082019091526002815261031360f41b602082015290506001600160a01b038216620002925760405162461bcd60e51b8152600401620000d391906200097e565b506001600160a01b038116610120819052604080516375d2641360e01b815290516375d2641391600480820192602092909190829003018186803b158015620002da57600080fd5b505afa9250505080156200030d575060408051601f3d908101601f191682019092526200030a9181019062000957565b60015b620003185762000325565b6001600160a01b031660e0525b73b53c1a33016b2dc2ff3653530bff1848a515c8c561010081905260408051630261bf8b60e01b81529051630261bf8b91600480820192602092909190829003018186803b1580156200037757600080fd5b505afa1580156200038c573d6000803e3d6000fd5b505050506040513d601f19601f82011682018060405250810190620003b2919062000957565b6001600160a01b0390811660c052610100516040516321f8a72160e01b8152600160f81b60048201529116906321f8a7219060240160206040518083038186803b1580156200040057600080fd5b505afa15801562000415573d6000803e3d6000fd5b505050506040513d601f19601f820116820180604052508101906200043b919062000957565b600980546001600160a01b0319166001600160a01b03929092169190911790555080516200047190600a906020840190620006fd565b50600d80546001600160a01b0319166001600160a01b03868116919091179091556009546040516334924edb60e21b81528483166004820152600092919091169063d2493b6c9060240160606040518083038186803b158015620004d457600080fd5b505afa158015620004e9573d6000803e3d6000fd5b505050506040513d601f19601f820116820180604052508101906200050f9190620009b3565b600f80546001600160a01b03199081166001600160a01b0393841617909155600e805490911696821696909617909555505050508616151593506200059b925050505760405162461bcd60e51b815260206004820152601360248201527f696e76616c69642d7673702d61646472657373000000000000000000000000006044820152606401620000d3565b600e5460408051637e062a3560e11b815290516001600160a01b039283169286169163fc0c546a916004808301926020929190829003018186803b158015620005e357600080fd5b505afa158015620005f8573d6000803e3d6000fd5b505050506040513d601f19601f820116820180604052508101906200061e919062000957565b6001600160a01b0316146200066a5760405162461bcd60e51b81526020600482015260116024820152701a5b9d985b1a590b59dc9bddcb5c1bdbdb607a1b6044820152606401620000d3565b506001600160a01b039182166101405216610160525062000a449350505050565b6000620006a2836001600160a01b038416620006ab565b90505b92915050565b6000818152600183016020526040812054620006f457508154600181810184556000848152602080822090930184905584548482528286019093526040902091909155620006a5565b506000620006a5565b8280546200070b9062000a07565b90600052602060002090601f0160209004810192826200072f57600085556200077a565b82601f106200074a57805160ff19168380011785556200077a565b828001600101855582156200077a579182015b828111156200077a5782518255916020019190600101906200075d565b50620007889291506200078c565b5090565b5b808211156200078857600081556001016200078d565b6001600160a01b0381168114620007b957600080fd5b50565b634e487b7160e01b600052604160045260246000fd5b60005b83811015620007ef578181015183820152602001620007d5565b83811115620007ff576000848401525b50505050565b600080600080600080600080610100898b0312156200082357600080fd5b88516200083081620007a3565b60208a01519098506200084381620007a3565b60408a01519097506200085681620007a3565b60608a01519096506200086981620007a3565b60808a01519095506200087c81620007a3565b60a08a01519094506200088f81620007a3565b60c08a0151909350620008a281620007a3565b60e08a01519092506001600160401b0380821115620008c057600080fd5b818b0191508b601f830112620008d557600080fd5b815181811115620008ea57620008ea620007bc565b604051601f8201601f19908116603f01168101908382118183101715620009155762000915620007bc565b816040528281528e60208487010111156200092f57600080fd5b62000942836020830160208801620007d2565b80955050505050509295985092959890939650565b6000602082840312156200096a57600080fd5b81516200097781620007a3565b9392505050565b60208152600082518060208401526200099f816040850160208701620007d2565b601f01601f19169190910160400192915050565b600080600060608486031215620009c957600080fd5b8351620009d681620007a3565b6020850151909350620009e981620007a3565b6040850151909250620009fc81620007a3565b809150509250925092565b600181811c9082168062000a1c57607f821691505b6020821081141562000a3e57634e487b7160e01b600052602260045260246000fd5b50919050565b60805160a05160c05160e05161010051610120516101405161016051615b8962000c9b600039600081816103240152818161187f01528181612668015281816130f9015261318c0152600081816104200152818161170a0152818161252b01528181612fe2015281816131c10152818161325d015281816148d9015281816149c501528181614a630152614cce015260008181611da60152818161206c015281816126a301528181612945015281816137fa01528181613fb80152614d6c015260006138cb0152600081816103de015281816144c4015281816145fa01528181614eb80152614f1201526000818161057201528181613daa01528181613e720152818161400c0152818161404301528181614c890152614df30152600081816102af0152818161060c015281816108cd0152818161091d01528181610a6a01528181610c4001528181610df401528181610e7701528181610fe701528181611242015281816112df0152818161153c01528181611b8101528181611d7a01528181611eed01528181611f8d0152613f640152600081816104dd0152818161146f01528181611513015281816118a1015281816119b10152818161202e015281816121d0015281816122df015281816123a301528181612467015281816128a801528181612a8201528181612b2801528181612e9501528181612f3e015281816134340152818161348b01528181613534015281816139f701528181613acf01528181613b5701528181613e0a01528181613f4201528181613f9601528181613fea0152818161418001526146ac0152615b896000f3fe608060405234801561001057600080fd5b50600436106102745760003560e01c80639298602411610151578063d4c3eea0116100c3578063ec78e83211610087578063ec78e83214610594578063f51896f8146105a7578063f7c618c1146105af578063fb7ee102146105c2578063fc0c546a146105d5578063ffa1ad74146105e657600080fd5b8063d4c3eea014610541578063e00af4a714610549578063e260d7471461055c578063e645c20214610565578063e9d337b81461056d57600080fd5b8063aa10188611610115578063aa101886146104d0578063b2016bd4146104d8578063c415b95c146104ff578063cd2d7ebe14610512578063ce5494bb1461051b578063d2c35ce81461052e57600080fd5b80639298602414610483578063951dc22c1461048b57806399b71d5c146104a0578063a3f4df7e146104a8578063a923b2a6146104bd57600080fd5b8063456dc17a116101ea57806360a05a85116101ae57806360a05a85146104135780636719578c1461041b57806367f5e4b814610442578063709d039d146104555780637d7c2a1c1461046857806390d675141461047057600080fd5b8063456dc17a1461039857806348ccda3c146103ab5780634c36fad7146103c65780635f2475ca146103d95780635f9d4d2e1461040057600080fd5b806321fc6bb01161023c57806321fc6bb0146102fc57806329ba73ed1461031f5780632e1a7d4d146103465780634032b72b1461035957806342189c8f1461036c578063440d72481461037557600080fd5b80630181686c1461027957806314ae9f2e1461029557806316f0115b146102aa5780631aedeabe146102de5780631fc29c01146102e7575b600080fd5b610282600c5481565b6040519081526020015b60405180910390f35b6102a86102a3366004615347565b61060a565b005b6102d17f000000000000000000000000000000000000000000000000000000000000000081565b60405161028c9190615364565b61028260065481565b6102d1600080516020615b3483398151915281565b610304610725565b6040805193845260208401929092529082015260600161028c565b6102d17f000000000000000000000000000000000000000000000000000000000000000081565b6102a8610354366004615378565b6108ca565b6102a8610367366004615347565b61091b565b61028260045481565b610388610383366004615347565b610a27565b604051901515815260200161028c565b600e546102d1906001600160a01b031681565b6102d1737fc66500c84a76ad7e9c93437bfc5ac33e2ddae981565b6102a86103d4366004615347565b610a68565b6102d17f000000000000000000000000000000000000000000000000000000000000000081565b6009546102d1906001600160a01b031681565b610388610c1b565b6102d17f000000000000000000000000000000000000000000000000000000000000000081565b6102a8610450366004615378565b610c3e565b6003546102d1906001600160a01b031681565b6102a8610d8a565b600f546102d1906001600160a01b031681565b610388610e5d565b610493610f0a565b60405161028c91906153d5565b6102a8610f1b565b6104b0610f57565b60405161028c9190615414565b6102a86104cb366004615447565b610fe5565b6102a861121a565b6102d17f000000000000000000000000000000000000000000000000000000000000000081565b6002546102d1906001600160a01b031681565b61028260055481565b6102a8610529366004615347565b61123f565b6102a861053c366004615347565b61153a565b610282611703565b6102a8610557366004615347565b61193a565b610282600b5481565b610282611b59565b6102d17f000000000000000000000000000000000000000000000000000000000000000081565b6001546102d1906001600160a01b031681565b610388611b63565b600d546102d1906001600160a01b031681565b6102a86105d0366004615447565b611b7f565b6001546001600160a01b03166102d1565b6104b0604051806040016040528060058152602001640342e302e360dc1b81525081565b7f00000000000000000000000000000000000000000000000000000000000000006001600160a01b0316630c340a246040518163ffffffff1660e01b815260040160206040518083038186803b15801561066357600080fd5b505afa158015610677573d6000803e3d6000fd5b505050506040513d601f19601f8201168201806040525081019061069b9190615469565b6001600160a01b0316336001600160a01b0316146106d45760405162461bcd60e51b81526004016106cb90615486565b60405180910390fd5b6106df600782611d60565b6107225760405162461bcd60e51b81526020600482015260146024820152731c995b5bdd994b5ad9595c195c8b59985a5b195960621b60448201526064016106cb565b50565b60405163091030c360e01b815260009081908190600080516020615b348339815191529063091030c39061075d903090600401615364565b60206040518083038186803b15801561077557600080fd5b505afa158015610789573d6000803e3d6000fd5b505050506040513d601f19601f820116820180604052508101906107ad91906154bd565b9250600080516020615b348339815191526001600160a01b03166372b49d636040518163ffffffff1660e01b815260040160206040518083038186803b1580156107f657600080fd5b505afa15801561080a573d6000803e3d6000fd5b505050506040513d601f19601f8201168201806040525081019061082e91906154bd565b61083890846154ec565b9150600080516020615b348339815191526001600160a01b031663359c4a966040518163ffffffff1660e01b815260040160206040518083038186803b15801561088157600080fd5b505afa158015610895573d6000803e3d6000fd5b505050506040513d601f19601f820116820180604052508101906108b991906154bd565b6108c390836154ec565b9050909192565b337f00000000000000000000000000000000000000000000000000000000000000006001600160a01b0316146109125760405162461bcd60e51b81526004016106cb90615504565b61072281611d75565b7f00000000000000000000000000000000000000000000000000000000000000006001600160a01b0316630c340a246040518163ffffffff1660e01b815260040160206040518083038186803b15801561097457600080fd5b505afa158015610988573d6000803e3d6000fd5b505050506040513d601f19601f820116820180604052508101906109ac9190615469565b6001600160a01b0316336001600160a01b0316146109dc5760405162461bcd60e51b81526004016106cb90615486565b6109e7600782611d44565b6107225760405162461bcd60e51b81526020600482015260116024820152701859190b5ad9595c195c8b59985a5b1959607a1b60448201526064016106cb565b6000610a3282611da2565b80610a4a5750600f546001600160a01b038381169116145b80610a625750600e546001600160a01b038381169116145b92915050565b7f00000000000000000000000000000000000000000000000000000000000000006001600160a01b0316630c340a246040518163ffffffff1660e01b815260040160206040518083038186803b158015610ac157600080fd5b505afa158015610ad5573d6000803e3d6000fd5b505050506040513d601f19601f82011682018060405250810190610af99190615469565b6001600160a01b0316336001600160a01b031614610b295760405162461bcd60e51b81526004016106cb90615486565b6001600160a01b038116610b745760405162461bcd60e51b8152602060048201526012602482015271736d2d616464726573732d69732d7a65726f60701b60448201526064016106cb565b6003546001600160a01b0382811691161415610bbf5760405162461bcd60e51b815260206004820152600a602482015269736d2d69732d73616d6560b01b60448201526064016106cb565b6003546040516001600160a01b038084169216907f2d19927e7cac08ceb98b38898a4fdff6da6a27295b9a2d62fe250408ebe044e190600090a3600380546001600160a01b0319166001600160a01b0392909216919091179055565b6000806000610c28610725565b9250509150610c378282611e26565b9250505090565b7f00000000000000000000000000000000000000000000000000000000000000006001600160a01b0316630c340a246040518163ffffffff1660e01b815260040160206040518083038186803b158015610c9757600080fd5b505afa158015610cab573d6000803e3d6000fd5b505050506040513d601f19601f82011682018060405250810190610ccf9190615469565b6001600160a01b0316336001600160a01b031614610cff5760405162461bcd60e51b81526004016106cb90615486565b612710811115610d4a5760405162461bcd60e51b8152602060048201526016602482015275696e76616c69642d736c6970706167652d76616c756560501b60448201526064016106cb565b60065460408051918252602082018390527ef1c5db862c7598b3b6765552ca951f498611e06412c2d57f8d0b58f82e7f82910160405180910390a1600655565b610d97335b600790611ec3565b610db35760405162461bcd60e51b81526004016106cb90615537565b6000806000610dc0611ee5565b6040516302df682360e11b815260048101849052602481018390526044810182905292955090935091506001600160a01b037f000000000000000000000000000000000000000000000000000000000000000016906305bed04690606401600060405180830381600087803b158015610e3857600080fd5b505af1158015610e4c573d6000803e3d6000fd5b50505050610e58612389565b505050565b604051639f2b283360e01b81526000906001600160a01b037f00000000000000000000000000000000000000000000000000000000000000001690639f2b283390610eac903090600401615364565b60206040518083038186803b158015610ec457600080fd5b505afa158015610ed8573d6000803e3d6000fd5b505050506040513d601f19601f82011682018060405250810190610efc91906154bd565b610f04611703565b10905090565b6060610f166007612503565b905090565b610f2433610d8f565b610f405760405162461bcd60e51b81526004016106cb90615537565b610f4a6000612510565b610f55600019612510565b565b600a8054610f6490615567565b80601f0160208091040260200160405190810160405280929190818152602001828054610f9090615567565b8015610fdd5780601f10610fb257610100808354040283529160200191610fdd565b820191906000526020600020905b815481529060010190602001808311610fc057829003601f168201915b505050505081565b7f00000000000000000000000000000000000000000000000000000000000000006001600160a01b0316630c340a246040518163ffffffff1660e01b815260040160206040518083038186803b15801561103e57600080fd5b505afa158015611052573d6000803e3d6000fd5b505050506040513d601f19601f820116820180604052508101906110769190615469565b6001600160a01b0316336001600160a01b0316146110a65760405162461bcd60e51b81526004016106cb90615486565b600360009054906101000a90046001600160a01b03166001600160a01b031663c2fba6676040518163ffffffff1660e01b815260040160206040518083038186803b1580156110f457600080fd5b505afa158015611108573d6000803e3d6000fd5b505050506040513d601f19601f8201168201806040525081019061112c91906154bd565b81106111715760405162461bcd60e51b81526020600482015260146024820152730d2dcecc2d8d2c85ae4deeae8cae45ad2dcc8caf60631b60448201526064016106cb565b8161117c5760045491505b603b82116111c45760405162461bcd60e51b81526020600482015260156024820152741a5b9d985b1a590b5bdc9858db194b5c195c9a5bd9605a1b60448201526064016106cb565b6004546005546040805192835260208301859052820152606081018290527f83bc5ab8030537fcf1d29c2334f6d22c26c82dcbe5ff03923d2cff5c692c0a7f9060800160405180910390a1600491909155600555565b61122333610d8f565b610f555760405162461bcd60e51b81526004016106cb90615537565b337f00000000000000000000000000000000000000000000000000000000000000006001600160a01b0316146112875760405162461bcd60e51b81526004016106cb90615504565b6001600160a01b0381166112dd5760405162461bcd60e51b815260206004820152601c60248201527f6e65772d73747261746567792d616464726573732d69732d7a65726f0000000060448201526064016106cb565b7f00000000000000000000000000000000000000000000000000000000000000006001600160a01b0316816001600160a01b03166316f0115b6040518163ffffffff1660e01b815260040160206040518083038186803b15801561134057600080fd5b505afa158015611354573d6000803e3d6000fd5b505050506040513d601f19601f820116820180604052508101906113789190615469565b6001600160a01b0316146113c75760405162461bcd60e51b81526020600482015260166024820152756e6f742d76616c69642d6e65772d737472617465677960501b60448201526064016106cb565b6113d0816126a1565b6001546040516370a0823160e01b81526114699183916001600160a01b03909116906370a0823190611406903090600401615364565b60206040518083038186803b15801561141e57600080fd5b505afa158015611432573d6000803e3d6000fd5b505050506040513d601f19601f8201168201806040525081019061145691906154bd565b6001546001600160a01b0316919061280f565b610722817f00000000000000000000000000000000000000000000000000000000000000006001600160a01b03166370a08231306040518263ffffffff1660e01b81526004016114b99190615364565b60206040518083038186803b1580156114d157600080fd5b505afa1580156114e5573d6000803e3d6000fd5b505050506040513d601f19601f8201168201806040525081019061150991906154bd565b6001600160a01b037f000000000000000000000000000000000000000000000000000000000000000016919061280f565b7f00000000000000000000000000000000000000000000000000000000000000006001600160a01b0316630c340a246040518163ffffffff1660e01b815260040160206040518083038186803b15801561159357600080fd5b505afa1580156115a7573d6000803e3d6000fd5b505050506040513d601f19601f820116820180604052508101906115cb9190615469565b6001600160a01b0316336001600160a01b0316146115fb5760405162461bcd60e51b81526004016106cb90615486565b6001600160a01b0381166116515760405162461bcd60e51b815260206004820152601d60248201527f6665652d636f6c6c6563746f722d616464726573732d69732d7a65726f00000060448201526064016106cb565b6002546001600160a01b03828116911614156116a75760405162461bcd60e51b81526020600482015260156024820152746665652d636f6c6c6563746f722d69732d73616d6560581b60448201526064016106cb565b6002546040516001600160a01b038084169216907f0f06062680f9bd68e786e9980d9bb03d73d5620fc3b345e417b6eacb310b970690600090a3600280546001600160a01b0319166001600160a01b0392909216919091179055565b60008060007f00000000000000000000000000000000000000000000000000000000000000006001600160a01b0316638bc6beb26040518163ffffffff1660e01b815260040160206040518083038186803b15801561176157600080fd5b505afa158015611775573d6000803e3d6000fd5b505050506040513d601f19601f820116820180604052508101906117999190615469565b90506001600160a01b038116156119275760405163402914f560e01b81526000906001600160a01b0383169063402914f5906117d9903090600401615364565b60006040518083038186803b1580156117f157600080fd5b505afa158015611805573d6000803e3d6000fd5b505050506040513d6000823e601f3d908101601f1916820160405261182d91908101906156dc565b91505060008160008151811061184557611845615740565b602002602001015190508060001461192457600354604051631d1f307960e31b81526001600160a01b039091169063e8f983c8906118cb907f0000000000000000000000000000000000000000000000000000000000000000907f0000000000000000000000000000000000000000000000000000000000000000908690600401615756565b60006040518083038186803b1580156118e357600080fd5b505afa1580156118f7573d6000803e3d6000fd5b505050506040513d6000823e601f3d908101601f1916820160405261191f919081019061577a565b509450505b50505b81611930612865565b610c3791906154ec565b61194333610d8f565b61195f5760405162461bcd60e51b81526004016106cb90615537565b6002546001600160a01b03166119af5760405162461bcd60e51b81526020600482015260156024820152741999594b58dbdb1b1958dd1bdc8b5b9bdd0b5cd95d605a1b60448201526064016106cb565b7f00000000000000000000000000000000000000000000000000000000000000006001600160a01b0316816001600160a01b03161415611a315760405162461bcd60e51b815260206004820152601f60248201527f6e6f742d616c6c6f7765642d746f2d73776565702d636f6c6c61746572616c0060448201526064016106cb565b611a3a81610a27565b15611a7e5760405162461bcd60e51b815260206004820152601460248201527306e6f742d616c6c6f7765642d746f2d73776565760641b60448201526064016106cb565b6001600160a01b03811673eeeeeeeeeeeeeeeeeeeeeeeeeeeeeeeeeeeeeeee1415611ab957600254610722906001600160a01b031647612beb565b6040516370a0823160e01b81526000906001600160a01b038316906370a0823190611ae8903090600401615364565b60206040518083038186803b158015611b0057600080fd5b505afa158015611b14573d6000803e3d6000fd5b505050506040513d601f19601f82011682018060405250810190611b3891906154bd565b600254909150611b55906001600160a01b0384811691168361280f565b5050565b6000610f16611703565b6000806000611b70610725565b9250925050610c378282612d04565b7f00000000000000000000000000000000000000000000000000000000000000006001600160a01b0316630c340a246040518163ffffffff1660e01b815260040160206040518083038186803b158015611bd857600080fd5b505afa158015611bec573d6000803e3d6000fd5b505050506040513d601f19601f82011682018060405250810190611c109190615469565b6001600160a01b0316336001600160a01b031614611c405760405162461bcd60e51b81526004016106cb90615486565b6127108110611c8c5760405162461bcd60e51b81526020600482015260186024820152771a5b9d985b1a590b5b585e0b589bdc9c9bddcb5b1a5b5a5d60421b60448201526064016106cb565b80158015611c98575081155b80611ca257508181115b611cee5760405162461bcd60e51b815260206004820152601d60248201527f6d61782d73686f756c642d62652d6869676865722d7468616e2d6d696e00000060448201526064016106cb565b600b54600c546040805192835260208301859052820152606081018290527fedd77444afdf63401315e81ffe86d08f7865796e8ad2e11acf1d56a1393f07d59060800160405180910390a1600b91909155600c55565b6000611d59836001600160a01b038416612d19565b9392505050565b6000611d59836001600160a01b038416612d68565b6107227f000000000000000000000000000000000000000000000000000000000000000061150983612e5b565b60007f00000000000000000000000000000000000000000000000000000000000000006001600160a01b0316826001600160a01b03161480611e0057506001600160a01b038216737fc66500c84a76ad7e9c93437bfc5ac33e2ddae9145b80610a6257506001600160a01b038216600080516020615b348339815191521492915050565b6040516370a0823160e01b8152600090600080516020615b34833981519152906370a0823190611e5a903090600401615364565b60206040518083038186803b158015611e7257600080fd5b505afa158015611e86573d6000803e3d6000fd5b505050506040513d601f19601f82011682018060405250810190611eaa91906154bd565b15801590611d595750821580611d595750504211919050565b6001600160a01b03811660009081526001830160205260408120541515611d59565b6000806000807f00000000000000000000000000000000000000000000000000000000000000006001600160a01b031663d53ddc26306040518263ffffffff1660e01b8152600401611f379190615364565b60206040518083038186803b158015611f4f57600080fd5b505afa158015611f63573d6000803e3d6000fd5b505050506040513d601f19601f82011682018060405250810190611f8791906154bd565b905060007f00000000000000000000000000000000000000000000000000000000000000006001600160a01b0316639f2b2833306040518263ffffffff1660e01b8152600401611fd79190615364565b60206040518083038186803b158015611fef57600080fd5b505afa158015612003573d6000803e3d6000fd5b505050506040513d601f19601f8201168201806040525081019061202791906154bd565b90506120527f0000000000000000000000000000000000000000000000000000000000000000612fd5565b6040516370a0823160e01b81526000906001600160a01b037f000000000000000000000000000000000000000000000000000000000000000016906370a08231906120a1903090600401615364565b60206040518083038186803b1580156120b957600080fd5b505afa1580156120cd573d6000803e3d6000fd5b505050506040513d601f19601f820116820180604052508101906120f191906154bd565b600f546040516370a0823160e01b81529192506000916001600160a01b03909116906370a0823190612127903090600401615364565b60206040518083038186803b15801561213f57600080fd5b505afa158015612153573d6000803e3d6000fd5b505050506040513d601f19601f8201168201806040525081019061217791906154bd565b905060006121836131b4565b9050818111156121a45761219f61219a83836157ca565b61338a565b6121b6565b6121b66121b182846157ca565b613459565b6040516370a0823160e01b81526000906001600160a01b037f000000000000000000000000000000000000000000000000000000000000000016906370a0823190612205903090600401615364565b60206040518083038186803b15801561221d57600080fd5b505afa158015612231573d6000803e3d6000fd5b505050506040513d601f19601f8201168201806040525081019061225591906154bd565b9050600061226382866154ec565b90508581111561227e5761227786826157ca565b995061228b565b61228881876157ca565b98505b6000612297888c6154ec565b9050808310156123695760006122b66122b085846157ca565b886136e3565b90508015612367576122c781612e5b565b506040516370a0823160e01b81526001600160a01b037f000000000000000000000000000000000000000000000000000000000000000016906370a0823190612314903090600401615364565b60206040518083038186803b15801561232c57600080fd5b505afa158015612340573d6000803e3d6000fd5b505050506040513d601f19601f8201168201806040525081019061236491906154bd565b93505b505b871561237c5761237983896136e3565b98505b5050505050505050909192565b6040516370a0823160e01b81526000906001600160a01b037f000000000000000000000000000000000000000000000000000000000000000016906370a08231906123d8903090600401615364565b60206040518083038186803b1580156123f057600080fd5b505afa158015612404573d6000803e3d6000fd5b505050506040513d601f19601f8201168201806040525081019061242891906154bd565b90506000806124388360006136f9565b909250905080156124f15761244c81613d61565b6040516370a0823160e01b8152610e58906001600160a01b037f000000000000000000000000000000000000000000000000000000000000000016906370a082319061249c903090600401615364565b60206040518083038186803b1580156124b457600080fd5b505afa1580156124c8573d6000803e3d6000fd5b505050506040513d601f19601f820116820180604052508101906124ec91906154bd565b613e05565b6124fa83613e05565b610e5882613e2f565b60606000611d5983613ed9565b61251981613f35565b600e54612550906001600160a01b03167f0000000000000000000000000000000000000000000000000000000000000000836142db565b60005b600360009054906101000a90046001600160a01b03166001600160a01b031663c2fba6676040518163ffffffff1660e01b815260040160206040518083038186803b1580156125a157600080fd5b505afa1580156125b5573d6000803e3d6000fd5b505050506040513d601f19601f820116820180604052508101906125d991906154bd565b811015611b5557600354604051636e74a6f760e01b81526004810183905261268f916001600160a01b031690636e74a6f79060240160206040518083038186803b15801561262657600080fd5b505afa15801561263a573d6000803e3d6000fd5b505050506040513d601f19601f8201168201806040525081019061265e9190615469565b6001600160a01b037f00000000000000000000000000000000000000000000000000000000000000001690846142db565b80612699816157e1565b915050612553565b7f00000000000000000000000000000000000000000000000000000000000000006001600160a01b0316816001600160a01b031663fc0c546a6040518163ffffffff1660e01b815260040160206040518083038186803b15801561270457600080fd5b505afa158015612718573d6000803e3d6000fd5b505050506040513d601f19601f8201168201806040525081019061273c9190615469565b6001600160a01b0316146127885760405162461bcd60e51b81526020600482015260136024820152723bb937b73396b932b1b2b4b83a16ba37b5b2b760691b60448201526064016106cb565b600f546040516370a0823160e01b8152610722916001600160a01b0316906370a08231906127ba903090600401615364565b60206040518083038186803b1580156127d257600080fd5b505afa1580156127e6573d6000803e3d6000fd5b505050506040513d601f19601f8201168201806040525081019061280a91906154bd565b613d61565b610e588363a9059cbb60e01b848460405160240161282e9291906157fc565b60408051601f198184030181529190526020810180516001600160e01b03166001600160e01b0319909316929092179091526143ee565b6000806128706144c0565b90506000811561292b57600354600d54604051631d1f307960e31b81526001600160a01b039283169263e8f983c8926128d2929116907f0000000000000000000000000000000000000000000000000000000000000000908790600401615756565b60006040518083038186803b1580156128ea57600080fd5b505afa1580156128fe573d6000803e3d6000fd5b505050506040513d6000823e601f3d908101601f19168201604052612926919081019061577a565b509150505b6040516370a0823160e01b81526000906001600160a01b037f000000000000000000000000000000000000000000000000000000000000000016906370a082319061297a903090600401615364565b60206040518083038186803b15801561299257600080fd5b505afa1580156129a6573d6000803e3d6000fd5b505050506040513d601f19601f820116820180604052508101906129ca91906154bd565b600f546040516370a0823160e01b81529192506000916001600160a01b03909116906370a0823190612a00903090600401615364565b60206040518083038186803b158015612a1857600080fd5b505afa158015612a2c573d6000803e3d6000fd5b505050506040513d601f19601f82011682018060405250810190612a5091906154bd565b90506000612a5c6131b4565b9050600081831115612b2457600354600e546001600160a01b039182169163f4de46f6917f00000000000000000000000000000000000000000000000000000000000000009116612aad86886157ca565b6040518463ffffffff1660e01b8152600401612acb93929190615756565b60006040518083038186803b158015612ae357600080fd5b505afa158015612af7573d6000803e3d6000fd5b505050506040513d6000823e601f3d908101601f19168201604052612b1f919081019061577a565b509150505b80847f00000000000000000000000000000000000000000000000000000000000000006001600160a01b03166370a08231306040518263ffffffff1660e01b8152600401612b729190615364565b60206040518083038186803b158015612b8a57600080fd5b505afa158015612b9e573d6000803e3d6000fd5b505050506040513d601f19601f82011682018060405250810190612bc291906154bd565b612bcc90886154ec565b612bd691906154ec565b612be091906157ca565b965050505050505090565b80471015612c3b5760405162461bcd60e51b815260206004820152601d60248201527f416464726573733a20696e73756666696369656e742062616c616e636500000060448201526064016106cb565b6000826001600160a01b03168260405160006040518083038185875af1925050503d8060008114612c88576040519150601f19603f3d011682016040523d82523d6000602084013e612c8d565b606091505b5050905080610e585760405162461bcd60e51b815260206004820152603a60248201527f416464726573733a20756e61626c6520746f2073656e642076616c75652c207260448201527f6563697069656e74206d6179206861766520726576657274656400000000000060648201526084016106cb565b60008242118015611d59575050421115919050565b6000818152600183016020526040812054612d6057508154600181810184556000848152602080822090930184905584548482528286019093526040902091909155610a62565b506000610a62565b60008181526001830160205260408120548015612e51576000612d8c6001836157ca565b8554909150600090612da0906001906157ca565b9050818114612e05576000866000018281548110612dc057612dc0615740565b9060005260206000200154905080876000018481548110612de357612de3615740565b6000918252602080832090910192909255918252600188019052604090208390555b8554869080612e1657612e16615815565b600190038181906000526020600020016000905590558560010160008681526020019081526020016000206000905560019350505050610a62565b6000915050610a62565b600080612e696000846136f9565b9150508015612e7b57612e7b81613d61565b6040516370a0823160e01b81526000906001600160a01b037f000000000000000000000000000000000000000000000000000000000000000016906370a0823190612eca903090600401615364565b60206040518083038186803b158015612ee257600080fd5b505afa158015612ef6573d6000803e3d6000fd5b505050506040513d601f19601f82011682018060405250810190612f1a91906154bd565b9050612f25846146a7565b6040516370a0823160e01b815281906001600160a01b037f000000000000000000000000000000000000000000000000000000000000000016906370a0823190612f73903090600401615364565b60206040518083038186803b158015612f8b57600080fd5b505afa158015612f9f573d6000803e3d6000fd5b505050506040513d601f19601f82011682018060405250810190612fc391906154bd565b612fcd91906157ca565b949350505050565b612fde816146d2565b60007f00000000000000000000000000000000000000000000000000000000000000006001600160a01b0316638bc6beb26040518163ffffffff1660e01b815260040160206040518083038186803b15801561303957600080fd5b505afa15801561304d573d6000803e3d6000fd5b505050506040513d601f19601f820116820180604052508101906130719190615469565b90506001600160a01b03811615611b555760405163d279c19160e01b81526001600160a01b0382169063d279c191906130ae903090600401615364565b600060405180830381600087803b1580156130c857600080fd5b505af11580156130dc573d6000803e3d6000fd5b50506040516370a0823160e01b8152600092506001600160a01b037f00000000000000000000000000000000000000000000000000000000000000001691506370a082319061312f903090600401615364565b60206040518083038186803b15801561314757600080fd5b505afa15801561315b573d6000803e3d6000fd5b505050506040513d601f19601f8201168201806040525081019061317f91906154bd565b90508015610e5857610e587f0000000000000000000000000000000000000000000000000000000000000000848360016146f9565b6000670de0b6b3a76400007f00000000000000000000000000000000000000000000000000000000000000006001600160a01b03166370a08231306040518263ffffffff1660e01b815260040161320b9190615364565b60206040518083038186803b15801561322357600080fd5b505afa158015613237573d6000803e3d6000fd5b505050506040513d601f19601f8201168201806040525081019061325b91906154bd565b7f00000000000000000000000000000000000000000000000000000000000000006001600160a01b03166399530b066040518163ffffffff1660e01b815260040160206040518083038186803b1580156132b457600080fd5b505afa1580156132c8573d6000803e3d6000fd5b505050506040513d601f19601f820116820180604052508101906132ec91906154bd565b6132f6919061582b565b613300919061584a565b600e546040516370a0823160e01b81526001600160a01b03909116906370a0823190613330903090600401615364565b60206040518083038186803b15801561334857600080fd5b505afa15801561335c573d6000803e3d6000fd5b505050506040513d601f19601f8201168201806040525081019061338091906154bd565b610f1691906154ec565b801561072257613399816148cf565b600e546040516370a0823160e01b81526000916001600160a01b0316906370a08231906133ca903090600401615364565b60206040518083038186803b1580156133e257600080fd5b505afa1580156133f6573d6000803e3d6000fd5b505050506040513d601f19601f8201168201806040525081019061341a91906154bd565b90508015611b5557600e54611b55906001600160a01b03167f000000000000000000000000000000000000000000000000000000000000000083614af4565b600354600e54604051637a6f237b60e11b8152600092839283926001600160a01b039283169263f4de46f6926134b9927f000000000000000000000000000000000000000000000000000000000000000092909116908990600401615756565b60006040518083038186803b1580156134d157600080fd5b505afa1580156134e5573d6000803e3d6000fd5b505050506040513d6000823e601f3d908101601f1916820160405261350d919081019061577a565b9194509250905081156136dd576040516370a0823160e01b81526000906001600160a01b037f000000000000000000000000000000000000000000000000000000000000000016906370a0823190613569903090600401615364565b60206040518083038186803b15801561358157600080fd5b505afa158015613595573d6000803e3d6000fd5b505050506040513d601f19601f820116820180604052508101906135b991906154bd565b9050808311156135d5576135d56135d082856157ca565b6146a7565b600354604051636e74a6f760e01b8152600481018490526001600160a01b0390911690636e74a6f79060240160206040518083038186803b15801561361957600080fd5b505afa15801561362d573d6000803e3d6000fd5b505050506040513d601f19601f820116820180604052508101906136519190615469565b6001600160a01b0316638803dbee86858730426040518663ffffffff1660e01b815260040161368495949392919061586c565b600060405180830381600087803b15801561369e57600080fd5b505af11580156136b2573d6000803e3d6000fd5b505050506040513d6000823e601f3d908101601f191682016040526136da91908101906158a8565b50505b50505050565b60008183106136f25781611d59565b5090919050565b600080831580613707575082155b6137475760405162461bcd60e51b8152602060048201526011602482015270616c6c2d696e7075742d67742d7a65726f60781b60448201526064016106cb565b600f546040516370a0823160e01b81526000916001600160a01b0316906370a0823190613778903090600401615364565b60206040518083038186803b15801561379057600080fd5b505afa1580156137a4573d6000803e3d6000fd5b505050506040513d601f19601f820116820180604052508101906137c891906154bd565b9050600c54600014156137e057600092509050613d5a565b6040516370a0823160e01b81526000906001600160a01b037f000000000000000000000000000000000000000000000000000000000000000016906370a082319061382f903090600401615364565b60206040518083038186803b15801561384757600080fd5b505afa15801561385b573d6000803e3d6000fd5b505050506040513d601f19601f8201168201806040525081019061387f91906154bd565b905060008087116138a7578582116138985760006138b1565b6138a286836157ca565b6138b1565b6138b187836154ec565b9050806138c75760008394509450505050613d5a565b60007f00000000000000000000000000000000000000000000000000000000000000006001600160a01b031663fca513a86040518163ffffffff1660e01b815260040160206040518083038186803b15801561392257600080fd5b505afa158015613936573d6000803e3d6000fd5b505050506040513d601f19601f8201168201806040525081019061395a9190615469565b600e5460405163b3596f0760e01b81529192506000916001600160a01b038085169263b3596f07926139929290911690600401615364565b60206040518083038186803b1580156139aa57600080fd5b505afa1580156139be573d6000803e3d6000fd5b505050506040513d601f19601f820116820180604052508101906139e291906154bd565b90506000826001600160a01b031663b3596f077f00000000000000000000000000000000000000000000000000000000000000006040518263ffffffff1660e01b8152600401613a329190615364565b60206040518083038186803b158015613a4a57600080fd5b505afa158015613a5e573d6000803e3d6000fd5b505050506040513d601f19601f82011682018060405250810190613a8291906154bd565b9050811580613a8f575080155b15613aa65760008697509750505050505050613d5a565b600954604051633e15014160e01b81526000916001600160a01b031690633e15014190613af7907f000000000000000000000000000000000000000000000000000000000000000090600401615364565b6101406040518083038186803b158015613b1057600080fd5b505afa158015613b24573d6000803e3d6000fd5b505050506040513d601f19601f82011682018060405250810190613b4891906158f2565b505050505050505091505060007f00000000000000000000000000000000000000000000000000000000000000006001600160a01b031663313ce5676040518163ffffffff1660e01b815260040160206040518083038186803b158015613bae57600080fd5b505afa158015613bc2573d6000803e3d6000fd5b505050506040513d601f19601f82011682018060405250810190613be69190615989565b613bf190600a615a90565b613bfd9061271061582b565b83613c08848961582b565b613c12919061582b565b613c1c919061584a565b9050600084600e60009054906101000a90046001600160a01b03166001600160a01b031663313ce5676040518163ffffffff1660e01b815260040160206040518083038186803b158015613c6f57600080fd5b505afa158015613c83573d6000803e3d6000fd5b505050506040513d601f19601f82011682018060405250810190613ca79190615989565b613cb290600a615a90565b613cbc908461582b565b613cc6919061584a565b905080613ce2576000899a509a50505050505050505050613d5a565b6000612710600c5483613cf5919061582b565b613cff919061584a565b90506000612710600b5484613d14919061582b565b613d1e919061584a565b9050818b1115613d3957613d32818c6157ca565b9b50613d4e565b8a811115613d4e57613d4b8b826157ca565b9c505b50505050505050505050505b9250929050565b6000613d6c82614bc5565b90508015611b5557600e5460405163573ade8160e01b81526001600160a01b03918216600482015260248101839052600260448201523060648201527f00000000000000000000000000000000000000000000000000000000000000009091169063573ade81906084015b600060405180830381600087803b158015613df157600080fd5b505af11580156136da573d6000803e3d6000fd5b6107227f000000000000000000000000000000000000000000000000000000000000000082614c50565b801561072257600e5460405163a415bcad60e01b81526001600160a01b0391821660048201526024810183905260026044820152600060648201523060848201527f00000000000000000000000000000000000000000000000000000000000000009091169063a415bcad9060a401600060405180830381600087803b158015613eb857600080fd5b505af1158015613ecc573d6000803e3d6000fd5b5050505061072281614cb8565b606081600001805480602002602001604051908101604052809291908181526020018280548015613f2957602002820191906000526020600020905b815481526020019060010190808311613f15575b50505050509050919050565b613f896001600160a01b037f0000000000000000000000000000000000000000000000000000000000000000167f0000000000000000000000000000000000000000000000000000000000000000836142db565b613fdd6001600160a01b037f0000000000000000000000000000000000000000000000000000000000000000167f0000000000000000000000000000000000000000000000000000000000000000836142db565b6140316001600160a01b037f0000000000000000000000000000000000000000000000000000000000000000167f0000000000000000000000000000000000000000000000000000000000000000836142db565b600e54614068906001600160a01b03167f0000000000000000000000000000000000000000000000000000000000000000836142db565b60005b600360009054906101000a90046001600160a01b03166001600160a01b031663c2fba6676040518163ffffffff1660e01b815260040160206040518083038186803b1580156140b957600080fd5b505afa1580156140cd573d6000803e3d6000fd5b505050506040513d601f19601f820116820180604052508101906140f191906154bd565b811015611b5557600354604051636e74a6f760e01b8152600481018390526141a7916001600160a01b031690636e74a6f79060240160206040518083038186803b15801561413e57600080fd5b505afa158015614152573d6000803e3d6000fd5b505050506040513d601f19601f820116820180604052508101906141769190615469565b6001600160a01b037f00000000000000000000000000000000000000000000000000000000000000001690846142db565b600354604051636e74a6f760e01b815260048101839052614238916001600160a01b031690636e74a6f79060240160206040518083038186803b1580156141ed57600080fd5b505afa158015614201573d6000803e3d6000fd5b505050506040513d601f19601f820116820180604052508101906142259190615469565b600d546001600160a01b031690846142db565b600354604051636e74a6f760e01b8152600481018390526142c9916001600160a01b031690636e74a6f79060240160206040518083038186803b15801561427e57600080fd5b505afa158015614292573d6000803e3d6000fd5b505050506040513d601f19601f820116820180604052508101906142b69190615469565b600e546001600160a01b031690846142db565b806142d3816157e1565b91505061406b565b8015806143645750604051636eb1769f60e11b81523060048201526001600160a01b03838116602483015284169063dd62ed3e9060440160206040518083038186803b15801561432a57600080fd5b505afa15801561433e573d6000803e3d6000fd5b505050506040513d601f19601f8201168201806040525081019061436291906154bd565b155b6143cf5760405162461bcd60e51b815260206004820152603660248201527f5361666545524332303a20617070726f76652066726f6d206e6f6e2d7a65726f60448201527520746f206e6f6e2d7a65726f20616c6c6f77616e636560501b60648201526084016106cb565b610e588363095ea7b360e01b848460405160240161282e9291906157fc565b6000614443826040518060400160405280602081526020017f5361666545524332303a206c6f772d6c6576656c2063616c6c206661696c6564815250856001600160a01b0316614d359092919063ffffffff16565b805190915015610e5857808060200190518101906144619190615a9f565b610e585760405162461bcd60e51b815260206004820152602a60248201527f5361666545524332303a204552433230206f7065726174696f6e20646964206e6044820152691bdd081cdd58d8d9595960b21b60648201526084016106cb565b60007f00000000000000000000000000000000000000000000000000000000000000006001600160a01b03166144f65750600090565b6040516346df7f7160e11b8152600080516020615b3483398151915290638dbefee290614527903090600401615364565b60206040518083038186803b15801561453f57600080fd5b505afa158015614553573d6000803e3d6000fd5b505050506040513d601f19601f8201168201806040525081019061457791906154bd565b6040516370a0823160e01b8152600080516020615b34833981519152906370a08231906145a8903090600401615364565b60206040518083038186803b1580156145c057600080fd5b505afa1580156145d4573d6000803e3d6000fd5b505050506040513d601f19601f820116820180604052508101906145f891906154bd565b7f00000000000000000000000000000000000000000000000000000000000000006001600160a01b0316638b599f2661462f614d44565b306040518363ffffffff1660e01b815260040161464d929190615aba565b60206040518083038186803b15801561466557600080fd5b505afa158015614679573d6000803e3d6000fd5b505050506040513d601f19601f8201168201806040525081019061469d91906154bd565b61338091906154ec565b611b557f00000000000000000000000000000000000000000000000000000000000000003083614dbb565b60006146dc614eb4565b90508015611b5557600d54611b55906001600160a01b0316838360015b826001600160a01b0316846001600160a01b03161415614718576136dd565b600354604051631d1f307960e31b8152600091829182916001600160a01b03169063e8f983c890614751908a908a908a90600401615756565b60006040518083038186803b15801561476957600080fd5b505afa15801561477d573d6000803e3d6000fd5b505050506040513d6000823e601f3d908101601f191682016040526147a5919081019061577a565b92509250925083600014156147b957600193505b81156148c657600354604051636e74a6f760e01b8152600481018390526001600160a01b0390911690636e74a6f79060240160206040518083038186803b15801561480357600080fd5b505afa158015614817573d6000803e3d6000fd5b505050506040513d601f19601f8201168201806040525081019061483b9190615469565b6001600160a01b03166338ed173986868630426040518663ffffffff1660e01b815260040161486e95949392919061586c565b600060405180830381600087803b15801561488857600080fd5b505af115801561489c573d6000803e3d6000fd5b505050506040513d6000823e601f3d908101601f191682016040526148c491908101906158a8565b505b50505050505050565b80156107225760007f00000000000000000000000000000000000000000000000000000000000000006001600160a01b03166399530b066040518163ffffffff1660e01b815260040160206040518083038186803b15801561493057600080fd5b505afa158015614944573d6000803e3d6000fd5b505050506040513d601f19601f8201168201806040525081019061496891906154bd565b905060008161497f84670de0b6b3a764000061582b565b614989919061584a565b9050670de0b6b3a764000061499e838361582b565b6149a8919061584a565b83116149b457806149bf565b6149bf8160016154ec565b905060007f00000000000000000000000000000000000000000000000000000000000000006001600160a01b03166370a08231306040518263ffffffff1660e01b8152600401614a0f9190615364565b60206040518083038186803b158015614a2757600080fd5b505afa158015614a3b573d6000803e3d6000fd5b505050506040513d601f19601f82011682018060405250810190614a5f91906154bd565b90507f00000000000000000000000000000000000000000000000000000000000000006001600160a01b0316632e1a7d4d82841180614a9c575083155b614aa65783614aa8565b825b6040518263ffffffff1660e01b8152600401614ac691815260200190565b600060405180830381600087803b158015614ae057600080fd5b505af11580156148c4573d6000803e3d6000fd5b60006006546127101415614b09576001614bb7565b6040516358fac00360e01b81526001600160a01b0380861660048301526024820184905284166044820152610e106064820152614bb790730f1f5a87f99f0918e6c81f16e59f3518698221ff906358fac0039060840160206040518083038186803b158015614b7757600080fd5b505afa158015614b8b573d6000803e3d6000fd5b505050506040513d601f19601f82011682018060405250810190614baf91906154bd565b6006546151ae565b90506136dd848484846146f9565b6000614bd0826148cf565b600e546040516370a0823160e01b81526001600160a01b03909116906370a0823190614c00903090600401615364565b60206040518083038186803b158015614c1857600080fd5b505afa158015614c2c573d6000803e3d6000fd5b505050506040513d601f19601f82011682018060405250810190610a6291906154bd565b8015611b555760405163e8eda9df60e01b81526001600160a01b03838116600483015260248201839052306044830152600060648301527f0000000000000000000000000000000000000000000000000000000000000000169063e8eda9df90608401613dd7565b60405163b6b55f2560e01b8152600481018290527f00000000000000000000000000000000000000000000000000000000000000006001600160a01b03169063b6b55f2590602401600060405180830381600087803b158015614d1a57600080fd5b505af1158015614d2e573d6000803e3d6000fd5b5050505050565b6060612fcd84846000856151d1565b60408051600180825281830190925260609160009190602080830190803683370190505090507f000000000000000000000000000000000000000000000000000000000000000081600081518110614d9e57614d9e615740565b6001600160a01b0390921660209283029190910190910152919050565b60008115614ead57604051631a4ca37b60e21b81526001600160a01b03858116600483015260248201849052848116604483015283917f0000000000000000000000000000000000000000000000000000000000000000909116906369328dec90606401602060405180830381600087803b158015614e3957600080fd5b505af1158015614e4d573d6000803e3d6000fd5b505050506040513d601f19601f82011682018060405250810190614e7191906154bd565b1460405180604001604052806002815260200161323960f01b81525090614eab5760405162461bcd60e51b81526004016106cb9190615414565b505b5092915050565b60007f00000000000000000000000000000000000000000000000000000000000000006001600160a01b0316614eea5750600090565b6000806000614ef7610725565b9250925092508260001480614f0b57508042115b15614fbd577f00000000000000000000000000000000000000000000000000000000000000006001600160a01b0316633111e7b3614f47614d44565b600019306040518463ffffffff1660e01b8152600401614f6993929190615ae4565b602060405180830381600087803b158015614f8357600080fd5b505af1158015614f97573d6000803e3d6000fd5b505050506040513d601f19601f82011682018060405250810190614fbb91906154bd565b505b614fc5610725565b91945092509050614fd68282612d04565b15615047576040516301e9a69560e41b8152600080516020615b3483398151915290631e9a695090615010903090600019906004016157fc565b600060405180830381600087803b15801561502a57600080fd5b505af115801561503e573d6000803e3d6000fd5b505050506150b8565b6150518382611e26565b156150b857600080516020615b348339815191526001600160a01b031663787a08a66040518163ffffffff1660e01b8152600401600060405180830381600087803b15801561509f57600080fd5b505af11580156150b3573d6000803e3d6000fd5b505050505b6040516309a99b4f60e41b8152600080516020615b3483398151915290639a99b4f0906150ed903090600019906004016157fc565b600060405180830381600087803b15801561510757600080fd5b505af115801561511b573d6000803e3d6000fd5b50506040516370a0823160e01b8152737fc66500c84a76ad7e9c93437bfc5ac33e2ddae992506370a082319150615156903090600401615364565b60206040518083038186803b15801561516e57600080fd5b505afa158015615182573d6000803e3d6000fd5b505050506040513d601f19601f820116820180604052508101906151a691906154bd565b935050505090565b60006127106151bd83826157ca565b6151c7908561582b565b611d59919061584a565b6060824710156152325760405162461bcd60e51b815260206004820152602660248201527f416464726573733a20696e73756666696369656e742062616c616e636520666f6044820152651c8818d85b1b60d21b60648201526084016106cb565b843b6152805760405162461bcd60e51b815260206004820152601d60248201527f416464726573733a2063616c6c20746f206e6f6e2d636f6e747261637400000060448201526064016106cb565b600080866001600160a01b0316858760405161529c9190615b17565b60006040518083038185875af1925050503d80600081146152d9576040519150601f19603f3d011682016040523d82523d6000602084013e6152de565b606091505b50915091506152ee8282866152f9565b979650505050505050565b60608315615308575081611d59565b8251156153185782518084602001fd5b8160405162461bcd60e51b81526004016106cb9190615414565b6001600160a01b038116811461072257600080fd5b60006020828403121561535957600080fd5b8135611d5981615332565b6001600160a01b0391909116815260200190565b60006020828403121561538a57600080fd5b5035919050565b600081518084526020808501945080840160005b838110156153ca5781516001600160a01b0316875295820195908201906001016153a5565b509495945050505050565b602081526000611d596020830184615391565b60005b838110156154035781810151838201526020016153eb565b838111156136dd5750506000910152565b60208152600082518060208401526154338160408501602087016153e8565b601f01601f19169190910160400192915050565b6000806040838503121561545a57600080fd5b50508035926020909101359150565b60006020828403121561547b57600080fd5b8151611d5981615332565b6020808252601a908201527f63616c6c65722d69732d6e6f742d7468652d676f7665726e6f72000000000000604082015260600190565b6000602082840312156154cf57600080fd5b5051919050565b634e487b7160e01b600052601160045260246000fd5b600082198211156154ff576154ff6154d6565b500190565b60208082526019908201527818d85b1b195c8b5a5ccb5b9bdd0b5d995cdc195c8b5c1bdbdb603a1b604082015260600190565b60208082526016908201527531b0b63632b916b4b996b737ba16b096b5b2b2b832b960511b604082015260600190565b600181811c9082168061557b57607f821691505b6020821081141561559c57634e487b7160e01b600052602260045260246000fd5b50919050565b634e487b7160e01b600052604160045260246000fd5b604051601f8201601f1916810167ffffffffffffffff811182821017156155e1576155e16155a2565b604052919050565b600067ffffffffffffffff821115615603576156036155a2565b5060051b60200190565b600082601f83011261561e57600080fd5b8151602061563361562e836155e9565b6155b8565b82815260059290921b8401810191818101908684111561565257600080fd5b8286015b8481101561567657805161566981615332565b8352918301918301615656565b509695505050505050565b600082601f83011261569257600080fd5b815160206156a261562e836155e9565b82815260059290921b840181019181810190868411156156c157600080fd5b8286015b8481101561567657805183529183019183016156c5565b600080604083850312156156ef57600080fd5b825167ffffffffffffffff8082111561570757600080fd5b6157138683870161560d565b9350602085015191508082111561572957600080fd5b5061573685828601615681565b9150509250929050565b634e487b7160e01b600052603260045260246000fd5b6001600160a01b039384168152919092166020820152604081019190915260600190565b60008060006060848603121561578f57600080fd5b835167ffffffffffffffff8111156157a657600080fd5b6157b28682870161560d565b93505060208401519150604084015190509250925092565b6000828210156157dc576157dc6154d6565b500390565b60006000198214156157f5576157f56154d6565b5060010190565b6001600160a01b03929092168252602082015260400190565b634e487b7160e01b600052603160045260246000fd5b6000816000190483118215151615615845576158456154d6565b500290565b60008261586757634e487b7160e01b600052601260045260246000fd5b500490565b85815284602082015260a06040820152600061588b60a0830186615391565b6001600160a01b0394909416606083015250608001529392505050565b6000602082840312156158ba57600080fd5b815167ffffffffffffffff8111156158d157600080fd5b612fcd84828501615681565b805180151581146158ed57600080fd5b919050565b6000806000806000806000806000806101408b8d03121561591257600080fd5b8a51995060208b0151985060408b0151975060608b0151965060808b0151955061593e60a08c016158dd565b945061594c60c08c016158dd565b935061595a60e08c016158dd565b92506159696101008c016158dd565b91506159786101208c016158dd565b90509295989b9194979a5092959850565b60006020828403121561599b57600080fd5b815160ff81168114611d5957600080fd5b600181815b808511156159e75781600019048211156159cd576159cd6154d6565b808516156159da57918102915b93841c93908002906159b1565b509250929050565b6000826159fe57506001610a62565b81615a0b57506000610a62565b8160018114615a215760028114615a2b57615a47565b6001915050610a62565b60ff841115615a3c57615a3c6154d6565b50506001821b610a62565b5060208310610133831016604e8410600b8410161715615a6a575081810a610a62565b615a7483836159ac565b8060001904821115615a8857615a886154d6565b029392505050565b6000611d5960ff8416836159ef565b600060208284031215615ab157600080fd5b611d59826158dd565b604081526000615acd6040830185615391565b905060018060a01b03831660208301529392505050565b606081526000615af76060830186615391565b6020830194909452506001600160a01b0391909116604090910152919050565b60008251615b298184602087016153e8565b919091019291505056fe0000000000000000000000004da27a545c0c5b758a6ba100e3a049001de870f5a2646970667358221220ae3c0066df0a9989595b7728521c7c35c39084a219942c4cbeba200362eebcc864736f6c63430008090033",
  "devdoc": {
    "kind": "dev",
    "methods": {
      "addKeeper(address)": {
        "params": {
          "_keeperAddress": "keeper address to add."
        }
      },
      "approveToken()": {
        "details": "Approve all required tokens"
      },
      "migrate(address)": {
        "details": "_beforeMigration hook can be implemented in child strategy to do extra steps.",
        "params": {
          "_newStrategy": "Address of new strategy"
        }
      },
      "rebalance()": {
        "details": "Rebalance profit, loss and investment of this strategy"
      },
      "removeKeeper(address)": {
        "params": {
          "_keeperAddress": "keeper address to remove."
        }
      },
      "sweepERC20(address)": {
        "details": "sweep given token to feeCollector of strategy",
        "params": {
          "_fromToken": "token address to sweep"
        }
      },
      "totalValueCurrent()": {
        "details": "Report total value in collateral token"
      },
      "updateBorrowLimit(uint256,uint256)": {
        "details": "It is possible to set _maxBorrowLimit and _minBorrowLimit as 0 to not borrow anything",
        "params": {
          "_maxBorrowLimit": "It is % of actual collateral factor of protocol",
          "_minBorrowLimit": "It is % of actual collateral factor of protocol"
        }
      },
      "updateFeeCollector(address)": {
        "params": {
          "_feeCollector": "fee collector address"
        }
      },
      "updateSwapManager(address)": {
        "params": {
          "_swapManager": "swap manager address"
        }
      },
      "withdraw(uint256)": {
        "details": "Withdraw collateral token from lending pool.",
        "params": {
          "_amount": "Amount of collateral token"
        }
      }
    },
    "title": "Deposit Collateral in Aave and earn interest by depositing borrowed token in a Vesper Pool.",
    "version": 1
  },
  "userdoc": {
    "kind": "user",
    "methods": {
      "addKeeper(address)": {
        "notice": "Add given address in keepers list."
      },
      "canStartCooldown()": {
        "notice": "Returns true if we should start cooldown"
      },
      "canUnstake()": {
        "notice": "Returns true if Aave can be unstaked"
      },
      "cooldownData()": {
        "notice": "Return cooldown related timestamps"
      },
      "isLossMaking()": {
        "notice": "Calculate current position using claimed rewardToken and current borrow."
      },
      "isReservedToken(address)": {
        "notice": "Check whether given token is reserved or not. Reserved tokens are not allowed to sweep."
      },
      "keepers()": {
        "notice": "Return list of keepers"
      },
      "migrate(address)": {
        "notice": "Migrate all asset and vault ownership,if any, to new strategy"
      },
      "removeKeeper(address)": {
        "notice": "Remove given address from keepers list."
      },
      "token()": {
        "notice": "Returns address of token correspond to collateral token"
      },
      "totalValue()": {
        "notice": "Calculate total value using rewardToken accrued, supply and borrow position"
      },
      "totalValueCurrent()": {
        "notice": "Calculate total value of asset under management (in real-time)"
      },
      "updateBorrowLimit(uint256,uint256)": {
        "notice": "Update upper and lower borrow limit. Usually maxBorrowLimit < 100% of actual collateral factor of protocol."
      },
      "updateFeeCollector(address)": {
        "notice": "Update fee collector"
      },
      "updateSwapManager(address)": {
        "notice": "Update swap manager address"
      }
    },
    "version": 1
  },
  "storageLayout": {
    "storage": [
      {
        "astId": 13972,
        "contract": "contracts/strategies/aave/VesperAaveXYStrategy.sol:VesperAaveXYStrategy",
        "label": "WETH",
        "offset": 0,
        "slot": "0",
        "type": "t_address"
      },
      {
        "astId": 13977,
        "contract": "contracts/strategies/aave/VesperAaveXYStrategy.sol:VesperAaveXYStrategy",
        "label": "receiptToken",
        "offset": 0,
        "slot": "1",
        "type": "t_address"
      },
      {
        "astId": 13983,
        "contract": "contracts/strategies/aave/VesperAaveXYStrategy.sol:VesperAaveXYStrategy",
        "label": "feeCollector",
        "offset": 0,
        "slot": "2",
        "type": "t_address"
      },
      {
        "astId": 13986,
        "contract": "contracts/strategies/aave/VesperAaveXYStrategy.sol:VesperAaveXYStrategy",
        "label": "swapManager",
        "offset": 0,
        "slot": "3",
        "type": "t_contract(ISwapManager)5729"
      },
      {
        "astId": 13989,
        "contract": "contracts/strategies/aave/VesperAaveXYStrategy.sol:VesperAaveXYStrategy",
        "label": "oraclePeriod",
        "offset": 0,
        "slot": "4",
        "type": "t_uint256"
      },
      {
        "astId": 13992,
        "contract": "contracts/strategies/aave/VesperAaveXYStrategy.sol:VesperAaveXYStrategy",
        "label": "oracleRouterIdx",
        "offset": 0,
        "slot": "5",
        "type": "t_uint256"
      },
      {
        "astId": 13995,
        "contract": "contracts/strategies/aave/VesperAaveXYStrategy.sol:VesperAaveXYStrategy",
        "label": "swapSlippage",
        "offset": 0,
        "slot": "6",
        "type": "t_uint256"
      },
      {
        "astId": 13998,
        "contract": "contracts/strategies/aave/VesperAaveXYStrategy.sol:VesperAaveXYStrategy",
        "label": "_keepers",
        "offset": 0,
        "slot": "7",
        "type": "t_struct(AddressSet)4634_storage"
      },
      {
        "astId": 15015,
        "contract": "contracts/strategies/aave/VesperAaveXYStrategy.sol:VesperAaveXYStrategy",
        "label": "aaveProtocolDataProvider",
        "offset": 0,
        "slot": "9",
        "type": "t_contract(AaveProtocolDataProvider)5150"
      },
      {
        "astId": 17876,
        "contract": "contracts/strategies/aave/VesperAaveXYStrategy.sol:VesperAaveXYStrategy",
        "label": "NAME",
        "offset": 0,
        "slot": "10",
        "type": "t_string_storage"
      },
      {
        "astId": 17885,
        "contract": "contracts/strategies/aave/VesperAaveXYStrategy.sol:VesperAaveXYStrategy",
        "label": "minBorrowLimit",
        "offset": 0,
        "slot": "11",
        "type": "t_uint256"
      },
      {
        "astId": 17888,
        "contract": "contracts/strategies/aave/VesperAaveXYStrategy.sol:VesperAaveXYStrategy",
        "label": "maxBorrowLimit",
        "offset": 0,
        "slot": "12",
        "type": "t_uint256"
      },
      {
        "astId": 17899,
        "contract": "contracts/strategies/aave/VesperAaveXYStrategy.sol:VesperAaveXYStrategy",
        "label": "rewardToken",
        "offset": 0,
        "slot": "13",
        "type": "t_address"
      },
      {
        "astId": 17901,
        "contract": "contracts/strategies/aave/VesperAaveXYStrategy.sol:VesperAaveXYStrategy",
        "label": "borrowToken",
        "offset": 0,
        "slot": "14",
        "type": "t_address"
      },
      {
        "astId": 17904,
        "contract": "contracts/strategies/aave/VesperAaveXYStrategy.sol:VesperAaveXYStrategy",
        "label": "vdToken",
        "offset": 0,
        "slot": "15",
        "type": "t_contract(AToken)4981"
      }
    ],
    "types": {
      "t_address": {
        "encoding": "inplace",
        "label": "address",
        "numberOfBytes": "20"
      },
      "t_array(t_bytes32)dyn_storage": {
        "base": "t_bytes32",
        "encoding": "dynamic_array",
        "label": "bytes32[]",
        "numberOfBytes": "32"
      },
      "t_bytes32": {
        "encoding": "inplace",
        "label": "bytes32",
        "numberOfBytes": "32"
      },
      "t_contract(AToken)4981": {
        "encoding": "inplace",
        "label": "contract AToken",
        "numberOfBytes": "20"
      },
      "t_contract(AaveProtocolDataProvider)5150": {
        "encoding": "inplace",
        "label": "contract AaveProtocolDataProvider",
        "numberOfBytes": "20"
      },
      "t_contract(ISwapManager)5729": {
        "encoding": "inplace",
        "label": "contract ISwapManager",
        "numberOfBytes": "20"
      },
      "t_mapping(t_bytes32,t_uint256)": {
        "encoding": "mapping",
        "key": "t_bytes32",
        "label": "mapping(bytes32 => uint256)",
        "numberOfBytes": "32",
        "value": "t_uint256"
      },
      "t_string_storage": {
        "encoding": "bytes",
        "label": "string",
        "numberOfBytes": "32"
      },
      "t_struct(AddressSet)4634_storage": {
        "encoding": "inplace",
        "label": "struct EnumerableSet.AddressSet",
        "members": [
          {
            "astId": 4633,
            "contract": "contracts/strategies/aave/VesperAaveXYStrategy.sol:VesperAaveXYStrategy",
            "label": "_inner",
            "offset": 0,
            "slot": "0",
            "type": "t_struct(Set)4333_storage"
          }
        ],
        "numberOfBytes": "64"
      },
      "t_struct(Set)4333_storage": {
        "encoding": "inplace",
        "label": "struct EnumerableSet.Set",
        "members": [
          {
            "astId": 4328,
            "contract": "contracts/strategies/aave/VesperAaveXYStrategy.sol:VesperAaveXYStrategy",
            "label": "_values",
            "offset": 0,
            "slot": "0",
            "type": "t_array(t_bytes32)dyn_storage"
          },
          {
            "astId": 4332,
            "contract": "contracts/strategies/aave/VesperAaveXYStrategy.sol:VesperAaveXYStrategy",
            "label": "_indexes",
            "offset": 0,
            "slot": "1",
            "type": "t_mapping(t_bytes32,t_uint256)"
          }
        ],
        "numberOfBytes": "64"
      },
      "t_uint256": {
        "encoding": "inplace",
        "label": "uint256",
        "numberOfBytes": "32"
      }
    }
  }
}