{
  "address": "0xc5cdf8cbe886fc5c1ef5cd4fdd599c975ec6bb54",
  "abi": [
    {
      "inputs": [
        {
          "internalType": "address",
          "name": "_pool",
          "type": "address"
        },
        {
          "internalType": "address",
          "name": "_cm",
          "type": "address"
        },
        {
          "internalType": "address",
          "name": "_swapManager",
          "type": "address"
        },
        {
          "internalType": "address",
          "name": "_vPool",
          "type": "address"
        }
      ],
      "stateMutability": "nonpayable",
      "type": "constructor"
    },
    {
      "anonymous": false,
      "inputs": [
        {
          "indexed": true,
          "internalType": "address",
          "name": "previousFeeCollector",
          "type": "address"
        },
        {
          "indexed": true,
          "internalType": "address",
          "name": "newFeeCollector",
          "type": "address"
        }
      ],
      "name": "UpdatedFeeCollector",
      "type": "event"
    },
    {
      "anonymous": false,
      "inputs": [
        {
          "indexed": false,
          "internalType": "uint256",
          "name": "oldPeriod",
          "type": "uint256"
        },
        {
          "indexed": false,
          "internalType": "uint256",
          "name": "newPeriod",
          "type": "uint256"
        },
        {
          "indexed": false,
          "internalType": "uint256",
          "name": "oldRouterIdx",
          "type": "uint256"
        },
        {
          "indexed": false,
          "internalType": "uint256",
          "name": "newRouterIdx",
          "type": "uint256"
        }
      ],
      "name": "UpdatedOracleConfig",
      "type": "event"
    },
    {
      "anonymous": false,
      "inputs": [
        {
          "indexed": true,
          "internalType": "address",
          "name": "previousSwapManager",
          "type": "address"
        },
        {
          "indexed": true,
          "internalType": "address",
          "name": "newSwapManager",
          "type": "address"
        }
      ],
      "name": "UpdatedSwapManager",
      "type": "event"
    },
    {
      "anonymous": false,
      "inputs": [
        {
          "indexed": false,
          "internalType": "uint256",
          "name": "oldSwapSlippage",
          "type": "uint256"
        },
        {
          "indexed": false,
          "internalType": "uint256",
          "name": "newSwapSlippage",
          "type": "uint256"
        }
      ],
      "name": "UpdatedSwapSlippage",
      "type": "event"
    },
    {
      "inputs": [],
      "name": "NAME",
      "outputs": [
        {
          "internalType": "string",
          "name": "",
          "type": "string"
        }
      ],
      "stateMutability": "view",
      "type": "function"
    },
    {
      "inputs": [],
      "name": "VERSION",
      "outputs": [
        {
          "internalType": "string",
          "name": "",
          "type": "string"
        }
      ],
      "stateMutability": "view",
      "type": "function"
    },
    {
      "inputs": [
        {
          "internalType": "address",
          "name": "_keeperAddress",
          "type": "address"
        }
      ],
      "name": "addKeeper",
      "outputs": [],
      "stateMutability": "nonpayable",
      "type": "function"
    },
    {
      "inputs": [],
      "name": "approveToken",
      "outputs": [],
      "stateMutability": "nonpayable",
      "type": "function"
    },
    {
      "inputs": [],
      "name": "cm",
      "outputs": [
        {
          "internalType": "contract ICollateralManager",
          "name": "",
          "type": "address"
        }
      ],
      "stateMutability": "view",
      "type": "function"
    },
    {
      "inputs": [],
      "name": "collateralToken",
      "outputs": [
        {
          "internalType": "contract IERC20",
          "name": "",
          "type": "address"
        }
      ],
      "stateMutability": "view",
      "type": "function"
    },
    {
      "inputs": [],
      "name": "collateralType",
      "outputs": [
        {
          "internalType": "bytes32",
          "name": "",
          "type": "bytes32"
        }
      ],
      "stateMutability": "view",
      "type": "function"
    },
    {
      "inputs": [
        {
          "internalType": "uint256",
          "name": "amount",
          "type": "uint256"
        }
      ],
      "name": "convertFrom18",
      "outputs": [
        {
          "internalType": "uint256",
          "name": "",
          "type": "uint256"
        }
      ],
      "stateMutability": "pure",
      "type": "function"
    },
    {
      "inputs": [],
      "name": "createVault",
      "outputs": [],
      "stateMutability": "nonpayable",
      "type": "function"
    },
    {
      "inputs": [],
      "name": "feeCollector",
      "outputs": [
        {
          "internalType": "address",
          "name": "",
          "type": "address"
        }
      ],
      "stateMutability": "view",
      "type": "function"
    },
    {
      "inputs": [],
      "name": "highWater",
      "outputs": [
        {
          "internalType": "uint256",
          "name": "",
          "type": "uint256"
        }
      ],
      "stateMutability": "view",
      "type": "function"
    },
    {
      "inputs": [
        {
          "internalType": "address",
          "name": "_addressListFactory",
          "type": "address"
        }
      ],
      "name": "init",
      "outputs": [],
      "stateMutability": "nonpayable",
      "type": "function"
    },
    {
      "inputs": [
        {
          "internalType": "address",
          "name": "_token",
          "type": "address"
        }
      ],
      "name": "isReservedToken",
      "outputs": [
        {
          "internalType": "bool",
          "name": "",
          "type": "bool"
        }
      ],
      "stateMutability": "view",
      "type": "function"
    },
    {
      "inputs": [],
      "name": "isUnderwater",
      "outputs": [
        {
          "internalType": "bool",
          "name": "",
          "type": "bool"
        }
      ],
      "stateMutability": "view",
      "type": "function"
    },
    {
      "inputs": [],
      "name": "keepers",
      "outputs": [
        {
          "internalType": "contract IAddressList",
          "name": "",
          "type": "address"
        }
      ],
      "stateMutability": "view",
      "type": "function"
    },
    {
      "inputs": [],
      "name": "lowWater",
      "outputs": [
        {
          "internalType": "uint256",
          "name": "",
          "type": "uint256"
        }
      ],
      "stateMutability": "view",
      "type": "function"
    },
    {
      "inputs": [
        {
          "internalType": "address",
          "name": "_newStrategy",
          "type": "address"
        }
      ],
      "name": "migrate",
      "outputs": [],
      "stateMutability": "nonpayable",
      "type": "function"
    },
    {
      "inputs": [],
      "name": "oraclePeriod",
      "outputs": [
        {
          "internalType": "uint256",
          "name": "",
          "type": "uint256"
        }
      ],
      "stateMutability": "view",
      "type": "function"
    },
    {
      "inputs": [],
      "name": "oracleRouterIdx",
      "outputs": [
        {
          "internalType": "uint256",
          "name": "",
          "type": "uint256"
        }
      ],
      "stateMutability": "view",
      "type": "function"
    },
    {
      "inputs": [],
      "name": "pool",
      "outputs": [
        {
          "internalType": "address",
          "name": "",
          "type": "address"
        }
      ],
      "stateMutability": "view",
      "type": "function"
    },
    {
      "inputs": [],
      "name": "rebalance",
      "outputs": [],
      "stateMutability": "nonpayable",
      "type": "function"
    },
    {
      "inputs": [],
      "name": "receiptToken",
      "outputs": [
        {
          "internalType": "address",
          "name": "",
          "type": "address"
        }
      ],
      "stateMutability": "view",
      "type": "function"
    },
    {
      "inputs": [
        {
          "internalType": "address",
          "name": "_keeperAddress",
          "type": "address"
        }
      ],
      "name": "removeKeeper",
      "outputs": [],
      "stateMutability": "nonpayable",
      "type": "function"
    },
    {
      "inputs": [],
      "name": "resurface",
      "outputs": [],
      "stateMutability": "nonpayable",
      "type": "function"
    },
    {
      "inputs": [],
      "name": "setupOracles",
      "outputs": [],
      "stateMutability": "nonpayable",
      "type": "function"
    },
    {
      "inputs": [],
      "name": "swapManager",
      "outputs": [
        {
          "internalType": "contract ISwapManager",
          "name": "",
          "type": "address"
        }
      ],
      "stateMutability": "view",
      "type": "function"
    },
    {
      "inputs": [],
      "name": "swapSlippage",
      "outputs": [
        {
          "internalType": "uint256",
          "name": "",
          "type": "uint256"
        }
      ],
      "stateMutability": "view",
      "type": "function"
    },
    {
      "inputs": [
        {
          "internalType": "address",
          "name": "_fromToken",
          "type": "address"
        }
      ],
      "name": "sweepERC20",
      "outputs": [],
      "stateMutability": "nonpayable",
      "type": "function"
    },
    {
      "inputs": [],
      "name": "token",
      "outputs": [
        {
          "internalType": "address",
          "name": "",
          "type": "address"
        }
      ],
      "stateMutability": "view",
      "type": "function"
    },
    {
      "inputs": [],
      "name": "totalValue",
      "outputs": [
        {
          "internalType": "uint256",
          "name": "_totalValue",
          "type": "uint256"
        }
      ],
      "stateMutability": "view",
      "type": "function"
    },
    {
      "inputs": [],
      "name": "totalValueCurrent",
      "outputs": [
        {
          "internalType": "uint256",
          "name": "",
          "type": "uint256"
        }
      ],
      "stateMutability": "nonpayable",
      "type": "function"
    },
    {
      "inputs": [
        {
          "internalType": "uint256",
          "name": "_highWater",
          "type": "uint256"
        },
        {
          "internalType": "uint256",
          "name": "_lowWater",
          "type": "uint256"
        }
      ],
      "name": "updateBalancingFactor",
      "outputs": [],
      "stateMutability": "nonpayable",
      "type": "function"
    },
    {
      "inputs": [
        {
          "internalType": "address",
          "name": "_feeCollector",
          "type": "address"
        }
      ],
      "name": "updateFeeCollector",
      "outputs": [],
      "stateMutability": "nonpayable",
      "type": "function"
    },
    {
      "inputs": [
        {
          "internalType": "uint256",
          "name": "_newPeriod",
          "type": "uint256"
        },
        {
          "internalType": "uint256",
          "name": "_newRouterIdx",
          "type": "uint256"
        }
      ],
      "name": "updateOracleConfig",
      "outputs": [],
      "stateMutability": "nonpayable",
      "type": "function"
    },
    {
      "inputs": [
        {
          "internalType": "address",
          "name": "_swapManager",
          "type": "address"
        }
      ],
      "name": "updateSwapManager",
      "outputs": [],
      "stateMutability": "nonpayable",
      "type": "function"
    },
    {
      "inputs": [
        {
          "internalType": "uint256",
          "name": "_newSwapSlippage",
          "type": "uint256"
        }
      ],
      "name": "updateSwapSlippage",
      "outputs": [],
      "stateMutability": "nonpayable",
      "type": "function"
    },
    {
      "inputs": [],
      "name": "vaultNum",
      "outputs": [
        {
          "internalType": "uint256",
          "name": "",
          "type": "uint256"
        }
      ],
      "stateMutability": "view",
      "type": "function"
    },
    {
      "inputs": [
        {
          "internalType": "uint256",
          "name": "_amount",
          "type": "uint256"
        }
      ],
      "name": "withdraw",
      "outputs": [],
      "stateMutability": "nonpayable",
      "type": "function"
    }
  ],
  "transactionHash": "0x90baafbf07761e0bc171c2b6adb82ed59accb4a7937b1ccc4c3ba85a9b726c92",
  "args": [
    "0xd1C117319B3595fbc39b471AB1fd485629eb05F2",
    "0xaBC64889601F01e7B26277Ef8756250d6ABf8c18",
    "0xe382d9f2394A359B01006faa8A1864b8a60d2710",
    "0x0538C8bAc84E95A9dF8aC10Aad17DbE81b9E36ee"
  ],
  "solcInputHash": "7f3e59a71058f4ac40f17cd5a1d9e3e2",
  "bytecode": "0x610100604052610e1060045560006005556127106006553480156200002357600080fd5b5060405162004bd238038062004bd2833981016040819052620000469162000333565b83838383644554482d4360d81b84848484848483836001600160a01b038316620000b75760405162461bcd60e51b815260206004820152601460248201527f706f6f6c2d616464726573732d69732d7a65726f00000000000000000000000060448201526064015b60405180910390fd5b6001600160a01b038216620001045760405162461bcd60e51b8152602060048201526012602482015271736d2d616464726573732d69732d7a65726f60701b6044820152606401620000ae565b600380546001600160a01b0319166001600160a01b0384811691909117909155606084901b6001600160601b03191660a05260408051637e062a3560e11b815290519185169163fc0c546a91600480820192602092909190829003018186803b1580156200017157600080fd5b505afa15801562000186573d6000803e3d6000fd5b505050506040513d601f19601f82011682018060405250810190620001ac91906200039a565b60601b6001600160601b031916608052600080546001600160a01b0319166001600160a01b039283161790558616151591506200022390505760405162461bcd60e51b8152602060048201526012602482015271636d2d616464726573732d69732d7a65726f60701b6044820152606401620000ae565b60e052505060601b6001600160601b03191660c0525060408051637e062a3560e11b81529051736b175474e89094c44da98b954eedeac495271d0f916001600160a01b0385169163fc0c546a91600480820192602092909190829003018186803b1580156200029157600080fd5b505afa158015620002a6573d6000803e3d6000fd5b505050506040513d601f19601f82011682018060405250810190620002cc91906200039a565b6001600160a01b031614620003245760405162461bcd60e51b815260206004820152601460248201527f6e6f742d612d76616c69642d6461692d706f6f6c0000000000000000000000006044820152606401620000ae565b505050505050505050620003d9565b6000806000806080858703121562000349578384fd5b84516200035681620003c0565b60208601519094506200036981620003c0565b60408601519093506200037c81620003c0565b60608601519092506200038f81620003c0565b939692955090935050565b600060208284031215620003ac578081fd5b8151620003b981620003c0565b9392505050565b6001600160a01b0381168114620003d657600080fd5b50565b60805160601c60a05160601c60c05160601c60e05161465162000581600039600081816104d80152818161106b0152612e6101526000818161038a01528181610a9201528181610d610152818161109101528181611ddc01528181611f5501528181612496015281816126110152818161279101528181612b1f01528181612bac01528181612f5d01528181613168015281816132620152818161348701528181613504015281816135510152818161365c015281816136b00152613bd001526000818161025101528181610556015281816106e50152818161096001528181610bcb01528181610dea01528181610f9d01528181611117015281816113470152818161146c0152818161174b015281816118c80152818161199101528181611be7015281816122b80152818161289301528181612926015281816129c3015261370401526000818161043901528181611b3901528181611bbe01528181611ea0015281816120e0015281816122e20152818161253c01528181612a7f0152818161339c015281816133d80152818161368e015281816136e2015261384101526146516000f3fe608060405234801561001057600080fd5b50600436106102325760003560e01c806399b71d5c11610130578063ce5494bb116100b8578063e824600f1161007c578063e824600f146104d3578063ec78e832146104fa578063fb589de21461050d578063fc0c546a1461051e578063ffa1ad741461052f57610232565b8063ce5494bb1461048a578063d2c35ce81461049d578063d4c3eea0146104b0578063e00af4a7146104b8578063e645c202146104cb57610232565b8063b09e8797116100ff578063b09e87971461042b578063b2016bd414610434578063b442bb231461045b578063c415b95c1461046e578063cd2d7ebe1461048157610232565b806399b71d5c146103bf578063a3f4df7e146103c7578063a923b2a614610410578063aa1018861461042357610232565b8063415eea1b116101be57806367f5e4b81161018257806367f5e4b814610357578063709d039d1461036a5780637d7c2a1c1461037d5780639318162014610385578063951dc22c146103ac57610232565b8063415eea1b1461030957806342189c8f14610311578063440d72481461031a5780634c36fad71461033c5780635d12928b1461034f57610232565b806325afda831161020557806325afda83146102ba5780632e1a7d4d146102c35780632ecd89d4146102d65780633e918261146102ee5780634032b72b146102f657610232565b806314ae9f2e1461023757806316f0115b1461024c57806319ab453c146102905780631aedeabe146102a3575b600080fd5b61024a61024536600461418d565b610554565b005b6102737f000000000000000000000000000000000000000000000000000000000000000081565b6040516001600160a01b0390911681526020015b60405180910390f35b61024a61029e36600461418d565b6106e3565b6102ac60065481565b604051908152602001610287565b6102ac60085481565b61024a6102d1366004614323565b61095d565b6102de6109da565b6040519015158152602001610287565b61024a610b1a565b61024a61030436600461418d565b610bc9565b6102ac610d49565b6102ac60045481565b6102de61032836600461418d565b6000546001600160a01b0390811691161490565b61024a61034a36600461418d565b610de8565b61024a610f9b565b61024a610365366004614323565b611115565b600354610273906001600160a01b031681565b61024a611261565b6102737f000000000000000000000000000000000000000000000000000000000000000081565b600154610273906001600160a01b031681565b61024a6113b0565b6104036040518060400160405280601981526020017f5665737065722d4d616b65722d53747261746567792d4554480000000000000081525081565b60405161028791906143fa565b61024a61041e36600461433b565b61146a565b61024a61169f565b6102ac60075481565b6102737f000000000000000000000000000000000000000000000000000000000000000081565b61024a61046936600461433b565b611749565b600254610273906001600160a01b031681565b6102ac60055481565b61024a61049836600461418d565b6118c5565b61024a6104ab36600461418d565b611be5565b6102ac611dae565b61024a6104c636600461418d565b611fe9565b6102ac61228c565b6102ac7f000000000000000000000000000000000000000000000000000000000000000081565b600054610273906001600160a01b031681565b6102ac61051b366004614323565b90565b6000546001600160a01b0316610273565b610403604051806040016040528060068152602001650332e302e32360d41b81525081565b7f00000000000000000000000000000000000000000000000000000000000000006001600160a01b0316630c340a246040518163ffffffff1660e01b815260040160206040518083038186803b1580156105ad57600080fd5b505afa1580156105c1573d6000803e3d6000fd5b505050506040513d601f19601f820116820180604052508101906105e591906141a9565b6001600160a01b0316336001600160a01b03161461061e5760405162461bcd60e51b81526004016106159061445d565b60405180910390fd5b600154604051631484968760e11b81526001600160a01b038381166004830152909116906329092d0e90602401602060405180830381600087803b15801561066557600080fd5b505af1158015610679573d6000803e3d6000fd5b505050506040513d601f19601f8201168201806040525081019061069d91906142eb565b6106e05760405162461bcd60e51b81526020600482015260146024820152731c995b5bdd994b5ad9595c195c8b59985a5b195960621b6044820152606401610615565b50565b7f00000000000000000000000000000000000000000000000000000000000000006001600160a01b0316630c340a246040518163ffffffff1660e01b815260040160206040518083038186803b15801561073c57600080fd5b505afa158015610750573d6000803e3d6000fd5b505050506040513d601f19601f8201168201806040525081019061077491906141a9565b6001600160a01b0316336001600160a01b0316146107a45760405162461bcd60e51b81526004016106159061445d565b6001546001600160a01b0316156107fd5760405162461bcd60e51b815260206004820152601b60248201527f6b65657065722d6c6973742d616c72656164792d6372656174656400000000006044820152606401610615565b6000819050806001600160a01b0316630fab4d256040518163ffffffff1660e01b8152600401602060405180830381600087803b15801561083d57600080fd5b505af1158015610851573d6000803e3d6000fd5b505050506040513d601f19601f8201168201806040525081019061087591906141a9565b600180546001600160a01b0319166001600160a01b03929092169182179055630a3b0a4f6108a03390565b6040516001600160e01b031960e084901b1681526001600160a01b039091166004820152602401602060405180830381600087803b1580156108e157600080fd5b505af11580156108f5573d6000803e3d6000fd5b505050506040513d601f19601f8201168201806040525081019061091991906142eb565b6109595760405162461bcd60e51b81526020600482015260116024820152701859190b5ad9595c195c8b59985a5b1959607a1b6044820152606401610615565b5050565b337f00000000000000000000000000000000000000000000000000000000000000006001600160a01b0316146109d15760405162461bcd60e51b815260206004820152601960248201527818d85b1b195c8b5a5ccb5b9bdd0b5d995cdc195c8b5c1bdbdb603a1b6044820152606401610615565b6106e081612296565b6040516370a0823160e01b8152306004820152600090736b175474e89094c44da98b954eedeac495271d0f906370a082319060240160206040518083038186803b158015610a2757600080fd5b505afa158015610a3b573d6000803e3d6000fd5b505050506040513d601f19601f82011682018060405250810190610a5f919061430b565b610a67612311565b610a719190614525565b610a7d906103e8614525565b60405163c0af0d3b60e01b81523060048201527f00000000000000000000000000000000000000000000000000000000000000006001600160a01b03169063c0af0d3b9060240160206040518083038186803b158015610adc57600080fd5b505afa158015610af0573d6000803e3d6000fd5b505050506040513d601f19601f82011682018060405250810190610b14919061430b565b11905090565b6001546001600160a01b0316635dbe47e8336040516001600160e01b031960e084901b1681526001600160a01b03909116600482015260240160206040518083038186803b158015610b6b57600080fd5b505afa158015610b7f573d6000803e3d6000fd5b505050506040513d601f19601f82011682018060405250810190610ba391906142eb565b610bbf5760405162461bcd60e51b81526004016106159061442d565b610bc761242d565b565b7f00000000000000000000000000000000000000000000000000000000000000006001600160a01b0316630c340a246040518163ffffffff1660e01b815260040160206040518083038186803b158015610c2257600080fd5b505afa158015610c36573d6000803e3d6000fd5b505050506040513d601f19601f82011682018060405250810190610c5a91906141a9565b6001600160a01b0316336001600160a01b031614610c8a5760405162461bcd60e51b81526004016106159061445d565b600154604051630a3b0a4f60e01b81526001600160a01b03838116600483015290911690630a3b0a4f90602401602060405180830381600087803b158015610cd157600080fd5b505af1158015610ce5573d6000803e3d6000fd5b505050506040513d601f19601f82011682018060405250810190610d0991906142eb565b6106e05760405162461bcd60e51b81526020600482015260116024820152701859190b5ad9595c195c8b59985a5b1959607a1b6044820152606401610615565b60405163cd1adb6160e01b81523060048201526000907f00000000000000000000000000000000000000000000000000000000000000006001600160a01b03169063cd1adb619060240160206040518083038186803b158015610dab57600080fd5b505afa158015610dbf573d6000803e3d6000fd5b505050506040513d601f19601f82011682018060405250810190610de3919061430b565b905090565b7f00000000000000000000000000000000000000000000000000000000000000006001600160a01b0316630c340a246040518163ffffffff1660e01b815260040160206040518083038186803b158015610e4157600080fd5b505afa158015610e55573d6000803e3d6000fd5b505050506040513d601f19601f82011682018060405250810190610e7991906141a9565b6001600160a01b0316336001600160a01b031614610ea95760405162461bcd60e51b81526004016106159061445d565b6001600160a01b038116610ef45760405162461bcd60e51b8152602060048201526012602482015271736d2d616464726573732d69732d7a65726f60701b6044820152606401610615565b6003546001600160a01b0382811691161415610f3f5760405162461bcd60e51b815260206004820152600a602482015269736d2d69732d73616d6560b01b6044820152606401610615565b6003546040516001600160a01b038084169216907f2d19927e7cac08ceb98b38898a4fdff6da6a27295b9a2d62fe250408ebe044e190600090a3600380546001600160a01b0319166001600160a01b0392909216919091179055565b7f00000000000000000000000000000000000000000000000000000000000000006001600160a01b0316630c340a246040518163ffffffff1660e01b815260040160206040518083038186803b158015610ff457600080fd5b505afa158015611008573d6000803e3d6000fd5b505050506040513d601f19601f8201168201806040525081019061102c91906141a9565b6001600160a01b0316336001600160a01b03161461105c5760405162461bcd60e51b81526004016106159061445d565b604051630bbccf9b60e11b81527f000000000000000000000000000000000000000000000000000000000000000060048201527f00000000000000000000000000000000000000000000000000000000000000006001600160a01b0316906317799f3690602401602060405180830381600087803b1580156110dd57600080fd5b505af11580156110f1573d6000803e3d6000fd5b505050506040513d601f19601f820116820180604052508101906106e0919061430b565b7f00000000000000000000000000000000000000000000000000000000000000006001600160a01b0316630c340a246040518163ffffffff1660e01b815260040160206040518083038186803b15801561116e57600080fd5b505afa158015611182573d6000803e3d6000fd5b505050506040513d601f19601f820116820180604052508101906111a691906141a9565b6001600160a01b0316336001600160a01b0316146111d65760405162461bcd60e51b81526004016106159061445d565b6127108111156112215760405162461bcd60e51b8152602060048201526016602482015275696e76616c69642d736c6970706167652d76616c756560501b6044820152606401610615565b60065460408051918252602082018390527ef1c5db862c7598b3b6765552ca951f498611e06412c2d57f8d0b58f82e7f82910160405180910390a1600655565b6001546001600160a01b0316635dbe47e8336040516001600160e01b031960e084901b1681526001600160a01b03909116600482015260240160206040518083038186803b1580156112b257600080fd5b505afa1580156112c6573d6000803e3d6000fd5b505050506040513d601f19601f820116820180604052508101906112ea91906142eb565b6113065760405162461bcd60e51b81526004016106159061442d565b6000806000611313612900565b6040516302df682360e11b815260048101849052602481018390526044810182905292955090935091506001600160a01b037f000000000000000000000000000000000000000000000000000000000000000016906305bed04690606401600060405180830381600087803b15801561138b57600080fd5b505af115801561139f573d6000803e3d6000fd5b505050506113ab612a67565b505050565b6001546001600160a01b0316635dbe47e8336040516001600160e01b031960e084901b1681526001600160a01b03909116600482015260240160206040518083038186803b15801561140157600080fd5b505afa158015611415573d6000803e3d6000fd5b505050506040513d601f19601f8201168201806040525081019061143991906142eb565b6114555760405162461bcd60e51b81526004016106159061442d565b61145f6000612cee565b610bc7600019612cee565b7f00000000000000000000000000000000000000000000000000000000000000006001600160a01b0316630c340a246040518163ffffffff1660e01b815260040160206040518083038186803b1580156114c357600080fd5b505afa1580156114d7573d6000803e3d6000fd5b505050506040513d601f19601f820116820180604052508101906114fb91906141a9565b6001600160a01b0316336001600160a01b03161461152b5760405162461bcd60e51b81526004016106159061445d565b600360009054906101000a90046001600160a01b03166001600160a01b031663c2fba6676040518163ffffffff1660e01b815260040160206040518083038186803b15801561157957600080fd5b505afa15801561158d573d6000803e3d6000fd5b505050506040513d601f19601f820116820180604052508101906115b1919061430b565b81106115f65760405162461bcd60e51b81526020600482015260146024820152730d2dcecc2d8d2c85ae4deeae8cae45ad2dcc8caf60631b6044820152606401610615565b816116015760045491505b603b82116116495760405162461bcd60e51b81526020600482015260156024820152741a5b9d985b1a590b5bdc9858db194b5c195c9a5bd9605a1b6044820152606401610615565b6004546005546040805192835260208301859052820152606081018290527f83bc5ab8030537fcf1d29c2334f6d22c26c82dcbe5ff03923d2cff5c692c0a7f9060800160405180910390a1600491909155600555565b6001546001600160a01b0316635dbe47e8336040516001600160e01b031960e084901b1681526001600160a01b03909116600482015260240160206040518083038186803b1580156116f057600080fd5b505afa158015611704573d6000803e3d6000fd5b505050506040513d601f19601f8201168201806040525081019061172891906142eb565b6117445760405162461bcd60e51b81526004016106159061442d565b610bc7565b7f00000000000000000000000000000000000000000000000000000000000000006001600160a01b0316630c340a246040518163ffffffff1660e01b815260040160206040518083038186803b1580156117a257600080fd5b505afa1580156117b6573d6000803e3d6000fd5b505050506040513d601f19601f820116820180604052508101906117da91906141a9565b6001600160a01b0316336001600160a01b03161461180a5760405162461bcd60e51b81526004016106159061445d565b8061184a5760405162461bcd60e51b815260206004820152601060248201526f6c6f7757617465722d69732d7a65726f60801b6044820152606401610615565b8082116118995760405162461bcd60e51b815260206004820152601c60248201527f6869676857617465722d6c6573732d7468616e2d6c6f775761746572000000006044820152606401610615565b6118aa662386f26fc100008361455d565b6007556118be662386f26fc100008261455d565b6008555050565b337f00000000000000000000000000000000000000000000000000000000000000006001600160a01b0316146119395760405162461bcd60e51b815260206004820152601960248201527818d85b1b195c8b5a5ccb5b9bdd0b5d995cdc195c8b5c1bdbdb603a1b6044820152606401610615565b6001600160a01b03811661198f5760405162461bcd60e51b815260206004820152601c60248201527f6e65772d73747261746567792d616464726573732d69732d7a65726f000000006044820152606401610615565b7f00000000000000000000000000000000000000000000000000000000000000006001600160a01b0316816001600160a01b03166316f0115b6040518163ffffffff1660e01b815260040160206040518083038186803b1580156119f257600080fd5b505afa158015611a06573d6000803e3d6000fd5b505050506040513d601f19601f82011682018060405250810190611a2a91906141a9565b6001600160a01b031614611a795760405162461bcd60e51b81526020600482015260166024820152756e6f742d76616c69642d6e65772d737472617465677960501b6044820152606401610615565b611a8281612e5f565b6000546040516370a0823160e01b8152306004820152611b169183916001600160a01b03909116906370a082319060240160206040518083038186803b158015611acb57600080fd5b505afa158015611adf573d6000803e3d6000fd5b505050506040513d601f19601f82011682018060405250810190611b03919061430b565b6000546001600160a01b03169190612fbd565b6040516370a0823160e01b81523060048201526106e09082906001600160a01b037f000000000000000000000000000000000000000000000000000000000000000016906370a08231906024015b60206040518083038186803b158015611b7c57600080fd5b505afa158015611b90573d6000803e3d6000fd5b505050506040513d601f19601f82011682018060405250810190611bb4919061430b565b6001600160a01b037f0000000000000000000000000000000000000000000000000000000000000000169190612fbd565b7f00000000000000000000000000000000000000000000000000000000000000006001600160a01b0316630c340a246040518163ffffffff1660e01b815260040160206040518083038186803b158015611c3e57600080fd5b505afa158015611c52573d6000803e3d6000fd5b505050506040513d601f19601f82011682018060405250810190611c7691906141a9565b6001600160a01b0316336001600160a01b031614611ca65760405162461bcd60e51b81526004016106159061445d565b6001600160a01b038116611cfc5760405162461bcd60e51b815260206004820152601d60248201527f6665652d636f6c6c6563746f722d616464726573732d69732d7a65726f0000006044820152606401610615565b6002546001600160a01b0382811691161415611d525760405162461bcd60e51b81526020600482015260156024820152746665652d636f6c6c6563746f722d69732d73616d6560581b6044820152606401610615565b6002546040516001600160a01b038084169216907f0f06062680f9bd68e786e9980d9bb03d73d5620fc3b345e417b6eacb310b970690600090a3600280546001600160a01b0319166001600160a01b0392909216919091179055565b600080611db9612311565b60405163c0af0d3b60e01b81523060048201529091506000906001600160a01b037f0000000000000000000000000000000000000000000000000000000000000000169063c0af0d3b9060240160206040518083038186803b158015611e1e57600080fd5b505afa158015611e32573d6000803e3d6000fd5b505050506040513d601f19601f82011682018060405250810190611e56919061430b565b905080821115611f3c576000611e6c828461457c565b6003546040516340b4c54560e11b8152736b175474e89094c44da98b954eedeac495271d0f60048201526001600160a01b037f00000000000000000000000000000000000000000000000000000000000000008116602483015260448201849052600060648301529293509116906381698a8a9060840160006040518083038186803b158015611efb57600080fd5b505afa158015611f0f573d6000803e3d6000fd5b505050506040513d6000823e601f3d908101601f19168201604052611f3791908101906141c5565b945050505b6040516369ebe00160e11b8152306004820152611fd8907f00000000000000000000000000000000000000000000000000000000000000006001600160a01b03169063d3d7c002906024015b60206040518083038186803b158015611fa057600080fd5b505afa158015611fb4573d6000803e3d6000fd5b505050506040513d601f19601f8201168201806040525081019061051b919061430b565b611fe29084614525565b9250505090565b6001546001600160a01b0316635dbe47e8336040516001600160e01b031960e084901b1681526001600160a01b03909116600482015260240160206040518083038186803b15801561203a57600080fd5b505afa15801561204e573d6000803e3d6000fd5b505050506040513d601f19601f8201168201806040525081019061207291906142eb565b61208e5760405162461bcd60e51b81526004016106159061442d565b6002546001600160a01b03166120de5760405162461bcd60e51b81526020600482015260156024820152741999594b58dbdb1b1958dd1bdc8b5b9bdd0b5cd95d605a1b6044820152606401610615565b7f00000000000000000000000000000000000000000000000000000000000000006001600160a01b0316816001600160a01b031614156121605760405162461bcd60e51b815260206004820152601f60248201527f6e6f742d616c6c6f7765642d746f2d73776565702d636f6c6c61746572616c006044820152606401610615565b6000546001600160a01b03808316911614156121b55760405162461bcd60e51b815260206004820152601460248201527306e6f742d616c6c6f7765642d746f2d73776565760641b6044820152606401610615565b6001600160a01b03811673eeeeeeeeeeeeeeeeeeeeeeeeeeeeeeeeeeeeeeee14156121f5576002546121f0906001600160a01b031647613020565b6106e0565b6040516370a0823160e01b81523060048201526000906001600160a01b038316906370a082319060240160206040518083038186803b15801561223757600080fd5b505afa15801561224b573d6000803e3d6000fd5b505050506040513d601f19601f8201168201806040525081019061226f919061430b565b600254909150610959906001600160a01b03848116911683612fbd565b6000610de3611dae565b61229f81613139565b6040516370a0823160e01b81523060048201526106e0907f0000000000000000000000000000000000000000000000000000000000000000906001600160a01b037f000000000000000000000000000000000000000000000000000000000000000016906370a0823190602401611b64565b600080546040516370a0823160e01b8152306004820152670de0b6b3a7640000916001600160a01b0316906370a082319060240160206040518083038186803b15801561235d57600080fd5b505afa158015612371573d6000803e3d6000fd5b505050506040513d601f19601f82011682018060405250810190612395919061430b565b60008054906101000a90046001600160a01b03166001600160a01b03166399530b066040518163ffffffff1660e01b815260040160206040518083038186803b1580156123e157600080fd5b505afa1580156123f5573d6000803e3d6000fd5b505050506040513d601f19601f82011682018060405250810190612419919061430b565b612423919061455d565b610de3919061453d565b6124356109da565b6124775760405162461bcd60e51b81526020600482015260136024820152723837b7b616b4b996b0b137bb3296bbb0ba32b960691b6044820152606401610615565b6000612481612311565b60405163c0af0d3b60e01b81523060048201527f00000000000000000000000000000000000000000000000000000000000000006001600160a01b03169063c0af0d3b9060240160206040518083038186803b1580156124e057600080fd5b505afa1580156124f4573d6000803e3d6000fd5b505050506040513d601f19601f82011682018060405250810190612518919061430b565b612522919061457c565b600354604051637a6f237b60e11b81526001600160a01b037f000000000000000000000000000000000000000000000000000000000000000081166004830152736b175474e89094c44da98b954eedeac495271d0f6024830152604482018490529293506000928392839291169063f4de46f69060640160006040518083038186803b1580156125b157600080fd5b505afa1580156125c5573d6000803e3d6000fd5b505050506040513d6000823e601f3d908101601f191682016040526125ed919081019061420a565b925092509250816000146128fa576040516330897f1760e11b8152600481018390527f00000000000000000000000000000000000000000000000000000000000000006001600160a01b031690636112fe2e90602401600060405180830381600087803b15801561265d57600080fd5b505af1158015612671573d6000803e3d6000fd5b5050600354604051636e74a6f760e01b8152600481018590526001600160a01b039091169250636e74a6f7915060240160206040518083038186803b1580156126b957600080fd5b505afa1580156126cd573d6000803e3d6000fd5b505050506040513d601f19601f820116820180604052508101906126f191906141a9565b6001600160a01b03166338ed17398360018630426040518663ffffffff1660e01b8152600401612725959493929190614494565b600060405180830381600087803b15801561273f57600080fd5b505af1158015612753573d6000803e3d6000fd5b505050506040513d6000823e601f3d908101601f1916820160405261277b9190810190614258565b506040516370a0823160e01b81523060048201527f00000000000000000000000000000000000000000000000000000000000000006001600160a01b03169063a846c2fd90736b175474e89094c44da98b954eedeac495271d0f906370a082319060240160206040518083038186803b1580156127f757600080fd5b505afa15801561280b573d6000803e3d6000fd5b505050506040513d601f19601f8201168201806040525081019061282f919061430b565b6040518263ffffffff1660e01b815260040161284d91815260200190565b600060405180830381600087803b15801561286757600080fd5b505af115801561287b573d6000803e3d6000fd5b50506040516306eeb69360e51b8152600481018590527f00000000000000000000000000000000000000000000000000000000000000006001600160a01b0316925063ddd6d2609150602401600060405180830381600087803b1580156128e157600080fd5b505af11580156128f5573d6000803e3d6000fd5b505050505b50505050565b604051636a9eee1360e11b81523060048201526000908190819081906001600160a01b037f0000000000000000000000000000000000000000000000000000000000000000169063d53ddc269060240160206040518083038186803b15801561296857600080fd5b505afa15801561297c573d6000803e3d6000fd5b505050506040513d601f19601f820116820180604052508101906129a0919061430b565b604051639f2b283360e01b81523060048201529091506000906001600160a01b037f00000000000000000000000000000000000000000000000000000000000000001690639f2b28339060240160206040518083038186803b158015612a0557600080fd5b505afa158015612a19573d6000803e3d6000fd5b505050506040513d601f19601f82011682018060405250810190612a3d919061430b565b9050612a48816132ce565b9450612a5381613461565b9350612a5e826134d0565b92505050909192565b6040516370a0823160e01b81523060048201526000907f00000000000000000000000000000000000000000000000000000000000000006001600160a01b0316906370a082319060240160206040518083038186803b158015612ac957600080fd5b505afa158015612add573d6000803e3d6000fd5b505050506040513d601f19601f82011682018060405250810190612b01919061430b565b90508015612b845760405163bad4a01f60e01b8152600481018290527f00000000000000000000000000000000000000000000000000000000000000006001600160a01b03169063bad4a01f90602401600060405180830381600087803b158015612b6b57600080fd5b505af1158015612b7f573d6000803e3d6000fd5b505050505b6040516390229af760e01b815230600482015260009081908190819081906001600160a01b037f000000000000000000000000000000000000000000000000000000000000000016906390229af79060240160a06040518083038186803b158015612bee57600080fd5b505afa158015612c02573d6000803e3d6000fd5b505050506040513d601f19601f82011682018060405250810190612c26919061435c565b9450945094509450945060006007548487612c41919061455d565b612c4b919061453d565b905081811015612c6357612c5e856134df565b612ce5565b600754831115612cc957612c756109da565b15612cb75760405162461bcd60e51b81526020600482015260126024820152713837b7b616b4b996bab73232b93bb0ba32b960711b6044820152606401610615565b612c5e612cc4868361457c565b61353b565b600854831015612ce557612ce5612ce0828761457c565b6134df565b50505050505050565b612cf781613642565b600054612d2390736b175474e89094c44da98b954eedeac495271d0f906001600160a01b031683613914565b60005b600360009054906101000a90046001600160a01b03166001600160a01b031663c2fba6676040518163ffffffff1660e01b815260040160206040518083038186803b158015612d7457600080fd5b505afa158015612d88573d6000803e3d6000fd5b505050506040513d601f19601f82011682018060405250810190612dac919061430b565b81101561095957600354604051636e74a6f760e01b815260048101839052612e4d916001600160a01b031690636e74a6f79060240160206040518083038186803b158015612df957600080fd5b505afa158015612e0d573d6000803e3d6000fd5b505050506040513d601f19601f82011682018060405250810190612e3191906141a9565b731b40183efb4dd766f11bda7a7c3ad8982e9984219084613914565b80612e57816145bf565b915050612d26565b7f0000000000000000000000000000000000000000000000000000000000000000816001600160a01b031663e824600f6040518163ffffffff1660e01b815260040160206040518083038186803b158015612eb957600080fd5b505afa158015612ecd573d6000803e3d6000fd5b505050506040513d601f19601f82011682018060405250810190612ef1919061430b565b14612f3e5760405162461bcd60e51b815260206004820181905260248201527f636f6c6c61746572616c2d747970652d6d7573742d62652d7468652d73616d656044820152606401610615565b604051637038e06560e11b81526001600160a01b0382811660048301527f0000000000000000000000000000000000000000000000000000000000000000169063e071c0ca906024015b600060405180830381600087803b158015612fa257600080fd5b505af1158015612fb6573d6000803e3d6000fd5b5050505050565b6040516001600160a01b0383166024820152604481018290526113ab90849063a9059cbb60e01b906064015b60408051601f198184030181529190526020810180516001600160e01b03166001600160e01b031990931692909217909152613a38565b804710156130705760405162461bcd60e51b815260206004820152601d60248201527f416464726573733a20696e73756666696369656e742062616c616e63650000006044820152606401610615565b6000826001600160a01b03168260405160006040518083038185875af1925050503d80600081146130bd576040519150601f19603f3d011682016040523d82523d6000602084013e6130c2565b606091505b50509050806113ab5760405162461bcd60e51b815260206004820152603a60248201527f416464726573733a20756e61626c6520746f2073656e642076616c75652c207260448201527f6563697069656e74206d617920686176652072657665727465640000000000006064820152608401610615565b604051630a5ab5dd60e31b81523060048201526024810182905260009081908190819081906001600160a01b037f000000000000000000000000000000000000000000000000000000000000000016906352d5aee89060440160a06040518083038186803b1580156131aa57600080fd5b505afa1580156131be573d6000803e3d6000fd5b505050506040513d601f19601f820116820180604052508101906131e2919061435c565b94509450945094509450836000141580156131fe575060085482105b1561324c57600754600090613213858861455d565b61321d919061453d565b90508181101561323557613230856134df565b61324a565b8481101561324a5761324a612ce0828761457c565b505b6040516330897f1760e11b8152600481018790527f00000000000000000000000000000000000000000000000000000000000000006001600160a01b031690636112fe2e90602401600060405180830381600087803b1580156132ae57600080fd5b505af11580156132c2573d6000803e3d6000fd5b50505050505050505050565b60006132ed736b175474e89094c44da98b954eedeac495271d0f613b0a565b6132f5613bb8565b6040516370a0823160e01b8152306004820152600090736b175474e89094c44da98b954eedeac495271d0f906370a082319060240160206040518083038186803b15801561334257600080fd5b505afa158015613356573d6000803e3d6000fd5b505050506040513d601f19601f8201168201806040525081019061337a919061430b565b905080156133c3576133c3736b175474e89094c44da98b954eedeac495271d0f7f0000000000000000000000000000000000000000000000000000000000000000836001613c7a565b6040516370a0823160e01b81523060048201527f00000000000000000000000000000000000000000000000000000000000000006001600160a01b0316906370a082319060240160206040518083038186803b15801561342257600080fd5b505afa158015613436573d6000803e3d6000fd5b505050506040513d601f19601f8201168201806040525081019061345a919061430b565b9392505050565b6040516369ebe00160e11b815230600482015260009081906134b6906001600160a01b037f0000000000000000000000000000000000000000000000000000000000000000169063d3d7c00290602401611f88565b90508083116134c657600061345a565b61345a818461457c565b60006134db82613139565b5090565b80156106e0576134ee81613e30565b60405163a846c2fd60e01b8152600481018290527f00000000000000000000000000000000000000000000000000000000000000006001600160a01b03169063a846c2fd90602401612f88565b60405163317afabb60e21b8152600481018290527f00000000000000000000000000000000000000000000000000000000000000006001600160a01b03169063c5ebeaec90602401600060405180830381600087803b15801561359d57600080fd5b505af11580156135b1573d6000803e3d6000fd5b50506040516370a0823160e01b8152306004820152736b175474e89094c44da98b954eedeac495271d0f92506370a08231915060240160206040518083038186803b1580156135ff57600080fd5b505afa158015613613573d6000803e3d6000fd5b505050506040513d601f19601f82011682018060405250810190613637919061430b565b90506106e081613f6c565b613681736b175474e89094c44da98b954eedeac495271d0f7f000000000000000000000000000000000000000000000000000000000000000083613914565b6136d56001600160a01b037f0000000000000000000000000000000000000000000000000000000000000000167f000000000000000000000000000000000000000000000000000000000000000083613914565b6137296001600160a01b037f0000000000000000000000000000000000000000000000000000000000000000167f000000000000000000000000000000000000000000000000000000000000000083613914565b60005b600360009054906101000a90046001600160a01b03166001600160a01b031663c2fba6676040518163ffffffff1660e01b815260040160206040518083038186803b15801561377a57600080fd5b505afa15801561378e573d6000803e3d6000fd5b505050506040513d601f19601f820116820180604052508101906137b2919061430b565b81101561095957600354604051636e74a6f760e01b815260048101839052613868916001600160a01b031690636e74a6f79060240160206040518083038186803b1580156137ff57600080fd5b505afa158015613813573d6000803e3d6000fd5b505050506040513d601f19601f8201168201806040525081019061383791906141a9565b6001600160a01b037f0000000000000000000000000000000000000000000000000000000000000000169084613914565b600354604051636e74a6f760e01b815260048101839052613902916001600160a01b031690636e74a6f79060240160206040518083038186803b1580156138ae57600080fd5b505afa1580156138c2573d6000803e3d6000fd5b505050506040513d601f19601f820116820180604052508101906138e691906141a9565b736b175474e89094c44da98b954eedeac495271d0f9084613914565b8061390c816145bf565b91505061372c565b80158061399d5750604051636eb1769f60e11b81523060048201526001600160a01b03838116602483015284169063dd62ed3e9060440160206040518083038186803b15801561396357600080fd5b505afa158015613977573d6000803e3d6000fd5b505050506040513d601f19601f8201168201806040525081019061399b919061430b565b155b613a085760405162461bcd60e51b815260206004820152603660248201527f5361666545524332303a20617070726f76652066726f6d206e6f6e2d7a65726f60448201527520746f206e6f6e2d7a65726f20616c6c6f77616e636560501b6064820152608401610615565b6040516001600160a01b0383166024820152604481018290526113ab90849063095ea7b360e01b90606401612fe9565b6000613a8d826040518060400160405280602081526020017f5361666545524332303a206c6f772d6c6576656c2063616c6c206661696c6564815250856001600160a01b0316613f9d9092919063ffffffff16565b8051909150156113ab5780806020019051810190613aab91906142eb565b6113ab5760405162461bcd60e51b815260206004820152602a60248201527f5361666545524332303a204552433230206f7065726174696f6e20646964206e6044820152691bdd081cdd58d8d9595960b21b6064820152608401610615565b6040516370a0823160e01b8152306004820152600090731b40183efb4dd766f11bda7a7c3ad8982e998421906370a082319060240160206040518083038186803b158015613b5757600080fd5b505afa158015613b6b573d6000803e3d6000fd5b505050506040513d601f19601f82011682018060405250810190613b8f919061430b565b9050801561095957610959731b40183efb4dd766f11bda7a7c3ad8982e99842183836001613c7a565b60405163c0af0d3b60e01b81523060048201526000907f00000000000000000000000000000000000000000000000000000000000000006001600160a01b03169063c0af0d3b9060240160206040518083038186803b158015613c1a57600080fd5b505afa158015613c2e573d6000803e3d6000fd5b505050506040513d601f19601f82011682018060405250810190613c52919061430b565b90506000613c5e612311565b90508181111561095957610959613c75838361457c565b613e30565b600354604051631d1f307960e31b81526001600160a01b038681166004830152858116602483015260448201859052600092839283929091169063e8f983c89060640160006040518083038186803b158015613cd557600080fd5b505afa158015613ce9573d6000803e3d6000fd5b505050506040513d6000823e601f3d908101601f19168201604052613d11919081019061420a565b9250925092508360001415613d2557600193505b8115612ce557600354604051636e74a6f760e01b8152600481018390526001600160a01b0390911690636e74a6f79060240160206040518083038186803b158015613d6f57600080fd5b505afa158015613d83573d6000803e3d6000fd5b505050506040513d601f19601f82011682018060405250810190613da791906141a9565b6001600160a01b03166338ed173986868630426040518663ffffffff1660e01b8152600401613dda959493929190614494565b600060405180830381600087803b158015613df457600080fd5b505af1158015613e08573d6000803e3d6000fd5b505050506040513d6000823e601f3d908101601f191682016040526128f59190810190614258565b60008060009054906101000a90046001600160a01b03166001600160a01b03166399530b066040518163ffffffff1660e01b815260040160206040518083038186803b158015613e7f57600080fd5b505afa158015613e93573d6000803e3d6000fd5b505050506040513d601f19601f82011682018060405250810190613eb7919061430b565b9050600081613ece84670de0b6b3a764000061455d565b613ed8919061453d565b9050670de0b6b3a7640000613eed838361455d565b613ef7919061453d565b8311613f035780613f0e565b613f0e816001614525565b60005460405160016226f16160e21b03198152600481018390529192506001600160a01b03169063ff643a7c90602401600060405180830381600087803b158015613f5857600080fd5b505af1158015612ce5573d6000803e3d6000fd5b60005460405163b6b55f2560e01b8152600481018390526001600160a01b039091169063b6b55f2590602401612f88565b6060613fac8484600085613fb4565b949350505050565b6060824710156140155760405162461bcd60e51b815260206004820152602660248201527f416464726573733a20696e73756666696369656e742062616c616e636520666f6044820152651c8818d85b1b60d21b6064820152608401610615565b843b6140635760405162461bcd60e51b815260206004820152601d60248201527f416464726573733a2063616c6c20746f206e6f6e2d636f6e74726163740000006044820152606401610615565b600080866001600160a01b0316858760405161407f91906143de565b60006040518083038185875af1925050503d80600081146140bc576040519150601f19603f3d011682016040523d82523d6000602084013e6140c1565b606091505b50915091506140d18282866140dc565b979650505050505050565b606083156140eb57508161345a565b8251156140fb5782518084602001fd5b8160405162461bcd60e51b815260040161061591906143fa565b600082601f830112614125578081fd5b8151602061413a61413583614501565b6144d0565b80838252828201915082860187848660051b8901011115614159578586fd5b855b8581101561418057815161416e81614606565b8452928401929084019060010161415b565b5090979650505050505050565b60006020828403121561419e578081fd5b813561345a81614606565b6000602082840312156141ba578081fd5b815161345a81614606565b600080604083850312156141d7578081fd5b825167ffffffffffffffff8111156141ed578182fd5b6141f985828601614115565b925050602083015190509250929050565b60008060006060848603121561421e578081fd5b835167ffffffffffffffff811115614234578182fd5b61424086828701614115565b93505060208401519150604084015190509250925092565b6000602080838503121561426a578182fd5b825167ffffffffffffffff811115614280578283fd5b8301601f81018513614290578283fd5b805161429e61413582614501565b80828252848201915084840188868560051b87010111156142bd578687fd5b8694505b838510156142df5780518352600194909401939185019185016142c1565b50979650505050505050565b6000602082840312156142fc578081fd5b8151801515811461345a578182fd5b60006020828403121561431c578081fd5b5051919050565b600060208284031215614334578081fd5b5035919050565b6000806040838503121561434d578182fd5b50508035926020909101359150565b600080600080600060a08688031215614373578081fd5b5050835160208501516040860151606087015160809097015192989197509594509092509050565b6000815180845260208085019450808401835b838110156143d35781516001600160a01b0316875295820195908201906001016143ae565b509495945050505050565b600082516143f0818460208701614593565b9190910192915050565b6000602082528251806020840152614419816040850160208701614593565b601f01601f19169190910160400192915050565b60208082526016908201527531b0b63632b916b4b996b737ba16b096b5b2b2b832b960511b604082015260600190565b6020808252601a908201527f63616c6c65722d69732d6e6f742d7468652d676f7665726e6f72000000000000604082015260600190565b600086825285602083015260a060408301526144b360a083018661439b565b6001600160a01b0394909416606083015250608001529392505050565b604051601f8201601f1916810167ffffffffffffffff811182821017156144f9576144f96145f0565b604052919050565b600067ffffffffffffffff82111561451b5761451b6145f0565b5060051b60200190565b60008219821115614538576145386145da565b500190565b60008261455857634e487b7160e01b81526012600452602481fd5b500490565b6000816000190483118215151615614577576145776145da565b500290565b60008282101561458e5761458e6145da565b500390565b60005b838110156145ae578181015183820152602001614596565b838111156128fa5750506000910152565b60006000198214156145d3576145d36145da565b5060010190565b634e487b7160e01b600052601160045260246000fd5b634e487b7160e01b600052604160045260246000fd5b6001600160a01b03811681146106e057600080fdfea2646970667358221220b5309c474ef9671591c7629a48dccfe95b5fad85c5174881dab6a40102ae855d64736f6c63430008030033",
  "devdoc": {
    "kind": "dev",
    "methods": {
      "addKeeper(address)": {
        "params": {
          "_keeperAddress": "keeper address to add."
        }
      },
      "approveToken()": {
        "details": "Approve all required tokens"
      },
      "convertFrom18(uint256)": {
        "details": "Convert from 18 decimals to token defined decimals. Default no conversion."
      },
      "init(address)": {
        "params": {
          "_addressListFactory": "To support same code in eth side chain, user _addressListFactory as param ethereum- 0xded8217De022706A191eE7Ee0Dc9df1185Fb5dA3 polygon-0xD10D5696A350D65A9AA15FE8B258caB4ab1bF291"
        }
      },
      "isReservedToken(address)": {
        "details": "Check whether given token is reserved or not. Reserved tokens are not allowed to sweep."
      },
      "migrate(address)": {
        "details": "_beforeMigration hook can be implemented in child strategy to do extra steps.",
        "params": {
          "_newStrategy": "Address of new strategy"
        }
      },
      "rebalance()": {
        "details": "Rebalance profit, loss and investment of this strategy"
      },
      "removeKeeper(address)": {
        "params": {
          "_keeperAddress": "keeper address to remove."
        }
      },
      "resurface()": {
        "details": "If pool is underwater this function will resolve underwater condition. If Debt in Maker is greater than Dai balance in lender then pool is underwater. Lowering DAI debt in Maker will resolve underwater condition. Resolve: Calculate required collateral token to lower DAI debt. Withdraw required collateral token from Maker and convert those to DAI via Uniswap. Finally payback debt in Maker using DAI.Also report loss in pool."
      },
      "sweepERC20(address)": {
        "details": "sweep given token to feeCollector of strategy",
        "params": {
          "_fromToken": "token address to sweep"
        }
      },
      "totalValue()": {
        "details": "Make sure to return value in collateral token and in order to do that we are using Uniswap to get collateral amount for earned DAI."
      },
      "totalValueCurrent()": {
        "details": "Report total value in collateral token"
      },
      "updateBalancingFactor(uint256,uint256)": {
        "params": {
          "_highWater": "Value for high water mark.",
          "_lowWater": "Value for low water mark."
        }
      },
      "updateFeeCollector(address)": {
        "params": {
          "_feeCollector": "fee collector address"
        }
      },
      "updateSwapManager(address)": {
        "params": {
          "_swapManager": "swap manager address"
        }
      },
      "withdraw(uint256)": {
        "details": "Withdraw collateral token from lending pool.",
        "params": {
          "_amount": "Amount of collateral token"
        }
      }
    },
    "version": 1
  },
  "userdoc": {
    "kind": "user",
    "methods": {
      "addKeeper(address)": {
        "notice": "Add given address in keepers list."
      },
      "createVault()": {
        "notice": "Create new Maker vault"
      },
      "init(address)": {
        "notice": "Create keeper list NOTE: Any function with onlyKeeper modifier will not work until this function is called. NOTE: Due to gas constraint this function cannot be called in constructor."
      },
      "isUnderwater()": {
        "notice": "Returns true if pool is underwater.Underwater - If debt is greater than (earning of pool + DAI in pool + some wei buffer).Earning - Sum of DAI balance and DAI from accrued reward, if any, in lending pool."
      },
      "migrate(address)": {
        "notice": "Migrate all asset and vault ownership,if any, to new strategy"
      },
      "removeKeeper(address)": {
        "notice": "Remove given address from keepers list."
      },
      "token()": {
        "notice": "Returns address of token correspond to collateral token"
      },
      "totalValue()": {
        "notice": "Report total value of this strategy"
      },
      "totalValueCurrent()": {
        "notice": "Calculate total value of asset under management (in real-time)"
      },
      "updateBalancingFactor(uint256,uint256)": {
        "notice": "Update balancing factors aka high water and low water values. Water mark values represent Collateral Ratio in Maker. For example 300 as high water means 300% collateral ratio."
      },
      "updateFeeCollector(address)": {
        "notice": "Update fee collector"
      },
      "updateSwapManager(address)": {
        "notice": "Update swap manager address"
      }
    },
    "version": 1
  },
  "storageLayout": {
    "storage": [
      {
        "astId": 13633,
        "contract": "contracts/strategies/maker/VesperMakerStrategyETH.sol:VesperMakerStrategyETH",
        "label": "receiptToken",
        "offset": 0,
        "slot": "0",
        "type": "t_address"
      },
      {
        "astId": 13640,
        "contract": "contracts/strategies/maker/VesperMakerStrategyETH.sol:VesperMakerStrategyETH",
        "label": "keepers",
        "offset": 0,
        "slot": "1",
        "type": "t_contract(IAddressList)4357"
      },
      {
        "astId": 13643,
        "contract": "contracts/strategies/maker/VesperMakerStrategyETH.sol:VesperMakerStrategyETH",
        "label": "feeCollector",
        "offset": 0,
        "slot": "2",
        "type": "t_address"
      },
      {
        "astId": 13646,
        "contract": "contracts/strategies/maker/VesperMakerStrategyETH.sol:VesperMakerStrategyETH",
        "label": "swapManager",
        "offset": 0,
        "slot": "3",
        "type": "t_contract(ISwapManager)4660"
      },
      {
        "astId": 13649,
        "contract": "contracts/strategies/maker/VesperMakerStrategyETH.sol:VesperMakerStrategyETH",
        "label": "oraclePeriod",
        "offset": 0,
        "slot": "4",
        "type": "t_uint256"
      },
      {
        "astId": 13652,
        "contract": "contracts/strategies/maker/VesperMakerStrategyETH.sol:VesperMakerStrategyETH",
        "label": "oracleRouterIdx",
        "offset": 0,
        "slot": "5",
        "type": "t_uint256"
      },
      {
        "astId": 13655,
        "contract": "contracts/strategies/maker/VesperMakerStrategyETH.sol:VesperMakerStrategyETH",
        "label": "swapSlippage",
        "offset": 0,
        "slot": "6",
        "type": "t_uint256"
      },
      {
        "astId": 32402,
        "contract": "contracts/strategies/maker/VesperMakerStrategyETH.sol:VesperMakerStrategyETH",
        "label": "highWater",
        "offset": 0,
        "slot": "7",
        "type": "t_uint256"
      },
      {
        "astId": 32404,
        "contract": "contracts/strategies/maker/VesperMakerStrategyETH.sol:VesperMakerStrategyETH",
        "label": "lowWater",
        "offset": 0,
        "slot": "8",
        "type": "t_uint256"
      }
    ],
    "types": {
      "t_address": {
        "encoding": "inplace",
        "label": "address",
        "numberOfBytes": "20"
      },
      "t_contract(IAddressList)4357": {
        "encoding": "inplace",
        "label": "contract IAddressList",
        "numberOfBytes": "20"
      },
      "t_contract(ISwapManager)4660": {
        "encoding": "inplace",
        "label": "contract ISwapManager",
        "numberOfBytes": "20"
      },
      "t_uint256": {
        "encoding": "inplace",
        "label": "uint256",
        "numberOfBytes": "32"
      }
    }
  }
}