{
  "address": "0x7977581a346d330068FD5122F56fb1b4DC4E0Ff9",
  "abi": [
    {
      "inputs": [
        {
          "internalType": "address",
          "name": "_pool",
          "type": "address"
        },
        {
          "internalType": "address",
          "name": "_swapManager",
          "type": "address"
        },
        {
          "internalType": "address",
          "name": "_comptroller",
          "type": "address"
        },
        {
          "internalType": "address",
          "name": "_rewardToken",
          "type": "address"
        },
        {
          "internalType": "address",
          "name": "_receiptToken",
          "type": "address"
        },
        {
          "internalType": "address",
          "name": "_borrowCToken",
          "type": "address"
        },
        {
          "internalType": "address",
          "name": "_vPool",
          "type": "address"
        },
        {
          "internalType": "address",
          "name": "_vsp",
          "type": "address"
        },
        {
          "internalType": "string",
          "name": "_name",
          "type": "string"
        }
      ],
      "stateMutability": "nonpayable",
      "type": "constructor"
    },
    {
      "anonymous": false,
      "inputs": [
        {
          "indexed": false,
          "internalType": "uint256",
          "name": "previousMinBorrowLimit",
          "type": "uint256"
        },
        {
          "indexed": false,
          "internalType": "uint256",
          "name": "newMinBorrowLimit",
          "type": "uint256"
        },
        {
          "indexed": false,
          "internalType": "uint256",
          "name": "previousMaxBorrowLimit",
          "type": "uint256"
        },
        {
          "indexed": false,
          "internalType": "uint256",
          "name": "newMaxBorrowLimit",
          "type": "uint256"
        }
      ],
      "name": "UpdatedBorrowLimit",
      "type": "event"
    },
    {
      "anonymous": false,
      "inputs": [
        {
          "indexed": true,
          "internalType": "address",
          "name": "previousFeeCollector",
          "type": "address"
        },
        {
          "indexed": true,
          "internalType": "address",
          "name": "newFeeCollector",
          "type": "address"
        }
      ],
      "name": "UpdatedFeeCollector",
      "type": "event"
    },
    {
      "anonymous": false,
      "inputs": [
        {
          "indexed": false,
          "internalType": "uint256",
          "name": "oldPeriod",
          "type": "uint256"
        },
        {
          "indexed": false,
          "internalType": "uint256",
          "name": "newPeriod",
          "type": "uint256"
        },
        {
          "indexed": false,
          "internalType": "uint256",
          "name": "oldRouterIdx",
          "type": "uint256"
        },
        {
          "indexed": false,
          "internalType": "uint256",
          "name": "newRouterIdx",
          "type": "uint256"
        }
      ],
      "name": "UpdatedOracleConfig",
      "type": "event"
    },
    {
      "anonymous": false,
      "inputs": [
        {
          "indexed": true,
          "internalType": "address",
          "name": "previousSwapManager",
          "type": "address"
        },
        {
          "indexed": true,
          "internalType": "address",
          "name": "newSwapManager",
          "type": "address"
        }
      ],
      "name": "UpdatedSwapManager",
      "type": "event"
    },
    {
      "anonymous": false,
      "inputs": [
        {
          "indexed": false,
          "internalType": "uint256",
          "name": "oldSwapSlippage",
          "type": "uint256"
        },
        {
          "indexed": false,
          "internalType": "uint256",
          "name": "newSwapSlippage",
          "type": "uint256"
        }
      ],
      "name": "UpdatedSwapSlippage",
      "type": "event"
    },
    {
      "inputs": [],
      "name": "NAME",
      "outputs": [
        {
          "internalType": "string",
          "name": "",
          "type": "string"
        }
      ],
      "stateMutability": "view",
      "type": "function"
    },
    {
      "inputs": [],
      "name": "VERSION",
      "outputs": [
        {
          "internalType": "string",
          "name": "",
          "type": "string"
        }
      ],
      "stateMutability": "view",
      "type": "function"
    },
    {
      "inputs": [
        {
          "internalType": "address",
          "name": "_keeperAddress",
          "type": "address"
        }
      ],
      "name": "addKeeper",
      "outputs": [],
      "stateMutability": "nonpayable",
      "type": "function"
    },
    {
      "inputs": [],
      "name": "approveToken",
      "outputs": [],
      "stateMutability": "nonpayable",
      "type": "function"
    },
    {
      "inputs": [],
      "name": "borrowBalance",
      "outputs": [
        {
          "internalType": "uint256",
          "name": "",
          "type": "uint256"
        }
      ],
      "stateMutability": "view",
      "type": "function"
    },
    {
      "inputs": [],
      "name": "borrowCToken",
      "outputs": [
        {
          "internalType": "contract CToken",
          "name": "",
          "type": "address"
        }
      ],
      "stateMutability": "view",
      "type": "function"
    },
    {
      "inputs": [],
      "name": "borrowToken",
      "outputs": [
        {
          "internalType": "address",
          "name": "",
          "type": "address"
        }
      ],
      "stateMutability": "view",
      "type": "function"
    },
    {
      "inputs": [],
      "name": "collateralToken",
      "outputs": [
        {
          "internalType": "contract IERC20",
          "name": "",
          "type": "address"
        }
      ],
      "stateMutability": "view",
      "type": "function"
    },
    {
      "inputs": [],
      "name": "comptroller",
      "outputs": [
        {
          "internalType": "contract Comptroller",
          "name": "",
          "type": "address"
        }
      ],
      "stateMutability": "view",
      "type": "function"
    },
    {
      "inputs": [],
      "name": "feeCollector",
      "outputs": [
        {
          "internalType": "address",
          "name": "",
          "type": "address"
        }
      ],
      "stateMutability": "view",
      "type": "function"
    },
    {
      "inputs": [],
      "name": "isLossMaking",
      "outputs": [
        {
          "internalType": "bool",
          "name": "",
          "type": "bool"
        }
      ],
      "stateMutability": "view",
      "type": "function"
    },
    {
      "inputs": [
        {
          "internalType": "address",
          "name": "_token",
          "type": "address"
        }
      ],
      "name": "isReservedToken",
      "outputs": [
        {
          "internalType": "bool",
          "name": "",
          "type": "bool"
        }
      ],
      "stateMutability": "view",
      "type": "function"
    },
    {
      "inputs": [],
      "name": "keepers",
      "outputs": [
        {
          "internalType": "address[]",
          "name": "",
          "type": "address[]"
        }
      ],
      "stateMutability": "view",
      "type": "function"
    },
    {
      "inputs": [],
      "name": "maxBorrowLimit",
      "outputs": [
        {
          "internalType": "uint256",
          "name": "",
          "type": "uint256"
        }
      ],
      "stateMutability": "view",
      "type": "function"
    },
    {
      "inputs": [
        {
          "internalType": "address",
          "name": "_newStrategy",
          "type": "address"
        }
      ],
      "name": "migrate",
      "outputs": [],
      "stateMutability": "nonpayable",
      "type": "function"
    },
    {
      "inputs": [],
      "name": "minBorrowLimit",
      "outputs": [
        {
          "internalType": "uint256",
          "name": "",
          "type": "uint256"
        }
      ],
      "stateMutability": "view",
      "type": "function"
    },
    {
      "inputs": [],
      "name": "oraclePeriod",
      "outputs": [
        {
          "internalType": "uint256",
          "name": "",
          "type": "uint256"
        }
      ],
      "stateMutability": "view",
      "type": "function"
    },
    {
      "inputs": [],
      "name": "oracleRouterIdx",
      "outputs": [
        {
          "internalType": "uint256",
          "name": "",
          "type": "uint256"
        }
      ],
      "stateMutability": "view",
      "type": "function"
    },
    {
      "inputs": [],
      "name": "pool",
      "outputs": [
        {
          "internalType": "address",
          "name": "",
          "type": "address"
        }
      ],
      "stateMutability": "view",
      "type": "function"
    },
    {
      "inputs": [],
      "name": "rebalance",
      "outputs": [],
      "stateMutability": "nonpayable",
      "type": "function"
    },
    {
      "inputs": [],
      "name": "receiptToken",
      "outputs": [
        {
          "internalType": "address",
          "name": "",
          "type": "address"
        }
      ],
      "stateMutability": "view",
      "type": "function"
    },
    {
      "inputs": [
        {
          "internalType": "uint256",
          "name": "_amountToRecover",
          "type": "uint256"
        }
      ],
      "name": "recoverBorrowToken",
      "outputs": [],
      "stateMutability": "nonpayable",
      "type": "function"
    },
    {
      "inputs": [
        {
          "internalType": "address",
          "name": "_keeperAddress",
          "type": "address"
        }
      ],
      "name": "removeKeeper",
      "outputs": [],
      "stateMutability": "nonpayable",
      "type": "function"
    },
    {
      "inputs": [],
      "name": "repayAll",
      "outputs": [],
      "stateMutability": "nonpayable",
      "type": "function"
    },
    {
      "inputs": [],
      "name": "rewardToken",
      "outputs": [
        {
          "internalType": "address",
          "name": "",
          "type": "address"
        }
      ],
      "stateMutability": "view",
      "type": "function"
    },
    {
      "inputs": [],
      "name": "setupOracles",
      "outputs": [],
      "stateMutability": "nonpayable",
      "type": "function"
    },
    {
      "inputs": [],
      "name": "supplyCToken",
      "outputs": [
        {
          "internalType": "contract CToken",
          "name": "",
          "type": "address"
        }
      ],
      "stateMutability": "view",
      "type": "function"
    },
    {
      "inputs": [],
      "name": "swapManager",
      "outputs": [
        {
          "internalType": "contract ISwapManager",
          "name": "",
          "type": "address"
        }
      ],
      "stateMutability": "view",
      "type": "function"
    },
    {
      "inputs": [],
      "name": "swapSlippage",
      "outputs": [
        {
          "internalType": "uint256",
          "name": "",
          "type": "uint256"
        }
      ],
      "stateMutability": "view",
      "type": "function"
    },
    {
      "inputs": [
        {
          "internalType": "address",
          "name": "_fromToken",
          "type": "address"
        }
      ],
      "name": "sweepERC20",
      "outputs": [],
      "stateMutability": "nonpayable",
      "type": "function"
    },
    {
      "inputs": [],
      "name": "token",
      "outputs": [
        {
          "internalType": "address",
          "name": "",
          "type": "address"
        }
      ],
      "stateMutability": "view",
      "type": "function"
    },
    {
      "inputs": [],
      "name": "totalValue",
      "outputs": [
        {
          "internalType": "uint256",
          "name": "_totalValue",
          "type": "uint256"
        }
      ],
      "stateMutability": "view",
      "type": "function"
    },
    {
      "inputs": [],
      "name": "totalValueCurrent",
      "outputs": [
        {
          "internalType": "uint256",
          "name": "",
          "type": "uint256"
        }
      ],
      "stateMutability": "nonpayable",
      "type": "function"
    },
    {
      "inputs": [
        {
          "internalType": "uint256",
          "name": "_minBorrowLimit",
          "type": "uint256"
        },
        {
          "internalType": "uint256",
          "name": "_maxBorrowLimit",
          "type": "uint256"
        }
      ],
      "name": "updateBorrowLimit",
      "outputs": [],
      "stateMutability": "nonpayable",
      "type": "function"
    },
    {
      "inputs": [
        {
          "internalType": "address",
          "name": "_feeCollector",
          "type": "address"
        }
      ],
      "name": "updateFeeCollector",
      "outputs": [],
      "stateMutability": "nonpayable",
      "type": "function"
    },
    {
      "inputs": [
        {
          "internalType": "uint256",
          "name": "_newPeriod",
          "type": "uint256"
        },
        {
          "internalType": "uint256",
          "name": "_newRouterIdx",
          "type": "uint256"
        }
      ],
      "name": "updateOracleConfig",
      "outputs": [],
      "stateMutability": "nonpayable",
      "type": "function"
    },
    {
      "inputs": [
        {
          "internalType": "address",
          "name": "_swapManager",
          "type": "address"
        }
      ],
      "name": "updateSwapManager",
      "outputs": [],
      "stateMutability": "nonpayable",
      "type": "function"
    },
    {
      "inputs": [
        {
          "internalType": "uint256",
          "name": "_newSwapSlippage",
          "type": "uint256"
        }
      ],
      "name": "updateSwapSlippage",
      "outputs": [],
      "stateMutability": "nonpayable",
      "type": "function"
    },
    {
      "inputs": [],
      "name": "vPool",
      "outputs": [
        {
          "internalType": "contract IVesperPool",
          "name": "",
          "type": "address"
        }
      ],
      "stateMutability": "view",
      "type": "function"
    },
    {
      "inputs": [],
      "name": "vsp",
      "outputs": [
        {
          "internalType": "address",
          "name": "",
          "type": "address"
        }
      ],
      "stateMutability": "view",
      "type": "function"
    },
    {
      "inputs": [
        {
          "internalType": "uint256",
          "name": "_amount",
          "type": "uint256"
        }
      ],
      "name": "withdraw",
      "outputs": [],
      "stateMutability": "nonpayable",
      "type": "function"
    },
    {
      "stateMutability": "payable",
      "type": "receive"
    }
  ],
  "transactionHash": "0xe29fb463009ae3a5edbea189f1e1b57574632cac995f59020d3a3e699440e5eb",
  "args": [
    "0xd1C117319B3595fbc39b471AB1fd485629eb05F2",
    "0xe382d9f2394A359B01006faa8A1864b8a60d2710",
    "0x3d9819210A31b4961b30EF54bE2aeD79B9c9Cd3B",
    "0xc00e94Cb662C3520282E6f5717214004A7f26888",
    "0x4Ddc2D193948926D02f9B1fE9e1daa0718270ED5",
    "0xFAce851a4921ce59e912d19329929CE6da6EB0c7",
    "0xef4F4604106de23CDadfEAE08fcC34602cB475C1",
    "0x1b40183EFB4Dd766f11bDa7A7c3AD8982e998421",
    "VesperCompoundXYStrategyETH_LINK"
  ],
  "numDeployments": 1,
  "solcInputHash": "0c127abe11d6bc13fb99083a5f2331b8",
  "bytecode": "0x610160604052600080546001600160a01b03191673c02aaa39b223fe8d0a0e5c4f27ead9083c756cc2178155610e10600455600555612710600655611b58600a55612134600b553480156200005357600080fd5b5060405162006a6c38038062006a6c8339810160408190526200007691620008f3565b888888888888868686868585858585846001600160a01b038316620000e25760405162461bcd60e51b815260206004820152601460248201527f706f6f6c2d616464726573732d69732d7a65726f00000000000000000000000060448201526064015b60405180910390fd5b6001600160a01b0382166200012f5760405162461bcd60e51b8152602060048201526012602482015271736d2d616464726573732d69732d7a65726f60701b6044820152606401620000d9565b600380546001600160a01b0319166001600160a01b0384811691909117909155831660a081905260408051637e062a3560e11b8152905163fc0c546a91600480820192602092909190829003018186803b1580156200018d57600080fd5b505afa158015620001a2573d6000803e3d6000fd5b505050506040513d601f19601f82011682018060405250810190620001c89190620009e1565b6001600160a01b03908116608052600180546001600160a01b0319169183169190911790556200020f620001f93390565b60076200063660201b620021d01790919060201c565b620002515760405162461bcd60e51b81526020600482015260116024820152701859190b5ad9595c195c8b59985a5b1959607a1b6044820152606401620000d9565b5050506001600160a01b038316620002ac5760405162461bcd60e51b815260206004820152601660248201527f63546f6b656e2d616464726573732d69732d7a65726f000000000000000000006044820152606401620000d9565b6001600160a01b038416620003045760405162461bcd60e51b815260206004820152601b60248201527f636f6d7074726f6c6c65722d616464726573732d69732d7a65726f00000000006044820152606401620000d9565b80516200031990600990602084019062000756565b50600d80546001600160a01b0319166001600160a01b038681169190911790915583811660c052821660e052620003508262000656565b600c80546001600160a01b0319166001600160a01b03929092169190911790556040805160028082526060820183526000926020830190803683370190505090508381600081518110620003a857620003a862000a08565b60200260200101906001600160a01b031690816001600160a01b0316815250508281600181518110620003df57620003df62000a08565b6001600160a01b039283166020918202929092010152600d54604051631853304760e31b815291169063c2998238906200041e90849060040162000a1e565b600060405180830381600087803b1580156200043957600080fd5b505af11580156200044e573d6000803e3d6000fd5b505050506040513d6000823e601f3d908101601f1916820160405262000478919081019062000a6d565b50505050506001600160a01b03871615159250620004dc9150505760405162461bcd60e51b815260206004820152601b60248201527f726577617264546f6b656e2d616464726573732d69732d7a65726f00000000006044820152606401620000d9565b5050506001600160a01b0390811661010052851615159250620005459150505760405162461bcd60e51b815260206004820152601360248201527f7673702d616464726573732d69732d7a65726f000000000000000000000000006044820152606401620000d9565b600c5460408051637e062a3560e11b815290516001600160a01b039283169286169163fc0c546a916004808301926020929190829003018186803b1580156200058d57600080fd5b505afa158015620005a2573d6000803e3d6000fd5b505050506040513d601f19601f82011682018060405250810190620005c89190620009e1565b6001600160a01b031614620006145760405162461bcd60e51b81526020600482015260116024820152701a5b9d985b1a590b59dc9bddcb5c1bdbdb607a1b6044820152606401620000d9565b506001600160a01b039182166101205216610140525062000b5a945050505050565b60006200064d836001600160a01b03841662000704565b90505b92915050565b60006001600160a01b038216734ddc2d193948926d02f9b1fe9e1daa0718270ed514156200068f5750506000546001600160a01b031690565b816001600160a01b0316636f307dc36040518163ffffffff1660e01b815260040160206040518083038186803b158015620006c957600080fd5b505afa158015620006de573d6000803e3d6000fd5b505050506040513d601f19601f82011682018060405250810190620006509190620009e1565b60008181526001830160205260408120546200074d5750815460018181018455600084815260208082209093018490558454848252828601909352604090209190915562000650565b50600062000650565b828054620007649062000b1d565b90600052602060002090601f016020900481019282620007885760008555620007d3565b82601f10620007a357805160ff1916838001178555620007d3565b82800160010185558215620007d3579182015b82811115620007d3578251825591602001919060010190620007b6565b50620007e1929150620007e5565b5090565b5b80821115620007e15760008155600101620007e6565b6001600160a01b03811681146200081257600080fd5b50565b634e487b7160e01b600052604160045260246000fd5b604051601f8201601f191681016001600160401b038111828210171562000856576200085662000815565b604052919050565b600082601f8301126200087057600080fd5b81516001600160401b038111156200088c576200088c62000815565b6020620008a2601f8301601f191682016200082b565b8281528582848701011115620008b757600080fd5b60005b83811015620008d7578581018301518282018401528201620008ba565b83811115620008e95760008385840101525b5095945050505050565b60008060008060008060008060006101208a8c0312156200091357600080fd5b89516200092081620007fc565b60208b01519099506200093381620007fc565b60408b01519098506200094681620007fc565b60608b01519097506200095981620007fc565b60808b01519096506200096c81620007fc565b60a08b01519095506200097f81620007fc565b60c08b01519094506200099281620007fc565b60e08b0151909350620009a581620007fc565b6101008b01519092506001600160401b03811115620009c357600080fd5b620009d18c828d016200085e565b9150509295985092959850929598565b600060208284031215620009f457600080fd5b815162000a0181620007fc565b9392505050565b634e487b7160e01b600052603260045260246000fd5b6020808252825182820181905260009190848201906040850190845b8181101562000a615783516001600160a01b03168352928401929184019160010162000a3a565b50909695505050505050565b6000602080838503121562000a8157600080fd5b82516001600160401b038082111562000a9957600080fd5b818501915085601f83011262000aae57600080fd5b81518181111562000ac35762000ac362000815565b8060051b915062000ad68483016200082b565b818152918301840191848101908884111562000af157600080fd5b938501935b8385101562000b115784518252938501939085019062000af6565b98975050505050505050565b600181811c9082168062000b3257607f821691505b6020821081141562000b5457634e487b7160e01b600052602260045260246000fd5b50919050565b60805160a05160c05160e051610100516101205161014051615c4f62000e1d6000396000818161031f01528181611c4e01528181613669015281816136fc01526153e601526000818161046d01528181610a5701528181611ad70152818161220e015281816122aa01528181612ad801528181613552015281816150b7015281816151a30152818161524101526153680152600081816107170152818161241701528181612e7b01528181614ff80152818161508b015261543a015260008181610439015281816112ec01528181611f71015281816125f901528181612cd6015281816130ad01528181613b8801528181613e87015281816140bf0152818161433001528181614a0801528181614c9e01528181614d210152614f3d0152600081816106e30152818161276401528181612bd601528181613351015281816134bb01528181613c4101528181613cd101528181613de701528181613fe2015281816142f9015281816148b70152818161495d01528181614e030152614ee90152600081816102b3015281816107bf015281816108ea0152818161093a01528181610a9301528181610c4601528181610dfa01528181610e7d01528181610fe8015281816114c501528181611606015281816116a3015281816119000152818161200d015281816123dc0152818161247a0152818161251a01526142a5015260008181610599015281816113c00152818161146f01528181611496015281816114e701528181611833015281816118d701528181611c7001528181611d7f015281816125bb015281816126d90152818161288a0152818161294e01528181612a1401528181612e9d0152818161306f015281816132c60152818161341f015281816134f601528181613756015281816137ff01528181613ae301528181614283015281816142d70152818161447b01528181614ac80152614b830152615c4f6000f3fe60806040526004361061024a5760003560e01c806399b71d5c11610139578063d4c3eea0116100b6578063efead58c1161007a578063efead58c146106d1578063f7c618c114610705578063fa3ae6dc14610739578063fb7ee1021461074e578063fc0c546a1461076e578063ffa1ad741461078c57600080fd5b8063d4c3eea014610651578063e00af4a714610666578063e260d74714610686578063e645c2021461069c578063ec78e832146106b157600080fd5b8063c415b95c116100fd578063c415b95c146105bb578063c7ad2748146105db578063cd2d7ebe146105fb578063ce5494bb14610611578063d2c35ce81461063157600080fd5b806399b71d5c1461051b578063a3f4df7e14610530578063a923b2a614610552578063aa10188614610572578063b2016bd41461058757600080fd5b8063456dc17a116101c757806367f5e4b81161018b57806367f5e4b81461048f578063709d039d146104af5780637d7c2a1c146104cf57806392986024146104e4578063951dc22c146104f957600080fd5b8063456dc17a146103c75780634c36fad7146103e75780635fe3b56714610407578063620a96d5146104275780636719578c1461045b57600080fd5b806329ba73ed1161020e57806329ba73ed1461030d5780632e1a7d4d146103415780634032b72b1461036157806342189c8f14610381578063440d72481461039757600080fd5b80630181686c1461025657806314ae9f2e1461027f57806316f0115b146102a15780631aedeabe146102e2578063243cd14e146102f857600080fd5b3661025157005b600080fd5b34801561026257600080fd5b5061026c600b5481565b6040519081526020015b60405180910390f35b34801561028b57600080fd5b5061029f61029a3660046155d7565b6107bd565b005b3480156102ad57600080fd5b506102d57f000000000000000000000000000000000000000000000000000000000000000081565b60405161027691906155f4565b3480156102ee57600080fd5b5061026c60065481565b34801561030457600080fd5b5061026c6108d8565b34801561031957600080fd5b506102d57f000000000000000000000000000000000000000000000000000000000000000081565b34801561034d57600080fd5b5061029f61035c366004615608565b6108e7565b34801561036d57600080fd5b5061029f61037c3660046155d7565b610938565b34801561038d57600080fd5b5061026c60045481565b3480156103a357600080fd5b506103b76103b23660046155d7565b610a44565b6040519015158152602001610276565b3480156103d357600080fd5b50600c546102d5906001600160a01b031681565b3480156103f357600080fd5b5061029f6104023660046155d7565b610a91565b34801561041357600080fd5b50600d546102d5906001600160a01b031681565b34801561043357600080fd5b506102d57f000000000000000000000000000000000000000000000000000000000000000081565b34801561046757600080fd5b506102d57f000000000000000000000000000000000000000000000000000000000000000081565b34801561049b57600080fd5b5061029f6104aa366004615608565b610c44565b3480156104bb57600080fd5b506003546102d5906001600160a01b031681565b3480156104db57600080fd5b5061029f610d90565b3480156104f057600080fd5b506103b7610e63565b34801561050557600080fd5b5061050e610f10565b6040516102769190615665565b34801561052757600080fd5b5061029f610f1c565b34801561053c57600080fd5b50610545610f58565b60405161027691906156a4565b34801561055e57600080fd5b5061029f61056d3660046156d7565b610fe6565b34801561057e57600080fd5b5061029f61121b565b34801561059357600080fd5b506102d57f000000000000000000000000000000000000000000000000000000000000000081565b3480156105c757600080fd5b506002546102d5906001600160a01b031681565b3480156105e757600080fd5b5061029f6105f6366004615608565b611240565b34801561060757600080fd5b5061026c60055481565b34801561061d57600080fd5b5061029f61062c3660046155d7565b611603565b34801561063d57600080fd5b5061029f61064c3660046155d7565b6118fe565b34801561065d57600080fd5b5061026c611ac7565b34801561067257600080fd5b5061029f6106813660046155d7565b611d08565b34801561069257600080fd5b5061026c600a5481565b3480156106a857600080fd5b5061026c611f27565b3480156106bd57600080fd5b506001546102d5906001600160a01b031681565b3480156106dd57600080fd5b506102d57f000000000000000000000000000000000000000000000000000000000000000081565b34801561071157600080fd5b506102d57f000000000000000000000000000000000000000000000000000000000000000081565b34801561074557600080fd5b5061029f611f31565b34801561075a57600080fd5b5061029f6107693660046156d7565b61200b565b34801561077a57600080fd5b506001546001600160a01b03166102d5565b34801561079857600080fd5b50610545604051806040016040528060058152602001640342e302e360dc1b81525081565b7f00000000000000000000000000000000000000000000000000000000000000006001600160a01b0316630c340a246040518163ffffffff1660e01b815260040160206040518083038186803b15801561081657600080fd5b505afa15801561082a573d6000803e3d6000fd5b505050506040513d601f19601f8201168201806040525081019061084e91906156f9565b6001600160a01b0316336001600160a01b0316146108875760405162461bcd60e51b815260040161087e90615716565b60405180910390fd5b6108926007826121ec565b6108d55760405162461bcd60e51b81526020600482015260146024820152731c995b5bdd994b5ad9595c195c8b59985a5b195960621b604482015260640161087e565b50565b60006108e2612201565b905090565b337f00000000000000000000000000000000000000000000000000000000000000006001600160a01b03161461092f5760405162461bcd60e51b815260040161087e9061574d565b6108d5816123d7565b7f00000000000000000000000000000000000000000000000000000000000000006001600160a01b0316630c340a246040518163ffffffff1660e01b815260040160206040518083038186803b15801561099157600080fd5b505afa1580156109a5573d6000803e3d6000fd5b505050506040513d601f19601f820116820180604052508101906109c991906156f9565b6001600160a01b0316336001600160a01b0316146109f95760405162461bcd60e51b815260040161087e90615716565b610a046007826121d0565b6108d55760405162461bcd60e51b81526020600482015260116024820152701859190b5ad9595c195c8b59985a5b1959607a1b604482015260640161087e565b6000610a4f82612404565b80610a8b57507f00000000000000000000000000000000000000000000000000000000000000006001600160a01b0316826001600160a01b0316145b92915050565b7f00000000000000000000000000000000000000000000000000000000000000006001600160a01b0316630c340a246040518163ffffffff1660e01b815260040160206040518083038186803b158015610aea57600080fd5b505afa158015610afe573d6000803e3d6000fd5b505050506040513d601f19601f82011682018060405250810190610b2291906156f9565b6001600160a01b0316336001600160a01b031614610b525760405162461bcd60e51b815260040161087e90615716565b6001600160a01b038116610b9d5760405162461bcd60e51b8152602060048201526012602482015271736d2d616464726573732d69732d7a65726f60701b604482015260640161087e565b6003546001600160a01b0382811691161415610be85760405162461bcd60e51b815260206004820152600a602482015269736d2d69732d73616d6560b01b604482015260640161087e565b6003546040516001600160a01b038084169216907f2d19927e7cac08ceb98b38898a4fdff6da6a27295b9a2d62fe250408ebe044e190600090a3600380546001600160a01b0319166001600160a01b0392909216919091179055565b7f00000000000000000000000000000000000000000000000000000000000000006001600160a01b0316630c340a246040518163ffffffff1660e01b815260040160206040518083038186803b158015610c9d57600080fd5b505afa158015610cb1573d6000803e3d6000fd5b505050506040513d601f19601f82011682018060405250810190610cd591906156f9565b6001600160a01b0316336001600160a01b031614610d055760405162461bcd60e51b815260040161087e90615716565b612710811115610d505760405162461bcd60e51b8152602060048201526016602482015275696e76616c69642d736c6970706167652d76616c756560501b604482015260640161087e565b60065460408051918252602082018390527ef1c5db862c7598b3b6765552ca951f498611e06412c2d57f8d0b58f82e7f82910160405180910390a1600655565b610d9d335b600790612450565b610db95760405162461bcd60e51b815260040161087e90615780565b6000806000610dc6612472565b6040516302df682360e11b815260048101849052602481018390526044810182905292955090935091506001600160a01b037f000000000000000000000000000000000000000000000000000000000000000016906305bed04690606401600060405180830381600087803b158015610e3e57600080fd5b505af1158015610e52573d6000803e3d6000fd5b50505050610e5e612934565b505050565b604051639f2b283360e01b81526000906001600160a01b037f00000000000000000000000000000000000000000000000000000000000000001690639f2b283390610eb29030906004016155f4565b60206040518083038186803b158015610eca57600080fd5b505afa158015610ede573d6000803e3d6000fd5b505050506040513d601f19601f82011682018060405250810190610f0291906157b0565b610f0a611ac7565b10905090565b60606108e26007612ab0565b610f2533610d95565b610f415760405162461bcd60e51b815260040161087e90615780565b610f4b6000612abd565b610f56600019612abd565b565b60098054610f65906157c9565b80601f0160208091040260200160405190810160405280929190818152602001828054610f91906157c9565b8015610fde5780601f10610fb357610100808354040283529160200191610fde565b820191906000526020600020905b815481529060010190602001808311610fc157829003601f168201915b505050505081565b7f00000000000000000000000000000000000000000000000000000000000000006001600160a01b0316630c340a246040518163ffffffff1660e01b815260040160206040518083038186803b15801561103f57600080fd5b505afa158015611053573d6000803e3d6000fd5b505050506040513d601f19601f8201168201806040525081019061107791906156f9565b6001600160a01b0316336001600160a01b0316146110a75760405162461bcd60e51b815260040161087e90615716565b600360009054906101000a90046001600160a01b03166001600160a01b031663c2fba6676040518163ffffffff1660e01b815260040160206040518083038186803b1580156110f557600080fd5b505afa158015611109573d6000803e3d6000fd5b505050506040513d601f19601f8201168201806040525081019061112d91906157b0565b81106111725760405162461bcd60e51b81526020600482015260146024820152730d2dcecc2d8d2c85ae4deeae8cae45ad2dcc8caf60631b604482015260640161087e565b8161117d5760045491505b603b82116111c55760405162461bcd60e51b81526020600482015260156024820152741a5b9d985b1a590b5bdc9858db194b5c195c9a5bd9605a1b604482015260640161087e565b6004546005546040805192835260208301859052820152606081018290527f83bc5ab8030537fcf1d29c2334f6d22c26c82dcbe5ff03923d2cff5c692c0a7f9060800160405180910390a1600491909155600555565b61122433610d95565b610f565760405162461bcd60e51b815260040161087e90615780565b61124933610d95565b6112655760405162461bcd60e51b815260040161087e90615780565b600c546040516370a0823160e01b81526000916001600160a01b0316906370a08231906112969030906004016155f4565b60206040518083038186803b1580156112ae57600080fd5b505afa1580156112c2573d6000803e3d6000fd5b505050506040513d601f19601f820116820180604052508101906112e691906157b0565b905060007f00000000000000000000000000000000000000000000000000000000000000006001600160a01b03166395dd9193306040518263ffffffff1660e01b815260040161133691906155f4565b60206040518083038186803b15801561134e57600080fd5b505afa158015611362573d6000803e3d6000fd5b505050506040513d601f19601f8201168201806040525081019061138691906157b0565b905080821115610e5e57600061139c828461581a565b9050600080851180156113ae57508482115b6113b857816113ba565b845b905060007f00000000000000000000000000000000000000000000000000000000000000006001600160a01b03166370a08231306040518263ffffffff1660e01b815260040161140a91906155f4565b60206040518083038186803b15801561142257600080fd5b505afa158015611436573d6000803e3d6000fd5b505050506040513d601f19601f8201168201806040525081019061145a91906157b0565b600c54909150611494906001600160a01b03167f000000000000000000000000000000000000000000000000000000000000000084612afd565b7f00000000000000000000000000000000000000000000000000000000000000006001600160a01b031663a9059cbb7f0000000000000000000000000000000000000000000000000000000000000000837f00000000000000000000000000000000000000000000000000000000000000006001600160a01b03166370a08231306040518263ffffffff1660e01b815260040161153191906155f4565b60206040518083038186803b15801561154957600080fd5b505afa15801561155d573d6000803e3d6000fd5b505050506040513d601f19601f8201168201806040525081019061158191906157b0565b61158b919061581a565b6040518363ffffffff1660e01b81526004016115a8929190615831565b602060405180830381600087803b1580156115c257600080fd5b505af11580156115d6573d6000803e3d6000fd5b505050506040513d601f19601f820116820180604052508101906115fa919061585f565b50505050505050565b337f00000000000000000000000000000000000000000000000000000000000000006001600160a01b03161461164b5760405162461bcd60e51b815260040161087e9061574d565b6001600160a01b0381166116a15760405162461bcd60e51b815260206004820152601c60248201527f6e65772d73747261746567792d616464726573732d69732d7a65726f00000000604482015260640161087e565b7f00000000000000000000000000000000000000000000000000000000000000006001600160a01b0316816001600160a01b03166316f0115b6040518163ffffffff1660e01b815260040160206040518083038186803b15801561170457600080fd5b505afa158015611718573d6000803e3d6000fd5b505050506040513d601f19601f8201168201806040525081019061173c91906156f9565b6001600160a01b03161461178b5760405162461bcd60e51b81526020600482015260166024820152756e6f742d76616c69642d6e65772d737472617465677960501b604482015260640161087e565b61179481612bd4565b6001546040516370a0823160e01b815261182d9183916001600160a01b03909116906370a08231906117ca9030906004016155f4565b60206040518083038186803b1580156117e257600080fd5b505afa1580156117f6573d6000803e3d6000fd5b505050506040513d601f19601f8201168201806040525081019061181a91906157b0565b6001546001600160a01b03169190612d64565b6108d5817f00000000000000000000000000000000000000000000000000000000000000006001600160a01b03166370a08231306040518263ffffffff1660e01b815260040161187d91906155f4565b60206040518083038186803b15801561189557600080fd5b505afa1580156118a9573d6000803e3d6000fd5b505050506040513d601f19601f820116820180604052508101906118cd91906157b0565b6001600160a01b037f0000000000000000000000000000000000000000000000000000000000000000169190612d64565b7f00000000000000000000000000000000000000000000000000000000000000006001600160a01b0316630c340a246040518163ffffffff1660e01b815260040160206040518083038186803b15801561195757600080fd5b505afa15801561196b573d6000803e3d6000fd5b505050506040513d601f19601f8201168201806040525081019061198f91906156f9565b6001600160a01b0316336001600160a01b0316146119bf5760405162461bcd60e51b815260040161087e90615716565b6001600160a01b038116611a155760405162461bcd60e51b815260206004820152601d60248201527f6665652d636f6c6c6563746f722d616464726573732d69732d7a65726f000000604482015260640161087e565b6002546001600160a01b0382811691161415611a6b5760405162461bcd60e51b81526020600482015260156024820152746665652d636f6c6c6563746f722d69732d73616d6560581b604482015260640161087e565b6002546040516001600160a01b038084169216907f0f06062680f9bd68e786e9980d9bb03d73d5620fc3b345e417b6eacb310b970690600090a3600280546001600160a01b0319166001600160a01b0392909216919091179055565b6000611ad1612dba565b905060007f00000000000000000000000000000000000000000000000000000000000000006001600160a01b0316638bc6beb26040518163ffffffff1660e01b815260040160206040518083038186803b158015611b2e57600080fd5b505afa158015611b42573d6000803e3d6000fd5b505050506040513d601f19601f82011682018060405250810190611b6691906156f9565b90506001600160a01b03811615611d045760405163402914f560e01b81526000906001600160a01b0383169063402914f590611ba69030906004016155f4565b60006040518083038186803b158015611bbe57600080fd5b505afa158015611bd2573d6000803e3d6000fd5b505050506040513d6000823e601f3d908101601f19168201604052611bfa91908101906159b4565b915050600081600081518110611c1257611c12615a18565b602002602001015190506000811115611d0157600354604051631d1f307960e31b81526000916001600160a01b03169063e8f983c890611c9a907f0000000000000000000000000000000000000000000000000000000000000000907f0000000000000000000000000000000000000000000000000000000000000000908790600401615a2e565b60006040518083038186803b158015611cb257600080fd5b505afa158015611cc6573d6000803e3d6000fd5b505050506040513d6000823e601f3d908101601f19168201604052611cee9190810190615a52565b509150611cfd90508186615aa2565b9450505b50505b5090565b611d1133610d95565b611d2d5760405162461bcd60e51b815260040161087e90615780565b6002546001600160a01b0316611d7d5760405162461bcd60e51b81526020600482015260156024820152741999594b58dbdb1b1958dd1bdc8b5b9bdd0b5cd95d605a1b604482015260640161087e565b7f00000000000000000000000000000000000000000000000000000000000000006001600160a01b0316816001600160a01b03161415611dff5760405162461bcd60e51b815260206004820152601f60248201527f6e6f742d616c6c6f7765642d746f2d73776565702d636f6c6c61746572616c00604482015260640161087e565b611e0881610a44565b15611e4c5760405162461bcd60e51b815260206004820152601460248201527306e6f742d616c6c6f7765642d746f2d73776565760641b604482015260640161087e565b6001600160a01b03811673eeeeeeeeeeeeeeeeeeeeeeeeeeeeeeeeeeeeeeee1415611e87576002546108d5906001600160a01b031647612f31565b6040516370a0823160e01b81526000906001600160a01b038316906370a0823190611eb69030906004016155f4565b60206040518083038186803b158015611ece57600080fd5b505afa158015611ee2573d6000803e3d6000fd5b505050506040513d601f19601f82011682018060405250810190611f0691906157b0565b600254909150611f23906001600160a01b03848116911683612d64565b5050565b60006108e2611ac7565b611f3a33610d95565b611f565760405162461bcd60e51b815260040161087e90615780565b6040516305eff7ef60e21b8152611fff906001600160a01b037f000000000000000000000000000000000000000000000000000000000000000016906317bfdfbc90611fa69030906004016155f4565b602060405180830381600087803b158015611fc057600080fd5b505af1158015611fd4573d6000803e3d6000fd5b505050506040513d601f19601f82011682018060405250810190611ff891906157b0565b600161304a565b6000600a819055600b55565b7f00000000000000000000000000000000000000000000000000000000000000006001600160a01b0316630c340a246040518163ffffffff1660e01b815260040160206040518083038186803b15801561206457600080fd5b505afa158015612078573d6000803e3d6000fd5b505050506040513d601f19601f8201168201806040525081019061209c91906156f9565b6001600160a01b0316336001600160a01b0316146120cc5760405162461bcd60e51b815260040161087e90615716565b61271081106121185760405162461bcd60e51b81526020600482015260186024820152771a5b9d985b1a590b5b585e0b589bdc9c9bddcb5b1a5b5a5d60421b604482015260640161087e565b80158015612124575081155b8061212e57508181115b61217a5760405162461bcd60e51b815260206004820152601d60248201527f6d61782d73686f756c642d62652d6869676865722d7468616e2d6d696e000000604482015260640161087e565b600a54600b546040805192835260208301859052820152606081018290527fedd77444afdf63401315e81ffe86d08f7865796e8ad2e11acf1d56a1393f07d59060800160405180910390a1600a91909155600b55565b60006121e5836001600160a01b03841661314e565b9392505050565b60006121e5836001600160a01b03841661319d565b6000670de0b6b3a76400007f00000000000000000000000000000000000000000000000000000000000000006001600160a01b03166370a08231306040518263ffffffff1660e01b815260040161225891906155f4565b60206040518083038186803b15801561227057600080fd5b505afa158015612284573d6000803e3d6000fd5b505050506040513d601f19601f820116820180604052508101906122a891906157b0565b7f00000000000000000000000000000000000000000000000000000000000000006001600160a01b03166399530b066040518163ffffffff1660e01b815260040160206040518083038186803b15801561230157600080fd5b505afa158015612315573d6000803e3d6000fd5b505050506040513d601f19601f8201168201806040525081019061233991906157b0565b6123439190615aba565b61234d9190615ad9565b600c546040516370a0823160e01b81526001600160a01b03909116906370a082319061237d9030906004016155f4565b60206040518083038186803b15801561239557600080fd5b505afa1580156123a9573d6000803e3d6000fd5b505050506040513d601f19601f820116820180604052508101906123cd91906157b0565b6108e29190615aa2565b6108d57f00000000000000000000000000000000000000000000000000000000000000006118cd83613290565b600061240f826134b7565b80610a8b57507f00000000000000000000000000000000000000000000000000000000000000006001600160a01b0316826001600160a01b03161492915050565b6001600160a01b038116600090815260018301602052604081205415156121e5565b6000806000807f00000000000000000000000000000000000000000000000000000000000000006001600160a01b031663d53ddc26306040518263ffffffff1660e01b81526004016124c491906155f4565b60206040518083038186803b1580156124dc57600080fd5b505afa1580156124f0573d6000803e3d6000fd5b505050506040513d601f19601f8201168201806040525081019061251491906157b0565b905060007f00000000000000000000000000000000000000000000000000000000000000006001600160a01b0316639f2b2833306040518263ffffffff1660e01b815260040161256491906155f4565b60206040518083038186803b15801561257c57600080fd5b505afa158015612590573d6000803e3d6000fd5b505050506040513d601f19601f820116820180604052508101906125b491906157b0565b90506125df7f0000000000000000000000000000000000000000000000000000000000000000613545565b6040516305eff7ef60e21b81526000906001600160a01b037f000000000000000000000000000000000000000000000000000000000000000016906317bfdfbc9061262e9030906004016155f4565b602060405180830381600087803b15801561264857600080fd5b505af115801561265c573d6000803e3d6000fd5b505050506040513d601f19601f8201168201806040525081019061268091906157b0565b9050600061268c612201565b9050808211156126ad576126a86126a3828461581a565b613724565b6126bf565b6126bf6126ba838361581a565b6139a8565b6040516370a0823160e01b81526000906001600160a01b037f000000000000000000000000000000000000000000000000000000000000000016906370a082319061270e9030906004016155f4565b60206040518083038186803b15801561272657600080fd5b505afa15801561273a573d6000803e3d6000fd5b505050506040513d601f19601f8201168201806040525081019061275e91906157b0565b905060007f00000000000000000000000000000000000000000000000000000000000000006001600160a01b0316633af9e669306040518263ffffffff1660e01b81526004016127ae91906155f4565b602060405180830381600087803b1580156127c857600080fd5b505af11580156127dc573d6000803e3d6000fd5b505050506040513d601f19601f8201168201806040525081019061280091906157b0565b9050600061280e8383615aa2565b90508581111561282957612822868261581a565b9950612836565b612833818761581a565b98505b6000612842888c615aa2565b90508084101561291457600061286161285b868461581a565b85613b0a565b905080156129125761287281613290565b506040516370a0823160e01b81526001600160a01b037f000000000000000000000000000000000000000000000000000000000000000016906370a08231906128bf9030906004016155f4565b60206040518083038186803b1580156128d757600080fd5b505afa1580156128eb573d6000803e3d6000fd5b505050506040513d601f19601f8201168201806040525081019061290f91906157b0565b94505b505b8715612927576129248489613b0a565b98505b5050505050505050909192565b6040516370a0823160e01b81526000906001600160a01b037f000000000000000000000000000000000000000000000000000000000000000016906370a08231906129839030906004016155f4565b60206040518083038186803b15801561299b57600080fd5b505afa1580156129af573d6000803e3d6000fd5b505050506040513d601f19601f820116820180604052508101906129d391906157b0565b90506000806129e3836000613b20565b90925090508015612a9e576129f981600061304a565b6040516370a0823160e01b8152610e5e906001600160a01b037f000000000000000000000000000000000000000000000000000000000000000016906370a0823190612a499030906004016155f4565b60206040518083038186803b158015612a6157600080fd5b505afa158015612a75573d6000803e3d6000fd5b505050506040513d601f19601f82011682018060405250810190612a9991906157b0565b613fc6565b612aa783613fc6565b610e5e826140a3565b606060006121e58361421a565b612ac681614276565b600c546108d5906001600160a01b03167f0000000000000000000000000000000000000000000000000000000000000000836144cc565b60006006546127101415612b12576001612bc0565b6040516358fac00360e01b81526001600160a01b0380861660048301526024820184905284166044820152610e106064820152612bc090730f1f5a87f99f0918e6c81f16e59f3518698221ff906358fac0039060840160206040518083038186803b158015612b8057600080fd5b505afa158015612b94573d6000803e3d6000fd5b505050506040513d601f19601f82011682018060405250810190612bb891906157b0565b6006546145df565b9050612bce84848484614602565b50505050565b7f00000000000000000000000000000000000000000000000000000000000000006001600160a01b0316816001600160a01b031663fc0c546a6040518163ffffffff1660e01b815260040160206040518083038186803b158015612c3757600080fd5b505afa158015612c4b573d6000803e3d6000fd5b505050506040513d601f19601f82011682018060405250810190612c6f91906156f9565b6001600160a01b031614612cbb5760405162461bcd60e51b81526020600482015260136024820152723bb937b73396b932b1b2b4b83a16ba37b5b2b760691b604482015260640161087e565b6040516305eff7ef60e21b81526108d5906001600160a01b037f000000000000000000000000000000000000000000000000000000000000000016906317bfdfbc90612d0b9030906004016155f4565b602060405180830381600087803b158015612d2557600080fd5b505af1158015612d39573d6000803e3d6000fd5b505050506040513d601f19601f82011682018060405250810190612d5d91906157b0565b600061304a565b610e5e8363a9059cbb60e01b8484604051602401612d83929190615831565b60408051601f198184030181529190526020810180516001600160e01b03166001600160e01b0319909316929092179091526147d7565b6000612dc46148a9565b600d5460405163331faf7160e21b81529192506000916001600160a01b039091169063cc7ebdc490612dfa9030906004016155f4565b60206040518083038186803b158015612e1257600080fd5b505afa158015612e26573d6000803e3d6000fd5b505050506040513d601f19601f82011682018060405250810190612e4a91906157b0565b90508015611d0457600354604051631d1f307960e31b81526000916001600160a01b03169063e8f983c890612ec7907f0000000000000000000000000000000000000000000000000000000000000000907f0000000000000000000000000000000000000000000000000000000000000000908790600401615a2e565b60006040518083038186803b158015612edf57600080fd5b505afa158015612ef3573d6000803e3d6000fd5b505050506040513d6000823e601f3d908101601f19168201604052612f1b9190810190615a52565b509150612f2a90508184615aa2565b9250505090565b80471015612f815760405162461bcd60e51b815260206004820152601d60248201527f416464726573733a20696e73756666696369656e742062616c616e6365000000604482015260640161087e565b6000826001600160a01b03168260405160006040518083038185875af1925050503d8060008114612fce576040519150601f19603f3d011682016040523d82523d6000602084013e612fd3565b606091505b5050905080610e5e5760405162461bcd60e51b815260206004820152603a60248201527f416464726573733a20756e61626c6520746f2073656e642076616c75652c207260448201527f6563697069656e74206d61792068617665207265766572746564000000000000606482015260840161087e565b8115611f2357600061305a612201565b905080831115613145578115613093576130937f0000000000000000000000000000000000000000000000000000000000000000613545565b6040516305eff7ef60e21b81526000906001600160a01b037f000000000000000000000000000000000000000000000000000000000000000016906317bfdfbc906130e29030906004016155f4565b602060405180830381600087803b1580156130fc57600080fd5b505af1158015613110573d6000803e3d6000fd5b505050506040513d601f19601f8201168201806040525081019061313491906157b0565b90506131436126a3838361581a565b505b610e5e83614c1c565b600081815260018301602052604081205461319557508154600181810184556000848152602080822090930184905584548482528286019093526040902091909155610a8b565b506000610a8b565b600081815260018301602052604081205480156132865760006131c160018361581a565b85549091506000906131d59060019061581a565b905081811461323a5760008660000182815481106131f5576131f5615a18565b906000526020600020015490508087600001848154811061321857613218615a18565b6000918252602080832090910192909255918252600188019052604090208390555b855486908061324b5761324b615afb565b600190038181906000526020600020016000905590558560010160008681526020019081526020016000206000905560019350505050610a8b565b6000915050610a8b565b60008061329e600084613b20565b9150506132ac81600161304a565b6040516370a0823160e01b81526000906001600160a01b037f000000000000000000000000000000000000000000000000000000000000000016906370a08231906132fb9030906004016155f4565b60206040518083038186803b15801561331357600080fd5b505afa158015613327573d6000803e3d6000fd5b505050506040513d601f19601f8201168201806040525081019061334b91906157b0565b905060007f00000000000000000000000000000000000000000000000000000000000000006001600160a01b0316633af9e669306040518263ffffffff1660e01b815260040161339b91906155f4565b602060405180830381600087803b1580156133b557600080fd5b505af11580156133c9573d6000803e3d6000fd5b505050506040513d601f19601f820116820180604052508101906133ed91906157b0565b90506134068582116133ff5781614ded565b855b614ded565b6040516370a0823160e01b815282906001600160a01b037f000000000000000000000000000000000000000000000000000000000000000016906370a08231906134549030906004016155f4565b60206040518083038186803b15801561346c57600080fd5b505afa158015613480573d6000803e3d6000fd5b505050506040513d601f19601f820116820180604052508101906134a491906157b0565b6134ae919061581a565b95945050505050565b60007f00000000000000000000000000000000000000000000000000000000000000006001600160a01b0316826001600160a01b0316148061352a57507f00000000000000000000000000000000000000000000000000000000000000006001600160a01b0316826001600160a01b0316145b80610a8b575050600c546001600160a01b0390811691161490565b61354e81614ec6565b60007f00000000000000000000000000000000000000000000000000000000000000006001600160a01b0316638bc6beb26040518163ffffffff1660e01b815260040160206040518083038186803b1580156135a957600080fd5b505afa1580156135bd573d6000803e3d6000fd5b505050506040513d601f19601f820116820180604052508101906135e191906156f9565b90506001600160a01b03811615611f235760405163d279c19160e01b81526001600160a01b0382169063d279c1919061361e9030906004016155f4565b600060405180830381600087803b15801561363857600080fd5b505af115801561364c573d6000803e3d6000fd5b50506040516370a0823160e01b8152600092506001600160a01b037f00000000000000000000000000000000000000000000000000000000000000001691506370a082319061369f9030906004016155f4565b60206040518083038186803b1580156136b757600080fd5b505afa1580156136cb573d6000803e3d6000fd5b505050506040513d601f19601f820116820180604052508101906136ef91906157b0565b90508015610e5e57610e5e7f000000000000000000000000000000000000000000000000000000000000000084836001614602565b600354600c54604051637a6f237b60e11b8152600092839283926001600160a01b039283169263f4de46f692613784927f000000000000000000000000000000000000000000000000000000000000000092909116908990600401615a2e565b60006040518083038186803b15801561379c57600080fd5b505afa1580156137b0573d6000803e3d6000fd5b505050506040513d6000823e601f3d908101601f191682016040526137d89190810190615a52565b919450925090508115612bce576040516370a0823160e01b81526000906001600160a01b037f000000000000000000000000000000000000000000000000000000000000000016906370a08231906138349030906004016155f4565b60206040518083038186803b15801561384c57600080fd5b505afa158015613860573d6000803e3d6000fd5b505050506040513d601f19601f8201168201806040525081019061388491906157b0565b90508083111561389b5761389b613401828561581a565b600354604051636e74a6f760e01b8152600481018490526001600160a01b0390911690636e74a6f79060240160206040518083038186803b1580156138df57600080fd5b505afa1580156138f3573d6000803e3d6000fd5b505050506040513d601f19601f8201168201806040525081019061391791906156f9565b6001600160a01b0316638803dbee86858730426040518663ffffffff1660e01b815260040161394a959493929190615b11565b600060405180830381600087803b15801561396457600080fd5b505af1158015613978573d6000803e3d6000fd5b505050506040513d6000823e601f3d908101601f191682016040526139a09190810190615b4d565b505050505050565b80156108d557600c546040516370a0823160e01b81526000916001600160a01b0316906370a08231906139df9030906004016155f4565b60206040518083038186803b1580156139f757600080fd5b505afa158015613a0b573d6000803e3d6000fd5b505050506040513d601f19601f82011682018060405250810190613a2f91906157b0565b9050613a3a826150b3565b600c546040516370a0823160e01b815260009183916001600160a01b03909116906370a0823190613a6f9030906004016155f4565b60206040518083038186803b158015613a8757600080fd5b505afa158015613a9b573d6000803e3d6000fd5b505050506040513d601f19601f82011682018060405250810190613abf91906157b0565b613ac9919061581a565b90508015610e5e57600c54610e5e906001600160a01b03167f0000000000000000000000000000000000000000000000000000000000000000836001614602565b6000818310613b1957816121e5565b5090919050565b600080831580613b2e575082155b613b6e5760405162461bcd60e51b8152602060048201526011602482015270616c6c2d696e7075742d67742d7a65726f60781b604482015260640161087e565b6040516305eff7ef60e21b81526000906001600160a01b037f000000000000000000000000000000000000000000000000000000000000000016906317bfdfbc90613bbd9030906004016155f4565b602060405180830381600087803b158015613bd757600080fd5b505af1158015613beb573d6000803e3d6000fd5b505050506040513d601f19601f82011682018060405250810190613c0f91906157b0565b9050600b5460001415613c2757600092509050613fbf565b604051633af9e66960e01b81526000906001600160a01b037f00000000000000000000000000000000000000000000000000000000000000001690633af9e66990613c769030906004016155f4565b602060405180830381600087803b158015613c9057600080fd5b505af1158015613ca4573d6000803e3d6000fd5b505050506040513d601f19601f82011682018060405250810190613cc891906157b0565b90506000613cf57f00000000000000000000000000000000000000000000000000000000000000006152c9565b90506000808811613d1d57868311613d0e576000613d27565b613d18878461581a565b613d27565b613d278884615aa2565b90506000670de0b6b3a7640000613d3e8484615aba565b613d489190615ad9565b90506000600d60009054906101000a90046001600160a01b03166001600160a01b0316637dc0d1d06040518163ffffffff1660e01b815260040160206040518083038186803b158015613d9a57600080fd5b505afa158015613dae573d6000803e3d6000fd5b505050506040513d601f19601f82011682018060405250810190613dd291906156f9565b90506000816001600160a01b031663fc57d4df7f00000000000000000000000000000000000000000000000000000000000000006040518263ffffffff1660e01b8152600401613e2291906155f4565b60206040518083038186803b158015613e3a57600080fd5b505afa158015613e4e573d6000803e3d6000fd5b505050506040513d601f19601f82011682018060405250810190613e7291906157b0565b90506000826001600160a01b031663fc57d4df7f00000000000000000000000000000000000000000000000000000000000000006040518263ffffffff1660e01b8152600401613ec291906155f4565b60206040518083038186803b158015613eda57600080fd5b505afa158015613eee573d6000803e3d6000fd5b505050506040513d601f19601f82011682018060405250810190613f1291906157b0565b9050600081613f218487615aba565b613f2b9190615ad9565b905080613f47576000899a509a50505050505050505050613fbf565b6000612710600b5483613f5a9190615aba565b613f649190615ad9565b90506000612710600a5484613f799190615aba565b613f839190615ad9565b9050818b1115613f9e57613f97818c61581a565b9b50613fb3565b8a811115613fb357613fb08b8261581a565b9c505b50505050505050505050505b9250929050565b80156108d55760405163140e25ad60e31b8152600481018290527f00000000000000000000000000000000000000000000000000000000000000006001600160a01b03169063a0712d6890602401602060405180830381600087803b15801561402e57600080fd5b505af1158015614042573d6000803e3d6000fd5b505050506040513d601f19601f8201168201806040525081019061406691906157b0565b156108d55760405162461bcd60e51b815260206004820152600d60248201526c1cdd5c1c1b1e4b59985a5b1959609a1b604482015260640161087e565b80156108d55760405163317afabb60e21b8152600481018290527f00000000000000000000000000000000000000000000000000000000000000006001600160a01b03169063c5ebeaec90602401602060405180830381600087803b15801561410b57600080fd5b505af115801561411f573d6000803e3d6000fd5b505050506040513d601f19601f8201168201806040525081019061414391906157b0565b156141905760405162461bcd60e51b815260206004820152601b60248201527f626f72726f772d66726f6d2d636f6d706f756e642d6661696c65640000000000604482015260640161087e565b600054600c546001600160a01b03908116911614156142115760008054906101000a90046001600160a01b03166001600160a01b031663d0e30db0476040518263ffffffff1660e01b81526004016000604051808303818588803b1580156141f757600080fd5b505af115801561420b573d6000803e3d6000fd5b50505050505b6108d581615352565b60608160000180548060200260200160405190810160405280929190818152602001828054801561426a57602002820191906000526020600020905b815481526020019060010190808311614256575b50505050509050919050565b6142ca6001600160a01b037f0000000000000000000000000000000000000000000000000000000000000000167f0000000000000000000000000000000000000000000000000000000000000000836144cc565b61431e6001600160a01b037f0000000000000000000000000000000000000000000000000000000000000000167f0000000000000000000000000000000000000000000000000000000000000000836144cc565b600c54614355906001600160a01b03167f0000000000000000000000000000000000000000000000000000000000000000836144cc565b60005b600360009054906101000a90046001600160a01b03166001600160a01b031663c2fba6676040518163ffffffff1660e01b815260040160206040518083038186803b1580156143a657600080fd5b505afa1580156143ba573d6000803e3d6000fd5b505050506040513d601f19601f820116820180604052508101906143de91906157b0565b811015611f2357600354604051636e74a6f760e01b8152600481018390526000916001600160a01b031690636e74a6f79060240160206040518083038186803b15801561442a57600080fd5b505afa15801561443e573d6000803e3d6000fd5b505050506040513d601f19601f8201168201806040525081019061446291906156f9565b905061446e81846153cf565b6144a26001600160a01b037f00000000000000000000000000000000000000000000000000000000000000001682856144cc565b600c546144b9906001600160a01b031682856144cc565b50806144c481615b82565b915050614358565b8015806145555750604051636eb1769f60e11b81523060048201526001600160a01b03838116602483015284169063dd62ed3e9060440160206040518083038186803b15801561451b57600080fd5b505afa15801561452f573d6000803e3d6000fd5b505050506040513d601f19601f8201168201806040525081019061455391906157b0565b155b6145c05760405162461bcd60e51b815260206004820152603660248201527f5361666545524332303a20617070726f76652066726f6d206e6f6e2d7a65726f60448201527520746f206e6f6e2d7a65726f20616c6c6f77616e636560501b606482015260840161087e565b610e5e8363095ea7b360e01b8484604051602401612d83929190615831565b60006127106145ee838261581a565b6145f89085615aba565b6121e59190615ad9565b826001600160a01b0316846001600160a01b0316141561462157612bce565b600354604051631d1f307960e31b8152600091829182916001600160a01b03169063e8f983c89061465a908a908a908a90600401615a2e565b60006040518083038186803b15801561467257600080fd5b505afa158015614686573d6000803e3d6000fd5b505050506040513d6000823e601f3d908101601f191682016040526146ae9190810190615a52565b92509250925083600014156146c257600193505b81156115fa57600354604051636e74a6f760e01b8152600481018390526001600160a01b0390911690636e74a6f79060240160206040518083038186803b15801561470c57600080fd5b505afa158015614720573d6000803e3d6000fd5b505050506040513d601f19601f8201168201806040525081019061474491906156f9565b6001600160a01b03166338ed173986868630426040518663ffffffff1660e01b8152600401614777959493929190615b11565b600060405180830381600087803b15801561479157600080fd5b505af11580156147a5573d6000803e3d6000fd5b505050506040513d6000823e601f3d908101601f191682016040526147cd9190810190615b4d565b5050505050505050565b600061482c826040518060400160405280602081526020017f5361666545524332303a206c6f772d6c6576656c2063616c6c206661696c6564815250856001600160a01b031661540d9092919063ffffffff16565b805190915015610e5e578080602001905181019061484a919061585f565b610e5e5760405162461bcd60e51b815260206004820152602a60248201527f5361666545524332303a204552433230206f7065726174696f6e20646964206e6044820152691bdd081cdd58d8d9595960b21b606482015260840161087e565b600080670de0b6b3a76400007f00000000000000000000000000000000000000000000000000000000000000006001600160a01b031663182df0f56040518163ffffffff1660e01b815260040160206040518083038186803b15801561490e57600080fd5b505afa158015614922573d6000803e3d6000fd5b505050506040513d601f19601f8201168201806040525081019061494691906157b0565b6040516370a0823160e01b81526001600160a01b037f000000000000000000000000000000000000000000000000000000000000000016906370a08231906149929030906004016155f4565b60206040518083038186803b1580156149aa57600080fd5b505afa1580156149be573d6000803e3d6000fd5b505050506040513d601f19601f820116820180604052508101906149e291906157b0565b6149ec9190615aba565b6149f69190615ad9565b90506000614a02612201565b905060007f00000000000000000000000000000000000000000000000000000000000000006001600160a01b03166395dd9193306040518263ffffffff1660e01b8152600401614a5291906155f4565b60206040518083038186803b158015614a6a57600080fd5b505afa158015614a7e573d6000803e3d6000fd5b505050506040513d601f19601f82011682018060405250810190614aa291906157b0565b9050600082821115614b6a57600354600c546001600160a01b039182169163f4de46f6917f00000000000000000000000000000000000000000000000000000000000000009116614af3878761581a565b6040518463ffffffff1660e01b8152600401614b1193929190615a2e565b60006040518083038186803b158015614b2957600080fd5b505afa158015614b3d573d6000803e3d6000fd5b505050506040513d6000823e601f3d908101601f19168201604052614b659190810190615a52565b509150505b6040516370a0823160e01b815281906001600160a01b037f000000000000000000000000000000000000000000000000000000000000000016906370a0823190614bb89030906004016155f4565b60206040518083038186803b158015614bd057600080fd5b505afa158015614be4573d6000803e3d6000fd5b505050506040513d601f19601f82011682018060405250810190614c0891906157b0565b614c129086615aa2565b611cfd919061581a565b614c2581615424565b600054600c546001600160a01b0390811691161415614d0b57600054604051632e1a7d4d60e01b8152600481018390526001600160a01b0390911690632e1a7d4d90602401600060405180830381600087803b158015614c8457600080fd5b505af1158015614c98573d6000803e3d6000fd5b505050507f00000000000000000000000000000000000000000000000000000000000000006001600160a01b0316634e4d9fea826040518263ffffffff1660e01b81526004016000604051808303818588803b158015614cf757600080fd5b505af11580156139a0573d6000803e3d6000fd5b60405163073a938160e11b8152600481018290527f00000000000000000000000000000000000000000000000000000000000000006001600160a01b031690630e75270290602401602060405180830381600087803b158015614d6d57600080fd5b505af1158015614d81573d6000803e3d6000fd5b505050506040513d601f19601f82011682018060405250810190614da591906157b0565b156108d55760405162461bcd60e51b81526020600482015260186024820152771c995c185e4b5d1bcb58dbdb5c1bdd5b990b59985a5b195960421b604482015260640161087e565b60405163852a12e360e01b8152600481018290527f00000000000000000000000000000000000000000000000000000000000000006001600160a01b03169063852a12e390602401602060405180830381600087803b158015614e4f57600080fd5b505af1158015614e63573d6000803e3d6000fd5b505050506040513d601f19601f82011682018060405250810190614e8791906157b0565b156108d55760405162461bcd60e51b815260206004820152600f60248201526e1dda5d1a191c985dcb59985a5b1959608a1b604482015260640161087e565b6040805160028082526060820183526000926020830190803683370190505090507f000000000000000000000000000000000000000000000000000000000000000081600081518110614f1b57614f1b615a18565b60200260200101906001600160a01b031690816001600160a01b0316815250507f000000000000000000000000000000000000000000000000000000000000000081600181518110614f6f57614f6f615a18565b6001600160a01b039283166020918202929092010152600d5460405162e1ed9760e51b8152911690631c3db2e090614fad9030908590600401615b9d565b600060405180830381600087803b158015614fc757600080fd5b505af1158015614fdb573d6000803e3d6000fd5b50506040516370a0823160e01b8152600092506001600160a01b037f00000000000000000000000000000000000000000000000000000000000000001691506370a082319061502e9030906004016155f4565b60206040518083038186803b15801561504657600080fd5b505afa15801561505a573d6000803e3d6000fd5b505050506040513d601f19601f8201168201806040525081019061507e91906157b0565b90508015610e5e57610e5e7f000000000000000000000000000000000000000000000000000000000000000084836001614602565b60007f00000000000000000000000000000000000000000000000000000000000000006001600160a01b03166399530b066040518163ffffffff1660e01b815260040160206040518083038186803b15801561510e57600080fd5b505afa158015615122573d6000803e3d6000fd5b505050506040513d601f19601f8201168201806040525081019061514691906157b0565b905060008161515d84670de0b6b3a7640000615aba565b6151679190615ad9565b9050670de0b6b3a764000061517c8383615aba565b6151869190615ad9565b8311615192578061519d565b61519d816001615aa2565b905060007f00000000000000000000000000000000000000000000000000000000000000006001600160a01b03166370a08231306040518263ffffffff1660e01b81526004016151ed91906155f4565b60206040518083038186803b15801561520557600080fd5b505afa158015615219573d6000803e3d6000fd5b505050506040513d601f19601f8201168201806040525081019061523d91906157b0565b90507f00000000000000000000000000000000000000000000000000000000000000006001600160a01b0316632e1a7d4d82841161527b578361527d565b825b6040518263ffffffff1660e01b815260040161529b91815260200190565b600060405180830381600087803b1580156152b557600080fd5b505af11580156147cd573d6000803e3d6000fd5b600d54604051638e8f294b60e01b81526000916001600160a01b031690638e8f294b906152fa9085906004016155f4565b60606040518083038186803b15801561531257600080fd5b505afa158015615326573d6000803e3d6000fd5b505050506040513d601f19601f8201168201806040525081019061534a9190615bc1565b509392505050565b60405163b6b55f2560e01b8152600481018290527f00000000000000000000000000000000000000000000000000000000000000006001600160a01b03169063b6b55f2590602401600060405180830381600087803b1580156153b457600080fd5b505af11580156153c8573d6000803e3d6000fd5b5050505050565b6153d9828261542d565b611f236001600160a01b037f00000000000000000000000000000000000000000000000000000000000000001683836144cc565b606061541c8484600085615461565b949350505050565b6108d5816150b3565b611f236001600160a01b037f00000000000000000000000000000000000000000000000000000000000000001683836144cc565b6060824710156154c25760405162461bcd60e51b815260206004820152602660248201527f416464726573733a20696e73756666696369656e742062616c616e636520666f6044820152651c8818d85b1b60d21b606482015260840161087e565b843b6155105760405162461bcd60e51b815260206004820152601d60248201527f416464726573733a2063616c6c20746f206e6f6e2d636f6e7472616374000000604482015260640161087e565b600080866001600160a01b0316858760405161552c9190615bfd565b60006040518083038185875af1925050503d8060008114615569576040519150601f19603f3d011682016040523d82523d6000602084013e61556e565b606091505b509150915061557e828286615589565b979650505050505050565b606083156155985750816121e5565b8251156155a85782518084602001fd5b8160405162461bcd60e51b815260040161087e91906156a4565b6001600160a01b03811681146108d557600080fd5b6000602082840312156155e957600080fd5b81356121e5816155c2565b6001600160a01b0391909116815260200190565b60006020828403121561561a57600080fd5b5035919050565b600081518084526020808501945080840160005b8381101561565a5781516001600160a01b031687529582019590820190600101615635565b509495945050505050565b6020815260006121e56020830184615621565b60005b8381101561569357818101518382015260200161567b565b83811115612bce5750506000910152565b60208152600082518060208401526156c3816040850160208701615678565b601f01601f19169190910160400192915050565b600080604083850312156156ea57600080fd5b50508035926020909101359150565b60006020828403121561570b57600080fd5b81516121e5816155c2565b6020808252601a908201527f63616c6c65722d69732d6e6f742d7468652d676f7665726e6f72000000000000604082015260600190565b60208082526019908201527818d85b1b195c8b5a5ccb5b9bdd0b5d995cdc195c8b5c1bdbdb603a1b604082015260600190565b60208082526016908201527531b0b63632b916b4b996b737ba16b096b5b2b2b832b960511b604082015260600190565b6000602082840312156157c257600080fd5b5051919050565b600181811c908216806157dd57607f821691505b602082108114156157fe57634e487b7160e01b600052602260045260246000fd5b50919050565b634e487b7160e01b600052601160045260246000fd5b60008282101561582c5761582c615804565b500390565b6001600160a01b03929092168252602082015260400190565b8051801515811461585a57600080fd5b919050565b60006020828403121561587157600080fd5b6121e58261584a565b634e487b7160e01b600052604160045260246000fd5b604051601f8201601f1916810167ffffffffffffffff811182821017156158b9576158b961587a565b604052919050565b600067ffffffffffffffff8211156158db576158db61587a565b5060051b60200190565b600082601f8301126158f657600080fd5b8151602061590b615906836158c1565b615890565b82815260059290921b8401810191818101908684111561592a57600080fd5b8286015b8481101561594e578051615941816155c2565b835291830191830161592e565b509695505050505050565b600082601f83011261596a57600080fd5b8151602061597a615906836158c1565b82815260059290921b8401810191818101908684111561599957600080fd5b8286015b8481101561594e578051835291830191830161599d565b600080604083850312156159c757600080fd5b825167ffffffffffffffff808211156159df57600080fd5b6159eb868387016158e5565b93506020850151915080821115615a0157600080fd5b50615a0e85828601615959565b9150509250929050565b634e487b7160e01b600052603260045260246000fd5b6001600160a01b039384168152919092166020820152604081019190915260600190565b600080600060608486031215615a6757600080fd5b835167ffffffffffffffff811115615a7e57600080fd5b615a8a868287016158e5565b93505060208401519150604084015190509250925092565b60008219821115615ab557615ab5615804565b500190565b6000816000190483118215151615615ad457615ad4615804565b500290565b600082615af657634e487b7160e01b600052601260045260246000fd5b500490565b634e487b7160e01b600052603160045260246000fd5b85815284602082015260a060408201526000615b3060a0830186615621565b6001600160a01b0394909416606083015250608001529392505050565b600060208284031215615b5f57600080fd5b815167ffffffffffffffff811115615b7657600080fd5b61541c84828501615959565b6000600019821415615b9657615b96615804565b5060010190565b6001600160a01b038316815260406020820181905260009061541c90830184615621565b600080600060608486031215615bd657600080fd5b615bdf8461584a565b925060208401519150615bf46040850161584a565b90509250925092565b60008251615c0f818460208701615678565b919091019291505056fea2646970667358221220d7540206029c4306fa0a39dc859ac5b34c4d5aebfbcb710f5b28e7da3adbc73d64736f6c63430008090033",
  "devdoc": {
    "kind": "dev",
    "methods": {
      "addKeeper(address)": {
        "params": {
          "_keeperAddress": "keeper address to add."
        }
      },
      "approveToken()": {
        "details": "Approve all required tokens"
      },
      "migrate(address)": {
        "details": "_beforeMigration hook can be implemented in child strategy to do extra steps.",
        "params": {
          "_newStrategy": "Address of new strategy"
        }
      },
      "rebalance()": {
        "details": "Rebalance profit, loss and investment of this strategy"
      },
      "recoverBorrowToken(uint256)": {
        "details": "If we get liquidation in Compound, we will have borrowToken sitting in strategy. This function allows to recover idle borrow token amount.",
        "params": {
          "_amountToRecover": "Amount of borrow token we want to recover in 1 call.      Set it 0 to recover all available borrow tokens"
        }
      },
      "removeKeeper(address)": {
        "params": {
          "_keeperAddress": "keeper address to remove."
        }
      },
      "repayAll()": {
        "details": "This action usually done when loss is detected in strategy.0 borrow limit make sure that any future rebalance do not borrow again."
      },
      "sweepERC20(address)": {
        "details": "sweep given token to feeCollector of strategy",
        "params": {
          "_fromToken": "token address to sweep"
        }
      },
      "totalValueCurrent()": {
        "details": "Report total value in collateral token"
      },
      "updateBorrowLimit(uint256,uint256)": {
        "details": "It is possible to set 0 as _minBorrowLimit to not borrow anything",
        "params": {
          "_maxBorrowLimit": "It is % of actual collateral factor of protocol",
          "_minBorrowLimit": "It is % of actual collateral factor of protocol"
        }
      },
      "updateFeeCollector(address)": {
        "params": {
          "_feeCollector": "fee collector address"
        }
      },
      "updateSwapManager(address)": {
        "params": {
          "_swapManager": "swap manager address"
        }
      },
      "withdraw(uint256)": {
        "details": "Withdraw collateral token from lending pool.",
        "params": {
          "_amount": "Amount of collateral token"
        }
      }
    },
    "title": "Deposit Collateral in Compound and earn interest by depositing borrowed token in a Vesper Pool.",
    "version": 1
  },
  "userdoc": {
    "kind": "user",
    "methods": {
      "addKeeper(address)": {
        "notice": "Add given address in keepers list."
      },
      "borrowBalance()": {
        "notice": "Gets amount of borrowed Y collateral in strategy + Y collateral amount deposited in vPool"
      },
      "isLossMaking()": {
        "notice": "Calculate current position based on totalValue and debt of strategy"
      },
      "isReservedToken(address)": {
        "notice": "Check whether given token is reserved or not. Reserved tokens are not allowed to sweep."
      },
      "keepers()": {
        "notice": "Return list of keepers"
      },
      "migrate(address)": {
        "notice": "Migrate all asset and vault ownership,if any, to new strategy"
      },
      "recoverBorrowToken(uint256)": {
        "notice": "Recover extra borrow tokens from strategy"
      },
      "removeKeeper(address)": {
        "notice": "Remove given address from keepers list."
      },
      "repayAll()": {
        "notice": "Repay all borrow amount and set min borrow limit to 0."
      },
      "token()": {
        "notice": "Returns address of token correspond to collateral token"
      },
      "totalValue()": {
        "notice": "Calculate total value based reward accrued (COMP and VSP), supply and borrow position"
      },
      "totalValueCurrent()": {
        "notice": "Calculate total value of asset under management (in real-time)"
      },
      "updateBorrowLimit(uint256,uint256)": {
        "notice": "Update upper and lower borrow limit. Usually maxBorrowLimit < 100% of actual collateral factor of protocol."
      },
      "updateFeeCollector(address)": {
        "notice": "Update fee collector"
      },
      "updateSwapManager(address)": {
        "notice": "Update swap manager address"
      }
    },
    "version": 1
  },
  "storageLayout": {
    "storage": [
      {
        "astId": 13972,
        "contract": "contracts/strategies/compound/VesperCompoundXYStrategy.sol:VesperCompoundXYStrategy",
        "label": "WETH",
        "offset": 0,
        "slot": "0",
        "type": "t_address"
      },
      {
        "astId": 13977,
        "contract": "contracts/strategies/compound/VesperCompoundXYStrategy.sol:VesperCompoundXYStrategy",
        "label": "receiptToken",
        "offset": 0,
        "slot": "1",
        "type": "t_address"
      },
      {
        "astId": 13983,
        "contract": "contracts/strategies/compound/VesperCompoundXYStrategy.sol:VesperCompoundXYStrategy",
        "label": "feeCollector",
        "offset": 0,
        "slot": "2",
        "type": "t_address"
      },
      {
        "astId": 13986,
        "contract": "contracts/strategies/compound/VesperCompoundXYStrategy.sol:VesperCompoundXYStrategy",
        "label": "swapManager",
        "offset": 0,
        "slot": "3",
        "type": "t_contract(ISwapManager)5729"
      },
      {
        "astId": 13989,
        "contract": "contracts/strategies/compound/VesperCompoundXYStrategy.sol:VesperCompoundXYStrategy",
        "label": "oraclePeriod",
        "offset": 0,
        "slot": "4",
        "type": "t_uint256"
      },
      {
        "astId": 13992,
        "contract": "contracts/strategies/compound/VesperCompoundXYStrategy.sol:VesperCompoundXYStrategy",
        "label": "oracleRouterIdx",
        "offset": 0,
        "slot": "5",
        "type": "t_uint256"
      },
      {
        "astId": 13995,
        "contract": "contracts/strategies/compound/VesperCompoundXYStrategy.sol:VesperCompoundXYStrategy",
        "label": "swapSlippage",
        "offset": 0,
        "slot": "6",
        "type": "t_uint256"
      },
      {
        "astId": 13998,
        "contract": "contracts/strategies/compound/VesperCompoundXYStrategy.sol:VesperCompoundXYStrategy",
        "label": "_keepers",
        "offset": 0,
        "slot": "7",
        "type": "t_struct(AddressSet)4634_storage"
      },
      {
        "astId": 26379,
        "contract": "contracts/strategies/compound/VesperCompoundXYStrategy.sol:VesperCompoundXYStrategy",
        "label": "NAME",
        "offset": 0,
        "slot": "9",
        "type": "t_string_storage"
      },
      {
        "astId": 26391,
        "contract": "contracts/strategies/compound/VesperCompoundXYStrategy.sol:VesperCompoundXYStrategy",
        "label": "minBorrowLimit",
        "offset": 0,
        "slot": "10",
        "type": "t_uint256"
      },
      {
        "astId": 26394,
        "contract": "contracts/strategies/compound/VesperCompoundXYStrategy.sol:VesperCompoundXYStrategy",
        "label": "maxBorrowLimit",
        "offset": 0,
        "slot": "11",
        "type": "t_uint256"
      },
      {
        "astId": 26396,
        "contract": "contracts/strategies/compound/VesperCompoundXYStrategy.sol:VesperCompoundXYStrategy",
        "label": "borrowToken",
        "offset": 0,
        "slot": "12",
        "type": "t_address"
      },
      {
        "astId": 26399,
        "contract": "contracts/strategies/compound/VesperCompoundXYStrategy.sol:VesperCompoundXYStrategy",
        "label": "comptroller",
        "offset": 0,
        "slot": "13",
        "type": "t_contract(Comptroller)5923"
      }
    ],
    "types": {
      "t_address": {
        "encoding": "inplace",
        "label": "address",
        "numberOfBytes": "20"
      },
      "t_array(t_bytes32)dyn_storage": {
        "base": "t_bytes32",
        "encoding": "dynamic_array",
        "label": "bytes32[]",
        "numberOfBytes": "32"
      },
      "t_bytes32": {
        "encoding": "inplace",
        "label": "bytes32",
        "numberOfBytes": "32"
      },
      "t_contract(Comptroller)5923": {
        "encoding": "inplace",
        "label": "contract Comptroller",
        "numberOfBytes": "20"
      },
      "t_contract(ISwapManager)5729": {
        "encoding": "inplace",
        "label": "contract ISwapManager",
        "numberOfBytes": "20"
      },
      "t_mapping(t_bytes32,t_uint256)": {
        "encoding": "mapping",
        "key": "t_bytes32",
        "label": "mapping(bytes32 => uint256)",
        "numberOfBytes": "32",
        "value": "t_uint256"
      },
      "t_string_storage": {
        "encoding": "bytes",
        "label": "string",
        "numberOfBytes": "32"
      },
      "t_struct(AddressSet)4634_storage": {
        "encoding": "inplace",
        "label": "struct EnumerableSet.AddressSet",
        "members": [
          {
            "astId": 4633,
            "contract": "contracts/strategies/compound/VesperCompoundXYStrategy.sol:VesperCompoundXYStrategy",
            "label": "_inner",
            "offset": 0,
            "slot": "0",
            "type": "t_struct(Set)4333_storage"
          }
        ],
        "numberOfBytes": "64"
      },
      "t_struct(Set)4333_storage": {
        "encoding": "inplace",
        "label": "struct EnumerableSet.Set",
        "members": [
          {
            "astId": 4328,
            "contract": "contracts/strategies/compound/VesperCompoundXYStrategy.sol:VesperCompoundXYStrategy",
            "label": "_values",
            "offset": 0,
            "slot": "0",
            "type": "t_array(t_bytes32)dyn_storage"
          },
          {
            "astId": 4332,
            "contract": "contracts/strategies/compound/VesperCompoundXYStrategy.sol:VesperCompoundXYStrategy",
            "label": "_indexes",
            "offset": 0,
            "slot": "1",
            "type": "t_mapping(t_bytes32,t_uint256)"
          }
        ],
        "numberOfBytes": "64"
      },
      "t_uint256": {
        "encoding": "inplace",
        "label": "uint256",
        "numberOfBytes": "32"
      }
    }
  }
}