{
  "address": "0xaBC64889601F01e7B26277Ef8756250d6ABf8c18",
  "abi": [
    {
      "anonymous": false,
      "inputs": [
        {
          "indexed": true,
          "internalType": "address",
          "name": "gemJoin",
          "type": "address"
        },
        {
          "indexed": false,
          "internalType": "bytes32",
          "name": "ilk",
          "type": "bytes32"
        }
      ],
      "name": "AddedGemJoin",
      "type": "event"
    },
    {
      "anonymous": false,
      "inputs": [
        {
          "indexed": true,
          "internalType": "address",
          "name": "owner",
          "type": "address"
        },
        {
          "indexed": true,
          "internalType": "uint256",
          "name": "vaultNum",
          "type": "uint256"
        },
        {
          "indexed": true,
          "internalType": "bytes32",
          "name": "collateralType",
          "type": "bytes32"
        }
      ],
      "name": "CreatedVault",
      "type": "event"
    },
    {
      "anonymous": false,
      "inputs": [
        {
          "indexed": true,
          "internalType": "uint256",
          "name": "vaultNum",
          "type": "uint256"
        },
        {
          "indexed": true,
          "internalType": "address",
          "name": "previousOwner",
          "type": "address"
        },
        {
          "indexed": true,
          "internalType": "address",
          "name": "newOwner",
          "type": "address"
        }
      ],
      "name": "TransferredVaultOwnership",
      "type": "event"
    },
    {
      "anonymous": false,
      "inputs": [
        {
          "indexed": true,
          "internalType": "address",
          "name": "previousGovernor",
          "type": "address"
        },
        {
          "indexed": true,
          "internalType": "address",
          "name": "proposedGovernor",
          "type": "address"
        }
      ],
      "name": "UpdatedGovernor",
      "type": "event"
    },
    {
      "anonymous": false,
      "inputs": [
        {
          "indexed": false,
          "internalType": "address",
          "name": "mcdManager",
          "type": "address"
        },
        {
          "indexed": false,
          "internalType": "address",
          "name": "mcdDaiJoin",
          "type": "address"
        },
        {
          "indexed": false,
          "internalType": "address",
          "name": "mcdSpot",
          "type": "address"
        },
        {
          "indexed": false,
          "internalType": "address",
          "name": "mcdJug",
          "type": "address"
        }
      ],
      "name": "UpdatedMCDAddresses",
      "type": "event"
    },
    {
      "anonymous": false,
      "inputs": [
        {
          "indexed": true,
          "internalType": "address",
          "name": "previousTreasury",
          "type": "address"
        },
        {
          "indexed": true,
          "internalType": "address",
          "name": "newTreasury",
          "type": "address"
        }
      ],
      "name": "UpdatedTreasury",
      "type": "event"
    },
    {
      "inputs": [],
      "name": "DAI",
      "outputs": [
        {
          "internalType": "address",
          "name": "",
          "type": "address"
        }
      ],
      "stateMutability": "view",
      "type": "function"
    },
    {
      "inputs": [],
      "name": "acceptGovernorship",
      "outputs": [],
      "stateMutability": "nonpayable",
      "type": "function"
    },
    {
      "inputs": [
        {
          "internalType": "address[]",
          "name": "_gemJoins",
          "type": "address[]"
        }
      ],
      "name": "addGemJoin",
      "outputs": [],
      "stateMutability": "nonpayable",
      "type": "function"
    },
    {
      "inputs": [
        {
          "internalType": "uint256",
          "name": "_amount",
          "type": "uint256"
        }
      ],
      "name": "borrow",
      "outputs": [],
      "stateMutability": "nonpayable",
      "type": "function"
    },
    {
      "inputs": [
        {
          "internalType": "uint256",
          "name": "",
          "type": "uint256"
        }
      ],
      "name": "collateralType",
      "outputs": [
        {
          "internalType": "bytes32",
          "name": "",
          "type": "bytes32"
        }
      ],
      "stateMutability": "view",
      "type": "function"
    },
    {
      "inputs": [
        {
          "internalType": "bytes32",
          "name": "_collateralType",
          "type": "bytes32"
        }
      ],
      "name": "createVault",
      "outputs": [
        {
          "internalType": "uint256",
          "name": "_vaultNum",
          "type": "uint256"
        }
      ],
      "stateMutability": "nonpayable",
      "type": "function"
    },
    {
      "inputs": [
        {
          "internalType": "uint256",
          "name": "_amount",
          "type": "uint256"
        }
      ],
      "name": "depositCollateral",
      "outputs": [],
      "stateMutability": "nonpayable",
      "type": "function"
    },
    {
      "inputs": [
        {
          "internalType": "address",
          "name": "_vaultOwner",
          "type": "address"
        }
      ],
      "name": "getVaultBalance",
      "outputs": [
        {
          "internalType": "uint256",
          "name": "collateralLocked",
          "type": "uint256"
        }
      ],
      "stateMutability": "view",
      "type": "function"
    },
    {
      "inputs": [
        {
          "internalType": "address",
          "name": "_vaultOwner",
          "type": "address"
        }
      ],
      "name": "getVaultDebt",
      "outputs": [
        {
          "internalType": "uint256",
          "name": "daiDebt",
          "type": "uint256"
        }
      ],
      "stateMutability": "view",
      "type": "function"
    },
    {
      "inputs": [
        {
          "internalType": "address",
          "name": "_vaultOwner",
          "type": "address"
        }
      ],
      "name": "getVaultInfo",
      "outputs": [
        {
          "internalType": "uint256",
          "name": "collateralLocked",
          "type": "uint256"
        },
        {
          "internalType": "uint256",
          "name": "daiDebt",
          "type": "uint256"
        },
        {
          "internalType": "uint256",
          "name": "collateralUsdRate",
          "type": "uint256"
        },
        {
          "internalType": "uint256",
          "name": "collateralRatio",
          "type": "uint256"
        },
        {
          "internalType": "uint256",
          "name": "minimumDebt",
          "type": "uint256"
        }
      ],
      "stateMutability": "view",
      "type": "function"
    },
    {
      "inputs": [],
      "name": "governor",
      "outputs": [
        {
          "internalType": "address",
          "name": "",
          "type": "address"
        }
      ],
      "stateMutability": "view",
      "type": "function"
    },
    {
      "inputs": [
        {
          "internalType": "bytes32",
          "name": "_collateralType",
          "type": "bytes32"
        }
      ],
      "name": "maxAvailableDai",
      "outputs": [
        {
          "internalType": "uint256",
          "name": "",
          "type": "uint256"
        }
      ],
      "stateMutability": "view",
      "type": "function"
    },
    {
      "inputs": [],
      "name": "mcdDaiJoin",
      "outputs": [
        {
          "internalType": "address",
          "name": "",
          "type": "address"
        }
      ],
      "stateMutability": "view",
      "type": "function"
    },
    {
      "inputs": [
        {
          "internalType": "bytes32",
          "name": "",
          "type": "bytes32"
        }
      ],
      "name": "mcdGemJoin",
      "outputs": [
        {
          "internalType": "address",
          "name": "",
          "type": "address"
        }
      ],
      "stateMutability": "view",
      "type": "function"
    },
    {
      "inputs": [],
      "name": "mcdJug",
      "outputs": [
        {
          "internalType": "address",
          "name": "",
          "type": "address"
        }
      ],
      "stateMutability": "view",
      "type": "function"
    },
    {
      "inputs": [],
      "name": "mcdManager",
      "outputs": [
        {
          "internalType": "address",
          "name": "",
          "type": "address"
        }
      ],
      "stateMutability": "view",
      "type": "function"
    },
    {
      "inputs": [],
      "name": "mcdSpot",
      "outputs": [
        {
          "internalType": "address",
          "name": "",
          "type": "address"
        }
      ],
      "stateMutability": "view",
      "type": "function"
    },
    {
      "inputs": [
        {
          "internalType": "uint256",
          "name": "_amount",
          "type": "uint256"
        }
      ],
      "name": "payback",
      "outputs": [],
      "stateMutability": "nonpayable",
      "type": "function"
    },
    {
      "inputs": [
        {
          "internalType": "address",
          "name": "_fromToken",
          "type": "address"
        }
      ],
      "name": "sweepErc20",
      "outputs": [],
      "stateMutability": "nonpayable",
      "type": "function"
    },
    {
      "inputs": [
        {
          "internalType": "address",
          "name": "_proposedGovernor",
          "type": "address"
        }
      ],
      "name": "transferGovernorship",
      "outputs": [],
      "stateMutability": "nonpayable",
      "type": "function"
    },
    {
      "inputs": [
        {
          "internalType": "uint256",
          "name": "_vaultNum",
          "type": "uint256"
        },
        {
          "internalType": "address",
          "name": "_owner",
          "type": "address"
        },
        {
          "internalType": "address",
          "name": "_newOwner",
          "type": "address"
        }
      ],
      "name": "transferVaultOwnership",
      "outputs": [],
      "stateMutability": "nonpayable",
      "type": "function"
    },
    {
      "inputs": [
        {
          "internalType": "address",
          "name": "_newOwner",
          "type": "address"
        }
      ],
      "name": "transferVaultOwnership",
      "outputs": [],
      "stateMutability": "nonpayable",
      "type": "function"
    },
    {
      "inputs": [],
      "name": "treasury",
      "outputs": [
        {
          "internalType": "address",
          "name": "",
          "type": "address"
        }
      ],
      "stateMutability": "view",
      "type": "function"
    },
    {
      "inputs": [
        {
          "internalType": "address",
          "name": "_mcdManager",
          "type": "address"
        },
        {
          "internalType": "address",
          "name": "_mcdDaiJoin",
          "type": "address"
        },
        {
          "internalType": "address",
          "name": "_mcdSpot",
          "type": "address"
        },
        {
          "internalType": "address",
          "name": "_mcdJug",
          "type": "address"
        }
      ],
      "name": "updateMCDAddresses",
      "outputs": [],
      "stateMutability": "nonpayable",
      "type": "function"
    },
    {
      "inputs": [
        {
          "internalType": "address",
          "name": "_treasury",
          "type": "address"
        }
      ],
      "name": "updateTreasury",
      "outputs": [],
      "stateMutability": "nonpayable",
      "type": "function"
    },
    {
      "inputs": [
        {
          "internalType": "address",
          "name": "",
          "type": "address"
        }
      ],
      "name": "vaultNum",
      "outputs": [
        {
          "internalType": "uint256",
          "name": "",
          "type": "uint256"
        }
      ],
      "stateMutability": "view",
      "type": "function"
    },
    {
      "inputs": [
        {
          "internalType": "address",
          "name": "_vaultOwner",
          "type": "address"
        },
        {
          "internalType": "uint256",
          "name": "_amount",
          "type": "uint256"
        }
      ],
      "name": "whatWouldWithdrawDo",
      "outputs": [
        {
          "internalType": "uint256",
          "name": "collateralLocked",
          "type": "uint256"
        },
        {
          "internalType": "uint256",
          "name": "daiDebt",
          "type": "uint256"
        },
        {
          "internalType": "uint256",
          "name": "collateralUsdRate",
          "type": "uint256"
        },
        {
          "internalType": "uint256",
          "name": "collateralRatio",
          "type": "uint256"
        },
        {
          "internalType": "uint256",
          "name": "minimumDebt",
          "type": "uint256"
        }
      ],
      "stateMutability": "view",
      "type": "function"
    },
    {
      "inputs": [
        {
          "internalType": "uint256",
          "name": "_amount",
          "type": "uint256"
        }
      ],
      "name": "withdrawCollateral",
      "outputs": [],
      "stateMutability": "nonpayable",
      "type": "function"
    }
  ],
  "transactionHash": "0x787250443d3b363388b83e6248428abf7d51acc72f52df87e74e2173afc0e12c",
  "args": [],
  "solcInputHash": "c3d492b34dbdb93ec393fc77342e476c",
  "bytecode": "0x6080604052600680546001600160a01b0319908116735ef30b9986345249bc32d8928b7ee64de9435e3917909155600780548216739759a6ac90977b93b58547b4a71c78317f391a281790556008805482167365c79fcb50ca1594b025960e539ed7a9a6d434a3179055600980549091167319c0976f590d67707e62397c87829d896dc0f1f117905534801561009457600080fd5b5060016000818155815462010000600160b01b03191633620100008102919091179092556040518291907fd4459d5b8b913cab0244230fd9b1c08b6ceace7fe9230e60d0f74cbffdf849d0908290a350613754806100f36000396000f3fe608060405234801561001057600080fd5b50600436106101c45760003560e01c8063a6062d20116100f9578063cd1adb6111610097578063e071c0ca11610071578063e071c0ca1461041c578063e0bab4c41461042f578063eb64287c1461044a578063f3b27bc31461045d576101c4565b8063cd1adb61146103d6578063d3d7c002146103f6578063d9fe3eae14610409576101c4565b8063b6aa515b116100d3578063b6aa515b1461038a578063bad4a01f1461039d578063c0af0d3b146103b0578063c5ebeaec146103c3576101c4565b8063a6062d201461033b578063a846c2fd14610364578063b5719be114610377576101c4565b806357f6af2f1161016657806375efffaa1161014057806375efffaa146102ef5780637f51bb1f1461030257806390229af714610315578063921452ba14610328576101c4565b806357f6af2f146102b65780636112fe2e146102c957806361d027b3146102dc576101c4565b80632c8db08e116101a25780632c8db08e146102355780634ddda40c1461024857806352d5aee81461026857806353746ff7146102a3576101c4565b80630c340a24146101c957806311f5947e146101ff57806317799f3614610214575b600080fd5b6001546101e2906201000090046001600160a01b031681565b6040516001600160a01b0390911681526020015b60405180910390f35b61021261020d36600461334e565b610465565b005b61022761022236600461331e565b61053e565b6040519081526020016101f6565b61022761024336600461331e565b6106dd565b61022761025636600461331e565b60036020526000908152604090205481565b61027b610276366004613236565b610774565b604080519586526020860194909452928401919091526060830152608082015260a0016101f6565b6102126102b136600461328e565b6108dc565b6007546101e2906001600160a01b031681565b6102126102d736600461331e565b610a7e565b600a546101e2906001600160a01b031681565b6006546101e2906001600160a01b031681565b6102126103103660046131a3565b610d85565b61027b6103233660046131a3565b610e68565b6008546101e2906001600160a01b031681565b6101e261034936600461331e565b6005602052600090815260409020546001600160a01b031681565b61021261037236600461331e565b610ecf565b6009546101e2906001600160a01b031681565b6102126103983660046131a3565b6110f2565b6102126103ab36600461331e565b61119b565b6102276103be3660046131a3565b6113ff565b6102126103d136600461331e565b611563565b6102276103e43660046131a3565b60046020526000908152604090205481565b6102276104043660046131a3565b611914565b6102126104173660046131a3565b611af3565b61021261042a3660046131a3565b611bd9565b6101e2736b175474e89094c44da98b954eedeac495271d0f81565b6102126104583660046131db565b611c22565b610212611e3f565b6001546001600160a01b036201000090910416331461049f5760405162461bcd60e51b8152600401610496906134a5565b60405180910390fd5b826104e35760405162461bcd60e51b81526020600482015260146024820152737661756c742d6e756d6265722d69732d7a65726f60601b6044820152606401610496565b6001600160a01b03821661052e5760405162461bcd60e51b81526020600482015260126024820152716f776e65722d616464726573732d7a65726f60701b6044820152606401610496565b610539838383611f13565b505050565b336000908152600460205260408120541561059b5760405162461bcd60e51b815260206004820152601960248201527f63616c6c65722d6f776e732d616e6f746865722d7661756c74000000000000006044820152606401610496565b600654604051636090dec560e01b8152600481018490523060248201526001600160a01b03909116908190636090dec590604401602060405180830381600087803b1580156105e957600080fd5b505af11580156105fd573d6000803e3d6000fd5b505050506040513d601f19601f820116820180604052508101906106219190613336565b6040516305b1fdb160e11b815260048101829052306024820152600160448201529092506001600160a01b03821690630b63fb6290606401600060405180830381600087803b15801561067357600080fd5b505af1158015610687573d6000803e3d6000fd5b50503360008181526004602090815260408083208890558783526003909152808220889055518794508693507fa3e36cfe4cdf8e34133ab1f6a951dea0e51152268f1af758ebc5c464d348c05a9190a450919050565b600061076e600660009054906101000a90046001600160a01b03166001600160a01b03166336569e776040518163ffffffff1660e01b815260040160206040518083038186803b15801561073057600080fd5b505afa158015610744573d6000803e3d6000fd5b505050506040513d601f19601f8201168201806040525081019061076891906131bf565b83612082565b92915050565b6001600160a01b0382166000908152600460205260408120548190819081908190806107b25760405162461bcd60e51b815260040161049690613440565b6107bb88610e68565b6000868152600360209081526040808320548352600582528083205481516359de7d4160e11b81529151989e50969c50949a509298509096506001600160a01b039093169361086492859263b3bcfa8292600480840193829003018186803b15801561082657600080fd5b505afa15801561083a573d6000803e3d6000fd5b505050506040513d601f19601f8201168201806040525081019061085e9190613336565b8a612160565b9050878111156108b65760405162461bcd60e51b815260206004820152601e60248201527f696e73756666696369656e742d636f6c6c61746572616c2d6c6f636b656400006044820152606401610496565b6108c0818961367b565b97506108cd888789612189565b94505050509295509295909350565b6001546001600160a01b036201000090910416331461090d5760405162461bcd60e51b8152600401610496906134a5565b8061094f5760405162461bcd60e51b81526020600482015260126024820152716e6f2d67656d4a6f696e2d6164647265737360701b6044820152606401610496565b60005b8181101561053957600083838381811061097c57634e487b7160e01b600052603260045260246000fd5b905060200201602081019061099191906131a3565b90506000816001600160a01b031663c5ce281e6040518163ffffffff1660e01b815260040160206040518083038186803b1580156109ce57600080fd5b505afa1580156109e2573d6000803e3d6000fd5b505050506040513d601f19601f82011682018060405250810190610a069190613336565b60008181526005602090815260409182902080546001600160a01b0319166001600160a01b038716908117909155915183815292935090917fe4a3d7d9a21eb6d0c1ebaaa1ad88c130b55df9b98d61973ec3da61725a03e308910160405180910390a250508080610a76906136be565b915050610952565b60026000541415610ad15760405162461bcd60e51b815260206004820152601f60248201527f5265656e7472616e637947756172643a207265656e7472616e742063616c6c006044820152606401610496565b6002600090815533815260046020526040902054610b015760405162461bcd60e51b81526004016104969061346e565b3360009081526004602081815260408084205460065481865260038452828620548652600584528286205483516359de7d4160e11b8152935192966001600160a01b039283169691909216949193610bb493869363b3bcfa829383810193919291829003018186803b158015610b7657600080fd5b505afa158015610b8a573d6000803e3d6000fd5b505050506040513d601f19601f82011682018060405250810190610bae9190613336565b86612160565b90506001600160a01b0383166345e6bdcd85610bcf846136d9565b6040516001600160e01b031960e085901b1681526004810192909252602482015260006044820152606401600060405180830381600087803b158015610c1457600080fd5b505af1158015610c28573d6000803e3d6000fd5b50506040516313771f0760e31b815260048101879052306024820152604481018490526001600160a01b0386169250639bb8f8389150606401600060405180830381600087803b158015610c7b57600080fd5b505af1158015610c8f573d6000803e3d6000fd5b505060405163ef693bed60e01b8152306004820152602481018890526001600160a01b038516925063ef693bed9150604401600060405180830381600087803b158015610cdb57600080fd5b505af1158015610cef573d6000803e3d6000fd5b50505050610d793386846001600160a01b0316637bd2bea76040518163ffffffff1660e01b815260040160206040518083038186803b158015610d3157600080fd5b505afa158015610d45573d6000803e3d6000fd5b505050506040513d601f19601f82011682018060405250810190610d6991906131bf565b6001600160a01b0316919061220e565b50506001600055505050565b6001546001600160a01b0362010000909104163314610db65760405162461bcd60e51b8152600401610496906134a5565b6001600160a01b038116610e0c5760405162461bcd60e51b815260206004820152601860248201527f74726561737572792d616464726573732d69732d7a65726f00000000000000006044820152606401610496565b600a546040516001600160a01b038084169216907f2ac12ebf7dfd56173c73b2e43941f0faed1c3f7fb6f959191a4ab4bdd3d32e2190600090a3600a80546001600160a01b0319166001600160a01b0392909216919091179055565b6001600160a01b038116600090815260046020526040812054819081908190819080610ea65760405162461bcd60e51b815260040161049690613440565b610eaf81612271565b929850965094509150610ec3868587612189565b92505091939590929450565b33600090815260046020526040902054610efb5760405162461bcd60e51b81526004016104969061346e565b336000908152600460208190526040808320546006549151632726b07360e01b8152928301819052926001600160a01b03909116918290632726b0739060240160206040518083038186803b158015610f5357600080fd5b505afa158015610f67573d6000803e3d6000fd5b505050506040513d601f19601f82011682018060405250810190610f8b91906131bf565b90506000826001600160a01b03166336569e776040518163ffffffff1660e01b815260040160206040518083038186803b158015610fc857600080fd5b505afa158015610fdc573d6000803e3d6000fd5b505050506040513d601f19601f8201168201806040525081019061100091906131bf565b60008581526003602052604081205491925061101d828585612601565b9050868110156110645760405162461bcd60e51b81526020600482015260126024820152711c185e5a5b99cb595e18d95cdccb5919589d60721b6044820152606401610496565b61106e8488612795565b846001600160a01b03166345e6bdcd87600061108b868989612881565b6040516001600160e01b031960e086901b168152600481019390935260248301919091526044820152606401600060405180830381600087803b1580156110d157600080fd5b505af11580156110e5573d6000803e3d6000fd5b5050505050505050505050565b6001546001600160a01b03620100009091041633146111235760405162461bcd60e51b8152600401610496906134a5565b6001600160a01b0381166111795760405162461bcd60e51b815260206004820152601960248201527f70726f706f7365642d676f7665726e6f722d69732d7a65726f000000000000006044820152606401610496565b600280546001600160a01b0319166001600160a01b0392909216919091179055565b600260005414156111ee5760405162461bcd60e51b815260206004820152601f60248201527f5265656e7472616e637947756172643a207265656e7472616e742063616c6c006044820152606401610496565b600260009081553381526004602052604090205461121e5760405162461bcd60e51b81526004016104969061346e565b336000908152600460209081526040808320548084526003835281842054845260059092529091205461125a906001600160a01b031683612a35565b600654604080516336569e7760e01b815290519294506001600160a01b039091169182916336569e77916004808301926020929190829003018186803b1580156112a357600080fd5b505afa1580156112b7573d6000803e3d6000fd5b505050506040513d601f19601f820116820180604052508101906112db91906131bf565b6001600160a01b031663760887036003600085815260200190815260200160002054836001600160a01b0316632726b073866040518263ffffffff1660e01b815260040161132b91815260200190565b60206040518083038186803b15801561134357600080fd5b505afa158015611357573d6000803e3d6000fd5b505050506040513d601f19601f8201168201806040525081019061137b91906131bf565b6040516001600160e01b031960e085901b16815260048101929092526001600160a01b031660248201523060448201819052606482015260848101869052600060a482015260c401600060405180830381600087803b1580156113dd57600080fd5b505af11580156113f1573d6000803e3d6000fd5b505060016000555050505050565b6001600160a01b038116600090815260046020526040812054806114355760405162461bcd60e51b815260040161049690613440565b600654604051632726b07360e01b8152600481018390526000916001600160a01b031690632726b0739060240160206040518083038186803b15801561147a57600080fd5b505afa15801561148e573d6000803e3d6000fd5b505050506040513d601f19601f820116820180604052508101906114b291906131bf565b90506000600660009054906101000a90046001600160a01b03166001600160a01b03166336569e776040518163ffffffff1660e01b815260040160206040518083038186803b15801561150457600080fd5b505afa158015611518573d6000803e3d6000fd5b505050506040513d601f19601f8201168201806040525081019061153c91906131bf565b600084815260036020526040902054909150611559818484612601565b9695505050505050565b3360009081526004602052604090205461158f5760405162461bcd60e51b81526004016104969061346e565b3360009081526004602081815260408084205460065482516336569e7760e01b8152925191956001600160a01b0390911694909385936336569e7793818401939091829003018186803b1580156115e557600080fd5b505afa1580156115f9573d6000803e3d6000fd5b505050506040513d601f19601f8201168201806040525081019061161d91906131bf565b6000848152600360205260408120549192509061163b908390612082565b905080851115611649578094505b826001600160a01b03166345e6bdcd8560006116e486886001600160a01b0316632726b0738b6040518263ffffffff1660e01b815260040161168d91815260200190565b60206040518083038186803b1580156116a557600080fd5b505afa1580156116b9573d6000803e3d6000fd5b505050506040513d601f19601f820116820180604052508101906116dd91906131bf565b8a8c612bd1565b6040516001600160e01b031960e086901b168152600481019390935260248301919091526044820152606401600060405180830381600087803b15801561172a57600080fd5b505af115801561173e573d6000803e3d6000fd5b50505050826001600160a01b031663f9f30db6853061175c89612d6f565b6040516001600160e01b031960e086901b16815260048101939093526001600160a01b0390911660248301526044820152606401600060405180830381600087803b1580156117aa57600080fd5b505af11580156117be573d6000803e3d6000fd5b5050600754604051634538c4eb60e01b81523060048201526001600160a01b0391821660248201529085169250634538c4eb915060440160206040518083038186803b15801561180d57600080fd5b505afa158015611821573d6000803e3d6000fd5b505050506040513d601f19601f820116820180604052508101906118459190613336565b6118a9576007546040516328ec8bf160e21b81526001600160a01b0391821660048201529083169063a3b22fc490602401600060405180830381600087803b15801561189057600080fd5b505af11580156118a4573d6000803e3d6000fd5b505050505b60075460405163ef693bed60e01b8152336004820152602481018790526001600160a01b039091169063ef693bed90604401600060405180830381600087803b1580156118f557600080fd5b505af1158015611909573d6000803e3d6000fd5b505050505050505050565b6001600160a01b0381166000908152600460205260408120548061194a5760405162461bcd60e51b815260040161049690613440565b600654604080516336569e7760e01b815290516000926001600160a01b0316916336569e77916004808301926020929190829003018186803b15801561198f57600080fd5b505afa1580156119a3573d6000803e3d6000fd5b505050506040513d601f19601f820116820180604052508101906119c791906131bf565b600654604051632726b07360e01b8152600481018590529192506000916001600160a01b0390911690632726b0739060240160206040518083038186803b158015611a1157600080fd5b505afa158015611a25573d6000803e3d6000fd5b505050506040513d601f19601f82011682018060405250810190611a4991906131bf565b600084815260036020526040908190205490516309092f9760e21b81529192506001600160a01b03841691632424be5c91611a9a9185906004019182526001600160a01b0316602082015260400190565b604080518083038186803b158015611ab157600080fd5b505afa158015611ac5573d6000803e3d6000fd5b505050506040513d601f19601f82011682018060405250810190611ae9919061338f565b5095945050505050565b600a546001600160a01b0316611b3e5760405162461bcd60e51b815260206004820152601060248201526f1d1c99585cdd5c9e4b5b9bdd0b5cd95d60821b6044820152606401610496565b6040516370a0823160e01b81523060048201526000906001600160a01b038316906370a082319060240160206040518083038186803b158015611b8057600080fd5b505afa158015611b94573d6000803e3d6000fd5b505050506040513d601f19601f82011682018060405250810190611bb89190613336565b600a54909150611bd5906001600160a01b0384811691168361220e565b5050565b33600090815260046020526040902054611c055760405162461bcd60e51b81526004016104969061346e565b33600081815260046020526040902054611c1f9183611f13565b50565b6001546001600160a01b0362010000909104163314611c535760405162461bcd60e51b8152600401610496906134a5565b6001600160a01b038416611ca95760405162461bcd60e51b815260206004820152601a60248201527f6d63644d616e616765722d616464726573732d69732d7a65726f0000000000006044820152606401610496565b6001600160a01b038316611cff5760405162461bcd60e51b815260206004820152601a60248201527f6d63644461694a6f696e2d616464726573732d69732d7a65726f0000000000006044820152606401610496565b6001600160a01b038216611d555760405162461bcd60e51b815260206004820152601760248201527f6d636453706f742d616464726573732d69732d7a65726f0000000000000000006044820152606401610496565b6001600160a01b038116611da45760405162461bcd60e51b81526020600482015260166024820152756d63644a75672d616464726573732d69732d7a65726f60501b6044820152606401610496565b600680546001600160a01b038681166001600160a01b031992831681179093556007805487831690841681179091556008805487841690851681179091556009805493871693909416831790935560408051948552602085019190915283019190915260608201527f1c6ea4f4d62e36754911439dfcc968028b80950a549c66220947adb63435bee39060800160405180910390a150505050565b6002546001600160a01b03163314611e995760405162461bcd60e51b815260206004820152601960248201527f6e6f742d7468652d70726f706f7365642d676f7665726e6f72000000000000006044820152606401610496565b6002546001546040516001600160a01b039283169262010000909204909116907fd4459d5b8b913cab0244230fd9b1c08b6ceace7fe9230e60d0f74cbffdf849d090600090a3600280546001805462010000600160b01b0319166001600160a01b03831662010000021790556001600160a01b0319169055565b6001600160a01b038116611f695760405162461bcd60e51b815260206004820152601960248201527f6e65772d6f776e65722d616464726573732d69732d7a65726f000000000000006044820152606401610496565b6001600160a01b0382166000908152600460205260409020548314611fc45760405162461bcd60e51b8152602060048201526011602482015270696e76616c69642d7661756c742d6e756d60781b6044820152606401610496565b6001600160a01b0381166000908152600460205260409020541561202a5760405162461bcd60e51b815260206004820152601c60248201527f6e65772d6f776e65722d6f776e732d616e6f746865722d7661756c74000000006044820152606401610496565b6001600160a01b03808216600081815260046020526040808220879055928516808252838220829055925191929186917fec79eaf44c34230fee5c5b284135bd6df3c751840f31d612c29dab5ee349e2ac91a4505050565b600080600080856001600160a01b031663d9638d36866040518263ffffffff1660e01b81526004016120b691815260200190565b60a06040518083038186803b1580156120ce57600080fd5b505afa1580156120e2573d6000803e3d6000fd5b505050506040513d601f19601f8201168201806040525081019061210691906133b2565b50935050925092506000676765c793fa10079d601b1b8385612128919061365c565b612132908461367b565b61213c9190613528565b9050606461214b82606361365c565b6121559190613528565b979650505050505050565b600061216d83601261367b565b61217890600a61358e565b612182908361365c565b9392505050565b60008361219857506000612182565b816121a65750600019612182565b826121f35760405162461bcd60e51b815260206004820152601760248201527f636f6c6c61746572616c2d726174652d69732d7a65726f0000000000000000006044820152606401610496565b6122066122008585612d86565b83612dba565b949350505050565b6040516001600160a01b03831660248201526044810182905261053990849063a9059cbb60e01b906064015b60408051601f198184030181529190526020810180516001600160e01b03166001600160e01b031990931692909217909152612dda565b600654604051632726b07360e01b81526004810183905260009182918291829182916001600160a01b031690632726b0739060240160206040518083038186803b1580156122be57600080fd5b505afa1580156122d2573d6000803e3d6000fd5b505050506040513d601f19601f820116820180604052508101906122f691906131bf565b90506000600660009054906101000a90046001600160a01b03166001600160a01b03166336569e776040518163ffffffff1660e01b815260040160206040518083038186803b15801561234857600080fd5b505afa15801561235c573d6000803e3d6000fd5b505050506040513d601f19601f8201168201806040525081019061238091906131bf565b600088815260036020526040808220546008549151636cb1c69b60e11b815260048101829052939450926001600160a01b039091169063d9638d3690602401604080518083038186803b1580156123d657600080fd5b505afa1580156123ea573d6000803e3d6000fd5b505050506040513d601f19601f8201168201806040525081019061240e9190613261565b6040516309092f9760e21b8152600481018590526001600160a01b038781166024830152919350600092508291861690632424be5c90604401604080518083038186803b15801561245e57600080fd5b505afa158015612472573d6000803e3d6000fd5b505050506040513d601f19601f82011682018060405250810190612496919061338f565b915091506000806000876001600160a01b031663d9638d36886040518263ffffffff1660e01b81526004016124cd91815260200190565b60a06040518083038186803b1580156124e557600080fd5b505afa1580156124f9573d6000803e3d6000fd5b505050506040513d601f19601f8201168201806040525081019061251d91906133b2565b9450509350935050849c506125bd84848a6001600160a01b0316636c25b3468d6040518263ffffffff1660e01b815260040161256891906001600160a01b0391909116815260200190565b60206040518083038186803b15801561258057600080fd5b505afa158015612594573d6000803e3d6000fd5b505050506040513d601f19601f820116820180604052508101906125b89190613336565b612eac565b9a506125d4676765c793fa10079d601b1b82613528565b9950633b9aca006125e58784612f2d565b6125ef9190613528565b9b505050505050505050509193509193565b6040516309092f9760e21b8152600481018490526001600160a01b0383811660248301526000918291841690632424be5c90604401604080518083038186803b15801561264d57600080fd5b505afa158015612661573d6000803e3d6000fd5b505050506040513d601f19601f82011682018060405250810190612685919061338f565b604051636cb1c69b60e11b815260048101889052909250600091506001600160a01b0385169063d9638d369060240160a06040518083038186803b1580156126cc57600080fd5b505afa1580156126e0573d6000803e3d6000fd5b505050506040513d601f19601f8201168201806040525081019061270491906133b2565b5050604051633612d9a360e11b81526001600160a01b0389811660048301529294506000935091871691636c25b346915060240160206040518083038186803b15801561275057600080fd5b505afa158015612764573d6000803e3d6000fd5b505050506040513d601f19601f820116820180604052508101906127889190613336565b9050612155838383612eac565b6007546001600160a01b03166127c1736b175474e89094c44da98b954eedeac495271d0f333085612f46565b6007546127ee90736b175474e89094c44da98b954eedeac495271d0f906001600160a01b03166000612f84565b60075461281a90736b175474e89094c44da98b954eedeac495271d0f906001600160a01b031684612f84565b604051633b4da69f60e01b81526001600160a01b03848116600483015260248201849052821690633b4da69f90604401600060405180830381600087803b15801561286457600080fd5b505af1158015612878573d6000803e3d6000fd5b50505050505050565b6040516309092f9760e21b8152600481018490526001600160a01b0383811660248301526000918291841690632424be5c90604401604080518083038186803b1580156128cd57600080fd5b505afa1580156128e1573d6000803e3d6000fd5b505050506040513d601f19601f82011682018060405250810190612905919061338f565b604051636cb1c69b60e11b815260048101889052909250600091506001600160a01b0385169063d9638d369060240160a06040518083038186803b15801561294c57600080fd5b505afa158015612960573d6000803e3d6000fd5b505050506040513d601f19601f8201168201806040525081019061298491906133b2565b5050604051633612d9a360e11b81526001600160a01b0389811660048301529294506000935091871691636c25b346915060240160206040518083038186803b1580156129d057600080fd5b505afa1580156129e4573d6000803e3d6000fd5b505050506040513d601f19601f82011682018060405250810190612a089190613336565b9050612a148282613528565b935082841115612a2c57612a27836136d9565b612155565b612155846136d9565b6000808390506000816001600160a01b0316637bd2bea76040518163ffffffff1660e01b815260040160206040518083038186803b158015612a7657600080fd5b505afa158015612a8a573d6000803e3d6000fd5b505050506040513d601f19601f82011682018060405250810190612aae91906131bf565b9050612ac56001600160a01b038216333087612f46565b612ada6001600160a01b038216866000612f84565b612aee6001600160a01b0382168686612f84565b604051633b4da69f60e01b8152306004820152602481018590526001600160a01b03831690633b4da69f90604401600060405180830381600087803b158015612b3657600080fd5b505af1158015612b4a573d6000803e3d6000fd5b50505050612bc8826001600160a01b031663b3bcfa826040518163ffffffff1660e01b815260040160206040518083038186803b158015612b8a57600080fd5b505afa158015612b9e573d6000803e3d6000fd5b505050506040513d601f19601f82011682018060405250810190612bc29190613336565b85612160565b95945050505050565b60095460008381526003602052604080822054905163089c54b560e31b81526004810191909152909182916001600160a01b03909116906344e2a5a890602401602060405180830381600087803b158015612c2b57600080fd5b505af1158015612c3f573d6000803e3d6000fd5b505050506040513d601f19601f82011682018060405250810190612c639190613336565b604051633612d9a360e11b81526001600160a01b038781166004830152919250600091881690636c25b3469060240160206040518083038186803b158015612caa57600080fd5b505afa158015612cbe573d6000803e3d6000fd5b505050506040513d601f19601f82011682018060405250810190612ce29190613336565b9050612cf9676765c793fa10079d601b1b8561365c565b811015612d65578181612d17676765c793fa10079d601b1b8761365c565b612d21919061367b565b612d2b9190613528565b9250612d42676765c793fa10079d601b1b8561365c565b612d4c838561365c565b10612d575782612d62565b612d628360016134cf565b92505b5050949350505050565b600061076e676765c793fa10079d601b1b8361365c565b6000670de0b6b3a7640000612d9c600282613528565b612da6848661365c565b612db09190613510565b6121829190613528565b600081612dc8600282613528565b612da6670de0b6b3a76400008661365c565b6000612e2f826040518060400160405280602081526020017f5361666545524332303a206c6f772d6c6576656c2063616c6c206661696c6564815250856001600160a01b03166130a89092919063ffffffff16565b8051909150156105395780806020019051810190612e4d91906132fe565b6105395760405162461bcd60e51b815260206004820152602a60248201527f5361666545524332303a204552433230206f7065726174696f6e20646964206e6044820152691bdd081cdd58d8d9595960b21b6064820152608401610496565b6000612eb8838561365c565b821015612f2357600082612ecc858761365c565b612ed6919061367b565b9050612eed676765c793fa10079d601b1b82613528565b915080612f05676765c793fa10079d601b1b8461365c565b10612f105781612f1b565b612f1b826001613510565b915050612182565b5060009392505050565b6000676765c793fa10079d601b1b612d9c600282613528565b6040516001600160a01b0380851660248301528316604482015260648101829052612f7e9085906323b872dd60e01b9060840161223a565b50505050565b80158061300d5750604051636eb1769f60e11b81523060048201526001600160a01b03838116602483015284169063dd62ed3e9060440160206040518083038186803b158015612fd357600080fd5b505afa158015612fe7573d6000803e3d6000fd5b505050506040513d601f19601f8201168201806040525081019061300b9190613336565b155b6130785760405162461bcd60e51b815260206004820152603660248201527f5361666545524332303a20617070726f76652066726f6d206e6f6e2d7a65726f60448201527520746f206e6f6e2d7a65726f20616c6c6f77616e636560501b6064820152608401610496565b6040516001600160a01b03831660248201526044810182905261053990849063095ea7b360e01b9060640161223a565b6060612206848460008585843b6131015760405162461bcd60e51b815260206004820152601d60248201527f416464726573733a2063616c6c20746f206e6f6e2d636f6e74726163740000006044820152606401610496565b600080866001600160a01b0316858760405161311d91906133f1565b60006040518083038185875af1925050503d806000811461315a576040519150601f19603f3d011682016040523d82523d6000602084013e61315f565b606091505b5091509150612d6282828660608315613179575081612182565b8251156131895782518084602001fd5b8160405162461bcd60e51b8152600401610496919061340d565b6000602082840312156131b4578081fd5b813561218281613709565b6000602082840312156131d0578081fd5b815161218281613709565b600080600080608085870312156131f0578283fd5b84356131fb81613709565b9350602085013561320b81613709565b9250604085013561321b81613709565b9150606085013561322b81613709565b939692955090935050565b60008060408385031215613248578182fd5b823561325381613709565b946020939093013593505050565b60008060408385031215613273578182fd5b825161327e81613709565b6020939093015192949293505050565b600080602083850312156132a0578182fd5b823567ffffffffffffffff808211156132b7578384fd5b818501915085601f8301126132ca578384fd5b8135818111156132d8578485fd5b8660208260051b85010111156132ec578485fd5b60209290920196919550909350505050565b60006020828403121561330f578081fd5b81518015158114612182578182fd5b60006020828403121561332f578081fd5b5035919050565b600060208284031215613347578081fd5b5051919050565b600080600060608486031215613362578283fd5b83359250602084013561337481613709565b9150604084013561338481613709565b809150509250925092565b600080604083850312156133a1578182fd5b505080516020909101519092909150565b600080600080600060a086880312156133c9578081fd5b5050835160208501516040860151606087015160809097015192989197509594509092509050565b60008251613403818460208701613692565b9190910192915050565b600060208252825180602084015261342c816040850160208701613692565b601f01601f19169190910160400192915050565b60208082526014908201527334b73b30b634b216bb30bab63a16b73ab6b132b960611b604082015260600190565b6020808252601c908201527f63616c6c65722d646f65736e27742d6f776e2d616e792d7661756c7400000000604082015260600190565b60208082526010908201526f3737ba16ba343296b3b7bb32b93737b960811b604082015260600190565b600080821280156001600160ff1b03849003851316156134f1576134f16136f3565b600160ff1b839003841281161561350a5761350a6136f3565b50500190565b60008219821115613523576135236136f3565b500190565b60008261354357634e487b7160e01b81526012600452602481fd5b500490565b80825b600180861161355a5750613585565b81870482111561356c5761356c6136f3565b8086161561357957918102915b9490941c93800261354b565b94509492505050565b600061218260001984846000826135a757506001612182565b816135b457506000612182565b81600181146135ca57600281146135d457613601565b6001915050612182565b60ff8411156135e5576135e56136f3565b6001841b9150848211156135fb576135fb6136f3565b50612182565b5060208310610133831016604e8410600b8410161715613634575081810a8381111561362f5761362f6136f3565b612182565b6136418484846001613548565b808604821115613653576136536136f3565b02949350505050565b6000816000190483118215151615613676576136766136f3565b500290565b60008282101561368d5761368d6136f3565b500390565b60005b838110156136ad578181015183820152602001613695565b83811115612f7e5750506000910152565b60006000198214156136d2576136d26136f3565b5060010190565b6000600160ff1b8214156136ef576136ef6136f3565b0390565b634e487b7160e01b600052601160045260246000fd5b6001600160a01b0381168114611c1f57600080fdfea2646970667358221220dd49a56e2ad61b8b9b52c6b9a78b03a556971281c5cfdd100e1a900d20535fe764736f6c63430008030033",
  "devdoc": {
    "kind": "dev",
    "methods": {
      "acceptGovernorship()": {
        "details": "Allows new governor to accept governorship of the contract."
      },
      "addGemJoin(address[])": {
        "details": "Add gemJoin adapter address from Maker in mapping",
        "params": {
          "_gemJoins": "Array of gem join addresses"
        }
      },
      "borrow(uint256)": {
        "details": "In edge case, when we hit DAI mint limit, we might end up borrowing less than what is being asked.",
        "params": {
          "_amount": "Dai amount to borrow. Actual borrow amount may be less than \"amount\""
        }
      },
      "createVault(bytes32)": {
        "details": "Store caller of this function as vault owner.",
        "params": {
          "_collateralType": "Collateral type for Maker vault"
        },
        "returns": {
          "_vaultNum": "Newly created vault number"
        }
      },
      "depositCollateral(uint256)": {
        "details": "Deposit ERC20 collateral.",
        "params": {
          "_amount": "ERC20 amount to deposit."
        }
      },
      "getVaultBalance(address)": {
        "details": "Get current collateral balance of vault.",
        "params": {
          "_vaultOwner": "Address of vault owner"
        }
      },
      "getVaultDebt(address)": {
        "details": "Get current dai debt of vault.",
        "params": {
          "_vaultOwner": "Address of vault owner"
        }
      },
      "getVaultInfo(address)": {
        "details": "Get vault info",
        "params": {
          "_vaultOwner": "Address of vault owner"
        }
      },
      "maxAvailableDai(bytes32)": {
        "params": {
          "_collateralType": "Collateral type."
        }
      },
      "payback(uint256)": {
        "details": "Payback borrowed DAI.",
        "params": {
          "_amount": "Dai amount to payback."
        }
      },
      "sweepErc20(address)": {
        "details": "sweep given ERC20 token to treasury pool"
      },
      "transferGovernorship(address)": {
        "details": "Transfers governorship of the contract to a new account (`proposedGovernor`). Can only be called by the current owner."
      },
      "transferVaultOwnership(address)": {
        "params": {
          "_newOwner": "Address of new owner of vault"
        }
      },
      "transferVaultOwnership(uint256,address,address)": {
        "params": {
          "_newOwner": "Address of new owner of vault",
          "_owner": "Address of owner of vault",
          "_vaultNum": "Number of vault being transferred"
        }
      },
      "updateMCDAddresses(address,address,address,address)": {
        "details": "Update MCD addresses."
      },
      "whatWouldWithdrawDo(address,uint256)": {
        "details": "Calculate state based on withdraw amount.",
        "params": {
          "_amount": "Collateral amount to withdraw.",
          "_vaultOwner": "Address of vault owner"
        }
      },
      "withdrawCollateral(uint256)": {
        "details": "Withdraw collateral.",
        "params": {
          "_amount": "Collateral amount to withdraw."
        }
      }
    },
    "version": 1
  },
  "userdoc": {
    "kind": "user",
    "methods": {
      "borrow(uint256)": {
        "notice": "Borrow DAI."
      },
      "createVault(bytes32)": {
        "notice": "Create new Maker vault"
      },
      "maxAvailableDai(bytes32)": {
        "notice": "Get max available DAI safe to borrow for given collateral type."
      },
      "transferVaultOwnership(address)": {
        "notice": "Transfer vault ownership to another address/strategy"
      },
      "transferVaultOwnership(uint256,address,address)": {
        "notice": "Transfer vault ownership to another address/strategy"
      },
      "updateTreasury(address)": {
        "notice": "Update treasure address"
      }
    },
    "version": 1
  },
  "storageLayout": {
    "storage": [
      {
        "astId": 938,
        "contract": "contracts/strategies/maker/CollateralManager.sol:CollateralManager",
        "label": "_status",
        "offset": 0,
        "slot": "0",
        "type": "t_uint256"
      },
      {
        "astId": 887,
        "contract": "contracts/strategies/maker/CollateralManager.sol:CollateralManager",
        "label": "_initialized",
        "offset": 0,
        "slot": "1",
        "type": "t_bool"
      },
      {
        "astId": 890,
        "contract": "contracts/strategies/maker/CollateralManager.sol:CollateralManager",
        "label": "_initializing",
        "offset": 1,
        "slot": "1",
        "type": "t_bool"
      },
      {
        "astId": 3080,
        "contract": "contracts/strategies/maker/CollateralManager.sol:CollateralManager",
        "label": "governor",
        "offset": 2,
        "slot": "1",
        "type": "t_address"
      },
      {
        "astId": 3082,
        "contract": "contracts/strategies/maker/CollateralManager.sol:CollateralManager",
        "label": "proposedGovernor",
        "offset": 0,
        "slot": "2",
        "type": "t_address"
      },
      {
        "astId": 15418,
        "contract": "contracts/strategies/maker/CollateralManager.sol:CollateralManager",
        "label": "collateralType",
        "offset": 0,
        "slot": "3",
        "type": "t_mapping(t_uint256,t_bytes32)"
      },
      {
        "astId": 15423,
        "contract": "contracts/strategies/maker/CollateralManager.sol:CollateralManager",
        "label": "vaultNum",
        "offset": 0,
        "slot": "4",
        "type": "t_mapping(t_address,t_uint256)"
      },
      {
        "astId": 15427,
        "contract": "contracts/strategies/maker/CollateralManager.sol:CollateralManager",
        "label": "mcdGemJoin",
        "offset": 0,
        "slot": "5",
        "type": "t_mapping(t_bytes32,t_address)"
      },
      {
        "astId": 15434,
        "contract": "contracts/strategies/maker/CollateralManager.sol:CollateralManager",
        "label": "mcdManager",
        "offset": 0,
        "slot": "6",
        "type": "t_address"
      },
      {
        "astId": 15437,
        "contract": "contracts/strategies/maker/CollateralManager.sol:CollateralManager",
        "label": "mcdDaiJoin",
        "offset": 0,
        "slot": "7",
        "type": "t_address"
      },
      {
        "astId": 15440,
        "contract": "contracts/strategies/maker/CollateralManager.sol:CollateralManager",
        "label": "mcdSpot",
        "offset": 0,
        "slot": "8",
        "type": "t_address"
      },
      {
        "astId": 15443,
        "contract": "contracts/strategies/maker/CollateralManager.sol:CollateralManager",
        "label": "mcdJug",
        "offset": 0,
        "slot": "9",
        "type": "t_address"
      },
      {
        "astId": 15445,
        "contract": "contracts/strategies/maker/CollateralManager.sol:CollateralManager",
        "label": "treasury",
        "offset": 0,
        "slot": "10",
        "type": "t_address"
      }
    ],
    "types": {
      "t_address": {
        "encoding": "inplace",
        "label": "address",
        "numberOfBytes": "20"
      },
      "t_bool": {
        "encoding": "inplace",
        "label": "bool",
        "numberOfBytes": "1"
      },
      "t_bytes32": {
        "encoding": "inplace",
        "label": "bytes32",
        "numberOfBytes": "32"
      },
      "t_mapping(t_address,t_uint256)": {
        "encoding": "mapping",
        "key": "t_address",
        "label": "mapping(address => uint256)",
        "numberOfBytes": "32",
        "value": "t_uint256"
      },
      "t_mapping(t_bytes32,t_address)": {
        "encoding": "mapping",
        "key": "t_bytes32",
        "label": "mapping(bytes32 => address)",
        "numberOfBytes": "32",
        "value": "t_address"
      },
      "t_mapping(t_uint256,t_bytes32)": {
        "encoding": "mapping",
        "key": "t_uint256",
        "label": "mapping(uint256 => bytes32)",
        "numberOfBytes": "32",
        "value": "t_bytes32"
      },
      "t_uint256": {
        "encoding": "inplace",
        "label": "uint256",
        "numberOfBytes": "32"
      }
    }
  }
}