{
  "address": "0xb440a60d3AFc6b9c213072aEcFE8F3F7fdDbeFfF",
  "abi": [
    {
      "inputs": [
        {
          "internalType": "string",
          "name": "_name",
          "type": "string"
        },
        {
          "internalType": "string",
          "name": "_symbol",
          "type": "string"
        },
        {
          "internalType": "address",
          "name": "_token",
          "type": "address"
        }
      ],
      "stateMutability": "nonpayable",
      "type": "constructor"
    },
    {
      "anonymous": false,
      "inputs": [
        {
          "indexed": true,
          "internalType": "address",
          "name": "owner",
          "type": "address"
        },
        {
          "indexed": true,
          "internalType": "address",
          "name": "spender",
          "type": "address"
        },
        {
          "indexed": false,
          "internalType": "uint256",
          "name": "value",
          "type": "uint256"
        }
      ],
      "name": "Approval",
      "type": "event"
    },
    {
      "anonymous": false,
      "inputs": [
        {
          "indexed": true,
          "internalType": "address",
          "name": "owner",
          "type": "address"
        },
        {
          "indexed": false,
          "internalType": "uint256",
          "name": "shares",
          "type": "uint256"
        },
        {
          "indexed": false,
          "internalType": "uint256",
          "name": "amount",
          "type": "uint256"
        }
      ],
      "name": "Deposit",
      "type": "event"
    },
    {
      "anonymous": false,
      "inputs": [
        {
          "indexed": false,
          "internalType": "address",
          "name": "account",
          "type": "address"
        }
      ],
      "name": "Open",
      "type": "event"
    },
    {
      "anonymous": false,
      "inputs": [
        {
          "indexed": false,
          "internalType": "address",
          "name": "account",
          "type": "address"
        }
      ],
      "name": "Paused",
      "type": "event"
    },
    {
      "anonymous": false,
      "inputs": [
        {
          "indexed": false,
          "internalType": "address",
          "name": "account",
          "type": "address"
        }
      ],
      "name": "Shutdown",
      "type": "event"
    },
    {
      "anonymous": false,
      "inputs": [
        {
          "indexed": true,
          "internalType": "address",
          "name": "from",
          "type": "address"
        },
        {
          "indexed": true,
          "internalType": "address",
          "name": "to",
          "type": "address"
        },
        {
          "indexed": false,
          "internalType": "uint256",
          "name": "value",
          "type": "uint256"
        }
      ],
      "name": "Transfer",
      "type": "event"
    },
    {
      "anonymous": false,
      "inputs": [
        {
          "indexed": false,
          "internalType": "address",
          "name": "account",
          "type": "address"
        }
      ],
      "name": "Unpaused",
      "type": "event"
    },
    {
      "anonymous": false,
      "inputs": [
        {
          "indexed": true,
          "internalType": "address",
          "name": "previousFeeCollector",
          "type": "address"
        },
        {
          "indexed": true,
          "internalType": "address",
          "name": "newFeeCollector",
          "type": "address"
        }
      ],
      "name": "UpdatedFeeCollector",
      "type": "event"
    },
    {
      "anonymous": false,
      "inputs": [
        {
          "indexed": true,
          "internalType": "address",
          "name": "previousGovernor",
          "type": "address"
        },
        {
          "indexed": true,
          "internalType": "address",
          "name": "proposedGovernor",
          "type": "address"
        }
      ],
      "name": "UpdatedGovernor",
      "type": "event"
    },
    {
      "anonymous": false,
      "inputs": [
        {
          "indexed": true,
          "internalType": "address",
          "name": "previousPoolRewards",
          "type": "address"
        },
        {
          "indexed": true,
          "internalType": "address",
          "name": "newPoolRewards",
          "type": "address"
        }
      ],
      "name": "UpdatedPoolRewards",
      "type": "event"
    },
    {
      "anonymous": false,
      "inputs": [
        {
          "indexed": false,
          "internalType": "uint256",
          "name": "previousWithdrawFee",
          "type": "uint256"
        },
        {
          "indexed": false,
          "internalType": "uint256",
          "name": "newWithdrawFee",
          "type": "uint256"
        }
      ],
      "name": "UpdatedWithdrawFee",
      "type": "event"
    },
    {
      "anonymous": false,
      "inputs": [
        {
          "indexed": true,
          "internalType": "address",
          "name": "owner",
          "type": "address"
        },
        {
          "indexed": false,
          "internalType": "uint256",
          "name": "shares",
          "type": "uint256"
        },
        {
          "indexed": false,
          "internalType": "uint256",
          "name": "amount",
          "type": "uint256"
        }
      ],
      "name": "Withdraw",
      "type": "event"
    },
    {
      "inputs": [],
      "name": "DOMAIN_SEPARATOR",
      "outputs": [
        {
          "internalType": "bytes32",
          "name": "",
          "type": "bytes32"
        }
      ],
      "stateMutability": "view",
      "type": "function"
    },
    {
      "inputs": [],
      "name": "MAX_BPS",
      "outputs": [
        {
          "internalType": "uint256",
          "name": "",
          "type": "uint256"
        }
      ],
      "stateMutability": "view",
      "type": "function"
    },
    {
      "inputs": [],
      "name": "VERSION",
      "outputs": [
        {
          "internalType": "string",
          "name": "",
          "type": "string"
        }
      ],
      "stateMutability": "view",
      "type": "function"
    },
    {
      "inputs": [],
      "name": "acceptGovernorship",
      "outputs": [],
      "stateMutability": "nonpayable",
      "type": "function"
    },
    {
      "inputs": [
        {
          "internalType": "address",
          "name": "_keeperAddress",
          "type": "address"
        }
      ],
      "name": "addKeeper",
      "outputs": [],
      "stateMutability": "nonpayable",
      "type": "function"
    },
    {
      "inputs": [
        {
          "internalType": "address",
          "name": "_maintainerAddress",
          "type": "address"
        }
      ],
      "name": "addMaintainer",
      "outputs": [],
      "stateMutability": "nonpayable",
      "type": "function"
    },
    {
      "inputs": [
        {
          "internalType": "address",
          "name": "_addressToAdd",
          "type": "address"
        }
      ],
      "name": "addToFeeWhitelist",
      "outputs": [],
      "stateMutability": "nonpayable",
      "type": "function"
    },
    {
      "inputs": [
        {
          "internalType": "address",
          "name": "owner",
          "type": "address"
        },
        {
          "internalType": "address",
          "name": "spender",
          "type": "address"
        }
      ],
      "name": "allowance",
      "outputs": [
        {
          "internalType": "uint256",
          "name": "",
          "type": "uint256"
        }
      ],
      "stateMutability": "view",
      "type": "function"
    },
    {
      "inputs": [
        {
          "internalType": "address",
          "name": "spender",
          "type": "address"
        },
        {
          "internalType": "uint256",
          "name": "amount",
          "type": "uint256"
        }
      ],
      "name": "approve",
      "outputs": [
        {
          "internalType": "bool",
          "name": "",
          "type": "bool"
        }
      ],
      "stateMutability": "nonpayable",
      "type": "function"
    },
    {
      "inputs": [
        {
          "internalType": "address",
          "name": "_strategy",
          "type": "address"
        }
      ],
      "name": "availableCreditLimit",
      "outputs": [
        {
          "internalType": "uint256",
          "name": "",
          "type": "uint256"
        }
      ],
      "stateMutability": "view",
      "type": "function"
    },
    {
      "inputs": [
        {
          "internalType": "address",
          "name": "account",
          "type": "address"
        }
      ],
      "name": "balanceOf",
      "outputs": [
        {
          "internalType": "uint256",
          "name": "",
          "type": "uint256"
        }
      ],
      "stateMutability": "view",
      "type": "function"
    },
    {
      "inputs": [
        {
          "internalType": "uint256",
          "name": "_amount",
          "type": "uint256"
        }
      ],
      "name": "calculateMintage",
      "outputs": [
        {
          "internalType": "uint256",
          "name": "_shares",
          "type": "uint256"
        }
      ],
      "stateMutability": "view",
      "type": "function"
    },
    {
      "inputs": [
        {
          "internalType": "uint256",
          "name": "_amount",
          "type": "uint256"
        }
      ],
      "name": "convertFrom18",
      "outputs": [
        {
          "internalType": "uint256",
          "name": "",
          "type": "uint256"
        }
      ],
      "stateMutability": "view",
      "type": "function"
    },
    {
      "inputs": [],
      "name": "decimalConversionFactor",
      "outputs": [
        {
          "internalType": "uint256",
          "name": "",
          "type": "uint256"
        }
      ],
      "stateMutability": "view",
      "type": "function"
    },
    {
      "inputs": [],
      "name": "decimals",
      "outputs": [
        {
          "internalType": "uint8",
          "name": "",
          "type": "uint8"
        }
      ],
      "stateMutability": "view",
      "type": "function"
    },
    {
      "inputs": [
        {
          "internalType": "address",
          "name": "spender",
          "type": "address"
        },
        {
          "internalType": "uint256",
          "name": "subtractedValue",
          "type": "uint256"
        }
      ],
      "name": "decreaseAllowance",
      "outputs": [
        {
          "internalType": "bool",
          "name": "",
          "type": "bool"
        }
      ],
      "stateMutability": "nonpayable",
      "type": "function"
    },
    {
      "inputs": [
        {
          "internalType": "uint256",
          "name": "_amount",
          "type": "uint256"
        }
      ],
      "name": "deposit",
      "outputs": [],
      "stateMutability": "nonpayable",
      "type": "function"
    },
    {
      "inputs": [
        {
          "internalType": "uint256",
          "name": "_amount",
          "type": "uint256"
        }
      ],
      "name": "depositAndClaim",
      "outputs": [],
      "stateMutability": "nonpayable",
      "type": "function"
    },
    {
      "inputs": [
        {
          "internalType": "uint256",
          "name": "_amount",
          "type": "uint256"
        },
        {
          "internalType": "uint256",
          "name": "_deadline",
          "type": "uint256"
        },
        {
          "internalType": "uint8",
          "name": "_v",
          "type": "uint8"
        },
        {
          "internalType": "bytes32",
          "name": "_r",
          "type": "bytes32"
        },
        {
          "internalType": "bytes32",
          "name": "_s",
          "type": "bytes32"
        }
      ],
      "name": "depositWithPermit",
      "outputs": [],
      "stateMutability": "nonpayable",
      "type": "function"
    },
    {
      "inputs": [
        {
          "internalType": "address",
          "name": "_strategy",
          "type": "address"
        }
      ],
      "name": "excessDebt",
      "outputs": [
        {
          "internalType": "uint256",
          "name": "",
          "type": "uint256"
        }
      ],
      "stateMutability": "view",
      "type": "function"
    },
    {
      "inputs": [],
      "name": "feeCollector",
      "outputs": [
        {
          "internalType": "address",
          "name": "",
          "type": "address"
        }
      ],
      "stateMutability": "view",
      "type": "function"
    },
    {
      "inputs": [],
      "name": "feeWhitelist",
      "outputs": [
        {
          "internalType": "address[]",
          "name": "",
          "type": "address[]"
        }
      ],
      "stateMutability": "view",
      "type": "function"
    },
    {
      "inputs": [],
      "name": "getStrategies",
      "outputs": [
        {
          "internalType": "address[]",
          "name": "",
          "type": "address[]"
        }
      ],
      "stateMutability": "view",
      "type": "function"
    },
    {
      "inputs": [],
      "name": "getWithdrawQueue",
      "outputs": [
        {
          "internalType": "address[]",
          "name": "",
          "type": "address[]"
        }
      ],
      "stateMutability": "view",
      "type": "function"
    },
    {
      "inputs": [],
      "name": "governor",
      "outputs": [
        {
          "internalType": "address",
          "name": "",
          "type": "address"
        }
      ],
      "stateMutability": "view",
      "type": "function"
    },
    {
      "inputs": [
        {
          "internalType": "address",
          "name": "spender",
          "type": "address"
        },
        {
          "internalType": "uint256",
          "name": "addedValue",
          "type": "uint256"
        }
      ],
      "name": "increaseAllowance",
      "outputs": [
        {
          "internalType": "bool",
          "name": "",
          "type": "bool"
        }
      ],
      "stateMutability": "nonpayable",
      "type": "function"
    },
    {
      "inputs": [
        {
          "internalType": "string",
          "name": "_name",
          "type": "string"
        },
        {
          "internalType": "string",
          "name": "_symbol",
          "type": "string"
        },
        {
          "internalType": "address",
          "name": "_token",
          "type": "address"
        },
        {
          "internalType": "address",
          "name": "_poolAccountant",
          "type": "address"
        }
      ],
      "name": "initialize",
      "outputs": [],
      "stateMutability": "nonpayable",
      "type": "function"
    },
    {
      "inputs": [
        {
          "internalType": "address",
          "name": "_address",
          "type": "address"
        }
      ],
      "name": "isFeeWhitelisted",
      "outputs": [
        {
          "internalType": "bool",
          "name": "",
          "type": "bool"
        }
      ],
      "stateMutability": "view",
      "type": "function"
    },
    {
      "inputs": [
        {
          "internalType": "address",
          "name": "_address",
          "type": "address"
        }
      ],
      "name": "isKeeper",
      "outputs": [
        {
          "internalType": "bool",
          "name": "",
          "type": "bool"
        }
      ],
      "stateMutability": "view",
      "type": "function"
    },
    {
      "inputs": [
        {
          "internalType": "address",
          "name": "_address",
          "type": "address"
        }
      ],
      "name": "isMaintainer",
      "outputs": [
        {
          "internalType": "bool",
          "name": "",
          "type": "bool"
        }
      ],
      "stateMutability": "view",
      "type": "function"
    },
    {
      "inputs": [],
      "name": "keepers",
      "outputs": [
        {
          "internalType": "address[]",
          "name": "",
          "type": "address[]"
        }
      ],
      "stateMutability": "view",
      "type": "function"
    },
    {
      "inputs": [],
      "name": "maintainers",
      "outputs": [
        {
          "internalType": "address[]",
          "name": "",
          "type": "address[]"
        }
      ],
      "stateMutability": "view",
      "type": "function"
    },
    {
      "inputs": [
        {
          "internalType": "address",
          "name": "_old",
          "type": "address"
        },
        {
          "internalType": "address",
          "name": "_new",
          "type": "address"
        }
      ],
      "name": "migrateStrategy",
      "outputs": [],
      "stateMutability": "nonpayable",
      "type": "function"
    },
    {
      "inputs": [
        {
          "internalType": "address[]",
          "name": "_recipients",
          "type": "address[]"
        },
        {
          "internalType": "uint256[]",
          "name": "_amounts",
          "type": "uint256[]"
        }
      ],
      "name": "multiTransfer",
      "outputs": [
        {
          "internalType": "bool",
          "name": "",
          "type": "bool"
        }
      ],
      "stateMutability": "nonpayable",
      "type": "function"
    },
    {
      "inputs": [],
      "name": "name",
      "outputs": [
        {
          "internalType": "string",
          "name": "",
          "type": "string"
        }
      ],
      "stateMutability": "view",
      "type": "function"
    },
    {
      "inputs": [
        {
          "internalType": "address",
          "name": "",
          "type": "address"
        }
      ],
      "name": "nonces",
      "outputs": [
        {
          "internalType": "uint256",
          "name": "",
          "type": "uint256"
        }
      ],
      "stateMutability": "view",
      "type": "function"
    },
    {
      "inputs": [],
      "name": "open",
      "outputs": [],
      "stateMutability": "nonpayable",
      "type": "function"
    },
    {
      "inputs": [],
      "name": "pause",
      "outputs": [],
      "stateMutability": "nonpayable",
      "type": "function"
    },
    {
      "inputs": [],
      "name": "paused",
      "outputs": [
        {
          "internalType": "bool",
          "name": "",
          "type": "bool"
        }
      ],
      "stateMutability": "view",
      "type": "function"
    },
    {
      "inputs": [
        {
          "internalType": "address",
          "name": "owner",
          "type": "address"
        },
        {
          "internalType": "address",
          "name": "spender",
          "type": "address"
        },
        {
          "internalType": "uint256",
          "name": "value",
          "type": "uint256"
        },
        {
          "internalType": "uint256",
          "name": "deadline",
          "type": "uint256"
        },
        {
          "internalType": "uint8",
          "name": "v",
          "type": "uint8"
        },
        {
          "internalType": "bytes32",
          "name": "r",
          "type": "bytes32"
        },
        {
          "internalType": "bytes32",
          "name": "s",
          "type": "bytes32"
        }
      ],
      "name": "permit",
      "outputs": [],
      "stateMutability": "nonpayable",
      "type": "function"
    },
    {
      "inputs": [],
      "name": "poolAccountant",
      "outputs": [
        {
          "internalType": "address",
          "name": "",
          "type": "address"
        }
      ],
      "stateMutability": "view",
      "type": "function"
    },
    {
      "inputs": [],
      "name": "poolRewards",
      "outputs": [
        {
          "internalType": "address",
          "name": "",
          "type": "address"
        }
      ],
      "stateMutability": "view",
      "type": "function"
    },
    {
      "inputs": [],
      "name": "pricePerShare",
      "outputs": [
        {
          "internalType": "uint256",
          "name": "",
          "type": "uint256"
        }
      ],
      "stateMutability": "view",
      "type": "function"
    },
    {
      "inputs": [
        {
          "internalType": "address",
          "name": "_addressToRemove",
          "type": "address"
        }
      ],
      "name": "removeFromFeeWhitelist",
      "outputs": [],
      "stateMutability": "nonpayable",
      "type": "function"
    },
    {
      "inputs": [
        {
          "internalType": "address",
          "name": "_keeperAddress",
          "type": "address"
        }
      ],
      "name": "removeKeeper",
      "outputs": [],
      "stateMutability": "nonpayable",
      "type": "function"
    },
    {
      "inputs": [
        {
          "internalType": "address",
          "name": "_maintainerAddress",
          "type": "address"
        }
      ],
      "name": "removeMaintainer",
      "outputs": [],
      "stateMutability": "nonpayable",
      "type": "function"
    },
    {
      "inputs": [
        {
          "internalType": "uint256",
          "name": "_profit",
          "type": "uint256"
        },
        {
          "internalType": "uint256",
          "name": "_loss",
          "type": "uint256"
        },
        {
          "internalType": "uint256",
          "name": "_payback",
          "type": "uint256"
        }
      ],
      "name": "reportEarning",
      "outputs": [],
      "stateMutability": "nonpayable",
      "type": "function"
    },
    {
      "inputs": [
        {
          "internalType": "uint256",
          "name": "_loss",
          "type": "uint256"
        }
      ],
      "name": "reportLoss",
      "outputs": [],
      "stateMutability": "nonpayable",
      "type": "function"
    },
    {
      "inputs": [],
      "name": "shutdown",
      "outputs": [],
      "stateMutability": "nonpayable",
      "type": "function"
    },
    {
      "inputs": [],
      "name": "stopEverything",
      "outputs": [
        {
          "internalType": "bool",
          "name": "",
          "type": "bool"
        }
      ],
      "stateMutability": "view",
      "type": "function"
    },
    {
      "inputs": [
        {
          "internalType": "address",
          "name": "_strategy",
          "type": "address"
        }
      ],
      "name": "strategy",
      "outputs": [
        {
          "internalType": "bool",
          "name": "_active",
          "type": "bool"
        },
        {
          "internalType": "uint256",
          "name": "_interestFee",
          "type": "uint256"
        },
        {
          "internalType": "uint256",
          "name": "_debtRate",
          "type": "uint256"
        },
        {
          "internalType": "uint256",
          "name": "_lastRebalance",
          "type": "uint256"
        },
        {
          "internalType": "uint256",
          "name": "_totalDebt",
          "type": "uint256"
        },
        {
          "internalType": "uint256",
          "name": "_totalLoss",
          "type": "uint256"
        },
        {
          "internalType": "uint256",
          "name": "_totalProfit",
          "type": "uint256"
        },
        {
          "internalType": "uint256",
          "name": "_debtRatio",
          "type": "uint256"
        },
        {
          "internalType": "uint256",
          "name": "_externalDepositFee",
          "type": "uint256"
        }
      ],
      "stateMutability": "view",
      "type": "function"
    },
    {
      "inputs": [
        {
          "internalType": "address",
          "name": "_fromToken",
          "type": "address"
        }
      ],
      "name": "sweepERC20",
      "outputs": [],
      "stateMutability": "nonpayable",
      "type": "function"
    },
    {
      "inputs": [],
      "name": "symbol",
      "outputs": [
        {
          "internalType": "string",
          "name": "",
          "type": "string"
        }
      ],
      "stateMutability": "view",
      "type": "function"
    },
    {
      "inputs": [],
      "name": "token",
      "outputs": [
        {
          "internalType": "contract IERC20",
          "name": "",
          "type": "address"
        }
      ],
      "stateMutability": "view",
      "type": "function"
    },
    {
      "inputs": [],
      "name": "tokensHere",
      "outputs": [
        {
          "internalType": "uint256",
          "name": "",
          "type": "uint256"
        }
      ],
      "stateMutability": "view",
      "type": "function"
    },
    {
      "inputs": [],
      "name": "totalDebt",
      "outputs": [
        {
          "internalType": "uint256",
          "name": "",
          "type": "uint256"
        }
      ],
      "stateMutability": "view",
      "type": "function"
    },
    {
      "inputs": [
        {
          "internalType": "address",
          "name": "_strategy",
          "type": "address"
        }
      ],
      "name": "totalDebtOf",
      "outputs": [
        {
          "internalType": "uint256",
          "name": "",
          "type": "uint256"
        }
      ],
      "stateMutability": "view",
      "type": "function"
    },
    {
      "inputs": [],
      "name": "totalDebtRatio",
      "outputs": [
        {
          "internalType": "uint256",
          "name": "",
          "type": "uint256"
        }
      ],
      "stateMutability": "view",
      "type": "function"
    },
    {
      "inputs": [],
      "name": "totalSupply",
      "outputs": [
        {
          "internalType": "uint256",
          "name": "",
          "type": "uint256"
        }
      ],
      "stateMutability": "view",
      "type": "function"
    },
    {
      "inputs": [],
      "name": "totalValue",
      "outputs": [
        {
          "internalType": "uint256",
          "name": "",
          "type": "uint256"
        }
      ],
      "stateMutability": "view",
      "type": "function"
    },
    {
      "inputs": [
        {
          "internalType": "address",
          "name": "recipient",
          "type": "address"
        },
        {
          "internalType": "uint256",
          "name": "amount",
          "type": "uint256"
        }
      ],
      "name": "transfer",
      "outputs": [
        {
          "internalType": "bool",
          "name": "",
          "type": "bool"
        }
      ],
      "stateMutability": "nonpayable",
      "type": "function"
    },
    {
      "inputs": [
        {
          "internalType": "address",
          "name": "sender",
          "type": "address"
        },
        {
          "internalType": "address",
          "name": "recipient",
          "type": "address"
        },
        {
          "internalType": "uint256",
          "name": "amount",
          "type": "uint256"
        }
      ],
      "name": "transferFrom",
      "outputs": [
        {
          "internalType": "bool",
          "name": "",
          "type": "bool"
        }
      ],
      "stateMutability": "nonpayable",
      "type": "function"
    },
    {
      "inputs": [
        {
          "internalType": "address",
          "name": "_proposedGovernor",
          "type": "address"
        }
      ],
      "name": "transferGovernorship",
      "outputs": [],
      "stateMutability": "nonpayable",
      "type": "function"
    },
    {
      "inputs": [],
      "name": "unpause",
      "outputs": [],
      "stateMutability": "nonpayable",
      "type": "function"
    },
    {
      "inputs": [
        {
          "internalType": "address",
          "name": "_newFeeCollector",
          "type": "address"
        }
      ],
      "name": "updateFeeCollector",
      "outputs": [],
      "stateMutability": "nonpayable",
      "type": "function"
    },
    {
      "inputs": [
        {
          "internalType": "address",
          "name": "_newPoolRewards",
          "type": "address"
        }
      ],
      "name": "updatePoolRewards",
      "outputs": [],
      "stateMutability": "nonpayable",
      "type": "function"
    },
    {
      "inputs": [
        {
          "internalType": "uint256",
          "name": "_newWithdrawFee",
          "type": "uint256"
        }
      ],
      "name": "updateWithdrawFee",
      "outputs": [],
      "stateMutability": "nonpayable",
      "type": "function"
    },
    {
      "inputs": [
        {
          "internalType": "uint256",
          "name": "_shares",
          "type": "uint256"
        }
      ],
      "name": "whitelistedWithdraw",
      "outputs": [],
      "stateMutability": "nonpayable",
      "type": "function"
    },
    {
      "inputs": [
        {
          "internalType": "uint256",
          "name": "_shares",
          "type": "uint256"
        }
      ],
      "name": "withdraw",
      "outputs": [],
      "stateMutability": "nonpayable",
      "type": "function"
    },
    {
      "inputs": [
        {
          "internalType": "uint256",
          "name": "_shares",
          "type": "uint256"
        }
      ],
      "name": "withdrawAndClaim",
      "outputs": [],
      "stateMutability": "nonpayable",
      "type": "function"
    },
    {
      "inputs": [],
      "name": "withdrawFee",
      "outputs": [
        {
          "internalType": "uint256",
          "name": "",
          "type": "uint256"
        }
      ],
      "stateMutability": "view",
      "type": "function"
    }
  ],
  "transactionHash": "0x5321daa82f59063c2a44ec1d4248d185b0f61c151a0dc535a84de3e25f22de0e",
  "args": [
    "veDAI-SHIB Earn Pool",
    "veDAI-SHIB",
    "0x6B175474E89094C44Da98b954EedeAC495271d0F"
  ],
  "solcInputHash": "53bed00373dea112bc4ff59f64e3bfc1",
  "bytecode": "0x60806040523480156200001157600080fd5b5060405162004a4938038062004a4983398101604081905262000034916200025e565b828282828282828281600390805190602001906200005492919062000105565b5080516200006a90600490602084019062000105565b50505060006200007f6200010160201b60201c565b600a80546001600160a01b0319166001600160a01b038316908117909155604051919250906000907fd4459d5b8b913cab0244230fd9b1c08b6ceace7fe9230e60d0f74cbffdf849d0908290a3506001600c55600d80546001600160a01b0319166001600160a01b0392909216919091179055506200033a9650505050505050565b3390565b8280546200011390620002e7565b90600052602060002090601f01602090048101928262000137576000855562000182565b82601f106200015257805160ff191683800117855562000182565b8280016001018555821562000182579182015b828111156200018257825182559160200191906001019062000165565b506200019092915062000194565b5090565b5b8082111562000190576000815560010162000195565b600082601f830112620001bc578081fd5b81516001600160401b0380821115620001d957620001d962000324565b604051601f8301601f19908116603f0116810190828211818310171562000204576200020462000324565b8160405283815260209250868385880101111562000220578485fd5b8491505b8382101562000243578582018301518183018401529082019062000224565b838211156200025457848385830101525b9695505050505050565b60008060006060848603121562000273578283fd5b83516001600160401b03808211156200028a578485fd5b6200029887838801620001ab565b94506020860151915080821115620002ae578384fd5b50620002bd86828701620001ab565b604086015190935090506001600160a01b0381168114620002dc578182fd5b809150509250925092565b600181811c90821680620002fc57607f821691505b602082108114156200031e57634e487b7160e01b600052602260045260246000fd5b50919050565b634e487b7160e01b600052604160045260246000fd5b6146ff806200034a6000396000f3fe608060405234801561001057600080fd5b506004361061039d5760003560e01c806399530b06116101eb578063daea862311610110578063fc0c546a116100a8578063fc0c546a1461085c578063fc0e74d11461086f578063fc51ab2a14610877578063fc7678101461088a578063fc7b9c1814610892578063fcfff16f1461089a578063fd967f47146108a2578063ff643a7c146108ab578063ffa1ad74146108be5761039d565b8063daea8623146107a0578063daf635de146107b3578063dd57366a146107c6578063dd62ed3e146107d9578063ddd6d26014610812578063e00af4a714610825578063e941fa7814610838578063f3b27bc314610841578063fb589de2146108495761039d565b8063b8cb343d11610183578063b8cb343d1461070b578063c01e0d4014610713578063c12d636b14610726578063c415b95c14610739578063d2c35ce81461074c578063d4c3eea01461075f578063d505accf14610767578063d53ddc261461077a578063d8baf7cf1461078d5761039d565b806399530b06146106765780639f2b28331461067e578063a457c2d714610691578063a9059cbb146106a4578063a941a90e146106b7578063b49a60bb146106ca578063b64321ec146106d2578063b6aa515b146106e5578063b6b55f25146106f85761039d565b8063448a1047116102d15780637ecebe00116102695780637ecebe00146105e95780638456cb59146106095780638bc6beb2146106115780638f15b414146106245780638fe91ffb146106375780639198c85914610640578063940c408214610653578063951dc22c1461066657806395d89b411461066e5761039d565b8063448a1047146105315780634938649a1461054457806349eeb860146105585780634a970be7146105605780635c975abb146105735780636b453c1f146105875780636ba42aaa1461059a5780636cb56d19146105ad57806370a08231146105c05761039d565b8063228bfd9f11610344578063228bfd9f1461046557806323b872dd146104be5780632df9eab9146104d15780632e1a7d4d146104d9578063313ce567146104ec5780633644e515146104fb57806339509351146105035780633f4ba83a146105165780634032b72b1461051e5761039d565b806305bed046146103a257806306fdde03146103b7578063095ea7b3146103d55780630c340a24146103f8578063111830521461041857806314ae9f2e1461042d57806318160ddd146104405780631e89d54514610452575b600080fd5b6103b56103b0366004614188565b6108e2565b005b6103bf610a88565b6040516103cc91906142da565b60405180910390f35b6103e86103e3366004613f01565b610b1b565b60405190151581526020016103cc565b600a5461040b906001600160a01b031681565b6040516103cc9190614260565b610420610b32565b6040516103cc919061428d565b6103b561043b366004613de1565b610bb8565b6002545b6040519081526020016103cc565b6103e8610460366004613f2c565b610c32565b610478610473366004613de1565b610d34565b604080519915158a5260208a0198909852968801959095526060870193909352608086019190915260a085015260c084015260e0830152610100820152610120016103cc565b6103e86104cc366004613e51565b610de5565b610444610e98565b6103b56104e7366004614158565b610f15565b604051601281526020016103cc565b610444610f82565b6103e8610511366004613f01565b610f8c565b6103b5610fc3565b6103b561052c366004613de1565b610ff2565b6103b561053f366004614158565b61105b565b600b546103e890600160a81b900460ff1681565b6104206110b6565b6103b561056e3660046141e0565b6110c2565b600b546103e890600160a01b900460ff1681565b6103b5610595366004613de1565b6111bf565b6103e86105a8366004613de1565b6111ef565b6103b56105bb366004613e19565b611204565b6104446105ce366004613de1565b6001600160a01b031660009081526020819052604090205490565b6104446105f7366004613de1565b60096020526000908152604090205481565b6103b5611443565b600f5461040b906001600160a01b031681565b6103b56106323660046140d2565b611470565b61044460155481565b6103b561064e366004613de1565b6114ec565b6103b5610661366004613de1565b61151c565b6104206115e3565b6103bf6115ef565b6104446115fe565b61044461068c366004613de1565b61165e565b6103e861069f366004613f01565b6116df565b6103e86106b2366004613f01565b61177a565b6103b56106c5366004614158565b611787565b6104206117e2565b6104446106e0366004613de1565b611827565b6103b56106f3366004613de1565b611858565b6103b5610706366004614158565b6118f6565b61044461195a565b610444610721366004614158565b6119a3565b600e5461040b906001600160a01b031681565b60135461040b906001600160a01b031681565b6103b561075a366004613de1565b611a90565b610444611b57565b6103b5610775366004613e91565b611bf1565b610444610788366004613de1565b611db1565b6103b561079b366004613de1565b611de2565b6103e86107ae366004613de1565b611e12565b6103b56107c1366004614158565b611e1f565b6103e86107d4366004613de1565b611f0a565b6104446107e7366004613e19565b6001600160a01b03918216600090815260016020908152604080832093909416825291909152205490565b6103b5610820366004614158565b611f17565b6103b5610833366004613de1565b611f7e565b61044460145481565b6103b56120c8565b610444610857366004614158565b612184565b600d5461040b906001600160a01b031681565b6103b5612194565b6103b5610885366004613de1565b6121c1565b6104206121f1565b6104446121fd565b6103b5612242565b61044461271081565b6103b56108b9366004614158565b61226f565b6103bf604051806040016040528060058152602001640342e302e360dc1b81525081565b600e54600090819081906001600160a01b031663a066654b336040516001600160e01b031960e084901b1681526001600160a01b039091166004820152602481018990526044810188905260648101879052608401606060405180830381600087803b15801561095157600080fd5b505af1158015610965573d6000803e3d6000fd5b505050506040513d601f19601f8201168201806040525081019061098991906141b3565b91945092509050600061099c8488614455565b9050828110156109cc576109c7336109b483866145c0565b600d546001600160a01b03169190612351565b6109f7565b828111156109f7576109f733306109e386856145c0565b600d546001600160a01b03169291906123ac565b8115610a7f57610a7f336001600160a01b031663c415b95c6040518163ffffffff1660e01b815260040160206040518083038186803b158015610a3957600080fd5b505afa158015610a4d573d6000803e3d6000fd5b505050506040513d601f19601f82011682018060405250810190610a719190613dfd565b610a7a846123ea565b61244f565b50505050505050565b606060038054610a9790614603565b80601f0160208091040260200160405190810160405280929190818152602001828054610ac390614603565b8015610b105780601f10610ae557610100808354040283529160200191610b10565b820191906000526020600020905b815481529060010190602001808311610af357829003601f168201915b505050505090505b90565b6000610b2833848461251c565b5060015b92915050565b600e546040805163088c182960e11b815290516060926001600160a01b0316916311183052916004808301926000929190829003018186803b158015610b7757600080fd5b505afa158015610b8b573d6000803e3d6000fd5b505050506040513d6000823e601f3d908101601f19168201604052610bb39190810190613f95565b905090565b610bc5335b601990612641565b610bea5760405162461bcd60e51b8152600401610be19061435b565b60405180910390fd5b610bf5601982612663565b604051806040016040528060028152602001610c4d60f21b81525090610c2e5760405162461bcd60e51b8152600401610be191906142da565b5050565b6040805180820190915260018152600d60fa1b6020820152600090848314610c6d5760405162461bcd60e51b8152600401610be191906142da565b5060005b84811015610d2857610cdd868683818110610c9c57634e487b7160e01b600052603260045260246000fd5b9050602002016020810190610cb19190613de1565b858584818110610cd157634e487b7160e01b600052603260045260246000fd5b9050602002013561177a565b604051806040016040528060018152602001601b60f91b81525090610d155760405162461bcd60e51b8152600401610be191906142da565b5080610d208161463e565b915050610c71565b50600195945050505050565b600e5460405163228bfd9f60e01b8152600091829182918291829182918291829182916001600160a01b03169063228bfd9f90610d75908d90600401614260565b6101206040518083038186803b158015610d8e57600080fd5b505afa158015610da2573d6000803e3d6000fd5b505050506040513d601f19601f82011682018060405250810190610dc69190614063565b9850985098509850985098509850985098509193959799909294969850565b6000610df2848484612678565b6001600160a01b038416600090815260016020908152604080832033845290915290205482811015610e775760405162461bcd60e51b815260206004820152602860248201527f45524332303a207472616e7366657220616d6f756e74206578636565647320616044820152676c6c6f77616e636560c01b6064820152608401610be1565b610e8b8533610e8686856145c0565b61251c565b60019150505b9392505050565b600e5460408051632df9eab960e01b815290516000926001600160a01b031691632df9eab9916004808301926020929190829003018186803b158015610edd57600080fd5b505afa158015610ef1573d6000803e3d6000fd5b505050506040513d601f19601f82011682018060405250810190610bb39190614170565b6002600c541415610f385760405162461bcd60e51b8152600401610be1906143a3565b6002600c55600b54600160a81b900460ff1615610f675760405162461bcd60e51b8152600401610be190614381565b610f71335b612759565b610f7a8161279a565b506001600c55565b6000610bb36128fa565b3360008181526001602090815260408083206001600160a01b03871684529091528120549091610b28918590610e86908690614455565b610fcc33610bbd565b610fe85760405162461bcd60e51b8152600401610be19061435b565b610ff0612977565b565b610ffb33610bbd565b6110175760405162461bcd60e51b8152600401610be19061435b565b611022601982612a2e565b60405180604001604052806002815260200161313360f01b81525090610c2e5760405162461bcd60e51b8152600401610be191906142da565b6002600c54141561107e5760405162461bcd60e51b8152600401610be1906143a3565b6002600c55600b54600160a81b900460ff16156110ad5760405162461bcd60e51b8152600401610be190614381565b610f7a81612a43565b6060610bb3601b612a55565b6002600c5414156110e55760405162461bcd60e51b8152600401610be1906143a3565b6002600c55600b54600160a01b900460ff16156111145760405162461bcd60e51b8152600401610be1906143da565b600d546001600160a01b031663d505accf336040516001600160e01b031960e084901b1681526001600160a01b039091166004820152306024820152604481018890526064810187905260ff8616608482015260a4810185905260c4810184905260e401600060405180830381600087803b15801561119257600080fd5b505af11580156111a6573d6000803e3d6000fd5b505050506111b385612a62565b50506001600c55505050565b6111c833610bbd565b6111e45760405162461bcd60e51b8152600401610be19061435b565b611022601b82612a2e565b60006111fc601983612641565b90505b919050565b600a546001600160a01b0316331461122e5760405162461bcd60e51b8152600401610be1906143fa565b306001600160a01b0316816001600160a01b03166316f0115b6040518163ffffffff1660e01b815260040160206040518083038186803b15801561127157600080fd5b505afa158015611285573d6000803e3d6000fd5b505050506040513d601f19601f820116820180604052508101906112a99190613dfd565b6001600160a01b03161480156113405750306001600160a01b0316826001600160a01b03166316f0115b6040518163ffffffff1660e01b815260040160206040518083038186803b1580156112fd57600080fd5b505afa158015611311573d6000803e3d6000fd5b505050506040513d601f19601f820116820180604052508101906113359190613dfd565b6001600160a01b0316145b60405180604001604052806002815260200161313760f01b815250906113795760405162461bcd60e51b8152600401610be191906142da565b50600e54604051636cb56d1960e01b81526001600160a01b038481166004830152838116602483015290911690636cb56d1990604401600060405180830381600087803b1580156113c957600080fd5b505af11580156113dd573d6000803e3d6000fd5b505060405163ce5494bb60e01b81526001600160a01b038516925063ce5494bb915061140d908490600401614260565b600060405180830381600087803b15801561142757600080fd5b505af115801561143b573d6000803e3d6000fd5b505050505050565b61144c33610bbd565b6114685760405162461bcd60e51b8152600401610be19061435b565b610ff0612ac1565b600554610100900460ff1680611489575060055460ff16155b6114a55760405162461bcd60e51b8152600401610be19061430d565b600554610100900460ff161580156114c7576005805461ffff19166101011790555b6114d385858585612b26565b80156114e5576005805461ff00191690555b5050505050565b6114f533610bbd565b6115115760405162461bcd60e51b8152600401610be19061435b565b611022601782612a2e565b600a546001600160a01b031633146115465760405162461bcd60e51b8152600401610be1906143fa565b604080518082019091526002815261031360f41b60208201526001600160a01b0382166115865760405162461bcd60e51b8152600401610be191906142da565b50600f546040516001600160a01b038084169216907fe239974dad08ac696e723caf1886bd0b5afc0870088f9a1266082757f824927690600090a3600f80546001600160a01b0319166001600160a01b0392909216919091179055565b6060610bb36019612a55565b606060048054610a9790614603565b600061160960025490565b158061161a5750611618611b57565b155b1561163757611630670de0b6b3a7640000612184565b9050610b18565b600254611642611b57565b61165490670de0b6b3a76400006145a1565b610bb3919061446d565b600e54604051639f2b283360e01b81526000916001600160a01b031690639f2b28339061168f908590600401614260565b60206040518083038186803b1580156116a757600080fd5b505afa1580156116bb573d6000803e3d6000fd5b505050506040513d601f19601f820116820180604052508101906111fc9190614170565b3360009081526001602090815260408083206001600160a01b0386168452909152812054828110156117615760405162461bcd60e51b815260206004820152602560248201527f45524332303a2064656372656173656420616c6c6f77616e63652062656c6f77604482015264207a65726f60d81b6064820152608401610be1565b6117703385610e8686856145c0565b5060019392505050565b6000610b28338484612678565b6002600c5414156117aa5760405162461bcd60e51b8152600401610be1906143a3565b6002600c55600b54600160a01b900460ff16156117d95760405162461bcd60e51b8152600401610be1906143da565b610f7a81612c8e565b600e546040805163b49a60bb60e01b815290516060926001600160a01b03169163b49a60bb916004808301926000929190829003018186803b158015610b7757600080fd5b600e54604051632d90c87b60e21b81526000916001600160a01b03169063b64321ec9061168f908590600401614260565b600a546001600160a01b031633146118825760405162461bcd60e51b8152600401610be1906143fa565b6001600160a01b0381166118d45760405162461bcd60e51b815260206004820152601960248201527870726f706f7365642d676f7665726e6f722d69732d7a65726f60381b6044820152606401610be1565b600b80546001600160a01b0319166001600160a01b0392909216919091179055565b6002600c5414156119195760405162461bcd60e51b8152600401610be1906143a3565b6002600c55600b54600160a01b900460ff16156119485760405162461bcd60e51b8152600401610be1906143da565b61195133610f6c565b610f7a81612a62565b600d546040516370a0823160e01b81526000916001600160a01b0316906370a082319061198b903090600401614260565b60206040518083038186803b158015610edd57600080fd5b6040805180820190915260018152603160f81b6020820152600090826119dc5760405162461bcd60e51b8152600401610be191906142da565b506000612710600e60009054906101000a90046001600160a01b03166001600160a01b031663346162d56040518163ffffffff1660e01b815260040160206040518083038186803b158015611a3057600080fd5b505afa158015611a44573d6000803e3d6000fd5b505050506040513d601f19601f82011682018060405250810190611a689190614170565b611a7290856145a1565b611a7c919061446d565b9050610e91611a8b82856145c0565b6123ea565b600a546001600160a01b03163314611aba5760405162461bcd60e51b8152600401610be1906143fa565b604080518082019091526002815261031360f41b60208201526001600160a01b038216611afa5760405162461bcd60e51b8152600401610be191906142da565b506013546040516001600160a01b038084169216907f0f06062680f9bd68e786e9980d9bb03d73d5620fc3b345e417b6eacb310b970690600090a3601380546001600160a01b0319166001600160a01b0392909216919091179055565b6000611b6161195a565b600e60009054906101000a90046001600160a01b03166001600160a01b031663fc7b9c186040518163ffffffff1660e01b815260040160206040518083038186803b158015611baf57600080fd5b505afa158015611bc3573d6000803e3d6000fd5b505050506040513d601f19601f82011682018060405250810190611be79190614170565b610bb39190614455565b83421115611c415760405162461bcd60e51b815260206004820152601d60248201527f45524332305065726d69743a206578706972656420646561646c696e650000006044820152606401610be1565b6001600160a01b0387811660008181526009602090815260408083205481517f6e71edae12b1b97f4d1f60370fef10105fa2faae0126114a169c64845d6126c98185015280830195909552948b166060850152608084018a905260a0840185905260c08085018a90528151808603909101815260e09094019052825192019190912090611ccc6128fa565b60405161190160f01b60208201526022810191909152604281018390526062016040516020818303038152906040528051906020012090506000611d1282888888612ca0565b90508a6001600160a01b0316816001600160a01b031614611d755760405162461bcd60e51b815260206004820152601e60248201527f45524332305065726d69743a20696e76616c6964207369676e617475726500006044820152606401610be1565b611d80846001614455565b6001600160a01b038c16600090815260096020526040902055611da48b8b8b61251c565b5050505050505050505050565b600e54604051636a9eee1360e11b81526000916001600160a01b03169063d53ddc269061168f908590600401614260565b611deb33610bbd565b611e075760405162461bcd60e51b8152600401610be19061435b565b610bf5601b82612663565b60006111fc601783612641565b600a546001600160a01b03163314611e495760405162461bcd60e51b8152600401610be1906143fa565b6013546040805180820190915260018152603760f81b6020820152906001600160a01b0316611e8b5760405162461bcd60e51b8152600401610be191906142da565b50604080518082019091526002815261313160f01b6020820152612710821115611ec85760405162461bcd60e51b8152600401610be191906142da565b5060145460408051918252602082018390527f2bf847f5692332004b0f69e0d84a8f85ed020bcf8573b3ede68afc92009965bf910160405180910390a1601455565b60006111fc601b83612641565b8015611f7b57600e546001600160a01b0316637f13086e33836040518363ffffffff1660e01b8152600401611f4d929190614274565b600060405180830381600087803b158015611f6757600080fd5b505af11580156114e5573d6000803e3d6000fd5b50565b611f8733610bbd565b611fa35760405162461bcd60e51b8152600401610be19061435b565b600d546040805180820190915260018152600760fb1b6020820152906001600160a01b0383811691161415611feb5760405162461bcd60e51b8152600401610be191906142da565b506013546040805180820190915260018152603760f81b6020820152906001600160a01b031661202e5760405162461bcd60e51b8152600401610be191906142da565b506013546040516370a0823160e01b8152611f7b916001600160a01b0390811691908416906370a0823190612067903090600401614260565b60206040518083038186803b15801561207f57600080fd5b505afa158015612093573d6000803e3d6000fd5b505050506040513d601f19601f820116820180604052508101906120b79190614170565b6001600160a01b0384169190612351565b600b546001600160a01b0316331461211e5760405162461bcd60e51b81526020600482015260196024820152783737ba16ba343296b83937b837b9b2b216b3b7bb32b93737b960391b6044820152606401610be1565b600b54600a546040516001600160a01b0392831692909116907fd4459d5b8b913cab0244230fd9b1c08b6ceace7fe9230e60d0f74cbffdf849d090600090a3600b8054600a80546001600160a01b03199081166001600160a01b03841617909155169055565b6000601554826111fc919061446d565b61219d33610bbd565b6121b95760405162461bcd60e51b8152600401610be19061435b565b610ff0612e3a565b6121ca33610bbd565b6121e65760405162461bcd60e51b8152600401610be19061435b565b610bf5601782612663565b6060610bb36017612a55565b600e5460408051631f8f738360e31b815290516000926001600160a01b03169163fc7b9c18916004808301926020929190829003018186803b158015610edd57600080fd5b61224b33610bbd565b6122675760405162461bcd60e51b8152600401610be19061435b565b610ff0612ea1565b6002600c5414156122925760405162461bcd60e51b8152600401610be1906143a3565b6002600c55600b54600160a81b900460ff16156122c15760405162461bcd60e51b8152600401610be190614381565b6122ce335b601790612641565b604051806040016040528060018152602001603560f81b815250906123065760405162461bcd60e51b8152600401610be191906142da565b506040805180820190915260018152601960f91b60208201528161233d5760405162461bcd60e51b8152600401610be191906142da565b50612348335b612f1d565b610f7a81612f5e565b6123a78363a9059cbb60e01b8484604051602401612370929190614274565b60408051601f198184030181529190526020810180516001600160e01b03166001600160e01b031990931692909217909152612fe7565b505050565b6040516001600160a01b03808516602483015283166044820152606481018290526123e49085906323b872dd60e01b90608401612370565b50505050565b6000806123f56115fe565b61240784670de0b6b3a76400006145a1565b612411919061446d565b9050670de0b6b3a76400006124246115fe565b61242e90836145a1565b612438919061446d565b83116124445780610e91565b610e91816001614455565b6001600160a01b0382166124a55760405162461bcd60e51b815260206004820152601f60248201527f45524332303a206d696e7420746f20746865207a65726f2061646472657373006044820152606401610be1565b80600260008282546124b79190614455565b90915550506001600160a01b038216600090815260208190526040812080548392906124e4908490614455565b90915550506040518181526001600160a01b038316906000906000805160206146aa8339815191529060200160405180910390a35050565b6001600160a01b03831661257e5760405162461bcd60e51b8152602060048201526024808201527f45524332303a20617070726f76652066726f6d20746865207a65726f206164646044820152637265737360e01b6064820152608401610be1565b6001600160a01b0382166125df5760405162461bcd60e51b815260206004820152602260248201527f45524332303a20617070726f766520746f20746865207a65726f206164647265604482015261737360f01b6064820152608401610be1565b6001600160a01b0383811660008181526001602090815260408083209487168084529482529182902085905590518481527f8c5be1e5ebec7d5bd14f71427d1e84f3dd0314c0f7b2291e5b200ac8c7c3b92591015b60405180910390a3505050565b6001600160a01b03811660009081526001830160205260408120541515610e91565b6000610e91836001600160a01b0384166130b9565b600f546001600160a01b03161561274e57600f5460405163632447c960e01b81526001600160a01b039091169063632447c9906126b9908690600401614260565b600060405180830381600087803b1580156126d357600080fd5b505af11580156126e7573d6000803e3d6000fd5b5050600f5460405163632447c960e01b81526001600160a01b03909116925063632447c9915061271b908590600401614260565b600060405180830381600087803b15801561273557600080fd5b505af1158015612749573d6000803e3d6000fd5b505050505b6123a78383836131d6565b600f546001600160a01b031615611f7b57600f5460405163632447c960e01b81526001600160a01b039091169063632447c990611f4d908490600401614260565b6040805180820190915260018152601960f91b6020820152816127d05760405162461bcd60e51b8152600401610be191906142da565b5060145415806127e457506127e4336122c6565b156127f7576127f281612f5e565b611f7b565b60006127106014548361280a91906145a1565b612814919061446d565b9050600061282282846145c0565b9050600061282f8261339c565b9050600061283c826123ea565b905061284783612184565b61285082612184565b101561288d57601454612865906127106145c0565b612871612710836145a1565b61287b919061446d565b945061288781866145c0565b93508092505b612898335b84613447565b6128ae336013546001600160a01b031686612678565b6128b782613584565b50604080518681526020810184905233917ff279e6a1f5e320cca91135676d9cb6e44ca8a08c0b88342bcdb1144f6511b568910160405180910390a25050505050565b600060085446141561290f5750600654610b18565b6007546040805180820190915260018152603160f81b602090910152611630907f8b73c3c69bb8fe3d512ecc4cf759cc79239f7b179b0ffacaa9a75d522b39400f907fc89efdaa54c0f20c7adf612882df0950f5a951637e0307cdcb4c672f298b8bc66135a1565b600b54600160a01b900460ff166129bd5760405162461bcd60e51b815260206004820152600a6024820152691b9bdd0b5c185d5cd95960b21b6044820152606401610be1565b600b54600160a81b900460ff16156129e75760405162461bcd60e51b8152600401610be190614381565b600b805460ff60a01b191690557f5db9ee0a495bf2e6ff9c91a7834c1ba4fdd244a5e8aa4e537bd38aeae4b073aa335b604051612a249190614260565b60405180910390a1565b6000610e91836001600160a01b0384166135ea565b612a4c33612343565b611f7b8161279a565b60606000610e9183613639565b6000612a6d826119a3565b9050612a7882613695565b612a82338261244f565b604080518281526020810184905233917f90890809c654f11d6e72a28fa60149770a0d11ec6c92319d6ceb2bb0a4ea1a15910160405180910390a25050565b600b54600160a01b900460ff1615612aeb5760405162461bcd60e51b8152600401610be1906143da565b600b805460ff60a01b1916600160a01b1790557f62e78cea01bee320cd4e420270b5ea74000d11b0c9f74754ebdbfc544b05a258612a173390565b600554610100900460ff1680612b3f575060055460ff16155b612b5b5760405162461bcd60e51b8152600401610be19061430d565b600554610100900460ff16158015612b7d576005805461ffff19166101011790555b604080518082019091526002815261031360f41b60208201526001600160a01b038316612bbd5760405162461bcd60e51b8152600401610be191906142da565b50612bc98585856136ad565b612bd1613825565b612bdc601933612a2e565b60405180604001604052806002815260200161313360f01b81525090612c155760405162461bcd60e51b8152600401610be191906142da565b50612c21601b33612a2e565b60405180604001604052806002815260200161313360f01b81525090612c5a5760405162461bcd60e51b8152600401610be191906142da565b50600e80546001600160a01b0319166001600160a01b03841617905580156114e5576005805461ff00191690555050505050565b612c9733612343565b611f7b81612a62565b60006fa2a8918ca85bafe22016d0b997e4df60600160ff1b03821115612d135760405162461bcd60e51b815260206004820152602260248201527f45434453413a20696e76616c6964207369676e6174757265202773272076616c604482015261756560f01b6064820152608401610be1565b8360ff16601b1480612d2857508360ff16601c145b612d7f5760405162461bcd60e51b815260206004820152602260248201527f45434453413a20696e76616c6964207369676e6174757265202776272076616c604482015261756560f01b6064820152608401610be1565b6040805160008082526020820180845288905260ff871692820192909252606081018590526080810184905260019060a0016020604051602081039080840390855afa158015612dd3573d6000803e3d6000fd5b5050604051601f1901519150506001600160a01b038116612e315760405162461bcd60e51b815260206004820152601860248201527745434453413a20696e76616c6964207369676e617475726560401b6044820152606401610be1565b95945050505050565b600b54600160a81b900460ff1615612e645760405162461bcd60e51b8152600401610be190614381565b600b805461ffff60a01b191661010160a01b1790557f28b4c24cb1012c094cd2f59f98e89d791973295f8fda6eaa118022d6d318960a612a173390565b600b54600160a81b900460ff16612ee95760405162461bcd60e51b815260206004820152600c60248201526b3737ba16b9b43aba3237bbb760a11b6044820152606401610be1565b600b805460ff60a81b191690557fece7583a70a505ef0e36d4dec768f5ae597713e09c26011022599ee01abdabfc33612a17565b600f546001600160a01b031615611f7b57600f5460405163d279c19160e01b81526001600160a01b039091169063d279c19190611f4d908490600401614260565b6000612f698261339c565b90506000612f76826123ea565b9050612f8183612184565b612f8a82612184565b1015612f94578092505b612f9d33612892565b612fa682613584565b50604080518481526020810184905233917ff279e6a1f5e320cca91135676d9cb6e44ca8a08c0b88342bcdb1144f6511b568910160405180910390a2505050565b600061303c826040518060400160405280602081526020017f5361666545524332303a206c6f772d6c6576656c2063616c6c206661696c6564815250856001600160a01b03166138d39092919063ffffffff16565b8051909150156123a7578080602001905181019061305a9190614049565b6123a75760405162461bcd60e51b815260206004820152602a60248201527f5361666545524332303a204552433230206f7065726174696f6e20646964206e6044820152691bdd081cdd58d8d9595960b21b6064820152608401610be1565b600081815260018301602052604081205480156131cc5760006130dd6001836145c0565b85549091506000906130f1906001906145c0565b905081811461317257600086600001828154811061311f57634e487b7160e01b600052603260045260246000fd5b906000526020600020015490508087600001848154811061315057634e487b7160e01b600052603260045260246000fd5b6000918252602080832090910192909255918252600188019052604090208390555b855486908061319157634e487b7160e01b600052603160045260246000fd5b600190038181906000526020600020016000905590558560010160008681526020019081526020016000206000905560019350505050610b2c565b6000915050610b2c565b6001600160a01b03831661323a5760405162461bcd60e51b815260206004820152602560248201527f45524332303a207472616e736665722066726f6d20746865207a65726f206164604482015264647265737360d81b6064820152608401610be1565b6001600160a01b03821661329c5760405162461bcd60e51b815260206004820152602360248201527f45524332303a207472616e7366657220746f20746865207a65726f206164647260448201526265737360e81b6064820152608401610be1565b6001600160a01b038316600090815260208190526040902054818110156133145760405162461bcd60e51b815260206004820152602660248201527f45524332303a207472616e7366657220616d6f756e7420657863656564732062604482015265616c616e636560d01b6064820152608401610be1565b61331e82826145c0565b6001600160a01b038086166000908152602081905260408082209390935590851681529081208054849290613354908490614455565b92505081905550826001600160a01b0316846001600160a01b03166000805160206146aa8339815191528460405161338e91815260200190565b60405180910390a350505050565b600080670de0b6b3a76400006133b06115fe565b6133ba90856145a1565b6133c4919061446d565b905060006133d061195a565b9050808211156133f7576133ec6133e782846145c0565b6138ea565b6133f461195a565b90505b8181106134045781613406565b805b6040805180820190915260018152603160f81b60208201529093508361343f5760405162461bcd60e51b8152600401610be191906142da565b505050919050565b6001600160a01b0382166134a75760405162461bcd60e51b815260206004820152602160248201527f45524332303a206275726e2066726f6d20746865207a65726f206164647265736044820152607360f81b6064820152608401610be1565b6001600160a01b0382166000908152602081905260409020548181101561351b5760405162461bcd60e51b815260206004820152602260248201527f45524332303a206275726e20616d6f756e7420657863656564732062616c616e604482015261636560f01b6064820152608401610be1565b61352582826145c0565b6001600160a01b038416600090815260208190526040812091909155600280548492906135539084906145c0565b90915550506040518281526000906001600160a01b038516906000805160206146aa83398151915290602001612634565b600061359d33600d546001600160a01b03169084612351565b5090565b6040805160208101859052908101839052606081018290524660808201523060a082015260009060c0016040516020818303038152906040528051906020012090509392505050565b600081815260018301602052604081205461363157508154600181810184556000848152602080822090930184905584548482528286019093526040902091909155610b2c565b506000610b2c565b60608160000180548060200260200160405190810160405280929190818152602001828054801561368957602002820191906000526020600020905b815481526020019060010190808311613675575b50505050509050919050565b611f7b33600d546001600160a01b03169030846123ac565b600554610100900460ff16806136c6575060055460ff16155b6136e25760405162461bcd60e51b8152600401610be19061430d565b600554610100900460ff16158015613704576005805461ffff19166101011790555b604080518082019091526002815261031360f41b60208201526001600160a01b0383166137445760405162461bcd60e51b8152600401610be191906142da565b5061374e84613a86565b61375783613a99565b61376084613aac565b600d80546001600160a01b0319166001600160a01b0384169081179091556040805163313ce56760e01b815290516000929163313ce567916004808301926020929190829003018186803b1580156137b757600080fd5b505afa1580156137cb573d6000803e3d6000fd5b505050506040513d601f19601f820116820180604052508101906137ef9190614228565b60ff1690506137ff8160126145c0565b61380a90600a6144d3565b6015555080156123e4576005805461ff001916905550505050565b600554610100900460ff168061383e575060055460ff16155b61385a5760405162461bcd60e51b8152600401610be19061430d565b600554610100900460ff1615801561387c576005805461ffff19166101011790555b600a80546001600160a01b0319163390811790915560405181906000907fd4459d5b8b913cab0244230fd9b1c08b6ceace7fe9230e60d0f74cbffdf849d0908290a3508015611f7b576005805461ff001916905550565b60606138e28484600085613b2b565b949350505050565b6000806000806000806138fb610b32565b805190915060005b81811015613a7b576000613917858b6145c0565b9050600084838151811061393b57634e487b7160e01b600052603260045260246000fd5b6020026020010151905061394e8161165e565b99508961395c575050613a69565b89821115613968578991505b61397061195a565b604051632e1a7d4d60e01b8152600481018490529098506001600160a01b03821690632e1a7d4d90602401600060405180830381600087803b1580156139b557600080fd5b505af19250505080156139c6575060015b6139d1575050613a69565b6139d961195a565b98506139e5888a6145c0565b600e54604051632fb9ba3160e01b81529198506001600160a01b031690632fb9ba3190613a189084908b90600401614274565b600060405180830381600087803b158015613a3257600080fd5b505af1158015613a46573d6000803e3d6000fd5b505050508686613a569190614455565b95508a8610613a66575050613a7b565b50505b80613a738161463e565b915050613903565b505050505050505050565b8051610c2e906003906020840190613c8c565b8051610c2e906004906020840190613c8c565b80516020808301919091206007819055466008556040805180820190915260018152603160f81b920191909152613b25907f8b73c3c69bb8fe3d512ecc4cf759cc79239f7b179b0ffacaa9a75d522b39400f907fc89efdaa54c0f20c7adf612882df0950f5a951637e0307cdcb4c672f298b8bc66135a1565b60065550565b606082471015613b8c5760405162461bcd60e51b815260206004820152602660248201527f416464726573733a20696e73756666696369656e742062616c616e636520666f6044820152651c8818d85b1b60d21b6064820152608401610be1565b843b613bda5760405162461bcd60e51b815260206004820152601d60248201527f416464726573733a2063616c6c20746f206e6f6e2d636f6e74726163740000006044820152606401610be1565b600080866001600160a01b03168587604051613bf69190614244565b60006040518083038185875af1925050503d8060008114613c33576040519150601f19603f3d011682016040523d82523d6000602084013e613c38565b606091505b5091509150613c48828286613c53565b979650505050505050565b60608315613c62575081610e91565b825115613c725782518084602001fd5b8160405162461bcd60e51b8152600401610be191906142da565b828054613c9890614603565b90600052602060002090601f016020900481019282613cba5760008555613d00565b82601f10613cd357805160ff1916838001178555613d00565b82800160010185558215613d00579182015b82811115613d00578251825591602001919060010190613ce5565b5061359d9291505b8082111561359d5760008155600101613d08565b60008083601f840112613d2d578182fd5b50813567ffffffffffffffff811115613d44578182fd5b6020830191508360208260051b8501011115613d5f57600080fd5b9250929050565b805180151581146111ff57600080fd5b600082601f830112613d86578081fd5b813567ffffffffffffffff811115613da057613da061466f565b613db3601f8201601f1916602001614424565b818152846020838601011115613dc7578283fd5b816020850160208301379081016020019190915292915050565b600060208284031215613df2578081fd5b8135610e9181614685565b600060208284031215613e0e578081fd5b8151610e9181614685565b60008060408385031215613e2b578081fd5b8235613e3681614685565b91506020830135613e4681614685565b809150509250929050565b600080600060608486031215613e65578081fd5b8335613e7081614685565b92506020840135613e8081614685565b929592945050506040919091013590565b600080600080600080600060e0888a031215613eab578283fd5b8735613eb681614685565b96506020880135613ec681614685565b955060408801359450606088013593506080880135613ee48161469a565b9699959850939692959460a0840135945060c09093013592915050565b60008060408385031215613f13578182fd5b8235613f1e81614685565b946020939093013593505050565b60008060008060408587031215613f41578384fd5b843567ffffffffffffffff80821115613f58578586fd5b613f6488838901613d1c565b90965094506020870135915080821115613f7c578384fd5b50613f8987828801613d1c565b95989497509550505050565b60006020808385031215613fa7578182fd5b825167ffffffffffffffff80821115613fbe578384fd5b818501915085601f830112613fd1578384fd5b815181811115613fe357613fe361466f565b8060051b9150613ff4848301614424565b8181528481019084860184860187018a101561400e578788fd5b8795505b8386101561403c578051945061402785614685565b84835260019590950194918601918601614012565b5098975050505050505050565b60006020828403121561405a578081fd5b610e9182613d66565b60008060008060008060008060006101208a8c031215614081578283fd5b61408a8a613d66565b985060208a0151975060408a0151965060608a0151955060808a0151945060a08a0151935060c08a0151925060e08a015191506101008a015190509295985092959850929598565b600080600080608085870312156140e7578182fd5b843567ffffffffffffffff808211156140fe578384fd5b61410a88838901613d76565b9550602087013591508082111561411f578384fd5b5061412c87828801613d76565b935050604085013561413d81614685565b9150606085013561414d81614685565b939692955090935050565b600060208284031215614169578081fd5b5035919050565b600060208284031215614181578081fd5b5051919050565b60008060006060848603121561419c578081fd5b505081359360208301359350604090920135919050565b6000806000606084860312156141c7578081fd5b8351925060208401519150604084015190509250925092565b600080600080600060a086880312156141f7578283fd5b853594506020860135935060408601356142108161469a565b94979396509394606081013594506080013592915050565b600060208284031215614239578081fd5b8151610e918161469a565b600082516142568184602087016145d7565b9190910192915050565b6001600160a01b0391909116815260200190565b6001600160a01b03929092168252602082015260400190565b6020808252825182820181905260009190848201906040850190845b818110156142ce5783516001600160a01b0316835292840192918401916001016142a9565b50909695505050505050565b60006020825282518060208401526142f98160408501602087016145d7565b601f01601f19169190910160400192915050565b6020808252602e908201527f496e697469616c697a61626c653a20636f6e747261637420697320616c72656160408201526d191e481a5b9a5d1a585b1a5e995960921b606082015260800190565b6020808252600c908201526b3737ba16b096b5b2b2b832b960a11b604082015260600190565b60208082526008908201526739b43aba3237bbb760c11b604082015260600190565b6020808252601f908201527f5265656e7472616e637947756172643a207265656e7472616e742063616c6c00604082015260600190565b6020808252600690820152651c185d5cd95960d21b604082015260600190565b60208082526010908201526f3737ba16ba343296b3b7bb32b93737b960811b604082015260600190565b604051601f8201601f1916810167ffffffffffffffff8111828210171561444d5761444d61466f565b604052919050565b6000821982111561446857614468614659565b500190565b60008261448857634e487b7160e01b81526012600452602481fd5b500490565b80825b600180861161449f57506144ca565b8187048211156144b1576144b1614659565b808616156144be57918102915b9490941c938002614490565b94509492505050565b6000610e9160001984846000826144ec57506001610e91565b816144f957506000610e91565b816001811461450f576002811461451957614546565b6001915050610e91565b60ff84111561452a5761452a614659565b6001841b91508482111561454057614540614659565b50610e91565b5060208310610133831016604e8410600b8410161715614579575081810a8381111561457457614574614659565b610e91565b614586848484600161448d565b80860482111561459857614598614659565b02949350505050565b60008160001904831182151516156145bb576145bb614659565b500290565b6000828210156145d2576145d2614659565b500390565b60005b838110156145f25781810151838201526020016145da565b838111156123e45750506000910152565b600181811c9082168061461757607f821691505b6020821081141561463857634e487b7160e01b600052602260045260246000fd5b50919050565b600060001982141561465257614652614659565b5060010190565b634e487b7160e01b600052601160045260246000fd5b634e487b7160e01b600052604160045260246000fd5b6001600160a01b0381168114611f7b57600080fd5b60ff81168114611f7b57600080fdfeddf252ad1be2c89b69c2b068fc378daa952ba7f163c4a11628f55a4df523b3efa2646970667358221220a8ec787fe3e5480ccfedbe2a303c755000b782c7d4650138e0f3e5fc0fa03e5e64736f6c63430008030033",
  "devdoc": {
    "kind": "dev",
    "methods": {
      "DOMAIN_SEPARATOR()": {
        "details": "See {IERC20Permit-DOMAIN_SEPARATOR}."
      },
      "acceptGovernorship()": {
        "details": "Allows new governor to accept governorship of the contract."
      },
      "addKeeper(address)": {
        "params": {
          "_keeperAddress": "keeper address to add."
        }
      },
      "addMaintainer(address)": {
        "params": {
          "_maintainerAddress": "maintainer address to add."
        }
      },
      "addToFeeWhitelist(address)": {
        "params": {
          "_addressToAdd": "Address to add in feeWhitelist."
        }
      },
      "allowance(address,address)": {
        "details": "See {IERC20-allowance}."
      },
      "approve(address,uint256)": {
        "details": "See {IERC20-approve}. Requirements: - `spender` cannot be the zero address."
      },
      "availableCreditLimit(address)": {
        "details": "Available credit limit is calculated based on current debt of pool and strategy, current debt limit of pool and strategy. credit available = min(pool's debt limit, strategy's debt limit, max debt per rebalance) when some strategy do not pay back outstanding debt, this impact credit line of other strategy if totalDebt of pool >= debtLimit of pool",
        "params": {
          "_strategy": "Strategy address"
        }
      },
      "balanceOf(address)": {
        "details": "Returns the amount of tokens owned by `account`."
      },
      "calculateMintage(uint256)": {
        "params": {
          "_amount": "Collateral amount"
        },
        "returns": {
          "_shares": "Amount of share that user will get"
        }
      },
      "convertFrom18(uint256)": {
        "details": "Convert from 18 decimals to token defined decimals."
      },
      "decimals()": {
        "details": "Returns the decimals of the token. default to 18"
      },
      "decreaseAllowance(address,uint256)": {
        "details": "Atomically decreases the allowance granted to `spender` by the caller. This is an alternative to {approve} that can be used as a mitigation for problems described in {IERC20-approve}. Emits an {Approval} event indicating the updated allowance. Requirements: - `spender` cannot be the zero address. - `spender` must have allowance for the caller of at least `subtractedValue`."
      },
      "deposit(uint256)": {
        "params": {
          "_amount": "ERC20 token amount."
        }
      },
      "depositAndClaim(uint256)": {
        "params": {
          "_amount": "ERC20 token amount."
        }
      },
      "depositWithPermit(uint256,uint256,uint8,bytes32,bytes32)": {
        "params": {
          "_amount": "ERC20 token amount.",
          "_deadline": "The time at which signature will expire",
          "_r": "Half of the ECDSA signature pair",
          "_s": "Half of the ECDSA signature pair",
          "_v": "The recovery byte of the signature"
        }
      },
      "excessDebt(address)": {
        "params": {
          "_strategy": "Address of strategy"
        }
      },
      "increaseAllowance(address,uint256)": {
        "details": "Atomically increases the allowance granted to `spender` by the caller. This is an alternative to {approve} that can be used as a mitigation for problems described in {IERC20-approve}. Emits an {Approval} event indicating the updated allowance. Requirements: - `spender` cannot be the zero address."
      },
      "migrateStrategy(address,address)": {
        "details": "Migrating strategy aka old and new strategy should be of same type.",
        "params": {
          "_new": "Address of new strategy",
          "_old": "Address of strategy being migrated"
        }
      },
      "multiTransfer(address[],uint256[])": {
        "details": "Address array and amount array are 1:1 and are in order.",
        "params": {
          "_amounts": "array of token amounts",
          "_recipients": "array of recipient addresses"
        },
        "returns": {
          "_0": "true/false"
        }
      },
      "name()": {
        "details": "Returns the name of the token."
      },
      "permit(address,address,uint256,uint256,uint8,bytes32,bytes32)": {
        "details": "See {IERC20Permit-permit}."
      },
      "pricePerShare()": {
        "details": "Return value will be in token defined decimals."
      },
      "removeFromFeeWhitelist(address)": {
        "params": {
          "_addressToRemove": "Address to remove from feeWhitelist."
        }
      },
      "removeKeeper(address)": {
        "params": {
          "_keeperAddress": "keeper address to remove."
        }
      },
      "removeMaintainer(address)": {
        "params": {
          "_maintainerAddress": "maintainer address to remove."
        }
      },
      "reportEarning(uint256,uint256,uint256)": {
        "details": "Strategy call this in regular interval.",
        "params": {
          "_loss": "Reduce debt ,also reduce debtRatio, increase loss in record.",
          "_payback": "strategy willing to payback outstanding above debtLimit. no performance fee on this amount.  when governance has reduced debtRatio of strategy, strategy will report profit and payback amount separately.",
          "_profit": "yield generated by strategy. Strategy get performance fee on this amount"
        }
      },
      "reportLoss(uint256)": {
        "details": "Some strategies pay deposit fee thus realizing loss at deposit. For example: Curve's 3pool has some slippage due to deposit of one asset in 3pool. Strategy may want report this loss instead of waiting for next rebalance.",
        "params": {
          "_loss": "Loss that strategy want to report"
        }
      },
      "sweepERC20(address)": {
        "details": "Transfer given ERC20 token to feeCollector",
        "params": {
          "_fromToken": "Token address to sweep"
        }
      },
      "symbol()": {
        "details": "Returns the symbol of the token, usually a shorter version of the name."
      },
      "tokensHere()": {
        "details": "Returns the token stored in the pool. It will be in token defined decimals."
      },
      "totalDebtOf(address)": {
        "params": {
          "_strategy": "Strategy address"
        }
      },
      "totalSupply()": {
        "details": "Returns total supply of the token."
      },
      "totalValue()": {
        "details": "Returns total value of vesper pool, in terms of collateral token"
      },
      "transfer(address,uint256)": {
        "details": "See {IERC20-transfer}. Requirements: - `recipient` cannot be the zero address. - the caller must have a balance of at least `amount`."
      },
      "transferFrom(address,address,uint256)": {
        "details": "See {IERC20-transferFrom}. Emits an {Approval} event indicating the updated allowance. This is not required by the EIP. See the note at the beginning of {ERC20}. Requirements: - `sender` and `recipient` cannot be the zero address. - `sender` must have a balance of at least `amount`. - the caller must have allowance for ``sender``'s tokens of at least `amount`."
      },
      "transferGovernorship(address)": {
        "details": "Transfers governorship of the contract to a new account (`proposedGovernor`). Can only be called by the current owner."
      },
      "updateFeeCollector(address)": {
        "params": {
          "_newFeeCollector": "new fee collector address"
        }
      },
      "updatePoolRewards(address)": {
        "params": {
          "_newPoolRewards": "new pool rewards address"
        }
      },
      "updateWithdrawFee(uint256)": {
        "details": "Format: 1500 = 15% fee, 100 = 1%",
        "params": {
          "_newWithdrawFee": "new withdraw fee"
        }
      },
      "whitelistedWithdraw(uint256)": {
        "details": "Burn shares and return collateral. No withdraw fee will be assessed when this function is called. Only some white listed address can call this function.",
        "params": {
          "_shares": "Pool shares. It will be in 18 decimals. This function is deprecated, normal withdraw will check for whitelisted address"
        }
      },
      "withdraw(uint256)": {
        "params": {
          "_shares": "Pool shares. It will be in 18 decimals."
        }
      },
      "withdrawAndClaim(uint256)": {
        "params": {
          "_shares": "Pool shares. It will be in 18 decimals."
        }
      }
    },
    "version": 1
  },
  "userdoc": {
    "kind": "user",
    "methods": {
      "addKeeper(address)": {
        "notice": "Add given address in keepers list."
      },
      "addMaintainer(address)": {
        "notice": "Add given address in maintainers list."
      },
      "addToFeeWhitelist(address)": {
        "notice": "Add given address in feeWhitelist."
      },
      "availableCreditLimit(address)": {
        "notice": "Get available credit limit of strategy. This is the amount strategy can borrow from pool"
      },
      "calculateMintage(uint256)": {
        "notice": "Calculate how much shares user will get for given amount. Also return externalDepositFee if any."
      },
      "deposit(uint256)": {
        "notice": "Deposit ERC20 tokens and receive pool shares depending on the current share price."
      },
      "depositAndClaim(uint256)": {
        "notice": "Deposit ERC20 tokens and claim rewards if any"
      },
      "depositWithPermit(uint256,uint256,uint8,bytes32,bytes32)": {
        "notice": "Deposit ERC20 tokens with permit aka gasless approval."
      },
      "excessDebt(address)": {
        "notice": "Debt above current debt limit"
      },
      "feeWhitelist()": {
        "notice": "Return list of whitelisted addresses"
      },
      "keepers()": {
        "notice": "Return list of keepers"
      },
      "maintainers()": {
        "notice": "Return list of maintainers"
      },
      "migrateStrategy(address,address)": {
        "notice": "Migrate existing strategy to new strategy."
      },
      "multiTransfer(address[],uint256[])": {
        "notice": "Transfer tokens to multiple recipient"
      },
      "pricePerShare()": {
        "notice": "Get price per share"
      },
      "removeFromFeeWhitelist(address)": {
        "notice": "Remove given address from feeWhitelist."
      },
      "removeKeeper(address)": {
        "notice": "Remove given address from keepers list."
      },
      "removeMaintainer(address)": {
        "notice": "Remove given address from maintainers list."
      },
      "reportLoss(uint256)": {
        "notice": "Report loss outside of rebalance activity."
      },
      "totalDebt()": {
        "notice": "Get total debt of pool"
      },
      "totalDebtOf(address)": {
        "notice": "Get total debt of given strategy"
      },
      "totalDebtRatio()": {
        "notice": "Get total debt ratio. Total debt ratio helps us keep buffer in pool"
      },
      "updateFeeCollector(address)": {
        "notice": "Update fee collector address for this pool"
      },
      "updatePoolRewards(address)": {
        "notice": "Update pool rewards address for this pool"
      },
      "updateWithdrawFee(uint256)": {
        "notice": "Update withdraw fee for this pool"
      },
      "whitelistedWithdraw(uint256)": {
        "notice": "Withdraw collateral based on given shares and the current share price."
      },
      "withdraw(uint256)": {
        "notice": "Withdraw collateral based on given shares and the current share price. Withdraw fee, if any, will be deduced from given shares and transferred to feeCollector. Burn remaining shares and return collateral."
      },
      "withdrawAndClaim(uint256)": {
        "notice": "Withdraw collateral and claim rewards if any"
      }
    },
    "version": 1
  },
  "storageLayout": {
    "storage": [
      {
        "astId": 9060,
        "contract": "contracts/pool/VPool.sol:VPool",
        "label": "_balances",
        "offset": 0,
        "slot": "0",
        "type": "t_mapping(t_address,t_uint256)"
      },
      {
        "astId": 9066,
        "contract": "contracts/pool/VPool.sol:VPool",
        "label": "_allowances",
        "offset": 0,
        "slot": "1",
        "type": "t_mapping(t_address,t_mapping(t_address,t_uint256))"
      },
      {
        "astId": 9068,
        "contract": "contracts/pool/VPool.sol:VPool",
        "label": "_totalSupply",
        "offset": 0,
        "slot": "2",
        "type": "t_uint256"
      },
      {
        "astId": 9070,
        "contract": "contracts/pool/VPool.sol:VPool",
        "label": "_name",
        "offset": 0,
        "slot": "3",
        "type": "t_string_storage"
      },
      {
        "astId": 9072,
        "contract": "contracts/pool/VPool.sol:VPool",
        "label": "_symbol",
        "offset": 0,
        "slot": "4",
        "type": "t_string_storage"
      },
      {
        "astId": 887,
        "contract": "contracts/pool/VPool.sol:VPool",
        "label": "_initialized",
        "offset": 0,
        "slot": "5",
        "type": "t_bool"
      },
      {
        "astId": 890,
        "contract": "contracts/pool/VPool.sol:VPool",
        "label": "_initializing",
        "offset": 1,
        "slot": "5",
        "type": "t_bool"
      },
      {
        "astId": 9601,
        "contract": "contracts/pool/VPool.sol:VPool",
        "label": "_CACHED_DOMAIN_SEPARATOR",
        "offset": 0,
        "slot": "6",
        "type": "t_bytes32"
      },
      {
        "astId": 9603,
        "contract": "contracts/pool/VPool.sol:VPool",
        "label": "_HASHED_NAME",
        "offset": 0,
        "slot": "7",
        "type": "t_bytes32"
      },
      {
        "astId": 9605,
        "contract": "contracts/pool/VPool.sol:VPool",
        "label": "_CACHED_CHAIN_ID",
        "offset": 0,
        "slot": "8",
        "type": "t_uint256"
      },
      {
        "astId": 9611,
        "contract": "contracts/pool/VPool.sol:VPool",
        "label": "nonces",
        "offset": 0,
        "slot": "9",
        "type": "t_mapping(t_address,t_uint256)"
      },
      {
        "astId": 3732,
        "contract": "contracts/pool/VPool.sol:VPool",
        "label": "governor",
        "offset": 0,
        "slot": "10",
        "type": "t_address"
      },
      {
        "astId": 3734,
        "contract": "contracts/pool/VPool.sol:VPool",
        "label": "proposedGovernor",
        "offset": 0,
        "slot": "11",
        "type": "t_address"
      },
      {
        "astId": 3876,
        "contract": "contracts/pool/VPool.sol:VPool",
        "label": "paused",
        "offset": 20,
        "slot": "11",
        "type": "t_bool"
      },
      {
        "astId": 3878,
        "contract": "contracts/pool/VPool.sol:VPool",
        "label": "stopEverything",
        "offset": 21,
        "slot": "11",
        "type": "t_bool"
      },
      {
        "astId": 938,
        "contract": "contracts/pool/VPool.sol:VPool",
        "label": "_status",
        "offset": 0,
        "slot": "12",
        "type": "t_uint256"
      },
      {
        "astId": 11674,
        "contract": "contracts/pool/VPool.sol:VPool",
        "label": "token",
        "offset": 0,
        "slot": "13",
        "type": "t_contract(IERC20)1552"
      },
      {
        "astId": 11676,
        "contract": "contracts/pool/VPool.sol:VPool",
        "label": "poolAccountant",
        "offset": 0,
        "slot": "14",
        "type": "t_address"
      },
      {
        "astId": 11678,
        "contract": "contracts/pool/VPool.sol:VPool",
        "label": "poolRewards",
        "offset": 0,
        "slot": "15",
        "type": "t_address"
      },
      {
        "astId": 11680,
        "contract": "contracts/pool/VPool.sol:VPool",
        "label": "feeWhitelistObsolete",
        "offset": 0,
        "slot": "16",
        "type": "t_address"
      },
      {
        "astId": 11682,
        "contract": "contracts/pool/VPool.sol:VPool",
        "label": "keepersObsolete",
        "offset": 0,
        "slot": "17",
        "type": "t_address"
      },
      {
        "astId": 11684,
        "contract": "contracts/pool/VPool.sol:VPool",
        "label": "maintainersObsolete",
        "offset": 0,
        "slot": "18",
        "type": "t_address"
      },
      {
        "astId": 11686,
        "contract": "contracts/pool/VPool.sol:VPool",
        "label": "feeCollector",
        "offset": 0,
        "slot": "19",
        "type": "t_address"
      },
      {
        "astId": 11688,
        "contract": "contracts/pool/VPool.sol:VPool",
        "label": "withdrawFee",
        "offset": 0,
        "slot": "20",
        "type": "t_uint256"
      },
      {
        "astId": 11690,
        "contract": "contracts/pool/VPool.sol:VPool",
        "label": "decimalConversionFactor",
        "offset": 0,
        "slot": "21",
        "type": "t_uint256"
      },
      {
        "astId": 11692,
        "contract": "contracts/pool/VPool.sol:VPool",
        "label": "withdrawInETH",
        "offset": 0,
        "slot": "22",
        "type": "t_bool"
      },
      {
        "astId": 11698,
        "contract": "contracts/pool/VPool.sol:VPool",
        "label": "_feeWhitelist",
        "offset": 0,
        "slot": "23",
        "type": "t_struct(AddressSet)4299_storage"
      },
      {
        "astId": 11701,
        "contract": "contracts/pool/VPool.sol:VPool",
        "label": "_keepers",
        "offset": 0,
        "slot": "25",
        "type": "t_struct(AddressSet)4299_storage"
      },
      {
        "astId": 11704,
        "contract": "contracts/pool/VPool.sol:VPool",
        "label": "_maintainers",
        "offset": 0,
        "slot": "27",
        "type": "t_struct(AddressSet)4299_storage"
      }
    ],
    "types": {
      "t_address": {
        "encoding": "inplace",
        "label": "address",
        "numberOfBytes": "20"
      },
      "t_array(t_bytes32)dyn_storage": {
        "base": "t_bytes32",
        "encoding": "dynamic_array",
        "label": "bytes32[]",
        "numberOfBytes": "32"
      },
      "t_bool": {
        "encoding": "inplace",
        "label": "bool",
        "numberOfBytes": "1"
      },
      "t_bytes32": {
        "encoding": "inplace",
        "label": "bytes32",
        "numberOfBytes": "32"
      },
      "t_contract(IERC20)1552": {
        "encoding": "inplace",
        "label": "contract IERC20",
        "numberOfBytes": "20"
      },
      "t_mapping(t_address,t_mapping(t_address,t_uint256))": {
        "encoding": "mapping",
        "key": "t_address",
        "label": "mapping(address => mapping(address => uint256))",
        "numberOfBytes": "32",
        "value": "t_mapping(t_address,t_uint256)"
      },
      "t_mapping(t_address,t_uint256)": {
        "encoding": "mapping",
        "key": "t_address",
        "label": "mapping(address => uint256)",
        "numberOfBytes": "32",
        "value": "t_uint256"
      },
      "t_mapping(t_bytes32,t_uint256)": {
        "encoding": "mapping",
        "key": "t_bytes32",
        "label": "mapping(bytes32 => uint256)",
        "numberOfBytes": "32",
        "value": "t_uint256"
      },
      "t_string_storage": {
        "encoding": "bytes",
        "label": "string",
        "numberOfBytes": "32"
      },
      "t_struct(AddressSet)4299_storage": {
        "encoding": "inplace",
        "label": "struct EnumerableSet.AddressSet",
        "members": [
          {
            "astId": 4298,
            "contract": "contracts/pool/VPool.sol:VPool",
            "label": "_inner",
            "offset": 0,
            "slot": "0",
            "type": "t_struct(Set)3998_storage"
          }
        ],
        "numberOfBytes": "64"
      },
      "t_struct(Set)3998_storage": {
        "encoding": "inplace",
        "label": "struct EnumerableSet.Set",
        "members": [
          {
            "astId": 3993,
            "contract": "contracts/pool/VPool.sol:VPool",
            "label": "_values",
            "offset": 0,
            "slot": "0",
            "type": "t_array(t_bytes32)dyn_storage"
          },
          {
            "astId": 3997,
            "contract": "contracts/pool/VPool.sol:VPool",
            "label": "_indexes",
            "offset": 0,
            "slot": "1",
            "type": "t_mapping(t_bytes32,t_uint256)"
          }
        ],
        "numberOfBytes": "64"
      },
      "t_uint256": {
        "encoding": "inplace",
        "label": "uint256",
        "numberOfBytes": "32"
      }
    }
  }
}