{
  "address": "0x718E58C448116FE7315caEE135b12793AFc4FDf4",
  "abi": [
    {
      "inputs": [
        {
          "internalType": "address",
          "name": "_pool",
          "type": "address"
        },
        {
          "internalType": "address",
          "name": "_swapManager",
          "type": "address"
        },
        {
          "internalType": "address",
          "name": "_receiptToken",
          "type": "address"
        },
        {
          "internalType": "string",
          "name": "_name",
          "type": "string"
        }
      ],
      "stateMutability": "nonpayable",
      "type": "constructor"
    },
    {
      "anonymous": false,
      "inputs": [
        {
          "indexed": false,
          "internalType": "address",
          "name": "_previousProvider",
          "type": "address"
        },
        {
          "indexed": false,
          "internalType": "address",
          "name": "_newProvider",
          "type": "address"
        }
      ],
      "name": "UpdatedAddressesProvider",
      "type": "event"
    },
    {
      "anonymous": false,
      "inputs": [
        {
          "indexed": true,
          "internalType": "address",
          "name": "previousFeeCollector",
          "type": "address"
        },
        {
          "indexed": true,
          "internalType": "address",
          "name": "newFeeCollector",
          "type": "address"
        }
      ],
      "name": "UpdatedFeeCollector",
      "type": "event"
    },
    {
      "anonymous": false,
      "inputs": [
        {
          "indexed": false,
          "internalType": "uint256",
          "name": "oldPeriod",
          "type": "uint256"
        },
        {
          "indexed": false,
          "internalType": "uint256",
          "name": "newPeriod",
          "type": "uint256"
        },
        {
          "indexed": false,
          "internalType": "uint256",
          "name": "oldRouterIdx",
          "type": "uint256"
        },
        {
          "indexed": false,
          "internalType": "uint256",
          "name": "newRouterIdx",
          "type": "uint256"
        }
      ],
      "name": "UpdatedOracleConfig",
      "type": "event"
    },
    {
      "anonymous": false,
      "inputs": [
        {
          "indexed": true,
          "internalType": "address",
          "name": "previousSwapManager",
          "type": "address"
        },
        {
          "indexed": true,
          "internalType": "address",
          "name": "newSwapManager",
          "type": "address"
        }
      ],
      "name": "UpdatedSwapManager",
      "type": "event"
    },
    {
      "anonymous": false,
      "inputs": [
        {
          "indexed": false,
          "internalType": "uint256",
          "name": "oldSwapSlippage",
          "type": "uint256"
        },
        {
          "indexed": false,
          "internalType": "uint256",
          "name": "newSwapSlippage",
          "type": "uint256"
        }
      ],
      "name": "UpdatedSwapSlippage",
      "type": "event"
    },
    {
      "inputs": [],
      "name": "NAME",
      "outputs": [
        {
          "internalType": "string",
          "name": "",
          "type": "string"
        }
      ],
      "stateMutability": "view",
      "type": "function"
    },
    {
      "inputs": [],
      "name": "VERSION",
      "outputs": [
        {
          "internalType": "string",
          "name": "",
          "type": "string"
        }
      ],
      "stateMutability": "view",
      "type": "function"
    },
    {
      "inputs": [],
      "name": "aaveAddressesProvider",
      "outputs": [
        {
          "internalType": "contract AaveLendingPoolAddressesProvider",
          "name": "",
          "type": "address"
        }
      ],
      "stateMutability": "view",
      "type": "function"
    },
    {
      "inputs": [],
      "name": "aaveIncentivesController",
      "outputs": [
        {
          "internalType": "contract AaveIncentivesController",
          "name": "",
          "type": "address"
        }
      ],
      "stateMutability": "view",
      "type": "function"
    },
    {
      "inputs": [],
      "name": "aaveLendingPool",
      "outputs": [
        {
          "internalType": "contract AaveLendingPool",
          "name": "",
          "type": "address"
        }
      ],
      "stateMutability": "view",
      "type": "function"
    },
    {
      "inputs": [],
      "name": "aaveProtocolDataProvider",
      "outputs": [
        {
          "internalType": "contract AaveProtocolDataProvider",
          "name": "",
          "type": "address"
        }
      ],
      "stateMutability": "view",
      "type": "function"
    },
    {
      "inputs": [
        {
          "internalType": "address",
          "name": "_keeperAddress",
          "type": "address"
        }
      ],
      "name": "addKeeper",
      "outputs": [],
      "stateMutability": "nonpayable",
      "type": "function"
    },
    {
      "inputs": [],
      "name": "approveToken",
      "outputs": [],
      "stateMutability": "nonpayable",
      "type": "function"
    },
    {
      "inputs": [],
      "name": "collateralToken",
      "outputs": [
        {
          "internalType": "contract IERC20",
          "name": "",
          "type": "address"
        }
      ],
      "stateMutability": "view",
      "type": "function"
    },
    {
      "inputs": [],
      "name": "feeCollector",
      "outputs": [
        {
          "internalType": "address",
          "name": "",
          "type": "address"
        }
      ],
      "stateMutability": "view",
      "type": "function"
    },
    {
      "inputs": [
        {
          "internalType": "address",
          "name": "_token",
          "type": "address"
        }
      ],
      "name": "isReservedToken",
      "outputs": [
        {
          "internalType": "bool",
          "name": "",
          "type": "bool"
        }
      ],
      "stateMutability": "view",
      "type": "function"
    },
    {
      "inputs": [],
      "name": "keepers",
      "outputs": [
        {
          "internalType": "address[]",
          "name": "",
          "type": "address[]"
        }
      ],
      "stateMutability": "view",
      "type": "function"
    },
    {
      "inputs": [
        {
          "internalType": "address",
          "name": "_newStrategy",
          "type": "address"
        }
      ],
      "name": "migrate",
      "outputs": [],
      "stateMutability": "nonpayable",
      "type": "function"
    },
    {
      "inputs": [],
      "name": "oraclePeriod",
      "outputs": [
        {
          "internalType": "uint256",
          "name": "",
          "type": "uint256"
        }
      ],
      "stateMutability": "view",
      "type": "function"
    },
    {
      "inputs": [],
      "name": "oracleRouterIdx",
      "outputs": [
        {
          "internalType": "uint256",
          "name": "",
          "type": "uint256"
        }
      ],
      "stateMutability": "view",
      "type": "function"
    },
    {
      "inputs": [],
      "name": "pool",
      "outputs": [
        {
          "internalType": "address",
          "name": "",
          "type": "address"
        }
      ],
      "stateMutability": "view",
      "type": "function"
    },
    {
      "inputs": [],
      "name": "rebalance",
      "outputs": [],
      "stateMutability": "nonpayable",
      "type": "function"
    },
    {
      "inputs": [],
      "name": "receiptToken",
      "outputs": [
        {
          "internalType": "address",
          "name": "",
          "type": "address"
        }
      ],
      "stateMutability": "view",
      "type": "function"
    },
    {
      "inputs": [
        {
          "internalType": "address",
          "name": "_keeperAddress",
          "type": "address"
        }
      ],
      "name": "removeKeeper",
      "outputs": [],
      "stateMutability": "nonpayable",
      "type": "function"
    },
    {
      "inputs": [],
      "name": "rewardToken",
      "outputs": [
        {
          "internalType": "address",
          "name": "",
          "type": "address"
        }
      ],
      "stateMutability": "view",
      "type": "function"
    },
    {
      "inputs": [],
      "name": "setupOracles",
      "outputs": [],
      "stateMutability": "nonpayable",
      "type": "function"
    },
    {
      "inputs": [],
      "name": "swapManager",
      "outputs": [
        {
          "internalType": "contract ISwapManager",
          "name": "",
          "type": "address"
        }
      ],
      "stateMutability": "view",
      "type": "function"
    },
    {
      "inputs": [],
      "name": "swapSlippage",
      "outputs": [
        {
          "internalType": "uint256",
          "name": "",
          "type": "uint256"
        }
      ],
      "stateMutability": "view",
      "type": "function"
    },
    {
      "inputs": [
        {
          "internalType": "address",
          "name": "_fromToken",
          "type": "address"
        }
      ],
      "name": "sweepERC20",
      "outputs": [],
      "stateMutability": "nonpayable",
      "type": "function"
    },
    {
      "inputs": [],
      "name": "token",
      "outputs": [
        {
          "internalType": "address",
          "name": "",
          "type": "address"
        }
      ],
      "stateMutability": "view",
      "type": "function"
    },
    {
      "inputs": [],
      "name": "totalValue",
      "outputs": [
        {
          "internalType": "uint256",
          "name": "",
          "type": "uint256"
        }
      ],
      "stateMutability": "view",
      "type": "function"
    },
    {
      "inputs": [],
      "name": "totalValueCurrent",
      "outputs": [
        {
          "internalType": "uint256",
          "name": "",
          "type": "uint256"
        }
      ],
      "stateMutability": "nonpayable",
      "type": "function"
    },
    {
      "inputs": [
        {
          "internalType": "address",
          "name": "_newAddressesProvider",
          "type": "address"
        }
      ],
      "name": "updateAddressesProvider",
      "outputs": [],
      "stateMutability": "nonpayable",
      "type": "function"
    },
    {
      "inputs": [
        {
          "internalType": "address",
          "name": "_feeCollector",
          "type": "address"
        }
      ],
      "name": "updateFeeCollector",
      "outputs": [],
      "stateMutability": "nonpayable",
      "type": "function"
    },
    {
      "inputs": [
        {
          "internalType": "uint256",
          "name": "_newPeriod",
          "type": "uint256"
        },
        {
          "internalType": "uint256",
          "name": "_newRouterIdx",
          "type": "uint256"
        }
      ],
      "name": "updateOracleConfig",
      "outputs": [],
      "stateMutability": "nonpayable",
      "type": "function"
    },
    {
      "inputs": [
        {
          "internalType": "address",
          "name": "_swapManager",
          "type": "address"
        }
      ],
      "name": "updateSwapManager",
      "outputs": [],
      "stateMutability": "nonpayable",
      "type": "function"
    },
    {
      "inputs": [
        {
          "internalType": "uint256",
          "name": "_newSwapSlippage",
          "type": "uint256"
        }
      ],
      "name": "updateSwapSlippage",
      "outputs": [],
      "stateMutability": "nonpayable",
      "type": "function"
    },
    {
      "inputs": [
        {
          "internalType": "uint256",
          "name": "_amount",
          "type": "uint256"
        }
      ],
      "name": "withdraw",
      "outputs": [],
      "stateMutability": "nonpayable",
      "type": "function"
    }
  ],
  "transactionHash": "0xcf46d7cd4bcd15a17a2d890bca0c9804cd11649b08a80ab87b4d683ed9411fd2",
  "args": [
    "0x13AECC59A88A65F02E053eEce29d743a952D6f1e",
    "0xEbedFD259c9FB1F5c0ab9A9f24E79F8d80E29B23",
    "0x46A51127C3ce23fb7AB1DE06226147F446e4a857",
    "AaveStrategyAvalancheUSDC"
  ],
  "solcInputHash": "823560cd19d9e3828cc7119f3ce09956",
  "bytecode": "0x60e0604052600080546001600160a01b031990811673c02aaa39b223fe8d0a0e5c4f27ead9083c756cc2178255610e10600455600591909155612710600655600d8054821673b6a86025f0fe1862b372cb0ca18ce3ede02a318f179055600e805490911673b31f66aa3c1e785363f0875a1b74e27b85fd66c71790553480156200008857600080fd5b5060405162003e0d38038062003e0d833981016040819052620000ab916200063d565b8383836001600160a01b0383166200010a5760405162461bcd60e51b815260206004820152601460248201527f706f6f6c2d616464726573732d69732d7a65726f00000000000000000000000060448201526064015b60405180910390fd5b6001600160a01b038216620001575760405162461bcd60e51b8152602060048201526012602482015271736d2d616464726573732d69732d7a65726f60701b604482015260640162000101565b600380546001600160a01b0319166001600160a01b0384811691909117909155606084901b6001600160601b03191660a05260408051637e062a3560e11b815290519185169163fc0c546a91600480820192602092909190829003018186803b158015620001c457600080fd5b505afa158015620001d9573d6000803e3d6000fd5b505050506040513d601f19601f82011682018060405250810190620001ff919062000617565b60601b6001600160601b031916608052600180546001600160a01b0319166001600160a01b0383161790556200024c620002363390565b6007620004ff60201b62001b191790919060201c565b6200028e5760405162461bcd60e51b81526020600482015260116024820152701859190b5ad9595c195c8b59985a5b1959607a1b604482015260640162000101565b5050506001600160a01b038216620002e95760405162461bcd60e51b815260206004820152601660248201527f61546f6b656e2d616464726573732d69732d7a65726f00000000000000000000604482015260640162000101565b816001600160a01b031660c0816001600160a01b031660601b81525050816001600160a01b03166375d264136040518163ffffffff1660e01b815260040160206040518083038186803b1580156200034057600080fd5b505afa92505050801562000373575060408051601f3d908101601f19168201909252620003709181019062000617565b60015b6200037e576200039f565b600c80546001600160a01b0319166001600160a01b03929092169190911790555b600d60009054906101000a90046001600160a01b03166001600160a01b0316630261bf8b6040518163ffffffff1660e01b815260040160206040518083038186803b158015620003ee57600080fd5b505afa15801562000403573d6000803e3d6000fd5b505050506040513d601f19601f8201168201806040525081019062000429919062000617565b600a80546001600160a01b0319166001600160a01b03928316179055600d546040516321f8a72160e01b8152600160f81b60048201529116906321f8a7219060240160206040518083038186803b1580156200048457600080fd5b505afa15801562000499573d6000803e3d6000fd5b505050506040513d601f19601f82011682018060405250810190620004bf919062000617565b600b80546001600160a01b0319166001600160a01b03929092169190911790558051620004f490600990602084019062000571565b5050505050620007c1565b600062000516836001600160a01b0384166200051f565b90505b92915050565b6000818152600183016020526040812054620005685750815460018181018455600084815260208082209093018490558454848252828601909352604090209190915562000519565b50600062000519565b8280546200057f9062000755565b90600052602060002090601f016020900481019282620005a35760008555620005ee565b82601f10620005be57805160ff1916838001178555620005ee565b82800160010185558215620005ee579182015b82811115620005ee578251825591602001919060010190620005d1565b50620005fc92915062000600565b5090565b5b80821115620005fc576000815560010162000601565b60006020828403121562000629578081fd5b81516200063681620007a8565b9392505050565b6000806000806080858703121562000653578283fd5b84516200066081620007a8565b809450506020808601516200067581620007a8565b60408701519094506200068881620007a8565b60608701519093506001600160401b0380821115620006a5578384fd5b818801915088601f830112620006b9578384fd5b815181811115620006ce57620006ce62000792565b604051601f8201601f19908116603f01168101908382118183101715620006f957620006f962000792565b816040528281528b8684870101111562000711578687fd5b8693505b8284101562000734578484018601518185018701529285019262000715565b828411156200074557868684830101525b989b979a50959850505050505050565b600181811c908216806200076a57607f821691505b602082108114156200078c57634e487b7160e01b600052602260045260246000fd5b50919050565b634e487b7160e01b600052604160045260246000fd5b6001600160a01b0381168114620007be57600080fd5b50565b60805160601c60a05160601c60c05160601c613525620008e8600039600081816109bd01528181611602015281816116b2015281816118530152818161226b01528181612421015281816125610152612aaf015260008181610203015281816104510152818161056c0152818161085f015281816108af01528181610a1201528181610bc501528181610d7901528181610ec001528181611120015281816111bd0152818161141101528181611b5101528181611ba001528181611c400152611dec01526000818161035a01528181611344015281816113e8015281816117ba0152818161196201528181611d1f01528181611dca01528181611e2201528181612333015281816123e3015281816124d701528181612647015261294d01526135256000f3fe608060405234801561001057600080fd5b50600436106101bb5760003560e01c806399b71d5c116100fa578063d2c35ce81161009d578063d2c35ce8146103ab578063d4c3eea0146103be578063e00af4a7146103c6578063e645c202146103d9578063e9d337b8146103e1578063ec78e832146103f4578063f7c618c114610407578063fc0c546a1461041a578063ffa1ad741461042b576101bb565b806399b71d5c1461031d578063a3f4df7e14610325578063a923b2a61461033a578063aa1018861461034d578063b2016bd414610355578063c415b95c1461037c578063cd2d7ebe1461038f578063ce5494bb14610398576101bb565b8063440d724811610162578063440d72481461027e5780634c36fad7146102a15780635f2475ca146102b45780635f9d4d2e146102c757806367f5e4b8146102da578063709d039d146102ed5780637d7c2a1c14610300578063951dc22c14610308576101bb565b806308bfa40a146101c057806314ae9f2e146101e957806316f0115b146101fe5780631aedeabe14610225578063219a98221461023c5780632e1a7d4d1461024f5780634032b72b1461026257806342189c8f14610275575b600080fd5b600d546101d3906001600160a01b031681565b6040516101e091906131f9565b60405180910390f35b6101fc6101f7366004612f23565b61044f565b005b6101d37f000000000000000000000000000000000000000000000000000000000000000081565b61022e60065481565b6040519081526020016101e0565b6101fc61024a366004612f23565b61056a565b6101fc61025d3660046130c2565b61085c565b6101fc610270366004612f23565b6108ad565b61022e60045481565b61029161028c366004612f23565b6109b9565b60405190151581526020016101e0565b6101fc6102af366004612f23565b610a10565b600c546101d3906001600160a01b031681565b600b546101d3906001600160a01b031681565b6101fc6102e83660046130c2565b610bc3565b6003546101d3906001600160a01b031681565b6101fc610d0f565b610310610de2565b6040516101e09190613231565b6101fc610df4565b61032d610e30565b6040516101e091906132a1565b6101fc6103483660046130f2565b610ebe565b6101fc6110f3565b6101d37f000000000000000000000000000000000000000000000000000000000000000081565b6002546101d3906001600160a01b031681565b61022e60055481565b6101fc6103a6366004612f23565b61111d565b6101fc6103b9366004612f23565b61140f565b61022e6115d8565b6101fc6103d4366004612f23565b6118eb565b61022e611b0f565b600a546101d3906001600160a01b031681565b6001546101d3906001600160a01b031681565b600e546101d3906001600160a01b031681565b6001546001600160a01b03166101d3565b61032d604051806040016040528060058152602001640342e302e360dc1b81525081565b7f00000000000000000000000000000000000000000000000000000000000000006001600160a01b0316630c340a246040518163ffffffff1660e01b815260040160206040518083038186803b1580156104a857600080fd5b505afa1580156104bc573d6000803e3d6000fd5b505050506040513d601f19601f820116820180604052508101906104e09190612f3f565b6001600160a01b0316336001600160a01b0316146105195760405162461bcd60e51b815260040161051090613304565b60405180910390fd5b610524600782611b37565b6105675760405162461bcd60e51b81526020600482015260146024820152731c995b5bdd994b5ad9595c195c8b59985a5b195960621b6044820152606401610510565b50565b7f00000000000000000000000000000000000000000000000000000000000000006001600160a01b0316630c340a246040518163ffffffff1660e01b815260040160206040518083038186803b1580156105c357600080fd5b505afa1580156105d7573d6000803e3d6000fd5b505050506040513d601f19601f820116820180604052508101906105fb9190612f3f565b6001600160a01b0316336001600160a01b03161461062b5760405162461bcd60e51b815260040161051090613304565b6001600160a01b03811661067c5760405162461bcd60e51b815260206004820152601860248201527770726f76696465722d616464726573732d69732d7a65726f60401b6044820152606401610510565b600d546001600160a01b03828116911614156106d45760405162461bcd60e51b815260206004820152601760248201527639b0b6b296b0b2323932b9b9b2b996b83937bb34b232b960491b6044820152606401610510565b600d54604080516001600160a01b03928316815291831660208301527fbea7427e7cdf11a91902e5dff8bf8ac6fe4861aa0940763e8fd78bb6f45798de910160405180910390a1600d80546001600160a01b0319166001600160a01b03831690811790915560408051630261bf8b60e01b81529051630261bf8b91600480820192602092909190829003018186803b15801561076f57600080fd5b505afa158015610783573d6000803e3d6000fd5b505050506040513d601f19601f820116820180604052508101906107a79190612f3f565b600a80546001600160a01b0319166001600160a01b03928316179055600d546040516321f8a72160e01b8152600160f81b60048201529116906321f8a7219060240160206040518083038186803b15801561080157600080fd5b505afa158015610815573d6000803e3d6000fd5b505050506040513d601f19601f820116820180604052508101906108399190612f3f565b600b80546001600160a01b0319166001600160a01b039290921691909117905550565b337f00000000000000000000000000000000000000000000000000000000000000006001600160a01b0316146108a45760405162461bcd60e51b81526004016105109061333b565b61056781611b4c565b7f00000000000000000000000000000000000000000000000000000000000000006001600160a01b0316630c340a246040518163ffffffff1660e01b815260040160206040518083038186803b15801561090657600080fd5b505afa15801561091a573d6000803e3d6000fd5b505050506040513d601f19601f8201168201806040525081019061093e9190612f3f565b6001600160a01b0316336001600160a01b03161461096e5760405162461bcd60e51b815260040161051090613304565b610979600782611b19565b6105675760405162461bcd60e51b81526020600482015260116024820152701859190b5ad9595c195c8b59985a5b1959607a1b6044820152606401610510565b60007f00000000000000000000000000000000000000000000000000000000000000006001600160a01b0316826001600160a01b03161480610a085750600e546001600160a01b038381169116145b90505b919050565b7f00000000000000000000000000000000000000000000000000000000000000006001600160a01b0316630c340a246040518163ffffffff1660e01b815260040160206040518083038186803b158015610a6957600080fd5b505afa158015610a7d573d6000803e3d6000fd5b505050506040513d601f19601f82011682018060405250810190610aa19190612f3f565b6001600160a01b0316336001600160a01b031614610ad15760405162461bcd60e51b815260040161051090613304565b6001600160a01b038116610b1c5760405162461bcd60e51b8152602060048201526012602482015271736d2d616464726573732d69732d7a65726f60701b6044820152606401610510565b6003546001600160a01b0382811691161415610b675760405162461bcd60e51b815260206004820152600a602482015269736d2d69732d73616d6560b01b6044820152606401610510565b6003546040516001600160a01b038084169216907f2d19927e7cac08ceb98b38898a4fdff6da6a27295b9a2d62fe250408ebe044e190600090a3600380546001600160a01b0319166001600160a01b0392909216919091179055565b7f00000000000000000000000000000000000000000000000000000000000000006001600160a01b0316630c340a246040518163ffffffff1660e01b815260040160206040518083038186803b158015610c1c57600080fd5b505afa158015610c30573d6000803e3d6000fd5b505050506040513d601f19601f82011682018060405250810190610c549190612f3f565b6001600160a01b0316336001600160a01b031614610c845760405162461bcd60e51b815260040161051090613304565b612710811115610ccf5760405162461bcd60e51b8152602060048201526016602482015275696e76616c69642d736c6970706167652d76616c756560501b6044820152606401610510565b60065460408051918252602082018390527ef1c5db862c7598b3b6765552ca951f498611e06412c2d57f8d0b58f82e7f82910160405180910390a1600655565b610d1c335b600790611b76565b610d385760405162461bcd60e51b8152600401610510906132d4565b6000806000610d45611b98565b6040516302df682360e11b815260048101849052602481018390526044810182905292955090935091506001600160a01b037f000000000000000000000000000000000000000000000000000000000000000016906305bed04690606401600060405180830381600087803b158015610dbd57600080fd5b505af1158015610dd1573d6000803e3d6000fd5b50505050610ddd611d04565b505050565b6060610dee6007611da9565b90505b90565b610dfd33610d14565b610e195760405162461bcd60e51b8152600401610510906132d4565b610e236000611dbd565b610e2e600019611dbd565b565b60098054610e3d9061345e565b80601f0160208091040260200160405190810160405280929190818152602001828054610e699061345e565b8015610eb65780601f10610e8b57610100808354040283529160200191610eb6565b820191906000526020600020905b815481529060010190602001808311610e9957829003601f168201915b505050505081565b7f00000000000000000000000000000000000000000000000000000000000000006001600160a01b0316630c340a246040518163ffffffff1660e01b815260040160206040518083038186803b158015610f1757600080fd5b505afa158015610f2b573d6000803e3d6000fd5b505050506040513d601f19601f82011682018060405250810190610f4f9190612f3f565b6001600160a01b0316336001600160a01b031614610f7f5760405162461bcd60e51b815260040161051090613304565b600360009054906101000a90046001600160a01b03166001600160a01b031663c2fba6676040518163ffffffff1660e01b815260040160206040518083038186803b158015610fcd57600080fd5b505afa158015610fe1573d6000803e3d6000fd5b505050506040513d601f19601f8201168201806040525081019061100591906130da565b811061104a5760405162461bcd60e51b81526020600482015260146024820152730d2dcecc2d8d2c85ae4deeae8cae45ad2dcc8caf60631b6044820152606401610510565b816110555760045491505b603b821161109d5760405162461bcd60e51b81526020600482015260156024820152741a5b9d985b1a590b5bdc9858db194b5c195c9a5bd9605a1b6044820152606401610510565b6004546005546040805192835260208301859052820152606081018290527f83bc5ab8030537fcf1d29c2334f6d22c26c82dcbe5ff03923d2cff5c692c0a7f9060800160405180910390a1600491909155600555565b6110fc33610d14565b6111185760405162461bcd60e51b8152600401610510906132d4565b610e2e565b337f00000000000000000000000000000000000000000000000000000000000000006001600160a01b0316146111655760405162461bcd60e51b81526004016105109061333b565b6001600160a01b0381166111bb5760405162461bcd60e51b815260206004820152601c60248201527f6e65772d73747261746567792d616464726573732d69732d7a65726f000000006044820152606401610510565b7f00000000000000000000000000000000000000000000000000000000000000006001600160a01b0316816001600160a01b03166316f0115b6040518163ffffffff1660e01b815260040160206040518083038186803b15801561121e57600080fd5b505afa158015611232573d6000803e3d6000fd5b505050506040513d601f19601f820116820180604052508101906112569190612f3f565b6001600160a01b0316146112a55760405162461bcd60e51b81526020600482015260166024820152756e6f742d76616c69642d6e65772d737472617465677960501b6044820152606401610510565b6001546040516370a0823160e01b815261133e9183916001600160a01b03909116906370a08231906112db9030906004016131f9565b60206040518083038186803b1580156112f357600080fd5b505afa158015611307573d6000803e3d6000fd5b505050506040513d601f19601f8201168201806040525081019061132b91906130da565b6001546001600160a01b03169190611f7e565b610567817f00000000000000000000000000000000000000000000000000000000000000006001600160a01b03166370a08231306040518263ffffffff1660e01b815260040161138e91906131f9565b60206040518083038186803b1580156113a657600080fd5b505afa1580156113ba573d6000803e3d6000fd5b505050506040513d601f19601f820116820180604052508101906113de91906130da565b6001600160a01b037f0000000000000000000000000000000000000000000000000000000000000000169190611f7e565b7f00000000000000000000000000000000000000000000000000000000000000006001600160a01b0316630c340a246040518163ffffffff1660e01b815260040160206040518083038186803b15801561146857600080fd5b505afa15801561147c573d6000803e3d6000fd5b505050506040513d601f19601f820116820180604052508101906114a09190612f3f565b6001600160a01b0316336001600160a01b0316146114d05760405162461bcd60e51b815260040161051090613304565b6001600160a01b0381166115265760405162461bcd60e51b815260206004820152601d60248201527f6665652d636f6c6c6563746f722d616464726573732d69732d7a65726f0000006044820152606401610510565b6002546001600160a01b038281169116141561157c5760405162461bcd60e51b81526020600482015260156024820152746665652d636f6c6c6563746f722d69732d73616d6560581b6044820152606401610510565b6002546040516001600160a01b038084169216907f0f06062680f9bd68e786e9980d9bb03d73d5620fc3b345e417b6eacb310b970690600090a3600280546001600160a01b0319166001600160a01b0392909216919091179055565b600c546000906001600160a01b031661168e576040516370a0823160e01b81526001600160a01b037f000000000000000000000000000000000000000000000000000000000000000016906370a08231906116379030906004016131f9565b60206040518083038186803b15801561164f57600080fd5b505afa158015611663573d6000803e3d6000fd5b505050506040513d601f19601f8201168201806040525081019061168791906130da565b9050610df1565b604080516001808252818301909252600091602080830190803683370190505090507f0000000000000000000000000000000000000000000000000000000000000000816000815181106116f257634e487b7160e01b600052603260045260246000fd5b6001600160a01b039283166020918202929092010152600c546040516345accf9360e11b81526000929190911690638b599f26906117369085903090600401613244565b60206040518083038186803b15801561174e57600080fd5b505afa158015611762573d6000803e3d6000fd5b505050506040513d601f19601f8201168201806040525081019061178691906130da565b600354600e54604051631d1f307960e31b81529293506000926001600160a01b039283169263e8f983c8926117e4929116907f000000000000000000000000000000000000000000000000000000000000000090879060040161320d565b60006040518083038186803b1580156117fc57600080fd5b505afa158015611810573d6000803e3d6000fd5b505050506040513d6000823e601f3d908101601f191682016040526118389190810190612f5b565b506040516370a0823160e01b81529092506001600160a01b037f00000000000000000000000000000000000000000000000000000000000000001691506370a08231906118899030906004016131f9565b60206040518083038186803b1580156118a157600080fd5b505afa1580156118b5573d6000803e3d6000fd5b505050506040513d601f19601f820116820180604052508101906118d991906130da565b6118e390826133ff565b935050505090565b6118f433610d14565b6119105760405162461bcd60e51b8152600401610510906132d4565b6002546001600160a01b03166119605760405162461bcd60e51b81526020600482015260156024820152741999594b58dbdb1b1958dd1bdc8b5b9bdd0b5cd95d605a1b6044820152606401610510565b7f00000000000000000000000000000000000000000000000000000000000000006001600160a01b0316816001600160a01b031614156119e25760405162461bcd60e51b815260206004820152601f60248201527f6e6f742d616c6c6f7765642d746f2d73776565702d636f6c6c61746572616c006044820152606401610510565b6119eb816109b9565b15611a2f5760405162461bcd60e51b815260206004820152601460248201527306e6f742d616c6c6f7765642d746f2d73776565760641b6044820152606401610510565b6001600160a01b03811673eeeeeeeeeeeeeeeeeeeeeeeeeeeeeeeeeeeeeeee1415611a6f57600254611a6a906001600160a01b031647611fe1565b610567565b6040516370a0823160e01b81526000906001600160a01b038316906370a0823190611a9e9030906004016131f9565b60206040518083038186803b158015611ab657600080fd5b505afa158015611aca573d6000803e3d6000fd5b505050506040513d601f19601f82011682018060405250810190611aee91906130da565b600254909150611b0b906001600160a01b03848116911683611f7e565b5050565b6000610dee6115d8565b6000611b2e836001600160a01b0384166120fa565b90505b92915050565b6000611b2e836001600160a01b038416612149565b611b0b7f000000000000000000000000000000000000000000000000000000000000000082612266565b6001600160a01b03811660009081526001830160205260408120541515611b2e565b6000806000807f00000000000000000000000000000000000000000000000000000000000000006001600160a01b031663d53ddc26306040518263ffffffff1660e01b8152600401611bea91906131f9565b60206040518083038186803b158015611c0257600080fd5b505afa158015611c16573d6000803e3d6000fd5b505050506040513d601f19601f82011682018060405250810190611c3a91906130da565b905060007f00000000000000000000000000000000000000000000000000000000000000006001600160a01b0316639f2b2833306040518263ffffffff1660e01b8152600401611c8a91906131f9565b60206040518083038186803b158015611ca257600080fd5b505afa158015611cb6573d6000803e3d6000fd5b505050506040513d601f19601f82011682018060405250810190611cda91906130da565b9050611ce5816123dc565b9450611cf08161255c565b9350611cfb82612615565b92505050909192565b6040516370a0823160e01b8152610e2e906001600160a01b037f000000000000000000000000000000000000000000000000000000000000000016906370a0823190611d549030906004016131f9565b60206040518083038186803b158015611d6c57600080fd5b505afa158015611d80573d6000803e3d6000fd5b505050506040513d601f19601f82011682018060405250810190611da491906130da565b612627565b60606000611db6836126c3565b9392505050565b611e116001600160a01b037f0000000000000000000000000000000000000000000000000000000000000000167f00000000000000000000000000000000000000000000000000000000000000008361271f565b600a54611e4b906001600160a01b037f0000000000000000000000000000000000000000000000000000000000000000811691168361271f565b60005b600360009054906101000a90046001600160a01b03166001600160a01b031663c2fba6676040518163ffffffff1660e01b815260040160206040518083038186803b158015611e9c57600080fd5b505afa158015611eb0573d6000803e3d6000fd5b505050506040513d601f19601f82011682018060405250810190611ed491906130da565b811015611b0b57600354604051636e74a6f760e01b815260048101839052611f6c916001600160a01b031690636e74a6f79060240160206040518083038186803b158015611f2157600080fd5b505afa158015611f35573d6000803e3d6000fd5b505050506040513d601f19601f82011682018060405250810190611f599190612f3f565b600e546001600160a01b0316908461271f565b80611f7681613493565b915050611e4e565b6040516001600160a01b038316602482015260448101829052610ddd90849063a9059cbb60e01b906064015b60408051601f198184030181529190526020810180516001600160e01b03166001600160e01b031990931692909217909152612843565b804710156120315760405162461bcd60e51b815260206004820152601d60248201527f416464726573733a20696e73756666696369656e742062616c616e63650000006044820152606401610510565b6000826001600160a01b03168260405160006040518083038185875af1925050503d806000811461207e576040519150601f19603f3d011682016040523d82523d6000602084013e612083565b606091505b5050905080610ddd5760405162461bcd60e51b815260206004820152603a60248201527f416464726573733a20756e61626c6520746f2073656e642076616c75652c207260448201527f6563697069656e74206d617920686176652072657665727465640000000000006064820152608401610510565b600081815260018301602052604081205461214157508154600181810184556000848152602080822090930184905584548482528286019093526040902091909155611b31565b506000611b31565b6000818152600183016020526040812054801561225c57600061216d600183613417565b855490915060009061218190600190613417565b90508181146122025760008660000182815481106121af57634e487b7160e01b600052603260045260246000fd5b90600052602060002001549050808760000184815481106121e057634e487b7160e01b600052603260045260246000fd5b6000918252602080832090910192909255918252600188019052604090208390555b855486908061222157634e487b7160e01b600052603160045260246000fd5b600190038181906000526020600020016000905590558560010160008681526020019081526020016000206000905560019350505050611b31565b6000915050611b31565b6000807f00000000000000000000000000000000000000000000000000000000000000006001600160a01b03166370a08231306040518263ffffffff1660e01b81526004016122b591906131f9565b60206040518083038186803b1580156122cd57600080fd5b505afa1580156122e1573d6000803e3d6000fd5b505050506040513d601f19601f8201168201806040525081019061230591906130da565b600b546040516335ea6a7560e01b81529192506000916001600160a01b03909116906335ea6a759061235b907f0000000000000000000000000000000000000000000000000000000000000000906004016131f9565b6101406040518083038186803b15801561237457600080fd5b505afa158015612388573d6000803e3d6000fd5b505050506040513d601f19601f820116820180604052508101906123ac9190613113565b50505050505050505090506123d3856123ce866123c98686612915565b612915565b61292b565b95945050505050565b60006124077f0000000000000000000000000000000000000000000000000000000000000000612a2e565b6040516370a0823160e01b81526000906001600160a01b037f000000000000000000000000000000000000000000000000000000000000000016906370a08231906124569030906004016131f9565b60206040518083038186803b15801561246e57600080fd5b505afa158015612482573d6000803e3d6000fd5b505050506040513d601f19601f820116820180604052508101906124a691906130da565b9050828111156124c0576124be306123ce8584613417565b505b6040516370a0823160e01b81526001600160a01b037f000000000000000000000000000000000000000000000000000000000000000016906370a082319061250c9030906004016131f9565b60206040518083038186803b15801561252457600080fd5b505afa158015612538573d6000803e3d6000fd5b505050506040513d601f19601f82011682018060405250810190611db691906130da565b6000807f00000000000000000000000000000000000000000000000000000000000000006001600160a01b03166370a08231306040518263ffffffff1660e01b81526004016125ab91906131f9565b60206040518083038186803b1580156125c357600080fd5b505afa1580156125d7573d6000803e3d6000fd5b505050506040513d601f19601f820116820180604052508101906125fb91906130da565b90508281101561260f57611db68184613417565b50919050565b60008115610a0b57610a083083612266565b801561056757600a5460405163e8eda9df60e01b81526001600160a01b037f00000000000000000000000000000000000000000000000000000000000000008116600483015260248201849052306044830152600060648301529091169063e8eda9df90608401600060405180830381600087803b1580156126a857600080fd5b505af11580156126bc573d6000803e3d6000fd5b5050505050565b60608160000180548060200260200160405190810160405280929190818152602001828054801561271357602002820191906000526020600020905b8154815260200190600101908083116126ff575b50505050509050919050565b8015806127a85750604051636eb1769f60e11b81523060048201526001600160a01b03838116602483015284169063dd62ed3e9060440160206040518083038186803b15801561276e57600080fd5b505afa158015612782573d6000803e3d6000fd5b505050506040513d601f19601f820116820180604052508101906127a691906130da565b155b6128135760405162461bcd60e51b815260206004820152603660248201527f5361666545524332303a20617070726f76652066726f6d206e6f6e2d7a65726f60448201527520746f206e6f6e2d7a65726f20616c6c6f77616e636560501b6064820152608401610510565b6040516001600160a01b038316602482015260448101829052610ddd90849063095ea7b360e01b90606401611faa565b6000612898826040518060400160405280602081526020017f5361666545524332303a206c6f772d6c6576656c2063616c6c206661696c6564815250856001600160a01b0316612a599092919063ffffffff16565b805190915015610ddd57808060200190518101906128b691906130a2565b610ddd5760405162461bcd60e51b815260206004820152602a60248201527f5361666545524332303a204552433230206f7065726174696f6e20646964206e6044820152691bdd081cdd58d8d9595960b21b6064820152608401610510565b60008183106129245781611b2e565b5090919050565b6000811561260f57600a54604051631a4ca37b60e21b81526001600160a01b037f000000000000000000000000000000000000000000000000000000000000000081166004830152602482018590528581166044830152849216906369328dec90606401602060405180830381600087803b1580156129a957600080fd5b505af11580156129bd573d6000803e3d6000fd5b505050506040513d601f19601f820116820180604052508101906129e191906130da565b1461260f5760405162461bcd60e51b815260206004820152601f60248201527f77697468647261776e2d616d6f756e742d69732d6e6f742d636f7272656374006044820152606401610510565b6000612a38612a70565b90508015611b0b57600e54611b0b906001600160a01b031683836001612c0b565b6060612a688484600085612dc2565b949350505050565b600c546000906001600160a01b0316612a8b57506000610df1565b604080516001808252818301909252600091602080830190803683370190505090507f000000000000000000000000000000000000000000000000000000000000000081600081518110612aef57634e487b7160e01b600052603260045260246000fd5b6001600160a01b039283166020918202929092010152600c54604051633111e7b360e01b8152911690633111e7b390612b3290849060001990309060040161326e565b602060405180830381600087803b158015612b4c57600080fd5b505af1158015612b60573d6000803e3d6000fd5b505050506040513d601f19601f82011682018060405250810190612b8491906130da565b50600e546040516370a0823160e01b81526001600160a01b03909116906370a0823190612bb59030906004016131f9565b60206040518083038186803b158015612bcd57600080fd5b505afa158015612be1573d6000803e3d6000fd5b505050506040513d601f19601f82011682018060405250810190612c0591906130da565b91505090565b600354604051631d1f307960e31b8152600091829182916001600160a01b03169063e8f983c890612c44908a908a908a9060040161320d565b60006040518083038186803b158015612c5c57600080fd5b505afa158015612c70573d6000803e3d6000fd5b505050506040513d6000823e601f3d908101601f19168201604052612c989190810190612f5b565b9250925092508360001415612cac57600193505b8115612db957600354604051636e74a6f760e01b8152600481018390526001600160a01b0390911690636e74a6f79060240160206040518083038186803b158015612cf657600080fd5b505afa158015612d0a573d6000803e3d6000fd5b505050506040513d601f19601f82011682018060405250810190612d2e9190612f3f565b6001600160a01b03166338ed173986868630426040518663ffffffff1660e01b8152600401612d6195949392919061336e565b600060405180830381600087803b158015612d7b57600080fd5b505af1158015612d8f573d6000803e3d6000fd5b505050506040513d6000823e601f3d908101601f19168201604052612db7919081019061300f565b505b50505050505050565b606082471015612e235760405162461bcd60e51b815260206004820152602660248201527f416464726573733a20696e73756666696369656e742062616c616e636520666f6044820152651c8818d85b1b60d21b6064820152608401610510565b843b612e715760405162461bcd60e51b815260206004820152601d60248201527f416464726573733a2063616c6c20746f206e6f6e2d636f6e74726163740000006044820152606401610510565b600080866001600160a01b03168587604051612e8d91906131dd565b60006040518083038185875af1925050503d8060008114612eca576040519150601f19603f3d011682016040523d82523d6000602084013e612ecf565b606091505b5091509150612edf828286612eea565b979650505050505050565b60608315612ef9575081611db6565b825115612f095782518084602001fd5b8160405162461bcd60e51b815260040161051091906132a1565b600060208284031215612f34578081fd5b8135611db6816134da565b600060208284031215612f50578081fd5b8151611db6816134da565b600080600060608486031215612f6f578182fd5b835167ffffffffffffffff811115612f85578283fd5b8401601f81018613612f95578283fd5b80516020612faa612fa5836133db565b6133aa565b8083825282820191508285018a848660051b8801011115612fc9578788fd5b8795505b84861015612ff4578051612fe0816134da565b835260019590950194918301918301612fcd565b50918801516040909801519199979850909695505050505050565b60006020808385031215613021578182fd5b825167ffffffffffffffff811115613037578283fd5b8301601f81018513613047578283fd5b8051613055612fa5826133db565b80828252848201915084840188868560051b8701011115613074578687fd5b8694505b83851015613096578051835260019490940193918501918501613078565b50979650505050505050565b6000602082840312156130b3578081fd5b81518015158114611db6578182fd5b6000602082840312156130d3578081fd5b5035919050565b6000602082840312156130eb578081fd5b5051919050565b60008060408385031215613104578182fd5b50508035926020909101359150565b6000806000806000806000806000806101408b8d031215613132578586fd5b8a51995060208b0151985060408b0151975060608b0151965060808b0151955060a08b0151945060c08b0151935060e08b015192506101008b015191506101208b015164ffffffffff81168114613187578182fd5b809150509295989b9194979a5092959850565b6000815180845260208085019450808401835b838110156131d25781516001600160a01b0316875295820195908201906001016131ad565b509495945050505050565b600082516131ef81846020870161342e565b9190910192915050565b6001600160a01b0391909116815260200190565b6001600160a01b039384168152919092166020820152604081019190915260600190565b600060208252611b2e602083018461319a565b600060408252613257604083018561319a565b905060018060a01b03831660208301529392505050565b600060608252613281606083018661319a565b6020830194909452506001600160a01b0391909116604090910152919050565b60006020825282518060208401526132c081604085016020870161342e565b601f01601f19169190910160400192915050565b60208082526016908201527531b0b63632b916b4b996b737ba16b096b5b2b2b832b960511b604082015260600190565b6020808252601a908201527f63616c6c65722d69732d6e6f742d7468652d676f7665726e6f72000000000000604082015260600190565b60208082526019908201527818d85b1b195c8b5a5ccb5b9bdd0b5d995cdc195c8b5c1bdbdb603a1b604082015260600190565b600086825285602083015260a0604083015261338d60a083018661319a565b6001600160a01b0394909416606083015250608001529392505050565b604051601f8201601f1916810167ffffffffffffffff811182821017156133d3576133d36134c4565b604052919050565b600067ffffffffffffffff8211156133f5576133f56134c4565b5060051b60200190565b60008219821115613412576134126134ae565b500190565b600082821015613429576134296134ae565b500390565b60005b83811015613449578181015183820152602001613431565b83811115613458576000848401525b50505050565b600181811c9082168061347257607f821691505b6020821081141561260f57634e487b7160e01b600052602260045260246000fd5b60006000198214156134a7576134a76134ae565b5060010190565b634e487b7160e01b600052601160045260246000fd5b634e487b7160e01b600052604160045260246000fd5b6001600160a01b038116811461056757600080fdfea2646970667358221220ce35ed665f0cab9bb2ec267ff1c69e2733443576b3f433f64041efc40ca4ce5864736f6c63430008030033",
  "devdoc": {
    "details": "This strategy will deposit collateral token in Aave and earn interest.",
    "kind": "dev",
    "methods": {
      "addKeeper(address)": {
        "params": {
          "_keeperAddress": "keeper address to add."
        }
      },
      "approveToken()": {
        "details": "Approve all required tokens"
      },
      "migrate(address)": {
        "details": "_beforeMigration hook can be implemented in child strategy to do extra steps.",
        "params": {
          "_newStrategy": "Address of new strategy"
        }
      },
      "rebalance()": {
        "details": "Rebalance profit, loss and investment of this strategy"
      },
      "removeKeeper(address)": {
        "params": {
          "_keeperAddress": "keeper address to remove."
        }
      },
      "sweepERC20(address)": {
        "details": "sweep given token to feeCollector of strategy",
        "params": {
          "_fromToken": "token address to sweep"
        }
      },
      "totalValue()": {
        "details": "aToken and collateral are 1:1"
      },
      "totalValueCurrent()": {
        "details": "Report total value in collateral token"
      },
      "updateAddressesProvider(address)": {
        "details": "We will use new address to fetch lendingPool address and update that too."
      },
      "updateFeeCollector(address)": {
        "params": {
          "_feeCollector": "fee collector address"
        }
      },
      "updateSwapManager(address)": {
        "params": {
          "_swapManager": "swap manager address"
        }
      },
      "withdraw(uint256)": {
        "details": "Withdraw collateral token from lending pool.",
        "params": {
          "_amount": "Amount of collateral token"
        }
      }
    },
    "version": 1
  },
  "userdoc": {
    "kind": "user",
    "methods": {
      "addKeeper(address)": {
        "notice": "Add given address in keepers list."
      },
      "isReservedToken(address)": {
        "notice": "Check whether given token is reserved or not. Reserved tokens are not allowed to sweep."
      },
      "keepers()": {
        "notice": "Return list of keepers"
      },
      "migrate(address)": {
        "notice": "Migrate all asset and vault ownership,if any, to new strategy"
      },
      "removeKeeper(address)": {
        "notice": "Remove given address from keepers list."
      },
      "token()": {
        "notice": "Returns address of token correspond to collateral token"
      },
      "totalValue()": {
        "notice": "Report total value"
      },
      "totalValueCurrent()": {
        "notice": "Calculate total value of asset under management (in real-time)"
      },
      "updateAddressesProvider(address)": {
        "notice": "Update address of Aave LendingPoolAddressesProvider"
      },
      "updateFeeCollector(address)": {
        "notice": "Update fee collector"
      },
      "updateSwapManager(address)": {
        "notice": "Update swap manager address"
      }
    },
    "version": 1
  },
  "storageLayout": {
    "storage": [
      {
        "astId": 14823,
        "contract": "contracts/strategies/aave/AaveStrategyAvalanche.sol:AaveStrategyAvalanche",
        "label": "WETH",
        "offset": 0,
        "slot": "0",
        "type": "t_address"
      },
      {
        "astId": 14828,
        "contract": "contracts/strategies/aave/AaveStrategyAvalanche.sol:AaveStrategyAvalanche",
        "label": "receiptToken",
        "offset": 0,
        "slot": "1",
        "type": "t_address"
      },
      {
        "astId": 14834,
        "contract": "contracts/strategies/aave/AaveStrategyAvalanche.sol:AaveStrategyAvalanche",
        "label": "feeCollector",
        "offset": 0,
        "slot": "2",
        "type": "t_address"
      },
      {
        "astId": 14837,
        "contract": "contracts/strategies/aave/AaveStrategyAvalanche.sol:AaveStrategyAvalanche",
        "label": "swapManager",
        "offset": 0,
        "slot": "3",
        "type": "t_contract(ISwapManager)5259"
      },
      {
        "astId": 14840,
        "contract": "contracts/strategies/aave/AaveStrategyAvalanche.sol:AaveStrategyAvalanche",
        "label": "oraclePeriod",
        "offset": 0,
        "slot": "4",
        "type": "t_uint256"
      },
      {
        "astId": 14843,
        "contract": "contracts/strategies/aave/AaveStrategyAvalanche.sol:AaveStrategyAvalanche",
        "label": "oracleRouterIdx",
        "offset": 0,
        "slot": "5",
        "type": "t_uint256"
      },
      {
        "astId": 14846,
        "contract": "contracts/strategies/aave/AaveStrategyAvalanche.sol:AaveStrategyAvalanche",
        "label": "swapSlippage",
        "offset": 0,
        "slot": "6",
        "type": "t_uint256"
      },
      {
        "astId": 14849,
        "contract": "contracts/strategies/aave/AaveStrategyAvalanche.sol:AaveStrategyAvalanche",
        "label": "_keepers",
        "offset": 0,
        "slot": "7",
        "type": "t_struct(AddressSet)4299_storage"
      },
      {
        "astId": 17167,
        "contract": "contracts/strategies/aave/AaveStrategyAvalanche.sol:AaveStrategyAvalanche",
        "label": "NAME",
        "offset": 0,
        "slot": "9",
        "type": "t_string_storage"
      },
      {
        "astId": 17176,
        "contract": "contracts/strategies/aave/AaveStrategyAvalanche.sol:AaveStrategyAvalanche",
        "label": "aaveLendingPool",
        "offset": 0,
        "slot": "10",
        "type": "t_contract(AaveLendingPool)4677"
      },
      {
        "astId": 17179,
        "contract": "contracts/strategies/aave/AaveStrategyAvalanche.sol:AaveStrategyAvalanche",
        "label": "aaveProtocolDataProvider",
        "offset": 0,
        "slot": "11",
        "type": "t_contract(AaveProtocolDataProvider)4714"
      },
      {
        "astId": 17182,
        "contract": "contracts/strategies/aave/AaveStrategyAvalanche.sol:AaveStrategyAvalanche",
        "label": "aaveIncentivesController",
        "offset": 0,
        "slot": "12",
        "type": "t_contract(AaveIncentivesController)4634"
      },
      {
        "astId": 17188,
        "contract": "contracts/strategies/aave/AaveStrategyAvalanche.sol:AaveStrategyAvalanche",
        "label": "aaveAddressesProvider",
        "offset": 0,
        "slot": "13",
        "type": "t_contract(AaveLendingPoolAddressesProvider)4602"
      },
      {
        "astId": 17191,
        "contract": "contracts/strategies/aave/AaveStrategyAvalanche.sol:AaveStrategyAvalanche",
        "label": "rewardToken",
        "offset": 0,
        "slot": "14",
        "type": "t_address"
      }
    ],
    "types": {
      "t_address": {
        "encoding": "inplace",
        "label": "address",
        "numberOfBytes": "20"
      },
      "t_array(t_bytes32)dyn_storage": {
        "base": "t_bytes32",
        "encoding": "dynamic_array",
        "label": "bytes32[]",
        "numberOfBytes": "32"
      },
      "t_bytes32": {
        "encoding": "inplace",
        "label": "bytes32",
        "numberOfBytes": "32"
      },
      "t_contract(AaveIncentivesController)4634": {
        "encoding": "inplace",
        "label": "contract AaveIncentivesController",
        "numberOfBytes": "20"
      },
      "t_contract(AaveLendingPool)4677": {
        "encoding": "inplace",
        "label": "contract AaveLendingPool",
        "numberOfBytes": "20"
      },
      "t_contract(AaveLendingPoolAddressesProvider)4602": {
        "encoding": "inplace",
        "label": "contract AaveLendingPoolAddressesProvider",
        "numberOfBytes": "20"
      },
      "t_contract(AaveProtocolDataProvider)4714": {
        "encoding": "inplace",
        "label": "contract AaveProtocolDataProvider",
        "numberOfBytes": "20"
      },
      "t_contract(ISwapManager)5259": {
        "encoding": "inplace",
        "label": "contract ISwapManager",
        "numberOfBytes": "20"
      },
      "t_mapping(t_bytes32,t_uint256)": {
        "encoding": "mapping",
        "key": "t_bytes32",
        "label": "mapping(bytes32 => uint256)",
        "numberOfBytes": "32",
        "value": "t_uint256"
      },
      "t_string_storage": {
        "encoding": "bytes",
        "label": "string",
        "numberOfBytes": "32"
      },
      "t_struct(AddressSet)4299_storage": {
        "encoding": "inplace",
        "label": "struct EnumerableSet.AddressSet",
        "members": [
          {
            "astId": 4298,
            "contract": "contracts/strategies/aave/AaveStrategyAvalanche.sol:AaveStrategyAvalanche",
            "label": "_inner",
            "offset": 0,
            "slot": "0",
            "type": "t_struct(Set)3998_storage"
          }
        ],
        "numberOfBytes": "64"
      },
      "t_struct(Set)3998_storage": {
        "encoding": "inplace",
        "label": "struct EnumerableSet.Set",
        "members": [
          {
            "astId": 3993,
            "contract": "contracts/strategies/aave/AaveStrategyAvalanche.sol:AaveStrategyAvalanche",
            "label": "_values",
            "offset": 0,
            "slot": "0",
            "type": "t_array(t_bytes32)dyn_storage"
          },
          {
            "astId": 3997,
            "contract": "contracts/strategies/aave/AaveStrategyAvalanche.sol:AaveStrategyAvalanche",
            "label": "_indexes",
            "offset": 0,
            "slot": "1",
            "type": "t_mapping(t_bytes32,t_uint256)"
          }
        ],
        "numberOfBytes": "64"
      },
      "t_uint256": {
        "encoding": "inplace",
        "label": "uint256",
        "numberOfBytes": "32"
      }
    }
  }
}