{
  "address": "0xe25d8F3F659E2a44602eC91538F9818793fd844F",
  "abi": [
    {
      "inputs": [
        {
          "internalType": "address",
          "name": "_pool",
          "type": "address"
        },
        {
          "internalType": "address",
          "name": "_swapManager",
          "type": "address"
        },
        {
          "internalType": "address",
          "name": "_comptroller",
          "type": "address"
        },
        {
          "internalType": "address",
          "name": "_rewardDistributor",
          "type": "address"
        },
        {
          "internalType": "address",
          "name": "_rewardToken",
          "type": "address"
        },
        {
          "internalType": "address",
          "name": "_receiptToken",
          "type": "address"
        },
        {
          "internalType": "string",
          "name": "_name",
          "type": "string"
        }
      ],
      "stateMutability": "nonpayable",
      "type": "constructor"
    },
    {
      "anonymous": false,
      "inputs": [
        {
          "indexed": true,
          "internalType": "address",
          "name": "_oldRewardDistributor",
          "type": "address"
        },
        {
          "indexed": true,
          "internalType": "address",
          "name": "_newRewardDistributor",
          "type": "address"
        }
      ],
      "name": "RewardDistributorUpdated",
      "type": "event"
    },
    {
      "anonymous": false,
      "inputs": [
        {
          "indexed": true,
          "internalType": "address",
          "name": "previousFeeCollector",
          "type": "address"
        },
        {
          "indexed": true,
          "internalType": "address",
          "name": "newFeeCollector",
          "type": "address"
        }
      ],
      "name": "UpdatedFeeCollector",
      "type": "event"
    },
    {
      "anonymous": false,
      "inputs": [
        {
          "indexed": false,
          "internalType": "uint256",
          "name": "oldPeriod",
          "type": "uint256"
        },
        {
          "indexed": false,
          "internalType": "uint256",
          "name": "newPeriod",
          "type": "uint256"
        },
        {
          "indexed": false,
          "internalType": "uint256",
          "name": "oldRouterIdx",
          "type": "uint256"
        },
        {
          "indexed": false,
          "internalType": "uint256",
          "name": "newRouterIdx",
          "type": "uint256"
        }
      ],
      "name": "UpdatedOracleConfig",
      "type": "event"
    },
    {
      "anonymous": false,
      "inputs": [
        {
          "indexed": true,
          "internalType": "address",
          "name": "previousSwapManager",
          "type": "address"
        },
        {
          "indexed": true,
          "internalType": "address",
          "name": "newSwapManager",
          "type": "address"
        }
      ],
      "name": "UpdatedSwapManager",
      "type": "event"
    },
    {
      "anonymous": false,
      "inputs": [
        {
          "indexed": false,
          "internalType": "uint256",
          "name": "oldSwapSlippage",
          "type": "uint256"
        },
        {
          "indexed": false,
          "internalType": "uint256",
          "name": "newSwapSlippage",
          "type": "uint256"
        }
      ],
      "name": "UpdatedSwapSlippage",
      "type": "event"
    },
    {
      "inputs": [],
      "name": "COMPTROLLER",
      "outputs": [
        {
          "internalType": "contract Comptroller",
          "name": "",
          "type": "address"
        }
      ],
      "stateMutability": "view",
      "type": "function"
    },
    {
      "inputs": [],
      "name": "NAME",
      "outputs": [
        {
          "internalType": "string",
          "name": "",
          "type": "string"
        }
      ],
      "stateMutability": "view",
      "type": "function"
    },
    {
      "inputs": [],
      "name": "VERSION",
      "outputs": [
        {
          "internalType": "string",
          "name": "",
          "type": "string"
        }
      ],
      "stateMutability": "view",
      "type": "function"
    },
    {
      "inputs": [
        {
          "internalType": "address",
          "name": "_keeperAddress",
          "type": "address"
        }
      ],
      "name": "addKeeper",
      "outputs": [],
      "stateMutability": "nonpayable",
      "type": "function"
    },
    {
      "inputs": [],
      "name": "approveToken",
      "outputs": [],
      "stateMutability": "nonpayable",
      "type": "function"
    },
    {
      "inputs": [],
      "name": "collateralToken",
      "outputs": [
        {
          "internalType": "contract IERC20",
          "name": "",
          "type": "address"
        }
      ],
      "stateMutability": "view",
      "type": "function"
    },
    {
      "inputs": [],
      "name": "feeCollector",
      "outputs": [
        {
          "internalType": "address",
          "name": "",
          "type": "address"
        }
      ],
      "stateMutability": "view",
      "type": "function"
    },
    {
      "inputs": [
        {
          "internalType": "address",
          "name": "_token",
          "type": "address"
        }
      ],
      "name": "isReservedToken",
      "outputs": [
        {
          "internalType": "bool",
          "name": "",
          "type": "bool"
        }
      ],
      "stateMutability": "view",
      "type": "function"
    },
    {
      "inputs": [],
      "name": "keepers",
      "outputs": [
        {
          "internalType": "address[]",
          "name": "",
          "type": "address[]"
        }
      ],
      "stateMutability": "view",
      "type": "function"
    },
    {
      "inputs": [
        {
          "internalType": "address",
          "name": "_newStrategy",
          "type": "address"
        }
      ],
      "name": "migrate",
      "outputs": [],
      "stateMutability": "nonpayable",
      "type": "function"
    },
    {
      "inputs": [],
      "name": "oraclePeriod",
      "outputs": [
        {
          "internalType": "uint256",
          "name": "",
          "type": "uint256"
        }
      ],
      "stateMutability": "view",
      "type": "function"
    },
    {
      "inputs": [],
      "name": "oracleRouterIdx",
      "outputs": [
        {
          "internalType": "uint256",
          "name": "",
          "type": "uint256"
        }
      ],
      "stateMutability": "view",
      "type": "function"
    },
    {
      "inputs": [],
      "name": "pool",
      "outputs": [
        {
          "internalType": "address",
          "name": "",
          "type": "address"
        }
      ],
      "stateMutability": "view",
      "type": "function"
    },
    {
      "inputs": [],
      "name": "rebalance",
      "outputs": [],
      "stateMutability": "nonpayable",
      "type": "function"
    },
    {
      "inputs": [],
      "name": "receiptToken",
      "outputs": [
        {
          "internalType": "address",
          "name": "",
          "type": "address"
        }
      ],
      "stateMutability": "view",
      "type": "function"
    },
    {
      "inputs": [
        {
          "internalType": "address",
          "name": "_keeperAddress",
          "type": "address"
        }
      ],
      "name": "removeKeeper",
      "outputs": [],
      "stateMutability": "nonpayable",
      "type": "function"
    },
    {
      "inputs": [],
      "name": "rewardDistributor",
      "outputs": [
        {
          "internalType": "address",
          "name": "",
          "type": "address"
        }
      ],
      "stateMutability": "view",
      "type": "function"
    },
    {
      "inputs": [],
      "name": "rewardToken",
      "outputs": [
        {
          "internalType": "address",
          "name": "",
          "type": "address"
        }
      ],
      "stateMutability": "view",
      "type": "function"
    },
    {
      "inputs": [],
      "name": "setupOracles",
      "outputs": [],
      "stateMutability": "nonpayable",
      "type": "function"
    },
    {
      "inputs": [],
      "name": "swapManager",
      "outputs": [
        {
          "internalType": "contract ISwapManager",
          "name": "",
          "type": "address"
        }
      ],
      "stateMutability": "view",
      "type": "function"
    },
    {
      "inputs": [],
      "name": "swapSlippage",
      "outputs": [
        {
          "internalType": "uint256",
          "name": "",
          "type": "uint256"
        }
      ],
      "stateMutability": "view",
      "type": "function"
    },
    {
      "inputs": [
        {
          "internalType": "address",
          "name": "_fromToken",
          "type": "address"
        }
      ],
      "name": "sweepERC20",
      "outputs": [],
      "stateMutability": "nonpayable",
      "type": "function"
    },
    {
      "inputs": [],
      "name": "token",
      "outputs": [
        {
          "internalType": "address",
          "name": "",
          "type": "address"
        }
      ],
      "stateMutability": "view",
      "type": "function"
    },
    {
      "inputs": [],
      "name": "totalValue",
      "outputs": [
        {
          "internalType": "uint256",
          "name": "_totalValue",
          "type": "uint256"
        }
      ],
      "stateMutability": "view",
      "type": "function"
    },
    {
      "inputs": [],
      "name": "totalValueCurrent",
      "outputs": [
        {
          "internalType": "uint256",
          "name": "_totalValue",
          "type": "uint256"
        }
      ],
      "stateMutability": "nonpayable",
      "type": "function"
    },
    {
      "inputs": [
        {
          "internalType": "address",
          "name": "_feeCollector",
          "type": "address"
        }
      ],
      "name": "updateFeeCollector",
      "outputs": [],
      "stateMutability": "nonpayable",
      "type": "function"
    },
    {
      "inputs": [
        {
          "internalType": "uint256",
          "name": "_newPeriod",
          "type": "uint256"
        },
        {
          "internalType": "uint256",
          "name": "_newRouterIdx",
          "type": "uint256"
        }
      ],
      "name": "updateOracleConfig",
      "outputs": [],
      "stateMutability": "nonpayable",
      "type": "function"
    },
    {
      "inputs": [
        {
          "internalType": "address",
          "name": "_newRewardDistributor",
          "type": "address"
        }
      ],
      "name": "updateRewardDistributor",
      "outputs": [],
      "stateMutability": "nonpayable",
      "type": "function"
    },
    {
      "inputs": [
        {
          "internalType": "address",
          "name": "_swapManager",
          "type": "address"
        }
      ],
      "name": "updateSwapManager",
      "outputs": [],
      "stateMutability": "nonpayable",
      "type": "function"
    },
    {
      "inputs": [
        {
          "internalType": "uint256",
          "name": "_newSwapSlippage",
          "type": "uint256"
        }
      ],
      "name": "updateSwapSlippage",
      "outputs": [],
      "stateMutability": "nonpayable",
      "type": "function"
    },
    {
      "inputs": [
        {
          "internalType": "uint256",
          "name": "_amount",
          "type": "uint256"
        }
      ],
      "name": "withdraw",
      "outputs": [],
      "stateMutability": "nonpayable",
      "type": "function"
    },
    {
      "stateMutability": "payable",
      "type": "receive"
    }
  ],
  "transactionHash": "0x19f3848558ddd2228f9aa7a4d52c433a6ad50f39771877e1f5a8ad7817f44afb",
  "args": [
    "0x13AECC59A88A65F02E053eEce29d743a952D6f1e",
    "0xEbedFD259c9FB1F5c0ab9A9f24E79F8d80E29B23",
    "0xdc13687554205E5b89Ac783db14bb5bba4A1eDaC",
    "0x45B2C4139d96F44667577C0D7F7a7D170B420324",
    "0x6e84a6216eA6dACC71eE8E6b0a5B7322EEbC0fDd",
    "0xEd6AaF91a2B084bd594DBd1245be3691F9f637aC",
    "TraderJoeCompoundStrategyAvalancheUSDC"
  ],
  "solcInputHash": "08a6b5bd93158006aa43afbc4be71aa7",
  "bytecode": "0x610100604052600080546001600160a01b03191673c02aaa39b223fe8d0a0e5c4f27ead9083c756cc2178155610e106004556005556127106006553480156200004757600080fd5b50604051620040ba380380620040ba8339810160408190526200006a91620004c6565b8686868585858585836001600160a01b038316620000cf5760405162461bcd60e51b815260206004820152601460248201527f706f6f6c2d616464726573732d69732d7a65726f00000000000000000000000060448201526064015b60405180910390fd5b6001600160a01b0382166200011c5760405162461bcd60e51b8152602060048201526012602482015271736d2d616464726573732d69732d7a65726f60701b6044820152606401620000c6565b600380546001600160a01b0319166001600160a01b0384811691909117909155606084901b6001600160601b03191660a05260408051637e062a3560e11b815290519185169163fc0c546a91600480820192602092909190829003018186803b1580156200018957600080fd5b505afa1580156200019e573d6000803e3d6000fd5b505050506040513d601f19601f82011682018060405250810190620001c4919062000621565b60601b6001600160601b031916608052600180546001600160a01b0319166001600160a01b03831617905562000211620001fb3390565b6007620003ae60201b620018df1790919060201c565b620002535760405162461bcd60e51b81526020600482015260116024820152701859190b5ad9595c195c8b59985a5b1959607a1b6044820152606401620000c6565b5050506001600160a01b038216620002ae5760405162461bcd60e51b815260206004820152601660248201527f63546f6b656e2d616464726573732d69732d7a65726f000000000000000000006044820152606401620000c6565b600a80546001600160a01b0319166001600160a01b0384161790556127106006558051620002e490600990602084019062000420565b5050506001600160601b0319606092831b811660c052911b1660e0525050600080546001600160a01b03191673b31f66aa3c1e785363f0875a1b74e27b85fd66c71790556001600160a01b038416620003805760405162461bcd60e51b815260206004820152601f60248201527f696e76616c69642d7265776172642d6469737472696275746f722d61646472006044820152606401620000c6565b5050600b80546001600160a01b0319166001600160a01b03939093169290921790915550620006b392505050565b6000620003c5836001600160a01b038416620003ce565b90505b92915050565b60008181526001830160205260408120546200041757508154600181810184556000848152602080822090930184905584548482528286019093526040902091909155620003c8565b506000620003c8565b8280546200042e9062000647565b90600052602060002090601f0160209004810192826200045257600085556200049d565b82601f106200046d57805160ff19168380011785556200049d565b828001600101855582156200049d579182015b828111156200049d57825182559160200191906001019062000480565b50620004ab929150620004af565b5090565b5b80821115620004ab5760008155600101620004b0565b600080600080600080600060e0888a031215620004e1578283fd5b8751620004ee816200069a565b8097505060208089015162000503816200069a565b60408a015190975062000516816200069a565b60608a015190965062000529816200069a565b60808a01519095506200053c816200069a565b60a08a01519094506200054f816200069a565b60c08a01519093506001600160401b03808211156200056c578384fd5b818b0191508b601f83011262000580578384fd5b81518181111562000595576200059562000684565b604051601f8201601f19908116603f01168101908382118183101715620005c057620005c062000684565b816040528281528e86848701011115620005d8578687fd5b8693505b82841015620005fb5784840186015181850187015292850192620005dc565b828411156200060c57868684830101525b80965050505050505092959891949750929550565b60006020828403121562000633578081fd5b815162000640816200069a565b9392505050565b600181811c908216806200065c57607f821691505b602082108114156200067e57634e487b7160e01b600052602260045260246000fd5b50919050565b634e487b7160e01b600052604160045260246000fd5b6001600160a01b0381168114620006b057600080fd5b50565b60805160601c60a05160601c60c05160601c60e05160601c6138a962000811600039600081816105b8015281816108b401528181611599015281816118010152818161184901528181611e2b01528181611e8a01528181612108015281816128200152818161296501528181612e2b0152612ebe01526000818161036d01528181612d270152612da60152600081816102390152818161062b0152818161073e0152818161078e015281816109cd01528181610b8001528181610d3001528181610e77015281816110da01528181611177015281816113cb01528181611921015281816119b601528181611a5601526127bf0152600081816104a4015281816112fe015281816113a2015281816116500152818161194201528181611b3401528181611cab01528181611f1001528181611f760152818161212a015281816125c20152818161264d0152818161279d01526127f501526138a96000f3fe60806040526004361061019c5760003560e01c8063a3f4df7e116100e2578063d2c35ce811610085578063d2c35ce81461051c578063d4c3eea01461053c578063e00af4a714610551578063e645c20214610571578063ec78e83214610586578063f7c618c1146105a6578063fc0c546a146105da578063ffa1ad74146105f857610202565b8063a3f4df7e1461041b578063a923b2a61461043d578063aa1018861461045d578063acc2166a14610472578063b2016bd414610492578063c415b95c146104c6578063cd2d7ebe146104e6578063ce5494bb146104fc57610202565b8063497cd4261161014a578063497cd4261461031b5780634c36fad71461033b5780635f82c67e1461035b57806367f5e4b81461038f578063709d039d146103af5780637d7c2a1c146103cf578063951dc22c146103e457806399b71d5c1461040657610202565b806314ae9f2e1461020757806316f0115b146102275780631aedeabe146102715780632e1a7d4d146102955780634032b72b146102b557806342189c8f146102d5578063440d7248146102eb57610202565b3661020257600b546001600160a01b031633146102005760405162461bcd60e51b815260206004820152601b60248201527f6e6f742d616c6c6f7765642d746f2d726563656976652d61766178000000000060448201526064015b60405180910390fd5b005b600080fd5b34801561021357600080fd5b5061020061022236600461334c565b610629565b34801561023357600080fd5b5061025b7f000000000000000000000000000000000000000000000000000000000000000081565b604051610268919061357a565b60405180910390f35b34801561027d57600080fd5b5061028760065481565b604051908152602001610268565b3480156102a157600080fd5b506102006102b03660046134ca565b61073b565b3480156102c157600080fd5b506102006102d036600461334c565b61078c565b3480156102e157600080fd5b5061028760045481565b3480156102f757600080fd5b5061030b61030636600461334c565b610898565b6040519015158152602001610268565b34801561032757600080fd5b5061020061033636600461334c565b6108f0565b34801561034757600080fd5b5061020061035636600461334c565b6109cb565b34801561036757600080fd5b5061025b7f000000000000000000000000000000000000000000000000000000000000000081565b34801561039b57600080fd5b506102006103aa3660046134ca565b610b7e565b3480156103bb57600080fd5b5060035461025b906001600160a01b031681565b3480156103db57600080fd5b50610200610cca565b3480156103f057600080fd5b506103f9610d99565b60405161026891906135b7565b34801561041257600080fd5b50610200610dab565b34801561042757600080fd5b50610430610de7565b60405161026891906135e6565b34801561044957600080fd5b506102006104583660046134fa565b610e75565b34801561046957600080fd5b506102006110aa565b34801561047e57600080fd5b50600b5461025b906001600160a01b031681565b34801561049e57600080fd5b5061025b7f000000000000000000000000000000000000000000000000000000000000000081565b3480156104d257600080fd5b5060025461025b906001600160a01b031681565b3480156104f257600080fd5b5061028760055481565b34801561050857600080fd5b5061020061051736600461334c565b6110d7565b34801561052857600080fd5b5061020061053736600461334c565b6113c9565b34801561054857600080fd5b50610287611592565b34801561055d57600080fd5b5061020061056c36600461334c565b6115d9565b34801561057d57600080fd5b506102876117fd565b34801561059257600080fd5b5060015461025b906001600160a01b031681565b3480156105b257600080fd5b5061025b7f000000000000000000000000000000000000000000000000000000000000000081565b3480156105e657600080fd5b506001546001600160a01b031661025b565b34801561060457600080fd5b50610430604051806040016040528060058152602001640342e302e360dc1b81525081565b7f00000000000000000000000000000000000000000000000000000000000000006001600160a01b0316630c340a246040518163ffffffff1660e01b815260040160206040518083038186803b15801561068257600080fd5b505afa158015610696573d6000803e3d6000fd5b505050506040513d601f19601f820116820180604052508101906106ba9190613368565b6001600160a01b0316336001600160a01b0316146106ea5760405162461bcd60e51b81526004016101f790613649565b6106f56007826118fd565b6107385760405162461bcd60e51b81526020600482015260146024820152731c995b5bdd994b5ad9595c195c8b59985a5b195960621b60448201526064016101f7565b50565b337f00000000000000000000000000000000000000000000000000000000000000006001600160a01b0316146107835760405162461bcd60e51b81526004016101f790613680565b61073881611912565b7f00000000000000000000000000000000000000000000000000000000000000006001600160a01b0316630c340a246040518163ffffffff1660e01b815260040160206040518083038186803b1580156107e557600080fd5b505afa1580156107f9573d6000803e3d6000fd5b505050506040513d601f19601f8201168201806040525081019061081d9190613368565b6001600160a01b0316336001600160a01b03161461084d5760405162461bcd60e51b81526004016101f790613649565b6108586007826118df565b6107385760405162461bcd60e51b81526020600482015260116024820152701859190b5ad9595c195c8b59985a5b1959607a1b60448201526064016101f7565b600a546000906001600160a01b03838116911614806108e857507f00000000000000000000000000000000000000000000000000000000000000006001600160a01b0316826001600160a01b0316145b90505b919050565b6108fd335b60079061198c565b6109195760405162461bcd60e51b81526004016101f790613619565b6001600160a01b03811661096f5760405162461bcd60e51b815260206004820152601f60248201527f696e76616c69642d7265776172642d6469737472696275746f722d616464720060448201526064016101f7565b600b546040516001600160a01b038084169216907f1df95772db25c427e0df149fe4cd5b7c2e970e096ee7305ff86f6e1167281d7b90600090a3600b80546001600160a01b0319166001600160a01b0392909216919091179055565b7f00000000000000000000000000000000000000000000000000000000000000006001600160a01b0316630c340a246040518163ffffffff1660e01b815260040160206040518083038186803b158015610a2457600080fd5b505afa158015610a38573d6000803e3d6000fd5b505050506040513d601f19601f82011682018060405250810190610a5c9190613368565b6001600160a01b0316336001600160a01b031614610a8c5760405162461bcd60e51b81526004016101f790613649565b6001600160a01b038116610ad75760405162461bcd60e51b8152602060048201526012602482015271736d2d616464726573732d69732d7a65726f60701b60448201526064016101f7565b6003546001600160a01b0382811691161415610b225760405162461bcd60e51b815260206004820152600a602482015269736d2d69732d73616d6560b01b60448201526064016101f7565b6003546040516001600160a01b038084169216907f2d19927e7cac08ceb98b38898a4fdff6da6a27295b9a2d62fe250408ebe044e190600090a3600380546001600160a01b0319166001600160a01b0392909216919091179055565b7f00000000000000000000000000000000000000000000000000000000000000006001600160a01b0316630c340a246040518163ffffffff1660e01b815260040160206040518083038186803b158015610bd757600080fd5b505afa158015610beb573d6000803e3d6000fd5b505050506040513d601f19601f82011682018060405250810190610c0f9190613368565b6001600160a01b0316336001600160a01b031614610c3f5760405162461bcd60e51b81526004016101f790613649565b612710811115610c8a5760405162461bcd60e51b8152602060048201526016602482015275696e76616c69642d736c6970706167652d76616c756560501b60448201526064016101f7565b60065460408051918252602082018390527ef1c5db862c7598b3b6765552ca951f498611e06412c2d57f8d0b58f82e7f82910160405180910390a1600655565b610cd3336108f5565b610cef5760405162461bcd60e51b81526004016101f790613619565b6000806000610cfc6119ae565b6040516302df682360e11b815260048101849052602481018390526044810182905292955090935091506001600160a01b037f000000000000000000000000000000000000000000000000000000000000000016906305bed04690606401600060405180830381600087803b158015610d7457600080fd5b505af1158015610d88573d6000803e3d6000fd5b50505050610d94611b1a565b505050565b6060610da56007611c8c565b90505b90565b610db4336108f5565b610dd05760405162461bcd60e51b81526004016101f790613619565b610dda6000611ca0565b610de5600019611ca0565b565b60098054610df4906137e2565b80601f0160208091040260200160405190810160405280929190818152602001828054610e20906137e2565b8015610e6d5780601f10610e4257610100808354040283529160200191610e6d565b820191906000526020600020905b815481529060010190602001808311610e5057829003601f168201915b505050505081565b7f00000000000000000000000000000000000000000000000000000000000000006001600160a01b0316630c340a246040518163ffffffff1660e01b815260040160206040518083038186803b158015610ece57600080fd5b505afa158015610ee2573d6000803e3d6000fd5b505050506040513d601f19601f82011682018060405250810190610f069190613368565b6001600160a01b0316336001600160a01b031614610f365760405162461bcd60e51b81526004016101f790613649565b600360009054906101000a90046001600160a01b03166001600160a01b031663c2fba6676040518163ffffffff1660e01b815260040160206040518083038186803b158015610f8457600080fd5b505afa158015610f98573d6000803e3d6000fd5b505050506040513d601f19601f82011682018060405250810190610fbc91906134e2565b81106110015760405162461bcd60e51b81526020600482015260146024820152730d2dcecc2d8d2c85ae4deeae8cae45ad2dcc8caf60631b60448201526064016101f7565b8161100c5760045491505b603b82116110545760405162461bcd60e51b81526020600482015260156024820152741a5b9d985b1a590b5bdc9858db194b5c195c9a5bd9605a1b60448201526064016101f7565b6004546005546040805192835260208301859052820152606081018290527f83bc5ab8030537fcf1d29c2334f6d22c26c82dcbe5ff03923d2cff5c692c0a7f9060800160405180910390a1600491909155600555565b6110b3336108f5565b6110cf5760405162461bcd60e51b81526004016101f790613619565b610de5611e29565b337f00000000000000000000000000000000000000000000000000000000000000006001600160a01b03161461111f5760405162461bcd60e51b81526004016101f790613680565b6001600160a01b0381166111755760405162461bcd60e51b815260206004820152601c60248201527f6e65772d73747261746567792d616464726573732d69732d7a65726f0000000060448201526064016101f7565b7f00000000000000000000000000000000000000000000000000000000000000006001600160a01b0316816001600160a01b03166316f0115b6040518163ffffffff1660e01b815260040160206040518083038186803b1580156111d857600080fd5b505afa1580156111ec573d6000803e3d6000fd5b505050506040513d601f19601f820116820180604052508101906112109190613368565b6001600160a01b03161461125f5760405162461bcd60e51b81526020600482015260166024820152756e6f742d76616c69642d6e65772d737472617465677960501b60448201526064016101f7565b6001546040516370a0823160e01b81526112f89183916001600160a01b03909116906370a082319061129590309060040161357a565b60206040518083038186803b1580156112ad57600080fd5b505afa1580156112c1573d6000803e3d6000fd5b505050506040513d601f19601f820116820180604052508101906112e591906134e2565b6001546001600160a01b03169190611ff2565b610738817f00000000000000000000000000000000000000000000000000000000000000006001600160a01b03166370a08231306040518263ffffffff1660e01b8152600401611348919061357a565b60206040518083038186803b15801561136057600080fd5b505afa158015611374573d6000803e3d6000fd5b505050506040513d601f19601f8201168201806040525081019061139891906134e2565b6001600160a01b037f0000000000000000000000000000000000000000000000000000000000000000169190611ff2565b7f00000000000000000000000000000000000000000000000000000000000000006001600160a01b0316630c340a246040518163ffffffff1660e01b815260040160206040518083038186803b15801561142257600080fd5b505afa158015611436573d6000803e3d6000fd5b505050506040513d601f19601f8201168201806040525081019061145a9190613368565b6001600160a01b0316336001600160a01b03161461148a5760405162461bcd60e51b81526004016101f790613649565b6001600160a01b0381166114e05760405162461bcd60e51b815260206004820152601d60248201527f6665652d636f6c6c6563746f722d616464726573732d69732d7a65726f00000060448201526064016101f7565b6002546001600160a01b03828116911614156115365760405162461bcd60e51b81526020600482015260156024820152746665652d636f6c6c6563746f722d69732d73616d6560581b60448201526064016101f7565b6002546040516001600160a01b038084169216907f0f06062680f9bd68e786e9980d9bb03d73d5620fc3b345e417b6eacb310b970690600090a3600280546001600160a01b0319166001600160a01b0392909216919091179055565b6000610da57f00000000000000000000000000000000000000000000000000000000000000006001600160a01b03166115cc5760006115d4565b6115d4612055565b6120d8565b6115e2336108f5565b6115fe5760405162461bcd60e51b81526004016101f790613619565b6002546001600160a01b031661164e5760405162461bcd60e51b81526020600482015260156024820152741999594b58dbdb1b1958dd1bdc8b5b9bdd0b5cd95d605a1b60448201526064016101f7565b7f00000000000000000000000000000000000000000000000000000000000000006001600160a01b0316816001600160a01b031614156116d05760405162461bcd60e51b815260206004820152601f60248201527f6e6f742d616c6c6f7765642d746f2d73776565702d636f6c6c61746572616c0060448201526064016101f7565b6116d981610898565b1561171d5760405162461bcd60e51b815260206004820152601460248201527306e6f742d616c6c6f7765642d746f2d73776565760641b60448201526064016101f7565b6001600160a01b03811673eeeeeeeeeeeeeeeeeeeeeeeeeeeeeeeeeeeeeeee141561175d57600254611758906001600160a01b031647612240565b610738565b6040516370a0823160e01b81526000906001600160a01b038316906370a082319061178c90309060040161357a565b60206040518083038186803b1580156117a457600080fd5b505afa1580156117b8573d6000803e3d6000fd5b505050506040513d601f19601f820116820180604052508101906117dc91906134e2565b6002549091506117f9906001600160a01b03848116911683611ff2565b5050565b60007f00000000000000000000000000000000000000000000000000000000000000006001600160a01b0316156118d5576040516370a0823160e01b81526118ce906001600160a01b037f000000000000000000000000000000000000000000000000000000000000000016906370a082319061187e90309060040161357a565b60206040518083038186803b15801561189657600080fd5b505afa1580156118aa573d6000803e3d6000fd5b505050506040513d601f19601f820116820180604052508101906115d491906134e2565b9050610da8565b610da560006120d8565b60006118f4836001600160a01b038416612359565b90505b92915050565b60006118f4836001600160a01b0384166123a8565b61191b816124c5565b506107387f00000000000000000000000000000000000000000000000000000000000000007f00000000000000000000000000000000000000000000000000000000000000006001600160a01b03166370a08231306040518263ffffffff1660e01b8152600401611348919061357a565b6001600160a01b038116600090815260018301602052604081205415156118f4565b6000806000807f00000000000000000000000000000000000000000000000000000000000000006001600160a01b031663d53ddc26306040518263ffffffff1660e01b8152600401611a00919061357a565b60206040518083038186803b158015611a1857600080fd5b505afa158015611a2c573d6000803e3d6000fd5b505050506040513d601f19601f82011682018060405250810190611a5091906134e2565b905060007f00000000000000000000000000000000000000000000000000000000000000006001600160a01b0316639f2b2833306040518263ffffffff1660e01b8152600401611aa0919061357a565b60206040518083038186803b158015611ab857600080fd5b505afa158015611acc573d6000803e3d6000fd5b505050506040513d601f19601f82011682018060405250810190611af091906134e2565b9050611afb816125bb565b9450611b06816126d2565b9350611b1182612723565b92505050909192565b6040516370a0823160e01b81526000906001600160a01b037f000000000000000000000000000000000000000000000000000000000000000016906370a0823190611b6990309060040161357a565b60206040518083038186803b158015611b8157600080fd5b505afa158015611b95573d6000803e3d6000fd5b505050506040513d601f19601f82011682018060405250810190611bb991906134e2565b9050801561073857600a5460405163140e25ad60e31b8152600481018390526001600160a01b039091169063a0712d6890602401602060405180830381600087803b158015611c0757600080fd5b505af1158015611c1b573d6000803e3d6000fd5b505050506040513d601f19601f82011682018060405250810190611c3f91906134e2565b156107385760405162461bcd60e51b815260206004820152601a60248201527f6465706f7369742d746f2d636f6d706f756e642d6661696c656400000000000060448201526064016101f7565b60606000611c9983612734565b9392505050565b611ca981612790565b7f00000000000000000000000000000000000000000000000000000000000000006001600160a01b031673b31f66aa3c1e785363f0875a1b74e27b85fd66c7146107385760005b600360009054906101000a90046001600160a01b03166001600160a01b031663c2fba6676040518163ffffffff1660e01b815260040160206040518083038186803b158015611d3e57600080fd5b505afa158015611d52573d6000803e3d6000fd5b505050506040513d601f19601f82011682018060405250810190611d7691906134e2565b8110156117f957600354604051636e74a6f760e01b815260048101839052611e17916001600160a01b031690636e74a6f79060240160206040518083038186803b158015611dc357600080fd5b505afa158015611dd7573d6000803e3d6000fd5b505050506040513d601f19601f82011682018060405250810190611dfb9190613368565b73b31f66aa3c1e785363f0875a1b74e27b85fd66c7908461299e565b80611e2181613817565b915050611cf0565b7f00000000000000000000000000000000000000000000000000000000000000006001600160a01b031615611f0b5760035460005460048054600554604051630f30f2d360e21b81526001600160a01b0395861695633cc3cb4c95611eb7957f000000000000000000000000000000000000000000000000000000000000000095929091169391920161358e565b602060405180830381600087803b158015611ed157600080fd5b505af1158015611ee5573d6000803e3d6000fd5b505050506040513d601f19601f82011682018060405250810190611f099190613368565b505b6000547f00000000000000000000000000000000000000000000000000000000000000006001600160a01b03908116911614610de55760035460005460048054600554604051630f30f2d360e21b81526001600160a01b0395861695633cc3cb4c95611fa0959116937f000000000000000000000000000000000000000000000000000000000000000093909290910161358e565b602060405180830381600087803b158015611fba57600080fd5b505af1158015611fce573d6000803e3d6000fd5b505050506040513d601f19601f820116820180604052508101906107389190613368565b6040516001600160a01b038316602482015260448101829052610d9490849063a9059cbb60e01b906064015b60408051601f198184030181529190526020810180516001600160e01b03166001600160e01b031990931692909217909152612ac2565b600b546040516305b9783d60e01b81526000916001600160a01b0316906305b9783d9061208890849030906004016135ca565b60206040518083038186803b1580156120a057600080fd5b505afa1580156120b4573d6000803e3d6000fd5b505050506040513d601f19601f82011682018060405250810190610da591906134e2565b600081156121af576003546040516340b4c54560e11b81526001600160a01b03909116906381698a8a90612157907f0000000000000000000000000000000000000000000000000000000000000000907f000000000000000000000000000000000000000000000000000000000000000090879060009060040161358e565b60006040518083038186803b15801561216f57600080fd5b505afa158015612183573d6000803e3d6000fd5b505050506040513d6000823e601f3d908101601f191682016040526121ab9190810190613384565b9150505b600a546040516370a0823160e01b8152612236916001600160a01b0316906370a08231906121e190309060040161357a565b60206040518083038186803b1580156121f957600080fd5b505afa15801561220d573d6000803e3d6000fd5b505050506040513d601f19601f8201168201806040525081019061223191906134e2565b612b94565b6108e89082613744565b804710156122905760405162461bcd60e51b815260206004820152601d60248201527f416464726573733a20696e73756666696369656e742062616c616e636500000060448201526064016101f7565b6000826001600160a01b03168260405160006040518083038185875af1925050503d80600081146122dd576040519150601f19603f3d011682016040523d82523d6000602084013e6122e2565b606091505b5050905080610d945760405162461bcd60e51b815260206004820152603a60248201527f416464726573733a20756e61626c6520746f2073656e642076616c75652c207260448201527f6563697069656e74206d6179206861766520726576657274656400000000000060648201526084016101f7565b60008181526001830160205260408120546123a0575081546001818101845560008481526020808220909301849055845484825282860190935260409020919091556118f7565b5060006118f7565b600081815260018301602052604081205480156124bb5760006123cc60018361379b565b85549091506000906123e09060019061379b565b905081811461246157600086600001828154811061240e57634e487b7160e01b600052603260045260246000fd5b906000526020600020015490508087600001848154811061243f57634e487b7160e01b600052603260045260246000fd5b6000918252602080832090910192909255918252600188019052604090208390555b855486908061248057634e487b7160e01b600052603160045260246000fd5b6001900381819060005260206000200160009055905585600101600086815260200190815260200160002060009055600193505050506118f7565b60009150506118f7565b600a546040516370a0823160e01b815260009182916124fc916001600160a01b0316906370a08231906121e190309060040161357a565b90506000600a60009054906101000a90046001600160a01b03166001600160a01b0316633b1d21a26040518163ffffffff1660e01b815260040160206040518083038186803b15801561254e57600080fd5b505afa158015612562573d6000803e3d6000fd5b505050506040513d601f19601f8201168201806040525081019061258691906134e2565b905060008185106125975781612599565b845b90506125b28382106125ab57836125ad565b815b612c39565b95945050505050565b60006125e67f0000000000000000000000000000000000000000000000000000000000000000612d10565b600a546040516370a0823160e01b815260009161261d916001600160a01b03909116906370a08231906121e190309060040161357a565b905082811115612636576126346125ad848361379b565b505b6040516370a0823160e01b81526001600160a01b037f000000000000000000000000000000000000000000000000000000000000000016906370a082319061268290309060040161357a565b60206040518083038186803b15801561269a57600080fd5b505afa1580156126ae573d6000803e3d6000fd5b505050506040513d601f19601f82011682018060405250810190611c9991906134e2565b600a546040516370a0823160e01b81526000918291612709916001600160a01b0316906370a08231906121e190309060040161357a565b90508281101561271d57611c99818461379b565b50919050565b600081156108eb576108e8826124c5565b60608160000180548060200260200160405190810160405280929190818152602001828054801561278457602002820191906000526020600020905b815481526020019060010190808311612770575b50505050509050919050565b6127e46001600160a01b037f0000000000000000000000000000000000000000000000000000000000000000167f00000000000000000000000000000000000000000000000000000000000000008361299e565b600a5461281e906001600160a01b037f0000000000000000000000000000000000000000000000000000000000000000811691168361299e565b7f00000000000000000000000000000000000000000000000000000000000000006001600160a01b0316156107385760005b600360009054906101000a90046001600160a01b03166001600160a01b031663c2fba6676040518163ffffffff1660e01b815260040160206040518083038186803b15801561289e57600080fd5b505afa1580156128b2573d6000803e3d6000fd5b505050506040513d601f19601f820116820180604052508101906128d691906134e2565b8110156117f957600354604051636e74a6f760e01b81526004810183905261298c916001600160a01b031690636e74a6f79060240160206040518083038186803b15801561292357600080fd5b505afa158015612937573d6000803e3d6000fd5b505050506040513d601f19601f8201168201806040525081019061295b9190613368565b6001600160a01b037f000000000000000000000000000000000000000000000000000000000000000016908461299e565b8061299681613817565b915050612850565b801580612a275750604051636eb1769f60e11b81523060048201526001600160a01b03838116602483015284169063dd62ed3e9060440160206040518083038186803b1580156129ed57600080fd5b505afa158015612a01573d6000803e3d6000fd5b505050506040513d601f19601f82011682018060405250810190612a2591906134e2565b155b612a925760405162461bcd60e51b815260206004820152603660248201527f5361666545524332303a20617070726f76652066726f6d206e6f6e2d7a65726f60448201527520746f206e6f6e2d7a65726f20616c6c6f77616e636560501b60648201526084016101f7565b6040516001600160a01b038316602482015260448101829052610d9490849063095ea7b360e01b9060640161201e565b6000612b17826040518060400160405280602081526020017f5361666545524332303a206c6f772d6c6576656c2063616c6c206661696c6564815250856001600160a01b0316612f9b9092919063ffffffff16565b805190915015610d945780806020019051810190612b3591906134aa565b610d945760405162461bcd60e51b815260206004820152602a60248201527f5361666545524332303a204552433230206f7065726174696f6e20646964206e6044820152691bdd081cdd58d8d9595960b21b60648201526084016101f7565b6000670de0b6b3a7640000600a60009054906101000a90046001600160a01b03166001600160a01b031663182df0f56040518163ffffffff1660e01b815260040160206040518083038186803b158015612bed57600080fd5b505afa158015612c01573d6000803e3d6000fd5b505050506040513d601f19601f82011682018060405250810190612c2591906134e2565b612c2f908461377c565b6108e8919061375c565b60008115612d0c57600a5460405163852a12e360e01b8152600481018490526001600160a01b039091169063852a12e390602401602060405180830381600087803b158015612c8757600080fd5b505af1158015612c9b573d6000803e3d6000fd5b505050506040513d601f19601f82011682018060405250810190612cbf91906134e2565b15612d0c5760405162461bcd60e51b815260206004820152601d60248201527f77697468647261772d66726f6d2d636f6d706f756e642d6661696c656400000060448201526064016101f7565b5090565b604051630952c56360e01b81526001600160a01b037f00000000000000000000000000000000000000000000000000000000000000001690630952c56390612d5f9060009030906004016135ca565b600060405180830381600087803b158015612d7957600080fd5b505af1158015612d8d573d6000803e3d6000fd5b5050604051630952c56360e01b81526001600160a01b037f0000000000000000000000000000000000000000000000000000000000000000169250630952c5639150612de09060019030906004016135ca565b600060405180830381600087803b158015612dfa57600080fd5b505af1158015612e0e573d6000803e3d6000fd5b50506040516370a0823160e01b8152600092506001600160a01b037f00000000000000000000000000000000000000000000000000000000000000001691506370a0823190612e6190309060040161357a565b60206040518083038186803b158015612e7957600080fd5b505afa158015612e8d573d6000803e3d6000fd5b505050506040513d601f19601f82011682018060405250810190612eb191906134e2565b90508015612ee657612ee67f000000000000000000000000000000000000000000000000000000000000000083836001612fb2565b478015610d945773b31f66aa3c1e785363f0875a1b74e27b85fd66c76001600160a01b031663d0e30db0826040518263ffffffff1660e01b81526004016000604051808303818588803b158015612f3c57600080fd5b505af1158015612f50573d6000803e3d6000fd5b505050506001600160a01b03841673b31f66aa3c1e785363f0875a1b74e27b85fd66c7149050610d9457610d9473b31f66aa3c1e785363f0875a1b74e27b85fd66c784836001612fb2565b6060612faa8484600085613173565b949350505050565b600354604051631d1f307960e31b81526001600160a01b038681166004830152858116602483015260448201859052600092839283929091169063e8f983c89060640160006040518083038186803b15801561300d57600080fd5b505afa158015613021573d6000803e3d6000fd5b505050506040513d6000823e601f3d908101601f1916820160405261304991908101906133c9565b925092509250836000141561305d57600193505b811561316a57600354604051636e74a6f760e01b8152600481018390526001600160a01b0390911690636e74a6f79060240160206040518083038186803b1580156130a757600080fd5b505afa1580156130bb573d6000803e3d6000fd5b505050506040513d601f19601f820116820180604052508101906130df9190613368565b6001600160a01b03166338ed173986868630426040518663ffffffff1660e01b81526004016131129594939291906136b3565b600060405180830381600087803b15801561312c57600080fd5b505af1158015613140573d6000803e3d6000fd5b505050506040513d6000823e601f3d908101601f191682016040526131689190810190613417565b505b50505050505050565b6060824710156131d45760405162461bcd60e51b815260206004820152602660248201527f416464726573733a20696e73756666696369656e742062616c616e636520666f6044820152651c8818d85b1b60d21b60648201526084016101f7565b843b6132225760405162461bcd60e51b815260206004820152601d60248201527f416464726573733a2063616c6c20746f206e6f6e2d636f6e747261637400000060448201526064016101f7565b600080866001600160a01b0316858760405161323e919061355e565b60006040518083038185875af1925050503d806000811461327b576040519150601f19603f3d011682016040523d82523d6000602084013e613280565b606091505b509150915061329082828661329b565b979650505050505050565b606083156132aa575081611c99565b8251156132ba5782518084602001fd5b8160405162461bcd60e51b81526004016101f791906135e6565b600082601f8301126132e4578081fd5b815160206132f96132f483613720565b6136ef565b80838252828201915082860187848660051b8901011115613318578586fd5b855b8581101561333f57815161332d8161385e565b8452928401929084019060010161331a565b5090979650505050505050565b60006020828403121561335d578081fd5b8135611c998161385e565b600060208284031215613379578081fd5b8151611c998161385e565b60008060408385031215613396578081fd5b825167ffffffffffffffff8111156133ac578182fd5b6133b8858286016132d4565b925050602083015190509250929050565b6000806000606084860312156133dd578081fd5b835167ffffffffffffffff8111156133f3578182fd5b6133ff868287016132d4565b93505060208401519150604084015190509250925092565b60006020808385031215613429578182fd5b825167ffffffffffffffff81111561343f578283fd5b8301601f8101851361344f578283fd5b805161345d6132f482613720565b80828252848201915084840188868560051b870101111561347c578687fd5b8694505b8385101561349e578051835260019490940193918501918501613480565b50979650505050505050565b6000602082840312156134bb578081fd5b81518015158114611c99578182fd5b6000602082840312156134db578081fd5b5035919050565b6000602082840312156134f3578081fd5b5051919050565b6000806040838503121561350c578182fd5b50508035926020909101359150565b6000815180845260208085019450808401835b838110156135535781516001600160a01b03168752958201959082019060010161352e565b509495945050505050565b600082516135708184602087016137b2565b9190910192915050565b6001600160a01b0391909116815260200190565b6001600160a01b0394851681529290931660208301526040820152606081019190915260800190565b6000602082526118f4602083018461351b565b60ff9290921682526001600160a01b0316602082015260400190565b60006020825282518060208401526136058160408501602087016137b2565b601f01601f19169190910160400192915050565b60208082526016908201527531b0b63632b916b4b996b737ba16b096b5b2b2b832b960511b604082015260600190565b6020808252601a908201527f63616c6c65722d69732d6e6f742d7468652d676f7665726e6f72000000000000604082015260600190565b60208082526019908201527818d85b1b195c8b5a5ccb5b9bdd0b5d995cdc195c8b5c1bdbdb603a1b604082015260600190565b600086825285602083015260a060408301526136d260a083018661351b565b6001600160a01b0394909416606083015250608001529392505050565b604051601f8201601f1916810167ffffffffffffffff8111828210171561371857613718613848565b604052919050565b600067ffffffffffffffff82111561373a5761373a613848565b5060051b60200190565b6000821982111561375757613757613832565b500190565b60008261377757634e487b7160e01b81526012600452602481fd5b500490565b600081600019048311821515161561379657613796613832565b500290565b6000828210156137ad576137ad613832565b500390565b60005b838110156137cd5781810151838201526020016137b5565b838111156137dc576000848401525b50505050565b600181811c908216806137f657607f821691505b6020821081141561271d57634e487b7160e01b600052602260045260246000fd5b600060001982141561382b5761382b613832565b5060010190565b634e487b7160e01b600052601160045260246000fd5b634e487b7160e01b600052604160045260246000fd5b6001600160a01b038116811461073857600080fdfea2646970667358221220f39ae21a1464b58f3d9ebcb7aa57de5de32d5e998bda0f6f2b6f878b6fe67e8964736f6c63430008030033",
  "devdoc": {
    "kind": "dev",
    "methods": {
      "addKeeper(address)": {
        "params": {
          "_keeperAddress": "keeper address to add."
        }
      },
      "approveToken()": {
        "details": "Approve all required tokens"
      },
      "migrate(address)": {
        "details": "_beforeMigration hook can be implemented in child strategy to do extra steps.",
        "params": {
          "_newStrategy": "Address of new strategy"
        }
      },
      "rebalance()": {
        "details": "Rebalance profit, loss and investment of this strategy"
      },
      "removeKeeper(address)": {
        "params": {
          "_keeperAddress": "keeper address to remove."
        }
      },
      "sweepERC20(address)": {
        "details": "sweep given token to feeCollector of strategy",
        "params": {
          "_fromToken": "token address to sweep"
        }
      },
      "totalValue()": {
        "details": "Report total value in collateral token"
      },
      "totalValueCurrent()": {
        "details": "Report total value in collateral token"
      },
      "updateFeeCollector(address)": {
        "params": {
          "_feeCollector": "fee collector address"
        }
      },
      "updateSwapManager(address)": {
        "params": {
          "_swapManager": "swap manager address"
        }
      },
      "withdraw(uint256)": {
        "details": "Withdraw collateral token from lending pool.",
        "params": {
          "_amount": "Amount of collateral token"
        }
      }
    },
    "title": "This strategy will deposit collateral token in a Compound Fork on avalanche and Earn Interest",
    "version": 1
  },
  "userdoc": {
    "kind": "user",
    "methods": {
      "addKeeper(address)": {
        "notice": "Add given address in keepers list."
      },
      "isReservedToken(address)": {
        "notice": "Check whether given token is reserved or not. Reserved tokens are not allowed to sweep."
      },
      "keepers()": {
        "notice": "Return list of keepers"
      },
      "migrate(address)": {
        "notice": "Migrate all asset and vault ownership,if any, to new strategy"
      },
      "removeKeeper(address)": {
        "notice": "Remove given address from keepers list."
      },
      "token()": {
        "notice": "Returns address of token correspond to collateral token"
      },
      "totalValue()": {
        "notice": "Calculate total value using COMP accrued and cToken"
      },
      "totalValueCurrent()": {
        "notice": "Calculate total value of asset under management (in real-time)"
      },
      "updateFeeCollector(address)": {
        "notice": "Update fee collector"
      },
      "updateSwapManager(address)": {
        "notice": "Update swap manager address"
      }
    },
    "version": 1
  },
  "storageLayout": {
    "storage": [
      {
        "astId": 14867,
        "contract": "contracts/strategies/compound/CompoundMultiRewardAvalancheStrategy.sol:CompoundMultiRewardAvalancheStrategy",
        "label": "WETH",
        "offset": 0,
        "slot": "0",
        "type": "t_address"
      },
      {
        "astId": 14872,
        "contract": "contracts/strategies/compound/CompoundMultiRewardAvalancheStrategy.sol:CompoundMultiRewardAvalancheStrategy",
        "label": "receiptToken",
        "offset": 0,
        "slot": "1",
        "type": "t_address"
      },
      {
        "astId": 14878,
        "contract": "contracts/strategies/compound/CompoundMultiRewardAvalancheStrategy.sol:CompoundMultiRewardAvalancheStrategy",
        "label": "feeCollector",
        "offset": 0,
        "slot": "2",
        "type": "t_address"
      },
      {
        "astId": 14881,
        "contract": "contracts/strategies/compound/CompoundMultiRewardAvalancheStrategy.sol:CompoundMultiRewardAvalancheStrategy",
        "label": "swapManager",
        "offset": 0,
        "slot": "3",
        "type": "t_contract(ISwapManager)5259"
      },
      {
        "astId": 14884,
        "contract": "contracts/strategies/compound/CompoundMultiRewardAvalancheStrategy.sol:CompoundMultiRewardAvalancheStrategy",
        "label": "oraclePeriod",
        "offset": 0,
        "slot": "4",
        "type": "t_uint256"
      },
      {
        "astId": 14887,
        "contract": "contracts/strategies/compound/CompoundMultiRewardAvalancheStrategy.sol:CompoundMultiRewardAvalancheStrategy",
        "label": "oracleRouterIdx",
        "offset": 0,
        "slot": "5",
        "type": "t_uint256"
      },
      {
        "astId": 14890,
        "contract": "contracts/strategies/compound/CompoundMultiRewardAvalancheStrategy.sol:CompoundMultiRewardAvalancheStrategy",
        "label": "swapSlippage",
        "offset": 0,
        "slot": "6",
        "type": "t_uint256"
      },
      {
        "astId": 14893,
        "contract": "contracts/strategies/compound/CompoundMultiRewardAvalancheStrategy.sol:CompoundMultiRewardAvalancheStrategy",
        "label": "_keepers",
        "offset": 0,
        "slot": "7",
        "type": "t_struct(AddressSet)4299_storage"
      },
      {
        "astId": 22330,
        "contract": "contracts/strategies/compound/CompoundMultiRewardAvalancheStrategy.sol:CompoundMultiRewardAvalancheStrategy",
        "label": "NAME",
        "offset": 0,
        "slot": "9",
        "type": "t_string_storage"
      },
      {
        "astId": 22336,
        "contract": "contracts/strategies/compound/CompoundMultiRewardAvalancheStrategy.sol:CompoundMultiRewardAvalancheStrategy",
        "label": "cToken",
        "offset": 0,
        "slot": "10",
        "type": "t_contract(CToken)5389"
      },
      {
        "astId": 22058,
        "contract": "contracts/strategies/compound/CompoundMultiRewardAvalancheStrategy.sol:CompoundMultiRewardAvalancheStrategy",
        "label": "rewardDistributor",
        "offset": 0,
        "slot": "11",
        "type": "t_address"
      }
    ],
    "types": {
      "t_address": {
        "encoding": "inplace",
        "label": "address",
        "numberOfBytes": "20"
      },
      "t_array(t_bytes32)dyn_storage": {
        "base": "t_bytes32",
        "encoding": "dynamic_array",
        "label": "bytes32[]",
        "numberOfBytes": "32"
      },
      "t_bytes32": {
        "encoding": "inplace",
        "label": "bytes32",
        "numberOfBytes": "32"
      },
      "t_contract(CToken)5389": {
        "encoding": "inplace",
        "label": "contract CToken",
        "numberOfBytes": "20"
      },
      "t_contract(ISwapManager)5259": {
        "encoding": "inplace",
        "label": "contract ISwapManager",
        "numberOfBytes": "20"
      },
      "t_mapping(t_bytes32,t_uint256)": {
        "encoding": "mapping",
        "key": "t_bytes32",
        "label": "mapping(bytes32 => uint256)",
        "numberOfBytes": "32",
        "value": "t_uint256"
      },
      "t_string_storage": {
        "encoding": "bytes",
        "label": "string",
        "numberOfBytes": "32"
      },
      "t_struct(AddressSet)4299_storage": {
        "encoding": "inplace",
        "label": "struct EnumerableSet.AddressSet",
        "members": [
          {
            "astId": 4298,
            "contract": "contracts/strategies/compound/CompoundMultiRewardAvalancheStrategy.sol:CompoundMultiRewardAvalancheStrategy",
            "label": "_inner",
            "offset": 0,
            "slot": "0",
            "type": "t_struct(Set)3998_storage"
          }
        ],
        "numberOfBytes": "64"
      },
      "t_struct(Set)3998_storage": {
        "encoding": "inplace",
        "label": "struct EnumerableSet.Set",
        "members": [
          {
            "astId": 3993,
            "contract": "contracts/strategies/compound/CompoundMultiRewardAvalancheStrategy.sol:CompoundMultiRewardAvalancheStrategy",
            "label": "_values",
            "offset": 0,
            "slot": "0",
            "type": "t_array(t_bytes32)dyn_storage"
          },
          {
            "astId": 3997,
            "contract": "contracts/strategies/compound/CompoundMultiRewardAvalancheStrategy.sol:CompoundMultiRewardAvalancheStrategy",
            "label": "_indexes",
            "offset": 0,
            "slot": "1",
            "type": "t_mapping(t_bytes32,t_uint256)"
          }
        ],
        "numberOfBytes": "64"
      },
      "t_uint256": {
        "encoding": "inplace",
        "label": "uint256",
        "numberOfBytes": "32"
      }
    }
  }
}