{
  "address": "0x3E281c4289b69573F0bD01Ab51C18A4f8144046f",
  "abi": [
    {
      "inputs": [
        {
          "internalType": "address",
          "name": "_pool",
          "type": "address"
        },
        {
          "internalType": "address",
          "name": "_swapManager",
          "type": "address"
        },
        {
          "internalType": "address",
          "name": "_receiptToken",
          "type": "address"
        },
        {
          "internalType": "address",
          "name": "_dripToken",
          "type": "address"
        },
        {
          "internalType": "address",
          "name": "_vsp",
          "type": "address"
        },
        {
          "internalType": "string",
          "name": "_name",
          "type": "string"
        }
      ],
      "stateMutability": "nonpayable",
      "type": "constructor"
    },
    {
      "anonymous": false,
      "inputs": [
        {
          "indexed": false,
          "internalType": "uint256",
          "name": "oldDripPeriod",
          "type": "uint256"
        },
        {
          "indexed": false,
          "internalType": "uint256",
          "name": "newDripPeriod",
          "type": "uint256"
        }
      ],
      "name": "DripPeriodUpdated",
      "type": "event"
    },
    {
      "anonymous": false,
      "inputs": [
        {
          "indexed": true,
          "internalType": "address",
          "name": "previousFeeCollector",
          "type": "address"
        },
        {
          "indexed": true,
          "internalType": "address",
          "name": "newFeeCollector",
          "type": "address"
        }
      ],
      "name": "UpdatedFeeCollector",
      "type": "event"
    },
    {
      "anonymous": false,
      "inputs": [
        {
          "indexed": false,
          "internalType": "uint256",
          "name": "oldPeriod",
          "type": "uint256"
        },
        {
          "indexed": false,
          "internalType": "uint256",
          "name": "newPeriod",
          "type": "uint256"
        },
        {
          "indexed": false,
          "internalType": "uint256",
          "name": "oldRouterIdx",
          "type": "uint256"
        },
        {
          "indexed": false,
          "internalType": "uint256",
          "name": "newRouterIdx",
          "type": "uint256"
        }
      ],
      "name": "UpdatedOracleConfig",
      "type": "event"
    },
    {
      "anonymous": false,
      "inputs": [
        {
          "indexed": true,
          "internalType": "address",
          "name": "previousSwapManager",
          "type": "address"
        },
        {
          "indexed": true,
          "internalType": "address",
          "name": "newSwapManager",
          "type": "address"
        }
      ],
      "name": "UpdatedSwapManager",
      "type": "event"
    },
    {
      "anonymous": false,
      "inputs": [
        {
          "indexed": false,
          "internalType": "uint256",
          "name": "oldSwapSlippage",
          "type": "uint256"
        },
        {
          "indexed": false,
          "internalType": "uint256",
          "name": "newSwapSlippage",
          "type": "uint256"
        }
      ],
      "name": "UpdatedSwapSlippage",
      "type": "event"
    },
    {
      "inputs": [],
      "name": "NAME",
      "outputs": [
        {
          "internalType": "string",
          "name": "",
          "type": "string"
        }
      ],
      "stateMutability": "view",
      "type": "function"
    },
    {
      "inputs": [],
      "name": "VERSION",
      "outputs": [
        {
          "internalType": "string",
          "name": "",
          "type": "string"
        }
      ],
      "stateMutability": "view",
      "type": "function"
    },
    {
      "inputs": [
        {
          "internalType": "address",
          "name": "_keeperAddress",
          "type": "address"
        }
      ],
      "name": "addKeeper",
      "outputs": [],
      "stateMutability": "nonpayable",
      "type": "function"
    },
    {
      "inputs": [],
      "name": "approveGrowToken",
      "outputs": [],
      "stateMutability": "nonpayable",
      "type": "function"
    },
    {
      "inputs": [],
      "name": "approveToken",
      "outputs": [],
      "stateMutability": "nonpayable",
      "type": "function"
    },
    {
      "inputs": [],
      "name": "collateralToken",
      "outputs": [
        {
          "internalType": "contract IERC20",
          "name": "",
          "type": "address"
        }
      ],
      "stateMutability": "view",
      "type": "function"
    },
    {
      "inputs": [],
      "name": "dripPeriod",
      "outputs": [
        {
          "internalType": "uint256",
          "name": "",
          "type": "uint256"
        }
      ],
      "stateMutability": "view",
      "type": "function"
    },
    {
      "inputs": [],
      "name": "dripToken",
      "outputs": [
        {
          "internalType": "address",
          "name": "",
          "type": "address"
        }
      ],
      "stateMutability": "view",
      "type": "function"
    },
    {
      "inputs": [],
      "name": "feeCollector",
      "outputs": [
        {
          "internalType": "address",
          "name": "",
          "type": "address"
        }
      ],
      "stateMutability": "view",
      "type": "function"
    },
    {
      "inputs": [
        {
          "internalType": "address",
          "name": "_token",
          "type": "address"
        }
      ],
      "name": "isReservedToken",
      "outputs": [
        {
          "internalType": "bool",
          "name": "",
          "type": "bool"
        }
      ],
      "stateMutability": "view",
      "type": "function"
    },
    {
      "inputs": [],
      "name": "keepers",
      "outputs": [
        {
          "internalType": "address[]",
          "name": "",
          "type": "address[]"
        }
      ],
      "stateMutability": "view",
      "type": "function"
    },
    {
      "inputs": [
        {
          "internalType": "address",
          "name": "_newStrategy",
          "type": "address"
        }
      ],
      "name": "migrate",
      "outputs": [],
      "stateMutability": "nonpayable",
      "type": "function"
    },
    {
      "inputs": [],
      "name": "oraclePeriod",
      "outputs": [
        {
          "internalType": "uint256",
          "name": "",
          "type": "uint256"
        }
      ],
      "stateMutability": "view",
      "type": "function"
    },
    {
      "inputs": [],
      "name": "oracleRouterIdx",
      "outputs": [
        {
          "internalType": "uint256",
          "name": "",
          "type": "uint256"
        }
      ],
      "stateMutability": "view",
      "type": "function"
    },
    {
      "inputs": [],
      "name": "pool",
      "outputs": [
        {
          "internalType": "address",
          "name": "",
          "type": "address"
        }
      ],
      "stateMutability": "view",
      "type": "function"
    },
    {
      "inputs": [],
      "name": "rebalance",
      "outputs": [],
      "stateMutability": "nonpayable",
      "type": "function"
    },
    {
      "inputs": [],
      "name": "receiptToken",
      "outputs": [
        {
          "internalType": "address",
          "name": "",
          "type": "address"
        }
      ],
      "stateMutability": "view",
      "type": "function"
    },
    {
      "inputs": [
        {
          "internalType": "address",
          "name": "_keeperAddress",
          "type": "address"
        }
      ],
      "name": "removeKeeper",
      "outputs": [],
      "stateMutability": "nonpayable",
      "type": "function"
    },
    {
      "inputs": [],
      "name": "setupOracles",
      "outputs": [],
      "stateMutability": "nonpayable",
      "type": "function"
    },
    {
      "inputs": [],
      "name": "swapManager",
      "outputs": [
        {
          "internalType": "contract ISwapManager",
          "name": "",
          "type": "address"
        }
      ],
      "stateMutability": "view",
      "type": "function"
    },
    {
      "inputs": [],
      "name": "swapSlippage",
      "outputs": [
        {
          "internalType": "uint256",
          "name": "",
          "type": "uint256"
        }
      ],
      "stateMutability": "view",
      "type": "function"
    },
    {
      "inputs": [
        {
          "internalType": "address",
          "name": "_fromToken",
          "type": "address"
        }
      ],
      "name": "sweepERC20",
      "outputs": [],
      "stateMutability": "nonpayable",
      "type": "function"
    },
    {
      "inputs": [],
      "name": "token",
      "outputs": [
        {
          "internalType": "address",
          "name": "",
          "type": "address"
        }
      ],
      "stateMutability": "view",
      "type": "function"
    },
    {
      "inputs": [],
      "name": "totalEarned",
      "outputs": [
        {
          "internalType": "uint256",
          "name": "",
          "type": "uint256"
        }
      ],
      "stateMutability": "view",
      "type": "function"
    },
    {
      "inputs": [],
      "name": "totalValue",
      "outputs": [
        {
          "internalType": "uint256",
          "name": "_totalValue",
          "type": "uint256"
        }
      ],
      "stateMutability": "view",
      "type": "function"
    },
    {
      "inputs": [],
      "name": "totalValueCurrent",
      "outputs": [
        {
          "internalType": "uint256",
          "name": "",
          "type": "uint256"
        }
      ],
      "stateMutability": "nonpayable",
      "type": "function"
    },
    {
      "inputs": [
        {
          "internalType": "uint256",
          "name": "_dripPeriod",
          "type": "uint256"
        }
      ],
      "name": "updateDripPeriod",
      "outputs": [],
      "stateMutability": "nonpayable",
      "type": "function"
    },
    {
      "inputs": [
        {
          "internalType": "address",
          "name": "_feeCollector",
          "type": "address"
        }
      ],
      "name": "updateFeeCollector",
      "outputs": [],
      "stateMutability": "nonpayable",
      "type": "function"
    },
    {
      "inputs": [
        {
          "internalType": "uint256",
          "name": "_newPeriod",
          "type": "uint256"
        },
        {
          "internalType": "uint256",
          "name": "_newRouterIdx",
          "type": "uint256"
        }
      ],
      "name": "updateOracleConfig",
      "outputs": [],
      "stateMutability": "nonpayable",
      "type": "function"
    },
    {
      "inputs": [
        {
          "internalType": "address",
          "name": "_swapManager",
          "type": "address"
        }
      ],
      "name": "updateSwapManager",
      "outputs": [],
      "stateMutability": "nonpayable",
      "type": "function"
    },
    {
      "inputs": [
        {
          "internalType": "uint256",
          "name": "_newSwapSlippage",
          "type": "uint256"
        }
      ],
      "name": "updateSwapSlippage",
      "outputs": [],
      "stateMutability": "nonpayable",
      "type": "function"
    },
    {
      "inputs": [
        {
          "internalType": "uint256",
          "name": "_amount",
          "type": "uint256"
        }
      ],
      "name": "withdraw",
      "outputs": [],
      "stateMutability": "nonpayable",
      "type": "function"
    }
  ],
  "transactionHash": "0xc82d56777569987ed6d9016f1ff8e36d2e1f5481a550c6a711d76eef66623146",
  "args": [
    "0xeBcF77CCE55ed6091F82aEE3c5539841E4D75F49",
    "0xe382d9f2394A359B01006faa8A1864b8a60d2710",
    "0x0538C8bAc84E95A9dF8aC10Aad17DbE81b9E36ee",
    "0x269616d549d7e8eaa82dfb17028d0b212d11232a",
    "0x1b40183efb4dd766f11bda7a7c3ad8982e998421",
    "EarnVesperStrategyDAIPUNK"
  ],
  "solcInputHash": "df85988906f0030b00765f8889fe8716",
  "bytecode": "0x610120604052600080546001600160a01b03191673c02aaa39b223fe8d0a0e5c4f27ead9083c756cc2178155610e106004556005556127106006556202a300600a553480156200004e57600080fd5b506040516200493e3803806200493e833981016040819052620000719162000470565b8286868685858484846001600160a01b038316620000d65760405162461bcd60e51b815260206004820152601460248201527f706f6f6c2d616464726573732d69732d7a65726f00000000000000000000000060448201526064015b60405180910390fd5b6001600160a01b038216620001235760405162461bcd60e51b8152602060048201526012602482015271736d2d616464726573732d69732d7a65726f60701b6044820152606401620000cd565b600380546001600160a01b0319166001600160a01b0384811691909117909155606084901b6001600160601b03191660a05260408051637e062a3560e11b815290519185169163fc0c546a91600480820192602092909190829003018186803b1580156200019057600080fd5b505afa158015620001a5573d6000803e3d6000fd5b505050506040513d601f19601f82011682018060405250810190620001cb9190620005b4565b60601b6001600160601b031916608052600180546001600160a01b0319166001600160a01b03831617905562000218620002023390565b60076200035860201b620018f11790919060201c565b6200025a5760405162461bcd60e51b81526020600482015260116024820152701859190b5ad9595c195c8b59985a5b1959607a1b6044820152606401620000cd565b5050506001600160a01b038316620002b55760405162461bcd60e51b815260206004820152601660248201527f76546f6b656e2d616464726573732d69732d7a65726f000000000000000000006044820152606401620000cd565b6001600160601b0319606084901b1660e0528051620002dc906009906020840190620003ca565b505060601b6001600160601b03191660c0525050506001600160a01b0381166200033a5760405162461bcd60e51b815260206004820152600e60248201526d64726970546f6b656e2d7a65726f60901b6044820152606401620000cd565b60601b6001600160601b031916610100525062000646945050505050565b60006200036f836001600160a01b03841662000378565b90505b92915050565b6000818152600183016020526040812054620003c15750815460018181018455600084815260208082209093018490558454848252828601909352604090209190915562000372565b50600062000372565b828054620003d890620005da565b90600052602060002090601f016020900481019282620003fc576000855562000447565b82601f106200041757805160ff191683800117855562000447565b8280016001018555821562000447579182015b82811115620004475782518255916020019190600101906200042a565b506200045592915062000459565b5090565b5b808211156200045557600081556001016200045a565b60008060008060008060c0878903121562000489578182fd5b865162000496816200062d565b80965050602080880151620004ab816200062d565b6040890151909650620004be816200062d565b6060890151909550620004d1816200062d565b6080890151909450620004e4816200062d565b60a08901519093506001600160401b038082111562000501578384fd5b818a0191508a601f83011262000515578384fd5b8151818111156200052a576200052a62000617565b604051601f8201601f19908116603f0116810190838211818310171562000555576200055562000617565b816040528281528d868487010111156200056d578687fd5b8693505b8284101562000590578484018601518185018701529285019262000571565b82841115620005a157868684830101525b8096505050505050509295509295509295565b600060208284031215620005c6578081fd5b8151620005d3816200062d565b9392505050565b600181811c90821680620005ef57607f821691505b602082108114156200061157634e487b7160e01b600052602260045260246000fd5b50919050565b634e487b7160e01b600052604160045260246000fd5b6001600160a01b03811681146200064357600080fd5b50565b60805160601c60a05160601c60c05160601c60e05160601c6101005160601c614138620008066000396000818161024901528181610ca701528181610d9701528181610dcc0152818161260001528181612ad101528181612c1401528181612f1e01528181612f6101528181612faf0152818161339f01526133f901526000818161082701528181611d4001528181611e3e015281816120980152818161214e015281816121d5015281816127950152818161301901526130b9015260008181611f7b0152818161329e01526133300152600081816101cf0152818161042801528181610543015281816106c9015281816107190152818161086401528181610a1701528181610b8e01528181610e5f01528181610fa501528181611205015281816112a2015281816114f60152818161193301528181611b1f01528181611bbf01528181611dea015281816129a70152612a3a01526000818161035701528181611429015281816114cd0152818161173e0152818161195401528181611c9d01528181611dc801528181611e1c0152818161202a015281816126f701528181612833015281816128fd0152818161337e01526133d801526141386000f3fe608060405234801561001057600080fd5b50600436106101b05760003560e01c8063951dc22c116100ef578063ce5494bb11610092578063ce5494bb14610395578063d2c35ce8146103a8578063d4c3eea0146103bb578063e00af4a7146103c3578063e645c202146103d6578063ec78e832146103de578063fc0c546a146103f1578063ffa1ad7414610402576101b0565b8063951dc22c1461030557806399b71d5c1461031a578063a3f4df7e14610322578063a923b2a614610337578063aa1018861461034a578063b2016bd414610352578063c415b95c14610379578063cd2d7ebe1461038c576101b0565b8063440d724811610157578063440d7248146102875780634c36fad7146102aa57806367f5e4b8146102bd5780636dfa8d99146102d0578063709d039d146102d957806371506414146102ec5780637737b672146102f55780637d7c2a1c146102fd576101b0565b806314ae9f2e146101b557806316f0115b146101ca5780631960d116146102075780631aedeabe1461021a5780632e1a7d4d14610231578063335bbf11146102445780634032b72b1461026b57806342189c8f1461027e575b600080fd5b6101c86101c3366004613b1e565b610426565b005b6101f17f000000000000000000000000000000000000000000000000000000000000000081565b6040516101fe9190613e31565b60405180910390f35b6101c8610215366004613d1c565b610541565b61022360065481565b6040519081526020016101fe565b6101c861023f366004613d1c565b6106c6565b6101f17f000000000000000000000000000000000000000000000000000000000000000081565b6101c8610279366004613b1e565b610717565b61022360045481565b61029a610295366004613b1e565b610823565b60405190151581526020016101fe565b6101c86102b8366004613b1e565b610862565b6101c86102cb366004613d1c565b610a15565b610223600b5481565b6003546101f1906001600160a01b031681565b610223600a5481565b6101c8610b61565b6101c8610df9565b61030d610ec8565b6040516101fe9190613e66565b6101c8610ed9565b61032a610f15565b6040516101fe9190613e79565b6101c8610345366004613d4c565b610fa3565b6101c86111d8565b6101f17f000000000000000000000000000000000000000000000000000000000000000081565b6002546101f1906001600160a01b031681565b61022360055481565b6101c86103a3366004613b1e565b611202565b6101c86103b6366004613b1e565b6114f4565b6102236116bd565b6101c86103d1366004613b1e565b6116c7565b6102236118e7565b6001546101f1906001600160a01b031681565b6001546001600160a01b03166101f1565b61032a60405180604001604052806005815260200164342e302e3160d81b81525081565b7f00000000000000000000000000000000000000000000000000000000000000006001600160a01b0316630c340a246040518163ffffffff1660e01b815260040160206040518083038186803b15801561047f57600080fd5b505afa158015610493573d6000803e3d6000fd5b505050506040513d601f19601f820116820180604052508101906104b79190613b3a565b6001600160a01b0316336001600160a01b0316146104f05760405162461bcd60e51b81526004016104e790613edc565b60405180910390fd5b6104fb60078261190f565b61053e5760405162461bcd60e51b81526020600482015260146024820152731c995b5bdd994b5ad9595c195c8b59985a5b195960621b60448201526064016104e7565b50565b7f00000000000000000000000000000000000000000000000000000000000000006001600160a01b0316630c340a246040518163ffffffff1660e01b815260040160206040518083038186803b15801561059a57600080fd5b505afa1580156105ae573d6000803e3d6000fd5b505050506040513d601f19601f820116820180604052508101906105d29190613b3a565b6001600160a01b0316336001600160a01b0316146106025760405162461bcd60e51b81526004016104e790613edc565b806106415760405162461bcd60e51b815260206004820152600f60248201526e64726970506572696f642d7a65726f60881b60448201526064016104e7565b600a548114156106855760405162461bcd60e51b815260206004820152600f60248201526e1cd85b594b591c9a5c14195c9a5bd9608a1b60448201526064016104e7565b600a5460408051918252602082018390527f6a4a78fe36e2d43bd20405835c6211b888cc77a834e32ddc9ac64ded78f4b328910160405180910390a1600a55565b337f00000000000000000000000000000000000000000000000000000000000000006001600160a01b03161461070e5760405162461bcd60e51b81526004016104e790613f13565b61053e81611924565b7f00000000000000000000000000000000000000000000000000000000000000006001600160a01b0316630c340a246040518163ffffffff1660e01b815260040160206040518083038186803b15801561077057600080fd5b505afa158015610784573d6000803e3d6000fd5b505050506040513d601f19601f820116820180604052508101906107a89190613b3a565b6001600160a01b0316336001600160a01b0316146107d85760405162461bcd60e51b81526004016104e790613edc565b6107e36007826118f1565b61053e5760405162461bcd60e51b81526020600482015260116024820152701859190b5ad9595c195c8b59985a5b1959607a1b60448201526064016104e7565b60007f00000000000000000000000000000000000000000000000000000000000000006001600160a01b0316826001600160a01b03161490505b919050565b7f00000000000000000000000000000000000000000000000000000000000000006001600160a01b0316630c340a246040518163ffffffff1660e01b815260040160206040518083038186803b1580156108bb57600080fd5b505afa1580156108cf573d6000803e3d6000fd5b505050506040513d601f19601f820116820180604052508101906108f39190613b3a565b6001600160a01b0316336001600160a01b0316146109235760405162461bcd60e51b81526004016104e790613edc565b6001600160a01b03811661096e5760405162461bcd60e51b8152602060048201526012602482015271736d2d616464726573732d69732d7a65726f60701b60448201526064016104e7565b6003546001600160a01b03828116911614156109b95760405162461bcd60e51b815260206004820152600a602482015269736d2d69732d73616d6560b01b60448201526064016104e7565b6003546040516001600160a01b038084169216907f2d19927e7cac08ceb98b38898a4fdff6da6a27295b9a2d62fe250408ebe044e190600090a3600380546001600160a01b0319166001600160a01b0392909216919091179055565b7f00000000000000000000000000000000000000000000000000000000000000006001600160a01b0316630c340a246040518163ffffffff1660e01b815260040160206040518083038186803b158015610a6e57600080fd5b505afa158015610a82573d6000803e3d6000fd5b505050506040513d601f19601f82011682018060405250810190610aa69190613b3a565b6001600160a01b0316336001600160a01b031614610ad65760405162461bcd60e51b81526004016104e790613edc565b612710811115610b215760405162461bcd60e51b8152602060048201526016602482015275696e76616c69642d736c6970706167652d76616c756560501b60448201526064016104e7565b60065460408051918252602082018390527ef1c5db862c7598b3b6765552ca951f498611e06412c2d57f8d0b58f82e7f82910160405180910390a1600655565b610b6e335b60079061199e565b610b8a5760405162461bcd60e51b81526004016104e790613eac565b60007f00000000000000000000000000000000000000000000000000000000000000006001600160a01b0316638bc6beb26040518163ffffffff1660e01b8152600401602060405180830381600087803b158015610be757600080fd5b505af1158015610bfb573d6000803e3d6000fd5b505050506040513d601f19601f82011682018060405250810190610c1f9190613b3a565b90506000816001600160a01b031663e49e463b6040518163ffffffff1660e01b815260040160206040518083038186803b158015610c5c57600080fd5b505afa158015610c70573d6000803e3d6000fd5b505050506040513d601f19601f82011682018060405250810190610c949190613b3a565b90506001600160a01b03811615610df5577f00000000000000000000000000000000000000000000000000000000000000006001600160a01b0316816001600160a01b031663fc0c546a6040518163ffffffff1660e01b815260040160206040518083038186803b158015610d0857600080fd5b505afa158015610d1c573d6000803e3d6000fd5b505050506040513d601f19601f82011682018060405250810190610d409190613b3a565b6001600160a01b031614610d8a5760405162461bcd60e51b81526020600482015260116024820152701a5b9d985b1a590b59dc9bddcb5c1bdbdb607a1b60448201526064016104e7565b610dbf6001600160a01b037f0000000000000000000000000000000000000000000000000000000000000000168260006119c0565b610df56001600160a01b037f000000000000000000000000000000000000000000000000000000000000000016826000196119c0565b5050565b610e0233610b66565b610e1e5760405162461bcd60e51b81526004016104e790613eac565b6000806000610e2b611b17565b6040516302df682360e11b815260048101849052602481018390526044810182905292955090935091506001600160a01b037f000000000000000000000000000000000000000000000000000000000000000016906305bed04690606401600060405180830381600087803b158015610ea357600080fd5b505af1158015610eb7573d6000803e3d6000fd5b50505050610ec3611c83565b505050565b6060610ed46007611da7565b905090565b610ee233610b66565b610efe5760405162461bcd60e51b81526004016104e790613eac565b610f086000611dbb565b610f13600019611dbb565b565b60098054610f2290614071565b80601f0160208091040260200160405190810160405280929190818152602001828054610f4e90614071565b8015610f9b5780601f10610f7057610100808354040283529160200191610f9b565b820191906000526020600020905b815481529060010190602001808311610f7e57829003601f168201915b505050505081565b7f00000000000000000000000000000000000000000000000000000000000000006001600160a01b0316630c340a246040518163ffffffff1660e01b815260040160206040518083038186803b158015610ffc57600080fd5b505afa158015611010573d6000803e3d6000fd5b505050506040513d601f19601f820116820180604052508101906110349190613b3a565b6001600160a01b0316336001600160a01b0316146110645760405162461bcd60e51b81526004016104e790613edc565b600360009054906101000a90046001600160a01b03166001600160a01b031663c2fba6676040518163ffffffff1660e01b815260040160206040518083038186803b1580156110b257600080fd5b505afa1580156110c6573d6000803e3d6000fd5b505050506040513d601f19601f820116820180604052508101906110ea9190613d34565b811061112f5760405162461bcd60e51b81526020600482015260146024820152730d2dcecc2d8d2c85ae4deeae8cae45ad2dcc8caf60631b60448201526064016104e7565b8161113a5760045491505b603b82116111825760405162461bcd60e51b81526020600482015260156024820152741a5b9d985b1a590b5bdc9858db194b5c195c9a5bd9605a1b60448201526064016104e7565b6004546005546040805192835260208301859052820152606081018290527f83bc5ab8030537fcf1d29c2334f6d22c26c82dcbe5ff03923d2cff5c692c0a7f9060800160405180910390a1600491909155600555565b6111e133610b66565b6111fd5760405162461bcd60e51b81526004016104e790613eac565b610f13565b337f00000000000000000000000000000000000000000000000000000000000000006001600160a01b03161461124a5760405162461bcd60e51b81526004016104e790613f13565b6001600160a01b0381166112a05760405162461bcd60e51b815260206004820152601c60248201527f6e65772d73747261746567792d616464726573732d69732d7a65726f0000000060448201526064016104e7565b7f00000000000000000000000000000000000000000000000000000000000000006001600160a01b0316816001600160a01b03166316f0115b6040518163ffffffff1660e01b815260040160206040518083038186803b15801561130357600080fd5b505afa158015611317573d6000803e3d6000fd5b505050506040513d601f19601f8201168201806040525081019061133b9190613b3a565b6001600160a01b03161461138a5760405162461bcd60e51b81526020600482015260166024820152756e6f742d76616c69642d6e65772d737472617465677960501b60448201526064016104e7565b6001546040516370a0823160e01b81526114239183916001600160a01b03909116906370a08231906113c0903090600401613e31565b60206040518083038186803b1580156113d857600080fd5b505afa1580156113ec573d6000803e3d6000fd5b505050506040513d601f19601f820116820180604052508101906114109190613d34565b6001546001600160a01b03169190612063565b61053e817f00000000000000000000000000000000000000000000000000000000000000006001600160a01b03166370a08231306040518263ffffffff1660e01b81526004016114739190613e31565b60206040518083038186803b15801561148b57600080fd5b505afa15801561149f573d6000803e3d6000fd5b505050506040513d601f19601f820116820180604052508101906114c39190613d34565b6001600160a01b037f0000000000000000000000000000000000000000000000000000000000000000169190612063565b7f00000000000000000000000000000000000000000000000000000000000000006001600160a01b0316630c340a246040518163ffffffff1660e01b815260040160206040518083038186803b15801561154d57600080fd5b505afa158015611561573d6000803e3d6000fd5b505050506040513d601f19601f820116820180604052508101906115859190613b3a565b6001600160a01b0316336001600160a01b0316146115b55760405162461bcd60e51b81526004016104e790613edc565b6001600160a01b03811661160b5760405162461bcd60e51b815260206004820152601d60248201527f6665652d636f6c6c6563746f722d616464726573732d69732d7a65726f00000060448201526064016104e7565b6002546001600160a01b03828116911614156116615760405162461bcd60e51b81526020600482015260156024820152746665652d636f6c6c6563746f722d69732d73616d6560581b60448201526064016104e7565b6002546040516001600160a01b038084169216907f0f06062680f9bd68e786e9980d9bb03d73d5620fc3b345e417b6eacb310b970690600090a3600280546001600160a01b0319166001600160a01b0392909216919091179055565b6000610ed4612093565b6116d033610b66565b6116ec5760405162461bcd60e51b81526004016104e790613eac565b6002546001600160a01b031661173c5760405162461bcd60e51b81526020600482015260156024820152741999594b58dbdb1b1958dd1bdc8b5b9bdd0b5cd95d605a1b60448201526064016104e7565b7f00000000000000000000000000000000000000000000000000000000000000006001600160a01b0316816001600160a01b031614156117be5760405162461bcd60e51b815260206004820152601f60248201527f6e6f742d616c6c6f7765642d746f2d73776565702d636f6c6c61746572616c0060448201526064016104e7565b6117c781610823565b1561180b5760405162461bcd60e51b815260206004820152601460248201527306e6f742d616c6c6f7765642d746f2d73776565760641b60448201526064016104e7565b6001600160a01b03811673eeeeeeeeeeeeeeeeeeeeeeeeeeeeeeeeeeeeeeee141561184b57600254611846906001600160a01b03164761227e565b61053e565b6040516370a0823160e01b81526000906001600160a01b038316906370a082319061187a903090600401613e31565b60206040518083038186803b15801561189257600080fd5b505afa1580156118a6573d6000803e3d6000fd5b505050506040513d601f19601f820116820180604052508101906118ca9190613d34565b600254909150610df5906001600160a01b03848116911683612063565b6000610ed46116bd565b6000611906836001600160a01b038416612397565b90505b92915050565b6000611906836001600160a01b0384166123e6565b61192d81612503565b5061053e7f00000000000000000000000000000000000000000000000000000000000000007f00000000000000000000000000000000000000000000000000000000000000006001600160a01b03166370a08231306040518263ffffffff1660e01b81526004016114739190613e31565b6001600160a01b03811660009081526001830160205260408120541515611906565b801580611a495750604051636eb1769f60e11b81523060048201526001600160a01b03838116602483015284169063dd62ed3e9060440160206040518083038186803b158015611a0f57600080fd5b505afa158015611a23573d6000803e3d6000fd5b505050506040513d601f19601f82011682018060405250810190611a479190613d34565b155b611ab45760405162461bcd60e51b815260206004820152603660248201527f5361666545524332303a20617070726f76652066726f6d206e6f6e2d7a65726f60448201527520746f206e6f6e2d7a65726f20616c6c6f77616e636560501b60648201526084016104e7565b6040516001600160a01b038316602482015260448101829052610ec390849063095ea7b360e01b906064015b60408051601f198184030181529190526020810180516001600160e01b03166001600160e01b031990931692909217909152612527565b6000806000807f00000000000000000000000000000000000000000000000000000000000000006001600160a01b031663d53ddc26306040518263ffffffff1660e01b8152600401611b699190613e31565b60206040518083038186803b158015611b8157600080fd5b505afa158015611b95573d6000803e3d6000fd5b505050506040513d601f19601f82011682018060405250810190611bb99190613d34565b905060007f00000000000000000000000000000000000000000000000000000000000000006001600160a01b0316639f2b2833306040518263ffffffff1660e01b8152600401611c099190613e31565b60206040518083038186803b158015611c2157600080fd5b505afa158015611c35573d6000803e3d6000fd5b505050506040513d601f19601f82011682018060405250810190611c599190613d34565b9050611c64816125f9565b9450611c6f81612660565b9350611c7a82612685565b92505050909192565b6040516370a0823160e01b81526000906001600160a01b037f000000000000000000000000000000000000000000000000000000000000000016906370a0823190611cd2903090600401613e31565b60206040518083038186803b158015611cea57600080fd5b505afa158015611cfe573d6000803e3d6000fd5b505050506040513d601f19601f82011682018060405250810190611d229190613d34565b9050801561053e5760405163b6b55f2560e01b8152600481018290527f00000000000000000000000000000000000000000000000000000000000000006001600160a01b03169063b6b55f2590602401600060405180830381600087803b158015611d8c57600080fd5b505af1158015611da0573d6000803e3d6000fd5b5050505050565b60606000611db483612696565b9392505050565b611e0f6001600160a01b037f0000000000000000000000000000000000000000000000000000000000000000167f0000000000000000000000000000000000000000000000000000000000000000836119c0565b611e636001600160a01b037f0000000000000000000000000000000000000000000000000000000000000000167f0000000000000000000000000000000000000000000000000000000000000000836119c0565b60005b600360009054906101000a90046001600160a01b03166001600160a01b031663c2fba6676040518163ffffffff1660e01b815260040160206040518083038186803b158015611eb457600080fd5b505afa158015611ec8573d6000803e3d6000fd5b505050506040513d601f19601f82011682018060405250810190611eec9190613d34565b811015610df557600354604051636e74a6f760e01b815260048101839052611fa2916001600160a01b031690636e74a6f79060240160206040518083038186803b158015611f3957600080fd5b505afa158015611f4d573d6000803e3d6000fd5b505050506040513d601f19601f82011682018060405250810190611f719190613b3a565b6001600160a01b037f00000000000000000000000000000000000000000000000000000000000000001690846119c0565b600354604051636e74a6f760e01b815260048101839052612051916001600160a01b031690636e74a6f79060240160206040518083038186803b158015611fe857600080fd5b505afa158015611ffc573d6000803e3d6000fd5b505050506040513d601f19601f820116820180604052508101906120209190613b3a565b6001600160a01b037f00000000000000000000000000000000000000000000000000000000000000001690846119c0565b8061205b816140a6565b915050611e66565b6040516001600160a01b038316602482015260448101829052610ec390849063a9059cbb60e01b90606401611ae0565b6000807f00000000000000000000000000000000000000000000000000000000000000006001600160a01b03166318160ddd6040518163ffffffff1660e01b815260040160206040518083038186803b1580156120ef57600080fd5b505afa158015612103573d6000803e3d6000fd5b505050506040513d601f19601f820116820180604052508101906121279190613d34565b905080612135576000612278565b6040516370a0823160e01b815281906001600160a01b037f000000000000000000000000000000000000000000000000000000000000000016906370a0823190612183903090600401613e31565b60206040518083038186803b15801561219b57600080fd5b505afa1580156121af573d6000803e3d6000fd5b505050506040513d601f19601f820116820180604052508101906121d39190613d34565b7f00000000000000000000000000000000000000000000000000000000000000006001600160a01b031663d4c3eea06040518163ffffffff1660e01b815260040160206040518083038186803b15801561222c57600080fd5b505afa158015612240573d6000803e3d6000fd5b505050506040513d601f19601f820116820180604052508101906122649190613d34565b61226e919061400f565b6122789190613fef565b91505090565b804710156122ce5760405162461bcd60e51b815260206004820152601d60248201527f416464726573733a20696e73756666696369656e742062616c616e636500000060448201526064016104e7565b6000826001600160a01b03168260405160006040518083038185875af1925050503d806000811461231b576040519150601f19603f3d011682016040523d82523d6000602084013e612320565b606091505b5050905080610ec35760405162461bcd60e51b815260206004820152603a60248201527f416464726573733a20756e61626c6520746f2073656e642076616c75652c207260448201527f6563697069656e74206d6179206861766520726576657274656400000000000060648201526084016104e7565b60008181526001830160205260408120546123de57508154600181810184556000848152602080822090930184905584548482528286019093526040902091909155611909565b506000611909565b600081815260018301602052604081205480156124f957600061240a60018361402e565b855490915060009061241e9060019061402e565b905081811461249f57600086600001828154811061244c57634e487b7160e01b600052603260045260246000fd5b906000526020600020015490508087600001848154811061247d57634e487b7160e01b600052603260045260246000fd5b6000918252602080832090910192909255918252600188019052604090208390555b85548690806124be57634e487b7160e01b600052603160045260246000fd5b600190038181906000526020600020016000905590558560010160008681526020019081526020016000206000905560019350505050611909565b6000915050611909565b60008061250e612093565b9050611db48184106125205781612522565b835b6126f2565b600061257c826040518060400160405280602081526020017f5361666545524332303a206c6f772d6c6576656c2063616c6c206661696c6564815250856001600160a01b03166128c39092919063ffffffff16565b805190915015610ec3578080602001905181019061259a9190613c9d565b610ec35760405162461bcd60e51b815260206004820152602a60248201527f5361666545524332303a204552433230206f7065726174696f6e20646964206e6044820152691bdd081cdd58d8d9595960b21b60648201526084016104e7565b60006126247f00000000000000000000000000000000000000000000000000000000000000006128da565b600061262e612093565b90508281111561264757612645612522848361402e565b505b61264f6128e3565b61265761298d565b50600092915050565b60008061266b612093565b90508281101561267f57611db4818461402e565b50919050565b6000811561085d5761190982612503565b6060816000018054806020026020016040519081016040528092919081815260200182805480156126e657602002820191906000526020600020905b8154815260200190600101908083116126d2575b50505050509050919050565b6000807f00000000000000000000000000000000000000000000000000000000000000006001600160a01b03166370a08231306040518263ffffffff1660e01b81526004016127419190613e31565b60206040518083038186803b15801561275957600080fd5b505afa15801561276d573d6000803e3d6000fd5b505050506040513d601f19601f820116820180604052508101906127919190613d34565b90507f00000000000000000000000000000000000000000000000000000000000000006001600160a01b031663ff643a7c6127cb85613014565b6040518263ffffffff1660e01b81526004016127e991815260200190565b600060405180830381600087803b15801561280357600080fd5b505af1158015612817573d6000803e3d6000fd5b50506040516370a0823160e01b81528392506001600160a01b037f00000000000000000000000000000000000000000000000000000000000000001691506370a0823190612869903090600401613e31565b60206040518083038186803b15801561288157600080fd5b505afa158015612895573d6000803e3d6000fd5b505050506040513d601f19601f820116820180604052508101906128b99190613d34565b611db4919061402e565b60606128d2848460008561315c565b949350505050565b61053e81613284565b6040516370a0823160e01b81526000906001600160a01b037f000000000000000000000000000000000000000000000000000000000000000016906370a0823190612932903090600401613e31565b60206040518083038186803b15801561294a57600080fd5b505afa15801561295e573d6000803e3d6000fd5b505050506040513d601f19601f820116820180604052508101906129829190613d34565b905061053e81613358565b60405163228bfd9f60e01b81526000906001600160a01b037f0000000000000000000000000000000000000000000000000000000000000000169063228bfd9f906129dc903090600401613e31565b6101006040518083038186803b1580156129f557600080fd5b505afa158015612a09573d6000803e3d6000fd5b505050506040513d601f19601f82011682018060405250810190612a2d9190613cb7565b50505050505091505060007f00000000000000000000000000000000000000000000000000000000000000006001600160a01b0316638bc6beb26040518163ffffffff1660e01b8152600401602060405180830381600087803b158015612a9357600080fd5b505af1158015612aa7573d6000803e3d6000fd5b505050506040513d601f19601f82011682018060405250810190612acb9190613b3a565b905060007f00000000000000000000000000000000000000000000000000000000000000006001600160a01b03166370a08231306040518263ffffffff1660e01b8152600401612b1b9190613e31565b60206040518083038186803b158015612b3357600080fd5b505afa158015612b47573d6000803e3d6000fd5b505050506040513d601f19601f82011682018060405250810190612b6b9190613d34565b90508015610ec3576000826001600160a01b031663e49e463b6040518163ffffffff1660e01b815260040160206040518083038186803b158015612bae57600080fd5b505afa158015612bc2573d6000803e3d6000fd5b505050506040513d601f19601f82011682018060405250810190612be69190613b3a565b905081600b6000828254612bfa9190613fd7565b90915550506001600160a01b03811615801590612cb857507f00000000000000000000000000000000000000000000000000000000000000006001600160a01b0316816001600160a01b031663fc0c546a6040518163ffffffff1660e01b815260040160206040518083038186803b158015612c7557600080fd5b505afa158015612c89573d6000803e3d6000fd5b505050506040513d601f19601f82011682018060405250810190612cad9190613b3a565b6001600160a01b0316145b15612eec576040516370a0823160e01b81526000906001600160a01b038316906370a0823190612cec903090600401613e31565b60206040518083038186803b158015612d0457600080fd5b505afa158015612d18573d6000803e3d6000fd5b505050506040513d601f19601f82011682018060405250810190612d3c9190613d34565b60405163b6b55f2560e01b8152600481018590529091506001600160a01b0383169063b6b55f2590602401600060405180830381600087803b158015612d8157600080fd5b505af1158015612d95573d6000803e3d6000fd5b50505050600081836001600160a01b03166370a08231306040518263ffffffff1660e01b8152600401612dc89190613e31565b60206040518083038186803b158015612de057600080fd5b505afa158015612df4573d6000803e3d6000fd5b505050506040513d601f19601f82011682018060405250810190612e189190613d34565b612e22919061402e565b90506000612710612e33888461400f565b612e3d9190613fef565b90508015612e6c57600254612e5f906001600160a01b03868116911683612063565b612e69818361402e565b91505b612e806001600160a01b0385168784612063565b600a546040516328f362b160e21b81526001600160a01b0388169163a3cd8ac491612eb2918891879190600401613e45565b600060405180830381600087803b158015612ecc57600080fd5b505af1158015612ee0573d6000803e3d6000fd5b5050505050505061300e565b6000612710612efb868561400f565b612f059190613fef565b90508015612f5457600254612f47906001600160a01b037f00000000000000000000000000000000000000000000000000000000000000008116911683612063565b612f51818461402e565b92505b612f886001600160a01b037f0000000000000000000000000000000000000000000000000000000000000000168585612063565b600a546040516328f362b160e21b81526001600160a01b0386169163a3cd8ac491612fda917f000000000000000000000000000000000000000000000000000000000000000091889190600401613e45565b600060405180830381600087803b158015612ff457600080fd5b505af1158015613008573d6000803e3d6000fd5b50505050505b50505050565b6000807f00000000000000000000000000000000000000000000000000000000000000006001600160a01b031663d4c3eea06040518163ffffffff1660e01b815260040160206040518083038186803b15801561307057600080fd5b505afa158015613084573d6000803e3d6000fd5b505050506040513d601f19601f820116820180604052508101906130a89190613d34565b9050806130b6576000611db4565b807f00000000000000000000000000000000000000000000000000000000000000006001600160a01b03166318160ddd6040518163ffffffff1660e01b815260040160206040518083038186803b15801561311057600080fd5b505afa158015613124573d6000803e3d6000fd5b505050506040513d601f19601f820116820180604052508101906131489190613d34565b613152908561400f565b611db49190613fef565b6060824710156131bd5760405162461bcd60e51b815260206004820152602660248201527f416464726573733a20696e73756666696369656e742062616c616e636520666f6044820152651c8818d85b1b60d21b60648201526084016104e7565b843b61320b5760405162461bcd60e51b815260206004820152601d60248201527f416464726573733a2063616c6c20746f206e6f6e2d636f6e747261637400000060448201526064016104e7565b600080866001600160a01b031685876040516132279190613e15565b60006040518083038185875af1925050503d8060008114613264576040519150601f19603f3d011682016040523d82523d6000602084013e613269565b606091505b509150915061327982828661341f565b979650505050505050565b6040516370a0823160e01b81526000906001600160a01b037f000000000000000000000000000000000000000000000000000000000000000016906370a08231906132d3903090600401613e31565b60206040518083038186803b1580156132eb57600080fd5b505afa1580156132ff573d6000803e3d6000fd5b505050506040513d601f19601f820116820180604052508101906133239190613d34565b90508015610df557610df57f000000000000000000000000000000000000000000000000000000000000000083836001613458565b801561053e57600060065461271014156133735760016133d1565b6133d16133c96133c37f00000000000000000000000000000000000000000000000000000000000000007f0000000000000000000000000000000000000000000000000000000000000000613619565b846137dd565b600654613908565b9050610df57f00000000000000000000000000000000000000000000000000000000000000007f00000000000000000000000000000000000000000000000000000000000000008484613458565b6060831561342e575081611db4565b82511561343e5782518084602001fd5b8160405162461bcd60e51b81526004016104e79190613e79565b600354604051631d1f307960e31b81526001600160a01b038681166004830152858116602483015260448201859052600092839283929091169063e8f983c89060640160006040518083038186803b1580156134b357600080fd5b505afa1580156134c7573d6000803e3d6000fd5b505050506040513d6000823e601f3d908101601f191682016040526134ef9190810190613b56565b925092509250836000141561350357600193505b811561361057600354604051636e74a6f760e01b8152600481018390526001600160a01b0390911690636e74a6f79060240160206040518083038186803b15801561354d57600080fd5b505afa158015613561573d6000803e3d6000fd5b505050506040513d601f19601f820116820180604052508101906135859190613b3a565b6001600160a01b03166338ed173986868630426040518663ffffffff1660e01b81526004016135b8959493929190613f46565b600060405180830381600087803b1580156135d257600080fd5b505af11580156135e6573d6000803e3d6000fd5b505050506040513d6000823e601f3d908101601f1916820160405261360e9190810190613c0a565b505b50505050505050565b6000546060906001600160a01b038481169116148061364557506000546001600160a01b038381169116145b156136f3576040805160028082526060820183529091602083019080368337019050509050828160008151811061368c57634e487b7160e01b600052603260045260246000fd5b60200260200101906001600160a01b031690816001600160a01b03168152505081816001815181106136ce57634e487b7160e01b600052603260045260246000fd5b60200260200101906001600160a01b031690816001600160a01b031681525050611909565b604080516003808252608082019092529060208201606080368337019050509050828160008151811061373657634e487b7160e01b600052603260045260246000fd5b6001600160a01b03928316602091820292909201015260005482519116908290600190811061377557634e487b7160e01b600052603260045260246000fd5b60200260200101906001600160a01b031690816001600160a01b03168152505081816002815181106137b757634e487b7160e01b600052603260045260246000fd5b60200260200101906001600160a01b031690816001600160a01b03168152505092915050565b600060018351116138265760405162461bcd60e51b81526020600482015260136024820152720d2dcecc2d8d2c85adee4c2c6d8ca5ae0c2e8d606b1b60448201526064016104e7565b50806000805b6001855161383a919061402e565b811015613900576138a685828151811061386457634e487b7160e01b600052603260045260246000fd5b60200260200101518683600161387a9190613fd7565b8151811061389857634e487b7160e01b600052603260045260246000fd5b60200260200101518561392b565b9093509150816138ee5760405162461bcd60e51b8152602060048201526013602482015272696e76616c69642d6f7261636c652d7261746560681b60448201526064016104e7565b806138f8816140a6565b91505061382c565b505092915050565b6000612710613917838261402e565b613921908561400f565b6119069190613fef565b60008060005b600360009054906101000a90046001600160a01b03166001600160a01b031663c2fba6676040518163ffffffff1660e01b815260040160206040518083038186803b15801561397f57600080fd5b505afa158015613993573d6000803e3d6000fd5b505050506040513d601f19601f820116820180604052508101906139b79190613d34565b811015613afd57600354600454604080516001600160a01b038a811660208301528981168284015260608201899052608082019390935260a08082018690528251808303909101815260c0820190925260009384931691613a249163b67bb24d60e01b919060e001613de4565b60408051601f1981840301815290829052613a3e91613e15565b6000604051808303816000865af19150503d8060008114613a7b576040519150601f19603f3d011682016040523d82523d6000602084013e613a80565b606091505b50915091508115613ae85760008082806020019051810190613aa29190613d6d565b509150915060045442613ab5919061402e565b81118015613ac257508115155b15613ad75750945060019350613b0692505050565b600080965096505050505050613b06565b50508080613af5906140a6565b915050613931565b50600080915091505b935093915050565b8051801515811461085d57600080fd5b600060208284031215613b2f578081fd5b8135611db4816140ed565b600060208284031215613b4b578081fd5b8151611db4816140ed565b600080600060608486031215613b6a578182fd5b835167ffffffffffffffff811115613b80578283fd5b8401601f81018613613b90578283fd5b80516020613ba5613ba083613fb3565b613f82565b8083825282820191508285018a848660051b8801011115613bc4578788fd5b8795505b84861015613bef578051613bdb816140ed565b835260019590950194918301918301613bc8565b50918801516040909801519199979850909695505050505050565b60006020808385031215613c1c578182fd5b825167ffffffffffffffff811115613c32578283fd5b8301601f81018513613c42578283fd5b8051613c50613ba082613fb3565b80828252848201915084840188868560051b8701011115613c6f578687fd5b8694505b83851015613c91578051835260019490940193918501918501613c73565b50979650505050505050565b600060208284031215613cae578081fd5b61190682613b0e565b600080600080600080600080610100898b031215613cd3578384fd5b613cdc89613b0e565b97506020890151965060408901519550606089015194506080890151935060a0890151925060c0890151915060e089015190509295985092959890939650565b600060208284031215613d2d578081fd5b5035919050565b600060208284031215613d45578081fd5b5051919050565b60008060408385031215613d5e578182fd5b50508035926020909101359150565b600080600060608486031215613d81578283fd5b8351925060208401519150613d9860408501613b0e565b90509250925092565b6000815180845260208085019450808401835b83811015613dd95781516001600160a01b031687529582019590820190600101613db4565b509495945050505050565b6001600160e01b0319831681528151600090613e07816004850160208701614045565b919091016004019392505050565b60008251613e27818460208701614045565b9190910192915050565b6001600160a01b0391909116815260200190565b6001600160a01b039390931683526020830191909152604082015260600190565b6000602082526119066020830184613da1565b6000602082528251806020840152613e98816040850160208701614045565b601f01601f19169190910160400192915050565b60208082526016908201527531b0b63632b916b4b996b737ba16b096b5b2b2b832b960511b604082015260600190565b6020808252601a908201527f63616c6c65722d69732d6e6f742d7468652d676f7665726e6f72000000000000604082015260600190565b60208082526019908201527818d85b1b195c8b5a5ccb5b9bdd0b5d995cdc195c8b5c1bdbdb603a1b604082015260600190565b600086825285602083015260a06040830152613f6560a0830186613da1565b6001600160a01b0394909416606083015250608001529392505050565b604051601f8201601f1916810167ffffffffffffffff81118282101715613fab57613fab6140d7565b604052919050565b600067ffffffffffffffff821115613fcd57613fcd6140d7565b5060051b60200190565b60008219821115613fea57613fea6140c1565b500190565b60008261400a57634e487b7160e01b81526012600452602481fd5b500490565b6000816000190483118215151615614029576140296140c1565b500290565b600082821015614040576140406140c1565b500390565b60005b83811015614060578181015183820152602001614048565b8381111561300e5750506000910152565b600181811c9082168061408557607f821691505b6020821081141561267f57634e487b7160e01b600052602260045260246000fd5b60006000198214156140ba576140ba6140c1565b5060010190565b634e487b7160e01b600052601160045260246000fd5b634e487b7160e01b600052604160045260246000fd5b6001600160a01b038116811461053e57600080fdfea26469706673582212203db8c7c483759a764517e81c528be29896b17e3281919d20d9a9d0fbb94e4c1664736f6c63430008030033",
  "devdoc": {
    "kind": "dev",
    "methods": {
      "addKeeper(address)": {
        "params": {
          "_keeperAddress": "keeper address to add."
        }
      },
      "approveGrowToken()": {
        "details": "Approves EarnDrip' Grow token to spend dripToken"
      },
      "approveToken()": {
        "details": "Approve all required tokens"
      },
      "migrate(address)": {
        "details": "_beforeMigration hook can be implemented in child strategy to do extra steps.",
        "params": {
          "_newStrategy": "Address of new strategy"
        }
      },
      "rebalance()": {
        "details": "Rebalance profit, loss and investment of this strategy"
      },
      "removeKeeper(address)": {
        "params": {
          "_keeperAddress": "keeper address to remove."
        }
      },
      "sweepERC20(address)": {
        "details": "sweep given token to feeCollector of strategy",
        "params": {
          "_fromToken": "token address to sweep"
        }
      },
      "totalValue()": {
        "details": "Report total value in collateral token"
      },
      "totalValueCurrent()": {
        "details": "Report total value in collateral token"
      },
      "updateDripPeriod(uint256)": {
        "details": "_dripPeriod in seconds"
      },
      "updateFeeCollector(address)": {
        "params": {
          "_feeCollector": "fee collector address"
        }
      },
      "updateSwapManager(address)": {
        "params": {
          "_swapManager": "swap manager address"
        }
      },
      "withdraw(uint256)": {
        "details": "Withdraw collateral token from lending pool.",
        "params": {
          "_amount": "Amount of collateral token"
        }
      }
    },
    "title": "This Earn strategy will deposit collateral token in a Vesper Grow Pool and converts the yield to another Drip Token",
    "version": 1
  },
  "userdoc": {
    "kind": "user",
    "methods": {
      "addKeeper(address)": {
        "notice": "Add given address in keepers list."
      },
      "isReservedToken(address)": {
        "notice": "Check whether given token is reserved or not. Reserved tokens are not allowed to sweep."
      },
      "keepers()": {
        "notice": "Return list of keepers"
      },
      "migrate(address)": {
        "notice": "Migrate all asset and vault ownership,if any, to new strategy"
      },
      "removeKeeper(address)": {
        "notice": "Remove given address from keepers list."
      },
      "token()": {
        "notice": "Returns address of token correspond to collateral token"
      },
      "totalValue()": {
        "notice": "Calculate total value using underlying vToken"
      },
      "totalValueCurrent()": {
        "notice": "Calculate total value of asset under management (in real-time)"
      },
      "updateDripPeriod(uint256)": {
        "notice": "Update update period of distribution of earning done in one rebalance"
      },
      "updateFeeCollector(address)": {
        "notice": "Update fee collector"
      },
      "updateSwapManager(address)": {
        "notice": "Update swap manager address"
      }
    },
    "version": 1
  },
  "storageLayout": {
    "storage": [
      {
        "astId": 14823,
        "contract": "contracts/strategies/vesper/earn/EarnVesperStrategy.sol:EarnVesperStrategy",
        "label": "WETH",
        "offset": 0,
        "slot": "0",
        "type": "t_address"
      },
      {
        "astId": 14828,
        "contract": "contracts/strategies/vesper/earn/EarnVesperStrategy.sol:EarnVesperStrategy",
        "label": "receiptToken",
        "offset": 0,
        "slot": "1",
        "type": "t_address"
      },
      {
        "astId": 14834,
        "contract": "contracts/strategies/vesper/earn/EarnVesperStrategy.sol:EarnVesperStrategy",
        "label": "feeCollector",
        "offset": 0,
        "slot": "2",
        "type": "t_address"
      },
      {
        "astId": 14837,
        "contract": "contracts/strategies/vesper/earn/EarnVesperStrategy.sol:EarnVesperStrategy",
        "label": "swapManager",
        "offset": 0,
        "slot": "3",
        "type": "t_contract(ISwapManager)5259"
      },
      {
        "astId": 14840,
        "contract": "contracts/strategies/vesper/earn/EarnVesperStrategy.sol:EarnVesperStrategy",
        "label": "oraclePeriod",
        "offset": 0,
        "slot": "4",
        "type": "t_uint256"
      },
      {
        "astId": 14843,
        "contract": "contracts/strategies/vesper/earn/EarnVesperStrategy.sol:EarnVesperStrategy",
        "label": "oracleRouterIdx",
        "offset": 0,
        "slot": "5",
        "type": "t_uint256"
      },
      {
        "astId": 14846,
        "contract": "contracts/strategies/vesper/earn/EarnVesperStrategy.sol:EarnVesperStrategy",
        "label": "swapSlippage",
        "offset": 0,
        "slot": "6",
        "type": "t_uint256"
      },
      {
        "astId": 14849,
        "contract": "contracts/strategies/vesper/earn/EarnVesperStrategy.sol:EarnVesperStrategy",
        "label": "_keepers",
        "offset": 0,
        "slot": "7",
        "type": "t_struct(AddressSet)4299_storage"
      },
      {
        "astId": 36175,
        "contract": "contracts/strategies/vesper/earn/EarnVesperStrategy.sol:EarnVesperStrategy",
        "label": "NAME",
        "offset": 0,
        "slot": "9",
        "type": "t_string_storage"
      },
      {
        "astId": 14413,
        "contract": "contracts/strategies/vesper/earn/EarnVesperStrategy.sol:EarnVesperStrategy",
        "label": "dripPeriod",
        "offset": 0,
        "slot": "10",
        "type": "t_uint256"
      },
      {
        "astId": 14415,
        "contract": "contracts/strategies/vesper/earn/EarnVesperStrategy.sol:EarnVesperStrategy",
        "label": "totalEarned",
        "offset": 0,
        "slot": "11",
        "type": "t_uint256"
      }
    ],
    "types": {
      "t_address": {
        "encoding": "inplace",
        "label": "address",
        "numberOfBytes": "20"
      },
      "t_array(t_bytes32)dyn_storage": {
        "base": "t_bytes32",
        "encoding": "dynamic_array",
        "label": "bytes32[]",
        "numberOfBytes": "32"
      },
      "t_bytes32": {
        "encoding": "inplace",
        "label": "bytes32",
        "numberOfBytes": "32"
      },
      "t_contract(ISwapManager)5259": {
        "encoding": "inplace",
        "label": "contract ISwapManager",
        "numberOfBytes": "20"
      },
      "t_mapping(t_bytes32,t_uint256)": {
        "encoding": "mapping",
        "key": "t_bytes32",
        "label": "mapping(bytes32 => uint256)",
        "numberOfBytes": "32",
        "value": "t_uint256"
      },
      "t_string_storage": {
        "encoding": "bytes",
        "label": "string",
        "numberOfBytes": "32"
      },
      "t_struct(AddressSet)4299_storage": {
        "encoding": "inplace",
        "label": "struct EnumerableSet.AddressSet",
        "members": [
          {
            "astId": 4298,
            "contract": "contracts/strategies/vesper/earn/EarnVesperStrategy.sol:EarnVesperStrategy",
            "label": "_inner",
            "offset": 0,
            "slot": "0",
            "type": "t_struct(Set)3998_storage"
          }
        ],
        "numberOfBytes": "64"
      },
      "t_struct(Set)3998_storage": {
        "encoding": "inplace",
        "label": "struct EnumerableSet.Set",
        "members": [
          {
            "astId": 3993,
            "contract": "contracts/strategies/vesper/earn/EarnVesperStrategy.sol:EarnVesperStrategy",
            "label": "_values",
            "offset": 0,
            "slot": "0",
            "type": "t_array(t_bytes32)dyn_storage"
          },
          {
            "astId": 3997,
            "contract": "contracts/strategies/vesper/earn/EarnVesperStrategy.sol:EarnVesperStrategy",
            "label": "_indexes",
            "offset": 0,
            "slot": "1",
            "type": "t_mapping(t_bytes32,t_uint256)"
          }
        ],
        "numberOfBytes": "64"
      },
      "t_uint256": {
        "encoding": "inplace",
        "label": "uint256",
        "numberOfBytes": "32"
      }
    }
  }
}