{
  "address": "0x715AE7Db6b175D9cDf71E04aa36a2CeAc57d88C9",
  "abi": [
    {
      "anonymous": false,
      "inputs": [
        {
          "indexed": true,
          "internalType": "address",
          "name": "strategy",
          "type": "address"
        },
        {
          "indexed": false,
          "internalType": "uint256",
          "name": "profit",
          "type": "uint256"
        },
        {
          "indexed": false,
          "internalType": "uint256",
          "name": "loss",
          "type": "uint256"
        },
        {
          "indexed": false,
          "internalType": "uint256",
          "name": "payback",
          "type": "uint256"
        },
        {
          "indexed": false,
          "internalType": "uint256",
          "name": "strategyDebt",
          "type": "uint256"
        },
        {
          "indexed": false,
          "internalType": "uint256",
          "name": "poolDebt",
          "type": "uint256"
        },
        {
          "indexed": false,
          "internalType": "uint256",
          "name": "creditLine",
          "type": "uint256"
        }
      ],
      "name": "EarningReported",
      "type": "event"
    },
    {
      "anonymous": false,
      "inputs": [
        {
          "indexed": true,
          "internalType": "address",
          "name": "strategy",
          "type": "address"
        },
        {
          "indexed": false,
          "internalType": "uint256",
          "name": "interestFee",
          "type": "uint256"
        },
        {
          "indexed": false,
          "internalType": "uint256",
          "name": "debtRatio",
          "type": "uint256"
        },
        {
          "indexed": false,
          "internalType": "uint256",
          "name": "debtRate",
          "type": "uint256"
        },
        {
          "indexed": false,
          "internalType": "uint256",
          "name": "externalDepositFee",
          "type": "uint256"
        }
      ],
      "name": "StrategyAdded",
      "type": "event"
    },
    {
      "anonymous": false,
      "inputs": [
        {
          "indexed": true,
          "internalType": "address",
          "name": "oldStrategy",
          "type": "address"
        },
        {
          "indexed": true,
          "internalType": "address",
          "name": "newStrategy",
          "type": "address"
        },
        {
          "indexed": false,
          "internalType": "uint256",
          "name": "interestFee",
          "type": "uint256"
        },
        {
          "indexed": false,
          "internalType": "uint256",
          "name": "debtRatio",
          "type": "uint256"
        },
        {
          "indexed": false,
          "internalType": "uint256",
          "name": "debtRate",
          "type": "uint256"
        },
        {
          "indexed": false,
          "internalType": "uint256",
          "name": "externalDepositFee",
          "type": "uint256"
        }
      ],
      "name": "StrategyMigrated",
      "type": "event"
    },
    {
      "anonymous": false,
      "inputs": [
        {
          "indexed": true,
          "internalType": "address",
          "name": "strategy",
          "type": "address"
        }
      ],
      "name": "StrategyRemoved",
      "type": "event"
    },
    {
      "anonymous": false,
      "inputs": [
        {
          "indexed": true,
          "internalType": "address",
          "name": "strategy",
          "type": "address"
        },
        {
          "indexed": false,
          "internalType": "uint256",
          "name": "previousFee",
          "type": "uint256"
        },
        {
          "indexed": false,
          "internalType": "uint256",
          "name": "newFee",
          "type": "uint256"
        }
      ],
      "name": "UpdatedExternalDepositFee",
      "type": "event"
    },
    {
      "anonymous": false,
      "inputs": [
        {
          "indexed": true,
          "internalType": "address",
          "name": "strategy",
          "type": "address"
        },
        {
          "indexed": false,
          "internalType": "uint256",
          "name": "previousInterestFee",
          "type": "uint256"
        },
        {
          "indexed": false,
          "internalType": "uint256",
          "name": "newInterestFee",
          "type": "uint256"
        }
      ],
      "name": "UpdatedInterestFee",
      "type": "event"
    },
    {
      "anonymous": false,
      "inputs": [
        {
          "indexed": false,
          "internalType": "uint256",
          "name": "previousFee",
          "type": "uint256"
        },
        {
          "indexed": false,
          "internalType": "uint256",
          "name": "newFee",
          "type": "uint256"
        }
      ],
      "name": "UpdatedPoolExternalDepositFee",
      "type": "event"
    },
    {
      "anonymous": false,
      "inputs": [
        {
          "indexed": true,
          "internalType": "address",
          "name": "strategy",
          "type": "address"
        },
        {
          "indexed": false,
          "internalType": "uint256",
          "name": "debtRatio",
          "type": "uint256"
        },
        {
          "indexed": false,
          "internalType": "uint256",
          "name": "debtRate",
          "type": "uint256"
        }
      ],
      "name": "UpdatedStrategyDebtParams",
      "type": "event"
    },
    {
      "inputs": [],
      "name": "MAX_BPS",
      "outputs": [
        {
          "internalType": "uint256",
          "name": "",
          "type": "uint256"
        }
      ],
      "stateMutability": "view",
      "type": "function"
    },
    {
      "inputs": [],
      "name": "VERSION",
      "outputs": [
        {
          "internalType": "string",
          "name": "",
          "type": "string"
        }
      ],
      "stateMutability": "view",
      "type": "function"
    },
    {
      "inputs": [
        {
          "internalType": "address",
          "name": "_strategy",
          "type": "address"
        },
        {
          "internalType": "uint256",
          "name": "_interestFee",
          "type": "uint256"
        },
        {
          "internalType": "uint256",
          "name": "_debtRatio",
          "type": "uint256"
        },
        {
          "internalType": "uint256",
          "name": "_debtRate",
          "type": "uint256"
        },
        {
          "internalType": "uint256",
          "name": "_externalDepositFee",
          "type": "uint256"
        }
      ],
      "name": "addStrategy",
      "outputs": [],
      "stateMutability": "nonpayable",
      "type": "function"
    },
    {
      "inputs": [
        {
          "internalType": "address",
          "name": "_strategy",
          "type": "address"
        }
      ],
      "name": "availableCreditLimit",
      "outputs": [
        {
          "internalType": "uint256",
          "name": "",
          "type": "uint256"
        }
      ],
      "stateMutability": "view",
      "type": "function"
    },
    {
      "inputs": [
        {
          "internalType": "address",
          "name": "_strategy",
          "type": "address"
        },
        {
          "internalType": "uint256",
          "name": "_decreaseBy",
          "type": "uint256"
        }
      ],
      "name": "decreaseDebt",
      "outputs": [],
      "stateMutability": "nonpayable",
      "type": "function"
    },
    {
      "inputs": [
        {
          "internalType": "address",
          "name": "_strategy",
          "type": "address"
        }
      ],
      "name": "excessDebt",
      "outputs": [
        {
          "internalType": "uint256",
          "name": "",
          "type": "uint256"
        }
      ],
      "stateMutability": "view",
      "type": "function"
    },
    {
      "inputs": [],
      "name": "externalDepositFee",
      "outputs": [
        {
          "internalType": "uint256",
          "name": "",
          "type": "uint256"
        }
      ],
      "stateMutability": "view",
      "type": "function"
    },
    {
      "inputs": [],
      "name": "getStrategies",
      "outputs": [
        {
          "internalType": "address[]",
          "name": "",
          "type": "address[]"
        }
      ],
      "stateMutability": "view",
      "type": "function"
    },
    {
      "inputs": [],
      "name": "getWithdrawQueue",
      "outputs": [
        {
          "internalType": "address[]",
          "name": "",
          "type": "address[]"
        }
      ],
      "stateMutability": "view",
      "type": "function"
    },
    {
      "inputs": [
        {
          "internalType": "address",
          "name": "_pool",
          "type": "address"
        }
      ],
      "name": "init",
      "outputs": [],
      "stateMutability": "nonpayable",
      "type": "function"
    },
    {
      "inputs": [
        {
          "internalType": "address",
          "name": "_old",
          "type": "address"
        },
        {
          "internalType": "address",
          "name": "_new",
          "type": "address"
        }
      ],
      "name": "migrateStrategy",
      "outputs": [],
      "stateMutability": "nonpayable",
      "type": "function"
    },
    {
      "inputs": [],
      "name": "pool",
      "outputs": [
        {
          "internalType": "address",
          "name": "",
          "type": "address"
        }
      ],
      "stateMutability": "view",
      "type": "function"
    },
    {
      "inputs": [
        {
          "internalType": "uint256",
          "name": "_index",
          "type": "uint256"
        }
      ],
      "name": "removeStrategy",
      "outputs": [],
      "stateMutability": "nonpayable",
      "type": "function"
    },
    {
      "inputs": [
        {
          "internalType": "address",
          "name": "_strategy",
          "type": "address"
        },
        {
          "internalType": "uint256",
          "name": "_profit",
          "type": "uint256"
        },
        {
          "internalType": "uint256",
          "name": "_loss",
          "type": "uint256"
        },
        {
          "internalType": "uint256",
          "name": "_payback",
          "type": "uint256"
        }
      ],
      "name": "reportEarning",
      "outputs": [
        {
          "internalType": "uint256",
          "name": "_actualPayback",
          "type": "uint256"
        },
        {
          "internalType": "uint256",
          "name": "_creditLine",
          "type": "uint256"
        },
        {
          "internalType": "uint256",
          "name": "_fee",
          "type": "uint256"
        }
      ],
      "stateMutability": "nonpayable",
      "type": "function"
    },
    {
      "inputs": [
        {
          "internalType": "address",
          "name": "_strategy",
          "type": "address"
        },
        {
          "internalType": "uint256",
          "name": "_loss",
          "type": "uint256"
        }
      ],
      "name": "reportLoss",
      "outputs": [],
      "stateMutability": "nonpayable",
      "type": "function"
    },
    {
      "inputs": [
        {
          "internalType": "uint256",
          "name": "",
          "type": "uint256"
        }
      ],
      "name": "strategies",
      "outputs": [
        {
          "internalType": "address",
          "name": "",
          "type": "address"
        }
      ],
      "stateMutability": "view",
      "type": "function"
    },
    {
      "inputs": [
        {
          "internalType": "address",
          "name": "",
          "type": "address"
        }
      ],
      "name": "strategy",
      "outputs": [
        {
          "internalType": "bool",
          "name": "active",
          "type": "bool"
        },
        {
          "internalType": "uint256",
          "name": "interestFee",
          "type": "uint256"
        },
        {
          "internalType": "uint256",
          "name": "debtRate",
          "type": "uint256"
        },
        {
          "internalType": "uint256",
          "name": "lastRebalance",
          "type": "uint256"
        },
        {
          "internalType": "uint256",
          "name": "totalDebt",
          "type": "uint256"
        },
        {
          "internalType": "uint256",
          "name": "totalLoss",
          "type": "uint256"
        },
        {
          "internalType": "uint256",
          "name": "totalProfit",
          "type": "uint256"
        },
        {
          "internalType": "uint256",
          "name": "debtRatio",
          "type": "uint256"
        },
        {
          "internalType": "uint256",
          "name": "externalDepositFee",
          "type": "uint256"
        }
      ],
      "stateMutability": "view",
      "type": "function"
    },
    {
      "inputs": [
        {
          "internalType": "address",
          "name": "_fromToken",
          "type": "address"
        }
      ],
      "name": "sweepERC20",
      "outputs": [],
      "stateMutability": "nonpayable",
      "type": "function"
    },
    {
      "inputs": [],
      "name": "totalDebt",
      "outputs": [
        {
          "internalType": "uint256",
          "name": "",
          "type": "uint256"
        }
      ],
      "stateMutability": "view",
      "type": "function"
    },
    {
      "inputs": [
        {
          "internalType": "address",
          "name": "_strategy",
          "type": "address"
        }
      ],
      "name": "totalDebtOf",
      "outputs": [
        {
          "internalType": "uint256",
          "name": "",
          "type": "uint256"
        }
      ],
      "stateMutability": "view",
      "type": "function"
    },
    {
      "inputs": [],
      "name": "totalDebtRatio",
      "outputs": [
        {
          "internalType": "uint256",
          "name": "",
          "type": "uint256"
        }
      ],
      "stateMutability": "view",
      "type": "function"
    },
    {
      "inputs": [
        {
          "internalType": "address",
          "name": "_strategy",
          "type": "address"
        },
        {
          "internalType": "uint256",
          "name": "_debtRate",
          "type": "uint256"
        }
      ],
      "name": "updateDebtRate",
      "outputs": [],
      "stateMutability": "nonpayable",
      "type": "function"
    },
    {
      "inputs": [
        {
          "internalType": "address",
          "name": "_strategy",
          "type": "address"
        },
        {
          "internalType": "uint256",
          "name": "_debtRatio",
          "type": "uint256"
        }
      ],
      "name": "updateDebtRatio",
      "outputs": [],
      "stateMutability": "nonpayable",
      "type": "function"
    },
    {
      "inputs": [
        {
          "internalType": "address",
          "name": "_strategy",
          "type": "address"
        },
        {
          "internalType": "uint256",
          "name": "_externalDepositFee",
          "type": "uint256"
        }
      ],
      "name": "updateExternalDepositFee",
      "outputs": [],
      "stateMutability": "nonpayable",
      "type": "function"
    },
    {
      "inputs": [
        {
          "internalType": "address",
          "name": "_strategy",
          "type": "address"
        },
        {
          "internalType": "uint256",
          "name": "_interestFee",
          "type": "uint256"
        }
      ],
      "name": "updateInterestFee",
      "outputs": [],
      "stateMutability": "nonpayable",
      "type": "function"
    },
    {
      "inputs": [
        {
          "internalType": "address[]",
          "name": "_withdrawQueue",
          "type": "address[]"
        }
      ],
      "name": "updateWithdrawQueue",
      "outputs": [],
      "stateMutability": "nonpayable",
      "type": "function"
    },
    {
      "inputs": [
        {
          "internalType": "uint256",
          "name": "",
          "type": "uint256"
        }
      ],
      "name": "withdrawQueue",
      "outputs": [
        {
          "internalType": "address",
          "name": "",
          "type": "address"
        }
      ],
      "stateMutability": "view",
      "type": "function"
    }
  ],
  "transactionHash": "0x638c63adfc1bae5876d23b08f221140ffb774ba4ba5050b1d5adaa3a29d810db",
  "args": [],
  "solcInputHash": "a2f26c136ad48683fbbc538fa11c4721",
  "bytecode": "0x608060405234801561001057600080fd5b506133b6806100206000396000f3fe608060405234801561001057600080fd5b50600436106101795760003560e01c8063854f4d80116100d9578063d20ed3ef11610087578063d20ed3ef146103b5578063d53ddc26146103c8578063d574ea3d146103db578063e00af4a7146103ee578063fc7b9c1814610401578063fd967f471461040a578063ffa1ad741461041357610179565b8063854f4d80146103205780638f88d18c146103335780639f2b283314610346578063a066654b14610359578063b49a60bb14610387578063b64321ec1461038f578063c0cbbca6146103a257610179565b80632fb9ba31116101365780632fb9ba31146102a557806332b77a76146102b8578063346162d5146102cb57806362518ddf146102d45780636cb56d19146102e75780637b62f070146102fa5780637f13086e1461030d57610179565b8063111830521461017e57806314b4e26e1461019c57806316f0115b146101b157806319ab453c146101d7578063228bfd9f146101ea5780632df9eab91461028e575b600080fd5b610186610444565b604051610193919061316c565b60405180910390f35b6101af6101aa366004612fe2565b6104a6565b005b6000546101ca906201000090046001600160a01b031681565b6040516101939190613158565b6101af6101e5366004612f0d565b61089d565b6102486101f8366004612f0d565b600560208190526000918252604090912080546001820154600283015460038401546004850154958501546006860154600787015460089097015460ff9096169794969395929493919290919089565b604080519915158a5260208a0198909852968801959095526060870193909352608086019190915260a085015260c084015260e083015261010082015261012001610193565b61029760015481565b604051908152602001610193565b6101af6102b3366004612f7d565b6109b4565b6101af6102c6366004612f7d565b610a5d565b61029760065481565b6101ca6102e236600461310c565b610c03565b6101af6102f5366004612f45565b610c2d565b6101af610308366004612f7d565b61114d565b6101af61031b366004612f7d565b6112fe565b6101af61032e366004613025565b611390565b6101af610341366004612f7d565b6115dd565b610297610354366004612f0d565b611845565b61036c610367366004612fa8565b611867565b60408051938452602084019290925290820152606001610193565b610186611c01565b61029761039d366004612f0d565b611c61565b6101af6103b036600461310c565b611c72565b6101af6103c3366004612f7d565b6120f4565b6102976103d6366004612f0d565b6122e4565b6101ca6103e936600461310c565b6122ef565b6101af6103fc366004612f0d565b6122ff565b61029760025481565b61029761271081565b610437604051806040016040528060058152602001640342e302e360dc1b81525081565b60405161019391906131b9565b6060600480548060200260200160405190810160405280929190818152602001828054801561049c57602002820191906000526020600020905b81546001600160a01b0316815260019091019060200180831161047e575b5050505050905090565b6000546040805163030d028960e21b8152905133926201000090046001600160a01b031691630c340a24916004808301926020929190829003018186803b1580156104f057600080fd5b505afa158015610504573d6000803e3d6000fd5b505050506040513d601f19601f820116820180604052508101906105289190612f29565b6001600160a01b0316146105575760405162461bcd60e51b815260040161054e90613260565b60405180910390fd5b604080518082019091526002815261031360f41b60208201526001600160a01b0386166105975760405162461bcd60e51b815260040161054e91906131b9565b506001600160a01b0385166000908152600560209081526040918290205482518084019093526002835261313560f01b9183019190915260ff16156105ef5760405162461bcd60e51b815260040161054e91906131b9565b50826001546105fe919061328a565b6001819055604080518082019091526002815261062760f31b602082015290612710101561063f5760405162461bcd60e51b815260040161054e91906131b9565b50604080518082019091526002815261313160f01b602082015261271085111561067c5760405162461bcd60e51b815260040161054e91906131b9565b50604080518082019091526002815261313160f01b60208201526127108211156106b95760405162461bcd60e51b815260040161054e91906131b9565b5060006040518061012001604052806001151581526020018681526020018481526020014381526020016000815260200160008152602001600081526020018581526020018381525090508060056000886001600160a01b03166001600160a01b0316815260200190815260200160002060008201518160000160006101000a81548160ff0219169083151502179055506020820151816001015560408201518160020155606082015181600301556080820151816004015560a0820151816005015560c0820151816006015560e0820151816007015561010082015181600801559050506003869080600181540180825580915050600190039060005260206000200160009091909190916101000a8154816001600160a01b0302191690836001600160a01b031602179055506004869080600181540180825580915050600190039060005260206000200160009091909190916101000a8154816001600160a01b0302191690836001600160a01b03160217905550856001600160a01b03167f5a6abd2af9fe6c0554fa08649e2d86e4393ff19dc304d072d38d295c9291d4dc86868686604051610885949392919093845260208401929092526040830152606082015260800190565b60405180910390a26108956124d9565b505050505050565b600054610100900460ff16806108b6575060005460ff16155b6109195760405162461bcd60e51b815260206004820152602e60248201527f496e697469616c697a61626c653a20636f6e747261637420697320616c72656160448201526d191e481a5b9a5d1a585b1a5e995960921b606482015260840161054e565b600054610100900460ff1615801561093b576000805461ffff19166101011790555b604080518082019091526002815261031360f41b60208201526001600160a01b03831661097b5760405162461bcd60e51b815260040161054e91906131b9565b506000805462010000600160b01b031916620100006001600160a01b0385160217905580156109b0576000805461ff00191690555b5050565b6000546001600160a01b03620100009091041633146109e55760405162461bcd60e51b815260040161054e906131ec565b6001600160a01b038216600090815260056020526040902060040154610a0b9082612622565b6001600160a01b038316600090815260056020526040812060040180549293508392909190610a3b9084906132e1565b925050819055508060026000828254610a5491906132e1565b90915550505050565b6000546040805163030d028960e21b8152905133926201000090046001600160a01b031691630c340a24916004808301926020929190829003018186803b158015610aa757600080fd5b505afa158015610abb573d6000803e3d6000fd5b505050506040513d601f19601f82011682018060405250810190610adf9190612f29565b6001600160a01b031614610b055760405162461bcd60e51b815260040161054e90613260565b6001600160a01b0382166000908152600560209081526040918290205482518084019093526002835261189b60f11b9183019190915260ff16610b5b5760405162461bcd60e51b815260040161054e91906131b9565b50604080518082019091526002815261313160f01b6020820152612710821115610b985760405162461bcd60e51b815260040161054e91906131b9565b506001600160a01b038216600081815260056020908152604091829020600801805490859055825181815291820185905292917f3e57eabb1906726caa174b6716b34373026dfd25dbae17ba47ec46e8a9ced9ee910160405180910390a2610bfe6124d9565b505050565b60048181548110610c1357600080fd5b6000918252602090912001546001600160a01b0316905081565b6000546001600160a01b0362010000909104163314610c5e5760405162461bcd60e51b815260040161054e906131ec565b6001600160a01b0382166000908152600560209081526040918290205482518084019093526002835261189b60f11b9183019190915260ff16610cb45760405162461bcd60e51b815260040161054e91906131b9565b506001600160a01b0381166000908152600560209081526040918290205482518084019093526002835261313560f01b9183019190915260ff1615610d0c5760405162461bcd60e51b815260040161054e91906131b9565b50600060405180610120016040528060011515815260200160056000866001600160a01b03166001600160a01b0316815260200190815260200160002060010154815260200160056000866001600160a01b03166001600160a01b0316815260200190815260200160002060020154815260200160056000866001600160a01b03166001600160a01b0316815260200190815260200160002060030154815260200160056000866001600160a01b03166001600160a01b03168152602001908152602001600020600401548152602001600081526020016000815260200160056000866001600160a01b03166001600160a01b0316815260200190815260200160002060070154815260200160056000866001600160a01b03166001600160a01b0316815260200190815260200160002060080154815250905060056000846001600160a01b03166001600160a01b03168152602001908152602001600020600080820160006101000a81549060ff02191690556001820160009055600282016000905560038201600090556004820160009055600582016000905560068201600090556007820160009055600882016000905550508060056000846001600160a01b03166001600160a01b0316815260200190815260200160002060008201518160000160006101000a81548160ff0219169083151502179055506020820151816001015560408201518160020155606082015181600301556080820151816004015560a0820151816005015560c0820151816006015560e08201518160070155610100820151816008015590505060005b60035481101561101657836001600160a01b031660038281548110610f9457634e487b7160e01b600052603260045260246000fd5b6000918252602090912001546001600160a01b03161415611004578260038281548110610fd157634e487b7160e01b600052603260045260246000fd5b9060005260206000200160006101000a8154816001600160a01b0302191690836001600160a01b03160217905550611016565b8061100e81613324565b915050610f5f565b5060005b6004548110156110d157836001600160a01b03166004828154811061104f57634e487b7160e01b600052603260045260246000fd5b6000918252602090912001546001600160a01b031614156110bf57826004828154811061108c57634e487b7160e01b600052603260045260246000fd5b9060005260206000200160006101000a8154816001600160a01b0302191690836001600160a01b031602179055506110d1565b806110c981613324565b91505061101a565b506001600160a01b0382811660008181526005602090815260409182902060018101546007820154600283015460089093015485519283529382015292830152606082015290918516907f57fa1e7d3a2b5e958145b7cb7cf1a109b07a506ce684175770eb1c3819e97bae9060800160405180910390a3505050565b6000546040805163030d028960e21b8152905133926201000090046001600160a01b031691630c340a24916004808301926020929190829003018186803b15801561119757600080fd5b505afa1580156111ab573d6000803e3d6000fd5b505050506040513d601f19601f820116820180604052508101906111cf9190612f29565b6001600160a01b0316146111f55760405162461bcd60e51b815260040161054e90613260565b6001600160a01b0382166000908152600560209081526040918290205482518084019093526002835261189b60f11b9183019190915260ff1661124b5760405162461bcd60e51b815260040161054e91906131b9565b50604080518082019091526002815261313160f01b60208201526127108211156112885760405162461bcd60e51b815260040161054e91906131b9565b506001600160a01b0382166000818152600560209081526040918290206001015482519081529081018490527f1a0033773885cfe3f65a0d7839991fba7c63fdf719ae4b9ea27e4642ebd490ff910160405180910390a26001600160a01b03909116600090815260056020526040902060010155565b6000546001600160a01b036201000090910416331461132f5760405162461bcd60e51b815260040161054e906131ec565b6001600160a01b0382166000908152600560209081526040918290205482518084019093526002835261189b60f11b9183019190915260ff166113855760405162461bcd60e51b815260040161054e91906131b9565b506109b0828261263a565b6000546040805163030d028960e21b8152905133926201000090046001600160a01b031691630c340a24916004808301926020929190829003018186803b1580156113da57600080fd5b505afa1580156113ee573d6000803e3d6000fd5b505050506040513d601f19601f820116820180604052508101906114129190612f29565b6001600160a01b031614806114ac57506000546201000090046001600160a01b031663dd57366a6114403390565b6040518263ffffffff1660e01b815260040161145c9190613158565b60206040518083038186803b15801561147457600080fd5b505afa158015611488573d6000803e3d6000fd5b505050506040513d601f19601f820116820180604052508101906114ac91906130ec565b6114c85760405162461bcd60e51b815260040161054e90613236565b8051600454811480156114dc575060035481145b604051806040016040528060018152602001600d60fa1b815250906115145760405162461bcd60e51b815260040161054e91906131b9565b5060005b818110156115c9576005600084838151811061154457634e487b7160e01b600052603260045260246000fd5b60200260200101516001600160a01b03166001600160a01b0316815260200190815260200160002060000160009054906101000a900460ff1660405180604001604052806002815260200161189b60f11b815250906115b65760405162461bcd60e51b815260040161054e91906131b9565b50806115c181613324565b915050611518565b508151610bfe906004906020850190612e88565b6000546040805163030d028960e21b8152905133926201000090046001600160a01b031691630c340a24916004808301926020929190829003018186803b15801561162757600080fd5b505afa15801561163b573d6000803e3d6000fd5b505050506040513d601f19601f8201168201806040525081019061165f9190612f29565b6001600160a01b031614806116f957506000546201000090046001600160a01b031663dd57366a61168d3390565b6040518263ffffffff1660e01b81526004016116a99190613158565b60206040518083038186803b1580156116c157600080fd5b505afa1580156116d5573d6000803e3d6000fd5b505050506040513d601f19601f820116820180604052508101906116f991906130ec565b6117155760405162461bcd60e51b815260040161054e90613236565b6001600160a01b0382166000908152600560209081526040918290205482518084019093526002835261189b60f11b9183019190915260ff1661176b5760405162461bcd60e51b815260040161054e91906131b9565b506001600160a01b0382166000908152600560205260409020600701546001548291611796916132e1565b6117a0919061328a565b6001819055604080518082019091526002815261062760f31b60208201529061271010156117e15760405162461bcd60e51b815260040161054e91906131b9565b506001600160a01b03821660008181526005602090815260409182902060078101859055600201548251858152918201527f3819805ced44aeebe5cbf4f81a253424557ef66c0a682cf3b54501e3fb935ba1910160405180910390a26109b06124d9565b6001600160a01b0381166000908152600560205260409020600401545b919050565b60008054819081906001600160a01b036201000090910416331461189d5760405162461bcd60e51b815260040161054e906131ec565b6001600160a01b0387166000908152600560209081526040918290205482518084019093526002835261189b60f11b9183019190915260ff166118f35760405162461bcd60e51b815260040161054e91906131b9565b506118fe848761328a565b600060029054906101000a90046001600160a01b03166001600160a01b031663fc0c546a6040518163ffffffff1660e01b815260040160206040518083038186803b15801561194c57600080fd5b505afa158015611960573d6000803e3d6000fd5b505050506040513d601f19601f820116820180604052508101906119849190612f29565b6001600160a01b03166370a08231896040518263ffffffff1660e01b81526004016119af9190613158565b60206040518083038186803b1580156119c757600080fd5b505afa1580156119db573d6000803e3d6000fd5b505050506040513d601f19601f820116820180604052508101906119ff9190613124565b1015604051806040016040528060018152602001603960f81b81525090611a395760405162461bcd60e51b815260040161054e91906131b9565b508415611a4a57611a4a878661263a565b6000611a5588612827565b9050611a618186612622565b93508315611ab3576001600160a01b03881660009081526005602052604081206004018054869290611a949084906132e1565b925050819055508360026000828254611aad91906132e1565b90915550505b611abc886129c4565b92508215611b0e576001600160a01b03881660009081526005602052604081206004018054859290611aef90849061328a565b925050819055508260026000828254611b08919061328a565b90915550505b8615611b7b576001600160a01b03881660009081526005602052604081206006018054899290611b3f90849061328a565b90915550506001600160a01b03881660009081526005602052604090206001015461271090611b6e90896132c2565b611b7891906132a2565b91505b6001600160a01b0388166000818152600560209081526040918290204360038201556004015460025483518c81529283018b90529282018890526060820152608081019190915260a081018590527f29c6c60e040fcd722949346bda66341e8859b20b9a2124a625326ad10373391b9060c00160405180910390a2509450945094915050565b6060600380548060200260200160405190810160405280929190818152602001828054801561049c576020028201919060005260206000209081546001600160a01b0316815260019091019060200180831161047e575050505050905090565b6000611c6c826129c4565b92915050565b6000546040805163030d028960e21b8152905133926201000090046001600160a01b031691630c340a24916004808301926020929190829003018186803b158015611cbc57600080fd5b505afa158015611cd0573d6000803e3d6000fd5b505050506040513d601f19601f82011682018060405250810190611cf49190612f29565b6001600160a01b031614611d1a5760405162461bcd60e51b815260040161054e90613260565b600060038281548110611d3d57634e487b7160e01b600052603260045260246000fd5b60009182526020808320909101546001600160a01b0316808352600582526040928390205483518085019094526002845261189b60f11b92840192909252925060ff16611d9d5760405162461bcd60e51b815260040161054e91906131b9565b506001600160a01b0381166000908152600560209081526040918290206004015482518084019093526002835261313960f01b9183019190915215611df55760405162461bcd60e51b815260040161054e91906131b9565b506001600160a01b0381166000908152600560205260408120600701546001805491929091611e259084906132e1565b90915550506001600160a01b03811660009081526005602081905260408220805460ff19168155600180820184905560028201849055600380830185905560048301859055928201849055600682018490556007820184905560089091019290925580549091611e94916132e1565b81548110611eb257634e487b7160e01b600052603260045260246000fd5b600091825260209091200154600380546001600160a01b039092169184908110611eec57634e487b7160e01b600052603260045260246000fd5b9060005260206000200160006101000a8154816001600160a01b0302191690836001600160a01b031602179055506003805480611f3957634e487b7160e01b600052603160045260246000fd5b600082815260208120820160001990810180546001600160a01b031916905590910190915560035467ffffffffffffffff811115611f8757634e487b7160e01b600052604160045260246000fd5b604051908082528060200260200182016040528015611fb0578160200160208202803683370190505b5090506000805b60045481101561209d57836001600160a01b031660048281548110611fec57634e487b7160e01b600052603260045260246000fd5b6000918252602090912001546001600160a01b03161461208b576004818154811061202757634e487b7160e01b600052603260045260246000fd5b9060005260206000200160009054906101000a90046001600160a01b031683838151811061206557634e487b7160e01b600052603260045260246000fd5b6001600160a01b03909216602092830291909101909101528161208781613324565b9250505b8061209581613324565b915050611fb7565b5081516120b1906004906020850190612e88565b506040516001600160a01b038416907f09a1db4b80c32706328728508c941a6b954f31eb5affd32f236c1fd405f8fea490600090a26120ee6124d9565b50505050565b6000546040805163030d028960e21b8152905133926201000090046001600160a01b031691630c340a24916004808301926020929190829003018186803b15801561213e57600080fd5b505afa158015612152573d6000803e3d6000fd5b505050506040513d601f19601f820116820180604052508101906121769190612f29565b6001600160a01b0316148061221057506000546201000090046001600160a01b0316636ba42aaa6121a43390565b6040518263ffffffff1660e01b81526004016121c09190613158565b60206040518083038186803b1580156121d857600080fd5b505afa1580156121ec573d6000803e3d6000fd5b505050506040513d601f19601f8201168201806040525081019061221091906130ec565b61222c5760405162461bcd60e51b815260040161054e90613210565b6001600160a01b0382166000908152600560209081526040918290205482518084019093526002835261189b60f11b9183019190915260ff166122825760405162461bcd60e51b815260040161054e91906131b9565b506001600160a01b038216600081815260056020908152604091829020600281018590556007015482519081529081018490527f3819805ced44aeebe5cbf4f81a253424557ef66c0a682cf3b54501e3fb935ba1910160405180910390a25050565b6000611c6c82612827565b60038181548110610c1357600080fd5b6000546040805163030d028960e21b8152905133926201000090046001600160a01b031691630c340a24916004808301926020929190829003018186803b15801561234957600080fd5b505afa15801561235d573d6000803e3d6000fd5b505050506040513d601f19601f820116820180604052508101906123819190612f29565b6001600160a01b0316148061241b57506000546201000090046001600160a01b0316636ba42aaa6123af3390565b6040518263ffffffff1660e01b81526004016123cb9190613158565b60206040518083038186803b1580156123e357600080fd5b505afa1580156123f7573d6000803e3d6000fd5b505050506040513d601f19601f8201168201806040525081019061241b91906130ec565b6124375760405162461bcd60e51b815260040161054e90613210565b6000546040516370a0823160e01b81526124d6916001600160a01b0362010000909104811691908416906370a0823190612475903090600401613158565b60206040518083038186803b15801561248d57600080fd5b505afa1580156124a1573d6000803e3d6000fd5b505050506040513d601f19601f820116820180604052508101906124c59190613124565b6001600160a01b0384169190612c80565b50565b600354600154600090156125dd5760005b828110156125db57600154600560006003848154811061251a57634e487b7160e01b600052603260045260246000fd5b9060005260206000200160009054906101000a90046001600160a01b03166001600160a01b03166001600160a01b0316815260200190815260200160002060070154600560006003858154811061258157634e487b7160e01b600052603260045260246000fd5b60009182526020808320909101546001600160a01b031683528201929092526040019020600801546125b391906132c2565b6125bd91906132a2565b6125c7908361328a565b9150806125d381613324565b9150506124ea565b505b600680549082905560408051918252602082018390527f2d6a5770d560080bb77885132eea46b6db3b15e70e6e5e73087ea7bcd138fcf0910160405180910390a15050565b60008183106126315781612633565b825b9392505050565b6001600160a01b0382166000908152600560209081526040918290206004015482518084019093526002835261032360f41b9183019190915290828210156126955760405162461bcd60e51b815260040161054e91906131b9565b506001600160a01b038316600090815260056020819052604082200180548492906126c190849061328a565b90915550506001600160a01b038316600090815260056020526040812060040180548492906126f19084906132e1565b92505081905550816002600082825461270a91906132e1565b9250508190555060006127d3600060029054906101000a90046001600160a01b03166001600160a01b031663d4c3eea06040518163ffffffff1660e01b815260040160206040518083038186803b15801561276457600080fd5b505afa158015612778573d6000803e3d6000fd5b505050506040513d601f19601f8201168201806040525081019061279c9190613124565b6127a8612710866132c2565b6127b291906132a2565b6001600160a01b038616600090815260056020526040902060070154612622565b6001600160a01b0385166000908152600560205260408120600701805492935083929091906128039084906132e1565b92505081905550806001600082825461281c91906132e1565b909155505050505050565b60008060056000846001600160a01b03166001600160a01b03168152602001908152602001600020600401549050600060029054906101000a90046001600160a01b03166001600160a01b0316634938649a6040518163ffffffff1660e01b815260040160206040518083038186803b1580156128a357600080fd5b505afa1580156128b7573d6000803e3d6000fd5b505050506040513d601f19601f820116820180604052508101906128db91906130ec565b156128e7579050611862565b6000612710600060029054906101000a90046001600160a01b03166001600160a01b031663d4c3eea06040518163ffffffff1660e01b815260040160206040518083038186803b15801561293a57600080fd5b505afa15801561294e573d6000803e3d6000fd5b505050506040513d601f19601f820116820180604052508101906129729190613124565b6001600160a01b03861660009081526005602052604090206007015461299891906132c2565b6129a291906132a2565b90508082116129b25760006129bc565b6129bc81836132e1565b949350505050565b60008060029054906101000a90046001600160a01b03166001600160a01b0316634938649a6040518163ffffffff1660e01b815260040160206040518083038186803b158015612a1357600080fd5b505afa158015612a27573d6000803e3d6000fd5b505050506040513d601f19601f82011682018060405250810190612a4b91906130ec565b15612a5857506000611862565b60008060029054906101000a90046001600160a01b03166001600160a01b031663d4c3eea06040518163ffffffff1660e01b815260040160206040518083038186803b158015612aa757600080fd5b505afa158015612abb573d6000803e3d6000fd5b505050506040513d601f19601f82011682018060405250810190612adf9190613124565b6001600160a01b0384166000908152600560205260408120600701549192509061271090612b0e9084906132c2565b612b1891906132a2565b6001600160a01b038516600090815260056020526040902060040154909150818110612b4a5760009350505050611862565b600061271084600154612b5d91906132c2565b612b6791906132a2565b90508060025410612b7f576000945050505050611862565b6000612b8b83856132e1565b9050612c31612c1f600060029054906101000a90046001600160a01b03166001600160a01b031663b8cb343d6040518163ffffffff1660e01b815260040160206040518083038186803b158015612be157600080fd5b505afa158015612bf5573d6000803e3d6000fd5b505050506040513d601f19601f82011682018060405250810190612c199190613124565b83612622565b600254612c2c90856132e1565b612622565b6001600160a01b03881660009081526005602052604090206002810154600390910154919250612c7591612c6590436132e1565b612c6f91906132c2565b82612622565b979650505050505050565b604080516001600160a01b03848116602483015260448083018590528351808403909101815260649092018352602080830180516001600160e01b031663a9059cbb60e01b17905283518085019094528084527f5361666545524332303a206c6f772d6c6576656c2063616c6c206661696c656490840152610bfe92869291600091612d10918516908490612d8d565b805190915015610bfe5780806020019051810190612d2e91906130ec565b610bfe5760405162461bcd60e51b815260206004820152602a60248201527f5361666545524332303a204552433230206f7065726174696f6e20646964206e6044820152691bdd081cdd58d8d9595960b21b606482015260840161054e565b60606129bc848460008585843b612de65760405162461bcd60e51b815260206004820152601d60248201527f416464726573733a2063616c6c20746f206e6f6e2d636f6e7472616374000000604482015260640161054e565b600080866001600160a01b03168587604051612e02919061313c565b60006040518083038185875af1925050503d8060008114612e3f576040519150601f19603f3d011682016040523d82523d6000602084013e612e44565b606091505b5091509150612c7582828660608315612e5e575081612633565b825115612e6e5782518084602001fd5b8160405162461bcd60e51b815260040161054e91906131b9565b828054828255906000526020600020908101928215612edd579160200282015b82811115612edd57825182546001600160a01b0319166001600160a01b03909116178255602090920191600190910190612ea8565b50612ee9929150612eed565b5090565b5b80821115612ee95760008155600101612eee565b80356118628161336b565b600060208284031215612f1e578081fd5b81356126338161336b565b600060208284031215612f3a578081fd5b81516126338161336b565b60008060408385031215612f57578081fd5b8235612f628161336b565b91506020830135612f728161336b565b809150509250929050565b60008060408385031215612f8f578182fd5b8235612f9a8161336b565b946020939093013593505050565b60008060008060808587031215612fbd578182fd5b8435612fc88161336b565b966020860135965060408601359560600135945092505050565b600080600080600060a08688031215612ff9578081fd5b85356130048161336b565b97602087013597506040870135966060810135965060800135945092505050565b60006020808385031215613037578182fd5b823567ffffffffffffffff8082111561304e578384fd5b818501915085601f830112613061578384fd5b81358181111561307357613073613355565b8060051b604051601f19603f8301168101818110858211171561309857613098613355565b604052828152858101935084860182860187018a10156130b6578788fd5b8795505b838610156130df576130cb81612f02565b8552600195909501949386019386016130ba565b5098975050505050505050565b6000602082840312156130fd578081fd5b81518015158114612633578182fd5b60006020828403121561311d578081fd5b5035919050565b600060208284031215613135578081fd5b5051919050565b6000825161314e8184602087016132f8565b9190910192915050565b6001600160a01b0391909116815260200190565b6020808252825182820181905260009190848201906040850190845b818110156131ad5783516001600160a01b031683529284019291840191600101613188565b50909695505050505050565b60006020825282518060208401526131d88160408501602087016132f8565b601f01601f19169190910160400192915050565b6020808252600a90820152691b9bdd0b584b5c1bdbdb60b21b604082015260600190565b6020808252600c908201526b3737ba16b096b5b2b2b832b960a11b604082015260600190565b60208082526010908201526f3737ba16b096b6b0b4b73a30b4b732b960811b604082015260600190565b60208082526010908201526f3737ba16ba343296b3b7bb32b93737b960811b604082015260600190565b6000821982111561329d5761329d61333f565b500190565b6000826132bd57634e487b7160e01b81526012600452602481fd5b500490565b60008160001904831182151516156132dc576132dc61333f565b500290565b6000828210156132f3576132f361333f565b500390565b60005b838110156133135781810151838201526020016132fb565b838111156120ee5750506000910152565b60006000198214156133385761333861333f565b5060010190565b634e487b7160e01b600052601160045260246000fd5b634e487b7160e01b600052604160045260246000fd5b6001600160a01b03811681146124d657600080fdfea2646970667358221220ab8abad092d346c621207e45b47276b303c4ae86c9ca8a29f3f27795ca347b6864736f6c63430008030033",
  "devdoc": {
    "kind": "dev",
    "methods": {
      "addStrategy(address,uint256,uint256,uint256,uint256)": {
        "details": "Recalculate pool level external deposit fee after all state variables are updated.",
        "params": {
          "_debtRate": "Debt rate per block",
          "_debtRatio": "Pool fund allocation to this strategy",
          "_externalDepositFee": "External deposit fee of strategy",
          "_interestFee": "Fee on earnings from this strategy",
          "_strategy": "Strategy address"
        }
      },
      "availableCreditLimit(address)": {
        "details": "Available credit limit is calculated based on current debt of pool and strategy, current debt limit of pool and strategy. credit available = min(pool's debt limit, strategy's debt limit, max debt per rebalance) when some strategy do not pay back outstanding debt, this impact credit line of other strategy if totalDebt of pool >= debtLimit of pool",
        "params": {
          "_strategy": "Strategy address"
        }
      },
      "decreaseDebt(address,uint256)": {
        "details": "In case of withdraw from strategy, pool will decrease debt by amount withdrawn",
        "params": {
          "_decreaseBy": "Amount by which strategy debt will be decreased",
          "_strategy": "Strategy Address"
        }
      },
      "excessDebt(address)": {
        "params": {
          "_strategy": "Address of strategy"
        }
      },
      "init(address)": {
        "details": "This init function meant to be called after proxy deployment.DO NOT CALL it with proxy deploy",
        "params": {
          "_pool": "Address of Vesper pool proxy"
        }
      },
      "migrateStrategy(address,address)": {
        "details": "Migrating strategy aka old and new strategy should be of same type.New strategy will replace old strategy in strategy mapping, strategies array, withdraw queue.",
        "params": {
          "_new": "Address of new strategy",
          "_old": "Address of strategy being migrated"
        }
      },
      "removeStrategy(uint256)": {
        "details": "Revoke and remove strategy from array. Update withdraw queue. Withdraw queue order should not change after remove. Strategy can be removed only after it has paid all debt. Use migrate strategy if debt is not paid and want to upgrade strategy."
      },
      "reportEarning(address,uint256,uint256,uint256)": {
        "details": "Strategy call this in regular interval.",
        "params": {
          "_loss": "Reduce debt ,also reduce debtRatio, increase loss in record.",
          "_payback": "strategy willing to payback outstanding above debtLimit. no performance fee on this amount.  when governance has reduced debtRatio of strategy, strategy will report profit and payback amount separately.",
          "_profit": "yield generated by strategy. Strategy get performance fee on this amount"
        }
      },
      "reportLoss(address,uint256)": {
        "params": {
          "_loss": "Loss of strategy",
          "_strategy": "Strategy which incur loss"
        }
      },
      "sweepERC20(address)": {
        "details": "Transfer given ERC20 token to pool",
        "params": {
          "_fromToken": "Token address to sweep"
        }
      },
      "totalDebtOf(address)": {
        "params": {
          "_strategy": "Strategy address"
        }
      },
      "updateDebtRate(address,uint256)": {
        "params": {
          "_debtRate": "New debt rate",
          "_strategy": "Strategy address for which debt rate is being updated"
        }
      },
      "updateDebtRatio(address,uint256)": {
        "details": "A strategy is retired when debtRatio is 0As debtRatio impacts pool level external deposit fee hence recalculate it after updating debtRatio.",
        "params": {
          "_debtRatio": "New debt ratio",
          "_strategy": "Strategy address for which debt ratio is being updated"
        }
      },
      "updateExternalDepositFee(address,uint256)": {
        "params": {
          "_externalDepositFee": "New external deposit fee",
          "_strategy": "Strategy address for which external deposit fee is being updated"
        }
      },
      "updateInterestFee(address,uint256)": {
        "params": {
          "_interestFee": "New interest fee",
          "_strategy": "Strategy address for which interest fee is being updated"
        }
      },
      "updateWithdrawQueue(address[])": {
        "details": "Pool always keep some buffer amount to satisfy withdrawal request, any withdrawal request higher than buffer will withdraw from withdraw queue. So withdrawQueue[0] will be the first strategy where withdrawal request will be send.",
        "params": {
          "_withdrawQueue": "Ordered list of strategy."
        }
      }
    },
    "title": "Accountant for Vesper pools which keep records of strategies.",
    "version": 1
  },
  "userdoc": {
    "kind": "user",
    "methods": {
      "addStrategy(address,uint256,uint256,uint256,uint256)": {
        "notice": "Add strategy. Once strategy is added it can call rebalance and borrow fund from pool and invest that fund in provider/lender."
      },
      "availableCreditLimit(address)": {
        "notice": "Get available credit limit of strategy. This is the amount strategy can borrow from pool"
      },
      "decreaseDebt(address,uint256)": {
        "notice": "Decrease debt of strategy, also decrease totalDebt"
      },
      "excessDebt(address)": {
        "notice": "Debt above current debt limit"
      },
      "getStrategies()": {
        "notice": "Return strategies array"
      },
      "getWithdrawQueue()": {
        "notice": "Return withdrawQueue"
      },
      "migrateStrategy(address,address)": {
        "notice": "Migrate existing strategy to new strategy."
      },
      "removeStrategy(uint256)": {
        "notice": "Remove strategy and recalculate pool level external deposit fee."
      },
      "reportLoss(address,uint256)": {
        "notice": "Update strategy loss."
      },
      "totalDebtOf(address)": {
        "notice": "Get total debt of given strategy"
      },
      "updateDebtRate(address,uint256)": {
        "notice": "Update debtRate per block."
      },
      "updateDebtRatio(address,uint256)": {
        "notice": "Update debt ratio."
      },
      "updateExternalDepositFee(address,uint256)": {
        "notice": "Update external deposit fee of strategy and recalculate pool level external deposit fee."
      },
      "updateInterestFee(address,uint256)": {
        "notice": "Update interest fee of strategy"
      },
      "updateWithdrawQueue(address[])": {
        "notice": "Update withdraw queue. Withdraw queue is list of strategy in the order in which funds should be withdrawn."
      }
    },
    "version": 1
  },
  "storageLayout": {
    "storage": [
      {
        "astId": 887,
        "contract": "contracts/pool/PoolAccountant.sol:PoolAccountant",
        "label": "_initialized",
        "offset": 0,
        "slot": "0",
        "type": "t_bool"
      },
      {
        "astId": 890,
        "contract": "contracts/pool/PoolAccountant.sol:PoolAccountant",
        "label": "_initializing",
        "offset": 1,
        "slot": "0",
        "type": "t_bool"
      },
      {
        "astId": 7594,
        "contract": "contracts/pool/PoolAccountant.sol:PoolAccountant",
        "label": "pool",
        "offset": 2,
        "slot": "0",
        "type": "t_address"
      },
      {
        "astId": 7596,
        "contract": "contracts/pool/PoolAccountant.sol:PoolAccountant",
        "label": "totalDebtRatio",
        "offset": 0,
        "slot": "1",
        "type": "t_uint256"
      },
      {
        "astId": 7598,
        "contract": "contracts/pool/PoolAccountant.sol:PoolAccountant",
        "label": "totalDebt",
        "offset": 0,
        "slot": "2",
        "type": "t_uint256"
      },
      {
        "astId": 7601,
        "contract": "contracts/pool/PoolAccountant.sol:PoolAccountant",
        "label": "strategies",
        "offset": 0,
        "slot": "3",
        "type": "t_array(t_address)dyn_storage"
      },
      {
        "astId": 7604,
        "contract": "contracts/pool/PoolAccountant.sol:PoolAccountant",
        "label": "withdrawQueue",
        "offset": 0,
        "slot": "4",
        "type": "t_array(t_address)dyn_storage"
      },
      {
        "astId": 7631,
        "contract": "contracts/pool/PoolAccountant.sol:PoolAccountant",
        "label": "strategy",
        "offset": 0,
        "slot": "5",
        "type": "t_mapping(t_address,t_struct(StrategyConfig)7626_storage)"
      },
      {
        "astId": 7633,
        "contract": "contracts/pool/PoolAccountant.sol:PoolAccountant",
        "label": "externalDepositFee",
        "offset": 0,
        "slot": "6",
        "type": "t_uint256"
      }
    ],
    "types": {
      "t_address": {
        "encoding": "inplace",
        "label": "address",
        "numberOfBytes": "20"
      },
      "t_array(t_address)dyn_storage": {
        "base": "t_address",
        "encoding": "dynamic_array",
        "label": "address[]",
        "numberOfBytes": "32"
      },
      "t_bool": {
        "encoding": "inplace",
        "label": "bool",
        "numberOfBytes": "1"
      },
      "t_mapping(t_address,t_struct(StrategyConfig)7626_storage)": {
        "encoding": "mapping",
        "key": "t_address",
        "label": "mapping(address => struct PoolAccountantStorageV2.StrategyConfig)",
        "numberOfBytes": "32",
        "value": "t_struct(StrategyConfig)7626_storage"
      },
      "t_struct(StrategyConfig)7626_storage": {
        "encoding": "inplace",
        "label": "struct PoolAccountantStorageV2.StrategyConfig",
        "members": [
          {
            "astId": 7609,
            "contract": "contracts/pool/PoolAccountant.sol:PoolAccountant",
            "label": "active",
            "offset": 0,
            "slot": "0",
            "type": "t_bool"
          },
          {
            "astId": 7611,
            "contract": "contracts/pool/PoolAccountant.sol:PoolAccountant",
            "label": "interestFee",
            "offset": 0,
            "slot": "1",
            "type": "t_uint256"
          },
          {
            "astId": 7613,
            "contract": "contracts/pool/PoolAccountant.sol:PoolAccountant",
            "label": "debtRate",
            "offset": 0,
            "slot": "2",
            "type": "t_uint256"
          },
          {
            "astId": 7615,
            "contract": "contracts/pool/PoolAccountant.sol:PoolAccountant",
            "label": "lastRebalance",
            "offset": 0,
            "slot": "3",
            "type": "t_uint256"
          },
          {
            "astId": 7617,
            "contract": "contracts/pool/PoolAccountant.sol:PoolAccountant",
            "label": "totalDebt",
            "offset": 0,
            "slot": "4",
            "type": "t_uint256"
          },
          {
            "astId": 7619,
            "contract": "contracts/pool/PoolAccountant.sol:PoolAccountant",
            "label": "totalLoss",
            "offset": 0,
            "slot": "5",
            "type": "t_uint256"
          },
          {
            "astId": 7621,
            "contract": "contracts/pool/PoolAccountant.sol:PoolAccountant",
            "label": "totalProfit",
            "offset": 0,
            "slot": "6",
            "type": "t_uint256"
          },
          {
            "astId": 7623,
            "contract": "contracts/pool/PoolAccountant.sol:PoolAccountant",
            "label": "debtRatio",
            "offset": 0,
            "slot": "7",
            "type": "t_uint256"
          },
          {
            "astId": 7625,
            "contract": "contracts/pool/PoolAccountant.sol:PoolAccountant",
            "label": "externalDepositFee",
            "offset": 0,
            "slot": "8",
            "type": "t_uint256"
          }
        ],
        "numberOfBytes": "288"
      },
      "t_uint256": {
        "encoding": "inplace",
        "label": "uint256",
        "numberOfBytes": "32"
      }
    }
  }
}