{
  "address": "0xBa6D61020067E296BA1bf4C5A4CE728e50d4a835",
  "abi": [
    {
      "inputs": [
        {
          "internalType": "address",
          "name": "_pool",
          "type": "address"
        },
        {
          "internalType": "address",
          "name": "_swapManager",
          "type": "address"
        },
        {
          "internalType": "address",
          "name": "_receiptToken",
          "type": "address"
        },
        {
          "internalType": "string",
          "name": "_name",
          "type": "string"
        }
      ],
      "stateMutability": "nonpayable",
      "type": "constructor"
    },
    {
      "anonymous": false,
      "inputs": [
        {
          "indexed": true,
          "internalType": "address",
          "name": "previousFeeCollector",
          "type": "address"
        },
        {
          "indexed": true,
          "internalType": "address",
          "name": "newFeeCollector",
          "type": "address"
        }
      ],
      "name": "UpdatedFeeCollector",
      "type": "event"
    },
    {
      "anonymous": false,
      "inputs": [
        {
          "indexed": false,
          "internalType": "uint256",
          "name": "oldPeriod",
          "type": "uint256"
        },
        {
          "indexed": false,
          "internalType": "uint256",
          "name": "newPeriod",
          "type": "uint256"
        },
        {
          "indexed": false,
          "internalType": "uint256",
          "name": "oldRouterIdx",
          "type": "uint256"
        },
        {
          "indexed": false,
          "internalType": "uint256",
          "name": "newRouterIdx",
          "type": "uint256"
        }
      ],
      "name": "UpdatedOracleConfig",
      "type": "event"
    },
    {
      "anonymous": false,
      "inputs": [
        {
          "indexed": true,
          "internalType": "address",
          "name": "previousSwapManager",
          "type": "address"
        },
        {
          "indexed": true,
          "internalType": "address",
          "name": "newSwapManager",
          "type": "address"
        }
      ],
      "name": "UpdatedSwapManager",
      "type": "event"
    },
    {
      "anonymous": false,
      "inputs": [
        {
          "indexed": false,
          "internalType": "uint256",
          "name": "oldSwapSlippage",
          "type": "uint256"
        },
        {
          "indexed": false,
          "internalType": "uint256",
          "name": "newSwapSlippage",
          "type": "uint256"
        }
      ],
      "name": "UpdatedSwapSlippage",
      "type": "event"
    },
    {
      "inputs": [],
      "name": "NAME",
      "outputs": [
        {
          "internalType": "string",
          "name": "",
          "type": "string"
        }
      ],
      "stateMutability": "view",
      "type": "function"
    },
    {
      "inputs": [],
      "name": "VERSION",
      "outputs": [
        {
          "internalType": "string",
          "name": "",
          "type": "string"
        }
      ],
      "stateMutability": "view",
      "type": "function"
    },
    {
      "inputs": [
        {
          "internalType": "address",
          "name": "_keeperAddress",
          "type": "address"
        }
      ],
      "name": "addKeeper",
      "outputs": [],
      "stateMutability": "nonpayable",
      "type": "function"
    },
    {
      "inputs": [],
      "name": "approveToken",
      "outputs": [],
      "stateMutability": "nonpayable",
      "type": "function"
    },
    {
      "inputs": [
        {
          "internalType": "uint256",
          "name": "amount",
          "type": "uint256"
        },
        {
          "internalType": "bytes32[]",
          "name": "proof",
          "type": "bytes32[]"
        }
      ],
      "name": "claimUTokenReward",
      "outputs": [],
      "stateMutability": "nonpayable",
      "type": "function"
    },
    {
      "inputs": [],
      "name": "collateralToken",
      "outputs": [
        {
          "internalType": "contract IERC20",
          "name": "",
          "type": "address"
        }
      ],
      "stateMutability": "view",
      "type": "function"
    },
    {
      "inputs": [],
      "name": "feeCollector",
      "outputs": [
        {
          "internalType": "address",
          "name": "",
          "type": "address"
        }
      ],
      "stateMutability": "view",
      "type": "function"
    },
    {
      "inputs": [
        {
          "internalType": "address",
          "name": "_token",
          "type": "address"
        }
      ],
      "name": "isReservedToken",
      "outputs": [
        {
          "internalType": "bool",
          "name": "",
          "type": "bool"
        }
      ],
      "stateMutability": "view",
      "type": "function"
    },
    {
      "inputs": [],
      "name": "keepers",
      "outputs": [
        {
          "internalType": "address[]",
          "name": "",
          "type": "address[]"
        }
      ],
      "stateMutability": "view",
      "type": "function"
    },
    {
      "inputs": [
        {
          "internalType": "address",
          "name": "_newStrategy",
          "type": "address"
        }
      ],
      "name": "migrate",
      "outputs": [],
      "stateMutability": "nonpayable",
      "type": "function"
    },
    {
      "inputs": [],
      "name": "oraclePeriod",
      "outputs": [
        {
          "internalType": "uint256",
          "name": "",
          "type": "uint256"
        }
      ],
      "stateMutability": "view",
      "type": "function"
    },
    {
      "inputs": [],
      "name": "oracleRouterIdx",
      "outputs": [
        {
          "internalType": "uint256",
          "name": "",
          "type": "uint256"
        }
      ],
      "stateMutability": "view",
      "type": "function"
    },
    {
      "inputs": [],
      "name": "pool",
      "outputs": [
        {
          "internalType": "address",
          "name": "",
          "type": "address"
        }
      ],
      "stateMutability": "view",
      "type": "function"
    },
    {
      "inputs": [],
      "name": "rebalance",
      "outputs": [],
      "stateMutability": "nonpayable",
      "type": "function"
    },
    {
      "inputs": [],
      "name": "receiptToken",
      "outputs": [
        {
          "internalType": "address",
          "name": "",
          "type": "address"
        }
      ],
      "stateMutability": "view",
      "type": "function"
    },
    {
      "inputs": [
        {
          "internalType": "address",
          "name": "_keeperAddress",
          "type": "address"
        }
      ],
      "name": "removeKeeper",
      "outputs": [],
      "stateMutability": "nonpayable",
      "type": "function"
    },
    {
      "inputs": [],
      "name": "setupOracles",
      "outputs": [],
      "stateMutability": "nonpayable",
      "type": "function"
    },
    {
      "inputs": [],
      "name": "swapManager",
      "outputs": [
        {
          "internalType": "contract ISwapManager",
          "name": "",
          "type": "address"
        }
      ],
      "stateMutability": "view",
      "type": "function"
    },
    {
      "inputs": [],
      "name": "swapSlippage",
      "outputs": [
        {
          "internalType": "uint256",
          "name": "",
          "type": "uint256"
        }
      ],
      "stateMutability": "view",
      "type": "function"
    },
    {
      "inputs": [
        {
          "internalType": "address",
          "name": "_fromToken",
          "type": "address"
        }
      ],
      "name": "sweepERC20",
      "outputs": [],
      "stateMutability": "nonpayable",
      "type": "function"
    },
    {
      "inputs": [],
      "name": "token",
      "outputs": [
        {
          "internalType": "address",
          "name": "",
          "type": "address"
        }
      ],
      "stateMutability": "view",
      "type": "function"
    },
    {
      "inputs": [],
      "name": "totalValue",
      "outputs": [
        {
          "internalType": "uint256",
          "name": "_totalValue",
          "type": "uint256"
        }
      ],
      "stateMutability": "view",
      "type": "function"
    },
    {
      "inputs": [],
      "name": "totalValueCurrent",
      "outputs": [
        {
          "internalType": "uint256",
          "name": "",
          "type": "uint256"
        }
      ],
      "stateMutability": "nonpayable",
      "type": "function"
    },
    {
      "inputs": [
        {
          "internalType": "address",
          "name": "_feeCollector",
          "type": "address"
        }
      ],
      "name": "updateFeeCollector",
      "outputs": [],
      "stateMutability": "nonpayable",
      "type": "function"
    },
    {
      "inputs": [
        {
          "internalType": "uint256",
          "name": "_newPeriod",
          "type": "uint256"
        },
        {
          "internalType": "uint256",
          "name": "_newRouterIdx",
          "type": "uint256"
        }
      ],
      "name": "updateOracleConfig",
      "outputs": [],
      "stateMutability": "nonpayable",
      "type": "function"
    },
    {
      "inputs": [
        {
          "internalType": "address",
          "name": "_swapManager",
          "type": "address"
        }
      ],
      "name": "updateSwapManager",
      "outputs": [],
      "stateMutability": "nonpayable",
      "type": "function"
    },
    {
      "inputs": [
        {
          "internalType": "uint256",
          "name": "_newSwapSlippage",
          "type": "uint256"
        }
      ],
      "name": "updateSwapSlippage",
      "outputs": [],
      "stateMutability": "nonpayable",
      "type": "function"
    },
    {
      "inputs": [],
      "name": "updateTokenRate",
      "outputs": [
        {
          "internalType": "uint256",
          "name": "",
          "type": "uint256"
        }
      ],
      "stateMutability": "nonpayable",
      "type": "function"
    },
    {
      "inputs": [
        {
          "internalType": "uint256",
          "name": "_amount",
          "type": "uint256"
        }
      ],
      "name": "withdraw",
      "outputs": [],
      "stateMutability": "nonpayable",
      "type": "function"
    },
    {
      "stateMutability": "payable",
      "type": "receive"
    }
  ],
  "transactionHash": "0xbf8bf9fb0fcd69c3fd596d313df2ed0992a57383ca35210695f4394f3bfce628",
  "args": [
    "0xEa94eBB08E9604AFD225f2c61fa61401F1ed1047",
    "0xEbedFD259c9FB1F5c0ab9A9f24E79F8d80E29B23",
    "0x21C630B7824D15BcDFeefA73CBd4e49cAfe9F836",
    "AlphaLendAvalancheStrategyAVAX"
  ],
  "solcInputHash": "6ba4830a698936f1415bafc9123c0704",
  "bytecode": "0x60e0604052600080546001600160a01b031990811673c02aaa39b223fe8d0a0e5c4f27ead9083c756cc2178255610e10600455600591909155612710600655600a805490911673a1faa113cbe53436df28ff0aee54275c13b409751790553480156200006a57600080fd5b506040516200458a3803806200458a8339810160408190526200008d9162000587565b83838383838383838383836001600160a01b038316620000f45760405162461bcd60e51b815260206004820152601460248201527f706f6f6c2d616464726573732d69732d7a65726f00000000000000000000000060448201526064015b60405180910390fd5b6001600160a01b038216620001415760405162461bcd60e51b8152602060048201526012602482015271736d2d616464726573732d69732d7a65726f60701b6044820152606401620000eb565b600380546001600160a01b0319166001600160a01b0384811691909117909155606084901b6001600160601b03191660a05260408051637e062a3560e11b815290519185169163fc0c546a91600480820192602092909190829003018186803b158015620001ae57600080fd5b505afa158015620001c3573d6000803e3d6000fd5b505050506040513d601f19601f82011682018060405250810190620001e991906200069f565b60601b6001600160601b031916608052600180546001600160a01b0319166001600160a01b03831617905562000236620002203390565b60076200038e60201b62001a901790919060201c565b620002785760405162461bcd60e51b81526020600482015260116024820152701859190b5ad9595c195c8b59985a5b1959607a1b6044820152606401620000eb565b5050600b80546001600160a01b0319166001600160a01b0385169081179091556040805163313ce56760e01b8152905191925063313ce567916004808301926020929190829003018186803b158015620002d157600080fd5b505afa158015620002e6573d6000803e3d6000fd5b505050506040513d601f19601f820116820180604052508101906200030c9190620006c5565b60ff1660c0526200031d84620003ae565b805162000332906009906020840190620004e1565b5050600080546001600160a01b031990811673b31f66aa3c1e785363f0875a1b74e27b85fd66c717909155600a8054909116732147efff675e4a4ee1c2f918d181cdbd7a8e208f17905550620007519950505050505050505050565b6000620003a5836001600160a01b0384166200048f565b90505b92915050565b73b31f66aa3c1e785363f0875a1b74e27b85fd66c76001600160a01b0316816001600160a01b031663fc0c546a6040518163ffffffff1660e01b815260040160206040518083038186803b1580156200040657600080fd5b505afa1580156200041b573d6000803e3d6000fd5b505050506040513d601f19601f820116820180604052508101906200044191906200069f565b6001600160a01b0316146200048c5760405162461bcd60e51b815260206004820152601060248201526f0ea5ae8ded6cadc5adad2e6dac2e8c6d60831b6044820152606401620000eb565b50565b6000818152600183016020526040812054620004d857508154600181810184556000848152602080822090930184905584548482528286019093526040902091909155620003a8565b506000620003a8565b828054620004ef90620006e8565b90600052602060002090601f0160209004810192826200051357600085556200055e565b82601f106200052e57805160ff19168380011785556200055e565b828001600101855582156200055e579182015b828111156200055e57825182559160200191906001019062000541565b506200056c92915062000570565b5090565b5b808211156200056c576000815560010162000571565b600080600080608085870312156200059d578384fd5b8451620005aa816200073b565b80945050602080860151620005bf816200073b565b6040870151909450620005d2816200073b565b60608701519093506001600160401b0380821115620005ef578384fd5b818801915088601f83011262000603578384fd5b81518181111562000618576200061862000725565b604051601f8201601f19908116603f0116810190838211818310171562000643576200064362000725565b816040528281528b868487010111156200065b578687fd5b8693505b828410156200067e57848401860151818501870152928501926200065f565b828411156200068f57868684830101525b989b979a50959850505050505050565b600060208284031215620006b1578081fd5b8151620006be816200073b565b9392505050565b600060208284031215620006d7578081fd5b815160ff81168114620006be578182fd5b600181811c90821680620006fd57607f821691505b602082108114156200071f57634e487b7160e01b600052602260045260246000fd5b50919050565b634e487b7160e01b600052604160045260246000fd5b6001600160a01b03811681146200048c57600080fd5b60805160601c60a05160601c60c051613d3b6200084f600039600050506000818161023f015281816105be015281816107c5015281816108150152818161095501528181610c1201528181610c8101528181610e3101528181610f72015281816111d501528181611272015281816114c601528181611ad201528181611b6701528181611c070152611e7f01526000818161046b015281816113f90152818161149d01528181611748015281816118d901528181611af301528181611ce501528181611e5d01528181611eb5015281816120ab015281816121110152818161258f015281816127660152818161280501526128950152613d3b6000f3fe6080604052600436106101865760003560e01c806399b71d5c116100d7578063ce5494bb11610085578063ce5494bb146104c3578063d2c35ce8146104e3578063d4c3eea014610503578063e00af4a714610518578063e645c20214610538578063ec78e8321461054d578063fc0c546a1461056d578063ffa1ad741461058b57610208565b806399b71d5c146103ed578063a3f4df7e14610402578063a923b2a614610424578063aa10188614610444578063b2016bd414610459578063c415b95c1461048d578063cd2d7ebe146104ad57610208565b8063440d724811610134578063440d7248146103065780634c36fad714610336578063653b449e1461035657806367f5e4b814610376578063709d039d146103965780637d7c2a1c146103b6578063951dc22c146103cb57610208565b806314ae9f2e1461020d57806316f0115b1461022d5780631aedeabe14610277578063234fe5ab1461029b5780632e1a7d4d146102b05780634032b72b146102d057806342189c8f146102f057610208565b3661020857600b546001600160a01b0316336001600160a01b031614806101c057506000546001600160a01b0316336001600160a01b0316145b6102065760405162461bcd60e51b815260206004820152601260248201527134b73b30b634b216b2ba3416b9b2b73232b960711b60448201526064015b60405180910390fd5b005b600080fd5b34801561021957600080fd5b5061020661022836600461366e565b6105bc565b34801561023957600080fd5b506102617f000000000000000000000000000000000000000000000000000000000000000081565b60405161026e91906139bb565b60405180910390f35b34801561028357600080fd5b5061028d60065481565b60405190815260200161026e565b3480156102a757600080fd5b5061028d6106ce565b3480156102bc57600080fd5b506102066102cb366004613807565b6107c2565b3480156102dc57600080fd5b506102066102eb36600461366e565b610813565b3480156102fc57600080fd5b5061028d60045481565b34801561031257600080fd5b5061032661032136600461366e565b61091f565b604051901515815260200161026e565b34801561034257600080fd5b5061020661035136600461366e565b610953565b34801561036257600080fd5b50610206610371366004613837565b610b06565b34801561038257600080fd5b50610206610391366004613807565b610c7f565b3480156103a257600080fd5b50600354610261906001600160a01b031681565b3480156103c257600080fd5b50610206610dcb565b3480156103d757600080fd5b506103e0610e9a565b60405161026e9190613a1c565b3480156103f957600080fd5b50610206610ea6565b34801561040e57600080fd5b50610417610ee2565b60405161026e9190613a2f565b34801561043057600080fd5b5061020661043f3660046138d6565b610f70565b34801561045057600080fd5b506102066111a5565b34801561046557600080fd5b506102617f000000000000000000000000000000000000000000000000000000000000000081565b34801561049957600080fd5b50600254610261906001600160a01b031681565b3480156104b957600080fd5b5061028d60055481565b3480156104cf57600080fd5b506102066104de36600461366e565b6111d2565b3480156104ef57600080fd5b506102066104fe36600461366e565b6114c4565b34801561050f57600080fd5b5061028d61168d565b34801561052457600080fd5b5061020661053336600461366e565b611862565b34801561054457600080fd5b5061028d611a86565b34801561055957600080fd5b50600154610261906001600160a01b031681565b34801561057957600080fd5b506001546001600160a01b0316610261565b34801561059757600080fd5b50610417604051806040016040528060058152602001640342e302e360dc1b81525081565b7f00000000000000000000000000000000000000000000000000000000000000006001600160a01b0316630c340a246040518163ffffffff1660e01b815260040160206040518083038186803b15801561061557600080fd5b505afa158015610629573d6000803e3d6000fd5b505050506040513d601f19601f8201168201806040525081019061064d919061368a565b6001600160a01b0316336001600160a01b03161461067d5760405162461bcd60e51b81526004016101fd90613a92565b610688600782611aae565b6106cb5760405162461bcd60e51b81526020600482015260146024820152731c995b5bdd994b5ad9595c195c8b59985a5b195960621b60448201526064016101fd565b50565b600b54604080516334f293ed60e11b815290516000926001600160a01b0316916369e527da916004808301926020929190829003018186803b15801561071357600080fd5b505afa158015610727573d6000803e3d6000fd5b505050506040513d601f19601f8201168201806040525081019061074b919061368a565b6001600160a01b031663bd6d894d6040518163ffffffff1660e01b8152600401602060405180830381600087803b15801561078557600080fd5b505af1158015610799573d6000803e3d6000fd5b505050506040513d601f19601f820116820180604052508101906107bd919061381f565b905090565b337f00000000000000000000000000000000000000000000000000000000000000006001600160a01b03161461080a5760405162461bcd60e51b81526004016101fd90613ac9565b6106cb81611ac3565b7f00000000000000000000000000000000000000000000000000000000000000006001600160a01b0316630c340a246040518163ffffffff1660e01b815260040160206040518083038186803b15801561086c57600080fd5b505afa158015610880573d6000803e3d6000fd5b505050506040513d601f19601f820116820180604052508101906108a4919061368a565b6001600160a01b0316336001600160a01b0316146108d45760405162461bcd60e51b81526004016101fd90613a92565b6108df600782611a90565b6106cb5760405162461bcd60e51b81526020600482015260116024820152701859190b5ad9595c195c8b59985a5b1959607a1b60448201526064016101fd565b6001546000906001600160a01b038381169116148061094b5750600a546001600160a01b038381169116145b90505b919050565b7f00000000000000000000000000000000000000000000000000000000000000006001600160a01b0316630c340a246040518163ffffffff1660e01b815260040160206040518083038186803b1580156109ac57600080fd5b505afa1580156109c0573d6000803e3d6000fd5b505050506040513d601f19601f820116820180604052508101906109e4919061368a565b6001600160a01b0316336001600160a01b031614610a145760405162461bcd60e51b81526004016101fd90613a92565b6001600160a01b038116610a5f5760405162461bcd60e51b8152602060048201526012602482015271736d2d616464726573732d69732d7a65726f60701b60448201526064016101fd565b6003546001600160a01b0382811691161415610aaa5760405162461bcd60e51b815260206004820152600a602482015269736d2d69732d73616d6560b01b60448201526064016101fd565b6003546040516001600160a01b038084169216907f2d19927e7cac08ceb98b38898a4fdff6da6a27295b9a2d62fe250408ebe044e190600090a3600380546001600160a01b0319166001600160a01b0392909216919091179055565b610b13335b600790611b3d565b610b2f5760405162461bcd60e51b81526004016101fd90613a62565b600b54604051632f52ebb760e01b81526001600160a01b0390911690632f52ebb790610b619085908590600401613afc565b600060405180830381600087803b158015610b7b57600080fd5b505af1158015610b8f573d6000803e3d6000fd5b50506000805460408051630d0e30db60e41b815290514795506001600160a01b03909216935063d0e30db092859260048084019382900301818588803b158015610bd857600080fd5b505af1158015610bec573d6000803e3d6000fd5b50506040516302df682360e11b81526004810185905260006024820181905260448201527f00000000000000000000000000000000000000000000000000000000000000006001600160a01b031693506305bed04692506064019050600060405180830381600087803b158015610c6257600080fd5b505af1158015610c76573d6000803e3d6000fd5b50505050505050565b7f00000000000000000000000000000000000000000000000000000000000000006001600160a01b0316630c340a246040518163ffffffff1660e01b815260040160206040518083038186803b158015610cd857600080fd5b505afa158015610cec573d6000803e3d6000fd5b505050506040513d601f19601f82011682018060405250810190610d10919061368a565b6001600160a01b0316336001600160a01b031614610d405760405162461bcd60e51b81526004016101fd90613a92565b612710811115610d8b5760405162461bcd60e51b8152602060048201526016602482015275696e76616c69642d736c6970706167652d76616c756560501b60448201526064016101fd565b60065460408051918252602082018390527ef1c5db862c7598b3b6765552ca951f498611e06412c2d57f8d0b58f82e7f82910160405180910390a1600655565b610dd433610b0b565b610df05760405162461bcd60e51b81526004016101fd90613a62565b6000806000610dfd611b5f565b6040516302df682360e11b815260048101849052602481018390526044810182905292955090935091506001600160a01b037f000000000000000000000000000000000000000000000000000000000000000016906305bed04690606401600060405180830381600087803b158015610e7557600080fd5b505af1158015610e89573d6000803e3d6000fd5b50505050610e95611ccb565b505050565b60606107bd6007611e3c565b610eaf33610b0b565b610ecb5760405162461bcd60e51b81526004016101fd90613a62565b610ed56000611e50565b610ee0600019611e50565b565b60098054610eef90613c74565b80601f0160208091040260200160405190810160405280929190818152602001828054610f1b90613c74565b8015610f685780601f10610f3d57610100808354040283529160200191610f68565b820191906000526020600020905b815481529060010190602001808311610f4b57829003601f168201915b505050505081565b7f00000000000000000000000000000000000000000000000000000000000000006001600160a01b0316630c340a246040518163ffffffff1660e01b815260040160206040518083038186803b158015610fc957600080fd5b505afa158015610fdd573d6000803e3d6000fd5b505050506040513d601f19601f82011682018060405250810190611001919061368a565b6001600160a01b0316336001600160a01b0316146110315760405162461bcd60e51b81526004016101fd90613a92565b600360009054906101000a90046001600160a01b03166001600160a01b031663c2fba6676040518163ffffffff1660e01b815260040160206040518083038186803b15801561107f57600080fd5b505afa158015611093573d6000803e3d6000fd5b505050506040513d601f19601f820116820180604052508101906110b7919061381f565b81106110fc5760405162461bcd60e51b81526020600482015260146024820152730d2dcecc2d8d2c85ae4deeae8cae45ad2dcc8caf60631b60448201526064016101fd565b816111075760045491505b603b821161114f5760405162461bcd60e51b81526020600482015260156024820152741a5b9d985b1a590b5bdc9858db194b5c195c9a5bd9605a1b60448201526064016101fd565b6004546005546040805192835260208301859052820152606081018290527f83bc5ab8030537fcf1d29c2334f6d22c26c82dcbe5ff03923d2cff5c692c0a7f9060800160405180910390a1600491909155600555565b6111ae33610b0b565b6111ca5760405162461bcd60e51b81526004016101fd90613a62565b610ee0612011565b337f00000000000000000000000000000000000000000000000000000000000000006001600160a01b03161461121a5760405162461bcd60e51b81526004016101fd90613ac9565b6001600160a01b0381166112705760405162461bcd60e51b815260206004820152601c60248201527f6e65772d73747261746567792d616464726573732d69732d7a65726f0000000060448201526064016101fd565b7f00000000000000000000000000000000000000000000000000000000000000006001600160a01b0316816001600160a01b03166316f0115b6040518163ffffffff1660e01b815260040160206040518083038186803b1580156112d357600080fd5b505afa1580156112e7573d6000803e3d6000fd5b505050506040513d601f19601f8201168201806040525081019061130b919061368a565b6001600160a01b03161461135a5760405162461bcd60e51b81526020600482015260166024820152756e6f742d76616c69642d6e65772d737472617465677960501b60448201526064016101fd565b6001546040516370a0823160e01b81526113f39183916001600160a01b03909116906370a08231906113909030906004016139bb565b60206040518083038186803b1580156113a857600080fd5b505afa1580156113bc573d6000803e3d6000fd5b505050506040513d601f19601f820116820180604052508101906113e0919061381f565b6001546001600160a01b0316919061218d565b6106cb817f00000000000000000000000000000000000000000000000000000000000000006001600160a01b03166370a08231306040518263ffffffff1660e01b815260040161144391906139bb565b60206040518083038186803b15801561145b57600080fd5b505afa15801561146f573d6000803e3d6000fd5b505050506040513d601f19601f82011682018060405250810190611493919061381f565b6001600160a01b037f000000000000000000000000000000000000000000000000000000000000000016919061218d565b7f00000000000000000000000000000000000000000000000000000000000000006001600160a01b0316630c340a246040518163ffffffff1660e01b815260040160206040518083038186803b15801561151d57600080fd5b505afa158015611531573d6000803e3d6000fd5b505050506040513d601f19601f82011682018060405250810190611555919061368a565b6001600160a01b0316336001600160a01b0316146115855760405162461bcd60e51b81526004016101fd90613a92565b6001600160a01b0381166115db5760405162461bcd60e51b815260206004820152601d60248201527f6665652d636f6c6c6563746f722d616464726573732d69732d7a65726f00000060448201526064016101fd565b6002546001600160a01b03828116911614156116315760405162461bcd60e51b81526020600482015260156024820152746665652d636f6c6c6563746f722d69732d73616d6560581b60448201526064016101fd565b6002546040516001600160a01b038084169216907f0f06062680f9bd68e786e9980d9bb03d73d5620fc3b345e417b6eacb310b970690600090a3600280546001600160a01b0319166001600160a01b0392909216919091179055565b600a546040516370a0823160e01b815260009182916001600160a01b03909116906370a08231906116c29030906004016139bb565b60206040518083038186803b1580156116da57600080fd5b505afa1580156116ee573d6000803e3d6000fd5b505050506040513d601f19601f82011682018060405250810190611712919061381f565b905080156117cb57600354600a54604051631d1f307960e31b81526001600160a01b039283169263e8f983c892611772929116907f00000000000000000000000000000000000000000000000000000000000000009086906004016139cf565b60006040518083038186803b15801561178a57600080fd5b505afa15801561179e573d6000803e3d6000fd5b505050506040513d6000823e601f3d908101601f191682016040526117c691908101906136a6565b509250505b600b546040516370a0823160e01b8152611852916001600160a01b0316906370a08231906117fd9030906004016139bb565b60206040518083038186803b15801561181557600080fd5b505afa158015611829573d6000803e3d6000fd5b505050506040513d601f19601f8201168201806040525081019061184d919061381f565b6121f0565b61185c9083613bda565b91505090565b61186b33610b0b565b6118875760405162461bcd60e51b81526004016101fd90613a62565b6002546001600160a01b03166118d75760405162461bcd60e51b81526020600482015260156024820152741999594b58dbdb1b1958dd1bdc8b5b9bdd0b5cd95d605a1b60448201526064016101fd565b7f00000000000000000000000000000000000000000000000000000000000000006001600160a01b0316816001600160a01b031614156119595760405162461bcd60e51b815260206004820152601f60248201527f6e6f742d616c6c6f7765642d746f2d73776565702d636f6c6c61746572616c0060448201526064016101fd565b6119628161091f565b156119a65760405162461bcd60e51b815260206004820152601460248201527306e6f742d616c6c6f7765642d746f2d73776565760641b60448201526064016101fd565b6001600160a01b03811673eeeeeeeeeeeeeeeeeeeeeeeeeeeeeeeeeeeeeeee14156119e6576002546119e1906001600160a01b031647612305565b6106cb565b6040516370a0823160e01b81526000906001600160a01b038316906370a0823190611a159030906004016139bb565b60206040518083038186803b158015611a2d57600080fd5b505afa158015611a41573d6000803e3d6000fd5b505050506040513d601f19601f82011682018060405250810190611a65919061381f565b600254909150611a82906001600160a01b0384811691168361218d565b5050565b60006107bd61168d565b6000611aa5836001600160a01b03841661241e565b90505b92915050565b6000611aa5836001600160a01b03841661246d565b611acc8161258a565b506106cb7f00000000000000000000000000000000000000000000000000000000000000007f00000000000000000000000000000000000000000000000000000000000000006001600160a01b03166370a08231306040518263ffffffff1660e01b815260040161144391906139bb565b6001600160a01b03811660009081526001830160205260408120541515611aa5565b6000806000807f00000000000000000000000000000000000000000000000000000000000000006001600160a01b031663d53ddc26306040518263ffffffff1660e01b8152600401611bb191906139bb565b60206040518083038186803b158015611bc957600080fd5b505afa158015611bdd573d6000803e3d6000fd5b505050506040513d601f19601f82011682018060405250810190611c01919061381f565b905060007f00000000000000000000000000000000000000000000000000000000000000006001600160a01b0316639f2b2833306040518263ffffffff1660e01b8152600401611c5191906139bb565b60206040518083038186803b158015611c6957600080fd5b505afa158015611c7d573d6000803e3d6000fd5b505050506040513d601f19601f82011682018060405250810190611ca1919061381f565b9050611cac816127fe565b9450611cb78161291a565b9350611cc28261296b565b92505050909192565b6040516370a0823160e01b81526000906001600160a01b037f000000000000000000000000000000000000000000000000000000000000000016906370a0823190611d1a9030906004016139bb565b60206040518083038186803b158015611d3257600080fd5b505afa158015611d46573d6000803e3d6000fd5b505050506040513d601f19601f82011682018060405250810190611d6a919061381f565b905080156106cb57600054604051632e1a7d4d60e01b8152600481018390526001600160a01b0390911690632e1a7d4d90602401600060405180830381600087803b158015611db857600080fd5b505af1158015611dcc573d6000803e3d6000fd5b50505050600b60009054906101000a90046001600160a01b03166001600160a01b031663d0e30db0826040518263ffffffff1660e01b81526004016000604051808303818588803b158015611e2057600080fd5b505af1158015611e34573d6000803e3d6000fd5b505050505050565b60606000611e498361297c565b9392505050565b611ea46001600160a01b037f0000000000000000000000000000000000000000000000000000000000000000167f0000000000000000000000000000000000000000000000000000000000000000836129d8565b600b54611ede906001600160a01b037f000000000000000000000000000000000000000000000000000000000000000081169116836129d8565b60005b600360009054906101000a90046001600160a01b03166001600160a01b031663c2fba6676040518163ffffffff1660e01b815260040160206040518083038186803b158015611f2f57600080fd5b505afa158015611f43573d6000803e3d6000fd5b505050506040513d601f19601f82011682018060405250810190611f67919061381f565b811015611a8257600354604051636e74a6f760e01b815260048101839052611fff916001600160a01b031690636e74a6f79060240160206040518083038186803b158015611fb457600080fd5b505afa158015611fc8573d6000803e3d6000fd5b505050506040513d601f19601f82011682018060405250810190611fec919061368a565b600a546001600160a01b031690846129d8565b8061200981613ca9565b915050611ee1565b600354600a5460005460048054600554604051630f30f2d360e21b81526001600160a01b0396871696633cc3cb4c9661205396908216959116939291016139f3565b602060405180830381600087803b15801561206d57600080fd5b505af1158015612081573d6000803e3d6000fd5b505050506040513d601f19601f820116820180604052508101906120a5919061368a565b506000547f00000000000000000000000000000000000000000000000000000000000000006001600160a01b03908116911614610ee05760035460005460048054600554604051630f30f2d360e21b81526001600160a01b0395861695633cc3cb4c9561213b959116937f00000000000000000000000000000000000000000000000000000000000000009390929091016139f3565b602060405180830381600087803b15801561215557600080fd5b505af1158015612169573d6000803e3d6000fd5b505050506040513d601f19601f820116820180604052508101906106cb919061368a565b6040516001600160a01b038316602482015260448101829052610e9590849063a9059cbb60e01b906064015b60408051601f198184030181529190526020810180516001600160e01b03166001600160e01b031990931692909217909152612afc565b6000670de0b6b3a7640000600b60009054906101000a90046001600160a01b03166001600160a01b03166369e527da6040518163ffffffff1660e01b815260040160206040518083038186803b15801561224957600080fd5b505afa15801561225d573d6000803e3d6000fd5b505050506040513d601f19601f82011682018060405250810190612281919061368a565b6001600160a01b031663182df0f56040518163ffffffff1660e01b815260040160206040518083038186803b1580156122b957600080fd5b505afa1580156122cd573d6000803e3d6000fd5b505050506040513d601f19601f820116820180604052508101906122f1919061381f565b6122fb9084613c12565b61094b9190613bf2565b804710156123555760405162461bcd60e51b815260206004820152601d60248201527f416464726573733a20696e73756666696369656e742062616c616e636500000060448201526064016101fd565b6000826001600160a01b03168260405160006040518083038185875af1925050503d80600081146123a2576040519150601f19603f3d011682016040523d82523d6000602084013e6123a7565b606091505b5050905080610e955760405162461bcd60e51b815260206004820152603a60248201527f416464726573733a20756e61626c6520746f2073656e642076616c75652c207260448201527f6563697069656e74206d6179206861766520726576657274656400000000000060648201526084016101fd565b600081815260018301602052604081205461246557508154600181810184556000848152602080822090930184905584548482528286019093526040902091909155611aa8565b506000611aa8565b60008181526001830160205260408120548015612580576000612491600183613c31565b85549091506000906124a590600190613c31565b90508181146125265760008660000182815481106124d357634e487b7160e01b600052603260045260246000fd5b906000526020600020015490508087600001848154811061250457634e487b7160e01b600052603260045260246000fd5b6000918252602080832090910192909255918252600188019052604090208390555b855486908061254557634e487b7160e01b600052603160045260246000fd5b600190038181906000526020600020016000905590558560010160008681526020019081526020016000206000905560019350505050611aa8565b6000915050611aa8565b6000807f00000000000000000000000000000000000000000000000000000000000000006001600160a01b03166370a08231306040518263ffffffff1660e01b81526004016125d991906139bb565b60206040518083038186803b1580156125f157600080fd5b505afa158015612605573d6000803e3d6000fd5b505050506040513d601f19601f82011682018060405250810190612629919061381f565b600b546040516370a0823160e01b81529192506000916001600160a01b03909116906370a082319061265f9030906004016139bb565b60206040518083038186803b15801561267757600080fd5b505afa15801561268b573d6000803e3d6000fd5b505050506040513d601f19601f820116820180604052508101906126af919061381f565b905060006126bc85612bce565b90506126c7816121f0565b8511156126dc576126d9600182613bda565b90505b818111156126e75750805b600b54604051632e1a7d4d60e01b8152600481018390526001600160a01b0390911690632e1a7d4d90602401600060405180830381600087803b15801561272d57600080fd5b505af1158015612741573d6000803e3d6000fd5b5050505061274d612ccd565b6040516370a0823160e01b815283906001600160a01b037f000000000000000000000000000000000000000000000000000000000000000016906370a082319061279b9030906004016139bb565b60206040518083038186803b1580156127b357600080fd5b505afa1580156127c7573d6000803e3d6000fd5b505050506040513d601f19601f820116820180604052508101906127eb919061381f565b6127f59190613c31565b95945050505050565b60006128297f0000000000000000000000000000000000000000000000000000000000000000612d36565b600b546040516370a0823160e01b8152600091612860916001600160a01b03909116906370a08231906117fd9030906004016139bb565b90508281111561287e5761287c6128778483613c31565b61258a565b505b6040516370a0823160e01b81526001600160a01b037f000000000000000000000000000000000000000000000000000000000000000016906370a08231906128ca9030906004016139bb565b60206040518083038186803b1580156128e257600080fd5b505afa1580156128f6573d6000803e3d6000fd5b505050506040513d601f19601f82011682018060405250810190611e49919061381f565b600b546040516370a0823160e01b81526000918291612951916001600160a01b0316906370a08231906117fd9030906004016139bb565b90508281101561296557611e498184613c31565b50919050565b6000811561094e5761094b8261258a565b6060816000018054806020026020016040519081016040528092919081815260200182805480156129cc57602002820191906000526020600020905b8154815260200190600101908083116129b8575b50505050509050919050565b801580612a615750604051636eb1769f60e11b81523060048201526001600160a01b03838116602483015284169063dd62ed3e9060440160206040518083038186803b158015612a2757600080fd5b505afa158015612a3b573d6000803e3d6000fd5b505050506040513d601f19601f82011682018060405250810190612a5f919061381f565b155b612acc5760405162461bcd60e51b815260206004820152603660248201527f5361666545524332303a20617070726f76652066726f6d206e6f6e2d7a65726f60448201527520746f206e6f6e2d7a65726f20616c6c6f77616e636560501b60648201526084016101fd565b6040516001600160a01b038316602482015260448101829052610e9590849063095ea7b360e01b906064016121b9565b6000612b51826040518060400160405280602081526020017f5361666545524332303a206c6f772d6c6576656c2063616c6c206661696c6564815250856001600160a01b0316612e1b9092919063ffffffff16565b805190915015610e955780806020019051810190612b6f91906137ed565b610e955760405162461bcd60e51b815260206004820152602a60248201527f5361666545524332303a204552433230206f7065726174696f6e20646964206e6044820152691bdd081cdd58d8d9595960b21b60648201526084016101fd565b600b54604080516334f293ed60e11b815290516000926001600160a01b0316916369e527da916004808301926020929190829003018186803b158015612c1357600080fd5b505afa158015612c27573d6000803e3d6000fd5b505050506040513d601f19601f82011682018060405250810190612c4b919061368a565b6001600160a01b031663182df0f56040518163ffffffff1660e01b815260040160206040518083038186803b158015612c8357600080fd5b505afa158015612c97573d6000803e3d6000fd5b505050506040513d601f19601f82011682018060405250810190612cbb919061381f565b6122fb83670de0b6b3a7640000613c12565b60008054906101000a90046001600160a01b03166001600160a01b031663d0e30db0476040518263ffffffff1660e01b81526004016000604051808303818588803b158015612d1b57600080fd5b505af1158015612d2f573d6000803e3d6000fd5b5050505050565b600a546040516370a0823160e01b81526000916001600160a01b0316906370a0823190612d679030906004016139bb565b60206040518083038186803b158015612d7f57600080fd5b505afa158015612d93573d6000803e3d6000fd5b505050506040513d601f19601f82011682018060405250810190612db7919061381f565b90508015611a825760006006546127101415612dd4576001612e00565b600a54612e0090612df890612df2906001600160a01b031686612e32565b84612ff6565b600654613121565b600a54909150610e95906001600160a01b0316848484613144565b6060612e2a848460008561331a565b949350505050565b6000546060906001600160a01b0384811691161480612e5e57506000546001600160a01b038381169116145b15612f0c5760408051600280825260608201835290916020830190803683370190505090508281600081518110612ea557634e487b7160e01b600052603260045260246000fd5b60200260200101906001600160a01b031690816001600160a01b0316815250508181600181518110612ee757634e487b7160e01b600052603260045260246000fd5b60200260200101906001600160a01b031690816001600160a01b031681525050611aa8565b6040805160038082526080820190925290602082016060803683370190505090508281600081518110612f4f57634e487b7160e01b600052603260045260246000fd5b6001600160a01b039283166020918202929092010152600054825191169082906001908110612f8e57634e487b7160e01b600052603260045260246000fd5b60200260200101906001600160a01b031690816001600160a01b0316815250508181600281518110612fd057634e487b7160e01b600052603260045260246000fd5b60200260200101906001600160a01b031690816001600160a01b03168152505092915050565b6000600183511161303f5760405162461bcd60e51b81526020600482015260136024820152720d2dcecc2d8d2c85adee4c2c6d8ca5ae0c2e8d606b1b60448201526064016101fd565b50806000805b600185516130539190613c31565b811015613119576130bf85828151811061307d57634e487b7160e01b600052603260045260246000fd5b6020026020010151868360016130939190613bda565b815181106130b157634e487b7160e01b600052603260045260246000fd5b602002602001015185613442565b9093509150816131075760405162461bcd60e51b8152602060048201526013602482015272696e76616c69642d6f7261636c652d7261746560681b60448201526064016101fd565b8061311181613ca9565b915050613045565b505092915050565b60006127106131308382613c31565b61313a9085613c12565b611aa59190613bf2565b826001600160a01b0316846001600160a01b0316141561316357613314565b600354604051631d1f307960e31b8152600091829182916001600160a01b03169063e8f983c89061319c908a908a908a906004016139cf565b60006040518083038186803b1580156131b457600080fd5b505afa1580156131c8573d6000803e3d6000fd5b505050506040513d6000823e601f3d908101601f191682016040526131f091908101906136a6565b925092509250836000141561320457600193505b8115610c7657600354604051636e74a6f760e01b8152600481018390526001600160a01b0390911690636e74a6f79060240160206040518083038186803b15801561324e57600080fd5b505afa158015613262573d6000803e3d6000fd5b505050506040513d601f19601f82011682018060405250810190613286919061368a565b6001600160a01b03166338ed173986868630426040518663ffffffff1660e01b81526004016132b9959493929190613b49565b600060405180830381600087803b1580156132d357600080fd5b505af11580156132e7573d6000803e3d6000fd5b505050506040513d6000823e601f3d908101601f1916820160405261330f919081019061375a565b505050505b50505050565b60608247101561337b5760405162461bcd60e51b815260206004820152602660248201527f416464726573733a20696e73756666696369656e742062616c616e636520666f6044820152651c8818d85b1b60d21b60648201526084016101fd565b843b6133c95760405162461bcd60e51b815260206004820152601d60248201527f416464726573733a2063616c6c20746f206e6f6e2d636f6e747261637400000060448201526064016101fd565b600080866001600160a01b031685876040516133e5919061399f565b60006040518083038185875af1925050503d8060008114613422576040519150601f19603f3d011682016040523d82523d6000602084013e613427565b606091505b5091509150613437828286613625565b979650505050505050565b60008060005b600360009054906101000a90046001600160a01b03166001600160a01b031663c2fba6676040518163ffffffff1660e01b815260040160206040518083038186803b15801561349657600080fd5b505afa1580156134aa573d6000803e3d6000fd5b505050506040513d601f19601f820116820180604052508101906134ce919061381f565b81101561361457600354600454604080516001600160a01b038a811660208301528981168284015260608201899052608082019390935260a08082018690528251808303909101815260c082019092526000938493169161353b9163b67bb24d60e01b919060e00161396e565b60408051601f19818403018152908290526135559161399f565b6000604051808303816000865af19150503d8060008114613592576040519150601f19603f3d011682016040523d82523d6000602084013e613597565b606091505b509150915081156135ff57600080828060200190518101906135b991906138f7565b5091509150600454426135cc9190613c31565b811180156135d957508115155b156135ee575094506001935061361d92505050565b60008096509650505050505061361d565b5050808061360c90613ca9565b915050613448565b50600080915091505b935093915050565b60608315613634575081611e49565b8251156136445782518084602001fd5b8160405162461bcd60e51b81526004016101fd9190613a2f565b8051801515811461094e57600080fd5b60006020828403121561367f578081fd5b8135611e4981613cf0565b60006020828403121561369b578081fd5b8151611e4981613cf0565b6000806000606084860312156136ba578182fd5b835167ffffffffffffffff8111156136d0578283fd5b8401601f810186136136e0578283fd5b805160206136f56136f083613bb6565b613b85565b8083825282820191508285018a848660051b8801011115613714578788fd5b8795505b8486101561373f57805161372b81613cf0565b835260019590950194918301918301613718565b50918801516040909801519199979850909695505050505050565b6000602080838503121561376c578182fd5b825167ffffffffffffffff811115613782578283fd5b8301601f81018513613792578283fd5b80516137a06136f082613bb6565b80828252848201915084840188868560051b87010111156137bf578687fd5b8694505b838510156137e15780518352600194909401939185019185016137c3565b50979650505050505050565b6000602082840312156137fe578081fd5b611aa58261365e565b600060208284031215613818578081fd5b5035919050565b600060208284031215613830578081fd5b5051919050565b60008060408385031215613849578182fd5b8235915060208084013567ffffffffffffffff811115613867578283fd5b8401601f81018613613877578283fd5b80356138856136f082613bb6565b80828252848201915084840189868560051b87010111156138a4578687fd5b8694505b838510156138c65780358352600194909401939185019185016138a8565b5080955050505050509250929050565b600080604083850312156138e8578182fd5b50508035926020909101359150565b60008060006060848603121561390b578081fd5b83519250602084015191506139226040850161365e565b90509250925092565b6000815180845260208085019450808401835b838110156139635781516001600160a01b03168752958201959082019060010161393e565b509495945050505050565b6001600160e01b0319831681528151600090613991816004850160208701613c48565b919091016004019392505050565b600082516139b1818460208701613c48565b9190910192915050565b6001600160a01b0391909116815260200190565b6001600160a01b039384168152919092166020820152604081019190915260600190565b6001600160a01b0394851681529290931660208301526040820152606081019190915260800190565b600060208252611aa5602083018461392b565b6000602082528251806020840152613a4e816040850160208701613c48565b601f01601f19169190910160400192915050565b60208082526016908201527531b0b63632b916b4b996b737ba16b096b5b2b2b832b960511b604082015260600190565b6020808252601a908201527f63616c6c65722d69732d6e6f742d7468652d676f7665726e6f72000000000000604082015260600190565b60208082526019908201527818d85b1b195c8b5a5ccb5b9bdd0b5d995cdc195c8b5c1bdbdb603a1b604082015260600190565b60006040820184835260206040818501528185518084526060860191508287019350845b81811015613b3c57845183529383019391830191600101613b20565b5090979650505050505050565b600086825285602083015260a06040830152613b6860a083018661392b565b6001600160a01b0394909416606083015250608001529392505050565b604051601f8201601f1916810167ffffffffffffffff81118282101715613bae57613bae613cda565b604052919050565b600067ffffffffffffffff821115613bd057613bd0613cda565b5060051b60200190565b60008219821115613bed57613bed613cc4565b500190565b600082613c0d57634e487b7160e01b81526012600452602481fd5b500490565b6000816000190483118215151615613c2c57613c2c613cc4565b500290565b600082821015613c4357613c43613cc4565b500390565b60005b83811015613c63578181015183820152602001613c4b565b838111156133145750506000910152565b600181811c90821680613c8857607f821691505b6020821081141561296557634e487b7160e01b600052602260045260246000fd5b6000600019821415613cbd57613cbd613cc4565b5060010190565b634e487b7160e01b600052601160045260246000fd5b634e487b7160e01b600052604160045260246000fd5b6001600160a01b03811681146106cb57600080fdfea2646970667358221220944fea9c943867796757f111bd02d6ffb7d3ca34172cbb435dda78935261641b64736f6c63430008030033",
  "devdoc": {
    "kind": "dev",
    "methods": {
      "addKeeper(address)": {
        "params": {
          "_keeperAddress": "keeper address to add."
        }
      },
      "approveToken()": {
        "details": "Approve all required tokens"
      },
      "migrate(address)": {
        "details": "_beforeMigration hook can be implemented in child strategy to do extra steps.",
        "params": {
          "_newStrategy": "Address of new strategy"
        }
      },
      "rebalance()": {
        "details": "Rebalance profit, loss and investment of this strategy"
      },
      "removeKeeper(address)": {
        "params": {
          "_keeperAddress": "keeper address to remove."
        }
      },
      "sweepERC20(address)": {
        "details": "sweep given token to feeCollector of strategy",
        "params": {
          "_fromToken": "token address to sweep"
        }
      },
      "totalValue()": {
        "details": "Report total value in collateral token"
      },
      "totalValueCurrent()": {
        "details": "Report total value in collateral token"
      },
      "updateFeeCollector(address)": {
        "params": {
          "_feeCollector": "fee collector address"
        }
      },
      "updateSwapManager(address)": {
        "params": {
          "_swapManager": "swap manager address"
        }
      },
      "withdraw(uint256)": {
        "details": "Withdraw collateral token from lending pool.",
        "params": {
          "_amount": "Amount of collateral token"
        }
      }
    },
    "title": "Deposit ETH in Alpha and earn interest.",
    "version": 1
  },
  "userdoc": {
    "kind": "user",
    "methods": {
      "addKeeper(address)": {
        "notice": "Add given address in keepers list."
      },
      "isReservedToken(address)": {
        "notice": "Check whether given token is reserved or not. Reserved tokens are not allowed to sweep."
      },
      "keepers()": {
        "notice": "Return list of keepers"
      },
      "migrate(address)": {
        "notice": "Migrate all asset and vault ownership,if any, to new strategy"
      },
      "removeKeeper(address)": {
        "notice": "Remove given address from keepers list."
      },
      "token()": {
        "notice": "Returns address of token correspond to collateral token"
      },
      "totalValue()": {
        "notice": "Calculate total value using ALPHA accrued and cToken"
      },
      "totalValueCurrent()": {
        "notice": "Calculate total value of asset under management (in real-time)"
      },
      "updateFeeCollector(address)": {
        "notice": "Update fee collector"
      },
      "updateSwapManager(address)": {
        "notice": "Update swap manager address"
      }
    },
    "version": 1
  },
  "storageLayout": {
    "storage": [
      {
        "astId": 15118,
        "contract": "contracts/strategies/alpha/AlphaLendAvalancheStrategyAVAX.sol:AlphaLendAvalancheStrategyAVAX",
        "label": "WETH",
        "offset": 0,
        "slot": "0",
        "type": "t_address"
      },
      {
        "astId": 15123,
        "contract": "contracts/strategies/alpha/AlphaLendAvalancheStrategyAVAX.sol:AlphaLendAvalancheStrategyAVAX",
        "label": "receiptToken",
        "offset": 0,
        "slot": "1",
        "type": "t_address"
      },
      {
        "astId": 15129,
        "contract": "contracts/strategies/alpha/AlphaLendAvalancheStrategyAVAX.sol:AlphaLendAvalancheStrategyAVAX",
        "label": "feeCollector",
        "offset": 0,
        "slot": "2",
        "type": "t_address"
      },
      {
        "astId": 15132,
        "contract": "contracts/strategies/alpha/AlphaLendAvalancheStrategyAVAX.sol:AlphaLendAvalancheStrategyAVAX",
        "label": "swapManager",
        "offset": 0,
        "slot": "3",
        "type": "t_contract(ISwapManager)5430"
      },
      {
        "astId": 15135,
        "contract": "contracts/strategies/alpha/AlphaLendAvalancheStrategyAVAX.sol:AlphaLendAvalancheStrategyAVAX",
        "label": "oraclePeriod",
        "offset": 0,
        "slot": "4",
        "type": "t_uint256"
      },
      {
        "astId": 15138,
        "contract": "contracts/strategies/alpha/AlphaLendAvalancheStrategyAVAX.sol:AlphaLendAvalancheStrategyAVAX",
        "label": "oracleRouterIdx",
        "offset": 0,
        "slot": "5",
        "type": "t_uint256"
      },
      {
        "astId": 15141,
        "contract": "contracts/strategies/alpha/AlphaLendAvalancheStrategyAVAX.sol:AlphaLendAvalancheStrategyAVAX",
        "label": "swapSlippage",
        "offset": 0,
        "slot": "6",
        "type": "t_uint256"
      },
      {
        "astId": 15144,
        "contract": "contracts/strategies/alpha/AlphaLendAvalancheStrategyAVAX.sol:AlphaLendAvalancheStrategyAVAX",
        "label": "_keepers",
        "offset": 0,
        "slot": "7",
        "type": "t_struct(AddressSet)4399_storage"
      },
      {
        "astId": 20960,
        "contract": "contracts/strategies/alpha/AlphaLendAvalancheStrategyAVAX.sol:AlphaLendAvalancheStrategyAVAX",
        "label": "NAME",
        "offset": 0,
        "slot": "9",
        "type": "t_string_storage"
      },
      {
        "astId": 20966,
        "contract": "contracts/strategies/alpha/AlphaLendAvalancheStrategyAVAX.sol:AlphaLendAvalancheStrategyAVAX",
        "label": "ALPHA",
        "offset": 0,
        "slot": "10",
        "type": "t_address"
      },
      {
        "astId": 20969,
        "contract": "contracts/strategies/alpha/AlphaLendAvalancheStrategyAVAX.sol:AlphaLendAvalancheStrategyAVAX",
        "label": "safeBox",
        "offset": 0,
        "slot": "11",
        "type": "t_contract(ISafeBox)5046"
      }
    ],
    "types": {
      "t_address": {
        "encoding": "inplace",
        "label": "address",
        "numberOfBytes": "20"
      },
      "t_array(t_bytes32)dyn_storage": {
        "base": "t_bytes32",
        "encoding": "dynamic_array",
        "label": "bytes32[]",
        "numberOfBytes": "32"
      },
      "t_bytes32": {
        "encoding": "inplace",
        "label": "bytes32",
        "numberOfBytes": "32"
      },
      "t_contract(ISafeBox)5046": {
        "encoding": "inplace",
        "label": "contract ISafeBox",
        "numberOfBytes": "20"
      },
      "t_contract(ISwapManager)5430": {
        "encoding": "inplace",
        "label": "contract ISwapManager",
        "numberOfBytes": "20"
      },
      "t_mapping(t_bytes32,t_uint256)": {
        "encoding": "mapping",
        "key": "t_bytes32",
        "label": "mapping(bytes32 => uint256)",
        "numberOfBytes": "32",
        "value": "t_uint256"
      },
      "t_string_storage": {
        "encoding": "bytes",
        "label": "string",
        "numberOfBytes": "32"
      },
      "t_struct(AddressSet)4399_storage": {
        "encoding": "inplace",
        "label": "struct EnumerableSet.AddressSet",
        "members": [
          {
            "astId": 4398,
            "contract": "contracts/strategies/alpha/AlphaLendAvalancheStrategyAVAX.sol:AlphaLendAvalancheStrategyAVAX",
            "label": "_inner",
            "offset": 0,
            "slot": "0",
            "type": "t_struct(Set)4098_storage"
          }
        ],
        "numberOfBytes": "64"
      },
      "t_struct(Set)4098_storage": {
        "encoding": "inplace",
        "label": "struct EnumerableSet.Set",
        "members": [
          {
            "astId": 4093,
            "contract": "contracts/strategies/alpha/AlphaLendAvalancheStrategyAVAX.sol:AlphaLendAvalancheStrategyAVAX",
            "label": "_values",
            "offset": 0,
            "slot": "0",
            "type": "t_array(t_bytes32)dyn_storage"
          },
          {
            "astId": 4097,
            "contract": "contracts/strategies/alpha/AlphaLendAvalancheStrategyAVAX.sol:AlphaLendAvalancheStrategyAVAX",
            "label": "_indexes",
            "offset": 0,
            "slot": "1",
            "type": "t_mapping(t_bytes32,t_uint256)"
          }
        ],
        "numberOfBytes": "64"
      },
      "t_uint256": {
        "encoding": "inplace",
        "label": "uint256",
        "numberOfBytes": "32"
      }
    }
  }
}