{
  "address": "0x6d94ce384cf6b51F93F8c702b039333fC95d66A5",
  "abi": [
    {
      "inputs": [
        {
          "internalType": "address",
          "name": "_pool",
          "type": "address"
        },
        {
          "internalType": "address",
          "name": "_swapManager",
          "type": "address"
        },
        {
          "internalType": "address",
          "name": "_receiptToken",
          "type": "address"
        },
        {
          "internalType": "address",
          "name": "_dripToken",
          "type": "address"
        },
        {
          "internalType": "address",
          "name": "_vsp",
          "type": "address"
        },
        {
          "internalType": "string",
          "name": "_name",
          "type": "string"
        }
      ],
      "stateMutability": "nonpayable",
      "type": "constructor"
    },
    {
      "anonymous": false,
      "inputs": [
        {
          "indexed": false,
          "internalType": "uint256",
          "name": "oldDripPeriod",
          "type": "uint256"
        },
        {
          "indexed": false,
          "internalType": "uint256",
          "name": "newDripPeriod",
          "type": "uint256"
        }
      ],
      "name": "DripPeriodUpdated",
      "type": "event"
    },
    {
      "anonymous": false,
      "inputs": [
        {
          "indexed": true,
          "internalType": "address",
          "name": "previousFeeCollector",
          "type": "address"
        },
        {
          "indexed": true,
          "internalType": "address",
          "name": "newFeeCollector",
          "type": "address"
        }
      ],
      "name": "UpdatedFeeCollector",
      "type": "event"
    },
    {
      "anonymous": false,
      "inputs": [
        {
          "indexed": false,
          "internalType": "uint256",
          "name": "oldPeriod",
          "type": "uint256"
        },
        {
          "indexed": false,
          "internalType": "uint256",
          "name": "newPeriod",
          "type": "uint256"
        },
        {
          "indexed": false,
          "internalType": "uint256",
          "name": "oldRouterIdx",
          "type": "uint256"
        },
        {
          "indexed": false,
          "internalType": "uint256",
          "name": "newRouterIdx",
          "type": "uint256"
        }
      ],
      "name": "UpdatedOracleConfig",
      "type": "event"
    },
    {
      "anonymous": false,
      "inputs": [
        {
          "indexed": true,
          "internalType": "address",
          "name": "previousSwapManager",
          "type": "address"
        },
        {
          "indexed": true,
          "internalType": "address",
          "name": "newSwapManager",
          "type": "address"
        }
      ],
      "name": "UpdatedSwapManager",
      "type": "event"
    },
    {
      "anonymous": false,
      "inputs": [
        {
          "indexed": false,
          "internalType": "uint256",
          "name": "oldSwapSlippage",
          "type": "uint256"
        },
        {
          "indexed": false,
          "internalType": "uint256",
          "name": "newSwapSlippage",
          "type": "uint256"
        }
      ],
      "name": "UpdatedSwapSlippage",
      "type": "event"
    },
    {
      "inputs": [],
      "name": "NAME",
      "outputs": [
        {
          "internalType": "string",
          "name": "",
          "type": "string"
        }
      ],
      "stateMutability": "view",
      "type": "function"
    },
    {
      "inputs": [],
      "name": "VERSION",
      "outputs": [
        {
          "internalType": "string",
          "name": "",
          "type": "string"
        }
      ],
      "stateMutability": "view",
      "type": "function"
    },
    {
      "inputs": [
        {
          "internalType": "address",
          "name": "_keeperAddress",
          "type": "address"
        }
      ],
      "name": "addKeeper",
      "outputs": [],
      "stateMutability": "nonpayable",
      "type": "function"
    },
    {
      "inputs": [],
      "name": "approveGrowToken",
      "outputs": [],
      "stateMutability": "nonpayable",
      "type": "function"
    },
    {
      "inputs": [],
      "name": "approveToken",
      "outputs": [],
      "stateMutability": "nonpayable",
      "type": "function"
    },
    {
      "inputs": [],
      "name": "collateralToken",
      "outputs": [
        {
          "internalType": "contract IERC20",
          "name": "",
          "type": "address"
        }
      ],
      "stateMutability": "view",
      "type": "function"
    },
    {
      "inputs": [],
      "name": "dripPeriod",
      "outputs": [
        {
          "internalType": "uint256",
          "name": "",
          "type": "uint256"
        }
      ],
      "stateMutability": "view",
      "type": "function"
    },
    {
      "inputs": [],
      "name": "dripToken",
      "outputs": [
        {
          "internalType": "address",
          "name": "",
          "type": "address"
        }
      ],
      "stateMutability": "view",
      "type": "function"
    },
    {
      "inputs": [],
      "name": "feeCollector",
      "outputs": [
        {
          "internalType": "address",
          "name": "",
          "type": "address"
        }
      ],
      "stateMutability": "view",
      "type": "function"
    },
    {
      "inputs": [
        {
          "internalType": "address",
          "name": "_token",
          "type": "address"
        }
      ],
      "name": "isReservedToken",
      "outputs": [
        {
          "internalType": "bool",
          "name": "",
          "type": "bool"
        }
      ],
      "stateMutability": "view",
      "type": "function"
    },
    {
      "inputs": [],
      "name": "keepers",
      "outputs": [
        {
          "internalType": "address[]",
          "name": "",
          "type": "address[]"
        }
      ],
      "stateMutability": "view",
      "type": "function"
    },
    {
      "inputs": [
        {
          "internalType": "address",
          "name": "_newStrategy",
          "type": "address"
        }
      ],
      "name": "migrate",
      "outputs": [],
      "stateMutability": "nonpayable",
      "type": "function"
    },
    {
      "inputs": [],
      "name": "oraclePeriod",
      "outputs": [
        {
          "internalType": "uint256",
          "name": "",
          "type": "uint256"
        }
      ],
      "stateMutability": "view",
      "type": "function"
    },
    {
      "inputs": [],
      "name": "oracleRouterIdx",
      "outputs": [
        {
          "internalType": "uint256",
          "name": "",
          "type": "uint256"
        }
      ],
      "stateMutability": "view",
      "type": "function"
    },
    {
      "inputs": [],
      "name": "pool",
      "outputs": [
        {
          "internalType": "address",
          "name": "",
          "type": "address"
        }
      ],
      "stateMutability": "view",
      "type": "function"
    },
    {
      "inputs": [],
      "name": "rebalance",
      "outputs": [],
      "stateMutability": "nonpayable",
      "type": "function"
    },
    {
      "inputs": [],
      "name": "receiptToken",
      "outputs": [
        {
          "internalType": "address",
          "name": "",
          "type": "address"
        }
      ],
      "stateMutability": "view",
      "type": "function"
    },
    {
      "inputs": [
        {
          "internalType": "address",
          "name": "_keeperAddress",
          "type": "address"
        }
      ],
      "name": "removeKeeper",
      "outputs": [],
      "stateMutability": "nonpayable",
      "type": "function"
    },
    {
      "inputs": [],
      "name": "setupOracles",
      "outputs": [],
      "stateMutability": "nonpayable",
      "type": "function"
    },
    {
      "inputs": [],
      "name": "swapManager",
      "outputs": [
        {
          "internalType": "contract ISwapManager",
          "name": "",
          "type": "address"
        }
      ],
      "stateMutability": "view",
      "type": "function"
    },
    {
      "inputs": [],
      "name": "swapSlippage",
      "outputs": [
        {
          "internalType": "uint256",
          "name": "",
          "type": "uint256"
        }
      ],
      "stateMutability": "view",
      "type": "function"
    },
    {
      "inputs": [
        {
          "internalType": "address",
          "name": "_fromToken",
          "type": "address"
        }
      ],
      "name": "sweepERC20",
      "outputs": [],
      "stateMutability": "nonpayable",
      "type": "function"
    },
    {
      "inputs": [],
      "name": "token",
      "outputs": [
        {
          "internalType": "address",
          "name": "",
          "type": "address"
        }
      ],
      "stateMutability": "view",
      "type": "function"
    },
    {
      "inputs": [],
      "name": "totalEarned",
      "outputs": [
        {
          "internalType": "uint256",
          "name": "",
          "type": "uint256"
        }
      ],
      "stateMutability": "view",
      "type": "function"
    },
    {
      "inputs": [],
      "name": "totalValue",
      "outputs": [
        {
          "internalType": "uint256",
          "name": "_totalValue",
          "type": "uint256"
        }
      ],
      "stateMutability": "view",
      "type": "function"
    },
    {
      "inputs": [],
      "name": "totalValueCurrent",
      "outputs": [
        {
          "internalType": "uint256",
          "name": "",
          "type": "uint256"
        }
      ],
      "stateMutability": "nonpayable",
      "type": "function"
    },
    {
      "inputs": [
        {
          "internalType": "uint256",
          "name": "_dripPeriod",
          "type": "uint256"
        }
      ],
      "name": "updateDripPeriod",
      "outputs": [],
      "stateMutability": "nonpayable",
      "type": "function"
    },
    {
      "inputs": [
        {
          "internalType": "address",
          "name": "_feeCollector",
          "type": "address"
        }
      ],
      "name": "updateFeeCollector",
      "outputs": [],
      "stateMutability": "nonpayable",
      "type": "function"
    },
    {
      "inputs": [
        {
          "internalType": "uint256",
          "name": "_newPeriod",
          "type": "uint256"
        },
        {
          "internalType": "uint256",
          "name": "_newRouterIdx",
          "type": "uint256"
        }
      ],
      "name": "updateOracleConfig",
      "outputs": [],
      "stateMutability": "nonpayable",
      "type": "function"
    },
    {
      "inputs": [
        {
          "internalType": "address",
          "name": "_swapManager",
          "type": "address"
        }
      ],
      "name": "updateSwapManager",
      "outputs": [],
      "stateMutability": "nonpayable",
      "type": "function"
    },
    {
      "inputs": [
        {
          "internalType": "uint256",
          "name": "_newSwapSlippage",
          "type": "uint256"
        }
      ],
      "name": "updateSwapSlippage",
      "outputs": [],
      "stateMutability": "nonpayable",
      "type": "function"
    },
    {
      "inputs": [
        {
          "internalType": "uint256",
          "name": "_amount",
          "type": "uint256"
        }
      ],
      "name": "withdraw",
      "outputs": [],
      "stateMutability": "nonpayable",
      "type": "function"
    }
  ],
  "transactionHash": "0xff22966ee05868ce40fbfc915de04305069a037072c64634ca60a928de1547b3",
  "args": [
    "0xA7C21fD948c44830541b8561B31ABDe09CC32719",
    "0xe382d9f2394A359B01006faa8A1864b8a60d2710",
    "0xa8b607Aa09B6A2E306F93e74c282Fb13f6A80452",
    "0x4b1D0b9F081468D780Ca1d5d79132b64301085d1",
    "0x1b40183EFB4Dd766f11bDa7A7c3AD8982e998421",
    "EarnVesperStrategyUSDCLMR"
  ],
  "numDeployments": 1,
  "solcInputHash": "c91ec8da7445f08f528614adf27c911d",
  "bytecode": "0x610120604052600080546001600160a01b03191673c02aaa39b223fe8d0a0e5c4f27ead9083c756cc2178155610e106004556005556127106006556202a300600a553480156200004e57600080fd5b5060405162004af338038062004af383398101604081905262000071916200047b565b8286868685858484846001600160a01b038316620000d65760405162461bcd60e51b815260206004820152601460248201527f706f6f6c2d616464726573732d69732d7a65726f00000000000000000000000060448201526064015b60405180910390fd5b6001600160a01b038216620001235760405162461bcd60e51b8152602060048201526012602482015271736d2d616464726573732d69732d7a65726f60701b6044820152606401620000cd565b600380546001600160a01b0319166001600160a01b0384811691909117909155831660a081905260408051637e062a3560e11b8152905163fc0c546a91600480820192602092909190829003018186803b1580156200018157600080fd5b505afa15801562000196573d6000803e3d6000fd5b505050506040513d601f19601f82011682018060405250810190620001bc9190620005c5565b6001600160a01b03908116608052600180546001600160a01b03191691831691909117905562000203620001ed3390565b60076200033460201b620018db1790919060201c565b620002455760405162461bcd60e51b81526020600482015260116024820152701859190b5ad9595c195c8b59985a5b1959607a1b6044820152606401620000cd565b5050506001600160a01b038316620002a05760405162461bcd60e51b815260206004820152601660248201527f76546f6b656e2d616464726573732d69732d7a65726f000000000000000000006044820152606401620000cd565b6001600160a01b03831660e0528051620002c2906009906020840190620003a6565b50506001600160a01b0390811660c0528416151592506200031a9150505760405162461bcd60e51b815260206004820152600e60248201526d64726970546f6b656e2d7a65726f60901b6044820152606401620000cd565b6001600160a01b0316610100525062000629945050505050565b60006200034b836001600160a01b03841662000354565b90505b92915050565b60008181526001830160205260408120546200039d575081546001818101845560008481526020808220909301849055845484825282860190935260409020919091556200034e565b5060006200034e565b828054620003b490620005ec565b90600052602060002090601f016020900481019282620003d8576000855562000423565b82601f10620003f357805160ff191683800117855562000423565b8280016001018555821562000423579182015b828111156200042357825182559160200191906001019062000406565b506200043192915062000435565b5090565b5b8082111562000431576000815560010162000436565b6001600160a01b03811681146200046257600080fd5b50565b634e487b7160e01b600052604160045260246000fd5b60008060008060008060c087890312156200049557600080fd5b8651620004a2816200044c565b80965050602080880151620004b7816200044c565b6040890151909650620004ca816200044c565b6060890151909550620004dd816200044c565b6080890151909450620004f0816200044c565b60a08901519093506001600160401b03808211156200050e57600080fd5b818a0191508a601f8301126200052357600080fd5b81518181111562000538576200053862000465565b604051601f8201601f19908116603f0116810190838211818310171562000563576200056362000465565b816040528281528d868487010111156200057c57600080fd5b600093505b82841015620005a0578484018601518185018701529285019262000581565b82841115620005b25760008684830101525b8096505050505050509295509295509295565b600060208284031215620005d857600080fd5b8151620005e5816200044c565b9392505050565b600181811c908216806200060157607f821691505b602082108114156200062357634e487b7160e01b600052602260045260246000fd5b50919050565b60805160a05160c05160e051610100516142fd620007f66000396000818161024901528181610c9b01528181610d8b01528181610dc001528181612f8901528181612fe301528181613023015281816131e60152818161348201526134d001526000818161082801528181611d7401528181612032015281816121300152818161238a01528181612440015281816124c7015281816128e40152818161298401528181612c270152612d7001526000818161226d01528181612e870152612f1a0152600081816101cf0152818161042801528181610543015281816106cc0152818161071c0152818161085a01528181610a0d01528181610b8401528181610e5301528181610f99015281816111f401528181611291015281816114e50152818161191d01528181611b0901528181611ba9015281816120dc01528181612a4601526130b401526000818161035701528181611418015281816114bc0152818161172d0152818161193e01528181611c4a01528181611c7e01528181611e0f01528181611ed301528181611f8f015281816120ba0152818161210e0152818161231c01528181612ae101528181612b8901528181612cc501528181612f680152612fc201526142fd6000f3fe608060405234801561001057600080fd5b50600436106101b05760003560e01c8063951dc22c116100ef578063ce5494bb11610092578063ce5494bb14610395578063d2c35ce8146103a8578063d4c3eea0146103bb578063e00af4a7146103c3578063e645c202146103d6578063ec78e832146103de578063fc0c546a146103f1578063ffa1ad741461040257600080fd5b8063951dc22c1461030557806399b71d5c1461031a578063a3f4df7e14610322578063a923b2a614610337578063aa1018861461034a578063b2016bd414610352578063c415b95c14610379578063cd2d7ebe1461038c57600080fd5b8063440d724811610157578063440d7248146102875780634c36fad7146102aa57806367f5e4b8146102bd5780636dfa8d99146102d0578063709d039d146102d957806371506414146102ec5780637737b672146102f55780637d7c2a1c146102fd57600080fd5b806314ae9f2e146101b557806316f0115b146101ca5780631960d116146102075780631aedeabe1461021a5780632e1a7d4d14610231578063335bbf11146102445780634032b72b1461026b57806342189c8f1461027e575b600080fd5b6101c86101c3366004613d1b565b610426565b005b6101f17f000000000000000000000000000000000000000000000000000000000000000081565b6040516101fe9190613d38565b60405180910390f35b6101c8610215366004613d4c565b610541565b61022360065481565b6040519081526020016101fe565b6101c861023f366004613d4c565b6106c9565b6101f17f000000000000000000000000000000000000000000000000000000000000000081565b6101c8610279366004613d1b565b61071a565b61022360045481565b61029a610295366004613d1b565b610826565b60405190151581526020016101fe565b6101c86102b8366004613d1b565b610858565b6101c86102cb366004613d4c565b610a0b565b610223600b5481565b6003546101f1906001600160a01b031681565b610223600a5481565b6101c8610b57565b6101c8610ded565b61030d610ebc565b6040516101fe9190613da9565b6101c8610ecd565b61032a610f09565b6040516101fe9190613de8565b6101c8610345366004613e1b565b610f97565b6101c86111cc565b6101f17f000000000000000000000000000000000000000000000000000000000000000081565b6002546101f1906001600160a01b031681565b61022360055481565b6101c86103a3366004613d1b565b6111f1565b6101c86103b6366004613d1b565b6114e3565b6102236116ac565b6101c86103d1366004613d1b565b6116b6565b6102236118d1565b6001546101f1906001600160a01b031681565b6001546001600160a01b03166101f1565b61032a60405180604001604052806005815260200164342e302e3160d81b81525081565b7f00000000000000000000000000000000000000000000000000000000000000006001600160a01b0316630c340a246040518163ffffffff1660e01b815260040160206040518083038186803b15801561047f57600080fd5b505afa158015610493573d6000803e3d6000fd5b505050506040513d601f19601f820116820180604052508101906104b79190613e3d565b6001600160a01b0316336001600160a01b0316146104f05760405162461bcd60e51b81526004016104e790613e5a565b60405180910390fd5b6104fb6007826118f9565b61053e5760405162461bcd60e51b81526020600482015260146024820152731c995b5bdd994b5ad9595c195c8b59985a5b195960621b60448201526064016104e7565b50565b7f00000000000000000000000000000000000000000000000000000000000000006001600160a01b0316630c340a246040518163ffffffff1660e01b815260040160206040518083038186803b15801561059a57600080fd5b505afa1580156105ae573d6000803e3d6000fd5b505050506040513d601f19601f820116820180604052508101906105d29190613e3d565b6001600160a01b0316336001600160a01b0316146106025760405162461bcd60e51b81526004016104e790613e5a565b600081116106445760405162461bcd60e51b815260206004820152600f60248201526e64726970506572696f642d7a65726f60881b60448201526064016104e7565b600a548114156106885760405162461bcd60e51b815260206004820152600f60248201526e1cd85b594b591c9a5c14195c9a5bd9608a1b60448201526064016104e7565b600a5460408051918252602082018390527f6a4a78fe36e2d43bd20405835c6211b888cc77a834e32ddc9ac64ded78f4b328910160405180910390a1600a55565b337f00000000000000000000000000000000000000000000000000000000000000006001600160a01b0316146107115760405162461bcd60e51b81526004016104e790613e91565b61053e8161190e565b7f00000000000000000000000000000000000000000000000000000000000000006001600160a01b0316630c340a246040518163ffffffff1660e01b815260040160206040518083038186803b15801561077357600080fd5b505afa158015610787573d6000803e3d6000fd5b505050506040513d601f19601f820116820180604052508101906107ab9190613e3d565b6001600160a01b0316336001600160a01b0316146107db5760405162461bcd60e51b81526004016104e790613e5a565b6107e66007826118db565b61053e5760405162461bcd60e51b81526020600482015260116024820152701859190b5ad9595c195c8b59985a5b1959607a1b60448201526064016104e7565b7f00000000000000000000000000000000000000000000000000000000000000006001600160a01b0390811691161490565b7f00000000000000000000000000000000000000000000000000000000000000006001600160a01b0316630c340a246040518163ffffffff1660e01b815260040160206040518083038186803b1580156108b157600080fd5b505afa1580156108c5573d6000803e3d6000fd5b505050506040513d601f19601f820116820180604052508101906108e99190613e3d565b6001600160a01b0316336001600160a01b0316146109195760405162461bcd60e51b81526004016104e790613e5a565b6001600160a01b0381166109645760405162461bcd60e51b8152602060048201526012602482015271736d2d616464726573732d69732d7a65726f60701b60448201526064016104e7565b6003546001600160a01b03828116911614156109af5760405162461bcd60e51b815260206004820152600a602482015269736d2d69732d73616d6560b01b60448201526064016104e7565b6003546040516001600160a01b038084169216907f2d19927e7cac08ceb98b38898a4fdff6da6a27295b9a2d62fe250408ebe044e190600090a3600380546001600160a01b0319166001600160a01b0392909216919091179055565b7f00000000000000000000000000000000000000000000000000000000000000006001600160a01b0316630c340a246040518163ffffffff1660e01b815260040160206040518083038186803b158015610a6457600080fd5b505afa158015610a78573d6000803e3d6000fd5b505050506040513d601f19601f82011682018060405250810190610a9c9190613e3d565b6001600160a01b0316336001600160a01b031614610acc5760405162461bcd60e51b81526004016104e790613e5a565b612710811115610b175760405162461bcd60e51b8152602060048201526016602482015275696e76616c69642d736c6970706167652d76616c756560501b60448201526064016104e7565b60065460408051918252602082018390527ef1c5db862c7598b3b6765552ca951f498611e06412c2d57f8d0b58f82e7f82910160405180910390a1600655565b610b64335b600790611988565b610b805760405162461bcd60e51b81526004016104e790613ec4565b60007f00000000000000000000000000000000000000000000000000000000000000006001600160a01b0316638bc6beb26040518163ffffffff1660e01b815260040160206040518083038186803b158015610bdb57600080fd5b505afa158015610bef573d6000803e3d6000fd5b505050506040513d601f19601f82011682018060405250810190610c139190613e3d565b90506000816001600160a01b031663e49e463b6040518163ffffffff1660e01b815260040160206040518083038186803b158015610c5057600080fd5b505afa158015610c64573d6000803e3d6000fd5b505050506040513d601f19601f82011682018060405250810190610c889190613e3d565b90506001600160a01b03811615610de9577f00000000000000000000000000000000000000000000000000000000000000006001600160a01b0316816001600160a01b031663fc0c546a6040518163ffffffff1660e01b815260040160206040518083038186803b158015610cfc57600080fd5b505afa158015610d10573d6000803e3d6000fd5b505050506040513d601f19601f82011682018060405250810190610d349190613e3d565b6001600160a01b031614610d7e5760405162461bcd60e51b81526020600482015260116024820152701a5b9d985b1a590b59dc9bddcb5c1bdbdb607a1b60448201526064016104e7565b610db36001600160a01b037f0000000000000000000000000000000000000000000000000000000000000000168260006119aa565b610de96001600160a01b037f000000000000000000000000000000000000000000000000000000000000000016826000196119aa565b5050565b610df633610b5c565b610e125760405162461bcd60e51b81526004016104e790613ec4565b6000806000610e1f611b01565b6040516302df682360e11b815260048101849052602481018390526044810182905292955090935091506001600160a01b037f000000000000000000000000000000000000000000000000000000000000000016906305bed04690606401600060405180830381600087803b158015610e9757600080fd5b505af1158015610eab573d6000803e3d6000fd5b50505050610eb7611f75565b505050565b6060610ec86007612099565b905090565b610ed633610b5c565b610ef25760405162461bcd60e51b81526004016104e790613ec4565b610efc60006120ad565b610f076000196120ad565b565b60098054610f1690613ef4565b80601f0160208091040260200160405190810160405280929190818152602001828054610f4290613ef4565b8015610f8f5780601f10610f6457610100808354040283529160200191610f8f565b820191906000526020600020905b815481529060010190602001808311610f7257829003601f168201915b505050505081565b7f00000000000000000000000000000000000000000000000000000000000000006001600160a01b0316630c340a246040518163ffffffff1660e01b815260040160206040518083038186803b158015610ff057600080fd5b505afa158015611004573d6000803e3d6000fd5b505050506040513d601f19601f820116820180604052508101906110289190613e3d565b6001600160a01b0316336001600160a01b0316146110585760405162461bcd60e51b81526004016104e790613e5a565b600360009054906101000a90046001600160a01b03166001600160a01b031663c2fba6676040518163ffffffff1660e01b815260040160206040518083038186803b1580156110a657600080fd5b505afa1580156110ba573d6000803e3d6000fd5b505050506040513d601f19601f820116820180604052508101906110de9190613f2f565b81106111235760405162461bcd60e51b81526020600482015260146024820152730d2dcecc2d8d2c85ae4deeae8cae45ad2dcc8caf60631b60448201526064016104e7565b8161112e5760045491505b603b82116111765760405162461bcd60e51b81526020600482015260156024820152741a5b9d985b1a590b5bdc9858db194b5c195c9a5bd9605a1b60448201526064016104e7565b6004546005546040805192835260208301859052820152606081018290527f83bc5ab8030537fcf1d29c2334f6d22c26c82dcbe5ff03923d2cff5c692c0a7f9060800160405180910390a1600491909155600555565b6111d533610b5c565b610f075760405162461bcd60e51b81526004016104e790613ec4565b337f00000000000000000000000000000000000000000000000000000000000000006001600160a01b0316146112395760405162461bcd60e51b81526004016104e790613e91565b6001600160a01b03811661128f5760405162461bcd60e51b815260206004820152601c60248201527f6e65772d73747261746567792d616464726573732d69732d7a65726f0000000060448201526064016104e7565b7f00000000000000000000000000000000000000000000000000000000000000006001600160a01b0316816001600160a01b03166316f0115b6040518163ffffffff1660e01b815260040160206040518083038186803b1580156112f257600080fd5b505afa158015611306573d6000803e3d6000fd5b505050506040513d601f19601f8201168201806040525081019061132a9190613e3d565b6001600160a01b0316146113795760405162461bcd60e51b81526020600482015260166024820152756e6f742d76616c69642d6e65772d737472617465677960501b60448201526064016104e7565b6001546040516370a0823160e01b81526114129183916001600160a01b03909116906370a08231906113af903090600401613d38565b60206040518083038186803b1580156113c757600080fd5b505afa1580156113db573d6000803e3d6000fd5b505050506040513d601f19601f820116820180604052508101906113ff9190613f2f565b6001546001600160a01b03169190612355565b61053e817f00000000000000000000000000000000000000000000000000000000000000006001600160a01b03166370a08231306040518263ffffffff1660e01b81526004016114629190613d38565b60206040518083038186803b15801561147a57600080fd5b505afa15801561148e573d6000803e3d6000fd5b505050506040513d601f19601f820116820180604052508101906114b29190613f2f565b6001600160a01b037f0000000000000000000000000000000000000000000000000000000000000000169190612355565b7f00000000000000000000000000000000000000000000000000000000000000006001600160a01b0316630c340a246040518163ffffffff1660e01b815260040160206040518083038186803b15801561153c57600080fd5b505afa158015611550573d6000803e3d6000fd5b505050506040513d601f19601f820116820180604052508101906115749190613e3d565b6001600160a01b0316336001600160a01b0316146115a45760405162461bcd60e51b81526004016104e790613e5a565b6001600160a01b0381166115fa5760405162461bcd60e51b815260206004820152601d60248201527f6665652d636f6c6c6563746f722d616464726573732d69732d7a65726f00000060448201526064016104e7565b6002546001600160a01b03828116911614156116505760405162461bcd60e51b81526020600482015260156024820152746665652d636f6c6c6563746f722d69732d73616d6560581b60448201526064016104e7565b6002546040516001600160a01b038084169216907f0f06062680f9bd68e786e9980d9bb03d73d5620fc3b345e417b6eacb310b970690600090a3600280546001600160a01b0319166001600160a01b0392909216919091179055565b6000610ec8612385565b6116bf33610b5c565b6116db5760405162461bcd60e51b81526004016104e790613ec4565b6002546001600160a01b031661172b5760405162461bcd60e51b81526020600482015260156024820152741999594b58dbdb1b1958dd1bdc8b5b9bdd0b5cd95d605a1b60448201526064016104e7565b7f00000000000000000000000000000000000000000000000000000000000000006001600160a01b0316816001600160a01b031614156117ad5760405162461bcd60e51b815260206004820152601f60248201527f6e6f742d616c6c6f7765642d746f2d73776565702d636f6c6c61746572616c0060448201526064016104e7565b6117b681610826565b156117fa5760405162461bcd60e51b815260206004820152601460248201527306e6f742d616c6c6f7765642d746f2d73776565760641b60448201526064016104e7565b6001600160a01b03811673eeeeeeeeeeeeeeeeeeeeeeeeeeeeeeeeeeeeeeee14156118355760025461053e906001600160a01b031647612570565b6040516370a0823160e01b81526000906001600160a01b038316906370a0823190611864903090600401613d38565b60206040518083038186803b15801561187c57600080fd5b505afa158015611890573d6000803e3d6000fd5b505050506040513d601f19601f820116820180604052508101906118b49190613f2f565b600254909150610de9906001600160a01b03848116911683612355565b6000610ec86116ac565b60006118f0836001600160a01b038416612689565b90505b92915050565b60006118f0836001600160a01b0384166126d8565b611917816127cb565b5061053e7f00000000000000000000000000000000000000000000000000000000000000007f00000000000000000000000000000000000000000000000000000000000000006001600160a01b03166370a08231306040518263ffffffff1660e01b81526004016114629190613d38565b6001600160a01b038116600090815260018301602052604081205415156118f0565b801580611a335750604051636eb1769f60e11b81523060048201526001600160a01b03838116602483015284169063dd62ed3e9060440160206040518083038186803b1580156119f957600080fd5b505afa158015611a0d573d6000803e3d6000fd5b505050506040513d601f19601f82011682018060405250810190611a319190613f2f565b155b611a9e5760405162461bcd60e51b815260206004820152603660248201527f5361666545524332303a20617070726f76652066726f6d206e6f6e2d7a65726f60448201527520746f206e6f6e2d7a65726f20616c6c6f77616e636560501b60648201526084016104e7565b6040516001600160a01b038316602482015260448101829052610eb790849063095ea7b360e01b906064015b60408051601f198184030181529190526020810180516001600160e01b03166001600160e01b0319909316929092179091526127ee565b6000806000807f00000000000000000000000000000000000000000000000000000000000000006001600160a01b031663d53ddc26306040518263ffffffff1660e01b8152600401611b539190613d38565b60206040518083038186803b158015611b6b57600080fd5b505afa158015611b7f573d6000803e3d6000fd5b505050506040513d601f19601f82011682018060405250810190611ba39190613f2f565b905060007f00000000000000000000000000000000000000000000000000000000000000006001600160a01b0316639f2b2833306040518263ffffffff1660e01b8152600401611bf39190613d38565b60206040518083038186803b158015611c0b57600080fd5b505afa158015611c1f573d6000803e3d6000fd5b505050506040513d601f19601f82011682018060405250810190611c439190613f2f565b9050611c6e7f00000000000000000000000000000000000000000000000000000000000000006128c0565b6000611c78612385565b905060007f00000000000000000000000000000000000000000000000000000000000000006001600160a01b03166370a08231306040518263ffffffff1660e01b8152600401611cc89190613d38565b60206040518083038186803b158015611ce057600080fd5b505afa158015611cf4573d6000803e3d6000fd5b505050506040513d601f19601f82011682018060405250810190611d189190613f2f565b90506000611d268284613f5e565b9050600084821115611d3f57611d3c8583613f76565b90505b6000611d4b8783613f5e565b905080841015611e9b576000611d6a611d648684613f76565b876128c9565b90508015611e99577f00000000000000000000000000000000000000000000000000000000000000006001600160a01b0316632e1a7d4d611daa836128df565b6040518263ffffffff1660e01b8152600401611dc891815260200190565b600060405180830381600087803b158015611de257600080fd5b505af1158015611df6573d6000803e3d6000fd5b50506040516370a0823160e01b81526001600160a01b037f00000000000000000000000000000000000000000000000000000000000000001692506370a082319150611e46903090600401613d38565b60206040518083038186803b158015611e5e57600080fd5b505afa158015611e72573d6000803e3d6000fd5b505050506040513d601f19601f82011682018060405250810190611e969190613f2f565b94505b505b611ea584836128c9565b9150611eb082612a27565b60008715611f61576040516370a0823160e01b8152611f5e906001600160a01b037f000000000000000000000000000000000000000000000000000000000000000016906370a0823190611f08903090600401613d38565b60206040518083038186803b158015611f2057600080fd5b505afa158015611f34573d6000803e3d6000fd5b505050506040513d601f19601f82011682018060405250810190611f589190613f2f565b896128c9565b90505b60009b8c9b50909950975050505050505050565b6040516370a0823160e01b81526000906001600160a01b037f000000000000000000000000000000000000000000000000000000000000000016906370a0823190611fc4903090600401613d38565b60206040518083038186803b158015611fdc57600080fd5b505afa158015611ff0573d6000803e3d6000fd5b505050506040513d601f19601f820116820180604052508101906120149190613f2f565b9050801561053e5760405163b6b55f2560e01b8152600481018290527f00000000000000000000000000000000000000000000000000000000000000006001600160a01b03169063b6b55f2590602401600060405180830381600087803b15801561207e57600080fd5b505af1158015612092573d6000803e3d6000fd5b5050505050565b606060006120a683612b28565b9392505050565b6121016001600160a01b037f0000000000000000000000000000000000000000000000000000000000000000167f0000000000000000000000000000000000000000000000000000000000000000836119aa565b6121556001600160a01b037f0000000000000000000000000000000000000000000000000000000000000000167f0000000000000000000000000000000000000000000000000000000000000000836119aa565b60005b600360009054906101000a90046001600160a01b03166001600160a01b031663c2fba6676040518163ffffffff1660e01b815260040160206040518083038186803b1580156121a657600080fd5b505afa1580156121ba573d6000803e3d6000fd5b505050506040513d601f19601f820116820180604052508101906121de9190613f2f565b811015610de957600354604051636e74a6f760e01b815260048101839052612294916001600160a01b031690636e74a6f79060240160206040518083038186803b15801561222b57600080fd5b505afa15801561223f573d6000803e3d6000fd5b505050506040513d601f19601f820116820180604052508101906122639190613e3d565b6001600160a01b037f00000000000000000000000000000000000000000000000000000000000000001690846119aa565b600354604051636e74a6f760e01b815260048101839052612343916001600160a01b031690636e74a6f79060240160206040518083038186803b1580156122da57600080fd5b505afa1580156122ee573d6000803e3d6000fd5b505050506040513d601f19601f820116820180604052508101906123129190613e3d565b6001600160a01b037f00000000000000000000000000000000000000000000000000000000000000001690846119aa565b8061234d81613f8d565b915050612158565b6040516001600160a01b038316602482015260448101829052610eb790849063a9059cbb60e01b90606401611aca565b6000807f00000000000000000000000000000000000000000000000000000000000000006001600160a01b03166318160ddd6040518163ffffffff1660e01b815260040160206040518083038186803b1580156123e157600080fd5b505afa1580156123f5573d6000803e3d6000fd5b505050506040513d601f19601f820116820180604052508101906124199190613f2f565b90508061242757600061256a565b6040516370a0823160e01b815281906001600160a01b037f000000000000000000000000000000000000000000000000000000000000000016906370a0823190612475903090600401613d38565b60206040518083038186803b15801561248d57600080fd5b505afa1580156124a1573d6000803e3d6000fd5b505050506040513d601f19601f820116820180604052508101906124c59190613f2f565b7f00000000000000000000000000000000000000000000000000000000000000006001600160a01b031663d4c3eea06040518163ffffffff1660e01b815260040160206040518083038186803b15801561251e57600080fd5b505afa158015612532573d6000803e3d6000fd5b505050506040513d601f19601f820116820180604052508101906125569190613f2f565b6125609190613fa8565b61256a9190613fc7565b91505090565b804710156125c05760405162461bcd60e51b815260206004820152601d60248201527f416464726573733a20696e73756666696369656e742062616c616e636500000060448201526064016104e7565b6000826001600160a01b03168260405160006040518083038185875af1925050503d806000811461260d576040519150601f19603f3d011682016040523d82523d6000602084013e612612565b606091505b5050905080610eb75760405162461bcd60e51b815260206004820152603a60248201527f416464726573733a20756e61626c6520746f2073656e642076616c75652c207260448201527f6563697069656e74206d6179206861766520726576657274656400000000000060648201526084016104e7565b60008181526001830160205260408120546126d0575081546001818101845560008481526020808220909301849055845484825282860190935260409020919091556118f3565b5060006118f3565b600081815260018301602052604081205480156127c15760006126fc600183613f76565b855490915060009061271090600190613f76565b905081811461277557600086600001828154811061273057612730613fe9565b906000526020600020015490508087600001848154811061275357612753613fe9565b6000918252602080832090910192909255918252600188019052604090208390555b855486908061278657612786613fff565b6001900381819060005260206000200160009055905585600101600086815260200190815260200160002060009055600193505050506118f3565b60009150506118f3565b6000806127d6612385565b90506120a68184106127e85781612b84565b83612b84565b6000612843826040518060400160405280602081526020017f5361666545524332303a206c6f772d6c6576656c2063616c6c206661696c6564815250856001600160a01b0316612d559092919063ffffffff16565b805190915015610eb75780806020019051810190612861919061402a565b610eb75760405162461bcd60e51b815260206004820152602a60248201527f5361666545524332303a204552433230206f7065726174696f6e20646964206e6044820152691bdd081cdd58d8d9595960b21b60648201526084016104e7565b61053e81612d6c565b60008183106128d857816118f0565b5090919050565b6000807f00000000000000000000000000000000000000000000000000000000000000006001600160a01b031663d4c3eea06040518163ffffffff1660e01b815260040160206040518083038186803b15801561293b57600080fd5b505afa15801561294f573d6000803e3d6000fd5b505050506040513d601f19601f820116820180604052508101906129739190613f2f565b9050806129815760006120a6565b807f00000000000000000000000000000000000000000000000000000000000000006001600160a01b03166318160ddd6040518163ffffffff1660e01b815260040160206040518083038186803b1580156129db57600080fd5b505afa1580156129ef573d6000803e3d6000fd5b505050506040513d601f19601f82011682018060405250810190612a139190613f2f565b612a1d9085613fa8565b6120a69190613fc7565b801561053e576040516332dd0f4960e01b8152600481018290526000907f00000000000000000000000000000000000000000000000000000000000000006001600160a01b0316906332dd0f499060240160206040518083038186803b158015612a9057600080fd5b505afa158015612aa4573d6000803e3d6000fd5b505050506040513d601f19601f82011682018060405250810190612ac89190613f2f565b90508015612b1757600254612b0a906001600160a01b037f00000000000000000000000000000000000000000000000000000000000000008116911683612355565b612b148183613f76565b91505b612b2082612f42565b610de9613009565b606081600001805480602002602001604051908101604052809291908181526020018280548015612b7857602002820191906000526020600020905b815481526020019060010190808311612b64575b50505050509050919050565b6000807f00000000000000000000000000000000000000000000000000000000000000006001600160a01b03166370a08231306040518263ffffffff1660e01b8152600401612bd39190613d38565b60206040518083038186803b158015612beb57600080fd5b505afa158015612bff573d6000803e3d6000fd5b505050506040513d601f19601f82011682018060405250810190612c239190613f2f565b90507f00000000000000000000000000000000000000000000000000000000000000006001600160a01b0316632e1a7d4d612c5d856128df565b6040518263ffffffff1660e01b8152600401612c7b91815260200190565b600060405180830381600087803b158015612c9557600080fd5b505af1158015612ca9573d6000803e3d6000fd5b50506040516370a0823160e01b81528392506001600160a01b037f00000000000000000000000000000000000000000000000000000000000000001691506370a0823190612cfb903090600401613d38565b60206040518083038186803b158015612d1357600080fd5b505afa158015612d27573d6000803e3d6000fd5b505050506040513d601f19601f82011682018060405250810190612d4b9190613f2f565b6120a69190613f76565b6060612d648484600085613532565b949350505050565b60007f00000000000000000000000000000000000000000000000000000000000000006001600160a01b0316638bc6beb26040518163ffffffff1660e01b815260040160206040518083038186803b158015612dc757600080fd5b505afa158015612ddb573d6000803e3d6000fd5b505050506040513d601f19601f82011682018060405250810190612dff9190613e3d565b90506001600160a01b03811615610de95760405163d279c19160e01b81526001600160a01b0382169063d279c19190612e3c903090600401613d38565b600060405180830381600087803b158015612e5657600080fd5b505af1158015612e6a573d6000803e3d6000fd5b50506040516370a0823160e01b8152600092506001600160a01b037f00000000000000000000000000000000000000000000000000000000000000001691506370a0823190612ebd903090600401613d38565b60206040518083038186803b158015612ed557600080fd5b505afa158015612ee9573d6000803e3d6000fd5b505050506040513d601f19601f82011682018060405250810190612f0d9190613f2f565b90508015610eb757610eb77f00000000000000000000000000000000000000000000000000000000000000008483600161365a565b801561053e5760006006546127101415612f5d576001612fbb565b612fbb612fb3612fad7f00000000000000000000000000000000000000000000000000000000000000007f000000000000000000000000000000000000000000000000000000000000000061383a565b846139b8565b600654613ac7565b9050610de97f00000000000000000000000000000000000000000000000000000000000000007f0000000000000000000000000000000000000000000000000000000000000000848461365a565b6040516370a0823160e01b81526000906001600160a01b037f000000000000000000000000000000000000000000000000000000000000000016906370a0823190613058903090600401613d38565b60206040518083038186803b15801561307057600080fd5b505afa158015613084573d6000803e3d6000fd5b505050506040513d601f19601f820116820180604052508101906130a89190613f2f565b9050801561053e5760007f00000000000000000000000000000000000000000000000000000000000000006001600160a01b0316638bc6beb26040518163ffffffff1660e01b815260040160206040518083038186803b15801561310b57600080fd5b505afa15801561311f573d6000803e3d6000fd5b505050506040513d601f19601f820116820180604052508101906131439190613e3d565b90506000816001600160a01b031663e49e463b6040518163ffffffff1660e01b815260040160206040518083038186803b15801561318057600080fd5b505afa158015613194573d6000803e3d6000fd5b505050506040513d601f19601f820116820180604052508101906131b89190613e3d565b905082600b60008282546131cc9190613f5e565b90915550506001600160a01b0381161580159061328a57507f00000000000000000000000000000000000000000000000000000000000000006001600160a01b0316816001600160a01b031663fc0c546a6040518163ffffffff1660e01b815260040160206040518083038186803b15801561324757600080fd5b505afa15801561325b573d6000803e3d6000fd5b505050506040513d601f19601f8201168201806040525081019061327f9190613e3d565b6001600160a01b0316145b15613475576040516370a0823160e01b81526000906001600160a01b038316906370a08231906132be903090600401613d38565b60206040518083038186803b1580156132d657600080fd5b505afa1580156132ea573d6000803e3d6000fd5b505050506040513d601f19601f8201168201806040525081019061330e9190613f2f565b60405163b6b55f2560e01b8152600481018690529091506001600160a01b0383169063b6b55f2590602401600060405180830381600087803b15801561335357600080fd5b505af1158015613367573d6000803e3d6000fd5b50505050600081836001600160a01b03166370a08231306040518263ffffffff1660e01b815260040161339a9190613d38565b60206040518083038186803b1580156133b257600080fd5b505afa1580156133c6573d6000803e3d6000fd5b505050506040513d601f19601f820116820180604052508101906133ea9190613f2f565b6133f49190613f76565b905061340a6001600160a01b0384168583612355565b600a546040516328f362b160e21b81526001600160a01b0386169163a3cd8ac49161343c918791869190600401614045565b600060405180830381600087803b15801561345657600080fd5b505af115801561346a573d6000803e3d6000fd5b505050505050505050565b6134a96001600160a01b037f0000000000000000000000000000000000000000000000000000000000000000168385612355565b600a546040516328f362b160e21b81526001600160a01b0384169163a3cd8ac4916134fb917f000000000000000000000000000000000000000000000000000000000000000091889190600401614045565b600060405180830381600087803b15801561351557600080fd5b505af1158015613529573d6000803e3d6000fd5b50505050505050565b6060824710156135935760405162461bcd60e51b815260206004820152602660248201527f416464726573733a20696e73756666696369656e742062616c616e636520666f6044820152651c8818d85b1b60d21b60648201526084016104e7565b843b6135e15760405162461bcd60e51b815260206004820152601d60248201527f416464726573733a2063616c6c20746f206e6f6e2d636f6e747261637400000060448201526064016104e7565b600080866001600160a01b031685876040516135fd9190614066565b60006040518083038185875af1925050503d806000811461363a576040519150601f19603f3d011682016040523d82523d6000602084013e61363f565b606091505b509150915061364f828286613aea565b979650505050505050565b826001600160a01b0316846001600160a01b0316141561367957613834565b600354604051631d1f307960e31b81526001600160a01b038681166004830152858116602483015260448201859052600092839283929091169063e8f983c89060640160006040518083038186803b1580156136d457600080fd5b505afa1580156136e8573d6000803e3d6000fd5b505050506040513d6000823e601f3d908101601f1916820160405261371091908101906140ed565b925092509250836000141561372457600193505b811561352957600354604051636e74a6f760e01b8152600481018390526001600160a01b0390911690636e74a6f79060240160206040518083038186803b15801561376e57600080fd5b505afa158015613782573d6000803e3d6000fd5b505050506040513d601f19601f820116820180604052508101906137a69190613e3d565b6001600160a01b03166338ed173986868630426040518663ffffffff1660e01b81526004016137d995949392919061419f565b600060405180830381600087803b1580156137f357600080fd5b505af1158015613807573d6000803e3d6000fd5b505050506040513d6000823e601f3d908101601f1916820160405261382f91908101906141db565b505050505b50505050565b6000546060906001600160a01b038481169116148061386657506000546001600160a01b038381169116145b156138f8576040805160028082526060820183529091602083019080368337019050509050828160008151811061389f5761389f613fe9565b60200260200101906001600160a01b031690816001600160a01b03168152505081816001815181106138d3576138d3613fe9565b60200260200101906001600160a01b031690816001600160a01b0316815250506118f3565b604080516003808252608082019092529060208201606080368337019050509050828160008151811061392d5761392d613fe9565b6001600160a01b03928316602091820292909201015260005482519116908290600190811061395e5761395e613fe9565b60200260200101906001600160a01b031690816001600160a01b031681525050818160028151811061399257613992613fe9565b60200260200101906001600160a01b031690816001600160a01b03168152505092915050565b60006001835111613a015760405162461bcd60e51b81526020600482015260136024820152720d2dcecc2d8d2c85adee4c2c6d8ca5ae0c2e8d606b1b60448201526064016104e7565b50806000805b60018551613a159190613f76565b811015613abf57613a65858281518110613a3157613a31613fe9565b602002602001015186836001613a479190613f5e565b81518110613a5757613a57613fe9565b602002602001015185613b23565b909350915081613aad5760405162461bcd60e51b8152602060048201526013602482015272696e76616c69642d6f7261636c652d7261746560681b60448201526064016104e7565b80613ab781613f8d565b915050613a07565b505092915050565b6000612710613ad68382613f76565b613ae09085613fa8565b6118f09190613fc7565b60608315613af95750816120a6565b825115613b095782518084602001fd5b8160405162461bcd60e51b81526004016104e79190613de8565b60008060005b600360009054906101000a90046001600160a01b03166001600160a01b031663c2fba6676040518163ffffffff1660e01b815260040160206040518083038186803b158015613b7757600080fd5b505afa158015613b8b573d6000803e3d6000fd5b505050506040513d601f19601f82011682018060405250810190613baf9190613f2f565b811015613cf557600354600454604080516001600160a01b038a811660208301528981168284015260608201899052608082019390935260a08082018690528251808303909101815260c0820190925260009384931691613c1c9163b67bb24d60e01b919060e001614261565b60408051601f1981840301815290829052613c3691614066565b6000604051808303816000865af19150503d8060008114613c73576040519150601f19603f3d011682016040523d82523d6000602084013e613c78565b606091505b50915091508115613ce05760008082806020019051810190613c9a9190614292565b509150915060045442613cad9190613f76565b81118015613cba57508115155b15613ccf5750945060019350613cfe92505050565b600080965096505050505050613cfe565b50508080613ced90613f8d565b915050613b29565b50600080915091505b935093915050565b6001600160a01b038116811461053e57600080fd5b600060208284031215613d2d57600080fd5b81356120a681613d06565b6001600160a01b0391909116815260200190565b600060208284031215613d5e57600080fd5b5035919050565b600081518084526020808501945080840160005b83811015613d9e5781516001600160a01b031687529582019590820190600101613d79565b509495945050505050565b6020815260006118f06020830184613d65565b60005b83811015613dd7578181015183820152602001613dbf565b838111156138345750506000910152565b6020815260008251806020840152613e07816040850160208701613dbc565b601f01601f19169190910160400192915050565b60008060408385031215613e2e57600080fd5b50508035926020909101359150565b600060208284031215613e4f57600080fd5b81516120a681613d06565b6020808252601a908201527f63616c6c65722d69732d6e6f742d7468652d676f7665726e6f72000000000000604082015260600190565b60208082526019908201527818d85b1b195c8b5a5ccb5b9bdd0b5d995cdc195c8b5c1bdbdb603a1b604082015260600190565b60208082526016908201527531b0b63632b916b4b996b737ba16b096b5b2b2b832b960511b604082015260600190565b600181811c90821680613f0857607f821691505b60208210811415613f2957634e487b7160e01b600052602260045260246000fd5b50919050565b600060208284031215613f4157600080fd5b5051919050565b634e487b7160e01b600052601160045260246000fd5b60008219821115613f7157613f71613f48565b500190565b600082821015613f8857613f88613f48565b500390565b6000600019821415613fa157613fa1613f48565b5060010190565b6000816000190483118215151615613fc257613fc2613f48565b500290565b600082613fe457634e487b7160e01b600052601260045260246000fd5b500490565b634e487b7160e01b600052603260045260246000fd5b634e487b7160e01b600052603160045260246000fd5b8051801515811461402557600080fd5b919050565b60006020828403121561403c57600080fd5b6118f082614015565b6001600160a01b039390931683526020830191909152604082015260600190565b60008251614078818460208701613dbc565b9190910192915050565b634e487b7160e01b600052604160045260246000fd5b604051601f8201601f1916810167ffffffffffffffff811182821017156140c1576140c1614082565b604052919050565b600067ffffffffffffffff8211156140e3576140e3614082565b5060051b60200190565b60008060006060848603121561410257600080fd5b835167ffffffffffffffff81111561411957600080fd5b8401601f8101861361412a57600080fd5b8051602061413f61413a836140c9565b614098565b82815260059290921b8301810191818101908984111561415e57600080fd5b938201935b8385101561418557845161417681613d06565b82529382019390820190614163565b918801516040909801519199979850909695505050505050565b85815284602082015260a0604082015260006141be60a0830186613d65565b6001600160a01b0394909416606083015250608001529392505050565b600060208083850312156141ee57600080fd5b825167ffffffffffffffff81111561420557600080fd5b8301601f8101851361421657600080fd5b805161422461413a826140c9565b81815260059190911b8201830190838101908783111561424357600080fd5b928401925b8284101561364f57835182529284019290840190614248565b6001600160e01b0319831681528151600090614284816004850160208701613dbc565b919091016004019392505050565b6000806000606084860312156142a757600080fd5b83519250602084015191506142be60408501614015565b9050925092509256fea26469706673582212208ba60c5a053e4e8e111d39836bc7e4a06c17fd3fb941fc4f0b67c36d04f9b80064736f6c63430008090033",
  "devdoc": {
    "kind": "dev",
    "methods": {
      "addKeeper(address)": {
        "params": {
          "_keeperAddress": "keeper address to add."
        }
      },
      "approveGrowToken()": {
        "details": "Approves EarnDrip' Grow token to spend dripToken"
      },
      "approveToken()": {
        "details": "Approve all required tokens"
      },
      "migrate(address)": {
        "details": "_beforeMigration hook can be implemented in child strategy to do extra steps.",
        "params": {
          "_newStrategy": "Address of new strategy"
        }
      },
      "rebalance()": {
        "details": "Rebalance profit, loss and investment of this strategy"
      },
      "removeKeeper(address)": {
        "params": {
          "_keeperAddress": "keeper address to remove."
        }
      },
      "sweepERC20(address)": {
        "details": "sweep given token to feeCollector of strategy",
        "params": {
          "_fromToken": "token address to sweep"
        }
      },
      "totalValue()": {
        "details": "Report total value in collateral token"
      },
      "totalValueCurrent()": {
        "details": "Report total value in collateral token"
      },
      "updateDripPeriod(uint256)": {
        "details": "_dripPeriod in seconds"
      },
      "updateFeeCollector(address)": {
        "params": {
          "_feeCollector": "fee collector address"
        }
      },
      "updateSwapManager(address)": {
        "params": {
          "_swapManager": "swap manager address"
        }
      },
      "withdraw(uint256)": {
        "details": "Withdraw collateral token from lending pool.",
        "params": {
          "_amount": "Amount of collateral token"
        }
      }
    },
    "title": "This Earn strategy will deposit collateral token in a Vesper Grow Pool and converts the yield to another Drip Token",
    "version": 1
  },
  "userdoc": {
    "kind": "user",
    "methods": {
      "addKeeper(address)": {
        "notice": "Add given address in keepers list."
      },
      "isReservedToken(address)": {
        "notice": "Check whether given token is reserved or not. Reserved tokens are not allowed to sweep."
      },
      "keepers()": {
        "notice": "Return list of keepers"
      },
      "migrate(address)": {
        "notice": "Migrate all asset and vault ownership,if any, to new strategy"
      },
      "removeKeeper(address)": {
        "notice": "Remove given address from keepers list."
      },
      "token()": {
        "notice": "Returns address of token correspond to collateral token"
      },
      "totalValue()": {
        "notice": "Calculate total value using underlying vToken"
      },
      "totalValueCurrent()": {
        "notice": "Calculate total value of asset under management (in real-time)"
      },
      "updateDripPeriod(uint256)": {
        "notice": "Update update period of distribution of earning done in one rebalance"
      },
      "updateFeeCollector(address)": {
        "notice": "Update fee collector"
      },
      "updateSwapManager(address)": {
        "notice": "Update swap manager address"
      }
    },
    "version": 1
  },
  "storageLayout": {
    "storage": [
      {
        "astId": 13959,
        "contract": "contracts/strategies/vesper/earn/EarnVesperStrategy.sol:EarnVesperStrategy",
        "label": "WETH",
        "offset": 0,
        "slot": "0",
        "type": "t_address"
      },
      {
        "astId": 13964,
        "contract": "contracts/strategies/vesper/earn/EarnVesperStrategy.sol:EarnVesperStrategy",
        "label": "receiptToken",
        "offset": 0,
        "slot": "1",
        "type": "t_address"
      },
      {
        "astId": 13970,
        "contract": "contracts/strategies/vesper/earn/EarnVesperStrategy.sol:EarnVesperStrategy",
        "label": "feeCollector",
        "offset": 0,
        "slot": "2",
        "type": "t_address"
      },
      {
        "astId": 13973,
        "contract": "contracts/strategies/vesper/earn/EarnVesperStrategy.sol:EarnVesperStrategy",
        "label": "swapManager",
        "offset": 0,
        "slot": "3",
        "type": "t_contract(ISwapManager)5716"
      },
      {
        "astId": 13976,
        "contract": "contracts/strategies/vesper/earn/EarnVesperStrategy.sol:EarnVesperStrategy",
        "label": "oraclePeriod",
        "offset": 0,
        "slot": "4",
        "type": "t_uint256"
      },
      {
        "astId": 13979,
        "contract": "contracts/strategies/vesper/earn/EarnVesperStrategy.sol:EarnVesperStrategy",
        "label": "oracleRouterIdx",
        "offset": 0,
        "slot": "5",
        "type": "t_uint256"
      },
      {
        "astId": 13982,
        "contract": "contracts/strategies/vesper/earn/EarnVesperStrategy.sol:EarnVesperStrategy",
        "label": "swapSlippage",
        "offset": 0,
        "slot": "6",
        "type": "t_uint256"
      },
      {
        "astId": 13985,
        "contract": "contracts/strategies/vesper/earn/EarnVesperStrategy.sol:EarnVesperStrategy",
        "label": "_keepers",
        "offset": 0,
        "slot": "7",
        "type": "t_struct(AddressSet)4634_storage"
      },
      {
        "astId": 43766,
        "contract": "contracts/strategies/vesper/earn/EarnVesperStrategy.sol:EarnVesperStrategy",
        "label": "NAME",
        "offset": 0,
        "slot": "9",
        "type": "t_string_storage"
      },
      {
        "astId": 13587,
        "contract": "contracts/strategies/vesper/earn/EarnVesperStrategy.sol:EarnVesperStrategy",
        "label": "dripPeriod",
        "offset": 0,
        "slot": "10",
        "type": "t_uint256"
      },
      {
        "astId": 13589,
        "contract": "contracts/strategies/vesper/earn/EarnVesperStrategy.sol:EarnVesperStrategy",
        "label": "totalEarned",
        "offset": 0,
        "slot": "11",
        "type": "t_uint256"
      }
    ],
    "types": {
      "t_address": {
        "encoding": "inplace",
        "label": "address",
        "numberOfBytes": "20"
      },
      "t_array(t_bytes32)dyn_storage": {
        "base": "t_bytes32",
        "encoding": "dynamic_array",
        "label": "bytes32[]",
        "numberOfBytes": "32"
      },
      "t_bytes32": {
        "encoding": "inplace",
        "label": "bytes32",
        "numberOfBytes": "32"
      },
      "t_contract(ISwapManager)5716": {
        "encoding": "inplace",
        "label": "contract ISwapManager",
        "numberOfBytes": "20"
      },
      "t_mapping(t_bytes32,t_uint256)": {
        "encoding": "mapping",
        "key": "t_bytes32",
        "label": "mapping(bytes32 => uint256)",
        "numberOfBytes": "32",
        "value": "t_uint256"
      },
      "t_string_storage": {
        "encoding": "bytes",
        "label": "string",
        "numberOfBytes": "32"
      },
      "t_struct(AddressSet)4634_storage": {
        "encoding": "inplace",
        "label": "struct EnumerableSet.AddressSet",
        "members": [
          {
            "astId": 4633,
            "contract": "contracts/strategies/vesper/earn/EarnVesperStrategy.sol:EarnVesperStrategy",
            "label": "_inner",
            "offset": 0,
            "slot": "0",
            "type": "t_struct(Set)4333_storage"
          }
        ],
        "numberOfBytes": "64"
      },
      "t_struct(Set)4333_storage": {
        "encoding": "inplace",
        "label": "struct EnumerableSet.Set",
        "members": [
          {
            "astId": 4328,
            "contract": "contracts/strategies/vesper/earn/EarnVesperStrategy.sol:EarnVesperStrategy",
            "label": "_values",
            "offset": 0,
            "slot": "0",
            "type": "t_array(t_bytes32)dyn_storage"
          },
          {
            "astId": 4332,
            "contract": "contracts/strategies/vesper/earn/EarnVesperStrategy.sol:EarnVesperStrategy",
            "label": "_indexes",
            "offset": 0,
            "slot": "1",
            "type": "t_mapping(t_bytes32,t_uint256)"
          }
        ],
        "numberOfBytes": "64"
      },
      "t_uint256": {
        "encoding": "inplace",
        "label": "uint256",
        "numberOfBytes": "32"
      }
    }
  }
}