{
  "address": "0xD6108a9da51211a039e0547fE981803Bd948d91f",
  "abi": [
    {
      "inputs": [
        {
          "internalType": "string",
          "name": "_name",
          "type": "string"
        },
        {
          "internalType": "string",
          "name": "_symbol",
          "type": "string"
        },
        {
          "internalType": "address",
          "name": "_token",
          "type": "address"
        }
      ],
      "stateMutability": "nonpayable",
      "type": "constructor"
    },
    {
      "anonymous": false,
      "inputs": [
        {
          "indexed": true,
          "internalType": "address",
          "name": "owner",
          "type": "address"
        },
        {
          "indexed": true,
          "internalType": "address",
          "name": "spender",
          "type": "address"
        },
        {
          "indexed": false,
          "internalType": "uint256",
          "name": "value",
          "type": "uint256"
        }
      ],
      "name": "Approval",
      "type": "event"
    },
    {
      "anonymous": false,
      "inputs": [
        {
          "indexed": true,
          "internalType": "address",
          "name": "owner",
          "type": "address"
        },
        {
          "indexed": false,
          "internalType": "uint256",
          "name": "shares",
          "type": "uint256"
        },
        {
          "indexed": false,
          "internalType": "uint256",
          "name": "amount",
          "type": "uint256"
        }
      ],
      "name": "Deposit",
      "type": "event"
    },
    {
      "anonymous": false,
      "inputs": [
        {
          "indexed": false,
          "internalType": "address",
          "name": "account",
          "type": "address"
        }
      ],
      "name": "Open",
      "type": "event"
    },
    {
      "anonymous": false,
      "inputs": [
        {
          "indexed": false,
          "internalType": "address",
          "name": "account",
          "type": "address"
        }
      ],
      "name": "Paused",
      "type": "event"
    },
    {
      "anonymous": false,
      "inputs": [
        {
          "indexed": false,
          "internalType": "address",
          "name": "account",
          "type": "address"
        }
      ],
      "name": "Shutdown",
      "type": "event"
    },
    {
      "anonymous": false,
      "inputs": [
        {
          "indexed": true,
          "internalType": "address",
          "name": "from",
          "type": "address"
        },
        {
          "indexed": true,
          "internalType": "address",
          "name": "to",
          "type": "address"
        },
        {
          "indexed": false,
          "internalType": "uint256",
          "name": "value",
          "type": "uint256"
        }
      ],
      "name": "Transfer",
      "type": "event"
    },
    {
      "anonymous": false,
      "inputs": [
        {
          "indexed": false,
          "internalType": "address",
          "name": "account",
          "type": "address"
        }
      ],
      "name": "Unpaused",
      "type": "event"
    },
    {
      "anonymous": false,
      "inputs": [
        {
          "indexed": true,
          "internalType": "address",
          "name": "previousFeeCollector",
          "type": "address"
        },
        {
          "indexed": true,
          "internalType": "address",
          "name": "newFeeCollector",
          "type": "address"
        }
      ],
      "name": "UpdatedFeeCollector",
      "type": "event"
    },
    {
      "anonymous": false,
      "inputs": [
        {
          "indexed": true,
          "internalType": "address",
          "name": "previousGovernor",
          "type": "address"
        },
        {
          "indexed": true,
          "internalType": "address",
          "name": "proposedGovernor",
          "type": "address"
        }
      ],
      "name": "UpdatedGovernor",
      "type": "event"
    },
    {
      "anonymous": false,
      "inputs": [
        {
          "indexed": true,
          "internalType": "address",
          "name": "previousPoolRewards",
          "type": "address"
        },
        {
          "indexed": true,
          "internalType": "address",
          "name": "newPoolRewards",
          "type": "address"
        }
      ],
      "name": "UpdatedPoolRewards",
      "type": "event"
    },
    {
      "anonymous": false,
      "inputs": [
        {
          "indexed": false,
          "internalType": "uint256",
          "name": "previousWithdrawFee",
          "type": "uint256"
        },
        {
          "indexed": false,
          "internalType": "uint256",
          "name": "newWithdrawFee",
          "type": "uint256"
        }
      ],
      "name": "UpdatedWithdrawFee",
      "type": "event"
    },
    {
      "anonymous": false,
      "inputs": [
        {
          "indexed": true,
          "internalType": "address",
          "name": "owner",
          "type": "address"
        },
        {
          "indexed": false,
          "internalType": "uint256",
          "name": "shares",
          "type": "uint256"
        },
        {
          "indexed": false,
          "internalType": "uint256",
          "name": "amount",
          "type": "uint256"
        }
      ],
      "name": "Withdraw",
      "type": "event"
    },
    {
      "inputs": [],
      "name": "DOMAIN_SEPARATOR",
      "outputs": [
        {
          "internalType": "bytes32",
          "name": "",
          "type": "bytes32"
        }
      ],
      "stateMutability": "view",
      "type": "function"
    },
    {
      "inputs": [],
      "name": "MAX_BPS",
      "outputs": [
        {
          "internalType": "uint256",
          "name": "",
          "type": "uint256"
        }
      ],
      "stateMutability": "view",
      "type": "function"
    },
    {
      "inputs": [],
      "name": "VERSION",
      "outputs": [
        {
          "internalType": "string",
          "name": "",
          "type": "string"
        }
      ],
      "stateMutability": "view",
      "type": "function"
    },
    {
      "inputs": [],
      "name": "acceptGovernorship",
      "outputs": [],
      "stateMutability": "nonpayable",
      "type": "function"
    },
    {
      "inputs": [
        {
          "internalType": "address",
          "name": "_keeperAddress",
          "type": "address"
        }
      ],
      "name": "addKeeper",
      "outputs": [],
      "stateMutability": "nonpayable",
      "type": "function"
    },
    {
      "inputs": [
        {
          "internalType": "address",
          "name": "_maintainerAddress",
          "type": "address"
        }
      ],
      "name": "addMaintainer",
      "outputs": [],
      "stateMutability": "nonpayable",
      "type": "function"
    },
    {
      "inputs": [
        {
          "internalType": "address",
          "name": "_addressToAdd",
          "type": "address"
        }
      ],
      "name": "addToFeeWhitelist",
      "outputs": [],
      "stateMutability": "nonpayable",
      "type": "function"
    },
    {
      "inputs": [
        {
          "internalType": "address",
          "name": "owner",
          "type": "address"
        },
        {
          "internalType": "address",
          "name": "spender",
          "type": "address"
        }
      ],
      "name": "allowance",
      "outputs": [
        {
          "internalType": "uint256",
          "name": "",
          "type": "uint256"
        }
      ],
      "stateMutability": "view",
      "type": "function"
    },
    {
      "inputs": [
        {
          "internalType": "address",
          "name": "spender",
          "type": "address"
        },
        {
          "internalType": "uint256",
          "name": "amount",
          "type": "uint256"
        }
      ],
      "name": "approve",
      "outputs": [
        {
          "internalType": "bool",
          "name": "",
          "type": "bool"
        }
      ],
      "stateMutability": "nonpayable",
      "type": "function"
    },
    {
      "inputs": [
        {
          "internalType": "address",
          "name": "_strategy",
          "type": "address"
        }
      ],
      "name": "availableCreditLimit",
      "outputs": [
        {
          "internalType": "uint256",
          "name": "",
          "type": "uint256"
        }
      ],
      "stateMutability": "view",
      "type": "function"
    },
    {
      "inputs": [
        {
          "internalType": "address",
          "name": "account",
          "type": "address"
        }
      ],
      "name": "balanceOf",
      "outputs": [
        {
          "internalType": "uint256",
          "name": "",
          "type": "uint256"
        }
      ],
      "stateMutability": "view",
      "type": "function"
    },
    {
      "inputs": [
        {
          "internalType": "uint256",
          "name": "_amount",
          "type": "uint256"
        }
      ],
      "name": "calculateMintage",
      "outputs": [
        {
          "internalType": "uint256",
          "name": "_shares",
          "type": "uint256"
        }
      ],
      "stateMutability": "view",
      "type": "function"
    },
    {
      "inputs": [
        {
          "internalType": "uint256",
          "name": "_amount",
          "type": "uint256"
        }
      ],
      "name": "convertFrom18",
      "outputs": [
        {
          "internalType": "uint256",
          "name": "",
          "type": "uint256"
        }
      ],
      "stateMutability": "view",
      "type": "function"
    },
    {
      "inputs": [],
      "name": "decimalConversionFactor",
      "outputs": [
        {
          "internalType": "uint256",
          "name": "",
          "type": "uint256"
        }
      ],
      "stateMutability": "view",
      "type": "function"
    },
    {
      "inputs": [],
      "name": "decimals",
      "outputs": [
        {
          "internalType": "uint8",
          "name": "",
          "type": "uint8"
        }
      ],
      "stateMutability": "view",
      "type": "function"
    },
    {
      "inputs": [
        {
          "internalType": "address",
          "name": "spender",
          "type": "address"
        },
        {
          "internalType": "uint256",
          "name": "subtractedValue",
          "type": "uint256"
        }
      ],
      "name": "decreaseAllowance",
      "outputs": [
        {
          "internalType": "bool",
          "name": "",
          "type": "bool"
        }
      ],
      "stateMutability": "nonpayable",
      "type": "function"
    },
    {
      "inputs": [
        {
          "internalType": "uint256",
          "name": "_amount",
          "type": "uint256"
        }
      ],
      "name": "deposit",
      "outputs": [],
      "stateMutability": "nonpayable",
      "type": "function"
    },
    {
      "inputs": [],
      "name": "deposit",
      "outputs": [],
      "stateMutability": "payable",
      "type": "function"
    },
    {
      "inputs": [
        {
          "internalType": "uint256",
          "name": "_amount",
          "type": "uint256"
        }
      ],
      "name": "depositAndClaim",
      "outputs": [],
      "stateMutability": "nonpayable",
      "type": "function"
    },
    {
      "inputs": [],
      "name": "depositAndClaim",
      "outputs": [],
      "stateMutability": "payable",
      "type": "function"
    },
    {
      "inputs": [
        {
          "internalType": "uint256",
          "name": "_amount",
          "type": "uint256"
        },
        {
          "internalType": "uint256",
          "name": "_deadline",
          "type": "uint256"
        },
        {
          "internalType": "uint8",
          "name": "_v",
          "type": "uint8"
        },
        {
          "internalType": "bytes32",
          "name": "_r",
          "type": "bytes32"
        },
        {
          "internalType": "bytes32",
          "name": "_s",
          "type": "bytes32"
        }
      ],
      "name": "depositWithPermit",
      "outputs": [],
      "stateMutability": "nonpayable",
      "type": "function"
    },
    {
      "inputs": [
        {
          "internalType": "address",
          "name": "_strategy",
          "type": "address"
        }
      ],
      "name": "excessDebt",
      "outputs": [
        {
          "internalType": "uint256",
          "name": "",
          "type": "uint256"
        }
      ],
      "stateMutability": "view",
      "type": "function"
    },
    {
      "inputs": [],
      "name": "feeCollector",
      "outputs": [
        {
          "internalType": "address",
          "name": "",
          "type": "address"
        }
      ],
      "stateMutability": "view",
      "type": "function"
    },
    {
      "inputs": [],
      "name": "feeWhitelist",
      "outputs": [
        {
          "internalType": "address[]",
          "name": "",
          "type": "address[]"
        }
      ],
      "stateMutability": "view",
      "type": "function"
    },
    {
      "inputs": [],
      "name": "getStrategies",
      "outputs": [
        {
          "internalType": "address[]",
          "name": "",
          "type": "address[]"
        }
      ],
      "stateMutability": "view",
      "type": "function"
    },
    {
      "inputs": [],
      "name": "getWithdrawQueue",
      "outputs": [
        {
          "internalType": "address[]",
          "name": "",
          "type": "address[]"
        }
      ],
      "stateMutability": "view",
      "type": "function"
    },
    {
      "inputs": [],
      "name": "governor",
      "outputs": [
        {
          "internalType": "address",
          "name": "",
          "type": "address"
        }
      ],
      "stateMutability": "view",
      "type": "function"
    },
    {
      "inputs": [
        {
          "internalType": "address",
          "name": "spender",
          "type": "address"
        },
        {
          "internalType": "uint256",
          "name": "addedValue",
          "type": "uint256"
        }
      ],
      "name": "increaseAllowance",
      "outputs": [
        {
          "internalType": "bool",
          "name": "",
          "type": "bool"
        }
      ],
      "stateMutability": "nonpayable",
      "type": "function"
    },
    {
      "inputs": [
        {
          "internalType": "string",
          "name": "_name",
          "type": "string"
        },
        {
          "internalType": "string",
          "name": "_symbol",
          "type": "string"
        },
        {
          "internalType": "address",
          "name": "_token",
          "type": "address"
        },
        {
          "internalType": "address",
          "name": "_poolAccountant",
          "type": "address"
        }
      ],
      "name": "initialize",
      "outputs": [],
      "stateMutability": "nonpayable",
      "type": "function"
    },
    {
      "inputs": [
        {
          "internalType": "address",
          "name": "_address",
          "type": "address"
        }
      ],
      "name": "isFeeWhitelisted",
      "outputs": [
        {
          "internalType": "bool",
          "name": "",
          "type": "bool"
        }
      ],
      "stateMutability": "view",
      "type": "function"
    },
    {
      "inputs": [
        {
          "internalType": "address",
          "name": "_address",
          "type": "address"
        }
      ],
      "name": "isKeeper",
      "outputs": [
        {
          "internalType": "bool",
          "name": "",
          "type": "bool"
        }
      ],
      "stateMutability": "view",
      "type": "function"
    },
    {
      "inputs": [
        {
          "internalType": "address",
          "name": "_address",
          "type": "address"
        }
      ],
      "name": "isMaintainer",
      "outputs": [
        {
          "internalType": "bool",
          "name": "",
          "type": "bool"
        }
      ],
      "stateMutability": "view",
      "type": "function"
    },
    {
      "inputs": [],
      "name": "keepers",
      "outputs": [
        {
          "internalType": "address[]",
          "name": "",
          "type": "address[]"
        }
      ],
      "stateMutability": "view",
      "type": "function"
    },
    {
      "inputs": [],
      "name": "maintainers",
      "outputs": [
        {
          "internalType": "address[]",
          "name": "",
          "type": "address[]"
        }
      ],
      "stateMutability": "view",
      "type": "function"
    },
    {
      "inputs": [
        {
          "internalType": "address",
          "name": "_old",
          "type": "address"
        },
        {
          "internalType": "address",
          "name": "_new",
          "type": "address"
        }
      ],
      "name": "migrateStrategy",
      "outputs": [],
      "stateMutability": "nonpayable",
      "type": "function"
    },
    {
      "inputs": [
        {
          "internalType": "address[]",
          "name": "_recipients",
          "type": "address[]"
        },
        {
          "internalType": "uint256[]",
          "name": "_amounts",
          "type": "uint256[]"
        }
      ],
      "name": "multiTransfer",
      "outputs": [
        {
          "internalType": "bool",
          "name": "",
          "type": "bool"
        }
      ],
      "stateMutability": "nonpayable",
      "type": "function"
    },
    {
      "inputs": [],
      "name": "name",
      "outputs": [
        {
          "internalType": "string",
          "name": "",
          "type": "string"
        }
      ],
      "stateMutability": "view",
      "type": "function"
    },
    {
      "inputs": [
        {
          "internalType": "address",
          "name": "",
          "type": "address"
        }
      ],
      "name": "nonces",
      "outputs": [
        {
          "internalType": "uint256",
          "name": "",
          "type": "uint256"
        }
      ],
      "stateMutability": "view",
      "type": "function"
    },
    {
      "inputs": [],
      "name": "open",
      "outputs": [],
      "stateMutability": "nonpayable",
      "type": "function"
    },
    {
      "inputs": [],
      "name": "pause",
      "outputs": [],
      "stateMutability": "nonpayable",
      "type": "function"
    },
    {
      "inputs": [],
      "name": "paused",
      "outputs": [
        {
          "internalType": "bool",
          "name": "",
          "type": "bool"
        }
      ],
      "stateMutability": "view",
      "type": "function"
    },
    {
      "inputs": [
        {
          "internalType": "address",
          "name": "owner",
          "type": "address"
        },
        {
          "internalType": "address",
          "name": "spender",
          "type": "address"
        },
        {
          "internalType": "uint256",
          "name": "value",
          "type": "uint256"
        },
        {
          "internalType": "uint256",
          "name": "deadline",
          "type": "uint256"
        },
        {
          "internalType": "uint8",
          "name": "v",
          "type": "uint8"
        },
        {
          "internalType": "bytes32",
          "name": "r",
          "type": "bytes32"
        },
        {
          "internalType": "bytes32",
          "name": "s",
          "type": "bytes32"
        }
      ],
      "name": "permit",
      "outputs": [],
      "stateMutability": "nonpayable",
      "type": "function"
    },
    {
      "inputs": [],
      "name": "poolAccountant",
      "outputs": [
        {
          "internalType": "address",
          "name": "",
          "type": "address"
        }
      ],
      "stateMutability": "view",
      "type": "function"
    },
    {
      "inputs": [],
      "name": "poolRewards",
      "outputs": [
        {
          "internalType": "address",
          "name": "",
          "type": "address"
        }
      ],
      "stateMutability": "view",
      "type": "function"
    },
    {
      "inputs": [],
      "name": "pricePerShare",
      "outputs": [
        {
          "internalType": "uint256",
          "name": "",
          "type": "uint256"
        }
      ],
      "stateMutability": "view",
      "type": "function"
    },
    {
      "inputs": [
        {
          "internalType": "address",
          "name": "_addressToRemove",
          "type": "address"
        }
      ],
      "name": "removeFromFeeWhitelist",
      "outputs": [],
      "stateMutability": "nonpayable",
      "type": "function"
    },
    {
      "inputs": [
        {
          "internalType": "address",
          "name": "_keeperAddress",
          "type": "address"
        }
      ],
      "name": "removeKeeper",
      "outputs": [],
      "stateMutability": "nonpayable",
      "type": "function"
    },
    {
      "inputs": [
        {
          "internalType": "address",
          "name": "_maintainerAddress",
          "type": "address"
        }
      ],
      "name": "removeMaintainer",
      "outputs": [],
      "stateMutability": "nonpayable",
      "type": "function"
    },
    {
      "inputs": [
        {
          "internalType": "uint256",
          "name": "_profit",
          "type": "uint256"
        },
        {
          "internalType": "uint256",
          "name": "_loss",
          "type": "uint256"
        },
        {
          "internalType": "uint256",
          "name": "_payback",
          "type": "uint256"
        }
      ],
      "name": "reportEarning",
      "outputs": [],
      "stateMutability": "nonpayable",
      "type": "function"
    },
    {
      "inputs": [
        {
          "internalType": "uint256",
          "name": "_loss",
          "type": "uint256"
        }
      ],
      "name": "reportLoss",
      "outputs": [],
      "stateMutability": "nonpayable",
      "type": "function"
    },
    {
      "inputs": [],
      "name": "shutdown",
      "outputs": [],
      "stateMutability": "nonpayable",
      "type": "function"
    },
    {
      "inputs": [],
      "name": "stopEverything",
      "outputs": [
        {
          "internalType": "bool",
          "name": "",
          "type": "bool"
        }
      ],
      "stateMutability": "view",
      "type": "function"
    },
    {
      "inputs": [
        {
          "internalType": "address",
          "name": "_strategy",
          "type": "address"
        }
      ],
      "name": "strategy",
      "outputs": [
        {
          "internalType": "bool",
          "name": "_active",
          "type": "bool"
        },
        {
          "internalType": "uint256",
          "name": "_interestFee",
          "type": "uint256"
        },
        {
          "internalType": "uint256",
          "name": "_debtRate",
          "type": "uint256"
        },
        {
          "internalType": "uint256",
          "name": "_lastRebalance",
          "type": "uint256"
        },
        {
          "internalType": "uint256",
          "name": "_totalDebt",
          "type": "uint256"
        },
        {
          "internalType": "uint256",
          "name": "_totalLoss",
          "type": "uint256"
        },
        {
          "internalType": "uint256",
          "name": "_totalProfit",
          "type": "uint256"
        },
        {
          "internalType": "uint256",
          "name": "_debtRatio",
          "type": "uint256"
        },
        {
          "internalType": "uint256",
          "name": "_externalDepositFee",
          "type": "uint256"
        }
      ],
      "stateMutability": "view",
      "type": "function"
    },
    {
      "inputs": [
        {
          "internalType": "address",
          "name": "_fromToken",
          "type": "address"
        }
      ],
      "name": "sweepERC20",
      "outputs": [],
      "stateMutability": "nonpayable",
      "type": "function"
    },
    {
      "inputs": [],
      "name": "symbol",
      "outputs": [
        {
          "internalType": "string",
          "name": "",
          "type": "string"
        }
      ],
      "stateMutability": "view",
      "type": "function"
    },
    {
      "inputs": [],
      "name": "token",
      "outputs": [
        {
          "internalType": "contract IERC20",
          "name": "",
          "type": "address"
        }
      ],
      "stateMutability": "view",
      "type": "function"
    },
    {
      "inputs": [],
      "name": "tokensHere",
      "outputs": [
        {
          "internalType": "uint256",
          "name": "",
          "type": "uint256"
        }
      ],
      "stateMutability": "view",
      "type": "function"
    },
    {
      "inputs": [],
      "name": "totalDebt",
      "outputs": [
        {
          "internalType": "uint256",
          "name": "",
          "type": "uint256"
        }
      ],
      "stateMutability": "view",
      "type": "function"
    },
    {
      "inputs": [
        {
          "internalType": "address",
          "name": "_strategy",
          "type": "address"
        }
      ],
      "name": "totalDebtOf",
      "outputs": [
        {
          "internalType": "uint256",
          "name": "",
          "type": "uint256"
        }
      ],
      "stateMutability": "view",
      "type": "function"
    },
    {
      "inputs": [],
      "name": "totalDebtRatio",
      "outputs": [
        {
          "internalType": "uint256",
          "name": "",
          "type": "uint256"
        }
      ],
      "stateMutability": "view",
      "type": "function"
    },
    {
      "inputs": [],
      "name": "totalSupply",
      "outputs": [
        {
          "internalType": "uint256",
          "name": "",
          "type": "uint256"
        }
      ],
      "stateMutability": "view",
      "type": "function"
    },
    {
      "inputs": [],
      "name": "totalValue",
      "outputs": [
        {
          "internalType": "uint256",
          "name": "",
          "type": "uint256"
        }
      ],
      "stateMutability": "view",
      "type": "function"
    },
    {
      "inputs": [
        {
          "internalType": "address",
          "name": "recipient",
          "type": "address"
        },
        {
          "internalType": "uint256",
          "name": "amount",
          "type": "uint256"
        }
      ],
      "name": "transfer",
      "outputs": [
        {
          "internalType": "bool",
          "name": "",
          "type": "bool"
        }
      ],
      "stateMutability": "nonpayable",
      "type": "function"
    },
    {
      "inputs": [
        {
          "internalType": "address",
          "name": "sender",
          "type": "address"
        },
        {
          "internalType": "address",
          "name": "recipient",
          "type": "address"
        },
        {
          "internalType": "uint256",
          "name": "amount",
          "type": "uint256"
        }
      ],
      "name": "transferFrom",
      "outputs": [
        {
          "internalType": "bool",
          "name": "",
          "type": "bool"
        }
      ],
      "stateMutability": "nonpayable",
      "type": "function"
    },
    {
      "inputs": [
        {
          "internalType": "address",
          "name": "_proposedGovernor",
          "type": "address"
        }
      ],
      "name": "transferGovernorship",
      "outputs": [],
      "stateMutability": "nonpayable",
      "type": "function"
    },
    {
      "inputs": [],
      "name": "unpause",
      "outputs": [],
      "stateMutability": "nonpayable",
      "type": "function"
    },
    {
      "inputs": [
        {
          "internalType": "address",
          "name": "_newFeeCollector",
          "type": "address"
        }
      ],
      "name": "updateFeeCollector",
      "outputs": [],
      "stateMutability": "nonpayable",
      "type": "function"
    },
    {
      "inputs": [
        {
          "internalType": "address",
          "name": "_newPoolRewards",
          "type": "address"
        }
      ],
      "name": "updatePoolRewards",
      "outputs": [],
      "stateMutability": "nonpayable",
      "type": "function"
    },
    {
      "inputs": [
        {
          "internalType": "uint256",
          "name": "_newWithdrawFee",
          "type": "uint256"
        }
      ],
      "name": "updateWithdrawFee",
      "outputs": [],
      "stateMutability": "nonpayable",
      "type": "function"
    },
    {
      "inputs": [
        {
          "internalType": "uint256",
          "name": "_shares",
          "type": "uint256"
        }
      ],
      "name": "whitelistedWithdraw",
      "outputs": [],
      "stateMutability": "nonpayable",
      "type": "function"
    },
    {
      "inputs": [
        {
          "internalType": "uint256",
          "name": "_shares",
          "type": "uint256"
        }
      ],
      "name": "withdraw",
      "outputs": [],
      "stateMutability": "nonpayable",
      "type": "function"
    },
    {
      "inputs": [
        {
          "internalType": "uint256",
          "name": "_shares",
          "type": "uint256"
        }
      ],
      "name": "withdrawAndClaim",
      "outputs": [],
      "stateMutability": "nonpayable",
      "type": "function"
    },
    {
      "inputs": [
        {
          "internalType": "uint256",
          "name": "_shares",
          "type": "uint256"
        }
      ],
      "name": "withdrawETH",
      "outputs": [],
      "stateMutability": "nonpayable",
      "type": "function"
    },
    {
      "inputs": [
        {
          "internalType": "uint256",
          "name": "_shares",
          "type": "uint256"
        }
      ],
      "name": "withdrawETHAndClaim",
      "outputs": [],
      "stateMutability": "nonpayable",
      "type": "function"
    },
    {
      "inputs": [],
      "name": "withdrawFee",
      "outputs": [
        {
          "internalType": "uint256",
          "name": "",
          "type": "uint256"
        }
      ],
      "stateMutability": "view",
      "type": "function"
    },
    {
      "stateMutability": "payable",
      "type": "receive"
    }
  ],
  "transactionHash": "0x6f550bf580dbc898ec8966a8b7df5f748f6c26ec1521c0a0939f3abdc61a8799",
  "args": [
    "veETH-DAI Earn Pool",
    "veETH-DAI",
    "0xC02aaA39b223FE8D0A0e5C4F27eAD9083C756Cc2"
  ],
  "solcInputHash": "439081a66784645bdfe96aeef8211a1a",
  "bytecode": "0x60806040523480156200001157600080fd5b50604051620053a0380380620053a0833981016040819052620000349162000264565b82828282828282828282828160039080519060200190620000579291906200010b565b5080516200006d9060049060208401906200010b565b5050506000620000826200010760201b60201c565b600a80546001600160a01b0319166001600160a01b038316908117909155604051919250906000907fd4459d5b8b913cab0244230fd9b1c08b6ceace7fe9230e60d0f74cbffdf849d0908290a3506001600c55600d80546001600160a01b0319166001600160a01b039290921691909117905550620003409950505050505050505050565b3390565b8280546200011990620002ed565b90600052602060002090601f0160209004810192826200013d576000855562000188565b82601f106200015857805160ff191683800117855562000188565b8280016001018555821562000188579182015b82811115620001885782518255916020019190600101906200016b565b50620001969291506200019a565b5090565b5b808211156200019657600081556001016200019b565b600082601f830112620001c2578081fd5b81516001600160401b0380821115620001df57620001df6200032a565b604051601f8301601f19908116603f011681019082821181831017156200020a576200020a6200032a565b8160405283815260209250868385880101111562000226578485fd5b8491505b838210156200024957858201830151818301840152908201906200022a565b838211156200025a57848385830101525b9695505050505050565b60008060006060848603121562000279578283fd5b83516001600160401b038082111562000290578485fd5b6200029e87838801620001b1565b94506020860151915080821115620002b4578384fd5b50620002c386828701620001b1565b604086015190935090506001600160a01b0381168114620002e2578182fd5b809150509250925092565b600181811c908216806200030257607f821691505b602082108114156200032457634e487b7160e01b600052602260045260246000fd5b50919050565b634e487b7160e01b600052604160045260246000fd5b61505080620003506000396000f3fe6080604052600436106103f05760003560e01c80639f2b283311610214578063daea86231161011e578063fb589de2116100b6578063fc7b9c181161007a578063fc7b9c1814610cae578063fcfff16f14610cc3578063fd967f4714610cd8578063ff643a7c14610cee578063ffa1ad7414610d0e57610411565b8063fb589de214610c24578063fc0c546a14610c44578063fc0e74d114610c64578063fc51ab2a14610c79578063fc76781014610c9957610411565b8063daea862314610af3578063daf635de14610b13578063dd57366a14610b33578063dd62ed3e14610b53578063ddd6d26014610b99578063e00af4a714610bb9578063e941fa7814610bd9578063f14210a614610bef578063f3b27bc314610c0f57610411565b8063c01e0d40116101ac578063d2c35ce811610170578063d2c35ce814610a5e578063d4c3eea014610a7e578063d505accf14610a93578063d53ddc2614610ab3578063d8baf7cf14610ad357610411565b8063c01e0d40146109ee578063c12d636b14610a0e578063c415b95c14610a2e578063c9d7f67214610a4e578063d0e30db014610a5657610411565b80639f2b2833146108e4578063a457c2d714610904578063a9059cbb14610924578063a941a90e14610944578063b49a60bb14610964578063b64321ec14610979578063b6aa515b14610999578063b6b55f25146109b9578063b8cb343d146109d957610411565b80634938649a116103155780637ecebe00116102ad5780639198c859116102715780639198c85914610865578063940c408214610885578063951dc22c146108a557806395d89b41146108ba57806399530b06146108cf57610411565b80637ecebe00146107cd5780638456cb59146107fa5780638bc6beb21461080f5780638f15b4141461082f5780638fe91ffb1461084f57610411565b80634938649a146106a057806349eeb860146106c15780634a970be7146106d65780635c975abb146106f65780636b453c1f146107175780636ba42aaa146107375780636cb56d19146107575780636d43aed81461077757806370a082311461079757610411565b806323b872dd1161038857806323b872dd146105a55780632df9eab9146105c55780632e1a7d4d146105da578063313ce567146105fa5780633644e51514610616578063395093511461062b5780633f4ba83a1461064b5780634032b72b14610660578063448a10471461068057610411565b806305bed0461461041657806306fdde0314610436578063095ea7b3146104615780630c340a241461049157806311183052146104be57806314ae9f2e146104e057806318160ddd146105005780631e89d5451461051f578063228bfd9f1461053f57610411565b3661041157600d546001600160a01b0316331461040f5761040f610d3f565b005b600080fd5b34801561042257600080fd5b5061040f610431366004614ad9565b610db3565b34801561044257600080fd5b5061044b610f59565b6040516104589190614c2b565b60405180910390f35b34801561046d57600080fd5b5061048161047c366004614852565b610fec565b6040519015158152602001610458565b34801561049d57600080fd5b50600a546104b1906001600160a01b031681565b6040516104589190614bb1565b3480156104ca57600080fd5b506104d3611003565b6040516104589190614bde565b3480156104ec57600080fd5b5061040f6104fb366004614732565b611089565b34801561050c57600080fd5b506002545b604051908152602001610458565b34801561052b57600080fd5b5061048161053a36600461487d565b61110e565b34801561054b57600080fd5b5061055f61055a366004614732565b611210565b604080519915158a5260208a0198909852968801959095526060870193909352608086019190915260a085015260c084015260e083015261010082015261012001610458565b3480156105b157600080fd5b506104816105c03660046147a2565b6112c1565b3480156105d157600080fd5b50610511611374565b3480156105e657600080fd5b5061040f6105f5366004614aa9565b6113f1565b34801561060657600080fd5b5060405160128152602001610458565b34801561062257600080fd5b5061051161145d565b34801561063757600080fd5b50610481610646366004614852565b611467565b34801561065757600080fd5b5061040f61149e565b34801561066c57600080fd5b5061040f61067b366004614732565b6114e1565b34801561068c57600080fd5b5061040f61069b366004614aa9565b61155e565b3480156106ac57600080fd5b50600b5461048190600160a81b900460ff1681565b3480156106cd57600080fd5b506104d36115b9565b3480156106e257600080fd5b5061040f6106f1366004614b31565b6115c5565b34801561070257600080fd5b50600b5461048190600160a01b900460ff1681565b34801561072357600080fd5b5061040f610732366004614732565b6116c2565b34801561074357600080fd5b50610481610752366004614732565b611706565b34801561076357600080fd5b5061040f61077236600461476a565b61171b565b34801561078357600080fd5b5061040f610792366004614aa9565b61195a565b3480156107a357600080fd5b506105116107b2366004614732565b6001600160a01b031660009081526020819052604090205490565b3480156107d957600080fd5b506105116107e8366004614732565b60096020526000908152604090205481565b34801561080657600080fd5b5061040f6119d4565b34801561081b57600080fd5b50600f546104b1906001600160a01b031681565b34801561083b57600080fd5b5061040f61084a366004614a23565b611a15565b34801561085b57600080fd5b5061051160155481565b34801561087157600080fd5b5061040f610880366004614732565b611a91565b34801561089157600080fd5b5061040f6108a0366004614732565b611ad5565b3480156108b157600080fd5b506104d3611b9c565b3480156108c657600080fd5b5061044b611ba8565b3480156108db57600080fd5b50610511611bb7565b3480156108f057600080fd5b506105116108ff366004614732565b611c17565b34801561091057600080fd5b5061048161091f366004614852565b611c98565b34801561093057600080fd5b5061048161093f366004614852565b611d33565b34801561095057600080fd5b5061040f61095f366004614aa9565b611d40565b34801561097057600080fd5b506104d3611d9b565b34801561098557600080fd5b50610511610994366004614732565b611de0565b3480156109a557600080fd5b5061040f6109b4366004614732565b611e11565b3480156109c557600080fd5b5061040f6109d4366004614aa9565b611eaf565b3480156109e557600080fd5b50610511611f13565b3480156109fa57600080fd5b50610511610a09366004614aa9565b611f5c565b348015610a1a57600080fd5b50600e546104b1906001600160a01b031681565b348015610a3a57600080fd5b506013546104b1906001600160a01b031681565b61040f612049565b61040f610d3f565b348015610a6a57600080fd5b5061040f610a79366004614732565b6120a5565b348015610a8a57600080fd5b5061051161216c565b348015610a9f57600080fd5b5061040f610aae3660046147e2565b612206565b348015610abf57600080fd5b50610511610ace366004614732565b6123c6565b348015610adf57600080fd5b5061040f610aee366004614732565b6123f7565b348015610aff57600080fd5b50610481610b0e366004614732565b61243b565b348015610b1f57600080fd5b5061040f610b2e366004614aa9565b612448565b348015610b3f57600080fd5b50610481610b4e366004614732565b612533565b348015610b5f57600080fd5b50610511610b6e36600461476a565b6001600160a01b03918216600090815260016020908152604080832093909416825291909152205490565b348015610ba557600080fd5b5061040f610bb4366004614aa9565b612540565b348015610bc557600080fd5b5061040f610bd4366004614732565b6125a7565b348015610be557600080fd5b5061051160145481565b348015610bfb57600080fd5b5061040f610c0a366004614aa9565b612705565b348015610c1b57600080fd5b5061040f612777565b348015610c3057600080fd5b50610511610c3f366004614aa9565b612833565b348015610c5057600080fd5b50600d546104b1906001600160a01b031681565b348015610c7057600080fd5b5061040f612843565b348015610c8557600080fd5b5061040f610c94366004614732565b612884565b348015610ca557600080fd5b506104d36128c8565b348015610cba57600080fd5b506105116128d4565b348015610ccf57600080fd5b5061040f612919565b348015610ce457600080fd5b5061051161271081565b348015610cfa57600080fd5b5061040f610d09366004614aa9565b61295a565b348015610d1a57600080fd5b5061044b604051806040016040528060058152602001640342e302e360dc1b81525081565b600b54600160a01b900460ff1615610d725760405162461bcd60e51b8152600401610d6990614d2b565b60405180910390fd5b6002600c541415610d955760405162461bcd60e51b8152600401610d6990614cf4565b6002600c55610da4335b612a3b565b610dac612a7c565b6001600c55565b600e54600090819081906001600160a01b031663a066654b336040516001600160e01b031960e084901b1681526001600160a01b039091166004820152602481018990526044810188905260648101879052608401606060405180830381600087803b158015610e2257600080fd5b505af1158015610e36573d6000803e3d6000fd5b505050506040513d601f19601f82011682018060405250810190610e5a9190614b04565b919450925090506000610e6d8488614da6565b905082811015610e9d57610e9833610e858386614f11565b600d546001600160a01b03169190612b3f565b610ec8565b82811115610ec857610ec83330610eb48685614f11565b600d546001600160a01b0316929190612b9a565b8115610f5057610f50336001600160a01b031663c415b95c6040518163ffffffff1660e01b815260040160206040518083038186803b158015610f0a57600080fd5b505afa158015610f1e573d6000803e3d6000fd5b505050506040513d601f19601f82011682018060405250810190610f42919061474e565b610f4b84612bd8565b612c3d565b50505050505050565b606060038054610f6890614f54565b80601f0160208091040260200160405190810160405280929190818152602001828054610f9490614f54565b8015610fe15780601f10610fb657610100808354040283529160200191610fe1565b820191906000526020600020905b815481529060010190602001808311610fc457829003601f168201915b505050505090505b90565b6000610ff9338484612d0a565b5060015b92915050565b600e546040805163088c182960e11b815290516060926001600160a01b0316916311183052916004808301926000929190829003018186803b15801561104857600080fd5b505afa15801561105c573d6000803e3d6000fd5b505050506040513d6000823e601f3d908101601f1916820160405261108491908101906148e6565b905090565b600a546001600160a01b03163314806110aa57506110aa335b601990612e2f565b6110c65760405162461bcd60e51b8152600401610d6990614cac565b6110d1601982612e51565b604051806040016040528060028152602001610c4d60f21b8152509061110a5760405162461bcd60e51b8152600401610d699190614c2b565b5050565b6040805180820190915260018152600d60fa1b60208201526000908483146111495760405162461bcd60e51b8152600401610d699190614c2b565b5060005b84811015611204576111b986868381811061117857634e487b7160e01b600052603260045260246000fd5b905060200201602081019061118d9190614732565b8585848181106111ad57634e487b7160e01b600052603260045260246000fd5b90506020020135611d33565b604051806040016040528060018152602001601b60f91b815250906111f15760405162461bcd60e51b8152600401610d699190614c2b565b50806111fc81614f8f565b91505061114d565b50600195945050505050565b600e5460405163228bfd9f60e01b8152600091829182918291829182918291829182916001600160a01b03169063228bfd9f90611251908d90600401614bb1565b6101206040518083038186803b15801561126a57600080fd5b505afa15801561127e573d6000803e3d6000fd5b505050506040513d601f19601f820116820180604052508101906112a291906149b4565b9850985098509850985098509850985098509193959799909294969850565b60006112ce848484612e66565b6001600160a01b0384166000908152600160209081526040808320338452909152902054828110156113535760405162461bcd60e51b815260206004820152602860248201527f45524332303a207472616e7366657220616d6f756e74206578636565647320616044820152676c6c6f77616e636560c01b6064820152608401610d69565b61136785336113628685614f11565b612d0a565b60019150505b9392505050565b600e5460408051632df9eab960e01b815290516000926001600160a01b031691632df9eab9916004808301926020929190829003018186803b1580156113b957600080fd5b505afa1580156113cd573d6000803e3d6000fd5b505050506040513d601f19601f820116820180604052508101906110849190614ac1565b6002600c5414156114145760405162461bcd60e51b8152600401610d6990614cf4565b6002600c55600b54600160a81b900460ff16156114435760405162461bcd60e51b8152600401610d6990614cd2565b61144c33610d9f565b61145581612f47565b506001600c55565b60006110846130a7565b3360008181526001602090815260408083206001600160a01b03871684529091528120549091610ff9918590611362908690614da6565b600a546001600160a01b03163314806114bb57506114bb336110a2565b6114d75760405162461bcd60e51b8152600401610d6990614cac565b6114df613124565b565b600a546001600160a01b03163314806114fe57506114fe336110a2565b61151a5760405162461bcd60e51b8152600401610d6990614cac565b6115256019826131db565b60405180604001604052806002815260200161313360f01b8152509061110a5760405162461bcd60e51b8152600401610d699190614c2b565b6002600c5414156115815760405162461bcd60e51b8152600401610d6990614cf4565b6002600c55600b54600160a81b900460ff16156115b05760405162461bcd60e51b8152600401610d6990614cd2565b611455816131f0565b6060611084601b613202565b6002600c5414156115e85760405162461bcd60e51b8152600401610d6990614cf4565b6002600c55600b54600160a01b900460ff16156116175760405162461bcd60e51b8152600401610d6990614d2b565b600d546001600160a01b031663d505accf336040516001600160e01b031960e084901b1681526001600160a01b039091166004820152306024820152604481018890526064810187905260ff8616608482015260a4810185905260c4810184905260e401600060405180830381600087803b15801561169557600080fd5b505af11580156116a9573d6000803e3d6000fd5b505050506116b68561320f565b50506001600c55505050565b600a546001600160a01b03163314806116df57506116df336110a2565b6116fb5760405162461bcd60e51b8152600401610d6990614cac565b611525601b826131db565b6000611713601983612e2f565b90505b919050565b600a546001600160a01b031633146117455760405162461bcd60e51b8152600401610d6990614d4b565b306001600160a01b0316816001600160a01b03166316f0115b6040518163ffffffff1660e01b815260040160206040518083038186803b15801561178857600080fd5b505afa15801561179c573d6000803e3d6000fd5b505050506040513d601f19601f820116820180604052508101906117c0919061474e565b6001600160a01b03161480156118575750306001600160a01b0316826001600160a01b03166316f0115b6040518163ffffffff1660e01b815260040160206040518083038186803b15801561181457600080fd5b505afa158015611828573d6000803e3d6000fd5b505050506040513d601f19601f8201168201806040525081019061184c919061474e565b6001600160a01b0316145b60405180604001604052806002815260200161313760f01b815250906118905760405162461bcd60e51b8152600401610d699190614c2b565b50600e54604051636cb56d1960e01b81526001600160a01b038481166004830152838116602483015290911690636cb56d1990604401600060405180830381600087803b1580156118e057600080fd5b505af11580156118f4573d6000803e3d6000fd5b505060405163ce5494bb60e01b81526001600160a01b038516925063ce5494bb9150611924908490600401614bb1565b600060405180830381600087803b15801561193e57600080fd5b505af1158015611952573d6000803e3d6000fd5b505050505050565b600b54600160a81b900460ff16156119845760405162461bcd60e51b8152600401610d6990614cd2565b6002600c5414156119a75760405162461bcd60e51b8152600401610d6990614cf4565b6002600c556016805460ff191660011790556119c2816131f0565b506016805460ff191690556001600c55565b600a546001600160a01b03163314806119f157506119f1336110a2565b611a0d5760405162461bcd60e51b8152600401610d6990614cac565b6114df61326d565b600554610100900460ff1680611a2e575060055460ff16155b611a4a5760405162461bcd60e51b8152600401610d6990614c5e565b600554610100900460ff16158015611a6c576005805461ffff19166101011790555b611a78858585856132d2565b8015611a8a576005805461ff00191690555b5050505050565b600a546001600160a01b0316331480611aae5750611aae336110a2565b611aca5760405162461bcd60e51b8152600401610d6990614cac565b6115256017826131db565b600a546001600160a01b03163314611aff5760405162461bcd60e51b8152600401610d6990614d4b565b604080518082019091526002815261031360f41b60208201526001600160a01b038216611b3f5760405162461bcd60e51b8152600401610d699190614c2b565b50600f546040516001600160a01b038084169216907fe239974dad08ac696e723caf1886bd0b5afc0870088f9a1266082757f824927690600090a3600f80546001600160a01b0319166001600160a01b0392909216919091179055565b60606110846019613202565b606060048054610f6890614f54565b6000611bc260025490565b1580611bd35750611bd161216c565b155b15611bf057611be9670de0b6b3a7640000612833565b9050610fe9565b600254611bfb61216c565b611c0d90670de0b6b3a7640000614ef2565b6110849190614dbe565b600e54604051639f2b283360e01b81526000916001600160a01b031690639f2b283390611c48908590600401614bb1565b60206040518083038186803b158015611c6057600080fd5b505afa158015611c74573d6000803e3d6000fd5b505050506040513d601f19601f820116820180604052508101906117139190614ac1565b3360009081526001602090815260408083206001600160a01b038616845290915281205482811015611d1a5760405162461bcd60e51b815260206004820152602560248201527f45524332303a2064656372656173656420616c6c6f77616e63652062656c6f77604482015264207a65726f60d81b6064820152608401610d69565b611d2933856113628685614f11565b5060019392505050565b6000610ff9338484612e66565b6002600c541415611d635760405162461bcd60e51b8152600401610d6990614cf4565b6002600c55600b54600160a01b900460ff1615611d925760405162461bcd60e51b8152600401610d6990614d2b565b6114558161343a565b600e546040805163b49a60bb60e01b815290516060926001600160a01b03169163b49a60bb916004808301926000929190829003018186803b15801561104857600080fd5b600e54604051632d90c87b60e21b81526000916001600160a01b03169063b64321ec90611c48908590600401614bb1565b600a546001600160a01b03163314611e3b5760405162461bcd60e51b8152600401610d6990614d4b565b6001600160a01b038116611e8d5760405162461bcd60e51b815260206004820152601960248201527870726f706f7365642d676f7665726e6f722d69732d7a65726f60381b6044820152606401610d69565b600b80546001600160a01b0319166001600160a01b0392909216919091179055565b6002600c541415611ed25760405162461bcd60e51b8152600401610d6990614cf4565b6002600c55600b54600160a01b900460ff1615611f015760405162461bcd60e51b8152600401610d6990614d2b565b611f0a33610d9f565b6114558161320f565b600d546040516370a0823160e01b81526000916001600160a01b0316906370a0823190611f44903090600401614bb1565b60206040518083038186803b1580156113b957600080fd5b6040805180820190915260018152603160f81b602082015260009082611f955760405162461bcd60e51b8152600401610d699190614c2b565b506000612710600e60009054906101000a90046001600160a01b03166001600160a01b031663346162d56040518163ffffffff1660e01b815260040160206040518083038186803b158015611fe957600080fd5b505afa158015611ffd573d6000803e3d6000fd5b505050506040513d601f19601f820116820180604052508101906120219190614ac1565b61202b9085614ef2565b6120359190614dbe565b905061136d6120448285614f11565b612bd8565b600b54600160a01b900460ff16156120735760405162461bcd60e51b8152600401610d6990614d2b565b6002600c5414156120965760405162461bcd60e51b8152600401610d6990614cf4565b6002600c55610da4335b61344c565b600a546001600160a01b031633146120cf5760405162461bcd60e51b8152600401610d6990614d4b565b604080518082019091526002815261031360f41b60208201526001600160a01b03821661210f5760405162461bcd60e51b8152600401610d699190614c2b565b506013546040516001600160a01b038084169216907f0f06062680f9bd68e786e9980d9bb03d73d5620fc3b345e417b6eacb310b970690600090a3601380546001600160a01b0319166001600160a01b0392909216919091179055565b6000612176611f13565b600e60009054906101000a90046001600160a01b03166001600160a01b031663fc7b9c186040518163ffffffff1660e01b815260040160206040518083038186803b1580156121c457600080fd5b505afa1580156121d8573d6000803e3d6000fd5b505050506040513d601f19601f820116820180604052508101906121fc9190614ac1565b6110849190614da6565b834211156122565760405162461bcd60e51b815260206004820152601d60248201527f45524332305065726d69743a206578706972656420646561646c696e650000006044820152606401610d69565b6001600160a01b0387811660008181526009602090815260408083205481517f6e71edae12b1b97f4d1f60370fef10105fa2faae0126114a169c64845d6126c98185015280830195909552948b166060850152608084018a905260a0840185905260c08085018a90528151808603909101815260e090940190528251920191909120906122e16130a7565b60405161190160f01b602082015260228101919091526042810183905260620160405160208183030381529060405280519060200120905060006123278288888861348d565b90508a6001600160a01b0316816001600160a01b03161461238a5760405162461bcd60e51b815260206004820152601e60248201527f45524332305065726d69743a20696e76616c6964207369676e617475726500006044820152606401610d69565b612395846001614da6565b6001600160a01b038c166000908152600960205260409020556123b98b8b8b612d0a565b5050505050505050505050565b600e54604051636a9eee1360e11b81526000916001600160a01b03169063d53ddc2690611c48908590600401614bb1565b600a546001600160a01b03163314806124145750612414336110a2565b6124305760405162461bcd60e51b8152600401610d6990614cac565b6110d1601b82612e51565b6000611713601783612e2f565b600a546001600160a01b031633146124725760405162461bcd60e51b8152600401610d6990614d4b565b6013546040805180820190915260018152603760f81b6020820152906001600160a01b03166124b45760405162461bcd60e51b8152600401610d699190614c2b565b50604080518082019091526002815261313160f01b60208201526127108211156124f15760405162461bcd60e51b8152600401610d699190614c2b565b5060145460408051918252602082018390527f2bf847f5692332004b0f69e0d84a8f85ed020bcf8573b3ede68afc92009965bf910160405180910390a1601455565b6000611713601b83612e2f565b80156125a457600e546001600160a01b0316637f13086e33836040518363ffffffff1660e01b8152600401612576929190614bc5565b600060405180830381600087803b15801561259057600080fd5b505af1158015611a8a573d6000803e3d6000fd5b50565b600a546001600160a01b03163314806125c457506125c4336110a2565b6125e05760405162461bcd60e51b8152600401610d6990614cac565b600d546040805180820190915260018152600760fb1b6020820152906001600160a01b03838116911614156126285760405162461bcd60e51b8152600401610d699190614c2b565b506013546040805180820190915260018152603760f81b6020820152906001600160a01b031661266b5760405162461bcd60e51b8152600401610d699190614c2b565b506013546040516370a0823160e01b81526125a4916001600160a01b0390811691908416906370a08231906126a4903090600401614bb1565b60206040518083038186803b1580156126bc57600080fd5b505afa1580156126d0573d6000803e3d6000fd5b505050506040513d601f19601f820116820180604052508101906126f49190614ac1565b6001600160a01b0384169190612b3f565b600b54600160a81b900460ff161561272f5760405162461bcd60e51b8152600401610d6990614cd2565b6002600c5414156127525760405162461bcd60e51b8152600401610d6990614cf4565b6002600c556016805460ff1916600117905561276e610d9f3390565b6119c281612f47565b600b546001600160a01b031633146127cd5760405162461bcd60e51b81526020600482015260196024820152783737ba16ba343296b83937b837b9b2b216b3b7bb32b93737b960391b6044820152606401610d69565b600b54600a546040516001600160a01b0392831692909116907fd4459d5b8b913cab0244230fd9b1c08b6ceace7fe9230e60d0f74cbffdf849d090600090a3600b8054600a80546001600160a01b03199081166001600160a01b03841617909155169055565b6000601554826117139190614dbe565b600a546001600160a01b03163314806128605750612860336110a2565b61287c5760405162461bcd60e51b8152600401610d6990614cac565b6114df613627565b600a546001600160a01b03163314806128a157506128a1336110a2565b6128bd5760405162461bcd60e51b8152600401610d6990614cac565b6110d1601782612e51565b60606110846017613202565b600e5460408051631f8f738360e31b815290516000926001600160a01b03169163fc7b9c18916004808301926020929190829003018186803b1580156113b957600080fd5b600a546001600160a01b03163314806129365750612936336110a2565b6129525760405162461bcd60e51b8152600401610d6990614cac565b6114df61368e565b6002600c54141561297d5760405162461bcd60e51b8152600401610d6990614cf4565b6002600c55600b54600160a81b900460ff16156129ac5760405162461bcd60e51b8152600401610d6990614cd2565b6129b9335b601790612e2f565b604051806040016040528060018152602001603560f81b815250906129f15760405162461bcd60e51b8152600401610d699190614c2b565b506040805180820190915260018152601960f91b602082015281612a285760405162461bcd60e51b8152600401610d699190614c2b565b50612a32336120a0565b6114558161370a565b600f546001600160a01b0316156125a457600f5460405163632447c960e01b81526001600160a01b039091169063632447c990612576908490600401614bb1565b6000612a8734611f5c565b9050600d60009054906101000a90046001600160a01b03166001600160a01b031663d0e30db0346040518263ffffffff1660e01b81526004016000604051808303818588803b158015612ad957600080fd5b505af1158015612aed573d6000803e3d6000fd5b5050505050612b02612afc3390565b82612c3d565b6040805182815234602082015233917f90890809c654f11d6e72a28fa60149770a0d11ec6c92319d6ceb2bb0a4ea1a15910160405180910390a250565b612b958363a9059cbb60e01b8484604051602401612b5e929190614bc5565b60408051601f198184030181529190526020810180516001600160e01b03166001600160e01b031990931692909217909152613793565b505050565b6040516001600160a01b0380851660248301528316604482015260648101829052612bd29085906323b872dd60e01b90608401612b5e565b50505050565b600080612be3611bb7565b612bf584670de0b6b3a7640000614ef2565b612bff9190614dbe565b9050670de0b6b3a7640000612c12611bb7565b612c1c9083614ef2565b612c269190614dbe565b8311612c32578061136d565b61136d816001614da6565b6001600160a01b038216612c935760405162461bcd60e51b815260206004820152601f60248201527f45524332303a206d696e7420746f20746865207a65726f2061646472657373006044820152606401610d69565b8060026000828254612ca59190614da6565b90915550506001600160a01b03821660009081526020819052604081208054839290612cd2908490614da6565b90915550506040518181526001600160a01b03831690600090600080516020614ffb8339815191529060200160405180910390a35050565b6001600160a01b038316612d6c5760405162461bcd60e51b8152602060048201526024808201527f45524332303a20617070726f76652066726f6d20746865207a65726f206164646044820152637265737360e01b6064820152608401610d69565b6001600160a01b038216612dcd5760405162461bcd60e51b815260206004820152602260248201527f45524332303a20617070726f766520746f20746865207a65726f206164647265604482015261737360f01b6064820152608401610d69565b6001600160a01b0383811660008181526001602090815260408083209487168084529482529182902085905590518481527f8c5be1e5ebec7d5bd14f71427d1e84f3dd0314c0f7b2291e5b200ac8c7c3b92591015b60405180910390a3505050565b6001600160a01b0381166000908152600183016020526040812054151561136d565b600061136d836001600160a01b038416613865565b600f546001600160a01b031615612f3c57600f5460405163632447c960e01b81526001600160a01b039091169063632447c990612ea7908690600401614bb1565b600060405180830381600087803b158015612ec157600080fd5b505af1158015612ed5573d6000803e3d6000fd5b5050600f5460405163632447c960e01b81526001600160a01b03909116925063632447c99150612f09908590600401614bb1565b600060405180830381600087803b158015612f2357600080fd5b505af1158015612f37573d6000803e3d6000fd5b505050505b612b95838383613982565b6040805180820190915260018152601960f91b602082015281612f7d5760405162461bcd60e51b8152600401610d699190614c2b565b506014541580612f915750612f91336129b1565b15612fa457612f9f8161370a565b6125a4565b600061271060145483612fb79190614ef2565b612fc19190614dbe565b90506000612fcf8284614f11565b90506000612fdc82613b48565b90506000612fe982612bd8565b9050612ff483612833565b612ffd82612833565b101561303a5760145461301290612710614f11565b61301e61271083614ef2565b6130289190614dbe565b94506130348186614f11565b93508092505b613045335b84613bf3565b61305b336013546001600160a01b031686612e66565b61306482613d30565b50604080518681526020810184905233917ff279e6a1f5e320cca91135676d9cb6e44ca8a08c0b88342bcdb1144f6511b568910160405180910390a25050505050565b60006008544614156130bc5750600654610fe9565b6007546040805180820190915260018152603160f81b602090910152611be9907f8b73c3c69bb8fe3d512ecc4cf759cc79239f7b179b0ffacaa9a75d522b39400f907fc89efdaa54c0f20c7adf612882df0950f5a951637e0307cdcb4c672f298b8bc6613dc0565b600b54600160a01b900460ff1661316a5760405162461bcd60e51b815260206004820152600a6024820152691b9bdd0b5c185d5cd95960b21b6044820152606401610d69565b600b54600160a81b900460ff16156131945760405162461bcd60e51b8152600401610d6990614cd2565b600b805460ff60a01b191690557f5db9ee0a495bf2e6ff9c91a7834c1ba4fdd244a5e8aa4e537bd38aeae4b073aa335b6040516131d19190614bb1565b60405180910390a1565b600061136d836001600160a01b038416613e09565b6131f9336120a0565b6125a481612f47565b6060600061136d83613e58565b600061321a82611f5c565b905061322582613eb4565b61322e33612afc565b604080518281526020810184905233917f90890809c654f11d6e72a28fa60149770a0d11ec6c92319d6ceb2bb0a4ea1a15910160405180910390a25050565b600b54600160a01b900460ff16156132975760405162461bcd60e51b8152600401610d6990614d2b565b600b805460ff60a01b1916600160a01b1790557f62e78cea01bee320cd4e420270b5ea74000d11b0c9f74754ebdbfc544b05a2586131c43390565b600554610100900460ff16806132eb575060055460ff16155b6133075760405162461bcd60e51b8152600401610d6990614c5e565b600554610100900460ff16158015613329576005805461ffff19166101011790555b604080518082019091526002815261031360f41b60208201526001600160a01b0383166133695760405162461bcd60e51b8152600401610d699190614c2b565b50613375858585613ecc565b61337d614044565b6133886019336131db565b60405180604001604052806002815260200161313360f01b815250906133c15760405162461bcd60e51b8152600401610d699190614c2b565b506133cd601b336131db565b60405180604001604052806002815260200161313360f01b815250906134065760405162461bcd60e51b8152600401610d699190614c2b565b50600e80546001600160a01b0319166001600160a01b0384161790558015611a8a576005805461ff00191690555050505050565b613443336120a0565b6125a48161320f565b600f546001600160a01b0316156125a457600f5460405163d279c19160e01b81526001600160a01b039091169063d279c19190612576908490600401614bb1565b60006fa2a8918ca85bafe22016d0b997e4df60600160ff1b038211156135005760405162461bcd60e51b815260206004820152602260248201527f45434453413a20696e76616c6964207369676e6174757265202773272076616c604482015261756560f01b6064820152608401610d69565b8360ff16601b148061351557508360ff16601c145b61356c5760405162461bcd60e51b815260206004820152602260248201527f45434453413a20696e76616c6964207369676e6174757265202776272076616c604482015261756560f01b6064820152608401610d69565b6040805160008082526020820180845288905260ff871692820192909252606081018590526080810184905260019060a0016020604051602081039080840390855afa1580156135c0573d6000803e3d6000fd5b5050604051601f1901519150506001600160a01b03811661361e5760405162461bcd60e51b815260206004820152601860248201527745434453413a20696e76616c6964207369676e617475726560401b6044820152606401610d69565b95945050505050565b600b54600160a81b900460ff16156136515760405162461bcd60e51b8152600401610d6990614cd2565b600b805461ffff60a01b191661010160a01b1790557f28b4c24cb1012c094cd2f59f98e89d791973295f8fda6eaa118022d6d318960a6131c43390565b600b54600160a81b900460ff166136d65760405162461bcd60e51b815260206004820152600c60248201526b3737ba16b9b43aba3237bbb760a11b6044820152606401610d69565b600b805460ff60a81b191690557fece7583a70a505ef0e36d4dec768f5ae597713e09c26011022599ee01abdabfc336131c4565b600061371582613b48565b9050600061372282612bd8565b905061372d83612833565b61373682612833565b1015613740578092505b6137493361303f565b61375282613d30565b50604080518481526020810184905233917ff279e6a1f5e320cca91135676d9cb6e44ca8a08c0b88342bcdb1144f6511b568910160405180910390a2505050565b60006137e8826040518060400160405280602081526020017f5361666545524332303a206c6f772d6c6576656c2063616c6c206661696c6564815250856001600160a01b03166140f29092919063ffffffff16565b805190915015612b955780806020019051810190613806919061499a565b612b955760405162461bcd60e51b815260206004820152602a60248201527f5361666545524332303a204552433230206f7065726174696f6e20646964206e6044820152691bdd081cdd58d8d9595960b21b6064820152608401610d69565b60008181526001830160205260408120548015613978576000613889600183614f11565b855490915060009061389d90600190614f11565b905081811461391e5760008660000182815481106138cb57634e487b7160e01b600052603260045260246000fd5b90600052602060002001549050808760000184815481106138fc57634e487b7160e01b600052603260045260246000fd5b6000918252602080832090910192909255918252600188019052604090208390555b855486908061393d57634e487b7160e01b600052603160045260246000fd5b600190038181906000526020600020016000905590558560010160008681526020019081526020016000206000905560019350505050610ffd565b6000915050610ffd565b6001600160a01b0383166139e65760405162461bcd60e51b815260206004820152602560248201527f45524332303a207472616e736665722066726f6d20746865207a65726f206164604482015264647265737360d81b6064820152608401610d69565b6001600160a01b038216613a485760405162461bcd60e51b815260206004820152602360248201527f45524332303a207472616e7366657220746f20746865207a65726f206164647260448201526265737360e81b6064820152608401610d69565b6001600160a01b03831660009081526020819052604090205481811015613ac05760405162461bcd60e51b815260206004820152602660248201527f45524332303a207472616e7366657220616d6f756e7420657863656564732062604482015265616c616e636560d01b6064820152608401610d69565b613aca8282614f11565b6001600160a01b038086166000908152602081905260408082209390935590851681529081208054849290613b00908490614da6565b92505081905550826001600160a01b0316846001600160a01b0316600080516020614ffb83398151915284604051613b3a91815260200190565b60405180910390a350505050565b600080670de0b6b3a7640000613b5c611bb7565b613b669085614ef2565b613b709190614dbe565b90506000613b7c611f13565b905080821115613ba357613b98613b938284614f11565b614109565b613ba0611f13565b90505b818110613bb05781613bb2565b805b6040805180820190915260018152603160f81b602082015290935083613beb5760405162461bcd60e51b8152600401610d699190614c2b565b505050919050565b6001600160a01b038216613c535760405162461bcd60e51b815260206004820152602160248201527f45524332303a206275726e2066726f6d20746865207a65726f206164647265736044820152607360f81b6064820152608401610d69565b6001600160a01b03821660009081526020819052604090205481811015613cc75760405162461bcd60e51b815260206004820152602260248201527f45524332303a206275726e20616d6f756e7420657863656564732062616c616e604482015261636560f01b6064820152608401610d69565b613cd18282614f11565b6001600160a01b03841660009081526020819052604081209190915560028054849290613cff908490614f11565b90915550506040518281526000906001600160a01b03851690600080516020614ffb83398151915290602001612e22565b60165460009060ff1615613db157600d54604051632e1a7d4d60e01b8152600481018490526001600160a01b0390911690632e1a7d4d90602401600060405180830381600087803b158015613d8457600080fd5b505af1158015613d98573d6000803e3d6000fd5b50505050613dac613da63390565b836142a5565b613dbc565b613dba826143be565b505b5090565b6040805160208101859052908101839052606081018290524660808201523060a082015260009060c0016040516020818303038152906040528051906020012090509392505050565b6000818152600183016020526040812054613e5057508154600181810184556000848152602080822090930184905584548482528286019093526040902091909155610ffd565b506000610ffd565b606081600001805480602002602001604051908101604052809291908181526020018280548015613ea857602002820191906000526020600020905b815481526020019060010190808311613e94575b50505050509050919050565b6125a433600d546001600160a01b0316903084612b9a565b600554610100900460ff1680613ee5575060055460ff16155b613f015760405162461bcd60e51b8152600401610d6990614c5e565b600554610100900460ff16158015613f23576005805461ffff19166101011790555b604080518082019091526002815261031360f41b60208201526001600160a01b038316613f635760405162461bcd60e51b8152600401610d699190614c2b565b50613f6d846143d7565b613f76836143ea565b613f7f846143fd565b600d80546001600160a01b0319166001600160a01b0384169081179091556040805163313ce56760e01b815290516000929163313ce567916004808301926020929190829003018186803b158015613fd657600080fd5b505afa158015613fea573d6000803e3d6000fd5b505050506040513d601f19601f8201168201806040525081019061400e9190614b79565b60ff16905061401e816012614f11565b61402990600a614e24565b601555508015612bd2576005805461ff001916905550505050565b600554610100900460ff168061405d575060055460ff16155b6140795760405162461bcd60e51b8152600401610d6990614c5e565b600554610100900460ff1615801561409b576005805461ffff19166101011790555b600a80546001600160a01b0319163390811790915560405181906000907fd4459d5b8b913cab0244230fd9b1c08b6ceace7fe9230e60d0f74cbffdf849d0908290a35080156125a4576005805461ff001916905550565b6060614101848460008561447c565b949350505050565b60008060008060008061411a611003565b805190915060005b8181101561429a576000614136858b614f11565b9050600084838151811061415a57634e487b7160e01b600052603260045260246000fd5b6020026020010151905061416d81611c17565b99508961417b575050614288565b89821115614187578991505b61418f611f13565b604051632e1a7d4d60e01b8152600481018490529098506001600160a01b03821690632e1a7d4d90602401600060405180830381600087803b1580156141d457600080fd5b505af19250505080156141e5575060015b6141f0575050614288565b6141f8611f13565b9850614204888a614f11565b600e54604051632fb9ba3160e01b81529198506001600160a01b031690632fb9ba31906142379084908b90600401614bc5565b600060405180830381600087803b15801561425157600080fd5b505af1158015614265573d6000803e3d6000fd5b5050505086866142759190614da6565b95508a861061428557505061429a565b50505b8061429281614f8f565b915050614122565b505050505050505050565b804710156142f55760405162461bcd60e51b815260206004820152601d60248201527f416464726573733a20696e73756666696369656e742062616c616e63650000006044820152606401610d69565b6000826001600160a01b03168260405160006040518083038185875af1925050503d8060008114614342576040519150601f19603f3d011682016040523d82523d6000602084013e614347565b606091505b5050905080612b955760405162461bcd60e51b815260206004820152603a60248201527f416464726573733a20756e61626c6520746f2073656e642076616c75652c207260448201527f6563697069656e74206d617920686176652072657665727465640000000000006064820152608401610d69565b6000613dbc33600d546001600160a01b03169084612b3f565b805161110a9060039060208401906145dd565b805161110a9060049060208401906145dd565b80516020808301919091206007819055466008556040805180820190915260018152603160f81b920191909152614476907f8b73c3c69bb8fe3d512ecc4cf759cc79239f7b179b0ffacaa9a75d522b39400f907fc89efdaa54c0f20c7adf612882df0950f5a951637e0307cdcb4c672f298b8bc6613dc0565b60065550565b6060824710156144dd5760405162461bcd60e51b815260206004820152602660248201527f416464726573733a20696e73756666696369656e742062616c616e636520666f6044820152651c8818d85b1b60d21b6064820152608401610d69565b843b61452b5760405162461bcd60e51b815260206004820152601d60248201527f416464726573733a2063616c6c20746f206e6f6e2d636f6e74726163740000006044820152606401610d69565b600080866001600160a01b031685876040516145479190614b95565b60006040518083038185875af1925050503d8060008114614584576040519150601f19603f3d011682016040523d82523d6000602084013e614589565b606091505b50915091506145998282866145a4565b979650505050505050565b606083156145b357508161136d565b8251156145c35782518084602001fd5b8160405162461bcd60e51b8152600401610d699190614c2b565b8280546145e990614f54565b90600052602060002090601f01602090048101928261460b5760008555614651565b82601f1061462457805160ff1916838001178555614651565b82800160010185558215614651579182015b82811115614651578251825591602001919060010190614636565b50613dbc9291505b80821115613dbc5760008155600101614659565b60008083601f84011261467e578182fd5b50813567ffffffffffffffff811115614695578182fd5b6020830191508360208260051b85010111156146b057600080fd5b9250929050565b8051801515811461171657600080fd5b600082601f8301126146d7578081fd5b813567ffffffffffffffff8111156146f1576146f1614fc0565b614704601f8201601f1916602001614d75565b818152846020838601011115614718578283fd5b816020850160208301379081016020019190915292915050565b600060208284031215614743578081fd5b813561136d81614fd6565b60006020828403121561475f578081fd5b815161136d81614fd6565b6000806040838503121561477c578081fd5b823561478781614fd6565b9150602083013561479781614fd6565b809150509250929050565b6000806000606084860312156147b6578081fd5b83356147c181614fd6565b925060208401356147d181614fd6565b929592945050506040919091013590565b600080600080600080600060e0888a0312156147fc578283fd5b873561480781614fd6565b9650602088013561481781614fd6565b95506040880135945060608801359350608088013561483581614feb565b9699959850939692959460a0840135945060c09093013592915050565b60008060408385031215614864578182fd5b823561486f81614fd6565b946020939093013593505050565b60008060008060408587031215614892578384fd5b843567ffffffffffffffff808211156148a9578586fd5b6148b58883890161466d565b909650945060208701359150808211156148cd578384fd5b506148da8782880161466d565b95989497509550505050565b600060208083850312156148f8578182fd5b825167ffffffffffffffff8082111561490f578384fd5b818501915085601f830112614922578384fd5b81518181111561493457614934614fc0565b8060051b9150614945848301614d75565b8181528481019084860184860187018a101561495f578788fd5b8795505b8386101561498d578051945061497885614fd6565b84835260019590950194918601918601614963565b5098975050505050505050565b6000602082840312156149ab578081fd5b61136d826146b7565b60008060008060008060008060006101208a8c0312156149d2578283fd5b6149db8a6146b7565b985060208a0151975060408a0151965060608a0151955060808a0151945060a08a0151935060c08a0151925060e08a015191506101008a015190509295985092959850929598565b60008060008060808587031215614a38578182fd5b843567ffffffffffffffff80821115614a4f578384fd5b614a5b888389016146c7565b95506020870135915080821115614a70578384fd5b50614a7d878288016146c7565b9350506040850135614a8e81614fd6565b91506060850135614a9e81614fd6565b939692955090935050565b600060208284031215614aba578081fd5b5035919050565b600060208284031215614ad2578081fd5b5051919050565b600080600060608486031215614aed578081fd5b505081359360208301359350604090920135919050565b600080600060608486031215614b18578081fd5b8351925060208401519150604084015190509250925092565b600080600080600060a08688031215614b48578283fd5b85359450602086013593506040860135614b6181614feb565b94979396509394606081013594506080013592915050565b600060208284031215614b8a578081fd5b815161136d81614feb565b60008251614ba7818460208701614f28565b9190910192915050565b6001600160a01b0391909116815260200190565b6001600160a01b03929092168252602082015260400190565b6020808252825182820181905260009190848201906040850190845b81811015614c1f5783516001600160a01b031683529284019291840191600101614bfa565b50909695505050505050565b6000602082528251806020840152614c4a816040850160208701614f28565b601f01601f19169190910160400192915050565b6020808252602e908201527f496e697469616c697a61626c653a20636f6e747261637420697320616c72656160408201526d191e481a5b9a5d1a585b1a5e995960921b606082015260800190565b6020808252600c908201526b3737ba16b096b5b2b2b832b960a11b604082015260600190565b60208082526008908201526739b43aba3237bbb760c11b604082015260600190565b6020808252601f908201527f5265656e7472616e637947756172643a207265656e7472616e742063616c6c00604082015260600190565b6020808252600690820152651c185d5cd95960d21b604082015260600190565b60208082526010908201526f3737ba16ba343296b3b7bb32b93737b960811b604082015260600190565b604051601f8201601f1916810167ffffffffffffffff81118282101715614d9e57614d9e614fc0565b604052919050565b60008219821115614db957614db9614faa565b500190565b600082614dd957634e487b7160e01b81526012600452602481fd5b500490565b80825b6001808611614df05750614e1b565b818704821115614e0257614e02614faa565b80861615614e0f57918102915b9490941c938002614de1565b94509492505050565b600061136d6000198484600082614e3d5750600161136d565b81614e4a5750600061136d565b8160018114614e605760028114614e6a57614e97565b600191505061136d565b60ff841115614e7b57614e7b614faa565b6001841b915084821115614e9157614e91614faa565b5061136d565b5060208310610133831016604e8410600b8410161715614eca575081810a83811115614ec557614ec5614faa565b61136d565b614ed78484846001614dde565b808604821115614ee957614ee9614faa565b02949350505050565b6000816000190483118215151615614f0c57614f0c614faa565b500290565b600082821015614f2357614f23614faa565b500390565b60005b83811015614f43578181015183820152602001614f2b565b83811115612bd25750506000910152565b600181811c90821680614f6857607f821691505b60208210811415614f8957634e487b7160e01b600052602260045260246000fd5b50919050565b6000600019821415614fa357614fa3614faa565b5060010190565b634e487b7160e01b600052601160045260246000fd5b634e487b7160e01b600052604160045260246000fd5b6001600160a01b03811681146125a457600080fd5b60ff811681146125a457600080fdfeddf252ad1be2c89b69c2b068fc378daa952ba7f163c4a11628f55a4df523b3efa2646970667358221220e8507e1829efb095b99b0b6580531403a930805626fe9e13e96f0a853bf2d83364736f6c63430008030033",
  "devdoc": {
    "kind": "dev",
    "methods": {
      "DOMAIN_SEPARATOR()": {
        "details": "See {IERC20Permit-DOMAIN_SEPARATOR}."
      },
      "acceptGovernorship()": {
        "details": "Allows new governor to accept governorship of the contract."
      },
      "addKeeper(address)": {
        "params": {
          "_keeperAddress": "keeper address to add."
        }
      },
      "addMaintainer(address)": {
        "params": {
          "_maintainerAddress": "maintainer address to add."
        }
      },
      "addToFeeWhitelist(address)": {
        "params": {
          "_addressToAdd": "Address to add in feeWhitelist."
        }
      },
      "allowance(address,address)": {
        "details": "See {IERC20-allowance}."
      },
      "approve(address,uint256)": {
        "details": "See {IERC20-approve}. Requirements: - `spender` cannot be the zero address."
      },
      "availableCreditLimit(address)": {
        "details": "Available credit limit is calculated based on current debt of pool and strategy, current debt limit of pool and strategy. credit available = min(pool's debt limit, strategy's debt limit, max debt per rebalance) when some strategy do not pay back outstanding debt, this impact credit line of other strategy if totalDebt of pool >= debtLimit of pool",
        "params": {
          "_strategy": "Strategy address"
        }
      },
      "balanceOf(address)": {
        "details": "Returns the amount of tokens owned by `account`."
      },
      "calculateMintage(uint256)": {
        "params": {
          "_amount": "Collateral amount"
        },
        "returns": {
          "_shares": "Amount of share that user will get"
        }
      },
      "convertFrom18(uint256)": {
        "details": "Convert from 18 decimals to token defined decimals."
      },
      "decimals()": {
        "details": "Returns the decimals of the token. default to 18"
      },
      "decreaseAllowance(address,uint256)": {
        "details": "Atomically decreases the allowance granted to `spender` by the caller. This is an alternative to {approve} that can be used as a mitigation for problems described in {IERC20-approve}. Emits an {Approval} event indicating the updated allowance. Requirements: - `spender` cannot be the zero address. - `spender` must have allowance for the caller of at least `subtractedValue`."
      },
      "deposit()": {
        "details": "Receives ETH and grants new tokens/shares to the sender depending on the value of pool's share."
      },
      "deposit(uint256)": {
        "params": {
          "_amount": "ERC20 token amount."
        }
      },
      "depositAndClaim()": {
        "details": "Deposit ETH and claim rewards if any"
      },
      "depositAndClaim(uint256)": {
        "params": {
          "_amount": "ERC20 token amount."
        }
      },
      "depositWithPermit(uint256,uint256,uint8,bytes32,bytes32)": {
        "params": {
          "_amount": "ERC20 token amount.",
          "_deadline": "The time at which signature will expire",
          "_r": "Half of the ECDSA signature pair",
          "_s": "Half of the ECDSA signature pair",
          "_v": "The recovery byte of the signature"
        }
      },
      "excessDebt(address)": {
        "params": {
          "_strategy": "Address of strategy"
        }
      },
      "increaseAllowance(address,uint256)": {
        "details": "Atomically increases the allowance granted to `spender` by the caller. This is an alternative to {approve} that can be used as a mitigation for problems described in {IERC20-approve}. Emits an {Approval} event indicating the updated allowance. Requirements: - `spender` cannot be the zero address."
      },
      "migrateStrategy(address,address)": {
        "details": "Migrating strategy aka old and new strategy should be of same type.",
        "params": {
          "_new": "Address of new strategy",
          "_old": "Address of strategy being migrated"
        }
      },
      "multiTransfer(address[],uint256[])": {
        "details": "Address array and amount array are 1:1 and are in order.",
        "params": {
          "_amounts": "array of token amounts",
          "_recipients": "array of recipient addresses"
        },
        "returns": {
          "_0": "true/false"
        }
      },
      "name()": {
        "details": "Returns the name of the token."
      },
      "permit(address,address,uint256,uint256,uint8,bytes32,bytes32)": {
        "details": "See {IERC20Permit-permit}."
      },
      "pricePerShare()": {
        "details": "Return value will be in token defined decimals."
      },
      "removeFromFeeWhitelist(address)": {
        "params": {
          "_addressToRemove": "Address to remove from feeWhitelist."
        }
      },
      "removeKeeper(address)": {
        "params": {
          "_keeperAddress": "keeper address to remove."
        }
      },
      "removeMaintainer(address)": {
        "params": {
          "_maintainerAddress": "maintainer address to remove."
        }
      },
      "reportEarning(uint256,uint256,uint256)": {
        "details": "Strategy call this in regular interval.",
        "params": {
          "_loss": "Reduce debt ,also reduce debtRatio, increase loss in record.",
          "_payback": "strategy willing to payback outstanding above debtLimit. no performance fee on this amount.  when governance has reduced debtRatio of strategy, strategy will report profit and payback amount separately.",
          "_profit": "yield generated by strategy. Strategy get performance fee on this amount"
        }
      },
      "reportLoss(uint256)": {
        "details": "Some strategies pay deposit fee thus realizing loss at deposit. For example: Curve's 3pool has some slippage due to deposit of one asset in 3pool. Strategy may want report this loss instead of waiting for next rebalance.",
        "params": {
          "_loss": "Loss that strategy want to report"
        }
      },
      "sweepERC20(address)": {
        "details": "Transfer given ERC20 token to feeCollector",
        "params": {
          "_fromToken": "Token address to sweep"
        }
      },
      "symbol()": {
        "details": "Returns the symbol of the token, usually a shorter version of the name."
      },
      "tokensHere()": {
        "details": "Returns the token stored in the pool. It will be in token defined decimals."
      },
      "totalDebtOf(address)": {
        "params": {
          "_strategy": "Strategy address"
        }
      },
      "totalSupply()": {
        "details": "Returns total supply of the token."
      },
      "totalValue()": {
        "details": "Returns total value of vesper pool, in terms of collateral token"
      },
      "transfer(address,uint256)": {
        "details": "See {IERC20-transfer}. Requirements: - `recipient` cannot be the zero address. - the caller must have a balance of at least `amount`."
      },
      "transferFrom(address,address,uint256)": {
        "details": "See {IERC20-transferFrom}. Emits an {Approval} event indicating the updated allowance. This is not required by the EIP. See the note at the beginning of {ERC20}. Requirements: - `sender` and `recipient` cannot be the zero address. - `sender` must have a balance of at least `amount`. - the caller must have allowance for ``sender``'s tokens of at least `amount`."
      },
      "transferGovernorship(address)": {
        "details": "Transfers governorship of the contract to a new account (`proposedGovernor`). Can only be called by the current owner."
      },
      "updateFeeCollector(address)": {
        "params": {
          "_newFeeCollector": "new fee collector address"
        }
      },
      "updatePoolRewards(address)": {
        "params": {
          "_newPoolRewards": "new pool rewards address"
        }
      },
      "updateWithdrawFee(uint256)": {
        "details": "Format: 1500 = 15% fee, 100 = 1%",
        "params": {
          "_newWithdrawFee": "new withdraw fee"
        }
      },
      "whitelistedWithdraw(uint256)": {
        "details": "Burn shares and return collateral. No withdraw fee will be assessed when this function is called. Only some white listed address can call this function.",
        "params": {
          "_shares": "Pool shares. It will be in 18 decimals. This function is deprecated, normal withdraw will check for whitelisted address"
        }
      },
      "withdraw(uint256)": {
        "params": {
          "_shares": "Pool shares. It will be in 18 decimals."
        }
      },
      "withdrawAndClaim(uint256)": {
        "params": {
          "_shares": "Pool shares. It will be in 18 decimals."
        }
      },
      "withdrawETH(uint256)": {
        "details": "Burns tokens/shares and returns the ETH value, after fee, of those."
      },
      "withdrawETHAndClaim(uint256)": {
        "details": "Burns tokens/shares and returns the ETH value and claim rewards if any"
      }
    },
    "version": 1
  },
  "userdoc": {
    "kind": "user",
    "methods": {
      "addKeeper(address)": {
        "notice": "Add given address in keepers list."
      },
      "addMaintainer(address)": {
        "notice": "Add given address in maintainers list."
      },
      "addToFeeWhitelist(address)": {
        "notice": "Add given address in feeWhitelist."
      },
      "availableCreditLimit(address)": {
        "notice": "Get available credit limit of strategy. This is the amount strategy can borrow from pool"
      },
      "calculateMintage(uint256)": {
        "notice": "Calculate how much shares user will get for given amount. Also return externalDepositFee if any."
      },
      "deposit(uint256)": {
        "notice": "Deposit ERC20 tokens and receive pool shares depending on the current share price."
      },
      "depositAndClaim(uint256)": {
        "notice": "Deposit ERC20 tokens and claim rewards if any"
      },
      "depositWithPermit(uint256,uint256,uint8,bytes32,bytes32)": {
        "notice": "Deposit ERC20 tokens with permit aka gasless approval."
      },
      "excessDebt(address)": {
        "notice": "Debt above current debt limit"
      },
      "feeWhitelist()": {
        "notice": "Return list of whitelisted addresses"
      },
      "keepers()": {
        "notice": "Return list of keepers"
      },
      "maintainers()": {
        "notice": "Return list of maintainers"
      },
      "migrateStrategy(address,address)": {
        "notice": "Migrate existing strategy to new strategy."
      },
      "multiTransfer(address[],uint256[])": {
        "notice": "Transfer tokens to multiple recipient"
      },
      "pricePerShare()": {
        "notice": "Get price per share"
      },
      "removeFromFeeWhitelist(address)": {
        "notice": "Remove given address from feeWhitelist."
      },
      "removeKeeper(address)": {
        "notice": "Remove given address from keepers list."
      },
      "removeMaintainer(address)": {
        "notice": "Remove given address from maintainers list."
      },
      "reportLoss(uint256)": {
        "notice": "Report loss outside of rebalance activity."
      },
      "totalDebt()": {
        "notice": "Get total debt of pool"
      },
      "totalDebtOf(address)": {
        "notice": "Get total debt of given strategy"
      },
      "totalDebtRatio()": {
        "notice": "Get total debt ratio. Total debt ratio helps us keep buffer in pool"
      },
      "updateFeeCollector(address)": {
        "notice": "Update fee collector address for this pool"
      },
      "updatePoolRewards(address)": {
        "notice": "Update pool rewards address for this pool"
      },
      "updateWithdrawFee(uint256)": {
        "notice": "Update withdraw fee for this pool"
      },
      "whitelistedWithdraw(uint256)": {
        "notice": "Withdraw collateral based on given shares and the current share price."
      },
      "withdraw(uint256)": {
        "notice": "Withdraw collateral based on given shares and the current share price. Withdraw fee, if any, will be deduced from given shares and transferred to feeCollector. Burn remaining shares and return collateral."
      },
      "withdrawAndClaim(uint256)": {
        "notice": "Withdraw collateral and claim rewards if any"
      }
    },
    "version": 1
  },
  "storageLayout": {
    "storage": [
      {
        "astId": 9122,
        "contract": "contracts/pool/VETH.sol:VETH",
        "label": "_balances",
        "offset": 0,
        "slot": "0",
        "type": "t_mapping(t_address,t_uint256)"
      },
      {
        "astId": 9128,
        "contract": "contracts/pool/VETH.sol:VETH",
        "label": "_allowances",
        "offset": 0,
        "slot": "1",
        "type": "t_mapping(t_address,t_mapping(t_address,t_uint256))"
      },
      {
        "astId": 9130,
        "contract": "contracts/pool/VETH.sol:VETH",
        "label": "_totalSupply",
        "offset": 0,
        "slot": "2",
        "type": "t_uint256"
      },
      {
        "astId": 9132,
        "contract": "contracts/pool/VETH.sol:VETH",
        "label": "_name",
        "offset": 0,
        "slot": "3",
        "type": "t_string_storage"
      },
      {
        "astId": 9134,
        "contract": "contracts/pool/VETH.sol:VETH",
        "label": "_symbol",
        "offset": 0,
        "slot": "4",
        "type": "t_string_storage"
      },
      {
        "astId": 887,
        "contract": "contracts/pool/VETH.sol:VETH",
        "label": "_initialized",
        "offset": 0,
        "slot": "5",
        "type": "t_bool"
      },
      {
        "astId": 890,
        "contract": "contracts/pool/VETH.sol:VETH",
        "label": "_initializing",
        "offset": 1,
        "slot": "5",
        "type": "t_bool"
      },
      {
        "astId": 9663,
        "contract": "contracts/pool/VETH.sol:VETH",
        "label": "_CACHED_DOMAIN_SEPARATOR",
        "offset": 0,
        "slot": "6",
        "type": "t_bytes32"
      },
      {
        "astId": 9665,
        "contract": "contracts/pool/VETH.sol:VETH",
        "label": "_HASHED_NAME",
        "offset": 0,
        "slot": "7",
        "type": "t_bytes32"
      },
      {
        "astId": 9667,
        "contract": "contracts/pool/VETH.sol:VETH",
        "label": "_CACHED_CHAIN_ID",
        "offset": 0,
        "slot": "8",
        "type": "t_uint256"
      },
      {
        "astId": 9673,
        "contract": "contracts/pool/VETH.sol:VETH",
        "label": "nonces",
        "offset": 0,
        "slot": "9",
        "type": "t_mapping(t_address,t_uint256)"
      },
      {
        "astId": 3732,
        "contract": "contracts/pool/VETH.sol:VETH",
        "label": "governor",
        "offset": 0,
        "slot": "10",
        "type": "t_address"
      },
      {
        "astId": 3734,
        "contract": "contracts/pool/VETH.sol:VETH",
        "label": "proposedGovernor",
        "offset": 0,
        "slot": "11",
        "type": "t_address"
      },
      {
        "astId": 3876,
        "contract": "contracts/pool/VETH.sol:VETH",
        "label": "paused",
        "offset": 20,
        "slot": "11",
        "type": "t_bool"
      },
      {
        "astId": 3878,
        "contract": "contracts/pool/VETH.sol:VETH",
        "label": "stopEverything",
        "offset": 21,
        "slot": "11",
        "type": "t_bool"
      },
      {
        "astId": 938,
        "contract": "contracts/pool/VETH.sol:VETH",
        "label": "_status",
        "offset": 0,
        "slot": "12",
        "type": "t_uint256"
      },
      {
        "astId": 11736,
        "contract": "contracts/pool/VETH.sol:VETH",
        "label": "token",
        "offset": 0,
        "slot": "13",
        "type": "t_contract(IERC20)1552"
      },
      {
        "astId": 11738,
        "contract": "contracts/pool/VETH.sol:VETH",
        "label": "poolAccountant",
        "offset": 0,
        "slot": "14",
        "type": "t_address"
      },
      {
        "astId": 11740,
        "contract": "contracts/pool/VETH.sol:VETH",
        "label": "poolRewards",
        "offset": 0,
        "slot": "15",
        "type": "t_address"
      },
      {
        "astId": 11742,
        "contract": "contracts/pool/VETH.sol:VETH",
        "label": "feeWhitelistObsolete",
        "offset": 0,
        "slot": "16",
        "type": "t_address"
      },
      {
        "astId": 11744,
        "contract": "contracts/pool/VETH.sol:VETH",
        "label": "keepersObsolete",
        "offset": 0,
        "slot": "17",
        "type": "t_address"
      },
      {
        "astId": 11746,
        "contract": "contracts/pool/VETH.sol:VETH",
        "label": "maintainersObsolete",
        "offset": 0,
        "slot": "18",
        "type": "t_address"
      },
      {
        "astId": 11748,
        "contract": "contracts/pool/VETH.sol:VETH",
        "label": "feeCollector",
        "offset": 0,
        "slot": "19",
        "type": "t_address"
      },
      {
        "astId": 11750,
        "contract": "contracts/pool/VETH.sol:VETH",
        "label": "withdrawFee",
        "offset": 0,
        "slot": "20",
        "type": "t_uint256"
      },
      {
        "astId": 11752,
        "contract": "contracts/pool/VETH.sol:VETH",
        "label": "decimalConversionFactor",
        "offset": 0,
        "slot": "21",
        "type": "t_uint256"
      },
      {
        "astId": 11754,
        "contract": "contracts/pool/VETH.sol:VETH",
        "label": "withdrawInETH",
        "offset": 0,
        "slot": "22",
        "type": "t_bool"
      },
      {
        "astId": 11760,
        "contract": "contracts/pool/VETH.sol:VETH",
        "label": "_feeWhitelist",
        "offset": 0,
        "slot": "23",
        "type": "t_struct(AddressSet)4299_storage"
      },
      {
        "astId": 11763,
        "contract": "contracts/pool/VETH.sol:VETH",
        "label": "_keepers",
        "offset": 0,
        "slot": "25",
        "type": "t_struct(AddressSet)4299_storage"
      },
      {
        "astId": 11766,
        "contract": "contracts/pool/VETH.sol:VETH",
        "label": "_maintainers",
        "offset": 0,
        "slot": "27",
        "type": "t_struct(AddressSet)4299_storage"
      }
    ],
    "types": {
      "t_address": {
        "encoding": "inplace",
        "label": "address",
        "numberOfBytes": "20"
      },
      "t_array(t_bytes32)dyn_storage": {
        "base": "t_bytes32",
        "encoding": "dynamic_array",
        "label": "bytes32[]",
        "numberOfBytes": "32"
      },
      "t_bool": {
        "encoding": "inplace",
        "label": "bool",
        "numberOfBytes": "1"
      },
      "t_bytes32": {
        "encoding": "inplace",
        "label": "bytes32",
        "numberOfBytes": "32"
      },
      "t_contract(IERC20)1552": {
        "encoding": "inplace",
        "label": "contract IERC20",
        "numberOfBytes": "20"
      },
      "t_mapping(t_address,t_mapping(t_address,t_uint256))": {
        "encoding": "mapping",
        "key": "t_address",
        "label": "mapping(address => mapping(address => uint256))",
        "numberOfBytes": "32",
        "value": "t_mapping(t_address,t_uint256)"
      },
      "t_mapping(t_address,t_uint256)": {
        "encoding": "mapping",
        "key": "t_address",
        "label": "mapping(address => uint256)",
        "numberOfBytes": "32",
        "value": "t_uint256"
      },
      "t_mapping(t_bytes32,t_uint256)": {
        "encoding": "mapping",
        "key": "t_bytes32",
        "label": "mapping(bytes32 => uint256)",
        "numberOfBytes": "32",
        "value": "t_uint256"
      },
      "t_string_storage": {
        "encoding": "bytes",
        "label": "string",
        "numberOfBytes": "32"
      },
      "t_struct(AddressSet)4299_storage": {
        "encoding": "inplace",
        "label": "struct EnumerableSet.AddressSet",
        "members": [
          {
            "astId": 4298,
            "contract": "contracts/pool/VETH.sol:VETH",
            "label": "_inner",
            "offset": 0,
            "slot": "0",
            "type": "t_struct(Set)3998_storage"
          }
        ],
        "numberOfBytes": "64"
      },
      "t_struct(Set)3998_storage": {
        "encoding": "inplace",
        "label": "struct EnumerableSet.Set",
        "members": [
          {
            "astId": 3993,
            "contract": "contracts/pool/VETH.sol:VETH",
            "label": "_values",
            "offset": 0,
            "slot": "0",
            "type": "t_array(t_bytes32)dyn_storage"
          },
          {
            "astId": 3997,
            "contract": "contracts/pool/VETH.sol:VETH",
            "label": "_indexes",
            "offset": 0,
            "slot": "1",
            "type": "t_mapping(t_bytes32,t_uint256)"
          }
        ],
        "numberOfBytes": "64"
      },
      "t_uint256": {
        "encoding": "inplace",
        "label": "uint256",
        "numberOfBytes": "32"
      }
    }
  }
}