{
  "address": "0x2740B8b29B229bD690252DBc5590A5c7416e44DC",
  "abi": [
    {
      "inputs": [
        {
          "internalType": "address",
          "name": "_pool",
          "type": "address"
        },
        {
          "internalType": "address",
          "name": "_cm",
          "type": "address"
        },
        {
          "internalType": "address",
          "name": "_swapManager",
          "type": "address"
        },
        {
          "internalType": "address",
          "name": "_vPool",
          "type": "address"
        }
      ],
      "stateMutability": "nonpayable",
      "type": "constructor"
    },
    {
      "anonymous": false,
      "inputs": [
        {
          "indexed": false,
          "internalType": "uint256",
          "name": "oldDripPeriod",
          "type": "uint256"
        },
        {
          "indexed": false,
          "internalType": "uint256",
          "name": "newDripPeriod",
          "type": "uint256"
        }
      ],
      "name": "DripPeriodUpdated",
      "type": "event"
    },
    {
      "anonymous": false,
      "inputs": [
        {
          "indexed": true,
          "internalType": "address",
          "name": "previousFeeCollector",
          "type": "address"
        },
        {
          "indexed": true,
          "internalType": "address",
          "name": "newFeeCollector",
          "type": "address"
        }
      ],
      "name": "UpdatedFeeCollector",
      "type": "event"
    },
    {
      "anonymous": false,
      "inputs": [
        {
          "indexed": false,
          "internalType": "uint256",
          "name": "oldPeriod",
          "type": "uint256"
        },
        {
          "indexed": false,
          "internalType": "uint256",
          "name": "newPeriod",
          "type": "uint256"
        },
        {
          "indexed": false,
          "internalType": "uint256",
          "name": "oldRouterIdx",
          "type": "uint256"
        },
        {
          "indexed": false,
          "internalType": "uint256",
          "name": "newRouterIdx",
          "type": "uint256"
        }
      ],
      "name": "UpdatedOracleConfig",
      "type": "event"
    },
    {
      "anonymous": false,
      "inputs": [
        {
          "indexed": true,
          "internalType": "address",
          "name": "previousSwapManager",
          "type": "address"
        },
        {
          "indexed": true,
          "internalType": "address",
          "name": "newSwapManager",
          "type": "address"
        }
      ],
      "name": "UpdatedSwapManager",
      "type": "event"
    },
    {
      "anonymous": false,
      "inputs": [
        {
          "indexed": false,
          "internalType": "uint256",
          "name": "oldSwapSlippage",
          "type": "uint256"
        },
        {
          "indexed": false,
          "internalType": "uint256",
          "name": "newSwapSlippage",
          "type": "uint256"
        }
      ],
      "name": "UpdatedSwapSlippage",
      "type": "event"
    },
    {
      "inputs": [],
      "name": "NAME",
      "outputs": [
        {
          "internalType": "string",
          "name": "",
          "type": "string"
        }
      ],
      "stateMutability": "view",
      "type": "function"
    },
    {
      "inputs": [],
      "name": "VERSION",
      "outputs": [
        {
          "internalType": "string",
          "name": "",
          "type": "string"
        }
      ],
      "stateMutability": "view",
      "type": "function"
    },
    {
      "inputs": [
        {
          "internalType": "address",
          "name": "_keeperAddress",
          "type": "address"
        }
      ],
      "name": "addKeeper",
      "outputs": [],
      "stateMutability": "nonpayable",
      "type": "function"
    },
    {
      "inputs": [],
      "name": "approveGrowToken",
      "outputs": [],
      "stateMutability": "nonpayable",
      "type": "function"
    },
    {
      "inputs": [],
      "name": "approveToken",
      "outputs": [],
      "stateMutability": "nonpayable",
      "type": "function"
    },
    {
      "inputs": [],
      "name": "cm",
      "outputs": [
        {
          "internalType": "contract ICollateralManager",
          "name": "",
          "type": "address"
        }
      ],
      "stateMutability": "view",
      "type": "function"
    },
    {
      "inputs": [],
      "name": "collateralToken",
      "outputs": [
        {
          "internalType": "contract IERC20",
          "name": "",
          "type": "address"
        }
      ],
      "stateMutability": "view",
      "type": "function"
    },
    {
      "inputs": [],
      "name": "collateralType",
      "outputs": [
        {
          "internalType": "bytes32",
          "name": "",
          "type": "bytes32"
        }
      ],
      "stateMutability": "view",
      "type": "function"
    },
    {
      "inputs": [
        {
          "internalType": "uint256",
          "name": "amount",
          "type": "uint256"
        }
      ],
      "name": "convertFrom18",
      "outputs": [
        {
          "internalType": "uint256",
          "name": "",
          "type": "uint256"
        }
      ],
      "stateMutability": "pure",
      "type": "function"
    },
    {
      "inputs": [],
      "name": "createVault",
      "outputs": [],
      "stateMutability": "nonpayable",
      "type": "function"
    },
    {
      "inputs": [],
      "name": "dripPeriod",
      "outputs": [
        {
          "internalType": "uint256",
          "name": "",
          "type": "uint256"
        }
      ],
      "stateMutability": "view",
      "type": "function"
    },
    {
      "inputs": [],
      "name": "dripToken",
      "outputs": [
        {
          "internalType": "address",
          "name": "",
          "type": "address"
        }
      ],
      "stateMutability": "view",
      "type": "function"
    },
    {
      "inputs": [],
      "name": "feeCollector",
      "outputs": [
        {
          "internalType": "address",
          "name": "",
          "type": "address"
        }
      ],
      "stateMutability": "view",
      "type": "function"
    },
    {
      "inputs": [],
      "name": "highWater",
      "outputs": [
        {
          "internalType": "uint256",
          "name": "",
          "type": "uint256"
        }
      ],
      "stateMutability": "view",
      "type": "function"
    },
    {
      "inputs": [
        {
          "internalType": "address",
          "name": "_addressListFactory",
          "type": "address"
        }
      ],
      "name": "init",
      "outputs": [],
      "stateMutability": "nonpayable",
      "type": "function"
    },
    {
      "inputs": [
        {
          "internalType": "address",
          "name": "_token",
          "type": "address"
        }
      ],
      "name": "isReservedToken",
      "outputs": [
        {
          "internalType": "bool",
          "name": "",
          "type": "bool"
        }
      ],
      "stateMutability": "view",
      "type": "function"
    },
    {
      "inputs": [],
      "name": "isUnderwater",
      "outputs": [
        {
          "internalType": "bool",
          "name": "",
          "type": "bool"
        }
      ],
      "stateMutability": "view",
      "type": "function"
    },
    {
      "inputs": [],
      "name": "keepers",
      "outputs": [
        {
          "internalType": "contract IAddressList",
          "name": "",
          "type": "address"
        }
      ],
      "stateMutability": "view",
      "type": "function"
    },
    {
      "inputs": [],
      "name": "lowWater",
      "outputs": [
        {
          "internalType": "uint256",
          "name": "",
          "type": "uint256"
        }
      ],
      "stateMutability": "view",
      "type": "function"
    },
    {
      "inputs": [
        {
          "internalType": "address",
          "name": "_newStrategy",
          "type": "address"
        }
      ],
      "name": "migrate",
      "outputs": [],
      "stateMutability": "nonpayable",
      "type": "function"
    },
    {
      "inputs": [],
      "name": "oraclePeriod",
      "outputs": [
        {
          "internalType": "uint256",
          "name": "",
          "type": "uint256"
        }
      ],
      "stateMutability": "view",
      "type": "function"
    },
    {
      "inputs": [],
      "name": "oracleRouterIdx",
      "outputs": [
        {
          "internalType": "uint256",
          "name": "",
          "type": "uint256"
        }
      ],
      "stateMutability": "view",
      "type": "function"
    },
    {
      "inputs": [],
      "name": "pool",
      "outputs": [
        {
          "internalType": "address",
          "name": "",
          "type": "address"
        }
      ],
      "stateMutability": "view",
      "type": "function"
    },
    {
      "inputs": [],
      "name": "rebalance",
      "outputs": [],
      "stateMutability": "nonpayable",
      "type": "function"
    },
    {
      "inputs": [],
      "name": "receiptToken",
      "outputs": [
        {
          "internalType": "address",
          "name": "",
          "type": "address"
        }
      ],
      "stateMutability": "view",
      "type": "function"
    },
    {
      "inputs": [
        {
          "internalType": "address",
          "name": "_keeperAddress",
          "type": "address"
        }
      ],
      "name": "removeKeeper",
      "outputs": [],
      "stateMutability": "nonpayable",
      "type": "function"
    },
    {
      "inputs": [],
      "name": "resurface",
      "outputs": [],
      "stateMutability": "nonpayable",
      "type": "function"
    },
    {
      "inputs": [],
      "name": "setupOracles",
      "outputs": [],
      "stateMutability": "nonpayable",
      "type": "function"
    },
    {
      "inputs": [],
      "name": "swapManager",
      "outputs": [
        {
          "internalType": "contract ISwapManager",
          "name": "",
          "type": "address"
        }
      ],
      "stateMutability": "view",
      "type": "function"
    },
    {
      "inputs": [],
      "name": "swapSlippage",
      "outputs": [
        {
          "internalType": "uint256",
          "name": "",
          "type": "uint256"
        }
      ],
      "stateMutability": "view",
      "type": "function"
    },
    {
      "inputs": [
        {
          "internalType": "address",
          "name": "_fromToken",
          "type": "address"
        }
      ],
      "name": "sweepERC20",
      "outputs": [],
      "stateMutability": "nonpayable",
      "type": "function"
    },
    {
      "inputs": [],
      "name": "token",
      "outputs": [
        {
          "internalType": "address",
          "name": "",
          "type": "address"
        }
      ],
      "stateMutability": "view",
      "type": "function"
    },
    {
      "inputs": [],
      "name": "totalEarned",
      "outputs": [
        {
          "internalType": "uint256",
          "name": "",
          "type": "uint256"
        }
      ],
      "stateMutability": "view",
      "type": "function"
    },
    {
      "inputs": [],
      "name": "totalValue",
      "outputs": [
        {
          "internalType": "uint256",
          "name": "_totalValue",
          "type": "uint256"
        }
      ],
      "stateMutability": "view",
      "type": "function"
    },
    {
      "inputs": [],
      "name": "totalValueCurrent",
      "outputs": [
        {
          "internalType": "uint256",
          "name": "",
          "type": "uint256"
        }
      ],
      "stateMutability": "nonpayable",
      "type": "function"
    },
    {
      "inputs": [
        {
          "internalType": "uint256",
          "name": "_highWater",
          "type": "uint256"
        },
        {
          "internalType": "uint256",
          "name": "_lowWater",
          "type": "uint256"
        }
      ],
      "name": "updateBalancingFactor",
      "outputs": [],
      "stateMutability": "nonpayable",
      "type": "function"
    },
    {
      "inputs": [
        {
          "internalType": "uint256",
          "name": "_dripPeriod",
          "type": "uint256"
        }
      ],
      "name": "updateDripPeriod",
      "outputs": [],
      "stateMutability": "nonpayable",
      "type": "function"
    },
    {
      "inputs": [
        {
          "internalType": "address",
          "name": "_feeCollector",
          "type": "address"
        }
      ],
      "name": "updateFeeCollector",
      "outputs": [],
      "stateMutability": "nonpayable",
      "type": "function"
    },
    {
      "inputs": [
        {
          "internalType": "uint256",
          "name": "_newPeriod",
          "type": "uint256"
        },
        {
          "internalType": "uint256",
          "name": "_newRouterIdx",
          "type": "uint256"
        }
      ],
      "name": "updateOracleConfig",
      "outputs": [],
      "stateMutability": "nonpayable",
      "type": "function"
    },
    {
      "inputs": [
        {
          "internalType": "address",
          "name": "_swapManager",
          "type": "address"
        }
      ],
      "name": "updateSwapManager",
      "outputs": [],
      "stateMutability": "nonpayable",
      "type": "function"
    },
    {
      "inputs": [
        {
          "internalType": "uint256",
          "name": "_newSwapSlippage",
          "type": "uint256"
        }
      ],
      "name": "updateSwapSlippage",
      "outputs": [],
      "stateMutability": "nonpayable",
      "type": "function"
    },
    {
      "inputs": [],
      "name": "vaultNum",
      "outputs": [
        {
          "internalType": "uint256",
          "name": "",
          "type": "uint256"
        }
      ],
      "stateMutability": "view",
      "type": "function"
    },
    {
      "inputs": [
        {
          "internalType": "uint256",
          "name": "_amount",
          "type": "uint256"
        }
      ],
      "name": "withdraw",
      "outputs": [],
      "stateMutability": "nonpayable",
      "type": "function"
    }
  ],
  "transactionHash": "0x8ad8fbaec6b5d18f8186ac3a44af6e579063bf95f81fd3d0a1541507bfa8450c",
  "args": [
    "0x7a74B6D3A07D3249Ea2FBb58e47F0DaF6d6a2ebf",
    "0xaBC64889601F01e7B26277Ef8756250d6ABf8c18",
    "0xe382d9f2394A359B01006faa8A1864b8a60d2710",
    "0x0538C8bAc84E95A9dF8aC10Aad17DbE81b9E36ee"
  ],
  "solcInputHash": "58156af3fae579b1e45921d9f5b0a074",
  "bytecode": "0x610120604052610e1060045560006005556127106006556202a3006009553480156200002a57600080fd5b506040516200589e3803806200589e8339810160408190526200004d916200062b565b8383838365574254432d4160d01b736b175474e89094c44da98b954eedeac495271d0f80868686868684848484848483836001600160a01b038316620000da5760405162461bcd60e51b815260206004820152601460248201527f706f6f6c2d616464726573732d69732d7a65726f00000000000000000000000060448201526064015b60405180910390fd5b6001600160a01b038216620001275760405162461bcd60e51b8152602060048201526012602482015271736d2d616464726573732d69732d7a65726f60701b6044820152606401620000d1565b600380546001600160a01b0319166001600160a01b0384811691909117909155606084901b6001600160601b03191660a05260408051637e062a3560e11b815290519185169163fc0c546a91600480820192602092909190829003018186803b1580156200019457600080fd5b505afa158015620001a9573d6000803e3d6000fd5b505050506040513d601f19601f82011682018060405250810190620001cf919062000605565b60601b6001600160601b031916608052600080546001600160a01b0319166001600160a01b039283161790558616151591506200024690505760405162461bcd60e51b8152602060048201526012602482015271636d2d616464726573732d69732d7a65726f60701b6044820152606401620000d1565b60e052505060601b6001600160601b03191660c0525060408051637e062a3560e11b81529051736b175474e89094c44da98b954eedeac495271d0f916001600160a01b0385169163fc0c546a91600480820192602092909190829003018186803b158015620002b457600080fd5b505afa158015620002c9573d6000803e3d6000fd5b505050506040513d601f19601f82011682018060405250810190620002ef919062000605565b6001600160a01b031614620003475760405162461bcd60e51b815260206004820152601460248201527f6e6f742d612d76616c69642d6461692d706f6f6c0000000000000000000000006044820152606401620000d1565b50505050506001600160a01b038116620003955760405162461bcd60e51b815260206004820152600e60248201526d64726970546f6b656e2d7a65726f60901b6044820152606401620000d1565b806001600160a01b0316610100816001600160a01b031660601b8152505050736b175474e89094c44da98b954eedeac495271d0f6001600160a01b0316836001600160a01b031663fc0c546a6040518163ffffffff1660e01b815260040160206040518083038186803b1580156200040c57600080fd5b505afa15801562000421573d6000803e3d6000fd5b505050506040513d601f19601f8201168201806040525081019062000447919062000605565b6001600160a01b0316146200049f5760405162461bcd60e51b815260206004820152601460248201527f6e6f742d612d76616c69642d6461692d706f6f6c0000000000000000000000006044820152606401620000d1565b6000866001600160a01b0316638bc6beb26040518163ffffffff1660e01b8152600401602060405180830381600087803b158015620004dd57600080fd5b505af1158015620004f2573d6000803e3d6000fd5b505050506040513d601f19601f8201168201806040525081019062000518919062000605565b90506000816001600160a01b031663e49e463b6040518163ffffffff1660e01b815260040160206040518083038186803b1580156200055657600080fd5b505afa1580156200056b573d6000803e3d6000fd5b505050506040513d601f19601f8201168201806040525081019062000591919062000605565b6000549091506001600160a01b03808316911614620005f35760405162461bcd60e51b815260206004820152601560248201527f6e6f742d612d76616c69642d67726f772d706f6f6c00000000000000000000006044820152606401620000d1565b505050505050505050505050620006ab565b60006020828403121562000617578081fd5b8151620006248162000692565b9392505050565b6000806000806080858703121562000641578283fd5b84516200064e8162000692565b6020860151909450620006618162000692565b6040860151909350620006748162000692565b6060860151909250620006878162000692565b939692955090935050565b6001600160a01b0381168114620006a857600080fd5b50565b60805160601c60a05160601c60c05160601c60e0516101005160601c615005620008996000396000818161033d0152818161162e0152818161171e01528181611753015281816139f5015261404f0152600081816105540152818161128501526134e201526000818161040601528181610c9501528181610f64015281816112ab015281816122f701528181612470015281816129c001528181612b3b01528181612cbb015281816131a00152818161322d015281816135de015281816137b6015281816138b001528181613ade01528181613b6201528181613baf01528181613cba01528181613d0e0152613faa015260008181610288015281816105d401528181610763015281816108e801528181610b6301528181610dce01528181611004015281816111b70152818161133101528181611524015281816118620152818161198701528181611c6601528181611de301528181611eac01528181612102015281816127e201528181612dbd01528181612fa70152818161304401528181613d62015281816140cf01526143340152600081816104b501528181612054015281816120d9015281816123bb015281816125fb0152818161280c01528181612a660152818161310001528181613a3601528181613cec01528181613d400152613e9f01526150056000f3fe608060405234801561001057600080fd5b50600436106102695760003560e01c80637d7c2a1c11610151578063cd2d7ebe116100c3578063e645c20211610087578063e645c20214610547578063e824600f1461054f578063ec78e83214610576578063fb589de214610589578063fc0c546a1461059c578063ffa1ad74146105ad57610269565b8063cd2d7ebe146104fd578063ce5494bb14610506578063d2c35ce814610519578063d4c3eea01461052c578063e00af4a71461053457610269565b8063a923b2a611610115578063a923b2a61461048c578063aa1018861461049f578063b09e8797146104a7578063b2016bd4146104b0578063b442bb23146104d7578063c415b95c146104ea57610269565b80637d7c2a1c146103f95780639318162014610401578063951dc22c1461042857806399b71d5c1461043b578063a3f4df7e1461044357610269565b80634032b72b116101ea5780635d12928b116101ae5780635d12928b146103b157806367f5e4b8146103b95780636dfa8d99146103cc578063709d039d146103d557806371506414146103e85780637737b672146103f157610269565b80634032b72b14610367578063415eea1b1461037a57806342189c8f14610382578063440d72481461038b5780634c36fad71461039e57610269565b806325afda831161023157806325afda83146103045780632e1a7d4d1461030d5780632ecd89d414610320578063335bbf11146103385780633e9182611461035f57610269565b806314ae9f2e1461026e57806316f0115b146102835780631960d116146102c757806319ab453c146102da5780631aedeabe146102ed575b600080fd5b61028161027c366004614ae2565b6105d2565b005b6102aa7f000000000000000000000000000000000000000000000000000000000000000081565b6040516001600160a01b0390911681526020015b60405180910390f35b6102816102d5366004614cd7565b610761565b6102816102e8366004614ae2565b6108e6565b6102f660065481565b6040519081526020016102be565b6102f660085481565b61028161031b366004614cd7565b610b60565b610328610bdd565b60405190151581526020016102be565b6102aa7f000000000000000000000000000000000000000000000000000000000000000081565b610281610d1d565b610281610375366004614ae2565b610dcc565b6102f6610f4c565b6102f660045481565b610328610399366004614ae2565b610feb565b6102816103ac366004614ae2565b611002565b6102816111b5565b6102816103c7366004614cd7565b61132f565b6102f6600a5481565b6003546102aa906001600160a01b031681565b6102f660095481565b61028161147b565b61028161177c565b6102aa7f000000000000000000000000000000000000000000000000000000000000000081565b6001546102aa906001600160a01b031681565b6102816118cb565b61047f6040518060400160405280601f81526020017f4561726e2d5665737065722d4d616b65722d53747261746567792d574254430081525081565b6040516102be9190614dae565b61028161049a366004614cef565b611985565b610281611bba565b6102f660075481565b6102aa7f000000000000000000000000000000000000000000000000000000000000000081565b6102816104e5366004614cef565b611c64565b6002546102aa906001600160a01b031681565b6102f660055481565b610281610514366004614ae2565b611de0565b610281610527366004614ae2565b612100565b6102f66122c9565b610281610542366004614ae2565b612504565b6102f661279f565b6102f67f000000000000000000000000000000000000000000000000000000000000000081565b6000546102aa906001600160a01b031681565b6102f6610597366004614cd7565b6127a9565b6000546001600160a01b03166102aa565b61047f60405180604001604052806006815260200165332e302e313560d01b81525081565b7f00000000000000000000000000000000000000000000000000000000000000006001600160a01b0316630c340a246040518163ffffffff1660e01b815260040160206040518083038186803b15801561062b57600080fd5b505afa15801561063f573d6000803e3d6000fd5b505050506040513d601f19601f820116820180604052508101906106639190614afe565b6001600160a01b0316336001600160a01b03161461069c5760405162461bcd60e51b815260040161069390614e11565b60405180910390fd5b600154604051631484968760e11b81526001600160a01b038381166004830152909116906329092d0e90602401602060405180830381600087803b1580156106e357600080fd5b505af11580156106f7573d6000803e3d6000fd5b505050506040513d601f19601f8201168201806040525081019061071b9190614c40565b61075e5760405162461bcd60e51b81526020600482015260146024820152731c995b5bdd994b5ad9595c195c8b59985a5b195960621b6044820152606401610693565b50565b7f00000000000000000000000000000000000000000000000000000000000000006001600160a01b0316630c340a246040518163ffffffff1660e01b815260040160206040518083038186803b1580156107ba57600080fd5b505afa1580156107ce573d6000803e3d6000fd5b505050506040513d601f19601f820116820180604052508101906107f29190614afe565b6001600160a01b0316336001600160a01b0316146108225760405162461bcd60e51b815260040161069390614e11565b806108615760405162461bcd60e51b815260206004820152600f60248201526e64726970506572696f642d7a65726f60881b6044820152606401610693565b6009548114156108a55760405162461bcd60e51b815260206004820152600f60248201526e1cd85b594b591c9a5c14195c9a5bd9608a1b6044820152606401610693565b60095460408051918252602082018390527f6a4a78fe36e2d43bd20405835c6211b888cc77a834e32ddc9ac64ded78f4b328910160405180910390a1600955565b7f00000000000000000000000000000000000000000000000000000000000000006001600160a01b0316630c340a246040518163ffffffff1660e01b815260040160206040518083038186803b15801561093f57600080fd5b505afa158015610953573d6000803e3d6000fd5b505050506040513d601f19601f820116820180604052508101906109779190614afe565b6001600160a01b0316336001600160a01b0316146109a75760405162461bcd60e51b815260040161069390614e11565b6001546001600160a01b031615610a005760405162461bcd60e51b815260206004820152601b60248201527f6b65657065722d6c6973742d616c72656164792d6372656174656400000000006044820152606401610693565b6000819050806001600160a01b0316630fab4d256040518163ffffffff1660e01b8152600401602060405180830381600087803b158015610a4057600080fd5b505af1158015610a54573d6000803e3d6000fd5b505050506040513d601f19601f82011682018060405250810190610a789190614afe565b600180546001600160a01b0319166001600160a01b03929092169182179055630a3b0a4f610aa33390565b6040516001600160e01b031960e084901b1681526001600160a01b039091166004820152602401602060405180830381600087803b158015610ae457600080fd5b505af1158015610af8573d6000803e3d6000fd5b505050506040513d601f19601f82011682018060405250810190610b1c9190614c40565b610b5c5760405162461bcd60e51b81526020600482015260116024820152701859190b5ad9595c195c8b59985a5b1959607a1b6044820152606401610693565b5050565b337f00000000000000000000000000000000000000000000000000000000000000006001600160a01b031614610bd45760405162461bcd60e51b815260206004820152601960248201527818d85b1b195c8b5a5ccb5b9bdd0b5d995cdc195c8b5c1bdbdb603a1b6044820152606401610693565b61075e816127c0565b6040516370a0823160e01b8152306004820152600090736b175474e89094c44da98b954eedeac495271d0f906370a082319060240160206040518083038186803b158015610c2a57600080fd5b505afa158015610c3e573d6000803e3d6000fd5b505050506040513d601f19601f82011682018060405250810190610c629190614cbf565b610c6a61283b565b610c749190614ed9565b610c80906103e8614ed9565b60405163c0af0d3b60e01b81523060048201527f00000000000000000000000000000000000000000000000000000000000000006001600160a01b03169063c0af0d3b9060240160206040518083038186803b158015610cdf57600080fd5b505afa158015610cf3573d6000803e3d6000fd5b505050506040513d601f19601f82011682018060405250810190610d179190614cbf565b11905090565b6001546001600160a01b0316635dbe47e8336040516001600160e01b031960e084901b1681526001600160a01b03909116600482015260240160206040518083038186803b158015610d6e57600080fd5b505afa158015610d82573d6000803e3d6000fd5b505050506040513d601f19601f82011682018060405250810190610da69190614c40565b610dc25760405162461bcd60e51b815260040161069390614de1565b610dca612957565b565b7f00000000000000000000000000000000000000000000000000000000000000006001600160a01b0316630c340a246040518163ffffffff1660e01b815260040160206040518083038186803b158015610e2557600080fd5b505afa158015610e39573d6000803e3d6000fd5b505050506040513d601f19601f82011682018060405250810190610e5d9190614afe565b6001600160a01b0316336001600160a01b031614610e8d5760405162461bcd60e51b815260040161069390614e11565b600154604051630a3b0a4f60e01b81526001600160a01b03838116600483015290911690630a3b0a4f90602401602060405180830381600087803b158015610ed457600080fd5b505af1158015610ee8573d6000803e3d6000fd5b505050506040513d601f19601f82011682018060405250810190610f0c9190614c40565b61075e5760405162461bcd60e51b81526020600482015260116024820152701859190b5ad9595c195c8b59985a5b1959607a1b6044820152606401610693565b60405163cd1adb6160e01b81523060048201526000907f00000000000000000000000000000000000000000000000000000000000000006001600160a01b03169063cd1adb619060240160206040518083038186803b158015610fae57600080fd5b505afa158015610fc2573d6000803e3d6000fd5b505050506040513d601f19601f82011682018060405250810190610fe69190614cbf565b905090565b6000546001600160a01b038281169116145b919050565b7f00000000000000000000000000000000000000000000000000000000000000006001600160a01b0316630c340a246040518163ffffffff1660e01b815260040160206040518083038186803b15801561105b57600080fd5b505afa15801561106f573d6000803e3d6000fd5b505050506040513d601f19601f820116820180604052508101906110939190614afe565b6001600160a01b0316336001600160a01b0316146110c35760405162461bcd60e51b815260040161069390614e11565b6001600160a01b03811661110e5760405162461bcd60e51b8152602060048201526012602482015271736d2d616464726573732d69732d7a65726f60701b6044820152606401610693565b6003546001600160a01b03828116911614156111595760405162461bcd60e51b815260206004820152600a602482015269736d2d69732d73616d6560b01b6044820152606401610693565b6003546040516001600160a01b038084169216907f2d19927e7cac08ceb98b38898a4fdff6da6a27295b9a2d62fe250408ebe044e190600090a3600380546001600160a01b0319166001600160a01b0392909216919091179055565b7f00000000000000000000000000000000000000000000000000000000000000006001600160a01b0316630c340a246040518163ffffffff1660e01b815260040160206040518083038186803b15801561120e57600080fd5b505afa158015611222573d6000803e3d6000fd5b505050506040513d601f19601f820116820180604052508101906112469190614afe565b6001600160a01b0316336001600160a01b0316146112765760405162461bcd60e51b815260040161069390614e11565b604051630bbccf9b60e11b81527f000000000000000000000000000000000000000000000000000000000000000060048201527f00000000000000000000000000000000000000000000000000000000000000006001600160a01b0316906317799f3690602401602060405180830381600087803b1580156112f757600080fd5b505af115801561130b573d6000803e3d6000fd5b505050506040513d601f19601f8201168201806040525081019061075e9190614cbf565b7f00000000000000000000000000000000000000000000000000000000000000006001600160a01b0316630c340a246040518163ffffffff1660e01b815260040160206040518083038186803b15801561138857600080fd5b505afa15801561139c573d6000803e3d6000fd5b505050506040513d601f19601f820116820180604052508101906113c09190614afe565b6001600160a01b0316336001600160a01b0316146113f05760405162461bcd60e51b815260040161069390614e11565b61271081111561143b5760405162461bcd60e51b8152602060048201526016602482015275696e76616c69642d736c6970706167652d76616c756560501b6044820152606401610693565b60065460408051918252602082018390527ef1c5db862c7598b3b6765552ca951f498611e06412c2d57f8d0b58f82e7f82910160405180910390a1600655565b6001546001600160a01b0316635dbe47e8336040516001600160e01b031960e084901b1681526001600160a01b03909116600482015260240160206040518083038186803b1580156114cc57600080fd5b505afa1580156114e0573d6000803e3d6000fd5b505050506040513d601f19601f820116820180604052508101906115049190614c40565b6115205760405162461bcd60e51b815260040161069390614de1565b60007f00000000000000000000000000000000000000000000000000000000000000006001600160a01b0316638bc6beb26040518163ffffffff1660e01b8152600401602060405180830381600087803b15801561157d57600080fd5b505af1158015611591573d6000803e3d6000fd5b505050506040513d601f19601f820116820180604052508101906115b59190614afe565b90506000816001600160a01b031663e49e463b6040518163ffffffff1660e01b815260040160206040518083038186803b1580156115f257600080fd5b505afa158015611606573d6000803e3d6000fd5b505050506040513d601f19601f8201168201806040525081019061162a9190614afe565b90507f00000000000000000000000000000000000000000000000000000000000000006001600160a01b0316816001600160a01b031663fc0c546a6040518163ffffffff1660e01b815260040160206040518083038186803b15801561168f57600080fd5b505afa1580156116a3573d6000803e3d6000fd5b505050506040513d601f19601f820116820180604052508101906116c79190614afe565b6001600160a01b0316146117115760405162461bcd60e51b81526020600482015260116024820152701a5b9d985b1a590b59dc9bddcb5c1bdbdb607a1b6044820152606401610693565b6117466001600160a01b037f000000000000000000000000000000000000000000000000000000000000000016826000612e2a565b610b5c6001600160a01b037f00000000000000000000000000000000000000000000000000000000000000001682600019612e2a565b6001546001600160a01b0316635dbe47e8336040516001600160e01b031960e084901b1681526001600160a01b03909116600482015260240160206040518083038186803b1580156117cd57600080fd5b505afa1580156117e1573d6000803e3d6000fd5b505050506040513d601f19601f820116820180604052508101906118059190614c40565b6118215760405162461bcd60e51b815260040161069390614de1565b600080600061182e612f81565b6040516302df682360e11b815260048101849052602481018390526044810182905292955090935091506001600160a01b037f000000000000000000000000000000000000000000000000000000000000000016906305bed04690606401600060405180830381600087803b1580156118a657600080fd5b505af11580156118ba573d6000803e3d6000fd5b505050506118c66130e8565b505050565b6001546001600160a01b0316635dbe47e8336040516001600160e01b031960e084901b1681526001600160a01b03909116600482015260240160206040518083038186803b15801561191c57600080fd5b505afa158015611930573d6000803e3d6000fd5b505050506040513d601f19601f820116820180604052508101906119549190614c40565b6119705760405162461bcd60e51b815260040161069390614de1565b61197a600061336f565b610dca60001961336f565b7f00000000000000000000000000000000000000000000000000000000000000006001600160a01b0316630c340a246040518163ffffffff1660e01b815260040160206040518083038186803b1580156119de57600080fd5b505afa1580156119f2573d6000803e3d6000fd5b505050506040513d601f19601f82011682018060405250810190611a169190614afe565b6001600160a01b0316336001600160a01b031614611a465760405162461bcd60e51b815260040161069390614e11565b600360009054906101000a90046001600160a01b03166001600160a01b031663c2fba6676040518163ffffffff1660e01b815260040160206040518083038186803b158015611a9457600080fd5b505afa158015611aa8573d6000803e3d6000fd5b505050506040513d601f19601f82011682018060405250810190611acc9190614cbf565b8110611b115760405162461bcd60e51b81526020600482015260146024820152730d2dcecc2d8d2c85ae4deeae8cae45ad2dcc8caf60631b6044820152606401610693565b81611b1c5760045491505b603b8211611b645760405162461bcd60e51b81526020600482015260156024820152741a5b9d985b1a590b5bdc9858db194b5c195c9a5bd9605a1b6044820152606401610693565b6004546005546040805192835260208301859052820152606081018290527f83bc5ab8030537fcf1d29c2334f6d22c26c82dcbe5ff03923d2cff5c692c0a7f9060800160405180910390a1600491909155600555565b6001546001600160a01b0316635dbe47e8336040516001600160e01b031960e084901b1681526001600160a01b03909116600482015260240160206040518083038186803b158015611c0b57600080fd5b505afa158015611c1f573d6000803e3d6000fd5b505050506040513d601f19601f82011682018060405250810190611c439190614c40565b611c5f5760405162461bcd60e51b815260040161069390614de1565b610dca565b7f00000000000000000000000000000000000000000000000000000000000000006001600160a01b0316630c340a246040518163ffffffff1660e01b815260040160206040518083038186803b158015611cbd57600080fd5b505afa158015611cd1573d6000803e3d6000fd5b505050506040513d601f19601f82011682018060405250810190611cf59190614afe565b6001600160a01b0316336001600160a01b031614611d255760405162461bcd60e51b815260040161069390614e11565b80611d655760405162461bcd60e51b815260206004820152601060248201526f6c6f7757617465722d69732d7a65726f60801b6044820152606401610693565b808211611db45760405162461bcd60e51b815260206004820152601c60248201527f6869676857617465722d6c6573732d7468616e2d6c6f775761746572000000006044820152606401610693565b611dc5662386f26fc1000083614f11565b600755611dd9662386f26fc1000082614f11565b6008555050565b337f00000000000000000000000000000000000000000000000000000000000000006001600160a01b031614611e545760405162461bcd60e51b815260206004820152601960248201527818d85b1b195c8b5a5ccb5b9bdd0b5d995cdc195c8b5c1bdbdb603a1b6044820152606401610693565b6001600160a01b038116611eaa5760405162461bcd60e51b815260206004820152601c60248201527f6e65772d73747261746567792d616464726573732d69732d7a65726f000000006044820152606401610693565b7f00000000000000000000000000000000000000000000000000000000000000006001600160a01b0316816001600160a01b03166316f0115b6040518163ffffffff1660e01b815260040160206040518083038186803b158015611f0d57600080fd5b505afa158015611f21573d6000803e3d6000fd5b505050506040513d601f19601f82011682018060405250810190611f459190614afe565b6001600160a01b031614611f945760405162461bcd60e51b81526020600482015260166024820152756e6f742d76616c69642d6e65772d737472617465677960501b6044820152606401610693565b611f9d816134e0565b6000546040516370a0823160e01b81523060048201526120319183916001600160a01b03909116906370a082319060240160206040518083038186803b158015611fe657600080fd5b505afa158015611ffa573d6000803e3d6000fd5b505050506040513d601f19601f8201168201806040525081019061201e9190614cbf565b6000546001600160a01b0316919061363e565b6040516370a0823160e01b815230600482015261075e9082906001600160a01b037f000000000000000000000000000000000000000000000000000000000000000016906370a08231906024015b60206040518083038186803b15801561209757600080fd5b505afa1580156120ab573d6000803e3d6000fd5b505050506040513d601f19601f820116820180604052508101906120cf9190614cbf565b6001600160a01b037f000000000000000000000000000000000000000000000000000000000000000016919061363e565b7f00000000000000000000000000000000000000000000000000000000000000006001600160a01b0316630c340a246040518163ffffffff1660e01b815260040160206040518083038186803b15801561215957600080fd5b505afa15801561216d573d6000803e3d6000fd5b505050506040513d601f19601f820116820180604052508101906121919190614afe565b6001600160a01b0316336001600160a01b0316146121c15760405162461bcd60e51b815260040161069390614e11565b6001600160a01b0381166122175760405162461bcd60e51b815260206004820152601d60248201527f6665652d636f6c6c6563746f722d616464726573732d69732d7a65726f0000006044820152606401610693565b6002546001600160a01b038281169116141561226d5760405162461bcd60e51b81526020600482015260156024820152746665652d636f6c6c6563746f722d69732d73616d6560581b6044820152606401610693565b6002546040516001600160a01b038084169216907f0f06062680f9bd68e786e9980d9bb03d73d5620fc3b345e417b6eacb310b970690600090a3600280546001600160a01b0319166001600160a01b0392909216919091179055565b6000806122d461283b565b60405163c0af0d3b60e01b81523060048201529091506000906001600160a01b037f0000000000000000000000000000000000000000000000000000000000000000169063c0af0d3b9060240160206040518083038186803b15801561233957600080fd5b505afa15801561234d573d6000803e3d6000fd5b505050506040513d601f19601f820116820180604052508101906123719190614cbf565b9050808211156124575760006123878284614f30565b6003546040516340b4c54560e11b8152736b175474e89094c44da98b954eedeac495271d0f60048201526001600160a01b037f00000000000000000000000000000000000000000000000000000000000000008116602483015260448201849052600060648301529293509116906381698a8a9060840160006040518083038186803b15801561241657600080fd5b505afa15801561242a573d6000803e3d6000fd5b505050506040513d6000823e601f3d908101601f191682016040526124529190810190614b1a565b945050505b6040516369ebe00160e11b81523060048201526124f3907f00000000000000000000000000000000000000000000000000000000000000006001600160a01b03169063d3d7c002906024015b60206040518083038186803b1580156124bb57600080fd5b505afa1580156124cf573d6000803e3d6000fd5b505050506040513d601f19601f820116820180604052508101906105979190614cbf565b6124fd9084614ed9565b9250505090565b6001546001600160a01b0316635dbe47e8336040516001600160e01b031960e084901b1681526001600160a01b03909116600482015260240160206040518083038186803b15801561255557600080fd5b505afa158015612569573d6000803e3d6000fd5b505050506040513d601f19601f8201168201806040525081019061258d9190614c40565b6125a95760405162461bcd60e51b815260040161069390614de1565b6002546001600160a01b03166125f95760405162461bcd60e51b81526020600482015260156024820152741999594b58dbdb1b1958dd1bdc8b5b9bdd0b5cd95d605a1b6044820152606401610693565b7f00000000000000000000000000000000000000000000000000000000000000006001600160a01b0316816001600160a01b0316141561267b5760405162461bcd60e51b815260206004820152601f60248201527f6e6f742d616c6c6f7765642d746f2d73776565702d636f6c6c61746572616c006044820152606401610693565b61268481610feb565b156126c85760405162461bcd60e51b815260206004820152601460248201527306e6f742d616c6c6f7765642d746f2d73776565760641b6044820152606401610693565b6001600160a01b03811673eeeeeeeeeeeeeeeeeeeeeeeeeeeeeeeeeeeeeeee141561270857600254612703906001600160a01b03164761366e565b61075e565b6040516370a0823160e01b81523060048201526000906001600160a01b038316906370a082319060240160206040518083038186803b15801561274a57600080fd5b505afa15801561275e573d6000803e3d6000fd5b505050506040513d601f19601f820116820180604052508101906127829190614cbf565b600254909150610b5c906001600160a01b0384811691168361363e565b6000610fe66122c9565b60006127ba6402540be40083614ef1565b92915050565b6127c981613787565b6040516370a0823160e01b815230600482015261075e907f0000000000000000000000000000000000000000000000000000000000000000906001600160a01b037f000000000000000000000000000000000000000000000000000000000000000016906370a082319060240161207f565b600080546040516370a0823160e01b8152306004820152670de0b6b3a7640000916001600160a01b0316906370a082319060240160206040518083038186803b15801561288757600080fd5b505afa15801561289b573d6000803e3d6000fd5b505050506040513d601f19601f820116820180604052508101906128bf9190614cbf565b60008054906101000a90046001600160a01b03166001600160a01b03166399530b066040518163ffffffff1660e01b815260040160206040518083038186803b15801561290b57600080fd5b505afa15801561291f573d6000803e3d6000fd5b505050506040513d601f19601f820116820180604052508101906129439190614cbf565b61294d9190614f11565b610fe69190614ef1565b61295f610bdd565b6129a15760405162461bcd60e51b81526020600482015260136024820152723837b7b616b4b996b0b137bb3296bbb0ba32b960691b6044820152606401610693565b60006129ab61283b565b60405163c0af0d3b60e01b81523060048201527f00000000000000000000000000000000000000000000000000000000000000006001600160a01b03169063c0af0d3b9060240160206040518083038186803b158015612a0a57600080fd5b505afa158015612a1e573d6000803e3d6000fd5b505050506040513d601f19601f82011682018060405250810190612a429190614cbf565b612a4c9190614f30565b600354604051637a6f237b60e11b81526001600160a01b037f000000000000000000000000000000000000000000000000000000000000000081166004830152736b175474e89094c44da98b954eedeac495271d0f6024830152604482018490529293506000928392839291169063f4de46f69060640160006040518083038186803b158015612adb57600080fd5b505afa158015612aef573d6000803e3d6000fd5b505050506040513d6000823e601f3d908101601f19168201604052612b179190810190614b5f565b92509250925081600014612e24576040516330897f1760e11b8152600481018390527f00000000000000000000000000000000000000000000000000000000000000006001600160a01b031690636112fe2e90602401600060405180830381600087803b158015612b8757600080fd5b505af1158015612b9b573d6000803e3d6000fd5b5050600354604051636e74a6f760e01b8152600481018590526001600160a01b039091169250636e74a6f7915060240160206040518083038186803b158015612be357600080fd5b505afa158015612bf7573d6000803e3d6000fd5b505050506040513d601f19601f82011682018060405250810190612c1b9190614afe565b6001600160a01b03166338ed17398360018630426040518663ffffffff1660e01b8152600401612c4f959493929190614e48565b600060405180830381600087803b158015612c6957600080fd5b505af1158015612c7d573d6000803e3d6000fd5b505050506040513d6000823e601f3d908101601f19168201604052612ca59190810190614bad565b506040516370a0823160e01b81523060048201527f00000000000000000000000000000000000000000000000000000000000000006001600160a01b03169063a846c2fd90736b175474e89094c44da98b954eedeac495271d0f906370a082319060240160206040518083038186803b158015612d2157600080fd5b505afa158015612d35573d6000803e3d6000fd5b505050506040513d601f19601f82011682018060405250810190612d599190614cbf565b6040518263ffffffff1660e01b8152600401612d7791815260200190565b600060405180830381600087803b158015612d9157600080fd5b505af1158015612da5573d6000803e3d6000fd5b50506040516306eeb69360e51b8152600481018590527f00000000000000000000000000000000000000000000000000000000000000006001600160a01b0316925063ddd6d2609150602401600060405180830381600087803b158015612e0b57600080fd5b505af1158015612e1f573d6000803e3d6000fd5b505050505b50505050565b801580612eb35750604051636eb1769f60e11b81523060048201526001600160a01b03838116602483015284169063dd62ed3e9060440160206040518083038186803b158015612e7957600080fd5b505afa158015612e8d573d6000803e3d6000fd5b505050506040513d601f19601f82011682018060405250810190612eb19190614cbf565b155b612f1e5760405162461bcd60e51b815260206004820152603660248201527f5361666545524332303a20617070726f76652066726f6d206e6f6e2d7a65726f60448201527520746f206e6f6e2d7a65726f20616c6c6f77616e636560501b6064820152608401610693565b6040516001600160a01b0383166024820152604481018290526118c690849063095ea7b360e01b906064015b60408051601f198184030181529190526020810180516001600160e01b03166001600160e01b03199093169290921790915261391c565b604051636a9eee1360e11b81523060048201526000908190819081906001600160a01b037f0000000000000000000000000000000000000000000000000000000000000000169063d53ddc269060240160206040518083038186803b158015612fe957600080fd5b505afa158015612ffd573d6000803e3d6000fd5b505050506040513d601f19601f820116820180604052508101906130219190614cbf565b604051639f2b283360e01b81523060048201529091506000906001600160a01b037f00000000000000000000000000000000000000000000000000000000000000001690639f2b28339060240160206040518083038186803b15801561308657600080fd5b505afa15801561309a573d6000803e3d6000fd5b505050506040513d601f19601f820116820180604052508101906130be9190614cbf565b90506130c9816139ee565b94506130d481613ab8565b93506130df82613b2e565b92505050909192565b6040516370a0823160e01b81523060048201526000907f00000000000000000000000000000000000000000000000000000000000000006001600160a01b0316906370a082319060240160206040518083038186803b15801561314a57600080fd5b505afa15801561315e573d6000803e3d6000fd5b505050506040513d601f19601f820116820180604052508101906131829190614cbf565b905080156132055760405163bad4a01f60e01b8152600481018290527f00000000000000000000000000000000000000000000000000000000000000006001600160a01b03169063bad4a01f90602401600060405180830381600087803b1580156131ec57600080fd5b505af1158015613200573d6000803e3d6000fd5b505050505b6040516390229af760e01b815230600482015260009081908190819081906001600160a01b037f000000000000000000000000000000000000000000000000000000000000000016906390229af79060240160a06040518083038186803b15801561326f57600080fd5b505afa158015613283573d6000803e3d6000fd5b505050506040513d601f19601f820116820180604052508101906132a79190614d10565b94509450945094509450600060075484876132c29190614f11565b6132cc9190614ef1565b9050818110156132e4576132df85613b3d565b613366565b60075483111561334a576132f6610bdd565b156133385760405162461bcd60e51b81526020600482015260126024820152713837b7b616b4b996bab73232b93bb0ba32b960711b6044820152606401610693565b6132df6133458683614f30565b613b99565b600854831015613366576133666133618287614f30565b613b3d565b50505050505050565b61337881613ca0565b6000546133a490736b175474e89094c44da98b954eedeac495271d0f906001600160a01b031683612e2a565b60005b600360009054906101000a90046001600160a01b03166001600160a01b031663c2fba6676040518163ffffffff1660e01b815260040160206040518083038186803b1580156133f557600080fd5b505afa158015613409573d6000803e3d6000fd5b505050506040513d601f19601f8201168201806040525081019061342d9190614cbf565b811015610b5c57600354604051636e74a6f760e01b8152600481018390526134ce916001600160a01b031690636e74a6f79060240160206040518083038186803b15801561347a57600080fd5b505afa15801561348e573d6000803e3d6000fd5b505050506040513d601f19601f820116820180604052508101906134b29190614afe565b731b40183efb4dd766f11bda7a7c3ad8982e9984219084612e2a565b806134d881614f73565b9150506133a7565b7f0000000000000000000000000000000000000000000000000000000000000000816001600160a01b031663e824600f6040518163ffffffff1660e01b815260040160206040518083038186803b15801561353a57600080fd5b505afa15801561354e573d6000803e3d6000fd5b505050506040513d601f19601f820116820180604052508101906135729190614cbf565b146135bf5760405162461bcd60e51b815260206004820181905260248201527f636f6c6c61746572616c2d747970652d6d7573742d62652d7468652d73616d656044820152606401610693565b604051637038e06560e11b81526001600160a01b0382811660048301527f0000000000000000000000000000000000000000000000000000000000000000169063e071c0ca906024015b600060405180830381600087803b15801561362357600080fd5b505af1158015613637573d6000803e3d6000fd5b5050505050565b6040516001600160a01b0383166024820152604481018290526118c690849063a9059cbb60e01b90606401612f4a565b804710156136be5760405162461bcd60e51b815260206004820152601d60248201527f416464726573733a20696e73756666696369656e742062616c616e63650000006044820152606401610693565b6000826001600160a01b03168260405160006040518083038185875af1925050503d806000811461370b576040519150601f19603f3d011682016040523d82523d6000602084013e613710565b606091505b50509050806118c65760405162461bcd60e51b815260206004820152603a60248201527f416464726573733a20756e61626c6520746f2073656e642076616c75652c207260448201527f6563697069656e74206d617920686176652072657665727465640000000000006064820152608401610693565b604051630a5ab5dd60e31b81523060048201526024810182905260009081908190819081906001600160a01b037f000000000000000000000000000000000000000000000000000000000000000016906352d5aee89060440160a06040518083038186803b1580156137f857600080fd5b505afa15801561380c573d6000803e3d6000fd5b505050506040513d601f19601f820116820180604052508101906138309190614d10565b945094509450945094508360001415801561384c575060085482105b1561389a576007546000906138618588614f11565b61386b9190614ef1565b9050818110156138835761387e85613b3d565b613898565b84811015613898576138986133618287614f30565b505b6040516330897f1760e11b8152600481018790527f00000000000000000000000000000000000000000000000000000000000000006001600160a01b031690636112fe2e90602401600060405180830381600087803b1580156138fc57600080fd5b505af1158015613910573d6000803e3d6000fd5b50505050505050505050565b6000613971826040518060400160405280602081526020017f5361666545524332303a206c6f772d6c6576656c2063616c6c206661696c6564815250856001600160a01b0316613f729092919063ffffffff16565b8051909150156118c6578080602001905181019061398f9190614c40565b6118c65760405162461bcd60e51b815260206004820152602a60248201527f5361666545524332303a204552433230206f7065726174696f6e20646964206e6044820152691bdd081cdd58d8d9595960b21b6064820152608401610693565b6000613a197f0000000000000000000000000000000000000000000000000000000000000000613f89565b613a21613f92565b6040516370a0823160e01b81523060048201527f00000000000000000000000000000000000000000000000000000000000000006001600160a01b0316906370a082319060240160206040518083038186803b158015613a8057600080fd5b505afa158015613a94573d6000803e3d6000fd5b505050506040513d601f19601f820116820180604052508101906127ba9190614cbf565b6040516369ebe00160e11b81523060048201526000908190613b0d906001600160a01b037f0000000000000000000000000000000000000000000000000000000000000000169063d3d7c002906024016124a3565b9050808311613b1d576000613b27565b613b278184614f30565b9392505050565b6000613b3982613787565b5090565b801561075e57613b4c81614528565b60405163a846c2fd60e01b8152600481018290527f00000000000000000000000000000000000000000000000000000000000000006001600160a01b03169063a846c2fd90602401613609565b60405163317afabb60e21b8152600481018290527f00000000000000000000000000000000000000000000000000000000000000006001600160a01b03169063c5ebeaec90602401600060405180830381600087803b158015613bfb57600080fd5b505af1158015613c0f573d6000803e3d6000fd5b50506040516370a0823160e01b8152306004820152736b175474e89094c44da98b954eedeac495271d0f92506370a08231915060240160206040518083038186803b158015613c5d57600080fd5b505afa158015613c71573d6000803e3d6000fd5b505050506040513d601f19601f82011682018060405250810190613c959190614cbf565b905061075e81614664565b613cdf736b175474e89094c44da98b954eedeac495271d0f7f000000000000000000000000000000000000000000000000000000000000000083612e2a565b613d336001600160a01b037f0000000000000000000000000000000000000000000000000000000000000000167f000000000000000000000000000000000000000000000000000000000000000083612e2a565b613d876001600160a01b037f0000000000000000000000000000000000000000000000000000000000000000167f000000000000000000000000000000000000000000000000000000000000000083612e2a565b60005b600360009054906101000a90046001600160a01b03166001600160a01b031663c2fba6676040518163ffffffff1660e01b815260040160206040518083038186803b158015613dd857600080fd5b505afa158015613dec573d6000803e3d6000fd5b505050506040513d601f19601f82011682018060405250810190613e109190614cbf565b811015610b5c57600354604051636e74a6f760e01b815260048101839052613ec6916001600160a01b031690636e74a6f79060240160206040518083038186803b158015613e5d57600080fd5b505afa158015613e71573d6000803e3d6000fd5b505050506040513d601f19601f82011682018060405250810190613e959190614afe565b6001600160a01b037f0000000000000000000000000000000000000000000000000000000000000000169084612e2a565b600354604051636e74a6f760e01b815260048101839052613f60916001600160a01b031690636e74a6f79060240160206040518083038186803b158015613f0c57600080fd5b505afa158015613f20573d6000803e3d6000fd5b505050506040513d601f19601f82011682018060405250810190613f449190614afe565b736b175474e89094c44da98b954eedeac495271d0f9084612e2a565b80613f6a81614f73565b915050613d8a565b6060613f818484600085614695565b949350505050565b61075e816147bd565b60405163c0af0d3b60e01b81523060048201526000907f00000000000000000000000000000000000000000000000000000000000000006001600160a01b03169063c0af0d3b9060240160206040518083038186803b158015613ff457600080fd5b505afa158015614008573d6000803e3d6000fd5b505050506040513d601f19601f8201168201806040525081019061402c9190614cbf565b6040516370a0823160e01b81523060048201529091506000906001600160a01b037f000000000000000000000000000000000000000000000000000000000000000016906370a082319060240160206040518083038186803b15801561409157600080fd5b505afa1580156140a5573d6000803e3d6000fd5b505050506040513d601f19601f820116820180604052508101906140c99190614cbf565b905060007f00000000000000000000000000000000000000000000000000000000000000006001600160a01b0316638bc6beb26040518163ffffffff1660e01b8152600401602060405180830381600087803b15801561412857600080fd5b505af115801561413c573d6000803e3d6000fd5b505050506040513d601f19601f820116820180604052508101906141609190614afe565b90506000816001600160a01b031663e49e463b6040518163ffffffff1660e01b815260040160206040518083038186803b15801561419d57600080fd5b505afa1580156141b1573d6000803e3d6000fd5b505050506040513d601f19601f820116820180604052508101906141d59190614afe565b905082156142385760405163b6b55f2560e01b8152600481018490526001600160a01b0382169063b6b55f2590602401600060405180830381600087803b15801561421f57600080fd5b505af1158015614233573d6000803e3d6000fd5b505050505b600061424261283b565b9050848111156136375760006142588683614f30565b905060008060009054906101000a90046001600160a01b03166001600160a01b03166399530b066040518163ffffffff1660e01b815260040160206040518083038186803b1580156142a957600080fd5b505afa1580156142bd573d6000803e3d6000fd5b505050506040513d601f19601f820116820180604052508101906142e19190614cbf565b6142f383670de0b6b3a7640000614f11565b6142fd9190614ef1565b905080156133665781600a60008282546143179190614ed9565b909155505060405163228bfd9f60e01b81523060048201526000907f00000000000000000000000000000000000000000000000000000000000000006001600160a01b03169063228bfd9f906024016101006040518083038186803b15801561437f57600080fd5b505afa158015614393573d6000803e3d6000fd5b505050506040513d601f19601f820116820180604052508101906143b79190614c5a565b50506040516370a0823160e01b81523060048201529496506000955050506001600160a01b038916926370a082319250602401905060206040518083038186803b15801561440457600080fd5b505afa158015614418573d6000803e3d6000fd5b505050506040513d601f19601f8201168201806040525081019061443c9190614cbf565b9050600081841161444d578361444f565b815b905060006127106144608584614f11565b61446a9190614ef1565b905080156144995760025461448c906001600160a01b038a811691168361363e565b6144968183614f30565b91505b6144ad6001600160a01b0389168a8461363e565b6009546040516328f362b160e21b81526001600160a01b038a81166004830152602482018590526044820192909252908a169063a3cd8ac490606401600060405180830381600087803b15801561450357600080fd5b505af1158015614517573d6000803e3d6000fd5b505050505050505050505050505050565b60008060009054906101000a90046001600160a01b03166001600160a01b03166399530b066040518163ffffffff1660e01b815260040160206040518083038186803b15801561457757600080fd5b505afa15801561458b573d6000803e3d6000fd5b505050506040513d601f19601f820116820180604052508101906145af9190614cbf565b90506000816145c684670de0b6b3a7640000614f11565b6145d09190614ef1565b9050670de0b6b3a76400006145e58383614f11565b6145ef9190614ef1565b83116145fb5780614606565b614606816001614ed9565b60005460405160016226f16160e21b03198152600481018390529192506001600160a01b03169063ff643a7c90602401600060405180830381600087803b15801561465057600080fd5b505af1158015613366573d6000803e3d6000fd5b60005460405163b6b55f2560e01b8152600481018390526001600160a01b039091169063b6b55f2590602401613609565b6060824710156146f65760405162461bcd60e51b815260206004820152602660248201527f416464726573733a20696e73756666696369656e742062616c616e636520666f6044820152651c8818d85b1b60d21b6064820152608401610693565b843b6147445760405162461bcd60e51b815260206004820152601d60248201527f416464726573733a2063616c6c20746f206e6f6e2d636f6e74726163740000006044820152606401610693565b600080866001600160a01b031685876040516147609190614d92565b60006040518083038185875af1925050503d806000811461479d576040519150601f19603f3d011682016040523d82523d6000602084013e6147a2565b606091505b50915091506147b282828661486b565b979650505050505050565b6040516370a0823160e01b8152306004820152600090731b40183efb4dd766f11bda7a7c3ad8982e998421906370a082319060240160206040518083038186803b15801561480a57600080fd5b505afa15801561481e573d6000803e3d6000fd5b505050506040513d601f19601f820116820180604052508101906148429190614cbf565b90508015610b5c57610b5c731b40183efb4dd766f11bda7a7c3ad8982e998421838360016148a4565b6060831561487a575081613b27565b82511561488a5782518084602001fd5b8160405162461bcd60e51b81526004016106939190614dae565b600354604051631d1f307960e31b81526001600160a01b038681166004830152858116602483015260448201859052600092839283929091169063e8f983c89060640160006040518083038186803b1580156148ff57600080fd5b505afa158015614913573d6000803e3d6000fd5b505050506040513d6000823e601f3d908101601f1916820160405261493b9190810190614b5f565b925092509250836000141561494f57600193505b811561336657600354604051636e74a6f760e01b8152600481018390526001600160a01b0390911690636e74a6f79060240160206040518083038186803b15801561499957600080fd5b505afa1580156149ad573d6000803e3d6000fd5b505050506040513d601f19601f820116820180604052508101906149d19190614afe565b6001600160a01b03166338ed173986868630426040518663ffffffff1660e01b8152600401614a04959493929190614e48565b600060405180830381600087803b158015614a1e57600080fd5b505af1158015614a32573d6000803e3d6000fd5b505050506040513d6000823e601f3d908101601f19168201604052612e1f9190810190614bad565b600082601f830112614a6a578081fd5b81516020614a7f614a7a83614eb5565b614e84565b80838252828201915082860187848660051b8901011115614a9e578586fd5b855b85811015614ac5578151614ab381614fba565b84529284019290840190600101614aa0565b5090979650505050505050565b80518015158114610ffd57600080fd5b600060208284031215614af3578081fd5b8135613b2781614fba565b600060208284031215614b0f578081fd5b8151613b2781614fba565b60008060408385031215614b2c578081fd5b825167ffffffffffffffff811115614b42578182fd5b614b4e85828601614a5a565b925050602083015190509250929050565b600080600060608486031215614b73578081fd5b835167ffffffffffffffff811115614b89578182fd5b614b9586828701614a5a565b93505060208401519150604084015190509250925092565b60006020808385031215614bbf578182fd5b825167ffffffffffffffff811115614bd5578283fd5b8301601f81018513614be5578283fd5b8051614bf3614a7a82614eb5565b80828252848201915084840188868560051b8701011115614c12578687fd5b8694505b83851015614c34578051835260019490940193918501918501614c16565b50979650505050505050565b600060208284031215614c51578081fd5b613b2782614ad2565b600080600080600080600080610100898b031215614c76578384fd5b614c7f89614ad2565b97506020890151965060408901519550606089015194506080890151935060a0890151925060c0890151915060e089015190509295985092959890939650565b600060208284031215614cd0578081fd5b5051919050565b600060208284031215614ce8578081fd5b5035919050565b60008060408385031215614d01578182fd5b50508035926020909101359150565b600080600080600060a08688031215614d27578283fd5b5050835160208501516040860151606087015160809097015192989197509594509092509050565b6000815180845260208085019450808401835b83811015614d875781516001600160a01b031687529582019590820190600101614d62565b509495945050505050565b60008251614da4818460208701614f47565b9190910192915050565b6000602082528251806020840152614dcd816040850160208701614f47565b601f01601f19169190910160400192915050565b60208082526016908201527531b0b63632b916b4b996b737ba16b096b5b2b2b832b960511b604082015260600190565b6020808252601a908201527f63616c6c65722d69732d6e6f742d7468652d676f7665726e6f72000000000000604082015260600190565b600086825285602083015260a06040830152614e6760a0830186614d4f565b6001600160a01b0394909416606083015250608001529392505050565b604051601f8201601f1916810167ffffffffffffffff81118282101715614ead57614ead614fa4565b604052919050565b600067ffffffffffffffff821115614ecf57614ecf614fa4565b5060051b60200190565b60008219821115614eec57614eec614f8e565b500190565b600082614f0c57634e487b7160e01b81526012600452602481fd5b500490565b6000816000190483118215151615614f2b57614f2b614f8e565b500290565b600082821015614f4257614f42614f8e565b500390565b60005b83811015614f62578181015183820152602001614f4a565b83811115612e245750506000910152565b6000600019821415614f8757614f87614f8e565b5060010190565b634e487b7160e01b600052601160045260246000fd5b634e487b7160e01b600052604160045260246000fd5b6001600160a01b038116811461075e57600080fdfea2646970667358221220d2462304bf5af41e0b408f4148fcf2e0f5305cc2dc25ad6f62b1812a6c6169cd64736f6c63430008030033",
  "devdoc": {
    "kind": "dev",
    "methods": {
      "addKeeper(address)": {
        "params": {
          "_keeperAddress": "keeper address to add."
        }
      },
      "approveGrowToken()": {
        "details": "Approves EarnDrip' Grow token to spend dripToken"
      },
      "approveToken()": {
        "details": "Approve all required tokens"
      },
      "convertFrom18(uint256)": {
        "details": "Convert from 18 decimals to token defined decimals. Default no conversion."
      },
      "init(address)": {
        "params": {
          "_addressListFactory": "To support same code in eth side chain, user _addressListFactory as param ethereum- 0xded8217De022706A191eE7Ee0Dc9df1185Fb5dA3 polygon-0xD10D5696A350D65A9AA15FE8B258caB4ab1bF291"
        }
      },
      "isReservedToken(address)": {
        "details": "Check whether given token is reserved or not. Reserved tokens are not allowed to sweep."
      },
      "migrate(address)": {
        "details": "_beforeMigration hook can be implemented in child strategy to do extra steps.",
        "params": {
          "_newStrategy": "Address of new strategy"
        }
      },
      "rebalance()": {
        "details": "Rebalance profit, loss and investment of this strategy"
      },
      "removeKeeper(address)": {
        "params": {
          "_keeperAddress": "keeper address to remove."
        }
      },
      "resurface()": {
        "details": "If pool is underwater this function will resolve underwater condition. If Debt in Maker is greater than Dai balance in lender then pool is underwater. Lowering DAI debt in Maker will resolve underwater condition. Resolve: Calculate required collateral token to lower DAI debt. Withdraw required collateral token from Maker and convert those to DAI via Uniswap. Finally payback debt in Maker using DAI.Also report loss in pool."
      },
      "sweepERC20(address)": {
        "details": "sweep given token to feeCollector of strategy",
        "params": {
          "_fromToken": "token address to sweep"
        }
      },
      "totalValue()": {
        "details": "Make sure to return value in collateral token and in order to do that we are using Uniswap to get collateral amount for earned DAI."
      },
      "totalValueCurrent()": {
        "details": "Report total value in collateral token"
      },
      "updateBalancingFactor(uint256,uint256)": {
        "params": {
          "_highWater": "Value for high water mark.",
          "_lowWater": "Value for low water mark."
        }
      },
      "updateDripPeriod(uint256)": {
        "details": "_dripPeriod in seconds"
      },
      "updateFeeCollector(address)": {
        "params": {
          "_feeCollector": "fee collector address"
        }
      },
      "updateSwapManager(address)": {
        "params": {
          "_swapManager": "swap manager address"
        }
      },
      "withdraw(uint256)": {
        "details": "Withdraw collateral token from lending pool.",
        "params": {
          "_amount": "Amount of collateral token"
        }
      }
    },
    "version": 1
  },
  "userdoc": {
    "kind": "user",
    "methods": {
      "addKeeper(address)": {
        "notice": "Add given address in keepers list."
      },
      "createVault()": {
        "notice": "Create new Maker vault"
      },
      "init(address)": {
        "notice": "Create keeper list NOTE: Any function with onlyKeeper modifier will not work until this function is called. NOTE: Due to gas constraint this function cannot be called in constructor."
      },
      "isUnderwater()": {
        "notice": "Returns true if pool is underwater.Underwater - If debt is greater than (earning of pool + DAI in pool + some wei buffer).Earning - Sum of DAI balance and DAI from accrued reward, if any, in lending pool."
      },
      "migrate(address)": {
        "notice": "Migrate all asset and vault ownership,if any, to new strategy"
      },
      "removeKeeper(address)": {
        "notice": "Remove given address from keepers list."
      },
      "token()": {
        "notice": "Returns address of token correspond to collateral token"
      },
      "totalValue()": {
        "notice": "Report total value of this strategy"
      },
      "totalValueCurrent()": {
        "notice": "Calculate total value of asset under management (in real-time)"
      },
      "updateBalancingFactor(uint256,uint256)": {
        "notice": "Update balancing factors aka high water and low water values. Water mark values represent Collateral Ratio in Maker. For example 300 as high water means 300% collateral ratio."
      },
      "updateDripPeriod(uint256)": {
        "notice": "Update update period of distribution of earning done in one rebalance"
      },
      "updateFeeCollector(address)": {
        "notice": "Update fee collector"
      },
      "updateSwapManager(address)": {
        "notice": "Update swap manager address"
      }
    },
    "version": 1
  },
  "storageLayout": {
    "storage": [
      {
        "astId": 13492,
        "contract": "contracts/strategies/maker/earn/EarnVesperMakerStrategyWBTC.sol:EarnVesperMakerStrategyWBTC",
        "label": "receiptToken",
        "offset": 0,
        "slot": "0",
        "type": "t_address"
      },
      {
        "astId": 13498,
        "contract": "contracts/strategies/maker/earn/EarnVesperMakerStrategyWBTC.sol:EarnVesperMakerStrategyWBTC",
        "label": "keepers",
        "offset": 0,
        "slot": "1",
        "type": "t_contract(IAddressList)4357"
      },
      {
        "astId": 13501,
        "contract": "contracts/strategies/maker/earn/EarnVesperMakerStrategyWBTC.sol:EarnVesperMakerStrategyWBTC",
        "label": "feeCollector",
        "offset": 0,
        "slot": "2",
        "type": "t_address"
      },
      {
        "astId": 13504,
        "contract": "contracts/strategies/maker/earn/EarnVesperMakerStrategyWBTC.sol:EarnVesperMakerStrategyWBTC",
        "label": "swapManager",
        "offset": 0,
        "slot": "3",
        "type": "t_contract(ISwapManager)4660"
      },
      {
        "astId": 13507,
        "contract": "contracts/strategies/maker/earn/EarnVesperMakerStrategyWBTC.sol:EarnVesperMakerStrategyWBTC",
        "label": "oraclePeriod",
        "offset": 0,
        "slot": "4",
        "type": "t_uint256"
      },
      {
        "astId": 13510,
        "contract": "contracts/strategies/maker/earn/EarnVesperMakerStrategyWBTC.sol:EarnVesperMakerStrategyWBTC",
        "label": "oracleRouterIdx",
        "offset": 0,
        "slot": "5",
        "type": "t_uint256"
      },
      {
        "astId": 13513,
        "contract": "contracts/strategies/maker/earn/EarnVesperMakerStrategyWBTC.sol:EarnVesperMakerStrategyWBTC",
        "label": "swapSlippage",
        "offset": 0,
        "slot": "6",
        "type": "t_uint256"
      },
      {
        "astId": 31072,
        "contract": "contracts/strategies/maker/earn/EarnVesperMakerStrategyWBTC.sol:EarnVesperMakerStrategyWBTC",
        "label": "highWater",
        "offset": 0,
        "slot": "7",
        "type": "t_uint256"
      },
      {
        "astId": 31074,
        "contract": "contracts/strategies/maker/earn/EarnVesperMakerStrategyWBTC.sol:EarnVesperMakerStrategyWBTC",
        "label": "lowWater",
        "offset": 0,
        "slot": "8",
        "type": "t_uint256"
      },
      {
        "astId": 13150,
        "contract": "contracts/strategies/maker/earn/EarnVesperMakerStrategyWBTC.sol:EarnVesperMakerStrategyWBTC",
        "label": "dripPeriod",
        "offset": 0,
        "slot": "9",
        "type": "t_uint256"
      },
      {
        "astId": 13152,
        "contract": "contracts/strategies/maker/earn/EarnVesperMakerStrategyWBTC.sol:EarnVesperMakerStrategyWBTC",
        "label": "totalEarned",
        "offset": 0,
        "slot": "10",
        "type": "t_uint256"
      }
    ],
    "types": {
      "t_address": {
        "encoding": "inplace",
        "label": "address",
        "numberOfBytes": "20"
      },
      "t_contract(IAddressList)4357": {
        "encoding": "inplace",
        "label": "contract IAddressList",
        "numberOfBytes": "20"
      },
      "t_contract(ISwapManager)4660": {
        "encoding": "inplace",
        "label": "contract ISwapManager",
        "numberOfBytes": "20"
      },
      "t_uint256": {
        "encoding": "inplace",
        "label": "uint256",
        "numberOfBytes": "32"
      }
    }
  }
}