{
  "address": "0x998abeb3E57409262aE5b751f60747921B33613E",
  "abi": [
    {
      "anonymous": false,
      "inputs": [
        {
          "indexed": true,
          "internalType": "address",
          "name": "strategy",
          "type": "address"
        },
        {
          "indexed": false,
          "internalType": "uint256",
          "name": "profit",
          "type": "uint256"
        },
        {
          "indexed": false,
          "internalType": "uint256",
          "name": "loss",
          "type": "uint256"
        },
        {
          "indexed": false,
          "internalType": "uint256",
          "name": "payback",
          "type": "uint256"
        },
        {
          "indexed": false,
          "internalType": "uint256",
          "name": "strategyDebt",
          "type": "uint256"
        },
        {
          "indexed": false,
          "internalType": "uint256",
          "name": "poolDebt",
          "type": "uint256"
        },
        {
          "indexed": false,
          "internalType": "uint256",
          "name": "creditLine",
          "type": "uint256"
        }
      ],
      "name": "EarningReported",
      "type": "event"
    },
    {
      "anonymous": false,
      "inputs": [
        {
          "indexed": true,
          "internalType": "address",
          "name": "strategy",
          "type": "address"
        },
        {
          "indexed": false,
          "internalType": "uint256",
          "name": "interestFee",
          "type": "uint256"
        },
        {
          "indexed": false,
          "internalType": "uint256",
          "name": "debtRatio",
          "type": "uint256"
        },
        {
          "indexed": false,
          "internalType": "uint256",
          "name": "debtRate",
          "type": "uint256"
        }
      ],
      "name": "StrategyAdded",
      "type": "event"
    },
    {
      "anonymous": false,
      "inputs": [
        {
          "indexed": true,
          "internalType": "address",
          "name": "oldStrategy",
          "type": "address"
        },
        {
          "indexed": true,
          "internalType": "address",
          "name": "newStrategy",
          "type": "address"
        },
        {
          "indexed": false,
          "internalType": "uint256",
          "name": "interestFee",
          "type": "uint256"
        },
        {
          "indexed": false,
          "internalType": "uint256",
          "name": "debtRatio",
          "type": "uint256"
        },
        {
          "indexed": false,
          "internalType": "uint256",
          "name": "debtRate",
          "type": "uint256"
        }
      ],
      "name": "StrategyMigrated",
      "type": "event"
    },
    {
      "anonymous": false,
      "inputs": [
        {
          "indexed": true,
          "internalType": "address",
          "name": "strategy",
          "type": "address"
        },
        {
          "indexed": false,
          "internalType": "uint256",
          "name": "interestFee",
          "type": "uint256"
        }
      ],
      "name": "UpdatedInterestFee",
      "type": "event"
    },
    {
      "anonymous": false,
      "inputs": [
        {
          "indexed": true,
          "internalType": "address",
          "name": "strategy",
          "type": "address"
        },
        {
          "indexed": false,
          "internalType": "uint256",
          "name": "debtRatio",
          "type": "uint256"
        },
        {
          "indexed": false,
          "internalType": "uint256",
          "name": "debtRate",
          "type": "uint256"
        }
      ],
      "name": "UpdatedStrategyDebtParams",
      "type": "event"
    },
    {
      "inputs": [],
      "name": "MAX_BPS",
      "outputs": [
        {
          "internalType": "uint256",
          "name": "",
          "type": "uint256"
        }
      ],
      "stateMutability": "view",
      "type": "function"
    },
    {
      "inputs": [
        {
          "internalType": "address",
          "name": "_strategy",
          "type": "address"
        },
        {
          "internalType": "uint256",
          "name": "_interestFee",
          "type": "uint256"
        },
        {
          "internalType": "uint256",
          "name": "_debtRatio",
          "type": "uint256"
        },
        {
          "internalType": "uint256",
          "name": "_debtRate",
          "type": "uint256"
        }
      ],
      "name": "addStrategy",
      "outputs": [],
      "stateMutability": "nonpayable",
      "type": "function"
    },
    {
      "inputs": [
        {
          "internalType": "address",
          "name": "_strategy",
          "type": "address"
        }
      ],
      "name": "availableCreditLimit",
      "outputs": [
        {
          "internalType": "uint256",
          "name": "",
          "type": "uint256"
        }
      ],
      "stateMutability": "view",
      "type": "function"
    },
    {
      "inputs": [
        {
          "internalType": "address",
          "name": "_strategy",
          "type": "address"
        },
        {
          "internalType": "uint256",
          "name": "_decreaseBy",
          "type": "uint256"
        }
      ],
      "name": "decreaseDebt",
      "outputs": [],
      "stateMutability": "nonpayable",
      "type": "function"
    },
    {
      "inputs": [
        {
          "internalType": "address",
          "name": "_strategy",
          "type": "address"
        }
      ],
      "name": "excessDebt",
      "outputs": [
        {
          "internalType": "uint256",
          "name": "",
          "type": "uint256"
        }
      ],
      "stateMutability": "view",
      "type": "function"
    },
    {
      "inputs": [],
      "name": "getStrategies",
      "outputs": [
        {
          "internalType": "address[]",
          "name": "",
          "type": "address[]"
        }
      ],
      "stateMutability": "view",
      "type": "function"
    },
    {
      "inputs": [],
      "name": "getWithdrawQueue",
      "outputs": [
        {
          "internalType": "address[]",
          "name": "",
          "type": "address[]"
        }
      ],
      "stateMutability": "view",
      "type": "function"
    },
    {
      "inputs": [
        {
          "internalType": "address",
          "name": "_pool",
          "type": "address"
        }
      ],
      "name": "init",
      "outputs": [],
      "stateMutability": "nonpayable",
      "type": "function"
    },
    {
      "inputs": [
        {
          "internalType": "address",
          "name": "_old",
          "type": "address"
        },
        {
          "internalType": "address",
          "name": "_new",
          "type": "address"
        }
      ],
      "name": "migrateStrategy",
      "outputs": [],
      "stateMutability": "nonpayable",
      "type": "function"
    },
    {
      "inputs": [],
      "name": "pool",
      "outputs": [
        {
          "internalType": "address",
          "name": "",
          "type": "address"
        }
      ],
      "stateMutability": "view",
      "type": "function"
    },
    {
      "inputs": [
        {
          "internalType": "uint256",
          "name": "_index",
          "type": "uint256"
        }
      ],
      "name": "removeStrategy",
      "outputs": [],
      "stateMutability": "nonpayable",
      "type": "function"
    },
    {
      "inputs": [
        {
          "internalType": "address",
          "name": "_strategy",
          "type": "address"
        },
        {
          "internalType": "uint256",
          "name": "_profit",
          "type": "uint256"
        },
        {
          "internalType": "uint256",
          "name": "_loss",
          "type": "uint256"
        },
        {
          "internalType": "uint256",
          "name": "_payback",
          "type": "uint256"
        }
      ],
      "name": "reportEarning",
      "outputs": [
        {
          "internalType": "uint256",
          "name": "_actualPayback",
          "type": "uint256"
        },
        {
          "internalType": "uint256",
          "name": "_creditLine",
          "type": "uint256"
        },
        {
          "internalType": "uint256",
          "name": "_fee",
          "type": "uint256"
        }
      ],
      "stateMutability": "nonpayable",
      "type": "function"
    },
    {
      "inputs": [
        {
          "internalType": "address",
          "name": "_strategy",
          "type": "address"
        },
        {
          "internalType": "uint256",
          "name": "_loss",
          "type": "uint256"
        }
      ],
      "name": "reportLoss",
      "outputs": [],
      "stateMutability": "nonpayable",
      "type": "function"
    },
    {
      "inputs": [
        {
          "internalType": "uint256",
          "name": "",
          "type": "uint256"
        }
      ],
      "name": "strategies",
      "outputs": [
        {
          "internalType": "address",
          "name": "",
          "type": "address"
        }
      ],
      "stateMutability": "view",
      "type": "function"
    },
    {
      "inputs": [
        {
          "internalType": "address",
          "name": "",
          "type": "address"
        }
      ],
      "name": "strategy",
      "outputs": [
        {
          "internalType": "bool",
          "name": "active",
          "type": "bool"
        },
        {
          "internalType": "uint256",
          "name": "interestFee",
          "type": "uint256"
        },
        {
          "internalType": "uint256",
          "name": "debtRate",
          "type": "uint256"
        },
        {
          "internalType": "uint256",
          "name": "lastRebalance",
          "type": "uint256"
        },
        {
          "internalType": "uint256",
          "name": "totalDebt",
          "type": "uint256"
        },
        {
          "internalType": "uint256",
          "name": "totalLoss",
          "type": "uint256"
        },
        {
          "internalType": "uint256",
          "name": "totalProfit",
          "type": "uint256"
        },
        {
          "internalType": "uint256",
          "name": "debtRatio",
          "type": "uint256"
        }
      ],
      "stateMutability": "view",
      "type": "function"
    },
    {
      "inputs": [
        {
          "internalType": "address",
          "name": "_fromToken",
          "type": "address"
        }
      ],
      "name": "sweepERC20",
      "outputs": [],
      "stateMutability": "nonpayable",
      "type": "function"
    },
    {
      "inputs": [],
      "name": "totalDebt",
      "outputs": [
        {
          "internalType": "uint256",
          "name": "",
          "type": "uint256"
        }
      ],
      "stateMutability": "view",
      "type": "function"
    },
    {
      "inputs": [
        {
          "internalType": "address",
          "name": "_strategy",
          "type": "address"
        }
      ],
      "name": "totalDebtOf",
      "outputs": [
        {
          "internalType": "uint256",
          "name": "",
          "type": "uint256"
        }
      ],
      "stateMutability": "view",
      "type": "function"
    },
    {
      "inputs": [],
      "name": "totalDebtRatio",
      "outputs": [
        {
          "internalType": "uint256",
          "name": "",
          "type": "uint256"
        }
      ],
      "stateMutability": "view",
      "type": "function"
    },
    {
      "inputs": [
        {
          "internalType": "address",
          "name": "_strategy",
          "type": "address"
        },
        {
          "internalType": "uint256",
          "name": "_debtRate",
          "type": "uint256"
        }
      ],
      "name": "updateDebtRate",
      "outputs": [],
      "stateMutability": "nonpayable",
      "type": "function"
    },
    {
      "inputs": [
        {
          "internalType": "address",
          "name": "_strategy",
          "type": "address"
        },
        {
          "internalType": "uint256",
          "name": "_debtRatio",
          "type": "uint256"
        }
      ],
      "name": "updateDebtRatio",
      "outputs": [],
      "stateMutability": "nonpayable",
      "type": "function"
    },
    {
      "inputs": [
        {
          "internalType": "address",
          "name": "_strategy",
          "type": "address"
        },
        {
          "internalType": "uint256",
          "name": "_interestFee",
          "type": "uint256"
        }
      ],
      "name": "updateInterestFee",
      "outputs": [],
      "stateMutability": "nonpayable",
      "type": "function"
    },
    {
      "inputs": [
        {
          "internalType": "address[]",
          "name": "_withdrawQueue",
          "type": "address[]"
        }
      ],
      "name": "updateWithdrawQueue",
      "outputs": [],
      "stateMutability": "nonpayable",
      "type": "function"
    },
    {
      "inputs": [
        {
          "internalType": "uint256",
          "name": "",
          "type": "uint256"
        }
      ],
      "name": "withdrawQueue",
      "outputs": [
        {
          "internalType": "address",
          "name": "",
          "type": "address"
        }
      ],
      "stateMutability": "view",
      "type": "function"
    }
  ],
  "transactionHash": "0xec701a4649b660dd2e8b0c09d558153351651ce8a1ac096acd6fed670f17dfa3",
  "args": [],
  "solcInputHash": "95e7b7658af4fd1c1c19b31384040f18",
  "bytecode": "0x608060405234801561001057600080fd5b50612e3a806100206000396000f3fe608060405234801561001057600080fd5b50600436106101585760003560e01c80638f88d18c116100c3578063d20ed3ef1161007c578063d20ed3ef14610372578063d53ddc2614610385578063d574ea3d14610398578063e00af4a7146103ab578063fc7b9c18146103be578063fd967f47146103c757610158565b80638f88d18c146102f05780639f2b283314610303578063a066654b14610316578063b49a60bb14610344578063b64321ec1461034c578063c0cbbca61461035f57610158565b80632fb9ba31116101155780632fb9ba311461027e57806362518ddf146102915780636cb56d19146102a45780637b62f070146102b75780637f13086e146102ca578063854f4d80146102dd57610158565b80630dd21b6c1461015d578063111830521461017257806316f0115b1461019057806319ab453c146101c1578063228bfd9f146101d45780632df9eab914610267575b600080fd5b61017061016b366004612acf565b6103d0565b005b61017a610769565b6040516101879190612c3c565b60405180910390f35b6000546101a9906201000090046001600160a01b031681565b6040516001600160a01b039091168152602001610187565b6101706101cf366004612a34565b6107cb565b61022a6101e2366004612a34565b60056020819052600091825260409091208054600182015460028301546003840154600485015495850154600686015460079096015460ff9095169693959294919392909188565b6040805198151589526020890197909752958701949094526060860192909252608085015260a084015260c083015260e082015261010001610187565b61027060015481565b604051908152602001610187565b61017061028c366004612aa4565b6108a1565b6101a961029f366004612bf0565b61091f565b6101706102b2366004612a6c565b610949565b6101706102c5366004612aa4565b610e21565b6101706102d8366004612aa4565b610fb9565b6101706102eb366004612b09565b61104b565b6101706102fe366004612aa4565b6112b0565b610270610311366004612a34565b611520565b610329610324366004612acf565b611542565b60408051938452602084019290925290820152606001610187565b61017a6118d6565b61027061035a366004612a34565b611936565b61017061036d366004612bf0565b611947565b610170610380366004612aa4565b611d52565b610270610393366004612a34565b611f4a565b6101a96103a6366004612bf0565b611f55565b6101706103b9366004612a34565b611f65565b61027060025481565b61027061271081565b6000546040805163030d028960e21b8152905133926201000090046001600160a01b031691630c340a24916004808301926020929190829003018186803b15801561041a57600080fd5b505afa15801561042e573d6000803e3d6000fd5b505050506040513d601f19601f820116820180604052508101906104529190612a50565b6001600160a01b0316146104815760405162461bcd60e51b815260040161047890612ce0565b60405180910390fd5b604080518082019091526002815261031360f41b60208201526001600160a01b0385166104c15760405162461bcd60e51b81526004016104789190612c89565b506001600160a01b0384166000908152600560209081526040918290205482518084019093526002835261313560f01b9183019190915260ff16156105195760405162461bcd60e51b81526004016104789190612c89565b50816001546105289190612d0a565b6001819055604080518082019091526002815261062760f31b60208201529061271010156105695760405162461bcd60e51b81526004016104789190612c89565b50604080518082019091526002815261313160f01b60208201526127108411156105a65760405162461bcd60e51b81526004016104789190612c89565b5060006040518061010001604052806001151581526020018581526020018381526020014381526020016000815260200160008152602001600081526020018481525090508060056000876001600160a01b03166001600160a01b0316815260200190815260200160002060008201518160000160006101000a81548160ff0219169083151502179055506020820151816001015560408201518160020155606082015181600301556080820151816004015560a0820151816005015560c0820151816006015560e082015181600701559050506003859080600181540180825580915050600190039060005260206000200160009091909190916101000a8154816001600160a01b0302191690836001600160a01b031602179055506004859080600181540180825580915050600190039060005260206000200160009091909190916101000a8154816001600160a01b0302191690836001600160a01b03160217905550846001600160a01b03167f5ec27a4fa537fc86d0d17d84e0ee3172c9d253c78cc4ab5c69ee99c5f7084f5185858560405161075a939291909283526020830191909152604082015260600190565b60405180910390a25050505050565b606060048054806020026020016040519081016040528092919081815260200182805480156107c157602002820191906000526020600020905b81546001600160a01b031681526001909101906020018083116107a3575b5050505050905090565b600054610100900460ff16806107e4575060005460ff16155b6108475760405162461bcd60e51b815260206004820152602e60248201527f496e697469616c697a61626c653a20636f6e747261637420697320616c72656160448201526d191e481a5b9a5d1a585b1a5e995960921b6064820152608401610478565b600054610100900460ff16158015610869576000805461ffff19166101011790555b6000805462010000600160b01b031916620100006001600160a01b03851602179055801561089d576000805461ff00191690555b5050565b6000546001600160a01b03620100009091041633146108d25760405162461bcd60e51b815260040161047890612cbc565b6001600160a01b038216600090815260056020526040812060040180548392906108fd908490612d61565b9250508190555080600260008282546109169190612d61565b90915550505050565b6004818154811061092f57600080fd5b6000918252602090912001546001600160a01b0316905081565b6000546001600160a01b036201000090910416331461097a5760405162461bcd60e51b815260040161047890612cbc565b6001600160a01b0382166000908152600560209081526040918290205482518084019093526002835261189b60f11b9183019190915260ff166109d05760405162461bcd60e51b81526004016104789190612c89565b506001600160a01b0381166000908152600560209081526040918290205482518084019093526002835261313560f01b9183019190915260ff1615610a285760405162461bcd60e51b81526004016104789190612c89565b50600060405180610100016040528060011515815260200160056000866001600160a01b03166001600160a01b0316815260200190815260200160002060010154815260200160056000866001600160a01b03166001600160a01b0316815260200190815260200160002060020154815260200160056000866001600160a01b03166001600160a01b0316815260200190815260200160002060030154815260200160056000866001600160a01b03166001600160a01b03168152602001908152602001600020600401548152602001600081526020016000815260200160056000866001600160a01b03166001600160a01b0316815260200190815260200160002060070154815250905060056000846001600160a01b03166001600160a01b03168152602001908152602001600020600080820160006101000a81549060ff0219169055600182016000905560028201600090556003820160009055600482016000905560058201600090556006820160009055600782016000905550508060056000846001600160a01b03166001600160a01b0316815260200190815260200160002060008201518160000160006101000a81548160ff0219169083151502179055506020820151816001015560408201518160020155606082015181600301556080820151816004015560a0820151816005015560c0820151816006015560e0820151816007015590505060005b600354811015610cf157836001600160a01b031660038281548110610c6f57634e487b7160e01b600052603260045260246000fd5b6000918252602090912001546001600160a01b03161415610cdf578260038281548110610cac57634e487b7160e01b600052603260045260246000fd5b9060005260206000200160006101000a8154816001600160a01b0302191690836001600160a01b03160217905550610cf1565b80610ce981612da8565b915050610c3a565b5060005b600454811015610dac57836001600160a01b031660048281548110610d2a57634e487b7160e01b600052603260045260246000fd5b6000918252602090912001546001600160a01b03161415610d9a578260048281548110610d6757634e487b7160e01b600052603260045260246000fd5b9060005260206000200160006101000a8154816001600160a01b0302191690836001600160a01b03160217905550610dac565b80610da481612da8565b915050610cf5565b506001600160a01b03828116600081815260056020908152604091829020600181015460078201546002909201548451918252928101919091529182015290918516907f35df46f62e188dd7abf424c0f449d857c487aa70360ca1bc904871a61617c20e9060600160405180910390a3505050565b6000546040805163030d028960e21b8152905133926201000090046001600160a01b031691630c340a24916004808301926020929190829003018186803b158015610e6b57600080fd5b505afa158015610e7f573d6000803e3d6000fd5b505050506040513d601f19601f82011682018060405250810190610ea39190612a50565b6001600160a01b031614610ec95760405162461bcd60e51b815260040161047890612ce0565b6001600160a01b0382166000908152600560209081526040918290205482518084019093526002835261189b60f11b9183019190915260ff16610f1f5760405162461bcd60e51b81526004016104789190612c89565b50604080518082019091526002815261313160f01b6020820152612710821115610f5c5760405162461bcd60e51b81526004016104789190612c89565b506001600160a01b03821660008181526005602052604090819020600101839055517f683b8ed6de444177ebfaa1bac367068d61bd9dfef1f4c309b35e05dd709e73e190610fad9084815260200190565b60405180910390a25050565b6000546001600160a01b0362010000909104163314610fea5760405162461bcd60e51b815260040161047890612cbc565b6001600160a01b0382166000908152600560209081526040918290205482518084019093526002835261189b60f11b9183019190915260ff166110405760405162461bcd60e51b81526004016104789190612c89565b5061089d8282612149565b600060029054906101000a90046001600160a01b03166001600160a01b03166349eeb8606040518163ffffffff1660e01b815260040160206040518083038186803b15801561109957600080fd5b505afa1580156110ad573d6000803e3d6000fd5b505050506040513d601f19601f820116820180604052508101906110d19190612a50565b6001600160a01b0316635dbe47e8336040516001600160e01b031960e084901b1681526001600160a01b03909116600482015260240160206040518083038186803b15801561111f57600080fd5b505afa158015611133573d6000803e3d6000fd5b505050506040513d601f19601f820116820180604052508101906111579190612bd0565b6111965760405162461bcd60e51b815260206004820152601060248201526f3737ba16b096b6b0b4b73a30b4b732b960811b6044820152606401610478565b8051600454811480156111aa575060035481145b604051806040016040528060018152602001600d60fa1b815250906111e25760405162461bcd60e51b81526004016104789190612c89565b5060005b81811015611297576005600084838151811061121257634e487b7160e01b600052603260045260246000fd5b60200260200101516001600160a01b03166001600160a01b0316815260200190815260200160002060000160009054906101000a900460ff1660405180604001604052806002815260200161189b60f11b815250906112845760405162461bcd60e51b81526004016104789190612c89565b508061128f81612da8565b9150506111e6565b5081516112ab9060049060208501906129af565b505050565b600060029054906101000a90046001600160a01b03166001600160a01b03166349eeb8606040518163ffffffff1660e01b815260040160206040518083038186803b1580156112fe57600080fd5b505afa158015611312573d6000803e3d6000fd5b505050506040513d601f19601f820116820180604052508101906113369190612a50565b6001600160a01b0316635dbe47e8336040516001600160e01b031960e084901b1681526001600160a01b03909116600482015260240160206040518083038186803b15801561138457600080fd5b505afa158015611398573d6000803e3d6000fd5b505050506040513d601f19601f820116820180604052508101906113bc9190612bd0565b6113fb5760405162461bcd60e51b815260206004820152601060248201526f3737ba16b096b6b0b4b73a30b4b732b960811b6044820152606401610478565b6001600160a01b0382166000908152600560209081526040918290205482518084019093526002835261189b60f11b9183019190915260ff166114515760405162461bcd60e51b81526004016104789190612c89565b506001600160a01b038216600090815260056020526040902060070154600154829161147c91612d61565b6114869190612d0a565b6001819055604080518082019091526002815261062760f31b60208201529061271010156114c75760405162461bcd60e51b81526004016104789190612c89565b506001600160a01b03821660008181526005602090815260409182902060078101859055600201548251858152918201527f3819805ced44aeebe5cbf4f81a253424557ef66c0a682cf3b54501e3fb935ba19101610fad565b6001600160a01b0381166000908152600560205260409020600401545b919050565b60008054819081906001600160a01b03620100009091041633146115785760405162461bcd60e51b815260040161047890612cbc565b6001600160a01b0387166000908152600560209081526040918290205482518084019093526002835261189b60f11b9183019190915260ff166115ce5760405162461bcd60e51b81526004016104789190612c89565b506115d98487612d0a565b600060029054906101000a90046001600160a01b03166001600160a01b031663fc0c546a6040518163ffffffff1660e01b815260040160206040518083038186803b15801561162757600080fd5b505afa15801561163b573d6000803e3d6000fd5b505050506040513d601f19601f8201168201806040525081019061165f9190612a50565b6040516370a0823160e01b81526001600160a01b038a8116600483015291909116906370a082319060240160206040518083038186803b1580156116a257600080fd5b505afa1580156116b6573d6000803e3d6000fd5b505050506040513d601f19601f820116820180604052508101906116da9190612c08565b1015604051806040016040528060018152602001603960f81b815250906117145760405162461bcd60e51b81526004016104789190612c89565b508415611725576117258786612149565b600061173088612336565b905061173c81866124d3565b9350831561178e576001600160a01b0388166000908152600560205260408120600401805486929061176f908490612d61565b9250508190555083600260008282546117889190612d61565b90915550505b611797886124eb565b925082156117e9576001600160a01b038816600090815260056020526040812060040180548592906117ca908490612d0a565b9250508190555082600260008282546117e39190612d0a565b90915550505b8615611856576001600160a01b0388166000908152600560205260408120600601805489929061181a908490612d0a565b90915550506001600160a01b038816600090815260056020526040902060010154612710906118499089612d42565b6118539190612d22565b91505b6001600160a01b0388166000818152600560209081526040918290206004015460025483518c81529283018b90529282018890526060820152608081019190915260a081018590527f29c6c60e040fcd722949346bda66341e8859b20b9a2124a625326ad10373391b9060c00160405180910390a2509450945094915050565b606060038054806020026020016040519081016040528092919081815260200182805480156107c1576020028201919060005260206000209081546001600160a01b031681526001909101906020018083116107a3575050505050905090565b6000611941826124eb565b92915050565b6000546040805163030d028960e21b8152905133926201000090046001600160a01b031691630c340a24916004808301926020929190829003018186803b15801561199157600080fd5b505afa1580156119a5573d6000803e3d6000fd5b505050506040513d601f19601f820116820180604052508101906119c99190612a50565b6001600160a01b0316146119ef5760405162461bcd60e51b815260040161047890612ce0565b600060038281548110611a1257634e487b7160e01b600052603260045260246000fd5b60009182526020808320909101546001600160a01b0316808352600582526040928390205483518085019094526002845261189b60f11b92840192909252925060ff16611a725760405162461bcd60e51b81526004016104789190612c89565b506001600160a01b0381166000908152600560209081526040918290206004015482518084019093526002835261313960f01b9183019190915215611aca5760405162461bcd60e51b81526004016104789190612c89565b506001600160a01b03811660009081526005602081905260408220805460ff191681556001808201849055600282018490556003808301859055600483018590559282018490556006820184905560079091019290925580549091611b2e91612d61565b81548110611b4c57634e487b7160e01b600052603260045260246000fd5b600091825260209091200154600380546001600160a01b039092169184908110611b8657634e487b7160e01b600052603260045260246000fd5b9060005260206000200160006101000a8154816001600160a01b0302191690836001600160a01b031602179055506003805480611bd357634e487b7160e01b600052603160045260246000fd5b600082815260208120820160001990810180546001600160a01b031916905590910190915560035467ffffffffffffffff811115611c2157634e487b7160e01b600052604160045260246000fd5b604051908082528060200260200182016040528015611c4a578160200160208202803683370190505b5090506000805b600454811015611d3757836001600160a01b031660048281548110611c8657634e487b7160e01b600052603260045260246000fd5b6000918252602090912001546001600160a01b031614611d255760048181548110611cc157634e487b7160e01b600052603260045260246000fd5b9060005260206000200160009054906101000a90046001600160a01b0316838381518110611cff57634e487b7160e01b600052603260045260246000fd5b6001600160a01b039092166020928302919091019091015281611d2181612da8565b9250505b80611d2f81612da8565b915050611c51565b508151611d4b9060049060208501906129af565b5050505050565b600060029054906101000a90046001600160a01b03166001600160a01b031663951dc22c6040518163ffffffff1660e01b815260040160206040518083038186803b158015611da057600080fd5b505afa158015611db4573d6000803e3d6000fd5b505050506040513d601f19601f82011682018060405250810190611dd89190612a50565b6001600160a01b0316635dbe47e8336040516001600160e01b031960e084901b1681526001600160a01b03909116600482015260240160206040518083038186803b158015611e2657600080fd5b505afa158015611e3a573d6000803e3d6000fd5b505050506040513d601f19601f82011682018060405250810190611e5e9190612bd0565b611e995760405162461bcd60e51b815260206004820152600c60248201526b3737ba16b096b5b2b2b832b960a11b6044820152606401610478565b6001600160a01b0382166000908152600560209081526040918290205482518084019093526002835261189b60f11b9183019190915260ff16611eef5760405162461bcd60e51b81526004016104789190612c89565b506001600160a01b038216600081815260056020908152604091829020600281018590556007015482519081529081018490527f3819805ced44aeebe5cbf4f81a253424557ef66c0a682cf3b54501e3fb935ba19101610fad565b600061194182612336565b6003818154811061092f57600080fd5b600060029054906101000a90046001600160a01b03166001600160a01b031663951dc22c6040518163ffffffff1660e01b815260040160206040518083038186803b158015611fb357600080fd5b505afa158015611fc7573d6000803e3d6000fd5b505050506040513d601f19601f82011682018060405250810190611feb9190612a50565b6001600160a01b0316635dbe47e8336040516001600160e01b031960e084901b1681526001600160a01b03909116600482015260240160206040518083038186803b15801561203957600080fd5b505afa15801561204d573d6000803e3d6000fd5b505050506040513d601f19601f820116820180604052508101906120719190612bd0565b6120ac5760405162461bcd60e51b815260206004820152600c60248201526b3737ba16b096b5b2b2b832b960a11b6044820152606401610478565b6000546040516370a0823160e01b8152306004820152612146916201000090046001600160a01b0390811691908416906370a082319060240160206040518083038186803b1580156120fd57600080fd5b505afa158015612111573d6000803e3d6000fd5b505050506040513d601f19601f820116820180604052508101906121359190612c08565b6001600160a01b03841691906127a7565b50565b6001600160a01b0382166000908152600560209081526040918290206004015482518084019093526002835261032360f41b9183019190915290828210156121a45760405162461bcd60e51b81526004016104789190612c89565b506001600160a01b038316600090815260056020819052604082200180548492906121d0908490612d0a565b90915550506001600160a01b03831660009081526005602052604081206004018054849290612200908490612d61565b9250508190555081600260008282546122199190612d61565b9250508190555060006122e2600060029054906101000a90046001600160a01b03166001600160a01b031663d4c3eea06040518163ffffffff1660e01b815260040160206040518083038186803b15801561227357600080fd5b505afa158015612287573d6000803e3d6000fd5b505050506040513d601f19601f820116820180604052508101906122ab9190612c08565b6122b761271086612d42565b6122c19190612d22565b6001600160a01b0386166000908152600560205260409020600701546124d3565b6001600160a01b038516600090815260056020526040812060070180549293508392909190612312908490612d61565b92505081905550806001600082825461232b9190612d61565b909155505050505050565b60008060056000846001600160a01b03166001600160a01b03168152602001908152602001600020600401549050600060029054906101000a90046001600160a01b03166001600160a01b0316634938649a6040518163ffffffff1660e01b815260040160206040518083038186803b1580156123b257600080fd5b505afa1580156123c6573d6000803e3d6000fd5b505050506040513d601f19601f820116820180604052508101906123ea9190612bd0565b156123f657905061153d565b6000612710600060029054906101000a90046001600160a01b03166001600160a01b031663d4c3eea06040518163ffffffff1660e01b815260040160206040518083038186803b15801561244957600080fd5b505afa15801561245d573d6000803e3d6000fd5b505050506040513d601f19601f820116820180604052508101906124819190612c08565b6001600160a01b0386166000908152600560205260409020600701546124a79190612d42565b6124b19190612d22565b90508082116124c15760006124cb565b6124cb8183612d61565b949350505050565b60008183106124e257816124e4565b825b9392505050565b60008060029054906101000a90046001600160a01b03166001600160a01b0316634938649a6040518163ffffffff1660e01b815260040160206040518083038186803b15801561253a57600080fd5b505afa15801561254e573d6000803e3d6000fd5b505050506040513d601f19601f820116820180604052508101906125729190612bd0565b1561257f5750600061153d565b60008060029054906101000a90046001600160a01b03166001600160a01b031663d4c3eea06040518163ffffffff1660e01b815260040160206040518083038186803b1580156125ce57600080fd5b505afa1580156125e2573d6000803e3d6000fd5b505050506040513d601f19601f820116820180604052508101906126069190612c08565b6001600160a01b0384166000908152600560205260408120600701549192509061271090612635908490612d42565b61263f9190612d22565b6001600160a01b038516600090815260056020526040902060040154909150818110612671576000935050505061153d565b6000612710846001546126849190612d42565b61268e9190612d22565b905080600254106126a657600094505050505061153d565b60006126b28385612d61565b9050612758612746600060029054906101000a90046001600160a01b03166001600160a01b031663b8cb343d6040518163ffffffff1660e01b815260040160206040518083038186803b15801561270857600080fd5b505afa15801561271c573d6000803e3d6000fd5b505050506040513d601f19601f820116820180604052508101906127409190612c08565b836124d3565b6002546127539085612d61565b6124d3565b6001600160a01b0388166000908152600560205260409020600281015460039091015491925061279c9161278c9043612d61565b6127969190612d42565b826124d3565b979650505050505050565b604080516001600160a01b03848116602483015260448083018590528351808403909101815260649092018352602080830180516001600160e01b031663a9059cbb60e01b17905283518085019094528084527f5361666545524332303a206c6f772d6c6576656c2063616c6c206661696c6564908401526112ab928692916000916128379185169084906128b4565b8051909150156112ab57808060200190518101906128559190612bd0565b6112ab5760405162461bcd60e51b815260206004820152602a60248201527f5361666545524332303a204552433230206f7065726174696f6e20646964206e6044820152691bdd081cdd58d8d9595960b21b6064820152608401610478565b60606124cb848460008585843b61290d5760405162461bcd60e51b815260206004820152601d60248201527f416464726573733a2063616c6c20746f206e6f6e2d636f6e74726163740000006044820152606401610478565b600080866001600160a01b031685876040516129299190612c20565b60006040518083038185875af1925050503d8060008114612966576040519150601f19603f3d011682016040523d82523d6000602084013e61296b565b606091505b509150915061279c828286606083156129855750816124e4565b8251156129955782518084602001fd5b8160405162461bcd60e51b81526004016104789190612c89565b828054828255906000526020600020908101928215612a04579160200282015b82811115612a0457825182546001600160a01b0319166001600160a01b039091161782556020909201916001909101906129cf565b50612a10929150612a14565b5090565b5b80821115612a105760008155600101612a15565b803561153d81612def565b600060208284031215612a45578081fd5b81356124e481612def565b600060208284031215612a61578081fd5b81516124e481612def565b60008060408385031215612a7e578081fd5b8235612a8981612def565b91506020830135612a9981612def565b809150509250929050565b60008060408385031215612ab6578182fd5b8235612ac181612def565b946020939093013593505050565b60008060008060808587031215612ae4578182fd5b8435612aef81612def565b966020860135965060408601359560600135945092505050565b60006020808385031215612b1b578182fd5b823567ffffffffffffffff80821115612b32578384fd5b818501915085601f830112612b45578384fd5b813581811115612b5757612b57612dd9565b8060051b604051601f19603f83011681018181108582111715612b7c57612b7c612dd9565b604052828152858101935084860182860187018a1015612b9a578788fd5b8795505b83861015612bc357612baf81612a29565b855260019590950194938601938601612b9e565b5098975050505050505050565b600060208284031215612be1578081fd5b815180151581146124e4578182fd5b600060208284031215612c01578081fd5b5035919050565b600060208284031215612c19578081fd5b5051919050565b60008251612c32818460208701612d78565b9190910192915050565b6020808252825182820181905260009190848201906040850190845b81811015612c7d5783516001600160a01b031683529284019291840191600101612c58565b50909695505050505050565b6000602082528251806020840152612ca8816040850160208701612d78565b601f01601f19169190910160400192915050565b6020808252600a90820152691b9bdd0b584b5c1bdbdb60b21b604082015260600190565b60208082526010908201526f3737ba16ba343296b3b7bb32b93737b960811b604082015260600190565b60008219821115612d1d57612d1d612dc3565b500190565b600082612d3d57634e487b7160e01b81526012600452602481fd5b500490565b6000816000190483118215151615612d5c57612d5c612dc3565b500290565b600082821015612d7357612d73612dc3565b500390565b60005b83811015612d93578181015183820152602001612d7b565b83811115612da2576000848401525b50505050565b6000600019821415612dbc57612dbc612dc3565b5060010190565b634e487b7160e01b600052601160045260246000fd5b634e487b7160e01b600052604160045260246000fd5b6001600160a01b038116811461214657600080fdfea264697066735822122019e6e399cf9bdf35d1ec5859a37f66990363a9b9e88d3dc3c91f71db6e93b35564736f6c63430008030033",
  "devdoc": {
    "kind": "dev",
    "methods": {
      "addStrategy(address,uint256,uint256,uint256)": {
        "params": {
          "_debtRate": "Debt rate per block",
          "_debtRatio": "Pool fund allocation to this strategy",
          "_interestFee": "Fee on earnings from this strategy",
          "_strategy": "Strategy address"
        }
      },
      "availableCreditLimit(address)": {
        "details": "Available credit limit is calculated based on current debt of pool and strategy, current debt limit of pool and strategy. credit available = min(pool's debt limit, strategy's debt limit, max debt per rebalance) when some strategy do not pay back outstanding debt, this impact credit line of other strategy if totalDebt of pool >= debtLimit of pool",
        "params": {
          "_strategy": "Strategy address"
        }
      },
      "decreaseDebt(address,uint256)": {
        "details": "In case of withdraw from strategy, pool will decrease debt by amount withdrawn",
        "params": {
          "_decreaseBy": "Amount by which strategy debt will be decreased",
          "_strategy": "Strategy Address"
        }
      },
      "excessDebt(address)": {
        "params": {
          "_strategy": "Address of strategy"
        }
      },
      "init(address)": {
        "details": "This init function meant to be called after proxy deployment.DO NOT CALL it with proxy deploy",
        "params": {
          "_pool": "Address of Vesper pool proxy"
        }
      },
      "migrateStrategy(address,address)": {
        "details": "Migrating strategy aka old and new strategy should be of same type.New strategy will replace old strategy in strategy mapping, strategies array, withdraw queue.",
        "params": {
          "_new": "Address of new strategy",
          "_old": "Address of strategy being migrated"
        }
      },
      "removeStrategy(uint256)": {
        "details": "Revoke and remove strategy from array. Update withdraw queue. Withdraw queue order should not change after remove. Strategy can be removed only after it has paid all debt. Use migrate strategy if debt is not paid and want to upgrade strategy."
      },
      "reportEarning(address,uint256,uint256,uint256)": {
        "details": "Strategy call this in regular interval.",
        "params": {
          "_loss": "Reduce debt ,also reduce debtRatio, increase loss in record.",
          "_payback": "strategy willing to payback outstanding above debtLimit. no performance fee on this amount.  when governance has reduced debtRatio of strategy, strategy will report profit and payback amount separately.",
          "_profit": "yield generated by strategy. Strategy get performance fee on this amount"
        }
      },
      "reportLoss(address,uint256)": {
        "params": {
          "_loss": "Loss of strategy",
          "_strategy": "Strategy which incur loss"
        }
      },
      "sweepERC20(address)": {
        "details": "Transfer given ERC20 token to pool",
        "params": {
          "_fromToken": "Token address to sweep"
        }
      },
      "totalDebtOf(address)": {
        "params": {
          "_strategy": "Strategy address"
        }
      },
      "updateDebtRate(address,uint256)": {
        "params": {
          "_debtRate": "New debt rate",
          "_strategy": "Strategy address for which debt rate is being updated"
        }
      },
      "updateDebtRatio(address,uint256)": {
        "details": "A strategy is retired when debtRatio is 0",
        "params": {
          "_debtRatio": "New debt ratio",
          "_strategy": "Strategy address for which debt ratio is being updated"
        }
      },
      "updateInterestFee(address,uint256)": {
        "params": {
          "_interestFee": "New interest fee",
          "_strategy": "Strategy address for which interest fee is being updated"
        }
      },
      "updateWithdrawQueue(address[])": {
        "details": "Pool always keep some buffer amount to satisfy withdrawal request, any withdrawal request higher than buffer will withdraw from withdraw queue. So withdrawQueue[0] will be the first strategy where withdrawal request will be send.",
        "params": {
          "_withdrawQueue": "Ordered list of strategy."
        }
      }
    },
    "title": "Accountant for Vesper pools which keep records of strategies.",
    "version": 1
  },
  "userdoc": {
    "kind": "user",
    "methods": {
      "addStrategy(address,uint256,uint256,uint256)": {
        "notice": "Add strategy. Once strategy is added it can call rebalance and borrow fund from pool and invest that fund in provider/lender."
      },
      "availableCreditLimit(address)": {
        "notice": "Get available credit limit of strategy. This is the amount strategy can borrow from pool"
      },
      "decreaseDebt(address,uint256)": {
        "notice": "Decrease debt of strategy, also decrease totalDebt"
      },
      "excessDebt(address)": {
        "notice": "Debt above current debt limit"
      },
      "getStrategies()": {
        "notice": "Return strategies array"
      },
      "getWithdrawQueue()": {
        "notice": "Return withdrawQueue"
      },
      "migrateStrategy(address,address)": {
        "notice": "Migrate existing strategy to new strategy."
      },
      "reportLoss(address,uint256)": {
        "notice": "Update strategy loss."
      },
      "totalDebtOf(address)": {
        "notice": "Get total debt of given strategy"
      },
      "updateDebtRate(address,uint256)": {
        "notice": "Update debtRate per block."
      },
      "updateDebtRatio(address,uint256)": {
        "notice": "Update debt ratio."
      },
      "updateInterestFee(address,uint256)": {
        "notice": "Update interest fee of strategy"
      },
      "updateWithdrawQueue(address[])": {
        "notice": "Update withdraw queue. Withdraw queue is list of strategy in the order in which funds should be withdrawn."
      }
    },
    "version": 1
  },
  "storageLayout": {
    "storage": [
      {
        "astId": 887,
        "contract": "contracts/pool/PoolAccountant.sol:PoolAccountant",
        "label": "_initialized",
        "offset": 0,
        "slot": "0",
        "type": "t_bool"
      },
      {
        "astId": 890,
        "contract": "contracts/pool/PoolAccountant.sol:PoolAccountant",
        "label": "_initializing",
        "offset": 1,
        "slot": "0",
        "type": "t_bool"
      },
      {
        "astId": 5135,
        "contract": "contracts/pool/PoolAccountant.sol:PoolAccountant",
        "label": "pool",
        "offset": 2,
        "slot": "0",
        "type": "t_address"
      },
      {
        "astId": 5137,
        "contract": "contracts/pool/PoolAccountant.sol:PoolAccountant",
        "label": "totalDebtRatio",
        "offset": 0,
        "slot": "1",
        "type": "t_uint256"
      },
      {
        "astId": 5139,
        "contract": "contracts/pool/PoolAccountant.sol:PoolAccountant",
        "label": "totalDebt",
        "offset": 0,
        "slot": "2",
        "type": "t_uint256"
      },
      {
        "astId": 5142,
        "contract": "contracts/pool/PoolAccountant.sol:PoolAccountant",
        "label": "strategies",
        "offset": 0,
        "slot": "3",
        "type": "t_array(t_address)dyn_storage"
      },
      {
        "astId": 5145,
        "contract": "contracts/pool/PoolAccountant.sol:PoolAccountant",
        "label": "withdrawQueue",
        "offset": 0,
        "slot": "4",
        "type": "t_array(t_address)dyn_storage"
      },
      {
        "astId": 5167,
        "contract": "contracts/pool/PoolAccountant.sol:PoolAccountant",
        "label": "strategy",
        "offset": 0,
        "slot": "5",
        "type": "t_mapping(t_address,t_struct(StrategyConfig)5162_storage)"
      }
    ],
    "types": {
      "t_address": {
        "encoding": "inplace",
        "label": "address",
        "numberOfBytes": "20"
      },
      "t_array(t_address)dyn_storage": {
        "base": "t_address",
        "encoding": "dynamic_array",
        "label": "address[]",
        "numberOfBytes": "32"
      },
      "t_bool": {
        "encoding": "inplace",
        "label": "bool",
        "numberOfBytes": "1"
      },
      "t_mapping(t_address,t_struct(StrategyConfig)5162_storage)": {
        "encoding": "mapping",
        "key": "t_address",
        "label": "mapping(address => struct PoolAccountantStorageV1.StrategyConfig)",
        "numberOfBytes": "32",
        "value": "t_struct(StrategyConfig)5162_storage"
      },
      "t_struct(StrategyConfig)5162_storage": {
        "encoding": "inplace",
        "label": "struct PoolAccountantStorageV1.StrategyConfig",
        "members": [
          {
            "astId": 5147,
            "contract": "contracts/pool/PoolAccountant.sol:PoolAccountant",
            "label": "active",
            "offset": 0,
            "slot": "0",
            "type": "t_bool"
          },
          {
            "astId": 5149,
            "contract": "contracts/pool/PoolAccountant.sol:PoolAccountant",
            "label": "interestFee",
            "offset": 0,
            "slot": "1",
            "type": "t_uint256"
          },
          {
            "astId": 5151,
            "contract": "contracts/pool/PoolAccountant.sol:PoolAccountant",
            "label": "debtRate",
            "offset": 0,
            "slot": "2",
            "type": "t_uint256"
          },
          {
            "astId": 5153,
            "contract": "contracts/pool/PoolAccountant.sol:PoolAccountant",
            "label": "lastRebalance",
            "offset": 0,
            "slot": "3",
            "type": "t_uint256"
          },
          {
            "astId": 5155,
            "contract": "contracts/pool/PoolAccountant.sol:PoolAccountant",
            "label": "totalDebt",
            "offset": 0,
            "slot": "4",
            "type": "t_uint256"
          },
          {
            "astId": 5157,
            "contract": "contracts/pool/PoolAccountant.sol:PoolAccountant",
            "label": "totalLoss",
            "offset": 0,
            "slot": "5",
            "type": "t_uint256"
          },
          {
            "astId": 5159,
            "contract": "contracts/pool/PoolAccountant.sol:PoolAccountant",
            "label": "totalProfit",
            "offset": 0,
            "slot": "6",
            "type": "t_uint256"
          },
          {
            "astId": 5161,
            "contract": "contracts/pool/PoolAccountant.sol:PoolAccountant",
            "label": "debtRatio",
            "offset": 0,
            "slot": "7",
            "type": "t_uint256"
          }
        ],
        "numberOfBytes": "256"
      },
      "t_uint256": {
        "encoding": "inplace",
        "label": "uint256",
        "numberOfBytes": "32"
      }
    }
  }
}