{
  "address": "0x867E89E47b7c252F4D991DF75eBd2CFD9188B929",
  "abi": [
    {
      "inputs": [
        {
          "internalType": "address",
          "name": "_pool",
          "type": "address"
        },
        {
          "internalType": "address",
          "name": "_swapManager",
          "type": "address"
        },
        {
          "internalType": "address",
          "name": "_receiptToken",
          "type": "address"
        },
        {
          "internalType": "string",
          "name": "_name",
          "type": "string"
        }
      ],
      "stateMutability": "nonpayable",
      "type": "constructor"
    },
    {
      "anonymous": false,
      "inputs": [
        {
          "indexed": false,
          "internalType": "address",
          "name": "_previousProvider",
          "type": "address"
        },
        {
          "indexed": false,
          "internalType": "address",
          "name": "_newProvider",
          "type": "address"
        }
      ],
      "name": "UpdatedAddressesProvider",
      "type": "event"
    },
    {
      "anonymous": false,
      "inputs": [
        {
          "indexed": true,
          "internalType": "address",
          "name": "previousFeeCollector",
          "type": "address"
        },
        {
          "indexed": true,
          "internalType": "address",
          "name": "newFeeCollector",
          "type": "address"
        }
      ],
      "name": "UpdatedFeeCollector",
      "type": "event"
    },
    {
      "anonymous": false,
      "inputs": [
        {
          "indexed": false,
          "internalType": "uint256",
          "name": "oldPeriod",
          "type": "uint256"
        },
        {
          "indexed": false,
          "internalType": "uint256",
          "name": "newPeriod",
          "type": "uint256"
        },
        {
          "indexed": false,
          "internalType": "uint256",
          "name": "oldRouterIdx",
          "type": "uint256"
        },
        {
          "indexed": false,
          "internalType": "uint256",
          "name": "newRouterIdx",
          "type": "uint256"
        }
      ],
      "name": "UpdatedOracleConfig",
      "type": "event"
    },
    {
      "anonymous": false,
      "inputs": [
        {
          "indexed": true,
          "internalType": "address",
          "name": "previousSwapManager",
          "type": "address"
        },
        {
          "indexed": true,
          "internalType": "address",
          "name": "newSwapManager",
          "type": "address"
        }
      ],
      "name": "UpdatedSwapManager",
      "type": "event"
    },
    {
      "anonymous": false,
      "inputs": [
        {
          "indexed": false,
          "internalType": "uint256",
          "name": "oldSwapSlippage",
          "type": "uint256"
        },
        {
          "indexed": false,
          "internalType": "uint256",
          "name": "newSwapSlippage",
          "type": "uint256"
        }
      ],
      "name": "UpdatedSwapSlippage",
      "type": "event"
    },
    {
      "inputs": [],
      "name": "NAME",
      "outputs": [
        {
          "internalType": "string",
          "name": "",
          "type": "string"
        }
      ],
      "stateMutability": "view",
      "type": "function"
    },
    {
      "inputs": [],
      "name": "VERSION",
      "outputs": [
        {
          "internalType": "string",
          "name": "",
          "type": "string"
        }
      ],
      "stateMutability": "view",
      "type": "function"
    },
    {
      "inputs": [],
      "name": "aaveAddressesProvider",
      "outputs": [
        {
          "internalType": "contract AaveLendingPoolAddressesProvider",
          "name": "",
          "type": "address"
        }
      ],
      "stateMutability": "view",
      "type": "function"
    },
    {
      "inputs": [],
      "name": "aaveIncentivesController",
      "outputs": [
        {
          "internalType": "contract AaveIncentivesController",
          "name": "",
          "type": "address"
        }
      ],
      "stateMutability": "view",
      "type": "function"
    },
    {
      "inputs": [],
      "name": "aaveLendingPool",
      "outputs": [
        {
          "internalType": "contract AaveLendingPool",
          "name": "",
          "type": "address"
        }
      ],
      "stateMutability": "view",
      "type": "function"
    },
    {
      "inputs": [],
      "name": "aaveProtocolDataProvider",
      "outputs": [
        {
          "internalType": "contract AaveProtocolDataProvider",
          "name": "",
          "type": "address"
        }
      ],
      "stateMutability": "view",
      "type": "function"
    },
    {
      "inputs": [
        {
          "internalType": "address",
          "name": "_keeperAddress",
          "type": "address"
        }
      ],
      "name": "addKeeper",
      "outputs": [],
      "stateMutability": "nonpayable",
      "type": "function"
    },
    {
      "inputs": [],
      "name": "approveToken",
      "outputs": [],
      "stateMutability": "nonpayable",
      "type": "function"
    },
    {
      "inputs": [],
      "name": "collateralToken",
      "outputs": [
        {
          "internalType": "contract IERC20",
          "name": "",
          "type": "address"
        }
      ],
      "stateMutability": "view",
      "type": "function"
    },
    {
      "inputs": [],
      "name": "feeCollector",
      "outputs": [
        {
          "internalType": "address",
          "name": "",
          "type": "address"
        }
      ],
      "stateMutability": "view",
      "type": "function"
    },
    {
      "inputs": [
        {
          "internalType": "address",
          "name": "_token",
          "type": "address"
        }
      ],
      "name": "isReservedToken",
      "outputs": [
        {
          "internalType": "bool",
          "name": "",
          "type": "bool"
        }
      ],
      "stateMutability": "view",
      "type": "function"
    },
    {
      "inputs": [],
      "name": "keepers",
      "outputs": [
        {
          "internalType": "address[]",
          "name": "",
          "type": "address[]"
        }
      ],
      "stateMutability": "view",
      "type": "function"
    },
    {
      "inputs": [
        {
          "internalType": "address",
          "name": "_newStrategy",
          "type": "address"
        }
      ],
      "name": "migrate",
      "outputs": [],
      "stateMutability": "nonpayable",
      "type": "function"
    },
    {
      "inputs": [],
      "name": "oraclePeriod",
      "outputs": [
        {
          "internalType": "uint256",
          "name": "",
          "type": "uint256"
        }
      ],
      "stateMutability": "view",
      "type": "function"
    },
    {
      "inputs": [],
      "name": "oracleRouterIdx",
      "outputs": [
        {
          "internalType": "uint256",
          "name": "",
          "type": "uint256"
        }
      ],
      "stateMutability": "view",
      "type": "function"
    },
    {
      "inputs": [],
      "name": "pool",
      "outputs": [
        {
          "internalType": "address",
          "name": "",
          "type": "address"
        }
      ],
      "stateMutability": "view",
      "type": "function"
    },
    {
      "inputs": [],
      "name": "rebalance",
      "outputs": [],
      "stateMutability": "nonpayable",
      "type": "function"
    },
    {
      "inputs": [],
      "name": "receiptToken",
      "outputs": [
        {
          "internalType": "address",
          "name": "",
          "type": "address"
        }
      ],
      "stateMutability": "view",
      "type": "function"
    },
    {
      "inputs": [
        {
          "internalType": "address",
          "name": "_keeperAddress",
          "type": "address"
        }
      ],
      "name": "removeKeeper",
      "outputs": [],
      "stateMutability": "nonpayable",
      "type": "function"
    },
    {
      "inputs": [],
      "name": "rewardToken",
      "outputs": [
        {
          "internalType": "address",
          "name": "",
          "type": "address"
        }
      ],
      "stateMutability": "view",
      "type": "function"
    },
    {
      "inputs": [],
      "name": "setupOracles",
      "outputs": [],
      "stateMutability": "nonpayable",
      "type": "function"
    },
    {
      "inputs": [],
      "name": "swapManager",
      "outputs": [
        {
          "internalType": "contract ISwapManager",
          "name": "",
          "type": "address"
        }
      ],
      "stateMutability": "view",
      "type": "function"
    },
    {
      "inputs": [],
      "name": "swapSlippage",
      "outputs": [
        {
          "internalType": "uint256",
          "name": "",
          "type": "uint256"
        }
      ],
      "stateMutability": "view",
      "type": "function"
    },
    {
      "inputs": [
        {
          "internalType": "address",
          "name": "_fromToken",
          "type": "address"
        }
      ],
      "name": "sweepERC20",
      "outputs": [],
      "stateMutability": "nonpayable",
      "type": "function"
    },
    {
      "inputs": [],
      "name": "token",
      "outputs": [
        {
          "internalType": "address",
          "name": "",
          "type": "address"
        }
      ],
      "stateMutability": "view",
      "type": "function"
    },
    {
      "inputs": [],
      "name": "totalValue",
      "outputs": [
        {
          "internalType": "uint256",
          "name": "",
          "type": "uint256"
        }
      ],
      "stateMutability": "view",
      "type": "function"
    },
    {
      "inputs": [],
      "name": "totalValueCurrent",
      "outputs": [
        {
          "internalType": "uint256",
          "name": "",
          "type": "uint256"
        }
      ],
      "stateMutability": "nonpayable",
      "type": "function"
    },
    {
      "inputs": [
        {
          "internalType": "address",
          "name": "_newAddressesProvider",
          "type": "address"
        }
      ],
      "name": "updateAddressesProvider",
      "outputs": [],
      "stateMutability": "nonpayable",
      "type": "function"
    },
    {
      "inputs": [
        {
          "internalType": "address",
          "name": "_feeCollector",
          "type": "address"
        }
      ],
      "name": "updateFeeCollector",
      "outputs": [],
      "stateMutability": "nonpayable",
      "type": "function"
    },
    {
      "inputs": [
        {
          "internalType": "uint256",
          "name": "_newPeriod",
          "type": "uint256"
        },
        {
          "internalType": "uint256",
          "name": "_newRouterIdx",
          "type": "uint256"
        }
      ],
      "name": "updateOracleConfig",
      "outputs": [],
      "stateMutability": "nonpayable",
      "type": "function"
    },
    {
      "inputs": [
        {
          "internalType": "address",
          "name": "_swapManager",
          "type": "address"
        }
      ],
      "name": "updateSwapManager",
      "outputs": [],
      "stateMutability": "nonpayable",
      "type": "function"
    },
    {
      "inputs": [
        {
          "internalType": "uint256",
          "name": "_newSwapSlippage",
          "type": "uint256"
        }
      ],
      "name": "updateSwapSlippage",
      "outputs": [],
      "stateMutability": "nonpayable",
      "type": "function"
    },
    {
      "inputs": [
        {
          "internalType": "uint256",
          "name": "_amount",
          "type": "uint256"
        }
      ],
      "name": "withdraw",
      "outputs": [],
      "stateMutability": "nonpayable",
      "type": "function"
    }
  ],
  "transactionHash": "0xc8596431ebe6496e19aa88b7aa4499bef256b2fa79bfc51706b60574621a480a",
  "args": [
    "0x5323F445A8665239222b117aE095423a238F5706",
    "0xEbedFD259c9FB1F5c0ab9A9f24E79F8d80E29B23",
    "0x47AFa96Cdc9fAb46904A55a6ad4bf6660B53c38a",
    "AaveStrategyAvalancheDAI"
  ],
  "solcInputHash": "6d6aa4d3dcd6d9148cc3cd04f20f5f5d",
  "bytecode": "0x60e0604052600080546001600160a01b031990811673c02aaa39b223fe8d0a0e5c4f27ead9083c756cc2178255610e10600455600591909155612710600655600d8054821673b6a86025f0fe1862b372cb0ca18ce3ede02a318f179055600e805490911673b31f66aa3c1e785363f0875a1b74e27b85fd66c71790553480156200008857600080fd5b5060405162003e2338038062003e23833981016040819052620000ab916200063d565b8383836001600160a01b0383166200010a5760405162461bcd60e51b815260206004820152601460248201527f706f6f6c2d616464726573732d69732d7a65726f00000000000000000000000060448201526064015b60405180910390fd5b6001600160a01b038216620001575760405162461bcd60e51b8152602060048201526012602482015271736d2d616464726573732d69732d7a65726f60701b604482015260640162000101565b600380546001600160a01b0319166001600160a01b0384811691909117909155606084901b6001600160601b03191660a05260408051637e062a3560e11b815290519185169163fc0c546a91600480820192602092909190829003018186803b158015620001c457600080fd5b505afa158015620001d9573d6000803e3d6000fd5b505050506040513d601f19601f82011682018060405250810190620001ff919062000617565b60601b6001600160601b031916608052600180546001600160a01b0319166001600160a01b0383161790556200024c620002363390565b6007620004ff60201b62001bb21790919060201c565b6200028e5760405162461bcd60e51b81526020600482015260116024820152701859190b5ad9595c195c8b59985a5b1959607a1b604482015260640162000101565b5050506001600160a01b038216620002e95760405162461bcd60e51b815260206004820152601660248201527f61546f6b656e2d616464726573732d69732d7a65726f00000000000000000000604482015260640162000101565b816001600160a01b031660c0816001600160a01b031660601b81525050816001600160a01b03166375d264136040518163ffffffff1660e01b815260040160206040518083038186803b1580156200034057600080fd5b505afa92505050801562000373575060408051601f3d908101601f19168201909252620003709181019062000617565b60015b6200037e576200039f565b600c80546001600160a01b0319166001600160a01b03929092169190911790555b600d60009054906101000a90046001600160a01b03166001600160a01b0316630261bf8b6040518163ffffffff1660e01b815260040160206040518083038186803b158015620003ee57600080fd5b505afa15801562000403573d6000803e3d6000fd5b505050506040513d601f19601f8201168201806040525081019062000429919062000617565b600a80546001600160a01b0319166001600160a01b03928316179055600d546040516321f8a72160e01b8152600160f81b60048201529116906321f8a7219060240160206040518083038186803b1580156200048457600080fd5b505afa15801562000499573d6000803e3d6000fd5b505050506040513d601f19601f82011682018060405250810190620004bf919062000617565b600b80546001600160a01b0319166001600160a01b03929092169190911790558051620004f490600990602084019062000571565b5050505050620007c1565b600062000516836001600160a01b0384166200051f565b90505b92915050565b6000818152600183016020526040812054620005685750815460018181018455600084815260208082209093018490558454848252828601909352604090209190915562000519565b50600062000519565b8280546200057f9062000755565b90600052602060002090601f016020900481019282620005a35760008555620005ee565b82601f10620005be57805160ff1916838001178555620005ee565b82800160010185558215620005ee579182015b82811115620005ee578251825591602001919060010190620005d1565b50620005fc92915062000600565b5090565b5b80821115620005fc576000815560010162000601565b60006020828403121562000629578081fd5b81516200063681620007a8565b9392505050565b6000806000806080858703121562000653578283fd5b84516200066081620007a8565b809450506020808601516200067581620007a8565b60408701519094506200068881620007a8565b60608701519093506001600160401b0380821115620006a5578384fd5b818801915088601f830112620006b9578384fd5b815181811115620006ce57620006ce62000792565b604051601f8201601f19908116603f01168101908382118183101715620006f957620006f962000792565b816040528281528b8684870101111562000711578687fd5b8693505b8284101562000734578484018601518185018701529285019262000715565b828411156200074557868684830101525b989b979a50959850505050505050565b600181811c908216806200076a57607f821691505b602082108114156200078c57634e487b7160e01b600052602260045260246000fd5b50919050565b634e487b7160e01b600052604160045260246000fd5b6001600160a01b0381168114620007be57600080fd5b50565b60805160601c60a05160601c60c05160601c61353b620008e860003960008181610a3b015281816116a20152818161174f015281816118f401528181612317015281816124a8015281816125fd0152612b2b01526000818161024a01528181610498015281816105b3015281816108b10152818161092d01528181610a9001528181610c4301528181610df701528181610f3e0152818161119e01528181611267015281816114b301528181611bea01528181611c5701528181611cf40152611e7b0152600081816103a1015281816114060152818161148a0152818161184801528181611a0001528181611db101528181611e5901528181611eb1015281816123ab0152818161246c01528181612559015281816126c301526129c9015261353b6000f3fe608060405234801561001057600080fd5b50600436106101fb5760003560e01c806399b71d5c1161011a578063d2c35ce8116100ad578063e9d337b81161007c578063e9d337b814610428578063ec78e8321461043b578063f7c618c11461044e578063fc0c546a14610461578063ffa1ad7414610472576101fb565b8063d2c35ce8146103f2578063d4c3eea014610405578063e00af4a71461040d578063e645c20214610420576101fb565b8063b2016bd4116100e9578063b2016bd41461039c578063c415b95c146103c3578063cd2d7ebe146103d6578063ce5494bb146103df576101fb565b806399b71d5c14610364578063a3f4df7e1461036c578063a923b2a614610381578063aa10188614610394576101fb565b8063440d72481161019257806367f5e4b81161016157806367f5e4b814610321578063709d039d146103345780637d7c2a1c14610347578063951dc22c1461034f576101fb565b8063440d7248146102c55780634c36fad7146102e85780635f2475ca146102fb5780635f9d4d2e1461030e576101fb565b8063219a9822116101ce578063219a9822146102835780632e1a7d4d146102965780634032b72b146102a957806342189c8f146102bc576101fb565b806308bfa40a1461020057806314ae9f2e1461023057806316f0115b146102455780631aedeabe1461026c575b600080fd5b600d54610213906001600160a01b031681565b6040516001600160a01b0390911681526020015b60405180910390f35b61024361023e366004612fa4565b610496565b005b6102137f000000000000000000000000000000000000000000000000000000000000000081565b61027560065481565b604051908152602001610227565b610243610291366004612fa4565b6105b1565b6102436102a4366004613143565b6108ae565b6102436102b7366004612fa4565b61092b565b61027560045481565b6102d86102d3366004612fa4565b610a37565b6040519015158152602001610227565b6102436102f6366004612fa4565b610a8e565b600c54610213906001600160a01b031681565b600b54610213906001600160a01b031681565b61024361032f366004613143565b610c41565b600354610213906001600160a01b031681565b610243610d8d565b610357610e60565b604051610227919061327a565b610243610e72565b610374610eae565b60405161022791906132ea565b61024361038f366004613173565b610f3c565b610243611171565b6102137f000000000000000000000000000000000000000000000000000000000000000081565b600254610213906001600160a01b031681565b61027560055481565b6102436103ed366004612fa4565b61119b565b610243610400366004612fa4565b6114b1565b61027561167a565b61024361041b366004612fa4565b611989565b610275611ba8565b600a54610213906001600160a01b031681565b600154610213906001600160a01b031681565b600e54610213906001600160a01b031681565b6001546001600160a01b0316610213565b610374604051806040016040528060058152602001640342e302e360dc1b81525081565b7f00000000000000000000000000000000000000000000000000000000000000006001600160a01b0316630c340a246040518163ffffffff1660e01b815260040160206040518083038186803b1580156104ef57600080fd5b505afa158015610503573d6000803e3d6000fd5b505050506040513d601f19601f820116820180604052508101906105279190612fc0565b6001600160a01b0316336001600160a01b0316146105605760405162461bcd60e51b81526004016105579061334d565b60405180910390fd5b61056b600782611bd0565b6105ae5760405162461bcd60e51b81526020600482015260146024820152731c995b5bdd994b5ad9595c195c8b59985a5b195960621b6044820152606401610557565b50565b7f00000000000000000000000000000000000000000000000000000000000000006001600160a01b0316630c340a246040518163ffffffff1660e01b815260040160206040518083038186803b15801561060a57600080fd5b505afa15801561061e573d6000803e3d6000fd5b505050506040513d601f19601f820116820180604052508101906106429190612fc0565b6001600160a01b0316336001600160a01b0316146106725760405162461bcd60e51b81526004016105579061334d565b6001600160a01b0381166106c85760405162461bcd60e51b815260206004820152601860248201527f70726f76696465722d616464726573732d69732d7a65726f00000000000000006044820152606401610557565b600d546001600160a01b03828116911614156107265760405162461bcd60e51b815260206004820152601760248201527f73616d652d6164647265737365732d70726f76696465720000000000000000006044820152606401610557565b600d54604080516001600160a01b03928316815291831660208301527fbea7427e7cdf11a91902e5dff8bf8ac6fe4861aa0940763e8fd78bb6f45798de910160405180910390a1600d80546001600160a01b0319166001600160a01b03831690811790915560408051630261bf8b60e01b81529051630261bf8b91600480820192602092909190829003018186803b1580156107c157600080fd5b505afa1580156107d5573d6000803e3d6000fd5b505050506040513d601f19601f820116820180604052508101906107f99190612fc0565b600a80546001600160a01b0319166001600160a01b03928316179055600d546040516321f8a72160e01b8152600160f81b60048201529116906321f8a7219060240160206040518083038186803b15801561085357600080fd5b505afa158015610867573d6000803e3d6000fd5b505050506040513d601f19601f8201168201806040525081019061088b9190612fc0565b600b80546001600160a01b0319166001600160a01b039290921691909117905550565b337f00000000000000000000000000000000000000000000000000000000000000006001600160a01b0316146109225760405162461bcd60e51b815260206004820152601960248201527818d85b1b195c8b5a5ccb5b9bdd0b5d995cdc195c8b5c1bdbdb603a1b6044820152606401610557565b6105ae81611be5565b7f00000000000000000000000000000000000000000000000000000000000000006001600160a01b0316630c340a246040518163ffffffff1660e01b815260040160206040518083038186803b15801561098457600080fd5b505afa158015610998573d6000803e3d6000fd5b505050506040513d601f19601f820116820180604052508101906109bc9190612fc0565b6001600160a01b0316336001600160a01b0316146109ec5760405162461bcd60e51b81526004016105579061334d565b6109f7600782611bb2565b6105ae5760405162461bcd60e51b81526020600482015260116024820152701859190b5ad9595c195c8b59985a5b1959607a1b6044820152606401610557565b60007f00000000000000000000000000000000000000000000000000000000000000006001600160a01b0316826001600160a01b03161480610a865750600e546001600160a01b038381169116145b90505b919050565b7f00000000000000000000000000000000000000000000000000000000000000006001600160a01b0316630c340a246040518163ffffffff1660e01b815260040160206040518083038186803b158015610ae757600080fd5b505afa158015610afb573d6000803e3d6000fd5b505050506040513d601f19601f82011682018060405250810190610b1f9190612fc0565b6001600160a01b0316336001600160a01b031614610b4f5760405162461bcd60e51b81526004016105579061334d565b6001600160a01b038116610b9a5760405162461bcd60e51b8152602060048201526012602482015271736d2d616464726573732d69732d7a65726f60701b6044820152606401610557565b6003546001600160a01b0382811691161415610be55760405162461bcd60e51b815260206004820152600a602482015269736d2d69732d73616d6560b01b6044820152606401610557565b6003546040516001600160a01b038084169216907f2d19927e7cac08ceb98b38898a4fdff6da6a27295b9a2d62fe250408ebe044e190600090a3600380546001600160a01b0319166001600160a01b0392909216919091179055565b7f00000000000000000000000000000000000000000000000000000000000000006001600160a01b0316630c340a246040518163ffffffff1660e01b815260040160206040518083038186803b158015610c9a57600080fd5b505afa158015610cae573d6000803e3d6000fd5b505050506040513d601f19601f82011682018060405250810190610cd29190612fc0565b6001600160a01b0316336001600160a01b031614610d025760405162461bcd60e51b81526004016105579061334d565b612710811115610d4d5760405162461bcd60e51b8152602060048201526016602482015275696e76616c69642d736c6970706167652d76616c756560501b6044820152606401610557565b60065460408051918252602082018390527ef1c5db862c7598b3b6765552ca951f498611e06412c2d57f8d0b58f82e7f82910160405180910390a1600655565b610d9a335b600790611c0f565b610db65760405162461bcd60e51b81526004016105579061331d565b6000806000610dc3611c31565b6040516302df682360e11b815260048101849052602481018390526044810182905292955090935091506001600160a01b037f000000000000000000000000000000000000000000000000000000000000000016906305bed04690606401600060405180830381600087803b158015610e3b57600080fd5b505af1158015610e4f573d6000803e3d6000fd5b50505050610e5b611d98565b505050565b6060610e6c6007611e38565b90505b90565b610e7b33610d92565b610e975760405162461bcd60e51b81526004016105579061331d565b610ea16000611e4c565b610eac600019611e4c565b565b60098054610ebb90613474565b80601f0160208091040260200160405190810160405280929190818152602001828054610ee790613474565b8015610f345780601f10610f0957610100808354040283529160200191610f34565b820191906000526020600020905b815481529060010190602001808311610f1757829003601f168201915b505050505081565b7f00000000000000000000000000000000000000000000000000000000000000006001600160a01b0316630c340a246040518163ffffffff1660e01b815260040160206040518083038186803b158015610f9557600080fd5b505afa158015610fa9573d6000803e3d6000fd5b505050506040513d601f19601f82011682018060405250810190610fcd9190612fc0565b6001600160a01b0316336001600160a01b031614610ffd5760405162461bcd60e51b81526004016105579061334d565b600360009054906101000a90046001600160a01b03166001600160a01b031663c2fba6676040518163ffffffff1660e01b815260040160206040518083038186803b15801561104b57600080fd5b505afa15801561105f573d6000803e3d6000fd5b505050506040513d601f19601f82011682018060405250810190611083919061315b565b81106110c85760405162461bcd60e51b81526020600482015260146024820152730d2dcecc2d8d2c85ae4deeae8cae45ad2dcc8caf60631b6044820152606401610557565b816110d35760045491505b603b821161111b5760405162461bcd60e51b81526020600482015260156024820152741a5b9d985b1a590b5bdc9858db194b5c195c9a5bd9605a1b6044820152606401610557565b6004546005546040805192835260208301859052820152606081018290527f83bc5ab8030537fcf1d29c2334f6d22c26c82dcbe5ff03923d2cff5c692c0a7f9060800160405180910390a1600491909155600555565b61117a33610d92565b6111965760405162461bcd60e51b81526004016105579061331d565b610eac565b337f00000000000000000000000000000000000000000000000000000000000000006001600160a01b03161461120f5760405162461bcd60e51b815260206004820152601960248201527818d85b1b195c8b5a5ccb5b9bdd0b5d995cdc195c8b5c1bdbdb603a1b6044820152606401610557565b6001600160a01b0381166112655760405162461bcd60e51b815260206004820152601c60248201527f6e65772d73747261746567792d616464726573732d69732d7a65726f000000006044820152606401610557565b7f00000000000000000000000000000000000000000000000000000000000000006001600160a01b0316816001600160a01b03166316f0115b6040518163ffffffff1660e01b815260040160206040518083038186803b1580156112c857600080fd5b505afa1580156112dc573d6000803e3d6000fd5b505050506040513d601f19601f820116820180604052508101906113009190612fc0565b6001600160a01b03161461134f5760405162461bcd60e51b81526020600482015260166024820152756e6f742d76616c69642d6e65772d737472617465677960501b6044820152606401610557565b6001546040516370a0823160e01b81523060048201526113e39183916001600160a01b03909116906370a082319060240160206040518083038186803b15801561139857600080fd5b505afa1580156113ac573d6000803e3d6000fd5b505050506040513d601f19601f820116820180604052508101906113d0919061315b565b6001546001600160a01b0316919061200d565b6040516370a0823160e01b81523060048201526105ae9082906001600160a01b037f000000000000000000000000000000000000000000000000000000000000000016906370a082319060240160206040518083038186803b15801561144857600080fd5b505afa15801561145c573d6000803e3d6000fd5b505050506040513d601f19601f82011682018060405250810190611480919061315b565b6001600160a01b037f000000000000000000000000000000000000000000000000000000000000000016919061200d565b7f00000000000000000000000000000000000000000000000000000000000000006001600160a01b0316630c340a246040518163ffffffff1660e01b815260040160206040518083038186803b15801561150a57600080fd5b505afa15801561151e573d6000803e3d6000fd5b505050506040513d601f19601f820116820180604052508101906115429190612fc0565b6001600160a01b0316336001600160a01b0316146115725760405162461bcd60e51b81526004016105579061334d565b6001600160a01b0381166115c85760405162461bcd60e51b815260206004820152601d60248201527f6665652d636f6c6c6563746f722d616464726573732d69732d7a65726f0000006044820152606401610557565b6002546001600160a01b038281169116141561161e5760405162461bcd60e51b81526020600482015260156024820152746665652d636f6c6c6563746f722d69732d73616d6560581b6044820152606401610557565b6002546040516001600160a01b038084169216907f0f06062680f9bd68e786e9980d9bb03d73d5620fc3b345e417b6eacb310b970690600090a3600280546001600160a01b0319166001600160a01b0392909216919091179055565b600c546000906001600160a01b031661172b576040516370a0823160e01b81523060048201527f00000000000000000000000000000000000000000000000000000000000000006001600160a01b0316906370a082319060240160206040518083038186803b1580156116ec57600080fd5b505afa158015611700573d6000803e3d6000fd5b505050506040513d601f19601f82011682018060405250810190611724919061315b565b9050610e6f565b604080516001808252818301909252600091602080830190803683370190505090507f00000000000000000000000000000000000000000000000000000000000000008160008151811061178f57634e487b7160e01b600052603260045260246000fd5b6001600160a01b039283166020918202929092010152600c546040516345accf9360e11b81526000929190911690638b599f26906117d3908590309060040161328d565b60206040518083038186803b1580156117eb57600080fd5b505afa1580156117ff573d6000803e3d6000fd5b505050506040513d601f19601f82011682018060405250810190611823919061315b565b600354600e54604051631d1f307960e31b81526001600160a01b0391821660048201527f0000000000000000000000000000000000000000000000000000000000000000821660248201526044810184905292935060009291169063e8f983c89060640160006040518083038186803b15801561189f57600080fd5b505afa1580156118b3573d6000803e3d6000fd5b505050506040513d6000823e601f3d908101601f191682016040526118db9190810190612fdc565b506040516370a0823160e01b81523060048201529092507f00000000000000000000000000000000000000000000000000000000000000006001600160a01b031691506370a082319060240160206040518083038186803b15801561193f57600080fd5b505afa158015611953573d6000803e3d6000fd5b505050506040513d601f19601f82011682018060405250810190611977919061315b565b6119819082613415565b935050505090565b61199233610d92565b6119ae5760405162461bcd60e51b81526004016105579061331d565b6002546001600160a01b03166119fe5760405162461bcd60e51b81526020600482015260156024820152741999594b58dbdb1b1958dd1bdc8b5b9bdd0b5cd95d605a1b6044820152606401610557565b7f00000000000000000000000000000000000000000000000000000000000000006001600160a01b0316816001600160a01b03161415611a805760405162461bcd60e51b815260206004820152601f60248201527f6e6f742d616c6c6f7765642d746f2d73776565702d636f6c6c61746572616c006044820152606401610557565b611a8981610a37565b15611acd5760405162461bcd60e51b815260206004820152601460248201527306e6f742d616c6c6f7765642d746f2d73776565760641b6044820152606401610557565b6001600160a01b03811673eeeeeeeeeeeeeeeeeeeeeeeeeeeeeeeeeeeeeeee1415611b0d57600254611b08906001600160a01b031647612070565b6105ae565b6040516370a0823160e01b81523060048201526000906001600160a01b038316906370a082319060240160206040518083038186803b158015611b4f57600080fd5b505afa158015611b63573d6000803e3d6000fd5b505050506040513d601f19601f82011682018060405250810190611b87919061315b565b600254909150611ba4906001600160a01b0384811691168361200d565b5050565b6000610e6c61167a565b6000611bc7836001600160a01b038416612189565b90505b92915050565b6000611bc7836001600160a01b0384166121d8565b611ba47f0000000000000000000000000000000000000000000000000000000000000000826122f5565b6001600160a01b03811660009081526001830160205260408120541515611bc7565b604051636a9eee1360e11b81523060048201526000908190819081906001600160a01b037f0000000000000000000000000000000000000000000000000000000000000000169063d53ddc269060240160206040518083038186803b158015611c9957600080fd5b505afa158015611cad573d6000803e3d6000fd5b505050506040513d601f19601f82011682018060405250810190611cd1919061315b565b604051639f2b283360e01b81523060048201529091506000906001600160a01b037f00000000000000000000000000000000000000000000000000000000000000001690639f2b28339060240160206040518083038186803b158015611d3657600080fd5b505afa158015611d4a573d6000803e3d6000fd5b505050506040513d601f19601f82011682018060405250810190611d6e919061315b565b9050611d7981612465565b9450611d84816125db565b9350611d8f82612691565b92505050909192565b6040516370a0823160e01b8152306004820152610eac907f00000000000000000000000000000000000000000000000000000000000000006001600160a01b0316906370a082319060240160206040518083038186803b158015611dfb57600080fd5b505afa158015611e0f573d6000803e3d6000fd5b505050506040513d601f19601f82011682018060405250810190611e33919061315b565b6126a3565b60606000611e458361273f565b9392505050565b611ea06001600160a01b037f0000000000000000000000000000000000000000000000000000000000000000167f00000000000000000000000000000000000000000000000000000000000000008361279b565b600a54611eda906001600160a01b037f0000000000000000000000000000000000000000000000000000000000000000811691168361279b565b60005b600360009054906101000a90046001600160a01b03166001600160a01b031663c2fba6676040518163ffffffff1660e01b815260040160206040518083038186803b158015611f2b57600080fd5b505afa158015611f3f573d6000803e3d6000fd5b505050506040513d601f19601f82011682018060405250810190611f63919061315b565b811015611ba457600354604051636e74a6f760e01b815260048101839052611ffb916001600160a01b031690636e74a6f79060240160206040518083038186803b158015611fb057600080fd5b505afa158015611fc4573d6000803e3d6000fd5b505050506040513d601f19601f82011682018060405250810190611fe89190612fc0565b600e546001600160a01b0316908461279b565b80612005816134a9565b915050611edd565b6040516001600160a01b038316602482015260448101829052610e5b90849063a9059cbb60e01b906064015b60408051601f198184030181529190526020810180516001600160e01b03166001600160e01b0319909316929092179091526128bf565b804710156120c05760405162461bcd60e51b815260206004820152601d60248201527f416464726573733a20696e73756666696369656e742062616c616e63650000006044820152606401610557565b6000826001600160a01b03168260405160006040518083038185875af1925050503d806000811461210d576040519150601f19603f3d011682016040523d82523d6000602084013e612112565b606091505b5050905080610e5b5760405162461bcd60e51b815260206004820152603a60248201527f416464726573733a20756e61626c6520746f2073656e642076616c75652c207260448201527f6563697069656e74206d617920686176652072657665727465640000000000006064820152608401610557565b60008181526001830160205260408120546121d057508154600181810184556000848152602080822090930184905584548482528286019093526040902091909155611bca565b506000611bca565b600081815260018301602052604081205480156122eb5760006121fc60018361342d565b85549091506000906122109060019061342d565b905081811461229157600086600001828154811061223e57634e487b7160e01b600052603260045260246000fd5b906000526020600020015490508087600001848154811061226f57634e487b7160e01b600052603260045260246000fd5b6000918252602080832090910192909255918252600188019052604090208390555b85548690806122b057634e487b7160e01b600052603160045260246000fd5b600190038181906000526020600020016000905590558560010160008681526020019081526020016000206000905560019350505050611bca565b6000915050611bca565b6040516370a0823160e01b815230600482015260009081906001600160a01b037f000000000000000000000000000000000000000000000000000000000000000016906370a082319060240160206040518083038186803b15801561235957600080fd5b505afa15801561236d573d6000803e3d6000fd5b505050506040513d601f19601f82011682018060405250810190612391919061315b565b600b546040516335ea6a7560e01b81526001600160a01b037f000000000000000000000000000000000000000000000000000000000000000081166004830152929350600092909116906335ea6a75906024016101406040518083038186803b1580156123fd57600080fd5b505afa158015612411573d6000803e3d6000fd5b505050506040513d601f19601f820116820180604052508101906124359190613194565b505050505050505050905061245c85612457866124528686612991565b612991565b6129a7565b95945050505050565b60006124907f0000000000000000000000000000000000000000000000000000000000000000612aaa565b6040516370a0823160e01b81523060048201526000907f00000000000000000000000000000000000000000000000000000000000000006001600160a01b0316906370a082319060240160206040518083038186803b1580156124f257600080fd5b505afa158015612506573d6000803e3d6000fd5b505050506040513d601f19601f8201168201806040525081019061252a919061315b565b9050828111156125445761254230612457858461342d565b505b6040516370a0823160e01b81523060048201527f00000000000000000000000000000000000000000000000000000000000000006001600160a01b0316906370a082319060240160206040518083038186803b1580156125a357600080fd5b505afa1580156125b7573d6000803e3d6000fd5b505050506040513d601f19601f82011682018060405250810190611e45919061315b565b6040516370a0823160e01b815230600482015260009081906001600160a01b037f000000000000000000000000000000000000000000000000000000000000000016906370a082319060240160206040518083038186803b15801561263f57600080fd5b505afa158015612653573d6000803e3d6000fd5b505050506040513d601f19601f82011682018060405250810190612677919061315b565b90508281101561268b57611e45818461342d565b50919050565b60008115610a8957610a8630836122f5565b80156105ae57600a5460405163e8eda9df60e01b81526001600160a01b037f00000000000000000000000000000000000000000000000000000000000000008116600483015260248201849052306044830152600060648301529091169063e8eda9df90608401600060405180830381600087803b15801561272457600080fd5b505af1158015612738573d6000803e3d6000fd5b5050505050565b60608160000180548060200260200160405190810160405280929190818152602001828054801561278f57602002820191906000526020600020905b81548152602001906001019080831161277b575b50505050509050919050565b8015806128245750604051636eb1769f60e11b81523060048201526001600160a01b03838116602483015284169063dd62ed3e9060440160206040518083038186803b1580156127ea57600080fd5b505afa1580156127fe573d6000803e3d6000fd5b505050506040513d601f19601f82011682018060405250810190612822919061315b565b155b61288f5760405162461bcd60e51b815260206004820152603660248201527f5361666545524332303a20617070726f76652066726f6d206e6f6e2d7a65726f60448201527520746f206e6f6e2d7a65726f20616c6c6f77616e636560501b6064820152608401610557565b6040516001600160a01b038316602482015260448101829052610e5b90849063095ea7b360e01b90606401612039565b6000612914826040518060400160405280602081526020017f5361666545524332303a206c6f772d6c6576656c2063616c6c206661696c6564815250856001600160a01b0316612ad59092919063ffffffff16565b805190915015610e5b57808060200190518101906129329190613123565b610e5b5760405162461bcd60e51b815260206004820152602a60248201527f5361666545524332303a204552433230206f7065726174696f6e20646964206e6044820152691bdd081cdd58d8d9595960b21b6064820152608401610557565b60008183106129a05781611bc7565b5090919050565b6000811561268b57600a54604051631a4ca37b60e21b81526001600160a01b037f000000000000000000000000000000000000000000000000000000000000000081166004830152602482018590528581166044830152849216906369328dec90606401602060405180830381600087803b158015612a2557600080fd5b505af1158015612a39573d6000803e3d6000fd5b505050506040513d601f19601f82011682018060405250810190612a5d919061315b565b1461268b5760405162461bcd60e51b815260206004820152601f60248201527f77697468647261776e2d616d6f756e742d69732d6e6f742d636f7272656374006044820152606401610557565b6000612ab4612aec565b90508015611ba457600e54611ba4906001600160a01b031683836001612c82565b6060612ae48484600085612e43565b949350505050565b600c546000906001600160a01b0316612b0757506000610e6f565b604080516001808252818301909252600091602080830190803683370190505090507f000000000000000000000000000000000000000000000000000000000000000081600081518110612b6b57634e487b7160e01b600052603260045260246000fd5b6001600160a01b039283166020918202929092010152600c54604051633111e7b360e01b8152911690633111e7b390612bae9084906000199030906004016132b7565b602060405180830381600087803b158015612bc857600080fd5b505af1158015612bdc573d6000803e3d6000fd5b505050506040513d601f19601f82011682018060405250810190612c00919061315b565b50600e546040516370a0823160e01b81523060048201526001600160a01b03909116906370a082319060240160206040518083038186803b158015612c4457600080fd5b505afa158015612c58573d6000803e3d6000fd5b505050506040513d601f19601f82011682018060405250810190612c7c919061315b565b91505090565b600354604051631d1f307960e31b81526001600160a01b038681166004830152858116602483015260448201859052600092839283929091169063e8f983c89060640160006040518083038186803b158015612cdd57600080fd5b505afa158015612cf1573d6000803e3d6000fd5b505050506040513d6000823e601f3d908101601f19168201604052612d199190810190612fdc565b9250925092508360001415612d2d57600193505b8115612e3a57600354604051636e74a6f760e01b8152600481018390526001600160a01b0390911690636e74a6f79060240160206040518083038186803b158015612d7757600080fd5b505afa158015612d8b573d6000803e3d6000fd5b505050506040513d601f19601f82011682018060405250810190612daf9190612fc0565b6001600160a01b03166338ed173986868630426040518663ffffffff1660e01b8152600401612de2959493929190613384565b600060405180830381600087803b158015612dfc57600080fd5b505af1158015612e10573d6000803e3d6000fd5b505050506040513d6000823e601f3d908101601f19168201604052612e389190810190613090565b505b50505050505050565b606082471015612ea45760405162461bcd60e51b815260206004820152602660248201527f416464726573733a20696e73756666696369656e742062616c616e636520666f6044820152651c8818d85b1b60d21b6064820152608401610557565b843b612ef25760405162461bcd60e51b815260206004820152601d60248201527f416464726573733a2063616c6c20746f206e6f6e2d636f6e74726163740000006044820152606401610557565b600080866001600160a01b03168587604051612f0e919061325e565b60006040518083038185875af1925050503d8060008114612f4b576040519150601f19603f3d011682016040523d82523d6000602084013e612f50565b606091505b5091509150612f60828286612f6b565b979650505050505050565b60608315612f7a575081611e45565b825115612f8a5782518084602001fd5b8160405162461bcd60e51b815260040161055791906132ea565b600060208284031215612fb5578081fd5b8135611e45816134f0565b600060208284031215612fd1578081fd5b8151611e45816134f0565b600080600060608486031215612ff0578182fd5b835167ffffffffffffffff811115613006578283fd5b8401601f81018613613016578283fd5b8051602061302b613026836133f1565b6133c0565b8083825282820191508285018a848660051b880101111561304a578788fd5b8795505b84861015613075578051613061816134f0565b83526001959095019491830191830161304e565b50918801516040909801519199979850909695505050505050565b600060208083850312156130a2578182fd5b825167ffffffffffffffff8111156130b8578283fd5b8301601f810185136130c8578283fd5b80516130d6613026826133f1565b80828252848201915084840188868560051b87010111156130f5578687fd5b8694505b838510156131175780518352600194909401939185019185016130f9565b50979650505050505050565b600060208284031215613134578081fd5b81518015158114611e45578182fd5b600060208284031215613154578081fd5b5035919050565b60006020828403121561316c578081fd5b5051919050565b60008060408385031215613185578182fd5b50508035926020909101359150565b6000806000806000806000806000806101408b8d0312156131b3578586fd5b8a51995060208b0151985060408b0151975060608b0151965060808b0151955060a08b0151945060c08b0151935060e08b015192506101008b015191506101208b015164ffffffffff81168114613208578182fd5b809150509295989b9194979a5092959850565b6000815180845260208085019450808401835b838110156132535781516001600160a01b03168752958201959082019060010161322e565b509495945050505050565b60008251613270818460208701613444565b9190910192915050565b600060208252611bc7602083018461321b565b6000604082526132a0604083018561321b565b905060018060a01b03831660208301529392505050565b6000606082526132ca606083018661321b565b6020830194909452506001600160a01b0391909116604090910152919050565b6000602082528251806020840152613309816040850160208701613444565b601f01601f19169190910160400192915050565b60208082526016908201527531b0b63632b916b4b996b737ba16b096b5b2b2b832b960511b604082015260600190565b6020808252601a908201527f63616c6c65722d69732d6e6f742d7468652d676f7665726e6f72000000000000604082015260600190565b600086825285602083015260a060408301526133a360a083018661321b565b6001600160a01b0394909416606083015250608001529392505050565b604051601f8201601f1916810167ffffffffffffffff811182821017156133e9576133e96134da565b604052919050565b600067ffffffffffffffff82111561340b5761340b6134da565b5060051b60200190565b60008219821115613428576134286134c4565b500190565b60008282101561343f5761343f6134c4565b500390565b60005b8381101561345f578181015183820152602001613447565b8381111561346e576000848401525b50505050565b600181811c9082168061348857607f821691505b6020821081141561268b57634e487b7160e01b600052602260045260246000fd5b60006000198214156134bd576134bd6134c4565b5060010190565b634e487b7160e01b600052601160045260246000fd5b634e487b7160e01b600052604160045260246000fd5b6001600160a01b03811681146105ae57600080fdfea2646970667358221220436ba6194ef9b3f3bddb37bffce84ebe45fbd4a55590a08361c74fda3ed36deb64736f6c63430008030033",
  "devdoc": {
    "details": "This strategy will deposit collateral token in Aave and earn interest.",
    "kind": "dev",
    "methods": {
      "addKeeper(address)": {
        "params": {
          "_keeperAddress": "keeper address to add."
        }
      },
      "approveToken()": {
        "details": "Approve all required tokens"
      },
      "migrate(address)": {
        "details": "_beforeMigration hook can be implemented in child strategy to do extra steps.",
        "params": {
          "_newStrategy": "Address of new strategy"
        }
      },
      "rebalance()": {
        "details": "Rebalance profit, loss and investment of this strategy"
      },
      "removeKeeper(address)": {
        "params": {
          "_keeperAddress": "keeper address to remove."
        }
      },
      "sweepERC20(address)": {
        "details": "sweep given token to feeCollector of strategy",
        "params": {
          "_fromToken": "token address to sweep"
        }
      },
      "totalValue()": {
        "details": "aToken and collateral are 1:1"
      },
      "totalValueCurrent()": {
        "details": "Report total value in collateral token"
      },
      "updateAddressesProvider(address)": {
        "details": "We will use new address to fetch lendingPool address and update that too."
      },
      "updateFeeCollector(address)": {
        "params": {
          "_feeCollector": "fee collector address"
        }
      },
      "updateSwapManager(address)": {
        "params": {
          "_swapManager": "swap manager address"
        }
      },
      "withdraw(uint256)": {
        "details": "Withdraw collateral token from lending pool.",
        "params": {
          "_amount": "Amount of collateral token"
        }
      }
    },
    "version": 1
  },
  "userdoc": {
    "kind": "user",
    "methods": {
      "addKeeper(address)": {
        "notice": "Add given address in keepers list."
      },
      "isReservedToken(address)": {
        "notice": "Check whether given token is reserved or not. Reserved tokens are not allowed to sweep."
      },
      "keepers()": {
        "notice": "Return list of keepers"
      },
      "migrate(address)": {
        "notice": "Migrate all asset and vault ownership,if any, to new strategy"
      },
      "removeKeeper(address)": {
        "notice": "Remove given address from keepers list."
      },
      "token()": {
        "notice": "Returns address of token correspond to collateral token"
      },
      "totalValue()": {
        "notice": "Report total value"
      },
      "totalValueCurrent()": {
        "notice": "Calculate total value of asset under management (in real-time)"
      },
      "updateAddressesProvider(address)": {
        "notice": "Update address of Aave LendingPoolAddressesProvider"
      },
      "updateFeeCollector(address)": {
        "notice": "Update fee collector"
      },
      "updateSwapManager(address)": {
        "notice": "Update swap manager address"
      }
    },
    "version": 1
  },
  "storageLayout": {
    "storage": [
      {
        "astId": 14795,
        "contract": "contracts/strategies/aave/AaveStrategyAvalanche.sol:AaveStrategyAvalanche",
        "label": "WETH",
        "offset": 0,
        "slot": "0",
        "type": "t_address"
      },
      {
        "astId": 14800,
        "contract": "contracts/strategies/aave/AaveStrategyAvalanche.sol:AaveStrategyAvalanche",
        "label": "receiptToken",
        "offset": 0,
        "slot": "1",
        "type": "t_address"
      },
      {
        "astId": 14806,
        "contract": "contracts/strategies/aave/AaveStrategyAvalanche.sol:AaveStrategyAvalanche",
        "label": "feeCollector",
        "offset": 0,
        "slot": "2",
        "type": "t_address"
      },
      {
        "astId": 14809,
        "contract": "contracts/strategies/aave/AaveStrategyAvalanche.sol:AaveStrategyAvalanche",
        "label": "swapManager",
        "offset": 0,
        "slot": "3",
        "type": "t_contract(ISwapManager)5259"
      },
      {
        "astId": 14812,
        "contract": "contracts/strategies/aave/AaveStrategyAvalanche.sol:AaveStrategyAvalanche",
        "label": "oraclePeriod",
        "offset": 0,
        "slot": "4",
        "type": "t_uint256"
      },
      {
        "astId": 14815,
        "contract": "contracts/strategies/aave/AaveStrategyAvalanche.sol:AaveStrategyAvalanche",
        "label": "oracleRouterIdx",
        "offset": 0,
        "slot": "5",
        "type": "t_uint256"
      },
      {
        "astId": 14818,
        "contract": "contracts/strategies/aave/AaveStrategyAvalanche.sol:AaveStrategyAvalanche",
        "label": "swapSlippage",
        "offset": 0,
        "slot": "6",
        "type": "t_uint256"
      },
      {
        "astId": 14821,
        "contract": "contracts/strategies/aave/AaveStrategyAvalanche.sol:AaveStrategyAvalanche",
        "label": "_keepers",
        "offset": 0,
        "slot": "7",
        "type": "t_struct(AddressSet)4299_storage"
      },
      {
        "astId": 17139,
        "contract": "contracts/strategies/aave/AaveStrategyAvalanche.sol:AaveStrategyAvalanche",
        "label": "NAME",
        "offset": 0,
        "slot": "9",
        "type": "t_string_storage"
      },
      {
        "astId": 17148,
        "contract": "contracts/strategies/aave/AaveStrategyAvalanche.sol:AaveStrategyAvalanche",
        "label": "aaveLendingPool",
        "offset": 0,
        "slot": "10",
        "type": "t_contract(AaveLendingPool)4677"
      },
      {
        "astId": 17151,
        "contract": "contracts/strategies/aave/AaveStrategyAvalanche.sol:AaveStrategyAvalanche",
        "label": "aaveProtocolDataProvider",
        "offset": 0,
        "slot": "11",
        "type": "t_contract(AaveProtocolDataProvider)4714"
      },
      {
        "astId": 17154,
        "contract": "contracts/strategies/aave/AaveStrategyAvalanche.sol:AaveStrategyAvalanche",
        "label": "aaveIncentivesController",
        "offset": 0,
        "slot": "12",
        "type": "t_contract(AaveIncentivesController)4634"
      },
      {
        "astId": 17160,
        "contract": "contracts/strategies/aave/AaveStrategyAvalanche.sol:AaveStrategyAvalanche",
        "label": "aaveAddressesProvider",
        "offset": 0,
        "slot": "13",
        "type": "t_contract(AaveLendingPoolAddressesProvider)4602"
      },
      {
        "astId": 17163,
        "contract": "contracts/strategies/aave/AaveStrategyAvalanche.sol:AaveStrategyAvalanche",
        "label": "rewardToken",
        "offset": 0,
        "slot": "14",
        "type": "t_address"
      }
    ],
    "types": {
      "t_address": {
        "encoding": "inplace",
        "label": "address",
        "numberOfBytes": "20"
      },
      "t_array(t_bytes32)dyn_storage": {
        "base": "t_bytes32",
        "encoding": "dynamic_array",
        "label": "bytes32[]",
        "numberOfBytes": "32"
      },
      "t_bytes32": {
        "encoding": "inplace",
        "label": "bytes32",
        "numberOfBytes": "32"
      },
      "t_contract(AaveIncentivesController)4634": {
        "encoding": "inplace",
        "label": "contract AaveIncentivesController",
        "numberOfBytes": "20"
      },
      "t_contract(AaveLendingPool)4677": {
        "encoding": "inplace",
        "label": "contract AaveLendingPool",
        "numberOfBytes": "20"
      },
      "t_contract(AaveLendingPoolAddressesProvider)4602": {
        "encoding": "inplace",
        "label": "contract AaveLendingPoolAddressesProvider",
        "numberOfBytes": "20"
      },
      "t_contract(AaveProtocolDataProvider)4714": {
        "encoding": "inplace",
        "label": "contract AaveProtocolDataProvider",
        "numberOfBytes": "20"
      },
      "t_contract(ISwapManager)5259": {
        "encoding": "inplace",
        "label": "contract ISwapManager",
        "numberOfBytes": "20"
      },
      "t_mapping(t_bytes32,t_uint256)": {
        "encoding": "mapping",
        "key": "t_bytes32",
        "label": "mapping(bytes32 => uint256)",
        "numberOfBytes": "32",
        "value": "t_uint256"
      },
      "t_string_storage": {
        "encoding": "bytes",
        "label": "string",
        "numberOfBytes": "32"
      },
      "t_struct(AddressSet)4299_storage": {
        "encoding": "inplace",
        "label": "struct EnumerableSet.AddressSet",
        "members": [
          {
            "astId": 4298,
            "contract": "contracts/strategies/aave/AaveStrategyAvalanche.sol:AaveStrategyAvalanche",
            "label": "_inner",
            "offset": 0,
            "slot": "0",
            "type": "t_struct(Set)3998_storage"
          }
        ],
        "numberOfBytes": "64"
      },
      "t_struct(Set)3998_storage": {
        "encoding": "inplace",
        "label": "struct EnumerableSet.Set",
        "members": [
          {
            "astId": 3993,
            "contract": "contracts/strategies/aave/AaveStrategyAvalanche.sol:AaveStrategyAvalanche",
            "label": "_values",
            "offset": 0,
            "slot": "0",
            "type": "t_array(t_bytes32)dyn_storage"
          },
          {
            "astId": 3997,
            "contract": "contracts/strategies/aave/AaveStrategyAvalanche.sol:AaveStrategyAvalanche",
            "label": "_indexes",
            "offset": 0,
            "slot": "1",
            "type": "t_mapping(t_bytes32,t_uint256)"
          }
        ],
        "numberOfBytes": "64"
      },
      "t_uint256": {
        "encoding": "inplace",
        "label": "uint256",
        "numberOfBytes": "32"
      }
    }
  }
}