{
  "address": "0x109749106926E097C3a7809392FFE6350cF6fc05",
  "abi": [
    {
      "inputs": [
        {
          "internalType": "address",
          "name": "_pool",
          "type": "address"
        },
        {
          "internalType": "address",
          "name": "_swapManager",
          "type": "address"
        },
        {
          "internalType": "address",
          "name": "_comptroller",
          "type": "address"
        },
        {
          "internalType": "address",
          "name": "_rewardDistributor",
          "type": "address"
        },
        {
          "internalType": "address",
          "name": "_rewardToken",
          "type": "address"
        },
        {
          "internalType": "address",
          "name": "_aaveAddressProvider",
          "type": "address"
        },
        {
          "internalType": "address",
          "name": "_receiptToken",
          "type": "address"
        },
        {
          "internalType": "string",
          "name": "_name",
          "type": "string"
        }
      ],
      "stateMutability": "nonpayable",
      "type": "constructor"
    },
    {
      "anonymous": false,
      "inputs": [
        {
          "indexed": false,
          "internalType": "uint256",
          "name": "previousMinBorrowRatio",
          "type": "uint256"
        },
        {
          "indexed": false,
          "internalType": "uint256",
          "name": "newMinBorrowRatio",
          "type": "uint256"
        },
        {
          "indexed": false,
          "internalType": "uint256",
          "name": "previousMaxBorrowRatio",
          "type": "uint256"
        },
        {
          "indexed": false,
          "internalType": "uint256",
          "name": "newMaxBorrowRatio",
          "type": "uint256"
        }
      ],
      "name": "UpdatedBorrowRatio",
      "type": "event"
    },
    {
      "anonymous": false,
      "inputs": [
        {
          "indexed": true,
          "internalType": "address",
          "name": "previousFeeCollector",
          "type": "address"
        },
        {
          "indexed": true,
          "internalType": "address",
          "name": "newFeeCollector",
          "type": "address"
        }
      ],
      "name": "UpdatedFeeCollector",
      "type": "event"
    },
    {
      "anonymous": false,
      "inputs": [
        {
          "indexed": false,
          "internalType": "uint256",
          "name": "oldPeriod",
          "type": "uint256"
        },
        {
          "indexed": false,
          "internalType": "uint256",
          "name": "newPeriod",
          "type": "uint256"
        },
        {
          "indexed": false,
          "internalType": "uint256",
          "name": "oldRouterIdx",
          "type": "uint256"
        },
        {
          "indexed": false,
          "internalType": "uint256",
          "name": "newRouterIdx",
          "type": "uint256"
        }
      ],
      "name": "UpdatedOracleConfig",
      "type": "event"
    },
    {
      "anonymous": false,
      "inputs": [
        {
          "indexed": true,
          "internalType": "address",
          "name": "previousSwapManager",
          "type": "address"
        },
        {
          "indexed": true,
          "internalType": "address",
          "name": "newSwapManager",
          "type": "address"
        }
      ],
      "name": "UpdatedSwapManager",
      "type": "event"
    },
    {
      "anonymous": false,
      "inputs": [
        {
          "indexed": false,
          "internalType": "uint256",
          "name": "oldSwapSlippage",
          "type": "uint256"
        },
        {
          "indexed": false,
          "internalType": "uint256",
          "name": "newSwapSlippage",
          "type": "uint256"
        }
      ],
      "name": "UpdatedSwapSlippage",
      "type": "event"
    },
    {
      "inputs": [],
      "name": "NAME",
      "outputs": [
        {
          "internalType": "string",
          "name": "",
          "type": "string"
        }
      ],
      "stateMutability": "view",
      "type": "function"
    },
    {
      "inputs": [],
      "name": "VERSION",
      "outputs": [
        {
          "internalType": "string",
          "name": "",
          "type": "string"
        }
      ],
      "stateMutability": "view",
      "type": "function"
    },
    {
      "inputs": [
        {
          "internalType": "address",
          "name": "_keeperAddress",
          "type": "address"
        }
      ],
      "name": "addKeeper",
      "outputs": [],
      "stateMutability": "nonpayable",
      "type": "function"
    },
    {
      "inputs": [],
      "name": "approveToken",
      "outputs": [],
      "stateMutability": "nonpayable",
      "type": "function"
    },
    {
      "inputs": [
        {
          "internalType": "address",
          "name": "_sender",
          "type": "address"
        },
        {
          "components": [
            {
              "internalType": "address",
              "name": "owner",
              "type": "address"
            },
            {
              "internalType": "uint256",
              "name": "number",
              "type": "uint256"
            }
          ],
          "internalType": "struct Account.Info",
          "name": "",
          "type": "tuple"
        },
        {
          "internalType": "bytes",
          "name": "_callData",
          "type": "bytes"
        }
      ],
      "name": "callFunction",
      "outputs": [],
      "stateMutability": "nonpayable",
      "type": "function"
    },
    {
      "inputs": [],
      "name": "collateralToken",
      "outputs": [
        {
          "internalType": "contract IERC20",
          "name": "",
          "type": "address"
        }
      ],
      "stateMutability": "view",
      "type": "function"
    },
    {
      "inputs": [],
      "name": "comptroller",
      "outputs": [
        {
          "internalType": "contract Comptroller",
          "name": "",
          "type": "address"
        }
      ],
      "stateMutability": "view",
      "type": "function"
    },
    {
      "inputs": [],
      "name": "currentBorrowRatio",
      "outputs": [
        {
          "internalType": "uint256",
          "name": "",
          "type": "uint256"
        }
      ],
      "stateMutability": "view",
      "type": "function"
    },
    {
      "inputs": [],
      "name": "dyDxMarketId",
      "outputs": [
        {
          "internalType": "uint256",
          "name": "",
          "type": "uint256"
        }
      ],
      "stateMutability": "view",
      "type": "function"
    },
    {
      "inputs": [
        {
          "internalType": "address[]",
          "name": "",
          "type": "address[]"
        },
        {
          "internalType": "uint256[]",
          "name": "_amounts",
          "type": "uint256[]"
        },
        {
          "internalType": "uint256[]",
          "name": "_premiums",
          "type": "uint256[]"
        },
        {
          "internalType": "address",
          "name": "_initiator",
          "type": "address"
        },
        {
          "internalType": "bytes",
          "name": "_data",
          "type": "bytes"
        }
      ],
      "name": "executeOperation",
      "outputs": [
        {
          "internalType": "bool",
          "name": "",
          "type": "bool"
        }
      ],
      "stateMutability": "nonpayable",
      "type": "function"
    },
    {
      "inputs": [],
      "name": "feeCollector",
      "outputs": [
        {
          "internalType": "address",
          "name": "",
          "type": "address"
        }
      ],
      "stateMutability": "view",
      "type": "function"
    },
    {
      "inputs": [],
      "name": "getPosition",
      "outputs": [
        {
          "internalType": "uint256",
          "name": "_supply",
          "type": "uint256"
        },
        {
          "internalType": "uint256",
          "name": "_borrow",
          "type": "uint256"
        }
      ],
      "stateMutability": "view",
      "type": "function"
    },
    {
      "inputs": [],
      "name": "isAaveActive",
      "outputs": [
        {
          "internalType": "bool",
          "name": "",
          "type": "bool"
        }
      ],
      "stateMutability": "view",
      "type": "function"
    },
    {
      "inputs": [],
      "name": "isDyDxActive",
      "outputs": [
        {
          "internalType": "bool",
          "name": "",
          "type": "bool"
        }
      ],
      "stateMutability": "view",
      "type": "function"
    },
    {
      "inputs": [],
      "name": "isLossMaking",
      "outputs": [
        {
          "internalType": "bool",
          "name": "",
          "type": "bool"
        }
      ],
      "stateMutability": "nonpayable",
      "type": "function"
    },
    {
      "inputs": [
        {
          "internalType": "address",
          "name": "_token",
          "type": "address"
        }
      ],
      "name": "isReservedToken",
      "outputs": [
        {
          "internalType": "bool",
          "name": "",
          "type": "bool"
        }
      ],
      "stateMutability": "view",
      "type": "function"
    },
    {
      "inputs": [],
      "name": "keepers",
      "outputs": [
        {
          "internalType": "address[]",
          "name": "",
          "type": "address[]"
        }
      ],
      "stateMutability": "view",
      "type": "function"
    },
    {
      "inputs": [],
      "name": "maxBorrowRatio",
      "outputs": [
        {
          "internalType": "uint256",
          "name": "",
          "type": "uint256"
        }
      ],
      "stateMutability": "view",
      "type": "function"
    },
    {
      "inputs": [
        {
          "internalType": "address",
          "name": "_newStrategy",
          "type": "address"
        }
      ],
      "name": "migrate",
      "outputs": [],
      "stateMutability": "nonpayable",
      "type": "function"
    },
    {
      "inputs": [],
      "name": "minBorrowRatio",
      "outputs": [
        {
          "internalType": "uint256",
          "name": "",
          "type": "uint256"
        }
      ],
      "stateMutability": "view",
      "type": "function"
    },
    {
      "inputs": [],
      "name": "oraclePeriod",
      "outputs": [
        {
          "internalType": "uint256",
          "name": "",
          "type": "uint256"
        }
      ],
      "stateMutability": "view",
      "type": "function"
    },
    {
      "inputs": [],
      "name": "oracleRouterIdx",
      "outputs": [
        {
          "internalType": "uint256",
          "name": "",
          "type": "uint256"
        }
      ],
      "stateMutability": "view",
      "type": "function"
    },
    {
      "inputs": [],
      "name": "pool",
      "outputs": [
        {
          "internalType": "address",
          "name": "",
          "type": "address"
        }
      ],
      "stateMutability": "view",
      "type": "function"
    },
    {
      "inputs": [],
      "name": "rebalance",
      "outputs": [],
      "stateMutability": "nonpayable",
      "type": "function"
    },
    {
      "inputs": [],
      "name": "receiptToken",
      "outputs": [
        {
          "internalType": "address",
          "name": "",
          "type": "address"
        }
      ],
      "stateMutability": "view",
      "type": "function"
    },
    {
      "inputs": [
        {
          "internalType": "address",
          "name": "_keeperAddress",
          "type": "address"
        }
      ],
      "name": "removeKeeper",
      "outputs": [],
      "stateMutability": "nonpayable",
      "type": "function"
    },
    {
      "inputs": [],
      "name": "rewardDistributor",
      "outputs": [
        {
          "internalType": "address",
          "name": "",
          "type": "address"
        }
      ],
      "stateMutability": "view",
      "type": "function"
    },
    {
      "inputs": [],
      "name": "rewardToken",
      "outputs": [
        {
          "internalType": "address",
          "name": "",
          "type": "address"
        }
      ],
      "stateMutability": "view",
      "type": "function"
    },
    {
      "inputs": [],
      "name": "setupOracles",
      "outputs": [],
      "stateMutability": "nonpayable",
      "type": "function"
    },
    {
      "inputs": [],
      "name": "swapManager",
      "outputs": [
        {
          "internalType": "contract ISwapManager",
          "name": "",
          "type": "address"
        }
      ],
      "stateMutability": "view",
      "type": "function"
    },
    {
      "inputs": [],
      "name": "swapSlippage",
      "outputs": [
        {
          "internalType": "uint256",
          "name": "",
          "type": "uint256"
        }
      ],
      "stateMutability": "view",
      "type": "function"
    },
    {
      "inputs": [
        {
          "internalType": "address",
          "name": "_fromToken",
          "type": "address"
        }
      ],
      "name": "sweepERC20",
      "outputs": [],
      "stateMutability": "nonpayable",
      "type": "function"
    },
    {
      "inputs": [],
      "name": "token",
      "outputs": [
        {
          "internalType": "address",
          "name": "",
          "type": "address"
        }
      ],
      "stateMutability": "view",
      "type": "function"
    },
    {
      "inputs": [],
      "name": "totalValue",
      "outputs": [
        {
          "internalType": "uint256",
          "name": "_totalValue",
          "type": "uint256"
        }
      ],
      "stateMutability": "view",
      "type": "function"
    },
    {
      "inputs": [],
      "name": "totalValueCurrent",
      "outputs": [
        {
          "internalType": "uint256",
          "name": "_totalValue",
          "type": "uint256"
        }
      ],
      "stateMutability": "nonpayable",
      "type": "function"
    },
    {
      "inputs": [
        {
          "internalType": "bool",
          "name": "_status",
          "type": "bool"
        }
      ],
      "name": "updateAaveStatus",
      "outputs": [],
      "stateMutability": "nonpayable",
      "type": "function"
    },
    {
      "inputs": [
        {
          "internalType": "uint256",
          "name": "_minBorrowRatio",
          "type": "uint256"
        },
        {
          "internalType": "uint256",
          "name": "_maxBorrowRatio",
          "type": "uint256"
        }
      ],
      "name": "updateBorrowRatio",
      "outputs": [],
      "stateMutability": "nonpayable",
      "type": "function"
    },
    {
      "inputs": [
        {
          "internalType": "bool",
          "name": "_status",
          "type": "bool"
        }
      ],
      "name": "updateDyDxStatus",
      "outputs": [],
      "stateMutability": "nonpayable",
      "type": "function"
    },
    {
      "inputs": [
        {
          "internalType": "address",
          "name": "_feeCollector",
          "type": "address"
        }
      ],
      "name": "updateFeeCollector",
      "outputs": [],
      "stateMutability": "nonpayable",
      "type": "function"
    },
    {
      "inputs": [
        {
          "internalType": "uint256",
          "name": "_newPeriod",
          "type": "uint256"
        },
        {
          "internalType": "uint256",
          "name": "_newRouterIdx",
          "type": "uint256"
        }
      ],
      "name": "updateOracleConfig",
      "outputs": [],
      "stateMutability": "nonpayable",
      "type": "function"
    },
    {
      "inputs": [
        {
          "internalType": "address",
          "name": "_swapManager",
          "type": "address"
        }
      ],
      "name": "updateSwapManager",
      "outputs": [],
      "stateMutability": "nonpayable",
      "type": "function"
    },
    {
      "inputs": [
        {
          "internalType": "uint256",
          "name": "_newSwapSlippage",
          "type": "uint256"
        }
      ],
      "name": "updateSwapSlippage",
      "outputs": [],
      "stateMutability": "nonpayable",
      "type": "function"
    },
    {
      "inputs": [
        {
          "internalType": "uint256",
          "name": "_amount",
          "type": "uint256"
        }
      ],
      "name": "withdraw",
      "outputs": [],
      "stateMutability": "nonpayable",
      "type": "function"
    },
    {
      "stateMutability": "payable",
      "type": "receive"
    }
  ],
  "transactionHash": "0x7aff0110553f0bfc8249344bd828a437bd06596939d934927633c04ed69d905c",
  "args": [
    "0xba3Fb2277c7b33D1C3E1b558cf8060bc7443b13d",
    "0xEbedFD259c9FB1F5c0ab9A9f24E79F8d80E29B23",
    "0x486Af39519B4Dc9a7fCcd318217352830E8AD9b4",
    "0x486Af39519B4Dc9a7fCcd318217352830E8AD9b4",
    "0x8729438EB15e2C8B576fCc6AeCdA6A148776C0F5",
    "0xb6A86025F0FE1862B372cb0ca18CE3EDe02A318f",
    "0xe194c4c5aC32a3C9ffDb358d9Bfd523a0B6d1568",
    "BenqiLeverageStrategyWBTC"
  ],
  "solcInputHash": "1bf2c795eb67eea9c3401d18d69ed854",
  "bytecode": "0x60e0604052600080546001600160a01b03191673c02aaa39b223fe8d0a0e5c4f27ead9083c756cc2178155610e10600455600555612710600655600b805462ffffff19169055611388600d55611770600e553480156200005e57600080fd5b50604051620064643803806200646483398101604081905262000081916200058b565b87878787878787878787878787878787828888846001600160a01b038316620000f15760405162461bcd60e51b815260206004820152601460248201527f706f6f6c2d616464726573732d69732d7a65726f00000000000000000000000060448201526064015b60405180910390fd5b6001600160a01b0382166200013e5760405162461bcd60e51b8152602060048201526012602482015271736d2d616464726573732d69732d7a65726f60701b6044820152606401620000e8565b600380546001600160a01b0319166001600160a01b0384811691909117909155606084901b6001600160601b03191660a05260408051637e062a3560e11b815290519185169163fc0c546a91600480820192602092909190829003018186803b158015620001ab57600080fd5b505afa158015620001c0573d6000803e3d6000fd5b505050506040513d601f19601f82011682018060405250810190620001e69190620006d9565b60601b6001600160601b031916608052600180546001600160a01b0319166001600160a01b038316179055620002336200021d3390565b60076200047360201b620021831790919060201c565b620002755760405162461bcd60e51b81526020600482015260116024820152701859190b5ad9595c195c8b59985a5b1959607a1b6044820152606401620000e8565b5050604080518082019091526002815261031360f41b602082015290506001600160a01b038216620002bc5760405162461bcd60e51b8152600401620000e89190620006ff565b50600980546001600160a01b0319166001600160a01b03929092169190911790558051620002f290600c906020840190620004e5565b506001600160a01b0386166200034b5760405162461bcd60e51b815260206004820152601b60248201527f636f6d7074726f6c6c65722d616464726573732d69732d7a65726f00000000006044820152606401620000e8565b606086901b6001600160601b03191660c052601080546001600160a01b0319166001600160a01b03868116919091179091558216620003cd5760405162461bcd60e51b815260206004820152601660248201527f63546f6b656e2d616464726573732d69732d7a65726f000000000000000000006044820152606401620000e8565b81600f60006101000a8154816001600160a01b0302191690836001600160a01b0316021790555084601160006101000a8154816001600160a01b0302191690836001600160a01b03160217905550505050505050505073b31f66aa3c1e785363f0875a1b74e27b85fd66c76000806101000a8154816001600160a01b0302191690836001600160a01b0316021790555050505050505050505050505050505050620007d3565b60006200048a836001600160a01b03841662000493565b90505b92915050565b6000818152600183016020526040812054620004dc575081546001818101845560008481526020808220909301849055845484825282860190935260409020919091556200048d565b5060006200048d565b828054620004f39062000767565b90600052602060002090601f01602090048101928262000517576000855562000562565b82601f106200053257805160ff191683800117855562000562565b8280016001018555821562000562579182015b828111156200056257825182559160200191906001019062000545565b506200057092915062000574565b5090565b5b8082111562000570576000815560010162000575565b600080600080600080600080610100898b031215620005a8578384fd5b8851620005b581620007ba565b60208a0151909850620005c881620007ba565b60408a0151909750620005db81620007ba565b60608a0151909650620005ee81620007ba565b60808a01519095506200060181620007ba565b60a08a01519094506200061481620007ba565b60c08a01519093506200062781620007ba565b60e08a01519092506001600160401b038082111562000644578283fd5b818b0191508b601f83011262000658578283fd5b8151818111156200066d576200066d620007a4565b604051601f8201601f19908116603f01168101908382118183101715620006985762000698620007a4565b816040528281528e6020848701011115620006b1578586fd5b620006c483602083016020880162000734565b80955050505050509295985092959890939650565b600060208284031215620006eb578081fd5b8151620006f881620007ba565b9392505050565b60006020825282518060208401526200072081604085016020870162000734565b601f01601f19169190910160400192915050565b60005b838110156200075157818101518382015260200162000737565b8381111562000761576000848401525b50505050565b600181811c908216806200077c57607f821691505b602082108114156200079e57634e487b7160e01b600052602260045260246000fd5b50919050565b634e487b7160e01b600052604160045260246000fd5b6001600160a01b0381168114620007d057600080fd5b50565b60805160601c60a05160601c60c05160601c615b396200092b600039600081816103ff01528181612f9801528181613017015261309c0152600081816102a0015281816107cd015281816108e90152818161093901528181610ab301528181610c6601528181610d6601528181610fd40152818161131301528181611483015281816116e301528181611780015281816119dd01528181611ba601528181611fb9015281816121b90152818161220b015281816122ac01526128c50152600081816105cf01528181610a7701528181611910015281816119b401528181611d010152818161235601528181612497015281816126610152818161277f015281816128a3015281816128fb01528181612af701528181612d1101528181612da701528181613394015281816134ab015281816134e60152818161359b01528181613c4701528181613cd30152614b150152615b396000f3fe6080604052600436106102605760003560e01c80639b7166a911610144578063d3332539116100b6578063f23c47221161007a578063f23c472214610707578063f7c618c114610726578063f7c99bea14610746578063fc0c546a1461075c578063fef395d31461077a578063ffa1ad741461079a57610267565b8063d33325391461067d578063d4c3eea01461069d578063e00af4a7146106b2578063e645c202146106d2578063ec78e832146106e757610267565b8063b2016bd411610108578063b2016bd4146105bd578063b9098e3c146105f1578063c415b95c14610607578063cd2d7ebe14610627578063ce5494bb1461063d578063d2c35ce81461065d57610267565b80639b7166a91461052c578063a3f4df7e14610546578063a923b2a614610568578063aa10188614610588578063acc2166a1461059d57610267565b80635abda028116101dd5780637d7c2a1c116101a15780637d7c2a1c1461048b5780638b418713146104a0578063920f5c84146104c057806392986024146104e0578063951dc22c146104f557806399b71d5c1461051757610267565b80635abda028146103d85780635fe3b567146103ed57806367f5e4b814610421578063709d039d146104415780637398ab181461046157610267565b80634032b72b116102245780634032b72b1461033257806342189c8f14610352578063440d7248146103685780634c36fad714610398578063599e892a146103b857610267565b806314ae9f2e1461026c57806316f0115b1461028e5780631aedeabe146102d85780632a049a21146102fc5780632e1a7d4d1461031257610267565b3661026757005b600080fd5b34801561027857600080fd5b5061028c610287366004614f02565b6107cb565b005b34801561029a57600080fd5b506102c27f000000000000000000000000000000000000000000000000000000000000000081565b6040516102cf91906155cd565b60405180910390f35b3480156102e457600080fd5b506102ee60065481565b6040519081526020016102cf565b34801561030857600080fd5b506102ee600e5481565b34801561031e57600080fd5b5061028c61032d3660046153a0565b6108e6565b34801561033e57600080fd5b5061028c61034d366004614f02565b610937565b34801561035e57600080fd5b506102ee60045481565b34801561037457600080fd5b50610388610383366004614f02565b610a43565b60405190151581526020016102cf565b3480156103a457600080fd5b5061028c6103b3366004614f02565b610ab1565b3480156103c457600080fd5b5061028c6103d3366004615241565b610c64565b3480156103e457600080fd5b506102ee610d25565b3480156103f957600080fd5b506102c27f000000000000000000000000000000000000000000000000000000000000000081565b34801561042d57600080fd5b5061028c61043c3660046153a0565b610d64565b34801561044d57600080fd5b506003546102c2906001600160a01b031681565b34801561046d57600080fd5b50610476610eb0565b604080519283526020830191909152016102cf565b34801561049757600080fd5b5061028c610f6a565b3480156104ac57600080fd5b5061028c6104bb366004614f3a565b61103d565b3480156104cc57600080fd5b506103886104db366004615005565b6110f8565b3480156104ec57600080fd5b506103886112f9565b34801561050157600080fd5b5061050a6113a6565b6040516102cf9190615683565b34801561052357600080fd5b5061028c6113b7565b34801561053857600080fd5b50600b546103889060ff1681565b34801561055257600080fd5b5061055b6113f3565b6040516102cf9190615804565b34801561057457600080fd5b5061028c6105833660046153ff565b611481565b34801561059457600080fd5b5061028c6116b6565b3480156105a957600080fd5b506011546102c2906001600160a01b031681565b3480156105c957600080fd5b506102c27f000000000000000000000000000000000000000000000000000000000000000081565b3480156105fd57600080fd5b506102ee600d5481565b34801561061357600080fd5b506002546102c2906001600160a01b031681565b34801561063357600080fd5b506102ee60055481565b34801561064957600080fd5b5061028c610658366004614f02565b6116e0565b34801561066957600080fd5b5061028c610678366004614f02565b6119db565b34801561068957600080fd5b5061028c610698366004615241565b611ba4565b3480156106a957600080fd5b506102ee611c78565b3480156106be57600080fd5b5061028c6106cd366004614f02565b611c8a565b3480156106de57600080fd5b506102ee611eae565b3480156106f357600080fd5b506001546102c2906001600160a01b031681565b34801561071357600080fd5b50600b5461038890610100900460ff1681565b34801561073257600080fd5b506010546102c2906001600160a01b031681565b34801561075257600080fd5b506102ee600a5481565b34801561076857600080fd5b506001546001600160a01b03166102c2565b34801561078657600080fd5b5061028c6107953660046153ff565b611fb7565b3480156107a657600080fd5b5061055b604051806040016040528060058152602001640342e302e360dc1b81525081565b7f00000000000000000000000000000000000000000000000000000000000000006001600160a01b0316630c340a246040518163ffffffff1660e01b815260040160206040518083038186803b15801561082457600080fd5b505afa158015610838573d6000803e3d6000fd5b505050506040513d601f19601f8201168201806040525081019061085c9190614f1e565b6001600160a01b0316336001600160a01b0316146108955760405162461bcd60e51b815260040161088c9061587e565b60405180910390fd5b6108a060078261219f565b6108e35760405162461bcd60e51b81526020600482015260146024820152731c995b5bdd994b5ad9595c195c8b59985a5b195960621b604482015260640161088c565b50565b337f00000000000000000000000000000000000000000000000000000000000000006001600160a01b03161461092e5760405162461bcd60e51b815260040161088c906158b5565b6108e3816121b4565b7f00000000000000000000000000000000000000000000000000000000000000006001600160a01b0316630c340a246040518163ffffffff1660e01b815260040160206040518083038186803b15801561099057600080fd5b505afa1580156109a4573d6000803e3d6000fd5b505050506040513d601f19601f820116820180604052508101906109c89190614f1e565b6001600160a01b0316336001600160a01b0316146109f85760405162461bcd60e51b815260040161088c9061587e565b610a03600782612183565b6108e35760405162461bcd60e51b81526020600482015260116024820152701859190b5ad9595c195c8b59985a5b1959607a1b604482015260640161088c565b600f546000906001600160a01b0383811691161480610a6f57506010546001600160a01b038381169116145b80610aab57507f00000000000000000000000000000000000000000000000000000000000000006001600160a01b0316826001600160a01b0316145b92915050565b7f00000000000000000000000000000000000000000000000000000000000000006001600160a01b0316630c340a246040518163ffffffff1660e01b815260040160206040518083038186803b158015610b0a57600080fd5b505afa158015610b1e573d6000803e3d6000fd5b505050506040513d601f19601f82011682018060405250810190610b429190614f1e565b6001600160a01b0316336001600160a01b031614610b725760405162461bcd60e51b815260040161088c9061587e565b6001600160a01b038116610bbd5760405162461bcd60e51b8152602060048201526012602482015271736d2d616464726573732d69732d7a65726f60701b604482015260640161088c565b6003546001600160a01b0382811691161415610c085760405162461bcd60e51b815260206004820152600a602482015269736d2d69732d73616d6560b01b604482015260640161088c565b6003546040516001600160a01b038084169216907f2d19927e7cac08ceb98b38898a4fdff6da6a27295b9a2d62fe250408ebe044e190600090a3600380546001600160a01b0319166001600160a01b0392909216919091179055565b7f00000000000000000000000000000000000000000000000000000000000000006001600160a01b0316630c340a246040518163ffffffff1660e01b815260040160206040518083038186803b158015610cbd57600080fd5b505afa158015610cd1573d6000803e3d6000fd5b505050506040513d601f19601f82011682018060405250810190610cf59190614f1e565b6001600160a01b0316336001600160a01b0316146108e35760405162461bcd60e51b815260040161088c9061587e565b6000806000610d32610eb0565b9150915080600014610d5a5781610d4b612710836159d6565b610d5591906159b6565b610d5d565b60005b9250505090565b7f00000000000000000000000000000000000000000000000000000000000000006001600160a01b0316630c340a246040518163ffffffff1660e01b815260040160206040518083038186803b158015610dbd57600080fd5b505afa158015610dd1573d6000803e3d6000fd5b505050506040513d601f19601f82011682018060405250810190610df59190614f1e565b6001600160a01b0316336001600160a01b031614610e255760405162461bcd60e51b815260040161088c9061587e565b612710811115610e705760405162461bcd60e51b8152602060048201526016602482015275696e76616c69642d736c6970706167652d76616c756560501b604482015260640161088c565b60065460408051918252602082018390527ef1c5db862c7598b3b6765552ca951f498611e06412c2d57f8d0b58f82e7f82910160405180910390a1600655565b600f546040516361bfb47160e11b815260009182918291829182916001600160a01b03169063c37f68e290610ee99030906004016155cd565b60806040518083038186803b158015610f0157600080fd5b505afa158015610f15573d6000803e3d6000fd5b505050506040513d601f19601f82011682018060405250810190610f399190615420565b93509350935050670de0b6b3a76400008184610f5591906159d6565b610f5f91906159b6565b959194509092505050565b610f77335b6007906121e1565b610f935760405162461bcd60e51b815260040161088c90615817565b6000806000610fa0612203565b6040516302df682360e11b815260048101849052602481018390526044810182905292955090935091506001600160a01b037f000000000000000000000000000000000000000000000000000000000000000016906305bed04690606401600060405180830381600087803b15801561101857600080fd5b505af115801561102c573d6000803e3d6000fd5b50505050611038612647565b505050565b600080828060200190518101906110549190615324565b909250905033731e0447b19bb6ecfdae1e4ae1694b0c3659614e4e146110a45760405162461bcd60e51b815260206004820152600560248201526421736f6c6f60d81b604482015260640161088c565b604080518082019091526002815261064760f31b60208201526001600160a01b03861630146110e65760405162461bcd60e51b815260040161088c9190615804565b506110f18282612760565b5050505050565b60095460408051630261bf8b60e01b815290516000926001600160a01b031691630261bf8b916004808301926020929190829003018186803b15801561113d57600080fd5b505afa158015611151573d6000803e3d6000fd5b505050506040513d601f19601f820116820180604052508101906111759190614f1e565b6001600160a01b0316336001600160a01b0316146111c25760405162461bcd60e51b815260206004820152600a6024820152690858585d994b5c1bdbdb60b21b604482015260640161088c565b600b54604080518082019091526002815261323760f01b60208201529062010000900460ff166112055760405162461bcd60e51b815260040161088c9190615804565b50604080518082019091526002815261064760f31b60208201526001600160a01b03851630146112485760405162461bcd60e51b815260040161088c9190615804565b5060008686600081811061126c57634e487b7160e01b600052603260045260246000fd5b905060200201358989600081811061129457634e487b7160e01b600052603260045260246000fd5b905060200201356112a5919061599e565b90506112e884848080601f016020809104026020016040519081016040528093929190818152602001838380828437600092019190915250859250612760915050565b5060019a9950505050505050505050565b604051639f2b283360e01b81526000906001600160a01b037f00000000000000000000000000000000000000000000000000000000000000001690639f2b2833906113489030906004016155cd565b60206040518083038186803b15801561136057600080fd5b505afa158015611374573d6000803e3d6000fd5b505050506040513d601f19601f8201168201806040525081019061139891906153b8565b6113a0611eae565b10905090565b60606113b26007612889565b905090565b6113c033610f6f565b6113dc5760405162461bcd60e51b815260040161088c90615817565b6113e66000612896565b6113f1600019612896565b565b600c805461140090615a38565b80601f016020809104026020016040519081016040528092919081815260200182805461142c90615a38565b80156114795780601f1061144e57610100808354040283529160200191611479565b820191906000526020600020905b81548152906001019060200180831161145c57829003601f168201915b505050505081565b7f00000000000000000000000000000000000000000000000000000000000000006001600160a01b0316630c340a246040518163ffffffff1660e01b815260040160206040518083038186803b1580156114da57600080fd5b505afa1580156114ee573d6000803e3d6000fd5b505050506040513d601f19601f820116820180604052508101906115129190614f1e565b6001600160a01b0316336001600160a01b0316146115425760405162461bcd60e51b815260040161088c9061587e565b600360009054906101000a90046001600160a01b03166001600160a01b031663c2fba6676040518163ffffffff1660e01b815260040160206040518083038186803b15801561159057600080fd5b505afa1580156115a4573d6000803e3d6000fd5b505050506040513d601f19601f820116820180604052508101906115c891906153b8565b811061160d5760405162461bcd60e51b81526020600482015260146024820152730d2dcecc2d8d2c85ae4deeae8cae45ad2dcc8caf60631b604482015260640161088c565b816116185760045491505b603b82116116605760405162461bcd60e51b81526020600482015260156024820152741a5b9d985b1a590b5bdc9858db194b5c195c9a5bd9605a1b604482015260640161088c565b6004546005546040805192835260208301859052820152606081018290527f83bc5ab8030537fcf1d29c2334f6d22c26c82dcbe5ff03923d2cff5c692c0a7f9060800160405180910390a1600491909155600555565b6116bf33610f6f565b6116db5760405162461bcd60e51b815260040161088c90615817565b6113f1565b337f00000000000000000000000000000000000000000000000000000000000000006001600160a01b0316146117285760405162461bcd60e51b815260040161088c906158b5565b6001600160a01b03811661177e5760405162461bcd60e51b815260206004820152601c60248201527f6e65772d73747261746567792d616464726573732d69732d7a65726f00000000604482015260640161088c565b7f00000000000000000000000000000000000000000000000000000000000000006001600160a01b0316816001600160a01b03166316f0115b6040518163ffffffff1660e01b815260040160206040518083038186803b1580156117e157600080fd5b505afa1580156117f5573d6000803e3d6000fd5b505050506040513d601f19601f820116820180604052508101906118199190614f1e565b6001600160a01b0316146118685760405162461bcd60e51b81526020600482015260166024820152756e6f742d76616c69642d6e65772d737472617465677960501b604482015260640161088c565b61187181612b1c565b6001546040516370a0823160e01b815261190a9183916001600160a01b03909116906370a08231906118a79030906004016155cd565b60206040518083038186803b1580156118bf57600080fd5b505afa1580156118d3573d6000803e3d6000fd5b505050506040513d601f19601f820116820180604052508101906118f791906153b8565b6001546001600160a01b03169190612bf4565b6108e3817f00000000000000000000000000000000000000000000000000000000000000006001600160a01b03166370a08231306040518263ffffffff1660e01b815260040161195a91906155cd565b60206040518083038186803b15801561197257600080fd5b505afa158015611986573d6000803e3d6000fd5b505050506040513d601f19601f820116820180604052508101906119aa91906153b8565b6001600160a01b037f0000000000000000000000000000000000000000000000000000000000000000169190612bf4565b7f00000000000000000000000000000000000000000000000000000000000000006001600160a01b0316630c340a246040518163ffffffff1660e01b815260040160206040518083038186803b158015611a3457600080fd5b505afa158015611a48573d6000803e3d6000fd5b505050506040513d601f19601f82011682018060405250810190611a6c9190614f1e565b6001600160a01b0316336001600160a01b031614611a9c5760405162461bcd60e51b815260040161088c9061587e565b6001600160a01b038116611af25760405162461bcd60e51b815260206004820152601d60248201527f6665652d636f6c6c6563746f722d616464726573732d69732d7a65726f000000604482015260640161088c565b6002546001600160a01b0382811691161415611b485760405162461bcd60e51b81526020600482015260156024820152746665652d636f6c6c6563746f722d69732d73616d6560581b604482015260640161088c565b6002546040516001600160a01b038084169216907f0f06062680f9bd68e786e9980d9bb03d73d5620fc3b345e417b6eacb310b970690600090a3600280546001600160a01b0319166001600160a01b0392909216919091179055565b7f00000000000000000000000000000000000000000000000000000000000000006001600160a01b0316630c340a246040518163ffffffff1660e01b815260040160206040518083038186803b158015611bfd57600080fd5b505afa158015611c11573d6000803e3d6000fd5b505050506040513d601f19601f82011682018060405250810190611c359190614f1e565b6001600160a01b0316336001600160a01b031614611c655760405162461bcd60e51b815260040161088c9061587e565b600b805460ff19168215151790556108e3565b60006113b2611c85612c57565b612cda565b611c9333610f6f565b611caf5760405162461bcd60e51b815260040161088c90615817565b6002546001600160a01b0316611cff5760405162461bcd60e51b81526020600482015260156024820152741999594b58dbdb1b1958dd1bdc8b5b9bdd0b5cd95d605a1b604482015260640161088c565b7f00000000000000000000000000000000000000000000000000000000000000006001600160a01b0316816001600160a01b03161415611d815760405162461bcd60e51b815260206004820152601f60248201527f6e6f742d616c6c6f7765642d746f2d73776565702d636f6c6c61746572616c00604482015260640161088c565b611d8a81610a43565b15611dce5760405162461bcd60e51b815260206004820152601460248201527306e6f742d616c6c6f7765642d746f2d73776565760641b604482015260640161088c565b6001600160a01b03811673eeeeeeeeeeeeeeeeeeeeeeeeeeeeeeeeeeeeeeee1415611e0e57600254611e09906001600160a01b031647612e68565b6108e3565b6040516370a0823160e01b81526000906001600160a01b038316906370a0823190611e3d9030906004016155cd565b60206040518083038186803b158015611e5557600080fd5b505afa158015611e69573d6000803e3d6000fd5b505050506040513d601f19601f82011682018060405250810190611e8d91906153b8565b600254909150611eaa906001600160a01b03848116911683612bf4565b5050565b600f546040805163bd6d894d60e01b815290516000926001600160a01b03169163bd6d894d91600480830192602092919082900301818787803b158015611ef457600080fd5b505af1158015611f08573d6000803e3d6000fd5b505050506040513d601f19601f82011682018060405250810190611f2c91906153b8565b50611f35612f81565b6010546040516370a0823160e01b81526113b2916001600160a01b0316906370a0823190611f679030906004016155cd565b60206040518083038186803b158015611f7f57600080fd5b505afa158015611f93573d6000803e3d6000fd5b505050506040513d601f19601f82011682018060405250810190611c8591906153b8565b7f00000000000000000000000000000000000000000000000000000000000000006001600160a01b0316630c340a246040518163ffffffff1660e01b815260040160206040518083038186803b15801561201057600080fd5b505afa158015612024573d6000803e3d6000fd5b505050506040513d601f19601f820116820180604052508101906120489190614f1e565b6001600160a01b0316336001600160a01b0316146120785760405162461bcd60e51b815260040161088c9061587e565b600061208261307f565b9050612094655af3107a4000826159b6565b82106120dd5760405162461bcd60e51b81526020600482015260186024820152771a5b9d985b1a590b5b585e0b589bdc9c9bddcb5b1a5b5a5d60421b604482015260640161088c565b82821161212c5760405162461bcd60e51b815260206004820152601d60248201527f6d61782d73686f756c642d62652d6869676865722d7468616e2d6d696e000000604482015260640161088c565b600d54600e546040805192835260208301869052820152606081018390527f0e68fa4c4a80a75427bcce81b711855825bd765ea0e6e15e330653b2437db78e9060800160405180910390a150600d91909155600e55565b6000612198836001600160a01b03841661313e565b9392505050565b6000612198836001600160a01b03841661318d565b6108e37f00000000000000000000000000000000000000000000000000000000000000006119aa836132aa565b6001600160a01b03811660009081526001830160205260408120541515612198565b6000806000807f00000000000000000000000000000000000000000000000000000000000000006001600160a01b031663d53ddc26306040518263ffffffff1660e01b815260040161225591906155cd565b60206040518083038186803b15801561226d57600080fd5b505afa158015612281573d6000803e3d6000fd5b505050506040513d601f19601f820116820180604052508101906122a591906153b8565b90506000807f00000000000000000000000000000000000000000000000000000000000000006001600160a01b031663228bfd9f306040518263ffffffff1660e01b81526004016122f691906155cd565b6101006040518083038186803b15801561230f57600080fd5b505afa158015612323573d6000803e3d6000fd5b505050506040513d601f19601f8201168201806040525081019061234791906152bb565b9750505095505050505061237a7f0000000000000000000000000000000000000000000000000000000000000000613636565b600f54604051633af9e66960e01b81526000916001600160a01b031690633af9e669906123ab9030906004016155cd565b602060405180830381600087803b1580156123c557600080fd5b505af11580156123d9573d6000803e3d6000fd5b505050506040513d601f19601f820116820180604052508101906123fd91906153b8565b600f546040516395dd919360e01b81529192506000916001600160a01b03909116906395dd9193906124339030906004016155cd565b60206040518083038186803b15801561244b57600080fd5b505afa15801561245f573d6000803e3d6000fd5b505050506040513d601f19601f8201168201806040525081019061248391906153b8565b9050600061249182846159f5565b905060007f00000000000000000000000000000000000000000000000000000000000000006001600160a01b03166370a08231306040518263ffffffff1660e01b81526004016124e191906155cd565b60206040518083038186803b1580156124f957600080fd5b505afa15801561250d573d6000803e3d6000fd5b505050506040513d601f19601f8201168201806040525081019061253191906153b8565b9050600061253f828461599e565b90506000878211156125995761255588836159f5565b9b508b831161256f57612568838d6159f5565b9050612594565b612579898d61599e565b831061258757889950612594565b6125918c846159f5565b99505b6125a6565b6125a382896159f5565b9a505b60006125b28b8b6159f5565b905060006125c0838361599e565b905080156125f65760006125d3826132aa565b9050838111156125f4576125e784826159f5565b6125f1908e61599e565b9c505b505b6125fe610eb0565b90985096508815801561261057508715155b801561261a575086155b156126375761262a600019613770565b612634888f61599e565b9d505b5050505050505050505050909192565b6040516370a0823160e01b81526000906001600160a01b037f000000000000000000000000000000000000000000000000000000000000000016906370a08231906126969030906004016155cd565b60206040518083038186803b1580156126ae57600080fd5b505afa1580156126c2573d6000803e3d6000fd5b505050506040513d601f19601f820116820180604052508101906126e691906153b8565b90506000806126f683600161392a565b9150915061270383613b29565b61270d8282613bf0565b61271790836159f5565b915060005b60008311801561272d575060068111155b1561275a5761273c8383613d03565b61274690846159f5565b92508061275281615a73565b91505061271c565b50505050565b6000808380602001905181019061277791906153d0565b9150915060007f00000000000000000000000000000000000000000000000000000000000000006001600160a01b03166370a08231306040518263ffffffff1660e01b81526004016127c991906155cd565b60206040518083038186803b1580156127e157600080fd5b505afa1580156127f5573d6000803e3d6000fd5b505050506040513d601f19601f8201168201806040525081019061281991906153b8565b90508281101561285a5760405162461bcd60e51b815260206004820152600c60248201526b11931054d217d1905253115160a21b604482015260640161088c565b81156128775761286983613d6e565b61287284613770565b6110f1565b61288081613b29565b6110f184613e34565b6060600061219883613eff565b6128ea6001600160a01b037f0000000000000000000000000000000000000000000000000000000000000000167f000000000000000000000000000000000000000000000000000000000000000083613f5b565b600f54612924906001600160a01b037f00000000000000000000000000000000000000000000000000000000000000008116911683613f5b565b60005b600360009054906101000a90046001600160a01b03166001600160a01b031663c2fba6676040518163ffffffff1660e01b815260040160206040518083038186803b15801561297557600080fd5b505afa158015612989573d6000803e3d6000fd5b505050506040513d601f19601f820116820180604052508101906129ad91906153b8565b811015612af157600354604051636e74a6f760e01b815260048101839052612a45916001600160a01b031690636e74a6f79060240160206040518083038186803b1580156129fa57600080fd5b505afa158015612a0e573d6000803e3d6000fd5b505050506040513d601f19601f82011682018060405250810190612a329190614f1e565b6010546001600160a01b03169084613f5b565b600354604051636e74a6f760e01b815260048101839052612adf916001600160a01b031690636e74a6f79060240160206040518083038186803b158015612a8b57600080fd5b505afa158015612a9f573d6000803e3d6000fd5b505050506040513d601f19601f82011682018060405250810190612ac39190614f1e565b73b31f66aa3c1e785363f0875a1b74e27b85fd66c79084613f5b565b80612ae981615a73565b915050612927565b506108e37f00000000000000000000000000000000000000000000000000000000000000008261407f565b600f5460408051637e062a3560e11b815290516001600160a01b039283169284169163fc0c546a916004808301926020929190829003018186803b158015612b6357600080fd5b505afa158015612b77573d6000803e3d6000fd5b505050506040513d601f19601f82011682018060405250810190612b9b9190614f1e565b6001600160a01b031614612be75760405162461bcd60e51b81526020600482015260136024820152723bb937b73396b932b1b2b4b83a16ba37b5b2b760691b604482015260640161088c565b6000600d556108e3612647565b6040516001600160a01b03831660248201526044810182905261103890849063a9059cbb60e01b906064015b60408051601f198184030181529190526020810180516001600160e01b03166001600160e01b031990931692909217909152614136565b6011546040516305b9783d60e01b81526000916001600160a01b0316906305b9783d90612c8a90849030906004016157e8565b60206040518083038186803b158015612ca257600080fd5b505afa158015612cb6573d6000803e3d6000fd5b505050506040513d601f19601f820116820180604052508101906113b291906153b8565b6000808215612d9457600354601054604051631d1f307960e31b81526001600160a01b039283169263e8f983c892612d3b929116907f00000000000000000000000000000000000000000000000000000000000000009088906004016155e1565b60006040518083038186803b158015612d5357600080fd5b505afa158015612d67573d6000803e3d6000fd5b505050506040513d6000823e601f3d908101601f19168201604052612d8f9190810190615101565b509150505b600080612d9f610eb0565b9150915080827f00000000000000000000000000000000000000000000000000000000000000006001600160a01b03166370a08231306040518263ffffffff1660e01b8152600401612df191906155cd565b60206040518083038186803b158015612e0957600080fd5b505afa158015612e1d573d6000803e3d6000fd5b505050506040513d601f19601f82011682018060405250810190612e4191906153b8565b612e4b908661599e565b612e55919061599e565b612e5f91906159f5565b95945050505050565b80471015612eb85760405162461bcd60e51b815260206004820152601d60248201527f416464726573733a20696e73756666696369656e742062616c616e6365000000604482015260640161088c565b6000826001600160a01b03168260405160006040518083038185875af1925050503d8060008114612f05576040519150601f19603f3d011682016040523d82523d6000602084013e612f0a565b606091505b50509050806110385760405162461bcd60e51b815260206004820152603a60248201527f416464726573733a20756e61626c6520746f2073656e642076616c75652c207260448201527f6563697069656e74206d61792068617665207265766572746564000000000000606482015260840161088c565b604051630952c56360e01b81526001600160a01b037f00000000000000000000000000000000000000000000000000000000000000001690630952c56390612fd09060009030906004016157e8565b600060405180830381600087803b158015612fea57600080fd5b505af1158015612ffe573d6000803e3d6000fd5b5050604051630952c56360e01b81526001600160a01b037f0000000000000000000000000000000000000000000000000000000000000000169250630952c56391506130519060019030906004016157e8565b600060405180830381600087803b15801561306b57600080fd5b505af115801561275a573d6000803e3d6000fd5b600f54604051638e8f294b60e01b81526000916001600160a01b037f0000000000000000000000000000000000000000000000000000000000000000811692638e8f294b926130d29216906004016155cd565b60606040518083038186803b1580156130ea57600080fd5b505afa1580156130fe573d6000803e3d6000fd5b505050506040513d601f19601f820116820180604052508101906131229190615279565b5091506064905061313482605f6159d6565b6113b291906159b6565b600081815260018301602052604081205461318557508154600181810184556000848152602080822090930184905584548482528286019093526040902091909155610aab565b506000610aab565b600081815260018301602052604081205480156132a05760006131b16001836159f5565b85549091506000906131c5906001906159f5565b90508181146132465760008660000182815481106131f357634e487b7160e01b600052603260045260246000fd5b906000526020600020015490508087600001848154811061322457634e487b7160e01b600052603260045260246000fd5b6000918252602080832090910192909255918252600188019052604090208390555b855486908061326557634e487b7160e01b600052603160045260246000fd5b600190038181906000526020600020016000905590558560010160008681526020019081526020016000206000905560019350505050610aab565b6000915050610aab565b60008060006132ba84600061392a565b91509150801561337a576132ce8282613bf0565b6132d890836159f5565b915060005b6000831180156132ee5750600a8111155b1561331c576132fe836001613d03565b61330890846159f5565b92508061331481615a73565b9150506132dd565b82156133785760008061332d610eb0565b915091506000600e5460001461335957600e5461334c612710846159d6565b61335691906159b6565b90505b600061336582856159f5565b905080891115613373578098505b505050505b505b6040516370a0823160e01b81526000906001600160a01b037f000000000000000000000000000000000000000000000000000000000000000016906370a08231906133c99030906004016155cd565b60206040518083038186803b1580156133e157600080fd5b505afa1580156133f5573d6000803e3d6000fd5b505050506040513d601f19601f8201168201806040525081019061341991906153b8565b600f54604051633af9e66960e01b81529192506001600160a01b031690633af9e6699061344a9030906004016155cd565b602060405180830381600087803b15801561346457600080fd5b505af1158015613478573d6000803e3d6000fd5b505050506040513d601f19601f8201168201806040525081019061349c91906153b8565b851115613578575060006134cf7f0000000000000000000000000000000000000000000000000000000000000000613636565b6040516370a0823160e01b81526001600160a01b037f000000000000000000000000000000000000000000000000000000000000000016906370a082319061351b9030906004016155cd565b60206040518083038186803b15801561353357600080fd5b505afa158015613547573d6000803e3d6000fd5b505050506040513d601f19601f8201168201806040525081019061356b91906153b8565b61357590866159f5565b94505b61358185613770565b6040516370a0823160e01b81526000906001600160a01b037f000000000000000000000000000000000000000000000000000000000000000016906370a08231906135d09030906004016155cd565b60206040518083038186803b1580156135e857600080fd5b505afa1580156135fc573d6000803e3d6000fd5b505050506040513d601f19601f8201168201806040525081019061362091906153b8565b905061362c82826159f5565b9695505050505050565b61363e612f81565b6010546040516370a0823160e01b81526000916001600160a01b0316906370a082319061366f9030906004016155cd565b60206040518083038186803b15801561368757600080fd5b505afa15801561369b573d6000803e3d6000fd5b505050506040513d601f19601f820116820180604052508101906136bf91906153b8565b905080156136e0576010546136e0906001600160a01b031683836001614208565b4780156110385773b31f66aa3c1e785363f0875a1b74e27b85fd66c76001600160a01b031663d0e30db0826040518263ffffffff1660e01b81526004016000604051808303818588803b15801561373657600080fd5b505af115801561374a573d6000803e3d6000fd5b505050505061103873b31f66aa3c1e785363f0875a1b74e27b85fd66c784836001614208565b60001981141561388f57600f546040516370a0823160e01b81526001600160a01b039091169063db006a759082906370a08231906137b29030906004016155cd565b60206040518083038186803b1580156137ca57600080fd5b505afa1580156137de573d6000803e3d6000fd5b505050506040513d601f19601f8201168201806040525081019061380291906153b8565b6040518263ffffffff1660e01b815260040161382091815260200190565b602060405180830381600087803b15801561383a57600080fd5b505af115801561384e573d6000803e3d6000fd5b505050506040513d601f19601f8201168201806040525081019061387291906153b8565b15611e095760405162461bcd60e51b815260040161088c90615847565b600f5460405163852a12e360e01b8152600481018390526001600160a01b039091169063852a12e390602401602060405180830381600087803b1580156138d557600080fd5b505af11580156138e9573d6000803e3d6000fd5b505050506040513d601f19601f8201168201806040525081019061390d91906153b8565b156108e35760405162461bcd60e51b815260040161088c90615847565b600f54604051633af9e66960e01b8152600091829182916001600160a01b031690633af9e6699061395f9030906004016155cd565b602060405180830381600087803b15801561397957600080fd5b505af115801561398d573d6000803e3d6000fd5b505050506040513d601f19601f820116820180604052508101906139b191906153b8565b600f546040516395dd919360e01b81529192506000916001600160a01b03909116906395dd9193906139e79030906004016155cd565b60206040518083038186803b1580156139ff57600080fd5b505afa158015613a13573d6000803e3d6000fd5b505050506040513d601f19601f82011682018060405250810190613a3791906153b8565b9050600d5460001415613a5157925060019150613b229050565b6000613a5d82846159f5565b9050600086613a8357878211613a74576000613a7e565b613a7e88836159f5565b613a8d565b613a8d888361599e565b90506000600e54612710613aa191906159f5565b600e54613aae90846159d6565b613ab891906159b6565b90506000600d54612710613acc91906159f5565b600d54613ad990856159d6565b613ae391906159b6565b905081851115613b025760019650613afb81866159f5565b9750613b1b565b80851015613b1b5760009650613b1885826159f5565b97505b5050505050505b9250929050565b600f5460405163140e25ad60e31b8152600481018390526001600160a01b039091169063a0712d6890602401602060405180830381600087803b158015613b6f57600080fd5b505af1158015613b83573d6000803e3d6000fd5b505050506040513d601f19601f82011682018060405250810190613ba791906153b8565b156108e35760405162461bcd60e51b81526020600482015260196024820152781cdd5c1c1b1e4b5d1bcb58dbdb5c1bdd5b990b59985a5b1959603a1b604482015260640161088c565b600b546000908190610100900460ff168015613c0c5750600084115b15613c7d5760008484604051602001613c319291909182521515602082015260400190565b6040516020818303038152906040529050613c6d7f000000000000000000000000000000000000000000000000000000000000000086836143de565b9150613c7982866159f5565b9450505b600b5460ff168015613c8c5750825b8015613c985750600084115b156121985760008484604051602001613cbd9291909182521515602082015260400190565b6040516020818303038152906040529050613cf97f000000000000000000000000000000000000000000000000000000000000000086836146d7565b612e5f908361599e565b6000806000613d10610eb0565b91509150806000148015613d215750835b15613d3157600092505050610aab565b6000613d3b61307f565b90508415613d5657613d4f86848484614a52565b9350613d65565b613d6286848484614ab8565b93505b50505092915050565b600f5460405163073a938160e11b8152600481018390526001600160a01b0390911690630e75270290602401602060405180830381600087803b158015613db457600080fd5b505af1158015613dc8573d6000803e3d6000fd5b505050506040513d601f19601f82011682018060405250810190613dec91906153b8565b156108e35760405162461bcd60e51b81526020600482015260186024820152771c995c185e4b5d1bcb58dbdb5c1bdd5b990b59985a5b195960421b604482015260640161088c565b600f5460405163317afabb60e21b8152600481018390526001600160a01b039091169063c5ebeaec90602401602060405180830381600087803b158015613e7a57600080fd5b505af1158015613e8e573d6000803e3d6000fd5b505050506040513d601f19601f82011682018060405250810190613eb291906153b8565b156108e35760405162461bcd60e51b815260206004820152601b60248201527f626f72726f772d66726f6d2d636f6d706f756e642d6661696c65640000000000604482015260640161088c565b606081600001805480602002602001604051908101604052809291908181526020018280548015613f4f57602002820191906000526020600020905b815481526020019060010190808311613f3b575b50505050509050919050565b801580613fe45750604051636eb1769f60e11b81523060048201526001600160a01b03838116602483015284169063dd62ed3e9060440160206040518083038186803b158015613faa57600080fd5b505afa158015613fbe573d6000803e3d6000fd5b505050506040513d601f19601f82011682018060405250810190613fe291906153b8565b155b61404f5760405162461bcd60e51b815260206004820152603660248201527f5361666545524332303a20617070726f76652066726f6d206e6f6e2d7a65726f60448201527520746f206e6f6e2d7a65726f20616c6c6f77616e636560501b606482015260840161088c565b6040516001600160a01b03831660248201526044810182905261103890849063095ea7b360e01b90606401612c20565b6140a76001600160a01b038316731e0447b19bb6ecfdae1e4ae1694b0c3659614e4e83613f5b565b60095460408051630261bf8b60e01b81529051611eaa926001600160a01b031691630261bf8b916004808301926020929190829003018186803b1580156140ed57600080fd5b505afa158015614101573d6000803e3d6000fd5b505050506040513d601f19601f820116820180604052508101906141259190614f1e565b6001600160a01b0384169083613f5b565b600061418b826040518060400160405280602081526020017f5361666545524332303a206c6f772d6c6576656c2063616c6c206661696c6564815250856001600160a01b0316614b9f9092919063ffffffff16565b80519091501561103857808060200190518101906141a9919061525d565b6110385760405162461bcd60e51b815260206004820152602a60248201527f5361666545524332303a204552433230206f7065726174696f6e20646964206e6044820152691bdd081cdd58d8d9595960b21b606482015260840161088c565b826001600160a01b0316846001600160a01b031614156142275761275a565b600354604051631d1f307960e31b8152600091829182916001600160a01b03169063e8f983c890614260908a908a908a906004016155e1565b60006040518083038186803b15801561427857600080fd5b505afa15801561428c573d6000803e3d6000fd5b505050506040513d6000823e601f3d908101601f191682016040526142b49190810190615101565b92509250925083600014156142c857600193505b81156143d557600354604051636e74a6f760e01b8152600481018390526001600160a01b0390911690636e74a6f79060240160206040518083038186803b15801561431257600080fd5b505afa158015614326573d6000803e3d6000fd5b505050506040513d601f19601f8201168201806040525081019061434a9190614f1e565b6001600160a01b03166338ed173986868630426040518663ffffffff1660e01b815260040161437d9594939291906158e8565b600060405180830381600087803b15801561439757600080fd5b505af11580156143ab573d6000803e3d6000fd5b505050506040513d6000823e601f3d908101601f191682016040526143d391908101906151af565b505b50505050505050565b600b54604080518082019091526002815261191b60f11b6020820152600091610100900460ff166144225760405162461bcd60e51b815260040161088c9190615804565b506040516370a0823160e01b81526000906001600160a01b038616906370a082319061446690731e0447b19bb6ecfdae1e4ae1694b0c3659614e4e906004016155cd565b60206040518083038186803b15801561447e57600080fd5b505afa158015614492573d6000803e3d6000fd5b505050506040513d601f19601f820116820180604052508101906144b691906153b8565b9050808411156144c4578093505b60006144d185600261599e565b9050600084826040516020016144e89291906157c6565b60408051808303601f19018152600380845260808401909252925060009190816020015b614514614e4a565b81526020019060019003908161450c579050509050614535600a5488614bb6565b8160008151811061455657634e487b7160e01b600052603260045260246000fd5b602002602001018190525061456a82614c40565b8160018151811061458b57634e487b7160e01b600052603260045260246000fd5b60200260200101819052506145a2600a5484614cae565b816002815181106145c357634e487b7160e01b600052603260045260246000fd5b6020908102919091010152604080516001808252818301909252600091816020015b60408051808201909152600080825260208201528152602001906001900390816145e5575050604080518082018252600080825260209182015281518083019092523082526001908201529091508160008151811061465457634e487b7160e01b600052603260045260246000fd5b602090810291909101015260405163a67a6a4560e01b8152731e0447b19bb6ecfdae1e4ae1694b0c3659614e4e9063a67a6a45906146989084908690600401615696565b600060405180830381600087803b1580156146b257600080fd5b505af11580156146c6573d6000803e3d6000fd5b50999b9a5050505050505050505050565b600b54604080518082019091526002815261323560f01b602082015260009160ff166147165760405162461bcd60e51b815260040161088c9190615804565b5060095460408051630261bf8b60e01b815290516000926001600160a01b031691630261bf8b916004808301926020929190829003018186803b15801561475c57600080fd5b505afa158015614770573d6000803e3d6000fd5b505050506040513d601f19601f820116820180604052508101906147949190614f1e565b6009546040516321f8a72160e01b8152600160f81b60048201529192506000916001600160a01b03909116906321f8a7219060240160206040518083038186803b1580156147e157600080fd5b505afa1580156147f5573d6000803e3d6000fd5b505050506040513d601f19601f820116820180604052508101906148199190614f1e565b90506000816001600160a01b03166335ea6a75886040518263ffffffff1660e01b815260040161484991906155cd565b6101406040518083038186803b15801561486257600080fd5b505afa158015614876573d6000803e3d6000fd5b505050506040513d601f19601f8201168201806040525081019061489a9190615455565b5050505050505050509050808611156148b1578095505b6040805160018082528183019092526000916020808301908036833701905050905087816000815181106148f557634e487b7160e01b600052603260045260246000fd5b6001600160a01b039290921660209283029190910190910152604080516001808252818301909252600091816020016020820280368337019050509050878160008151811061495457634e487b7160e01b600052603260045260246000fd5b60209081029190910101526040805160018082528183019092526000918160200160208202803683370190505090506000816000815181106149a657634e487b7160e01b600052603260045260246000fd5b6020026020010181815250506001600b60026101000a81548160ff021916908315150217905550856001600160a01b031663ab9c4b5d30858585308e60006040518863ffffffff1660e01b8152600401614a069796959493929190615605565b600060405180830381600087803b158015614a2057600080fd5b505af1158015614a34573d6000803e3d6000fd5b5050600b805462ff00001916905550989a9950505050505050505050565b6000808215614a7b5782614a6e85670de0b6b3a76400006159d6565b614a7891906159b6565b90505b614a8581866159f5565b9150838210614a92578391505b858210614a9d578591505b614aa682613770565b614aaf82613d6e565b50949350505050565b600080670de0b6b3a7640000614ace84876159d6565b614ad891906159b6565b9050614ae484826159f5565b9150858210614af1578591505b614afa82613e34565b6040516370a0823160e01b8152614aaf906001600160a01b037f000000000000000000000000000000000000000000000000000000000000000016906370a0823190614b4a9030906004016155cd565b60206040518083038186803b158015614b6257600080fd5b505afa158015614b76573d6000803e3d6000fd5b505050506040513d601f19601f82011682018060405250810190614b9a91906153b8565b613b29565b6060614bae8484600085614ce9565b949350505050565b614bbe614e4a565b604080516101008101825260018152600060208083018290528351608081018552828152929384019291908201905b81526020016000815260200185815250815260200184815260200160008152602001306001600160a01b031681526020016000815260200160405180602001604052806000815250815250905092915050565b614c48614e4a565b6040805161010081018252600881526000602080830182905283516080810185528281529293840192919082019081526020016000815260006020918201819052918352820181905260408201819052306060830152608082015260a001929092525090565b614cb6614e4a565b60408051610100810182526000808252602080830182905283516080810185526001815292938401929190820190614bed565b606082471015614d4a5760405162461bcd60e51b815260206004820152602660248201527f416464726573733a20696e73756666696369656e742062616c616e636520666f6044820152651c8818d85b1b60d21b606482015260840161088c565b843b614d985760405162461bcd60e51b815260206004820152601d60248201527f416464726573733a2063616c6c20746f206e6f6e2d636f6e7472616374000000604482015260640161088c565b600080866001600160a01b03168587604051614db491906155b1565b60006040518083038185875af1925050503d8060008114614df1576040519150601f19603f3d011682016040523d82523d6000602084013e614df6565b606091505b5091509150614e06828286614e11565b979650505050505050565b60608315614e20575081612198565b825115614e305782518084602001fd5b8160405162461bcd60e51b815260040161088c9190615804565b604080516101008101825260008082526020820152908101614e8e604080516080810190915260008082526020820190815260200160008152602001600081525090565b8152602001600081526020016000815260200160006001600160a01b0316815260200160008152602001606081525090565b60008083601f840112614ed1578182fd5b5081356001600160401b03811115614ee7578182fd5b6020830191508360208260051b8501011115613b2257600080fd5b600060208284031215614f13578081fd5b813561219881615ae0565b600060208284031215614f2f578081fd5b815161219881615ae0565b60008060008385036080811215614f4f578283fd5b8435614f5a81615ae0565b935060206040601f1983011215614f6f578384fd5b614f796040615924565b915080860135614f8881615ae0565b82526040860135818301529092506060850135906001600160401b03821115614faf578283fd5b818601915086601f830112614fc2578283fd5b8135614fd5614fd082615977565b615924565b8181528883838601011115614fe8578485fd5b818385018483013784838383010152809450505050509250925092565b600080600080600080600080600060a08a8c031215615022578485fd5b89356001600160401b0380821115615038578687fd5b6150448d838e01614ec0565b909b50995060208c013591508082111561505c578687fd5b6150688d838e01614ec0565b909950975060408c0135915080821115615080578687fd5b61508c8d838e01614ec0565b909750955060608c013591506150a182615ae0565b90935060808b013590808211156150b6578384fd5b818c0191508c601f8301126150c9578384fd5b8135818111156150d7578485fd5b8d60208285010111156150e8578485fd5b6020830194508093505050509295985092959850929598565b600080600060608486031215615115578283fd5b83516001600160401b0381111561512a578384fd5b8401601f8101861361513a578384fd5b8051602061514a614fd083615954565b8083825282820191508285018a848660051b8801011115615169578889fd5b8895505b8486101561519457805161518081615ae0565b83526001959095019491830191830161516d565b50918801516040909801519199979850909695505050505050565b600060208083850312156151c1578182fd5b82516001600160401b038111156151d6578283fd5b8301601f810185136151e6578283fd5b80516151f4614fd082615954565b80828252848201915084840188868560051b8701011115615213578687fd5b8694505b83851015615235578051835260019490940193918501918501615217565b50979650505050505050565b600060208284031215615252578081fd5b813561219881615af5565b60006020828403121561526e578081fd5b815161219881615af5565b60008060006060848603121561528d578081fd5b835161529881615af5565b6020850151604086015191945092506152b081615af5565b809150509250925092565b600080600080600080600080610100898b0312156152d7578182fd5b88516152e281615af5565b809850506020890151965060408901519550606089015194506080890151935060a0890151925060c0890151915060e089015190509295985092959890939650565b60008060408385031215615336578182fd5b82516001600160401b0381111561534b578283fd5b8301601f8101851361535b578283fd5b8051615369614fd082615977565b81815286602083850101111561537d578485fd5b61538e826020830160208601615a0c565b60209590950151949694955050505050565b6000602082840312156153b1578081fd5b5035919050565b6000602082840312156153c9578081fd5b5051919050565b600080604083850312156153e2578182fd5b8251915060208301516153f481615af5565b809150509250929050565b60008060408385031215615411578182fd5b50508035926020909101359150565b60008060008060808587031215615435578182fd5b505082516020840151604085015160609095015191969095509092509050565b6000806000806000806000806000806101408b8d031215615474578384fd5b8a51995060208b0151985060408b0151975060608b0151965060808b0151955060a08b0151945060c08b0151935060e08b015192506101008b015191506101208b015164ffffffffff811681146154c9578182fd5b809150509295989b9194979a5092959850565b6000815180845260208085019450808401835b838110156155145781516001600160a01b0316875295820195908201906001016154ef565b509495945050505050565b6000815180845260208085019450808401835b8381101561551457815187529582019590820190600101615532565b60008151808452615566816020860160208601615a0c565b601f01601f19169290920160200192915050565b805115158252602081015161558e81615ad0565b602083015260408101516155a181615ad0565b6040830152606090810151910152565b600082516155c3818460208701615a0c565b9190910192915050565b6001600160a01b0391909116815260200190565b6001600160a01b039384168152919092166020820152604081019190915260600190565b600060018060a01b03808a16835260e0602084015261562760e084018a6154dc565b8381036040850152615639818a61551f565b9050838103606085015261564d818961551f565b9050818716608085015283810360a0850152615669818761554e565b9250505061ffff831660c083015298975050505050505050565b60006020825261219860208301846154dc565b6040808252835182820181905260009190606090818501906020808901865b838110156156e357815180516001600160a01b031686528301518386015293860193908201906001016156b5565b50508683038188015287518084528184019250600581901b84018201898301885b838110156157b557601f19878403018652815161016081516009811061572c5761572c615aa4565b855281870151878601528a8201516157468c87018261557a565b508982015160c081818801526080840151915060e0828189015260a0850151925061577d6101008901846001600160a01b03169052565b9084015161012088015290920151610140860182905291506157a18186018361554e565b978701979450505090840190600101615704565b50909b9a5050505050505050505050565b6000604082526157d9604083018561554e565b90508260208301529392505050565b60ff9290921682526001600160a01b0316602082015260400190565b600060208252612198602083018461554e565b60208082526016908201527531b0b63632b916b4b996b737ba16b096b5b2b2b832b960511b604082015260600190565b6020808252601d908201527f77697468647261772d66726f6d2d636f6d706f756e642d6661696c6564000000604082015260600190565b6020808252601a908201527f63616c6c65722d69732d6e6f742d7468652d676f7665726e6f72000000000000604082015260600190565b60208082526019908201527818d85b1b195c8b5a5ccb5b9bdd0b5d995cdc195c8b5c1bdbdb603a1b604082015260600190565b600086825285602083015260a0604083015261590760a08301866154dc565b6001600160a01b0394909416606083015250608001529392505050565b604051601f8201601f191681016001600160401b038111828210171561594c5761594c615aba565b604052919050565b60006001600160401b0382111561596d5761596d615aba565b5060051b60200190565b60006001600160401b0382111561599057615990615aba565b50601f01601f191660200190565b600082198211156159b1576159b1615a8e565b500190565b6000826159d157634e487b7160e01b81526012600452602481fd5b500490565b60008160001904831182151516156159f0576159f0615a8e565b500290565b600082821015615a0757615a07615a8e565b500390565b60005b83811015615a27578181015183820152602001615a0f565b8381111561275a5750506000910152565b600181811c90821680615a4c57607f821691505b60208210811415615a6d57634e487b7160e01b600052602260045260246000fd5b50919050565b6000600019821415615a8757615a87615a8e565b5060010190565b634e487b7160e01b600052601160045260246000fd5b634e487b7160e01b600052602160045260246000fd5b634e487b7160e01b600052604160045260246000fd5b600281106108e3576108e3615aa4565b6001600160a01b03811681146108e357600080fd5b80151581146108e357600080fdfea26469706673582212202d13111d017b9457df0ad8f275052501aed26668b83723bdabcc9fbed5935a8764736f6c63430008030033",
  "devdoc": {
    "kind": "dev",
    "methods": {
      "addKeeper(address)": {
        "params": {
          "_keeperAddress": "keeper address to add."
        }
      },
      "approveToken()": {
        "details": "Approve all required tokens"
      },
      "callFunction(address,(address,uint256),bytes)": {
        "details": "DyDx calls this function after doing flash loan"
      },
      "executeOperation(address[],uint256[],uint256[],address,bytes)": {
        "details": "Aave will call this function after doing flash loan"
      },
      "migrate(address)": {
        "details": "_beforeMigration hook can be implemented in child strategy to do extra steps.",
        "params": {
          "_newStrategy": "Address of new strategy"
        }
      },
      "rebalance()": {
        "details": "Rebalance profit, loss and investment of this strategy"
      },
      "removeKeeper(address)": {
        "params": {
          "_keeperAddress": "keeper address to remove."
        }
      },
      "sweepERC20(address)": {
        "details": "sweep given token to feeCollector of strategy",
        "params": {
          "_fromToken": "token address to sweep"
        }
      },
      "totalValue()": {
        "details": "Compound calculate rewardToken accrued and store it when user interact with Compound contracts, i.e. deposit, withdraw or transfer tokens. So compAccrued() will return stored rewardToken accrued amount, which is olderFor up to date value check totalValueCurrent()"
      },
      "totalValueCurrent()": {
        "details": "Report total value in collateral tokenClaimed rewardToken will stay in strategy until next rebalance"
      },
      "updateBorrowRatio(uint256,uint256)": {
        "details": "It is possible to set 0 as _minBorrowRatio to not borrow anything",
        "params": {
          "_maxBorrowRatio": "Maximum % we want to borrow",
          "_minBorrowRatio": "Minimum % we want to borrow"
        }
      },
      "updateDyDxStatus(bool)": {
        "details": "DyDx isn't currently on Avalanche"
      },
      "updateFeeCollector(address)": {
        "params": {
          "_feeCollector": "fee collector address"
        }
      },
      "updateSwapManager(address)": {
        "params": {
          "_swapManager": "swap manager address"
        }
      },
      "withdraw(uint256)": {
        "details": "Withdraw collateral token from lending pool.",
        "params": {
          "_amount": "Amount of collateral token"
        }
      }
    },
    "title": "This strategy will deposit collateral token in Benqi and based on position it will borrow same collateral token. It will use borrowed asset as supply and borrow again.",
    "version": 1
  },
  "userdoc": {
    "kind": "user",
    "methods": {
      "addKeeper(address)": {
        "notice": "Add given address in keepers list."
      },
      "currentBorrowRatio()": {
        "notice": "Current borrow ratio, calculated as current borrow divide by max allowed borrow Return value is based on basis points, i.e. 7500 = 75% ratio"
      },
      "getPosition()": {
        "notice": "Return supply and borrow position. Position may return few block old value"
      },
      "isLossMaking()": {
        "notice": "Calculate current position using claimed rewardToken and current borrow."
      },
      "isReservedToken(address)": {
        "notice": "Check whether given token is reserved or not. Reserved tokens are not allowed to sweep."
      },
      "keepers()": {
        "notice": "Return list of keepers"
      },
      "migrate(address)": {
        "notice": "Migrate all asset and vault ownership,if any, to new strategy"
      },
      "removeKeeper(address)": {
        "notice": "Remove given address from keepers list."
      },
      "token()": {
        "notice": "Returns address of token correspond to collateral token"
      },
      "totalValue()": {
        "notice": "Calculate total value using rewardToken accrued, supply and borrow position"
      },
      "totalValueCurrent()": {
        "notice": "Calculate total value based on rewardToken claimed, supply and borrow position"
      },
      "updateBorrowRatio(uint256,uint256)": {
        "notice": "Update upper and lower borrow ratio"
      },
      "updateFeeCollector(address)": {
        "notice": "Update fee collector"
      },
      "updateSwapManager(address)": {
        "notice": "Update swap manager address"
      }
    },
    "version": 1
  },
  "storageLayout": {
    "storage": [
      {
        "astId": 15118,
        "contract": "contracts/strategies/compound/BenqiLeverageStrategy.sol:BenqiLeverageStrategy",
        "label": "WETH",
        "offset": 0,
        "slot": "0",
        "type": "t_address"
      },
      {
        "astId": 15123,
        "contract": "contracts/strategies/compound/BenqiLeverageStrategy.sol:BenqiLeverageStrategy",
        "label": "receiptToken",
        "offset": 0,
        "slot": "1",
        "type": "t_address"
      },
      {
        "astId": 15129,
        "contract": "contracts/strategies/compound/BenqiLeverageStrategy.sol:BenqiLeverageStrategy",
        "label": "feeCollector",
        "offset": 0,
        "slot": "2",
        "type": "t_address"
      },
      {
        "astId": 15132,
        "contract": "contracts/strategies/compound/BenqiLeverageStrategy.sol:BenqiLeverageStrategy",
        "label": "swapManager",
        "offset": 0,
        "slot": "3",
        "type": "t_contract(ISwapManager)5430"
      },
      {
        "astId": 15135,
        "contract": "contracts/strategies/compound/BenqiLeverageStrategy.sol:BenqiLeverageStrategy",
        "label": "oraclePeriod",
        "offset": 0,
        "slot": "4",
        "type": "t_uint256"
      },
      {
        "astId": 15138,
        "contract": "contracts/strategies/compound/BenqiLeverageStrategy.sol:BenqiLeverageStrategy",
        "label": "oracleRouterIdx",
        "offset": 0,
        "slot": "5",
        "type": "t_uint256"
      },
      {
        "astId": 15141,
        "contract": "contracts/strategies/compound/BenqiLeverageStrategy.sol:BenqiLeverageStrategy",
        "label": "swapSlippage",
        "offset": 0,
        "slot": "6",
        "type": "t_uint256"
      },
      {
        "astId": 15144,
        "contract": "contracts/strategies/compound/BenqiLeverageStrategy.sol:BenqiLeverageStrategy",
        "label": "_keepers",
        "offset": 0,
        "slot": "7",
        "type": "t_struct(AddressSet)4399_storage"
      },
      {
        "astId": 3157,
        "contract": "contracts/strategies/compound/BenqiLeverageStrategy.sol:BenqiLeverageStrategy",
        "label": "aaveAddressesProvider",
        "offset": 0,
        "slot": "9",
        "type": "t_contract(AaveLendingPoolAddressesProvider)4702"
      },
      {
        "astId": 3162,
        "contract": "contracts/strategies/compound/BenqiLeverageStrategy.sol:BenqiLeverageStrategy",
        "label": "dyDxMarketId",
        "offset": 0,
        "slot": "10",
        "type": "t_uint256"
      },
      {
        "astId": 3168,
        "contract": "contracts/strategies/compound/BenqiLeverageStrategy.sol:BenqiLeverageStrategy",
        "label": "isAaveActive",
        "offset": 0,
        "slot": "11",
        "type": "t_bool"
      },
      {
        "astId": 3171,
        "contract": "contracts/strategies/compound/BenqiLeverageStrategy.sol:BenqiLeverageStrategy",
        "label": "isDyDxActive",
        "offset": 1,
        "slot": "11",
        "type": "t_bool"
      },
      {
        "astId": 3264,
        "contract": "contracts/strategies/compound/BenqiLeverageStrategy.sol:BenqiLeverageStrategy",
        "label": "awaitingFlash",
        "offset": 2,
        "slot": "11",
        "type": "t_bool"
      },
      {
        "astId": 22530,
        "contract": "contracts/strategies/compound/BenqiLeverageStrategy.sol:BenqiLeverageStrategy",
        "label": "NAME",
        "offset": 0,
        "slot": "12",
        "type": "t_string_storage"
      },
      {
        "astId": 22539,
        "contract": "contracts/strategies/compound/BenqiLeverageStrategy.sol:BenqiLeverageStrategy",
        "label": "minBorrowRatio",
        "offset": 0,
        "slot": "13",
        "type": "t_uint256"
      },
      {
        "astId": 22542,
        "contract": "contracts/strategies/compound/BenqiLeverageStrategy.sol:BenqiLeverageStrategy",
        "label": "maxBorrowRatio",
        "offset": 0,
        "slot": "14",
        "type": "t_uint256"
      },
      {
        "astId": 22545,
        "contract": "contracts/strategies/compound/BenqiLeverageStrategy.sol:BenqiLeverageStrategy",
        "label": "cToken",
        "offset": 0,
        "slot": "15",
        "type": "t_contract(CToken)5560"
      },
      {
        "astId": 22559,
        "contract": "contracts/strategies/compound/BenqiLeverageStrategy.sol:BenqiLeverageStrategy",
        "label": "rewardToken",
        "offset": 0,
        "slot": "16",
        "type": "t_address"
      },
      {
        "astId": 22561,
        "contract": "contracts/strategies/compound/BenqiLeverageStrategy.sol:BenqiLeverageStrategy",
        "label": "rewardDistributor",
        "offset": 0,
        "slot": "17",
        "type": "t_address"
      }
    ],
    "types": {
      "t_address": {
        "encoding": "inplace",
        "label": "address",
        "numberOfBytes": "20"
      },
      "t_array(t_bytes32)dyn_storage": {
        "base": "t_bytes32",
        "encoding": "dynamic_array",
        "label": "bytes32[]",
        "numberOfBytes": "32"
      },
      "t_bool": {
        "encoding": "inplace",
        "label": "bool",
        "numberOfBytes": "1"
      },
      "t_bytes32": {
        "encoding": "inplace",
        "label": "bytes32",
        "numberOfBytes": "32"
      },
      "t_contract(AaveLendingPoolAddressesProvider)4702": {
        "encoding": "inplace",
        "label": "contract AaveLendingPoolAddressesProvider",
        "numberOfBytes": "20"
      },
      "t_contract(CToken)5560": {
        "encoding": "inplace",
        "label": "contract CToken",
        "numberOfBytes": "20"
      },
      "t_contract(ISwapManager)5430": {
        "encoding": "inplace",
        "label": "contract ISwapManager",
        "numberOfBytes": "20"
      },
      "t_mapping(t_bytes32,t_uint256)": {
        "encoding": "mapping",
        "key": "t_bytes32",
        "label": "mapping(bytes32 => uint256)",
        "numberOfBytes": "32",
        "value": "t_uint256"
      },
      "t_string_storage": {
        "encoding": "bytes",
        "label": "string",
        "numberOfBytes": "32"
      },
      "t_struct(AddressSet)4399_storage": {
        "encoding": "inplace",
        "label": "struct EnumerableSet.AddressSet",
        "members": [
          {
            "astId": 4398,
            "contract": "contracts/strategies/compound/BenqiLeverageStrategy.sol:BenqiLeverageStrategy",
            "label": "_inner",
            "offset": 0,
            "slot": "0",
            "type": "t_struct(Set)4098_storage"
          }
        ],
        "numberOfBytes": "64"
      },
      "t_struct(Set)4098_storage": {
        "encoding": "inplace",
        "label": "struct EnumerableSet.Set",
        "members": [
          {
            "astId": 4093,
            "contract": "contracts/strategies/compound/BenqiLeverageStrategy.sol:BenqiLeverageStrategy",
            "label": "_values",
            "offset": 0,
            "slot": "0",
            "type": "t_array(t_bytes32)dyn_storage"
          },
          {
            "astId": 4097,
            "contract": "contracts/strategies/compound/BenqiLeverageStrategy.sol:BenqiLeverageStrategy",
            "label": "_indexes",
            "offset": 0,
            "slot": "1",
            "type": "t_mapping(t_bytes32,t_uint256)"
          }
        ],
        "numberOfBytes": "64"
      },
      "t_uint256": {
        "encoding": "inplace",
        "label": "uint256",
        "numberOfBytes": "32"
      }
    }
  }
}