{
  "address": "0xBDdb3D0CD69Ff81E46ccb283C128D9C5C50C8840",
  "abi": [
    {
      "inputs": [
        {
          "internalType": "address",
          "name": "_pool",
          "type": "address"
        },
        {
          "internalType": "address",
          "name": "_swapManager",
          "type": "address"
        },
        {
          "internalType": "address",
          "name": "_comptroller",
          "type": "address"
        },
        {
          "internalType": "address",
          "name": "_rewardDistributor",
          "type": "address"
        },
        {
          "internalType": "address",
          "name": "_rewardToken",
          "type": "address"
        },
        {
          "internalType": "address",
          "name": "_receiptToken",
          "type": "address"
        },
        {
          "internalType": "string",
          "name": "_name",
          "type": "string"
        }
      ],
      "stateMutability": "nonpayable",
      "type": "constructor"
    },
    {
      "anonymous": false,
      "inputs": [
        {
          "indexed": true,
          "internalType": "address",
          "name": "_oldRewardDistributor",
          "type": "address"
        },
        {
          "indexed": true,
          "internalType": "address",
          "name": "_newRewardDistributor",
          "type": "address"
        }
      ],
      "name": "RewardDistributorUpdated",
      "type": "event"
    },
    {
      "anonymous": false,
      "inputs": [
        {
          "indexed": true,
          "internalType": "address",
          "name": "previousFeeCollector",
          "type": "address"
        },
        {
          "indexed": true,
          "internalType": "address",
          "name": "newFeeCollector",
          "type": "address"
        }
      ],
      "name": "UpdatedFeeCollector",
      "type": "event"
    },
    {
      "anonymous": false,
      "inputs": [
        {
          "indexed": false,
          "internalType": "uint256",
          "name": "oldPeriod",
          "type": "uint256"
        },
        {
          "indexed": false,
          "internalType": "uint256",
          "name": "newPeriod",
          "type": "uint256"
        },
        {
          "indexed": false,
          "internalType": "uint256",
          "name": "oldRouterIdx",
          "type": "uint256"
        },
        {
          "indexed": false,
          "internalType": "uint256",
          "name": "newRouterIdx",
          "type": "uint256"
        }
      ],
      "name": "UpdatedOracleConfig",
      "type": "event"
    },
    {
      "anonymous": false,
      "inputs": [
        {
          "indexed": true,
          "internalType": "address",
          "name": "previousSwapManager",
          "type": "address"
        },
        {
          "indexed": true,
          "internalType": "address",
          "name": "newSwapManager",
          "type": "address"
        }
      ],
      "name": "UpdatedSwapManager",
      "type": "event"
    },
    {
      "anonymous": false,
      "inputs": [
        {
          "indexed": false,
          "internalType": "uint256",
          "name": "oldSwapSlippage",
          "type": "uint256"
        },
        {
          "indexed": false,
          "internalType": "uint256",
          "name": "newSwapSlippage",
          "type": "uint256"
        }
      ],
      "name": "UpdatedSwapSlippage",
      "type": "event"
    },
    {
      "inputs": [],
      "name": "COMPTROLLER",
      "outputs": [
        {
          "internalType": "contract Comptroller",
          "name": "",
          "type": "address"
        }
      ],
      "stateMutability": "view",
      "type": "function"
    },
    {
      "inputs": [],
      "name": "NAME",
      "outputs": [
        {
          "internalType": "string",
          "name": "",
          "type": "string"
        }
      ],
      "stateMutability": "view",
      "type": "function"
    },
    {
      "inputs": [],
      "name": "VERSION",
      "outputs": [
        {
          "internalType": "string",
          "name": "",
          "type": "string"
        }
      ],
      "stateMutability": "view",
      "type": "function"
    },
    {
      "inputs": [
        {
          "internalType": "address",
          "name": "_keeperAddress",
          "type": "address"
        }
      ],
      "name": "addKeeper",
      "outputs": [],
      "stateMutability": "nonpayable",
      "type": "function"
    },
    {
      "inputs": [],
      "name": "approveToken",
      "outputs": [],
      "stateMutability": "nonpayable",
      "type": "function"
    },
    {
      "inputs": [],
      "name": "collateralToken",
      "outputs": [
        {
          "internalType": "contract IERC20",
          "name": "",
          "type": "address"
        }
      ],
      "stateMutability": "view",
      "type": "function"
    },
    {
      "inputs": [],
      "name": "feeCollector",
      "outputs": [
        {
          "internalType": "address",
          "name": "",
          "type": "address"
        }
      ],
      "stateMutability": "view",
      "type": "function"
    },
    {
      "inputs": [
        {
          "internalType": "address",
          "name": "_token",
          "type": "address"
        }
      ],
      "name": "isReservedToken",
      "outputs": [
        {
          "internalType": "bool",
          "name": "",
          "type": "bool"
        }
      ],
      "stateMutability": "view",
      "type": "function"
    },
    {
      "inputs": [],
      "name": "keepers",
      "outputs": [
        {
          "internalType": "address[]",
          "name": "",
          "type": "address[]"
        }
      ],
      "stateMutability": "view",
      "type": "function"
    },
    {
      "inputs": [
        {
          "internalType": "address",
          "name": "_newStrategy",
          "type": "address"
        }
      ],
      "name": "migrate",
      "outputs": [],
      "stateMutability": "nonpayable",
      "type": "function"
    },
    {
      "inputs": [],
      "name": "oraclePeriod",
      "outputs": [
        {
          "internalType": "uint256",
          "name": "",
          "type": "uint256"
        }
      ],
      "stateMutability": "view",
      "type": "function"
    },
    {
      "inputs": [],
      "name": "oracleRouterIdx",
      "outputs": [
        {
          "internalType": "uint256",
          "name": "",
          "type": "uint256"
        }
      ],
      "stateMutability": "view",
      "type": "function"
    },
    {
      "inputs": [],
      "name": "pool",
      "outputs": [
        {
          "internalType": "address",
          "name": "",
          "type": "address"
        }
      ],
      "stateMutability": "view",
      "type": "function"
    },
    {
      "inputs": [],
      "name": "rebalance",
      "outputs": [],
      "stateMutability": "nonpayable",
      "type": "function"
    },
    {
      "inputs": [],
      "name": "receiptToken",
      "outputs": [
        {
          "internalType": "address",
          "name": "",
          "type": "address"
        }
      ],
      "stateMutability": "view",
      "type": "function"
    },
    {
      "inputs": [
        {
          "internalType": "address",
          "name": "_keeperAddress",
          "type": "address"
        }
      ],
      "name": "removeKeeper",
      "outputs": [],
      "stateMutability": "nonpayable",
      "type": "function"
    },
    {
      "inputs": [],
      "name": "rewardDistributor",
      "outputs": [
        {
          "internalType": "address",
          "name": "",
          "type": "address"
        }
      ],
      "stateMutability": "view",
      "type": "function"
    },
    {
      "inputs": [],
      "name": "rewardToken",
      "outputs": [
        {
          "internalType": "address",
          "name": "",
          "type": "address"
        }
      ],
      "stateMutability": "view",
      "type": "function"
    },
    {
      "inputs": [],
      "name": "setupOracles",
      "outputs": [],
      "stateMutability": "nonpayable",
      "type": "function"
    },
    {
      "inputs": [],
      "name": "swapManager",
      "outputs": [
        {
          "internalType": "contract ISwapManager",
          "name": "",
          "type": "address"
        }
      ],
      "stateMutability": "view",
      "type": "function"
    },
    {
      "inputs": [],
      "name": "swapSlippage",
      "outputs": [
        {
          "internalType": "uint256",
          "name": "",
          "type": "uint256"
        }
      ],
      "stateMutability": "view",
      "type": "function"
    },
    {
      "inputs": [
        {
          "internalType": "address",
          "name": "_fromToken",
          "type": "address"
        }
      ],
      "name": "sweepERC20",
      "outputs": [],
      "stateMutability": "nonpayable",
      "type": "function"
    },
    {
      "inputs": [],
      "name": "token",
      "outputs": [
        {
          "internalType": "address",
          "name": "",
          "type": "address"
        }
      ],
      "stateMutability": "view",
      "type": "function"
    },
    {
      "inputs": [],
      "name": "totalValue",
      "outputs": [
        {
          "internalType": "uint256",
          "name": "_totalValue",
          "type": "uint256"
        }
      ],
      "stateMutability": "view",
      "type": "function"
    },
    {
      "inputs": [],
      "name": "totalValueCurrent",
      "outputs": [
        {
          "internalType": "uint256",
          "name": "_totalValue",
          "type": "uint256"
        }
      ],
      "stateMutability": "nonpayable",
      "type": "function"
    },
    {
      "inputs": [
        {
          "internalType": "address",
          "name": "_feeCollector",
          "type": "address"
        }
      ],
      "name": "updateFeeCollector",
      "outputs": [],
      "stateMutability": "nonpayable",
      "type": "function"
    },
    {
      "inputs": [
        {
          "internalType": "uint256",
          "name": "_newPeriod",
          "type": "uint256"
        },
        {
          "internalType": "uint256",
          "name": "_newRouterIdx",
          "type": "uint256"
        }
      ],
      "name": "updateOracleConfig",
      "outputs": [],
      "stateMutability": "nonpayable",
      "type": "function"
    },
    {
      "inputs": [
        {
          "internalType": "address",
          "name": "_newRewardDistributor",
          "type": "address"
        }
      ],
      "name": "updateRewardDistributor",
      "outputs": [],
      "stateMutability": "nonpayable",
      "type": "function"
    },
    {
      "inputs": [
        {
          "internalType": "address",
          "name": "_swapManager",
          "type": "address"
        }
      ],
      "name": "updateSwapManager",
      "outputs": [],
      "stateMutability": "nonpayable",
      "type": "function"
    },
    {
      "inputs": [
        {
          "internalType": "uint256",
          "name": "_newSwapSlippage",
          "type": "uint256"
        }
      ],
      "name": "updateSwapSlippage",
      "outputs": [],
      "stateMutability": "nonpayable",
      "type": "function"
    },
    {
      "inputs": [
        {
          "internalType": "uint256",
          "name": "_amount",
          "type": "uint256"
        }
      ],
      "name": "withdraw",
      "outputs": [],
      "stateMutability": "nonpayable",
      "type": "function"
    },
    {
      "stateMutability": "payable",
      "type": "receive"
    }
  ],
  "transactionHash": "0x44af25a7dd058276dba9cfb16f9b074e3981f7ac8342151635b8be40141527a2",
  "args": [
    "0xba3Fb2277c7b33D1C3E1b558cf8060bc7443b13d",
    "0xEbedFD259c9FB1F5c0ab9A9f24E79F8d80E29B23",
    "0xdc13687554205E5b89Ac783db14bb5bba4A1eDaC",
    "0x45B2C4139d96F44667577C0D7F7a7D170B420324",
    "0x6e84a6216eA6dACC71eE8E6b0a5B7322EEbC0fDd",
    "0x3fE38b7b610C0ACD10296fEf69d9b18eB7a9eB1F",
    "TraderJoeCompoundStrategyAvalancheWBTC"
  ],
  "solcInputHash": "f1902af1d2c660c4f390e3909e0271a1",
  "bytecode": "0x60e0604052600080546001600160a01b03191673c02aaa39b223fe8d0a0e5c4f27ead9083c756cc2178155610e106004556005556127106006553480156200004657600080fd5b5060405162003f9e38038062003f9e8339810160408190526200006991620004d5565b8686868585858585836001600160a01b038316620000ce5760405162461bcd60e51b815260206004820152601460248201527f706f6f6c2d616464726573732d69732d7a65726f00000000000000000000000060448201526064015b60405180910390fd5b6001600160a01b0382166200011b5760405162461bcd60e51b8152602060048201526012602482015271736d2d616464726573732d69732d7a65726f60701b6044820152606401620000c5565b600380546001600160a01b0319166001600160a01b0384811691909117909155606084901b6001600160601b03191660a05260408051637e062a3560e11b815290519185169163fc0c546a91600480820192602092909190829003018186803b1580156200018857600080fd5b505afa1580156200019d573d6000803e3d6000fd5b505050506040513d601f19601f82011682018060405250810190620001c3919062000630565b60601b6001600160601b031916608052600180546001600160a01b0319166001600160a01b03831617905562000210620001fa3390565b6007620003bd60201b620017fc1790919060201c565b620002525760405162461bcd60e51b81526020600482015260116024820152701859190b5ad9595c195c8b59985a5b1959607a1b6044820152606401620000c5565b5050506001600160a01b038216620002ad5760405162461bcd60e51b815260206004820152601660248201527f63546f6b656e2d616464726573732d69732d7a65726f000000000000000000006044820152606401620000c5565b600a80546001600160a01b0319166001600160a01b0384161790556127106006558051620002e39060099060208401906200042f565b50505060609190911b6001600160601b03191660c052600b80546001600160a01b03199081166001600160a01b03938416179091556000805473b31f66aa3c1e785363f0875a1b74e27b85fd66c792169190911790558616151591506200038f90505760405162461bcd60e51b815260206004820152601f60248201527f696e76616c69642d7265776172642d6469737472696275746f722d61646472006044820152606401620000c5565b5050600c80546001600160a01b0319166001600160a01b03939093169290921790915550620006c292505050565b6000620003d4836001600160a01b038416620003dd565b90505b92915050565b60008181526001830160205260408120546200042657508154600181810184556000848152602080822090930184905584548482528286019093526040902091909155620003d7565b506000620003d7565b8280546200043d9062000656565b90600052602060002090601f016020900481019282620004615760008555620004ac565b82601f106200047c57805160ff1916838001178555620004ac565b82800160010185558215620004ac579182015b82811115620004ac5782518255916020019190600101906200048f565b50620004ba929150620004be565b5090565b5b80821115620004ba5760008155600101620004bf565b600080600080600080600060e0888a031215620004f0578283fd5b8751620004fd81620006a9565b809750506020808901516200051281620006a9565b60408a01519097506200052581620006a9565b60608a01519096506200053881620006a9565b60808a01519095506200054b81620006a9565b60a08a01519094506200055e81620006a9565b60c08a01519093506001600160401b03808211156200057b578384fd5b818b0191508b601f8301126200058f578384fd5b815181811115620005a457620005a462000693565b604051601f8201601f19908116603f01168101908382118183101715620005cf57620005cf62000693565b816040528281528e86848701011115620005e7578687fd5b8693505b828410156200060a5784840186015181850187015292850192620005eb565b828411156200061b57868684830101525b80965050505050505092959891949750929550565b60006020828403121562000642578081fd5b81516200064f81620006a9565b9392505050565b600181811c908216806200066b57607f821691505b602082108114156200068d57634e487b7160e01b600052602260045260246000fd5b50919050565b634e487b7160e01b600052604160045260246000fd5b6001600160a01b0381168114620006bf57600080fd5b50565b60805160601c60a05160601c60c05160601c6137d8620007c66000396000818161031001528181612c6a0152612ce90152600081816101dc015281816105ba015281816106d6015281816107260152818161094101528181610af401528181610ca401528181610deb0152818161104e015281816110eb0152818161133f0152818161183e015281816118d301528181611973015261273e0152600081816104470152818161127201528181611316015281816115a80152818161185f01528181611a5101528181611bc801528181611df201528181611e5801528181611ff001528181612488015281816125cc0152818161271c015261277401526137d86000f3fe60806040526004361061019c5760003560e01c8063a3f4df7e116100e2578063d2c35ce811610085578063d2c35ce8146104bf578063d4c3eea0146104df578063e00af4a7146104f4578063e645c20214610514578063ec78e83214610529578063f7c618c114610549578063fc0c546a14610569578063ffa1ad7414610587576101a3565b8063a3f4df7e146103be578063a923b2a6146103e0578063aa10188614610400578063acc2166a14610415578063b2016bd414610435578063c415b95c14610469578063cd2d7ebe14610489578063ce5494bb1461049f576101a3565b8063497cd4261161014a578063497cd426146102be5780634c36fad7146102de5780635f82c67e146102fe57806367f5e4b814610332578063709d039d146103525780637d7c2a1c14610372578063951dc22c1461038757806399b71d5c146103a9576101a3565b806314ae9f2e146101a857806316f0115b146101ca5780631aedeabe146102145780632e1a7d4d146102385780634032b72b1461025857806342189c8f14610278578063440d72481461028e576101a3565b366101a357005b600080fd5b3480156101b457600080fd5b506101c86101c336600461327f565b6105b8565b005b3480156101d657600080fd5b506101fe7f000000000000000000000000000000000000000000000000000000000000000081565b60405161020b91906134ad565b60405180910390f35b34801561022057600080fd5b5061022a60065481565b60405190815260200161020b565b34801561024457600080fd5b506101c86102533660046133fd565b6106d3565b34801561026457600080fd5b506101c861027336600461327f565b610724565b34801561028457600080fd5b5061022a60045481565b34801561029a57600080fd5b506102ae6102a936600461327f565b610830565b604051901515815260200161020b565b3480156102ca57600080fd5b506101c86102d936600461327f565b610864565b3480156102ea57600080fd5b506101c86102f936600461327f565b61093f565b34801561030a57600080fd5b506101fe7f000000000000000000000000000000000000000000000000000000000000000081565b34801561033e57600080fd5b506101c861034d3660046133fd565b610af2565b34801561035e57600080fd5b506003546101fe906001600160a01b031681565b34801561037e57600080fd5b506101c8610c3e565b34801561039357600080fd5b5061039c610d0d565b60405161020b91906134ea565b3480156103b557600080fd5b506101c8610d1f565b3480156103ca57600080fd5b506103d3610d5b565b60405161020b9190613519565b3480156103ec57600080fd5b506101c86103fb36600461342d565b610de9565b34801561040c57600080fd5b506101c861101e565b34801561042157600080fd5b50600c546101fe906001600160a01b031681565b34801561044157600080fd5b506101fe7f000000000000000000000000000000000000000000000000000000000000000081565b34801561047557600080fd5b506002546101fe906001600160a01b031681565b34801561049557600080fd5b5061022a60055481565b3480156104ab57600080fd5b506101c86104ba36600461327f565b61104b565b3480156104cb57600080fd5b506101c86104da36600461327f565b61133d565b3480156104eb57600080fd5b5061022a611506565b34801561050057600080fd5b506101c861050f36600461327f565b611531565b34801561052057600080fd5b5061022a611755565b34801561053557600080fd5b506001546101fe906001600160a01b031681565b34801561055557600080fd5b50600b546101fe906001600160a01b031681565b34801561057557600080fd5b506001546001600160a01b03166101fe565b34801561059357600080fd5b506103d3604051806040016040528060058152602001640342e302e360dc1b81525081565b7f00000000000000000000000000000000000000000000000000000000000000006001600160a01b0316630c340a246040518163ffffffff1660e01b815260040160206040518083038186803b15801561061157600080fd5b505afa158015610625573d6000803e3d6000fd5b505050506040513d601f19601f82011682018060405250810190610649919061329b565b6001600160a01b0316336001600160a01b0316146106825760405162461bcd60e51b81526004016106799061357c565b60405180910390fd5b61068d60078261181a565b6106d05760405162461bcd60e51b81526020600482015260146024820152731c995b5bdd994b5ad9595c195c8b59985a5b195960621b6044820152606401610679565b50565b337f00000000000000000000000000000000000000000000000000000000000000006001600160a01b03161461071b5760405162461bcd60e51b8152600401610679906135b3565b6106d08161182f565b7f00000000000000000000000000000000000000000000000000000000000000006001600160a01b0316630c340a246040518163ffffffff1660e01b815260040160206040518083038186803b15801561077d57600080fd5b505afa158015610791573d6000803e3d6000fd5b505050506040513d601f19601f820116820180604052508101906107b5919061329b565b6001600160a01b0316336001600160a01b0316146107e55760405162461bcd60e51b81526004016106799061357c565b6107f06007826117fc565b6106d05760405162461bcd60e51b81526020600482015260116024820152701859190b5ad9595c195c8b59985a5b1959607a1b6044820152606401610679565b600a546000906001600160a01b038381169116148061085c5750600b546001600160a01b038381169116145b90505b919050565b610871335b6007906118a9565b61088d5760405162461bcd60e51b81526004016106799061354c565b6001600160a01b0381166108e35760405162461bcd60e51b815260206004820152601f60248201527f696e76616c69642d7265776172642d6469737472696275746f722d61646472006044820152606401610679565b600c546040516001600160a01b038084169216907f1df95772db25c427e0df149fe4cd5b7c2e970e096ee7305ff86f6e1167281d7b90600090a3600c80546001600160a01b0319166001600160a01b0392909216919091179055565b7f00000000000000000000000000000000000000000000000000000000000000006001600160a01b0316630c340a246040518163ffffffff1660e01b815260040160206040518083038186803b15801561099857600080fd5b505afa1580156109ac573d6000803e3d6000fd5b505050506040513d601f19601f820116820180604052508101906109d0919061329b565b6001600160a01b0316336001600160a01b031614610a005760405162461bcd60e51b81526004016106799061357c565b6001600160a01b038116610a4b5760405162461bcd60e51b8152602060048201526012602482015271736d2d616464726573732d69732d7a65726f60701b6044820152606401610679565b6003546001600160a01b0382811691161415610a965760405162461bcd60e51b815260206004820152600a602482015269736d2d69732d73616d6560b01b6044820152606401610679565b6003546040516001600160a01b038084169216907f2d19927e7cac08ceb98b38898a4fdff6da6a27295b9a2d62fe250408ebe044e190600090a3600380546001600160a01b0319166001600160a01b0392909216919091179055565b7f00000000000000000000000000000000000000000000000000000000000000006001600160a01b0316630c340a246040518163ffffffff1660e01b815260040160206040518083038186803b158015610b4b57600080fd5b505afa158015610b5f573d6000803e3d6000fd5b505050506040513d601f19601f82011682018060405250810190610b83919061329b565b6001600160a01b0316336001600160a01b031614610bb35760405162461bcd60e51b81526004016106799061357c565b612710811115610bfe5760405162461bcd60e51b8152602060048201526016602482015275696e76616c69642d736c6970706167652d76616c756560501b6044820152606401610679565b60065460408051918252602082018390527ef1c5db862c7598b3b6765552ca951f498611e06412c2d57f8d0b58f82e7f82910160405180910390a1600655565b610c4733610869565b610c635760405162461bcd60e51b81526004016106799061354c565b6000806000610c706118cb565b6040516302df682360e11b815260048101849052602481018390526044810182905292955090935091506001600160a01b037f000000000000000000000000000000000000000000000000000000000000000016906305bed04690606401600060405180830381600087803b158015610ce857600080fd5b505af1158015610cfc573d6000803e3d6000fd5b50505050610d08611a37565b505050565b6060610d196007611ba9565b90505b90565b610d2833610869565b610d445760405162461bcd60e51b81526004016106799061354c565b610d4e6000611bbd565b610d59600019611bbd565b565b60098054610d6890613711565b80601f0160208091040260200160405190810160405280929190818152602001828054610d9490613711565b8015610de15780601f10610db657610100808354040283529160200191610de1565b820191906000526020600020905b815481529060010190602001808311610dc457829003601f168201915b505050505081565b7f00000000000000000000000000000000000000000000000000000000000000006001600160a01b0316630c340a246040518163ffffffff1660e01b815260040160206040518083038186803b158015610e4257600080fd5b505afa158015610e56573d6000803e3d6000fd5b505050506040513d601f19601f82011682018060405250810190610e7a919061329b565b6001600160a01b0316336001600160a01b031614610eaa5760405162461bcd60e51b81526004016106799061357c565b600360009054906101000a90046001600160a01b03166001600160a01b031663c2fba6676040518163ffffffff1660e01b815260040160206040518083038186803b158015610ef857600080fd5b505afa158015610f0c573d6000803e3d6000fd5b505050506040513d601f19601f82011682018060405250810190610f309190613415565b8110610f755760405162461bcd60e51b81526020600482015260146024820152730d2dcecc2d8d2c85ae4deeae8cae45ad2dcc8caf60631b6044820152606401610679565b81610f805760045491505b603b8211610fc85760405162461bcd60e51b81526020600482015260156024820152741a5b9d985b1a590b5bdc9858db194b5c195c9a5bd9605a1b6044820152606401610679565b6004546005546040805192835260208301859052820152606081018290527f83bc5ab8030537fcf1d29c2334f6d22c26c82dcbe5ff03923d2cff5c692c0a7f9060800160405180910390a1600491909155600555565b61102733610869565b6110435760405162461bcd60e51b81526004016106799061354c565b610d59611d46565b337f00000000000000000000000000000000000000000000000000000000000000006001600160a01b0316146110935760405162461bcd60e51b8152600401610679906135b3565b6001600160a01b0381166110e95760405162461bcd60e51b815260206004820152601c60248201527f6e65772d73747261746567792d616464726573732d69732d7a65726f000000006044820152606401610679565b7f00000000000000000000000000000000000000000000000000000000000000006001600160a01b0316816001600160a01b03166316f0115b6040518163ffffffff1660e01b815260040160206040518083038186803b15801561114c57600080fd5b505afa158015611160573d6000803e3d6000fd5b505050506040513d601f19601f82011682018060405250810190611184919061329b565b6001600160a01b0316146111d35760405162461bcd60e51b81526020600482015260166024820152756e6f742d76616c69642d6e65772d737472617465677960501b6044820152606401610679565b6001546040516370a0823160e01b815261126c9183916001600160a01b03909116906370a08231906112099030906004016134ad565b60206040518083038186803b15801561122157600080fd5b505afa158015611235573d6000803e3d6000fd5b505050506040513d601f19601f820116820180604052508101906112599190613415565b6001546001600160a01b03169190611ed4565b6106d0817f00000000000000000000000000000000000000000000000000000000000000006001600160a01b03166370a08231306040518263ffffffff1660e01b81526004016112bc91906134ad565b60206040518083038186803b1580156112d457600080fd5b505afa1580156112e8573d6000803e3d6000fd5b505050506040513d601f19601f8201168201806040525081019061130c9190613415565b6001600160a01b037f0000000000000000000000000000000000000000000000000000000000000000169190611ed4565b7f00000000000000000000000000000000000000000000000000000000000000006001600160a01b0316630c340a246040518163ffffffff1660e01b815260040160206040518083038186803b15801561139657600080fd5b505afa1580156113aa573d6000803e3d6000fd5b505050506040513d601f19601f820116820180604052508101906113ce919061329b565b6001600160a01b0316336001600160a01b0316146113fe5760405162461bcd60e51b81526004016106799061357c565b6001600160a01b0381166114545760405162461bcd60e51b815260206004820152601d60248201527f6665652d636f6c6c6563746f722d616464726573732d69732d7a65726f0000006044820152606401610679565b6002546001600160a01b03828116911614156114aa5760405162461bcd60e51b81526020600482015260156024820152746665652d636f6c6c6563746f722d69732d73616d6560581b6044820152606401610679565b6002546040516001600160a01b038084169216907f0f06062680f9bd68e786e9980d9bb03d73d5620fc3b345e417b6eacb310b970690600090a3600280546001600160a01b0319166001600160a01b0392909216919091179055565b600b54600090610d19906001600160a01b031661152457600061152c565b61152c611f37565b611fba565b61153a33610869565b6115565760405162461bcd60e51b81526004016106799061354c565b6002546001600160a01b03166115a65760405162461bcd60e51b81526020600482015260156024820152741999594b58dbdb1b1958dd1bdc8b5b9bdd0b5cd95d605a1b6044820152606401610679565b7f00000000000000000000000000000000000000000000000000000000000000006001600160a01b0316816001600160a01b031614156116285760405162461bcd60e51b815260206004820152601f60248201527f6e6f742d616c6c6f7765642d746f2d73776565702d636f6c6c61746572616c006044820152606401610679565b61163181610830565b156116755760405162461bcd60e51b815260206004820152601460248201527306e6f742d616c6c6f7765642d746f2d73776565760641b6044820152606401610679565b6001600160a01b03811673eeeeeeeeeeeeeeeeeeeeeeeeeeeeeeeeeeeeeeee14156116b5576002546116b0906001600160a01b031647612106565b6106d0565b6040516370a0823160e01b81526000906001600160a01b038316906370a08231906116e49030906004016134ad565b60206040518083038186803b1580156116fc57600080fd5b505afa158015611710573d6000803e3d6000fd5b505050506040513d601f19601f820116820180604052508101906117349190613415565b600254909150611751906001600160a01b03848116911683611ed4565b5050565b600b546000906001600160a01b0316156117f257600b546040516370a0823160e01b81526117eb916001600160a01b0316906370a082319061179b9030906004016134ad565b60206040518083038186803b1580156117b357600080fd5b505afa1580156117c7573d6000803e3d6000fd5b505050506040513d601f19601f8201168201806040525081019061152c9190613415565b9050610d1c565b610d196000611fba565b6000611811836001600160a01b03841661221f565b90505b92915050565b6000611811836001600160a01b03841661226e565b6118388161238b565b506106d07f00000000000000000000000000000000000000000000000000000000000000007f00000000000000000000000000000000000000000000000000000000000000006001600160a01b03166370a08231306040518263ffffffff1660e01b81526004016112bc91906134ad565b6001600160a01b03811660009081526001830160205260408120541515611811565b6000806000807f00000000000000000000000000000000000000000000000000000000000000006001600160a01b031663d53ddc26306040518263ffffffff1660e01b815260040161191d91906134ad565b60206040518083038186803b15801561193557600080fd5b505afa158015611949573d6000803e3d6000fd5b505050506040513d601f19601f8201168201806040525081019061196d9190613415565b905060007f00000000000000000000000000000000000000000000000000000000000000006001600160a01b0316639f2b2833306040518263ffffffff1660e01b81526004016119bd91906134ad565b60206040518083038186803b1580156119d557600080fd5b505afa1580156119e9573d6000803e3d6000fd5b505050506040513d601f19601f82011682018060405250810190611a0d9190613415565b9050611a1881612481565b9450611a2381612651565b9350611a2e826126a2565b92505050909192565b6040516370a0823160e01b81526000906001600160a01b037f000000000000000000000000000000000000000000000000000000000000000016906370a0823190611a869030906004016134ad565b60206040518083038186803b158015611a9e57600080fd5b505afa158015611ab2573d6000803e3d6000fd5b505050506040513d601f19601f82011682018060405250810190611ad69190613415565b905080156106d057600a5460405163140e25ad60e31b8152600481018390526001600160a01b039091169063a0712d6890602401602060405180830381600087803b158015611b2457600080fd5b505af1158015611b38573d6000803e3d6000fd5b505050506040513d601f19601f82011682018060405250810190611b5c9190613415565b156106d05760405162461bcd60e51b815260206004820152601a60248201527f6465706f7369742d746f2d636f6d706f756e642d6661696c65640000000000006044820152606401610679565b60606000611bb6836126b3565b9392505050565b611bc68161270f565b7f00000000000000000000000000000000000000000000000000000000000000006001600160a01b031673b31f66aa3c1e785363f0875a1b74e27b85fd66c7146106d05760005b600360009054906101000a90046001600160a01b03166001600160a01b031663c2fba6676040518163ffffffff1660e01b815260040160206040518083038186803b158015611c5b57600080fd5b505afa158015611c6f573d6000803e3d6000fd5b505050506040513d601f19601f82011682018060405250810190611c939190613415565b81101561175157600354604051636e74a6f760e01b815260048101839052611d34916001600160a01b031690636e74a6f79060240160206040518083038186803b158015611ce057600080fd5b505afa158015611cf4573d6000803e3d6000fd5b505050506040513d601f19601f82011682018060405250810190611d18919061329b565b73b31f66aa3c1e785363f0875a1b74e27b85fd66c790846128e1565b80611d3e81613746565b915050611c0d565b600b546001600160a01b031615611ded57600354600b5460005460048054600554604051630f30f2d360e21b81526001600160a01b0396871696633cc3cb4c96611d9996908216959116939291016134c1565b602060405180830381600087803b158015611db357600080fd5b505af1158015611dc7573d6000803e3d6000fd5b505050506040513d601f19601f82011682018060405250810190611deb919061329b565b505b6000547f00000000000000000000000000000000000000000000000000000000000000006001600160a01b03908116911614610d595760035460005460048054600554604051630f30f2d360e21b81526001600160a01b0395861695633cc3cb4c95611e82959116937f00000000000000000000000000000000000000000000000000000000000000009390929091016134c1565b602060405180830381600087803b158015611e9c57600080fd5b505af1158015611eb0573d6000803e3d6000fd5b505050506040513d601f19601f820116820180604052508101906106d0919061329b565b6040516001600160a01b038316602482015260448101829052610d0890849063a9059cbb60e01b906064015b60408051601f198184030181529190526020810180516001600160e01b03166001600160e01b031990931692909217909152612a05565b600c546040516305b9783d60e01b81526000916001600160a01b0316906305b9783d90611f6a90849030906004016134fd565b60206040518083038186803b158015611f8257600080fd5b505afa158015611f96573d6000803e3d6000fd5b505050506040513d601f19601f82011682018060405250810190610d199190613415565b6000811561207557600354600b546040516340b4c54560e11b81526001600160a01b03928316926381698a8a9261201d929116907f00000000000000000000000000000000000000000000000000000000000000009087906000906004016134c1565b60006040518083038186803b15801561203557600080fd5b505afa158015612049573d6000803e3d6000fd5b505050506040513d6000823e601f3d908101601f1916820160405261207191908101906132b7565b9150505b600a546040516370a0823160e01b81526120fc916001600160a01b0316906370a08231906120a79030906004016134ad565b60206040518083038186803b1580156120bf57600080fd5b505afa1580156120d3573d6000803e3d6000fd5b505050506040513d601f19601f820116820180604052508101906120f79190613415565b612ad7565b61085c9082613677565b804710156121565760405162461bcd60e51b815260206004820152601d60248201527f416464726573733a20696e73756666696369656e742062616c616e63650000006044820152606401610679565b6000826001600160a01b03168260405160006040518083038185875af1925050503d80600081146121a3576040519150601f19603f3d011682016040523d82523d6000602084013e6121a8565b606091505b5050905080610d085760405162461bcd60e51b815260206004820152603a60248201527f416464726573733a20756e61626c6520746f2073656e642076616c75652c207260448201527f6563697069656e74206d617920686176652072657665727465640000000000006064820152608401610679565b600081815260018301602052604081205461226657508154600181810184556000848152602080822090930184905584548482528286019093526040902091909155611814565b506000611814565b600081815260018301602052604081205480156123815760006122926001836136ce565b85549091506000906122a6906001906136ce565b90508181146123275760008660000182815481106122d457634e487b7160e01b600052603260045260246000fd5b906000526020600020015490508087600001848154811061230557634e487b7160e01b600052603260045260246000fd5b6000918252602080832090910192909255918252600188019052604090208390555b855486908061234657634e487b7160e01b600052603160045260246000fd5b600190038181906000526020600020016000905590558560010160008681526020019081526020016000206000905560019350505050611814565b6000915050611814565b600a546040516370a0823160e01b815260009182916123c2916001600160a01b0316906370a08231906120a79030906004016134ad565b90506000600a60009054906101000a90046001600160a01b03166001600160a01b0316633b1d21a26040518163ffffffff1660e01b815260040160206040518083038186803b15801561241457600080fd5b505afa158015612428573d6000803e3d6000fd5b505050506040513d601f19601f8201168201806040525081019061244c9190613415565b9050600081851061245d578161245f565b845b90506124788382106124715783612473565b815b612b7c565b95945050505050565b60006124ac7f0000000000000000000000000000000000000000000000000000000000000000612c53565b600a546040516370a0823160e01b81526000916124e3916001600160a01b03909116906370a08231906120a79030906004016134ad565b9050828111156125b55760006124f984836136ce565b90506000600a60009054906101000a90046001600160a01b03166001600160a01b031663182df0f56040518163ffffffff1660e01b815260040160206040518083038186803b15801561254b57600080fd5b505afa15801561255f573d6000803e3d6000fd5b505050506040513d601f19601f820116820180604052508101906125839190613415565b61259583670de0b6b3a76400006136af565b61259f919061368f565b905080156125b2576125b082612b7c565b505b50505b6040516370a0823160e01b81526001600160a01b037f000000000000000000000000000000000000000000000000000000000000000016906370a08231906126019030906004016134ad565b60206040518083038186803b15801561261957600080fd5b505afa15801561262d573d6000803e3d6000fd5b505050506040513d601f19601f82011682018060405250810190611bb69190613415565b600a546040516370a0823160e01b81526000918291612688916001600160a01b0316906370a08231906120a79030906004016134ad565b90508281101561269c57611bb681846136ce565b50919050565b6000811561085f5761085c8261238b565b60608160000180548060200260200160405190810160405280929190818152602001828054801561270357602002820191906000526020600020905b8154815260200190600101908083116126ef575b50505050509050919050565b6127636001600160a01b037f0000000000000000000000000000000000000000000000000000000000000000167f0000000000000000000000000000000000000000000000000000000000000000836128e1565b600a5461279d906001600160a01b037f000000000000000000000000000000000000000000000000000000000000000081169116836128e1565b600b546001600160a01b0316156106d05760005b600360009054906101000a90046001600160a01b03166001600160a01b031663c2fba6676040518163ffffffff1660e01b815260040160206040518083038186803b1580156127ff57600080fd5b505afa158015612813573d6000803e3d6000fd5b505050506040513d601f19601f820116820180604052508101906128379190613415565b81101561175157600354604051636e74a6f760e01b8152600481018390526128cf916001600160a01b031690636e74a6f79060240160206040518083038186803b15801561288457600080fd5b505afa158015612898573d6000803e3d6000fd5b505050506040513d601f19601f820116820180604052508101906128bc919061329b565b600b546001600160a01b031690846128e1565b806128d981613746565b9150506127b1565b80158061296a5750604051636eb1769f60e11b81523060048201526001600160a01b03838116602483015284169063dd62ed3e9060440160206040518083038186803b15801561293057600080fd5b505afa158015612944573d6000803e3d6000fd5b505050506040513d601f19601f820116820180604052508101906129689190613415565b155b6129d55760405162461bcd60e51b815260206004820152603660248201527f5361666545524332303a20617070726f76652066726f6d206e6f6e2d7a65726f60448201527520746f206e6f6e2d7a65726f20616c6c6f77616e636560501b6064820152608401610679565b6040516001600160a01b038316602482015260448101829052610d0890849063095ea7b360e01b90606401611f00565b6000612a5a826040518060400160405280602081526020017f5361666545524332303a206c6f772d6c6576656c2063616c6c206661696c6564815250856001600160a01b0316612eae9092919063ffffffff16565b805190915015610d085780806020019051810190612a7891906133dd565b610d085760405162461bcd60e51b815260206004820152602a60248201527f5361666545524332303a204552433230206f7065726174696f6e20646964206e6044820152691bdd081cdd58d8d9595960b21b6064820152608401610679565b6000670de0b6b3a7640000600a60009054906101000a90046001600160a01b03166001600160a01b031663182df0f56040518163ffffffff1660e01b815260040160206040518083038186803b158015612b3057600080fd5b505afa158015612b44573d6000803e3d6000fd5b505050506040513d601f19601f82011682018060405250810190612b689190613415565b612b7290846136af565b61085c919061368f565b60008115612c4f57600a5460405163852a12e360e01b8152600481018490526001600160a01b039091169063852a12e390602401602060405180830381600087803b158015612bca57600080fd5b505af1158015612bde573d6000803e3d6000fd5b505050506040513d601f19601f82011682018060405250810190612c029190613415565b15612c4f5760405162461bcd60e51b815260206004820152601d60248201527f77697468647261772d66726f6d2d636f6d706f756e642d6661696c65640000006044820152606401610679565b5090565b604051630952c56360e01b81526001600160a01b037f00000000000000000000000000000000000000000000000000000000000000001690630952c56390612ca29060009030906004016134fd565b600060405180830381600087803b158015612cbc57600080fd5b505af1158015612cd0573d6000803e3d6000fd5b5050604051630952c56360e01b81526001600160a01b037f0000000000000000000000000000000000000000000000000000000000000000169250630952c5639150612d239060019030906004016134fd565b600060405180830381600087803b158015612d3d57600080fd5b505af1158015612d51573d6000803e3d6000fd5b5050600b546040516370a0823160e01b8152600093506001600160a01b0390911691506370a0823190612d889030906004016134ad565b60206040518083038186803b158015612da057600080fd5b505afa158015612db4573d6000803e3d6000fd5b505050506040513d601f19601f82011682018060405250810190612dd89190613415565b90508015612df957600b54612df9906001600160a01b031683836001612ec5565b478015610d085773b31f66aa3c1e785363f0875a1b74e27b85fd66c76001600160a01b031663d0e30db0826040518263ffffffff1660e01b81526004016000604051808303818588803b158015612e4f57600080fd5b505af1158015612e63573d6000803e3d6000fd5b505050506001600160a01b03841673b31f66aa3c1e785363f0875a1b74e27b85fd66c7149050610d0857610d0873b31f66aa3c1e785363f0875a1b74e27b85fd66c784836001612ec5565b6060612ebd84846000856130a6565b949350505050565b826001600160a01b0316846001600160a01b03161415612ee4576130a0565b600354604051631d1f307960e31b81526001600160a01b038681166004830152858116602483015260448201859052600092839283929091169063e8f983c89060640160006040518083038186803b158015612f3f57600080fd5b505afa158015612f53573d6000803e3d6000fd5b505050506040513d6000823e601f3d908101601f19168201604052612f7b91908101906132fc565b9250925092508360001415612f8f57600193505b811561309c57600354604051636e74a6f760e01b8152600481018390526001600160a01b0390911690636e74a6f79060240160206040518083038186803b158015612fd957600080fd5b505afa158015612fed573d6000803e3d6000fd5b505050506040513d601f19601f82011682018060405250810190613011919061329b565b6001600160a01b03166338ed173986868630426040518663ffffffff1660e01b81526004016130449594939291906135e6565b600060405180830381600087803b15801561305e57600080fd5b505af1158015613072573d6000803e3d6000fd5b505050506040513d6000823e601f3d908101601f1916820160405261309a919081019061334a565b505b5050505b50505050565b6060824710156131075760405162461bcd60e51b815260206004820152602660248201527f416464726573733a20696e73756666696369656e742062616c616e636520666f6044820152651c8818d85b1b60d21b6064820152608401610679565b843b6131555760405162461bcd60e51b815260206004820152601d60248201527f416464726573733a2063616c6c20746f206e6f6e2d636f6e74726163740000006044820152606401610679565b600080866001600160a01b031685876040516131719190613491565b60006040518083038185875af1925050503d80600081146131ae576040519150601f19603f3d011682016040523d82523d6000602084013e6131b3565b606091505b50915091506131c38282866131ce565b979650505050505050565b606083156131dd575081611bb6565b8251156131ed5782518084602001fd5b8160405162461bcd60e51b81526004016106799190613519565b600082601f830112613217578081fd5b8151602061322c61322783613653565b613622565b80838252828201915082860187848660051b890101111561324b578586fd5b855b858110156132725781516132608161378d565b8452928401929084019060010161324d565b5090979650505050505050565b600060208284031215613290578081fd5b8135611bb68161378d565b6000602082840312156132ac578081fd5b8151611bb68161378d565b600080604083850312156132c9578081fd5b825167ffffffffffffffff8111156132df578182fd5b6132eb85828601613207565b925050602083015190509250929050565b600080600060608486031215613310578081fd5b835167ffffffffffffffff811115613326578182fd5b61333286828701613207565b93505060208401519150604084015190509250925092565b6000602080838503121561335c578182fd5b825167ffffffffffffffff811115613372578283fd5b8301601f81018513613382578283fd5b805161339061322782613653565b80828252848201915084840188868560051b87010111156133af578687fd5b8694505b838510156133d15780518352600194909401939185019185016133b3565b50979650505050505050565b6000602082840312156133ee578081fd5b81518015158114611bb6578182fd5b60006020828403121561340e578081fd5b5035919050565b600060208284031215613426578081fd5b5051919050565b6000806040838503121561343f578182fd5b50508035926020909101359150565b6000815180845260208085019450808401835b838110156134865781516001600160a01b031687529582019590820190600101613461565b509495945050505050565b600082516134a38184602087016136e5565b9190910192915050565b6001600160a01b0391909116815260200190565b6001600160a01b0394851681529290931660208301526040820152606081019190915260800190565b600060208252611811602083018461344e565b60ff9290921682526001600160a01b0316602082015260400190565b60006020825282518060208401526135388160408501602087016136e5565b601f01601f19169190910160400192915050565b60208082526016908201527531b0b63632b916b4b996b737ba16b096b5b2b2b832b960511b604082015260600190565b6020808252601a908201527f63616c6c65722d69732d6e6f742d7468652d676f7665726e6f72000000000000604082015260600190565b60208082526019908201527818d85b1b195c8b5a5ccb5b9bdd0b5d995cdc195c8b5c1bdbdb603a1b604082015260600190565b600086825285602083015260a0604083015261360560a083018661344e565b6001600160a01b0394909416606083015250608001529392505050565b604051601f8201601f1916810167ffffffffffffffff8111828210171561364b5761364b613777565b604052919050565b600067ffffffffffffffff82111561366d5761366d613777565b5060051b60200190565b6000821982111561368a5761368a613761565b500190565b6000826136aa57634e487b7160e01b81526012600452602481fd5b500490565b60008160001904831182151516156136c9576136c9613761565b500290565b6000828210156136e0576136e0613761565b500390565b60005b838110156137005781810151838201526020016136e8565b838111156130a05750506000910152565b600181811c9082168061372557607f821691505b6020821081141561269c57634e487b7160e01b600052602260045260246000fd5b600060001982141561375a5761375a613761565b5060010190565b634e487b7160e01b600052601160045260246000fd5b634e487b7160e01b600052604160045260246000fd5b6001600160a01b03811681146106d057600080fdfea26469706673582212206cfe6d81ef6a0e40b885abdcbb2143bd0c6adfbeb22f47aace5d68ad2532deeb64736f6c63430008030033",
  "devdoc": {
    "kind": "dev",
    "methods": {
      "addKeeper(address)": {
        "params": {
          "_keeperAddress": "keeper address to add."
        }
      },
      "approveToken()": {
        "details": "Approve all required tokens"
      },
      "migrate(address)": {
        "details": "_beforeMigration hook can be implemented in child strategy to do extra steps.",
        "params": {
          "_newStrategy": "Address of new strategy"
        }
      },
      "rebalance()": {
        "details": "Rebalance profit, loss and investment of this strategy"
      },
      "removeKeeper(address)": {
        "params": {
          "_keeperAddress": "keeper address to remove."
        }
      },
      "sweepERC20(address)": {
        "details": "sweep given token to feeCollector of strategy",
        "params": {
          "_fromToken": "token address to sweep"
        }
      },
      "totalValue()": {
        "details": "Report total value in collateral token"
      },
      "totalValueCurrent()": {
        "details": "Report total value in collateral token"
      },
      "updateFeeCollector(address)": {
        "params": {
          "_feeCollector": "fee collector address"
        }
      },
      "updateSwapManager(address)": {
        "params": {
          "_swapManager": "swap manager address"
        }
      },
      "withdraw(uint256)": {
        "details": "Withdraw collateral token from lending pool.",
        "params": {
          "_amount": "Amount of collateral token"
        }
      }
    },
    "title": "This strategy will deposit collateral token in a Compound Fork on avalanche and Earn Interest",
    "version": 1
  },
  "userdoc": {
    "kind": "user",
    "methods": {
      "addKeeper(address)": {
        "notice": "Add given address in keepers list."
      },
      "isReservedToken(address)": {
        "notice": "Check whether given token is reserved or not. Reserved tokens are not allowed to sweep."
      },
      "keepers()": {
        "notice": "Return list of keepers"
      },
      "migrate(address)": {
        "notice": "Migrate all asset and vault ownership,if any, to new strategy"
      },
      "removeKeeper(address)": {
        "notice": "Remove given address from keepers list."
      },
      "token()": {
        "notice": "Returns address of token correspond to collateral token"
      },
      "totalValue()": {
        "notice": "Calculate total value using COMP accrued and cToken"
      },
      "totalValueCurrent()": {
        "notice": "Calculate total value of asset under management (in real-time)"
      },
      "updateFeeCollector(address)": {
        "notice": "Update fee collector"
      },
      "updateSwapManager(address)": {
        "notice": "Update swap manager address"
      }
    },
    "version": 1
  },
  "storageLayout": {
    "storage": [
      {
        "astId": 15117,
        "contract": "contracts/strategies/compound/CompoundMultiRewardAvalancheStrategy.sol:CompoundMultiRewardAvalancheStrategy",
        "label": "WETH",
        "offset": 0,
        "slot": "0",
        "type": "t_address"
      },
      {
        "astId": 15122,
        "contract": "contracts/strategies/compound/CompoundMultiRewardAvalancheStrategy.sol:CompoundMultiRewardAvalancheStrategy",
        "label": "receiptToken",
        "offset": 0,
        "slot": "1",
        "type": "t_address"
      },
      {
        "astId": 15128,
        "contract": "contracts/strategies/compound/CompoundMultiRewardAvalancheStrategy.sol:CompoundMultiRewardAvalancheStrategy",
        "label": "feeCollector",
        "offset": 0,
        "slot": "2",
        "type": "t_address"
      },
      {
        "astId": 15131,
        "contract": "contracts/strategies/compound/CompoundMultiRewardAvalancheStrategy.sol:CompoundMultiRewardAvalancheStrategy",
        "label": "swapManager",
        "offset": 0,
        "slot": "3",
        "type": "t_contract(ISwapManager)5430"
      },
      {
        "astId": 15134,
        "contract": "contracts/strategies/compound/CompoundMultiRewardAvalancheStrategy.sol:CompoundMultiRewardAvalancheStrategy",
        "label": "oraclePeriod",
        "offset": 0,
        "slot": "4",
        "type": "t_uint256"
      },
      {
        "astId": 15137,
        "contract": "contracts/strategies/compound/CompoundMultiRewardAvalancheStrategy.sol:CompoundMultiRewardAvalancheStrategy",
        "label": "oracleRouterIdx",
        "offset": 0,
        "slot": "5",
        "type": "t_uint256"
      },
      {
        "astId": 15140,
        "contract": "contracts/strategies/compound/CompoundMultiRewardAvalancheStrategy.sol:CompoundMultiRewardAvalancheStrategy",
        "label": "swapSlippage",
        "offset": 0,
        "slot": "6",
        "type": "t_uint256"
      },
      {
        "astId": 15143,
        "contract": "contracts/strategies/compound/CompoundMultiRewardAvalancheStrategy.sol:CompoundMultiRewardAvalancheStrategy",
        "label": "_keepers",
        "offset": 0,
        "slot": "7",
        "type": "t_struct(AddressSet)4399_storage"
      },
      {
        "astId": 24480,
        "contract": "contracts/strategies/compound/CompoundMultiRewardAvalancheStrategy.sol:CompoundMultiRewardAvalancheStrategy",
        "label": "NAME",
        "offset": 0,
        "slot": "9",
        "type": "t_string_storage"
      },
      {
        "astId": 24486,
        "contract": "contracts/strategies/compound/CompoundMultiRewardAvalancheStrategy.sol:CompoundMultiRewardAvalancheStrategy",
        "label": "cToken",
        "offset": 0,
        "slot": "10",
        "type": "t_contract(CToken)5560"
      },
      {
        "astId": 24491,
        "contract": "contracts/strategies/compound/CompoundMultiRewardAvalancheStrategy.sol:CompoundMultiRewardAvalancheStrategy",
        "label": "rewardToken",
        "offset": 0,
        "slot": "11",
        "type": "t_address"
      },
      {
        "astId": 24216,
        "contract": "contracts/strategies/compound/CompoundMultiRewardAvalancheStrategy.sol:CompoundMultiRewardAvalancheStrategy",
        "label": "rewardDistributor",
        "offset": 0,
        "slot": "12",
        "type": "t_address"
      }
    ],
    "types": {
      "t_address": {
        "encoding": "inplace",
        "label": "address",
        "numberOfBytes": "20"
      },
      "t_array(t_bytes32)dyn_storage": {
        "base": "t_bytes32",
        "encoding": "dynamic_array",
        "label": "bytes32[]",
        "numberOfBytes": "32"
      },
      "t_bytes32": {
        "encoding": "inplace",
        "label": "bytes32",
        "numberOfBytes": "32"
      },
      "t_contract(CToken)5560": {
        "encoding": "inplace",
        "label": "contract CToken",
        "numberOfBytes": "20"
      },
      "t_contract(ISwapManager)5430": {
        "encoding": "inplace",
        "label": "contract ISwapManager",
        "numberOfBytes": "20"
      },
      "t_mapping(t_bytes32,t_uint256)": {
        "encoding": "mapping",
        "key": "t_bytes32",
        "label": "mapping(bytes32 => uint256)",
        "numberOfBytes": "32",
        "value": "t_uint256"
      },
      "t_string_storage": {
        "encoding": "bytes",
        "label": "string",
        "numberOfBytes": "32"
      },
      "t_struct(AddressSet)4399_storage": {
        "encoding": "inplace",
        "label": "struct EnumerableSet.AddressSet",
        "members": [
          {
            "astId": 4398,
            "contract": "contracts/strategies/compound/CompoundMultiRewardAvalancheStrategy.sol:CompoundMultiRewardAvalancheStrategy",
            "label": "_inner",
            "offset": 0,
            "slot": "0",
            "type": "t_struct(Set)4098_storage"
          }
        ],
        "numberOfBytes": "64"
      },
      "t_struct(Set)4098_storage": {
        "encoding": "inplace",
        "label": "struct EnumerableSet.Set",
        "members": [
          {
            "astId": 4093,
            "contract": "contracts/strategies/compound/CompoundMultiRewardAvalancheStrategy.sol:CompoundMultiRewardAvalancheStrategy",
            "label": "_values",
            "offset": 0,
            "slot": "0",
            "type": "t_array(t_bytes32)dyn_storage"
          },
          {
            "astId": 4097,
            "contract": "contracts/strategies/compound/CompoundMultiRewardAvalancheStrategy.sol:CompoundMultiRewardAvalancheStrategy",
            "label": "_indexes",
            "offset": 0,
            "slot": "1",
            "type": "t_mapping(t_bytes32,t_uint256)"
          }
        ],
        "numberOfBytes": "64"
      },
      "t_uint256": {
        "encoding": "inplace",
        "label": "uint256",
        "numberOfBytes": "32"
      }
    }
  }
}