{
  "address": "0x9E372716651b890fF6B2B32a8cEa04D901948918",
  "abi": [
    {
      "inputs": [
        {
          "internalType": "address",
          "name": "_pool",
          "type": "address"
        },
        {
          "internalType": "address",
          "name": "_swapManager",
          "type": "address"
        },
        {
          "internalType": "address",
          "name": "_comptroller",
          "type": "address"
        },
        {
          "internalType": "address",
          "name": "_rewardDistributor",
          "type": "address"
        },
        {
          "internalType": "address",
          "name": "_rewardToken",
          "type": "address"
        },
        {
          "internalType": "address",
          "name": "_receiptToken",
          "type": "address"
        },
        {
          "internalType": "address",
          "name": "_borrowCToken",
          "type": "address"
        },
        {
          "internalType": "address",
          "name": "_vPool",
          "type": "address"
        },
        {
          "internalType": "address",
          "name": "_vsp",
          "type": "address"
        },
        {
          "internalType": "string",
          "name": "_name",
          "type": "string"
        }
      ],
      "stateMutability": "nonpayable",
      "type": "constructor"
    },
    {
      "anonymous": false,
      "inputs": [
        {
          "indexed": false,
          "internalType": "uint256",
          "name": "previousMinBorrowLimit",
          "type": "uint256"
        },
        {
          "indexed": false,
          "internalType": "uint256",
          "name": "newMinBorrowLimit",
          "type": "uint256"
        },
        {
          "indexed": false,
          "internalType": "uint256",
          "name": "previousMaxBorrowLimit",
          "type": "uint256"
        },
        {
          "indexed": false,
          "internalType": "uint256",
          "name": "newMaxBorrowLimit",
          "type": "uint256"
        }
      ],
      "name": "UpdatedBorrowLimit",
      "type": "event"
    },
    {
      "anonymous": false,
      "inputs": [
        {
          "indexed": true,
          "internalType": "address",
          "name": "previousFeeCollector",
          "type": "address"
        },
        {
          "indexed": true,
          "internalType": "address",
          "name": "newFeeCollector",
          "type": "address"
        }
      ],
      "name": "UpdatedFeeCollector",
      "type": "event"
    },
    {
      "anonymous": false,
      "inputs": [
        {
          "indexed": false,
          "internalType": "uint256",
          "name": "oldPeriod",
          "type": "uint256"
        },
        {
          "indexed": false,
          "internalType": "uint256",
          "name": "newPeriod",
          "type": "uint256"
        },
        {
          "indexed": false,
          "internalType": "uint256",
          "name": "oldRouterIdx",
          "type": "uint256"
        },
        {
          "indexed": false,
          "internalType": "uint256",
          "name": "newRouterIdx",
          "type": "uint256"
        }
      ],
      "name": "UpdatedOracleConfig",
      "type": "event"
    },
    {
      "anonymous": false,
      "inputs": [
        {
          "indexed": true,
          "internalType": "address",
          "name": "previousSwapManager",
          "type": "address"
        },
        {
          "indexed": true,
          "internalType": "address",
          "name": "newSwapManager",
          "type": "address"
        }
      ],
      "name": "UpdatedSwapManager",
      "type": "event"
    },
    {
      "anonymous": false,
      "inputs": [
        {
          "indexed": false,
          "internalType": "uint256",
          "name": "oldSwapSlippage",
          "type": "uint256"
        },
        {
          "indexed": false,
          "internalType": "uint256",
          "name": "newSwapSlippage",
          "type": "uint256"
        }
      ],
      "name": "UpdatedSwapSlippage",
      "type": "event"
    },
    {
      "inputs": [],
      "name": "NAME",
      "outputs": [
        {
          "internalType": "string",
          "name": "",
          "type": "string"
        }
      ],
      "stateMutability": "view",
      "type": "function"
    },
    {
      "inputs": [],
      "name": "VERSION",
      "outputs": [
        {
          "internalType": "string",
          "name": "",
          "type": "string"
        }
      ],
      "stateMutability": "view",
      "type": "function"
    },
    {
      "inputs": [
        {
          "internalType": "address",
          "name": "_keeperAddress",
          "type": "address"
        }
      ],
      "name": "addKeeper",
      "outputs": [],
      "stateMutability": "nonpayable",
      "type": "function"
    },
    {
      "inputs": [],
      "name": "approveToken",
      "outputs": [],
      "stateMutability": "nonpayable",
      "type": "function"
    },
    {
      "inputs": [],
      "name": "borrowBalance",
      "outputs": [
        {
          "internalType": "uint256",
          "name": "",
          "type": "uint256"
        }
      ],
      "stateMutability": "view",
      "type": "function"
    },
    {
      "inputs": [],
      "name": "borrowCToken",
      "outputs": [
        {
          "internalType": "contract CToken",
          "name": "",
          "type": "address"
        }
      ],
      "stateMutability": "view",
      "type": "function"
    },
    {
      "inputs": [],
      "name": "borrowToken",
      "outputs": [
        {
          "internalType": "address",
          "name": "",
          "type": "address"
        }
      ],
      "stateMutability": "view",
      "type": "function"
    },
    {
      "inputs": [],
      "name": "collateralToken",
      "outputs": [
        {
          "internalType": "contract IERC20",
          "name": "",
          "type": "address"
        }
      ],
      "stateMutability": "view",
      "type": "function"
    },
    {
      "inputs": [],
      "name": "comptroller",
      "outputs": [
        {
          "internalType": "contract Comptroller",
          "name": "",
          "type": "address"
        }
      ],
      "stateMutability": "view",
      "type": "function"
    },
    {
      "inputs": [],
      "name": "feeCollector",
      "outputs": [
        {
          "internalType": "address",
          "name": "",
          "type": "address"
        }
      ],
      "stateMutability": "view",
      "type": "function"
    },
    {
      "inputs": [],
      "name": "isLossMaking",
      "outputs": [
        {
          "internalType": "bool",
          "name": "",
          "type": "bool"
        }
      ],
      "stateMutability": "view",
      "type": "function"
    },
    {
      "inputs": [
        {
          "internalType": "address",
          "name": "_token",
          "type": "address"
        }
      ],
      "name": "isReservedToken",
      "outputs": [
        {
          "internalType": "bool",
          "name": "",
          "type": "bool"
        }
      ],
      "stateMutability": "view",
      "type": "function"
    },
    {
      "inputs": [],
      "name": "keepers",
      "outputs": [
        {
          "internalType": "address[]",
          "name": "",
          "type": "address[]"
        }
      ],
      "stateMutability": "view",
      "type": "function"
    },
    {
      "inputs": [],
      "name": "maxBorrowLimit",
      "outputs": [
        {
          "internalType": "uint256",
          "name": "",
          "type": "uint256"
        }
      ],
      "stateMutability": "view",
      "type": "function"
    },
    {
      "inputs": [
        {
          "internalType": "address",
          "name": "_newStrategy",
          "type": "address"
        }
      ],
      "name": "migrate",
      "outputs": [],
      "stateMutability": "nonpayable",
      "type": "function"
    },
    {
      "inputs": [],
      "name": "minBorrowLimit",
      "outputs": [
        {
          "internalType": "uint256",
          "name": "",
          "type": "uint256"
        }
      ],
      "stateMutability": "view",
      "type": "function"
    },
    {
      "inputs": [],
      "name": "oraclePeriod",
      "outputs": [
        {
          "internalType": "uint256",
          "name": "",
          "type": "uint256"
        }
      ],
      "stateMutability": "view",
      "type": "function"
    },
    {
      "inputs": [],
      "name": "oracleRouterIdx",
      "outputs": [
        {
          "internalType": "uint256",
          "name": "",
          "type": "uint256"
        }
      ],
      "stateMutability": "view",
      "type": "function"
    },
    {
      "inputs": [],
      "name": "pool",
      "outputs": [
        {
          "internalType": "address",
          "name": "",
          "type": "address"
        }
      ],
      "stateMutability": "view",
      "type": "function"
    },
    {
      "inputs": [],
      "name": "rebalance",
      "outputs": [],
      "stateMutability": "nonpayable",
      "type": "function"
    },
    {
      "inputs": [],
      "name": "receiptToken",
      "outputs": [
        {
          "internalType": "address",
          "name": "",
          "type": "address"
        }
      ],
      "stateMutability": "view",
      "type": "function"
    },
    {
      "inputs": [
        {
          "internalType": "uint256",
          "name": "_amountToRecover",
          "type": "uint256"
        }
      ],
      "name": "recoverBorrowToken",
      "outputs": [],
      "stateMutability": "nonpayable",
      "type": "function"
    },
    {
      "inputs": [
        {
          "internalType": "address",
          "name": "_keeperAddress",
          "type": "address"
        }
      ],
      "name": "removeKeeper",
      "outputs": [],
      "stateMutability": "nonpayable",
      "type": "function"
    },
    {
      "inputs": [],
      "name": "repayAll",
      "outputs": [],
      "stateMutability": "nonpayable",
      "type": "function"
    },
    {
      "inputs": [],
      "name": "rewardDistributor",
      "outputs": [
        {
          "internalType": "address",
          "name": "",
          "type": "address"
        }
      ],
      "stateMutability": "view",
      "type": "function"
    },
    {
      "inputs": [],
      "name": "rewardToken",
      "outputs": [
        {
          "internalType": "address",
          "name": "",
          "type": "address"
        }
      ],
      "stateMutability": "view",
      "type": "function"
    },
    {
      "inputs": [],
      "name": "setupOracles",
      "outputs": [],
      "stateMutability": "nonpayable",
      "type": "function"
    },
    {
      "inputs": [],
      "name": "supplyCToken",
      "outputs": [
        {
          "internalType": "contract CToken",
          "name": "",
          "type": "address"
        }
      ],
      "stateMutability": "view",
      "type": "function"
    },
    {
      "inputs": [],
      "name": "swapManager",
      "outputs": [
        {
          "internalType": "contract ISwapManager",
          "name": "",
          "type": "address"
        }
      ],
      "stateMutability": "view",
      "type": "function"
    },
    {
      "inputs": [],
      "name": "swapSlippage",
      "outputs": [
        {
          "internalType": "uint256",
          "name": "",
          "type": "uint256"
        }
      ],
      "stateMutability": "view",
      "type": "function"
    },
    {
      "inputs": [
        {
          "internalType": "address",
          "name": "_fromToken",
          "type": "address"
        }
      ],
      "name": "sweepERC20",
      "outputs": [],
      "stateMutability": "nonpayable",
      "type": "function"
    },
    {
      "inputs": [],
      "name": "token",
      "outputs": [
        {
          "internalType": "address",
          "name": "",
          "type": "address"
        }
      ],
      "stateMutability": "view",
      "type": "function"
    },
    {
      "inputs": [],
      "name": "totalValue",
      "outputs": [
        {
          "internalType": "uint256",
          "name": "_totalValue",
          "type": "uint256"
        }
      ],
      "stateMutability": "view",
      "type": "function"
    },
    {
      "inputs": [],
      "name": "totalValueCurrent",
      "outputs": [
        {
          "internalType": "uint256",
          "name": "",
          "type": "uint256"
        }
      ],
      "stateMutability": "nonpayable",
      "type": "function"
    },
    {
      "inputs": [
        {
          "internalType": "uint256",
          "name": "_minBorrowLimit",
          "type": "uint256"
        },
        {
          "internalType": "uint256",
          "name": "_maxBorrowLimit",
          "type": "uint256"
        }
      ],
      "name": "updateBorrowLimit",
      "outputs": [],
      "stateMutability": "nonpayable",
      "type": "function"
    },
    {
      "inputs": [
        {
          "internalType": "address",
          "name": "_feeCollector",
          "type": "address"
        }
      ],
      "name": "updateFeeCollector",
      "outputs": [],
      "stateMutability": "nonpayable",
      "type": "function"
    },
    {
      "inputs": [
        {
          "internalType": "uint256",
          "name": "_newPeriod",
          "type": "uint256"
        },
        {
          "internalType": "uint256",
          "name": "_newRouterIdx",
          "type": "uint256"
        }
      ],
      "name": "updateOracleConfig",
      "outputs": [],
      "stateMutability": "nonpayable",
      "type": "function"
    },
    {
      "inputs": [
        {
          "internalType": "address",
          "name": "_swapManager",
          "type": "address"
        }
      ],
      "name": "updateSwapManager",
      "outputs": [],
      "stateMutability": "nonpayable",
      "type": "function"
    },
    {
      "inputs": [
        {
          "internalType": "uint256",
          "name": "_newSwapSlippage",
          "type": "uint256"
        }
      ],
      "name": "updateSwapSlippage",
      "outputs": [],
      "stateMutability": "nonpayable",
      "type": "function"
    },
    {
      "inputs": [],
      "name": "vPool",
      "outputs": [
        {
          "internalType": "contract IVesperPool",
          "name": "",
          "type": "address"
        }
      ],
      "stateMutability": "view",
      "type": "function"
    },
    {
      "inputs": [],
      "name": "vsp",
      "outputs": [
        {
          "internalType": "address",
          "name": "",
          "type": "address"
        }
      ],
      "stateMutability": "view",
      "type": "function"
    },
    {
      "inputs": [
        {
          "internalType": "uint256",
          "name": "_amount",
          "type": "uint256"
        }
      ],
      "name": "withdraw",
      "outputs": [],
      "stateMutability": "nonpayable",
      "type": "function"
    }
  ],
  "transactionHash": "0x22f5d044b8a630fb1411c4a5fd66b270022bd3114a60955daba1bbf273bcfc7c",
  "args": [
    "0xba3Fb2277c7b33D1C3E1b558cf8060bc7443b13d",
    "0xEbedFD259c9FB1F5c0ab9A9f24E79F8d80E29B23",
    "0xdc13687554205E5b89Ac783db14bb5bba4A1eDaC",
    "0x45B2C4139d96F44667577C0D7F7a7D170B420324",
    "0x6e84a6216eA6dACC71eE8E6b0a5B7322EEbC0fDd",
    "0x3fE38b7b610C0ACD10296fEf69d9b18eB7a9eB1F",
    "0x929f5caB61DFEc79a5431a7734a68D714C4633fa",
    "0x2B6c40Ef15Db0D78D08A7D1b4E12d57E88a3e324",
    "0xE70EFb1ff1C0b63FDF84B5EA319693cf804914A8",
    "VesperTraderJoeXYStrategy"
  ],
  "numDeployments": 1,
  "solcInputHash": "b2c36c39fe899530a62a6d5c72520b4f",
  "bytecode": "0x610160604052600080546001600160a01b03191673c02aaa39b223fe8d0a0e5c4f27ead9083c756cc2178155610e10600455600555612710600655611b58600a55612134600b553480156200005357600080fd5b50604051620068873803806200688783398101604081905262000076916200095e565b89898989898989878787878585858585846001600160a01b038316620000e35760405162461bcd60e51b815260206004820152601460248201527f706f6f6c2d616464726573732d69732d7a65726f00000000000000000000000060448201526064015b60405180910390fd5b6001600160a01b038216620001305760405162461bcd60e51b8152602060048201526012602482015271736d2d616464726573732d69732d7a65726f60701b6044820152606401620000da565b600380546001600160a01b0319166001600160a01b0384811691909117909155831660a081905260408051637e062a3560e11b8152905163fc0c546a91600480820192602092909190829003018186803b1580156200018e57600080fd5b505afa158015620001a3573d6000803e3d6000fd5b505050506040513d601f19601f82011682018060405250810190620001c9919062000a57565b6001600160a01b03908116608052600180546001600160a01b03191691831691909117905562000210620001fa3390565b6007620006c660201b62001fdb1790919060201c565b620002525760405162461bcd60e51b81526020600482015260116024820152701859190b5ad9595c195c8b59985a5b1959607a1b6044820152606401620000da565b5050506001600160a01b038316620002ad5760405162461bcd60e51b815260206004820152601660248201527f63546f6b656e2d616464726573732d69732d7a65726f000000000000000000006044820152606401620000da565b6001600160a01b038416620003055760405162461bcd60e51b815260206004820152601b60248201527f636f6d7074726f6c6c65722d616464726573732d69732d7a65726f00000000006044820152606401620000da565b80516200031a906009906020840190620007af565b50600d80546001600160a01b0319166001600160a01b038681169190911790915583811660c052821660e0526200035182620006e6565b600c80546001600160a01b0319166001600160a01b03929092169190911790556040805160028082526060820183526000926020830190803683370190505090508381600081518110620003a957620003a962000a7e565b60200260200101906001600160a01b031690816001600160a01b0316815250508281600181518110620003e057620003e062000a7e565b6001600160a01b039283166020918202929092010152600d54604051631853304760e31b815291169063c2998238906200041f90849060040162000a94565b600060405180830381600087803b1580156200043a57600080fd5b505af11580156200044f573d6000803e3d6000fd5b505050506040513d6000823e601f3d908101601f1916820160405262000479919081019062000ae3565b50505050506001600160a01b03881615159250620004dd9150505760405162461bcd60e51b815260206004820152601a60248201527f7265776172642d6469737472696275746f722d69732d6e756c6c0000000000006044820152606401620000da565b6001600160a01b038416620005355760405162461bcd60e51b815260206004820152601b60248201527f726577617264546f6b656e2d616464726573732d69732d7a65726f00000000006044820152606401620000da565b5050600e80546001600160a01b039485166001600160a01b03199182161790915591831661010052506000805490911673b31f66aa3c1e785363f0875a1b74e27b85fd66c7179055851615159250620005d49150505760405162461bcd60e51b815260206004820152601360248201527f7673702d616464726573732d69732d7a65726f000000000000000000000000006044820152606401620000da565b600c5460408051637e062a3560e11b815290516001600160a01b039283169286169163fc0c546a916004808301926020929190829003018186803b1580156200061c57600080fd5b505afa15801562000631573d6000803e3d6000fd5b505050506040513d601f19601f8201168201806040525081019062000657919062000a57565b6001600160a01b031614620006a35760405162461bcd60e51b81526020600482015260116024820152701a5b9d985b1a590b59dc9bddcb5c1bdbdb607a1b6044820152606401620000da565b506001600160a01b039182166101205216610140525062000bd095505050505050565b6000620006dd836001600160a01b0384166200075d565b90505b92915050565b6000816001600160a01b0316636f307dc36040518163ffffffff1660e01b815260040160206040518083038186803b1580156200072257600080fd5b505afa15801562000737573d6000803e3d6000fd5b505050506040513d601f19601f82011682018060405250810190620006e0919062000a57565b6000818152600183016020526040812054620007a657508154600181810184556000848152602080822090930184905584548482528286019093526040902091909155620006e0565b506000620006e0565b828054620007bd9062000b93565b90600052602060002090601f016020900481019282620007e157600085556200082c565b82601f10620007fc57805160ff19168380011785556200082c565b828001600101855582156200082c579182015b828111156200082c5782518255916020019190600101906200080f565b506200083a9291506200083e565b5090565b5b808211156200083a57600081556001016200083f565b6001600160a01b03811681146200086b57600080fd5b50565b80516200087b8162000855565b919050565b634e487b7160e01b600052604160045260246000fd5b604051601f8201601f191681016001600160401b0381118282101715620008c157620008c162000880565b604052919050565b600082601f830112620008db57600080fd5b81516001600160401b03811115620008f757620008f762000880565b60206200090d601f8301601f1916820162000896565b82815285828487010111156200092257600080fd5b60005b838110156200094257858101830151828201840152820162000925565b83811115620009545760008385840101525b5095945050505050565b6000806000806000806000806000806101408b8d0312156200097f57600080fd5b8a516200098c8162000855565b60208c0151909a506200099f8162000855565b60408c0151909950620009b28162000855565b60608c0151909850620009c58162000855565b60808c0151909750620009d88162000855565b9550620009e860a08c016200086e565b9450620009f860c08c016200086e565b935062000a0860e08c016200086e565b925062000a196101008c016200086e565b6101208c01519092506001600160401b0381111562000a3757600080fd5b62000a458d828e01620008c9565b9150509295989b9194979a5092959850565b60006020828403121562000a6a57600080fd5b815162000a778162000855565b9392505050565b634e487b7160e01b600052603260045260246000fd5b6020808252825182820181905260009190848201906040850190845b8181101562000ad75783516001600160a01b03168352928401929184019160010162000ab0565b50909695505050505050565b6000602080838503121562000af757600080fd5b82516001600160401b038082111562000b0f57600080fd5b818501915085601f83011262000b2457600080fd5b81518181111562000b395762000b3962000880565b8060051b915062000b4c84830162000896565b818152918301840191848101908884111562000b6757600080fd5b938501935b8385101562000b875784518252938501939085019062000b6c565b98975050505050505050565b600181811c9082168062000ba857607f821691505b6020821081141562000bca57634e487b7160e01b600052602260045260246000fd5b50919050565b60805160a05160c05160e0516101005161012051610140516159fb62000e8c600039600081816102de01528181611a590152818161337001528181613403015261512d0152600081816103b701528181610862015281816118e201528181612019015281816120b5015281816128e30152818161325901528181614dfe01528181614eea01528181614f8801526150af0152600081816105560152818161222201528181612bd801528181614caf01528181614d420152615181015260008181610390015281816110f701528181611d7c0152818161240401528181612ae101528181612dad0152818161388f01528181613b8e01528181613dc601528181613fa60152818161467e0152614a3301526000818161052f0152818161256f015281816129e101528181613058015281816131c201528181613948015281816139d801528181613aee01528181613ce901528181613f6f0152818161452d015281816145d30152614b09015260008181610299015281816105ca015281816106f5015281816107450152818161089e01528181610a5101528181610c0501528181610c8801528181610df3015281816112d001528181611411015281816114ae0152818161170b01528181611e18015281816121e701528181612285015281816123250152613f1b015260008181610474015281816111cb0152818161127a015281816112a1015281816112f20152818161163e015281816116e201528181611a7b01528181611b8a015281816123c6015281816124e401528181612695015281816127590152818161281f01528181612d6f01528181612fcd01528181613126015281816131fd0152818161345d01528181613506015281816137ea01528181613ef901528181613f4d015281816140f10152818161473e015281816147f9015281816149270152818161498c01526151aa01526159fb6000f3fe608060405234801561001057600080fd5b506004361061025e5760003560e01c8063a3f4df7e11610146578063d4c3eea0116100c3578063efead58c11610087578063efead58c1461052a578063f7c618c114610551578063fa3ae6dc14610578578063fb7ee10214610580578063fc0c546a14610593578063ffa1ad74146105a457600080fd5b8063d4c3eea0146104eb578063e00af4a7146104f3578063e260d74714610506578063e645c2021461050f578063ec78e8321461051757600080fd5b8063c415b95c1161010a578063c415b95c14610496578063c7ad2748146104a9578063cd2d7ebe146104bc578063ce5494bb146104c5578063d2c35ce8146104d857600080fd5b8063a3f4df7e1461042c578063a923b2a614610441578063aa10188614610454578063acc2166a1461045c578063b2016bd41461046f57600080fd5b8063456dc17a116101df57806367f5e4b8116101a357806367f5e4b8146103d9578063709d039d146103ec5780637d7c2a1c146103ff5780639298602414610407578063951dc22c1461040f57806399b71d5c1461042457600080fd5b8063456dc17a146103525780634c36fad7146103655780635fe3b56714610378578063620a96d51461038b5780636719578c146103b257600080fd5b806329ba73ed1161022657806329ba73ed146102d95780632e1a7d4d146103005780634032b72b1461031357806342189c8f14610326578063440d72481461032f57600080fd5b80630181686c1461026357806314ae9f2e1461027f57806316f0115b146102945780631aedeabe146102c8578063243cd14e146102d1575b600080fd5b61026c600b5481565b6040519081526020015b60405180910390f35b61029261028d366004615381565b6105c8565b005b6102bb7f000000000000000000000000000000000000000000000000000000000000000081565b604051610276919061539e565b61026c60065481565b61026c6106e3565b6102bb7f000000000000000000000000000000000000000000000000000000000000000081565b61029261030e3660046153b2565b6106f2565b610292610321366004615381565b610743565b61026c60045481565b61034261033d366004615381565b61084f565b6040519015158152602001610276565b600c546102bb906001600160a01b031681565b610292610373366004615381565b61089c565b600d546102bb906001600160a01b031681565b6102bb7f000000000000000000000000000000000000000000000000000000000000000081565b6102bb7f000000000000000000000000000000000000000000000000000000000000000081565b6102926103e73660046153b2565b610a4f565b6003546102bb906001600160a01b031681565b610292610b9b565b610342610c6e565b610417610d1b565b604051610276919061540f565b610292610d27565b610434610d63565b604051610276919061544e565b61029261044f366004615481565b610df1565b610292611026565b600e546102bb906001600160a01b031681565b6102bb7f000000000000000000000000000000000000000000000000000000000000000081565b6002546102bb906001600160a01b031681565b6102926104b73660046153b2565b61104b565b61026c60055481565b6102926104d3366004615381565b61140e565b6102926104e6366004615381565b611709565b61026c6118d2565b610292610501366004615381565b611b13565b61026c600a5481565b61026c611d32565b6001546102bb906001600160a01b031681565b6102bb7f000000000000000000000000000000000000000000000000000000000000000081565b6102bb7f000000000000000000000000000000000000000000000000000000000000000081565b610292611d3c565b61029261058e366004615481565b611e16565b6001546001600160a01b03166102bb565b610434604051806040016040528060058152602001640342e302e360dc1b81525081565b7f00000000000000000000000000000000000000000000000000000000000000006001600160a01b0316630c340a246040518163ffffffff1660e01b815260040160206040518083038186803b15801561062157600080fd5b505afa158015610635573d6000803e3d6000fd5b505050506040513d601f19601f8201168201806040525081019061065991906154a3565b6001600160a01b0316336001600160a01b0316146106925760405162461bcd60e51b8152600401610689906154c0565b60405180910390fd5b61069d600782611ff7565b6106e05760405162461bcd60e51b81526020600482015260146024820152731c995b5bdd994b5ad9595c195c8b59985a5b195960621b6044820152606401610689565b50565b60006106ed61200c565b905090565b337f00000000000000000000000000000000000000000000000000000000000000006001600160a01b03161461073a5760405162461bcd60e51b8152600401610689906154f7565b6106e0816121e2565b7f00000000000000000000000000000000000000000000000000000000000000006001600160a01b0316630c340a246040518163ffffffff1660e01b815260040160206040518083038186803b15801561079c57600080fd5b505afa1580156107b0573d6000803e3d6000fd5b505050506040513d601f19601f820116820180604052508101906107d491906154a3565b6001600160a01b0316336001600160a01b0316146108045760405162461bcd60e51b8152600401610689906154c0565b61080f600782611fdb565b6106e05760405162461bcd60e51b81526020600482015260116024820152701859190b5ad9595c195c8b59985a5b1959607a1b6044820152606401610689565b600061085a8261220f565b8061089657507f00000000000000000000000000000000000000000000000000000000000000006001600160a01b0316826001600160a01b0316145b92915050565b7f00000000000000000000000000000000000000000000000000000000000000006001600160a01b0316630c340a246040518163ffffffff1660e01b815260040160206040518083038186803b1580156108f557600080fd5b505afa158015610909573d6000803e3d6000fd5b505050506040513d601f19601f8201168201806040525081019061092d91906154a3565b6001600160a01b0316336001600160a01b03161461095d5760405162461bcd60e51b8152600401610689906154c0565b6001600160a01b0381166109a85760405162461bcd60e51b8152602060048201526012602482015271736d2d616464726573732d69732d7a65726f60701b6044820152606401610689565b6003546001600160a01b03828116911614156109f35760405162461bcd60e51b815260206004820152600a602482015269736d2d69732d73616d6560b01b6044820152606401610689565b6003546040516001600160a01b038084169216907f2d19927e7cac08ceb98b38898a4fdff6da6a27295b9a2d62fe250408ebe044e190600090a3600380546001600160a01b0319166001600160a01b0392909216919091179055565b7f00000000000000000000000000000000000000000000000000000000000000006001600160a01b0316630c340a246040518163ffffffff1660e01b815260040160206040518083038186803b158015610aa857600080fd5b505afa158015610abc573d6000803e3d6000fd5b505050506040513d601f19601f82011682018060405250810190610ae091906154a3565b6001600160a01b0316336001600160a01b031614610b105760405162461bcd60e51b8152600401610689906154c0565b612710811115610b5b5760405162461bcd60e51b8152602060048201526016602482015275696e76616c69642d736c6970706167652d76616c756560501b6044820152606401610689565b60065460408051918252602082018390527ef1c5db862c7598b3b6765552ca951f498611e06412c2d57f8d0b58f82e7f82910160405180910390a1600655565b610ba8335b60079061225b565b610bc45760405162461bcd60e51b81526004016106899061552a565b6000806000610bd161227d565b6040516302df682360e11b815260048101849052602481018390526044810182905292955090935091506001600160a01b037f000000000000000000000000000000000000000000000000000000000000000016906305bed04690606401600060405180830381600087803b158015610c4957600080fd5b505af1158015610c5d573d6000803e3d6000fd5b50505050610c6961273f565b505050565b604051639f2b283360e01b81526000906001600160a01b037f00000000000000000000000000000000000000000000000000000000000000001690639f2b283390610cbd90309060040161539e565b60206040518083038186803b158015610cd557600080fd5b505afa158015610ce9573d6000803e3d6000fd5b505050506040513d601f19601f82011682018060405250810190610d0d919061555a565b610d156118d2565b10905090565b60606106ed60076128bb565b610d3033610ba0565b610d4c5760405162461bcd60e51b81526004016106899061552a565b610d5660006128c8565b610d616000196128c8565b565b60098054610d7090615573565b80601f0160208091040260200160405190810160405280929190818152602001828054610d9c90615573565b8015610de95780601f10610dbe57610100808354040283529160200191610de9565b820191906000526020600020905b815481529060010190602001808311610dcc57829003601f168201915b505050505081565b7f00000000000000000000000000000000000000000000000000000000000000006001600160a01b0316630c340a246040518163ffffffff1660e01b815260040160206040518083038186803b158015610e4a57600080fd5b505afa158015610e5e573d6000803e3d6000fd5b505050506040513d601f19601f82011682018060405250810190610e8291906154a3565b6001600160a01b0316336001600160a01b031614610eb25760405162461bcd60e51b8152600401610689906154c0565b600360009054906101000a90046001600160a01b03166001600160a01b031663c2fba6676040518163ffffffff1660e01b815260040160206040518083038186803b158015610f0057600080fd5b505afa158015610f14573d6000803e3d6000fd5b505050506040513d601f19601f82011682018060405250810190610f38919061555a565b8110610f7d5760405162461bcd60e51b81526020600482015260146024820152730d2dcecc2d8d2c85ae4deeae8cae45ad2dcc8caf60631b6044820152606401610689565b81610f885760045491505b603b8211610fd05760405162461bcd60e51b81526020600482015260156024820152741a5b9d985b1a590b5bdc9858db194b5c195c9a5bd9605a1b6044820152606401610689565b6004546005546040805192835260208301859052820152606081018290527f83bc5ab8030537fcf1d29c2334f6d22c26c82dcbe5ff03923d2cff5c692c0a7f9060800160405180910390a1600491909155600555565b61102f33610ba0565b610d615760405162461bcd60e51b81526004016106899061552a565b61105433610ba0565b6110705760405162461bcd60e51b81526004016106899061552a565b600c546040516370a0823160e01b81526000916001600160a01b0316906370a08231906110a190309060040161539e565b60206040518083038186803b1580156110b957600080fd5b505afa1580156110cd573d6000803e3d6000fd5b505050506040513d601f19601f820116820180604052508101906110f1919061555a565b905060007f00000000000000000000000000000000000000000000000000000000000000006001600160a01b03166395dd9193306040518263ffffffff1660e01b8152600401611141919061539e565b60206040518083038186803b15801561115957600080fd5b505afa15801561116d573d6000803e3d6000fd5b505050506040513d601f19601f82011682018060405250810190611191919061555a565b905080821115610c695760006111a782846155c4565b9050600080851180156111b957508482115b6111c357816111c5565b845b905060007f00000000000000000000000000000000000000000000000000000000000000006001600160a01b03166370a08231306040518263ffffffff1660e01b8152600401611215919061539e565b60206040518083038186803b15801561122d57600080fd5b505afa158015611241573d6000803e3d6000fd5b505050506040513d601f19601f82011682018060405250810190611265919061555a565b600c5490915061129f906001600160a01b03167f000000000000000000000000000000000000000000000000000000000000000084612908565b7f00000000000000000000000000000000000000000000000000000000000000006001600160a01b031663a9059cbb7f0000000000000000000000000000000000000000000000000000000000000000837f00000000000000000000000000000000000000000000000000000000000000006001600160a01b03166370a08231306040518263ffffffff1660e01b815260040161133c919061539e565b60206040518083038186803b15801561135457600080fd5b505afa158015611368573d6000803e3d6000fd5b505050506040513d601f19601f8201168201806040525081019061138c919061555a565b61139691906155c4565b6040518363ffffffff1660e01b81526004016113b39291906155db565b602060405180830381600087803b1580156113cd57600080fd5b505af11580156113e1573d6000803e3d6000fd5b505050506040513d601f19601f820116820180604052508101906114059190615609565b50505050505050565b337f00000000000000000000000000000000000000000000000000000000000000006001600160a01b0316146114565760405162461bcd60e51b8152600401610689906154f7565b6001600160a01b0381166114ac5760405162461bcd60e51b815260206004820152601c60248201527f6e65772d73747261746567792d616464726573732d69732d7a65726f000000006044820152606401610689565b7f00000000000000000000000000000000000000000000000000000000000000006001600160a01b0316816001600160a01b03166316f0115b6040518163ffffffff1660e01b815260040160206040518083038186803b15801561150f57600080fd5b505afa158015611523573d6000803e3d6000fd5b505050506040513d601f19601f8201168201806040525081019061154791906154a3565b6001600160a01b0316146115965760405162461bcd60e51b81526020600482015260166024820152756e6f742d76616c69642d6e65772d737472617465677960501b6044820152606401610689565b61159f816129df565b6001546040516370a0823160e01b81526116389183916001600160a01b03909116906370a08231906115d590309060040161539e565b60206040518083038186803b1580156115ed57600080fd5b505afa158015611601573d6000803e3d6000fd5b505050506040513d601f19601f82011682018060405250810190611625919061555a565b6001546001600160a01b03169190612b6f565b6106e0817f00000000000000000000000000000000000000000000000000000000000000006001600160a01b03166370a08231306040518263ffffffff1660e01b8152600401611688919061539e565b60206040518083038186803b1580156116a057600080fd5b505afa1580156116b4573d6000803e3d6000fd5b505050506040513d601f19601f820116820180604052508101906116d8919061555a565b6001600160a01b037f0000000000000000000000000000000000000000000000000000000000000000169190612b6f565b7f00000000000000000000000000000000000000000000000000000000000000006001600160a01b0316630c340a246040518163ffffffff1660e01b815260040160206040518083038186803b15801561176257600080fd5b505afa158015611776573d6000803e3d6000fd5b505050506040513d601f19601f8201168201806040525081019061179a91906154a3565b6001600160a01b0316336001600160a01b0316146117ca5760405162461bcd60e51b8152600401610689906154c0565b6001600160a01b0381166118205760405162461bcd60e51b815260206004820152601d60248201527f6665652d636f6c6c6563746f722d616464726573732d69732d7a65726f0000006044820152606401610689565b6002546001600160a01b03828116911614156118765760405162461bcd60e51b81526020600482015260156024820152746665652d636f6c6c6563746f722d69732d73616d6560581b6044820152606401610689565b6002546040516001600160a01b038084169216907f0f06062680f9bd68e786e9980d9bb03d73d5620fc3b345e417b6eacb310b970690600090a3600280546001600160a01b0319166001600160a01b0392909216919091179055565b60006118dc612bc5565b905060007f00000000000000000000000000000000000000000000000000000000000000006001600160a01b0316638bc6beb26040518163ffffffff1660e01b815260040160206040518083038186803b15801561193957600080fd5b505afa15801561194d573d6000803e3d6000fd5b505050506040513d601f19601f8201168201806040525081019061197191906154a3565b90506001600160a01b03811615611b0f5760405163402914f560e01b81526000906001600160a01b0383169063402914f5906119b190309060040161539e565b60006040518083038186803b1580156119c957600080fd5b505afa1580156119dd573d6000803e3d6000fd5b505050506040513d6000823e601f3d908101601f19168201604052611a05919081019061575e565b915050600081600081518110611a1d57611a1d6157c2565b602002602001015190506000811115611b0c57600354604051631d1f307960e31b81526000916001600160a01b03169063e8f983c890611aa5907f0000000000000000000000000000000000000000000000000000000000000000907f00000000000000000000000000000000000000000000000000000000000000009087906004016157d8565b60006040518083038186803b158015611abd57600080fd5b505afa158015611ad1573d6000803e3d6000fd5b505050506040513d6000823e601f3d908101601f19168201604052611af991908101906157fc565b509150611b089050818661584c565b9450505b50505b5090565b611b1c33610ba0565b611b385760405162461bcd60e51b81526004016106899061552a565b6002546001600160a01b0316611b885760405162461bcd60e51b81526020600482015260156024820152741999594b58dbdb1b1958dd1bdc8b5b9bdd0b5cd95d605a1b6044820152606401610689565b7f00000000000000000000000000000000000000000000000000000000000000006001600160a01b0316816001600160a01b03161415611c0a5760405162461bcd60e51b815260206004820152601f60248201527f6e6f742d616c6c6f7765642d746f2d73776565702d636f6c6c61746572616c006044820152606401610689565b611c138161084f565b15611c575760405162461bcd60e51b815260206004820152601460248201527306e6f742d616c6c6f7765642d746f2d73776565760641b6044820152606401610689565b6001600160a01b03811673eeeeeeeeeeeeeeeeeeeeeeeeeeeeeeeeeeeeeeee1415611c92576002546106e0906001600160a01b031647612c31565b6040516370a0823160e01b81526000906001600160a01b038316906370a0823190611cc190309060040161539e565b60206040518083038186803b158015611cd957600080fd5b505afa158015611ced573d6000803e3d6000fd5b505050506040513d601f19601f82011682018060405250810190611d11919061555a565b600254909150611d2e906001600160a01b03848116911683612b6f565b5050565b60006106ed6118d2565b611d4533610ba0565b611d615760405162461bcd60e51b81526004016106899061552a565b6040516305eff7ef60e21b8152611e0a906001600160a01b037f000000000000000000000000000000000000000000000000000000000000000016906317bfdfbc90611db190309060040161539e565b602060405180830381600087803b158015611dcb57600080fd5b505af1158015611ddf573d6000803e3d6000fd5b505050506040513d601f19601f82011682018060405250810190611e03919061555a565b6001612d4a565b6000600a819055600b55565b7f00000000000000000000000000000000000000000000000000000000000000006001600160a01b0316630c340a246040518163ffffffff1660e01b815260040160206040518083038186803b158015611e6f57600080fd5b505afa158015611e83573d6000803e3d6000fd5b505050506040513d601f19601f82011682018060405250810190611ea791906154a3565b6001600160a01b0316336001600160a01b031614611ed75760405162461bcd60e51b8152600401610689906154c0565b6127108110611f235760405162461bcd60e51b81526020600482015260186024820152771a5b9d985b1a590b5b585e0b589bdc9c9bddcb5b1a5b5a5d60421b6044820152606401610689565b80158015611f2f575081155b80611f3957508181115b611f855760405162461bcd60e51b815260206004820152601d60248201527f6d61782d73686f756c642d62652d6869676865722d7468616e2d6d696e0000006044820152606401610689565b600a54600b546040805192835260208301859052820152606081018290527fedd77444afdf63401315e81ffe86d08f7865796e8ad2e11acf1d56a1393f07d59060800160405180910390a1600a91909155600b55565b6000611ff0836001600160a01b038416612e4e565b9392505050565b6000611ff0836001600160a01b038416612e9d565b6000670de0b6b3a76400007f00000000000000000000000000000000000000000000000000000000000000006001600160a01b03166370a08231306040518263ffffffff1660e01b8152600401612063919061539e565b60206040518083038186803b15801561207b57600080fd5b505afa15801561208f573d6000803e3d6000fd5b505050506040513d601f19601f820116820180604052508101906120b3919061555a565b7f00000000000000000000000000000000000000000000000000000000000000006001600160a01b03166399530b066040518163ffffffff1660e01b815260040160206040518083038186803b15801561210c57600080fd5b505afa158015612120573d6000803e3d6000fd5b505050506040513d601f19601f82011682018060405250810190612144919061555a565b61214e9190615864565b6121589190615883565b600c546040516370a0823160e01b81526001600160a01b03909116906370a082319061218890309060040161539e565b60206040518083038186803b1580156121a057600080fd5b505afa1580156121b4573d6000803e3d6000fd5b505050506040513d601f19601f820116820180604052508101906121d8919061555a565b6106ed919061584c565b6106e07f00000000000000000000000000000000000000000000000000000000000000006116d883612f97565b600061221a826131be565b8061089657507f00000000000000000000000000000000000000000000000000000000000000006001600160a01b0316826001600160a01b03161492915050565b6001600160a01b03811660009081526001830160205260408120541515611ff0565b6000806000807f00000000000000000000000000000000000000000000000000000000000000006001600160a01b031663d53ddc26306040518263ffffffff1660e01b81526004016122cf919061539e565b60206040518083038186803b1580156122e757600080fd5b505afa1580156122fb573d6000803e3d6000fd5b505050506040513d601f19601f8201168201806040525081019061231f919061555a565b905060007f00000000000000000000000000000000000000000000000000000000000000006001600160a01b0316639f2b2833306040518263ffffffff1660e01b815260040161236f919061539e565b60206040518083038186803b15801561238757600080fd5b505afa15801561239b573d6000803e3d6000fd5b505050506040513d601f19601f820116820180604052508101906123bf919061555a565b90506123ea7f000000000000000000000000000000000000000000000000000000000000000061324c565b6040516305eff7ef60e21b81526000906001600160a01b037f000000000000000000000000000000000000000000000000000000000000000016906317bfdfbc9061243990309060040161539e565b602060405180830381600087803b15801561245357600080fd5b505af1158015612467573d6000803e3d6000fd5b505050506040513d601f19601f8201168201806040525081019061248b919061555a565b9050600061249761200c565b9050808211156124b8576124b36124ae82846155c4565b61342b565b6124ca565b6124ca6124c583836155c4565b6136af565b6040516370a0823160e01b81526000906001600160a01b037f000000000000000000000000000000000000000000000000000000000000000016906370a082319061251990309060040161539e565b60206040518083038186803b15801561253157600080fd5b505afa158015612545573d6000803e3d6000fd5b505050506040513d601f19601f82011682018060405250810190612569919061555a565b905060007f00000000000000000000000000000000000000000000000000000000000000006001600160a01b0316633af9e669306040518263ffffffff1660e01b81526004016125b9919061539e565b602060405180830381600087803b1580156125d357600080fd5b505af11580156125e7573d6000803e3d6000fd5b505050506040513d601f19601f8201168201806040525081019061260b919061555a565b90506000612619838361584c565b9050858111156126345761262d86826155c4565b9950612641565b61263e81876155c4565b98505b600061264d888c61584c565b90508084101561271f57600061266c61266686846155c4565b85613811565b9050801561271d5761267d81612f97565b506040516370a0823160e01b81526001600160a01b037f000000000000000000000000000000000000000000000000000000000000000016906370a08231906126ca90309060040161539e565b60206040518083038186803b1580156126e257600080fd5b505afa1580156126f6573d6000803e3d6000fd5b505050506040513d601f19601f8201168201806040525081019061271a919061555a565b94505b505b87156127325761272f8489613811565b98505b5050505050505050909192565b6040516370a0823160e01b81526000906001600160a01b037f000000000000000000000000000000000000000000000000000000000000000016906370a082319061278e90309060040161539e565b60206040518083038186803b1580156127a657600080fd5b505afa1580156127ba573d6000803e3d6000fd5b505050506040513d601f19601f820116820180604052508101906127de919061555a565b90506000806127ee836000613827565b909250905080156128a957612804816000612d4a565b6040516370a0823160e01b8152610c69906001600160a01b037f000000000000000000000000000000000000000000000000000000000000000016906370a082319061285490309060040161539e565b60206040518083038186803b15801561286c57600080fd5b505afa158015612880573d6000803e3d6000fd5b505050506040513d601f19601f820116820180604052508101906128a4919061555a565b613ccd565b6128b283613ccd565b610c6982613daa565b60606000611ff083613e90565b6128d181613eec565b600c546106e0906001600160a01b03167f000000000000000000000000000000000000000000000000000000000000000083614142565b6000600654612710141561291d5760016129cb565b6040516358fac00360e01b81526001600160a01b0380861660048301526024820184905284166044820152610e1060648201526129cb90730f1f5a87f99f0918e6c81f16e59f3518698221ff906358fac0039060840160206040518083038186803b15801561298b57600080fd5b505afa15801561299f573d6000803e3d6000fd5b505050506040513d601f19601f820116820180604052508101906129c3919061555a565b600654614255565b90506129d984848484614278565b50505050565b7f00000000000000000000000000000000000000000000000000000000000000006001600160a01b0316816001600160a01b031663fc0c546a6040518163ffffffff1660e01b815260040160206040518083038186803b158015612a4257600080fd5b505afa158015612a56573d6000803e3d6000fd5b505050506040513d601f19601f82011682018060405250810190612a7a91906154a3565b6001600160a01b031614612ac65760405162461bcd60e51b81526020600482015260136024820152723bb937b73396b932b1b2b4b83a16ba37b5b2b760691b6044820152606401610689565b6040516305eff7ef60e21b81526106e0906001600160a01b037f000000000000000000000000000000000000000000000000000000000000000016906317bfdfbc90612b1690309060040161539e565b602060405180830381600087803b158015612b3057600080fd5b505af1158015612b44573d6000803e3d6000fd5b505050506040513d601f19601f82011682018060405250810190612b68919061555a565b6000612d4a565b610c698363a9059cbb60e01b8484604051602401612b8e9291906155db565b60408051601f198184030181529190526020810180516001600160e01b03166001600160e01b03199093169290921790915261444d565b6000612bcf61451f565b9050612bfc60007f0000000000000000000000000000000000000000000000000000000000000000614892565b612c06908261584c565b9050612c27600173b31f66aa3c1e785363f0875a1b74e27b85fd66c7614892565b6106ed908261584c565b80471015612c815760405162461bcd60e51b815260206004820152601d60248201527f416464726573733a20696e73756666696369656e742062616c616e63650000006044820152606401610689565b6000826001600160a01b03168260405160006040518083038185875af1925050503d8060008114612cce576040519150601f19603f3d011682016040523d82523d6000602084013e612cd3565b606091505b5050905080610c695760405162461bcd60e51b815260206004820152603a60248201527f416464726573733a20756e61626c6520746f2073656e642076616c75652c207260448201527f6563697069656e74206d617920686176652072657665727465640000000000006064820152608401610689565b8115611d2e576000612d5a61200c565b905080831115612e45578115612d9357612d937f000000000000000000000000000000000000000000000000000000000000000061324c565b6040516305eff7ef60e21b81526000906001600160a01b037f000000000000000000000000000000000000000000000000000000000000000016906317bfdfbc90612de290309060040161539e565b602060405180830381600087803b158015612dfc57600080fd5b505af1158015612e10573d6000803e3d6000fd5b505050506040513d601f19601f82011682018060405250810190612e34919061555a565b9050612e436124ae83836155c4565b505b610c6983614a14565b6000818152600183016020526040812054612e9557508154600181810184556000848152602080822090930184905584548482528286019093526040902091909155610896565b506000610896565b60008181526001830160205260408120548015612f86576000612ec16001836155c4565b8554909150600090612ed5906001906155c4565b9050818114612f3a576000866000018281548110612ef557612ef56157c2565b9060005260206000200154905080876000018481548110612f1857612f186157c2565b6000918252602080832090910192909255918252600188019052604090208390555b8554869080612f4b57612f4b6158a5565b600190038181906000526020600020016000905590558560010160008681526020019081526020016000206000905560019350505050610896565b6000915050610896565b5092915050565b600080612fa5600084613827565b915050612fb3816001612d4a565b6040516370a0823160e01b81526000906001600160a01b037f000000000000000000000000000000000000000000000000000000000000000016906370a082319061300290309060040161539e565b60206040518083038186803b15801561301a57600080fd5b505afa15801561302e573d6000803e3d6000fd5b505050506040513d601f19601f82011682018060405250810190613052919061555a565b905060007f00000000000000000000000000000000000000000000000000000000000000006001600160a01b0316633af9e669306040518263ffffffff1660e01b81526004016130a2919061539e565b602060405180830381600087803b1580156130bc57600080fd5b505af11580156130d0573d6000803e3d6000fd5b505050506040513d601f19601f820116820180604052508101906130f4919061555a565b905061310d8582116131065781614af3565b855b614af3565b6040516370a0823160e01b815282906001600160a01b037f000000000000000000000000000000000000000000000000000000000000000016906370a082319061315b90309060040161539e565b60206040518083038186803b15801561317357600080fd5b505afa158015613187573d6000803e3d6000fd5b505050506040513d601f19601f820116820180604052508101906131ab919061555a565b6131b591906155c4565b95945050505050565b60007f00000000000000000000000000000000000000000000000000000000000000006001600160a01b0316826001600160a01b0316148061323157507f00000000000000000000000000000000000000000000000000000000000000006001600160a01b0316826001600160a01b0316145b80610896575050600c546001600160a01b0390811691161490565b61325581614bcc565b60007f00000000000000000000000000000000000000000000000000000000000000006001600160a01b0316638bc6beb26040518163ffffffff1660e01b815260040160206040518083038186803b1580156132b057600080fd5b505afa1580156132c4573d6000803e3d6000fd5b505050506040513d601f19601f820116820180604052508101906132e891906154a3565b90506001600160a01b03811615611d2e5760405163d279c19160e01b81526001600160a01b0382169063d279c1919061332590309060040161539e565b600060405180830381600087803b15801561333f57600080fd5b505af1158015613353573d6000803e3d6000fd5b50506040516370a0823160e01b8152600092506001600160a01b037f00000000000000000000000000000000000000000000000000000000000000001691506370a08231906133a690309060040161539e565b60206040518083038186803b1580156133be57600080fd5b505afa1580156133d2573d6000803e3d6000fd5b505050506040513d601f19601f820116820180604052508101906133f6919061555a565b90508015610c6957610c697f000000000000000000000000000000000000000000000000000000000000000084836001614278565b600354600c54604051637a6f237b60e11b8152600092839283926001600160a01b039283169263f4de46f69261348b927f0000000000000000000000000000000000000000000000000000000000000000929091169089906004016157d8565b60006040518083038186803b1580156134a357600080fd5b505afa1580156134b7573d6000803e3d6000fd5b505050506040513d6000823e601f3d908101601f191682016040526134df91908101906157fc565b9194509250905081156129d9576040516370a0823160e01b81526000906001600160a01b037f000000000000000000000000000000000000000000000000000000000000000016906370a082319061353b90309060040161539e565b60206040518083038186803b15801561355357600080fd5b505afa158015613567573d6000803e3d6000fd5b505050506040513d601f19601f8201168201806040525081019061358b919061555a565b9050808311156135a2576135a261310882856155c4565b600354604051636e74a6f760e01b8152600481018490526001600160a01b0390911690636e74a6f79060240160206040518083038186803b1580156135e657600080fd5b505afa1580156135fa573d6000803e3d6000fd5b505050506040513d601f19601f8201168201806040525081019061361e91906154a3565b6001600160a01b0316638803dbee86858730426040518663ffffffff1660e01b81526004016136519594939291906158bb565b600060405180830381600087803b15801561366b57600080fd5b505af115801561367f573d6000803e3d6000fd5b505050506040513d6000823e601f3d908101601f191682016040526136a791908101906158f7565b505050505050565b80156106e057600c546040516370a0823160e01b81526000916001600160a01b0316906370a08231906136e690309060040161539e565b60206040518083038186803b1580156136fe57600080fd5b505afa158015613712573d6000803e3d6000fd5b505050506040513d601f19601f82011682018060405250810190613736919061555a565b905061374182614dfa565b600c546040516370a0823160e01b815260009183916001600160a01b03909116906370a082319061377690309060040161539e565b60206040518083038186803b15801561378e57600080fd5b505afa1580156137a2573d6000803e3d6000fd5b505050506040513d601f19601f820116820180604052508101906137c6919061555a565b6137d091906155c4565b90508015610c6957600c54610c69906001600160a01b03167f0000000000000000000000000000000000000000000000000000000000000000836001614278565b60008183106138205781611ff0565b5090919050565b600080831580613835575082155b6138755760405162461bcd60e51b8152602060048201526011602482015270616c6c2d696e7075742d67742d7a65726f60781b6044820152606401610689565b6040516305eff7ef60e21b81526000906001600160a01b037f000000000000000000000000000000000000000000000000000000000000000016906317bfdfbc906138c490309060040161539e565b602060405180830381600087803b1580156138de57600080fd5b505af11580156138f2573d6000803e3d6000fd5b505050506040513d601f19601f82011682018060405250810190613916919061555a565b9050600b546000141561392e57600092509050613cc6565b604051633af9e66960e01b81526000906001600160a01b037f00000000000000000000000000000000000000000000000000000000000000001690633af9e6699061397d90309060040161539e565b602060405180830381600087803b15801561399757600080fd5b505af11580156139ab573d6000803e3d6000fd5b505050506040513d601f19601f820116820180604052508101906139cf919061555a565b905060006139fc7f0000000000000000000000000000000000000000000000000000000000000000615010565b90506000808811613a2457868311613a15576000613a2e565b613a1f87846155c4565b613a2e565b613a2e888461584c565b90506000670de0b6b3a7640000613a458484615864565b613a4f9190615883565b90506000600d60009054906101000a90046001600160a01b03166001600160a01b0316637dc0d1d06040518163ffffffff1660e01b815260040160206040518083038186803b158015613aa157600080fd5b505afa158015613ab5573d6000803e3d6000fd5b505050506040513d601f19601f82011682018060405250810190613ad991906154a3565b90506000816001600160a01b031663fc57d4df7f00000000000000000000000000000000000000000000000000000000000000006040518263ffffffff1660e01b8152600401613b29919061539e565b60206040518083038186803b158015613b4157600080fd5b505afa158015613b55573d6000803e3d6000fd5b505050506040513d601f19601f82011682018060405250810190613b79919061555a565b90506000826001600160a01b031663fc57d4df7f00000000000000000000000000000000000000000000000000000000000000006040518263ffffffff1660e01b8152600401613bc9919061539e565b60206040518083038186803b158015613be157600080fd5b505afa158015613bf5573d6000803e3d6000fd5b505050506040513d601f19601f82011682018060405250810190613c19919061555a565b9050600081613c288487615864565b613c329190615883565b905080613c4e576000899a509a50505050505050505050613cc6565b6000612710600b5483613c619190615864565b613c6b9190615883565b90506000612710600a5484613c809190615864565b613c8a9190615883565b9050818b1115613ca557613c9e818c6155c4565b9b50613cba565b8a811115613cba57613cb78b826155c4565b9c505b50505050505050505050505b9250929050565b80156106e05760405163140e25ad60e31b8152600481018290527f00000000000000000000000000000000000000000000000000000000000000006001600160a01b03169063a0712d6890602401602060405180830381600087803b158015613d3557600080fd5b505af1158015613d49573d6000803e3d6000fd5b505050506040513d601f19601f82011682018060405250810190613d6d919061555a565b156106e05760405162461bcd60e51b815260206004820152600d60248201526c1cdd5c1c1b1e4b59985a5b1959609a1b6044820152606401610689565b80156106e05760405163317afabb60e21b8152600481018290527f00000000000000000000000000000000000000000000000000000000000000006001600160a01b03169063c5ebeaec90602401602060405180830381600087803b158015613e1257600080fd5b505af1158015613e26573d6000803e3d6000fd5b505050506040513d601f19601f82011682018060405250810190613e4a919061555a565b15613e875760405162461bcd60e51b815260206004820152600d60248201526c189bdc9c9bddcb59985a5b1959609a1b6044820152606401610689565b6106e081615099565b606081600001805480602002602001604051908101604052809291908181526020018280548015613ee057602002820191906000526020600020905b815481526020019060010190808311613ecc575b50505050509050919050565b613f406001600160a01b037f0000000000000000000000000000000000000000000000000000000000000000167f000000000000000000000000000000000000000000000000000000000000000083614142565b613f946001600160a01b037f0000000000000000000000000000000000000000000000000000000000000000167f000000000000000000000000000000000000000000000000000000000000000083614142565b600c54613fcb906001600160a01b03167f000000000000000000000000000000000000000000000000000000000000000083614142565b60005b600360009054906101000a90046001600160a01b03166001600160a01b031663c2fba6676040518163ffffffff1660e01b815260040160206040518083038186803b15801561401c57600080fd5b505afa158015614030573d6000803e3d6000fd5b505050506040513d601f19601f82011682018060405250810190614054919061555a565b811015611d2e57600354604051636e74a6f760e01b8152600481018390526000916001600160a01b031690636e74a6f79060240160206040518083038186803b1580156140a057600080fd5b505afa1580156140b4573d6000803e3d6000fd5b505050506040513d601f19601f820116820180604052508101906140d891906154a3565b90506140e48184615116565b6141186001600160a01b037f0000000000000000000000000000000000000000000000000000000000000000168285614142565b600c5461412f906001600160a01b03168285614142565b508061413a8161592c565b915050613fce565b8015806141cb5750604051636eb1769f60e11b81523060048201526001600160a01b03838116602483015284169063dd62ed3e9060440160206040518083038186803b15801561419157600080fd5b505afa1580156141a5573d6000803e3d6000fd5b505050506040513d601f19601f820116820180604052508101906141c9919061555a565b155b6142365760405162461bcd60e51b815260206004820152603660248201527f5361666545524332303a20617070726f76652066726f6d206e6f6e2d7a65726f60448201527520746f206e6f6e2d7a65726f20616c6c6f77616e636560501b6064820152608401610689565b610c698363095ea7b360e01b8484604051602401612b8e9291906155db565b600061271061426483826155c4565b61426e9085615864565b611ff09190615883565b826001600160a01b0316846001600160a01b03161415614297576129d9565b600354604051631d1f307960e31b8152600091829182916001600160a01b03169063e8f983c8906142d0908a908a908a906004016157d8565b60006040518083038186803b1580156142e857600080fd5b505afa1580156142fc573d6000803e3d6000fd5b505050506040513d6000823e601f3d908101601f1916820160405261432491908101906157fc565b925092509250836000141561433857600193505b811561140557600354604051636e74a6f760e01b8152600481018390526001600160a01b0390911690636e74a6f79060240160206040518083038186803b15801561438257600080fd5b505afa158015614396573d6000803e3d6000fd5b505050506040513d601f19601f820116820180604052508101906143ba91906154a3565b6001600160a01b03166338ed173986868630426040518663ffffffff1660e01b81526004016143ed9594939291906158bb565b600060405180830381600087803b15801561440757600080fd5b505af115801561441b573d6000803e3d6000fd5b505050506040513d6000823e601f3d908101601f1916820160405261444391908101906158f7565b5050505050505050565b60006144a2826040518060400160405280602081526020017f5361666545524332303a206c6f772d6c6576656c2063616c6c206661696c6564815250856001600160a01b03166151549092919063ffffffff16565b805190915015610c6957808060200190518101906144c09190615609565b610c695760405162461bcd60e51b815260206004820152602a60248201527f5361666545524332303a204552433230206f7065726174696f6e20646964206e6044820152691bdd081cdd58d8d9595960b21b6064820152608401610689565b600080670de0b6b3a76400007f00000000000000000000000000000000000000000000000000000000000000006001600160a01b031663182df0f56040518163ffffffff1660e01b815260040160206040518083038186803b15801561458457600080fd5b505afa158015614598573d6000803e3d6000fd5b505050506040513d601f19601f820116820180604052508101906145bc919061555a565b6040516370a0823160e01b81526001600160a01b037f000000000000000000000000000000000000000000000000000000000000000016906370a082319061460890309060040161539e565b60206040518083038186803b15801561462057600080fd5b505afa158015614634573d6000803e3d6000fd5b505050506040513d601f19601f82011682018060405250810190614658919061555a565b6146629190615864565b61466c9190615883565b9050600061467861200c565b905060007f00000000000000000000000000000000000000000000000000000000000000006001600160a01b03166395dd9193306040518263ffffffff1660e01b81526004016146c8919061539e565b60206040518083038186803b1580156146e057600080fd5b505afa1580156146f4573d6000803e3d6000fd5b505050506040513d601f19601f82011682018060405250810190614718919061555a565b90506000828211156147e057600354600c546001600160a01b039182169163f4de46f6917f0000000000000000000000000000000000000000000000000000000000000000911661476987876155c4565b6040518463ffffffff1660e01b8152600401614787939291906157d8565b60006040518083038186803b15801561479f57600080fd5b505afa1580156147b3573d6000803e3d6000fd5b505050506040513d6000823e601f3d908101601f191682016040526147db91908101906157fc565b509150505b6040516370a0823160e01b815281906001600160a01b037f000000000000000000000000000000000000000000000000000000000000000016906370a082319061482e90309060040161539e565b60206040518083038186803b15801561484657600080fd5b505afa15801561485a573d6000803e3d6000fd5b505050506040513d601f19601f8201168201806040525081019061487e919061555a565b614888908661584c565b611b0891906155c4565b600e546040516305b9783d60e01b815260009182916001600160a01b03909116906305b9783d906148c99087903090600401615947565b60206040518083038186803b1580156148e157600080fd5b505afa1580156148f5573d6000803e3d6000fd5b505050506040513d601f19601f82011682018060405250810190614919919061555a565b9050826001600160a01b03167f00000000000000000000000000000000000000000000000000000000000000006001600160a01b0316141561495c579050610896565b8015612f9057600354604051631d1f307960e31b81526001600160a01b039091169063e8f983c8906149b69086907f00000000000000000000000000000000000000000000000000000000000000009086906004016157d8565b60006040518083038186803b1580156149ce57600080fd5b505afa1580156149e2573d6000803e3d6000fd5b505050506040513d6000823e601f3d908101601f19168201604052614a0a91908101906157fc565b5095945050505050565b614a1d8161516b565b60405163073a938160e11b8152600481018290527f00000000000000000000000000000000000000000000000000000000000000006001600160a01b031690630e75270290602401602060405180830381600087803b158015614a7f57600080fd5b505af1158015614a93573d6000803e3d6000fd5b505050506040513d601f19601f82011682018060405250810190614ab7919061555a565b156106e05760405162461bcd60e51b815260206004820152600c60248201526b1c995c185e4b59985a5b195960a21b6044820152606401610689565b60405163852a12e360e01b8152600481018290527f00000000000000000000000000000000000000000000000000000000000000006001600160a01b03169063852a12e390602401602060405180830381600087803b158015614b5557600080fd5b505af1158015614b69573d6000803e3d6000fd5b505050506040513d601f19601f82011682018060405250810190614b8d919061555a565b156106e05760405162461bcd60e51b815260206004820152600f60248201526e1dda5d1a191c985dcb59985a5b1959608a1b6044820152606401610689565b600d54604051630952c56360e01b81526001600160a01b0390911690630952c56390614bff906000903090600401615947565b600060405180830381600087803b158015614c1957600080fd5b505af1158015614c2d573d6000803e3d6000fd5b5050600d54604051630952c56360e01b81526001600160a01b039091169250630952c5639150614c64906001903090600401615947565b600060405180830381600087803b158015614c7e57600080fd5b505af1158015614c92573d6000803e3d6000fd5b50506040516370a0823160e01b8152600092506001600160a01b037f00000000000000000000000000000000000000000000000000000000000000001691506370a0823190614ce590309060040161539e565b60206040518083038186803b158015614cfd57600080fd5b505afa158015614d11573d6000803e3d6000fd5b505050506040513d601f19601f82011682018060405250810190614d35919061555a565b90508015614d6a57614d6a7f000000000000000000000000000000000000000000000000000000000000000083836001614278565b478015610c695773b31f66aa3c1e785363f0875a1b74e27b85fd66c76001600160a01b031663d0e30db0826040518263ffffffff1660e01b81526004016000604051808303818588803b158015614dc057600080fd5b505af1158015614dd4573d6000803e3d6000fd5b5050505050610c6973b31f66aa3c1e785363f0875a1b74e27b85fd66c784836001614278565b60007f00000000000000000000000000000000000000000000000000000000000000006001600160a01b03166399530b066040518163ffffffff1660e01b815260040160206040518083038186803b158015614e5557600080fd5b505afa158015614e69573d6000803e3d6000fd5b505050506040513d601f19601f82011682018060405250810190614e8d919061555a565b9050600081614ea484670de0b6b3a7640000615864565b614eae9190615883565b9050670de0b6b3a7640000614ec38383615864565b614ecd9190615883565b8311614ed95780614ee4565b614ee481600161584c565b905060007f00000000000000000000000000000000000000000000000000000000000000006001600160a01b03166370a08231306040518263ffffffff1660e01b8152600401614f34919061539e565b60206040518083038186803b158015614f4c57600080fd5b505afa158015614f60573d6000803e3d6000fd5b505050506040513d601f19601f82011682018060405250810190614f84919061555a565b90507f00000000000000000000000000000000000000000000000000000000000000006001600160a01b0316632e1a7d4d828411614fc25783614fc4565b825b6040518263ffffffff1660e01b8152600401614fe291815260200190565b600060405180830381600087803b158015614ffc57600080fd5b505af1158015614443573d6000803e3d6000fd5b600d54604051638e8f294b60e01b81526000916001600160a01b031690638e8f294b9061504190859060040161539e565b60606040518083038186803b15801561505957600080fd5b505afa15801561506d573d6000803e3d6000fd5b505050506040513d601f19601f820116820180604052508101906150919190615963565b509392505050565b60405163b6b55f2560e01b8152600481018290527f00000000000000000000000000000000000000000000000000000000000000006001600160a01b03169063b6b55f2590602401600060405180830381600087803b1580156150fb57600080fd5b505af115801561510f573d6000803e3d6000fd5b5050505050565b6151208282615174565b611d2e6001600160a01b037f0000000000000000000000000000000000000000000000000000000000000000168383614142565b6060615163848460008561520b565b949350505050565b6106e081614dfa565b6151a86001600160a01b037f0000000000000000000000000000000000000000000000000000000000000000168383614142565b7f00000000000000000000000000000000000000000000000000000000000000006001600160a01b031673b31f66aa3c1e785363f0875a1b74e27b85fd66c714611d2e57611d2e73b31f66aa3c1e785363f0875a1b74e27b85fd66c78383614142565b60608247101561526c5760405162461bcd60e51b815260206004820152602660248201527f416464726573733a20696e73756666696369656e742062616c616e636520666f6044820152651c8818d85b1b60d21b6064820152608401610689565b843b6152ba5760405162461bcd60e51b815260206004820152601d60248201527f416464726573733a2063616c6c20746f206e6f6e2d636f6e74726163740000006044820152606401610689565b600080866001600160a01b031685876040516152d691906159a9565b60006040518083038185875af1925050503d8060008114615313576040519150601f19603f3d011682016040523d82523d6000602084013e615318565b606091505b5091509150615328828286615333565b979650505050505050565b60608315615342575081611ff0565b8251156153525782518084602001fd5b8160405162461bcd60e51b8152600401610689919061544e565b6001600160a01b03811681146106e057600080fd5b60006020828403121561539357600080fd5b8135611ff08161536c565b6001600160a01b0391909116815260200190565b6000602082840312156153c457600080fd5b5035919050565b600081518084526020808501945080840160005b838110156154045781516001600160a01b0316875295820195908201906001016153df565b509495945050505050565b602081526000611ff060208301846153cb565b60005b8381101561543d578181015183820152602001615425565b838111156129d95750506000910152565b602081526000825180602084015261546d816040850160208701615422565b601f01601f19169190910160400192915050565b6000806040838503121561549457600080fd5b50508035926020909101359150565b6000602082840312156154b557600080fd5b8151611ff08161536c565b6020808252601a908201527f63616c6c65722d69732d6e6f742d7468652d676f7665726e6f72000000000000604082015260600190565b60208082526019908201527818d85b1b195c8b5a5ccb5b9bdd0b5d995cdc195c8b5c1bdbdb603a1b604082015260600190565b60208082526016908201527531b0b63632b916b4b996b737ba16b096b5b2b2b832b960511b604082015260600190565b60006020828403121561556c57600080fd5b5051919050565b600181811c9082168061558757607f821691505b602082108114156155a857634e487b7160e01b600052602260045260246000fd5b50919050565b634e487b7160e01b600052601160045260246000fd5b6000828210156155d6576155d66155ae565b500390565b6001600160a01b03929092168252602082015260400190565b8051801515811461560457600080fd5b919050565b60006020828403121561561b57600080fd5b611ff0826155f4565b634e487b7160e01b600052604160045260246000fd5b604051601f8201601f1916810167ffffffffffffffff8111828210171561566357615663615624565b604052919050565b600067ffffffffffffffff82111561568557615685615624565b5060051b60200190565b600082601f8301126156a057600080fd5b815160206156b56156b08361566b565b61563a565b82815260059290921b840181019181810190868411156156d457600080fd5b8286015b848110156156f85780516156eb8161536c565b83529183019183016156d8565b509695505050505050565b600082601f83011261571457600080fd5b815160206157246156b08361566b565b82815260059290921b8401810191818101908684111561574357600080fd5b8286015b848110156156f85780518352918301918301615747565b6000806040838503121561577157600080fd5b825167ffffffffffffffff8082111561578957600080fd5b6157958683870161568f565b935060208501519150808211156157ab57600080fd5b506157b885828601615703565b9150509250929050565b634e487b7160e01b600052603260045260246000fd5b6001600160a01b039384168152919092166020820152604081019190915260600190565b60008060006060848603121561581157600080fd5b835167ffffffffffffffff81111561582857600080fd5b6158348682870161568f565b93505060208401519150604084015190509250925092565b6000821982111561585f5761585f6155ae565b500190565b600081600019048311821515161561587e5761587e6155ae565b500290565b6000826158a057634e487b7160e01b600052601260045260246000fd5b500490565b634e487b7160e01b600052603160045260246000fd5b85815284602082015260a0604082015260006158da60a08301866153cb565b6001600160a01b0394909416606083015250608001529392505050565b60006020828403121561590957600080fd5b815167ffffffffffffffff81111561592057600080fd5b61516384828501615703565b6000600019821415615940576159406155ae565b5060010190565b60ff9290921682526001600160a01b0316602082015260400190565b60008060006060848603121561597857600080fd5b615981846155f4565b925060208401519150604084015160ff8116811461599e57600080fd5b809150509250925092565b600082516159bb818460208701615422565b919091019291505056fea26469706673582212200c030a2673d3f32247c7f300a9276b2a0839f0cfc074e1c89d94d48e2fd1bf6b64736f6c63430008090033",
  "devdoc": {
    "kind": "dev",
    "methods": {
      "addKeeper(address)": {
        "params": {
          "_keeperAddress": "keeper address to add."
        }
      },
      "approveToken()": {
        "details": "Approve all required tokens"
      },
      "migrate(address)": {
        "details": "_beforeMigration hook can be implemented in child strategy to do extra steps.",
        "params": {
          "_newStrategy": "Address of new strategy"
        }
      },
      "rebalance()": {
        "details": "Rebalance profit, loss and investment of this strategy"
      },
      "recoverBorrowToken(uint256)": {
        "details": "If we get liquidation in Compound, we will have borrowToken sitting in strategy. This function allows to recover idle borrow token amount.",
        "params": {
          "_amountToRecover": "Amount of borrow token we want to recover in 1 call.      Set it 0 to recover all available borrow tokens"
        }
      },
      "removeKeeper(address)": {
        "params": {
          "_keeperAddress": "keeper address to remove."
        }
      },
      "repayAll()": {
        "details": "This action usually done when loss is detected in strategy.0 borrow limit make sure that any future rebalance do not borrow again."
      },
      "sweepERC20(address)": {
        "details": "sweep given token to feeCollector of strategy",
        "params": {
          "_fromToken": "token address to sweep"
        }
      },
      "totalValueCurrent()": {
        "details": "Report total value in collateral token"
      },
      "updateBorrowLimit(uint256,uint256)": {
        "details": "It is possible to set 0 as _minBorrowLimit to not borrow anything",
        "params": {
          "_maxBorrowLimit": "It is % of actual collateral factor of protocol",
          "_minBorrowLimit": "It is % of actual collateral factor of protocol"
        }
      },
      "updateFeeCollector(address)": {
        "params": {
          "_feeCollector": "fee collector address"
        }
      },
      "updateSwapManager(address)": {
        "params": {
          "_swapManager": "swap manager address"
        }
      },
      "withdraw(uint256)": {
        "details": "Withdraw collateral token from lending pool.",
        "params": {
          "_amount": "Amount of collateral token"
        }
      }
    },
    "title": "Deposit Collateral in Benqi and earn interest by depositing borrowed token in a Vesper Pool.",
    "version": 1
  },
  "userdoc": {
    "kind": "user",
    "methods": {
      "addKeeper(address)": {
        "notice": "Add given address in keepers list."
      },
      "borrowBalance()": {
        "notice": "Gets amount of borrowed Y collateral in strategy + Y collateral amount deposited in vPool"
      },
      "isLossMaking()": {
        "notice": "Calculate current position based on totalValue and debt of strategy"
      },
      "isReservedToken(address)": {
        "notice": "Check whether given token is reserved or not. Reserved tokens are not allowed to sweep."
      },
      "keepers()": {
        "notice": "Return list of keepers"
      },
      "migrate(address)": {
        "notice": "Migrate all asset and vault ownership,if any, to new strategy"
      },
      "recoverBorrowToken(uint256)": {
        "notice": "Recover extra borrow tokens from strategy"
      },
      "removeKeeper(address)": {
        "notice": "Remove given address from keepers list."
      },
      "repayAll()": {
        "notice": "Repay all borrow amount and set min borrow limit to 0."
      },
      "token()": {
        "notice": "Returns address of token correspond to collateral token"
      },
      "totalValue()": {
        "notice": "Calculate total value based Benqi protocol rewards, VSP rewards, supply and borrow position"
      },
      "totalValueCurrent()": {
        "notice": "Calculate total value of asset under management (in real-time)"
      },
      "updateBorrowLimit(uint256,uint256)": {
        "notice": "Update upper and lower borrow limit. Usually maxBorrowLimit < 100% of actual collateral factor of protocol."
      },
      "updateFeeCollector(address)": {
        "notice": "Update fee collector"
      },
      "updateSwapManager(address)": {
        "notice": "Update swap manager address"
      }
    },
    "version": 1
  },
  "storageLayout": {
    "storage": [
      {
        "astId": 13939,
        "contract": "contracts/strategies/compound/VesperTraderJoeXYStrategy.sol:VesperTraderJoeXYStrategy",
        "label": "WETH",
        "offset": 0,
        "slot": "0",
        "type": "t_address"
      },
      {
        "astId": 13944,
        "contract": "contracts/strategies/compound/VesperTraderJoeXYStrategy.sol:VesperTraderJoeXYStrategy",
        "label": "receiptToken",
        "offset": 0,
        "slot": "1",
        "type": "t_address"
      },
      {
        "astId": 13950,
        "contract": "contracts/strategies/compound/VesperTraderJoeXYStrategy.sol:VesperTraderJoeXYStrategy",
        "label": "feeCollector",
        "offset": 0,
        "slot": "2",
        "type": "t_address"
      },
      {
        "astId": 13953,
        "contract": "contracts/strategies/compound/VesperTraderJoeXYStrategy.sol:VesperTraderJoeXYStrategy",
        "label": "swapManager",
        "offset": 0,
        "slot": "3",
        "type": "t_contract(ISwapManager)5716"
      },
      {
        "astId": 13956,
        "contract": "contracts/strategies/compound/VesperTraderJoeXYStrategy.sol:VesperTraderJoeXYStrategy",
        "label": "oraclePeriod",
        "offset": 0,
        "slot": "4",
        "type": "t_uint256"
      },
      {
        "astId": 13959,
        "contract": "contracts/strategies/compound/VesperTraderJoeXYStrategy.sol:VesperTraderJoeXYStrategy",
        "label": "oracleRouterIdx",
        "offset": 0,
        "slot": "5",
        "type": "t_uint256"
      },
      {
        "astId": 13962,
        "contract": "contracts/strategies/compound/VesperTraderJoeXYStrategy.sol:VesperTraderJoeXYStrategy",
        "label": "swapSlippage",
        "offset": 0,
        "slot": "6",
        "type": "t_uint256"
      },
      {
        "astId": 13965,
        "contract": "contracts/strategies/compound/VesperTraderJoeXYStrategy.sol:VesperTraderJoeXYStrategy",
        "label": "_keepers",
        "offset": 0,
        "slot": "7",
        "type": "t_struct(AddressSet)4634_storage"
      },
      {
        "astId": 27371,
        "contract": "contracts/strategies/compound/VesperTraderJoeXYStrategy.sol:VesperTraderJoeXYStrategy",
        "label": "NAME",
        "offset": 0,
        "slot": "9",
        "type": "t_string_storage"
      },
      {
        "astId": 27383,
        "contract": "contracts/strategies/compound/VesperTraderJoeXYStrategy.sol:VesperTraderJoeXYStrategy",
        "label": "minBorrowLimit",
        "offset": 0,
        "slot": "10",
        "type": "t_uint256"
      },
      {
        "astId": 27386,
        "contract": "contracts/strategies/compound/VesperTraderJoeXYStrategy.sol:VesperTraderJoeXYStrategy",
        "label": "maxBorrowLimit",
        "offset": 0,
        "slot": "11",
        "type": "t_uint256"
      },
      {
        "astId": 27388,
        "contract": "contracts/strategies/compound/VesperTraderJoeXYStrategy.sol:VesperTraderJoeXYStrategy",
        "label": "borrowToken",
        "offset": 0,
        "slot": "12",
        "type": "t_address"
      },
      {
        "astId": 27391,
        "contract": "contracts/strategies/compound/VesperTraderJoeXYStrategy.sol:VesperTraderJoeXYStrategy",
        "label": "comptroller",
        "offset": 0,
        "slot": "13",
        "type": "t_contract(Comptroller)5910"
      },
      {
        "astId": 29275,
        "contract": "contracts/strategies/compound/VesperTraderJoeXYStrategy.sol:VesperTraderJoeXYStrategy",
        "label": "rewardDistributor",
        "offset": 0,
        "slot": "14",
        "type": "t_address"
      }
    ],
    "types": {
      "t_address": {
        "encoding": "inplace",
        "label": "address",
        "numberOfBytes": "20"
      },
      "t_array(t_bytes32)dyn_storage": {
        "base": "t_bytes32",
        "encoding": "dynamic_array",
        "label": "bytes32[]",
        "numberOfBytes": "32"
      },
      "t_bytes32": {
        "encoding": "inplace",
        "label": "bytes32",
        "numberOfBytes": "32"
      },
      "t_contract(Comptroller)5910": {
        "encoding": "inplace",
        "label": "contract Comptroller",
        "numberOfBytes": "20"
      },
      "t_contract(ISwapManager)5716": {
        "encoding": "inplace",
        "label": "contract ISwapManager",
        "numberOfBytes": "20"
      },
      "t_mapping(t_bytes32,t_uint256)": {
        "encoding": "mapping",
        "key": "t_bytes32",
        "label": "mapping(bytes32 => uint256)",
        "numberOfBytes": "32",
        "value": "t_uint256"
      },
      "t_string_storage": {
        "encoding": "bytes",
        "label": "string",
        "numberOfBytes": "32"
      },
      "t_struct(AddressSet)4634_storage": {
        "encoding": "inplace",
        "label": "struct EnumerableSet.AddressSet",
        "members": [
          {
            "astId": 4633,
            "contract": "contracts/strategies/compound/VesperTraderJoeXYStrategy.sol:VesperTraderJoeXYStrategy",
            "label": "_inner",
            "offset": 0,
            "slot": "0",
            "type": "t_struct(Set)4333_storage"
          }
        ],
        "numberOfBytes": "64"
      },
      "t_struct(Set)4333_storage": {
        "encoding": "inplace",
        "label": "struct EnumerableSet.Set",
        "members": [
          {
            "astId": 4328,
            "contract": "contracts/strategies/compound/VesperTraderJoeXYStrategy.sol:VesperTraderJoeXYStrategy",
            "label": "_values",
            "offset": 0,
            "slot": "0",
            "type": "t_array(t_bytes32)dyn_storage"
          },
          {
            "astId": 4332,
            "contract": "contracts/strategies/compound/VesperTraderJoeXYStrategy.sol:VesperTraderJoeXYStrategy",
            "label": "_indexes",
            "offset": 0,
            "slot": "1",
            "type": "t_mapping(t_bytes32,t_uint256)"
          }
        ],
        "numberOfBytes": "64"
      },
      "t_uint256": {
        "encoding": "inplace",
        "label": "uint256",
        "numberOfBytes": "32"
      }
    }
  }
}