{
  "address": "0xa3Bf97238A715C84D655f8683886C66718fd33CF",
  "abi": [
    {
      "inputs": [
        {
          "internalType": "address",
          "name": "_pool",
          "type": "address"
        },
        {
          "internalType": "address",
          "name": "_swapManager",
          "type": "address"
        },
        {
          "internalType": "uint256",
          "name": "_collateralIdx",
          "type": "uint256"
        },
        {
          "internalType": "string",
          "name": "_name",
          "type": "string"
        }
      ],
      "stateMutability": "nonpayable",
      "type": "constructor"
    },
    {
      "anonymous": false,
      "inputs": [
        {
          "indexed": false,
          "internalType": "string",
          "name": "reason",
          "type": "string"
        }
      ],
      "name": "DepositFailed",
      "type": "event"
    },
    {
      "anonymous": false,
      "inputs": [
        {
          "indexed": false,
          "internalType": "uint256",
          "name": "oldCrvSlippage",
          "type": "uint256"
        },
        {
          "indexed": false,
          "internalType": "uint256",
          "name": "newCrvSlippage",
          "type": "uint256"
        }
      ],
      "name": "UpdatedCrvSlippage",
      "type": "event"
    },
    {
      "anonymous": false,
      "inputs": [
        {
          "indexed": true,
          "internalType": "address",
          "name": "previousFeeCollector",
          "type": "address"
        },
        {
          "indexed": true,
          "internalType": "address",
          "name": "newFeeCollector",
          "type": "address"
        }
      ],
      "name": "UpdatedFeeCollector",
      "type": "event"
    },
    {
      "anonymous": false,
      "inputs": [
        {
          "indexed": false,
          "internalType": "uint256",
          "name": "oldPeriod",
          "type": "uint256"
        },
        {
          "indexed": false,
          "internalType": "uint256",
          "name": "newPeriod",
          "type": "uint256"
        },
        {
          "indexed": false,
          "internalType": "uint256",
          "name": "oldRouterIdx",
          "type": "uint256"
        },
        {
          "indexed": false,
          "internalType": "uint256",
          "name": "newRouterIdx",
          "type": "uint256"
        }
      ],
      "name": "UpdatedOracleConfig",
      "type": "event"
    },
    {
      "anonymous": false,
      "inputs": [
        {
          "indexed": true,
          "internalType": "address",
          "name": "previousSwapManager",
          "type": "address"
        },
        {
          "indexed": true,
          "internalType": "address",
          "name": "newSwapManager",
          "type": "address"
        }
      ],
      "name": "UpdatedSwapManager",
      "type": "event"
    },
    {
      "anonymous": false,
      "inputs": [
        {
          "indexed": false,
          "internalType": "uint256",
          "name": "oldSwapSlippage",
          "type": "uint256"
        },
        {
          "indexed": false,
          "internalType": "uint256",
          "name": "newSwapSlippage",
          "type": "uint256"
        }
      ],
      "name": "UpdatedSwapSlippage",
      "type": "event"
    },
    {
      "inputs": [],
      "name": "BOOSTER",
      "outputs": [
        {
          "internalType": "address",
          "name": "",
          "type": "address"
        }
      ],
      "stateMutability": "view",
      "type": "function"
    },
    {
      "inputs": [],
      "name": "CRV",
      "outputs": [
        {
          "internalType": "address",
          "name": "",
          "type": "address"
        }
      ],
      "stateMutability": "view",
      "type": "function"
    },
    {
      "inputs": [],
      "name": "CRV_MINTER",
      "outputs": [
        {
          "internalType": "address",
          "name": "",
          "type": "address"
        }
      ],
      "stateMutability": "view",
      "type": "function"
    },
    {
      "inputs": [],
      "name": "CVX",
      "outputs": [
        {
          "internalType": "address",
          "name": "",
          "type": "address"
        }
      ],
      "stateMutability": "view",
      "type": "function"
    },
    {
      "inputs": [],
      "name": "NAME",
      "outputs": [
        {
          "internalType": "string",
          "name": "",
          "type": "string"
        }
      ],
      "stateMutability": "view",
      "type": "function"
    },
    {
      "inputs": [],
      "name": "VERSION",
      "outputs": [
        {
          "internalType": "string",
          "name": "",
          "type": "string"
        }
      ],
      "stateMutability": "view",
      "type": "function"
    },
    {
      "inputs": [
        {
          "internalType": "address",
          "name": "_keeperAddress",
          "type": "address"
        }
      ],
      "name": "addKeeper",
      "outputs": [],
      "stateMutability": "nonpayable",
      "type": "function"
    },
    {
      "inputs": [],
      "name": "approveToken",
      "outputs": [],
      "stateMutability": "nonpayable",
      "type": "function"
    },
    {
      "inputs": [
        {
          "internalType": "uint256",
          "name": "_amtNeeded",
          "type": "uint256"
        },
        {
          "internalType": "uint256",
          "name": "i",
          "type": "uint256"
        }
      ],
      "name": "calcWithdrawLpAs",
      "outputs": [
        {
          "internalType": "uint256",
          "name": "lpToWithdraw",
          "type": "uint256"
        },
        {
          "internalType": "uint256",
          "name": "unstakeAmt",
          "type": "uint256"
        }
      ],
      "stateMutability": "view",
      "type": "function"
    },
    {
      "inputs": [],
      "name": "claimableRewardsInCollateral",
      "outputs": [
        {
          "internalType": "uint256",
          "name": "rewardAsCollateral",
          "type": "uint256"
        }
      ],
      "stateMutability": "view",
      "type": "function"
    },
    {
      "inputs": [
        {
          "internalType": "uint256",
          "name": "",
          "type": "uint256"
        }
      ],
      "name": "coinDecimals",
      "outputs": [
        {
          "internalType": "uint256",
          "name": "",
          "type": "uint256"
        }
      ],
      "stateMutability": "view",
      "type": "function"
    },
    {
      "inputs": [
        {
          "internalType": "uint256",
          "name": "",
          "type": "uint256"
        }
      ],
      "name": "coins",
      "outputs": [
        {
          "internalType": "address",
          "name": "",
          "type": "address"
        }
      ],
      "stateMutability": "view",
      "type": "function"
    },
    {
      "inputs": [],
      "name": "collIdx",
      "outputs": [
        {
          "internalType": "uint256",
          "name": "",
          "type": "uint256"
        }
      ],
      "stateMutability": "view",
      "type": "function"
    },
    {
      "inputs": [],
      "name": "collateralToken",
      "outputs": [
        {
          "internalType": "contract IERC20",
          "name": "",
          "type": "address"
        }
      ],
      "stateMutability": "view",
      "type": "function"
    },
    {
      "inputs": [
        {
          "internalType": "uint256",
          "name": "_amount",
          "type": "uint256"
        }
      ],
      "name": "convertFrom18",
      "outputs": [
        {
          "internalType": "uint256",
          "name": "",
          "type": "uint256"
        }
      ],
      "stateMutability": "view",
      "type": "function"
    },
    {
      "inputs": [],
      "name": "convexPoolId",
      "outputs": [
        {
          "internalType": "uint256",
          "name": "",
          "type": "uint256"
        }
      ],
      "stateMutability": "view",
      "type": "function"
    },
    {
      "inputs": [],
      "name": "crvGauge",
      "outputs": [
        {
          "internalType": "address",
          "name": "",
          "type": "address"
        }
      ],
      "stateMutability": "view",
      "type": "function"
    },
    {
      "inputs": [],
      "name": "crvLp",
      "outputs": [
        {
          "internalType": "address",
          "name": "",
          "type": "address"
        }
      ],
      "stateMutability": "view",
      "type": "function"
    },
    {
      "inputs": [],
      "name": "crvPool",
      "outputs": [
        {
          "internalType": "contract IStableSwapUnderlying",
          "name": "",
          "type": "address"
        }
      ],
      "stateMutability": "view",
      "type": "function"
    },
    {
      "inputs": [],
      "name": "crvSlippage",
      "outputs": [
        {
          "internalType": "uint256",
          "name": "",
          "type": "uint256"
        }
      ],
      "stateMutability": "view",
      "type": "function"
    },
    {
      "inputs": [],
      "name": "cvxCrvRewards",
      "outputs": [
        {
          "internalType": "address",
          "name": "",
          "type": "address"
        }
      ],
      "stateMutability": "view",
      "type": "function"
    },
    {
      "inputs": [],
      "name": "decimalConversionFactor",
      "outputs": [
        {
          "internalType": "uint256",
          "name": "",
          "type": "uint256"
        }
      ],
      "stateMutability": "view",
      "type": "function"
    },
    {
      "inputs": [],
      "name": "depositError",
      "outputs": [
        {
          "internalType": "bool",
          "name": "",
          "type": "bool"
        }
      ],
      "stateMutability": "view",
      "type": "function"
    },
    {
      "inputs": [],
      "name": "feeCollector",
      "outputs": [
        {
          "internalType": "address",
          "name": "",
          "type": "address"
        }
      ],
      "stateMutability": "view",
      "type": "function"
    },
    {
      "inputs": [],
      "name": "getLp",
      "outputs": [
        {
          "internalType": "uint256",
          "name": "total",
          "type": "uint256"
        }
      ],
      "stateMutability": "view",
      "type": "function"
    },
    {
      "inputs": [
        {
          "internalType": "uint256",
          "name": "_lpAmount",
          "type": "uint256"
        }
      ],
      "name": "getLpValue",
      "outputs": [
        {
          "internalType": "uint256",
          "name": "",
          "type": "uint256"
        }
      ],
      "stateMutability": "view",
      "type": "function"
    },
    {
      "inputs": [
        {
          "internalType": "uint256",
          "name": "_lpAmount",
          "type": "uint256"
        },
        {
          "internalType": "uint256",
          "name": "i",
          "type": "uint256"
        }
      ],
      "name": "getLpValueAs",
      "outputs": [
        {
          "internalType": "uint256",
          "name": "",
          "type": "uint256"
        }
      ],
      "stateMutability": "view",
      "type": "function"
    },
    {
      "inputs": [],
      "name": "isClaimRewards",
      "outputs": [
        {
          "internalType": "bool",
          "name": "",
          "type": "bool"
        }
      ],
      "stateMutability": "view",
      "type": "function"
    },
    {
      "inputs": [
        {
          "internalType": "address",
          "name": "_token",
          "type": "address"
        }
      ],
      "name": "isReservedToken",
      "outputs": [
        {
          "internalType": "bool",
          "name": "",
          "type": "bool"
        }
      ],
      "stateMutability": "view",
      "type": "function"
    },
    {
      "inputs": [],
      "name": "keepers",
      "outputs": [
        {
          "internalType": "address[]",
          "name": "",
          "type": "address[]"
        }
      ],
      "stateMutability": "view",
      "type": "function"
    },
    {
      "inputs": [
        {
          "internalType": "address",
          "name": "_newStrategy",
          "type": "address"
        }
      ],
      "name": "migrate",
      "outputs": [],
      "stateMutability": "nonpayable",
      "type": "function"
    },
    {
      "inputs": [],
      "name": "oraclePeriod",
      "outputs": [
        {
          "internalType": "uint256",
          "name": "",
          "type": "uint256"
        }
      ],
      "stateMutability": "view",
      "type": "function"
    },
    {
      "inputs": [],
      "name": "oracleRouterIdx",
      "outputs": [
        {
          "internalType": "uint256",
          "name": "",
          "type": "uint256"
        }
      ],
      "stateMutability": "view",
      "type": "function"
    },
    {
      "inputs": [],
      "name": "pool",
      "outputs": [
        {
          "internalType": "address",
          "name": "",
          "type": "address"
        }
      ],
      "stateMutability": "view",
      "type": "function"
    },
    {
      "inputs": [],
      "name": "rebalance",
      "outputs": [],
      "stateMutability": "nonpayable",
      "type": "function"
    },
    {
      "inputs": [],
      "name": "receiptToken",
      "outputs": [
        {
          "internalType": "address",
          "name": "",
          "type": "address"
        }
      ],
      "stateMutability": "view",
      "type": "function"
    },
    {
      "inputs": [
        {
          "internalType": "address",
          "name": "_keeperAddress",
          "type": "address"
        }
      ],
      "name": "removeKeeper",
      "outputs": [],
      "stateMutability": "nonpayable",
      "type": "function"
    },
    {
      "inputs": [
        {
          "internalType": "uint256",
          "name": "",
          "type": "uint256"
        }
      ],
      "name": "rewardTokens",
      "outputs": [
        {
          "internalType": "address",
          "name": "",
          "type": "address"
        }
      ],
      "stateMutability": "view",
      "type": "function"
    },
    {
      "inputs": [],
      "name": "setCheckpoint",
      "outputs": [],
      "stateMutability": "nonpayable",
      "type": "function"
    },
    {
      "inputs": [
        {
          "internalType": "address[]",
          "name": "",
          "type": "address[]"
        }
      ],
      "name": "setRewardTokens",
      "outputs": [],
      "stateMutability": "nonpayable",
      "type": "function"
    },
    {
      "inputs": [],
      "name": "setupOracles",
      "outputs": [],
      "stateMutability": "nonpayable",
      "type": "function"
    },
    {
      "inputs": [],
      "name": "swapManager",
      "outputs": [
        {
          "internalType": "contract ISwapManager",
          "name": "",
          "type": "address"
        }
      ],
      "stateMutability": "view",
      "type": "function"
    },
    {
      "inputs": [],
      "name": "swapSlippage",
      "outputs": [
        {
          "internalType": "uint256",
          "name": "",
          "type": "uint256"
        }
      ],
      "stateMutability": "view",
      "type": "function"
    },
    {
      "inputs": [
        {
          "internalType": "address",
          "name": "_fromToken",
          "type": "address"
        }
      ],
      "name": "sweepERC20",
      "outputs": [],
      "stateMutability": "nonpayable",
      "type": "function"
    },
    {
      "inputs": [],
      "name": "token",
      "outputs": [
        {
          "internalType": "address",
          "name": "",
          "type": "address"
        }
      ],
      "stateMutability": "view",
      "type": "function"
    },
    {
      "inputs": [],
      "name": "totalLp",
      "outputs": [
        {
          "internalType": "uint256",
          "name": "total",
          "type": "uint256"
        }
      ],
      "stateMutability": "view",
      "type": "function"
    },
    {
      "inputs": [],
      "name": "totalStaked",
      "outputs": [
        {
          "internalType": "uint256",
          "name": "total",
          "type": "uint256"
        }
      ],
      "stateMutability": "view",
      "type": "function"
    },
    {
      "inputs": [],
      "name": "totalValue",
      "outputs": [
        {
          "internalType": "uint256",
          "name": "_value",
          "type": "uint256"
        }
      ],
      "stateMutability": "view",
      "type": "function"
    },
    {
      "inputs": [],
      "name": "totalValueCurrent",
      "outputs": [
        {
          "internalType": "uint256",
          "name": "",
          "type": "uint256"
        }
      ],
      "stateMutability": "nonpayable",
      "type": "function"
    },
    {
      "inputs": [
        {
          "internalType": "bool",
          "name": "_isClaimRewards",
          "type": "bool"
        }
      ],
      "name": "updateClaimRewards",
      "outputs": [],
      "stateMutability": "nonpayable",
      "type": "function"
    },
    {
      "inputs": [
        {
          "internalType": "uint256",
          "name": "_newCrvSlippage",
          "type": "uint256"
        }
      ],
      "name": "updateCrvSlippage",
      "outputs": [],
      "stateMutability": "nonpayable",
      "type": "function"
    },
    {
      "inputs": [
        {
          "internalType": "address",
          "name": "_feeCollector",
          "type": "address"
        }
      ],
      "name": "updateFeeCollector",
      "outputs": [],
      "stateMutability": "nonpayable",
      "type": "function"
    },
    {
      "inputs": [
        {
          "internalType": "uint256",
          "name": "_newPeriod",
          "type": "uint256"
        },
        {
          "internalType": "uint256",
          "name": "_newRouterIdx",
          "type": "uint256"
        }
      ],
      "name": "updateOracleConfig",
      "outputs": [],
      "stateMutability": "nonpayable",
      "type": "function"
    },
    {
      "inputs": [
        {
          "internalType": "address",
          "name": "_swapManager",
          "type": "address"
        }
      ],
      "name": "updateSwapManager",
      "outputs": [],
      "stateMutability": "nonpayable",
      "type": "function"
    },
    {
      "inputs": [
        {
          "internalType": "uint256",
          "name": "_newSwapSlippage",
          "type": "uint256"
        }
      ],
      "name": "updateSwapSlippage",
      "outputs": [],
      "stateMutability": "nonpayable",
      "type": "function"
    },
    {
      "inputs": [],
      "name": "usdRate",
      "outputs": [
        {
          "internalType": "uint256",
          "name": "",
          "type": "uint256"
        }
      ],
      "stateMutability": "view",
      "type": "function"
    },
    {
      "inputs": [],
      "name": "usdRateTimestamp",
      "outputs": [
        {
          "internalType": "uint256",
          "name": "",
          "type": "uint256"
        }
      ],
      "stateMutability": "view",
      "type": "function"
    },
    {
      "inputs": [
        {
          "internalType": "uint256",
          "name": "_amount",
          "type": "uint256"
        }
      ],
      "name": "withdraw",
      "outputs": [],
      "stateMutability": "nonpayable",
      "type": "function"
    }
  ],
  "transactionHash": "0x1ba5dd6d2e87edb7f8640a3cbe88147ae6d7e4ac4733b6091a65f403e46218a9",
  "args": [
    "0x8BCdd6a8168d658dFA19721eaB7470e43398Db25",
    "0xe382d9f2394A359B01006faa8A1864b8a60d2710",
    2,
    "ConvexD3PoolStrategyAlUSD"
  ],
  "solcInputHash": "a2f26c136ad48683fbbc538fa11c4721",
  "bytecode": "0x6101a0604052600080546001600160a01b031990811673d533a949740bb3306d119cc777fa900ba034cd521782556001805490911673c02aaa39b223fe8d0a0e5c4f27ead9083c756cc2179055610e10600555600655612710600755600a6012553480156200006d57600080fd5b5060405162006e2e38038062006e2e833981016040819052620000909162000af9565b8373baaa1f5dba42c3389bdbc2c9d2de134f5cd0dc89807316c2bee6f55dab7f494dba643ff52ef2d47fba368686603a60038886838a82808a8a8a8989878487808089620000e2565b60405180910390fd5b6001600160a01b0382166200013a5760405162461bcd60e51b815260206004820152601860248201527f4352564d67723a20696e76616c6964206c7020746f6b656e00000000000000006044820152606401620000d9565b6001600160a01b038116620001925760405162461bcd60e51b815260206004820152601560248201527f4352564d67723a20696e76616c696420676175676500000000000000000000006044820152606401620000d9565b6001600160601b0319606093841b811660805291831b821660a05290911b1660c0526001600160a01b0383166200020c5760405162461bcd60e51b815260206004820152601460248201527f706f6f6c2d616464726573732d69732d7a65726f0000000000000000000000006044820152606401620000d9565b6001600160a01b038216620002595760405162461bcd60e51b8152602060048201526012602482015271736d2d616464726573732d69732d7a65726f60701b6044820152606401620000d9565b600480546001600160a01b0319166001600160a01b03848116919091178255606085901b6001600160601b0319166101005260408051637e062a3560e11b815290519186169263fc0c546a928282019260209290829003018186803b158015620002c257600080fd5b505afa158015620002d7573d6000803e3d6000fd5b505050506040513d601f19601f82011682018060405250810190620002fd919062000a3d565b60601b6001600160601b03191660e052600280546001600160a01b0319166001600160a01b0383161790556200034a620003343390565b60086200078860201b620022921790919060201c565b6200038c5760405162461bcd60e51b81526020600482015260116024820152701859190b5ad9595c195c8b59985a5b1959607a1b6044820152606401620000d9565b505050818310620003d55760405162461bcd60e51b81526020600482015260126024820152711a5b9d985b1a590b58dbdb1b185d195c985b60721b6044820152606401620000d9565b6101408290526001600160a01b038681166000908152600b60205260408082208054600160ff1991821681179092558354909416835291208054909216179055610120839052620004278783620007a8565b876001600160a01b031663fc0c546a6040518163ffffffff1660e01b815260040160206040518083038186803b1580156200046157600080fd5b505afa15801562000476573d6000803e3d6000fd5b505050506040513d601f19601f820116820180604052508101906200049c919062000a3d565b6001600160a01b0316600e8481548110620004c757634e487b7160e01b600052603260045260246000fd5b6000918252602090912001546001600160a01b0316146200052b5760405162461bcd60e51b815260206004820152601360248201527f636f6c6c61746572616c2d6d69736d61746368000000000000000000000000006044820152606401620000d9565b6000600e84815481106200054f57634e487b7160e01b600052603260045260246000fd5b600091825260209182902001546040805163313ce56760e01b815290516001600160a01b039092169263313ce56792600480840193829003018186803b1580156200059957600080fd5b505afa158015620005ae573d6000803e3d6000fd5b505050506040513d601f19601f82011682018060405250810190620005d4919062000c05565b60ff169050620005e681601262000d66565b620005f390600a62000c7e565b60135581516200060b90600a90602085019062000997565b505060008054601080546001810182559083527f1b6847dc741a1b0cd08d278845f9d819d87b734759afb55fe2de5cb82a9ae6720180546001600160a01b0319166001600160a01b03909216919091179055604051631526fe2760e01b815290985088975073f403c135812408bfbe8713b5a23a04b3d48aae319650631526fe279550620006a49450899350600401915062000c289050565b60c06040518083038186803b158015620006bd57600080fd5b505afa158015620006d2573d6000803e3d6000fd5b505050506040513d601f19601f82011682018060405250810190620006f8919062000a63565b5050935050509150836001600160a01b0316826001600160a01b031614620007585760405162461bcd60e51b815260206004820152601260248201527134b731b7b93932b1ba16b63816ba37b5b2b760711b6044820152606401620000d9565b60601b6001600160601b031916610160525061018052505060006006555062000e209a5050505050505050505050565b60006200079f836001600160a01b03841662000945565b90505b92915050565b60005b81811015620009405760405163c661065760e01b815260048101829052600e906001600160a01b0385169063c66106579060240160206040518083038186803b158015620007f857600080fd5b505afa1580156200080d573d6000803e3d6000fd5b505050506040513d601f19601f8201168201806040525081019062000833919062000a3d565b81546001810183556000928352602090922090910180546001600160a01b0319166001600160a01b03909216919091179055600e8054600f9190839081106200088c57634e487b7160e01b600052603260045260246000fd5b600091825260209182902001546040805163313ce56760e01b815290516001600160a01b039092169263313ce56792600480840193829003018186803b158015620008d657600080fd5b505afa158015620008eb573d6000803e3d6000fd5b505050506040513d601f19601f8201168201806040525081019062000911919062000c05565b81546001810183556000928352602090922060ff90911691015580620009378162000dbd565b915050620007ab565b505050565b60008181526001830160205260408120546200098e57508154600181810184556000848152602080822090930184905584548482528286019093526040902091909155620007a2565b506000620007a2565b828054620009a59062000d80565b90600052602060002090601f016020900481019282620009c9576000855562000a14565b82601f10620009e457805160ff191683800117855562000a14565b8280016001018555821562000a14579182015b8281111562000a14578251825591602001919060010190620009f7565b5062000a2292915062000a26565b5090565b5b8082111562000a22576000815560010162000a27565b60006020828403121562000a4f578081fd5b815162000a5c8162000e07565b9392505050565b60008060008060008060c0878903121562000a7c578182fd5b865162000a898162000e07565b602088015190965062000a9c8162000e07565b604088015190955062000aaf8162000e07565b606088015190945062000ac28162000e07565b608088015190935062000ad58162000e07565b60a0880151909250801515811462000aeb578182fd5b809150509295509295509295565b6000806000806080858703121562000b0f578384fd5b845162000b1c8162000e07565b8094505060208086015162000b318162000e07565b6040870151606088015191955093506001600160401b038082111562000b55578384fd5b818801915088601f83011262000b69578384fd5b81518181111562000b7e5762000b7e62000df1565b604051601f8201601f19908116603f0116810190838211818310171562000ba95762000ba962000df1565b816040528281528b8684870101111562000bc1578687fd5b8693505b8284101562000be4578484018601518185018701529285019262000bc5565b8284111562000bf557868684830101525b989b979a50959850505050505050565b60006020828403121562000c17578081fd5b815160ff8116811462000a5c578182fd5b90815260200190565b80825b600180861162000c45575062000c75565b81870482111562000c5a5762000c5a62000ddb565b8086161562000c6857918102915b9490941c93800262000c34565b94509492505050565b60006200079f600019848460008262000c9a5750600162000a5c565b8162000ca95750600062000a5c565b816001811462000cc2576002811462000ccd5762000d01565b600191505062000a5c565b60ff84111562000ce15762000ce162000ddb565b6001841b91508482111562000cfa5762000cfa62000ddb565b5062000a5c565b5060208310610133831016604e8410600b841016171562000d39575081810a8381111562000d335762000d3362000ddb565b62000a5c565b62000d48848484600162000c31565b80860482111562000d5d5762000d5d62000ddb565b02949350505050565b60008282101562000d7b5762000d7b62000ddb565b500390565b600181811c9082168062000d9557607f821691505b6020821081141562000db757634e487b7160e01b600052602260045260246000fd5b50919050565b600060001982141562000dd45762000dd462000ddb565b5060010190565b634e487b7160e01b600052601160045260246000fd5b634e487b7160e01b600052604160045260246000fd5b6001600160a01b038116811462000e1d57600080fd5b50565b60805160601c60a05160601c60c05160601c60e05160601c6101005160601c61012051610140516101605160601c61018051615dc46200106a60003960008181610720015261462d01526000818161060401528181610cd2015281816115d3015281816122c2015281816123d101528181612559015281816127610152818161281001528181612b0001528181612baf0152818161478f015281816148ea015261508f015260008181612eb901526149f101526000818161043101528181613ef70152818161426f015261435f015260008181610383015281816107ce015281816109cc01528181610e0501528181610f86015281816110920152818161124501528181611421015281816114960152818161154e01528181611780015281816119d601528181611abb01528181611b5801528181611db501528181613066015281816131ae0152818161324e0152613a8101526000818161064601528181610b6e01528181611ce801528181611d8c01528181611fb6015281816120bc01528181612f94015281816130440152818161333401528181613a5f01528181613ab301528181613ce601528181613f890152818161402d015281816140ce015261410c0152600081816107860152818161311f0152613d4f01526000818161057601528181610d6e0152818161167201528181612e5401528181613d2d015261459101526000818161066d0152818161091f01528181610ecd01528181613ad5015281816142cf015281816143c00152818161449901528181614b560152614baf0152615dc46000f3fe608060405234801561001057600080fd5b506004361061030e5760003560e01c8063817b1cd21161019e578063c609d46c116100ef578063e00af4a71161009d578063e00af4a714610708578063e529ee951461071b578063e645c20214610742578063ec78e8321461074a578063fb589de21461075d578063fc0c546a14610770578063fd57a4df14610781578063ffa1ad74146107a85761030e565b8063c609d46c146106a2578063c6610657146106b5578063cd2d7ebe146106c8578063ce5494bb146106d1578063d2c35ce8146106e4578063d4c3eea0146106f7578063d572fd7f146106ff5761030e565b8063a3f4df7e1161014c578063a3f4df7e146105ea578063a7404b70146105ff578063a923b2a614610626578063aa10188614610639578063b2016bd414610641578063b20fdc0d14610668578063c415b95c1461068f5761030e565b8063817b1cd21461059857806385cf1c55146105a05780638fe91ffb146105a8578063945c9142146105b1578063951dc22c146105c457806396dd5a78146105d957806399b71d5c146105e25761030e565b806342189c8f1161026357806374db9ad41161021157806374db9ad4146104f4578063759cb53b1461050f57806375b0ffd11461052a57806379b37a861461054557806379d5279f1461054e5780637bb7bed1146105565780637d7c2a1c146105695780637f44579b146105715761030e565b806342189c8f14610466578063440d72481461046f5780634c36fad71461049b57806367f5e4b8146104ae5780636fe702c0146104c1578063709d039d146104ce57806372db30f3146104e15761030e565b8063201e81a8116102c0578063201e81a8146103c3578063242c135d146103d65780632e1a7d4d146103de578063319a444d146103f1578063379173bb1461041957806337d265db1461042c5780634032b72b146104535761030e565b806304f4efc514610313578063058062b3146103285780630acd095b1461034e57806314ae9f2e1461036b57806316f0115b1461037e5780631aedeabe146103b25780631eb69b77146103bb575b600080fd5b610326610321366004615752565b6107cc565b005b61033b610336366004615752565b610905565b6040519081526020015b60405180910390f35b60145461035b9060ff1681565b6040519015158152602001610345565b6103266103793660046154f5565b6109ca565b6103a57f000000000000000000000000000000000000000000000000000000000000000081565b604051610345919061588e565b61033b60075481565b61033b610adc565b6103266103d136600461552d565b610c55565b61033b610cb8565b6103266103ec366004615752565b610e02565b6104046103ff366004615782565b610e53565b60408051928352602083019190915201610345565b61033b610427366004615782565b610ebd565b61033b7f000000000000000000000000000000000000000000000000000000000000000081565b6103266104613660046154f5565b610f84565b61033b60055481565b61035b61047d3660046154f5565b6001600160a01b03166000908152600b602052604090205460ff1690565b6103266104a93660046154f5565b611090565b6103266104bc366004615752565b611243565b60115461035b9060ff1681565b6004546103a5906001600160a01b031681565b61033b6104ef366004615752565b611366565b6103a573d061d61a4d941c39e5453435b6345dc261c2fce081565b6103a5734e3fbd56cd56c3e72c1403e103b45db9da5b9d2b81565b6103a573f403c135812408bfbe8713b5a23a04b3d48aae3181565b61033b600c5481565b610326611387565b6103a5610564366004615752565b611391565b6103266113bb565b6103a57f000000000000000000000000000000000000000000000000000000000000000081565b61033b6115b9565b61033b611658565b61033b60135481565b6000546103a5906001600160a01b031681565b6105cc6116a7565b60405161034591906158c6565b61033b600d5481565b6103266116b6565b6105f26116f0565b6040516103459190615911565b6103a57f000000000000000000000000000000000000000000000000000000000000000081565b610326610634366004615782565b61177e565b6103266119a7565b6103a57f000000000000000000000000000000000000000000000000000000000000000081565b6103a57f000000000000000000000000000000000000000000000000000000000000000081565b6003546103a5906001600160a01b031681565b6103266106b036600461571a565b6119d4565b6103a56106c3366004615752565b611aa8565b61033b60065481565b6103266106df3660046154f5565b611ab8565b6103266106f23660046154f5565b611db3565b61033b611f7c565b61033b60125481565b6103266107163660046154f5565b612045565b61033b7f000000000000000000000000000000000000000000000000000000000000000081565b61033b612278565b6002546103a5906001600160a01b031681565b61033b61076b366004615752565b612282565b6002546001600160a01b03166103a5565b6103a57f000000000000000000000000000000000000000000000000000000000000000081565b6105f2604051806040016040528060058152602001640342e302e360dc1b81525081565b7f00000000000000000000000000000000000000000000000000000000000000006001600160a01b0316630c340a246040518163ffffffff1660e01b815260040160206040518083038186803b15801561082557600080fd5b505afa158015610839573d6000803e3d6000fd5b505050506040513d601f19601f8201168201806040525081019061085d9190615511565b6001600160a01b0316336001600160a01b0316146108965760405162461bcd60e51b815260040161088d906159a4565b60405180910390fd5b61271081106108b75760405162461bcd60e51b815260040161088d90615974565b60125460408051918252602082018390527f92a63de30132f370b1c9f477f770f1e326f1423d1b569641a4728fa610569f86910160405180910390a1806012546109019190615bd8565b5050565b6000816109135760006109c2565b670de0b6b3a7640000827f00000000000000000000000000000000000000000000000000000000000000006001600160a01b031663bb7b8b806040518163ffffffff1660e01b815260040160206040518083038186803b15801561097657600080fd5b505afa15801561098a573d6000803e3d6000fd5b505050506040513d601f19601f820116820180604052508101906109ae919061576a565b6109b89190615bb9565b6109c29190615a85565b90505b919050565b7f00000000000000000000000000000000000000000000000000000000000000006001600160a01b0316630c340a246040518163ffffffff1660e01b815260040160206040518083038186803b158015610a2357600080fd5b505afa158015610a37573d6000803e3d6000fd5b505050506040513d601f19601f82011682018060405250810190610a5b9190615511565b6001600160a01b0316336001600160a01b031614610a8b5760405162461bcd60e51b815260040161088d906159a4565b610a966008826122a7565b610ad95760405162461bcd60e51b81526020600482015260146024820152731c995b5bdd994b5ad9595c195c8b59985a5b195960621b604482015260640161088d565b50565b600080610ae76122bc565b905060005b8151811015610c5057818181518110610b1557634e487b7160e01b600052603260045260246000fd5b602002602001015160200151600014610c3e5760045482516000916001600160a01b03169063e8f983c890859085908110610b6057634e487b7160e01b600052603260045260246000fd5b6020026020010151600001517f0000000000000000000000000000000000000000000000000000000000000000868681518110610bad57634e487b7160e01b600052603260045260246000fd5b6020026020010151602001516040518463ffffffff1660e01b8152600401610bd7939291906158a2565b60006040518083038186803b158015610bef57600080fd5b505afa158015610c03573d6000803e3d6000fd5b505050506040513d6000823e601f3d908101601f19168201604052610c2b91908101906155d2565b509150610c3a90508185615a6d565b9350505b80610c4881615c7c565b915050610aec565b505090565b610c62335b600890612737565b610c7e5760405162461bcd60e51b815260040161088d90615944565b610c86612759565b8051610c9a91601091602090910190615461565b50610ca56000612e47565b610cb0600019612e47565b610ad9612e98565b6040516370a0823160e01b81526000906001600160a01b037f000000000000000000000000000000000000000000000000000000000000000016906370a0823190610d0790309060040161588e565b60206040518083038186803b158015610d1f57600080fd5b505afa158015610d33573d6000803e3d6000fd5b505050506040513d601f19601f82011682018060405250810190610d57919061576a565b6040516370a0823160e01b81526001600160a01b037f000000000000000000000000000000000000000000000000000000000000000016906370a0823190610da390309060040161588e565b60206040518083038186803b158015610dbb57600080fd5b505afa158015610dcf573d6000803e3d6000fd5b505050506040513d601f19601f82011682018060405250810190610df3919061576a565b610dfd9190615a6d565b905090565b337f00000000000000000000000000000000000000000000000000000000000000006001600160a01b031614610e4a5760405162461bcd60e51b815260040161088d906159db565b610ad981612f7a565b6000806000610e60611658565b90506000610e6c610cb8565b9050610e788186610ebd565b610e828288615bb9565b610e8c9190615a85565b9350808411610e9b5783610e9d565b805b935081841115610eb457610eb18285615bd8565b92505b50509250929050565b600082610ecb576000610f7b565b7f00000000000000000000000000000000000000000000000000000000000000006001600160a01b031663cc2b27d784610f048561308b565b6040516001600160e01b031960e085901b1681526004810192909252600f0b602482015260440160206040518083038186803b158015610f4357600080fd5b505afa158015610f57573d6000803e3d6000fd5b505050506040513d601f19601f82011682018060405250810190610f7b919061576a565b90505b92915050565b7f00000000000000000000000000000000000000000000000000000000000000006001600160a01b0316630c340a246040518163ffffffff1660e01b815260040160206040518083038186803b158015610fdd57600080fd5b505afa158015610ff1573d6000803e3d6000fd5b505050506040513d601f19601f820116820180604052508101906110159190615511565b6001600160a01b0316336001600160a01b0316146110455760405162461bcd60e51b815260040161088d906159a4565b611050600882612292565b610ad95760405162461bcd60e51b81526020600482015260116024820152701859190b5ad9595c195c8b59985a5b1959607a1b604482015260640161088d565b7f00000000000000000000000000000000000000000000000000000000000000006001600160a01b0316630c340a246040518163ffffffff1660e01b815260040160206040518083038186803b1580156110e957600080fd5b505afa1580156110fd573d6000803e3d6000fd5b505050506040513d601f19601f820116820180604052508101906111219190615511565b6001600160a01b0316336001600160a01b0316146111515760405162461bcd60e51b815260040161088d906159a4565b6001600160a01b03811661119c5760405162461bcd60e51b8152602060048201526012602482015271736d2d616464726573732d69732d7a65726f60701b604482015260640161088d565b6004546001600160a01b03828116911614156111e75760405162461bcd60e51b815260206004820152600a602482015269736d2d69732d73616d6560b01b604482015260640161088d565b6004546040516001600160a01b038084169216907f2d19927e7cac08ceb98b38898a4fdff6da6a27295b9a2d62fe250408ebe044e190600090a3600480546001600160a01b0319166001600160a01b0392909216919091179055565b7f00000000000000000000000000000000000000000000000000000000000000006001600160a01b0316630c340a246040518163ffffffff1660e01b815260040160206040518083038186803b15801561129c57600080fd5b505afa1580156112b0573d6000803e3d6000fd5b505050506040513d601f19601f820116820180604052508101906112d49190615511565b6001600160a01b0316336001600160a01b0316146113045760405162461bcd60e51b815260040161088d906159a4565b6127108111156113265760405162461bcd60e51b815260040161088d90615974565b60075460408051918252602082018390527ef1c5db862c7598b3b6765552ca951f498611e06412c2d57f8d0b58f82e7f82910160405180910390a1600755565b600f818154811061137657600080fd5b600091825260209091200154905081565b61138f613108565b565b601081815481106113a157600080fd5b6000918252602090912001546001600160a01b0316905081565b6113c433610c5a565b6113e05760405162461bcd60e51b815260040161088d90615944565b60008060006113ed6131a6565b6040516302df682360e11b815260048101849052602481018390526044810182905292955090935091506001600160a01b037f000000000000000000000000000000000000000000000000000000000000000016906305bed04690606401600060405180830381600087803b15801561146557600080fd5b505af1158015611479573d6000803e3d6000fd5b50505050611485613310565b60115460ff166115b45760006115357f00000000000000000000000000000000000000000000000000000000000000006001600160a01b0316639f2b2833306040518263ffffffff1660e01b81526004016114e0919061588e565b60206040518083038186803b1580156114f857600080fd5b505afa15801561150c573d6000803e3d6000fd5b505050506040513d601f19601f82011682018060405250810190611530919061576a565b6133dc565b6040516306eeb69360e51b8152600481018290529091507f00000000000000000000000000000000000000000000000000000000000000006001600160a01b03169063ddd6d26090602401600060405180830381600087803b15801561159a57600080fd5b505af11580156115ae573d6000803e3d6000fd5b50505050505b505050565b6040516370a0823160e01b81526000906001600160a01b037f000000000000000000000000000000000000000000000000000000000000000016906370a082319061160890309060040161588e565b60206040518083038186803b15801561162057600080fd5b505afa158015611634573d6000803e3d6000fd5b505050506040513d601f19601f82011682018060405250810190610dfd919061576a565b6040516370a0823160e01b81526000906001600160a01b037f000000000000000000000000000000000000000000000000000000000000000016906370a082319061160890309060040161588e565b6060610dfd600861340d565b90565b6116bf33610c5a565b6116db5760405162461bcd60e51b815260040161088d90615944565b6116e56000612e47565b61138f600019612e47565b600a80546116fd90615c1b565b80601f016020809104026020016040519081016040528092919081815260200182805461172990615c1b565b80156117765780601f1061174b57610100808354040283529160200191611776565b820191906000526020600020905b81548152906001019060200180831161175957829003601f168201915b505050505081565b7f00000000000000000000000000000000000000000000000000000000000000006001600160a01b0316630c340a246040518163ffffffff1660e01b815260040160206040518083038186803b1580156117d757600080fd5b505afa1580156117eb573d6000803e3d6000fd5b505050506040513d601f19601f8201168201806040525081019061180f9190615511565b6001600160a01b0316336001600160a01b03161461183f5760405162461bcd60e51b815260040161088d906159a4565b600480546040805163c2fba66760e01b815290516001600160a01b039092169263c2fba667928282019260209290829003018186803b15801561188157600080fd5b505afa158015611895573d6000803e3d6000fd5b505050506040513d601f19601f820116820180604052508101906118b9919061576a565b81106118fe5760405162461bcd60e51b81526020600482015260146024820152730d2dcecc2d8d2c85ae4deeae8cae45ad2dcc8caf60631b604482015260640161088d565b816119095760055491505b603b82116119515760405162461bcd60e51b81526020600482015260156024820152741a5b9d985b1a590b5bdc9858db194b5c195c9a5bd9605a1b604482015260640161088d565b6005546006546040805192835260208301859052820152606081018290527f83bc5ab8030537fcf1d29c2334f6d22c26c82dcbe5ff03923d2cff5c692c0a7f9060800160405180910390a1600591909155600655565b6119b033610c5a565b6119cc5760405162461bcd60e51b815260040161088d90615944565b61138f612e98565b7f00000000000000000000000000000000000000000000000000000000000000006001600160a01b0316630c340a246040518163ffffffff1660e01b815260040160206040518083038186803b158015611a2d57600080fd5b505afa158015611a41573d6000803e3d6000fd5b505050506040513d601f19601f82011682018060405250810190611a659190615511565b6001600160a01b0316336001600160a01b031614611a955760405162461bcd60e51b815260040161088d906159a4565b6014805460ff1916911515919091179055565b600e81815481106113a157600080fd5b337f00000000000000000000000000000000000000000000000000000000000000006001600160a01b031614611b005760405162461bcd60e51b815260040161088d906159db565b6001600160a01b038116611b565760405162461bcd60e51b815260206004820152601c60248201527f6e65772d73747261746567792d616464726573732d69732d7a65726f00000000604482015260640161088d565b7f00000000000000000000000000000000000000000000000000000000000000006001600160a01b0316816001600160a01b03166316f0115b6040518163ffffffff1660e01b815260040160206040518083038186803b158015611bb957600080fd5b505afa158015611bcd573d6000803e3d6000fd5b505050506040513d601f19601f82011682018060405250810190611bf19190615511565b6001600160a01b031614611c405760405162461bcd60e51b81526020600482015260166024820152756e6f742d76616c69642d6e65772d737472617465677960501b604482015260640161088d565b611c498161341a565b6002546040516370a0823160e01b8152611ce29183916001600160a01b03909116906370a0823190611c7f90309060040161588e565b60206040518083038186803b158015611c9757600080fd5b505afa158015611cab573d6000803e3d6000fd5b505050506040513d601f19601f82011682018060405250810190611ccf919061576a565b6002546001600160a01b03169190613422565b610ad9817f00000000000000000000000000000000000000000000000000000000000000006001600160a01b03166370a08231306040518263ffffffff1660e01b8152600401611d32919061588e565b60206040518083038186803b158015611d4a57600080fd5b505afa158015611d5e573d6000803e3d6000fd5b505050506040513d601f19601f82011682018060405250810190611d82919061576a565b6001600160a01b037f0000000000000000000000000000000000000000000000000000000000000000169190613422565b7f00000000000000000000000000000000000000000000000000000000000000006001600160a01b0316630c340a246040518163ffffffff1660e01b815260040160206040518083038186803b158015611e0c57600080fd5b505afa158015611e20573d6000803e3d6000fd5b505050506040513d601f19601f82011682018060405250810190611e449190615511565b6001600160a01b0316336001600160a01b031614611e745760405162461bcd60e51b815260040161088d906159a4565b6001600160a01b038116611eca5760405162461bcd60e51b815260206004820152601d60248201527f6665652d636f6c6c6563746f722d616464726573732d69732d7a65726f000000604482015260640161088d565b6003546001600160a01b0382811691161415611f205760405162461bcd60e51b81526020600482015260156024820152746665652d636f6c6c6563746f722d69732d73616d6560581b604482015260640161088d565b6003546040516001600160a01b038084169216907f0f06062680f9bd68e786e9980d9bb03d73d5620fc3b345e417b6eacb310b970690600090a3600380546001600160a01b0319166001600160a01b0392909216919091179055565b6000611f86610adc565b611f9f61076b611f97610336610cb8565b601254613485565b6040516370a0823160e01b81526001600160a01b037f000000000000000000000000000000000000000000000000000000000000000016906370a0823190611feb90309060040161588e565b60206040518083038186803b15801561200357600080fd5b505afa158015612017573d6000803e3d6000fd5b505050506040513d601f19601f8201168201806040525081019061203b919061576a565b610df39190615a6d565b61204e33610c5a565b61206a5760405162461bcd60e51b815260040161088d90615944565b6003546001600160a01b03166120ba5760405162461bcd60e51b81526020600482015260156024820152741999594b58dbdb1b1958dd1bdc8b5b9bdd0b5cd95d605a1b604482015260640161088d565b7f00000000000000000000000000000000000000000000000000000000000000006001600160a01b0316816001600160a01b0316141561213c5760405162461bcd60e51b815260206004820152601f60248201527f6e6f742d616c6c6f7765642d746f2d73776565702d636f6c6c61746572616c00604482015260640161088d565b6001600160a01b0381166000908152600b602052604090205460ff161561219c5760405162461bcd60e51b815260206004820152601460248201527306e6f742d616c6c6f7765642d746f2d73776565760641b604482015260640161088d565b6001600160a01b03811673eeeeeeeeeeeeeeeeeeeeeeeeeeeeeeeeeeeeeeee14156121dc576003546121d7906001600160a01b0316476134a8565b610ad9565b6040516370a0823160e01b81526000906001600160a01b038316906370a082319061220b90309060040161588e565b60206040518083038186803b15801561222357600080fd5b505afa158015612237573d6000803e3d6000fd5b505050506040513d601f19601f8201168201806040525081019061225b919061576a565b600354909150610901906001600160a01b03848116911683613422565b6000610dfd611f7c565b6000601354826109c29190615a85565b6000610f7b836001600160a01b0384166135c1565b6000610f7b836001600160a01b038416613610565b606060007f00000000000000000000000000000000000000000000000000000000000000006001600160a01b031663d55a23f46040518163ffffffff1660e01b815260040160206040518083038186803b15801561231957600080fd5b505afa15801561232d573d6000803e3d6000fd5b505050506040513d601f19601f82011682018060405250810190612351919061576a565b90506000612360826002615a6d565b6001600160401b0381111561238557634e487b7160e01b600052604160045260246000fd5b6040519080825280602002602001820160405280156123ca57816020015b60408051808201909152600080825260208201528152602001906001900390816123a35790505b50905060007f00000000000000000000000000000000000000000000000000000000000000006001600160a01b0316628cc262306040518263ffffffff1660e01b815260040161241a919061588e565b60206040518083038186803b15801561243257600080fd5b505afa158015612446573d6000803e3d6000fd5b505050506040513d601f19601f8201168201806040525081019061246a919061576a565b905060006124778261372d565b9050604051806040016040528073d533a949740bb3306d119cc777fa900ba034cd526001600160a01b0316815260200183815250836000815181106124cc57634e487b7160e01b600052603260045260246000fd5b60200260200101819052506040518060400160405280734e3fbd56cd56c3e72c1403e103b45db9da5b9d2b6001600160a01b03168152602001828152508360018151811061252a57634e487b7160e01b600052603260045260246000fd5b602002602001018190525060005b8481101561272d57604051632061aa2360e11b8152600481018290526000907f00000000000000000000000000000000000000000000000000000000000000006001600160a01b0316906340c354469060240160206040518083038186803b1580156125a357600080fd5b505afa1580156125b7573d6000803e3d6000fd5b505050506040513d601f19601f820116820180604052508101906125db9190615511565b90506040518060400160405280826001600160a01b031663f7c618c16040518163ffffffff1660e01b815260040160206040518083038186803b15801561262157600080fd5b505afa158015612635573d6000803e3d6000fd5b505050506040513d601f19601f820116820180604052508101906126599190615511565b6001600160a01b03168152602001826001600160a01b0316628cc262306040518263ffffffff1660e01b8152600401612692919061588e565b60206040518083038186803b1580156126aa57600080fd5b505afa1580156126be573d6000803e3d6000fd5b505050506040513d601f19601f820116820180604052508101906126e2919061576a565b9052856126f0846002615a6d565b8151811061270e57634e487b7160e01b600052603260045260246000fd5b602002602001018190525050808061272590615c7c565b915050612538565b5091935050505090565b6001600160a01b03811660009081526001830160205260408120541515610f7b565b60606000805b7f00000000000000000000000000000000000000000000000000000000000000006001600160a01b031663d55a23f46040518163ffffffff1660e01b815260040160206040518083038186803b1580156127b857600080fd5b505afa1580156127cc573d6000803e3d6000fd5b505050506040513d601f19601f820116820180604052508101906127f0919061576a565b8110156129f657604051632061aa2360e11b8152600481018290526000907f00000000000000000000000000000000000000000000000000000000000000006001600160a01b0316906340c354469060240160206040518083038186803b15801561285a57600080fd5b505afa15801561286e573d6000803e3d6000fd5b505050506040513d601f19601f820116820180604052508101906128929190615511565b905073d533a949740bb3306d119cc777fa900ba034cd526001600160a01b0316816001600160a01b031663f7c618c16040518163ffffffff1660e01b815260040160206040518083038186803b1580156128eb57600080fd5b505afa1580156128ff573d6000803e3d6000fd5b505050506040513d601f19601f820116820180604052508101906129239190615511565b6001600160a01b0316141580156129d05750734e3fbd56cd56c3e72c1403e103b45db9da5b9d2b6001600160a01b0316816001600160a01b031663f7c618c16040518163ffffffff1660e01b815260040160206040518083038186803b15801561298c57600080fd5b505afa1580156129a0573d6000803e3d6000fd5b505050506040513d601f19601f820116820180604052508101906129c49190615511565b6001600160a01b031614155b156129e357826129df81615c7c565b9350505b50806129ee81615c7c565b91505061275f565b506000612a04826002615a6d565b6001600160401b03811115612a2957634e487b7160e01b600052604160045260246000fd5b604051908082528060200260200182016040528015612a52578160200160208202803683370190505b50905073d533a949740bb3306d119cc777fa900ba034cd5281600081518110612a8b57634e487b7160e01b600052603260045260246000fd5b60200260200101906001600160a01b031690816001600160a01b031681525050734e3fbd56cd56c3e72c1403e103b45db9da5b9d2b81600181518110612ae157634e487b7160e01b600052603260045260246000fd5b6001600160a01b0390921660209283029190910190910152600260005b7f00000000000000000000000000000000000000000000000000000000000000006001600160a01b031663d55a23f46040518163ffffffff1660e01b815260040160206040518083038186803b158015612b5757600080fd5b505afa158015612b6b573d6000803e3d6000fd5b505050506040513d601f19601f82011682018060405250810190612b8f919061576a565b811015612e3e57604051632061aa2360e11b8152600481018290526000907f00000000000000000000000000000000000000000000000000000000000000006001600160a01b0316906340c354469060240160206040518083038186803b158015612bf957600080fd5b505afa158015612c0d573d6000803e3d6000fd5b505050506040513d601f19601f82011682018060405250810190612c319190615511565b905073d533a949740bb3306d119cc777fa900ba034cd526001600160a01b0316816001600160a01b031663f7c618c16040518163ffffffff1660e01b815260040160206040518083038186803b158015612c8a57600080fd5b505afa158015612c9e573d6000803e3d6000fd5b505050506040513d601f19601f82011682018060405250810190612cc29190615511565b6001600160a01b031614158015612d6f5750734e3fbd56cd56c3e72c1403e103b45db9da5b9d2b6001600160a01b0316816001600160a01b031663f7c618c16040518163ffffffff1660e01b815260040160206040518083038186803b158015612d2b57600080fd5b505afa158015612d3f573d6000803e3d6000fd5b505050506040513d601f19601f82011682018060405250810190612d639190615511565b6001600160a01b031614155b15612e2b57806001600160a01b031663f7c618c16040518163ffffffff1660e01b815260040160206040518083038186803b158015612dad57600080fd5b505afa158015612dc1573d6000803e3d6000fd5b505050506040513d601f19601f82011682018060405250810190612de59190615511565b848481518110612e0557634e487b7160e01b600052603260045260246000fd5b6001600160a01b039092166020928302919091019091015282612e2781615c7c565b9350505b5080612e3681615c7c565b915050612afe565b50909250505090565b612e8f6001600160a01b037f00000000000000000000000000000000000000000000000000000000000000001673f403c135812408bfbe8713b5a23a04b3d48aae318361392e565b610ad981613a52565b600054600154612eb4916001600160a01b039081169116613d74565b60005b7f0000000000000000000000000000000000000000000000000000000000000000811015612f3657612f24600e8281548110612f0357634e487b7160e01b600052603260045260246000fd5b6000918252602090912001546001546001600160a01b039182169116613d74565b80612f2e81615c7c565b915050612eb7565b5060005b601054811015610ad957612f6860108281548110612f0357634e487b7160e01b600052603260045260246000fd5b80612f7281615c7c565b915050612f3a565b6040516370a0823160e01b81526000906001600160a01b037f000000000000000000000000000000000000000000000000000000000000000016906370a0823190612fc990309060040161588e565b60206040518083038186803b158015612fe157600080fd5b505afa158015612ff5573d6000803e3d6000fd5b505050506040513d601f19601f82011682018060405250810190613019919061576a565b905080821115613037576130356130308284615bd8565b613ee6565b505b6109016001600160a01b037f0000000000000000000000000000000000000000000000000000000000000000167f000000000000000000000000000000000000000000000000000000000000000084613422565b600060016001607f1b031982121580156130a857506001607f1b82125b6131045760405162461bcd60e51b815260206004820152602760248201527f53616665436173743a2076616c756520646f65736e27742066697420696e20316044820152663238206269747360c81b606482015260840161088d565b5090565b604051634b82009360e01b81526001600160a01b037f00000000000000000000000000000000000000000000000000000000000000001690634b8200939061315490309060040161588e565b602060405180830381600087803b15801561316e57600080fd5b505af1158015613182573d6000803e3d6000fd5b505050506040513d601f19601f82011682018060405250810190610ad99190615736565b6000806000807f00000000000000000000000000000000000000000000000000000000000000006001600160a01b031663d53ddc26306040518263ffffffff1660e01b81526004016131f8919061588e565b60206040518083038186803b15801561321057600080fd5b505afa158015613224573d6000803e3d6000fd5b505050506040513d601f19601f82011682018060405250810190613248919061576a565b905060007f00000000000000000000000000000000000000000000000000000000000000006001600160a01b0316639f2b2833306040518263ffffffff1660e01b8152600401613298919061588e565b60206040518083038186803b1580156132b057600080fd5b505afa1580156132c4573d6000803e3d6000fd5b505050506040513d601f19601f820116820180604052508101906132e8919061576a565b905060006132f582614025565b91975095509050613306838261423b565b9350505050909192565b6011805460ff191690556040516370a0823160e01b81526000906001600160a01b037f000000000000000000000000000000000000000000000000000000000000000016906370a082319061336990309060040161588e565b60206040518083038186803b15801561338157600080fd5b505afa158015613395573d6000803e3d6000fd5b505050506040513d601f19601f820116820180604052508101906133b9919061576a565b90506133c48161425b565b6011805460ff19169115919091179055610ad9614577565b6000806133f061076b611f97610336610cb8565b905082811015613407576134048184615bd8565b91505b50919050565b6060600061340483614715565b610ad9614771565b6040516001600160a01b0383166024820152604481018290526115b490849063a9059cbb60e01b906064015b60408051601f198184030181529190526020810180516001600160e01b03166001600160e01b0319909316929092179091526147f5565b60006127106134948382615bd8565b61349e9085615bb9565b610f7b9190615a85565b804710156134f85760405162461bcd60e51b815260206004820152601d60248201527f416464726573733a20696e73756666696369656e742062616c616e6365000000604482015260640161088d565b6000826001600160a01b03168260405160006040518083038185875af1925050503d8060008114613545576040519150601f19603f3d011682016040523d82523d6000602084013e61354a565b606091505b50509050806115b45760405162461bcd60e51b815260206004820152603a60248201527f416464726573733a20756e61626c6520746f2073656e642076616c75652c207260448201527f6563697069656e74206d61792068617665207265766572746564000000000000606482015260840161088d565b600081815260018301602052604081205461360857508154600181810184556000848152602080822090930184905584548482528286019093526040902091909155610f7e565b506000610f7e565b60008181526001830160205260408120548015613723576000613634600183615bd8565b855490915060009061364890600190615bd8565b90508181146136c957600086600001828154811061367657634e487b7160e01b600052603260045260246000fd5b90600052602060002001549050808760000184815481106136a757634e487b7160e01b600052603260045260246000fd5b6000918252602080832090910192909255918252600188019052604090208390555b85548690806136e857634e487b7160e01b600052603160045260246000fd5b600190038181906000526020600020016000905590558560010160008681526020019081526020016000206000905560019350505050610f7e565b6000915050610f7e565b600080734e3fbd56cd56c3e72c1403e103b45db9da5b9d2b6001600160a01b031663aa74e6226040518163ffffffff1660e01b815260040160206040518083038186803b15801561377d57600080fd5b505afa158015613791573d6000803e3d6000fd5b505050506040513d601f19601f820116820180604052508101906137b5919061576a565b90506000734e3fbd56cd56c3e72c1403e103b45db9da5b9d2b6001600160a01b03166318160ddd6040518163ffffffff1660e01b815260040160206040518083038186803b15801561380657600080fd5b505afa15801561381a573d6000803e3d6000fd5b505050506040513d601f19601f8201168201806040525081019061383e919061576a565b90506000734e3fbd56cd56c3e72c1403e103b45db9da5b9d2b6001600160a01b031663d5abeb016040518163ffffffff1660e01b815260040160206040518083038186803b15801561388f57600080fd5b505afa1580156138a3573d6000803e3d6000fd5b505050506040513d601f19601f820116820180604052508101906138c7919061576a565b905060006138d58484615a85565b90506103e8808210156139245760006138ee8383615bd8565b9050816138fb828a615bb9565b6139059190615a85565b965060006139138686615bd8565b905080881115613921578097505b50505b5050505050919050565b8015806139b75750604051636eb1769f60e11b81523060048201526001600160a01b03838116602483015284169063dd62ed3e9060440160206040518083038186803b15801561397d57600080fd5b505afa158015613991573d6000803e3d6000fd5b505050506040513d601f19601f820116820180604052508101906139b5919061576a565b155b613a225760405162461bcd60e51b815260206004820152603660248201527f5361666545524332303a20617070726f76652066726f6d206e6f6e2d7a65726f60448201527520746f206e6f6e2d7a65726f20616c6c6f77616e636560501b606482015260840161088d565b6040516001600160a01b0383166024820152604481018290526115b490849063095ea7b360e01b9060640161344e565b613aa66001600160a01b037f0000000000000000000000000000000000000000000000000000000000000000167f00000000000000000000000000000000000000000000000000000000000000008361392e565b613afa6001600160a01b037f0000000000000000000000000000000000000000000000000000000000000000167f00000000000000000000000000000000000000000000000000000000000000008361392e565b60005b600480546040805163c2fba66760e01b815290516001600160a01b039092169263c2fba667928282019260209290829003018186803b158015613b3f57600080fd5b505afa158015613b53573d6000803e3d6000fd5b505050506040513d601f19601f82011682018060405250810190613b77919061576a565b811015613d1f5760005b601054811015613c5b5760048054604051636e74a6f760e01b8152918201849052613c49916001600160a01b0390911690636e74a6f79060240160206040518083038186803b158015613bd357600080fd5b505afa158015613be7573d6000803e3d6000fd5b505050506040513d601f19601f82011682018060405250810190613c0b9190615511565b8460108481548110613c2d57634e487b7160e01b600052603260045260246000fd5b6000918252602090912001546001600160a01b0316919061392e565b80613c5381615c7c565b915050613b81565b5060048054604051636e74a6f760e01b8152918201839052613d0d916001600160a01b0390911690636e74a6f79060240160206040518083038186803b158015613ca457600080fd5b505afa158015613cb8573d6000803e3d6000fd5b505050506040513d601f19601f82011682018060405250810190613cdc9190615511565b6001600160a01b037f000000000000000000000000000000000000000000000000000000000000000016908461392e565b80613d1781615c7c565b915050613afd565b50610ad96001600160a01b037f0000000000000000000000000000000000000000000000000000000000000000167f00000000000000000000000000000000000000000000000000000000000000008361392e565b60005b600480546040805163c2fba66760e01b815290516001600160a01b039092169263c2fba667928282019260209290829003018186803b158015613db957600080fd5b505afa158015613dcd573d6000803e3d6000fd5b505050506040513d601f19601f82011682018060405250810190613df1919061576a565b8110156115b45760048054600554604051630f30f2d360e21b81526001600160a01b03878116948201949094528584166024820152604481019190915260648101849052911690633cc3cb4c90608401602060405180830381600087803b158015613e5b57600080fd5b505af1925050508015613e8b575060408051601f3d908101601f19168201909252613e8891810190615511565b60015b613ece57613e97615cc3565b806308c379a01415613ebd5750613eac615cda565b80613eb75750613ebf565b50613ec9565b505b3d6000803e3d6000fd5b613ed4565b506115b4565b80613ede81615c7c565b915050613d77565b600081613ef5575060006109c5565b7f0000000000000000000000000000000000000000000000000000000000000000600080613f238584610e53565b91509150613f30816148c7565b6000613f65670de0b6b3a7640000613f51611f97613f4c6149ba565b614b48565b613f5b9086615bb9565b61076b9190615a85565b9050613f72838286614bad565b6040516370a0823160e01b81526001600160a01b037f000000000000000000000000000000000000000000000000000000000000000016906370a0823190613fbe90309060040161588e565b60206040518083038186803b158015613fd657600080fd5b505afa158015613fea573d6000803e3d6000fd5b505050506040513d601f19601f8201168201806040525081019061400e919061576a565b94508585111561401c578594505b50505050919050565b6000806000807f00000000000000000000000000000000000000000000000000000000000000006001600160a01b03166370a08231306040518263ffffffff1660e01b8152600401614077919061588e565b60206040518083038186803b15801561408f57600080fd5b505afa1580156140a3573d6000803e3d6000fd5b505050506040513d601f19601f820116820180604052508101906140c7919061576a565b90506140f27f0000000000000000000000000000000000000000000000000000000000000000614c4b565b6040516370a0823160e01b81526000906001600160a01b037f000000000000000000000000000000000000000000000000000000000000000016906370a082319061414190309060040161588e565b60206040518083038186803b15801561415957600080fd5b505afa15801561416d573d6000803e3d6000fd5b505050506040513d601f19601f82011682018060405250810190614191919061576a565b905061419d8282615bd8565b945060006141b261076b611f97610336610cb8565b6141bc9084615a6d565b9050868111156141e1576141d08782615bd8565b6141da9087615a6d565b95506141ee565b6141eb8188615bd8565b94505b84861115614220576142008587615bd8565b9550600094508186111561421b576142188287615bd8565b93505b614231565b61422a8686615bd8565b9450600095505b5050509193909250565b600061424a6130308385615a6d565b905082811115610f7e575090919050565b6000811561456f5761426b6154c2565b82817f0000000000000000000000000000000000000000000000000000000000000000600381106142ac57634e487b7160e01b600052603260045260246000fd5b6020020152604051633883e11960e01b8152600090614357906001600160a01b037f00000000000000000000000000000000000000000000000000000000000000001690633883e119906143079086906001906004016158d9565b60206040518083038186803b15801561431f57600080fd5b505afa158015614333573d6000803e3d6000fd5b505050506040513d601f19601f82011682018060405250810190611f97919061576a565b90506000600f7f00000000000000000000000000000000000000000000000000000000000000008154811061439c57634e487b7160e01b600052603260045260246000fd5b906000526020600020015460126143b39190615bd8565b6143be90600a615aeb565b7f00000000000000000000000000000000000000000000000000000000000000006001600160a01b031663bb7b8b806040518163ffffffff1660e01b815260040160206040518083038186803b15801561441757600080fd5b505afa15801561442b573d6000803e3d6000fd5b505050506040513d601f19601f8201168201806040525081019061444f919061576a565b6144576149ba565b6144619088615bb9565b61446b9190615a85565b6144759190615bb9565b9050808211156144825750805b604051634515cef360e01b81526001600160a01b037f00000000000000000000000000000000000000000000000000000000000000001690634515cef3906144d090869085906004016158f6565b600060405180830381600087803b1580156144ea57600080fd5b505af19250505080156144fb575060015b61456b57614507615cc3565b806308c379a01415613ebd575061451c615cda565b806145275750613ebf565b7f63299ad14374170063e6f2e5559417926f3a23da67eefa83fc2e9bf9f21e915c816040516145569190615911565b60405180910390a160009450505050506109c5565b5050505b506001919050565b6040516370a0823160e01b81526000906001600160a01b037f000000000000000000000000000000000000000000000000000000000000000016906370a08231906145c690309060040161588e565b60206040518083038186803b1580156145de57600080fd5b505afa1580156145f2573d6000803e3d6000fd5b505050506040513d601f19601f82011682018060405250810190614616919061576a565b90508015610ad9576040516321d0683360e11b81527f00000000000000000000000000000000000000000000000000000000000000006004820152602481018290526001604482015273f403c135812408bfbe8713b5a23a04b3d48aae31906343a0d06690606401602060405180830381600087803b15801561469857600080fd5b505af11580156146ac573d6000803e3d6000fd5b505050506040513d601f19601f820116820180604052508101906146d09190615736565b610ad95760405162461bcd60e51b8152602060048201526016602482015275189bdbdcdd195c8b59195c1bdcda5d0b59985a5b195960521b604482015260640161088d565b60608160000180548060200260200160405190810160405280929190818152602001828054801561476557602002820191906000526020600020905b815481526020019060010190808311614751575b50505050509050919050565b6014546040516324f81cd160e11b815260ff909116151560048201527f00000000000000000000000000000000000000000000000000000000000000006001600160a01b0316906349f039a290602401600060405180830381600087803b1580156147db57600080fd5b505af11580156147ef573d6000803e3d6000fd5b50505050565b600061484a826040518060400160405280602081526020017f5361666545524332303a206c6f772d6c6576656c2063616c6c206661696c6564815250856001600160a01b0316614e839092919063ffffffff16565b8051909150156115b457808060200190518101906148689190615736565b6115b45760405162461bcd60e51b815260206004820152602a60248201527f5361666545524332303a204552433230206f7065726174696f6e20646964206e6044820152691bdd081cdd58d8d9595960b21b606482015260840161088d565b8015610ad957604051636197390160e11b815260048101829052600060248201527f00000000000000000000000000000000000000000000000000000000000000006001600160a01b03169063c32e720290604401602060405180830381600087803b15801561493657600080fd5b505af115801561494a573d6000803e3d6000fd5b505050506040513d601f19601f8201168201806040525081019061496e9190615736565b610ad95760405162461bcd60e51b815260206004820152601a60248201527f77697468647261772d616e642d756e777261702d6661696c6564000000000000604482015260640161088d565b6000600554426149ca9190615bd8565b600d541180156149db5750600c5415155b156149e95750600c546116b3565b60008060005b7f0000000000000000000000000000000000000000000000000000000000000000811015614adb57600080614a9b600e8481548110614a3e57634e487b7160e01b600052603260045260246000fd5b600091825260209091200154600154600f80546001600160a01b03938416939092169187908110614a7f57634e487b7160e01b600052603260045260246000fd5b9060005260206000200154600a614a969190615aeb565b614e9c565b915091508015614ac657841580614ab157508482105b15614aba578194505b81841015614ac6578193505b50508080614ad390615c7c565b9150506149ef565b5081614b1b5760405162461bcd60e51b815260206004820152600f60248201526e6e6f2d6f7261636c652d726174657360881b604482015260640161088d565b42600d5580614b3283670de0b6b3a7640000615bb9565b614b3c9190615a85565b600c8190559250505090565b6000670de0b6b3a7640000827f00000000000000000000000000000000000000000000000000000000000000006001600160a01b031663bb7b8b806040518163ffffffff1660e01b815260040160206040518083038186803b15801561097657600080fd5b7f00000000000000000000000000000000000000000000000000000000000000006001600160a01b0316631a4d01d284614be68461308b565b6040516001600160e01b031960e085901b1681526004810192909252600f0b602482015260448101859052606401600060405180830381600087803b158015614c2e57600080fd5b505af1158015614c42573d6000803e3d6000fd5b50505050505050565b614c53615073565b60005b60105481101561090157600060108281548110614c8357634e487b7160e01b600052603260045260246000fd5b6000918252602090912001546040516370a0823160e01b81526001600160a01b03909116906370a0823190614cbc90309060040161588e565b60206040518083038186803b158015614cd457600080fd5b505afa158015614ce8573d6000803e3d6000fd5b505050506040513d601f19601f82011682018060405250810190614d0c919061576a565b90508015614e705760006127106007541015614e2d57600080614d6b60108681548110614d4957634e487b7160e01b600052603260045260246000fd5b6000918252602090912001546001546001600160a01b03918216911686614e9c565b60015491935091506000908190614d8c906001600160a01b03168986614e9c565b9150915082614dd35760405162461bcd60e51b81526020600482015260136024820152727374616c652d7265776172642d6f7261636c6560681b604482015260640161088d565b80614e1a5760405162461bcd60e51b81526020600482015260176024820152767374616c652d636f6c6c61746572616c2d6f7261636c6560481b604482015260640161088d565b614e2682600754613485565b9450505050505b614e6e60108481548110614e5157634e487b7160e01b600052603260045260246000fd5b6000918252602090912001546001600160a01b0316858484615155565b505b5080614e7b81615c7c565b915050614c56565b6060614e928484600085615300565b90505b9392505050565b60008060005b600480546040805163c2fba66760e01b815290516001600160a01b039092169263c2fba667928282019260209290829003018186803b158015614ee457600080fd5b505afa158015614ef8573d6000803e3d6000fd5b505050506040513d601f19601f82011682018060405250810190614f1c919061576a565b81101561506257600454600554604080516001600160a01b038a811660208301528981168284015260608201899052608082019390935260a08082018690528251808303909101815260c0820190925260009384931691614f899163b67bb24d60e01b919060e001615841565b60408051601f1981840301815290829052614fa391615872565b6000604051808303816000865af19150503d8060008114614fe0576040519150601f19603f3d011682016040523d82523d6000602084013e614fe5565b606091505b5091509150811561504d576000808280602001905181019061500791906157a3565b50915091506005544261501a9190615bd8565b8111801561502757508115155b1561503c575094506001935061506b92505050565b60008096509650505050505061506b565b5050808061505a90615c7c565b915050614ea2565b50600080915091505b935093915050565b604051637050ccd960e01b8152306004820152600160248201527f00000000000000000000000000000000000000000000000000000000000000006001600160a01b031690637050ccd990604401602060405180830381600087803b1580156150db57600080fd5b505af11580156150ef573d6000803e3d6000fd5b505050506040513d601f19601f820116820180604052508101906151139190615736565b61138f5760405162461bcd60e51b81526020600482015260136024820152721c995dd85c990b58db185a5b4b59985a5b1959606a1b604482015260640161088d565b60048054604051631d1f307960e31b8152600092839283926001600160a01b039091169163e8f983c89161518f918b918b918b91016158a2565b60006040518083038186803b1580156151a757600080fd5b505afa1580156151bb573d6000803e3d6000fd5b505050506040513d6000823e601f3d908101601f191682016040526151e391908101906155d2565b92509250925083600014156151f757600193505b8115614c425760048054604051636e74a6f760e01b81529182018390526001600160a01b031690636e74a6f79060240160206040518083038186803b15801561523f57600080fd5b505afa158015615253573d6000803e3d6000fd5b505050506040513d601f19601f820116820180604052508101906152779190615511565b6001600160a01b03166338ed173986868630426040518663ffffffff1660e01b81526004016152aa959493929190615a0e565b600060405180830381600087803b1580156152c457600080fd5b505af11580156152d8573d6000803e3d6000fd5b505050506040513d6000823e601f3d908101601f191682016040526115ae919081019061568a565b6060824710156153615760405162461bcd60e51b815260206004820152602660248201527f416464726573733a20696e73756666696369656e742062616c616e636520666f6044820152651c8818d85b1b60d21b606482015260840161088d565b843b6153af5760405162461bcd60e51b815260206004820152601d60248201527f416464726573733a2063616c6c20746f206e6f6e2d636f6e7472616374000000604482015260640161088d565b600080866001600160a01b031685876040516153cb9190615872565b60006040518083038185875af1925050503d8060008114615408576040519150601f19603f3d011682016040523d82523d6000602084013e61540d565b606091505b509150915061541d828286615428565b979650505050505050565b60608315615437575081614e95565b8251156154475782518084602001fd5b8160405162461bcd60e51b815260040161088d9190615911565b8280548282559060005260206000209081019282156154b6579160200282015b828111156154b657825182546001600160a01b0319166001600160a01b03909116178255602090920191600190910190615481565b506131049291506154e0565b60405180606001604052806003906020820280368337509192915050565b5b8082111561310457600081556001016154e1565b600060208284031215615506578081fd5b8135614e9581615d6b565b600060208284031215615522578081fd5b8151614e9581615d6b565b6000602080838503121561553f578182fd5b82356001600160401b03811115615554578283fd5b8301601f81018513615564578283fd5b803561556f81615a4a565b60405161557c8282615c50565b8281528481019150838501600584901b8501860189101561559b578687fd5b8694505b838510156155c65780356155b281615d6b565b83526001949094019391850191850161559f565b50979650505050505050565b6000806000606084860312156155e6578182fd5b83516001600160401b038111156155fb578283fd5b8401601f8101861361560b578283fd5b8051602061561882615a4a565b6040516156258282615c50565b8381528281019150848301600585901b860184018b1015615644578788fd5b8795505b8486101561566f57805161565b81615d6b565b835260019590950194918301918301615648565b50918801516040909801519199979850909695505050505050565b6000602080838503121561569c578182fd5b82516001600160401b038111156156b1578283fd5b8301601f810185136156c1578283fd5b80516156cc81615a4a565b6040516156d98282615c50565b8281528481019150838501600584901b850186018910156156f8578687fd5b8694505b838510156155c65780518352600194909401939185019185016156fc565b60006020828403121561572b578081fd5b8135614e9581615d80565b600060208284031215615747578081fd5b8151614e9581615d80565b600060208284031215615763578081fd5b5035919050565b60006020828403121561577b578081fd5b5051919050565b60008060408385031215615794578182fd5b50508035926020909101359150565b6000806000606084860312156157b7578283fd5b835192506020840151915060408401516157d081615d80565b809150509250925092565b6000815180845260208085019450808401835b838110156158135781516001600160a01b0316875295820195908201906001016157ee565b509495945050505050565b8060005b60038110156147ef578151845260209384019390910190600101615822565b6001600160e01b0319831681528151600090615864816004850160208701615bef565b919091016004019392505050565b60008251615884818460208701615bef565b9190910192915050565b6001600160a01b0391909116815260200190565b6001600160a01b039384168152919092166020820152604081019190915260600190565b600060208252610f7b60208301846157db565b608081016158e7828561581e565b82151560608301529392505050565b60808101615904828561581e565b8260608301529392505050565b6000602082528251806020840152615930816040850160208701615bef565b601f01601f19169190910160400192915050565b60208082526016908201527531b0b63632b916b4b996b737ba16b096b5b2b2b832b960511b604082015260600190565b602080825260169082015275696e76616c69642d736c6970706167652d76616c756560501b604082015260600190565b6020808252601a908201527f63616c6c65722d69732d6e6f742d7468652d676f7665726e6f72000000000000604082015260600190565b60208082526019908201527818d85b1b195c8b5a5ccb5b9bdd0b5d995cdc195c8b5c1bdbdb603a1b604082015260600190565b600086825285602083015260a06040830152615a2d60a08301866157db565b6001600160a01b0394909416606083015250608001529392505050565b60006001600160401b03821115615a6357615a63615cad565b5060051b60200190565b60008219821115615a8057615a80615c97565b500190565b600082615aa057634e487b7160e01b81526012600452602481fd5b500490565b80825b6001808611615ab75750615ae2565b818704821115615ac957615ac9615c97565b80861615615ad657918102915b9490941c938002615aa8565b94509492505050565b6000610f7b6000198484600082615b0457506001614e95565b81615b1157506000614e95565b8160018114615b275760028114615b3157615b5e565b6001915050614e95565b60ff841115615b4257615b42615c97565b6001841b915084821115615b5857615b58615c97565b50614e95565b5060208310610133831016604e8410600b8410161715615b91575081810a83811115615b8c57615b8c615c97565b614e95565b615b9e8484846001615aa5565b808604821115615bb057615bb0615c97565b02949350505050565b6000816000190483118215151615615bd357615bd3615c97565b500290565b600082821015615bea57615bea615c97565b500390565b60005b83811015615c0a578181015183820152602001615bf2565b838111156147ef5750506000910152565b600181811c90821680615c2f57607f821691505b6020821081141561340757634e487b7160e01b600052602260045260246000fd5b601f8201601f191681016001600160401b0381118282101715615c7557615c75615cad565b6040525050565b6000600019821415615c9057615c90615c97565b5060010190565b634e487b7160e01b600052601160045260246000fd5b634e487b7160e01b600052604160045260246000fd5b600060033d11156116b357600481823e5160e01c90565b600060443d1015615cea576116b3565b6040516003193d81016004833e81513d6001600160401b038160248401118184111715615d1b5750505050506116b3565b8285019150815181811115615d35575050505050506116b3565b843d8701016020828501011115615d51575050505050506116b3565b615d6060208286010187615c50565b509094505050505090565b6001600160a01b0381168114610ad957600080fd5b8015158114610ad957600080fdfea2646970667358221220b698c763837d599cf998aed38952390f2ecefcf186cbaf9dbc88569c9b8efd9864736f6c63430008030033",
  "devdoc": {
    "kind": "dev",
    "methods": {
      "addKeeper(address)": {
        "params": {
          "_keeperAddress": "keeper address to add."
        }
      },
      "approveToken()": {
        "details": "Approve all required tokens"
      },
      "claimableRewardsInCollateral()": {
        "details": "Claimable rewards estimated into pool's collateral value"
      },
      "convertFrom18(uint256)": {
        "details": "Convert from 18 decimals to token defined decimals."
      },
      "isReservedToken(address)": {
        "details": "Check whether given token is reserved or not. Reserved tokens are not allowed to sweep."
      },
      "migrate(address)": {
        "details": "_beforeMigration hook can be implemented in child strategy to do extra steps.",
        "params": {
          "_newStrategy": "Address of new strategy"
        }
      },
      "rebalance()": {
        "details": "Rebalance profit, loss and investment of this strategy"
      },
      "removeKeeper(address)": {
        "params": {
          "_keeperAddress": "keeper address to remove."
        }
      },
      "setRewardTokens(address[])": {
        "details": "convex pool can add new rewards. This method refresh list."
      },
      "sweepERC20(address)": {
        "details": "sweep given token to feeCollector of strategy",
        "params": {
          "_fromToken": "token address to sweep"
        }
      },
      "totalValue()": {
        "details": "Report total value in collateral token"
      },
      "totalValueCurrent()": {
        "details": "Report total value in collateral token"
      },
      "updateFeeCollector(address)": {
        "params": {
          "_feeCollector": "fee collector address"
        }
      },
      "updateSwapManager(address)": {
        "params": {
          "_swapManager": "swap manager address"
        }
      },
      "withdraw(uint256)": {
        "details": "Withdraw collateral token from lending pool.",
        "params": {
          "_amount": "Amount of collateral token"
        }
      }
    },
    "version": 1
  },
  "userdoc": {
    "kind": "user",
    "methods": {
      "addKeeper(address)": {
        "notice": "Add given address in keepers list."
      },
      "keepers()": {
        "notice": "Return list of keepers"
      },
      "migrate(address)": {
        "notice": "Migrate all asset and vault ownership,if any, to new strategy"
      },
      "removeKeeper(address)": {
        "notice": "Remove given address from keepers list."
      },
      "token()": {
        "notice": "Returns address of token correspond to collateral token"
      },
      "totalValue()": {
        "notice": "Calculate total value of asset under management"
      },
      "totalValueCurrent()": {
        "notice": "Calculate total value of asset under management (in real-time)"
      },
      "updateFeeCollector(address)": {
        "notice": "Update fee collector"
      },
      "updateSwapManager(address)": {
        "notice": "Update swap manager address"
      }
    },
    "version": 1
  },
  "storageLayout": {
    "storage": [
      {
        "astId": 28567,
        "contract": "contracts/strategies/convex/3pool/ConvexD3PoolStrategy.sol:ConvexD3PoolStrategy",
        "label": "CRV",
        "offset": 0,
        "slot": "0",
        "type": "t_address"
      },
      {
        "astId": 14823,
        "contract": "contracts/strategies/convex/3pool/ConvexD3PoolStrategy.sol:ConvexD3PoolStrategy",
        "label": "WETH",
        "offset": 0,
        "slot": "1",
        "type": "t_address"
      },
      {
        "astId": 14828,
        "contract": "contracts/strategies/convex/3pool/ConvexD3PoolStrategy.sol:ConvexD3PoolStrategy",
        "label": "receiptToken",
        "offset": 0,
        "slot": "2",
        "type": "t_address"
      },
      {
        "astId": 14834,
        "contract": "contracts/strategies/convex/3pool/ConvexD3PoolStrategy.sol:ConvexD3PoolStrategy",
        "label": "feeCollector",
        "offset": 0,
        "slot": "3",
        "type": "t_address"
      },
      {
        "astId": 14837,
        "contract": "contracts/strategies/convex/3pool/ConvexD3PoolStrategy.sol:ConvexD3PoolStrategy",
        "label": "swapManager",
        "offset": 0,
        "slot": "4",
        "type": "t_contract(ISwapManager)5259"
      },
      {
        "astId": 14840,
        "contract": "contracts/strategies/convex/3pool/ConvexD3PoolStrategy.sol:ConvexD3PoolStrategy",
        "label": "oraclePeriod",
        "offset": 0,
        "slot": "5",
        "type": "t_uint256"
      },
      {
        "astId": 14843,
        "contract": "contracts/strategies/convex/3pool/ConvexD3PoolStrategy.sol:ConvexD3PoolStrategy",
        "label": "oracleRouterIdx",
        "offset": 0,
        "slot": "6",
        "type": "t_uint256"
      },
      {
        "astId": 14846,
        "contract": "contracts/strategies/convex/3pool/ConvexD3PoolStrategy.sol:ConvexD3PoolStrategy",
        "label": "swapSlippage",
        "offset": 0,
        "slot": "7",
        "type": "t_uint256"
      },
      {
        "astId": 14849,
        "contract": "contracts/strategies/convex/3pool/ConvexD3PoolStrategy.sol:ConvexD3PoolStrategy",
        "label": "_keepers",
        "offset": 0,
        "slot": "8",
        "type": "t_struct(AddressSet)4299_storage"
      },
      {
        "astId": 28984,
        "contract": "contracts/strategies/convex/3pool/ConvexD3PoolStrategy.sol:ConvexD3PoolStrategy",
        "label": "NAME",
        "offset": 0,
        "slot": "10",
        "type": "t_string_storage"
      },
      {
        "astId": 28991,
        "contract": "contracts/strategies/convex/3pool/ConvexD3PoolStrategy.sol:ConvexD3PoolStrategy",
        "label": "reservedToken",
        "offset": 0,
        "slot": "11",
        "type": "t_mapping(t_address,t_bool)"
      },
      {
        "astId": 28995,
        "contract": "contracts/strategies/convex/3pool/ConvexD3PoolStrategy.sol:ConvexD3PoolStrategy",
        "label": "usdRate",
        "offset": 0,
        "slot": "12",
        "type": "t_uint256"
      },
      {
        "astId": 28997,
        "contract": "contracts/strategies/convex/3pool/ConvexD3PoolStrategy.sol:ConvexD3PoolStrategy",
        "label": "usdRateTimestamp",
        "offset": 0,
        "slot": "13",
        "type": "t_uint256"
      },
      {
        "astId": 29000,
        "contract": "contracts/strategies/convex/3pool/ConvexD3PoolStrategy.sol:ConvexD3PoolStrategy",
        "label": "coins",
        "offset": 0,
        "slot": "14",
        "type": "t_array(t_address)dyn_storage"
      },
      {
        "astId": 29003,
        "contract": "contracts/strategies/convex/3pool/ConvexD3PoolStrategy.sol:ConvexD3PoolStrategy",
        "label": "coinDecimals",
        "offset": 0,
        "slot": "15",
        "type": "t_array(t_uint256)dyn_storage"
      },
      {
        "astId": 29006,
        "contract": "contracts/strategies/convex/3pool/ConvexD3PoolStrategy.sol:ConvexD3PoolStrategy",
        "label": "rewardTokens",
        "offset": 0,
        "slot": "16",
        "type": "t_array(t_address)dyn_storage"
      },
      {
        "astId": 29008,
        "contract": "contracts/strategies/convex/3pool/ConvexD3PoolStrategy.sol:ConvexD3PoolStrategy",
        "label": "depositError",
        "offset": 0,
        "slot": "17",
        "type": "t_bool"
      },
      {
        "astId": 29011,
        "contract": "contracts/strategies/convex/3pool/ConvexD3PoolStrategy.sol:ConvexD3PoolStrategy",
        "label": "crvSlippage",
        "offset": 0,
        "slot": "18",
        "type": "t_uint256"
      },
      {
        "astId": 29013,
        "contract": "contracts/strategies/convex/3pool/ConvexD3PoolStrategy.sol:ConvexD3PoolStrategy",
        "label": "decimalConversionFactor",
        "offset": 0,
        "slot": "19",
        "type": "t_uint256"
      },
      {
        "astId": 26568,
        "contract": "contracts/strategies/convex/3pool/ConvexD3PoolStrategy.sol:ConvexD3PoolStrategy",
        "label": "isClaimRewards",
        "offset": 0,
        "slot": "20",
        "type": "t_bool"
      }
    ],
    "types": {
      "t_address": {
        "encoding": "inplace",
        "label": "address",
        "numberOfBytes": "20"
      },
      "t_array(t_address)dyn_storage": {
        "base": "t_address",
        "encoding": "dynamic_array",
        "label": "address[]",
        "numberOfBytes": "32"
      },
      "t_array(t_bytes32)dyn_storage": {
        "base": "t_bytes32",
        "encoding": "dynamic_array",
        "label": "bytes32[]",
        "numberOfBytes": "32"
      },
      "t_array(t_uint256)dyn_storage": {
        "base": "t_uint256",
        "encoding": "dynamic_array",
        "label": "uint256[]",
        "numberOfBytes": "32"
      },
      "t_bool": {
        "encoding": "inplace",
        "label": "bool",
        "numberOfBytes": "1"
      },
      "t_bytes32": {
        "encoding": "inplace",
        "label": "bytes32",
        "numberOfBytes": "32"
      },
      "t_contract(ISwapManager)5259": {
        "encoding": "inplace",
        "label": "contract ISwapManager",
        "numberOfBytes": "20"
      },
      "t_mapping(t_address,t_bool)": {
        "encoding": "mapping",
        "key": "t_address",
        "label": "mapping(address => bool)",
        "numberOfBytes": "32",
        "value": "t_bool"
      },
      "t_mapping(t_bytes32,t_uint256)": {
        "encoding": "mapping",
        "key": "t_bytes32",
        "label": "mapping(bytes32 => uint256)",
        "numberOfBytes": "32",
        "value": "t_uint256"
      },
      "t_string_storage": {
        "encoding": "bytes",
        "label": "string",
        "numberOfBytes": "32"
      },
      "t_struct(AddressSet)4299_storage": {
        "encoding": "inplace",
        "label": "struct EnumerableSet.AddressSet",
        "members": [
          {
            "astId": 4298,
            "contract": "contracts/strategies/convex/3pool/ConvexD3PoolStrategy.sol:ConvexD3PoolStrategy",
            "label": "_inner",
            "offset": 0,
            "slot": "0",
            "type": "t_struct(Set)3998_storage"
          }
        ],
        "numberOfBytes": "64"
      },
      "t_struct(Set)3998_storage": {
        "encoding": "inplace",
        "label": "struct EnumerableSet.Set",
        "members": [
          {
            "astId": 3993,
            "contract": "contracts/strategies/convex/3pool/ConvexD3PoolStrategy.sol:ConvexD3PoolStrategy",
            "label": "_values",
            "offset": 0,
            "slot": "0",
            "type": "t_array(t_bytes32)dyn_storage"
          },
          {
            "astId": 3997,
            "contract": "contracts/strategies/convex/3pool/ConvexD3PoolStrategy.sol:ConvexD3PoolStrategy",
            "label": "_indexes",
            "offset": 0,
            "slot": "1",
            "type": "t_mapping(t_bytes32,t_uint256)"
          }
        ],
        "numberOfBytes": "64"
      },
      "t_uint256": {
        "encoding": "inplace",
        "label": "uint256",
        "numberOfBytes": "32"
      }
    }
  }
}