{
  "address": "0xDc1046DBb73E7BE8C0B2B72A4987522D425bc93C",
  "abi": [
    {
      "inputs": [
        {
          "internalType": "address",
          "name": "_pool",
          "type": "address"
        },
        {
          "internalType": "address",
          "name": "_swapManager",
          "type": "address"
        }
      ],
      "stateMutability": "nonpayable",
      "type": "constructor"
    },
    {
      "anonymous": false,
      "inputs": [
        {
          "indexed": false,
          "internalType": "uint256",
          "name": "oldDripPeriod",
          "type": "uint256"
        },
        {
          "indexed": false,
          "internalType": "uint256",
          "name": "newDripPeriod",
          "type": "uint256"
        }
      ],
      "name": "DripPeriodUpdated",
      "type": "event"
    },
    {
      "anonymous": false,
      "inputs": [
        {
          "indexed": true,
          "internalType": "address",
          "name": "previousFeeCollector",
          "type": "address"
        },
        {
          "indexed": true,
          "internalType": "address",
          "name": "newFeeCollector",
          "type": "address"
        }
      ],
      "name": "UpdatedFeeCollector",
      "type": "event"
    },
    {
      "anonymous": false,
      "inputs": [
        {
          "indexed": false,
          "internalType": "uint256",
          "name": "oldPeriod",
          "type": "uint256"
        },
        {
          "indexed": false,
          "internalType": "uint256",
          "name": "newPeriod",
          "type": "uint256"
        },
        {
          "indexed": false,
          "internalType": "uint256",
          "name": "oldRouterIdx",
          "type": "uint256"
        },
        {
          "indexed": false,
          "internalType": "uint256",
          "name": "newRouterIdx",
          "type": "uint256"
        }
      ],
      "name": "UpdatedOracleConfig",
      "type": "event"
    },
    {
      "anonymous": false,
      "inputs": [
        {
          "indexed": true,
          "internalType": "address",
          "name": "previousSwapManager",
          "type": "address"
        },
        {
          "indexed": true,
          "internalType": "address",
          "name": "newSwapManager",
          "type": "address"
        }
      ],
      "name": "UpdatedSwapManager",
      "type": "event"
    },
    {
      "anonymous": false,
      "inputs": [
        {
          "indexed": false,
          "internalType": "uint256",
          "name": "oldSwapSlippage",
          "type": "uint256"
        },
        {
          "indexed": false,
          "internalType": "uint256",
          "name": "newSwapSlippage",
          "type": "uint256"
        }
      ],
      "name": "UpdatedSwapSlippage",
      "type": "event"
    },
    {
      "inputs": [],
      "name": "NAME",
      "outputs": [
        {
          "internalType": "string",
          "name": "",
          "type": "string"
        }
      ],
      "stateMutability": "view",
      "type": "function"
    },
    {
      "inputs": [],
      "name": "VERSION",
      "outputs": [
        {
          "internalType": "string",
          "name": "",
          "type": "string"
        }
      ],
      "stateMutability": "view",
      "type": "function"
    },
    {
      "inputs": [
        {
          "internalType": "address",
          "name": "_keeperAddress",
          "type": "address"
        }
      ],
      "name": "addKeeper",
      "outputs": [],
      "stateMutability": "nonpayable",
      "type": "function"
    },
    {
      "inputs": [],
      "name": "approveGrowToken",
      "outputs": [],
      "stateMutability": "nonpayable",
      "type": "function"
    },
    {
      "inputs": [],
      "name": "approveToken",
      "outputs": [],
      "stateMutability": "nonpayable",
      "type": "function"
    },
    {
      "inputs": [],
      "name": "collateralToken",
      "outputs": [
        {
          "internalType": "contract IERC20",
          "name": "",
          "type": "address"
        }
      ],
      "stateMutability": "view",
      "type": "function"
    },
    {
      "inputs": [],
      "name": "dripPeriod",
      "outputs": [
        {
          "internalType": "uint256",
          "name": "",
          "type": "uint256"
        }
      ],
      "stateMutability": "view",
      "type": "function"
    },
    {
      "inputs": [],
      "name": "dripToken",
      "outputs": [
        {
          "internalType": "address",
          "name": "",
          "type": "address"
        }
      ],
      "stateMutability": "view",
      "type": "function"
    },
    {
      "inputs": [],
      "name": "feeCollector",
      "outputs": [
        {
          "internalType": "address",
          "name": "",
          "type": "address"
        }
      ],
      "stateMutability": "view",
      "type": "function"
    },
    {
      "inputs": [
        {
          "internalType": "address",
          "name": "_addressListFactory",
          "type": "address"
        }
      ],
      "name": "init",
      "outputs": [],
      "stateMutability": "nonpayable",
      "type": "function"
    },
    {
      "inputs": [
        {
          "internalType": "address",
          "name": "_token",
          "type": "address"
        }
      ],
      "name": "isReservedToken",
      "outputs": [
        {
          "internalType": "bool",
          "name": "",
          "type": "bool"
        }
      ],
      "stateMutability": "view",
      "type": "function"
    },
    {
      "inputs": [],
      "name": "keepers",
      "outputs": [
        {
          "internalType": "contract IAddressList",
          "name": "",
          "type": "address"
        }
      ],
      "stateMutability": "view",
      "type": "function"
    },
    {
      "inputs": [
        {
          "internalType": "address",
          "name": "_newStrategy",
          "type": "address"
        }
      ],
      "name": "migrate",
      "outputs": [],
      "stateMutability": "nonpayable",
      "type": "function"
    },
    {
      "inputs": [],
      "name": "oraclePeriod",
      "outputs": [
        {
          "internalType": "uint256",
          "name": "",
          "type": "uint256"
        }
      ],
      "stateMutability": "view",
      "type": "function"
    },
    {
      "inputs": [],
      "name": "oracleRouterIdx",
      "outputs": [
        {
          "internalType": "uint256",
          "name": "",
          "type": "uint256"
        }
      ],
      "stateMutability": "view",
      "type": "function"
    },
    {
      "inputs": [],
      "name": "pool",
      "outputs": [
        {
          "internalType": "address",
          "name": "",
          "type": "address"
        }
      ],
      "stateMutability": "view",
      "type": "function"
    },
    {
      "inputs": [],
      "name": "rebalance",
      "outputs": [],
      "stateMutability": "nonpayable",
      "type": "function"
    },
    {
      "inputs": [],
      "name": "receiptToken",
      "outputs": [
        {
          "internalType": "address",
          "name": "",
          "type": "address"
        }
      ],
      "stateMutability": "view",
      "type": "function"
    },
    {
      "inputs": [
        {
          "internalType": "address",
          "name": "_keeperAddress",
          "type": "address"
        }
      ],
      "name": "removeKeeper",
      "outputs": [],
      "stateMutability": "nonpayable",
      "type": "function"
    },
    {
      "inputs": [],
      "name": "setupOracles",
      "outputs": [],
      "stateMutability": "nonpayable",
      "type": "function"
    },
    {
      "inputs": [],
      "name": "swapManager",
      "outputs": [
        {
          "internalType": "contract ISwapManager",
          "name": "",
          "type": "address"
        }
      ],
      "stateMutability": "view",
      "type": "function"
    },
    {
      "inputs": [],
      "name": "swapSlippage",
      "outputs": [
        {
          "internalType": "uint256",
          "name": "",
          "type": "uint256"
        }
      ],
      "stateMutability": "view",
      "type": "function"
    },
    {
      "inputs": [
        {
          "internalType": "address",
          "name": "_fromToken",
          "type": "address"
        }
      ],
      "name": "sweepERC20",
      "outputs": [],
      "stateMutability": "nonpayable",
      "type": "function"
    },
    {
      "inputs": [],
      "name": "token",
      "outputs": [
        {
          "internalType": "address",
          "name": "",
          "type": "address"
        }
      ],
      "stateMutability": "view",
      "type": "function"
    },
    {
      "inputs": [],
      "name": "totalEarned",
      "outputs": [
        {
          "internalType": "uint256",
          "name": "",
          "type": "uint256"
        }
      ],
      "stateMutability": "view",
      "type": "function"
    },
    {
      "inputs": [],
      "name": "totalValue",
      "outputs": [
        {
          "internalType": "uint256",
          "name": "_totalValue",
          "type": "uint256"
        }
      ],
      "stateMutability": "view",
      "type": "function"
    },
    {
      "inputs": [],
      "name": "totalValueCurrent",
      "outputs": [
        {
          "internalType": "uint256",
          "name": "",
          "type": "uint256"
        }
      ],
      "stateMutability": "nonpayable",
      "type": "function"
    },
    {
      "inputs": [],
      "name": "transferToDripContract",
      "outputs": [
        {
          "internalType": "bool",
          "name": "",
          "type": "bool"
        }
      ],
      "stateMutability": "view",
      "type": "function"
    },
    {
      "inputs": [
        {
          "internalType": "uint256",
          "name": "_dripPeriod",
          "type": "uint256"
        }
      ],
      "name": "updateDripPeriod",
      "outputs": [],
      "stateMutability": "nonpayable",
      "type": "function"
    },
    {
      "inputs": [
        {
          "internalType": "address",
          "name": "_feeCollector",
          "type": "address"
        }
      ],
      "name": "updateFeeCollector",
      "outputs": [],
      "stateMutability": "nonpayable",
      "type": "function"
    },
    {
      "inputs": [
        {
          "internalType": "uint256",
          "name": "_newPeriod",
          "type": "uint256"
        },
        {
          "internalType": "uint256",
          "name": "_newRouterIdx",
          "type": "uint256"
        }
      ],
      "name": "updateOracleConfig",
      "outputs": [],
      "stateMutability": "nonpayable",
      "type": "function"
    },
    {
      "inputs": [
        {
          "internalType": "address",
          "name": "_swapManager",
          "type": "address"
        }
      ],
      "name": "updateSwapManager",
      "outputs": [],
      "stateMutability": "nonpayable",
      "type": "function"
    },
    {
      "inputs": [
        {
          "internalType": "uint256",
          "name": "_newSwapSlippage",
          "type": "uint256"
        }
      ],
      "name": "updateSwapSlippage",
      "outputs": [],
      "stateMutability": "nonpayable",
      "type": "function"
    },
    {
      "inputs": [
        {
          "internalType": "uint256",
          "name": "_amount",
          "type": "uint256"
        }
      ],
      "name": "withdraw",
      "outputs": [],
      "stateMutability": "nonpayable",
      "type": "function"
    }
  ],
  "transactionHash": "0x50229bbf549728e8f54ce3626b2e7b2c96d882d3ff8d1676bc17048c77572e43",
  "args": [
    "0x8209f3a03730c035163B4414c1545a3137D5B402",
    "0xe382d9f2394A359B01006faa8A1864b8a60d2710"
  ],
  "solcInputHash": "9fa3ab347f27460d477bd028befc9c60",
  "bytecode": "0x610100604052610e1060045560006005556127106006556202a3006007556009805460ff191690553480156200003457600080fd5b50604051620045d9380380620045d98339810160408190526200005791620002d5565b8181730538c8bac84e95a9df8ac10aad17dbe81b9e36ee731b40183efb4dd766f11bda7a7c3ad8982e998421808484848282826001600160a01b038316620000e65760405162461bcd60e51b815260206004820152601460248201527f706f6f6c2d616464726573732d69732d7a65726f00000000000000000000000060448201526064015b60405180910390fd5b6001600160a01b038216620001335760405162461bcd60e51b8152602060048201526012602482015271736d2d616464726573732d69732d7a65726f60701b6044820152606401620000dd565b600380546001600160a01b0319166001600160a01b0384811691909117909155606084901b6001600160601b03191660a05260408051637e062a3560e11b815290519185169163fc0c546a91600480820192602092909190829003018186803b158015620001a057600080fd5b505afa158015620001b5573d6000803e3d6000fd5b505050506040513d601f19601f82011682018060405250810190620001db919062000313565b60601b6001600160601b031916608052600080546001600160a01b0319166001600160a01b039283161790558316151591506200025d90505760405162461bcd60e51b815260206004820152601660248201527f76546f6b656e2d616464726573732d69732d7a65726f000000000000000000006044820152606401620000dd565b60601b6001600160601b03191660c05250506001600160a01b038116620002b85760405162461bcd60e51b815260206004820152600e60248201526d64726970546f6b656e2d7a65726f60901b6044820152606401620000dd565b60601b6001600160601b03191660e0525062000352945050505050565b60008060408385031215620002e8578182fd5b8251620002f58162000339565b6020840151909250620003088162000339565b809150509250929050565b60006020828403121562000325578081fd5b8151620003328162000339565b9392505050565b6001600160a01b03811681146200034f57600080fd5b50565b60805160601c60a05160601c60c05160601c60e05160601c6140f8620004e1600039600081816102b901528181611152015281816112420152818161127701528181612dec01528181612edf0152818161351d0152613577015260008181610c6501528181612310015281816123fa0152818161263f015281816126f30152818161277701528181612b4f0152818161326b015261330b015260008181610225015281816104d801528181610667015281816107ec01528181610a6701528181610ae301528181610ca201528181610e550152818161104801528181611386015281816114ad0152818161178d0152818161185601528181611aa301528181611f4101528181612117015281816121b4015281816123a601528181612d3801526130800152600081816103f9015281816119f501528181611a7a01528181611d7001528181611f6b0152818161227001528181612384015281816123d8015281816125d101528181612ad101528181612beb01528181612ca7015281816134fc015261355601526140f86000f3fe608060405234801561001057600080fd5b50600436106102065760003560e01c8063951dc22c1161011a578063cd2d7ebe116100ad578063e00af4a71161007c578063e00af4a714610472578063e645c20214610485578063ec78e8321461048d578063fc0c546a146104a0578063ffa1ad74146104b157610206565b8063cd2d7ebe1461043b578063ce5494bb14610444578063d2c35ce814610457578063d4c3eea01461046a57610206565b8063aa101886116100e9578063aa101886146103ec578063b2016bd4146103f4578063c1f3273d1461041b578063c415b95c1461042857610206565b8063951dc22c1461037557806399b71d5c14610388578063a3f4df7e14610390578063a923b2a6146103d957610206565b806342189c8f1161019d5780636dfa8d991161016c5780636dfa8d9914610340578063709d039d14610349578063715064141461035c5780637737b672146103655780637d7c2a1c1461036d57610206565b806342189c8f146102ee578063440d7248146102f75780634c36fad71461031a57806367f5e4b81461032d57610206565b80631aedeabe116101d95780631aedeabe1461028a5780632e1a7d4d146102a1578063335bbf11146102b45780634032b72b146102db57610206565b806314ae9f2e1461020b57806316f0115b146102205780631960d1161461026457806319ab453c14610277575b600080fd5b61021e610219366004613bca565b6104d6565b005b6102477f000000000000000000000000000000000000000000000000000000000000000081565b6040516001600160a01b0390911681526020015b60405180910390f35b61021e610272366004613dc8565b610665565b61021e610285366004613bca565b6107ea565b61029360065481565b60405190815260200161025b565b61021e6102af366004613dc8565b610a64565b6102477f000000000000000000000000000000000000000000000000000000000000000081565b61021e6102e9366004613bca565b610ae1565b61029360045481565b61030a610305366004613bca565b610c61565b604051901515815260200161025b565b61021e610328366004613bca565b610ca0565b61021e61033b366004613dc8565b610e53565b61029360085481565b600354610247906001600160a01b031681565b61029360075481565b61021e610f9f565b61021e6112a0565b600154610247906001600160a01b031681565b61021e6113ef565b6103cc6040518060400160405280601c81526020017f4561726e2d5665737065722d53747261746567792d4441492d5653500000000081525081565b60405161025b9190613e69565b61021e6103e7366004613df8565b6114ab565b61021e6116e0565b6102477f000000000000000000000000000000000000000000000000000000000000000081565b60095461030a9060ff1681565b600254610247906001600160a01b031681565b61029360055481565b61021e610452366004613bca565b61178a565b61021e610465366004613bca565b611aa1565b610293611c6a565b61021e610480366004613bca565b611c79565b610293611f14565b600054610247906001600160a01b031681565b6000546001600160a01b0316610247565b6103cc6040518060400160405280600681526020016519971817191960d11b81525081565b7f00000000000000000000000000000000000000000000000000000000000000006001600160a01b0316630c340a246040518163ffffffff1660e01b815260040160206040518083038186803b15801561052f57600080fd5b505afa158015610543573d6000803e3d6000fd5b505050506040513d601f19601f820116820180604052508101906105679190613be6565b6001600160a01b0316336001600160a01b0316146105a05760405162461bcd60e51b815260040161059790613ecc565b60405180910390fd5b600154604051631484968760e11b81526001600160a01b038381166004830152909116906329092d0e90602401602060405180830381600087803b1580156105e757600080fd5b505af11580156105fb573d6000803e3d6000fd5b505050506040513d601f19601f8201168201806040525081019061061f9190613d49565b6106625760405162461bcd60e51b81526020600482015260146024820152731c995b5bdd994b5ad9595c195c8b59985a5b195960621b6044820152606401610597565b50565b7f00000000000000000000000000000000000000000000000000000000000000006001600160a01b0316630c340a246040518163ffffffff1660e01b815260040160206040518083038186803b1580156106be57600080fd5b505afa1580156106d2573d6000803e3d6000fd5b505050506040513d601f19601f820116820180604052508101906106f69190613be6565b6001600160a01b0316336001600160a01b0316146107265760405162461bcd60e51b815260040161059790613ecc565b806107655760405162461bcd60e51b815260206004820152600f60248201526e64726970506572696f642d7a65726f60881b6044820152606401610597565b6007548114156107a95760405162461bcd60e51b815260206004820152600f60248201526e1cd85b594b591c9a5c14195c9a5bd9608a1b6044820152606401610597565b60075460408051918252602082018390527f6a4a78fe36e2d43bd20405835c6211b888cc77a834e32ddc9ac64ded78f4b328910160405180910390a1600755565b7f00000000000000000000000000000000000000000000000000000000000000006001600160a01b0316630c340a246040518163ffffffff1660e01b815260040160206040518083038186803b15801561084357600080fd5b505afa158015610857573d6000803e3d6000fd5b505050506040513d601f19601f8201168201806040525081019061087b9190613be6565b6001600160a01b0316336001600160a01b0316146108ab5760405162461bcd60e51b815260040161059790613ecc565b6001546001600160a01b0316156109045760405162461bcd60e51b815260206004820152601b60248201527f6b65657065722d6c6973742d616c72656164792d6372656174656400000000006044820152606401610597565b6000819050806001600160a01b0316630fab4d256040518163ffffffff1660e01b8152600401602060405180830381600087803b15801561094457600080fd5b505af1158015610958573d6000803e3d6000fd5b505050506040513d601f19601f8201168201806040525081019061097c9190613be6565b600180546001600160a01b0319166001600160a01b03929092169182179055630a3b0a4f6109a73390565b6040516001600160e01b031960e084901b1681526001600160a01b039091166004820152602401602060405180830381600087803b1580156109e857600080fd5b505af11580156109fc573d6000803e3d6000fd5b505050506040513d601f19601f82011682018060405250810190610a209190613d49565b610a605760405162461bcd60e51b81526020600482015260116024820152701859190b5ad9595c195c8b59985a5b1959607a1b6044820152606401610597565b5050565b337f00000000000000000000000000000000000000000000000000000000000000006001600160a01b031614610ad85760405162461bcd60e51b815260206004820152601960248201527818d85b1b195c8b5a5ccb5b9bdd0b5d995cdc195c8b5c1bdbdb603a1b6044820152606401610597565b61066281611f1e565b7f00000000000000000000000000000000000000000000000000000000000000006001600160a01b0316630c340a246040518163ffffffff1660e01b815260040160206040518083038186803b158015610b3a57600080fd5b505afa158015610b4e573d6000803e3d6000fd5b505050506040513d601f19601f82011682018060405250810190610b729190613be6565b6001600160a01b0316336001600160a01b031614610ba25760405162461bcd60e51b815260040161059790613ecc565b600154604051630a3b0a4f60e01b81526001600160a01b03838116600483015290911690630a3b0a4f90602401602060405180830381600087803b158015610be957600080fd5b505af1158015610bfd573d6000803e3d6000fd5b505050506040513d601f19601f82011682018060405250810190610c219190613d49565b6106625760405162461bcd60e51b81526020600482015260116024820152701859190b5ad9595c195c8b59985a5b1959607a1b6044820152606401610597565b60007f00000000000000000000000000000000000000000000000000000000000000006001600160a01b0316826001600160a01b03161490505b919050565b7f00000000000000000000000000000000000000000000000000000000000000006001600160a01b0316630c340a246040518163ffffffff1660e01b815260040160206040518083038186803b158015610cf957600080fd5b505afa158015610d0d573d6000803e3d6000fd5b505050506040513d601f19601f82011682018060405250810190610d319190613be6565b6001600160a01b0316336001600160a01b031614610d615760405162461bcd60e51b815260040161059790613ecc565b6001600160a01b038116610dac5760405162461bcd60e51b8152602060048201526012602482015271736d2d616464726573732d69732d7a65726f60701b6044820152606401610597565b6003546001600160a01b0382811691161415610df75760405162461bcd60e51b815260206004820152600a602482015269736d2d69732d73616d6560b01b6044820152606401610597565b6003546040516001600160a01b038084169216907f2d19927e7cac08ceb98b38898a4fdff6da6a27295b9a2d62fe250408ebe044e190600090a3600380546001600160a01b0319166001600160a01b0392909216919091179055565b7f00000000000000000000000000000000000000000000000000000000000000006001600160a01b0316630c340a246040518163ffffffff1660e01b815260040160206040518083038186803b158015610eac57600080fd5b505afa158015610ec0573d6000803e3d6000fd5b505050506040513d601f19601f82011682018060405250810190610ee49190613be6565b6001600160a01b0316336001600160a01b031614610f145760405162461bcd60e51b815260040161059790613ecc565b612710811115610f5f5760405162461bcd60e51b8152602060048201526016602482015275696e76616c69642d736c6970706167652d76616c756560501b6044820152606401610597565b60065460408051918252602082018390527ef1c5db862c7598b3b6765552ca951f498611e06412c2d57f8d0b58f82e7f82910160405180910390a1600655565b6001546001600160a01b0316635dbe47e8336040516001600160e01b031960e084901b1681526001600160a01b03909116600482015260240160206040518083038186803b158015610ff057600080fd5b505afa158015611004573d6000803e3d6000fd5b505050506040513d601f19601f820116820180604052508101906110289190613d49565b6110445760405162461bcd60e51b815260040161059790613e9c565b60007f00000000000000000000000000000000000000000000000000000000000000006001600160a01b0316638bc6beb26040518163ffffffff1660e01b8152600401602060405180830381600087803b1580156110a157600080fd5b505af11580156110b5573d6000803e3d6000fd5b505050506040513d601f19601f820116820180604052508101906110d99190613be6565b90506000816001600160a01b031663e49e463b6040518163ffffffff1660e01b815260040160206040518083038186803b15801561111657600080fd5b505afa15801561112a573d6000803e3d6000fd5b505050506040513d601f19601f8201168201806040525081019061114e9190613be6565b90507f00000000000000000000000000000000000000000000000000000000000000006001600160a01b0316816001600160a01b031663fc0c546a6040518163ffffffff1660e01b815260040160206040518083038186803b1580156111b357600080fd5b505afa1580156111c7573d6000803e3d6000fd5b505050506040513d601f19601f820116820180604052508101906111eb9190613be6565b6001600160a01b0316146112355760405162461bcd60e51b81526020600482015260116024820152701a5b9d985b1a590b59dc9bddcb5c1bdbdb607a1b6044820152606401610597565b61126a6001600160a01b037f000000000000000000000000000000000000000000000000000000000000000016826000611f9a565b610a606001600160a01b037f00000000000000000000000000000000000000000000000000000000000000001682600019611f9a565b6001546001600160a01b0316635dbe47e8336040516001600160e01b031960e084901b1681526001600160a01b03909116600482015260240160206040518083038186803b1580156112f157600080fd5b505afa158015611305573d6000803e3d6000fd5b505050506040513d601f19601f820116820180604052508101906113299190613d49565b6113455760405162461bcd60e51b815260040161059790613e9c565b60008060006113526120f1565b6040516302df682360e11b815260048101849052602481018390526044810182905292955090935091506001600160a01b037f000000000000000000000000000000000000000000000000000000000000000016906305bed04690606401600060405180830381600087803b1580156113ca57600080fd5b505af11580156113de573d6000803e3d6000fd5b505050506113ea612258565b505050565b6001546001600160a01b0316635dbe47e8336040516001600160e01b031960e084901b1681526001600160a01b03909116600482015260240160206040518083038186803b15801561144057600080fd5b505afa158015611454573d6000803e3d6000fd5b505050506040513d601f19601f820116820180604052508101906114789190613d49565b6114945760405162461bcd60e51b815260040161059790613e9c565b61149e6000612377565b6114a9600019612377565b565b7f00000000000000000000000000000000000000000000000000000000000000006001600160a01b0316630c340a246040518163ffffffff1660e01b815260040160206040518083038186803b15801561150457600080fd5b505afa158015611518573d6000803e3d6000fd5b505050506040513d601f19601f8201168201806040525081019061153c9190613be6565b6001600160a01b0316336001600160a01b03161461156c5760405162461bcd60e51b815260040161059790613ecc565b600360009054906101000a90046001600160a01b03166001600160a01b031663c2fba6676040518163ffffffff1660e01b815260040160206040518083038186803b1580156115ba57600080fd5b505afa1580156115ce573d6000803e3d6000fd5b505050506040513d601f19601f820116820180604052508101906115f29190613de0565b81106116375760405162461bcd60e51b81526020600482015260146024820152730d2dcecc2d8d2c85ae4deeae8cae45ad2dcc8caf60631b6044820152606401610597565b816116425760045491505b603b821161168a5760405162461bcd60e51b81526020600482015260156024820152741a5b9d985b1a590b5bdc9858db194b5c195c9a5bd9605a1b6044820152606401610597565b6004546005546040805192835260208301859052820152606081018290527f83bc5ab8030537fcf1d29c2334f6d22c26c82dcbe5ff03923d2cff5c692c0a7f9060800160405180910390a1600491909155600555565b6001546001600160a01b0316635dbe47e8336040516001600160e01b031960e084901b1681526001600160a01b03909116600482015260240160206040518083038186803b15801561173157600080fd5b505afa158015611745573d6000803e3d6000fd5b505050506040513d601f19601f820116820180604052508101906117699190613d49565b6117855760405162461bcd60e51b815260040161059790613e9c565b6114a9565b337f00000000000000000000000000000000000000000000000000000000000000006001600160a01b0316146117fe5760405162461bcd60e51b815260206004820152601960248201527818d85b1b195c8b5a5ccb5b9bdd0b5d995cdc195c8b5c1bdbdb603a1b6044820152606401610597565b6001600160a01b0381166118545760405162461bcd60e51b815260206004820152601c60248201527f6e65772d73747261746567792d616464726573732d69732d7a65726f000000006044820152606401610597565b7f00000000000000000000000000000000000000000000000000000000000000006001600160a01b0316816001600160a01b03166316f0115b6040518163ffffffff1660e01b815260040160206040518083038186803b1580156118b757600080fd5b505afa1580156118cb573d6000803e3d6000fd5b505050506040513d601f19601f820116820180604052508101906118ef9190613be6565b6001600160a01b03161461193e5760405162461bcd60e51b81526020600482015260166024820152756e6f742d76616c69642d6e65772d737472617465677960501b6044820152606401610597565b6000546040516370a0823160e01b81523060048201526119d29183916001600160a01b03909116906370a082319060240160206040518083038186803b15801561198757600080fd5b505afa15801561199b573d6000803e3d6000fd5b505050506040513d601f19601f820116820180604052508101906119bf9190613de0565b6000546001600160a01b0316919061260a565b6040516370a0823160e01b81523060048201526106629082906001600160a01b037f000000000000000000000000000000000000000000000000000000000000000016906370a08231906024015b60206040518083038186803b158015611a3857600080fd5b505afa158015611a4c573d6000803e3d6000fd5b505050506040513d601f19601f82011682018060405250810190611a709190613de0565b6001600160a01b037f000000000000000000000000000000000000000000000000000000000000000016919061260a565b7f00000000000000000000000000000000000000000000000000000000000000006001600160a01b0316630c340a246040518163ffffffff1660e01b815260040160206040518083038186803b158015611afa57600080fd5b505afa158015611b0e573d6000803e3d6000fd5b505050506040513d601f19601f82011682018060405250810190611b329190613be6565b6001600160a01b0316336001600160a01b031614611b625760405162461bcd60e51b815260040161059790613ecc565b6001600160a01b038116611bb85760405162461bcd60e51b815260206004820152601d60248201527f6665652d636f6c6c6563746f722d616464726573732d69732d7a65726f0000006044820152606401610597565b6002546001600160a01b0382811691161415611c0e5760405162461bcd60e51b81526020600482015260156024820152746665652d636f6c6c6563746f722d69732d73616d6560581b6044820152606401610597565b6002546040516001600160a01b038084169216907f0f06062680f9bd68e786e9980d9bb03d73d5620fc3b345e417b6eacb310b970690600090a3600280546001600160a01b0319166001600160a01b0392909216919091179055565b6000611c7461263a565b905090565b6001546001600160a01b0316635dbe47e8336040516001600160e01b031960e084901b1681526001600160a01b03909116600482015260240160206040518083038186803b158015611cca57600080fd5b505afa158015611cde573d6000803e3d6000fd5b505050506040513d601f19601f82011682018060405250810190611d029190613d49565b611d1e5760405162461bcd60e51b815260040161059790613e9c565b6002546001600160a01b0316611d6e5760405162461bcd60e51b81526020600482015260156024820152741999594b58dbdb1b1958dd1bdc8b5b9bdd0b5cd95d605a1b6044820152606401610597565b7f00000000000000000000000000000000000000000000000000000000000000006001600160a01b0316816001600160a01b03161415611df05760405162461bcd60e51b815260206004820152601f60248201527f6e6f742d616c6c6f7765642d746f2d73776565702d636f6c6c61746572616c006044820152606401610597565b611df981610c61565b15611e3d5760405162461bcd60e51b815260206004820152601460248201527306e6f742d616c6c6f7765642d746f2d73776565760641b6044820152606401610597565b6001600160a01b03811673eeeeeeeeeeeeeeeeeeeeeeeeeeeeeeeeeeeeeeee1415611e7d57600254611e78906001600160a01b031647612820565b610662565b6040516370a0823160e01b81523060048201526000906001600160a01b038316906370a082319060240160206040518083038186803b158015611ebf57600080fd5b505afa158015611ed3573d6000803e3d6000fd5b505050506040513d601f19601f82011682018060405250810190611ef79190613de0565b600254909150610a60906001600160a01b0384811691168361260a565b6000611c74611c6a565b611f2781612939565b506040516370a0823160e01b8152306004820152610662907f0000000000000000000000000000000000000000000000000000000000000000906001600160a01b037f000000000000000000000000000000000000000000000000000000000000000016906370a0823190602401611a20565b8015806120235750604051636eb1769f60e11b81523060048201526001600160a01b03838116602483015284169063dd62ed3e9060440160206040518083038186803b158015611fe957600080fd5b505afa158015611ffd573d6000803e3d6000fd5b505050506040513d601f19601f820116820180604052508101906120219190613de0565b155b61208e5760405162461bcd60e51b815260206004820152603660248201527f5361666545524332303a20617070726f76652066726f6d206e6f6e2d7a65726f60448201527520746f206e6f6e2d7a65726f20616c6c6f77616e636560501b6064820152608401610597565b6040516001600160a01b0383166024820152604481018290526113ea90849063095ea7b360e01b906064015b60408051601f198184030181529190526020810180516001600160e01b03166001600160e01b031990931692909217909152612964565b604051636a9eee1360e11b81523060048201526000908190819081906001600160a01b037f0000000000000000000000000000000000000000000000000000000000000000169063d53ddc269060240160206040518083038186803b15801561215957600080fd5b505afa15801561216d573d6000803e3d6000fd5b505050506040513d601f19601f820116820180604052508101906121919190613de0565b604051639f2b283360e01b81523060048201529091506000906001600160a01b037f00000000000000000000000000000000000000000000000000000000000000001690639f2b28339060240160206040518083038186803b1580156121f657600080fd5b505afa15801561220a573d6000803e3d6000fd5b505050506040513d601f19601f8201168201806040525081019061222e9190613de0565b905061223981612a36565b945061224481612a73565b935061224f82612a98565b92505050909192565b6040516370a0823160e01b81523060048201526000907f00000000000000000000000000000000000000000000000000000000000000006001600160a01b0316906370a082319060240160206040518083038186803b1580156122ba57600080fd5b505afa1580156122ce573d6000803e3d6000fd5b505050506040513d601f19601f820116820180604052508101906122f29190613de0565b905080156106625760405163b6b55f2560e01b8152600481018290527f00000000000000000000000000000000000000000000000000000000000000006001600160a01b03169063b6b55f2590602401600060405180830381600087803b15801561235c57600080fd5b505af1158015612370573d6000803e3d6000fd5b5050505050565b6123cb6001600160a01b037f0000000000000000000000000000000000000000000000000000000000000000167f000000000000000000000000000000000000000000000000000000000000000083611f9a565b61241f6001600160a01b037f0000000000000000000000000000000000000000000000000000000000000000167f000000000000000000000000000000000000000000000000000000000000000083611f9a565b60005b600360009054906101000a90046001600160a01b03166001600160a01b031663c2fba6676040518163ffffffff1660e01b815260040160206040518083038186803b15801561247057600080fd5b505afa158015612484573d6000803e3d6000fd5b505050506040513d601f19601f820116820180604052508101906124a89190613de0565b811015610a6057600354604051636e74a6f760e01b815260048101839052612549916001600160a01b031690636e74a6f79060240160206040518083038186803b1580156124f557600080fd5b505afa158015612509573d6000803e3d6000fd5b505050506040513d601f19601f8201168201806040525081019061252d9190613be6565b731b40183efb4dd766f11bda7a7c3ad8982e9984219084611f9a565b600354604051636e74a6f760e01b8152600481018390526125f8916001600160a01b031690636e74a6f79060240160206040518083038186803b15801561258f57600080fd5b505afa1580156125a3573d6000803e3d6000fd5b505050506040513d601f19601f820116820180604052508101906125c79190613be6565b6001600160a01b037f0000000000000000000000000000000000000000000000000000000000000000169084611f9a565b8061260281614066565b915050612422565b6040516001600160a01b0383166024820152604481018290526113ea90849063a9059cbb60e01b906064016120ba565b6000807f00000000000000000000000000000000000000000000000000000000000000006001600160a01b03166318160ddd6040518163ffffffff1660e01b815260040160206040518083038186803b15801561269657600080fd5b505afa1580156126aa573d6000803e3d6000fd5b505050506040513d601f19601f820116820180604052508101906126ce9190613de0565b9050806126dc57600061281a565b6040516370a0823160e01b815230600482015281907f00000000000000000000000000000000000000000000000000000000000000006001600160a01b0316906370a082319060240160206040518083038186803b15801561273d57600080fd5b505afa158015612751573d6000803e3d6000fd5b505050506040513d601f19601f820116820180604052508101906127759190613de0565b7f00000000000000000000000000000000000000000000000000000000000000006001600160a01b031663d4c3eea06040518163ffffffff1660e01b815260040160206040518083038186803b1580156127ce57600080fd5b505afa1580156127e2573d6000803e3d6000fd5b505050506040513d601f19601f820116820180604052508101906128069190613de0565b6128109190614000565b61281a9190613fe0565b91505090565b804710156128705760405162461bcd60e51b815260206004820152601d60248201527f416464726573733a20696e73756666696369656e742062616c616e63650000006044820152606401610597565b6000826001600160a01b03168260405160006040518083038185875af1925050503d80600081146128bd576040519150601f19603f3d011682016040523d82523d6000602084013e6128c2565b606091505b50509050806113ea5760405162461bcd60e51b815260206004820152603a60248201527f416464726573733a20756e61626c6520746f2073656e642076616c75652c207260448201527f6563697069656e74206d617920686176652072657665727465640000000000006064820152608401610597565b60008061294461263a565b905061295d8184106129565781612958565b835b612aaf565b9392505050565b60006129b9826040518060400160405280602081526020017f5361666545524332303a206c6f772d6c6576656c2063616c6c206661696c6564815250856001600160a01b0316612c789092919063ffffffff16565b8051909150156113ea57808060200190518101906129d79190613d49565b6113ea5760405162461bcd60e51b815260206004820152602a60248201527f5361666545524332303a204552433230206f7065726174696f6e20646964206e6044820152691bdd081cdd58d8d9595960b21b6064820152608401610597565b600080612a4161263a565b905082811115612a5a57612a58612958848361401f565b505b612a62612c8f565b612a6a612d34565b50600092915050565b600080612a7e61263a565b905082811015612a925761295d818461401f565b50919050565b60008115610c9b57612aa982612939565b92915050565b6040516370a0823160e01b815230600482015260009081906001600160a01b037f000000000000000000000000000000000000000000000000000000000000000016906370a082319060240160206040518083038186803b158015612b1357600080fd5b505afa158015612b27573d6000803e3d6000fd5b505050506040513d601f19601f82011682018060405250810190612b4b9190613de0565b90507f00000000000000000000000000000000000000000000000000000000000000006001600160a01b031663ff643a7c612b8585613266565b6040518263ffffffff1660e01b8152600401612ba391815260200190565b600060405180830381600087803b158015612bbd57600080fd5b505af1158015612bd1573d6000803e3d6000fd5b50506040516370a0823160e01b81523060048201528392507f00000000000000000000000000000000000000000000000000000000000000006001600160a01b031691506370a082319060240160206040518083038186803b158015612c3657600080fd5b505afa158015612c4a573d6000803e3d6000fd5b505050506040513d601f19601f82011682018060405250810190612c6e9190613de0565b61295d919061401f565b6060612c8784846000856133ae565b949350505050565b6040516370a0823160e01b81523060048201526000907f00000000000000000000000000000000000000000000000000000000000000006001600160a01b0316906370a082319060240160206040518083038186803b158015612cf157600080fd5b505afa158015612d05573d6000803e3d6000fd5b505050506040513d601f19601f82011682018060405250810190612d299190613de0565b9050610662816134d6565b60007f00000000000000000000000000000000000000000000000000000000000000006001600160a01b0316638bc6beb26040518163ffffffff1660e01b8152600401602060405180830381600087803b158015612d9157600080fd5b505af1158015612da5573d6000803e3d6000fd5b505050506040513d601f19601f82011682018060405250810190612dc99190613be6565b6040516370a0823160e01b81523060048201529091506000906001600160a01b037f000000000000000000000000000000000000000000000000000000000000000016906370a082319060240160206040518083038186803b158015612e2e57600080fd5b505afa158015612e42573d6000803e3d6000fd5b505050506040513d601f19601f82011682018060405250810190612e669190613de0565b90506000826001600160a01b031663e49e463b6040518163ffffffff1660e01b815260040160206040518083038186803b158015612ea357600080fd5b505afa158015612eb7573d6000803e3d6000fd5b505050506040513d601f19601f82011682018060405250810190612edb9190613be6565b90507f00000000000000000000000000000000000000000000000000000000000000006001600160a01b0316816001600160a01b031663fc0c546a6040518163ffffffff1660e01b815260040160206040518083038186803b158015612f4057600080fd5b505afa158015612f54573d6000803e3d6000fd5b505050506040513d601f19601f82011682018060405250810190612f789190613be6565b6001600160a01b031614612fc25760405162461bcd60e51b81526020600482015260116024820152701a5b9d985b1a590b59dc9bddcb5c1bdbdb607a1b6044820152606401610597565b60095460ff16158015612fd457508115155b1561305d578160086000828254612feb9190613fc8565b909155505060405163b6b55f2560e01b8152600481018390526001600160a01b0382169063b6b55f2590602401600060405180830381600087803b15801561303257600080fd5b505af1158015613046573d6000803e3d6000fd5b50506009805460ff19166001179055506113ea9050565b60095460ff16156113ea5760405163228bfd9f60e01b81523060048201526000907f00000000000000000000000000000000000000000000000000000000000000006001600160a01b03169063228bfd9f906024016101006040518083038186803b1580156130cb57600080fd5b505afa1580156130df573d6000803e3d6000fd5b505050506040513d601f19601f820116820180604052508101906131039190613d63565b50506040516370a0823160e01b81523060048201529496506000955050506001600160a01b038616926370a082319250602401905060206040518083038186803b15801561315057600080fd5b505afa158015613164573d6000803e3d6000fd5b505050506040513d601f19601f820116820180604052508101906131889190613de0565b905060006127106131998484614000565b6131a39190613fe0565b905080156131d2576002546131c5906001600160a01b0386811691168361260a565b6131cf818361401f565b91505b6131e66001600160a01b038516878461260a565b6007546040516328f362b160e21b81526001600160a01b0386811660048301526024820185905260448201929092529087169063a3cd8ac490606401600060405180830381600087803b15801561323c57600080fd5b505af1158015613250573d6000803e3d6000fd5b50506009805460ff191690555050505050505050565b6000807f00000000000000000000000000000000000000000000000000000000000000006001600160a01b031663d4c3eea06040518163ffffffff1660e01b815260040160206040518083038186803b1580156132c257600080fd5b505afa1580156132d6573d6000803e3d6000fd5b505050506040513d601f19601f820116820180604052508101906132fa9190613de0565b90508061330857600061295d565b807f00000000000000000000000000000000000000000000000000000000000000006001600160a01b03166318160ddd6040518163ffffffff1660e01b815260040160206040518083038186803b15801561336257600080fd5b505afa158015613376573d6000803e3d6000fd5b505050506040513d601f19601f8201168201806040525081019061339a9190613de0565b6133a49085614000565b61295d9190613fe0565b60608247101561340f5760405162461bcd60e51b815260206004820152602660248201527f416464726573733a20696e73756666696369656e742062616c616e636520666f6044820152651c8818d85b1b60d21b6064820152608401610597565b843b61345d5760405162461bcd60e51b815260206004820152601d60248201527f416464726573733a2063616c6c20746f206e6f6e2d636f6e74726163740000006044820152606401610597565b600080866001600160a01b031685876040516134799190613e4d565b60006040518083038185875af1925050503d80600081146134b6576040519150601f19603f3d011682016040523d82523d6000602084013e6134bb565b606091505b50915091506134cb82828661359d565b979650505050505050565b801561066257600060065461271014156134f157600161354f565b61354f6135476135417f00000000000000000000000000000000000000000000000000000000000000007f00000000000000000000000000000000000000000000000000000000000000006135d6565b846137ce565b6006546138f9565b9050610a607f00000000000000000000000000000000000000000000000000000000000000007f00000000000000000000000000000000000000000000000000000000000000008484613908565b606083156135ac57508161295d565b8251156135bc5782518084602001fd5b8160405162461bcd60e51b81526004016105979190613e69565b60606001600160a01b03831673c02aaa39b223fe8d0a0e5c4f27ead9083c756cc2148061361f57506001600160a01b03821673c02aaa39b223fe8d0a0e5c4f27ead9083c756cc2145b156136cd576040805160028082526060820183529091602083019080368337019050509050828160008151811061366657634e487b7160e01b600052603260045260246000fd5b60200260200101906001600160a01b031690816001600160a01b03168152505081816001815181106136a857634e487b7160e01b600052603260045260246000fd5b60200260200101906001600160a01b031690816001600160a01b031681525050612aa9565b604080516003808252608082019092529060208201606080368337019050509050828160008151811061371057634e487b7160e01b600052603260045260246000fd5b60200260200101906001600160a01b031690816001600160a01b03168152505073c02aaa39b223fe8d0a0e5c4f27ead9083c756cc28160018151811061376657634e487b7160e01b600052603260045260246000fd5b60200260200101906001600160a01b031690816001600160a01b03168152505081816002815181106137a857634e487b7160e01b600052603260045260246000fd5b60200260200101906001600160a01b031690816001600160a01b03168152505092915050565b600060018351116138175760405162461bcd60e51b81526020600482015260136024820152720d2dcecc2d8d2c85adee4c2c6d8ca5ae0c2e8d606b1b6044820152606401610597565b50806000805b6001855161382b919061401f565b8110156138f15761389785828151811061385557634e487b7160e01b600052603260045260246000fd5b60200260200101518683600161386b9190613fc8565b8151811061388957634e487b7160e01b600052603260045260246000fd5b602002602001015185613ac9565b9093509150816138df5760405162461bcd60e51b8152602060048201526013602482015272696e76616c69642d6f7261636c652d7261746560681b6044820152606401610597565b806138e981614066565b91505061381d565b505092915050565b600061271061339a838261401f565b600354604051631d1f307960e31b81526001600160a01b038681166004830152858116602483015260448201859052600092839283929091169063e8f983c89060640160006040518083038186803b15801561396357600080fd5b505afa158015613977573d6000803e3d6000fd5b505050506040513d6000823e601f3d908101601f1916820160405261399f9190810190613c02565b92509250925083600014156139b357600193505b8115613ac057600354604051636e74a6f760e01b8152600481018390526001600160a01b0390911690636e74a6f79060240160206040518083038186803b1580156139fd57600080fd5b505afa158015613a11573d6000803e3d6000fd5b505050506040513d601f19601f82011682018060405250810190613a359190613be6565b6001600160a01b03166338ed173986868630426040518663ffffffff1660e01b8152600401613a68959493929190613f03565b600060405180830381600087803b158015613a8257600080fd5b505af1158015613a96573d6000803e3d6000fd5b505050506040513d6000823e601f3d908101601f19168201604052613abe9190810190613cb6565b505b50505050505050565b6003546004805460055460405163b67bb24d60e01b81526001600160a01b038881169482019490945286841660248201526044810186905260648101929092526084820152600092839283928392919091169063b67bb24d9060a401606060405180830381600087803b158015613b3f57600080fd5b505af1158015613b53573d6000803e3d6000fd5b505050506040513d601f19601f82011682018060405250810190613b779190613e19565b509150915060045442613b8a919061401f565b81118015613b9757508115155b15613ba85750915060019050613bb2565b6000809350935050505b935093915050565b80518015158114610c9b57600080fd5b600060208284031215613bdb578081fd5b813561295d816140ad565b600060208284031215613bf7578081fd5b815161295d816140ad565b600080600060608486031215613c16578182fd5b835167ffffffffffffffff811115613c2c578283fd5b8401601f81018613613c3c578283fd5b80516020613c51613c4c83613fa4565b613f73565b8083825282820191508285018a848660051b8801011115613c70578788fd5b8795505b84861015613c9b578051613c87816140ad565b835260019590950194918301918301613c74565b50918801516040909801519199979850909695505050505050565b60006020808385031215613cc8578182fd5b825167ffffffffffffffff811115613cde578283fd5b8301601f81018513613cee578283fd5b8051613cfc613c4c82613fa4565b80828252848201915084840188868560051b8701011115613d1b578687fd5b8694505b83851015613d3d578051835260019490940193918501918501613d1f565b50979650505050505050565b600060208284031215613d5a578081fd5b61295d82613bba565b600080600080600080600080610100898b031215613d7f578384fd5b613d8889613bba565b97506020890151965060408901519550606089015194506080890151935060a0890151925060c0890151915060e089015190509295985092959890939650565b600060208284031215613dd9578081fd5b5035919050565b600060208284031215613df1578081fd5b5051919050565b60008060408385031215613e0a578182fd5b50508035926020909101359150565b600080600060608486031215613e2d578283fd5b8351925060208401519150613e4460408501613bba565b90509250925092565b60008251613e5f818460208701614036565b9190910192915050565b6000602082528251806020840152613e88816040850160208701614036565b601f01601f19169190910160400192915050565b60208082526016908201527531b0b63632b916b4b996b737ba16b096b5b2b2b832b960511b604082015260600190565b6020808252601a908201527f63616c6c65722d69732d6e6f742d7468652d676f7665726e6f72000000000000604082015260600190565b600060a082018783526020878185015260a0604085015281875180845260c0860191508289019350845b81811015613f525784516001600160a01b031683529383019391830191600101613f2d565b50506001600160a01b03969096166060850152505050608001529392505050565b604051601f8201601f1916810167ffffffffffffffff81118282101715613f9c57613f9c614097565b604052919050565b600067ffffffffffffffff821115613fbe57613fbe614097565b5060051b60200190565b60008219821115613fdb57613fdb614081565b500190565b600082613ffb57634e487b7160e01b81526012600452602481fd5b500490565b600081600019048311821515161561401a5761401a614081565b500290565b60008282101561403157614031614081565b500390565b60005b83811015614051578181015183820152602001614039565b83811115614060576000848401525b50505050565b600060001982141561407a5761407a614081565b5060010190565b634e487b7160e01b600052601160045260246000fd5b634e487b7160e01b600052604160045260246000fd5b6001600160a01b038116811461066257600080fdfea2646970667358221220476711ab03fe2e8b01a176a5fa0c37ace56ee65aef98c758b7cd12188eb4684d64736f6c63430008030033",
  "devdoc": {
    "kind": "dev",
    "methods": {
      "addKeeper(address)": {
        "params": {
          "_keeperAddress": "keeper address to add."
        }
      },
      "approveGrowToken()": {
        "details": "Approves EarnDrip' Grow token to spend dripToken"
      },
      "approveToken()": {
        "details": "Approve all required tokens"
      },
      "init(address)": {
        "params": {
          "_addressListFactory": "To support same code in eth side chain, user _addressListFactory as param mainnet - 0xded8217De022706A191eE7Ee0Dc9df1185Fb5dA3 polygon - 0xD10D5696A350D65A9AA15FE8B258caB4ab1bF291 avalanche - 0xc5CdF8CBE886FC5c1EF5CD4fdd599C975eC6BB54"
        }
      },
      "migrate(address)": {
        "details": "_beforeMigration hook can be implemented in child strategy to do extra steps.",
        "params": {
          "_newStrategy": "Address of new strategy"
        }
      },
      "rebalance()": {
        "details": "Rebalance profit, loss and investment of this strategy"
      },
      "removeKeeper(address)": {
        "params": {
          "_keeperAddress": "keeper address to remove."
        }
      },
      "sweepERC20(address)": {
        "details": "sweep given token to feeCollector of strategy",
        "params": {
          "_fromToken": "token address to sweep"
        }
      },
      "totalValue()": {
        "details": "Report total value in collateral token"
      },
      "totalValueCurrent()": {
        "details": "Report total value in collateral token"
      },
      "updateDripPeriod(uint256)": {
        "details": "_dripPeriod in seconds"
      },
      "updateFeeCollector(address)": {
        "params": {
          "_feeCollector": "fee collector address"
        }
      },
      "updateSwapManager(address)": {
        "params": {
          "_swapManager": "swap manager address"
        }
      },
      "withdraw(uint256)": {
        "details": "Withdraw collateral token from lending pool.",
        "params": {
          "_amount": "Amount of collateral token"
        }
      }
    },
    "title": "Deposit DAI in a Vesper Grow Pool and earn interest in VSP.",
    "version": 1
  },
  "userdoc": {
    "kind": "user",
    "methods": {
      "addKeeper(address)": {
        "notice": "Add given address in keepers list."
      },
      "init(address)": {
        "notice": "Create keeper list NOTE: Any function with onlyKeeper modifier will not work until this function is called. NOTE: Due to gas constraint this function cannot be called in constructor."
      },
      "isReservedToken(address)": {
        "notice": "Check whether given token is reserved or not. Reserved tokens are not allowed to sweep."
      },
      "migrate(address)": {
        "notice": "Migrate all asset and vault ownership,if any, to new strategy"
      },
      "removeKeeper(address)": {
        "notice": "Remove given address from keepers list."
      },
      "token()": {
        "notice": "Returns address of token correspond to collateral token"
      },
      "totalValue()": {
        "notice": "Calculate total value using underlying vToken"
      },
      "totalValueCurrent()": {
        "notice": "Calculate total value of asset under management (in real-time)"
      },
      "updateDripPeriod(uint256)": {
        "notice": "Update update period of distribution of earning done in one rebalance"
      },
      "updateFeeCollector(address)": {
        "notice": "Update fee collector"
      },
      "updateSwapManager(address)": {
        "notice": "Update swap manager address"
      }
    },
    "version": 1
  },
  "storageLayout": {
    "storage": [
      {
        "astId": 13612,
        "contract": "contracts/strategies/vesper/earn/EarnVesperStrategyDAIVSP.sol:EarnVesperStrategyDAIVSP",
        "label": "receiptToken",
        "offset": 0,
        "slot": "0",
        "type": "t_address"
      },
      {
        "astId": 13619,
        "contract": "contracts/strategies/vesper/earn/EarnVesperStrategyDAIVSP.sol:EarnVesperStrategyDAIVSP",
        "label": "keepers",
        "offset": 0,
        "slot": "1",
        "type": "t_contract(IAddressList)4357"
      },
      {
        "astId": 13622,
        "contract": "contracts/strategies/vesper/earn/EarnVesperStrategyDAIVSP.sol:EarnVesperStrategyDAIVSP",
        "label": "feeCollector",
        "offset": 0,
        "slot": "2",
        "type": "t_address"
      },
      {
        "astId": 13625,
        "contract": "contracts/strategies/vesper/earn/EarnVesperStrategyDAIVSP.sol:EarnVesperStrategyDAIVSP",
        "label": "swapManager",
        "offset": 0,
        "slot": "3",
        "type": "t_contract(ISwapManager)4660"
      },
      {
        "astId": 13628,
        "contract": "contracts/strategies/vesper/earn/EarnVesperStrategyDAIVSP.sol:EarnVesperStrategyDAIVSP",
        "label": "oraclePeriod",
        "offset": 0,
        "slot": "4",
        "type": "t_uint256"
      },
      {
        "astId": 13631,
        "contract": "contracts/strategies/vesper/earn/EarnVesperStrategyDAIVSP.sol:EarnVesperStrategyDAIVSP",
        "label": "oracleRouterIdx",
        "offset": 0,
        "slot": "5",
        "type": "t_uint256"
      },
      {
        "astId": 13634,
        "contract": "contracts/strategies/vesper/earn/EarnVesperStrategyDAIVSP.sol:EarnVesperStrategyDAIVSP",
        "label": "swapSlippage",
        "offset": 0,
        "slot": "6",
        "type": "t_uint256"
      },
      {
        "astId": 13270,
        "contract": "contracts/strategies/vesper/earn/EarnVesperStrategyDAIVSP.sol:EarnVesperStrategyDAIVSP",
        "label": "dripPeriod",
        "offset": 0,
        "slot": "7",
        "type": "t_uint256"
      },
      {
        "astId": 13272,
        "contract": "contracts/strategies/vesper/earn/EarnVesperStrategyDAIVSP.sol:EarnVesperStrategyDAIVSP",
        "label": "totalEarned",
        "offset": 0,
        "slot": "8",
        "type": "t_uint256"
      },
      {
        "astId": 37974,
        "contract": "contracts/strategies/vesper/earn/EarnVesperStrategyDAIVSP.sol:EarnVesperStrategyDAIVSP",
        "label": "transferToDripContract",
        "offset": 0,
        "slot": "9",
        "type": "t_bool"
      }
    ],
    "types": {
      "t_address": {
        "encoding": "inplace",
        "label": "address",
        "numberOfBytes": "20"
      },
      "t_bool": {
        "encoding": "inplace",
        "label": "bool",
        "numberOfBytes": "1"
      },
      "t_contract(IAddressList)4357": {
        "encoding": "inplace",
        "label": "contract IAddressList",
        "numberOfBytes": "20"
      },
      "t_contract(ISwapManager)4660": {
        "encoding": "inplace",
        "label": "contract ISwapManager",
        "numberOfBytes": "20"
      },
      "t_uint256": {
        "encoding": "inplace",
        "label": "uint256",
        "numberOfBytes": "32"
      }
    }
  }
}