{
  "address": "0x2c7c495624f8E665d3B3AEfFF29747D82A793884",
  "abi": [
    {
      "inputs": [
        {
          "internalType": "string",
          "name": "_name",
          "type": "string"
        },
        {
          "internalType": "string",
          "name": "_symbol",
          "type": "string"
        },
        {
          "internalType": "address",
          "name": "_token",
          "type": "address"
        }
      ],
      "stateMutability": "nonpayable",
      "type": "constructor"
    },
    {
      "anonymous": false,
      "inputs": [
        {
          "indexed": true,
          "internalType": "address",
          "name": "owner",
          "type": "address"
        },
        {
          "indexed": true,
          "internalType": "address",
          "name": "spender",
          "type": "address"
        },
        {
          "indexed": false,
          "internalType": "uint256",
          "name": "value",
          "type": "uint256"
        }
      ],
      "name": "Approval",
      "type": "event"
    },
    {
      "anonymous": false,
      "inputs": [
        {
          "indexed": true,
          "internalType": "address",
          "name": "owner",
          "type": "address"
        },
        {
          "indexed": false,
          "internalType": "uint256",
          "name": "shares",
          "type": "uint256"
        },
        {
          "indexed": false,
          "internalType": "uint256",
          "name": "amount",
          "type": "uint256"
        }
      ],
      "name": "Deposit",
      "type": "event"
    },
    {
      "anonymous": false,
      "inputs": [
        {
          "indexed": false,
          "internalType": "address",
          "name": "account",
          "type": "address"
        }
      ],
      "name": "Open",
      "type": "event"
    },
    {
      "anonymous": false,
      "inputs": [
        {
          "indexed": false,
          "internalType": "address",
          "name": "account",
          "type": "address"
        }
      ],
      "name": "Paused",
      "type": "event"
    },
    {
      "anonymous": false,
      "inputs": [
        {
          "indexed": false,
          "internalType": "address",
          "name": "account",
          "type": "address"
        }
      ],
      "name": "Shutdown",
      "type": "event"
    },
    {
      "anonymous": false,
      "inputs": [
        {
          "indexed": true,
          "internalType": "address",
          "name": "from",
          "type": "address"
        },
        {
          "indexed": true,
          "internalType": "address",
          "name": "to",
          "type": "address"
        },
        {
          "indexed": false,
          "internalType": "uint256",
          "name": "value",
          "type": "uint256"
        }
      ],
      "name": "Transfer",
      "type": "event"
    },
    {
      "anonymous": false,
      "inputs": [
        {
          "indexed": false,
          "internalType": "uint256",
          "name": "strategyDebt",
          "type": "uint256"
        },
        {
          "indexed": false,
          "internalType": "uint256",
          "name": "profit",
          "type": "uint256"
        },
        {
          "indexed": false,
          "internalType": "uint256",
          "name": "fee",
          "type": "uint256"
        }
      ],
      "name": "UniversalFeePaid",
      "type": "event"
    },
    {
      "anonymous": false,
      "inputs": [
        {
          "indexed": false,
          "internalType": "address",
          "name": "account",
          "type": "address"
        }
      ],
      "name": "Unpaused",
      "type": "event"
    },
    {
      "anonymous": false,
      "inputs": [
        {
          "indexed": true,
          "internalType": "address",
          "name": "previousGovernor",
          "type": "address"
        },
        {
          "indexed": true,
          "internalType": "address",
          "name": "proposedGovernor",
          "type": "address"
        }
      ],
      "name": "UpdatedGovernor",
      "type": "event"
    },
    {
      "anonymous": false,
      "inputs": [
        {
          "indexed": false,
          "internalType": "uint256",
          "name": "oldMaxProfitAsFee",
          "type": "uint256"
        },
        {
          "indexed": false,
          "internalType": "uint256",
          "name": "newMaxProfitAsFee",
          "type": "uint256"
        }
      ],
      "name": "UpdatedMaximumProfitAsFee",
      "type": "event"
    },
    {
      "anonymous": false,
      "inputs": [
        {
          "indexed": false,
          "internalType": "uint256",
          "name": "oldDepositLimit",
          "type": "uint256"
        },
        {
          "indexed": false,
          "internalType": "uint256",
          "name": "newDepositLimit",
          "type": "uint256"
        }
      ],
      "name": "UpdatedMinimumDepositLimit",
      "type": "event"
    },
    {
      "anonymous": false,
      "inputs": [
        {
          "indexed": true,
          "internalType": "address",
          "name": "previousPoolRewards",
          "type": "address"
        },
        {
          "indexed": true,
          "internalType": "address",
          "name": "newPoolRewards",
          "type": "address"
        }
      ],
      "name": "UpdatedPoolRewards",
      "type": "event"
    },
    {
      "anonymous": false,
      "inputs": [
        {
          "indexed": false,
          "internalType": "uint256",
          "name": "oldUniversalFee",
          "type": "uint256"
        },
        {
          "indexed": false,
          "internalType": "uint256",
          "name": "newUniversalFee",
          "type": "uint256"
        }
      ],
      "name": "UpdatedUniversalFee",
      "type": "event"
    },
    {
      "anonymous": false,
      "inputs": [
        {
          "indexed": false,
          "internalType": "uint256",
          "name": "previousWithdrawFee",
          "type": "uint256"
        },
        {
          "indexed": false,
          "internalType": "uint256",
          "name": "newWithdrawFee",
          "type": "uint256"
        }
      ],
      "name": "UpdatedWithdrawFee",
      "type": "event"
    },
    {
      "anonymous": false,
      "inputs": [
        {
          "indexed": true,
          "internalType": "address",
          "name": "owner",
          "type": "address"
        },
        {
          "indexed": false,
          "internalType": "uint256",
          "name": "shares",
          "type": "uint256"
        },
        {
          "indexed": false,
          "internalType": "uint256",
          "name": "amount",
          "type": "uint256"
        }
      ],
      "name": "Withdraw",
      "type": "event"
    },
    {
      "inputs": [],
      "name": "DOMAIN_SEPARATOR",
      "outputs": [
        {
          "internalType": "bytes32",
          "name": "",
          "type": "bytes32"
        }
      ],
      "stateMutability": "view",
      "type": "function"
    },
    {
      "inputs": [],
      "name": "MAX_BPS",
      "outputs": [
        {
          "internalType": "uint256",
          "name": "",
          "type": "uint256"
        }
      ],
      "stateMutability": "view",
      "type": "function"
    },
    {
      "inputs": [],
      "name": "ONE_YEAR",
      "outputs": [
        {
          "internalType": "uint256",
          "name": "",
          "type": "uint256"
        }
      ],
      "stateMutability": "view",
      "type": "function"
    },
    {
      "inputs": [],
      "name": "VERSION",
      "outputs": [
        {
          "internalType": "string",
          "name": "",
          "type": "string"
        }
      ],
      "stateMutability": "view",
      "type": "function"
    },
    {
      "inputs": [],
      "name": "acceptGovernorship",
      "outputs": [],
      "stateMutability": "nonpayable",
      "type": "function"
    },
    {
      "inputs": [
        {
          "internalType": "address",
          "name": "_keeperAddress",
          "type": "address"
        }
      ],
      "name": "addKeeper",
      "outputs": [],
      "stateMutability": "nonpayable",
      "type": "function"
    },
    {
      "inputs": [
        {
          "internalType": "address",
          "name": "_maintainerAddress",
          "type": "address"
        }
      ],
      "name": "addMaintainer",
      "outputs": [],
      "stateMutability": "nonpayable",
      "type": "function"
    },
    {
      "inputs": [
        {
          "internalType": "address",
          "name": "owner",
          "type": "address"
        },
        {
          "internalType": "address",
          "name": "spender",
          "type": "address"
        }
      ],
      "name": "allowance",
      "outputs": [
        {
          "internalType": "uint256",
          "name": "",
          "type": "uint256"
        }
      ],
      "stateMutability": "view",
      "type": "function"
    },
    {
      "inputs": [
        {
          "internalType": "address",
          "name": "spender",
          "type": "address"
        },
        {
          "internalType": "uint256",
          "name": "amount",
          "type": "uint256"
        }
      ],
      "name": "approve",
      "outputs": [
        {
          "internalType": "bool",
          "name": "",
          "type": "bool"
        }
      ],
      "stateMutability": "nonpayable",
      "type": "function"
    },
    {
      "inputs": [
        {
          "internalType": "address",
          "name": "_strategy",
          "type": "address"
        }
      ],
      "name": "availableCreditLimit",
      "outputs": [
        {
          "internalType": "uint256",
          "name": "",
          "type": "uint256"
        }
      ],
      "stateMutability": "view",
      "type": "function"
    },
    {
      "inputs": [
        {
          "internalType": "address",
          "name": "account",
          "type": "address"
        }
      ],
      "name": "balanceOf",
      "outputs": [
        {
          "internalType": "uint256",
          "name": "",
          "type": "uint256"
        }
      ],
      "stateMutability": "view",
      "type": "function"
    },
    {
      "inputs": [
        {
          "internalType": "uint256",
          "name": "_amount",
          "type": "uint256"
        }
      ],
      "name": "calculateMintage",
      "outputs": [
        {
          "internalType": "uint256",
          "name": "_shares",
          "type": "uint256"
        }
      ],
      "stateMutability": "view",
      "type": "function"
    },
    {
      "inputs": [
        {
          "internalType": "uint256",
          "name": "_profit",
          "type": "uint256"
        }
      ],
      "name": "calculateUniversalFee",
      "outputs": [
        {
          "internalType": "uint256",
          "name": "_fee",
          "type": "uint256"
        }
      ],
      "stateMutability": "view",
      "type": "function"
    },
    {
      "inputs": [],
      "name": "decimals",
      "outputs": [
        {
          "internalType": "uint8",
          "name": "",
          "type": "uint8"
        }
      ],
      "stateMutability": "view",
      "type": "function"
    },
    {
      "inputs": [
        {
          "internalType": "uint256",
          "name": "_amount",
          "type": "uint256"
        }
      ],
      "name": "deposit",
      "outputs": [],
      "stateMutability": "nonpayable",
      "type": "function"
    },
    {
      "inputs": [
        {
          "internalType": "uint256",
          "name": "_amount",
          "type": "uint256"
        }
      ],
      "name": "depositAndClaim",
      "outputs": [],
      "stateMutability": "nonpayable",
      "type": "function"
    },
    {
      "inputs": [
        {
          "internalType": "uint256",
          "name": "_amount",
          "type": "uint256"
        },
        {
          "internalType": "uint256",
          "name": "_deadline",
          "type": "uint256"
        },
        {
          "internalType": "uint8",
          "name": "_v",
          "type": "uint8"
        },
        {
          "internalType": "bytes32",
          "name": "_r",
          "type": "bytes32"
        },
        {
          "internalType": "bytes32",
          "name": "_s",
          "type": "bytes32"
        }
      ],
      "name": "depositWithPermit",
      "outputs": [],
      "stateMutability": "nonpayable",
      "type": "function"
    },
    {
      "inputs": [
        {
          "internalType": "address",
          "name": "_strategy",
          "type": "address"
        }
      ],
      "name": "excessDebt",
      "outputs": [
        {
          "internalType": "uint256",
          "name": "",
          "type": "uint256"
        }
      ],
      "stateMutability": "view",
      "type": "function"
    },
    {
      "inputs": [],
      "name": "getStrategies",
      "outputs": [
        {
          "internalType": "address[]",
          "name": "",
          "type": "address[]"
        }
      ],
      "stateMutability": "view",
      "type": "function"
    },
    {
      "inputs": [],
      "name": "getWithdrawQueue",
      "outputs": [
        {
          "internalType": "address[]",
          "name": "",
          "type": "address[]"
        }
      ],
      "stateMutability": "view",
      "type": "function"
    },
    {
      "inputs": [],
      "name": "governor",
      "outputs": [
        {
          "internalType": "address",
          "name": "",
          "type": "address"
        }
      ],
      "stateMutability": "view",
      "type": "function"
    },
    {
      "inputs": [
        {
          "internalType": "string",
          "name": "_name",
          "type": "string"
        },
        {
          "internalType": "string",
          "name": "_symbol",
          "type": "string"
        },
        {
          "internalType": "address",
          "name": "_token",
          "type": "address"
        },
        {
          "internalType": "address",
          "name": "_poolAccountant",
          "type": "address"
        }
      ],
      "name": "initialize",
      "outputs": [],
      "stateMutability": "nonpayable",
      "type": "function"
    },
    {
      "inputs": [
        {
          "internalType": "address",
          "name": "_address",
          "type": "address"
        }
      ],
      "name": "isKeeper",
      "outputs": [
        {
          "internalType": "bool",
          "name": "",
          "type": "bool"
        }
      ],
      "stateMutability": "view",
      "type": "function"
    },
    {
      "inputs": [
        {
          "internalType": "address",
          "name": "_address",
          "type": "address"
        }
      ],
      "name": "isMaintainer",
      "outputs": [
        {
          "internalType": "bool",
          "name": "",
          "type": "bool"
        }
      ],
      "stateMutability": "view",
      "type": "function"
    },
    {
      "inputs": [],
      "name": "keepers",
      "outputs": [
        {
          "internalType": "address[]",
          "name": "",
          "type": "address[]"
        }
      ],
      "stateMutability": "view",
      "type": "function"
    },
    {
      "inputs": [],
      "name": "maintainers",
      "outputs": [
        {
          "internalType": "address[]",
          "name": "",
          "type": "address[]"
        }
      ],
      "stateMutability": "view",
      "type": "function"
    },
    {
      "inputs": [],
      "name": "maxProfitAsFee",
      "outputs": [
        {
          "internalType": "uint256",
          "name": "",
          "type": "uint256"
        }
      ],
      "stateMutability": "view",
      "type": "function"
    },
    {
      "inputs": [
        {
          "internalType": "address",
          "name": "_old",
          "type": "address"
        },
        {
          "internalType": "address",
          "name": "_new",
          "type": "address"
        }
      ],
      "name": "migrateStrategy",
      "outputs": [],
      "stateMutability": "nonpayable",
      "type": "function"
    },
    {
      "inputs": [],
      "name": "minDepositLimit",
      "outputs": [
        {
          "internalType": "uint256",
          "name": "",
          "type": "uint256"
        }
      ],
      "stateMutability": "view",
      "type": "function"
    },
    {
      "inputs": [
        {
          "internalType": "address[]",
          "name": "_recipients",
          "type": "address[]"
        },
        {
          "internalType": "uint256[]",
          "name": "_amounts",
          "type": "uint256[]"
        }
      ],
      "name": "multiTransfer",
      "outputs": [
        {
          "internalType": "bool",
          "name": "",
          "type": "bool"
        }
      ],
      "stateMutability": "nonpayable",
      "type": "function"
    },
    {
      "inputs": [],
      "name": "name",
      "outputs": [
        {
          "internalType": "string",
          "name": "",
          "type": "string"
        }
      ],
      "stateMutability": "view",
      "type": "function"
    },
    {
      "inputs": [
        {
          "internalType": "address",
          "name": "",
          "type": "address"
        }
      ],
      "name": "nonces",
      "outputs": [
        {
          "internalType": "uint256",
          "name": "",
          "type": "uint256"
        }
      ],
      "stateMutability": "view",
      "type": "function"
    },
    {
      "inputs": [],
      "name": "open",
      "outputs": [],
      "stateMutability": "nonpayable",
      "type": "function"
    },
    {
      "inputs": [],
      "name": "pause",
      "outputs": [],
      "stateMutability": "nonpayable",
      "type": "function"
    },
    {
      "inputs": [],
      "name": "paused",
      "outputs": [
        {
          "internalType": "bool",
          "name": "",
          "type": "bool"
        }
      ],
      "stateMutability": "view",
      "type": "function"
    },
    {
      "inputs": [
        {
          "internalType": "address",
          "name": "owner",
          "type": "address"
        },
        {
          "internalType": "address",
          "name": "spender",
          "type": "address"
        },
        {
          "internalType": "uint256",
          "name": "value",
          "type": "uint256"
        },
        {
          "internalType": "uint256",
          "name": "deadline",
          "type": "uint256"
        },
        {
          "internalType": "uint8",
          "name": "v",
          "type": "uint8"
        },
        {
          "internalType": "bytes32",
          "name": "r",
          "type": "bytes32"
        },
        {
          "internalType": "bytes32",
          "name": "s",
          "type": "bytes32"
        }
      ],
      "name": "permit",
      "outputs": [],
      "stateMutability": "nonpayable",
      "type": "function"
    },
    {
      "inputs": [],
      "name": "poolAccountant",
      "outputs": [
        {
          "internalType": "address",
          "name": "",
          "type": "address"
        }
      ],
      "stateMutability": "view",
      "type": "function"
    },
    {
      "inputs": [],
      "name": "poolRewards",
      "outputs": [
        {
          "internalType": "address",
          "name": "",
          "type": "address"
        }
      ],
      "stateMutability": "view",
      "type": "function"
    },
    {
      "inputs": [],
      "name": "pricePerShare",
      "outputs": [
        {
          "internalType": "uint256",
          "name": "",
          "type": "uint256"
        }
      ],
      "stateMutability": "view",
      "type": "function"
    },
    {
      "inputs": [
        {
          "internalType": "address",
          "name": "_keeperAddress",
          "type": "address"
        }
      ],
      "name": "removeKeeper",
      "outputs": [],
      "stateMutability": "nonpayable",
      "type": "function"
    },
    {
      "inputs": [
        {
          "internalType": "address",
          "name": "_maintainerAddress",
          "type": "address"
        }
      ],
      "name": "removeMaintainer",
      "outputs": [],
      "stateMutability": "nonpayable",
      "type": "function"
    },
    {
      "inputs": [
        {
          "internalType": "uint256",
          "name": "_profit",
          "type": "uint256"
        },
        {
          "internalType": "uint256",
          "name": "_loss",
          "type": "uint256"
        },
        {
          "internalType": "uint256",
          "name": "_payback",
          "type": "uint256"
        }
      ],
      "name": "reportEarning",
      "outputs": [],
      "stateMutability": "nonpayable",
      "type": "function"
    },
    {
      "inputs": [
        {
          "internalType": "uint256",
          "name": "_loss",
          "type": "uint256"
        }
      ],
      "name": "reportLoss",
      "outputs": [],
      "stateMutability": "nonpayable",
      "type": "function"
    },
    {
      "inputs": [],
      "name": "setup",
      "outputs": [],
      "stateMutability": "nonpayable",
      "type": "function"
    },
    {
      "inputs": [],
      "name": "shutdown",
      "outputs": [],
      "stateMutability": "nonpayable",
      "type": "function"
    },
    {
      "inputs": [],
      "name": "stopEverything",
      "outputs": [
        {
          "internalType": "bool",
          "name": "",
          "type": "bool"
        }
      ],
      "stateMutability": "view",
      "type": "function"
    },
    {
      "inputs": [
        {
          "internalType": "address",
          "name": "_strategy",
          "type": "address"
        }
      ],
      "name": "strategy",
      "outputs": [
        {
          "internalType": "bool",
          "name": "_active",
          "type": "bool"
        },
        {
          "internalType": "uint256",
          "name": "_interestFee",
          "type": "uint256"
        },
        {
          "internalType": "uint256",
          "name": "_debtRate",
          "type": "uint256"
        },
        {
          "internalType": "uint256",
          "name": "_lastRebalance",
          "type": "uint256"
        },
        {
          "internalType": "uint256",
          "name": "_totalDebt",
          "type": "uint256"
        },
        {
          "internalType": "uint256",
          "name": "_totalLoss",
          "type": "uint256"
        },
        {
          "internalType": "uint256",
          "name": "_totalProfit",
          "type": "uint256"
        },
        {
          "internalType": "uint256",
          "name": "_debtRatio",
          "type": "uint256"
        },
        {
          "internalType": "uint256",
          "name": "_externalDepositFee",
          "type": "uint256"
        }
      ],
      "stateMutability": "view",
      "type": "function"
    },
    {
      "inputs": [
        {
          "internalType": "address",
          "name": "_fromToken",
          "type": "address"
        }
      ],
      "name": "sweepERC20",
      "outputs": [],
      "stateMutability": "nonpayable",
      "type": "function"
    },
    {
      "inputs": [],
      "name": "symbol",
      "outputs": [
        {
          "internalType": "string",
          "name": "",
          "type": "string"
        }
      ],
      "stateMutability": "view",
      "type": "function"
    },
    {
      "inputs": [],
      "name": "token",
      "outputs": [
        {
          "internalType": "contract IERC20",
          "name": "",
          "type": "address"
        }
      ],
      "stateMutability": "view",
      "type": "function"
    },
    {
      "inputs": [],
      "name": "tokensHere",
      "outputs": [
        {
          "internalType": "uint256",
          "name": "",
          "type": "uint256"
        }
      ],
      "stateMutability": "view",
      "type": "function"
    },
    {
      "inputs": [],
      "name": "totalDebt",
      "outputs": [
        {
          "internalType": "uint256",
          "name": "",
          "type": "uint256"
        }
      ],
      "stateMutability": "view",
      "type": "function"
    },
    {
      "inputs": [
        {
          "internalType": "address",
          "name": "_strategy",
          "type": "address"
        }
      ],
      "name": "totalDebtOf",
      "outputs": [
        {
          "internalType": "uint256",
          "name": "",
          "type": "uint256"
        }
      ],
      "stateMutability": "view",
      "type": "function"
    },
    {
      "inputs": [],
      "name": "totalDebtRatio",
      "outputs": [
        {
          "internalType": "uint256",
          "name": "",
          "type": "uint256"
        }
      ],
      "stateMutability": "view",
      "type": "function"
    },
    {
      "inputs": [],
      "name": "totalSupply",
      "outputs": [
        {
          "internalType": "uint256",
          "name": "",
          "type": "uint256"
        }
      ],
      "stateMutability": "view",
      "type": "function"
    },
    {
      "inputs": [],
      "name": "totalValue",
      "outputs": [
        {
          "internalType": "uint256",
          "name": "",
          "type": "uint256"
        }
      ],
      "stateMutability": "view",
      "type": "function"
    },
    {
      "inputs": [
        {
          "internalType": "address",
          "name": "recipient",
          "type": "address"
        },
        {
          "internalType": "uint256",
          "name": "amount",
          "type": "uint256"
        }
      ],
      "name": "transfer",
      "outputs": [
        {
          "internalType": "bool",
          "name": "",
          "type": "bool"
        }
      ],
      "stateMutability": "nonpayable",
      "type": "function"
    },
    {
      "inputs": [
        {
          "internalType": "address",
          "name": "sender",
          "type": "address"
        },
        {
          "internalType": "address",
          "name": "recipient",
          "type": "address"
        },
        {
          "internalType": "uint256",
          "name": "amount",
          "type": "uint256"
        }
      ],
      "name": "transferFrom",
      "outputs": [
        {
          "internalType": "bool",
          "name": "",
          "type": "bool"
        }
      ],
      "stateMutability": "nonpayable",
      "type": "function"
    },
    {
      "inputs": [
        {
          "internalType": "address",
          "name": "_proposedGovernor",
          "type": "address"
        }
      ],
      "name": "transferGovernorship",
      "outputs": [],
      "stateMutability": "nonpayable",
      "type": "function"
    },
    {
      "inputs": [],
      "name": "universalFee",
      "outputs": [
        {
          "internalType": "uint256",
          "name": "",
          "type": "uint256"
        }
      ],
      "stateMutability": "view",
      "type": "function"
    },
    {
      "inputs": [],
      "name": "unpause",
      "outputs": [],
      "stateMutability": "nonpayable",
      "type": "function"
    },
    {
      "inputs": [
        {
          "internalType": "uint256",
          "name": "_newMaxProfitAsFee",
          "type": "uint256"
        }
      ],
      "name": "updateMaximumProfitAsFee",
      "outputs": [],
      "stateMutability": "nonpayable",
      "type": "function"
    },
    {
      "inputs": [
        {
          "internalType": "uint256",
          "name": "_newLimit",
          "type": "uint256"
        }
      ],
      "name": "updateMinimumDepositLimit",
      "outputs": [],
      "stateMutability": "nonpayable",
      "type": "function"
    },
    {
      "inputs": [
        {
          "internalType": "address",
          "name": "_newPoolRewards",
          "type": "address"
        }
      ],
      "name": "updatePoolRewards",
      "outputs": [],
      "stateMutability": "nonpayable",
      "type": "function"
    },
    {
      "inputs": [
        {
          "internalType": "uint256",
          "name": "_newUniversalFee",
          "type": "uint256"
        }
      ],
      "name": "updateUniversalFee",
      "outputs": [],
      "stateMutability": "nonpayable",
      "type": "function"
    },
    {
      "inputs": [
        {
          "internalType": "uint256",
          "name": "_shares",
          "type": "uint256"
        }
      ],
      "name": "whitelistedWithdraw",
      "outputs": [],
      "stateMutability": "nonpayable",
      "type": "function"
    },
    {
      "inputs": [
        {
          "internalType": "uint256",
          "name": "_shares",
          "type": "uint256"
        }
      ],
      "name": "withdraw",
      "outputs": [],
      "stateMutability": "nonpayable",
      "type": "function"
    },
    {
      "inputs": [
        {
          "internalType": "uint256",
          "name": "_shares",
          "type": "uint256"
        }
      ],
      "name": "withdrawAndClaim",
      "outputs": [],
      "stateMutability": "nonpayable",
      "type": "function"
    }
  ],
  "transactionHash": "0x601f22bb3b0d6490081d22f7ff751c0b60c2d1dcdfdfb9d56be796322afd571e",
  "args": [
    "Vesper pool",
    "vPool",
    "0x0000000000000000000000000000000000000000"
  ],
  "numDeployments": 1,
  "solcInputHash": "05dbea9a5e018ae36a295738639ef84b",
  "bytecode": "0x608060405260c8601d55611388601e556001601f553480156200002157600080fd5b506040516200499c3803806200499c83398101604081905262000044916200027b565b8251839083906200005d90600390602085019062000108565b5080516200007390600490602084019062000108565b5050506000620000886200010460201b60201c565b600a80546001600160a01b0319166001600160a01b038316908117909155604051919250906000907fd4459d5b8b913cab0244230fd9b1c08b6ceace7fe9230e60d0f74cbffdf849d0908290a3506001600c55600d80546001600160a01b0319166001600160a01b039290921691909117905550620003459050565b3390565b828054620001169062000308565b90600052602060002090601f0160209004810192826200013a576000855562000185565b82601f106200015557805160ff191683800117855562000185565b8280016001018555821562000185579182015b828111156200018557825182559160200191906001019062000168565b506200019392915062000197565b5090565b5b8082111562000193576000815560010162000198565b634e487b7160e01b600052604160045260246000fd5b600082601f830112620001d657600080fd5b81516001600160401b0380821115620001f357620001f3620001ae565b604051601f8301601f19908116603f011681019082821181831017156200021e576200021e620001ae565b816040528381526020925086838588010111156200023b57600080fd5b600091505b838210156200025f578582018301518183018401529082019062000240565b83821115620002715760008385830101525b9695505050505050565b6000806000606084860312156200029157600080fd5b83516001600160401b0380821115620002a957600080fd5b620002b787838801620001c4565b94506020860151915080821115620002ce57600080fd5b50620002dd86828701620001c4565b604086015190935090506001600160a01b0381168114620002fd57600080fd5b809150509250925092565b600181811c908216806200031d57607f821691505b602082108114156200033f57634e487b7160e01b600052602260045260246000fd5b50919050565b61464780620003556000396000f3fe608060405234801561001057600080fd5b506004361061037c5760003560e01c80638f15b414116101d5578063c12d636b11610105578063e00af4a7116100a8578063e00af4a7146107f4578063f3b27bc314610807578063fc0c546a1461080f578063fc0e74d114610822578063fc7b9c181461082a578063fcfff16f14610832578063fd967f471461083a578063ff643a7c14610843578063ffa1ad741461085657600080fd5b8063c12d636b14610741578063d4c3eea014610754578063d505accf1461075c578063d53ddc261461076f578063d8baf7cf14610782578063dd57366a14610795578063dd62ed3e146107a8578063ddd6d260146107e157600080fd5b8063a9059cbb11610178578063a9059cbb146106b7578063a941a90e146106ca578063b49a60bb146106dd578063b64321ec146106e5578063b6aa515b146106f8578063b6b55f251461070b578063b8cb343d1461071e578063ba0bba4014610726578063c01e0d401461072e57600080fd5b80638f15b4141461064a578063940c40821461065d578063951dc22c1461067057806395d89b411461067857806399530b06146106805780639b6da8df146106885780639f2b28331461069b5780639fd5be18146106ae57600080fd5b80633e772925116102b05780635f895e54116102535780635f895e54146105915780636b453c1f1461059a5780636ba42aaa146105ad5780636cb56d19146105c057806370a08231146105d35780637ecebe00146105fc5780638456cb591461061c5780638bc6beb2146106245780638d3d0a261461063757600080fd5b80633e772925146105175780633f4ba83a146105205780634032b72b14610528578063448a10471461053b5780634938649a1461054e57806349eeb860146105625780634a970be71461056a5780635c975abb1461057d57600080fd5b806318160ddd1161032357806318160ddd1461044b5780631e89d54514610453578063228bfd9f1461046657806323b872dd146104bf5780632df9eab9146104d25780632e1a7d4d146104da578063313ce567146104ed57806332dd0f49146104fc5780633644e5151461050f57600080fd5b806305bed0461461038157806306fdde0314610396578063095ea7b3146103b45780630c340a24146103d75780630da3fe20146103f7578063111830521461040a57806314ae9f2e1461041f57806316d3bfbb14610432575b600080fd5b61039461038f366004613c47565b61087a565b005b61039e610afb565b6040516103ab9190613c9f565b60405180910390f35b6103c76103c2366004613ce7565b610b8d565b60405190151581526020016103ab565b600a546103ea906001600160a01b031681565b6040516103ab9190613d13565b610394610405366004613d27565b610ba4565b610412610c90565b6040516103ab9190613d40565b61039461042d366004613d8d565b610d16565b61043d6301e1338081565b6040519081526020016103ab565b60025461043d565b6103c7610461366004613df6565b610d9b565b610479610474366004613d8d565b610e81565b604080519915158a5260208a0198909852968801959095526060870193909352608086019190915260a085015260c084015260e0830152610100820152610120016103ab565b6103c76104cd366004613e62565b610f32565b61043d610fe5565b6103946104e8366004613d27565b611062565b604051601281526020016103ab565b61043d61050a366004613d27565b6110d3565b61043d6110df565b61043d601e5481565b6103946110e9565b610394610536366004613d8d565b61112c565b610394610549366004613d27565b6111a9565b600b546103c790600160a81b900460ff1681565b610412611204565b610394610578366004613eb2565b611210565b600b546103c790600160a01b900460ff1681565b61043d601d5481565b6103946105a8366004613d8d565b611317565b6103c76105bb366004613d8d565b61135b565b6103946105ce366004613efb565b611368565b61043d6105e1366004613d8d565b6001600160a01b031660009081526020819052604090205490565b61043d61060a366004613d8d565b60096020526000908152604090205481565b6103946115a7565b600f546103ea906001600160a01b031681565b610394610645366004613d27565b6115e8565b610394610658366004613feb565b611690565b61039461066b366004613d8d565b61186e565b610412611935565b61039e611941565b61043d611950565b610394610696366004613d27565b611a29565b61043d6106a9366004613d8d565b611ad4565b61043d601f5481565b6103c76106c5366004613ce7565b611b55565b6103946106d8366004613d27565b611b62565b610412611bbd565b61043d6106f3366004613d8d565b611c02565b610394610706366004613d8d565b611c33565b610394610719366004613d27565b611cd1565b61043d611d35565b610394611d7e565b61043d61073c366004613d27565b611e18565b600e546103ea906001600160a01b031681565b61043d611f0c565b61039461076a366004614074565b611fa6565b61043d61077d366004613d8d565b612166565b610394610790366004613d8d565b612197565b6103c76107a3366004613d8d565b6121db565b61043d6107b6366004613efb565b6001600160a01b03918216600090815260016020908152604080832093909416825291909152205490565b6103946107ef366004613d27565b6121e8565b610394610802366004613d8d565b61224f565b61039461236a565b600d546103ea906001600160a01b031681565b610394612426565b61043d612467565b6103946124ac565b61043d61271081565b610394610851366004613d27565b6124ed565b61039e60405180604001604052806005815260200164352e302e3160d81b81525081565b3383156109ef57600e5460405163228bfd9f60e01b815260009182916001600160a01b039091169063228bfd9f906108b6908690600401613d13565b6101206040518083038186803b1580156108cf57600080fd5b505afa1580156108e3573d6000803e3d6000fd5b505050506040513d601f19601f8201168201806040525081019061090791906140fa565b5050505094509450505050600061091f838389612548565b905080156109eb576109a9846001600160a01b031663c415b95c6040518163ffffffff1660e01b815260040160206040518083038186803b15801561096357600080fd5b505afa158015610977573d6000803e3d6000fd5b505050506040513d601f19601f8201168201806040525081019061099b919061416a565b6109a4836125bb565b612620565b60408051838152602081018990529081018290527f692ef79cc704efab4328e6c217b5fb3b1045d0a0314e3e8137029bcb2d59ce4a9060600160405180910390a15b5050505b600e5460405163a066654b60e01b81526001600160a01b038381166004830152602482018790526044820186905260648201859052600092839291169063a066654b906084016040805180830381600087803b158015610a4e57600080fd5b505af1158015610a62573d6000803e3d6000fd5b505050506040513d601f19601f82011682018060405250810190610a869190614187565b90925090506000610a9783886141c1565b905081811015610ac757610ac284610aaf83856141d9565b600d546001600160a01b031691906126ed565b610af2565b81811115610af257610af28430610ade85856141d9565b600d546001600160a01b0316929190612748565b50505050505050565b606060038054610b0a906141f0565b80601f0160208091040260200160405190810160405280929190818152602001828054610b36906141f0565b8015610b835780601f10610b5857610100808354040283529160200191610b83565b820191906000526020600020905b815481529060010190602001808311610b6657829003601f168201915b5050505050905090565b6000610b9a338484612780565b5060015b92915050565b600a546001600160a01b03163314610bd75760405162461bcd60e51b8152600401610bce9061422b565b60405180910390fd5b604080518082019091526002815261199960f11b602082015281610c0e5760405162461bcd60e51b8152600401610bce9190613c9f565b50601f5481141560405180604001604052806002815260200161333160f01b81525090610c4e5760405162461bcd60e51b8152600401610bce9190613c9f565b50601f5460408051918252602082018390527f25c9f41f0fb7a055d44b070262516fbd0111daea3b55d40fae1983827dc99292910160405180910390a1601f55565b600e546040805163088c182960e11b815290516060926001600160a01b0316916311183052916004808301926000929190829003018186803b158015610cd557600080fd5b505afa158015610ce9573d6000803e3d6000fd5b505050506040513d6000823e601f3d908101601f19168201604052610d119190810190614251565b905090565b600a546001600160a01b0316331480610d375750610d37335b6019906128a5565b610d535760405162461bcd60e51b8152600401610bce90614303565b610d5e6019826128c7565b604051806040016040528060028152602001610c4d60f21b81525090610d975760405162461bcd60e51b8152600401610bce9190613c9f565b5050565b6040805180820190915260018152600d60fa1b6020820152600090848314610dd65760405162461bcd60e51b8152600401610bce9190613c9f565b5060005b84811015610e7557610e2a868683818110610df757610df7614329565b9050602002016020810190610e0c9190613d8d565b858584818110610e1e57610e1e614329565b90506020020135611b55565b604051806040016040528060018152602001601b60f91b81525090610e625760405162461bcd60e51b8152600401610bce9190613c9f565b5080610e6d8161433f565b915050610dda565b50600195945050505050565b600e5460405163228bfd9f60e01b8152600091829182918291829182918291829182916001600160a01b03169063228bfd9f90610ec2908d90600401613d13565b6101206040518083038186803b158015610edb57600080fd5b505afa158015610eef573d6000803e3d6000fd5b505050506040513d601f19601f82011682018060405250810190610f1391906140fa565b9850985098509850985098509850985098509193959799909294969850565b6000610f3f8484846128dc565b6001600160a01b038416600090815260016020908152604080832033845290915290205482811015610fc45760405162461bcd60e51b815260206004820152602860248201527f45524332303a207472616e7366657220616d6f756e74206578636565647320616044820152676c6c6f77616e636560c01b6064820152608401610bce565b610fd88533610fd386856141d9565b612780565b60019150505b9392505050565b600e5460408051632df9eab960e01b815290516000926001600160a01b031691632df9eab9916004808301926020929190829003018186803b15801561102a57600080fd5b505afa15801561103e573d6000803e3d6000fd5b505050506040513d601f19601f82011682018060405250810190610d11919061435a565b6002600c5414156110855760405162461bcd60e51b8152600401610bce90614373565b6002600c55600b54600160a81b900460ff16156110b45760405162461bcd60e51b8152600401610bce906143aa565b6110c2336129bd565b6129bd565b6110cb816129fe565b506001600c55565b6000610b9e3383612aba565b6000610d11612b5f565b600a546001600160a01b0316331480611106575061110633610d2f565b6111225760405162461bcd60e51b8152600401610bce90614303565b61112a612bda565b565b600a546001600160a01b0316331480611149575061114933610d2f565b6111655760405162461bcd60e51b8152600401610bce90614303565b611170601982612c91565b60405180604001604052806002815260200161313360f01b81525090610d975760405162461bcd60e51b8152600401610bce9190613c9f565b6002600c5414156111cc5760405162461bcd60e51b8152600401610bce90614373565b6002600c55600b54600160a81b900460ff16156111fb5760405162461bcd60e51b8152600401610bce906143aa565b6110cb81612ca6565b6060610d11601b612cb8565b6002600c5414156112335760405162461bcd60e51b8152600401610bce90614373565b6002600c55600b54600160a01b900460ff16156112625760405162461bcd60e51b8152600401610bce906143cc565b600d546001600160a01b031663d505accf336040516001600160e01b031960e084901b1681526001600160a01b039091166004820152306024820152604481018890526064810187905260ff8616608482015260a4810185905260c4810184905260e401600060405180830381600087803b1580156112e057600080fd5b505af11580156112f4573d6000803e3d6000fd5b505050506113026110bd3390565b61130b85612cc5565b50506001600c55505050565b600a546001600160a01b0316331480611334575061133433610d2f565b6113505760405162461bcd60e51b8152600401610bce90614303565b611170601b82612c91565b6000610b9e6019836128a5565b600a546001600160a01b031633146113925760405162461bcd60e51b8152600401610bce9061422b565b306001600160a01b0316816001600160a01b03166316f0115b6040518163ffffffff1660e01b815260040160206040518083038186803b1580156113d557600080fd5b505afa1580156113e9573d6000803e3d6000fd5b505050506040513d601f19601f8201168201806040525081019061140d919061416a565b6001600160a01b03161480156114a45750306001600160a01b0316826001600160a01b03166316f0115b6040518163ffffffff1660e01b815260040160206040518083038186803b15801561146157600080fd5b505afa158015611475573d6000803e3d6000fd5b505050506040513d601f19601f82011682018060405250810190611499919061416a565b6001600160a01b0316145b60405180604001604052806002815260200161313760f01b815250906114dd5760405162461bcd60e51b8152600401610bce9190613c9f565b50600e54604051636cb56d1960e01b81526001600160a01b038481166004830152838116602483015290911690636cb56d1990604401600060405180830381600087803b15801561152d57600080fd5b505af1158015611541573d6000803e3d6000fd5b505060405163ce5494bb60e01b81526001600160a01b038516925063ce5494bb9150611571908490600401613d13565b600060405180830381600087803b15801561158b57600080fd5b505af115801561159f573d6000803e3d6000fd5b505050505050565b600a546001600160a01b03163314806115c457506115c433610d2f565b6115e05760405162461bcd60e51b8152600401610bce90614303565b61112a612d33565b600a546001600160a01b031633146116125760405162461bcd60e51b8152600401610bce9061422b565b604080518082019091526002815261313160f01b602082015261271082111561164e5760405162461bcd60e51b8152600401610bce9190613c9f565b50601d5460408051918252602082018390527f905d672396c48f9d1e13c57aec0819f00d39364ab4bf40a46a687aa607b67d81910160405180910390a1601d55565b600554610100900460ff16806116a9575060055460ff16155b6116c55760405162461bcd60e51b8152600401610bce906143ec565b600554610100900460ff161580156116e7576005805461ffff19166101011790555b604080518082019091526002815261031360f41b60208201526001600160a01b0384166117275760405162461bcd60e51b8152600401610bce9190613c9f565b50604080518082019091526002815261031360f41b60208201526001600160a01b0383166117685760405162461bcd60e51b8152600401610bce9190613c9f565b506117738585612d98565b61177c85612dbf565b611784612e3e565b600d80546001600160a01b0319166001600160a01b0385161790556117ab33601990612c91565b60405180604001604052806002815260200161313360f01b815250906117e45760405162461bcd60e51b8152600401610bce9190613c9f565b506117f0601b33612c91565b60405180604001604052806002815260200161313360f01b815250906118295760405162461bcd60e51b8152600401610bce9190613c9f565b50600e80546001600160a01b0319166001600160a01b03841617905560c8601d55611388601e556001601f558015611867576005805461ff00191690555b5050505050565b600a546001600160a01b031633146118985760405162461bcd60e51b8152600401610bce9061422b565b604080518082019091526002815261031360f41b60208201526001600160a01b0382166118d85760405162461bcd60e51b8152600401610bce9190613c9f565b50600f546040516001600160a01b038084169216907fe239974dad08ac696e723caf1886bd0b5afc0870088f9a1266082757f824927690600090a3600f80546001600160a01b0319166001600160a01b0392909216919091179055565b6060610d116019612cb8565b606060048054610b0a906141f0565b600061195b60025490565b158061196c575061196a611f0c565b155b15611a0257600d60009054906101000a90046001600160a01b03166001600160a01b031663313ce5676040518163ffffffff1660e01b815260040160206040518083038186803b1580156119bf57600080fd5b505afa1580156119d3573d6000803e3d6000fd5b505050506040513d601f19601f820116820180604052508101906119f7919061443a565b610d1190600a61453b565b600254611a0d611f0c565b611a1f90670de0b6b3a764000061454a565b610d119190614569565b600a546001600160a01b03163314611a535760405162461bcd60e51b8152600401610bce9061422b565b601e5481141560405180604001604052806002815260200161333160f01b81525090611a925760405162461bcd60e51b8152600401610bce9190613c9f565b50601e5460408051918252602082018390527fafe4d3ceb3295a8d4ef49288a92d32d94e39396e823d414b81caff61b9fc3990910160405180910390a1601e55565b600e54604051639f2b283360e01b81526000916001600160a01b031690639f2b283390611b05908590600401613d13565b60206040518083038186803b158015611b1d57600080fd5b505afa158015611b31573d6000803e3d6000fd5b505050506040513d601f19601f82011682018060405250810190610b9e919061435a565b6000610b9a3384846128dc565b6002600c541415611b855760405162461bcd60e51b8152600401610bce90614373565b6002600c55600b54600160a01b900460ff1615611bb45760405162461bcd60e51b8152600401610bce906143cc565b6110cb81612eec565b600e546040805163b49a60bb60e01b815290516060926001600160a01b03169163b49a60bb916004808301926000929190829003018186803b158015610cd557600080fd5b600e54604051632d90c87b60e21b81526000916001600160a01b03169063b64321ec90611b05908590600401613d13565b600a546001600160a01b03163314611c5d5760405162461bcd60e51b8152600401610bce9061422b565b6001600160a01b038116611caf5760405162461bcd60e51b815260206004820152601960248201527870726f706f7365642d676f7665726e6f722d69732d7a65726f60381b6044820152606401610bce565b600b80546001600160a01b0319166001600160a01b0392909216919091179055565b6002600c541415611cf45760405162461bcd60e51b8152600401610bce90614373565b6002600c55600b54600160a01b900460ff1615611d235760405162461bcd60e51b8152600401610bce906143cc565b611d2c336129bd565b6110cb81612cc5565b600d546040516370a0823160e01b81526000916001600160a01b0316906370a0823190611d66903090600401613d13565b60206040518083038186803b15801561102a57600080fd5b600a546001600160a01b03163314611da85760405162461bcd60e51b8152600401610bce9061422b565b60c8601d55611388601e556001601f55600e54604080516302e82ee960e61b815290516001600160a01b039092169163ba0bba409160048082019260009290919082900301818387803b158015611dfe57600080fd5b505af1158015611e12573d6000803e3d6000fd5b50505050565b6000601f54821015604051806040016040528060018152602001603160f81b81525090611e585760405162461bcd60e51b8152600401610bce9190613c9f565b506000612710600e60009054906101000a90046001600160a01b03166001600160a01b031663346162d56040518163ffffffff1660e01b815260040160206040518083038186803b158015611eac57600080fd5b505afa158015611ec0573d6000803e3d6000fd5b505050506040513d601f19601f82011682018060405250810190611ee4919061435a565b611eee908561454a565b611ef89190614569565b9050610fde611f0782856141d9565b6125bb565b6000611f16611d35565b600e60009054906101000a90046001600160a01b03166001600160a01b031663fc7b9c186040518163ffffffff1660e01b815260040160206040518083038186803b158015611f6457600080fd5b505afa158015611f78573d6000803e3d6000fd5b505050506040513d601f19601f82011682018060405250810190611f9c919061435a565b610d1191906141c1565b83421115611ff65760405162461bcd60e51b815260206004820152601d60248201527f45524332305065726d69743a206578706972656420646561646c696e650000006044820152606401610bce565b6001600160a01b0387811660008181526009602090815260408083205481517f6e71edae12b1b97f4d1f60370fef10105fa2faae0126114a169c64845d6126c98185015280830195909552948b166060850152608084018a905260a0840185905260c08085018a90528151808603909101815260e09094019052825192019190912090612081612b5f565b60405161190160f01b602082015260228101919091526042810183905260620160405160208183030381529060405280519060200120905060006120c782888888612efe565b90508a6001600160a01b0316816001600160a01b03161461212a5760405162461bcd60e51b815260206004820152601e60248201527f45524332305065726d69743a20696e76616c6964207369676e617475726500006044820152606401610bce565b6121358460016141c1565b6001600160a01b038c166000908152600960205260409020556121598b8b8b612780565b5050505050505050505050565b600e54604051636a9eee1360e11b81526000916001600160a01b03169063d53ddc2690611b05908590600401613d13565b600a546001600160a01b03163314806121b457506121b433610d2f565b6121d05760405162461bcd60e51b8152600401610bce90614303565b610d5e601b826128c7565b6000610b9e601b836128a5565b801561224c57600e546001600160a01b0316637f13086e33836040518363ffffffff1660e01b815260040161221e92919061458b565b600060405180830381600087803b15801561223857600080fd5b505af1158015611867573d6000803e3d6000fd5b50565b600a546001600160a01b031633148061226c575061226c33610d2f565b6122885760405162461bcd60e51b8152600401610bce90614303565b600d546040805180820190915260018152600760fb1b6020820152906001600160a01b03838116911614156122d05760405162461bcd60e51b8152600401610bce9190613c9f565b50600a546040516370a0823160e01b815261224c916001600160a01b0390811691908416906370a0823190612309903090600401613d13565b60206040518083038186803b15801561232157600080fd5b505afa158015612335573d6000803e3d6000fd5b505050506040513d601f19601f82011682018060405250810190612359919061435a565b6001600160a01b03841691906126ed565b600b546001600160a01b031633146123c05760405162461bcd60e51b81526020600482015260196024820152783737ba16ba343296b83937b837b9b2b216b3b7bb32b93737b960391b6044820152606401610bce565b600b54600a546040516001600160a01b0392831692909116907fd4459d5b8b913cab0244230fd9b1c08b6ceace7fe9230e60d0f74cbffdf849d090600090a3600b8054600a80546001600160a01b03199081166001600160a01b03841617909155169055565b600a546001600160a01b0316331480612443575061244333610d2f565b61245f5760405162461bcd60e51b8152600401610bce90614303565b61112a61308f565b600e5460408051631f8f738360e31b815290516000926001600160a01b03169163fc7b9c18916004808301926020929190829003018186803b15801561102a57600080fd5b600a546001600160a01b03163314806124c957506124c933610d2f565b6124e55760405162461bcd60e51b8152600401610bce90614303565b61112a6130f5565b6002600c5414156125105760405162461bcd60e51b8152600401610bce90614373565b6002600c55600b54600160a81b900460ff161561253f5760405162461bcd60e51b8152600401610bce906143aa565b6110c233613171565b600061255a6301e1338061271061454a565b8361256586426141d9565b601d54612572919061454a565b61257c919061454a565b6125869190614569565b90506000612710601e548461259b919061454a565b6125a59190614569565b9050808211156125b3578091505b509392505050565b6000806125c6611950565b6125d884670de0b6b3a764000061454a565b6125e29190614569565b9050670de0b6b3a76400006125f5611950565b6125ff908361454a565b6126099190614569565b83116126155780610fde565b610fde8160016141c1565b6001600160a01b0382166126765760405162461bcd60e51b815260206004820152601f60248201527f45524332303a206d696e7420746f20746865207a65726f2061646472657373006044820152606401610bce565b806002600082825461268891906141c1565b90915550506001600160a01b038216600090815260208190526040812080548392906126b59084906141c1565b90915550506040518181526001600160a01b038316906000906000805160206145f28339815191529060200160405180910390a35050565b6127438363a9059cbb60e01b848460405160240161270c92919061458b565b60408051601f198184030181529190526020810180516001600160e01b03166001600160e01b0319909316929092179091526131b2565b505050565b6040516001600160a01b0380851660248301528316604482015260648101829052611e129085906323b872dd60e01b9060840161270c565b6001600160a01b0383166127e25760405162461bcd60e51b8152602060048201526024808201527f45524332303a20617070726f76652066726f6d20746865207a65726f206164646044820152637265737360e01b6064820152608401610bce565b6001600160a01b0382166128435760405162461bcd60e51b815260206004820152602260248201527f45524332303a20617070726f766520746f20746865207a65726f206164647265604482015261737360f01b6064820152608401610bce565b6001600160a01b0383811660008181526001602090815260408083209487168084529482529182902085905590518481527f8c5be1e5ebec7d5bd14f71427d1e84f3dd0314c0f7b2291e5b200ac8c7c3b92591015b60405180910390a3505050565b6001600160a01b03811660009081526001830160205260408120541515610fde565b6000610fde836001600160a01b038416613284565b600f546001600160a01b0316156129b257600f5460405163632447c960e01b81526001600160a01b039091169063632447c99061291d908690600401613d13565b600060405180830381600087803b15801561293757600080fd5b505af115801561294b573d6000803e3d6000fd5b5050600f5460405163632447c960e01b81526001600160a01b03909116925063632447c9915061297f908590600401613d13565b600060405180830381600087803b15801561299957600080fd5b505af11580156129ad573d6000803e3d6000fd5b505050505b612743838383613377565b600f546001600160a01b03161561224c57600f5460405163632447c960e01b81526001600160a01b039091169063632447c99061221e908490600401613d13565b6040805180820190915260018152601960f91b602082015281612a345760405162461bcd60e51b8152600401610bce9190613c9f565b50600080612a418361353d565b915091508015612a66576000612a56836125bb565b905083811015612a64578093505b505b612a7033846135ea565b612a7982613727565b50604080518481526020810184905233917ff279e6a1f5e320cca91135676d9cb6e44ca8a08c0b88342bcdb1144f6511b568910160405180910390a2505050565b600e5460405163228bfd9f60e01b8152600091829182916001600160a01b03169063228bfd9f90612aef908890600401613d13565b6101206040518083038186803b158015612b0857600080fd5b505afa158015612b1c573d6000803e3d6000fd5b505050506040513d601f19601f82011682018060405250810190612b4091906140fa565b5050505094509450505050612b56828286612548565b95945050505050565b6000600854461415612b72575060065490565b6007546040805180820190915260018152603160f81b602090910152610d11907f8b73c3c69bb8fe3d512ecc4cf759cc79239f7b179b0ffacaa9a75d522b39400f907fc89efdaa54c0f20c7adf612882df0950f5a951637e0307cdcb4c672f298b8bc6613744565b600b54600160a01b900460ff16612c205760405162461bcd60e51b815260206004820152600a6024820152691b9bdd0b5c185d5cd95960b21b6044820152606401610bce565b600b54600160a81b900460ff1615612c4a5760405162461bcd60e51b8152600401610bce906143aa565b600b805460ff60a01b191690557f5db9ee0a495bf2e6ff9c91a7834c1ba4fdd244a5e8aa4e537bd38aeae4b073aa335b604051612c879190613d13565b60405180910390a1565b6000610fde836001600160a01b03841661378d565b612caf33613171565b61224c816129fe565b60606000610fde836137dc565b6000612cd082611e18565b9050612cea33600d546001600160a01b0316903085612748565b612cf43382612620565b604080518281526020810184905233917f90890809c654f11d6e72a28fa60149770a0d11ec6c92319d6ceb2bb0a4ea1a15910160405180910390a25050565b600b54600160a01b900460ff1615612d5d5760405162461bcd60e51b8152600401610bce906143cc565b600b805460ff60a01b1916600160a01b1790557f62e78cea01bee320cd4e420270b5ea74000d11b0c9f74754ebdbfc544b05a258612c7a3390565b8151612dab906003906020850190613bb7565b508051612743906004906020840190613bb7565b80516020808301919091206007819055466008556040805180820190915260018152603160f81b920191909152612e38907f8b73c3c69bb8fe3d512ecc4cf759cc79239f7b179b0ffacaa9a75d522b39400f907fc89efdaa54c0f20c7adf612882df0950f5a951637e0307cdcb4c672f298b8bc6613744565b60065550565b600554610100900460ff1680612e57575060055460ff16155b612e735760405162461bcd60e51b8152600401610bce906143ec565b600554610100900460ff16158015612e95576005805461ffff19166101011790555b600a80546001600160a01b0319163390811790915560405181906000907fd4459d5b8b913cab0244230fd9b1c08b6ceace7fe9230e60d0f74cbffdf849d0908290a350801561224c576005805461ff001916905550565b612ef533613171565b61224c81612cc5565b60006fa2a8918ca85bafe22016d0b997e4df60600160ff1b03821115612f715760405162461bcd60e51b815260206004820152602260248201527f45434453413a20696e76616c6964207369676e6174757265202773272076616c604482015261756560f01b6064820152608401610bce565b8360ff16601b1480612f8657508360ff16601c145b612fdd5760405162461bcd60e51b815260206004820152602260248201527f45434453413a20696e76616c6964207369676e6174757265202776272076616c604482015261756560f01b6064820152608401610bce565b6040805160008082526020820180845288905260ff871692820192909252606081018590526080810184905260019060a0016020604051602081039080840390855afa158015613031573d6000803e3d6000fd5b5050604051601f1901519150506001600160a01b038116612b565760405162461bcd60e51b815260206004820152601860248201527745434453413a20696e76616c6964207369676e617475726560401b6044820152606401610bce565b600b54600160a81b900460ff16156130b95760405162461bcd60e51b8152600401610bce906143aa565b600b805461ffff60a01b191661010160a01b1790557f28b4c24cb1012c094cd2f59f98e89d791973295f8fda6eaa118022d6d318960a33612c7a565b600b54600160a81b900460ff1661313d5760405162461bcd60e51b815260206004820152600c60248201526b3737ba16b9b43aba3237bbb760a11b6044820152606401610bce565b600b805460ff60a81b191690557fece7583a70a505ef0e36d4dec768f5ae597713e09c26011022599ee01abdabfc33612c7a565b600f546001600160a01b03161561224c57600f5460405163d279c19160e01b81526001600160a01b039091169063d279c1919061221e908490600401613d13565b6000613207826040518060400160405280602081526020017f5361666545524332303a206c6f772d6c6576656c2063616c6c206661696c6564815250856001600160a01b03166138389092919063ffffffff16565b805190915015612743578080602001905181019061322591906145a4565b6127435760405162461bcd60e51b815260206004820152602a60248201527f5361666545524332303a204552433230206f7065726174696f6e20646964206e6044820152691bdd081cdd58d8d9595960b21b6064820152608401610bce565b6000818152600183016020526040812054801561336d5760006132a86001836141d9565b85549091506000906132bc906001906141d9565b90508181146133215760008660000182815481106132dc576132dc614329565b90600052602060002001549050808760000184815481106132ff576132ff614329565b6000918252602080832090910192909255918252600188019052604090208390555b8554869080613332576133326145bf565b600190038181906000526020600020016000905590558560010160008681526020019081526020016000206000905560019350505050610b9e565b6000915050610b9e565b6001600160a01b0383166133db5760405162461bcd60e51b815260206004820152602560248201527f45524332303a207472616e736665722066726f6d20746865207a65726f206164604482015264647265737360d81b6064820152608401610bce565b6001600160a01b03821661343d5760405162461bcd60e51b815260206004820152602360248201527f45524332303a207472616e7366657220746f20746865207a65726f206164647260448201526265737360e81b6064820152608401610bce565b6001600160a01b038316600090815260208190526040902054818110156134b55760405162461bcd60e51b815260206004820152602660248201527f45524332303a207472616e7366657220616d6f756e7420657863656564732062604482015265616c616e636560d01b6064820152608401610bce565b6134bf82826141d9565b6001600160a01b0380861660009081526020819052604080822093909355908516815290812080548492906134f59084906141c1565b92505081905550826001600160a01b0316846001600160a01b03166000805160206145f28339815191528460405161352f91815260200190565b60405180910390a350505050565b6000806000670de0b6b3a7640000613553611950565b61355d908661454a565b6135679190614569565b90506000613573611d35565b9050819350808211156135ac5761359261358d82846141d9565b61384f565b61359a611d35565b9050808211156135ac57809350600192505b6040805180820190915260018152603160f81b6020820152846135e25760405162461bcd60e51b8152600401610bce9190613c9f565b505050915091565b6001600160a01b03821661364a5760405162461bcd60e51b815260206004820152602160248201527f45524332303a206275726e2066726f6d20746865207a65726f206164647265736044820152607360f81b6064820152608401610bce565b6001600160a01b038216600090815260208190526040902054818110156136be5760405162461bcd60e51b815260206004820152602260248201527f45524332303a206275726e20616d6f756e7420657863656564732062616c616e604482015261636560f01b6064820152608401610bce565b6136c882826141d9565b6001600160a01b038416600090815260208190526040812091909155600280548492906136f69084906141d9565b90915550506040518281526000906001600160a01b038516906000805160206145f283398151915290602001612898565b600061374033600d546001600160a01b031690846126ed565b5090565b6040805160208101859052908101839052606081018290524660808201523060a082015260009060c0016040516020818303038152906040528051906020012090509392505050565b60008181526001830160205260408120546137d457508154600181810184556000848152602080822090930184905584548482528286019093526040902091909155610b9e565b506000610b9e565b60608160000180548060200260200160405190810160405280929190818152602001828054801561382c57602002820191906000526020600020905b815481526020019060010190808311613818575b50505050509050919050565b60606138478484600085613a56565b949350505050565b600080600080600080613860610c90565b805190915060005b81811015613a4b57600061387c858b6141d9565b9050600084838151811061389257613892614329565b6020908102919091010151600e54604051639f2b283360e01b81529192506001600160a01b031690639f2b2833906138ce908490600401613d13565b60206040518083038186803b1580156138e657600080fd5b505afa1580156138fa573d6000803e3d6000fd5b505050506040513d601f19601f8201168201806040525081019061391e919061435a565b99508961392c575050613a39565b89821115613938578991505b613940611d35565b604051632e1a7d4d60e01b8152600481018490529098506001600160a01b03821690632e1a7d4d90602401600060405180830381600087803b15801561398557600080fd5b505af1925050508015613996575060015b6139a1575050613a39565b6139a9611d35565b98506139b5888a6141d9565b600e54604051632fb9ba3160e01b81529198506001600160a01b031690632fb9ba31906139e89084908b9060040161458b565b600060405180830381600087803b158015613a0257600080fd5b505af1158015613a16573d6000803e3d6000fd5b505050508686613a2691906141c1565b95508a8610613a36575050613a4b565b50505b80613a438161433f565b915050613868565b505050505050505050565b606082471015613ab75760405162461bcd60e51b815260206004820152602660248201527f416464726573733a20696e73756666696369656e742062616c616e636520666f6044820152651c8818d85b1b60d21b6064820152608401610bce565b843b613b055760405162461bcd60e51b815260206004820152601d60248201527f416464726573733a2063616c6c20746f206e6f6e2d636f6e74726163740000006044820152606401610bce565b600080866001600160a01b03168587604051613b2191906145d5565b60006040518083038185875af1925050503d8060008114613b5e576040519150601f19603f3d011682016040523d82523d6000602084013e613b63565b606091505b5091509150613b73828286613b7e565b979650505050505050565b60608315613b8d575081610fde565b825115613b9d5782518084602001fd5b8160405162461bcd60e51b8152600401610bce9190613c9f565b828054613bc3906141f0565b90600052602060002090601f016020900481019282613be55760008555613c2b565b82601f10613bfe57805160ff1916838001178555613c2b565b82800160010185558215613c2b579182015b82811115613c2b578251825591602001919060010190613c10565b506137409291505b808211156137405760008155600101613c33565b600080600060608486031215613c5c57600080fd5b505081359360208301359350604090920135919050565b60005b83811015613c8e578181015183820152602001613c76565b83811115611e125750506000910152565b6020815260008251806020840152613cbe816040850160208701613c73565b601f01601f19169190910160400192915050565b6001600160a01b038116811461224c57600080fd5b60008060408385031215613cfa57600080fd5b8235613d0581613cd2565b946020939093013593505050565b6001600160a01b0391909116815260200190565b600060208284031215613d3957600080fd5b5035919050565b6020808252825182820181905260009190848201906040850190845b81811015613d815783516001600160a01b031683529284019291840191600101613d5c565b50909695505050505050565b600060208284031215613d9f57600080fd5b8135610fde81613cd2565b60008083601f840112613dbc57600080fd5b50813567ffffffffffffffff811115613dd457600080fd5b6020830191508360208260051b8501011115613def57600080fd5b9250929050565b60008060008060408587031215613e0c57600080fd5b843567ffffffffffffffff80821115613e2457600080fd5b613e3088838901613daa565b90965094506020870135915080821115613e4957600080fd5b50613e5687828801613daa565b95989497509550505050565b600080600060608486031215613e7757600080fd5b8335613e8281613cd2565b92506020840135613e9281613cd2565b929592945050506040919091013590565b60ff8116811461224c57600080fd5b600080600080600060a08688031215613eca57600080fd5b85359450602086013593506040860135613ee381613ea3565b94979396509394606081013594506080013592915050565b60008060408385031215613f0e57600080fd5b8235613f1981613cd2565b91506020830135613f2981613cd2565b809150509250929050565b634e487b7160e01b600052604160045260246000fd5b604051601f8201601f1916810167ffffffffffffffff81118282101715613f7357613f73613f34565b604052919050565b600082601f830112613f8c57600080fd5b813567ffffffffffffffff811115613fa657613fa6613f34565b613fb9601f8201601f1916602001613f4a565b818152846020838601011115613fce57600080fd5b816020850160208301376000918101602001919091529392505050565b6000806000806080858703121561400157600080fd5b843567ffffffffffffffff8082111561401957600080fd5b61402588838901613f7b565b9550602087013591508082111561403b57600080fd5b5061404887828801613f7b565b935050604085013561405981613cd2565b9150606085013561406981613cd2565b939692955090935050565b600080600080600080600060e0888a03121561408f57600080fd5b873561409a81613cd2565b965060208801356140aa81613cd2565b9550604088013594506060880135935060808801356140c881613ea3565b9699959850939692959460a0840135945060c09093013592915050565b805180151581146140f557600080fd5b919050565b60008060008060008060008060006101208a8c03121561411957600080fd5b6141228a6140e5565b985060208a0151975060408a0151965060608a0151955060808a0151945060a08a0151935060c08a0151925060e08a015191506101008a015190509295985092959850929598565b60006020828403121561417c57600080fd5b8151610fde81613cd2565b6000806040838503121561419a57600080fd5b505080516020909101519092909150565b634e487b7160e01b600052601160045260246000fd5b600082198211156141d4576141d46141ab565b500190565b6000828210156141eb576141eb6141ab565b500390565b600181811c9082168061420457607f821691505b6020821081141561422557634e487b7160e01b600052602260045260246000fd5b50919050565b6020808252600c908201526b3737ba16b3b7bb32b93737b960a11b604082015260600190565b6000602080838503121561426457600080fd5b825167ffffffffffffffff8082111561427c57600080fd5b818501915085601f83011261429057600080fd5b8151818111156142a2576142a2613f34565b8060051b91506142b3848301613f4a565b81815291830184019184810190888411156142cd57600080fd5b938501935b838510156142f757845192506142e783613cd2565b82825293850193908501906142d2565b98975050505050505050565b6020808252600c908201526b3737ba16b096b5b2b2b832b960a11b604082015260600190565b634e487b7160e01b600052603260045260246000fd5b6000600019821415614353576143536141ab565b5060010190565b60006020828403121561436c57600080fd5b5051919050565b6020808252601f908201527f5265656e7472616e637947756172643a207265656e7472616e742063616c6c00604082015260600190565b60208082526008908201526739b43aba3237bbb760c11b604082015260600190565b6020808252600690820152651c185d5cd95960d21b604082015260600190565b6020808252602e908201527f496e697469616c697a61626c653a20636f6e747261637420697320616c72656160408201526d191e481a5b9a5d1a585b1a5e995960921b606082015260800190565b60006020828403121561444c57600080fd5b8151610fde81613ea3565b600181815b80851115614492578160001904821115614478576144786141ab565b8085161561448557918102915b93841c939080029061445c565b509250929050565b6000826144a957506001610b9e565b816144b657506000610b9e565b81600181146144cc57600281146144d6576144f2565b6001915050610b9e565b60ff8411156144e7576144e76141ab565b50506001821b610b9e565b5060208310610133831016604e8410600b8410161715614515575081810a610b9e565b61451f8383614457565b8060001904821115614533576145336141ab565b029392505050565b6000610fde60ff84168361449a565b6000816000190483118215151615614564576145646141ab565b500290565b60008261458657634e487b7160e01b600052601260045260246000fd5b500490565b6001600160a01b03929092168252602082015260400190565b6000602082840312156145b657600080fd5b610fde826140e5565b634e487b7160e01b600052603160045260246000fd5b600082516145e7818460208701613c73565b919091019291505056feddf252ad1be2c89b69c2b068fc378daa952ba7f163c4a11628f55a4df523b3efa2646970667358221220d3c672a36ffdb562946c9c22e127a0b46ba0815b5f00f3e0bb60d9923e628d9d64736f6c63430008090033",
  "devdoc": {
    "kind": "dev",
    "methods": {
      "DOMAIN_SEPARATOR()": {
        "details": "See {IERC20Permit-DOMAIN_SEPARATOR}."
      },
      "acceptGovernorship()": {
        "details": "Allows new governor to accept governorship of the contract."
      },
      "addKeeper(address)": {
        "params": {
          "_keeperAddress": "keeper address to add."
        }
      },
      "addMaintainer(address)": {
        "params": {
          "_maintainerAddress": "maintainer address to add."
        }
      },
      "allowance(address,address)": {
        "details": "See {IERC20-allowance}."
      },
      "approve(address,uint256)": {
        "details": "See {IERC20-approve}. Requirements: - `spender` cannot be the zero address."
      },
      "availableCreditLimit(address)": {
        "details": "Available credit limit is calculated based on current debt of pool and strategy, current debt limit of pool and strategy. credit available = min(pool's debt limit, strategy's debt limit, max debt per rebalance) when some strategy do not pay back outstanding debt, this impact credit line of other strategy if totalDebt of pool >= debtLimit of pool",
        "params": {
          "_strategy": "Strategy address"
        }
      },
      "balanceOf(address)": {
        "details": "Returns the amount of tokens owned by `account`."
      },
      "calculateMintage(uint256)": {
        "details": "Amount should be >= minimum deposit limit which default to 1",
        "params": {
          "_amount": "Collateral amount"
        },
        "returns": {
          "_shares": "Amount of share that user will get"
        }
      },
      "calculateUniversalFee(uint256)": {
        "details": "Earn strategies will call this during rebalance."
      },
      "decimals()": {
        "details": "Returns the decimals of the token. default to 18"
      },
      "deposit(uint256)": {
        "params": {
          "_amount": "ERC20 token amount."
        }
      },
      "depositAndClaim(uint256)": {
        "params": {
          "_amount": "ERC20 token amount."
        }
      },
      "depositWithPermit(uint256,uint256,uint8,bytes32,bytes32)": {
        "params": {
          "_amount": "ERC20 token amount.",
          "_deadline": "The time at which signature will expire",
          "_r": "Half of the ECDSA signature pair",
          "_s": "Half of the ECDSA signature pair",
          "_v": "The recovery byte of the signature"
        }
      },
      "excessDebt(address)": {
        "params": {
          "_strategy": "Address of strategy"
        }
      },
      "initialize(string,string,address,address)": {
        "details": "Equivalent to constructor for proxy. It can be called only once per proxy."
      },
      "migrateStrategy(address,address)": {
        "details": "Migrating strategy aka old and new strategy should be of same type.",
        "params": {
          "_new": "Address of new strategy",
          "_old": "Address of strategy being migrated"
        }
      },
      "multiTransfer(address[],uint256[])": {
        "details": "Address array and amount array are 1:1 and are in order.",
        "params": {
          "_amounts": "array of token amounts",
          "_recipients": "array of recipient addresses"
        },
        "returns": {
          "_0": "true/false"
        }
      },
      "name()": {
        "details": "Returns the name of the token."
      },
      "permit(address,address,uint256,uint256,uint8,bytes32,bytes32)": {
        "details": "See {IERC20Permit-permit}."
      },
      "pricePerShare()": {
        "details": "Return value will be in token defined decimals."
      },
      "removeKeeper(address)": {
        "params": {
          "_keeperAddress": "keeper address to remove."
        }
      },
      "removeMaintainer(address)": {
        "params": {
          "_maintainerAddress": "maintainer address to remove."
        }
      },
      "reportEarning(uint256,uint256,uint256)": {
        "params": {
          "_loss": "Reduce debt ,also reduce debtRatio, increase loss in record.",
          "_payback": "strategy willing to payback outstanding above debtLimit. no performance fee on this amount.  when governance has reduced debtRatio of strategy, strategy will report profit and payback amount separately.",
          "_profit": "yield generated by strategy. Strategy get performance fee on this amount"
        }
      },
      "reportLoss(uint256)": {
        "details": "Some strategies pay deposit fee thus realizing loss at deposit. For example: Curve's 3pool has some slippage due to deposit of one asset in 3pool. Strategy may want report this loss instead of waiting for next rebalance.",
        "params": {
          "_loss": "Loss that strategy want to report"
        }
      },
      "sweepERC20(address)": {
        "details": "Transfer given ERC20 token to governor",
        "params": {
          "_fromToken": "Token address to sweep"
        }
      },
      "symbol()": {
        "details": "Returns the symbol of the token, usually a shorter version of the name."
      },
      "tokensHere()": {
        "details": "Returns the token stored in the pool. It will be in token defined decimals."
      },
      "totalDebtOf(address)": {
        "params": {
          "_strategy": "Strategy address"
        }
      },
      "totalSupply()": {
        "details": "Returns total supply of the token."
      },
      "transfer(address,uint256)": {
        "details": "See {IERC20-transfer}. Requirements: - `recipient` cannot be the zero address. - the caller must have a balance of at least `amount`."
      },
      "transferFrom(address,address,uint256)": {
        "details": "See {IERC20-transferFrom}. Emits an {Approval} event indicating the updated allowance. This is not required by the EIP. See the note at the beginning of {ERC20}. Requirements: - `sender` and `recipient` cannot be the zero address. - `sender` must have a balance of at least `amount`. - the caller must have allowance for ``sender``'s tokens of at least `amount`."
      },
      "transferGovernorship(address)": {
        "details": "Transfers governorship of the contract to a new account (`proposedGovernor`). Can only be called by the current owner."
      },
      "updateMaximumProfitAsFee(uint256)": {
        "params": {
          "_newMaxProfitAsFee": "New max profit as fee"
        }
      },
      "updateMinimumDepositLimit(uint256)": {
        "params": {
          "_newLimit": "New minimum deposit limit"
        }
      },
      "updatePoolRewards(address)": {
        "params": {
          "_newPoolRewards": "new pool rewards address"
        }
      },
      "updateUniversalFee(uint256)": {
        "details": "Format: 1500 = 15% fee, 100 = 1%",
        "params": {
          "_newUniversalFee": "new universal fee"
        }
      },
      "whitelistedWithdraw(uint256)": {
        "details": "Deprecated method. Keeping this method here for backward compatibility.",
        "params": {
          "_shares": "Pool shares. It will be in 18 decimals."
        }
      },
      "withdraw(uint256)": {
        "params": {
          "_shares": "Pool shares. It will be in 18 decimals."
        }
      },
      "withdrawAndClaim(uint256)": {
        "params": {
          "_shares": "Pool shares. It will be in 18 decimals."
        }
      }
    },
    "title": "Holding pool share token",
    "version": 1
  },
  "userdoc": {
    "kind": "user",
    "methods": {
      "addKeeper(address)": {
        "notice": "Add given address in keepers list."
      },
      "addMaintainer(address)": {
        "notice": "Add given address in maintainers list."
      },
      "availableCreditLimit(address)": {
        "notice": "Get available credit limit of strategy. This is the amount strategy can borrow from pool"
      },
      "calculateMintage(uint256)": {
        "notice": "Calculate how much shares user will get for given amount. Also return externalDepositFee if any."
      },
      "calculateUniversalFee(uint256)": {
        "notice": "Calculate universal fee for calling strategy. This is only strategy function."
      },
      "deposit(uint256)": {
        "notice": "Deposit ERC20 tokens and receive pool shares depending on the current share price."
      },
      "depositAndClaim(uint256)": {
        "notice": "Deposit ERC20 tokens and claim rewards if any"
      },
      "depositWithPermit(uint256,uint256,uint8,bytes32,bytes32)": {
        "notice": "Deposit ERC20 tokens with permit aka gasless approval."
      },
      "excessDebt(address)": {
        "notice": "Debt above current debt limit"
      },
      "keepers()": {
        "notice": "Return list of keepers"
      },
      "maintainers()": {
        "notice": "Return list of maintainers"
      },
      "maxProfitAsFee()": {
        "notice": "Maximum percentage of profit that can be counted as universal fee. Default to 50%"
      },
      "migrateStrategy(address,address)": {
        "notice": "Migrate existing strategy to new strategy."
      },
      "minDepositLimit()": {
        "notice": "Minimum deposit limit."
      },
      "multiTransfer(address[],uint256[])": {
        "notice": "Transfer tokens to multiple recipient"
      },
      "poolAccountant()": {
        "notice": "PoolAccountant address"
      },
      "poolRewards()": {
        "notice": "PoolRewards contract address"
      },
      "pricePerShare()": {
        "notice": "Get price per share"
      },
      "removeKeeper(address)": {
        "notice": "Remove given address from keepers list."
      },
      "removeMaintainer(address)": {
        "notice": "Remove given address from maintainers list."
      },
      "reportEarning(uint256,uint256,uint256)": {
        "notice": "Strategy call this in regular interval. Only strategy function."
      },
      "reportLoss(uint256)": {
        "notice": "Report loss outside of rebalance activity."
      },
      "setup()": {
        "notice": "OnlyGovernor:: Helper function for V5 upgrade"
      },
      "token()": {
        "notice": "Collateral token address"
      },
      "totalDebt()": {
        "notice": "Get total debt of pool"
      },
      "totalDebtOf(address)": {
        "notice": "Get total debt of given strategy"
      },
      "totalDebtRatio()": {
        "notice": "Get total debt ratio. Total debt ratio helps us keep buffer in pool"
      },
      "totalValue()": {
        "notice": "Returns sum of token locked in other contracts and token stored in the pool. It will be in token defined decimals."
      },
      "universalFee()": {
        "notice": "Universal fee of this pool. Default to 2%"
      },
      "updateMaximumProfitAsFee(uint256)": {
        "notice": "Only Governor:: Update maximum profit that can be used as universal fee"
      },
      "updateMinimumDepositLimit(uint256)": {
        "notice": "Only Governor:: Update minimum deposit limit"
      },
      "updatePoolRewards(address)": {
        "notice": "Update pool rewards address for this pool"
      },
      "updateUniversalFee(uint256)": {
        "notice": "Update universal fee for this pool"
      },
      "whitelistedWithdraw(uint256)": {
        "notice": "Withdraw collateral based on given shares and the current share price. Burn remaining shares and return collateral. Claim rewards if there is any"
      },
      "withdraw(uint256)": {
        "notice": "Withdraw collateral based on given shares and the current share price. Burn remaining shares and return collateral."
      },
      "withdrawAndClaim(uint256)": {
        "notice": "Withdraw collateral and claim rewards if any"
      }
    },
    "version": 1
  },
  "storageLayout": {
    "storage": [
      {
        "astId": 9465,
        "contract": "contracts/pool/VPool.sol:VPool",
        "label": "_balances",
        "offset": 0,
        "slot": "0",
        "type": "t_mapping(t_address,t_uint256)"
      },
      {
        "astId": 9471,
        "contract": "contracts/pool/VPool.sol:VPool",
        "label": "_allowances",
        "offset": 0,
        "slot": "1",
        "type": "t_mapping(t_address,t_mapping(t_address,t_uint256))"
      },
      {
        "astId": 9473,
        "contract": "contracts/pool/VPool.sol:VPool",
        "label": "_totalSupply",
        "offset": 0,
        "slot": "2",
        "type": "t_uint256"
      },
      {
        "astId": 9475,
        "contract": "contracts/pool/VPool.sol:VPool",
        "label": "_name",
        "offset": 0,
        "slot": "3",
        "type": "t_string_storage"
      },
      {
        "astId": 9477,
        "contract": "contracts/pool/VPool.sol:VPool",
        "label": "_symbol",
        "offset": 0,
        "slot": "4",
        "type": "t_string_storage"
      },
      {
        "astId": 2095,
        "contract": "contracts/pool/VPool.sol:VPool",
        "label": "_initialized",
        "offset": 0,
        "slot": "5",
        "type": "t_bool"
      },
      {
        "astId": 2098,
        "contract": "contracts/pool/VPool.sol:VPool",
        "label": "_initializing",
        "offset": 1,
        "slot": "5",
        "type": "t_bool"
      },
      {
        "astId": 9938,
        "contract": "contracts/pool/VPool.sol:VPool",
        "label": "_CACHED_DOMAIN_SEPARATOR",
        "offset": 0,
        "slot": "6",
        "type": "t_bytes32"
      },
      {
        "astId": 9940,
        "contract": "contracts/pool/VPool.sol:VPool",
        "label": "_HASHED_NAME",
        "offset": 0,
        "slot": "7",
        "type": "t_bytes32"
      },
      {
        "astId": 9942,
        "contract": "contracts/pool/VPool.sol:VPool",
        "label": "_CACHED_CHAIN_ID",
        "offset": 0,
        "slot": "8",
        "type": "t_uint256"
      },
      {
        "astId": 9948,
        "contract": "contracts/pool/VPool.sol:VPool",
        "label": "nonces",
        "offset": 0,
        "slot": "9",
        "type": "t_mapping(t_address,t_uint256)"
      },
      {
        "astId": 792,
        "contract": "contracts/pool/VPool.sol:VPool",
        "label": "governor",
        "offset": 0,
        "slot": "10",
        "type": "t_address"
      },
      {
        "astId": 794,
        "contract": "contracts/pool/VPool.sol:VPool",
        "label": "proposedGovernor",
        "offset": 0,
        "slot": "11",
        "type": "t_address"
      },
      {
        "astId": 939,
        "contract": "contracts/pool/VPool.sol:VPool",
        "label": "paused",
        "offset": 20,
        "slot": "11",
        "type": "t_bool"
      },
      {
        "astId": 941,
        "contract": "contracts/pool/VPool.sol:VPool",
        "label": "stopEverything",
        "offset": 21,
        "slot": "11",
        "type": "t_bool"
      },
      {
        "astId": 2146,
        "contract": "contracts/pool/VPool.sol:VPool",
        "label": "_status",
        "offset": 0,
        "slot": "12",
        "type": "t_uint256"
      },
      {
        "astId": 11175,
        "contract": "contracts/pool/VPool.sol:VPool",
        "label": "token",
        "offset": 0,
        "slot": "13",
        "type": "t_contract(IERC20)2760"
      },
      {
        "astId": 11178,
        "contract": "contracts/pool/VPool.sol:VPool",
        "label": "poolAccountant",
        "offset": 0,
        "slot": "14",
        "type": "t_address"
      },
      {
        "astId": 11181,
        "contract": "contracts/pool/VPool.sol:VPool",
        "label": "poolRewards",
        "offset": 0,
        "slot": "15",
        "type": "t_address"
      },
      {
        "astId": 11183,
        "contract": "contracts/pool/VPool.sol:VPool",
        "label": "feeWhitelistObsolete",
        "offset": 0,
        "slot": "16",
        "type": "t_address"
      },
      {
        "astId": 11185,
        "contract": "contracts/pool/VPool.sol:VPool",
        "label": "keepersObsolete",
        "offset": 0,
        "slot": "17",
        "type": "t_address"
      },
      {
        "astId": 11187,
        "contract": "contracts/pool/VPool.sol:VPool",
        "label": "maintainersObsolete",
        "offset": 0,
        "slot": "18",
        "type": "t_address"
      },
      {
        "astId": 11189,
        "contract": "contracts/pool/VPool.sol:VPool",
        "label": "feeCollectorObsolete",
        "offset": 0,
        "slot": "19",
        "type": "t_address"
      },
      {
        "astId": 11191,
        "contract": "contracts/pool/VPool.sol:VPool",
        "label": "withdrawFeeObsolete",
        "offset": 0,
        "slot": "20",
        "type": "t_uint256"
      },
      {
        "astId": 11193,
        "contract": "contracts/pool/VPool.sol:VPool",
        "label": "decimalConversionFactorObsolete",
        "offset": 0,
        "slot": "21",
        "type": "t_uint256"
      },
      {
        "astId": 11195,
        "contract": "contracts/pool/VPool.sol:VPool",
        "label": "withdrawInETH",
        "offset": 0,
        "slot": "22",
        "type": "t_bool"
      },
      {
        "astId": 11201,
        "contract": "contracts/pool/VPool.sol:VPool",
        "label": "_feeWhitelistObsolete",
        "offset": 0,
        "slot": "23",
        "type": "t_struct(AddressSet)4634_storage"
      },
      {
        "astId": 11204,
        "contract": "contracts/pool/VPool.sol:VPool",
        "label": "_keepers",
        "offset": 0,
        "slot": "25",
        "type": "t_struct(AddressSet)4634_storage"
      },
      {
        "astId": 11207,
        "contract": "contracts/pool/VPool.sol:VPool",
        "label": "_maintainers",
        "offset": 0,
        "slot": "27",
        "type": "t_struct(AddressSet)4634_storage"
      },
      {
        "astId": 11214,
        "contract": "contracts/pool/VPool.sol:VPool",
        "label": "universalFee",
        "offset": 0,
        "slot": "29",
        "type": "t_uint256"
      },
      {
        "astId": 11218,
        "contract": "contracts/pool/VPool.sol:VPool",
        "label": "maxProfitAsFee",
        "offset": 0,
        "slot": "30",
        "type": "t_uint256"
      },
      {
        "astId": 11222,
        "contract": "contracts/pool/VPool.sol:VPool",
        "label": "minDepositLimit",
        "offset": 0,
        "slot": "31",
        "type": "t_uint256"
      }
    ],
    "types": {
      "t_address": {
        "encoding": "inplace",
        "label": "address",
        "numberOfBytes": "20"
      },
      "t_array(t_bytes32)dyn_storage": {
        "base": "t_bytes32",
        "encoding": "dynamic_array",
        "label": "bytes32[]",
        "numberOfBytes": "32"
      },
      "t_bool": {
        "encoding": "inplace",
        "label": "bool",
        "numberOfBytes": "1"
      },
      "t_bytes32": {
        "encoding": "inplace",
        "label": "bytes32",
        "numberOfBytes": "32"
      },
      "t_contract(IERC20)2760": {
        "encoding": "inplace",
        "label": "contract IERC20",
        "numberOfBytes": "20"
      },
      "t_mapping(t_address,t_mapping(t_address,t_uint256))": {
        "encoding": "mapping",
        "key": "t_address",
        "label": "mapping(address => mapping(address => uint256))",
        "numberOfBytes": "32",
        "value": "t_mapping(t_address,t_uint256)"
      },
      "t_mapping(t_address,t_uint256)": {
        "encoding": "mapping",
        "key": "t_address",
        "label": "mapping(address => uint256)",
        "numberOfBytes": "32",
        "value": "t_uint256"
      },
      "t_mapping(t_bytes32,t_uint256)": {
        "encoding": "mapping",
        "key": "t_bytes32",
        "label": "mapping(bytes32 => uint256)",
        "numberOfBytes": "32",
        "value": "t_uint256"
      },
      "t_string_storage": {
        "encoding": "bytes",
        "label": "string",
        "numberOfBytes": "32"
      },
      "t_struct(AddressSet)4634_storage": {
        "encoding": "inplace",
        "label": "struct EnumerableSet.AddressSet",
        "members": [
          {
            "astId": 4633,
            "contract": "contracts/pool/VPool.sol:VPool",
            "label": "_inner",
            "offset": 0,
            "slot": "0",
            "type": "t_struct(Set)4333_storage"
          }
        ],
        "numberOfBytes": "64"
      },
      "t_struct(Set)4333_storage": {
        "encoding": "inplace",
        "label": "struct EnumerableSet.Set",
        "members": [
          {
            "astId": 4328,
            "contract": "contracts/pool/VPool.sol:VPool",
            "label": "_values",
            "offset": 0,
            "slot": "0",
            "type": "t_array(t_bytes32)dyn_storage"
          },
          {
            "astId": 4332,
            "contract": "contracts/pool/VPool.sol:VPool",
            "label": "_indexes",
            "offset": 0,
            "slot": "1",
            "type": "t_mapping(t_bytes32,t_uint256)"
          }
        ],
        "numberOfBytes": "64"
      },
      "t_uint256": {
        "encoding": "inplace",
        "label": "uint256",
        "numberOfBytes": "32"
      }
    }
  }
}