{
  "address": "0xD5b60408f4513B112C7138a45b02C280249aCfb2",
  "abi": [
    {
      "inputs": [
        {
          "internalType": "address",
          "name": "_pool",
          "type": "address"
        },
        {
          "internalType": "address",
          "name": "_swapManager",
          "type": "address"
        }
      ],
      "stateMutability": "nonpayable",
      "type": "constructor"
    },
    {
      "anonymous": false,
      "inputs": [
        {
          "indexed": true,
          "internalType": "address",
          "name": "previousFeeCollector",
          "type": "address"
        },
        {
          "indexed": true,
          "internalType": "address",
          "name": "newFeeCollector",
          "type": "address"
        }
      ],
      "name": "UpdatedFeeCollector",
      "type": "event"
    },
    {
      "anonymous": false,
      "inputs": [
        {
          "indexed": false,
          "internalType": "uint256",
          "name": "oldPeriod",
          "type": "uint256"
        },
        {
          "indexed": false,
          "internalType": "uint256",
          "name": "newPeriod",
          "type": "uint256"
        },
        {
          "indexed": false,
          "internalType": "uint256",
          "name": "oldRouterIdx",
          "type": "uint256"
        },
        {
          "indexed": false,
          "internalType": "uint256",
          "name": "newRouterIdx",
          "type": "uint256"
        }
      ],
      "name": "UpdatedOracleConfig",
      "type": "event"
    },
    {
      "anonymous": false,
      "inputs": [
        {
          "indexed": true,
          "internalType": "address",
          "name": "previousSwapManager",
          "type": "address"
        },
        {
          "indexed": true,
          "internalType": "address",
          "name": "newSwapManager",
          "type": "address"
        }
      ],
      "name": "UpdatedSwapManager",
      "type": "event"
    },
    {
      "anonymous": false,
      "inputs": [
        {
          "indexed": false,
          "internalType": "uint256",
          "name": "oldSwapSlippage",
          "type": "uint256"
        },
        {
          "indexed": false,
          "internalType": "uint256",
          "name": "newSwapSlippage",
          "type": "uint256"
        }
      ],
      "name": "UpdatedSwapSlippage",
      "type": "event"
    },
    {
      "inputs": [],
      "name": "AAVE",
      "outputs": [
        {
          "internalType": "address",
          "name": "",
          "type": "address"
        }
      ],
      "stateMutability": "view",
      "type": "function"
    },
    {
      "inputs": [],
      "name": "NAME",
      "outputs": [
        {
          "internalType": "string",
          "name": "",
          "type": "string"
        }
      ],
      "stateMutability": "view",
      "type": "function"
    },
    {
      "inputs": [],
      "name": "VERSION",
      "outputs": [
        {
          "internalType": "string",
          "name": "",
          "type": "string"
        }
      ],
      "stateMutability": "view",
      "type": "function"
    },
    {
      "inputs": [],
      "name": "aaveAddressesProvider",
      "outputs": [
        {
          "internalType": "contract AaveLendingPoolAddressesProvider",
          "name": "",
          "type": "address"
        }
      ],
      "stateMutability": "view",
      "type": "function"
    },
    {
      "inputs": [],
      "name": "aaveIncentivesController",
      "outputs": [
        {
          "internalType": "contract AaveIncentivesController",
          "name": "",
          "type": "address"
        }
      ],
      "stateMutability": "view",
      "type": "function"
    },
    {
      "inputs": [],
      "name": "aaveLendingPool",
      "outputs": [
        {
          "internalType": "contract AaveLendingPool",
          "name": "",
          "type": "address"
        }
      ],
      "stateMutability": "view",
      "type": "function"
    },
    {
      "inputs": [],
      "name": "aaveProtocolDataProvider",
      "outputs": [
        {
          "internalType": "contract AaveProtocolDataProvider",
          "name": "",
          "type": "address"
        }
      ],
      "stateMutability": "view",
      "type": "function"
    },
    {
      "inputs": [
        {
          "internalType": "address",
          "name": "_keeperAddress",
          "type": "address"
        }
      ],
      "name": "addKeeper",
      "outputs": [],
      "stateMutability": "nonpayable",
      "type": "function"
    },
    {
      "inputs": [],
      "name": "approveToken",
      "outputs": [],
      "stateMutability": "nonpayable",
      "type": "function"
    },
    {
      "inputs": [],
      "name": "canStartCooldown",
      "outputs": [
        {
          "internalType": "bool",
          "name": "",
          "type": "bool"
        }
      ],
      "stateMutability": "view",
      "type": "function"
    },
    {
      "inputs": [],
      "name": "canUnstake",
      "outputs": [
        {
          "internalType": "bool",
          "name": "",
          "type": "bool"
        }
      ],
      "stateMutability": "view",
      "type": "function"
    },
    {
      "inputs": [],
      "name": "collateralToken",
      "outputs": [
        {
          "internalType": "contract IERC20",
          "name": "",
          "type": "address"
        }
      ],
      "stateMutability": "view",
      "type": "function"
    },
    {
      "inputs": [],
      "name": "cooldownData",
      "outputs": [
        {
          "internalType": "uint256",
          "name": "_cooldownStart",
          "type": "uint256"
        },
        {
          "internalType": "uint256",
          "name": "_cooldownEnd",
          "type": "uint256"
        },
        {
          "internalType": "uint256",
          "name": "_unstakeEnd",
          "type": "uint256"
        }
      ],
      "stateMutability": "view",
      "type": "function"
    },
    {
      "inputs": [],
      "name": "feeCollector",
      "outputs": [
        {
          "internalType": "address",
          "name": "",
          "type": "address"
        }
      ],
      "stateMutability": "view",
      "type": "function"
    },
    {
      "inputs": [
        {
          "internalType": "address",
          "name": "_addressListFactory",
          "type": "address"
        }
      ],
      "name": "init",
      "outputs": [],
      "stateMutability": "nonpayable",
      "type": "function"
    },
    {
      "inputs": [
        {
          "internalType": "address",
          "name": "_token",
          "type": "address"
        }
      ],
      "name": "isReservedToken",
      "outputs": [
        {
          "internalType": "bool",
          "name": "",
          "type": "bool"
        }
      ],
      "stateMutability": "view",
      "type": "function"
    },
    {
      "inputs": [],
      "name": "keepers",
      "outputs": [
        {
          "internalType": "contract IAddressList",
          "name": "",
          "type": "address"
        }
      ],
      "stateMutability": "view",
      "type": "function"
    },
    {
      "inputs": [
        {
          "internalType": "address",
          "name": "_newStrategy",
          "type": "address"
        }
      ],
      "name": "migrate",
      "outputs": [],
      "stateMutability": "nonpayable",
      "type": "function"
    },
    {
      "inputs": [],
      "name": "oraclePeriod",
      "outputs": [
        {
          "internalType": "uint256",
          "name": "",
          "type": "uint256"
        }
      ],
      "stateMutability": "view",
      "type": "function"
    },
    {
      "inputs": [],
      "name": "oracleRouterIdx",
      "outputs": [
        {
          "internalType": "uint256",
          "name": "",
          "type": "uint256"
        }
      ],
      "stateMutability": "view",
      "type": "function"
    },
    {
      "inputs": [],
      "name": "pool",
      "outputs": [
        {
          "internalType": "address",
          "name": "",
          "type": "address"
        }
      ],
      "stateMutability": "view",
      "type": "function"
    },
    {
      "inputs": [],
      "name": "rebalance",
      "outputs": [],
      "stateMutability": "nonpayable",
      "type": "function"
    },
    {
      "inputs": [],
      "name": "receiptToken",
      "outputs": [
        {
          "internalType": "address",
          "name": "",
          "type": "address"
        }
      ],
      "stateMutability": "view",
      "type": "function"
    },
    {
      "inputs": [
        {
          "internalType": "address",
          "name": "_keeperAddress",
          "type": "address"
        }
      ],
      "name": "removeKeeper",
      "outputs": [],
      "stateMutability": "nonpayable",
      "type": "function"
    },
    {
      "inputs": [],
      "name": "setupOracles",
      "outputs": [],
      "stateMutability": "nonpayable",
      "type": "function"
    },
    {
      "inputs": [],
      "name": "startCooldown",
      "outputs": [
        {
          "internalType": "bool",
          "name": "",
          "type": "bool"
        }
      ],
      "stateMutability": "nonpayable",
      "type": "function"
    },
    {
      "inputs": [],
      "name": "stkAAVE",
      "outputs": [
        {
          "internalType": "contract StakedAave",
          "name": "",
          "type": "address"
        }
      ],
      "stateMutability": "view",
      "type": "function"
    },
    {
      "inputs": [],
      "name": "swapManager",
      "outputs": [
        {
          "internalType": "contract ISwapManager",
          "name": "",
          "type": "address"
        }
      ],
      "stateMutability": "view",
      "type": "function"
    },
    {
      "inputs": [],
      "name": "swapSlippage",
      "outputs": [
        {
          "internalType": "uint256",
          "name": "",
          "type": "uint256"
        }
      ],
      "stateMutability": "view",
      "type": "function"
    },
    {
      "inputs": [
        {
          "internalType": "address",
          "name": "_fromToken",
          "type": "address"
        }
      ],
      "name": "sweepERC20",
      "outputs": [],
      "stateMutability": "nonpayable",
      "type": "function"
    },
    {
      "inputs": [],
      "name": "token",
      "outputs": [
        {
          "internalType": "address",
          "name": "",
          "type": "address"
        }
      ],
      "stateMutability": "view",
      "type": "function"
    },
    {
      "inputs": [],
      "name": "totalValue",
      "outputs": [
        {
          "internalType": "uint256",
          "name": "",
          "type": "uint256"
        }
      ],
      "stateMutability": "view",
      "type": "function"
    },
    {
      "inputs": [],
      "name": "totalValueCurrent",
      "outputs": [
        {
          "internalType": "uint256",
          "name": "",
          "type": "uint256"
        }
      ],
      "stateMutability": "nonpayable",
      "type": "function"
    },
    {
      "inputs": [],
      "name": "unstakeAave",
      "outputs": [],
      "stateMutability": "nonpayable",
      "type": "function"
    },
    {
      "inputs": [
        {
          "internalType": "address",
          "name": "_feeCollector",
          "type": "address"
        }
      ],
      "name": "updateFeeCollector",
      "outputs": [],
      "stateMutability": "nonpayable",
      "type": "function"
    },
    {
      "inputs": [
        {
          "internalType": "uint256",
          "name": "_newPeriod",
          "type": "uint256"
        },
        {
          "internalType": "uint256",
          "name": "_newRouterIdx",
          "type": "uint256"
        }
      ],
      "name": "updateOracleConfig",
      "outputs": [],
      "stateMutability": "nonpayable",
      "type": "function"
    },
    {
      "inputs": [
        {
          "internalType": "address",
          "name": "_swapManager",
          "type": "address"
        }
      ],
      "name": "updateSwapManager",
      "outputs": [],
      "stateMutability": "nonpayable",
      "type": "function"
    },
    {
      "inputs": [
        {
          "internalType": "uint256",
          "name": "_newSwapSlippage",
          "type": "uint256"
        }
      ],
      "name": "updateSwapSlippage",
      "outputs": [],
      "stateMutability": "nonpayable",
      "type": "function"
    },
    {
      "inputs": [
        {
          "internalType": "uint256",
          "name": "_amount",
          "type": "uint256"
        }
      ],
      "name": "withdraw",
      "outputs": [],
      "stateMutability": "nonpayable",
      "type": "function"
    }
  ],
  "transactionHash": "0x1f3d5d4e92eacb0ef8895efc25f0f9fdef76ca63b6c7a798628522076aa40bf2",
  "args": [
    "0x2B6c40Ef15Db0D78D08A7D1b4E12d57E88a3e324",
    "0xe382d9f2394A359B01006faa8A1864b8a60d2710"
  ],
  "solcInputHash": "a924f9e5924ba9cc99b9095021ca2dbb",
  "bytecode": "0x610140604052610e106004556000600555612710600655600780546001600160a01b03191673b53c1a33016b2dc2ff3653530bff1848a515c8c51790553480156200004957600080fd5b5060405162004cc738038062004cc78339810160408190526200006c91620004d8565b818173683923db55fead99a79fa01a27eec3cb19679cc3808383826001600160a01b038316620000e35760405162461bcd60e51b815260206004820152601460248201527f706f6f6c2d616464726573732d69732d7a65726f00000000000000000000000060448201526064015b60405180910390fd5b6001600160a01b038216620001305760405162461bcd60e51b8152602060048201526012602482015271736d2d616464726573732d69732d7a65726f60701b6044820152606401620000da565b600380546001600160a01b0319166001600160a01b0384811691909117909155606084901b6001600160601b03191660a05260408051637e062a3560e11b815290519185169163fc0c546a91600480820192602092909190829003018186803b1580156200019d57600080fd5b505afa158015620001b2573d6000803e3d6000fd5b505050506040513d601f19601f82011682018060405250810190620001d89190620004b2565b60601b6001600160601b031916608052600080546001600160a01b0319166001600160a01b039283161790558316151591506200025a90505760405162461bcd60e51b815260206004820152601660248201527f61546f6b656e2d616464726573732d69732d7a65726f000000000000000000006044820152606401620000da565b806001600160a01b0316610120816001600160a01b031660601b81525050806001600160a01b03166375d264136040518163ffffffff1660e01b815260040160206040518083038186803b158015620002b257600080fd5b505afa925050508015620002e5575060408051601f3d908101601f19168201909252620002e291810190620004b2565b60015b620002f05762000378565b50806001600160a01b03166375d264136040518163ffffffff1660e01b815260040160206040518083038186803b1580156200032b57600080fd5b505afa15801562000340573d6000803e3d6000fd5b505050506040513d601f19601f82011682018060405250810190620003669190620004b2565b60601b6001600160601b031916610100525b600760009054906101000a90046001600160a01b03166001600160a01b0316630261bf8b6040518163ffffffff1660e01b815260040160206040518083038186803b158015620003c757600080fd5b505afa158015620003dc573d6000803e3d6000fd5b505050506040513d601f19601f82011682018060405250810190620004029190620004b2565b60601b6001600160601b03191660c0526007546040516321f8a72160e01b8152600160f81b60048201526001600160a01b03909116906321f8a7219060240160206040518083038186803b1580156200045a57600080fd5b505afa1580156200046f573d6000803e3d6000fd5b505050506040513d601f19601f82011682018060405250810190620004959190620004b2565b60601b6001600160601b03191660e052506200052f945050505050565b600060208284031215620004c4578081fd5b8151620004d18162000516565b9392505050565b60008060408385031215620004eb578081fd5b8251620004f88162000516565b60208401519092506200050b8162000516565b809150509250929050565b6001600160a01b03811681146200052c57600080fd5b50565b60805160601c60a05160601c60c05160601c60e05160601c6101005160601c6101205160601c614602620006c560003960008181611bd501528181611d3b01528181612140015281816129f601528181612d4f01528181612ee00152818161305601526135e001526000818161039d0152818161299e01528181612b5e0152818161356201526136450152600081816103c40152612dee015260008181610528015281816125650152818161315601526133fa01526000818161028c0152818161059d015281816107db01528181610bf601528181610c7201528181610e0501528181610fdc015281816112c1015281816113e6015281816116c901528181611792015281816119e701528181612117015281816122ff0152818161239c015261251101526000818161049c0152818161193a015281816119be01528181611c9301528181611ebf015281816120f601528181612459015281816124ef015281816125430152818161278a0152818161280901528181612ea401528181612f7101528181612fb201526130f701526146026000f3fe608060405234801561001057600080fd5b506004361061023d5760003560e01c8063709d039d1161013b578063ce5494bb116100b8578063e9d337b81161007c578063e9d337b814610523578063ec78e8321461054a578063f51896f81461055d578063fc0c546a14610565578063ffa1ad74146105765761023d565b8063ce5494bb146104da578063d2c35ce8146104ed578063d4c3eea014610500578063e00af4a714610508578063e645c2021461051b5761023d565b8063a923b2a6116100ff578063a923b2a61461047c578063aa1018861461048f578063b2016bd414610497578063c415b95c146104be578063cd2d7ebe146104d15761023d565b8063709d039d146104095780637d7c2a1c1461041c578063951dc22c1461042457806399b71d5c14610437578063a3f4df7e1461043f5761023d565b80634032b72b116101c95780635f2475ca1161018d5780635f2475ca146103985780635f9d4d2e146103bf57806360a05a85146103e657806367f5e4b8146103ee578063680ff458146104015761023d565b80634032b72b1461032b57806342189c8f1461033e578063440d72481461034757806348ccda3c1461036a5780634c36fad7146103855761023d565b806319ab453c1161021057806319ab453c146102b65780631aedeabe146102c95780631fc29c01146102e057806321fc6bb0146102f55780632e1a7d4d146103185761023d565b806308bfa40a1461024257806314ae9f2e1461027257806316f0115b14610287578063189adf76146102ae575b600080fd5b600754610255906001600160a01b031681565b6040516001600160a01b0390911681526020015b60405180910390f35b61028561028036600461402a565b61059b565b005b6102557f000000000000000000000000000000000000000000000000000000000000000081565b61028561072a565b6102856102c436600461402a565b6107d9565b6102d260065481565b604051908152602001610269565b6102556000805160206145ad83398151915281565b6102fd610a53565b60408051938452602084019290925290820152606001610269565b6102856103263660046141c3565b610bf3565b61028561033936600461402a565b610c70565b6102d260045481565b61035a61035536600461402a565b610df0565b6040519015158152602001610269565b610255737fc66500c84a76ad7e9c93437bfc5ac33e2ddae981565b61028561039336600461402a565b610e03565b6102557f000000000000000000000000000000000000000000000000000000000000000081565b6102557f000000000000000000000000000000000000000000000000000000000000000081565b61035a610fb6565b6102856103fc3660046141c3565b610fda565b61035a611126565b600354610255906001600160a01b031681565b6102856111db565b600154610255906001600160a01b031681565b61028561132a565b61046f60405180604001604052806011815260200170416176652d53747261746567792d46454960781b81525081565b604051610269919061438b565b61028561048a3660046141f3565b6113e4565b610285611619565b6102557f000000000000000000000000000000000000000000000000000000000000000081565b600254610255906001600160a01b031681565b6102d260055481565b6102856104e836600461402a565b6116c6565b6102856104fb36600461402a565b6119e5565b6102d2611bae565b61028561051636600461402a565b611dc8565b6102d2612063565b6102557f000000000000000000000000000000000000000000000000000000000000000081565b600054610255906001600160a01b031681565b61035a61206d565b6000546001600160a01b0316610255565b61046f60405180604001604052806006815260200165332e302e323160d01b81525081565b7f00000000000000000000000000000000000000000000000000000000000000006001600160a01b0316630c340a246040518163ffffffff1660e01b815260040160206040518083038186803b1580156105f457600080fd5b505afa158015610608573d6000803e3d6000fd5b505050506040513d601f19601f8201168201806040525081019061062c9190614046565b6001600160a01b0316336001600160a01b0316146106655760405162461bcd60e51b815260040161065c906143ee565b60405180910390fd5b600154604051631484968760e11b81526001600160a01b038381166004830152909116906329092d0e90602401602060405180830381600087803b1580156106ac57600080fd5b505af11580156106c0573d6000803e3d6000fd5b505050506040513d601f19601f820116820180604052508101906106e491906141a9565b6107275760405162461bcd60e51b81526020600482015260146024820152731c995b5bdd994b5ad9595c195c8b59985a5b195960621b604482015260640161065c565b50565b6001546001600160a01b0316635dbe47e8336040516001600160e01b031960e084901b1681526001600160a01b03909116600482015260240160206040518083038186803b15801561077b57600080fd5b505afa15801561078f573d6000803e3d6000fd5b505050506040513d601f19601f820116820180604052508101906107b391906141a9565b6107cf5760405162461bcd60e51b815260040161065c906143be565b6107d7612089565b565b7f00000000000000000000000000000000000000000000000000000000000000006001600160a01b0316630c340a246040518163ffffffff1660e01b815260040160206040518083038186803b15801561083257600080fd5b505afa158015610846573d6000803e3d6000fd5b505050506040513d601f19601f8201168201806040525081019061086a9190614046565b6001600160a01b0316336001600160a01b03161461089a5760405162461bcd60e51b815260040161065c906143ee565b6001546001600160a01b0316156108f35760405162461bcd60e51b815260206004820152601b60248201527f6b65657065722d6c6973742d616c72656164792d637265617465640000000000604482015260640161065c565b6000819050806001600160a01b0316630fab4d256040518163ffffffff1660e01b8152600401602060405180830381600087803b15801561093357600080fd5b505af1158015610947573d6000803e3d6000fd5b505050506040513d601f19601f8201168201806040525081019061096b9190614046565b600180546001600160a01b0319166001600160a01b03929092169182179055630a3b0a4f6109963390565b6040516001600160e01b031960e084901b1681526001600160a01b039091166004820152602401602060405180830381600087803b1580156109d757600080fd5b505af11580156109eb573d6000803e3d6000fd5b505050506040513d601f19601f82011682018060405250810190610a0f91906141a9565b610a4f5760405162461bcd60e51b81526020600482015260116024820152701859190b5ad9595c195c8b59985a5b1959607a1b604482015260640161065c565b5050565b60405163091030c360e01b8152306004820152600090819081906000805160206145ad8339815191529063091030c39060240160206040518083038186803b158015610a9e57600080fd5b505afa158015610ab2573d6000803e3d6000fd5b505050506040513d601f19601f82011682018060405250810190610ad691906141db565b92506000805160206145ad8339815191526001600160a01b03166372b49d636040518163ffffffff1660e01b815260040160206040518083038186803b158015610b1f57600080fd5b505afa158015610b33573d6000803e3d6000fd5b505050506040513d601f19601f82011682018060405250810190610b5791906141db565b610b6190846144b6565b91506000805160206145ad8339815191526001600160a01b031663359c4a966040518163ffffffff1660e01b815260040160206040518083038186803b158015610baa57600080fd5b505afa158015610bbe573d6000803e3d6000fd5b505050506040513d601f19601f82011682018060405250810190610be291906141db565b610bec90836144b6565b9050909192565b337f00000000000000000000000000000000000000000000000000000000000000006001600160a01b031614610c675760405162461bcd60e51b815260206004820152601960248201527818d85b1b195c8b5a5ccb5b9bdd0b5d995cdc195c8b5c1bdbdb603a1b604482015260640161065c565b610727816120f1565b7f00000000000000000000000000000000000000000000000000000000000000006001600160a01b0316630c340a246040518163ffffffff1660e01b815260040160206040518083038186803b158015610cc957600080fd5b505afa158015610cdd573d6000803e3d6000fd5b505050506040513d601f19601f82011682018060405250810190610d019190614046565b6001600160a01b0316336001600160a01b031614610d315760405162461bcd60e51b815260040161065c906143ee565b600154604051630a3b0a4f60e01b81526001600160a01b03838116600483015290911690630a3b0a4f90602401602060405180830381600087803b158015610d7857600080fd5b505af1158015610d8c573d6000803e3d6000fd5b505050506040513d601f19601f82011682018060405250810190610db091906141a9565b6107275760405162461bcd60e51b81526020600482015260116024820152701859190b5ad9595c195c8b59985a5b1959607a1b604482015260640161065c565b6000610dfb8261213c565b90505b919050565b7f00000000000000000000000000000000000000000000000000000000000000006001600160a01b0316630c340a246040518163ffffffff1660e01b815260040160206040518083038186803b158015610e5c57600080fd5b505afa158015610e70573d6000803e3d6000fd5b505050506040513d601f19601f82011682018060405250810190610e949190614046565b6001600160a01b0316336001600160a01b031614610ec45760405162461bcd60e51b815260040161065c906143ee565b6001600160a01b038116610f0f5760405162461bcd60e51b8152602060048201526012602482015271736d2d616464726573732d69732d7a65726f60701b604482015260640161065c565b6003546001600160a01b0382811691161415610f5a5760405162461bcd60e51b815260206004820152600a602482015269736d2d69732d73616d6560b01b604482015260640161065c565b6003546040516001600160a01b038084169216907f2d19927e7cac08ceb98b38898a4fdff6da6a27295b9a2d62fe250408ebe044e190600090a3600380546001600160a01b0319166001600160a01b0392909216919091179055565b6000806000610fc3610a53565b9250509150610fd282826121bd565b925050505b90565b7f00000000000000000000000000000000000000000000000000000000000000006001600160a01b0316630c340a246040518163ffffffff1660e01b815260040160206040518083038186803b15801561103357600080fd5b505afa158015611047573d6000803e3d6000fd5b505050506040513d601f19601f8201168201806040525081019061106b9190614046565b6001600160a01b0316336001600160a01b03161461109b5760405162461bcd60e51b815260040161065c906143ee565b6127108111156110e65760405162461bcd60e51b8152602060048201526016602482015275696e76616c69642d736c6970706167652d76616c756560501b604482015260640161065c565b60065460408051918252602082018390527ef1c5db862c7598b3b6765552ca951f498611e06412c2d57f8d0b58f82e7f82910160405180910390a1600655565b6001546000906001600160a01b0316635dbe47e8336040516001600160e01b031960e084901b1681526001600160a01b03909116600482015260240160206040518083038186803b15801561117a57600080fd5b505afa15801561118e573d6000803e3d6000fd5b505050506040513d601f19601f820116820180604052508101906111b291906141a9565b6111ce5760405162461bcd60e51b815260040161065c906143be565b6111d661225a565b905090565b6001546001600160a01b0316635dbe47e8336040516001600160e01b031960e084901b1681526001600160a01b03909116600482015260240160206040518083038186803b15801561122c57600080fd5b505afa158015611240573d6000803e3d6000fd5b505050506040513d601f19601f8201168201806040525081019061126491906141a9565b6112805760405162461bcd60e51b815260040161065c906143be565b600080600061128d6122d9565b6040516302df682360e11b815260048101849052602481018390526044810182905292955090935091506001600160a01b037f000000000000000000000000000000000000000000000000000000000000000016906305bed04690606401600060405180830381600087803b15801561130557600080fd5b505af1158015611319573d6000803e3d6000fd5b50505050611325612440565b505050565b6001546001600160a01b0316635dbe47e8336040516001600160e01b031960e084901b1681526001600160a01b03909116600482015260240160206040518083038186803b15801561137b57600080fd5b505afa15801561138f573d6000803e3d6000fd5b505050506040513d601f19601f820116820180604052508101906113b391906141a9565b6113cf5760405162461bcd60e51b815260040161065c906143be565b6113d960006124e2565b6107d76000196124e2565b7f00000000000000000000000000000000000000000000000000000000000000006001600160a01b0316630c340a246040518163ffffffff1660e01b815260040160206040518083038186803b15801561143d57600080fd5b505afa158015611451573d6000803e3d6000fd5b505050506040513d601f19601f820116820180604052508101906114759190614046565b6001600160a01b0316336001600160a01b0316146114a55760405162461bcd60e51b815260040161065c906143ee565b600360009054906101000a90046001600160a01b03166001600160a01b031663c2fba6676040518163ffffffff1660e01b815260040160206040518083038186803b1580156114f357600080fd5b505afa158015611507573d6000803e3d6000fd5b505050506040513d601f19601f8201168201806040525081019061152b91906141db565b81106115705760405162461bcd60e51b81526020600482015260146024820152730d2dcecc2d8d2c85ae4deeae8cae45ad2dcc8caf60631b604482015260640161065c565b8161157b5760045491505b603b82116115c35760405162461bcd60e51b81526020600482015260156024820152741a5b9d985b1a590b5bdc9858db194b5c195c9a5bd9605a1b604482015260640161065c565b6004546005546040805192835260208301859052820152606081018290527f83bc5ab8030537fcf1d29c2334f6d22c26c82dcbe5ff03923d2cff5c692c0a7f9060800160405180910390a1600491909155600555565b6001546001600160a01b0316635dbe47e8336040516001600160e01b031960e084901b1681526001600160a01b03909116600482015260240160206040518083038186803b15801561166a57600080fd5b505afa15801561167e573d6000803e3d6000fd5b505050506040513d601f19601f820116820180604052508101906116a291906141a9565b6116be5760405162461bcd60e51b815260040161065c906143be565b6107d76126c6565b337f00000000000000000000000000000000000000000000000000000000000000006001600160a01b03161461173a5760405162461bcd60e51b815260206004820152601960248201527818d85b1b195c8b5a5ccb5b9bdd0b5d995cdc195c8b5c1bdbdb603a1b604482015260640161065c565b6001600160a01b0381166117905760405162461bcd60e51b815260206004820152601c60248201527f6e65772d73747261746567792d616464726573732d69732d7a65726f00000000604482015260640161065c565b7f00000000000000000000000000000000000000000000000000000000000000006001600160a01b0316816001600160a01b03166316f0115b6040518163ffffffff1660e01b815260040160206040518083038186803b1580156117f357600080fd5b505afa158015611807573d6000803e3d6000fd5b505050506040513d601f19601f8201168201806040525081019061182b9190614046565b6001600160a01b03161461187a5760405162461bcd60e51b81526020600482015260166024820152756e6f742d76616c69642d6e65772d737472617465677960501b604482015260640161065c565b6118838161289b565b6000546040516370a0823160e01b81523060048201526119179183916001600160a01b03909116906370a082319060240160206040518083038186803b1580156118cc57600080fd5b505afa1580156118e0573d6000803e3d6000fd5b505050506040513d601f19601f8201168201806040525081019061190491906141db565b6000546001600160a01b03169190612937565b6040516370a0823160e01b81523060048201526107279082906001600160a01b037f000000000000000000000000000000000000000000000000000000000000000016906370a082319060240160206040518083038186803b15801561197c57600080fd5b505afa158015611990573d6000803e3d6000fd5b505050506040513d601f19601f820116820180604052508101906119b491906141db565b6001600160a01b037f0000000000000000000000000000000000000000000000000000000000000000169190612937565b7f00000000000000000000000000000000000000000000000000000000000000006001600160a01b0316630c340a246040518163ffffffff1660e01b815260040160206040518083038186803b158015611a3e57600080fd5b505afa158015611a52573d6000803e3d6000fd5b505050506040513d601f19601f82011682018060405250810190611a769190614046565b6001600160a01b0316336001600160a01b031614611aa65760405162461bcd60e51b815260040161065c906143ee565b6001600160a01b038116611afc5760405162461bcd60e51b815260206004820152601d60248201527f6665652d636f6c6c6563746f722d616464726573732d69732d7a65726f000000604482015260640161065c565b6002546001600160a01b0382811691161415611b525760405162461bcd60e51b81526020600482015260156024820152746665652d636f6c6c6563746f722d69732d73616d6560581b604482015260640161065c565b6002546040516001600160a01b038084169216907f0f06062680f9bd68e786e9980d9bb03d73d5620fc3b345e417b6eacb310b970690600090a3600280546001600160a01b0319166001600160a01b0392909216919091179055565b600080611bb961299a565b905080611c5f576040516370a0823160e01b81523060048201527f00000000000000000000000000000000000000000000000000000000000000006001600160a01b0316906370a082319060240160206040518083038186803b158015611c1f57600080fd5b505afa158015611c33573d6000803e3d6000fd5b505050506040513d601f19601f82011682018060405250810190611c5791906141db565b915050610fd7565b600354604051631d1f307960e31b8152737fc66500c84a76ad7e9c93437bfc5ac33e2ddae960048201526001600160a01b037f00000000000000000000000000000000000000000000000000000000000000008116602483015260448201849052600092169063e8f983c89060640160006040518083038186803b158015611ce657600080fd5b505afa158015611cfa573d6000803e3d6000fd5b505050506040513d6000823e601f3d908101601f19168201604052611d229190810190614062565b506040516370a0823160e01b81523060048201529092507f00000000000000000000000000000000000000000000000000000000000000006001600160a01b031691506370a082319060240160206040518083038186803b158015611d8657600080fd5b505afa158015611d9a573d6000803e3d6000fd5b505050506040513d601f19601f82011682018060405250810190611dbe91906141db565b610fd290826144b6565b6001546001600160a01b0316635dbe47e8336040516001600160e01b031960e084901b1681526001600160a01b03909116600482015260240160206040518083038186803b158015611e1957600080fd5b505afa158015611e2d573d6000803e3d6000fd5b505050506040513d601f19601f82011682018060405250810190611e5191906141a9565b611e6d5760405162461bcd60e51b815260040161065c906143be565b6002546001600160a01b0316611ebd5760405162461bcd60e51b81526020600482015260156024820152741999594b58dbdb1b1958dd1bdc8b5b9bdd0b5cd95d605a1b604482015260640161065c565b7f00000000000000000000000000000000000000000000000000000000000000006001600160a01b0316816001600160a01b03161415611f3f5760405162461bcd60e51b815260206004820152601f60248201527f6e6f742d616c6c6f7765642d746f2d73776565702d636f6c6c61746572616c00604482015260640161065c565b611f4881610df0565b15611f8c5760405162461bcd60e51b815260206004820152601460248201527306e6f742d616c6c6f7765642d746f2d73776565760641b604482015260640161065c565b6001600160a01b03811673eeeeeeeeeeeeeeeeeeeeeeeeeeeeeeeeeeeeeeee1415611fcc57600254611fc7906001600160a01b031647612bff565b610727565b6040516370a0823160e01b81523060048201526000906001600160a01b038316906370a082319060240160206040518083038186803b15801561200e57600080fd5b505afa158015612022573d6000803e3d6000fd5b505050506040513d601f19601f8201168201806040525081019061204691906141db565b600254909150610a4f906001600160a01b03848116911683612937565b60006111d6611bae565b600080600061207a610a53565b9250925050610fd28282612d18565b6040516301e9a69560e41b815230600482015260001960248201526000805160206145ad83398151915290631e9a695090604401600060405180830381600087803b1580156120d757600080fd5b505af11580156120eb573d6000803e3d6000fd5b50505050565b610a4f7f00000000000000000000000000000000000000000000000000000000000000007f000000000000000000000000000000000000000000000000000000000000000083612d2d565b60007f00000000000000000000000000000000000000000000000000000000000000006001600160a01b0316826001600160a01b0316148061219a57506001600160a01b038216737fc66500c84a76ad7e9c93437bfc5ac33e2ddae9145b80610dfb5750506001600160a01b03166000805160206145ad8339815191521490565b6040516370a0823160e01b81523060048201526000906000805160206145ad833981519152906370a082319060240160206040518083038186803b15801561220457600080fd5b505afa158015612218573d6000803e3d6000fd5b505050506040513d601f19601f8201168201806040525081019061223c91906141db565b15801590612251575082158061225157508142115b90505b92915050565b6000612264610fb6565b156122d3576000805160206145ad8339815191526001600160a01b031663787a08a66040518163ffffffff1660e01b8152600401600060405180830381600087803b1580156122b257600080fd5b505af11580156122c6573d6000803e3d6000fd5b5050505060019050610fd7565b50600090565b604051636a9eee1360e11b81523060048201526000908190819081906001600160a01b037f0000000000000000000000000000000000000000000000000000000000000000169063d53ddc269060240160206040518083038186803b15801561234157600080fd5b505afa158015612355573d6000803e3d6000fd5b505050506040513d601f19601f8201168201806040525081019061237991906141db565b604051639f2b283360e01b81523060048201529091506000906001600160a01b037f00000000000000000000000000000000000000000000000000000000000000001690639f2b28339060240160206040518083038186803b1580156123de57600080fd5b505afa1580156123f2573d6000803e3d6000fd5b505050506040513d601f19601f8201168201806040525081019061241691906141db565b905061242181612e9d565b945061242c81613034565b9350612437826130ea565b92505050909192565b6040516370a0823160e01b81523060048201526107d7907f0000000000000000000000000000000000000000000000000000000000000000906001600160a01b038216906370a082319060240160206040518083038186803b1580156124a557600080fd5b505afa1580156124b9573d6000803e3d6000fd5b505050506040513d601f19601f820116820180604052508101906124dd91906141db565b61311d565b6125366001600160a01b037f0000000000000000000000000000000000000000000000000000000000000000167f0000000000000000000000000000000000000000000000000000000000000000836131b6565b61258a6001600160a01b037f0000000000000000000000000000000000000000000000000000000000000000167f0000000000000000000000000000000000000000000000000000000000000000836131b6565b60005b600360009054906101000a90046001600160a01b03166001600160a01b031663c2fba6676040518163ffffffff1660e01b815260040160206040518083038186803b1580156125db57600080fd5b505afa1580156125ef573d6000803e3d6000fd5b505050506040513d601f19601f8201168201806040525081019061261391906141db565b811015610a4f57600354604051636e74a6f760e01b8152600481018390526126b4916001600160a01b031690636e74a6f79060240160206040518083038186803b15801561266057600080fd5b505afa158015612674573d6000803e3d6000fd5b505050506040513d601f19601f820116820180604052508101906126989190614046565b737fc66500c84a76ad7e9c93437bfc5ac33e2ddae990846131b6565b806126be81614550565b91505061258d565b60035460048054600554604051630f30f2d360e21b8152737fc66500c84a76ad7e9c93437bfc5ac33e2ddae99381019390935273c02aaa39b223fe8d0a0e5c4f27ead9083c756cc26024840152604483019190915260648201526001600160a01b0390911690633cc3cb4c90608401602060405180830381600087803b15801561274f57600080fd5b505af1158015612763573d6000803e3d6000fd5b505050506040513d601f19601f820116820180604052508101906127879190614046565b507f00000000000000000000000000000000000000000000000000000000000000006001600160a01b031673c02aaa39b223fe8d0a0e5c4f27ead9083c756cc2146107d75760035460048054600554604051630f30f2d360e21b8152737fc66500c84a76ad7e9c93437bfc5ac33e2ddae9938101939093526001600160a01b037f0000000000000000000000000000000000000000000000000000000000000000811660248501526044840192909252606483015290911690633cc3cb4c90608401602060405180830381600087803b15801561286357600080fd5b505af1158015612877573d6000803e3d6000fd5b505050506040513d601f19601f820116820180604052508101906107279190614046565b6040516370a0823160e01b81523060048201526000906000805160206145ad833981519152906370a082319060240160206040518083038186803b1580156128e257600080fd5b505afa1580156128f6573d6000803e3d6000fd5b505050506040513d601f19601f8201168201806040525081019061291a91906141db565b90508015610a4f57610a4f6000805160206145ad83398151915283835b6040516001600160a01b03831660248201526044810182905261132590849063a9059cbb60e01b906064015b60408051601f198184030181529190526020810180516001600160e01b03166001600160e01b0319909316929092179091526132da565b60007f00000000000000000000000000000000000000000000000000000000000000006001600160a01b03166129d257506000610fd7565b604080516001808252818301909252600091602080830190803683370190505090507f000000000000000000000000000000000000000000000000000000000000000081600081518110612a3657634e487b7160e01b600052603260045260246000fd5b6001600160a01b0392909216602092830291909101909101526040516346df7f7160e11b81523060048201526000805160206145ad83398151915290638dbefee29060240160206040518083038186803b158015612a9357600080fd5b505afa158015612aa7573d6000803e3d6000fd5b505050506040513d601f19601f82011682018060405250810190612acb91906141db565b6040516370a0823160e01b81523060048201526000805160206145ad833981519152906370a082319060240160206040518083038186803b158015612b0f57600080fd5b505afa158015612b23573d6000803e3d6000fd5b505050506040513d601f19601f82011682018060405250810190612b4791906141db565b6040516345accf9360e11b81526001600160a01b037f00000000000000000000000000000000000000000000000000000000000000001690638b599f2690612b95908690309060040161432e565b60206040518083038186803b158015612bad57600080fd5b505afa158015612bc1573d6000803e3d6000fd5b505050506040513d601f19601f82011682018060405250810190612be591906141db565b612bef91906144b6565b612bf991906144b6565b91505090565b80471015612c4f5760405162461bcd60e51b815260206004820152601d60248201527f416464726573733a20696e73756666696369656e742062616c616e6365000000604482015260640161065c565b6000826001600160a01b03168260405160006040518083038185875af1925050503d8060008114612c9c576040519150601f19603f3d011682016040523d82523d6000602084013e612ca1565b606091505b50509050806113255760405162461bcd60e51b815260206004820152603a60248201527f416464726573733a20756e61626c6520746f2073656e642076616c75652c207260448201527f6563697069656e74206d61792068617665207265766572746564000000000000606482015260840161065c565b60008242118015612251575050421115919050565b6040516370a0823160e01b815230600482015260009081906001600160a01b037f000000000000000000000000000000000000000000000000000000000000000016906370a082319060240160206040518083038186803b158015612d9157600080fd5b505afa158015612da5573d6000803e3d6000fd5b505050506040513d601f19601f82011682018060405250810190612dc991906141db565b6040516335ea6a7560e01b81526001600160a01b0387811660048301529192506000917f000000000000000000000000000000000000000000000000000000000000000016906335ea6a75906024016101406040518083038186803b158015612e3157600080fd5b505afa158015612e45573d6000803e3d6000fd5b505050506040513d601f19601f82011682018060405250810190612e699190614248565b5050505050505050509050612e918686612e8c87612e8787876133ac565b6133ac565b6133c2565b925050505b9392505050565b6000612ec87f00000000000000000000000000000000000000000000000000000000000000006134cc565b6040516370a0823160e01b81523060048201526000907f00000000000000000000000000000000000000000000000000000000000000006001600160a01b0316906370a082319060240160206040518083038186803b158015612f2a57600080fd5b505afa158015612f3e573d6000803e3d6000fd5b505050506040513d601f19601f82011682018060405250810190612f6291906141db565b905082811115612f9d57612f9b7f000000000000000000000000000000000000000000000000000000000000000030612e8c868561450d565b505b6040516370a0823160e01b81523060048201527f00000000000000000000000000000000000000000000000000000000000000006001600160a01b0316906370a082319060240160206040518083038186803b158015612ffc57600080fd5b505afa158015613010573d6000803e3d6000fd5b505050506040513d601f19601f82011682018060405250810190612e9691906141db565b6040516370a0823160e01b815230600482015260009081906001600160a01b037f000000000000000000000000000000000000000000000000000000000000000016906370a082319060240160206040518083038186803b15801561309857600080fd5b505afa1580156130ac573d6000803e3d6000fd5b505050506040513d601f19601f820116820180604052508101906130d091906141db565b9050828110156130e457612e96818461450d565b50919050565b60008115610dfe57610dfb7f00000000000000000000000000000000000000000000000000000000000000003084612d2d565b8015610a4f5760405163e8eda9df60e01b81526001600160a01b03838116600483015260248201839052306044830152600060648301527f0000000000000000000000000000000000000000000000000000000000000000169063e8eda9df90608401600060405180830381600087803b15801561319a57600080fd5b505af11580156131ae573d6000803e3d6000fd5b505050505050565b80158061323f5750604051636eb1769f60e11b81523060048201526001600160a01b03838116602483015284169063dd62ed3e9060440160206040518083038186803b15801561320557600080fd5b505afa158015613219573d6000803e3d6000fd5b505050506040513d601f19601f8201168201806040525081019061323d91906141db565b155b6132aa5760405162461bcd60e51b815260206004820152603660248201527f5361666545524332303a20617070726f76652066726f6d206e6f6e2d7a65726f60448201527520746f206e6f6e2d7a65726f20616c6c6f77616e636560501b606482015260840161065c565b6040516001600160a01b03831660248201526044810182905261132590849063095ea7b360e01b90606401612963565b600061332f826040518060400160405280602081526020017f5361666545524332303a206c6f772d6c6576656c2063616c6c206661696c6564815250856001600160a01b03166135479092919063ffffffff16565b805190915015611325578080602001905181019061334d91906141a9565b6113255760405162461bcd60e51b815260206004820152602a60248201527f5361666545524332303a204552433230206f7065726174696f6e20646964206e6044820152691bdd081cdd58d8d9595960b21b606482015260840161065c565b60008183106133bb5781612251565b5090919050565b600081156134c557604051631a4ca37b60e21b81526001600160a01b03858116600483015260248201849052848116604483015283917f0000000000000000000000000000000000000000000000000000000000000000909116906369328dec90606401602060405180830381600087803b15801561344057600080fd5b505af1158015613454573d6000803e3d6000fd5b505050506040513d601f19601f8201168201806040525081019061347891906141db565b146134c55760405162461bcd60e51b815260206004820152601f60248201527f77697468647261776e2d616d6f756e742d69732d6e6f742d636f727265637400604482015260640161065c565b5092915050565b60006134d661355e565b90508015610a4f57600060065461271014156134f3576001613525565b61352561351d613517737fc66500c84a76ad7e9c93437bfc5ac33e2ddae9866138c1565b84613ab9565b600654613be4565b9050611325737fc66500c84a76ad7e9c93437bfc5ac33e2ddae9848484613c07565b60606135568484600085613dc8565b949350505050565b60007f00000000000000000000000000000000000000000000000000000000000000006001600160a01b031661359657506000610fd7565b60008060006135a3610a53565b92509250925082600014806135b757508042115b156136d757604080516001808252818301909252600091602080830190803683370190505090507f00000000000000000000000000000000000000000000000000000000000000008160008151811061362057634e487b7160e01b600052603260045260246000fd5b6001600160a01b039283166020918202929092010152604051633111e7b360e01b81527f000000000000000000000000000000000000000000000000000000000000000090911690633111e7b390613682908490600019903090600401614358565b602060405180830381600087803b15801561369c57600080fd5b505af11580156136b0573d6000803e3d6000fd5b505050506040513d601f19601f820116820180604052508101906136d491906141db565b50505b6136df610a53565b919450925090506136f08282612d18565b15613760576040516301e9a69560e41b815230600482015260001960248201526000805160206145ad83398151915290631e9a695090604401600060405180830381600087803b15801561374357600080fd5b505af1158015613757573d6000803e3d6000fd5b505050506137d1565b61376a83826121bd565b156137d1576000805160206145ad8339815191526001600160a01b031663787a08a66040518163ffffffff1660e01b8152600401600060405180830381600087803b1580156137b857600080fd5b505af11580156137cc573d6000803e3d6000fd5b505050505b6040516309a99b4f60e41b815230600482015260001960248201526000805160206145ad83398151915290639a99b4f090604401600060405180830381600087803b15801561381f57600080fd5b505af1158015613833573d6000803e3d6000fd5b50506040516370a0823160e01b8152306004820152737fc66500c84a76ad7e9c93437bfc5ac33e2ddae992506370a08231915060240160206040518083038186803b15801561388157600080fd5b505afa158015613895573d6000803e3d6000fd5b505050506040513d601f19601f820116820180604052508101906138b991906141db565b935050505090565b60606001600160a01b03831673c02aaa39b223fe8d0a0e5c4f27ead9083c756cc2148061390a57506001600160a01b03821673c02aaa39b223fe8d0a0e5c4f27ead9083c756cc2145b156139b8576040805160028082526060820183529091602083019080368337019050509050828160008151811061395157634e487b7160e01b600052603260045260246000fd5b60200260200101906001600160a01b031690816001600160a01b031681525050818160018151811061399357634e487b7160e01b600052603260045260246000fd5b60200260200101906001600160a01b031690816001600160a01b031681525050612254565b60408051600380825260808201909252906020820160608036833701905050905082816000815181106139fb57634e487b7160e01b600052603260045260246000fd5b60200260200101906001600160a01b031690816001600160a01b03168152505073c02aaa39b223fe8d0a0e5c4f27ead9083c756cc281600181518110613a5157634e487b7160e01b600052603260045260246000fd5b60200260200101906001600160a01b031690816001600160a01b0316815250508181600281518110613a9357634e487b7160e01b600052603260045260246000fd5b60200260200101906001600160a01b031690816001600160a01b03168152505092915050565b60006001835111613b025760405162461bcd60e51b81526020600482015260136024820152720d2dcecc2d8d2c85adee4c2c6d8ca5ae0c2e8d606b1b604482015260640161065c565b50806000805b60018551613b16919061450d565b811015613bdc57613b82858281518110613b4057634e487b7160e01b600052603260045260246000fd5b602002602001015186836001613b5691906144b6565b81518110613b7457634e487b7160e01b600052603260045260246000fd5b602002602001015185613ef0565b909350915081613bca5760405162461bcd60e51b8152602060048201526013602482015272696e76616c69642d6f7261636c652d7261746560681b604482015260640161065c565b80613bd481614550565b915050613b08565b505092915050565b6000612710613bf3838261450d565b613bfd90856144ee565b61225191906144ce565b600354604051631d1f307960e31b81526001600160a01b038681166004830152858116602483015260448201859052600092839283929091169063e8f983c89060640160006040518083038186803b158015613c6257600080fd5b505afa158015613c76573d6000803e3d6000fd5b505050506040513d6000823e601f3d908101601f19168201604052613c9e9190810190614062565b9250925092508360001415613cb257600193505b8115613dbf57600354604051636e74a6f760e01b8152600481018390526001600160a01b0390911690636e74a6f79060240160206040518083038186803b158015613cfc57600080fd5b505afa158015613d10573d6000803e3d6000fd5b505050506040513d601f19601f82011682018060405250810190613d349190614046565b6001600160a01b03166338ed173986868630426040518663ffffffff1660e01b8152600401613d67959493929190614425565b600060405180830381600087803b158015613d8157600080fd5b505af1158015613d95573d6000803e3d6000fd5b505050506040513d6000823e601f3d908101601f19168201604052613dbd9190810190614116565b505b50505050505050565b606082471015613e295760405162461bcd60e51b815260206004820152602660248201527f416464726573733a20696e73756666696369656e742062616c616e636520666f6044820152651c8818d85b1b60d21b606482015260840161065c565b843b613e775760405162461bcd60e51b815260206004820152601d60248201527f416464726573733a2063616c6c20746f206e6f6e2d636f6e7472616374000000604482015260640161065c565b600080866001600160a01b03168587604051613e939190614312565b60006040518083038185875af1925050503d8060008114613ed0576040519150601f19603f3d011682016040523d82523d6000602084013e613ed5565b606091505b5091509150613ee5828286613fe1565b979650505050505050565b6003546004805460055460405163b67bb24d60e01b81526001600160a01b038881169482019490945286841660248201526044810186905260648101929092526084820152600092839283928392919091169063b67bb24d9060a401606060405180830381600087803b158015613f6657600080fd5b505af1158015613f7a573d6000803e3d6000fd5b505050506040513d601f19601f82011682018060405250810190613f9e9190614214565b509150915060045442613fb1919061450d565b81118015613fbe57508115155b15613fcf5750915060019050613fd9565b6000809350935050505b935093915050565b60608315613ff0575081612e96565b8251156140005782518084602001fd5b8160405162461bcd60e51b815260040161065c919061438b565b80518015158114610dfe57600080fd5b60006020828403121561403b578081fd5b8135612e9681614597565b600060208284031215614057578081fd5b8151612e9681614597565b600080600060608486031215614076578182fd5b835167ffffffffffffffff81111561408c578283fd5b8401601f8101861361409c578283fd5b805160206140b16140ac83614492565b614461565b8083825282820191508285018a848660051b88010111156140d0578788fd5b8795505b848610156140fb5780516140e781614597565b8352600195909501949183019183016140d4565b50918801516040909801519199979850909695505050505050565b60006020808385031215614128578182fd5b825167ffffffffffffffff81111561413e578283fd5b8301601f8101851361414e578283fd5b805161415c6140ac82614492565b80828252848201915084840188868560051b870101111561417b578687fd5b8694505b8385101561419d57805183526001949094019391850191850161417f565b50979650505050505050565b6000602082840312156141ba578081fd5b6122518261401a565b6000602082840312156141d4578081fd5b5035919050565b6000602082840312156141ec578081fd5b5051919050565b60008060408385031215614205578182fd5b50508035926020909101359150565b600080600060608486031215614228578283fd5b835192506020840151915061423f6040850161401a565b90509250925092565b6000806000806000806000806000806101408b8d031215614267578586fd5b8a51995060208b0151985060408b0151975060608b0151965060808b0151955060a08b0151945060c08b0151935060e08b015192506101008b015191506101208b015164ffffffffff811681146142bc578182fd5b809150509295989b9194979a5092959850565b6000815180845260208085019450808401835b838110156143075781516001600160a01b0316875295820195908201906001016142e2565b509495945050505050565b60008251614324818460208701614524565b9190910192915050565b60006040825261434160408301856142cf565b905060018060a01b03831660208301529392505050565b60006060825261436b60608301866142cf565b6020830194909452506001600160a01b0391909116604090910152919050565b60006020825282518060208401526143aa816040850160208701614524565b601f01601f19169190910160400192915050565b60208082526016908201527531b0b63632b916b4b996b737ba16b096b5b2b2b832b960511b604082015260600190565b6020808252601a908201527f63616c6c65722d69732d6e6f742d7468652d676f7665726e6f72000000000000604082015260600190565b600086825285602083015260a0604083015261444460a08301866142cf565b6001600160a01b0394909416606083015250608001529392505050565b604051601f8201601f1916810167ffffffffffffffff8111828210171561448a5761448a614581565b604052919050565b600067ffffffffffffffff8211156144ac576144ac614581565b5060051b60200190565b600082198211156144c9576144c961456b565b500190565b6000826144e957634e487b7160e01b81526012600452602481fd5b500490565b60008160001904831182151516156145085761450861456b565b500290565b60008282101561451f5761451f61456b565b500390565b60005b8381101561453f578181015183820152602001614527565b838111156120eb5750506000910152565b60006000198214156145645761456461456b565b5060010190565b634e487b7160e01b600052601160045260246000fd5b634e487b7160e01b600052604160045260246000fd5b6001600160a01b038116811461072757600080fdfe0000000000000000000000004da27a545c0c5b758a6ba100e3a049001de870f5a26469706673582212206c7032f07a6cbdf64ed51d7d9540aabd6c89c4c6d154e9e7aca4342d61d7747064736f6c63430008030033",
  "devdoc": {
    "kind": "dev",
    "methods": {
      "addKeeper(address)": {
        "params": {
          "_keeperAddress": "keeper address to add."
        }
      },
      "approveToken()": {
        "details": "Approve all required tokens"
      },
      "init(address)": {
        "params": {
          "_addressListFactory": "To support same code in eth side chain, user _addressListFactory as param mainnet - 0xded8217De022706A191eE7Ee0Dc9df1185Fb5dA3 polygon - 0xD10D5696A350D65A9AA15FE8B258caB4ab1bF291 avalanche - 0xc5CdF8CBE886FC5c1EF5CD4fdd599C975eC6BB54"
        }
      },
      "migrate(address)": {
        "details": "_beforeMigration hook can be implemented in child strategy to do extra steps.",
        "params": {
          "_newStrategy": "Address of new strategy"
        }
      },
      "rebalance()": {
        "details": "Rebalance profit, loss and investment of this strategy"
      },
      "removeKeeper(address)": {
        "params": {
          "_keeperAddress": "keeper address to remove."
        }
      },
      "sweepERC20(address)": {
        "details": "sweep given token to feeCollector of strategy",
        "params": {
          "_fromToken": "token address to sweep"
        }
      },
      "totalValue()": {
        "details": "aToken and collateral are 1:1"
      },
      "totalValueCurrent()": {
        "details": "Report total value in collateral token"
      },
      "updateFeeCollector(address)": {
        "params": {
          "_feeCollector": "fee collector address"
        }
      },
      "updateSwapManager(address)": {
        "params": {
          "_swapManager": "swap manager address"
        }
      },
      "withdraw(uint256)": {
        "details": "Withdraw collateral token from lending pool.",
        "params": {
          "_amount": "Amount of collateral token"
        }
      }
    },
    "version": 1
  },
  "userdoc": {
    "kind": "user",
    "methods": {
      "addKeeper(address)": {
        "notice": "Add given address in keepers list."
      },
      "canStartCooldown()": {
        "notice": "Returns true if we should start cooldown"
      },
      "canUnstake()": {
        "notice": "Returns true if Aave can be unstaked"
      },
      "cooldownData()": {
        "notice": "Return cooldown related timestamps"
      },
      "init(address)": {
        "notice": "Create keeper list NOTE: Any function with onlyKeeper modifier will not work until this function is called. NOTE: Due to gas constraint this function cannot be called in constructor."
      },
      "isReservedToken(address)": {
        "notice": "Check whether given token is reserved or not. Reserved tokens are not allowed to sweep."
      },
      "migrate(address)": {
        "notice": "Migrate all asset and vault ownership,if any, to new strategy"
      },
      "removeKeeper(address)": {
        "notice": "Remove given address from keepers list."
      },
      "startCooldown()": {
        "notice": "Initiate cooldown to unstake aave."
      },
      "token()": {
        "notice": "Returns address of token correspond to collateral token"
      },
      "totalValue()": {
        "notice": "Report total value"
      },
      "totalValueCurrent()": {
        "notice": "Calculate total value of asset under management (in real-time)"
      },
      "unstakeAave()": {
        "notice": "Unstake Aave from stakedAave contract"
      },
      "updateFeeCollector(address)": {
        "notice": "Update fee collector"
      },
      "updateSwapManager(address)": {
        "notice": "Update swap manager address"
      }
    },
    "version": 1
  },
  "storageLayout": {
    "storage": [
      {
        "astId": 13633,
        "contract": "contracts/strategies/aave/AaveStrategyFEI.sol:AaveStrategyFEI",
        "label": "receiptToken",
        "offset": 0,
        "slot": "0",
        "type": "t_address"
      },
      {
        "astId": 13640,
        "contract": "contracts/strategies/aave/AaveStrategyFEI.sol:AaveStrategyFEI",
        "label": "keepers",
        "offset": 0,
        "slot": "1",
        "type": "t_contract(IAddressList)4357"
      },
      {
        "astId": 13643,
        "contract": "contracts/strategies/aave/AaveStrategyFEI.sol:AaveStrategyFEI",
        "label": "feeCollector",
        "offset": 0,
        "slot": "2",
        "type": "t_address"
      },
      {
        "astId": 13646,
        "contract": "contracts/strategies/aave/AaveStrategyFEI.sol:AaveStrategyFEI",
        "label": "swapManager",
        "offset": 0,
        "slot": "3",
        "type": "t_contract(ISwapManager)4660"
      },
      {
        "astId": 13649,
        "contract": "contracts/strategies/aave/AaveStrategyFEI.sol:AaveStrategyFEI",
        "label": "oraclePeriod",
        "offset": 0,
        "slot": "4",
        "type": "t_uint256"
      },
      {
        "astId": 13652,
        "contract": "contracts/strategies/aave/AaveStrategyFEI.sol:AaveStrategyFEI",
        "label": "oracleRouterIdx",
        "offset": 0,
        "slot": "5",
        "type": "t_uint256"
      },
      {
        "astId": 13655,
        "contract": "contracts/strategies/aave/AaveStrategyFEI.sol:AaveStrategyFEI",
        "label": "swapSlippage",
        "offset": 0,
        "slot": "6",
        "type": "t_uint256"
      },
      {
        "astId": 14922,
        "contract": "contracts/strategies/aave/AaveStrategyFEI.sol:AaveStrategyFEI",
        "label": "aaveAddressesProvider",
        "offset": 0,
        "slot": "7",
        "type": "t_contract(AaveLendingPoolAddressesProvider)4003"
      }
    ],
    "types": {
      "t_address": {
        "encoding": "inplace",
        "label": "address",
        "numberOfBytes": "20"
      },
      "t_contract(AaveLendingPoolAddressesProvider)4003": {
        "encoding": "inplace",
        "label": "contract AaveLendingPoolAddressesProvider",
        "numberOfBytes": "20"
      },
      "t_contract(IAddressList)4357": {
        "encoding": "inplace",
        "label": "contract IAddressList",
        "numberOfBytes": "20"
      },
      "t_contract(ISwapManager)4660": {
        "encoding": "inplace",
        "label": "contract ISwapManager",
        "numberOfBytes": "20"
      },
      "t_uint256": {
        "encoding": "inplace",
        "label": "uint256",
        "numberOfBytes": "32"
      }
    }
  }
}