{
  "address": "0x1E10aad97f2312B0b02424e628397B0ADD536D8b",
  "abi": [
    {
      "inputs": [
        {
          "internalType": "address",
          "name": "_pool",
          "type": "address"
        },
        {
          "internalType": "address",
          "name": "_swapManager",
          "type": "address"
        }
      ],
      "stateMutability": "nonpayable",
      "type": "constructor"
    },
    {
      "anonymous": false,
      "inputs": [
        {
          "indexed": false,
          "internalType": "uint256",
          "name": "oldDripPeriod",
          "type": "uint256"
        },
        {
          "indexed": false,
          "internalType": "uint256",
          "name": "newDripPeriod",
          "type": "uint256"
        }
      ],
      "name": "DripPeriodUpdated",
      "type": "event"
    },
    {
      "anonymous": false,
      "inputs": [
        {
          "indexed": true,
          "internalType": "address",
          "name": "previousFeeCollector",
          "type": "address"
        },
        {
          "indexed": true,
          "internalType": "address",
          "name": "newFeeCollector",
          "type": "address"
        }
      ],
      "name": "UpdatedFeeCollector",
      "type": "event"
    },
    {
      "anonymous": false,
      "inputs": [
        {
          "indexed": false,
          "internalType": "uint256",
          "name": "oldPeriod",
          "type": "uint256"
        },
        {
          "indexed": false,
          "internalType": "uint256",
          "name": "newPeriod",
          "type": "uint256"
        },
        {
          "indexed": false,
          "internalType": "uint256",
          "name": "oldRouterIdx",
          "type": "uint256"
        },
        {
          "indexed": false,
          "internalType": "uint256",
          "name": "newRouterIdx",
          "type": "uint256"
        }
      ],
      "name": "UpdatedOracleConfig",
      "type": "event"
    },
    {
      "anonymous": false,
      "inputs": [
        {
          "indexed": true,
          "internalType": "address",
          "name": "previousSwapManager",
          "type": "address"
        },
        {
          "indexed": true,
          "internalType": "address",
          "name": "newSwapManager",
          "type": "address"
        }
      ],
      "name": "UpdatedSwapManager",
      "type": "event"
    },
    {
      "anonymous": false,
      "inputs": [
        {
          "indexed": false,
          "internalType": "uint256",
          "name": "oldSwapSlippage",
          "type": "uint256"
        },
        {
          "indexed": false,
          "internalType": "uint256",
          "name": "newSwapSlippage",
          "type": "uint256"
        }
      ],
      "name": "UpdatedSwapSlippage",
      "type": "event"
    },
    {
      "inputs": [],
      "name": "NAME",
      "outputs": [
        {
          "internalType": "string",
          "name": "",
          "type": "string"
        }
      ],
      "stateMutability": "view",
      "type": "function"
    },
    {
      "inputs": [],
      "name": "VERSION",
      "outputs": [
        {
          "internalType": "string",
          "name": "",
          "type": "string"
        }
      ],
      "stateMutability": "view",
      "type": "function"
    },
    {
      "inputs": [
        {
          "internalType": "address",
          "name": "_keeperAddress",
          "type": "address"
        }
      ],
      "name": "addKeeper",
      "outputs": [],
      "stateMutability": "nonpayable",
      "type": "function"
    },
    {
      "inputs": [],
      "name": "approveToken",
      "outputs": [],
      "stateMutability": "nonpayable",
      "type": "function"
    },
    {
      "inputs": [],
      "name": "collateralToken",
      "outputs": [
        {
          "internalType": "contract IERC20",
          "name": "",
          "type": "address"
        }
      ],
      "stateMutability": "view",
      "type": "function"
    },
    {
      "inputs": [
        {
          "internalType": "uint256",
          "name": "amount",
          "type": "uint256"
        }
      ],
      "name": "convertFrom18",
      "outputs": [
        {
          "internalType": "uint256",
          "name": "",
          "type": "uint256"
        }
      ],
      "stateMutability": "pure",
      "type": "function"
    },
    {
      "inputs": [],
      "name": "dripPeriod",
      "outputs": [
        {
          "internalType": "uint256",
          "name": "",
          "type": "uint256"
        }
      ],
      "stateMutability": "view",
      "type": "function"
    },
    {
      "inputs": [],
      "name": "dripToken",
      "outputs": [
        {
          "internalType": "address",
          "name": "",
          "type": "address"
        }
      ],
      "stateMutability": "view",
      "type": "function"
    },
    {
      "inputs": [],
      "name": "feeCollector",
      "outputs": [
        {
          "internalType": "address",
          "name": "",
          "type": "address"
        }
      ],
      "stateMutability": "view",
      "type": "function"
    },
    {
      "inputs": [
        {
          "internalType": "address",
          "name": "_addressListFactory",
          "type": "address"
        }
      ],
      "name": "init",
      "outputs": [],
      "stateMutability": "nonpayable",
      "type": "function"
    },
    {
      "inputs": [
        {
          "internalType": "address",
          "name": "_token",
          "type": "address"
        }
      ],
      "name": "isReservedToken",
      "outputs": [
        {
          "internalType": "bool",
          "name": "",
          "type": "bool"
        }
      ],
      "stateMutability": "view",
      "type": "function"
    },
    {
      "inputs": [],
      "name": "keepers",
      "outputs": [
        {
          "internalType": "contract IAddressList",
          "name": "",
          "type": "address"
        }
      ],
      "stateMutability": "view",
      "type": "function"
    },
    {
      "inputs": [
        {
          "internalType": "address",
          "name": "_newStrategy",
          "type": "address"
        }
      ],
      "name": "migrate",
      "outputs": [],
      "stateMutability": "nonpayable",
      "type": "function"
    },
    {
      "inputs": [],
      "name": "oraclePeriod",
      "outputs": [
        {
          "internalType": "uint256",
          "name": "",
          "type": "uint256"
        }
      ],
      "stateMutability": "view",
      "type": "function"
    },
    {
      "inputs": [],
      "name": "oracleRouterIdx",
      "outputs": [
        {
          "internalType": "uint256",
          "name": "",
          "type": "uint256"
        }
      ],
      "stateMutability": "view",
      "type": "function"
    },
    {
      "inputs": [],
      "name": "pool",
      "outputs": [
        {
          "internalType": "address",
          "name": "",
          "type": "address"
        }
      ],
      "stateMutability": "view",
      "type": "function"
    },
    {
      "inputs": [],
      "name": "rebalance",
      "outputs": [],
      "stateMutability": "nonpayable",
      "type": "function"
    },
    {
      "inputs": [],
      "name": "receiptToken",
      "outputs": [
        {
          "internalType": "address",
          "name": "",
          "type": "address"
        }
      ],
      "stateMutability": "view",
      "type": "function"
    },
    {
      "inputs": [
        {
          "internalType": "address",
          "name": "_keeperAddress",
          "type": "address"
        }
      ],
      "name": "removeKeeper",
      "outputs": [],
      "stateMutability": "nonpayable",
      "type": "function"
    },
    {
      "inputs": [],
      "name": "setupOracles",
      "outputs": [],
      "stateMutability": "nonpayable",
      "type": "function"
    },
    {
      "inputs": [],
      "name": "swapManager",
      "outputs": [
        {
          "internalType": "contract ISwapManager",
          "name": "",
          "type": "address"
        }
      ],
      "stateMutability": "view",
      "type": "function"
    },
    {
      "inputs": [],
      "name": "swapSlippage",
      "outputs": [
        {
          "internalType": "uint256",
          "name": "",
          "type": "uint256"
        }
      ],
      "stateMutability": "view",
      "type": "function"
    },
    {
      "inputs": [
        {
          "internalType": "address",
          "name": "_fromToken",
          "type": "address"
        }
      ],
      "name": "sweepERC20",
      "outputs": [],
      "stateMutability": "nonpayable",
      "type": "function"
    },
    {
      "inputs": [],
      "name": "token",
      "outputs": [
        {
          "internalType": "address",
          "name": "",
          "type": "address"
        }
      ],
      "stateMutability": "view",
      "type": "function"
    },
    {
      "inputs": [],
      "name": "totalEarned",
      "outputs": [
        {
          "internalType": "uint256",
          "name": "",
          "type": "uint256"
        }
      ],
      "stateMutability": "view",
      "type": "function"
    },
    {
      "inputs": [],
      "name": "totalValue",
      "outputs": [
        {
          "internalType": "uint256",
          "name": "_totalValue",
          "type": "uint256"
        }
      ],
      "stateMutability": "view",
      "type": "function"
    },
    {
      "inputs": [],
      "name": "totalValueCurrent",
      "outputs": [
        {
          "internalType": "uint256",
          "name": "_totalValue",
          "type": "uint256"
        }
      ],
      "stateMutability": "nonpayable",
      "type": "function"
    },
    {
      "inputs": [
        {
          "internalType": "uint256",
          "name": "_dripPeriod",
          "type": "uint256"
        }
      ],
      "name": "updateDripPeriod",
      "outputs": [],
      "stateMutability": "nonpayable",
      "type": "function"
    },
    {
      "inputs": [
        {
          "internalType": "address",
          "name": "_feeCollector",
          "type": "address"
        }
      ],
      "name": "updateFeeCollector",
      "outputs": [],
      "stateMutability": "nonpayable",
      "type": "function"
    },
    {
      "inputs": [
        {
          "internalType": "uint256",
          "name": "_newPeriod",
          "type": "uint256"
        },
        {
          "internalType": "uint256",
          "name": "_newRouterIdx",
          "type": "uint256"
        }
      ],
      "name": "updateOracleConfig",
      "outputs": [],
      "stateMutability": "nonpayable",
      "type": "function"
    },
    {
      "inputs": [
        {
          "internalType": "address",
          "name": "_swapManager",
          "type": "address"
        }
      ],
      "name": "updateSwapManager",
      "outputs": [],
      "stateMutability": "nonpayable",
      "type": "function"
    },
    {
      "inputs": [
        {
          "internalType": "uint256",
          "name": "_newSwapSlippage",
          "type": "uint256"
        }
      ],
      "name": "updateSwapSlippage",
      "outputs": [],
      "stateMutability": "nonpayable",
      "type": "function"
    },
    {
      "inputs": [
        {
          "internalType": "uint256",
          "name": "_amount",
          "type": "uint256"
        }
      ],
      "name": "withdraw",
      "outputs": [],
      "stateMutability": "nonpayable",
      "type": "function"
    },
    {
      "stateMutability": "payable",
      "type": "receive"
    }
  ],
  "transactionHash": "0xe30b44331aeb61af52f4649824987f07ba0625e017bbd8376686395080f25a05",
  "args": [
    "0xA89566489E932a2d334b9eFF7884Feb21a07d2B3",
    "0xe382d9f2394A359B01006faa8A1864b8a60d2710"
  ],
  "solcInputHash": "4dd57e31f20211a963513994d57decc0",
  "bytecode": "0x60e0604052610e1060045560006005556127106006556202a3006008553480156200002957600080fd5b5060405162004821380380620048218339810160408190526200004c91620002d8565b8181734ddc2d193948926d02f9b1fe9e1daa0718270ed5736b175474e89094c44da98b954eedeac495271d0f808484848282826001600160a01b038316620000db5760405162461bcd60e51b815260206004820152601460248201527f706f6f6c2d616464726573732d69732d7a65726f00000000000000000000000060448201526064015b60405180910390fd5b6001600160a01b038216620001285760405162461bcd60e51b8152602060048201526012602482015271736d2d616464726573732d69732d7a65726f60701b6044820152606401620000d2565b600380546001600160a01b0319166001600160a01b0384811691909117909155606084901b6001600160601b03191660a05260408051637e062a3560e11b815290519185169163fc0c546a91600480820192602092909190829003018186803b1580156200019557600080fd5b505afa158015620001aa573d6000803e3d6000fd5b505050506040513d601f19601f82011682018060405250810190620001d0919062000316565b60601b6001600160601b031916608052600080546001600160a01b0319166001600160a01b039283161790558316151591506200025290505760405162461bcd60e51b815260206004820152601660248201527f63546f6b656e2d616464726573732d69732d7a65726f000000000000000000006044820152606401620000d2565b600780546001600160a01b0319166001600160a01b03928316179055612710600655831615159150620002bb90505760405162461bcd60e51b815260206004820152600e60248201526d64726970546f6b656e2d7a65726f60901b6044820152606401620000d2565b60601b6001600160601b03191660c0525062000355945050505050565b60008060408385031215620002eb578182fd5b8251620002f8816200033c565b60208401519092506200030b816200033c565b809150509250929050565b60006020828403121562000328578081fd5b815162000335816200033c565b9392505050565b6001600160a01b03811681146200035257600080fd5b50565b60805160601c60a05160601c60c05160601c6143826200049f6000396000818161038201528181612a1f015281816132500152818161331c0152818161335f015281816133a0015281816135c701526136130152600081816102ad015281816106ee01528181610874015281816109f901528181610c7401528181610cf001528181610eb30152818161106601528181611296015281816113bd015281816116a001528181611769015281816119bf01528181611f1d01528181611f9c015281816120390152818161227f0152818161310c015261319c01526000818161057d015281816119110152818161199601528181611d1101528181611f47015281816120f50152818161225d015281816122b5015281816124900152818161262201528181612ced01528181612d7401528181613067015281816135a601526135f201526143826000f3fe6080604052600436106101f25760003560e01c8063951dc22c1161010d578063ce5494bb116100a0578063e645c2021161006f578063e645c2021461064a578063ec78e8321461065f578063fb589de21461067f578063fc0c546a1461069d578063ffa1ad74146106bb57610276565b8063ce5494bb146105d5578063d2c35ce8146105f5578063d4c3eea014610615578063e00af4a71461062a57610276565b8063aa101886116100dc578063aa10188614610556578063b2016bd41461056b578063c415b95c1461059f578063cd2d7ebe146105bf57610276565b8063951dc22c146104ab57806399b71d5c146104cb578063a3f4df7e146104e0578063a923b2a61461053657610276565b806342189c8f116101855780636dfa8d99116101545780636dfa8d991461044a578063709d039d1461046057806371506414146104805780637d7c2a1c1461049657610276565b806342189c8f146103c4578063440d7248146103da5780634c36fad71461040a57806367f5e4b81461042a57610276565b80631aedeabe116101c15780631aedeabe1461032c5780632e1a7d4d14610350578063335bbf11146103705780634032b72b146103a457610276565b806314ae9f2e1461027b57806316f0115b1461029b5780631960d116146102ec57806319ab453c1461030c57610276565b36610276576007546001600160a01b031633148061022357503373c02aaa39b223fe8d0a0e5c4f27ead9083c756cc2145b6102745760405162461bcd60e51b815260206004820152601960248201527f6e6f742d616c6c6f7765642d746f2d73656e642d65746865720000000000000060448201526064015b60405180910390fd5b005b600080fd5b34801561028757600080fd5b50610274610296366004613e19565b6106ec565b3480156102a757600080fd5b506102cf7f000000000000000000000000000000000000000000000000000000000000000081565b6040516001600160a01b0390911681526020015b60405180910390f35b3480156102f857600080fd5b50610274610307366004613ff6565b610872565b34801561031857600080fd5b50610274610327366004613e19565b6109f7565b34801561033857600080fd5b5061034260065481565b6040519081526020016102e3565b34801561035c57600080fd5b5061027461036b366004613ff6565b610c71565b34801561037c57600080fd5b506102cf7f000000000000000000000000000000000000000000000000000000000000000081565b3480156103b057600080fd5b506102746103bf366004613e19565b610cee565b3480156103d057600080fd5b5061034260045481565b3480156103e657600080fd5b506103fa6103f5366004613e19565b610e6e565b60405190151581526020016102e3565b34801561041657600080fd5b50610274610425366004613e19565b610eb1565b34801561043657600080fd5b50610274610445366004613ff6565b611064565b34801561045657600080fd5b5061034260095481565b34801561046c57600080fd5b506003546102cf906001600160a01b031681565b34801561048c57600080fd5b5061034260085481565b3480156104a257600080fd5b506102746111b0565b3480156104b757600080fd5b506001546102cf906001600160a01b031681565b3480156104d757600080fd5b506102746112ff565b3480156104ec57600080fd5b506105296040518060400160405280601a81526020017f4561726e2d436f6d706f756e642d53747261746567792d45544800000000000081525081565b6040516102e39190614127565b34801561054257600080fd5b50610274610551366004614026565b6113bb565b34801561056257600080fd5b506102746115f0565b34801561057757600080fd5b506102cf7f000000000000000000000000000000000000000000000000000000000000000081565b3480156105ab57600080fd5b506002546102cf906001600160a01b031681565b3480156105cb57600080fd5b5061034260055481565b3480156105e157600080fd5b506102746105f0366004613e19565b61169d565b34801561060157600080fd5b50610274610610366004613e19565b6119bd565b34801561062157600080fd5b50610342611b86565b34801561063657600080fd5b50610274610645366004613e19565b611c1a565b34801561065657600080fd5b50610342611eb5565b34801561066b57600080fd5b506000546102cf906001600160a01b031681565b34801561068b57600080fd5b5061034261069a366004613ff6565b90565b3480156106a957600080fd5b506000546001600160a01b03166102cf565b3480156106c757600080fd5b5061052960405180604001604052806005815260200164332e302e3560d81b81525081565b7f00000000000000000000000000000000000000000000000000000000000000006001600160a01b0316630c340a246040518163ffffffff1660e01b815260040160206040518083038186803b15801561074557600080fd5b505afa158015610759573d6000803e3d6000fd5b505050506040513d601f19601f8201168201806040525081019061077d9190613e35565b6001600160a01b0316336001600160a01b0316146107ad5760405162461bcd60e51b815260040161026b9061418a565b600154604051631484968760e11b81526001600160a01b038381166004830152909116906329092d0e90602401602060405180830381600087803b1580156107f457600080fd5b505af1158015610808573d6000803e3d6000fd5b505050506040513d601f19601f8201168201806040525081019061082c9190613f77565b61086f5760405162461bcd60e51b81526020600482015260146024820152731c995b5bdd994b5ad9595c195c8b59985a5b195960621b604482015260640161026b565b50565b7f00000000000000000000000000000000000000000000000000000000000000006001600160a01b0316630c340a246040518163ffffffff1660e01b815260040160206040518083038186803b1580156108cb57600080fd5b505afa1580156108df573d6000803e3d6000fd5b505050506040513d601f19601f820116820180604052508101906109039190613e35565b6001600160a01b0316336001600160a01b0316146109335760405162461bcd60e51b815260040161026b9061418a565b806109725760405162461bcd60e51b815260206004820152600f60248201526e64726970506572696f642d7a65726f60881b604482015260640161026b565b6008548114156109b65760405162461bcd60e51b815260206004820152600f60248201526e1cd85b594b591c9a5c14195c9a5bd9608a1b604482015260640161026b565b60085460408051918252602082018390527f6a4a78fe36e2d43bd20405835c6211b888cc77a834e32ddc9ac64ded78f4b328910160405180910390a1600855565b7f00000000000000000000000000000000000000000000000000000000000000006001600160a01b0316630c340a246040518163ffffffff1660e01b815260040160206040518083038186803b158015610a5057600080fd5b505afa158015610a64573d6000803e3d6000fd5b505050506040513d601f19601f82011682018060405250810190610a889190613e35565b6001600160a01b0316336001600160a01b031614610ab85760405162461bcd60e51b815260040161026b9061418a565b6001546001600160a01b031615610b115760405162461bcd60e51b815260206004820152601b60248201527f6b65657065722d6c6973742d616c72656164792d637265617465640000000000604482015260640161026b565b6000819050806001600160a01b0316630fab4d256040518163ffffffff1660e01b8152600401602060405180830381600087803b158015610b5157600080fd5b505af1158015610b65573d6000803e3d6000fd5b505050506040513d601f19601f82011682018060405250810190610b899190613e35565b600180546001600160a01b0319166001600160a01b03929092169182179055630a3b0a4f610bb43390565b6040516001600160e01b031960e084901b1681526001600160a01b039091166004820152602401602060405180830381600087803b158015610bf557600080fd5b505af1158015610c09573d6000803e3d6000fd5b505050506040513d601f19601f82011682018060405250810190610c2d9190613f77565b610c6d5760405162461bcd60e51b81526020600482015260116024820152701859190b5ad9595c195c8b59985a5b1959607a1b604482015260640161026b565b5050565b337f00000000000000000000000000000000000000000000000000000000000000006001600160a01b031614610ce55760405162461bcd60e51b815260206004820152601960248201527818d85b1b195c8b5a5ccb5b9bdd0b5d995cdc195c8b5c1bdbdb603a1b604482015260640161026b565b61086f81611efa565b7f00000000000000000000000000000000000000000000000000000000000000006001600160a01b0316630c340a246040518163ffffffff1660e01b815260040160206040518083038186803b158015610d4757600080fd5b505afa158015610d5b573d6000803e3d6000fd5b505050506040513d601f19601f82011682018060405250810190610d7f9190613e35565b6001600160a01b0316336001600160a01b031614610daf5760405162461bcd60e51b815260040161026b9061418a565b600154604051630a3b0a4f60e01b81526001600160a01b03838116600483015290911690630a3b0a4f90602401602060405180830381600087803b158015610df657600080fd5b505af1158015610e0a573d6000803e3d6000fd5b505050506040513d601f19601f82011682018060405250810190610e2e9190613f77565b61086f5760405162461bcd60e51b81526020600482015260116024820152701859190b5ad9595c195c8b59985a5b1959607a1b604482015260640161026b565b6007546000906001600160a01b0383811691161480610ea957506001600160a01b03821673c00e94cb662c3520282e6f5717214004a7f26888145b90505b919050565b7f00000000000000000000000000000000000000000000000000000000000000006001600160a01b0316630c340a246040518163ffffffff1660e01b815260040160206040518083038186803b158015610f0a57600080fd5b505afa158015610f1e573d6000803e3d6000fd5b505050506040513d601f19601f82011682018060405250810190610f429190613e35565b6001600160a01b0316336001600160a01b031614610f725760405162461bcd60e51b815260040161026b9061418a565b6001600160a01b038116610fbd5760405162461bcd60e51b8152602060048201526012602482015271736d2d616464726573732d69732d7a65726f60701b604482015260640161026b565b6003546001600160a01b03828116911614156110085760405162461bcd60e51b815260206004820152600a602482015269736d2d69732d73616d6560b01b604482015260640161026b565b6003546040516001600160a01b038084169216907f2d19927e7cac08ceb98b38898a4fdff6da6a27295b9a2d62fe250408ebe044e190600090a3600380546001600160a01b0319166001600160a01b0392909216919091179055565b7f00000000000000000000000000000000000000000000000000000000000000006001600160a01b0316630c340a246040518163ffffffff1660e01b815260040160206040518083038186803b1580156110bd57600080fd5b505afa1580156110d1573d6000803e3d6000fd5b505050506040513d601f19601f820116820180604052508101906110f59190613e35565b6001600160a01b0316336001600160a01b0316146111255760405162461bcd60e51b815260040161026b9061418a565b6127108111156111705760405162461bcd60e51b8152602060048201526016602482015275696e76616c69642d736c6970706167652d76616c756560501b604482015260640161026b565b60065460408051918252602082018390527ef1c5db862c7598b3b6765552ca951f498611e06412c2d57f8d0b58f82e7f82910160405180910390a1600655565b6001546001600160a01b0316635dbe47e8336040516001600160e01b031960e084901b1681526001600160a01b03909116600482015260240160206040518083038186803b15801561120157600080fd5b505afa158015611215573d6000803e3d6000fd5b505050506040513d601f19601f820116820180604052508101906112399190613f77565b6112555760405162461bcd60e51b815260040161026b9061415a565b6000806000611262611f76565b6040516302df682360e11b815260048101849052602481018390526044810182905292955090935091506001600160a01b037f000000000000000000000000000000000000000000000000000000000000000016906305bed04690606401600060405180830381600087803b1580156112da57600080fd5b505af11580156112ee573d6000803e3d6000fd5b505050506112fa6120dd565b505050565b6001546001600160a01b0316635dbe47e8336040516001600160e01b031960e084901b1681526001600160a01b03909116600482015260240160206040518083038186803b15801561135057600080fd5b505afa158015611364573d6000803e3d6000fd5b505050506040513d601f19601f820116820180604052508101906113889190613f77565b6113a45760405162461bcd60e51b815260040161026b9061415a565b6113ae6000612250565b6113b9600019612250565b565b7f00000000000000000000000000000000000000000000000000000000000000006001600160a01b0316630c340a246040518163ffffffff1660e01b815260040160206040518083038186803b15801561141457600080fd5b505afa158015611428573d6000803e3d6000fd5b505050506040513d601f19601f8201168201806040525081019061144c9190613e35565b6001600160a01b0316336001600160a01b03161461147c5760405162461bcd60e51b815260040161026b9061418a565b600360009054906101000a90046001600160a01b03166001600160a01b031663c2fba6676040518163ffffffff1660e01b815260040160206040518083038186803b1580156114ca57600080fd5b505afa1580156114de573d6000803e3d6000fd5b505050506040513d601f19601f82011682018060405250810190611502919061400e565b81106115475760405162461bcd60e51b81526020600482015260146024820152730d2dcecc2d8d2c85ae4deeae8cae45ad2dcc8caf60631b604482015260640161026b565b816115525760045491505b603b821161159a5760405162461bcd60e51b81526020600482015260156024820152741a5b9d985b1a590b5bdc9858db194b5c195c9a5bd9605a1b604482015260640161026b565b6004546005546040805192835260208301859052820152606081018290527f83bc5ab8030537fcf1d29c2334f6d22c26c82dcbe5ff03923d2cff5c692c0a7f9060800160405180910390a1600491909155600555565b6001546001600160a01b0316635dbe47e8336040516001600160e01b031960e084901b1681526001600160a01b03909116600482015260240160206040518083038186803b15801561164157600080fd5b505afa158015611655573d6000803e3d6000fd5b505050506040513d601f19601f820116820180604052508101906116799190613f77565b6116955760405162461bcd60e51b815260040161026b9061415a565b6113b96124c9565b337f00000000000000000000000000000000000000000000000000000000000000006001600160a01b0316146117115760405162461bcd60e51b815260206004820152601960248201527818d85b1b195c8b5a5ccb5b9bdd0b5d995cdc195c8b5c1bdbdb603a1b604482015260640161026b565b6001600160a01b0381166117675760405162461bcd60e51b815260206004820152601c60248201527f6e65772d73747261746567792d616464726573732d69732d7a65726f00000000604482015260640161026b565b7f00000000000000000000000000000000000000000000000000000000000000006001600160a01b0316816001600160a01b03166316f0115b6040518163ffffffff1660e01b815260040160206040518083038186803b1580156117ca57600080fd5b505afa1580156117de573d6000803e3d6000fd5b505050506040513d601f19601f820116820180604052508101906118029190613e35565b6001600160a01b0316146118515760405162461bcd60e51b81526020600482015260166024820152756e6f742d76616c69642d6e65772d737472617465677960501b604482015260640161026b565b61185a816124d1565b6000546040516370a0823160e01b81523060048201526118ee9183916001600160a01b03909116906370a082319060240160206040518083038186803b1580156118a357600080fd5b505afa1580156118b7573d6000803e3d6000fd5b505050506040513d601f19601f820116820180604052508101906118db919061400e565b6000546001600160a01b03169190612579565b6040516370a0823160e01b815230600482015261086f9082906001600160a01b037f000000000000000000000000000000000000000000000000000000000000000016906370a08231906024015b60206040518083038186803b15801561195457600080fd5b505afa158015611968573d6000803e3d6000fd5b505050506040513d601f19601f8201168201806040525081019061198c919061400e565b6001600160a01b037f0000000000000000000000000000000000000000000000000000000000000000169190612579565b7f00000000000000000000000000000000000000000000000000000000000000006001600160a01b0316630c340a246040518163ffffffff1660e01b815260040160206040518083038186803b158015611a1657600080fd5b505afa158015611a2a573d6000803e3d6000fd5b505050506040513d601f19601f82011682018060405250810190611a4e9190613e35565b6001600160a01b0316336001600160a01b031614611a7e5760405162461bcd60e51b815260040161026b9061418a565b6001600160a01b038116611ad45760405162461bcd60e51b815260206004820152601d60248201527f6665652d636f6c6c6563746f722d616464726573732d69732d7a65726f000000604482015260640161026b565b6002546001600160a01b0382811691161415611b2a5760405162461bcd60e51b81526020600482015260156024820152746665652d636f6c6c6563746f722d69732d73616d6560581b604482015260640161026b565b6002546040516001600160a01b038084169216907f0f06062680f9bd68e786e9980d9bb03d73d5620fc3b345e417b6eacb310b970690600090a3600280546001600160a01b0319166001600160a01b0392909216919091179055565b60405163331faf7160e21b8152306004820152600090611c1590733d9819210a31b4961b30ef54be2aed79b9c9cd3b9063cc7ebdc4906024015b60206040518083038186803b158015611bd857600080fd5b505afa158015611bec573d6000803e3d6000fd5b505050506040513d601f19601f82011682018060405250810190611c10919061400e565b6125dc565b905090565b6001546001600160a01b0316635dbe47e8336040516001600160e01b031960e084901b1681526001600160a01b03909116600482015260240160206040518083038186803b158015611c6b57600080fd5b505afa158015611c7f573d6000803e3d6000fd5b505050506040513d601f19601f82011682018060405250810190611ca39190613f77565b611cbf5760405162461bcd60e51b815260040161026b9061415a565b6002546001600160a01b0316611d0f5760405162461bcd60e51b81526020600482015260156024820152741999594b58dbdb1b1958dd1bdc8b5b9bdd0b5cd95d605a1b604482015260640161026b565b7f00000000000000000000000000000000000000000000000000000000000000006001600160a01b0316816001600160a01b03161415611d915760405162461bcd60e51b815260206004820152601f60248201527f6e6f742d616c6c6f7765642d746f2d73776565702d636f6c6c61746572616c00604482015260640161026b565b611d9a81610e6e565b15611dde5760405162461bcd60e51b815260206004820152601460248201527306e6f742d616c6c6f7765642d746f2d73776565760641b604482015260640161026b565b6001600160a01b03811673eeeeeeeeeeeeeeeeeeeeeeeeeeeeeeeeeeeeeeee1415611e1e57600254611e19906001600160a01b031647612734565b61086f565b6040516370a0823160e01b81523060048201526000906001600160a01b038316906370a082319060240160206040518083038186803b158015611e6057600080fd5b505afa158015611e74573d6000803e3d6000fd5b505050506040513d601f19601f82011682018060405250810190611e98919061400e565b600254909150610c6d906001600160a01b03848116911683612579565b6000611ebf61284d565b6040516370a0823160e01b8152306004820152611c159073c00e94cb662c3520282e6f5717214004a7f26888906370a0823190602401611bc0565b611f0381612922565b506040516370a0823160e01b815230600482015261086f907f0000000000000000000000000000000000000000000000000000000000000000906001600160a01b037f000000000000000000000000000000000000000000000000000000000000000016906370a082319060240161193c565b604051636a9eee1360e11b81523060048201526000908190819081906001600160a01b037f0000000000000000000000000000000000000000000000000000000000000000169063d53ddc269060240160206040518083038186803b158015611fde57600080fd5b505afa158015611ff2573d6000803e3d6000fd5b505050506040513d601f19601f82011682018060405250810190612016919061400e565b604051639f2b283360e01b81523060048201529091506000906001600160a01b037f00000000000000000000000000000000000000000000000000000000000000001690639f2b28339060240160206040518083038186803b15801561207b57600080fd5b505afa15801561208f573d6000803e3d6000fd5b505050506040513d601f19601f820116820180604052508101906120b3919061400e565b90506120be81612a18565b94506120c981612aac565b93506120d482612b00565b92505050909192565b6040516370a0823160e01b81523060048201526000907f00000000000000000000000000000000000000000000000000000000000000006001600160a01b0316906370a082319060240160206040518083038186803b15801561213f57600080fd5b505afa158015612153573d6000803e3d6000fd5b505050506040513d601f19601f82011682018060405250810190612177919061400e565b9050801561086f57604051632e1a7d4d60e01b81526004810182905273c02aaa39b223fe8d0a0e5c4f27ead9083c756cc290632e1a7d4d90602401600060405180830381600087803b1580156121cc57600080fd5b505af11580156121e0573d6000803e3d6000fd5b50505050600760009054906101000a90046001600160a01b03166001600160a01b0316631249c58b826040518263ffffffff1660e01b81526004016000604051808303818588803b15801561223457600080fd5b505af1158015612248573d6000803e3d6000fd5b505050505050565b6122a46001600160a01b037f0000000000000000000000000000000000000000000000000000000000000000167f000000000000000000000000000000000000000000000000000000000000000083612b11565b6007546122de906001600160a01b037f00000000000000000000000000000000000000000000000000000000000000008116911683612b11565b60005b600360009054906101000a90046001600160a01b03166001600160a01b031663c2fba6676040518163ffffffff1660e01b815260040160206040518083038186803b15801561232f57600080fd5b505afa158015612343573d6000803e3d6000fd5b505050506040513d601f19601f82011682018060405250810190612367919061400e565b811015610c6d57600354604051636e74a6f760e01b815260048101839052612408916001600160a01b031690636e74a6f79060240160206040518083038186803b1580156123b457600080fd5b505afa1580156123c8573d6000803e3d6000fd5b505050506040513d601f19601f820116820180604052508101906123ec9190613e35565b73c00e94cb662c3520282e6f5717214004a7f268889084612b11565b600354604051636e74a6f760e01b8152600481018390526124b7916001600160a01b031690636e74a6f79060240160206040518083038186803b15801561244e57600080fd5b505afa158015612462573d6000803e3d6000fd5b505050506040513d601f19601f820116820180604052508101906124869190613e35565b6001600160a01b037f0000000000000000000000000000000000000000000000000000000000000000169084612b11565b806124c1816142f0565b9150506122e1565b6113b9612c35565b6124d961284d565b6040516370a0823160e01b815230600482015261086f90829073c00e94cb662c3520282e6f5717214004a7f26888906370a082319060240160206040518083038186803b15801561252957600080fd5b505afa15801561253d573d6000803e3d6000fd5b505050506040513d601f19601f82011682018060405250810190612561919061400e565b73c00e94cb662c3520282e6f5717214004a7f2688891905b6040516001600160a01b0383166024820152604481018290526112fa90849063a9059cbb60e01b906064015b60408051601f198184030181529190526020810180516001600160e01b03166001600160e01b031990931692909217909152612df0565b600081156126a7576003546040516340b4c54560e11b81526001600160a01b03909116906381698a8a9061264f9073c00e94cb662c3520282e6f5717214004a7f26888907f00000000000000000000000000000000000000000000000000000000000000009087906000906004016140da565b60006040518083038186803b15801561266757600080fd5b505afa15801561267b573d6000803e3d6000fd5b505050506040513d6000823e601f3d908101601f191682016040526126a39190810190613e51565b9150505b6007546040516370a0823160e01b815230600482015261272a916001600160a01b0316906370a08231906024015b60206040518083038186803b1580156126ed57600080fd5b505afa158015612701573d6000803e3d6000fd5b505050506040513d601f19601f82011682018060405250810190612725919061400e565b612ec2565b610ea99082614252565b804710156127845760405162461bcd60e51b815260206004820152601d60248201527f416464726573733a20696e73756666696369656e742062616c616e6365000000604482015260640161026b565b6000826001600160a01b03168260405160006040518083038185875af1925050503d80600081146127d1576040519150601f19603f3d011682016040523d82523d6000602084013e6127d6565b606091505b50509050806112fa5760405162461bcd60e51b815260206004820152603a60248201527f416464726573733a20756e61626c6520746f2073656e642076616c75652c207260448201527f6563697069656e74206d61792068617665207265766572746564000000000000606482015260840161026b565b60408051600180825281830190925260009160208083019080368337505060075482519293506001600160a01b03169183915060009061289d57634e487b7160e01b600052603260045260246000fd5b6001600160a01b039092166020928302919091019091015260405162e1ed9760e51b8152733d9819210a31b4961b30ef54be2aed79b9c9cd3b90631c3db2e0906128ed9030908590600401614103565b600060405180830381600087803b15801561290757600080fd5b505af115801561291b573d6000803e3d6000fd5b5050505050565b6007546040516370a0823160e01b81523060048201526000918291612959916001600160a01b0316906370a08231906024016126d5565b90506000600760009054906101000a90046001600160a01b03166001600160a01b0316633b1d21a26040518163ffffffff1660e01b815260040160206040518083038186803b1580156129ab57600080fd5b505afa1580156129bf573d6000803e3d6000fd5b505050506040513d601f19601f820116820180604052508101906129e3919061400e565b905060008185106129f457816129f6565b845b9050612a0f838210612a085783612a0a565b815b612f67565b95945050505050565b6000612a437f0000000000000000000000000000000000000000000000000000000000000000613046565b6007546040516370a0823160e01b8152306004820152600091612a7a916001600160a01b03909116906370a08231906024016126d5565b905082811115612a9357612a91612a0a84836142a9565b505b612a9b61304f565b612aa36130f4565b50600092915050565b6007546040516370a0823160e01b81523060048201526000918291612ae3916001600160a01b0316906370a08231906024016126d5565b905082811015612afa57612af781846142a9565b91505b50919050565b60008115610eac57610ea982612922565b801580612b9a5750604051636eb1769f60e11b81523060048201526001600160a01b03838116602483015284169063dd62ed3e9060440160206040518083038186803b158015612b6057600080fd5b505afa158015612b74573d6000803e3d6000fd5b505050506040513d601f19601f82011682018060405250810190612b98919061400e565b155b612c055760405162461bcd60e51b815260206004820152603660248201527f5361666545524332303a20617070726f76652066726f6d206e6f6e2d7a65726f60448201527520746f206e6f6e2d7a65726f20616c6c6f77616e636560501b606482015260840161026b565b6040516001600160a01b0383166024820152604481018290526112fa90849063095ea7b360e01b906064016125a5565b60035460048054600554604051630f30f2d360e21b81526001600160a01b0390941693633cc3cb4c93612c989373c00e94cb662c3520282e6f5717214004a7f268889373c02aaa39b223fe8d0a0e5c4f27ead9083c756cc29391929091016140da565b602060405180830381600087803b158015612cb257600080fd5b505af1158015612cc6573d6000803e3d6000fd5b505050506040513d601f19601f82011682018060405250810190612cea9190613e35565b507f00000000000000000000000000000000000000000000000000000000000000006001600160a01b031673c02aaa39b223fe8d0a0e5c4f27ead9083c756cc2146113b95760035460048054600554604051630f30f2d360e21b81526001600160a01b0390941693633cc3cb4c93612d9e9373c02aaa39b223fe8d0a0e5c4f27ead9083c756cc2937f00000000000000000000000000000000000000000000000000000000000000009391929091016140da565b602060405180830381600087803b158015612db857600080fd5b505af1158015612dcc573d6000803e3d6000fd5b505050506040513d601f19601f8201168201806040525081019061086f9190613e35565b6000612e45826040518060400160405280602081526020017f5361666545524332303a206c6f772d6c6576656c2063616c6c206661696c6564815250856001600160a01b031661341a9092919063ffffffff16565b8051909150156112fa5780806020019051810190612e639190613f77565b6112fa5760405162461bcd60e51b815260206004820152602a60248201527f5361666545524332303a204552433230206f7065726174696f6e20646964206e6044820152691bdd081cdd58d8d9595960b21b606482015260840161026b565b6000670de0b6b3a7640000600760009054906101000a90046001600160a01b03166001600160a01b031663182df0f56040518163ffffffff1660e01b815260040160206040518083038186803b158015612f1b57600080fd5b505afa158015612f2f573d6000803e3d6000fd5b505050506040513d601f19601f82011682018060405250810190612f53919061400e565b612f5d908461428a565b610ea9919061426a565b600081156130425760075460405163852a12e360e01b8152600481018490526001600160a01b039091169063852a12e390602401602060405180830381600087803b158015612fb557600080fd5b505af1158015612fc9573d6000803e3d6000fd5b505050506040513d601f19601f82011682018060405250810190612fed919061400e565b1561303a5760405162461bcd60e51b815260206004820152601d60248201527f77697468647261772d66726f6d2d636f6d706f756e642d6661696c6564000000604482015260640161026b565b613042613433565b5090565b61086f81613482565b6040516370a0823160e01b81523060048201526000907f00000000000000000000000000000000000000000000000000000000000000006001600160a01b0316906370a082319060240160206040518083038186803b1580156130b157600080fd5b505afa1580156130c5573d6000803e3d6000fd5b505050506040513d601f19601f820116820180604052508101906130e9919061400e565b905061086f81613580565b60405163228bfd9f60e01b81523060048201526000907f00000000000000000000000000000000000000000000000000000000000000006001600160a01b03169063228bfd9f906024016101006040518083038186803b15801561315757600080fd5b505afa15801561316b573d6000803e3d6000fd5b505050506040513d601f19601f8201168201806040525081019061318f9190613f91565b50505050505091505060007f00000000000000000000000000000000000000000000000000000000000000006001600160a01b0316638bc6beb26040518163ffffffff1660e01b8152600401602060405180830381600087803b1580156131f557600080fd5b505af1158015613209573d6000803e3d6000fd5b505050506040513d601f19601f8201168201806040525081019061322d9190613e35565b6040516370a0823160e01b81523060048201529091506000906001600160a01b037f000000000000000000000000000000000000000000000000000000000000000016906370a082319060240160206040518083038186803b15801561329257600080fd5b505afa1580156132a6573d6000803e3d6000fd5b505050506040513d601f19601f820116820180604052508101906132ca919061400e565b905080156112fa5780600960008282546132e49190614252565b90915550600090506127106132f9858461428a565b613303919061426a565b9050801561335257600254613345906001600160a01b037f00000000000000000000000000000000000000000000000000000000000000008116911683612579565b61334f81836142a9565b91505b6133866001600160a01b037f0000000000000000000000000000000000000000000000000000000000000000168484612579565b6008546040516328f362b160e21b81526001600160a01b037f0000000000000000000000000000000000000000000000000000000000000000811660048301526024820185905260448201929092529084169063a3cd8ac490606401600060405180830381600087803b1580156133fc57600080fd5b505af1158015613410573d6000803e3d6000fd5b5050505050505050565b60606134298484600085613639565b90505b9392505050565b73c02aaa39b223fe8d0a0e5c4f27ead9083c756cc26001600160a01b031663d0e30db0476040518263ffffffff1660e01b81526004016000604051808303818588803b15801561290757600080fd5b61348a61284d565b6040516370a0823160e01b815230600482015260009073c00e94cb662c3520282e6f5717214004a7f26888906370a082319060240160206040518083038186803b1580156134d757600080fd5b505afa1580156134eb573d6000803e3d6000fd5b505050506040513d601f19601f8201168201806040525081019061350f919061400e565b90508015610c6d576000600654612710141561352c57600161355e565b61355e61355661355073c00e94cb662c3520282e6f5717214004a7f2688886613761565b8461395a565b600654613a85565b90506112fa73c00e94cb662c3520282e6f5717214004a7f26888848484613aa8565b801561086f576000600654612710141561359b5760016135eb565b6135eb6135566135507f00000000000000000000000000000000000000000000000000000000000000007f0000000000000000000000000000000000000000000000000000000000000000613761565b9050610c6d7f00000000000000000000000000000000000000000000000000000000000000007f00000000000000000000000000000000000000000000000000000000000000008484613aa8565b60608247101561369a5760405162461bcd60e51b815260206004820152602660248201527f416464726573733a20696e73756666696369656e742062616c616e636520666f6044820152651c8818d85b1b60d21b606482015260840161026b565b843b6136e85760405162461bcd60e51b815260206004820152601d60248201527f416464726573733a2063616c6c20746f206e6f6e2d636f6e7472616374000000604482015260640161026b565b600080866001600160a01b0316858760405161370491906140be565b60006040518083038185875af1925050503d8060008114613741576040519150601f19603f3d011682016040523d82523d6000602084013e613746565b606091505b5091509150613756828286613c67565b979650505050505050565b60606001600160a01b03831673c02aaa39b223fe8d0a0e5c4f27ead9083c756cc214806137aa57506001600160a01b03821673c02aaa39b223fe8d0a0e5c4f27ead9083c756cc2145b1561385857604080516002808252606082018352909160208301908036833701905050905082816000815181106137f157634e487b7160e01b600052603260045260246000fd5b60200260200101906001600160a01b031690816001600160a01b031681525050818160018151811061383357634e487b7160e01b600052603260045260246000fd5b60200260200101906001600160a01b031690816001600160a01b031681525050613954565b604080516003808252608082019092529060208201606080368337019050509050828160008151811061389b57634e487b7160e01b600052603260045260246000fd5b60200260200101906001600160a01b031690816001600160a01b03168152505073c02aaa39b223fe8d0a0e5c4f27ead9083c756cc2816001815181106138f157634e487b7160e01b600052603260045260246000fd5b60200260200101906001600160a01b031690816001600160a01b031681525050818160028151811061393357634e487b7160e01b600052603260045260246000fd5b60200260200101906001600160a01b031690816001600160a01b0316815250505b92915050565b600060018351116139a35760405162461bcd60e51b81526020600482015260136024820152720d2dcecc2d8d2c85adee4c2c6d8ca5ae0c2e8d606b1b604482015260640161026b565b50806000805b600185516139b791906142a9565b811015613a7d57613a238582815181106139e157634e487b7160e01b600052603260045260246000fd5b6020026020010151868360016139f79190614252565b81518110613a1557634e487b7160e01b600052603260045260246000fd5b602002602001015185613ca0565b909350915081613a6b5760405162461bcd60e51b8152602060048201526013602482015272696e76616c69642d6f7261636c652d7261746560681b604482015260640161026b565b80613a75816142f0565b9150506139a9565b505092915050565b6000612710613a9483826142a9565b613a9e908561428a565b61342c919061426a565b600354604051631d1f307960e31b81526001600160a01b038681166004830152858116602483015260448201859052600092839283929091169063e8f983c89060640160006040518083038186803b158015613b0357600080fd5b505afa158015613b17573d6000803e3d6000fd5b505050506040513d6000823e601f3d908101601f19168201604052613b3f9190810190613e96565b9250925092508360001415613b5357600193505b8115613c5e57600354604051636e74a6f760e01b8152600481018390526001600160a01b0390911690636e74a6f79060240160206040518083038186803b158015613b9d57600080fd5b505afa158015613bb1573d6000803e3d6000fd5b505050506040513d601f19601f82011682018060405250810190613bd59190613e35565b6001600160a01b03166338ed173986868630426040518663ffffffff1660e01b8152600401613c089594939291906141c1565b600060405180830381600087803b158015613c2257600080fd5b505af1158015613c36573d6000803e3d6000fd5b505050506040513d6000823e601f3d908101601f191682016040526134109190810190613ee4565b50505050505050565b60608315613c7657508161342c565b825115613c865782518084602001fd5b8160405162461bcd60e51b815260040161026b9190614127565b6003546004805460055460405163b67bb24d60e01b81526001600160a01b038881169482019490945286841660248201526044810186905260648101929092526084820152600092839283928392919091169063b67bb24d9060a401606060405180830381600087803b158015613d1657600080fd5b505af1158015613d2a573d6000803e3d6000fd5b505050506040513d601f19601f82011682018060405250810190613d4e9190614047565b509150915060045442613d6191906142a9565b81118015613d6e57508115155b15613d7f5750915060019050613d89565b6000809350935050505b935093915050565b600082601f830112613da1578081fd5b81516020613db6613db18361422e565b6141fd565b80838252828201915082860187848660051b8901011115613dd5578586fd5b855b85811015613dfc578151613dea81614337565b84529284019290840190600101613dd7565b5090979650505050505050565b80518015158114610eac57600080fd5b600060208284031215613e2a578081fd5b813561342c81614337565b600060208284031215613e46578081fd5b815161342c81614337565b60008060408385031215613e63578081fd5b825167ffffffffffffffff811115613e79578182fd5b613e8585828601613d91565b925050602083015190509250929050565b600080600060608486031215613eaa578081fd5b835167ffffffffffffffff811115613ec0578182fd5b613ecc86828701613d91565b93505060208401519150604084015190509250925092565b60006020808385031215613ef6578182fd5b825167ffffffffffffffff811115613f0c578283fd5b8301601f81018513613f1c578283fd5b8051613f2a613db18261422e565b80828252848201915084840188868560051b8701011115613f49578687fd5b8694505b83851015613f6b578051835260019490940193918501918501613f4d565b50979650505050505050565b600060208284031215613f88578081fd5b61342c82613e09565b600080600080600080600080610100898b031215613fad578384fd5b613fb689613e09565b97506020890151965060408901519550606089015194506080890151935060a0890151925060c0890151915060e089015190509295985092959890939650565b600060208284031215614007578081fd5b5035919050565b60006020828403121561401f578081fd5b5051919050565b60008060408385031215614038578182fd5b50508035926020909101359150565b60008060006060848603121561405b578283fd5b835192506020840151915061407260408501613e09565b90509250925092565b6000815180845260208085019450808401835b838110156140b35781516001600160a01b03168752958201959082019060010161408e565b509495945050505050565b600082516140d08184602087016142c0565b9190910192915050565b6001600160a01b0394851681529290931660208301526040820152606081019190915260800190565b6001600160a01b03831681526040602082018190526000906134299083018461407b565b60006020825282518060208401526141468160408501602087016142c0565b601f01601f19169190910160400192915050565b60208082526016908201527531b0b63632b916b4b996b737ba16b096b5b2b2b832b960511b604082015260600190565b6020808252601a908201527f63616c6c65722d69732d6e6f742d7468652d676f7665726e6f72000000000000604082015260600190565b600086825285602083015260a060408301526141e060a083018661407b565b6001600160a01b0394909416606083015250608001529392505050565b604051601f8201601f1916810167ffffffffffffffff8111828210171561422657614226614321565b604052919050565b600067ffffffffffffffff82111561424857614248614321565b5060051b60200190565b600082198211156142655761426561430b565b500190565b60008261428557634e487b7160e01b81526012600452602481fd5b500490565b60008160001904831182151516156142a4576142a461430b565b500290565b6000828210156142bb576142bb61430b565b500390565b60005b838110156142db5781810151838201526020016142c3565b838111156142ea576000848401525b50505050565b60006000198214156143045761430461430b565b5060010190565b634e487b7160e01b600052601160045260246000fd5b634e487b7160e01b600052604160045260246000fd5b6001600160a01b038116811461086f57600080fdfea2646970667358221220cc0ad1d0183996711f0f47c80b5579338d489eff070700d0c7d7bb2d249ec0bc64736f6c63430008030033",
  "devdoc": {
    "kind": "dev",
    "methods": {
      "addKeeper(address)": {
        "params": {
          "_keeperAddress": "keeper address to add."
        }
      },
      "approveToken()": {
        "details": "Approve all required tokens"
      },
      "convertFrom18(uint256)": {
        "details": "Convert from 18 decimals to token defined decimals. Default no conversion."
      },
      "init(address)": {
        "params": {
          "_addressListFactory": "To support same code in eth side chain, user _addressListFactory as param ethereum- 0xded8217De022706A191eE7Ee0Dc9df1185Fb5dA3 polygon-0xD10D5696A350D65A9AA15FE8B258caB4ab1bF291"
        }
      },
      "migrate(address)": {
        "details": "_beforeMigration hook can be implemented in child strategy to do extra steps.",
        "params": {
          "_newStrategy": "Address of new strategy"
        }
      },
      "rebalance()": {
        "details": "Rebalance profit, loss and investment of this strategy"
      },
      "removeKeeper(address)": {
        "params": {
          "_keeperAddress": "keeper address to remove."
        }
      },
      "sweepERC20(address)": {
        "details": "sweep given token to feeCollector of strategy",
        "params": {
          "_fromToken": "token address to sweep"
        }
      },
      "totalValue()": {
        "details": "Report total value in collateral token"
      },
      "updateDripPeriod(uint256)": {
        "details": "_dripPeriod in seconds"
      },
      "updateFeeCollector(address)": {
        "params": {
          "_feeCollector": "fee collector address"
        }
      },
      "updateSwapManager(address)": {
        "params": {
          "_swapManager": "swap manager address"
        }
      },
      "withdraw(uint256)": {
        "details": "Withdraw collateral token from lending pool.",
        "params": {
          "_amount": "Amount of collateral token"
        }
      }
    },
    "title": "Deposit ETH/WETH in Compound and earn interest in DAI.",
    "version": 1
  },
  "userdoc": {
    "kind": "user",
    "methods": {
      "addKeeper(address)": {
        "notice": "Add given address in keepers list."
      },
      "init(address)": {
        "notice": "Create keeper list NOTE: Any function with onlyKeeper modifier will not work until this function is called. NOTE: Due to gas constraint this function cannot be called in constructor."
      },
      "isReservedToken(address)": {
        "notice": "Check whether given token is reserved or not. Reserved tokens are not allowed to sweep."
      },
      "migrate(address)": {
        "notice": "Migrate all asset and vault ownership,if any, to new strategy"
      },
      "removeKeeper(address)": {
        "notice": "Remove given address from keepers list."
      },
      "token()": {
        "notice": "Returns address of token correspond to collateral token"
      },
      "totalValue()": {
        "notice": "Calculate total value using COMP accrued and cToken"
      },
      "updateDripPeriod(uint256)": {
        "notice": "Update update period of distribution of earning done in one rebalance"
      },
      "updateFeeCollector(address)": {
        "notice": "Update fee collector"
      },
      "updateSwapManager(address)": {
        "notice": "Update swap manager address"
      }
    },
    "version": 1
  },
  "storageLayout": {
    "storage": [
      {
        "astId": 11940,
        "contract": "contracts/strategies/compound/earn/EarnCompoundStrategyETH.sol:EarnCompoundStrategyETH",
        "label": "receiptToken",
        "offset": 0,
        "slot": "0",
        "type": "t_address"
      },
      {
        "astId": 11946,
        "contract": "contracts/strategies/compound/earn/EarnCompoundStrategyETH.sol:EarnCompoundStrategyETH",
        "label": "keepers",
        "offset": 0,
        "slot": "1",
        "type": "t_contract(IAddressList)3647"
      },
      {
        "astId": 11949,
        "contract": "contracts/strategies/compound/earn/EarnCompoundStrategyETH.sol:EarnCompoundStrategyETH",
        "label": "feeCollector",
        "offset": 0,
        "slot": "2",
        "type": "t_address"
      },
      {
        "astId": 11952,
        "contract": "contracts/strategies/compound/earn/EarnCompoundStrategyETH.sol:EarnCompoundStrategyETH",
        "label": "swapManager",
        "offset": 0,
        "slot": "3",
        "type": "t_contract(ISwapManager)3950"
      },
      {
        "astId": 11955,
        "contract": "contracts/strategies/compound/earn/EarnCompoundStrategyETH.sol:EarnCompoundStrategyETH",
        "label": "oraclePeriod",
        "offset": 0,
        "slot": "4",
        "type": "t_uint256"
      },
      {
        "astId": 11958,
        "contract": "contracts/strategies/compound/earn/EarnCompoundStrategyETH.sol:EarnCompoundStrategyETH",
        "label": "oracleRouterIdx",
        "offset": 0,
        "slot": "5",
        "type": "t_uint256"
      },
      {
        "astId": 11961,
        "contract": "contracts/strategies/compound/earn/EarnCompoundStrategyETH.sol:EarnCompoundStrategyETH",
        "label": "swapSlippage",
        "offset": 0,
        "slot": "6",
        "type": "t_uint256"
      },
      {
        "astId": 18459,
        "contract": "contracts/strategies/compound/earn/EarnCompoundStrategyETH.sol:EarnCompoundStrategyETH",
        "label": "cToken",
        "offset": 0,
        "slot": "7",
        "type": "t_contract(CToken)4080"
      },
      {
        "astId": 11704,
        "contract": "contracts/strategies/compound/earn/EarnCompoundStrategyETH.sol:EarnCompoundStrategyETH",
        "label": "dripPeriod",
        "offset": 0,
        "slot": "8",
        "type": "t_uint256"
      },
      {
        "astId": 11706,
        "contract": "contracts/strategies/compound/earn/EarnCompoundStrategyETH.sol:EarnCompoundStrategyETH",
        "label": "totalEarned",
        "offset": 0,
        "slot": "9",
        "type": "t_uint256"
      }
    ],
    "types": {
      "t_address": {
        "encoding": "inplace",
        "label": "address",
        "numberOfBytes": "20"
      },
      "t_contract(CToken)4080": {
        "encoding": "inplace",
        "label": "contract CToken",
        "numberOfBytes": "20"
      },
      "t_contract(IAddressList)3647": {
        "encoding": "inplace",
        "label": "contract IAddressList",
        "numberOfBytes": "20"
      },
      "t_contract(ISwapManager)3950": {
        "encoding": "inplace",
        "label": "contract ISwapManager",
        "numberOfBytes": "20"
      },
      "t_uint256": {
        "encoding": "inplace",
        "label": "uint256",
        "numberOfBytes": "32"
      }
    }
  }
}