{
  "address": "0x235A6DCe7D40fa5b0157F55Dda0693dcAc4Ea932",
  "abi": [
    {
      "inputs": [
        {
          "internalType": "address",
          "name": "_pool",
          "type": "address"
        },
        {
          "internalType": "address",
          "name": "_cm",
          "type": "address"
        },
        {
          "internalType": "address",
          "name": "_swapManager",
          "type": "address"
        }
      ],
      "stateMutability": "nonpayable",
      "type": "constructor"
    },
    {
      "anonymous": false,
      "inputs": [
        {
          "indexed": true,
          "internalType": "address",
          "name": "previousFeeCollector",
          "type": "address"
        },
        {
          "indexed": true,
          "internalType": "address",
          "name": "newFeeCollector",
          "type": "address"
        }
      ],
      "name": "UpdatedFeeCollector",
      "type": "event"
    },
    {
      "anonymous": false,
      "inputs": [
        {
          "indexed": true,
          "internalType": "address",
          "name": "previousSwapManager",
          "type": "address"
        },
        {
          "indexed": true,
          "internalType": "address",
          "name": "newSwapManager",
          "type": "address"
        }
      ],
      "name": "UpdatedSwapManager",
      "type": "event"
    },
    {
      "inputs": [],
      "name": "NAME",
      "outputs": [
        {
          "internalType": "string",
          "name": "",
          "type": "string"
        }
      ],
      "stateMutability": "view",
      "type": "function"
    },
    {
      "inputs": [],
      "name": "VERSION",
      "outputs": [
        {
          "internalType": "string",
          "name": "",
          "type": "string"
        }
      ],
      "stateMutability": "view",
      "type": "function"
    },
    {
      "inputs": [
        {
          "internalType": "address",
          "name": "_keeperAddress",
          "type": "address"
        }
      ],
      "name": "addKeeper",
      "outputs": [],
      "stateMutability": "nonpayable",
      "type": "function"
    },
    {
      "inputs": [],
      "name": "approveToken",
      "outputs": [],
      "stateMutability": "nonpayable",
      "type": "function"
    },
    {
      "inputs": [],
      "name": "cm",
      "outputs": [
        {
          "internalType": "contract ICollateralManager",
          "name": "",
          "type": "address"
        }
      ],
      "stateMutability": "view",
      "type": "function"
    },
    {
      "inputs": [],
      "name": "collateralToken",
      "outputs": [
        {
          "internalType": "contract IERC20",
          "name": "",
          "type": "address"
        }
      ],
      "stateMutability": "view",
      "type": "function"
    },
    {
      "inputs": [],
      "name": "collateralType",
      "outputs": [
        {
          "internalType": "bytes32",
          "name": "",
          "type": "bytes32"
        }
      ],
      "stateMutability": "view",
      "type": "function"
    },
    {
      "inputs": [
        {
          "internalType": "uint256",
          "name": "amount",
          "type": "uint256"
        }
      ],
      "name": "convertFrom18",
      "outputs": [
        {
          "internalType": "uint256",
          "name": "",
          "type": "uint256"
        }
      ],
      "stateMutability": "pure",
      "type": "function"
    },
    {
      "inputs": [],
      "name": "createVault",
      "outputs": [],
      "stateMutability": "nonpayable",
      "type": "function"
    },
    {
      "inputs": [],
      "name": "dripPeriod",
      "outputs": [
        {
          "internalType": "uint256",
          "name": "",
          "type": "uint256"
        }
      ],
      "stateMutability": "view",
      "type": "function"
    },
    {
      "inputs": [],
      "name": "feeCollector",
      "outputs": [
        {
          "internalType": "address",
          "name": "",
          "type": "address"
        }
      ],
      "stateMutability": "view",
      "type": "function"
    },
    {
      "inputs": [],
      "name": "highWater",
      "outputs": [
        {
          "internalType": "uint256",
          "name": "",
          "type": "uint256"
        }
      ],
      "stateMutability": "view",
      "type": "function"
    },
    {
      "inputs": [
        {
          "internalType": "address",
          "name": "_addressListFactory",
          "type": "address"
        }
      ],
      "name": "init",
      "outputs": [],
      "stateMutability": "nonpayable",
      "type": "function"
    },
    {
      "inputs": [
        {
          "internalType": "address",
          "name": "_token",
          "type": "address"
        }
      ],
      "name": "isReservedToken",
      "outputs": [
        {
          "internalType": "bool",
          "name": "",
          "type": "bool"
        }
      ],
      "stateMutability": "view",
      "type": "function"
    },
    {
      "inputs": [],
      "name": "isUnderwater",
      "outputs": [
        {
          "internalType": "bool",
          "name": "",
          "type": "bool"
        }
      ],
      "stateMutability": "view",
      "type": "function"
    },
    {
      "inputs": [],
      "name": "keepers",
      "outputs": [
        {
          "internalType": "contract IAddressList",
          "name": "",
          "type": "address"
        }
      ],
      "stateMutability": "view",
      "type": "function"
    },
    {
      "inputs": [],
      "name": "lowWater",
      "outputs": [
        {
          "internalType": "uint256",
          "name": "",
          "type": "uint256"
        }
      ],
      "stateMutability": "view",
      "type": "function"
    },
    {
      "inputs": [
        {
          "internalType": "address",
          "name": "_newStrategy",
          "type": "address"
        }
      ],
      "name": "migrate",
      "outputs": [],
      "stateMutability": "nonpayable",
      "type": "function"
    },
    {
      "inputs": [],
      "name": "pool",
      "outputs": [
        {
          "internalType": "address",
          "name": "",
          "type": "address"
        }
      ],
      "stateMutability": "view",
      "type": "function"
    },
    {
      "inputs": [],
      "name": "rebalance",
      "outputs": [],
      "stateMutability": "nonpayable",
      "type": "function"
    },
    {
      "inputs": [],
      "name": "receiptToken",
      "outputs": [
        {
          "internalType": "address",
          "name": "",
          "type": "address"
        }
      ],
      "stateMutability": "view",
      "type": "function"
    },
    {
      "inputs": [
        {
          "internalType": "address",
          "name": "_keeperAddress",
          "type": "address"
        }
      ],
      "name": "removeKeeper",
      "outputs": [],
      "stateMutability": "nonpayable",
      "type": "function"
    },
    {
      "inputs": [],
      "name": "resurface",
      "outputs": [],
      "stateMutability": "nonpayable",
      "type": "function"
    },
    {
      "inputs": [],
      "name": "swapManager",
      "outputs": [
        {
          "internalType": "contract ISwapManager",
          "name": "",
          "type": "address"
        }
      ],
      "stateMutability": "view",
      "type": "function"
    },
    {
      "inputs": [
        {
          "internalType": "address",
          "name": "_fromToken",
          "type": "address"
        }
      ],
      "name": "sweepERC20",
      "outputs": [],
      "stateMutability": "nonpayable",
      "type": "function"
    },
    {
      "inputs": [],
      "name": "token",
      "outputs": [
        {
          "internalType": "address",
          "name": "",
          "type": "address"
        }
      ],
      "stateMutability": "view",
      "type": "function"
    },
    {
      "inputs": [],
      "name": "totalEarned",
      "outputs": [
        {
          "internalType": "uint256",
          "name": "",
          "type": "uint256"
        }
      ],
      "stateMutability": "view",
      "type": "function"
    },
    {
      "inputs": [],
      "name": "totalValue",
      "outputs": [
        {
          "internalType": "uint256",
          "name": "_totalValue",
          "type": "uint256"
        }
      ],
      "stateMutability": "view",
      "type": "function"
    },
    {
      "inputs": [
        {
          "internalType": "uint256",
          "name": "_highWater",
          "type": "uint256"
        },
        {
          "internalType": "uint256",
          "name": "_lowWater",
          "type": "uint256"
        }
      ],
      "name": "updateBalancingFactor",
      "outputs": [],
      "stateMutability": "nonpayable",
      "type": "function"
    },
    {
      "inputs": [
        {
          "internalType": "uint256",
          "name": "_dripPeriod",
          "type": "uint256"
        }
      ],
      "name": "updateDripPeriod",
      "outputs": [],
      "stateMutability": "nonpayable",
      "type": "function"
    },
    {
      "inputs": [
        {
          "internalType": "address",
          "name": "_feeCollector",
          "type": "address"
        }
      ],
      "name": "updateFeeCollector",
      "outputs": [],
      "stateMutability": "nonpayable",
      "type": "function"
    },
    {
      "inputs": [
        {
          "internalType": "address",
          "name": "_swapManager",
          "type": "address"
        }
      ],
      "name": "updateSwapManager",
      "outputs": [],
      "stateMutability": "nonpayable",
      "type": "function"
    },
    {
      "inputs": [],
      "name": "vaultNum",
      "outputs": [
        {
          "internalType": "uint256",
          "name": "",
          "type": "uint256"
        }
      ],
      "stateMutability": "view",
      "type": "function"
    },
    {
      "inputs": [
        {
          "internalType": "uint256",
          "name": "_amount",
          "type": "uint256"
        }
      ],
      "name": "withdraw",
      "outputs": [],
      "stateMutability": "nonpayable",
      "type": "function"
    }
  ],
  "transactionHash": "0xcae34169cfadb2ccec678a5a8dfe48569b44d3bbccc2a3c063ccb38fad6b4748",
  "args": [
    "0xA89566489E932a2d334b9eFF7884Feb21a07d2B3",
    "0xaBC64889601F01e7B26277Ef8756250d6ABf8c18",
    "0xB73A2A2FF72b112e8D2D324ba8Eca904ab9F24c4"
  ],
  "solcInputHash": "c3d492b34dbdb93ec393fc77342e476c",
  "bytecode": "0x6101406040526202a3006000553480156200001957600080fd5b5060405162004ebd38038062004ebd8339810160408190526200003c91620002b2565b828282735d3a536e4d6dbd6114cc1ead35777bab948e3643644554482d4360d81b848484848484848484848483836001600160a01b038316620000c65760405162461bcd60e51b815260206004820152601460248201527f706f6f6c2d616464726573732d69732d7a65726f00000000000000000000000060448201526064015b60405180910390fd5b6001600160a01b038216620001135760405162461bcd60e51b8152602060048201526012602482015271736d2d616464726573732d69732d7a65726f60701b6044820152606401620000bd565b600480546001600160a01b0319166001600160a01b03848116919091178255606085901b6001600160601b03191660c05260408051637e062a3560e11b815290519186169263fc0c546a928282019260209290829003018186803b1580156200017b57600080fd5b505afa15801562000190573d6000803e3d6000fd5b505050506040513d601f19601f82011682018060405250810190620001b6919062000305565b6001600160601b0319606091821b811660805291901b1660a05250506001600160a01b0384166200021f5760405162461bcd60e51b8152602060048201526012602482015271636d2d616464726573732d69732d7a65726f60701b6044820152606401620000bd565b61010052505060601b6001600160601b03191660e052506001600160a01b0382166200028e5760405162461bcd60e51b815260206004820152601660248201527f63546f6b656e2d616464726573732d69732d7a65726f000000000000000000006044820152606401620000bd565b5060601b6001600160601b0319166101205250620003449950505050505050505050565b600080600060608486031215620002c7578283fd5b8351620002d4816200032b565b6020850151909350620002e7816200032b565b6040850151909250620002fa816200032b565b809150509250925092565b60006020828403121562000317578081fd5b815162000324816200032b565b9392505050565b6001600160a01b03811681146200034157600080fd5b50565b60805160601c60a05160601c60c05160601c60e05160601c610100516101205160601c61497d6200054060003960008181612254015281816122f80152818161392f01528181613e990152613f86015260008181610471015261125001526000818161034f01528181610c0f01528181610ee00152818161127601528181611bd001528181611e9c015281816123f701528181612574015281816126f201528181612a8001528181612b0d01528181612de801528181612ff3015281816130ed015281816132890152818161330d0152818161335a01528181613465015281816134b90152613ab701526000818161022501528181610517015281816106a6015281816107ab01528181610a2601528181610d4a01528181610fcf01528181611182015281816113e001528181611505015281816116820152818161174b015281816119db015281816121ee015281816127f40152818161288701528181612924015281816131a8015261350d015260008181610498015281816104cd01528181610f6b0152818161185f015281816118e30152612c720152600081816103e30152818161192d015281816119b201528181611ca001528181611df301528181612028015281816122180152818161249e015281816129e0015281816131e101528181613497015281816134eb0152613640015261497d6000f3fe608060405234801561001057600080fd5b50600436106102065760003560e01c8063931816201161011a578063ce5494bb116100ad578063e824600f1161007c578063e824600f1461046c578063ec78e83214610493578063fb589de2146104ba578063fc0c546a146104cb578063ffa1ad74146104f157610206565b8063ce5494bb1461042b578063d2c35ce81461043e578063d4c3eea014610451578063e00af4a71461045957610206565b8063b09e8797116100e9578063b09e8797146103d5578063b2016bd4146103de578063b442bb2314610405578063c415b95c1461041857610206565b8063931816201461034a578063951dc22c1461037157806399b71d5c14610384578063a3f4df7e1461038c57610206565b80634032b72b1161019d5780635d12928b1161016c5780635d12928b146103155780636dfa8d991461031d578063709d039d1461032657806371506414146103395780637d7c2a1c1461034257610206565b80634032b72b146102d4578063415eea1b146102e7578063440d7248146102ef5780634c36fad71461030257610206565b806325afda83116101d957806325afda831461028a5780632e1a7d4d146102a15780632ecd89d4146102b45780633e918261146102cc57610206565b806314ae9f2e1461020b57806316f0115b146102205780631960d1161461026457806319ab453c14610277575b600080fd5b61021e61021936600461440d565b610515565b005b6102477f000000000000000000000000000000000000000000000000000000000000000081565b6040516001600160a01b0390911681526020015b60405180910390f35b61021e6102723660046145ea565b6106a4565b61021e61028536600461440d565b6107a9565b61029360065481565b60405190815260200161025b565b61021e6102af3660046145ea565b610a23565b6102bc610aa0565b604051901515815260200161025b565b61021e610c99565b61021e6102e236600461440d565b610d48565b610293610ec8565b6102bc6102fd36600461440d565b610f67565b61021e61031036600461440d565b610fcd565b61021e611180565b61029360015481565b600454610247906001600160a01b031681565b61029360005481565b61021e6112fa565b6102477f000000000000000000000000000000000000000000000000000000000000000081565b600254610247906001600160a01b031681565b61021e611449565b6103c86040518060400160405280601c81526020017f4561726e2d416176652d4d616b65722d53747261746567792d4554480000000081525081565b60405161025b9190614726565b61029360055481565b6102477f000000000000000000000000000000000000000000000000000000000000000081565b61021e61041336600461461a565b611503565b600354610247906001600160a01b031681565b61021e61043936600461440d565b61167f565b61021e61044c36600461440d565b6119d9565b610293611ba2565b61021e61046736600461440d565b611f31565b6102937f000000000000000000000000000000000000000000000000000000000000000081565b6102477f000000000000000000000000000000000000000000000000000000000000000081565b6102936104c83660046145ea565b90565b7f0000000000000000000000000000000000000000000000000000000000000000610247565b6103c8604051806040016040528060058152602001640332e302e360dc1b81525081565b7f00000000000000000000000000000000000000000000000000000000000000006001600160a01b0316630c340a246040518163ffffffff1660e01b815260040160206040518083038186803b15801561056e57600080fd5b505afa158015610582573d6000803e3d6000fd5b505050506040513d601f19601f820116820180604052508101906105a69190614429565b6001600160a01b0316336001600160a01b0316146105df5760405162461bcd60e51b81526004016105d690614789565b60405180910390fd5b600254604051631484968760e11b81526001600160a01b038381166004830152909116906329092d0e90602401602060405180830381600087803b15801561062657600080fd5b505af115801561063a573d6000803e3d6000fd5b505050506040513d601f19601f8201168201806040525081019061065e919061456b565b6106a15760405162461bcd60e51b81526020600482015260146024820152731c995b5bdd994b5ad9595c195c8b59985a5b195960621b60448201526064016105d6565b50565b7f00000000000000000000000000000000000000000000000000000000000000006001600160a01b0316630c340a246040518163ffffffff1660e01b815260040160206040518083038186803b1580156106fd57600080fd5b505afa158015610711573d6000803e3d6000fd5b505050506040513d601f19601f820116820180604052508101906107359190614429565b6001600160a01b0316336001600160a01b0316146107655760405162461bcd60e51b81526004016105d690614789565b806107a45760405162461bcd60e51b815260206004820152600f60248201526e64726970506572696f642d7a65726f60881b60448201526064016105d6565b600055565b7f00000000000000000000000000000000000000000000000000000000000000006001600160a01b0316630c340a246040518163ffffffff1660e01b815260040160206040518083038186803b15801561080257600080fd5b505afa158015610816573d6000803e3d6000fd5b505050506040513d601f19601f8201168201806040525081019061083a9190614429565b6001600160a01b0316336001600160a01b03161461086a5760405162461bcd60e51b81526004016105d690614789565b6002546001600160a01b0316156108c35760405162461bcd60e51b815260206004820152601b60248201527f6b65657065722d6c6973742d616c72656164792d63726561746564000000000060448201526064016105d6565b6000819050806001600160a01b0316630fab4d256040518163ffffffff1660e01b8152600401602060405180830381600087803b15801561090357600080fd5b505af1158015610917573d6000803e3d6000fd5b505050506040513d601f19601f8201168201806040525081019061093b9190614429565b600280546001600160a01b0319166001600160a01b03929092169182179055630a3b0a4f6109663390565b6040516001600160e01b031960e084901b1681526001600160a01b039091166004820152602401602060405180830381600087803b1580156109a757600080fd5b505af11580156109bb573d6000803e3d6000fd5b505050506040513d601f19601f820116820180604052508101906109df919061456b565b610a1f5760405162461bcd60e51b81526020600482015260116024820152701859190b5ad9595c195c8b59985a5b1959607a1b60448201526064016105d6565b5050565b337f00000000000000000000000000000000000000000000000000000000000000006001600160a01b031614610a975760405162461bcd60e51b815260206004820152601960248201527818d85b1b195c8b5a5ccb5b9bdd0b5d995cdc195c8b5c1bdbdb603a1b60448201526064016105d6565b6106a1816121cc565b60405163331faf7160e21b81523060048201526000908190733d9819210a31b4961b30ef54be2aed79b9c9cd3b9063cc7ebdc49060240160206040518083038186803b158015610aef57600080fd5b505afa158015610b03573d6000803e3d6000fd5b505050506040513d601f19601f82011682018060405250810190610b279190614602565b905060008115610be757600480546040516340b4c54560e11b81526001600160a01b03909116916381698a8a91610b8f9173c00e94cb662c3520282e6f5717214004a7f2688891736b175474e89094c44da98b954eedeac495271d0f918891600091016146d9565b60006040518083038186803b158015610ba757600080fd5b505afa158015610bbb573d6000803e3d6000fd5b505050506040513d6000823e601f3d908101601f19168201604052610be39190810190614445565b9150505b80610bf0612247565b610bfa9190614851565b60405163c0af0d3b60e01b81523060048201527f00000000000000000000000000000000000000000000000000000000000000006001600160a01b03169063c0af0d3b9060240160206040518083038186803b158015610c5957600080fd5b505afa158015610c6d573d6000803e3d6000fd5b505050506040513d601f19601f82011682018060405250810190610c919190614602565b119250505090565b6002546001600160a01b0316635dbe47e8336040516001600160e01b031960e084901b1681526001600160a01b03909116600482015260240160206040518083038186803b158015610cea57600080fd5b505afa158015610cfe573d6000803e3d6000fd5b505050506040513d601f19601f82011682018060405250810190610d22919061456b565b610d3e5760405162461bcd60e51b81526004016105d690614759565b610d4661238e565b565b7f00000000000000000000000000000000000000000000000000000000000000006001600160a01b0316630c340a246040518163ffffffff1660e01b815260040160206040518083038186803b158015610da157600080fd5b505afa158015610db5573d6000803e3d6000fd5b505050506040513d601f19601f82011682018060405250810190610dd99190614429565b6001600160a01b0316336001600160a01b031614610e095760405162461bcd60e51b81526004016105d690614789565b600254604051630a3b0a4f60e01b81526001600160a01b03838116600483015290911690630a3b0a4f90602401602060405180830381600087803b158015610e5057600080fd5b505af1158015610e64573d6000803e3d6000fd5b505050506040513d601f19601f82011682018060405250810190610e88919061456b565b6106a15760405162461bcd60e51b81526020600482015260116024820152701859190b5ad9595c195c8b59985a5b1959607a1b60448201526064016105d6565b60405163cd1adb6160e01b81523060048201526000907f00000000000000000000000000000000000000000000000000000000000000006001600160a01b03169063cd1adb619060240160206040518083038186803b158015610f2a57600080fd5b505afa158015610f3e573d6000803e3d6000fd5b505050506040513d601f19601f82011682018060405250810190610f629190614602565b905090565b60007f00000000000000000000000000000000000000000000000000000000000000006001600160a01b0316826001600160a01b03161480610fc557506001600160a01b03821673c00e94cb662c3520282e6f5717214004a7f26888145b90505b919050565b7f00000000000000000000000000000000000000000000000000000000000000006001600160a01b0316630c340a246040518163ffffffff1660e01b815260040160206040518083038186803b15801561102657600080fd5b505afa15801561103a573d6000803e3d6000fd5b505050506040513d601f19601f8201168201806040525081019061105e9190614429565b6001600160a01b0316336001600160a01b03161461108e5760405162461bcd60e51b81526004016105d690614789565b6001600160a01b0381166110d95760405162461bcd60e51b8152602060048201526012602482015271736d2d616464726573732d69732d7a65726f60701b60448201526064016105d6565b6004546001600160a01b03828116911614156111245760405162461bcd60e51b815260206004820152600a602482015269736d2d69732d73616d6560b01b60448201526064016105d6565b6004546040516001600160a01b038084169216907f2d19927e7cac08ceb98b38898a4fdff6da6a27295b9a2d62fe250408ebe044e190600090a3600480546001600160a01b0319166001600160a01b0392909216919091179055565b7f00000000000000000000000000000000000000000000000000000000000000006001600160a01b0316630c340a246040518163ffffffff1660e01b815260040160206040518083038186803b1580156111d957600080fd5b505afa1580156111ed573d6000803e3d6000fd5b505050506040513d601f19601f820116820180604052508101906112119190614429565b6001600160a01b0316336001600160a01b0316146112415760405162461bcd60e51b81526004016105d690614789565b604051630bbccf9b60e11b81527f000000000000000000000000000000000000000000000000000000000000000060048201527f00000000000000000000000000000000000000000000000000000000000000006001600160a01b0316906317799f3690602401602060405180830381600087803b1580156112c257600080fd5b505af11580156112d6573d6000803e3d6000fd5b505050506040513d601f19601f820116820180604052508101906106a19190614602565b6002546001600160a01b0316635dbe47e8336040516001600160e01b031960e084901b1681526001600160a01b03909116600482015260240160206040518083038186803b15801561134b57600080fd5b505afa15801561135f573d6000803e3d6000fd5b505050506040513d601f19601f82011682018060405250810190611383919061456b565b61139f5760405162461bcd60e51b81526004016105d690614759565b60008060006113ac612861565b6040516302df682360e11b815260048101849052602481018390526044810182905292955090935091506001600160a01b037f000000000000000000000000000000000000000000000000000000000000000016906305bed04690606401600060405180830381600087803b15801561142457600080fd5b505af1158015611438573d6000803e3d6000fd5b505050506114446129c8565b505050565b6002546001600160a01b0316635dbe47e8336040516001600160e01b031960e084901b1681526001600160a01b03909116600482015260240160206040518083038186803b15801561149a57600080fd5b505afa1580156114ae573d6000803e3d6000fd5b505050506040513d601f19601f820116820180604052508101906114d2919061456b565b6114ee5760405162461bcd60e51b81526004016105d690614759565b6114f86000612c4f565b610d46600019612c4f565b7f00000000000000000000000000000000000000000000000000000000000000006001600160a01b0316630c340a246040518163ffffffff1660e01b815260040160206040518083038186803b15801561155c57600080fd5b505afa158015611570573d6000803e3d6000fd5b505050506040513d601f19601f820116820180604052508101906115949190614429565b6001600160a01b0316336001600160a01b0316146115c45760405162461bcd60e51b81526004016105d690614789565b806116045760405162461bcd60e51b815260206004820152601060248201526f6c6f7757617465722d69732d7a65726f60801b60448201526064016105d6565b8082116116535760405162461bcd60e51b815260206004820152601c60248201527f6869676857617465722d6c6573732d7468616e2d6c6f7757617465720000000060448201526064016105d6565b611664662386f26fc1000083614889565b600555611678662386f26fc1000082614889565b6006555050565b337f00000000000000000000000000000000000000000000000000000000000000006001600160a01b0316146116f35760405162461bcd60e51b815260206004820152601960248201527818d85b1b195c8b5a5ccb5b9bdd0b5d995cdc195c8b5c1bdbdb603a1b60448201526064016105d6565b6001600160a01b0381166117495760405162461bcd60e51b815260206004820152601c60248201527f6e65772d73747261746567792d616464726573732d69732d7a65726f0000000060448201526064016105d6565b7f00000000000000000000000000000000000000000000000000000000000000006001600160a01b0316816001600160a01b03166316f0115b6040518163ffffffff1660e01b815260040160206040518083038186803b1580156117ac57600080fd5b505afa1580156117c0573d6000803e3d6000fd5b505050506040513d601f19601f820116820180604052508101906117e49190614429565b6001600160a01b0316146118335760405162461bcd60e51b81526020600482015260166024820152756e6f742d76616c69642d6e65772d737472617465677960501b60448201526064016105d6565b61183c81612dc9565b6040516370a0823160e01b815230600482015261190a9082906001600160a01b037f000000000000000000000000000000000000000000000000000000000000000016906370a082319060240160206040518083038186803b1580156118a157600080fd5b505afa1580156118b5573d6000803e3d6000fd5b505050506040513d601f19601f820116820180604052508101906118d99190614602565b6001600160a01b037f0000000000000000000000000000000000000000000000000000000000000000169190612e48565b6040516370a0823160e01b81523060048201526106a19082906001600160a01b037f000000000000000000000000000000000000000000000000000000000000000016906370a08231906024015b60206040518083038186803b15801561197057600080fd5b505afa158015611984573d6000803e3d6000fd5b505050506040513d601f19601f820116820180604052508101906119a89190614602565b6001600160a01b037f0000000000000000000000000000000000000000000000000000000000000000169190612e48565b7f00000000000000000000000000000000000000000000000000000000000000006001600160a01b0316630c340a246040518163ffffffff1660e01b815260040160206040518083038186803b158015611a3257600080fd5b505afa158015611a46573d6000803e3d6000fd5b505050506040513d601f19601f82011682018060405250810190611a6a9190614429565b6001600160a01b0316336001600160a01b031614611a9a5760405162461bcd60e51b81526004016105d690614789565b6001600160a01b038116611af05760405162461bcd60e51b815260206004820152601d60248201527f6665652d636f6c6c6563746f722d616464726573732d69732d7a65726f00000060448201526064016105d6565b6003546001600160a01b0382811691161415611b465760405162461bcd60e51b81526020600482015260156024820152746665652d636f6c6c6563746f722d69732d73616d6560581b60448201526064016105d6565b6003546040516001600160a01b038084169216907f0f06062680f9bd68e786e9980d9bb03d73d5620fc3b345e417b6eacb310b970690600090a3600380546001600160a01b0319166001600160a01b0392909216919091179055565b600080611bad612247565b60405163c0af0d3b60e01b81523060048201529091506000906001600160a01b037f0000000000000000000000000000000000000000000000000000000000000000169063c0af0d3b9060240160206040518083038186803b158015611c1257600080fd5b505afa158015611c26573d6000803e3d6000fd5b505050506040513d601f19601f82011682018060405250810190611c4a9190614602565b905080821115611d24576000611c6082846148a8565b600480546040516340b4c54560e11b81529293506001600160a01b0316916381698a8a91611ccb91736b175474e89094c44da98b954eedeac495271d0f917f0000000000000000000000000000000000000000000000000000000000000000918791600091016146d9565b60006040518083038186803b158015611ce357600080fd5b505afa158015611cf7573d6000803e3d6000fd5b505050506040513d6000823e601f3d908101601f19168201604052611d1f9190810190614445565b945050505b60405163331faf7160e21b8152306004820152600090733d9819210a31b4961b30ef54be2aed79b9c9cd3b9063cc7ebdc49060240160206040518083038186803b158015611d7157600080fd5b505afa158015611d85573d6000803e3d6000fd5b505050506040513d601f19601f82011682018060405250810190611da99190614602565b90508015611e8357600480546040516340b4c54560e11b81526000926001600160a01b03909216916381698a8a91611e1d9173c00e94cb662c3520282e6f5717214004a7f26888917f00000000000000000000000000000000000000000000000000000000000000009188918891016146d9565b60006040518083038186803b158015611e3557600080fd5b505afa158015611e49573d6000803e3d6000fd5b505050506040513d6000823e601f3d908101601f19168201604052611e719190810190614445565b9150611e7f90508186614851565b9450505b6040516369ebe00160e11b8152306004820152611f1f907f00000000000000000000000000000000000000000000000000000000000000006001600160a01b03169063d3d7c002906024015b60206040518083038186803b158015611ee757600080fd5b505afa158015611efb573d6000803e3d6000fd5b505050506040513d601f19601f820116820180604052508101906104c89190614602565b611f299085614851565b935050505090565b6002546001600160a01b0316635dbe47e8336040516001600160e01b031960e084901b1681526001600160a01b03909116600482015260240160206040518083038186803b158015611f8257600080fd5b505afa158015611f96573d6000803e3d6000fd5b505050506040513d601f19601f82011682018060405250810190611fba919061456b565b611fd65760405162461bcd60e51b81526004016105d690614759565b6003546001600160a01b03166120265760405162461bcd60e51b81526020600482015260156024820152741999594b58dbdb1b1958dd1bdc8b5b9bdd0b5cd95d605a1b60448201526064016105d6565b7f00000000000000000000000000000000000000000000000000000000000000006001600160a01b0316816001600160a01b031614156120a85760405162461bcd60e51b815260206004820152601f60248201527f6e6f742d616c6c6f7765642d746f2d73776565702d636f6c6c61746572616c0060448201526064016105d6565b6120b181610f67565b156120f55760405162461bcd60e51b815260206004820152601460248201527306e6f742d616c6c6f7765642d746f2d73776565760641b60448201526064016105d6565b6001600160a01b03811673eeeeeeeeeeeeeeeeeeeeeeeeeeeeeeeeeeeeeeee141561213557600354612130906001600160a01b031647612eab565b6106a1565b6040516370a0823160e01b81523060048201526000906001600160a01b038316906370a082319060240160206040518083038186803b15801561217757600080fd5b505afa15801561218b573d6000803e3d6000fd5b505050506040513d601f19601f820116820180604052508101906121af9190614602565b600354909150610a1f906001600160a01b03848116911683612e48565b6121d581612fc4565b6040516370a0823160e01b81523060048201526106a1907f0000000000000000000000000000000000000000000000000000000000000000906001600160a01b037f000000000000000000000000000000000000000000000000000000000000000016906370a0823190602401611958565b6000670de0b6b3a76400007f00000000000000000000000000000000000000000000000000000000000000006001600160a01b031663182df0f56040518163ffffffff1660e01b815260040160206040518083038186803b1580156122ab57600080fd5b505afa1580156122bf573d6000803e3d6000fd5b505050506040513d601f19601f820116820180604052508101906122e39190614602565b6040516370a0823160e01b81523060048201527f00000000000000000000000000000000000000000000000000000000000000006001600160a01b0316906370a082319060240160206040518083038186803b15801561234257600080fd5b505afa158015612356573d6000803e3d6000fd5b505050506040513d601f19601f8201168201806040525081019061237a9190614602565b6123849190614889565b610f629190614869565b612396610aa0565b6123d85760405162461bcd60e51b81526020600482015260136024820152723837b7b616b4b996b0b137bb3296bbb0ba32b960691b60448201526064016105d6565b60006123e2612247565b60405163c0af0d3b60e01b81523060048201527f00000000000000000000000000000000000000000000000000000000000000006001600160a01b03169063c0af0d3b9060240160206040518083038186803b15801561244157600080fd5b505afa158015612455573d6000803e3d6000fd5b505050506040513d601f19601f820116820180604052508101906124799190614602565b61248391906148a8565b60048054604051637a6f237b60e11b81526001600160a01b037f0000000000000000000000000000000000000000000000000000000000000000811693820193909352736b175474e89094c44da98b954eedeac495271d0f60248201526044810184905292935060009283928392169063f4de46f69060640160006040518083038186803b15801561251457600080fd5b505afa158015612528573d6000803e3d6000fd5b505050506040513d6000823e601f3d908101601f19168201604052612550919081019061448a565b9250925092508160001461285b576040516330897f1760e11b8152600481018390527f00000000000000000000000000000000000000000000000000000000000000006001600160a01b031690636112fe2e90602401600060405180830381600087803b1580156125c057600080fd5b505af11580156125d4573d6000803e3d6000fd5b505060048054604051636e74a6f760e01b81529182018590526001600160a01b03169250636e74a6f7915060240160206040518083038186803b15801561261a57600080fd5b505afa15801561262e573d6000803e3d6000fd5b505050506040513d601f19601f820116820180604052508101906126529190614429565b6001600160a01b03166338ed17398360018630426040518663ffffffff1660e01b81526004016126869594939291906147c0565b600060405180830381600087803b1580156126a057600080fd5b505af11580156126b4573d6000803e3d6000fd5b505050506040513d6000823e601f3d908101601f191682016040526126dc91908101906144d8565b506040516370a0823160e01b81523060048201527f00000000000000000000000000000000000000000000000000000000000000006001600160a01b03169063a846c2fd90736b175474e89094c44da98b954eedeac495271d0f906370a082319060240160206040518083038186803b15801561275857600080fd5b505afa15801561276c573d6000803e3d6000fd5b505050506040513d601f19601f820116820180604052508101906127909190614602565b6040518263ffffffff1660e01b81526004016127ae91815260200190565b600060405180830381600087803b1580156127c857600080fd5b505af11580156127dc573d6000803e3d6000fd5b50506040516306eeb69360e51b8152600481018790527f00000000000000000000000000000000000000000000000000000000000000006001600160a01b0316925063ddd6d2609150602401600060405180830381600087803b15801561284257600080fd5b505af1158015612856573d6000803e3d6000fd5b505050505b50505050565b604051636a9eee1360e11b81523060048201526000908190819081906001600160a01b037f0000000000000000000000000000000000000000000000000000000000000000169063d53ddc269060240160206040518083038186803b1580156128c957600080fd5b505afa1580156128dd573d6000803e3d6000fd5b505050506040513d601f19601f820116820180604052508101906129019190614602565b604051639f2b283360e01b81523060048201529091506000906001600160a01b037f00000000000000000000000000000000000000000000000000000000000000001690639f2b28339060240160206040518083038186803b15801561296657600080fd5b505afa15801561297a573d6000803e3d6000fd5b505050506040513d601f19601f8201168201806040525081019061299e9190614602565b90506129a981613159565b94506129b481613263565b93506129bf826132d9565b92505050909192565b6040516370a0823160e01b81523060048201526000907f00000000000000000000000000000000000000000000000000000000000000006001600160a01b0316906370a082319060240160206040518083038186803b158015612a2a57600080fd5b505afa158015612a3e573d6000803e3d6000fd5b505050506040513d601f19601f82011682018060405250810190612a629190614602565b90508015612ae55760405163bad4a01f60e01b8152600481018290527f00000000000000000000000000000000000000000000000000000000000000006001600160a01b03169063bad4a01f90602401600060405180830381600087803b158015612acc57600080fd5b505af1158015612ae0573d6000803e3d6000fd5b505050505b6040516390229af760e01b815230600482015260009081908190819081906001600160a01b037f000000000000000000000000000000000000000000000000000000000000000016906390229af79060240160a06040518083038186803b158015612b4f57600080fd5b505afa158015612b63573d6000803e3d6000fd5b505050506040513d601f19601f82011682018060405250810190612b87919061463b565b9450945094509450945060006005548487612ba29190614889565b612bac9190614869565b905081811015612bc457612bbf856132e8565b612c46565b600554831115612c2a57612bd6610aa0565b15612c185760405162461bcd60e51b81526020600482015260126024820152713837b7b616b4b996bab73232b93bb0ba32b960711b60448201526064016105d6565b612bbf612c2586836148a8565b613344565b600654831015612c4657612c46612c4182876148a8565b6132e8565b50505050505050565b612c588161344b565b612c97736b175474e89094c44da98b954eedeac495271d0f7f000000000000000000000000000000000000000000000000000000000000000083613715565b60005b600480546040805163c2fba66760e01b815290516001600160a01b039092169263c2fba667928282019260209290829003018186803b158015612cdc57600080fd5b505afa158015612cf0573d6000803e3d6000fd5b505050506040513d601f19601f82011682018060405250810190612d149190614602565b811015610a1f5760048054604051636e74a6f760e01b8152918201839052612db7916001600160a01b0390911690636e74a6f79060240160206040518083038186803b158015612d6357600080fd5b505afa158015612d77573d6000803e3d6000fd5b505050506040513d601f19601f82011682018060405250810190612d9b9190614429565b73c00e94cb662c3520282e6f5717214004a7f268889084613715565b80612dc1816148eb565b915050612c9a565b604051637038e06560e11b81526001600160a01b0382811660048301527f0000000000000000000000000000000000000000000000000000000000000000169063e071c0ca906024015b600060405180830381600087803b158015612e2d57600080fd5b505af1158015612e41573d6000803e3d6000fd5b5050505050565b6040516001600160a01b03831660248201526044810182905261144490849063a9059cbb60e01b906064015b60408051601f198184030181529190526020810180516001600160e01b03166001600160e01b031990931692909217909152613839565b80471015612efb5760405162461bcd60e51b815260206004820152601d60248201527f416464726573733a20696e73756666696369656e742062616c616e636500000060448201526064016105d6565b6000826001600160a01b03168260405160006040518083038185875af1925050503d8060008114612f48576040519150601f19603f3d011682016040523d82523d6000602084013e612f4d565b606091505b50509050806114445760405162461bcd60e51b815260206004820152603a60248201527f416464726573733a20756e61626c6520746f2073656e642076616c75652c207260448201527f6563697069656e74206d6179206861766520726576657274656400000000000060648201526084016105d6565b604051630a5ab5dd60e31b81523060048201526024810182905260009081908190819081906001600160a01b037f000000000000000000000000000000000000000000000000000000000000000016906352d5aee89060440160a06040518083038186803b15801561303557600080fd5b505afa158015613049573d6000803e3d6000fd5b505050506040513d601f19601f8201168201806040525081019061306d919061463b565b9450945094509450945083600014158015613089575060065482105b156130d75760055460009061309e8588614889565b6130a89190614869565b9050818110156130c0576130bb856132e8565b6130d5565b848110156130d5576130d5612c4182876148a8565b505b6040516330897f1760e11b8152600481018790527f00000000000000000000000000000000000000000000000000000000000000006001600160a01b031690636112fe2e90602401600060405180830381600087803b15801561313957600080fd5b505af115801561314d573d6000803e3d6000fd5b50505050505050505050565b6000613178736b175474e89094c44da98b954eedeac495271d0f61390b565b613180613a9f565b6003546131cc90736b175474e89094c44da98b954eedeac495271d0f906001600160a01b03167f0000000000000000000000000000000000000000000000000000000000000000613c23565b6040516370a0823160e01b81523060048201527f00000000000000000000000000000000000000000000000000000000000000006001600160a01b0316906370a082319060240160206040518083038186803b15801561322b57600080fd5b505afa15801561323f573d6000803e3d6000fd5b505050506040513d601f19601f82011682018060405250810190610fc59190614602565b6040516369ebe00160e11b815230600482015260009081906132b8906001600160a01b037f0000000000000000000000000000000000000000000000000000000000000000169063d3d7c00290602401611ecf565b90508083116132c85760006132d2565b6132d281846148a8565b9392505050565b60006132e482612fc4565b5090565b80156106a1576132f781613e83565b60405163a846c2fd60e01b8152600481018290527f00000000000000000000000000000000000000000000000000000000000000006001600160a01b03169063a846c2fd90602401612e13565b60405163317afabb60e21b8152600481018290527f00000000000000000000000000000000000000000000000000000000000000006001600160a01b03169063c5ebeaec90602401600060405180830381600087803b1580156133a657600080fd5b505af11580156133ba573d6000803e3d6000fd5b50506040516370a0823160e01b8152306004820152736b175474e89094c44da98b954eedeac495271d0f92506370a08231915060240160206040518083038186803b15801561340857600080fd5b505afa15801561341c573d6000803e3d6000fd5b505050506040513d601f19601f820116820180604052508101906134409190614602565b90506106a181613f6a565b61348a736b175474e89094c44da98b954eedeac495271d0f7f000000000000000000000000000000000000000000000000000000000000000083613715565b6134de6001600160a01b037f0000000000000000000000000000000000000000000000000000000000000000167f000000000000000000000000000000000000000000000000000000000000000083613715565b6135326001600160a01b037f0000000000000000000000000000000000000000000000000000000000000000167f000000000000000000000000000000000000000000000000000000000000000083613715565b60005b600480546040805163c2fba66760e01b815290516001600160a01b039092169263c2fba667928282019260209290829003018186803b15801561357757600080fd5b505afa15801561358b573d6000803e3d6000fd5b505050506040513d601f19601f820116820180604052508101906135af9190614602565b811015610a1f5760048054604051636e74a6f760e01b8152918201839052613667916001600160a01b0390911690636e74a6f79060240160206040518083038186803b1580156135fe57600080fd5b505afa158015613612573d6000803e3d6000fd5b505050506040513d601f19601f820116820180604052508101906136369190614429565b6001600160a01b037f0000000000000000000000000000000000000000000000000000000000000000169084613715565b60048054604051636e74a6f760e01b8152918201839052613703916001600160a01b0390911690636e74a6f79060240160206040518083038186803b1580156136af57600080fd5b505afa1580156136c3573d6000803e3d6000fd5b505050506040513d601f19601f820116820180604052508101906136e79190614429565b736b175474e89094c44da98b954eedeac495271d0f9084613715565b8061370d816148eb565b915050613535565b80158061379e5750604051636eb1769f60e11b81523060048201526001600160a01b03838116602483015284169063dd62ed3e9060440160206040518083038186803b15801561376457600080fd5b505afa158015613778573d6000803e3d6000fd5b505050506040513d601f19601f8201168201806040525081019061379c9190614602565b155b6138095760405162461bcd60e51b815260206004820152603660248201527f5361666545524332303a20617070726f76652066726f6d206e6f6e2d7a65726f60448201527520746f206e6f6e2d7a65726f20616c6c6f77616e636560501b60648201526084016105d6565b6040516001600160a01b03831660248201526044810182905261144490849063095ea7b360e01b90606401612e74565b600061388e826040518060400160405280602081526020017f5361666545524332303a206c6f772d6c6576656c2063616c6c206661696c6564815250856001600160a01b03166140579092919063ffffffff16565b80519091501561144457808060200190518101906138ac919061456b565b6114445760405162461bcd60e51b815260206004820152602a60248201527f5361666545524332303a204552433230206f7065726174696f6e20646964206e6044820152691bdd081cdd58d8d9595960b21b60648201526084016105d6565b604080516001808252818301909252600091602080830190803683370190505090507f00000000000000000000000000000000000000000000000000000000000000008160008151811061396f57634e487b7160e01b600052603260045260246000fd5b6001600160a01b039092166020928302919091019091015260405162e1ed9760e51b8152733d9819210a31b4961b30ef54be2aed79b9c9cd3b90631c3db2e0906139bf9030908590600401614702565b600060405180830381600087803b1580156139d957600080fd5b505af11580156139ed573d6000803e3d6000fd5b50506040516370a0823160e01b81523060048201526000925073c00e94cb662c3520282e6f5717214004a7f2688891506370a082319060240160206040518083038186803b158015613a3e57600080fd5b505afa158015613a52573d6000803e3d6000fd5b505050506040513d601f19601f82011682018060405250810190613a769190614602565b905080156114445761144473c00e94cb662c3520282e6f5717214004a7f268888483600161406e565b60405163c0af0d3b60e01b81523060048201526000907f00000000000000000000000000000000000000000000000000000000000000006001600160a01b03169063c0af0d3b9060240160206040518083038186803b158015613b0157600080fd5b505afa158015613b15573d6000803e3d6000fd5b505050506040513d601f19601f82011682018060405250810190613b399190614602565b90506000613b45612247565b905081811115613b6657613b61613b5c83836148a8565b613e83565b610a1f565b81811015610a1f576000613b7a82846148a8565b6040516370a0823160e01b8152306004820152909150600090736b175474e89094c44da98b954eedeac495271d0f906370a082319060240160206040518083038186803b158015613bca57600080fd5b505afa158015613bde573d6000803e3d6000fd5b505050506040513d601f19601f82011682018060405250810190613c029190614602565b905081811115613c1a57613c1582613f6a565b61285b565b61285b81613f6a565b60405163228bfd9f60e01b81523060048201526000906001600160a01b0383169063228bfd9f906024016101006040518083038186803b158015613c6657600080fd5b505afa158015613c7a573d6000803e3d6000fd5b505050506040513d601f19601f82011682018060405250810190613c9e9190614585565b5050505050509150506000826001600160a01b0316638bc6beb26040518163ffffffff1660e01b8152600401602060405180830381600087803b158015613ce457600080fd5b505af1158015613cf8573d6000803e3d6000fd5b505050506040513d601f19601f82011682018060405250810190613d1c9190614429565b6040516370a0823160e01b81523060048201529091506000906001600160a01b038716906370a082319060240160206040518083038186803b158015613d6157600080fd5b505afa158015613d75573d6000803e3d6000fd5b505050506040513d601f19601f82011682018060405250810190613d999190614602565b90508015613e7b578060016000828254613db39190614851565b9091555060009050612710613dc88584614889565b613dd29190614869565b90508015613dfb57613dee6001600160a01b0388168783612e48565b613df881836148a8565b91505b613e0f6001600160a01b0388168484612e48565b60005460405163246132f960e01b81526001600160a01b0385169163246132f991613e47918691600401918252602082015260400190565b600060405180830381600087803b158015613e6157600080fd5b505af1158015613e75573d6000803e3d6000fd5b50505050505b505050505050565b60405163852a12e360e01b8152600481018290527f00000000000000000000000000000000000000000000000000000000000000006001600160a01b03169063852a12e390602401602060405180830381600087803b158015613ee557600080fd5b505af1158015613ef9573d6000803e3d6000fd5b505050506040513d601f19601f82011682018060405250810190613f1d9190614602565b156106a15760405162461bcd60e51b815260206004820152601d60248201527f77697468647261772d66726f6d2d636f6d706f756e642d6661696c656400000060448201526064016105d6565b80156106a15760405163140e25ad60e31b8152600481018290527f00000000000000000000000000000000000000000000000000000000000000006001600160a01b03169063a0712d6890602401602060405180830381600087803b158015613fd257600080fd5b505af1158015613fe6573d6000803e3d6000fd5b505050506040513d601f19601f8201168201806040525081019061400a9190614602565b156106a15760405162461bcd60e51b815260206004820152601a60248201527f6465706f7369742d696e2d636f6d706f756e642d6661696c656400000000000060448201526064016105d6565b60606140668484600085614224565b949350505050565b60048054604051631d1f307960e31b81526001600160a01b03878116938201939093528583166024820152604481018590526000928392839291169063e8f983c89060640160006040518083038186803b1580156140cb57600080fd5b505afa1580156140df573d6000803e3d6000fd5b505050506040513d6000823e601f3d908101601f19168201604052614107919081019061448a565b925092509250836000141561411b57600193505b8115612c465760048054604051636e74a6f760e01b81529182018390526001600160a01b031690636e74a6f79060240160206040518083038186803b15801561416357600080fd5b505afa158015614177573d6000803e3d6000fd5b505050506040513d601f19601f8201168201806040525081019061419b9190614429565b6001600160a01b03166338ed173986868630426040518663ffffffff1660e01b81526004016141ce9594939291906147c0565b600060405180830381600087803b1580156141e857600080fd5b505af11580156141fc573d6000803e3d6000fd5b505050506040513d6000823e601f3d908101601f1916820160405261285691908101906144d8565b6060824710156142855760405162461bcd60e51b815260206004820152602660248201527f416464726573733a20696e73756666696369656e742062616c616e636520666f6044820152651c8818d85b1b60d21b60648201526084016105d6565b843b6142d35760405162461bcd60e51b815260206004820152601d60248201527f416464726573733a2063616c6c20746f206e6f6e2d636f6e747261637400000060448201526064016105d6565b600080866001600160a01b031685876040516142ef91906146bd565b60006040518083038185875af1925050503d806000811461432c576040519150601f19603f3d011682016040523d82523d6000602084013e614331565b606091505b509150915061434182828661434c565b979650505050505050565b6060831561435b5750816132d2565b82511561436b5782518084602001fd5b8160405162461bcd60e51b81526004016105d69190614726565b600082601f830112614395578081fd5b815160206143aa6143a58361482d565b6147fc565b80838252828201915082860187848660051b89010111156143c9578586fd5b855b858110156143f05781516143de81614932565b845292840192908401906001016143cb565b5090979650505050505050565b80518015158114610fc857600080fd5b60006020828403121561441e578081fd5b81356132d281614932565b60006020828403121561443a578081fd5b81516132d281614932565b60008060408385031215614457578081fd5b825167ffffffffffffffff81111561446d578182fd5b61447985828601614385565b925050602083015190509250929050565b60008060006060848603121561449e578081fd5b835167ffffffffffffffff8111156144b4578182fd5b6144c086828701614385565b93505060208401519150604084015190509250925092565b600060208083850312156144ea578182fd5b825167ffffffffffffffff811115614500578283fd5b8301601f81018513614510578283fd5b805161451e6143a58261482d565b80828252848201915084840188868560051b870101111561453d578687fd5b8694505b8385101561455f578051835260019490940193918501918501614541565b50979650505050505050565b60006020828403121561457c578081fd5b6132d2826143fd565b600080600080600080600080610100898b0312156145a1578384fd5b6145aa896143fd565b97506020890151965060408901519550606089015194506080890151935060a0890151925060c0890151915060e089015190509295985092959890939650565b6000602082840312156145fb578081fd5b5035919050565b600060208284031215614613578081fd5b5051919050565b6000806040838503121561462c578182fd5b50508035926020909101359150565b600080600080600060a08688031215614652578081fd5b5050835160208501516040860151606087015160809097015192989197509594509092509050565b6000815180845260208085019450808401835b838110156146b25781516001600160a01b03168752958201959082019060010161468d565b509495945050505050565b600082516146cf8184602087016148bf565b9190910192915050565b6001600160a01b0394851681529290931660208301526040820152606081019190915260800190565b6001600160a01b03831681526040602082018190526000906140669083018461467a565b60006020825282518060208401526147458160408501602087016148bf565b601f01601f19169190910160400192915050565b60208082526016908201527531b0b63632b916b4b996b737ba16b096b5b2b2b832b960511b604082015260600190565b6020808252601a908201527f63616c6c65722d69732d6e6f742d7468652d676f7665726e6f72000000000000604082015260600190565b600086825285602083015260a060408301526147df60a083018661467a565b6001600160a01b0394909416606083015250608001529392505050565b604051601f8201601f1916810167ffffffffffffffff811182821017156148255761482561491c565b604052919050565b600067ffffffffffffffff8211156148475761484761491c565b5060051b60200190565b6000821982111561486457614864614906565b500190565b60008261488457634e487b7160e01b81526012600452602481fd5b500490565b60008160001904831182151516156148a3576148a3614906565b500290565b6000828210156148ba576148ba614906565b500390565b60005b838110156148da5781810151838201526020016148c2565b8381111561285b5750506000910152565b60006000198214156148ff576148ff614906565b5060010190565b634e487b7160e01b600052601160045260246000fd5b634e487b7160e01b600052604160045260246000fd5b6001600160a01b03811681146106a157600080fdfea264697066735822122043394d5b233c1590eca95fbe3b5913b4afc6b54dbd93b59b75ef5926e2880b3964736f6c63430008030033",
  "devdoc": {
    "kind": "dev",
    "methods": {
      "addKeeper(address)": {
        "params": {
          "_keeperAddress": "keeper address to add."
        }
      },
      "approveToken()": {
        "details": "Approve all required tokens"
      },
      "convertFrom18(uint256)": {
        "details": "Convert from 18 decimals to token defined decimals. Default no conversion."
      },
      "init(address)": {
        "params": {
          "_addressListFactory": "To support same code in eth side chain, user _addressListFactory as param ethereum- 0xded8217De022706A191eE7Ee0Dc9df1185Fb5dA3 polygon-0xD10D5696A350D65A9AA15FE8B258caB4ab1bF291"
        }
      },
      "isReservedToken(address)": {
        "details": "Check whether given token is reserved or not. Reserved tokens are not allowed to sweep."
      },
      "isUnderwater()": {
        "details": "There can be a scenario when someone calls claimComp() periodically which will leave compAccrued = 0 and pool might be underwater. Call rebalance() to liquidate COMP."
      },
      "migrate(address)": {
        "details": "_beforeMigration hook can be implemented in child strategy to do extra steps.",
        "params": {
          "_newStrategy": "Address of new strategy"
        }
      },
      "rebalance()": {
        "details": "Rebalance profit, loss and investment of this strategy"
      },
      "removeKeeper(address)": {
        "params": {
          "_keeperAddress": "keeper address to remove."
        }
      },
      "resurface()": {
        "details": "If pool is underwater this function will resolve underwater condition. If Debt in Maker is greater than Dai balance in lender then pool is underwater. Lowering DAI debt in Maker will resolve underwater condition. Resolve: Calculate required collateral token to lower DAI debt. Withdraw required collateral token from Maker and convert those to DAI via Uniswap. Finally payback debt in Maker using DAI.Also report loss in pool."
      },
      "sweepERC20(address)": {
        "details": "sweep given token to feeCollector of strategy",
        "params": {
          "_fromToken": "token address to sweep"
        }
      },
      "totalValue()": {
        "details": "Make sure to return value in collateral token.Total value = DAI earned + COMP earned + Collateral locked in Maker"
      },
      "updateBalancingFactor(uint256,uint256)": {
        "params": {
          "_highWater": "Value for high water mark.",
          "_lowWater": "Value for low water mark."
        }
      },
      "updateDripPeriod(uint256)": {
        "details": "_dripPeriod in seconds"
      },
      "updateFeeCollector(address)": {
        "params": {
          "_feeCollector": "fee collector address"
        }
      },
      "updateSwapManager(address)": {
        "params": {
          "_swapManager": "swap manager address"
        }
      },
      "withdraw(uint256)": {
        "details": "Withdraw collateral token from lending pool.",
        "params": {
          "_amount": "Amount of collateral token"
        }
      }
    },
    "version": 1
  },
  "userdoc": {
    "kind": "user",
    "methods": {
      "addKeeper(address)": {
        "notice": "Add given address in keepers list."
      },
      "createVault()": {
        "notice": "Create new Maker vault"
      },
      "init(address)": {
        "notice": "Create keeper list NOTE: Any function with onlyKeeper modifier will not work until this function is called. NOTE: Due to gas constraint this function cannot be called in constructor."
      },
      "isUnderwater()": {
        "notice": "Returns true if pool is underwater.Underwater - If debt is greater than earning of pool.Earning - Sum of DAI balance and DAI from accrued reward, if any, in lending pool."
      },
      "migrate(address)": {
        "notice": "Migrate all asset and vault ownership,if any, to new strategy"
      },
      "removeKeeper(address)": {
        "notice": "Remove given address from keepers list."
      },
      "token()": {
        "notice": "Returns address of token correspond to collateral token"
      },
      "totalValue()": {
        "notice": "Report total value of this strategy"
      },
      "updateBalancingFactor(uint256,uint256)": {
        "notice": "Update balancing factors aka high water and low water values. Water mark values represent Collateral Ratio in Maker. For example 300 as high water means 300% collateral ratio."
      },
      "updateDripPeriod(uint256)": {
        "notice": "Update update period of distribution of earning done in one rebalance"
      },
      "updateFeeCollector(address)": {
        "notice": "Update fee collector"
      },
      "updateSwapManager(address)": {
        "notice": "Update swap manager address"
      }
    },
    "version": 1
  },
  "storageLayout": {
    "storage": [
      {
        "astId": 17553,
        "contract": "contracts/strategies/maker/EarnCompoundMakerStrategyETH.sol:EarnCompoundMakerStrategyETH",
        "label": "dripPeriod",
        "offset": 0,
        "slot": "0",
        "type": "t_uint256"
      },
      {
        "astId": 17555,
        "contract": "contracts/strategies/maker/EarnCompoundMakerStrategyETH.sol:EarnCompoundMakerStrategyETH",
        "label": "totalEarned",
        "offset": 0,
        "slot": "1",
        "type": "t_uint256"
      },
      {
        "astId": 9567,
        "contract": "contracts/strategies/maker/EarnCompoundMakerStrategyETH.sol:EarnCompoundMakerStrategyETH",
        "label": "keepers",
        "offset": 0,
        "slot": "2",
        "type": "t_contract(IAddressList)3591"
      },
      {
        "astId": 9570,
        "contract": "contracts/strategies/maker/EarnCompoundMakerStrategyETH.sol:EarnCompoundMakerStrategyETH",
        "label": "feeCollector",
        "offset": 0,
        "slot": "3",
        "type": "t_address"
      },
      {
        "astId": 9573,
        "contract": "contracts/strategies/maker/EarnCompoundMakerStrategyETH.sol:EarnCompoundMakerStrategyETH",
        "label": "swapManager",
        "offset": 0,
        "slot": "4",
        "type": "t_contract(ISwapManager)3894"
      },
      {
        "astId": 17901,
        "contract": "contracts/strategies/maker/EarnCompoundMakerStrategyETH.sol:EarnCompoundMakerStrategyETH",
        "label": "highWater",
        "offset": 0,
        "slot": "5",
        "type": "t_uint256"
      },
      {
        "astId": 17903,
        "contract": "contracts/strategies/maker/EarnCompoundMakerStrategyETH.sol:EarnCompoundMakerStrategyETH",
        "label": "lowWater",
        "offset": 0,
        "slot": "6",
        "type": "t_uint256"
      }
    ],
    "types": {
      "t_address": {
        "encoding": "inplace",
        "label": "address",
        "numberOfBytes": "20"
      },
      "t_contract(IAddressList)3591": {
        "encoding": "inplace",
        "label": "contract IAddressList",
        "numberOfBytes": "20"
      },
      "t_contract(ISwapManager)3894": {
        "encoding": "inplace",
        "label": "contract ISwapManager",
        "numberOfBytes": "20"
      },
      "t_uint256": {
        "encoding": "inplace",
        "label": "uint256",
        "numberOfBytes": "32"
      }
    }
  }
}