{
  "address": "0x7b07296561d0Ea40dd6fFC5C19A934796A829eef",
  "abi": [
    {
      "anonymous": false,
      "inputs": [
        {
          "indexed": false,
          "internalType": "uint256",
          "name": "reward",
          "type": "uint256"
        }
      ],
      "name": "RewardAdded",
      "type": "event"
    },
    {
      "anonymous": false,
      "inputs": [
        {
          "indexed": true,
          "internalType": "address",
          "name": "user",
          "type": "address"
        },
        {
          "indexed": false,
          "internalType": "uint256",
          "name": "reward",
          "type": "uint256"
        }
      ],
      "name": "RewardPaid",
      "type": "event"
    },
    {
      "inputs": [],
      "name": "GRACE_PERIOD",
      "outputs": [
        {
          "internalType": "uint256",
          "name": "",
          "type": "uint256"
        }
      ],
      "stateMutability": "view",
      "type": "function"
    },
    {
      "inputs": [
        {
          "internalType": "address",
          "name": "account",
          "type": "address"
        }
      ],
      "name": "claimReward",
      "outputs": [],
      "stateMutability": "nonpayable",
      "type": "function"
    },
    {
      "inputs": [
        {
          "internalType": "address",
          "name": "account",
          "type": "address"
        }
      ],
      "name": "claimable",
      "outputs": [
        {
          "internalType": "uint256",
          "name": "",
          "type": "uint256"
        }
      ],
      "stateMutability": "view",
      "type": "function"
    },
    {
      "inputs": [
        {
          "internalType": "address",
          "name": "_pool",
          "type": "address"
        },
        {
          "internalType": "address",
          "name": "_rewardToken",
          "type": "address"
        }
      ],
      "name": "initialize",
      "outputs": [],
      "stateMutability": "nonpayable",
      "type": "function"
    },
    {
      "inputs": [],
      "name": "lastTimeRewardApplicable",
      "outputs": [
        {
          "internalType": "uint256",
          "name": "",
          "type": "uint256"
        }
      ],
      "stateMutability": "view",
      "type": "function"
    },
    {
      "inputs": [],
      "name": "lastUpdateTime",
      "outputs": [
        {
          "internalType": "uint256",
          "name": "",
          "type": "uint256"
        }
      ],
      "stateMutability": "view",
      "type": "function"
    },
    {
      "inputs": [
        {
          "internalType": "uint256",
          "name": "rewardAmount",
          "type": "uint256"
        },
        {
          "internalType": "uint256",
          "name": "_rewardDuration",
          "type": "uint256"
        }
      ],
      "name": "notifyRewardAmount",
      "outputs": [],
      "stateMutability": "nonpayable",
      "type": "function"
    },
    {
      "inputs": [],
      "name": "periodFinish",
      "outputs": [
        {
          "internalType": "uint256",
          "name": "",
          "type": "uint256"
        }
      ],
      "stateMutability": "view",
      "type": "function"
    },
    {
      "inputs": [],
      "name": "pool",
      "outputs": [
        {
          "internalType": "address",
          "name": "",
          "type": "address"
        }
      ],
      "stateMutability": "view",
      "type": "function"
    },
    {
      "inputs": [],
      "name": "rewardDuration",
      "outputs": [
        {
          "internalType": "uint256",
          "name": "",
          "type": "uint256"
        }
      ],
      "stateMutability": "view",
      "type": "function"
    },
    {
      "inputs": [],
      "name": "rewardForDuration",
      "outputs": [
        {
          "internalType": "uint256",
          "name": "",
          "type": "uint256"
        }
      ],
      "stateMutability": "view",
      "type": "function"
    },
    {
      "inputs": [],
      "name": "rewardPerToken",
      "outputs": [
        {
          "internalType": "uint256",
          "name": "",
          "type": "uint256"
        }
      ],
      "stateMutability": "view",
      "type": "function"
    },
    {
      "inputs": [],
      "name": "rewardPerTokenStored",
      "outputs": [
        {
          "internalType": "uint256",
          "name": "",
          "type": "uint256"
        }
      ],
      "stateMutability": "view",
      "type": "function"
    },
    {
      "inputs": [],
      "name": "rewardRate",
      "outputs": [
        {
          "internalType": "uint256",
          "name": "",
          "type": "uint256"
        }
      ],
      "stateMutability": "view",
      "type": "function"
    },
    {
      "inputs": [],
      "name": "rewardToken",
      "outputs": [
        {
          "internalType": "address",
          "name": "",
          "type": "address"
        }
      ],
      "stateMutability": "view",
      "type": "function"
    },
    {
      "inputs": [
        {
          "internalType": "address",
          "name": "",
          "type": "address"
        }
      ],
      "name": "rewards",
      "outputs": [
        {
          "internalType": "uint256",
          "name": "",
          "type": "uint256"
        }
      ],
      "stateMutability": "view",
      "type": "function"
    },
    {
      "inputs": [
        {
          "internalType": "address",
          "name": "_account",
          "type": "address"
        }
      ],
      "name": "updateReward",
      "outputs": [],
      "stateMutability": "nonpayable",
      "type": "function"
    },
    {
      "inputs": [
        {
          "internalType": "address",
          "name": "",
          "type": "address"
        }
      ],
      "name": "userRewardPerTokenPaid",
      "outputs": [
        {
          "internalType": "uint256",
          "name": "",
          "type": "uint256"
        }
      ],
      "stateMutability": "view",
      "type": "function"
    }
  ],
  "transactionHash": "0xb27d75c25968d27e1e23210b252dd10eec004249a568e4491703d646a4755e91",
  "args": [],
  "solcInputHash": "850ead7625557ccf7d1c546529a442f8",
  "bytecode": "0x608060405234801561001057600080fd5b5060018055611174806100246000396000f3fe608060405234801561001057600080fd5b50600436106101165760003560e01c80638b876347116100a2578063d279c19111610071578063d279c1911461021b578063df136d651461022e578063ebe2b12b14610237578063f520e7e514610240578063f7c618c11461024957610116565b80638b876347146101e0578063c1a287e214610200578063c8f33c911461020a578063cd3daf9d1461021357610116565b8063485cc955116100e9578063485cc955146101a1578063632447c9146101b45780636946a235146101c75780637b0a47ee146101cf57806380faa57d146101d857610116565b80630700037d1461011b57806316f0115b1461014e578063246132f914610179578063402914f51461018e575b600080fd5b61013b610129366004610efe565b600a6020526000908152604090205481565b6040519081526020015b60405180910390f35b600254610161906001600160a01b031681565b6040516001600160a01b039091168152602001610145565b61018c610187366004611005565b61025c565b005b61013b61019c366004610efe565b6103dc565b61018c6101af366004610f36565b6104df565b61018c6101c2366004610efe565b610666565b61013b6106cc565b61013b60055481565b61013b6106e4565b61013b6101ee366004610efe565b60096020526000908152604090205481565b61013b62278d0081565b61013b60075481565b61013b6106fc565b61018c610229366004610efe565b61086d565b61013b60085481565b61013b60045481565b61013b60065481565b600354610161906001600160a01b031681565b60025460405163228bfd9f60e01b81523360048201526000916001600160a01b03169063228bfd9f906024016101006040518083038186803b1580156102a157600080fd5b505afa1580156102b5573d6000803e3d6000fd5b505050506040513d601f19601f820116820180604052508101906102d99190610f88565b505050505050509050600260009054906101000a90046001600160a01b03166001600160a01b0316630c340a246040518163ffffffff1660e01b815260040160206040518083038186803b15801561033057600080fd5b505afa158015610344573d6000803e3d6000fd5b505050506040513d601f19601f820116820180604052508101906103689190610f1a565b6001600160a01b0316336001600160a01b031614806103845750805b6103cd5760405162461bcd60e51b81526020600482015260156024820152743737ba16b0baba3437b934bd32b216b1b0b63632b960591b60448201526064015b60405180910390fd5b6103d783836109ea565b505050565b6002546040516370a0823160e01b81526001600160a01b03838116600483015260009283929116906370a082319060240160206040518083038186803b15801561042557600080fd5b505afa158015610439573d6000803e3d6000fd5b505050506040513d601f19601f8201168201806040525081019061045d9190610fed565b6001600160a01b038416600090815260096020526040812054919250906104826106fc565b61048c91906110cc565b90506000670de0b6b3a76400006104a383856110ad565b6104ad919061108d565b6001600160a01b0386166000908152600a60205260409020549091506104d4908290611075565b93505050505b919050565b600054610100900460ff16806104f8575060005460ff16155b61055b5760405162461bcd60e51b815260206004820152602e60248201527f496e697469616c697a61626c653a20636f6e747261637420697320616c72656160448201526d191e481a5b9a5d1a585b1a5e995960921b60648201526084016103c4565b600054610100900460ff1615801561057d576000805461ffff19166101011790555b6001600160a01b0383166105ca5760405162461bcd60e51b8152602060048201526014602482015273706f6f6c2d616464726573732d69732d7a65726f60601b60448201526064016103c4565b6001600160a01b0382166106205760405162461bcd60e51b815260206004820152601b60248201527f726577617264546f6b656e2d616464726573732d69732d7a65726f000000000060448201526064016103c4565b600280546001600160a01b038086166001600160a01b031992831617909255600380549285169290911691909117905580156103d7576000805461ff0019169055505050565b6002546001600160a01b031633146106c05760405162461bcd60e51b815260206004820152601b60248201527f6f6e6c792d706f6f6c2d63616e2d7570646174652d726577617264000000000060448201526064016103c4565b6106c981610c0b565b50565b60006006546005546106de91906110ad565b90505b90565b600060045442106106f7576004546106de565b504290565b600254604080516318160ddd60e01b815290516000926001600160a01b0316916318160ddd916004808301926020929190829003018186803b15801561074157600080fd5b505afa158015610755573d6000803e3d6000fd5b505050506040513d601f19601f820116820180604052508101906107799190610fed565b61078657506008546106e1565b60006007546107936106e4565b61079d91906110cc565b90506000600554826107af91906110ad565b90506000600260009054906101000a90046001600160a01b03166001600160a01b03166318160ddd6040518163ffffffff1660e01b815260040160206040518083038186803b15801561080157600080fd5b505afa158015610815573d6000803e3d6000fd5b505050506040513d601f19601f820116820180604052508101906108399190610fed565b61084b83670de0b6b3a76400006110ad565b610855919061108d565b9050806008546108659190611075565b935050505090565b600260015414156108c05760405162461bcd60e51b815260206004820152601f60248201527f5265656e7472616e637947756172643a207265656e7472616e742063616c6c0060448201526064016103c4565b60026001556108ce81610c0b565b6001600160a01b0381166000908152600a6020526040902054801580159061097057506003546040516370a0823160e01b81523060048201526001600160a01b03909116906370a082319060240160206040518083038186803b15801561093457600080fd5b505afa158015610948573d6000803e3d6000fd5b505050506040513d601f19601f8201168201806040525081019061096c9190610fed565b8111155b156109e2576001600160a01b038083166000908152600a602052604081205560035461099e91168383610c67565b816001600160a01b03167fe2403640ba68fed3a2f88b7557551d1993f84b99bb10ff833f0cf8db0c5e0486826040516109d991815260200190565b60405180910390a25b505060018055565b6003546001600160a01b0316610a3a5760405162461bcd60e51b81526020600482015260156024820152741c995dd85c991ccb5d1bdad95b8b5b9bdd0b5cd95d605a1b60448201526064016103c4565b60008111610a8a5760405162461bcd60e51b815260206004820152601960248201527f696e636f72726563742d7265776172642d6475726174696f6e0000000000000060448201526064016103c4565b610a946000610c0b565b6004544210610aaf57610aa7818361108d565b600555610aee565b600042600454610abf91906110cc565b9050600060055482610ad191906110ad565b905082610ade8286611075565b610ae8919061108d565b60055550505b6003546040516370a0823160e01b81523060048201526000916001600160a01b0316906370a082319060240160206040518083038186803b158015610b3257600080fd5b505afa158015610b46573d6000803e3d6000fd5b505050506040513d601f19601f82011682018060405250810190610b6a9190610fed565b9050610b76828261108d565b6005541115610bba5760405162461bcd60e51b815260206004820152601060248201526f0e4caeec2e4c8e65ae8dede5ad0d2ced60831b60448201526064016103c4565b6006829055426007819055610bd0908390611075565b6004556040518381527fde88a922e0d3b88b24e9623efeb464919c6bf9f66857a65e2bfcf2ce87a9433d9060200160405180910390a1505050565b610c136106fc565b600855610c1e6106e4565b6007556001600160a01b038116156106c957610c39816103dc565b6001600160a01b0382166000908152600a602090815260408083209390935560085460099091529190205550565b604080516001600160a01b03848116602483015260448083018590528351808403909101815260649092018352602080830180516001600160e01b031663a9059cbb60e01b17905283518085019094528084527f5361666545524332303a206c6f772d6c6576656c2063616c6c206661696c6564908401526103d792869291600091610cf7918516908490610d74565b8051909150156103d75780806020019051810190610d159190610f6e565b6103d75760405162461bcd60e51b815260206004820152602a60248201527f5361666545524332303a204552433230206f7065726174696f6e20646964206e6044820152691bdd081cdd58d8d9595960b21b60648201526084016103c4565b6060610d838484600085610d8d565b90505b9392505050565b606082471015610dee5760405162461bcd60e51b815260206004820152602660248201527f416464726573733a20696e73756666696369656e742062616c616e636520666f6044820152651c8818d85b1b60d21b60648201526084016103c4565b843b610e3c5760405162461bcd60e51b815260206004820152601d60248201527f416464726573733a2063616c6c20746f206e6f6e2d636f6e747261637400000060448201526064016103c4565b600080866001600160a01b03168587604051610e589190611026565b60006040518083038185875af1925050503d8060008114610e95576040519150601f19603f3d011682016040523d82523d6000602084013e610e9a565b606091505b5091509150610eaa828286610eb5565b979650505050505050565b60608315610ec4575081610d86565b825115610ed45782518084602001fd5b8160405162461bcd60e51b81526004016103c49190611042565b805180151581146104da57600080fd5b600060208284031215610f0f578081fd5b8135610d8681611129565b600060208284031215610f2b578081fd5b8151610d8681611129565b60008060408385031215610f48578081fd5b8235610f5381611129565b91506020830135610f6381611129565b809150509250929050565b600060208284031215610f7f578081fd5b610d8682610eee565b600080600080600080600080610100898b031215610fa4578384fd5b610fad89610eee565b97506020890151965060408901519550606089015194506080890151935060a0890151925060c0890151915060e089015190509295985092959890939650565b600060208284031215610ffe578081fd5b5051919050565b60008060408385031215611017578182fd5b50508035926020909101359150565b600082516110388184602087016110e3565b9190910192915050565b60006020825282518060208401526110618160408501602087016110e3565b601f01601f19169190910160400192915050565b6000821982111561108857611088611113565b500190565b6000826110a857634e487b7160e01b81526012600452602481fd5b500490565b60008160001904831182151516156110c7576110c7611113565b500290565b6000828210156110de576110de611113565b500390565b60005b838110156110fe5781810151838201526020016110e6565b8381111561110d576000848401525b50505050565b634e487b7160e01b600052601160045260246000fd5b6001600160a01b03811681146106c957600080fdfea264697066735822122014e9e6514e5fd477fb6e084b615bf79603b23eaacc56b3e06af27454ff16a7c664736f6c63430008030033",
  "devdoc": {
    "kind": "dev",
    "methods": {
      "claimReward(address)": {
        "details": "Claim earned rewards."
      },
      "claimable(address)": {
        "details": "Returns claimable reward amount."
      },
      "initialize(address,address)": {
        "details": "Called by proxy to initialize this contract",
        "params": {
          "_pool": "Vesper pool address",
          "_rewardToken": "VSP token address"
        }
      },
      "lastTimeRewardApplicable()": {
        "details": "Returns timestamp of last reward update"
      },
      "notifyRewardAmount(uint256,uint256)": {
        "details": "Notify that reward is added. Also updates reward rate and reward earning period."
      },
      "updateReward(address)": {
        "details": "Updated reward for given account. Only Pool can call"
      }
    },
    "version": 1
  },
  "userdoc": {
    "events": {
      "RewardAdded(uint256)": {
        "notice": "Emitted after reward added"
      },
      "RewardPaid(address,uint256)": {
        "notice": "Emitted whenever any user claim rewards"
      }
    },
    "kind": "user",
    "methods": {
      "GRACE_PERIOD()": {
        "notice": "Once reward end is triggered, owner has to wait at least grace period to expire before he can withdraw remaining reward."
      },
      "lastUpdateTime()": {
        "notice": "Last reward drip update time stamp"
      },
      "periodFinish()": {
        "notice": "Where is current reward period ending"
      },
      "pool()": {
        "notice": "Vesper pool address"
      },
      "rewardDuration()": {
        "notice": "Duration of current reward distribution"
      },
      "rewardPerTokenStored()": {
        "notice": "Reward per token calculated and stored at last drip update"
      },
      "rewardRate()": {
        "notice": "Current reward rate"
      },
      "rewardToken()": {
        "notice": "Reward token address, mostly it will be VSP"
      },
      "rewards(address)": {
        "notice": "User => Rewards earned till last reward update"
      },
      "userRewardPerTokenPaid(address)": {
        "notice": "User => Reward per token stored at last reward update"
      }
    },
    "version": 1
  },
  "storageLayout": {
    "storage": [
      {
        "astId": 887,
        "contract": "contracts/pool/earn/EarnDrip.sol:VesperEarnDrip",
        "label": "_initialized",
        "offset": 0,
        "slot": "0",
        "type": "t_bool"
      },
      {
        "astId": 890,
        "contract": "contracts/pool/earn/EarnDrip.sol:VesperEarnDrip",
        "label": "_initializing",
        "offset": 1,
        "slot": "0",
        "type": "t_bool"
      },
      {
        "astId": 938,
        "contract": "contracts/pool/earn/EarnDrip.sol:VesperEarnDrip",
        "label": "_status",
        "offset": 0,
        "slot": "1",
        "type": "t_uint256"
      },
      {
        "astId": 7171,
        "contract": "contracts/pool/earn/EarnDrip.sol:VesperEarnDrip",
        "label": "pool",
        "offset": 0,
        "slot": "2",
        "type": "t_address"
      },
      {
        "astId": 7174,
        "contract": "contracts/pool/earn/EarnDrip.sol:VesperEarnDrip",
        "label": "rewardToken",
        "offset": 0,
        "slot": "3",
        "type": "t_address"
      },
      {
        "astId": 7181,
        "contract": "contracts/pool/earn/EarnDrip.sol:VesperEarnDrip",
        "label": "periodFinish",
        "offset": 0,
        "slot": "4",
        "type": "t_uint256"
      },
      {
        "astId": 7184,
        "contract": "contracts/pool/earn/EarnDrip.sol:VesperEarnDrip",
        "label": "rewardRate",
        "offset": 0,
        "slot": "5",
        "type": "t_uint256"
      },
      {
        "astId": 7187,
        "contract": "contracts/pool/earn/EarnDrip.sol:VesperEarnDrip",
        "label": "rewardDuration",
        "offset": 0,
        "slot": "6",
        "type": "t_uint256"
      },
      {
        "astId": 7190,
        "contract": "contracts/pool/earn/EarnDrip.sol:VesperEarnDrip",
        "label": "lastUpdateTime",
        "offset": 0,
        "slot": "7",
        "type": "t_uint256"
      },
      {
        "astId": 7193,
        "contract": "contracts/pool/earn/EarnDrip.sol:VesperEarnDrip",
        "label": "rewardPerTokenStored",
        "offset": 0,
        "slot": "8",
        "type": "t_uint256"
      },
      {
        "astId": 7198,
        "contract": "contracts/pool/earn/EarnDrip.sol:VesperEarnDrip",
        "label": "userRewardPerTokenPaid",
        "offset": 0,
        "slot": "9",
        "type": "t_mapping(t_address,t_uint256)"
      },
      {
        "astId": 7203,
        "contract": "contracts/pool/earn/EarnDrip.sol:VesperEarnDrip",
        "label": "rewards",
        "offset": 0,
        "slot": "10",
        "type": "t_mapping(t_address,t_uint256)"
      }
    ],
    "types": {
      "t_address": {
        "encoding": "inplace",
        "label": "address",
        "numberOfBytes": "20"
      },
      "t_bool": {
        "encoding": "inplace",
        "label": "bool",
        "numberOfBytes": "1"
      },
      "t_mapping(t_address,t_uint256)": {
        "encoding": "mapping",
        "key": "t_address",
        "label": "mapping(address => uint256)",
        "numberOfBytes": "32",
        "value": "t_uint256"
      },
      "t_uint256": {
        "encoding": "inplace",
        "label": "uint256",
        "numberOfBytes": "32"
      }
    }
  }
}