{
  "address": "0x0Ec2c6422Cf208579b60572efFb68e1C059cE764",
  "abi": [
    {
      "anonymous": false,
      "inputs": [
        {
          "indexed": true,
          "internalType": "address",
          "name": "rewardToken",
          "type": "address"
        },
        {
          "indexed": false,
          "internalType": "uint256",
          "name": "reward",
          "type": "uint256"
        },
        {
          "indexed": false,
          "internalType": "uint256",
          "name": "rewardDuration",
          "type": "uint256"
        }
      ],
      "name": "RewardAdded",
      "type": "event"
    },
    {
      "anonymous": false,
      "inputs": [
        {
          "indexed": true,
          "internalType": "address",
          "name": "user",
          "type": "address"
        },
        {
          "indexed": true,
          "internalType": "address",
          "name": "rewardToken",
          "type": "address"
        },
        {
          "indexed": false,
          "internalType": "uint256",
          "name": "reward",
          "type": "uint256"
        }
      ],
      "name": "RewardPaid",
      "type": "event"
    },
    {
      "anonymous": false,
      "inputs": [
        {
          "indexed": true,
          "internalType": "address",
          "name": "rewardToken",
          "type": "address"
        },
        {
          "indexed": false,
          "internalType": "address[]",
          "name": "existingRewardTokens",
          "type": "address[]"
        }
      ],
      "name": "RewardTokenAdded",
      "type": "event"
    },
    {
      "inputs": [
        {
          "internalType": "address",
          "name": "_newRewardToken",
          "type": "address"
        }
      ],
      "name": "addRewardToken",
      "outputs": [],
      "stateMutability": "nonpayable",
      "type": "function"
    },
    {
      "inputs": [
        {
          "internalType": "address",
          "name": "_account",
          "type": "address"
        }
      ],
      "name": "claimReward",
      "outputs": [],
      "stateMutability": "nonpayable",
      "type": "function"
    },
    {
      "inputs": [
        {
          "internalType": "address",
          "name": "_account",
          "type": "address"
        }
      ],
      "name": "claimable",
      "outputs": [
        {
          "internalType": "address[]",
          "name": "_rewardTokens",
          "type": "address[]"
        },
        {
          "internalType": "uint256[]",
          "name": "_claimableAmounts",
          "type": "uint256[]"
        }
      ],
      "stateMutability": "view",
      "type": "function"
    },
    {
      "inputs": [],
      "name": "getRewardTokens",
      "outputs": [
        {
          "internalType": "address[]",
          "name": "",
          "type": "address[]"
        }
      ],
      "stateMutability": "view",
      "type": "function"
    },
    {
      "inputs": [
        {
          "internalType": "address",
          "name": "_pool",
          "type": "address"
        },
        {
          "internalType": "address[]",
          "name": "_rewardTokens",
          "type": "address[]"
        }
      ],
      "name": "initialize",
      "outputs": [],
      "stateMutability": "nonpayable",
      "type": "function"
    },
    {
      "inputs": [
        {
          "internalType": "address",
          "name": "",
          "type": "address"
        }
      ],
      "name": "isRewardToken",
      "outputs": [
        {
          "internalType": "bool",
          "name": "",
          "type": "bool"
        }
      ],
      "stateMutability": "view",
      "type": "function"
    },
    {
      "inputs": [
        {
          "internalType": "address",
          "name": "_rewardToken",
          "type": "address"
        }
      ],
      "name": "lastTimeRewardApplicable",
      "outputs": [
        {
          "internalType": "uint256",
          "name": "",
          "type": "uint256"
        }
      ],
      "stateMutability": "view",
      "type": "function"
    },
    {
      "inputs": [
        {
          "internalType": "address",
          "name": "",
          "type": "address"
        }
      ],
      "name": "lastUpdateTime",
      "outputs": [
        {
          "internalType": "uint256",
          "name": "",
          "type": "uint256"
        }
      ],
      "stateMutability": "view",
      "type": "function"
    },
    {
      "inputs": [
        {
          "internalType": "address",
          "name": "_rewardToken",
          "type": "address"
        },
        {
          "internalType": "uint256",
          "name": "_rewardAmount",
          "type": "uint256"
        },
        {
          "internalType": "uint256",
          "name": "_rewardDuration",
          "type": "uint256"
        }
      ],
      "name": "notifyRewardAmount",
      "outputs": [],
      "stateMutability": "nonpayable",
      "type": "function"
    },
    {
      "inputs": [
        {
          "internalType": "address[]",
          "name": "_rewardTokens",
          "type": "address[]"
        },
        {
          "internalType": "uint256[]",
          "name": "_rewardAmounts",
          "type": "uint256[]"
        },
        {
          "internalType": "uint256[]",
          "name": "_rewardDurations",
          "type": "uint256[]"
        }
      ],
      "name": "notifyRewardAmount",
      "outputs": [],
      "stateMutability": "nonpayable",
      "type": "function"
    },
    {
      "inputs": [
        {
          "internalType": "address",
          "name": "",
          "type": "address"
        }
      ],
      "name": "periodFinish",
      "outputs": [
        {
          "internalType": "uint256",
          "name": "",
          "type": "uint256"
        }
      ],
      "stateMutability": "view",
      "type": "function"
    },
    {
      "inputs": [],
      "name": "pool",
      "outputs": [
        {
          "internalType": "address",
          "name": "",
          "type": "address"
        }
      ],
      "stateMutability": "view",
      "type": "function"
    },
    {
      "inputs": [
        {
          "internalType": "address",
          "name": "",
          "type": "address"
        }
      ],
      "name": "rewardDuration",
      "outputs": [
        {
          "internalType": "uint256",
          "name": "",
          "type": "uint256"
        }
      ],
      "stateMutability": "view",
      "type": "function"
    },
    {
      "inputs": [],
      "name": "rewardForDuration",
      "outputs": [
        {
          "internalType": "address[]",
          "name": "_rewardTokens",
          "type": "address[]"
        },
        {
          "internalType": "uint256[]",
          "name": "_rewardForDuration",
          "type": "uint256[]"
        }
      ],
      "stateMutability": "view",
      "type": "function"
    },
    {
      "inputs": [],
      "name": "rewardPerToken",
      "outputs": [
        {
          "internalType": "address[]",
          "name": "_rewardTokens",
          "type": "address[]"
        },
        {
          "internalType": "uint256[]",
          "name": "_rewardPerTokenRate",
          "type": "uint256[]"
        }
      ],
      "stateMutability": "view",
      "type": "function"
    },
    {
      "inputs": [
        {
          "internalType": "address",
          "name": "",
          "type": "address"
        }
      ],
      "name": "rewardPerTokenStored",
      "outputs": [
        {
          "internalType": "uint256",
          "name": "",
          "type": "uint256"
        }
      ],
      "stateMutability": "view",
      "type": "function"
    },
    {
      "inputs": [
        {
          "internalType": "address",
          "name": "",
          "type": "address"
        }
      ],
      "name": "rewardRates",
      "outputs": [
        {
          "internalType": "uint256",
          "name": "",
          "type": "uint256"
        }
      ],
      "stateMutability": "view",
      "type": "function"
    },
    {
      "inputs": [
        {
          "internalType": "uint256",
          "name": "",
          "type": "uint256"
        }
      ],
      "name": "rewardTokens",
      "outputs": [
        {
          "internalType": "address",
          "name": "",
          "type": "address"
        }
      ],
      "stateMutability": "view",
      "type": "function"
    },
    {
      "inputs": [
        {
          "internalType": "address",
          "name": "",
          "type": "address"
        },
        {
          "internalType": "address",
          "name": "",
          "type": "address"
        }
      ],
      "name": "rewards",
      "outputs": [
        {
          "internalType": "uint256",
          "name": "",
          "type": "uint256"
        }
      ],
      "stateMutability": "view",
      "type": "function"
    },
    {
      "inputs": [
        {
          "internalType": "address",
          "name": "_account",
          "type": "address"
        }
      ],
      "name": "updateReward",
      "outputs": [],
      "stateMutability": "nonpayable",
      "type": "function"
    },
    {
      "inputs": [
        {
          "internalType": "address",
          "name": "",
          "type": "address"
        },
        {
          "internalType": "address",
          "name": "",
          "type": "address"
        }
      ],
      "name": "userRewardPerTokenPaid",
      "outputs": [
        {
          "internalType": "uint256",
          "name": "",
          "type": "uint256"
        }
      ],
      "stateMutability": "view",
      "type": "function"
    }
  ],
  "transactionHash": "0x921ebb7539569a73bbdb88fe32cd19df57477d8ae8b527957e3be9d1c723ac57",
  "args": [],
  "solcInputHash": "521e7f4fcec887a1919173494f594bed",
  "bytecode": "0x608060405234801561001057600080fd5b50600180556126a0806100246000396000f3fe608060405234801561001057600080fd5b50600436106101375760003560e01c8063946d9204116100b8578063c4f59f9b1161007c578063c4f59f9b146102e8578063cd3daf9d146102fd578063d279c19114610305578063da09d19d14610318578063e70b9e2714610338578063e9c544881461036357610137565b8063946d92041461025c5780639ce43f901461026f578063a3cd8ac41461028f578063b5fd73f8146102a2578063bcd68eb6146102d557610137565b8063632447c9116100ff578063632447c9146101f0578063638634ee146102035780636946a235146102165780637035ab981461021e5780637bb7bed11461024957610137565b806316f0115b1461013c5780631c03e6cc1461016c5780632ce9aead146101815780633d3b2603146101af578063402914f5146101cf575b600080fd5b60025461014f906001600160a01b031681565b6040516001600160a01b0390911681526020015b60405180910390f35b61017f61017a366004612191565b610383565b005b6101a161018f366004612191565b60086020526000908152604090205481565b604051908152602001610163565b6101a16101bd366004612191565b60066020526000908152604090205481565b6101e26101dd366004612191565b6105aa565b604051610163929190612428565b61017f6101fe366004612191565b610800565b6101a1610211366004612191565b6109c5565b6101e2610a0c565b6101a161022c3660046121c9565b600a60209081526000928352604080842090915290825290205481565b61014f610257366004612386565b610bca565b61017f61026a366004612201565b610bf4565b6101a161027d366004612191565b60096020526000908152604090205481565b61017f61029d36600461224f565b610de2565b6102c56102b0366004612191565b60046020526000908152604090205460ff1681565b6040519015158152602001610163565b61017f6102e3366004612283565b610fbd565b6102f0611104565b6040516101639190612415565b6101e2611166565b61017f610313366004612191565b611335565b6101a1610326366004612191565b60056020526000908152604090205481565b6101a16103463660046121c9565b600b60209081526000928352604080842090915290825290205481565b6101a1610371366004612191565b60076020526000908152604090205481565b600260009054906101000a90046001600160a01b03166001600160a01b0316630c340a246040518163ffffffff1660e01b815260040160206040518083038186803b1580156103d157600080fd5b505afa1580156103e5573d6000803e3d6000fd5b505050506040513d601f19601f8201168201806040525081019061040991906121ad565b6001600160a01b0316336001600160a01b0316146104425760405162461bcd60e51b8152600401610439906124f4565b60405180910390fd5b6001600160a01b0381166104985760405162461bcd60e51b815260206004820152601960248201527f7265776172642d746f6b656e2d616464726573732d7a65726f000000000000006044820152606401610439565b6001600160a01b03811660009081526004602052604090205460ff16156105015760405162461bcd60e51b815260206004820152601a60248201527f7265776172642d746f6b656e2d616c72656164792d65786973740000000000006044820152606401610439565b806001600160a01b03167f438dc3ee1ea07ec168befb145c10eb363aad7cbec063f8a006b032031582ac2b600360405161053b9190612471565b60405180910390a26003805460018181019092557fc2575a0e9e593c00f959f8c92f12db2869c3395a3b0502d05e2516446f71f85b0180546001600160a01b039093166001600160a01b031990931683179055600091825260046020526040909120805460ff19169091179055565b6060806000600260009054906101000a90046001600160a01b03166001600160a01b03166318160ddd6040518163ffffffff1660e01b815260040160206040518083038186803b1580156105fd57600080fd5b505afa158015610611573d6000803e3d6000fd5b505050506040513d601f19601f82011682018060405250810190610635919061239e565b6002546040516370a0823160e01b81526001600160a01b038781166004830152929350600092909116906370a082319060240160206040518083038186803b15801561068057600080fd5b505afa158015610694573d6000803e3d6000fd5b505050506040513d601f19601f820116820180604052508101906106b8919061239e565b6003549091508067ffffffffffffffff8111156106e557634e487b7160e01b600052604160045260246000fd5b60405190808252806020026020018201604052801561070e578160200160208202803683370190505b50935060005b8181101561079a5761075d6003828154811061074057634e487b7160e01b600052603260045260246000fd5b6000918252602090912001546001600160a01b0316888686611638565b85828151811061077d57634e487b7160e01b600052603260045260246000fd5b6020908102919091010152806107928161260b565b915050610714565b5060038054806020026020016040519081016040528092919081815260200182805480156107f157602002820191906000526020600020905b81546001600160a01b031681526001909101906020018083116107d3575b50505050509450505050915091565b6002546001600160a01b0316331461085a5760405162461bcd60e51b815260206004820152601b60248201527f6f6e6c792d706f6f6c2d63616e2d7570646174652d72657761726400000000006044820152606401610439565b600254604080516318160ddd60e01b815290516000926001600160a01b0316916318160ddd916004808301926020929190829003018186803b15801561089f57600080fd5b505afa1580156108b3573d6000803e3d6000fd5b505050506040513d601f19601f820116820180604052508101906108d7919061239e565b6002546040516370a0823160e01b81526001600160a01b038581166004830152929350600092909116906370a082319060240160206040518083038186803b15801561092257600080fd5b505afa158015610936573d6000803e3d6000fd5b505050506040513d601f19601f8201168201806040525081019061095a919061239e565b60035490915060005b818110156109be576109ac6003828154811061098f57634e487b7160e01b600052603260045260246000fd5b6000918252602090912001546001600160a01b03168686866116d6565b806109b68161260b565b915050610963565b5050505050565b6001600160a01b0381166000908152600560205260408120544210610a02576001600160a01b038216600090815260056020526040902054610a04565b425b90505b919050565b60035460609081908067ffffffffffffffff811115610a3b57634e487b7160e01b600052604160045260246000fd5b604051908082528060200260200182016040528015610a64578160200160208202803683370190505b50915060005b81811015610b67576007600060038381548110610a9757634e487b7160e01b600052603260045260246000fd5b9060005260206000200160009054906101000a90046001600160a01b03166001600160a01b03166001600160a01b03168152602001908152602001600020546006600060038481548110610afb57634e487b7160e01b600052603260045260246000fd5b60009182526020808320909101546001600160a01b03168352820192909252604001902054610b2a91906125a9565b838281518110610b4a57634e487b7160e01b600052603260045260246000fd5b602090810291909101015280610b5f8161260b565b915050610a6a565b506003805480602002602001604051908101604052809291908181526020018280548015610bbe57602002820191906000526020600020905b81546001600160a01b03168152600190910190602001808311610ba0575b50505050509250509091565b60038181548110610bda57600080fd5b6000918252602090912001546001600160a01b0316905081565b600054610100900460ff1680610c0d575060005460ff16155b610c705760405162461bcd60e51b815260206004820152602e60248201527f496e697469616c697a61626c653a20636f6e747261637420697320616c72656160448201526d191e481a5b9a5d1a585b1a5e995960921b6064820152608401610439565b600054610100900460ff16158015610c92576000805461ffff19166101011790555b6001600160a01b038316610cdf5760405162461bcd60e51b8152602060048201526014602482015273706f6f6c2d616464726573732d69732d7a65726f60601b6044820152606401610439565b8151610d255760405162461bcd60e51b8152602060048201526015602482015274696e76616c69642d7265776172642d746f6b656e7360581b6044820152606401610439565b600280546001600160a01b0319166001600160a01b0385161790558151610d53906003906020850190612032565b5060005b8251811015610dca57600160046000858481518110610d8657634e487b7160e01b600052603260045260246000fd5b6020908102919091018101516001600160a01b03168252810191909152604001600020805460ff191691151591909117905580610dc28161260b565b915050610d57565b508015610ddd576000805461ff00191690555b505050565b60025460405163228bfd9f60e01b81523360048201526000916001600160a01b03169063228bfd9f906024016101006040518083038186803b158015610e2757600080fd5b505afa158015610e3b573d6000803e3d6000fd5b505050506040513d601f19601f82011682018060405250810190610e5f9190612321565b505050505050509050600260009054906101000a90046001600160a01b03166001600160a01b0316630c340a246040518163ffffffff1660e01b815260040160206040518083038186803b158015610eb657600080fd5b505afa158015610eca573d6000803e3d6000fd5b505050506040513d601f19601f82011682018060405250810190610eee91906121ad565b6001600160a01b0316336001600160a01b03161480610f0a5750805b610f265760405162461bcd60e51b8152600401610439906124f4565b610fb7848484600260009054906101000a90046001600160a01b03166001600160a01b03166318160ddd6040518163ffffffff1660e01b815260040160206040518083038186803b158015610f7a57600080fd5b505afa158015610f8e573d6000803e3d6000fd5b505050506040513d601f19601f82011682018060405250810190610fb2919061239e565b61177f565b50505050565b600260009054906101000a90046001600160a01b03166001600160a01b0316630c340a246040518163ffffffff1660e01b815260040160206040518083038186803b15801561100b57600080fd5b505afa15801561101f573d6000803e3d6000fd5b505050506040513d601f19601f8201168201806040525081019061104391906121ad565b6001600160a01b0316336001600160a01b0316146110735760405162461bcd60e51b8152600401610439906124f4565b610ddd838383600260009054906101000a90046001600160a01b03166001600160a01b03166318160ddd6040518163ffffffff1660e01b815260040160206040518083038186803b1580156110c757600080fd5b505afa1580156110db573d6000803e3d6000fd5b505050506040513d601f19601f820116820180604052508101906110ff919061239e565b611b16565b6060600380548060200260200160405190810160405280929190818152602001828054801561115c57602002820191906000526020600020905b81546001600160a01b0316815260019091019060200180831161113e575b5050505050905090565b6060806000600260009054906101000a90046001600160a01b03166001600160a01b03166318160ddd6040518163ffffffff1660e01b815260040160206040518083038186803b1580156111b957600080fd5b505afa1580156111cd573d6000803e3d6000fd5b505050506040513d601f19601f820116820180604052508101906111f1919061239e565b6003549091508067ffffffffffffffff81111561121e57634e487b7160e01b600052604160045260246000fd5b604051908082528060200260200182016040528015611247578160200160208202803683370190505b50925060005b818110156112d1576112946003828154811061127957634e487b7160e01b600052603260045260246000fd5b6000918252602090912001546001600160a01b031684611cee565b8482815181106112b457634e487b7160e01b600052603260045260246000fd5b6020908102919091010152806112c98161260b565b91505061124d565b50600380548060200260200160405190810160405280929190818152602001828054801561132857602002820191906000526020600020905b81546001600160a01b0316815260019091019060200180831161130a575b5050505050935050509091565b600260015414156113885760405162461bcd60e51b815260206004820152601f60248201527f5265656e7472616e637947756172643a207265656e7472616e742063616c6c006044820152606401610439565b6002600181905554604080516318160ddd60e01b815290516000926001600160a01b0316916318160ddd916004808301926020929190829003018186803b1580156113d257600080fd5b505afa1580156113e6573d6000803e3d6000fd5b505050506040513d601f19601f8201168201806040525081019061140a919061239e565b6002546040516370a0823160e01b81526001600160a01b038581166004830152929350600092909116906370a082319060240160206040518083038186803b15801561145557600080fd5b505afa158015611469573d6000803e3d6000fd5b505050506040513d601f19601f8201168201806040525081019061148d919061239e565b60035490915060005b8181101561162d576000600382815481106114c157634e487b7160e01b600052603260045260246000fd5b6000918252602090912001546001600160a01b031690506114e4818787876116d6565b6001600160a01b038082166000908152600b60209081526040808320938a1683529290522054801580159061158f57506040516370a0823160e01b81523060048201526001600160a01b038316906370a082319060240160206040518083038186803b15801561155357600080fd5b505afa158015611567573d6000803e3d6000fd5b505050506040513d601f19601f8201168201806040525081019061158b919061239e565b8111155b15611618576001600160a01b038083166000818152600b60209081526040808320948c168352939052918220919091556115ca908883611dbb565b816001600160a01b0316876001600160a01b03167f540798df468d7b23d11f156fdb954cb19ad414d150722a7b6d55ba369dea792e8360405161160f91815260200190565b60405180910390a35b505080806116259061260b565b915050611496565b505060018055505050565b6001600160a01b038085166000908152600a60209081526040808320938716835292905290812054819061166c8786611cee565b61167691906125c8565b90506000670de0b6b3a764000061168d83866125a9565b6116979190612589565b6001600160a01b038089166000908152600b60209081526040808320938b16835292905220549091506116cb908290612571565b979650505050505050565b60006116e28584611cee565b6001600160a01b03861660009081526009602052604090208190559050611708856109c5565b6001600160a01b038087166000908152600860205260409020919091558416156109be5761173885858585611638565b6001600160a01b038087166000818152600b60209081526040808320948a1680845294825280832095909555918152600a8252838120928152919052208190555050505050565b6001600160a01b0384166117ce5760405162461bcd60e51b815260206004820152601660248201527534b731b7b93932b1ba16b932bbb0b93216ba37b5b2b760511b6044820152606401610439565b8261181b5760405162461bcd60e51b815260206004820152601760248201527f696e636f72726563742d7265776172642d616d6f756e740000000000000000006044820152606401610439565b816118685760405162461bcd60e51b815260206004820152601960248201527f696e636f72726563742d7265776172642d6475726174696f6e000000000000006044820152606401610439565b6001600160a01b03841660009081526004602052604090205460ff166118c75760405162461bcd60e51b815260206004820152601460248201527334b73b30b634b216b932bbb0b93216ba37b5b2b760611b6044820152606401610439565b6118d18482611cee565b6001600160a01b0385166000908152600960209081526040808320939093556005905220544210611924576119068284612589565b6001600160a01b0385166000908152600660205260409020556119a2565b6001600160a01b0384166000908152600560205260408120546119489042906125c8565b6001600160a01b0386166000908152600660205260408120549192509061196f90836125a9565b90508361197c8287612571565b6119869190612589565b6001600160a01b03871660009081526006602052604090205550505b6040516370a0823160e01b81523060048201526000906001600160a01b038616906370a082319060240160206040518083038186803b1580156119e457600080fd5b505afa1580156119f8573d6000803e3d6000fd5b505050506040513d601f19601f82011682018060405250810190611a1c919061239e565b9050611a288382612589565b6001600160a01b0386166000908152600660205260409020541115611a825760405162461bcd60e51b815260206004820152601060248201526f0e4caeec2e4c8e65ae8dede5ad0d2ced60831b6044820152606401610439565b6001600160a01b0385166000908152600760209081526040808320869055600890915290204290819055611ab7908490612571565b6001600160a01b03861660008181526005602090815260409182902093909355805187815292830186905290917f6a6f77044107a33658235d41bedbbaf2fe9ccdceb313143c947a5e76e1ec8474910160405180910390a25050505050565b83518351835182611b615760405162461bcd60e51b8152602060048201526015602482015274696e76616c69642d7265776172642d746f6b656e7360581b6044820152606401610439565b81611ba75760405162461bcd60e51b8152602060048201526016602482015275696e76616c69642d7265776172642d616d6f756e747360501b6044820152606401610439565b80611bf45760405162461bcd60e51b815260206004820152601860248201527f696e76616c69642d7265776172642d6475726174696f6e7300000000000000006044820152606401610439565b8183148015611c0257508083145b611c465760405162461bcd60e51b81526020600482015260156024820152740c2e4e4c2f25ad8cadccee8d05adad2e6dac2e8c6d605b1b6044820152606401610439565b60005b83811015611ce457611cd2888281518110611c7457634e487b7160e01b600052603260045260246000fd5b6020026020010151888381518110611c9c57634e487b7160e01b600052603260045260246000fd5b6020026020010151888481518110611cc457634e487b7160e01b600052603260045260246000fd5b60200260200101518861177f565b80611cdc8161260b565b915050611c49565b5050505050505050565b600081611d1457506001600160a01b038216600090815260096020526040902054611db5565b6001600160a01b038316600090815260086020526040812054611d36856109c5565b611d4091906125c8565b6001600160a01b03851660009081526006602052604081205491925090611d6790836125a9565b9050600084611d7e83670de0b6b3a76400006125a9565b611d889190612589565b6001600160a01b038716600090815260096020526040902054909150611daf908290612571565b93505050505b92915050565b604080516001600160a01b03848116602483015260448083018590528351808403909101815260649092018352602080830180516001600160e01b031663a9059cbb60e01b17905283518085019094528084527f5361666545524332303a206c6f772d6c6576656c2063616c6c206661696c656490840152610ddd92869291600091611e4b918516908490611ec8565b805190915015610ddd5780806020019051810190611e699190612307565b610ddd5760405162461bcd60e51b815260206004820152602a60248201527f5361666545524332303a204552433230206f7065726174696f6e20646964206e6044820152691bdd081cdd58d8d9595960b21b6064820152608401610439565b6060611ed78484600085611ee1565b90505b9392505050565b606082471015611f425760405162461bcd60e51b815260206004820152602660248201527f416464726573733a20696e73756666696369656e742062616c616e636520666f6044820152651c8818d85b1b60d21b6064820152608401610439565b843b611f905760405162461bcd60e51b815260206004820152601d60248201527f416464726573733a2063616c6c20746f206e6f6e2d636f6e74726163740000006044820152606401610439565b600080866001600160a01b03168587604051611fac91906123f9565b60006040518083038185875af1925050503d8060008114611fe9576040519150601f19603f3d011682016040523d82523d6000602084013e611fee565b606091505b50915091506116cb82828660608315612008575081611eda565b8251156120185782518084602001fd5b8160405162461bcd60e51b815260040161043991906124c1565b828054828255906000526020600020908101928215612087579160200282015b8281111561208757825182546001600160a01b0319166001600160a01b03909116178255602090920191600190910190612052565b50612093929150612097565b5090565b5b808211156120935760008155600101612098565b600082601f8301126120bc578081fd5b813560206120d16120cc8361254d565b61251c565b80838252828201915082860187848660051b89010111156120f0578586fd5b855b8581101561211757813561210581612652565b845292840192908401906001016120f2565b5090979650505050505050565b600082601f830112612134578081fd5b813560206121446120cc8361254d565b80838252828201915082860187848660051b8901011115612163578586fd5b855b8581101561211757813584529284019290840190600101612165565b80518015158114610a0757600080fd5b6000602082840312156121a2578081fd5b8135611eda81612652565b6000602082840312156121be578081fd5b8151611eda81612652565b600080604083850312156121db578081fd5b82356121e681612652565b915060208301356121f681612652565b809150509250929050565b60008060408385031215612213578182fd5b823561221e81612652565b9150602083013567ffffffffffffffff811115612239578182fd5b612245858286016120ac565b9150509250929050565b600080600060608486031215612263578081fd5b833561226e81612652565b95602085013595506040909401359392505050565b600080600060608486031215612297578283fd5b833567ffffffffffffffff808211156122ae578485fd5b6122ba878388016120ac565b945060208601359150808211156122cf578384fd5b6122db87838801612124565b935060408601359150808211156122f0578283fd5b506122fd86828701612124565b9150509250925092565b600060208284031215612318578081fd5b611eda82612181565b600080600080600080600080610100898b03121561233d578384fd5b61234689612181565b97506020890151965060408901519550606089015194506080890151935060a0890151925060c0890151915060e089015190509295985092959890939650565b600060208284031215612397578081fd5b5035919050565b6000602082840312156123af578081fd5b5051919050565b6000815180845260208085019450808401835b838110156123ee5781516001600160a01b0316875295820195908201906001016123c9565b509495945050505050565b6000825161240b8184602087016125df565b9190910192915050565b600060208252611eda60208301846123b6565b60006040825261243b60408301856123b6565b828103602084810191909152845180835285820192820190845b8181101561211757845183529383019391830191600101612455565b6020808252825482820181905260008481528281209092916040850190845b818110156124b55783546001600160a01b031683526001938401939285019201612490565b50909695505050505050565b60006020825282518060208401526124e08160408501602087016125df565b601f01601f19169190910160400192915050565b6020808252600e908201526d1b9bdd0b585d5d1a1bdc9a5e995960921b604082015260600190565b604051601f8201601f1916810167ffffffffffffffff811182821017156125455761254561263c565b604052919050565b600067ffffffffffffffff8211156125675761256761263c565b5060051b60200190565b6000821982111561258457612584612626565b500190565b6000826125a457634e487b7160e01b81526012600452602481fd5b500490565b60008160001904831182151516156125c3576125c3612626565b500290565b6000828210156125da576125da612626565b500390565b60005b838110156125fa5781810151838201526020016125e2565b83811115610fb75750506000910152565b600060001982141561261f5761261f612626565b5060010190565b634e487b7160e01b600052601160045260246000fd5b634e487b7160e01b600052604160045260246000fd5b6001600160a01b038116811461266757600080fd5b5056fea264697066735822122060e768821c1e67940cf9ac368b6347de9983adbb08c9286d46c1d8d875b0b5ca64736f6c63430008030033",
  "devdoc": {
    "kind": "dev",
    "methods": {
      "claimReward(address)": {
        "details": "This function will claim rewards for all tokens being rewarded"
      },
      "claimable(address)": {
        "returns": {
          "_claimableAmounts": "Array of claimable for token on same index in rewardTokens",
          "_rewardTokens": "Array of tokens being rewarded"
        }
      },
      "initialize(address,address[])": {
        "details": "Called by proxy to initialize this contract",
        "params": {
          "_pool": "Vesper pool address",
          "_rewardTokens": "Array of reward token addresses"
        }
      },
      "notifyRewardAmount(address,uint256,uint256)": {
        "details": "Notify that reward is added. Also updates reward rate and reward earning period."
      },
      "notifyRewardAmount(address[],uint256[],uint256[])": {
        "details": "Also updates reward rate and reward earning period.",
        "params": {
          "_rewardAmounts": "Rewards amount for token on same index in rewardTokens array",
          "_rewardDurations": "Duration for which reward will be distributed",
          "_rewardTokens": "Tokens being rewarded"
        }
      },
      "rewardPerToken()": {
        "returns": {
          "_rewardPerTokenRate": "Array of Rewards rate for token on same index in rewardTokens",
          "_rewardTokens": "Array of tokens being rewarded"
        }
      }
    },
    "version": 1
  },
  "userdoc": {
    "events": {
      "RewardAdded(address,uint256,uint256)": {
        "notice": "Emitted after reward added"
      },
      "RewardPaid(address,address,uint256)": {
        "notice": "Emitted whenever any user claim rewards"
      },
      "RewardTokenAdded(address,address[])": {
        "notice": "Emitted after adding new rewards token into rewardTokens array"
      }
    },
    "kind": "user",
    "methods": {
      "addRewardToken(address)": {
        "notice": "Add new reward token in existing rewardsToken array"
      },
      "claimReward(address)": {
        "notice": "Claim earned rewards."
      },
      "claimable(address)": {
        "notice": "Returns claimable reward amount."
      },
      "getRewardTokens()": {
        "notice": "Provides easy access to all rewardTokens"
      },
      "isRewardToken(address)": {
        "notice": "Reward token to valid/invalid flag mapping"
      },
      "lastTimeRewardApplicable(address)": {
        "notice": "Returns timestamp of last reward update"
      },
      "lastUpdateTime(address)": {
        "notice": "Reward token to Last reward drip update time stamp mapping"
      },
      "notifyRewardAmount(address[],uint256[],uint256[])": {
        "notice": "Notify that reward is added. Only authorized caller can call"
      },
      "periodFinish(address)": {
        "notice": "Reward token to period ending of current reward"
      },
      "pool()": {
        "notice": "Vesper pool address"
      },
      "rewardDuration(address)": {
        "notice": "Reward token to Duration of current reward distribution"
      },
      "rewardPerToken()": {
        "notice": "Rewards rate per pool token"
      },
      "rewardPerTokenStored(address)": {
        "notice": "Reward token to Reward per token mapping. Calculated and stored at last drip update"
      },
      "rewardRates(address)": {
        "notice": "Reward token to current reward rate mapping"
      },
      "rewardTokens(uint256)": {
        "notice": "Array of reward token addresses"
      },
      "rewards(address,address)": {
        "notice": "RewardToken => User => Rewards earned till last reward update"
      },
      "updateReward(address)": {
        "notice": "Updated reward for given account. Only Pool can call"
      },
      "userRewardPerTokenPaid(address,address)": {
        "notice": "Reward token => User => Reward per token stored at last reward update"
      }
    },
    "version": 1
  },
  "storageLayout": {
    "storage": [
      {
        "astId": 887,
        "contract": "contracts/pool/earn/EarnDrip.sol:VesperEarnDrip",
        "label": "_initialized",
        "offset": 0,
        "slot": "0",
        "type": "t_bool"
      },
      {
        "astId": 890,
        "contract": "contracts/pool/earn/EarnDrip.sol:VesperEarnDrip",
        "label": "_initializing",
        "offset": 1,
        "slot": "0",
        "type": "t_bool"
      },
      {
        "astId": 938,
        "contract": "contracts/pool/earn/EarnDrip.sol:VesperEarnDrip",
        "label": "_status",
        "offset": 0,
        "slot": "1",
        "type": "t_uint256"
      },
      {
        "astId": 7930,
        "contract": "contracts/pool/earn/EarnDrip.sol:VesperEarnDrip",
        "label": "pool",
        "offset": 0,
        "slot": "2",
        "type": "t_address"
      },
      {
        "astId": 7934,
        "contract": "contracts/pool/earn/EarnDrip.sol:VesperEarnDrip",
        "label": "rewardTokens",
        "offset": 0,
        "slot": "3",
        "type": "t_array(t_address)dyn_storage"
      },
      {
        "astId": 7939,
        "contract": "contracts/pool/earn/EarnDrip.sol:VesperEarnDrip",
        "label": "isRewardToken",
        "offset": 0,
        "slot": "4",
        "type": "t_mapping(t_address,t_bool)"
      },
      {
        "astId": 7944,
        "contract": "contracts/pool/earn/EarnDrip.sol:VesperEarnDrip",
        "label": "periodFinish",
        "offset": 0,
        "slot": "5",
        "type": "t_mapping(t_address,t_uint256)"
      },
      {
        "astId": 7949,
        "contract": "contracts/pool/earn/EarnDrip.sol:VesperEarnDrip",
        "label": "rewardRates",
        "offset": 0,
        "slot": "6",
        "type": "t_mapping(t_address,t_uint256)"
      },
      {
        "astId": 7954,
        "contract": "contracts/pool/earn/EarnDrip.sol:VesperEarnDrip",
        "label": "rewardDuration",
        "offset": 0,
        "slot": "7",
        "type": "t_mapping(t_address,t_uint256)"
      },
      {
        "astId": 7959,
        "contract": "contracts/pool/earn/EarnDrip.sol:VesperEarnDrip",
        "label": "lastUpdateTime",
        "offset": 0,
        "slot": "8",
        "type": "t_mapping(t_address,t_uint256)"
      },
      {
        "astId": 7964,
        "contract": "contracts/pool/earn/EarnDrip.sol:VesperEarnDrip",
        "label": "rewardPerTokenStored",
        "offset": 0,
        "slot": "9",
        "type": "t_mapping(t_address,t_uint256)"
      },
      {
        "astId": 7971,
        "contract": "contracts/pool/earn/EarnDrip.sol:VesperEarnDrip",
        "label": "userRewardPerTokenPaid",
        "offset": 0,
        "slot": "10",
        "type": "t_mapping(t_address,t_mapping(t_address,t_uint256))"
      },
      {
        "astId": 7978,
        "contract": "contracts/pool/earn/EarnDrip.sol:VesperEarnDrip",
        "label": "rewards",
        "offset": 0,
        "slot": "11",
        "type": "t_mapping(t_address,t_mapping(t_address,t_uint256))"
      }
    ],
    "types": {
      "t_address": {
        "encoding": "inplace",
        "label": "address",
        "numberOfBytes": "20"
      },
      "t_array(t_address)dyn_storage": {
        "base": "t_address",
        "encoding": "dynamic_array",
        "label": "address[]",
        "numberOfBytes": "32"
      },
      "t_bool": {
        "encoding": "inplace",
        "label": "bool",
        "numberOfBytes": "1"
      },
      "t_mapping(t_address,t_bool)": {
        "encoding": "mapping",
        "key": "t_address",
        "label": "mapping(address => bool)",
        "numberOfBytes": "32",
        "value": "t_bool"
      },
      "t_mapping(t_address,t_mapping(t_address,t_uint256))": {
        "encoding": "mapping",
        "key": "t_address",
        "label": "mapping(address => mapping(address => uint256))",
        "numberOfBytes": "32",
        "value": "t_mapping(t_address,t_uint256)"
      },
      "t_mapping(t_address,t_uint256)": {
        "encoding": "mapping",
        "key": "t_address",
        "label": "mapping(address => uint256)",
        "numberOfBytes": "32",
        "value": "t_uint256"
      },
      "t_uint256": {
        "encoding": "inplace",
        "label": "uint256",
        "numberOfBytes": "32"
      }
    }
  }
}