{
  "address": "0xed6673F4bFaDD4D269BE68C7dbCC516218C0baD9",
  "abi": [
    {
      "anonymous": false,
      "inputs": [
        {
          "indexed": true,
          "internalType": "address",
          "name": "strategy",
          "type": "address"
        },
        {
          "indexed": false,
          "internalType": "uint256",
          "name": "profit",
          "type": "uint256"
        },
        {
          "indexed": false,
          "internalType": "uint256",
          "name": "loss",
          "type": "uint256"
        },
        {
          "indexed": false,
          "internalType": "uint256",
          "name": "payback",
          "type": "uint256"
        },
        {
          "indexed": false,
          "internalType": "uint256",
          "name": "strategyDebt",
          "type": "uint256"
        },
        {
          "indexed": false,
          "internalType": "uint256",
          "name": "poolDebt",
          "type": "uint256"
        },
        {
          "indexed": false,
          "internalType": "uint256",
          "name": "creditLine",
          "type": "uint256"
        }
      ],
      "name": "EarningReported",
      "type": "event"
    },
    {
      "anonymous": false,
      "inputs": [
        {
          "indexed": true,
          "internalType": "address",
          "name": "strategy",
          "type": "address"
        },
        {
          "indexed": false,
          "internalType": "uint256",
          "name": "loss",
          "type": "uint256"
        }
      ],
      "name": "LossReported",
      "type": "event"
    },
    {
      "anonymous": false,
      "inputs": [
        {
          "indexed": true,
          "internalType": "address",
          "name": "strategy",
          "type": "address"
        },
        {
          "indexed": false,
          "internalType": "uint256",
          "name": "debtRatio",
          "type": "uint256"
        },
        {
          "indexed": false,
          "internalType": "uint256",
          "name": "externalDepositFee",
          "type": "uint256"
        }
      ],
      "name": "StrategyAdded",
      "type": "event"
    },
    {
      "anonymous": false,
      "inputs": [
        {
          "indexed": true,
          "internalType": "address",
          "name": "oldStrategy",
          "type": "address"
        },
        {
          "indexed": true,
          "internalType": "address",
          "name": "newStrategy",
          "type": "address"
        }
      ],
      "name": "StrategyMigrated",
      "type": "event"
    },
    {
      "anonymous": false,
      "inputs": [
        {
          "indexed": true,
          "internalType": "address",
          "name": "strategy",
          "type": "address"
        }
      ],
      "name": "StrategyRemoved",
      "type": "event"
    },
    {
      "anonymous": false,
      "inputs": [
        {
          "indexed": true,
          "internalType": "address",
          "name": "strategy",
          "type": "address"
        },
        {
          "indexed": false,
          "internalType": "uint256",
          "name": "oldFee",
          "type": "uint256"
        },
        {
          "indexed": false,
          "internalType": "uint256",
          "name": "newFee",
          "type": "uint256"
        }
      ],
      "name": "UpdatedExternalDepositFee",
      "type": "event"
    },
    {
      "anonymous": false,
      "inputs": [
        {
          "indexed": false,
          "internalType": "uint256",
          "name": "oldFee",
          "type": "uint256"
        },
        {
          "indexed": false,
          "internalType": "uint256",
          "name": "newFee",
          "type": "uint256"
        }
      ],
      "name": "UpdatedPoolExternalDepositFee",
      "type": "event"
    },
    {
      "anonymous": false,
      "inputs": [
        {
          "indexed": true,
          "internalType": "address",
          "name": "strategy",
          "type": "address"
        },
        {
          "indexed": false,
          "internalType": "uint256",
          "name": "oldDebtRatio",
          "type": "uint256"
        },
        {
          "indexed": false,
          "internalType": "uint256",
          "name": "newDebtRatio",
          "type": "uint256"
        }
      ],
      "name": "UpdatedStrategyDebtRatio",
      "type": "event"
    },
    {
      "inputs": [],
      "name": "MAX_BPS",
      "outputs": [
        {
          "internalType": "uint256",
          "name": "",
          "type": "uint256"
        }
      ],
      "stateMutability": "view",
      "type": "function"
    },
    {
      "inputs": [],
      "name": "VERSION",
      "outputs": [
        {
          "internalType": "string",
          "name": "",
          "type": "string"
        }
      ],
      "stateMutability": "view",
      "type": "function"
    },
    {
      "inputs": [
        {
          "internalType": "address",
          "name": "_strategy",
          "type": "address"
        },
        {
          "internalType": "uint256",
          "name": "_debtRatio",
          "type": "uint256"
        },
        {
          "internalType": "uint256",
          "name": "_externalDepositFee",
          "type": "uint256"
        }
      ],
      "name": "addStrategy",
      "outputs": [],
      "stateMutability": "nonpayable",
      "type": "function"
    },
    {
      "inputs": [
        {
          "internalType": "address",
          "name": "_strategy",
          "type": "address"
        }
      ],
      "name": "availableCreditLimit",
      "outputs": [
        {
          "internalType": "uint256",
          "name": "",
          "type": "uint256"
        }
      ],
      "stateMutability": "view",
      "type": "function"
    },
    {
      "inputs": [
        {
          "internalType": "address",
          "name": "_strategy",
          "type": "address"
        },
        {
          "internalType": "uint256",
          "name": "_decreaseBy",
          "type": "uint256"
        }
      ],
      "name": "decreaseDebt",
      "outputs": [],
      "stateMutability": "nonpayable",
      "type": "function"
    },
    {
      "inputs": [
        {
          "internalType": "address",
          "name": "_strategy",
          "type": "address"
        }
      ],
      "name": "excessDebt",
      "outputs": [
        {
          "internalType": "uint256",
          "name": "",
          "type": "uint256"
        }
      ],
      "stateMutability": "view",
      "type": "function"
    },
    {
      "inputs": [],
      "name": "externalDepositFee",
      "outputs": [
        {
          "internalType": "uint256",
          "name": "",
          "type": "uint256"
        }
      ],
      "stateMutability": "view",
      "type": "function"
    },
    {
      "inputs": [],
      "name": "getStrategies",
      "outputs": [
        {
          "internalType": "address[]",
          "name": "",
          "type": "address[]"
        }
      ],
      "stateMutability": "view",
      "type": "function"
    },
    {
      "inputs": [],
      "name": "getWithdrawQueue",
      "outputs": [
        {
          "internalType": "address[]",
          "name": "",
          "type": "address[]"
        }
      ],
      "stateMutability": "view",
      "type": "function"
    },
    {
      "inputs": [
        {
          "internalType": "address",
          "name": "_pool",
          "type": "address"
        }
      ],
      "name": "init",
      "outputs": [],
      "stateMutability": "nonpayable",
      "type": "function"
    },
    {
      "inputs": [
        {
          "internalType": "address",
          "name": "_old",
          "type": "address"
        },
        {
          "internalType": "address",
          "name": "_new",
          "type": "address"
        }
      ],
      "name": "migrateStrategy",
      "outputs": [],
      "stateMutability": "nonpayable",
      "type": "function"
    },
    {
      "inputs": [],
      "name": "pool",
      "outputs": [
        {
          "internalType": "address",
          "name": "",
          "type": "address"
        }
      ],
      "stateMutability": "view",
      "type": "function"
    },
    {
      "inputs": [],
      "name": "recalculatePoolExternalDepositFee",
      "outputs": [],
      "stateMutability": "nonpayable",
      "type": "function"
    },
    {
      "inputs": [
        {
          "internalType": "uint256",
          "name": "_index",
          "type": "uint256"
        }
      ],
      "name": "removeStrategy",
      "outputs": [],
      "stateMutability": "nonpayable",
      "type": "function"
    },
    {
      "inputs": [
        {
          "internalType": "address",
          "name": "_strategy",
          "type": "address"
        },
        {
          "internalType": "uint256",
          "name": "_profit",
          "type": "uint256"
        },
        {
          "internalType": "uint256",
          "name": "_loss",
          "type": "uint256"
        },
        {
          "internalType": "uint256",
          "name": "_payback",
          "type": "uint256"
        }
      ],
      "name": "reportEarning",
      "outputs": [
        {
          "internalType": "uint256",
          "name": "_actualPayback",
          "type": "uint256"
        },
        {
          "internalType": "uint256",
          "name": "_creditLine",
          "type": "uint256"
        }
      ],
      "stateMutability": "nonpayable",
      "type": "function"
    },
    {
      "inputs": [
        {
          "internalType": "address",
          "name": "_strategy",
          "type": "address"
        },
        {
          "internalType": "uint256",
          "name": "_loss",
          "type": "uint256"
        }
      ],
      "name": "reportLoss",
      "outputs": [],
      "stateMutability": "nonpayable",
      "type": "function"
    },
    {
      "inputs": [],
      "name": "setup",
      "outputs": [],
      "stateMutability": "nonpayable",
      "type": "function"
    },
    {
      "inputs": [
        {
          "internalType": "uint256",
          "name": "",
          "type": "uint256"
        }
      ],
      "name": "strategies",
      "outputs": [
        {
          "internalType": "address",
          "name": "",
          "type": "address"
        }
      ],
      "stateMutability": "view",
      "type": "function"
    },
    {
      "inputs": [
        {
          "internalType": "address",
          "name": "",
          "type": "address"
        }
      ],
      "name": "strategy",
      "outputs": [
        {
          "internalType": "bool",
          "name": "active",
          "type": "bool"
        },
        {
          "internalType": "uint256",
          "name": "interestFee",
          "type": "uint256"
        },
        {
          "internalType": "uint256",
          "name": "debtRate",
          "type": "uint256"
        },
        {
          "internalType": "uint256",
          "name": "lastRebalance",
          "type": "uint256"
        },
        {
          "internalType": "uint256",
          "name": "totalDebt",
          "type": "uint256"
        },
        {
          "internalType": "uint256",
          "name": "totalLoss",
          "type": "uint256"
        },
        {
          "internalType": "uint256",
          "name": "totalProfit",
          "type": "uint256"
        },
        {
          "internalType": "uint256",
          "name": "debtRatio",
          "type": "uint256"
        },
        {
          "internalType": "uint256",
          "name": "externalDepositFee",
          "type": "uint256"
        }
      ],
      "stateMutability": "view",
      "type": "function"
    },
    {
      "inputs": [
        {
          "internalType": "address",
          "name": "_fromToken",
          "type": "address"
        }
      ],
      "name": "sweepERC20",
      "outputs": [],
      "stateMutability": "nonpayable",
      "type": "function"
    },
    {
      "inputs": [],
      "name": "totalDebt",
      "outputs": [
        {
          "internalType": "uint256",
          "name": "",
          "type": "uint256"
        }
      ],
      "stateMutability": "view",
      "type": "function"
    },
    {
      "inputs": [
        {
          "internalType": "address",
          "name": "_strategy",
          "type": "address"
        }
      ],
      "name": "totalDebtOf",
      "outputs": [
        {
          "internalType": "uint256",
          "name": "",
          "type": "uint256"
        }
      ],
      "stateMutability": "view",
      "type": "function"
    },
    {
      "inputs": [],
      "name": "totalDebtRatio",
      "outputs": [
        {
          "internalType": "uint256",
          "name": "",
          "type": "uint256"
        }
      ],
      "stateMutability": "view",
      "type": "function"
    },
    {
      "inputs": [
        {
          "internalType": "address",
          "name": "_strategy",
          "type": "address"
        },
        {
          "internalType": "uint256",
          "name": "_debtRatio",
          "type": "uint256"
        }
      ],
      "name": "updateDebtRatio",
      "outputs": [],
      "stateMutability": "nonpayable",
      "type": "function"
    },
    {
      "inputs": [
        {
          "internalType": "address",
          "name": "_strategy",
          "type": "address"
        },
        {
          "internalType": "uint256",
          "name": "_externalDepositFee",
          "type": "uint256"
        }
      ],
      "name": "updateExternalDepositFee",
      "outputs": [],
      "stateMutability": "nonpayable",
      "type": "function"
    },
    {
      "inputs": [
        {
          "internalType": "address[]",
          "name": "_withdrawQueue",
          "type": "address[]"
        }
      ],
      "name": "updateWithdrawQueue",
      "outputs": [],
      "stateMutability": "nonpayable",
      "type": "function"
    },
    {
      "inputs": [
        {
          "internalType": "uint256",
          "name": "",
          "type": "uint256"
        }
      ],
      "name": "withdrawQueue",
      "outputs": [
        {
          "internalType": "address",
          "name": "",
          "type": "address"
        }
      ],
      "stateMutability": "view",
      "type": "function"
    }
  ],
  "transactionHash": "0xc2c917b55636e88e7a0d39da2e3b4e0c8b008542a4df61fa9f73ae99df47241f",
  "args": [],
  "numDeployments": 1,
  "solcInputHash": "fb627754984115d0aed3109b8f1b5b1b",
  "bytecode": "0x608060405234801561001057600080fd5b50613006806100206000396000f3fe608060405234801561001057600080fd5b50600436106101795760003560e01c80638f88d18c116100d9578063d53ddc2611610087578063d53ddc26146103b2578063d574ea3d146103c5578063e00af4a7146103d8578063fa34d611146103eb578063fc7b9c18146103fe578063fd967f4714610407578063ffa1ad741461041057600080fd5b80638f88d18c146103155780639f2b283314610328578063a066654b14610354578063b49a60bb1461037c578063b64321ec14610384578063ba0bba4014610397578063c0cbbca61461039f57600080fd5b80632fb9ba31116101365780632fb9ba311461029a57806332b77a76146102ad578063346162d5146102c057806362518ddf146102c95780636cb56d19146102dc5780637f13086e146102ef578063854f4d801461030257600080fd5b8063111830521461017e57806316f0115b1461019c57806319ab453c146101c2578063228bfd9f146101d75780632a1f6ec11461027b5780632df9eab914610283575b600080fd5b610186610441565b6040516101939190612b26565b60405180910390f35b6000546101b5906201000090046001600160a01b031681565b6040516101939190612b73565b6101d56101d0366004612bac565b6104a3565b005b6102356101e5366004612bac565b600560208190526000918252604090912080546001820154600283015460038401546004850154958501546006860154600787015460089097015460ff9096169794969395929493919290919089565b604080519915158a5260208a0198909852968801959095526060870193909352608086019190915260a085015260c084015260e083015261010082015261012001610193565b6101d56105bf565b61028c60015481565b604051908152602001610193565b6101d56102a8366004612bc9565b6106fb565b6101d56102bb366004612bc9565b6107a4565b61028c60065481565b6101b56102d7366004612bf5565b61094a565b6101d56102ea366004612c0e565b610974565b6101d56102fd366004612bc9565b610dd8565b6101d5610310366004612c5d565b610eb1565b6101d5610323366004612bc9565b6110ea565b61028c610336366004612bac565b6001600160a01b031660009081526005602052604090206004015490565b610367610362366004612d22565b611365565b60408051928352602083019190915201610193565b6101866116c6565b61028c610392366004612bac565b611726565b6101d5611737565b6101d56103ad366004612bf5565b6117c9565b61028c6103c0366004612bac565b611bdb565b6101b56103d3366004612bf5565b611be6565b6101d56103e6366004612bac565b611bf6565b6101d56103f9366004612d5d565b611dca565b61028c60025481565b61028c61271081565b610434604051806040016040528060058152602001640352e302e360dc1b81525081565b6040516101939190612dbe565b6060600480548060200260200160405190810160405280929190818152602001828054801561049957602002820191906000526020600020905b81546001600160a01b0316815260019091019060200180831161047b575b5050505050905090565b600054610100900460ff16806104bc575060005460ff16155b6105245760405162461bcd60e51b815260206004820152602e60248201527f496e697469616c697a61626c653a20636f6e747261637420697320616c72656160448201526d191e481a5b9a5d1a585b1a5e995960921b60648201526084015b60405180910390fd5b600054610100900460ff16158015610546576000805461ffff19166101011790555b604080518082019091526002815261031360f41b60208201526001600160a01b0383166105865760405162461bcd60e51b815260040161051b9190612dbe565b506000805462010000600160b01b031916620100006001600160a01b0385160217905580156105bb576000805461ff00191690555b5050565b6000546040805163030d028960e21b8152905133926201000090046001600160a01b031691630c340a24916004808301926020929190829003018186803b15801561060957600080fd5b505afa15801561061d573d6000803e3d6000fd5b505050506040513d601f19601f820116820180604052508101906106419190612df1565b6001600160a01b031614806106d557506000546201000090046001600160a01b0316636ba42aaa336040518263ffffffff1660e01b81526004016106859190612b73565b60206040518083038186803b15801561069d57600080fd5b505afa1580156106b1573d6000803e3d6000fd5b505050506040513d601f19601f820116820180604052508101906106d59190612e0e565b6106f15760405162461bcd60e51b815260040161051b90612e30565b6106f9612160565b565b6000546001600160a01b036201000090910416331461072c5760405162461bcd60e51b815260040161051b90612e56565b6001600160a01b038216600090815260056020526040902060040154610752908261228d565b6001600160a01b038316600090815260056020526040812060040180549293508392909190610782908490612e90565b92505081905550806002600082825461079b9190612e90565b90915550505050565b6000546040805163030d028960e21b8152905133926201000090046001600160a01b031691630c340a24916004808301926020929190829003018186803b1580156107ee57600080fd5b505afa158015610802573d6000803e3d6000fd5b505050506040513d601f19601f820116820180604052508101906108269190612df1565b6001600160a01b03161461084c5760405162461bcd60e51b815260040161051b90612ea7565b6001600160a01b0382166000908152600560209081526040918290205482518084019093526002835261189b60f11b9183019190915260ff166108a25760405162461bcd60e51b815260040161051b9190612dbe565b50604080518082019091526002815261313160f01b60208201526127108211156108df5760405162461bcd60e51b815260040161051b9190612dbe565b506001600160a01b038216600081815260056020908152604091829020600801805490859055825181815291820185905292917f3e57eabb1906726caa174b6716b34373026dfd25dbae17ba47ec46e8a9ced9ee910160405180910390a2610945612160565b505050565b6004818154811061095a57600080fd5b6000918252602090912001546001600160a01b0316905081565b6000546001600160a01b03620100009091041633146109a55760405162461bcd60e51b815260040161051b90612e56565b6001600160a01b0382166000908152600560209081526040918290205482518084019093526002835261189b60f11b9183019190915260ff166109fb5760405162461bcd60e51b815260040161051b9190612dbe565b506001600160a01b0381166000908152600560209081526040918290205482518084019093526002835261313560f01b9183019190915260ff1615610a535760405162461bcd60e51b815260040161051b9190612dbe565b506000604051806101200160405280600115158152602001600081526020016000815260200160056000866001600160a01b03166001600160a01b0316815260200190815260200160002060030154815260200160056000866001600160a01b03166001600160a01b03168152602001908152602001600020600401548152602001600081526020016000815260200160056000866001600160a01b03166001600160a01b0316815260200190815260200160002060070154815260200160056000866001600160a01b03166001600160a01b0316815260200190815260200160002060080154815250905060056000846001600160a01b03166001600160a01b03168152602001908152602001600020600080820160006101000a81549060ff02191690556001820160009055600282016000905560038201600090556004820160009055600582016000905560068201600090556007820160009055600882016000905550508060056000846001600160a01b03166001600160a01b0316815260200190815260200160002060008201518160000160006101000a81548160ff0219169083151502179055506020820151816001015560408201518160020155606082015181600301556080820151816004015560a0820151816005015560c0820151816006015560e08201518160070155610100820151816008015590505060005b600354811015610cf357836001600160a01b031660038281548110610c7f57610c7f612ed1565b6000918252602090912001546001600160a01b03161415610ce1578260038281548110610cae57610cae612ed1565b9060005260206000200160006101000a8154816001600160a01b0302191690836001600160a01b03160217905550610cf3565b80610ceb81612ee7565b915050610c58565b5060005b600454811015610d9257836001600160a01b031660048281548110610d1e57610d1e612ed1565b6000918252602090912001546001600160a01b03161415610d80578260048281548110610d4d57610d4d612ed1565b9060005260206000200160006101000a8154816001600160a01b0302191690836001600160a01b03160217905550610d92565b80610d8a81612ee7565b915050610cf7565b50816001600160a01b0316836001600160a01b03167f100b69bb6b504e1252e36b375233158edee64d071b399e2f81473a695fd1b02160405160405180910390a3505050565b6000546001600160a01b0362010000909104163314610e095760405162461bcd60e51b815260040161051b90612e56565b6001600160a01b0382166000908152600560209081526040918290205482518084019093526002835261189b60f11b9183019190915260ff16610e5f5760405162461bcd60e51b815260040161051b9190612dbe565b50610e6a82826122a5565b816001600160a01b03167f3ffa9beb41b46c88b16758ef6c236ebd4d07cdfd4d22471030eb6b2d662482d982604051610ea591815260200190565b60405180910390a25050565b6000546040805163030d028960e21b8152905133926201000090046001600160a01b031691630c340a24916004808301926020929190829003018186803b158015610efb57600080fd5b505afa158015610f0f573d6000803e3d6000fd5b505050506040513d601f19601f82011682018060405250810190610f339190612df1565b6001600160a01b03161480610fc757506000546201000090046001600160a01b031663dd57366a336040518263ffffffff1660e01b8152600401610f779190612b73565b60206040518083038186803b158015610f8f57600080fd5b505afa158015610fa3573d6000803e3d6000fd5b505050506040513d601f19601f82011682018060405250810190610fc79190612e0e565b610fe35760405162461bcd60e51b815260040161051b90612f02565b805160045481148015610ff7575060035481145b604051806040016040528060018152602001600d60fa1b8152509061102f5760405162461bcd60e51b815260040161051b9190612dbe565b5060005b818110156110d6576005600084838151811061105157611051612ed1565b60200260200101516001600160a01b03166001600160a01b0316815260200190815260200160002060000160009054906101000a900460ff1660405180604001604052806002815260200161189b60f11b815250906110c35760405162461bcd60e51b815260040161051b9190612dbe565b50806110ce81612ee7565b915050611033565b508151610945906004906020850190612aac565b6000546040805163030d028960e21b8152905133926201000090046001600160a01b031691630c340a24916004808301926020929190829003018186803b15801561113457600080fd5b505afa158015611148573d6000803e3d6000fd5b505050506040513d601f19601f8201168201806040525081019061116c9190612df1565b6001600160a01b0316148061120057506000546201000090046001600160a01b031663dd57366a336040518263ffffffff1660e01b81526004016111b09190612b73565b60206040518083038186803b1580156111c857600080fd5b505afa1580156111dc573d6000803e3d6000fd5b505050506040513d601f19601f820116820180604052508101906112009190612e0e565b61121c5760405162461bcd60e51b815260040161051b90612f02565b6001600160a01b0382166000908152600560209081526040918290205482518084019093526002835261189b60f11b9183019190915260ff166112725760405162461bcd60e51b815260040161051b9190612dbe565b506001600160a01b038216600090815260056020526040902060070154600154829161129d91612e90565b6112a79190612f2c565b6001819055604080518082019091526002815261062760f31b60208201529061271010156112e85760405162461bcd60e51b815260040161051b9190612dbe565b506001600160a01b0382166000818152600560209081526040918290206007015482519081529081018490527fab9990442b7ef5dfed05018d2d947ceb38710eda84b3e3b32940cbb28867ee0e910160405180910390a26001600160a01b03821660009081526005602052604090206007018190556105bb612160565b6000805481906001600160a01b03620100009091041633146113995760405162461bcd60e51b815260040161051b90612e56565b6001600160a01b0386166000908152600560209081526040918290205482518084019093526002835261189b60f11b9183019190915260ff166113ef5760405162461bcd60e51b815260040161051b9190612dbe565b506113fa8386612f2c565b600060029054906101000a90046001600160a01b03166001600160a01b031663fc0c546a6040518163ffffffff1660e01b815260040160206040518083038186803b15801561144857600080fd5b505afa15801561145c573d6000803e3d6000fd5b505050506040513d601f19601f820116820180604052508101906114809190612df1565b6001600160a01b03166370a08231886040518263ffffffff1660e01b81526004016114ab9190612b73565b60206040518083038186803b1580156114c357600080fd5b505afa1580156114d7573d6000803e3d6000fd5b505050506040513d601f19601f820116820180604052508101906114fb9190612f44565b1015604051806040016040528060018152602001603960f81b815250906115355760405162461bcd60e51b815260040161051b9190612dbe565b5083156115465761154686856122a5565b600061155187612492565b905061155d818561228d565b925082156115af576001600160a01b03871660009081526005602052604081206004018054859290611590908490612e90565b9250508190555082600260008282546115a99190612e90565b90915550505b6115b88761262e565b9150811561160a576001600160a01b038716600090815260056020526040812060040180548492906115eb908490612f2c565b9250508190555081600260008282546116049190612f2c565b90915550505b8515611641576001600160a01b0387166000908152600560205260408120600601805488929061163b908490612f2c565b90915550505b6001600160a01b0387166000818152600560209081526040918290204260038201556004015460025483518b81529283018a90529282018790526060820152608081019190915260a081018490527f29c6c60e040fcd722949346bda66341e8859b20b9a2124a625326ad10373391b9060c00160405180910390a25094509492505050565b60606003805480602002602001604051908101604052809291908181526020018280548015610499576020028201919060005260206000209081546001600160a01b0316815260019091019060200180831161047b575050505050905090565b60006117318261262e565b92915050565b6000546001600160a01b03620100009091041633146117685760405162461bcd60e51b815260040161051b90612e56565b60035460005b818110156105bb576000600560006003848154811061178f5761178f612ed1565b60009182526020808320909101546001600160a01b03168352820192909252604001902060010155806117c181612ee7565b91505061176e565b6000546040805163030d028960e21b8152905133926201000090046001600160a01b031691630c340a24916004808301926020929190829003018186803b15801561181357600080fd5b505afa158015611827573d6000803e3d6000fd5b505050506040513d601f19601f8201168201806040525081019061184b9190612df1565b6001600160a01b0316146118715760405162461bcd60e51b815260040161051b90612ea7565b60006003828154811061188657611886612ed1565b60009182526020808320909101546001600160a01b0316808352600582526040928390205483518085019094526002845261189b60f11b92840192909252925060ff166118e65760405162461bcd60e51b815260040161051b9190612dbe565b506001600160a01b0381166000908152600560209081526040918290206004015482518084019093526002835261313960f01b918301919091521561193e5760405162461bcd60e51b815260040161051b9190612dbe565b506001600160a01b038116600090815260056020526040812060070154600180549192909161196e908490612e90565b90915550506001600160a01b03811660009081526005602081905260408220805460ff191681556001808201849055600282018490556003808301859055600483018590559282018490556006820184905560078201849055600890910192909255805490916119dd91612e90565b815481106119ed576119ed612ed1565b600091825260209091200154600380546001600160a01b039092169184908110611a1957611a19612ed1565b9060005260206000200160006101000a8154816001600160a01b0302191690836001600160a01b031602179055506003805480611a5857611a58612f5d565b600082815260208120820160001990810180546001600160a01b031916905590910190915560035467ffffffffffffffff811115611a9857611a98612c47565b604051908082528060200260200182016040528015611ac1578160200160208202803683370190505b5090506000805b600454811015611b8457836001600160a01b031660048281548110611aef57611aef612ed1565b6000918252602090912001546001600160a01b031614611b725760048181548110611b1c57611b1c612ed1565b9060005260206000200160009054906101000a90046001600160a01b0316838381518110611b4c57611b4c612ed1565b6001600160a01b039092166020928302919091019091015281611b6e81612ee7565b9250505b80611b7c81612ee7565b915050611ac8565b508151611b98906004906020850190612aac565b506040516001600160a01b038416907f09a1db4b80c32706328728508c941a6b954f31eb5affd32f236c1fd405f8fea490600090a2611bd5612160565b50505050565b600061173182612492565b6003818154811061095a57600080fd5b6000546040805163030d028960e21b8152905133926201000090046001600160a01b031691630c340a24916004808301926020929190829003018186803b158015611c4057600080fd5b505afa158015611c54573d6000803e3d6000fd5b505050506040513d601f19601f82011682018060405250810190611c789190612df1565b6001600160a01b03161480611d0c57506000546201000090046001600160a01b0316636ba42aaa336040518263ffffffff1660e01b8152600401611cbc9190612b73565b60206040518083038186803b158015611cd457600080fd5b505afa158015611ce8573d6000803e3d6000fd5b505050506040513d601f19601f82011682018060405250810190611d0c9190612e0e565b611d285760405162461bcd60e51b815260040161051b90612e30565b6000546040516370a0823160e01b8152611dc7916001600160a01b0362010000909104811691908416906370a0823190611d66903090600401612b73565b60206040518083038186803b158015611d7e57600080fd5b505afa158015611d92573d6000803e3d6000fd5b505050506040513d601f19601f82011682018060405250810190611db69190612f44565b6001600160a01b03841691906128a4565b50565b6000546040805163030d028960e21b8152905133926201000090046001600160a01b031691630c340a24916004808301926020929190829003018186803b158015611e1457600080fd5b505afa158015611e28573d6000803e3d6000fd5b505050506040513d601f19601f82011682018060405250810190611e4c9190612df1565b6001600160a01b031614611e725760405162461bcd60e51b815260040161051b90612ea7565b604080518082019091526002815261031360f41b60208201526001600160a01b038416611eb25760405162461bcd60e51b815260040161051b9190612dbe565b506001600160a01b0383166000908152600560209081526040918290205482518084019093526002835261313560f01b9183019190915260ff1615611f0a5760405162461bcd60e51b815260040161051b9190612dbe565b5081600154611f199190612f2c565b6001819055604080518082019091526002815261062760f31b6020820152906127101015611f5a5760405162461bcd60e51b815260040161051b9190612dbe565b50604080518082019091526002815261313160f01b6020820152612710821115611f975760405162461bcd60e51b815260040161051b9190612dbe565b50600060405180610120016040528060011515815260200160008152602001600081526020014281526020016000815260200160008152602001600081526020018481526020018381525090508060056000866001600160a01b03166001600160a01b0316815260200190815260200160002060008201518160000160006101000a81548160ff0219169083151502179055506020820151816001015560408201518160020155606082015181600301556080820151816004015560a0820151816005015560c0820151816006015560e0820151816007015561010082015181600801559050506003849080600181540180825580915050600190039060005260206000200160009091909190916101000a8154816001600160a01b0302191690836001600160a01b031602179055506004849080600181540180825580915050600190039060005260206000200160009091909190916101000a8154816001600160a01b0302191690836001600160a01b03160217905550836001600160a01b03167f45bb3eed5cd098efb0a286413fb1f3c11841762610cefbabae6a772963e916ba8484604051612154929190918252602082015260400190565b60405180910390a2611bd55b600354600154600090156122485760005b8281101561224657600154600560006003848154811061219357612193612ed1565b9060005260206000200160009054906101000a90046001600160a01b03166001600160a01b03166001600160a01b031681526020019081526020016000206007015460056000600385815481106121ec576121ec612ed1565b60009182526020808320909101546001600160a01b0316835282019290925260400190206008015461221e9190612f73565b6122289190612f92565b6122329083612f2c565b91508061223e81612ee7565b915050612171565b505b600680549082905560408051918252602082018390527f2d6a5770d560080bb77885132eea46b6db3b15e70e6e5e73087ea7bcd138fcf0910160405180910390a15050565b600081831061229c578161229e565b825b9392505050565b6001600160a01b0382166000908152600560209081526040918290206004015482518084019093526002835261032360f41b9183019190915290828210156123005760405162461bcd60e51b815260040161051b9190612dbe565b506001600160a01b0383166000908152600560208190526040822001805484929061232c908490612f2c565b90915550506001600160a01b0383166000908152600560205260408120600401805484929061235c908490612e90565b9250508190555081600260008282546123759190612e90565b92505081905550600061243e600060029054906101000a90046001600160a01b03166001600160a01b031663d4c3eea06040518163ffffffff1660e01b815260040160206040518083038186803b1580156123cf57600080fd5b505afa1580156123e3573d6000803e3d6000fd5b505050506040513d601f19601f820116820180604052508101906124079190612f44565b61241361271086612f73565b61241d9190612f92565b6001600160a01b03861660009081526005602052604090206007015461228d565b6001600160a01b03851660009081526005602052604081206007018054929350839290919061246e908490612e90565b9250508190555080600160008282546124879190612e90565b909155505050505050565b60008060056000846001600160a01b03166001600160a01b03168152602001908152602001600020600401549050600060029054906101000a90046001600160a01b03166001600160a01b0316634938649a6040518163ffffffff1660e01b815260040160206040518083038186803b15801561250e57600080fd5b505afa158015612522573d6000803e3d6000fd5b505050506040513d601f19601f820116820180604052508101906125469190612e0e565b156125515792915050565b6000612710600060029054906101000a90046001600160a01b03166001600160a01b031663d4c3eea06040518163ffffffff1660e01b815260040160206040518083038186803b1580156125a457600080fd5b505afa1580156125b8573d6000803e3d6000fd5b505050506040513d601f19601f820116820180604052508101906125dc9190612f44565b6001600160a01b0386166000908152600560205260409020600701546126029190612f73565b61260c9190612f92565b905080821161261c576000612626565b6126268183612e90565b949350505050565b60008060029054906101000a90046001600160a01b03166001600160a01b0316634938649a6040518163ffffffff1660e01b815260040160206040518083038186803b15801561267d57600080fd5b505afa158015612691573d6000803e3d6000fd5b505050506040513d601f19601f820116820180604052508101906126b59190612e0e565b156126c257506000919050565b60008060029054906101000a90046001600160a01b03166001600160a01b031663d4c3eea06040518163ffffffff1660e01b815260040160206040518083038186803b15801561271157600080fd5b505afa158015612725573d6000803e3d6000fd5b505050506040513d601f19601f820116820180604052508101906127499190612f44565b6001600160a01b0384166000908152600560205260408120600701549192509061271090612778908490612f73565b6127829190612f92565b6001600160a01b0385166000908152600560205260409020600401549091508181106127b357506000949350505050565b6000612710846001546127c69190612f73565b6127d09190612f92565b905080600254106127e75750600095945050505050565b60006127f38385612e90565b9050612899612887600060029054906101000a90046001600160a01b03166001600160a01b031663b8cb343d6040518163ffffffff1660e01b815260040160206040518083038186803b15801561284957600080fd5b505afa15801561285d573d6000803e3d6000fd5b505050506040513d601f19601f820116820180604052508101906128819190612f44565b8361228d565b6002546128949085612e90565b61228d565b979650505050505050565b604080516001600160a01b03848116602483015260448083018590528351808403909101815260649092018352602080830180516001600160e01b031663a9059cbb60e01b17905283518085019094528084527f5361666545524332303a206c6f772d6c6576656c2063616c6c206661696c656490840152610945928692916000916129349185169084906129b1565b80519091501561094557808060200190518101906129529190612e0e565b6109455760405162461bcd60e51b815260206004820152602a60248201527f5361666545524332303a204552433230206f7065726174696f6e20646964206e6044820152691bdd081cdd58d8d9595960b21b606482015260840161051b565b6060612626848460008585843b612a0a5760405162461bcd60e51b815260206004820152601d60248201527f416464726573733a2063616c6c20746f206e6f6e2d636f6e7472616374000000604482015260640161051b565b600080866001600160a01b03168587604051612a269190612fb4565b60006040518083038185875af1925050503d8060008114612a63576040519150601f19603f3d011682016040523d82523d6000602084013e612a68565b606091505b509150915061289982828660608315612a8257508161229e565b825115612a925782518084602001fd5b8160405162461bcd60e51b815260040161051b9190612dbe565b828054828255906000526020600020908101928215612b01579160200282015b82811115612b0157825182546001600160a01b0319166001600160a01b03909116178255602090920191600190910190612acc565b50612b0d929150612b11565b5090565b5b80821115612b0d5760008155600101612b12565b6020808252825182820181905260009190848201906040850190845b81811015612b675783516001600160a01b031683529284019291840191600101612b42565b50909695505050505050565b6001600160a01b0391909116815260200190565b6001600160a01b0381168114611dc757600080fd5b8035612ba781612b87565b919050565b600060208284031215612bbe57600080fd5b813561229e81612b87565b60008060408385031215612bdc57600080fd5b8235612be781612b87565b946020939093013593505050565b600060208284031215612c0757600080fd5b5035919050565b60008060408385031215612c2157600080fd5b8235612c2c81612b87565b91506020830135612c3c81612b87565b809150509250929050565b634e487b7160e01b600052604160045260246000fd5b60006020808385031215612c7057600080fd5b823567ffffffffffffffff80821115612c8857600080fd5b818501915085601f830112612c9c57600080fd5b813581811115612cae57612cae612c47565b8060051b604051601f19603f83011681018181108582111715612cd357612cd3612c47565b604052918252848201925083810185019188831115612cf157600080fd5b938501935b82851015612d1657612d0785612b9c565b84529385019392850192612cf6565b98975050505050505050565b60008060008060808587031215612d3857600080fd5b8435612d4381612b87565b966020860135965060408601359560600135945092505050565b600080600060608486031215612d7257600080fd5b8335612d7d81612b87565b95602085013595506040909401359392505050565b60005b83811015612dad578181015183820152602001612d95565b83811115611bd55750506000910152565b6020815260008251806020840152612ddd816040850160208701612d92565b601f01601f19169190910160400192915050565b600060208284031215612e0357600080fd5b815161229e81612b87565b600060208284031215612e2057600080fd5b8151801515811461229e57600080fd5b6020808252600c908201526b3737ba16b096b5b2b2b832b960a11b604082015260600190565b6020808252600a90820152691b9bdd0b584b5c1bdbdb60b21b604082015260600190565b634e487b7160e01b600052601160045260246000fd5b600082821015612ea257612ea2612e7a565b500390565b60208082526010908201526f3737ba16ba343296b3b7bb32b93737b960811b604082015260600190565b634e487b7160e01b600052603260045260246000fd5b6000600019821415612efb57612efb612e7a565b5060010190565b60208082526010908201526f3737ba16b096b6b0b4b73a30b4b732b960811b604082015260600190565b60008219821115612f3f57612f3f612e7a565b500190565b600060208284031215612f5657600080fd5b5051919050565b634e487b7160e01b600052603160045260246000fd5b6000816000190483118215151615612f8d57612f8d612e7a565b500290565b600082612faf57634e487b7160e01b600052601260045260246000fd5b500490565b60008251612fc6818460208701612d92565b919091019291505056fea26469706673582212203174d50b9962d816f0d0007774bcf60702a0d65b134dc207edf1cda2d0600c0664736f6c63430008090033",
  "devdoc": {
    "kind": "dev",
    "methods": {
      "addStrategy(address,uint256,uint256)": {
        "details": "Recalculate pool level external deposit fee after all state variables are updated.",
        "params": {
          "_debtRatio": "Pool fund allocation to this strategy",
          "_externalDepositFee": "External deposit fee of strategy",
          "_strategy": "Strategy address"
        }
      },
      "availableCreditLimit(address)": {
        "details": "Available credit limit is calculated based on current debt of pool and strategy, current debt limit of pool and strategy. credit available = min(pool's debt limit, strategy's debt limit, max debt per rebalance) when some strategy do not pay back outstanding debt, this impact credit line of other strategy if totalDebt of pool >= debtLimit of pool",
        "params": {
          "_strategy": "Strategy address"
        }
      },
      "decreaseDebt(address,uint256)": {
        "details": "In case of withdraw from strategy, pool will decrease debt by amount withdrawn",
        "params": {
          "_decreaseBy": "Amount by which strategy debt will be decreased",
          "_strategy": "Strategy Address"
        }
      },
      "excessDebt(address)": {
        "params": {
          "_strategy": "Address of strategy"
        }
      },
      "init(address)": {
        "details": "This init function meant to be called after proxy deployment.DO NOT CALL it with proxy deploy",
        "params": {
          "_pool": "Address of Vesper pool proxy"
        }
      },
      "migrateStrategy(address,address)": {
        "details": "Migrating strategy aka old and new strategy should be of same type.New strategy will replace old strategy in strategy mapping, strategies array, withdraw queue.",
        "params": {
          "_new": "Address of new strategy",
          "_old": "Address of strategy being migrated"
        }
      },
      "recalculatePoolExternalDepositFee()": {
        "details": "Whenever debtRatio changes recalculation is required. DebtRatio changes if strategy reports loss and in that case an off chain application can watch for it and take action accordingly.This function is gas heavy hence we do not want to call during reportLoss."
      },
      "removeStrategy(uint256)": {
        "details": "Revoke and remove strategy from array. Update withdraw queue. Withdraw queue order should not change after remove. Strategy can be removed only after it has paid all debt. Use migrate strategy if debt is not paid and want to upgrade strategy."
      },
      "reportEarning(address,uint256,uint256,uint256)": {
        "details": "Strategy call this in regular interval.",
        "params": {
          "_loss": "Reduce debt ,also reduce debtRatio, increase loss in record.",
          "_payback": "strategy willing to payback outstanding above debtLimit. no performance fee on this amount.  when governance has reduced debtRatio of strategy, strategy will report profit and payback amount separately.",
          "_profit": "yield generated by strategy. Strategy get performance fee on this amount"
        }
      },
      "reportLoss(address,uint256)": {
        "params": {
          "_loss": "Loss of strategy",
          "_strategy": "Strategy which incur loss"
        }
      },
      "sweepERC20(address)": {
        "details": "Transfer given ERC20 token to pool",
        "params": {
          "_fromToken": "Token address to sweep"
        }
      },
      "totalDebtOf(address)": {
        "params": {
          "_strategy": "Strategy address"
        }
      },
      "updateDebtRatio(address,uint256)": {
        "details": "A strategy is retired when debtRatio is 0As debtRatio impacts pool level external deposit fee hence recalculate it after updating debtRatio.",
        "params": {
          "_debtRatio": "New debt ratio",
          "_strategy": "Strategy address for which debt ratio is being updated"
        }
      },
      "updateExternalDepositFee(address,uint256)": {
        "params": {
          "_externalDepositFee": "New external deposit fee",
          "_strategy": "Strategy address for which external deposit fee is being updated"
        }
      },
      "updateWithdrawQueue(address[])": {
        "details": "Pool always keep some buffer amount to satisfy withdrawal request, any withdrawal request higher than buffer will withdraw from withdraw queue. So withdrawQueue[0] will be the first strategy where withdrawal request will be send.",
        "params": {
          "_withdrawQueue": "Ordered list of strategy."
        }
      }
    },
    "title": "Accountant for Vesper pools which keep records of strategies.",
    "version": 1
  },
  "userdoc": {
    "kind": "user",
    "methods": {
      "addStrategy(address,uint256,uint256)": {
        "notice": "Add strategy. Once strategy is added it can call rebalance and borrow fund from pool and invest that fund in provider/lender."
      },
      "availableCreditLimit(address)": {
        "notice": "Get available credit limit of strategy. This is the amount strategy can borrow from pool"
      },
      "decreaseDebt(address,uint256)": {
        "notice": "Decrease debt of strategy, also decrease totalDebt"
      },
      "excessDebt(address)": {
        "notice": "Debt above current debt limit"
      },
      "getStrategies()": {
        "notice": "Return strategies array"
      },
      "getWithdrawQueue()": {
        "notice": "Return withdrawQueue"
      },
      "migrateStrategy(address,address)": {
        "notice": "Migrate existing strategy to new strategy."
      },
      "recalculatePoolExternalDepositFee()": {
        "notice": "Recalculate pool external deposit fee. It is calculated using debtRatio and external deposit fee of each strategy."
      },
      "removeStrategy(uint256)": {
        "notice": "Remove strategy and recalculate pool level external deposit fee."
      },
      "reportLoss(address,uint256)": {
        "notice": "Update strategy loss."
      },
      "setup()": {
        "notice": "OnlyPool:: Helper function for V5 upgrade"
      },
      "totalDebtOf(address)": {
        "notice": "Get total debt of given strategy"
      },
      "updateDebtRatio(address,uint256)": {
        "notice": "Update debt ratio."
      },
      "updateExternalDepositFee(address,uint256)": {
        "notice": "Update external deposit fee of strategy and recalculate pool level external deposit fee."
      },
      "updateWithdrawQueue(address[])": {
        "notice": "Update withdraw queue. Withdraw queue is list of strategy in the order in which funds should be withdrawn."
      }
    },
    "version": 1
  },
  "storageLayout": {
    "storage": [
      {
        "astId": 2095,
        "contract": "contracts/pool/PoolAccountant.sol:PoolAccountant",
        "label": "_initialized",
        "offset": 0,
        "slot": "0",
        "type": "t_bool"
      },
      {
        "astId": 2098,
        "contract": "contracts/pool/PoolAccountant.sol:PoolAccountant",
        "label": "_initializing",
        "offset": 1,
        "slot": "0",
        "type": "t_bool"
      },
      {
        "astId": 9371,
        "contract": "contracts/pool/PoolAccountant.sol:PoolAccountant",
        "label": "pool",
        "offset": 2,
        "slot": "0",
        "type": "t_address"
      },
      {
        "astId": 9373,
        "contract": "contracts/pool/PoolAccountant.sol:PoolAccountant",
        "label": "totalDebtRatio",
        "offset": 0,
        "slot": "1",
        "type": "t_uint256"
      },
      {
        "astId": 9375,
        "contract": "contracts/pool/PoolAccountant.sol:PoolAccountant",
        "label": "totalDebt",
        "offset": 0,
        "slot": "2",
        "type": "t_uint256"
      },
      {
        "astId": 9378,
        "contract": "contracts/pool/PoolAccountant.sol:PoolAccountant",
        "label": "strategies",
        "offset": 0,
        "slot": "3",
        "type": "t_array(t_address)dyn_storage"
      },
      {
        "astId": 9381,
        "contract": "contracts/pool/PoolAccountant.sol:PoolAccountant",
        "label": "withdrawQueue",
        "offset": 0,
        "slot": "4",
        "type": "t_array(t_address)dyn_storage"
      },
      {
        "astId": 9408,
        "contract": "contracts/pool/PoolAccountant.sol:PoolAccountant",
        "label": "strategy",
        "offset": 0,
        "slot": "5",
        "type": "t_mapping(t_address,t_struct(StrategyConfig)9403_storage)"
      },
      {
        "astId": 9410,
        "contract": "contracts/pool/PoolAccountant.sol:PoolAccountant",
        "label": "externalDepositFee",
        "offset": 0,
        "slot": "6",
        "type": "t_uint256"
      }
    ],
    "types": {
      "t_address": {
        "encoding": "inplace",
        "label": "address",
        "numberOfBytes": "20"
      },
      "t_array(t_address)dyn_storage": {
        "base": "t_address",
        "encoding": "dynamic_array",
        "label": "address[]",
        "numberOfBytes": "32"
      },
      "t_bool": {
        "encoding": "inplace",
        "label": "bool",
        "numberOfBytes": "1"
      },
      "t_mapping(t_address,t_struct(StrategyConfig)9403_storage)": {
        "encoding": "mapping",
        "key": "t_address",
        "label": "mapping(address => struct PoolAccountantStorageV2.StrategyConfig)",
        "numberOfBytes": "32",
        "value": "t_struct(StrategyConfig)9403_storage"
      },
      "t_struct(StrategyConfig)9403_storage": {
        "encoding": "inplace",
        "label": "struct PoolAccountantStorageV2.StrategyConfig",
        "members": [
          {
            "astId": 9386,
            "contract": "contracts/pool/PoolAccountant.sol:PoolAccountant",
            "label": "active",
            "offset": 0,
            "slot": "0",
            "type": "t_bool"
          },
          {
            "astId": 9388,
            "contract": "contracts/pool/PoolAccountant.sol:PoolAccountant",
            "label": "interestFee",
            "offset": 0,
            "slot": "1",
            "type": "t_uint256"
          },
          {
            "astId": 9390,
            "contract": "contracts/pool/PoolAccountant.sol:PoolAccountant",
            "label": "debtRate",
            "offset": 0,
            "slot": "2",
            "type": "t_uint256"
          },
          {
            "astId": 9392,
            "contract": "contracts/pool/PoolAccountant.sol:PoolAccountant",
            "label": "lastRebalance",
            "offset": 0,
            "slot": "3",
            "type": "t_uint256"
          },
          {
            "astId": 9394,
            "contract": "contracts/pool/PoolAccountant.sol:PoolAccountant",
            "label": "totalDebt",
            "offset": 0,
            "slot": "4",
            "type": "t_uint256"
          },
          {
            "astId": 9396,
            "contract": "contracts/pool/PoolAccountant.sol:PoolAccountant",
            "label": "totalLoss",
            "offset": 0,
            "slot": "5",
            "type": "t_uint256"
          },
          {
            "astId": 9398,
            "contract": "contracts/pool/PoolAccountant.sol:PoolAccountant",
            "label": "totalProfit",
            "offset": 0,
            "slot": "6",
            "type": "t_uint256"
          },
          {
            "astId": 9400,
            "contract": "contracts/pool/PoolAccountant.sol:PoolAccountant",
            "label": "debtRatio",
            "offset": 0,
            "slot": "7",
            "type": "t_uint256"
          },
          {
            "astId": 9402,
            "contract": "contracts/pool/PoolAccountant.sol:PoolAccountant",
            "label": "externalDepositFee",
            "offset": 0,
            "slot": "8",
            "type": "t_uint256"
          }
        ],
        "numberOfBytes": "288"
      },
      "t_uint256": {
        "encoding": "inplace",
        "label": "uint256",
        "numberOfBytes": "32"
      }
    }
  }
}