{
  "address": "0x69e35c5c52a7b009B27d1Da1e547daCeA068a935",
  "abi": [
    {
      "inputs": [
        {
          "internalType": "string",
          "name": "_name",
          "type": "string"
        },
        {
          "internalType": "string",
          "name": "_symbol",
          "type": "string"
        },
        {
          "internalType": "address",
          "name": "_token",
          "type": "address"
        }
      ],
      "stateMutability": "nonpayable",
      "type": "constructor"
    },
    {
      "anonymous": false,
      "inputs": [
        {
          "indexed": true,
          "internalType": "address",
          "name": "owner",
          "type": "address"
        },
        {
          "indexed": true,
          "internalType": "address",
          "name": "spender",
          "type": "address"
        },
        {
          "indexed": false,
          "internalType": "uint256",
          "name": "value",
          "type": "uint256"
        }
      ],
      "name": "Approval",
      "type": "event"
    },
    {
      "anonymous": false,
      "inputs": [
        {
          "indexed": true,
          "internalType": "address",
          "name": "owner",
          "type": "address"
        },
        {
          "indexed": false,
          "internalType": "uint256",
          "name": "shares",
          "type": "uint256"
        },
        {
          "indexed": false,
          "internalType": "uint256",
          "name": "amount",
          "type": "uint256"
        }
      ],
      "name": "Deposit",
      "type": "event"
    },
    {
      "anonymous": false,
      "inputs": [
        {
          "indexed": false,
          "internalType": "address",
          "name": "account",
          "type": "address"
        }
      ],
      "name": "Open",
      "type": "event"
    },
    {
      "anonymous": false,
      "inputs": [
        {
          "indexed": false,
          "internalType": "address",
          "name": "account",
          "type": "address"
        }
      ],
      "name": "Paused",
      "type": "event"
    },
    {
      "anonymous": false,
      "inputs": [
        {
          "indexed": false,
          "internalType": "address",
          "name": "account",
          "type": "address"
        }
      ],
      "name": "Shutdown",
      "type": "event"
    },
    {
      "anonymous": false,
      "inputs": [
        {
          "indexed": true,
          "internalType": "address",
          "name": "from",
          "type": "address"
        },
        {
          "indexed": true,
          "internalType": "address",
          "name": "to",
          "type": "address"
        },
        {
          "indexed": false,
          "internalType": "uint256",
          "name": "value",
          "type": "uint256"
        }
      ],
      "name": "Transfer",
      "type": "event"
    },
    {
      "anonymous": false,
      "inputs": [
        {
          "indexed": false,
          "internalType": "uint256",
          "name": "strategyDebt",
          "type": "uint256"
        },
        {
          "indexed": false,
          "internalType": "uint256",
          "name": "profit",
          "type": "uint256"
        },
        {
          "indexed": false,
          "internalType": "uint256",
          "name": "fee",
          "type": "uint256"
        }
      ],
      "name": "UniversalFeePaid",
      "type": "event"
    },
    {
      "anonymous": false,
      "inputs": [
        {
          "indexed": false,
          "internalType": "address",
          "name": "account",
          "type": "address"
        }
      ],
      "name": "Unpaused",
      "type": "event"
    },
    {
      "anonymous": false,
      "inputs": [
        {
          "indexed": true,
          "internalType": "address",
          "name": "previousGovernor",
          "type": "address"
        },
        {
          "indexed": true,
          "internalType": "address",
          "name": "proposedGovernor",
          "type": "address"
        }
      ],
      "name": "UpdatedGovernor",
      "type": "event"
    },
    {
      "anonymous": false,
      "inputs": [
        {
          "indexed": false,
          "internalType": "uint256",
          "name": "oldMaxProfitAsFee",
          "type": "uint256"
        },
        {
          "indexed": false,
          "internalType": "uint256",
          "name": "newMaxProfitAsFee",
          "type": "uint256"
        }
      ],
      "name": "UpdatedMaximumProfitAsFee",
      "type": "event"
    },
    {
      "anonymous": false,
      "inputs": [
        {
          "indexed": false,
          "internalType": "uint256",
          "name": "oldDepositLimit",
          "type": "uint256"
        },
        {
          "indexed": false,
          "internalType": "uint256",
          "name": "newDepositLimit",
          "type": "uint256"
        }
      ],
      "name": "UpdatedMinimumDepositLimit",
      "type": "event"
    },
    {
      "anonymous": false,
      "inputs": [
        {
          "indexed": true,
          "internalType": "address",
          "name": "previousPoolRewards",
          "type": "address"
        },
        {
          "indexed": true,
          "internalType": "address",
          "name": "newPoolRewards",
          "type": "address"
        }
      ],
      "name": "UpdatedPoolRewards",
      "type": "event"
    },
    {
      "anonymous": false,
      "inputs": [
        {
          "indexed": false,
          "internalType": "uint256",
          "name": "oldUniversalFee",
          "type": "uint256"
        },
        {
          "indexed": false,
          "internalType": "uint256",
          "name": "newUniversalFee",
          "type": "uint256"
        }
      ],
      "name": "UpdatedUniversalFee",
      "type": "event"
    },
    {
      "anonymous": false,
      "inputs": [
        {
          "indexed": false,
          "internalType": "uint256",
          "name": "previousWithdrawFee",
          "type": "uint256"
        },
        {
          "indexed": false,
          "internalType": "uint256",
          "name": "newWithdrawFee",
          "type": "uint256"
        }
      ],
      "name": "UpdatedWithdrawFee",
      "type": "event"
    },
    {
      "anonymous": false,
      "inputs": [
        {
          "indexed": true,
          "internalType": "address",
          "name": "owner",
          "type": "address"
        },
        {
          "indexed": false,
          "internalType": "uint256",
          "name": "shares",
          "type": "uint256"
        },
        {
          "indexed": false,
          "internalType": "uint256",
          "name": "amount",
          "type": "uint256"
        }
      ],
      "name": "Withdraw",
      "type": "event"
    },
    {
      "inputs": [],
      "name": "DOMAIN_SEPARATOR",
      "outputs": [
        {
          "internalType": "bytes32",
          "name": "",
          "type": "bytes32"
        }
      ],
      "stateMutability": "view",
      "type": "function"
    },
    {
      "inputs": [],
      "name": "MAX_BPS",
      "outputs": [
        {
          "internalType": "uint256",
          "name": "",
          "type": "uint256"
        }
      ],
      "stateMutability": "view",
      "type": "function"
    },
    {
      "inputs": [],
      "name": "ONE_YEAR",
      "outputs": [
        {
          "internalType": "uint256",
          "name": "",
          "type": "uint256"
        }
      ],
      "stateMutability": "view",
      "type": "function"
    },
    {
      "inputs": [],
      "name": "VERSION",
      "outputs": [
        {
          "internalType": "string",
          "name": "",
          "type": "string"
        }
      ],
      "stateMutability": "view",
      "type": "function"
    },
    {
      "inputs": [],
      "name": "acceptGovernorship",
      "outputs": [],
      "stateMutability": "nonpayable",
      "type": "function"
    },
    {
      "inputs": [
        {
          "internalType": "address",
          "name": "_keeperAddress",
          "type": "address"
        }
      ],
      "name": "addKeeper",
      "outputs": [],
      "stateMutability": "nonpayable",
      "type": "function"
    },
    {
      "inputs": [
        {
          "internalType": "address",
          "name": "_maintainerAddress",
          "type": "address"
        }
      ],
      "name": "addMaintainer",
      "outputs": [],
      "stateMutability": "nonpayable",
      "type": "function"
    },
    {
      "inputs": [
        {
          "internalType": "address",
          "name": "owner",
          "type": "address"
        },
        {
          "internalType": "address",
          "name": "spender",
          "type": "address"
        }
      ],
      "name": "allowance",
      "outputs": [
        {
          "internalType": "uint256",
          "name": "",
          "type": "uint256"
        }
      ],
      "stateMutability": "view",
      "type": "function"
    },
    {
      "inputs": [
        {
          "internalType": "address",
          "name": "spender",
          "type": "address"
        },
        {
          "internalType": "uint256",
          "name": "amount",
          "type": "uint256"
        }
      ],
      "name": "approve",
      "outputs": [
        {
          "internalType": "bool",
          "name": "",
          "type": "bool"
        }
      ],
      "stateMutability": "nonpayable",
      "type": "function"
    },
    {
      "inputs": [
        {
          "internalType": "address",
          "name": "_strategy",
          "type": "address"
        }
      ],
      "name": "availableCreditLimit",
      "outputs": [
        {
          "internalType": "uint256",
          "name": "",
          "type": "uint256"
        }
      ],
      "stateMutability": "view",
      "type": "function"
    },
    {
      "inputs": [
        {
          "internalType": "address",
          "name": "account",
          "type": "address"
        }
      ],
      "name": "balanceOf",
      "outputs": [
        {
          "internalType": "uint256",
          "name": "",
          "type": "uint256"
        }
      ],
      "stateMutability": "view",
      "type": "function"
    },
    {
      "inputs": [
        {
          "internalType": "uint256",
          "name": "_amount",
          "type": "uint256"
        }
      ],
      "name": "calculateMintage",
      "outputs": [
        {
          "internalType": "uint256",
          "name": "_shares",
          "type": "uint256"
        }
      ],
      "stateMutability": "view",
      "type": "function"
    },
    {
      "inputs": [
        {
          "internalType": "uint256",
          "name": "_profit",
          "type": "uint256"
        }
      ],
      "name": "calculateUniversalFee",
      "outputs": [
        {
          "internalType": "uint256",
          "name": "_fee",
          "type": "uint256"
        }
      ],
      "stateMutability": "view",
      "type": "function"
    },
    {
      "inputs": [],
      "name": "decimals",
      "outputs": [
        {
          "internalType": "uint8",
          "name": "",
          "type": "uint8"
        }
      ],
      "stateMutability": "view",
      "type": "function"
    },
    {
      "inputs": [
        {
          "internalType": "uint256",
          "name": "_amount",
          "type": "uint256"
        }
      ],
      "name": "deposit",
      "outputs": [],
      "stateMutability": "nonpayable",
      "type": "function"
    },
    {
      "inputs": [],
      "name": "deposit",
      "outputs": [],
      "stateMutability": "payable",
      "type": "function"
    },
    {
      "inputs": [
        {
          "internalType": "uint256",
          "name": "_amount",
          "type": "uint256"
        }
      ],
      "name": "depositAndClaim",
      "outputs": [],
      "stateMutability": "nonpayable",
      "type": "function"
    },
    {
      "inputs": [],
      "name": "depositAndClaim",
      "outputs": [],
      "stateMutability": "payable",
      "type": "function"
    },
    {
      "inputs": [
        {
          "internalType": "uint256",
          "name": "_amount",
          "type": "uint256"
        },
        {
          "internalType": "uint256",
          "name": "_deadline",
          "type": "uint256"
        },
        {
          "internalType": "uint8",
          "name": "_v",
          "type": "uint8"
        },
        {
          "internalType": "bytes32",
          "name": "_r",
          "type": "bytes32"
        },
        {
          "internalType": "bytes32",
          "name": "_s",
          "type": "bytes32"
        }
      ],
      "name": "depositWithPermit",
      "outputs": [],
      "stateMutability": "nonpayable",
      "type": "function"
    },
    {
      "inputs": [
        {
          "internalType": "address",
          "name": "_strategy",
          "type": "address"
        }
      ],
      "name": "excessDebt",
      "outputs": [
        {
          "internalType": "uint256",
          "name": "",
          "type": "uint256"
        }
      ],
      "stateMutability": "view",
      "type": "function"
    },
    {
      "inputs": [],
      "name": "getStrategies",
      "outputs": [
        {
          "internalType": "address[]",
          "name": "",
          "type": "address[]"
        }
      ],
      "stateMutability": "view",
      "type": "function"
    },
    {
      "inputs": [],
      "name": "getWithdrawQueue",
      "outputs": [
        {
          "internalType": "address[]",
          "name": "",
          "type": "address[]"
        }
      ],
      "stateMutability": "view",
      "type": "function"
    },
    {
      "inputs": [],
      "name": "governor",
      "outputs": [
        {
          "internalType": "address",
          "name": "",
          "type": "address"
        }
      ],
      "stateMutability": "view",
      "type": "function"
    },
    {
      "inputs": [
        {
          "internalType": "string",
          "name": "_name",
          "type": "string"
        },
        {
          "internalType": "string",
          "name": "_symbol",
          "type": "string"
        },
        {
          "internalType": "address",
          "name": "_token",
          "type": "address"
        },
        {
          "internalType": "address",
          "name": "_poolAccountant",
          "type": "address"
        }
      ],
      "name": "initialize",
      "outputs": [],
      "stateMutability": "nonpayable",
      "type": "function"
    },
    {
      "inputs": [
        {
          "internalType": "address",
          "name": "_address",
          "type": "address"
        }
      ],
      "name": "isKeeper",
      "outputs": [
        {
          "internalType": "bool",
          "name": "",
          "type": "bool"
        }
      ],
      "stateMutability": "view",
      "type": "function"
    },
    {
      "inputs": [
        {
          "internalType": "address",
          "name": "_address",
          "type": "address"
        }
      ],
      "name": "isMaintainer",
      "outputs": [
        {
          "internalType": "bool",
          "name": "",
          "type": "bool"
        }
      ],
      "stateMutability": "view",
      "type": "function"
    },
    {
      "inputs": [],
      "name": "keepers",
      "outputs": [
        {
          "internalType": "address[]",
          "name": "",
          "type": "address[]"
        }
      ],
      "stateMutability": "view",
      "type": "function"
    },
    {
      "inputs": [],
      "name": "maintainers",
      "outputs": [
        {
          "internalType": "address[]",
          "name": "",
          "type": "address[]"
        }
      ],
      "stateMutability": "view",
      "type": "function"
    },
    {
      "inputs": [],
      "name": "maxProfitAsFee",
      "outputs": [
        {
          "internalType": "uint256",
          "name": "",
          "type": "uint256"
        }
      ],
      "stateMutability": "view",
      "type": "function"
    },
    {
      "inputs": [
        {
          "internalType": "address",
          "name": "_old",
          "type": "address"
        },
        {
          "internalType": "address",
          "name": "_new",
          "type": "address"
        }
      ],
      "name": "migrateStrategy",
      "outputs": [],
      "stateMutability": "nonpayable",
      "type": "function"
    },
    {
      "inputs": [],
      "name": "minDepositLimit",
      "outputs": [
        {
          "internalType": "uint256",
          "name": "",
          "type": "uint256"
        }
      ],
      "stateMutability": "view",
      "type": "function"
    },
    {
      "inputs": [
        {
          "internalType": "address[]",
          "name": "_recipients",
          "type": "address[]"
        },
        {
          "internalType": "uint256[]",
          "name": "_amounts",
          "type": "uint256[]"
        }
      ],
      "name": "multiTransfer",
      "outputs": [
        {
          "internalType": "bool",
          "name": "",
          "type": "bool"
        }
      ],
      "stateMutability": "nonpayable",
      "type": "function"
    },
    {
      "inputs": [],
      "name": "name",
      "outputs": [
        {
          "internalType": "string",
          "name": "",
          "type": "string"
        }
      ],
      "stateMutability": "view",
      "type": "function"
    },
    {
      "inputs": [
        {
          "internalType": "address",
          "name": "",
          "type": "address"
        }
      ],
      "name": "nonces",
      "outputs": [
        {
          "internalType": "uint256",
          "name": "",
          "type": "uint256"
        }
      ],
      "stateMutability": "view",
      "type": "function"
    },
    {
      "inputs": [],
      "name": "open",
      "outputs": [],
      "stateMutability": "nonpayable",
      "type": "function"
    },
    {
      "inputs": [],
      "name": "pause",
      "outputs": [],
      "stateMutability": "nonpayable",
      "type": "function"
    },
    {
      "inputs": [],
      "name": "paused",
      "outputs": [
        {
          "internalType": "bool",
          "name": "",
          "type": "bool"
        }
      ],
      "stateMutability": "view",
      "type": "function"
    },
    {
      "inputs": [
        {
          "internalType": "address",
          "name": "owner",
          "type": "address"
        },
        {
          "internalType": "address",
          "name": "spender",
          "type": "address"
        },
        {
          "internalType": "uint256",
          "name": "value",
          "type": "uint256"
        },
        {
          "internalType": "uint256",
          "name": "deadline",
          "type": "uint256"
        },
        {
          "internalType": "uint8",
          "name": "v",
          "type": "uint8"
        },
        {
          "internalType": "bytes32",
          "name": "r",
          "type": "bytes32"
        },
        {
          "internalType": "bytes32",
          "name": "s",
          "type": "bytes32"
        }
      ],
      "name": "permit",
      "outputs": [],
      "stateMutability": "nonpayable",
      "type": "function"
    },
    {
      "inputs": [],
      "name": "poolAccountant",
      "outputs": [
        {
          "internalType": "address",
          "name": "",
          "type": "address"
        }
      ],
      "stateMutability": "view",
      "type": "function"
    },
    {
      "inputs": [],
      "name": "poolRewards",
      "outputs": [
        {
          "internalType": "address",
          "name": "",
          "type": "address"
        }
      ],
      "stateMutability": "view",
      "type": "function"
    },
    {
      "inputs": [],
      "name": "pricePerShare",
      "outputs": [
        {
          "internalType": "uint256",
          "name": "",
          "type": "uint256"
        }
      ],
      "stateMutability": "view",
      "type": "function"
    },
    {
      "inputs": [
        {
          "internalType": "address",
          "name": "_keeperAddress",
          "type": "address"
        }
      ],
      "name": "removeKeeper",
      "outputs": [],
      "stateMutability": "nonpayable",
      "type": "function"
    },
    {
      "inputs": [
        {
          "internalType": "address",
          "name": "_maintainerAddress",
          "type": "address"
        }
      ],
      "name": "removeMaintainer",
      "outputs": [],
      "stateMutability": "nonpayable",
      "type": "function"
    },
    {
      "inputs": [
        {
          "internalType": "uint256",
          "name": "_profit",
          "type": "uint256"
        },
        {
          "internalType": "uint256",
          "name": "_loss",
          "type": "uint256"
        },
        {
          "internalType": "uint256",
          "name": "_payback",
          "type": "uint256"
        }
      ],
      "name": "reportEarning",
      "outputs": [],
      "stateMutability": "nonpayable",
      "type": "function"
    },
    {
      "inputs": [
        {
          "internalType": "uint256",
          "name": "_loss",
          "type": "uint256"
        }
      ],
      "name": "reportLoss",
      "outputs": [],
      "stateMutability": "nonpayable",
      "type": "function"
    },
    {
      "inputs": [],
      "name": "setup",
      "outputs": [],
      "stateMutability": "nonpayable",
      "type": "function"
    },
    {
      "inputs": [],
      "name": "shutdown",
      "outputs": [],
      "stateMutability": "nonpayable",
      "type": "function"
    },
    {
      "inputs": [],
      "name": "stopEverything",
      "outputs": [
        {
          "internalType": "bool",
          "name": "",
          "type": "bool"
        }
      ],
      "stateMutability": "view",
      "type": "function"
    },
    {
      "inputs": [
        {
          "internalType": "address",
          "name": "_strategy",
          "type": "address"
        }
      ],
      "name": "strategy",
      "outputs": [
        {
          "internalType": "bool",
          "name": "_active",
          "type": "bool"
        },
        {
          "internalType": "uint256",
          "name": "_interestFee",
          "type": "uint256"
        },
        {
          "internalType": "uint256",
          "name": "_debtRate",
          "type": "uint256"
        },
        {
          "internalType": "uint256",
          "name": "_lastRebalance",
          "type": "uint256"
        },
        {
          "internalType": "uint256",
          "name": "_totalDebt",
          "type": "uint256"
        },
        {
          "internalType": "uint256",
          "name": "_totalLoss",
          "type": "uint256"
        },
        {
          "internalType": "uint256",
          "name": "_totalProfit",
          "type": "uint256"
        },
        {
          "internalType": "uint256",
          "name": "_debtRatio",
          "type": "uint256"
        },
        {
          "internalType": "uint256",
          "name": "_externalDepositFee",
          "type": "uint256"
        }
      ],
      "stateMutability": "view",
      "type": "function"
    },
    {
      "inputs": [
        {
          "internalType": "address",
          "name": "_fromToken",
          "type": "address"
        }
      ],
      "name": "sweepERC20",
      "outputs": [],
      "stateMutability": "nonpayable",
      "type": "function"
    },
    {
      "inputs": [],
      "name": "symbol",
      "outputs": [
        {
          "internalType": "string",
          "name": "",
          "type": "string"
        }
      ],
      "stateMutability": "view",
      "type": "function"
    },
    {
      "inputs": [],
      "name": "token",
      "outputs": [
        {
          "internalType": "contract IERC20",
          "name": "",
          "type": "address"
        }
      ],
      "stateMutability": "view",
      "type": "function"
    },
    {
      "inputs": [],
      "name": "tokensHere",
      "outputs": [
        {
          "internalType": "uint256",
          "name": "",
          "type": "uint256"
        }
      ],
      "stateMutability": "view",
      "type": "function"
    },
    {
      "inputs": [],
      "name": "totalDebt",
      "outputs": [
        {
          "internalType": "uint256",
          "name": "",
          "type": "uint256"
        }
      ],
      "stateMutability": "view",
      "type": "function"
    },
    {
      "inputs": [
        {
          "internalType": "address",
          "name": "_strategy",
          "type": "address"
        }
      ],
      "name": "totalDebtOf",
      "outputs": [
        {
          "internalType": "uint256",
          "name": "",
          "type": "uint256"
        }
      ],
      "stateMutability": "view",
      "type": "function"
    },
    {
      "inputs": [],
      "name": "totalDebtRatio",
      "outputs": [
        {
          "internalType": "uint256",
          "name": "",
          "type": "uint256"
        }
      ],
      "stateMutability": "view",
      "type": "function"
    },
    {
      "inputs": [],
      "name": "totalSupply",
      "outputs": [
        {
          "internalType": "uint256",
          "name": "",
          "type": "uint256"
        }
      ],
      "stateMutability": "view",
      "type": "function"
    },
    {
      "inputs": [],
      "name": "totalValue",
      "outputs": [
        {
          "internalType": "uint256",
          "name": "",
          "type": "uint256"
        }
      ],
      "stateMutability": "view",
      "type": "function"
    },
    {
      "inputs": [
        {
          "internalType": "address",
          "name": "recipient",
          "type": "address"
        },
        {
          "internalType": "uint256",
          "name": "amount",
          "type": "uint256"
        }
      ],
      "name": "transfer",
      "outputs": [
        {
          "internalType": "bool",
          "name": "",
          "type": "bool"
        }
      ],
      "stateMutability": "nonpayable",
      "type": "function"
    },
    {
      "inputs": [
        {
          "internalType": "address",
          "name": "sender",
          "type": "address"
        },
        {
          "internalType": "address",
          "name": "recipient",
          "type": "address"
        },
        {
          "internalType": "uint256",
          "name": "amount",
          "type": "uint256"
        }
      ],
      "name": "transferFrom",
      "outputs": [
        {
          "internalType": "bool",
          "name": "",
          "type": "bool"
        }
      ],
      "stateMutability": "nonpayable",
      "type": "function"
    },
    {
      "inputs": [
        {
          "internalType": "address",
          "name": "_proposedGovernor",
          "type": "address"
        }
      ],
      "name": "transferGovernorship",
      "outputs": [],
      "stateMutability": "nonpayable",
      "type": "function"
    },
    {
      "inputs": [],
      "name": "universalFee",
      "outputs": [
        {
          "internalType": "uint256",
          "name": "",
          "type": "uint256"
        }
      ],
      "stateMutability": "view",
      "type": "function"
    },
    {
      "inputs": [],
      "name": "unpause",
      "outputs": [],
      "stateMutability": "nonpayable",
      "type": "function"
    },
    {
      "inputs": [
        {
          "internalType": "uint256",
          "name": "_newMaxProfitAsFee",
          "type": "uint256"
        }
      ],
      "name": "updateMaximumProfitAsFee",
      "outputs": [],
      "stateMutability": "nonpayable",
      "type": "function"
    },
    {
      "inputs": [
        {
          "internalType": "uint256",
          "name": "_newLimit",
          "type": "uint256"
        }
      ],
      "name": "updateMinimumDepositLimit",
      "outputs": [],
      "stateMutability": "nonpayable",
      "type": "function"
    },
    {
      "inputs": [
        {
          "internalType": "address",
          "name": "_newPoolRewards",
          "type": "address"
        }
      ],
      "name": "updatePoolRewards",
      "outputs": [],
      "stateMutability": "nonpayable",
      "type": "function"
    },
    {
      "inputs": [
        {
          "internalType": "uint256",
          "name": "_newUniversalFee",
          "type": "uint256"
        }
      ],
      "name": "updateUniversalFee",
      "outputs": [],
      "stateMutability": "nonpayable",
      "type": "function"
    },
    {
      "inputs": [
        {
          "internalType": "uint256",
          "name": "_shares",
          "type": "uint256"
        }
      ],
      "name": "withdraw",
      "outputs": [],
      "stateMutability": "nonpayable",
      "type": "function"
    },
    {
      "inputs": [
        {
          "internalType": "uint256",
          "name": "_shares",
          "type": "uint256"
        }
      ],
      "name": "withdrawAndClaim",
      "outputs": [],
      "stateMutability": "nonpayable",
      "type": "function"
    },
    {
      "inputs": [
        {
          "internalType": "uint256",
          "name": "_shares",
          "type": "uint256"
        }
      ],
      "name": "withdrawETH",
      "outputs": [],
      "stateMutability": "nonpayable",
      "type": "function"
    },
    {
      "inputs": [
        {
          "internalType": "uint256",
          "name": "_shares",
          "type": "uint256"
        }
      ],
      "name": "withdrawETHAndClaim",
      "outputs": [],
      "stateMutability": "nonpayable",
      "type": "function"
    },
    {
      "stateMutability": "payable",
      "type": "receive"
    }
  ],
  "transactionHash": "0x1b3406739278e56f5d20a6bd4428ecd9b11760ce65d6b4d774f08429eb62f08a",
  "args": [
    "vaAVAX Pool",
    "vaAVAX",
    "0xB31f66AA3C1e785363F0875A1B74E27b85FD66c7"
  ],
  "numDeployments": 1,
  "solcInputHash": "fb627754984115d0aed3109b8f1b5b1b",
  "bytecode": "0x608060405260c8601d55611388601e556001601f553480156200002157600080fd5b506040516200513938038062005139833981016040819052620000449162000282565b82828282828160039080519060200190620000619291906200010f565b508051620000779060049060208401906200010f565b50505060006200008c6200010b60201b60201c565b600a80546001600160a01b0319166001600160a01b038316908117909155604051919250906000907fd4459d5b8b913cab0244230fd9b1c08b6ceace7fe9230e60d0f74cbffdf849d0908290a3506001600c55600d80546001600160a01b0319166001600160a01b0392909216919091179055506200034c9350505050565b3390565b8280546200011d906200030f565b90600052602060002090601f0160209004810192826200014157600085556200018c565b82601f106200015c57805160ff19168380011785556200018c565b828001600101855582156200018c579182015b828111156200018c5782518255916020019190600101906200016f565b506200019a9291506200019e565b5090565b5b808211156200019a57600081556001016200019f565b634e487b7160e01b600052604160045260246000fd5b600082601f830112620001dd57600080fd5b81516001600160401b0380821115620001fa57620001fa620001b5565b604051601f8301601f19908116603f01168101908282118183101715620002255762000225620001b5565b816040528381526020925086838588010111156200024257600080fd5b600091505b8382101562000266578582018301518183018401529082019062000247565b83821115620002785760008385830101525b9695505050505050565b6000806000606084860312156200029857600080fd5b83516001600160401b0380821115620002b057600080fd5b620002be87838801620001cb565b94506020860151915080821115620002d557600080fd5b50620002e486828701620001cb565b604086015190935090506001600160a01b03811681146200030457600080fd5b809150509250925092565b600181811c908216806200032457607f821691505b602082108114156200034657634e487b7160e01b600052602260045260246000fd5b50919050565b614ddd806200035c6000396000f3fe6080604052600436106103945760003560e01c80638f15b414116101de578063c9d7f67211610103578063e00af4a71161009b578063e00af4a714610b5a578063f14210a614610b7a578063f3b27bc314610b9a578063fc0c546a14610baf578063fc0e74d114610bcf578063fc7b9c1814610be4578063fcfff16f14610bf9578063fd967f4714610c0e578063ffa1ad7414610c2457600080fd5b8063c9d7f67214610a4f578063d0e30db014610a57578063d4c3eea014610a5f578063d505accf14610a74578063d53ddc2614610a94578063d8baf7cf14610ab4578063dd57366a14610ad4578063dd62ed3e14610af4578063ddd6d26014610b3a57600080fd5b8063a941a90e11610176578063a941a90e14610950578063b49a60bb14610970578063b64321ec14610985578063b6aa515b146109a5578063b6b55f25146109c5578063b8cb343d146109e5578063ba0bba40146109fa578063c01e0d4014610a0f578063c12d636b14610a2f57600080fd5b80638f15b4141461085b578063940c40821461087b578063951dc22c1461089b57806395d89b41146108b057806399530b06146108c55780639b6da8df146108da5780639f2b2833146108fa5780639fd5be181461091a578063a9059cbb1461093057600080fd5b80633e772925116102c45780636b453c1f1161025c5780636b453c1f146107235780636ba42aaa146107435780636cb56d19146107635780636d43aed81461078357806370a08231146107a35780637ecebe00146107d95780638456cb59146108065780638bc6beb21461081b5780638d3d0a261461083b57600080fd5b80633e7729251461062b5780633f4ba83a146106415780634032b72b14610656578063448a1047146106765780634938649a1461069657806349eeb860146106b75780634a970be7146106cc5780635c975abb146106ec5780635f895e541461070d57600080fd5b806318160ddd1161033757806318160ddd146104ea5780631e89d545146104ff578063228bfd9f1461051f57806323b872dd146105855780632df9eab9146105a55780632e1a7d4d146105ba578063313ce567146105da57806332dd0f49146105f65780633644e5151461061657600080fd5b806305bed046146103ba57806306fdde03146103da578063095ea7b3146104055780630c340a24146104355780630da3fe2014610462578063111830521461048257806314ae9f2e146104a457806316d3bfbb146104c457600080fd5b366103b557600d546001600160a01b031633146103b3576103b3610c55565b005b600080fd5b3480156103c657600080fd5b506103b36103d53660046143dd565b610ccd565b3480156103e657600080fd5b506103ef610f4e565b6040516103fc9190614435565b60405180910390f35b34801561041157600080fd5b5061042561042036600461447d565b610fe0565b60405190151581526020016103fc565b34801561044157600080fd5b50600a54610455906001600160a01b031681565b6040516103fc91906144a9565b34801561046e57600080fd5b506103b361047d3660046144bd565b610ff7565b34801561048e57600080fd5b506104976110da565b6040516103fc91906144d6565b3480156104b057600080fd5b506103b36104bf366004614523565b611160565b3480156104d057600080fd5b506104dc6301e1338081565b6040519081526020016103fc565b3480156104f657600080fd5b506002546104dc565b34801561050b57600080fd5b5061042561051a36600461458c565b6111e5565b34801561052b57600080fd5b5061053f61053a366004614523565b6112cb565b604080519915158a5260208a0198909852968801959095526060870193909352608086019190915260a085015260c084015260e0830152610100820152610120016103fc565b34801561059157600080fd5b506104256105a03660046145f8565b61137c565b3480156105b157600080fd5b506104dc61142f565b3480156105c657600080fd5b506103b36105d53660046144bd565b6114ac565b3480156105e657600080fd5b50604051601281526020016103fc565b34801561060257600080fd5b506104dc6106113660046144bd565b611518565b34801561062257600080fd5b506104dc611524565b34801561063757600080fd5b506104dc601e5481565b34801561064d57600080fd5b506103b361152e565b34801561066257600080fd5b506103b3610671366004614523565b611571565b34801561068257600080fd5b506103b36106913660046144bd565b6115ee565b3480156106a257600080fd5b50600b5461042590600160a81b900460ff1681565b3480156106c357600080fd5b50610497611649565b3480156106d857600080fd5b506103b36106e7366004614648565b611655565b3480156106f857600080fd5b50600b5461042590600160a01b900460ff1681565b34801561071957600080fd5b506104dc601d5481565b34801561072f57600080fd5b506103b361073e366004614523565b61175c565b34801561074f57600080fd5b5061042561075e366004614523565b6117a0565b34801561076f57600080fd5b506103b361077e366004614691565b6117ad565b34801561078f57600080fd5b506103b361079e3660046144bd565b6119ec565b3480156107af57600080fd5b506104dc6107be366004614523565b6001600160a01b031660009081526020819052604090205490565b3480156107e557600080fd5b506104dc6107f4366004614523565b60096020526000908152604090205481565b34801561081257600080fd5b506103b3611a66565b34801561082757600080fd5b50600f54610455906001600160a01b031681565b34801561084757600080fd5b506103b36108563660046144bd565b611aa7565b34801561086757600080fd5b506103b3610876366004614781565b611b4f565b34801561088757600080fd5b506103b3610896366004614523565b611d2d565b3480156108a757600080fd5b50610497611df4565b3480156108bc57600080fd5b506103ef611e00565b3480156108d157600080fd5b506104dc611e0f565b3480156108e657600080fd5b506103b36108f53660046144bd565b611ee8565b34801561090657600080fd5b506104dc610915366004614523565b611f93565b34801561092657600080fd5b506104dc601f5481565b34801561093c57600080fd5b5061042561094b36600461447d565b612014565b34801561095c57600080fd5b506103b361096b3660046144bd565b612021565b34801561097c57600080fd5b5061049761207c565b34801561099157600080fd5b506104dc6109a0366004614523565b6120c1565b3480156109b157600080fd5b506103b36109c0366004614523565b6120f2565b3480156109d157600080fd5b506103b36109e03660046144bd565b612190565b3480156109f157600080fd5b506104dc6121f4565b348015610a0657600080fd5b506103b361223d565b348015610a1b57600080fd5b506104dc610a2a3660046144bd565b6122d7565b348015610a3b57600080fd5b50600e54610455906001600160a01b031681565b6103b36123cb565b6103b3610c55565b348015610a6b57600080fd5b506104dc612426565b348015610a8057600080fd5b506103b3610a8f36600461480a565b6124c0565b348015610aa057600080fd5b506104dc610aaf366004614523565b612680565b348015610ac057600080fd5b506103b3610acf366004614523565b6126b1565b348015610ae057600080fd5b50610425610aef366004614523565b6126f5565b348015610b0057600080fd5b506104dc610b0f366004614691565b6001600160a01b03918216600090815260016020908152604080832093909416825291909152205490565b348015610b4657600080fd5b506103b3610b553660046144bd565b612702565b348015610b6657600080fd5b506103b3610b75366004614523565b612769565b348015610b8657600080fd5b506103b3610b953660046144bd565b612884565b348015610ba657600080fd5b506103b36128f6565b348015610bbb57600080fd5b50600d54610455906001600160a01b031681565b348015610bdb57600080fd5b506103b36129b2565b348015610bf057600080fd5b506104dc6129f3565b348015610c0557600080fd5b506103b3612a38565b348015610c1a57600080fd5b506104dc61271081565b348015610c3057600080fd5b506103ef604051806040016040528060058152602001640352e302e360dc1b81525081565b600b54600160a01b900460ff1615610c885760405162461bcd60e51b8152600401610c7f9061487b565b60405180910390fd5b6002600c541415610cab5760405162461bcd60e51b8152600401610c7f9061489b565b6002600c55610cbe33612a79565b612a79565b610cc6612aba565b6001600c55565b338315610e4257600e5460405163228bfd9f60e01b815260009182916001600160a01b039091169063228bfd9f90610d099086906004016144a9565b6101206040518083038186803b158015610d2257600080fd5b505afa158015610d36573d6000803e3d6000fd5b505050506040513d601f19601f82011682018060405250810190610d5a91906148e7565b50505050945094505050506000610d72838389612b7d565b90508015610e3e57610dfc846001600160a01b031663c415b95c6040518163ffffffff1660e01b815260040160206040518083038186803b158015610db657600080fd5b505afa158015610dca573d6000803e3d6000fd5b505050506040513d601f19601f82011682018060405250810190610dee9190614957565b610df783612bf0565b612c55565b60408051838152602081018990529081018290527f692ef79cc704efab4328e6c217b5fb3b1045d0a0314e3e8137029bcb2d59ce4a9060600160405180910390a15b5050505b600e5460405163a066654b60e01b81526001600160a01b038381166004830152602482018790526044820186905260648201859052600092839291169063a066654b906084016040805180830381600087803b158015610ea157600080fd5b505af1158015610eb5573d6000803e3d6000fd5b505050506040513d601f19601f82011682018060405250810190610ed99190614974565b90925090506000610eea83886149ae565b905081811015610f1a57610f1584610f0283856149c6565b600d546001600160a01b03169190612d22565b610f45565b81811115610f4557610f458430610f3185856149c6565b600d546001600160a01b0316929190612d7d565b50505050505050565b606060038054610f5d906149dd565b80601f0160208091040260200160405190810160405280929190818152602001828054610f89906149dd565b8015610fd65780601f10610fab57610100808354040283529160200191610fd6565b820191906000526020600020905b815481529060010190602001808311610fb957829003601f168201915b5050505050905090565b6000610fed338484612db5565b5060015b92915050565b600a546001600160a01b031633146110215760405162461bcd60e51b8152600401610c7f90614a18565b604080518082019091526002815261199960f11b6020820152816110585760405162461bcd60e51b8152600401610c7f9190614435565b50601f5481141560405180604001604052806002815260200161333160f01b815250906110985760405162461bcd60e51b8152600401610c7f9190614435565b50601f5460408051918252602082018390527f25c9f41f0fb7a055d44b070262516fbd0111daea3b55d40fae1983827dc99292910160405180910390a1601f55565b600e546040805163088c182960e11b815290516060926001600160a01b0316916311183052916004808301926000929190829003018186803b15801561111f57600080fd5b505afa158015611133573d6000803e3d6000fd5b505050506040513d6000823e601f3d908101601f1916820160405261115b9190810190614a3e565b905090565b600a546001600160a01b03163314806111815750611181335b601990612eda565b61119d5760405162461bcd60e51b8152600401610c7f90614af0565b6111a8601982612efc565b604051806040016040528060028152602001610c4d60f21b815250906111e15760405162461bcd60e51b8152600401610c7f9190614435565b5050565b6040805180820190915260018152600d60fa1b60208201526000908483146112205760405162461bcd60e51b8152600401610c7f9190614435565b5060005b848110156112bf5761127486868381811061124157611241614b16565b90506020020160208101906112569190614523565b85858481811061126857611268614b16565b90506020020135612014565b604051806040016040528060018152602001601b60f91b815250906112ac5760405162461bcd60e51b8152600401610c7f9190614435565b50806112b781614b2c565b915050611224565b50600195945050505050565b600e5460405163228bfd9f60e01b8152600091829182918291829182918291829182916001600160a01b03169063228bfd9f9061130c908d906004016144a9565b6101206040518083038186803b15801561132557600080fd5b505afa158015611339573d6000803e3d6000fd5b505050506040513d601f19601f8201168201806040525081019061135d91906148e7565b9850985098509850985098509850985098509193959799909294969850565b6000611389848484612f11565b6001600160a01b03841660009081526001602090815260408083203384529091529020548281101561140e5760405162461bcd60e51b815260206004820152602860248201527f45524332303a207472616e7366657220616d6f756e74206578636565647320616044820152676c6c6f77616e636560c01b6064820152608401610c7f565b611422853361141d86856149c6565b612db5565b60019150505b9392505050565b600e5460408051632df9eab960e01b815290516000926001600160a01b031691632df9eab9916004808301926020929190829003018186803b15801561147457600080fd5b505afa158015611488573d6000803e3d6000fd5b505050506040513d601f19601f8201168201806040525081019061115b9190614b47565b6002600c5414156114cf5760405162461bcd60e51b8152600401610c7f9061489b565b6002600c55600b54600160a81b900460ff16156114fe5760405162461bcd60e51b8152600401610c7f90614b60565b61150733612a79565b61151081612ff2565b506001600c55565b6000610ff133836130ae565b600061115b613153565b600a546001600160a01b031633148061154b575061154b33611179565b6115675760405162461bcd60e51b8152600401610c7f90614af0565b61156f6131ce565b565b600a546001600160a01b031633148061158e575061158e33611179565b6115aa5760405162461bcd60e51b8152600401610c7f90614af0565b6115b5601982613285565b60405180604001604052806002815260200161313360f01b815250906111e15760405162461bcd60e51b8152600401610c7f9190614435565b6002600c5414156116115760405162461bcd60e51b8152600401610c7f9061489b565b6002600c55600b54600160a81b900460ff16156116405760405162461bcd60e51b8152600401610c7f90614b60565b6115108161329a565b606061115b601b6132ac565b6002600c5414156116785760405162461bcd60e51b8152600401610c7f9061489b565b6002600c55600b54600160a01b900460ff16156116a75760405162461bcd60e51b8152600401610c7f9061487b565b600d546001600160a01b031663d505accf336040516001600160e01b031960e084901b1681526001600160a01b039091166004820152306024820152604481018890526064810187905260ff8616608482015260a4810185905260c4810184905260e401600060405180830381600087803b15801561172557600080fd5b505af1158015611739573d6000803e3d6000fd5b50505050611747610cb93390565b611750856132b9565b50506001600c55505050565b600a546001600160a01b0316331480611779575061177933611179565b6117955760405162461bcd60e51b8152600401610c7f90614af0565b6115b5601b82613285565b6000610ff1601983612eda565b600a546001600160a01b031633146117d75760405162461bcd60e51b8152600401610c7f90614a18565b306001600160a01b0316816001600160a01b03166316f0115b6040518163ffffffff1660e01b815260040160206040518083038186803b15801561181a57600080fd5b505afa15801561182e573d6000803e3d6000fd5b505050506040513d601f19601f820116820180604052508101906118529190614957565b6001600160a01b03161480156118e95750306001600160a01b0316826001600160a01b03166316f0115b6040518163ffffffff1660e01b815260040160206040518083038186803b1580156118a657600080fd5b505afa1580156118ba573d6000803e3d6000fd5b505050506040513d601f19601f820116820180604052508101906118de9190614957565b6001600160a01b0316145b60405180604001604052806002815260200161313760f01b815250906119225760405162461bcd60e51b8152600401610c7f9190614435565b50600e54604051636cb56d1960e01b81526001600160a01b038481166004830152838116602483015290911690636cb56d1990604401600060405180830381600087803b15801561197257600080fd5b505af1158015611986573d6000803e3d6000fd5b505060405163ce5494bb60e01b81526001600160a01b038516925063ce5494bb91506119b69084906004016144a9565b600060405180830381600087803b1580156119d057600080fd5b505af11580156119e4573d6000803e3d6000fd5b505050505050565b600b54600160a81b900460ff1615611a165760405162461bcd60e51b8152600401610c7f90614b60565b6002600c541415611a395760405162461bcd60e51b8152600401610c7f9061489b565b6002600c556016805460ff19166001179055611a548161329a565b506016805460ff191690556001600c55565b600a546001600160a01b0316331480611a835750611a8333611179565b611a9f5760405162461bcd60e51b8152600401610c7f90614af0565b61156f613326565b600a546001600160a01b03163314611ad15760405162461bcd60e51b8152600401610c7f90614a18565b604080518082019091526002815261313160f01b6020820152612710821115611b0d5760405162461bcd60e51b8152600401610c7f9190614435565b50601d5460408051918252602082018390527f905d672396c48f9d1e13c57aec0819f00d39364ab4bf40a46a687aa607b67d81910160405180910390a1601d55565b600554610100900460ff1680611b68575060055460ff16155b611b845760405162461bcd60e51b8152600401610c7f90614b82565b600554610100900460ff16158015611ba6576005805461ffff19166101011790555b604080518082019091526002815261031360f41b60208201526001600160a01b038416611be65760405162461bcd60e51b8152600401610c7f9190614435565b50604080518082019091526002815261031360f41b60208201526001600160a01b038316611c275760405162461bcd60e51b8152600401610c7f9190614435565b50611c32858561338b565b611c3b856133b2565b611c43613431565b600d80546001600160a01b0319166001600160a01b038516179055611c6a33601990613285565b60405180604001604052806002815260200161313360f01b81525090611ca35760405162461bcd60e51b8152600401610c7f9190614435565b50611caf601b33613285565b60405180604001604052806002815260200161313360f01b81525090611ce85760405162461bcd60e51b8152600401610c7f9190614435565b50600e80546001600160a01b0319166001600160a01b03841617905560c8601d55611388601e556001601f558015611d26576005805461ff00191690555b5050505050565b600a546001600160a01b03163314611d575760405162461bcd60e51b8152600401610c7f90614a18565b604080518082019091526002815261031360f41b60208201526001600160a01b038216611d975760405162461bcd60e51b8152600401610c7f9190614435565b50600f546040516001600160a01b038084169216907fe239974dad08ac696e723caf1886bd0b5afc0870088f9a1266082757f824927690600090a3600f80546001600160a01b0319166001600160a01b0392909216919091179055565b606061115b60196132ac565b606060048054610f5d906149dd565b6000611e1a60025490565b1580611e2b5750611e29612426565b155b15611ec157600d60009054906101000a90046001600160a01b03166001600160a01b031663313ce5676040518163ffffffff1660e01b815260040160206040518083038186803b158015611e7e57600080fd5b505afa158015611e92573d6000803e3d6000fd5b505050506040513d601f19601f82011682018060405250810190611eb69190614bd0565b61115b90600a614cd1565b600254611ecc612426565b611ede90670de0b6b3a7640000614ce0565b61115b9190614cff565b600a546001600160a01b03163314611f125760405162461bcd60e51b8152600401610c7f90614a18565b601e5481141560405180604001604052806002815260200161333160f01b81525090611f515760405162461bcd60e51b8152600401610c7f9190614435565b50601e5460408051918252602082018390527fafe4d3ceb3295a8d4ef49288a92d32d94e39396e823d414b81caff61b9fc3990910160405180910390a1601e55565b600e54604051639f2b283360e01b81526000916001600160a01b031690639f2b283390611fc49085906004016144a9565b60206040518083038186803b158015611fdc57600080fd5b505afa158015611ff0573d6000803e3d6000fd5b505050506040513d601f19601f82011682018060405250810190610ff19190614b47565b6000610fed338484612f11565b6002600c5414156120445760405162461bcd60e51b8152600401610c7f9061489b565b6002600c55600b54600160a01b900460ff16156120735760405162461bcd60e51b8152600401610c7f9061487b565b611510816134df565b600e546040805163b49a60bb60e01b815290516060926001600160a01b03169163b49a60bb916004808301926000929190829003018186803b15801561111f57600080fd5b600e54604051632d90c87b60e21b81526000916001600160a01b03169063b64321ec90611fc49085906004016144a9565b600a546001600160a01b0316331461211c5760405162461bcd60e51b8152600401610c7f90614a18565b6001600160a01b03811661216e5760405162461bcd60e51b815260206004820152601960248201527870726f706f7365642d676f7665726e6f722d69732d7a65726f60381b6044820152606401610c7f565b600b80546001600160a01b0319166001600160a01b0392909216919091179055565b6002600c5414156121b35760405162461bcd60e51b8152600401610c7f9061489b565b6002600c55600b54600160a01b900460ff16156121e25760405162461bcd60e51b8152600401610c7f9061487b565b6121eb33612a79565b611510816132b9565b600d546040516370a0823160e01b81526000916001600160a01b0316906370a08231906122259030906004016144a9565b60206040518083038186803b15801561147457600080fd5b600a546001600160a01b031633146122675760405162461bcd60e51b8152600401610c7f90614a18565b60c8601d55611388601e556001601f55600e54604080516302e82ee960e61b815290516001600160a01b039092169163ba0bba409160048082019260009290919082900301818387803b1580156122bd57600080fd5b505af11580156122d1573d6000803e3d6000fd5b50505050565b6000601f54821015604051806040016040528060018152602001603160f81b815250906123175760405162461bcd60e51b8152600401610c7f9190614435565b506000612710600e60009054906101000a90046001600160a01b03166001600160a01b031663346162d56040518163ffffffff1660e01b815260040160206040518083038186803b15801561236b57600080fd5b505afa15801561237f573d6000803e3d6000fd5b505050506040513d601f19601f820116820180604052508101906123a39190614b47565b6123ad9085614ce0565b6123b79190614cff565b90506114286123c682856149c6565b612bf0565b600b54600160a01b900460ff16156123f55760405162461bcd60e51b8152600401610c7f9061487b565b6002600c5414156124185760405162461bcd60e51b8152600401610c7f9061489b565b6002600c55610cbe336134f1565b60006124306121f4565b600e60009054906101000a90046001600160a01b03166001600160a01b031663fc7b9c186040518163ffffffff1660e01b815260040160206040518083038186803b15801561247e57600080fd5b505afa158015612492573d6000803e3d6000fd5b505050506040513d601f19601f820116820180604052508101906124b69190614b47565b61115b91906149ae565b834211156125105760405162461bcd60e51b815260206004820152601d60248201527f45524332305065726d69743a206578706972656420646561646c696e650000006044820152606401610c7f565b6001600160a01b0387811660008181526009602090815260408083205481517f6e71edae12b1b97f4d1f60370fef10105fa2faae0126114a169c64845d6126c98185015280830195909552948b166060850152608084018a905260a0840185905260c08085018a90528151808603909101815260e0909401905282519201919091209061259b613153565b60405161190160f01b602082015260228101919091526042810183905260620160405160208183030381529060405280519060200120905060006125e182888888613532565b90508a6001600160a01b0316816001600160a01b0316146126445760405162461bcd60e51b815260206004820152601e60248201527f45524332305065726d69743a20696e76616c6964207369676e617475726500006044820152606401610c7f565b61264f8460016149ae565b6001600160a01b038c166000908152600960205260409020556126738b8b8b612db5565b5050505050505050505050565b600e54604051636a9eee1360e11b81526000916001600160a01b03169063d53ddc2690611fc49085906004016144a9565b600a546001600160a01b03163314806126ce57506126ce33611179565b6126ea5760405162461bcd60e51b8152600401610c7f90614af0565b6111a8601b82612efc565b6000610ff1601b83612eda565b801561276657600e546001600160a01b0316637f13086e33836040518363ffffffff1660e01b8152600401612738929190614d21565b600060405180830381600087803b15801561275257600080fd5b505af1158015611d26573d6000803e3d6000fd5b50565b600a546001600160a01b0316331480612786575061278633611179565b6127a25760405162461bcd60e51b8152600401610c7f90614af0565b600d546040805180820190915260018152600760fb1b6020820152906001600160a01b03838116911614156127ea5760405162461bcd60e51b8152600401610c7f9190614435565b50600a546040516370a0823160e01b8152612766916001600160a01b0390811691908416906370a08231906128239030906004016144a9565b60206040518083038186803b15801561283b57600080fd5b505afa15801561284f573d6000803e3d6000fd5b505050506040513d601f19601f820116820180604052508101906128739190614b47565b6001600160a01b0384169190612d22565b600b54600160a81b900460ff16156128ae5760405162461bcd60e51b8152600401610c7f90614b60565b6002600c5414156128d15760405162461bcd60e51b8152600401610c7f9061489b565b6002600c556016805460ff191660011790556128ed610cb93390565b611a5481612ff2565b600b546001600160a01b0316331461294c5760405162461bcd60e51b81526020600482015260196024820152783737ba16ba343296b83937b837b9b2b216b3b7bb32b93737b960391b6044820152606401610c7f565b600b54600a546040516001600160a01b0392831692909116907fd4459d5b8b913cab0244230fd9b1c08b6ceace7fe9230e60d0f74cbffdf849d090600090a3600b8054600a80546001600160a01b03199081166001600160a01b03841617909155169055565b600a546001600160a01b03163314806129cf57506129cf33611179565b6129eb5760405162461bcd60e51b8152600401610c7f90614af0565b61156f6136c3565b600e5460408051631f8f738360e31b815290516000926001600160a01b03169163fc7b9c18916004808301926020929190829003018186803b15801561147457600080fd5b600a546001600160a01b0316331480612a555750612a5533611179565b612a715760405162461bcd60e51b8152600401610c7f90614af0565b61156f613729565b600f546001600160a01b03161561276657600f5460405163632447c960e01b81526001600160a01b039091169063632447c9906127389084906004016144a9565b6000612ac5346122d7565b9050600d60009054906101000a90046001600160a01b03166001600160a01b031663d0e30db0346040518263ffffffff1660e01b81526004016000604051808303818588803b158015612b1757600080fd5b505af1158015612b2b573d6000803e3d6000fd5b5050505050612b40612b3a3390565b82612c55565b6040805182815234602082015233917f90890809c654f11d6e72a28fa60149770a0d11ec6c92319d6ceb2bb0a4ea1a15910160405180910390a250565b6000612b8f6301e13380612710614ce0565b83612b9a86426149c6565b601d54612ba79190614ce0565b612bb19190614ce0565b612bbb9190614cff565b90506000612710601e5484612bd09190614ce0565b612bda9190614cff565b905080821115612be8578091505b509392505050565b600080612bfb611e0f565b612c0d84670de0b6b3a7640000614ce0565b612c179190614cff565b9050670de0b6b3a7640000612c2a611e0f565b612c349083614ce0565b612c3e9190614cff565b8311612c4a5780611428565b6114288160016149ae565b6001600160a01b038216612cab5760405162461bcd60e51b815260206004820152601f60248201527f45524332303a206d696e7420746f20746865207a65726f2061646472657373006044820152606401610c7f565b8060026000828254612cbd91906149ae565b90915550506001600160a01b03821660009081526020819052604081208054839290612cea9084906149ae565b90915550506040518181526001600160a01b03831690600090600080516020614d888339815191529060200160405180910390a35050565b612d788363a9059cbb60e01b8484604051602401612d41929190614d21565b60408051601f198184030181529190526020810180516001600160e01b03166001600160e01b0319909316929092179091526137a5565b505050565b6040516001600160a01b03808516602483015283166044820152606481018290526122d19085906323b872dd60e01b90608401612d41565b6001600160a01b038316612e175760405162461bcd60e51b8152602060048201526024808201527f45524332303a20617070726f76652066726f6d20746865207a65726f206164646044820152637265737360e01b6064820152608401610c7f565b6001600160a01b038216612e785760405162461bcd60e51b815260206004820152602260248201527f45524332303a20617070726f766520746f20746865207a65726f206164647265604482015261737360f01b6064820152608401610c7f565b6001600160a01b0383811660008181526001602090815260408083209487168084529482529182902085905590518481527f8c5be1e5ebec7d5bd14f71427d1e84f3dd0314c0f7b2291e5b200ac8c7c3b92591015b60405180910390a3505050565b6001600160a01b03811660009081526001830160205260408120541515611428565b6000611428836001600160a01b038416613877565b600f546001600160a01b031615612fe757600f5460405163632447c960e01b81526001600160a01b039091169063632447c990612f529086906004016144a9565b600060405180830381600087803b158015612f6c57600080fd5b505af1158015612f80573d6000803e3d6000fd5b5050600f5460405163632447c960e01b81526001600160a01b03909116925063632447c99150612fb49085906004016144a9565b600060405180830381600087803b158015612fce57600080fd5b505af1158015612fe2573d6000803e3d6000fd5b505050505b612d7883838361396a565b6040805180820190915260018152601960f91b6020820152816130285760405162461bcd60e51b8152600401610c7f9190614435565b5060008061303583613b30565b91509150801561305a57600061304a83612bf0565b905083811015613058578093505b505b6130643384613bdd565b61306d82613d1a565b50604080518481526020810184905233917ff279e6a1f5e320cca91135676d9cb6e44ca8a08c0b88342bcdb1144f6511b568910160405180910390a2505050565b600e5460405163228bfd9f60e01b8152600091829182916001600160a01b03169063228bfd9f906130e39088906004016144a9565b6101206040518083038186803b1580156130fc57600080fd5b505afa158015613110573d6000803e3d6000fd5b505050506040513d601f19601f8201168201806040525081019061313491906148e7565b505050509450945050505061314a828286612b7d565b95945050505050565b6000600854461415613166575060065490565b6007546040805180820190915260018152603160f81b60209091015261115b907f8b73c3c69bb8fe3d512ecc4cf759cc79239f7b179b0ffacaa9a75d522b39400f907fc89efdaa54c0f20c7adf612882df0950f5a951637e0307cdcb4c672f298b8bc6613da8565b600b54600160a01b900460ff166132145760405162461bcd60e51b815260206004820152600a6024820152691b9bdd0b5c185d5cd95960b21b6044820152606401610c7f565b600b54600160a81b900460ff161561323e5760405162461bcd60e51b8152600401610c7f90614b60565b600b805460ff60a01b191690557f5db9ee0a495bf2e6ff9c91a7834c1ba4fdd244a5e8aa4e537bd38aeae4b073aa335b60405161327b91906144a9565b60405180910390a1565b6000611428836001600160a01b038416613df1565b6132a3336134f1565b61276681612ff2565b6060600061142883613e40565b60006132c4826122d7565b90506132de33600d546001600160a01b0316903085612d7d565b6132e733612b3a565b604080518281526020810184905233917f90890809c654f11d6e72a28fa60149770a0d11ec6c92319d6ceb2bb0a4ea1a15910160405180910390a25050565b600b54600160a01b900460ff16156133505760405162461bcd60e51b8152600401610c7f9061487b565b600b805460ff60a01b1916600160a01b1790557f62e78cea01bee320cd4e420270b5ea74000d11b0c9f74754ebdbfc544b05a25861326e3390565b815161339e90600390602085019061434d565b508051612d7890600490602084019061434d565b80516020808301919091206007819055466008556040805180820190915260018152603160f81b92019190915261342b907f8b73c3c69bb8fe3d512ecc4cf759cc79239f7b179b0ffacaa9a75d522b39400f907fc89efdaa54c0f20c7adf612882df0950f5a951637e0307cdcb4c672f298b8bc6613da8565b60065550565b600554610100900460ff168061344a575060055460ff16155b6134665760405162461bcd60e51b8152600401610c7f90614b82565b600554610100900460ff16158015613488576005805461ffff19166101011790555b600a80546001600160a01b0319163390811790915560405181906000907fd4459d5b8b913cab0244230fd9b1c08b6ceace7fe9230e60d0f74cbffdf849d0908290a3508015612766576005805461ff001916905550565b6134e8336134f1565b612766816132b9565b600f546001600160a01b03161561276657600f5460405163d279c19160e01b81526001600160a01b039091169063d279c191906127389084906004016144a9565b60006fa2a8918ca85bafe22016d0b997e4df60600160ff1b038211156135a55760405162461bcd60e51b815260206004820152602260248201527f45434453413a20696e76616c6964207369676e6174757265202773272076616c604482015261756560f01b6064820152608401610c7f565b8360ff16601b14806135ba57508360ff16601c145b6136115760405162461bcd60e51b815260206004820152602260248201527f45434453413a20696e76616c6964207369676e6174757265202776272076616c604482015261756560f01b6064820152608401610c7f565b6040805160008082526020820180845288905260ff871692820192909252606081018590526080810184905260019060a0016020604051602081039080840390855afa158015613665573d6000803e3d6000fd5b5050604051601f1901519150506001600160a01b03811661314a5760405162461bcd60e51b815260206004820152601860248201527745434453413a20696e76616c6964207369676e617475726560401b6044820152606401610c7f565b600b54600160a81b900460ff16156136ed5760405162461bcd60e51b8152600401610c7f90614b60565b600b805461ffff60a01b191661010160a01b1790557f28b4c24cb1012c094cd2f59f98e89d791973295f8fda6eaa118022d6d318960a3361326e565b600b54600160a81b900460ff166137715760405162461bcd60e51b815260206004820152600c60248201526b3737ba16b9b43aba3237bbb760a11b6044820152606401610c7f565b600b805460ff60a81b191690557fece7583a70a505ef0e36d4dec768f5ae597713e09c26011022599ee01abdabfc3361326e565b60006137fa826040518060400160405280602081526020017f5361666545524332303a206c6f772d6c6576656c2063616c6c206661696c6564815250856001600160a01b0316613e9c9092919063ffffffff16565b805190915015612d7857808060200190518101906138189190614d3a565b612d785760405162461bcd60e51b815260206004820152602a60248201527f5361666545524332303a204552433230206f7065726174696f6e20646964206e6044820152691bdd081cdd58d8d9595960b21b6064820152608401610c7f565b6000818152600183016020526040812054801561396057600061389b6001836149c6565b85549091506000906138af906001906149c6565b90508181146139145760008660000182815481106138cf576138cf614b16565b90600052602060002001549050808760000184815481106138f2576138f2614b16565b6000918252602080832090910192909255918252600188019052604090208390555b855486908061392557613925614d55565b600190038181906000526020600020016000905590558560010160008681526020019081526020016000206000905560019350505050610ff1565b6000915050610ff1565b6001600160a01b0383166139ce5760405162461bcd60e51b815260206004820152602560248201527f45524332303a207472616e736665722066726f6d20746865207a65726f206164604482015264647265737360d81b6064820152608401610c7f565b6001600160a01b038216613a305760405162461bcd60e51b815260206004820152602360248201527f45524332303a207472616e7366657220746f20746865207a65726f206164647260448201526265737360e81b6064820152608401610c7f565b6001600160a01b03831660009081526020819052604090205481811015613aa85760405162461bcd60e51b815260206004820152602660248201527f45524332303a207472616e7366657220616d6f756e7420657863656564732062604482015265616c616e636560d01b6064820152608401610c7f565b613ab282826149c6565b6001600160a01b038086166000908152602081905260408082209390935590851681529081208054849290613ae89084906149ae565b92505081905550826001600160a01b0316846001600160a01b0316600080516020614d8883398151915284604051613b2291815260200190565b60405180910390a350505050565b6000806000670de0b6b3a7640000613b46611e0f565b613b509086614ce0565b613b5a9190614cff565b90506000613b666121f4565b905081935080821115613b9f57613b85613b8082846149c6565b613eb3565b613b8d6121f4565b905080821115613b9f57809350600192505b6040805180820190915260018152603160f81b602082015284613bd55760405162461bcd60e51b8152600401610c7f9190614435565b505050915091565b6001600160a01b038216613c3d5760405162461bcd60e51b815260206004820152602160248201527f45524332303a206275726e2066726f6d20746865207a65726f206164647265736044820152607360f81b6064820152608401610c7f565b6001600160a01b03821660009081526020819052604090205481811015613cb15760405162461bcd60e51b815260206004820152602260248201527f45524332303a206275726e20616d6f756e7420657863656564732062616c616e604482015261636560f01b6064820152608401610c7f565b613cbb82826149c6565b6001600160a01b03841660009081526020819052604081209190915560028054849290613ce99084906149c6565b90915550506040518281526000906001600160a01b03851690600080516020614d8883398151915290602001612ecd565b60165460009060ff1615613d9a57600d54604051632e1a7d4d60e01b8152600481018490526001600160a01b0390911690632e1a7d4d90602401600060405180830381600087803b158015613d6e57600080fd5b505af1158015613d82573d6000803e3d6000fd5b50505050613d96613d903390565b836140ba565b5090565b613da3826141d3565b505090565b6040805160208101859052908101839052606081018290524660808201523060a082015260009060c0016040516020818303038152906040528051906020012090509392505050565b6000818152600183016020526040812054613e3857508154600181810184556000848152602080822090930184905584548482528286019093526040902091909155610ff1565b506000610ff1565b606081600001805480602002602001604051908101604052809291908181526020018280548015613e9057602002820191906000526020600020905b815481526020019060010190808311613e7c575b50505050509050919050565b6060613eab84846000856141ec565b949350505050565b600080600080600080613ec46110da565b805190915060005b818110156140af576000613ee0858b6149c6565b90506000848381518110613ef657613ef6614b16565b6020908102919091010151600e54604051639f2b283360e01b81529192506001600160a01b031690639f2b283390613f329084906004016144a9565b60206040518083038186803b158015613f4a57600080fd5b505afa158015613f5e573d6000803e3d6000fd5b505050506040513d601f19601f82011682018060405250810190613f829190614b47565b995089613f9057505061409d565b89821115613f9c578991505b613fa46121f4565b604051632e1a7d4d60e01b8152600481018490529098506001600160a01b03821690632e1a7d4d90602401600060405180830381600087803b158015613fe957600080fd5b505af1925050508015613ffa575060015b61400557505061409d565b61400d6121f4565b9850614019888a6149c6565b600e54604051632fb9ba3160e01b81529198506001600160a01b031690632fb9ba319061404c9084908b90600401614d21565b600060405180830381600087803b15801561406657600080fd5b505af115801561407a573d6000803e3d6000fd5b50505050868661408a91906149ae565b95508a861061409a5750506140af565b50505b806140a781614b2c565b915050613ecc565b505050505050505050565b8047101561410a5760405162461bcd60e51b815260206004820152601d60248201527f416464726573733a20696e73756666696369656e742062616c616e63650000006044820152606401610c7f565b6000826001600160a01b03168260405160006040518083038185875af1925050503d8060008114614157576040519150601f19603f3d011682016040523d82523d6000602084013e61415c565b606091505b5050905080612d785760405162461bcd60e51b815260206004820152603a60248201527f416464726573733a20756e61626c6520746f2073656e642076616c75652c207260448201527f6563697069656e74206d617920686176652072657665727465640000000000006064820152608401610c7f565b6000613d9633600d546001600160a01b03169084612d22565b60608247101561424d5760405162461bcd60e51b815260206004820152602660248201527f416464726573733a20696e73756666696369656e742062616c616e636520666f6044820152651c8818d85b1b60d21b6064820152608401610c7f565b843b61429b5760405162461bcd60e51b815260206004820152601d60248201527f416464726573733a2063616c6c20746f206e6f6e2d636f6e74726163740000006044820152606401610c7f565b600080866001600160a01b031685876040516142b79190614d6b565b60006040518083038185875af1925050503d80600081146142f4576040519150601f19603f3d011682016040523d82523d6000602084013e6142f9565b606091505b5091509150614309828286614314565b979650505050505050565b60608315614323575081611428565b8251156143335782518084602001fd5b8160405162461bcd60e51b8152600401610c7f9190614435565b828054614359906149dd565b90600052602060002090601f01602090048101928261437b57600085556143c1565b82601f1061439457805160ff19168380011785556143c1565b828001600101855582156143c1579182015b828111156143c15782518255916020019190600101906143a6565b50613d969291505b80821115613d9657600081556001016143c9565b6000806000606084860312156143f257600080fd5b505081359360208301359350604090920135919050565b60005b8381101561442457818101518382015260200161440c565b838111156122d15750506000910152565b6020815260008251806020840152614454816040850160208701614409565b601f01601f19169190910160400192915050565b6001600160a01b038116811461276657600080fd5b6000806040838503121561449057600080fd5b823561449b81614468565b946020939093013593505050565b6001600160a01b0391909116815260200190565b6000602082840312156144cf57600080fd5b5035919050565b6020808252825182820181905260009190848201906040850190845b818110156145175783516001600160a01b0316835292840192918401916001016144f2565b50909695505050505050565b60006020828403121561453557600080fd5b813561142881614468565b60008083601f84011261455257600080fd5b50813567ffffffffffffffff81111561456a57600080fd5b6020830191508360208260051b850101111561458557600080fd5b9250929050565b600080600080604085870312156145a257600080fd5b843567ffffffffffffffff808211156145ba57600080fd5b6145c688838901614540565b909650945060208701359150808211156145df57600080fd5b506145ec87828801614540565b95989497509550505050565b60008060006060848603121561460d57600080fd5b833561461881614468565b9250602084013561462881614468565b929592945050506040919091013590565b60ff8116811461276657600080fd5b600080600080600060a0868803121561466057600080fd5b8535945060208601359350604086013561467981614639565b94979396509394606081013594506080013592915050565b600080604083850312156146a457600080fd5b82356146af81614468565b915060208301356146bf81614468565b809150509250929050565b634e487b7160e01b600052604160045260246000fd5b604051601f8201601f1916810167ffffffffffffffff81118282101715614709576147096146ca565b604052919050565b600082601f83011261472257600080fd5b813567ffffffffffffffff81111561473c5761473c6146ca565b61474f601f8201601f19166020016146e0565b81815284602083860101111561476457600080fd5b816020850160208301376000918101602001919091529392505050565b6000806000806080858703121561479757600080fd5b843567ffffffffffffffff808211156147af57600080fd5b6147bb88838901614711565b955060208701359150808211156147d157600080fd5b506147de87828801614711565b93505060408501356147ef81614468565b915060608501356147ff81614468565b939692955090935050565b600080600080600080600060e0888a03121561482557600080fd5b873561483081614468565b9650602088013561484081614468565b95506040880135945060608801359350608088013561485e81614639565b9699959850939692959460a0840135945060c09093013592915050565b6020808252600690820152651c185d5cd95960d21b604082015260600190565b6020808252601f908201527f5265656e7472616e637947756172643a207265656e7472616e742063616c6c00604082015260600190565b805180151581146148e257600080fd5b919050565b60008060008060008060008060006101208a8c03121561490657600080fd5b61490f8a6148d2565b985060208a0151975060408a0151965060608a0151955060808a0151945060a08a0151935060c08a0151925060e08a015191506101008a015190509295985092959850929598565b60006020828403121561496957600080fd5b815161142881614468565b6000806040838503121561498757600080fd5b505080516020909101519092909150565b634e487b7160e01b600052601160045260246000fd5b600082198211156149c1576149c1614998565b500190565b6000828210156149d8576149d8614998565b500390565b600181811c908216806149f157607f821691505b60208210811415614a1257634e487b7160e01b600052602260045260246000fd5b50919050565b6020808252600c908201526b3737ba16b3b7bb32b93737b960a11b604082015260600190565b60006020808385031215614a5157600080fd5b825167ffffffffffffffff80821115614a6957600080fd5b818501915085601f830112614a7d57600080fd5b815181811115614a8f57614a8f6146ca565b8060051b9150614aa08483016146e0565b8181529183018401918481019088841115614aba57600080fd5b938501935b83851015614ae45784519250614ad483614468565b8282529385019390850190614abf565b98975050505050505050565b6020808252600c908201526b3737ba16b096b5b2b2b832b960a11b604082015260600190565b634e487b7160e01b600052603260045260246000fd5b6000600019821415614b4057614b40614998565b5060010190565b600060208284031215614b5957600080fd5b5051919050565b60208082526008908201526739b43aba3237bbb760c11b604082015260600190565b6020808252602e908201527f496e697469616c697a61626c653a20636f6e747261637420697320616c72656160408201526d191e481a5b9a5d1a585b1a5e995960921b606082015260800190565b600060208284031215614be257600080fd5b815161142881614639565b600181815b80851115614c28578160001904821115614c0e57614c0e614998565b80851615614c1b57918102915b93841c9390800290614bf2565b509250929050565b600082614c3f57506001610ff1565b81614c4c57506000610ff1565b8160018114614c625760028114614c6c57614c88565b6001915050610ff1565b60ff841115614c7d57614c7d614998565b50506001821b610ff1565b5060208310610133831016604e8410600b8410161715614cab575081810a610ff1565b614cb58383614bed565b8060001904821115614cc957614cc9614998565b029392505050565b600061142860ff841683614c30565b6000816000190483118215151615614cfa57614cfa614998565b500290565b600082614d1c57634e487b7160e01b600052601260045260246000fd5b500490565b6001600160a01b03929092168252602082015260400190565b600060208284031215614d4c57600080fd5b611428826148d2565b634e487b7160e01b600052603160045260246000fd5b60008251614d7d818460208701614409565b919091019291505056feddf252ad1be2c89b69c2b068fc378daa952ba7f163c4a11628f55a4df523b3efa26469706673582212200f4ea5dbada3e4e361e4d9043d81e7aed1dba898060d8ab365f23b816f958e6464736f6c63430008090033",
  "devdoc": {
    "kind": "dev",
    "methods": {
      "DOMAIN_SEPARATOR()": {
        "details": "See {IERC20Permit-DOMAIN_SEPARATOR}."
      },
      "acceptGovernorship()": {
        "details": "Allows new governor to accept governorship of the contract."
      },
      "addKeeper(address)": {
        "params": {
          "_keeperAddress": "keeper address to add."
        }
      },
      "addMaintainer(address)": {
        "params": {
          "_maintainerAddress": "maintainer address to add."
        }
      },
      "allowance(address,address)": {
        "details": "See {IERC20-allowance}."
      },
      "approve(address,uint256)": {
        "details": "See {IERC20-approve}. Requirements: - `spender` cannot be the zero address."
      },
      "availableCreditLimit(address)": {
        "details": "Available credit limit is calculated based on current debt of pool and strategy, current debt limit of pool and strategy. credit available = min(pool's debt limit, strategy's debt limit, max debt per rebalance) when some strategy do not pay back outstanding debt, this impact credit line of other strategy if totalDebt of pool >= debtLimit of pool",
        "params": {
          "_strategy": "Strategy address"
        }
      },
      "balanceOf(address)": {
        "details": "Returns the amount of tokens owned by `account`."
      },
      "calculateMintage(uint256)": {
        "details": "Amount should be >= minimum deposit limit which default to 1",
        "params": {
          "_amount": "Collateral amount"
        },
        "returns": {
          "_shares": "Amount of share that user will get"
        }
      },
      "calculateUniversalFee(uint256)": {
        "details": "Earn strategies will call this during rebalance."
      },
      "decimals()": {
        "details": "Returns the decimals of the token. default to 18"
      },
      "deposit()": {
        "details": "Receives ETH and grants new tokens/shares to the sender depending on the value of pool's share."
      },
      "deposit(uint256)": {
        "params": {
          "_amount": "ERC20 token amount."
        }
      },
      "depositAndClaim()": {
        "details": "Deposit ETH and claim rewards if any"
      },
      "depositAndClaim(uint256)": {
        "params": {
          "_amount": "ERC20 token amount."
        }
      },
      "depositWithPermit(uint256,uint256,uint8,bytes32,bytes32)": {
        "params": {
          "_amount": "ERC20 token amount.",
          "_deadline": "The time at which signature will expire",
          "_r": "Half of the ECDSA signature pair",
          "_s": "Half of the ECDSA signature pair",
          "_v": "The recovery byte of the signature"
        }
      },
      "excessDebt(address)": {
        "params": {
          "_strategy": "Address of strategy"
        }
      },
      "initialize(string,string,address,address)": {
        "details": "Equivalent to constructor for proxy. It can be called only once per proxy."
      },
      "migrateStrategy(address,address)": {
        "details": "Migrating strategy aka old and new strategy should be of same type.",
        "params": {
          "_new": "Address of new strategy",
          "_old": "Address of strategy being migrated"
        }
      },
      "multiTransfer(address[],uint256[])": {
        "details": "Address array and amount array are 1:1 and are in order.",
        "params": {
          "_amounts": "array of token amounts",
          "_recipients": "array of recipient addresses"
        },
        "returns": {
          "_0": "true/false"
        }
      },
      "name()": {
        "details": "Returns the name of the token."
      },
      "permit(address,address,uint256,uint256,uint8,bytes32,bytes32)": {
        "details": "See {IERC20Permit-permit}."
      },
      "pricePerShare()": {
        "details": "Return value will be in token defined decimals."
      },
      "removeKeeper(address)": {
        "params": {
          "_keeperAddress": "keeper address to remove."
        }
      },
      "removeMaintainer(address)": {
        "params": {
          "_maintainerAddress": "maintainer address to remove."
        }
      },
      "reportEarning(uint256,uint256,uint256)": {
        "params": {
          "_loss": "Reduce debt ,also reduce debtRatio, increase loss in record.",
          "_payback": "strategy willing to payback outstanding above debtLimit. no performance fee on this amount.  when governance has reduced debtRatio of strategy, strategy will report profit and payback amount separately.",
          "_profit": "yield generated by strategy. Strategy get performance fee on this amount"
        }
      },
      "reportLoss(uint256)": {
        "details": "Some strategies pay deposit fee thus realizing loss at deposit. For example: Curve's 3pool has some slippage due to deposit of one asset in 3pool. Strategy may want report this loss instead of waiting for next rebalance.",
        "params": {
          "_loss": "Loss that strategy want to report"
        }
      },
      "sweepERC20(address)": {
        "details": "Transfer given ERC20 token to governor",
        "params": {
          "_fromToken": "Token address to sweep"
        }
      },
      "symbol()": {
        "details": "Returns the symbol of the token, usually a shorter version of the name."
      },
      "tokensHere()": {
        "details": "Returns the token stored in the pool. It will be in token defined decimals."
      },
      "totalDebtOf(address)": {
        "params": {
          "_strategy": "Strategy address"
        }
      },
      "totalSupply()": {
        "details": "Returns total supply of the token."
      },
      "transfer(address,uint256)": {
        "details": "See {IERC20-transfer}. Requirements: - `recipient` cannot be the zero address. - the caller must have a balance of at least `amount`."
      },
      "transferFrom(address,address,uint256)": {
        "details": "See {IERC20-transferFrom}. Emits an {Approval} event indicating the updated allowance. This is not required by the EIP. See the note at the beginning of {ERC20}. Requirements: - `sender` and `recipient` cannot be the zero address. - `sender` must have a balance of at least `amount`. - the caller must have allowance for ``sender``'s tokens of at least `amount`."
      },
      "transferGovernorship(address)": {
        "details": "Transfers governorship of the contract to a new account (`proposedGovernor`). Can only be called by the current owner."
      },
      "updateMaximumProfitAsFee(uint256)": {
        "params": {
          "_newMaxProfitAsFee": "New max profit as fee"
        }
      },
      "updateMinimumDepositLimit(uint256)": {
        "params": {
          "_newLimit": "New minimum deposit limit"
        }
      },
      "updatePoolRewards(address)": {
        "params": {
          "_newPoolRewards": "new pool rewards address"
        }
      },
      "updateUniversalFee(uint256)": {
        "details": "Format: 1500 = 15% fee, 100 = 1%",
        "params": {
          "_newUniversalFee": "new universal fee"
        }
      },
      "withdraw(uint256)": {
        "params": {
          "_shares": "Pool shares. It will be in 18 decimals."
        }
      },
      "withdrawAndClaim(uint256)": {
        "params": {
          "_shares": "Pool shares. It will be in 18 decimals."
        }
      },
      "withdrawETH(uint256)": {
        "details": "Burns tokens/shares and returns the ETH value, after fee, of those."
      },
      "withdrawETHAndClaim(uint256)": {
        "details": "Burns tokens/shares and returns the ETH value and claim rewards if any"
      }
    },
    "version": 1
  },
  "userdoc": {
    "kind": "user",
    "methods": {
      "addKeeper(address)": {
        "notice": "Add given address in keepers list."
      },
      "addMaintainer(address)": {
        "notice": "Add given address in maintainers list."
      },
      "availableCreditLimit(address)": {
        "notice": "Get available credit limit of strategy. This is the amount strategy can borrow from pool"
      },
      "calculateMintage(uint256)": {
        "notice": "Calculate how much shares user will get for given amount. Also return externalDepositFee if any."
      },
      "calculateUniversalFee(uint256)": {
        "notice": "Calculate universal fee for calling strategy. This is only strategy function."
      },
      "deposit(uint256)": {
        "notice": "Deposit ERC20 tokens and receive pool shares depending on the current share price."
      },
      "depositAndClaim(uint256)": {
        "notice": "Deposit ERC20 tokens and claim rewards if any"
      },
      "depositWithPermit(uint256,uint256,uint8,bytes32,bytes32)": {
        "notice": "Deposit ERC20 tokens with permit aka gasless approval."
      },
      "excessDebt(address)": {
        "notice": "Debt above current debt limit"
      },
      "keepers()": {
        "notice": "Return list of keepers"
      },
      "maintainers()": {
        "notice": "Return list of maintainers"
      },
      "maxProfitAsFee()": {
        "notice": "Maximum percentage of profit that can be counted as universal fee. Default to 50%"
      },
      "migrateStrategy(address,address)": {
        "notice": "Migrate existing strategy to new strategy."
      },
      "minDepositLimit()": {
        "notice": "Minimum deposit limit."
      },
      "multiTransfer(address[],uint256[])": {
        "notice": "Transfer tokens to multiple recipient"
      },
      "poolAccountant()": {
        "notice": "PoolAccountant address"
      },
      "poolRewards()": {
        "notice": "PoolRewards contract address"
      },
      "pricePerShare()": {
        "notice": "Get price per share"
      },
      "removeKeeper(address)": {
        "notice": "Remove given address from keepers list."
      },
      "removeMaintainer(address)": {
        "notice": "Remove given address from maintainers list."
      },
      "reportEarning(uint256,uint256,uint256)": {
        "notice": "Strategy call this in regular interval. Only strategy function."
      },
      "reportLoss(uint256)": {
        "notice": "Report loss outside of rebalance activity."
      },
      "setup()": {
        "notice": "OnlyGovernor:: Helper function for V5 upgrade"
      },
      "token()": {
        "notice": "Collateral token address"
      },
      "totalDebt()": {
        "notice": "Get total debt of pool"
      },
      "totalDebtOf(address)": {
        "notice": "Get total debt of given strategy"
      },
      "totalDebtRatio()": {
        "notice": "Get total debt ratio. Total debt ratio helps us keep buffer in pool"
      },
      "totalValue()": {
        "notice": "Returns sum of token locked in other contracts and token stored in the pool. It will be in token defined decimals."
      },
      "universalFee()": {
        "notice": "Universal fee of this pool. Default to 2%"
      },
      "updateMaximumProfitAsFee(uint256)": {
        "notice": "Only Governor:: Update maximum profit that can be used as universal fee"
      },
      "updateMinimumDepositLimit(uint256)": {
        "notice": "Only Governor:: Update minimum deposit limit"
      },
      "updatePoolRewards(address)": {
        "notice": "Update pool rewards address for this pool"
      },
      "updateUniversalFee(uint256)": {
        "notice": "Update universal fee for this pool"
      },
      "withdraw(uint256)": {
        "notice": "Withdraw collateral based on given shares and the current share price. Burn remaining shares and return collateral."
      },
      "withdrawAndClaim(uint256)": {
        "notice": "Withdraw collateral and claim rewards if any"
      }
    },
    "version": 1
  },
  "storageLayout": {
    "storage": [
      {
        "astId": 9427,
        "contract": "contracts/pool/VETH.sol:VETH",
        "label": "_balances",
        "offset": 0,
        "slot": "0",
        "type": "t_mapping(t_address,t_uint256)"
      },
      {
        "astId": 9433,
        "contract": "contracts/pool/VETH.sol:VETH",
        "label": "_allowances",
        "offset": 0,
        "slot": "1",
        "type": "t_mapping(t_address,t_mapping(t_address,t_uint256))"
      },
      {
        "astId": 9435,
        "contract": "contracts/pool/VETH.sol:VETH",
        "label": "_totalSupply",
        "offset": 0,
        "slot": "2",
        "type": "t_uint256"
      },
      {
        "astId": 9437,
        "contract": "contracts/pool/VETH.sol:VETH",
        "label": "_name",
        "offset": 0,
        "slot": "3",
        "type": "t_string_storage"
      },
      {
        "astId": 9439,
        "contract": "contracts/pool/VETH.sol:VETH",
        "label": "_symbol",
        "offset": 0,
        "slot": "4",
        "type": "t_string_storage"
      },
      {
        "astId": 2095,
        "contract": "contracts/pool/VETH.sol:VETH",
        "label": "_initialized",
        "offset": 0,
        "slot": "5",
        "type": "t_bool"
      },
      {
        "astId": 2098,
        "contract": "contracts/pool/VETH.sol:VETH",
        "label": "_initializing",
        "offset": 1,
        "slot": "5",
        "type": "t_bool"
      },
      {
        "astId": 9900,
        "contract": "contracts/pool/VETH.sol:VETH",
        "label": "_CACHED_DOMAIN_SEPARATOR",
        "offset": 0,
        "slot": "6",
        "type": "t_bytes32"
      },
      {
        "astId": 9902,
        "contract": "contracts/pool/VETH.sol:VETH",
        "label": "_HASHED_NAME",
        "offset": 0,
        "slot": "7",
        "type": "t_bytes32"
      },
      {
        "astId": 9904,
        "contract": "contracts/pool/VETH.sol:VETH",
        "label": "_CACHED_CHAIN_ID",
        "offset": 0,
        "slot": "8",
        "type": "t_uint256"
      },
      {
        "astId": 9910,
        "contract": "contracts/pool/VETH.sol:VETH",
        "label": "nonces",
        "offset": 0,
        "slot": "9",
        "type": "t_mapping(t_address,t_uint256)"
      },
      {
        "astId": 792,
        "contract": "contracts/pool/VETH.sol:VETH",
        "label": "governor",
        "offset": 0,
        "slot": "10",
        "type": "t_address"
      },
      {
        "astId": 794,
        "contract": "contracts/pool/VETH.sol:VETH",
        "label": "proposedGovernor",
        "offset": 0,
        "slot": "11",
        "type": "t_address"
      },
      {
        "astId": 939,
        "contract": "contracts/pool/VETH.sol:VETH",
        "label": "paused",
        "offset": 20,
        "slot": "11",
        "type": "t_bool"
      },
      {
        "astId": 941,
        "contract": "contracts/pool/VETH.sol:VETH",
        "label": "stopEverything",
        "offset": 21,
        "slot": "11",
        "type": "t_bool"
      },
      {
        "astId": 2146,
        "contract": "contracts/pool/VETH.sol:VETH",
        "label": "_status",
        "offset": 0,
        "slot": "12",
        "type": "t_uint256"
      },
      {
        "astId": 11137,
        "contract": "contracts/pool/VETH.sol:VETH",
        "label": "token",
        "offset": 0,
        "slot": "13",
        "type": "t_contract(IERC20)2760"
      },
      {
        "astId": 11140,
        "contract": "contracts/pool/VETH.sol:VETH",
        "label": "poolAccountant",
        "offset": 0,
        "slot": "14",
        "type": "t_address"
      },
      {
        "astId": 11143,
        "contract": "contracts/pool/VETH.sol:VETH",
        "label": "poolRewards",
        "offset": 0,
        "slot": "15",
        "type": "t_address"
      },
      {
        "astId": 11145,
        "contract": "contracts/pool/VETH.sol:VETH",
        "label": "feeWhitelistObsolete",
        "offset": 0,
        "slot": "16",
        "type": "t_address"
      },
      {
        "astId": 11147,
        "contract": "contracts/pool/VETH.sol:VETH",
        "label": "keepersObsolete",
        "offset": 0,
        "slot": "17",
        "type": "t_address"
      },
      {
        "astId": 11149,
        "contract": "contracts/pool/VETH.sol:VETH",
        "label": "maintainersObsolete",
        "offset": 0,
        "slot": "18",
        "type": "t_address"
      },
      {
        "astId": 11151,
        "contract": "contracts/pool/VETH.sol:VETH",
        "label": "feeCollectorObsolete",
        "offset": 0,
        "slot": "19",
        "type": "t_address"
      },
      {
        "astId": 11153,
        "contract": "contracts/pool/VETH.sol:VETH",
        "label": "withdrawFeeObsolete",
        "offset": 0,
        "slot": "20",
        "type": "t_uint256"
      },
      {
        "astId": 11155,
        "contract": "contracts/pool/VETH.sol:VETH",
        "label": "decimalConversionFactorObsolete",
        "offset": 0,
        "slot": "21",
        "type": "t_uint256"
      },
      {
        "astId": 11157,
        "contract": "contracts/pool/VETH.sol:VETH",
        "label": "withdrawInETH",
        "offset": 0,
        "slot": "22",
        "type": "t_bool"
      },
      {
        "astId": 11163,
        "contract": "contracts/pool/VETH.sol:VETH",
        "label": "_feeWhitelistObsolete",
        "offset": 0,
        "slot": "23",
        "type": "t_struct(AddressSet)4634_storage"
      },
      {
        "astId": 11166,
        "contract": "contracts/pool/VETH.sol:VETH",
        "label": "_keepers",
        "offset": 0,
        "slot": "25",
        "type": "t_struct(AddressSet)4634_storage"
      },
      {
        "astId": 11169,
        "contract": "contracts/pool/VETH.sol:VETH",
        "label": "_maintainers",
        "offset": 0,
        "slot": "27",
        "type": "t_struct(AddressSet)4634_storage"
      },
      {
        "astId": 11176,
        "contract": "contracts/pool/VETH.sol:VETH",
        "label": "universalFee",
        "offset": 0,
        "slot": "29",
        "type": "t_uint256"
      },
      {
        "astId": 11180,
        "contract": "contracts/pool/VETH.sol:VETH",
        "label": "maxProfitAsFee",
        "offset": 0,
        "slot": "30",
        "type": "t_uint256"
      },
      {
        "astId": 11184,
        "contract": "contracts/pool/VETH.sol:VETH",
        "label": "minDepositLimit",
        "offset": 0,
        "slot": "31",
        "type": "t_uint256"
      }
    ],
    "types": {
      "t_address": {
        "encoding": "inplace",
        "label": "address",
        "numberOfBytes": "20"
      },
      "t_array(t_bytes32)dyn_storage": {
        "base": "t_bytes32",
        "encoding": "dynamic_array",
        "label": "bytes32[]",
        "numberOfBytes": "32"
      },
      "t_bool": {
        "encoding": "inplace",
        "label": "bool",
        "numberOfBytes": "1"
      },
      "t_bytes32": {
        "encoding": "inplace",
        "label": "bytes32",
        "numberOfBytes": "32"
      },
      "t_contract(IERC20)2760": {
        "encoding": "inplace",
        "label": "contract IERC20",
        "numberOfBytes": "20"
      },
      "t_mapping(t_address,t_mapping(t_address,t_uint256))": {
        "encoding": "mapping",
        "key": "t_address",
        "label": "mapping(address => mapping(address => uint256))",
        "numberOfBytes": "32",
        "value": "t_mapping(t_address,t_uint256)"
      },
      "t_mapping(t_address,t_uint256)": {
        "encoding": "mapping",
        "key": "t_address",
        "label": "mapping(address => uint256)",
        "numberOfBytes": "32",
        "value": "t_uint256"
      },
      "t_mapping(t_bytes32,t_uint256)": {
        "encoding": "mapping",
        "key": "t_bytes32",
        "label": "mapping(bytes32 => uint256)",
        "numberOfBytes": "32",
        "value": "t_uint256"
      },
      "t_string_storage": {
        "encoding": "bytes",
        "label": "string",
        "numberOfBytes": "32"
      },
      "t_struct(AddressSet)4634_storage": {
        "encoding": "inplace",
        "label": "struct EnumerableSet.AddressSet",
        "members": [
          {
            "astId": 4633,
            "contract": "contracts/pool/VETH.sol:VETH",
            "label": "_inner",
            "offset": 0,
            "slot": "0",
            "type": "t_struct(Set)4333_storage"
          }
        ],
        "numberOfBytes": "64"
      },
      "t_struct(Set)4333_storage": {
        "encoding": "inplace",
        "label": "struct EnumerableSet.Set",
        "members": [
          {
            "astId": 4328,
            "contract": "contracts/pool/VETH.sol:VETH",
            "label": "_values",
            "offset": 0,
            "slot": "0",
            "type": "t_array(t_bytes32)dyn_storage"
          },
          {
            "astId": 4332,
            "contract": "contracts/pool/VETH.sol:VETH",
            "label": "_indexes",
            "offset": 0,
            "slot": "1",
            "type": "t_mapping(t_bytes32,t_uint256)"
          }
        ],
        "numberOfBytes": "64"
      },
      "t_uint256": {
        "encoding": "inplace",
        "label": "uint256",
        "numberOfBytes": "32"
      }
    }
  }
}