{
  "address": "0x95d10DD75756671F866a09dc9F61F9286c7e1D7D",
  "abi": [
    {
      "inputs": [
        {
          "internalType": "address",
          "name": "_pool",
          "type": "address"
        },
        {
          "internalType": "address",
          "name": "_swapManager",
          "type": "address"
        }
      ],
      "stateMutability": "nonpayable",
      "type": "constructor"
    },
    {
      "anonymous": false,
      "inputs": [
        {
          "indexed": false,
          "internalType": "address",
          "name": "_previousProvider",
          "type": "address"
        },
        {
          "indexed": false,
          "internalType": "address",
          "name": "_newProvider",
          "type": "address"
        }
      ],
      "name": "UpdatedAddressesProvider",
      "type": "event"
    },
    {
      "anonymous": false,
      "inputs": [
        {
          "indexed": true,
          "internalType": "address",
          "name": "previousFeeCollector",
          "type": "address"
        },
        {
          "indexed": true,
          "internalType": "address",
          "name": "newFeeCollector",
          "type": "address"
        }
      ],
      "name": "UpdatedFeeCollector",
      "type": "event"
    },
    {
      "anonymous": false,
      "inputs": [
        {
          "indexed": true,
          "internalType": "address",
          "name": "previousSwapManager",
          "type": "address"
        },
        {
          "indexed": true,
          "internalType": "address",
          "name": "newSwapManager",
          "type": "address"
        }
      ],
      "name": "UpdatedSwapManager",
      "type": "event"
    },
    {
      "inputs": [],
      "name": "NAME",
      "outputs": [
        {
          "internalType": "string",
          "name": "",
          "type": "string"
        }
      ],
      "stateMutability": "view",
      "type": "function"
    },
    {
      "inputs": [],
      "name": "VERSION",
      "outputs": [
        {
          "internalType": "string",
          "name": "",
          "type": "string"
        }
      ],
      "stateMutability": "view",
      "type": "function"
    },
    {
      "inputs": [],
      "name": "aaveAddressesProvider",
      "outputs": [
        {
          "internalType": "contract AaveLendingPoolAddressesProvider",
          "name": "",
          "type": "address"
        }
      ],
      "stateMutability": "view",
      "type": "function"
    },
    {
      "inputs": [],
      "name": "aaveIncentivesController",
      "outputs": [
        {
          "internalType": "contract AaveIncentivesController",
          "name": "",
          "type": "address"
        }
      ],
      "stateMutability": "view",
      "type": "function"
    },
    {
      "inputs": [],
      "name": "aaveLendingPool",
      "outputs": [
        {
          "internalType": "contract AaveLendingPool",
          "name": "",
          "type": "address"
        }
      ],
      "stateMutability": "view",
      "type": "function"
    },
    {
      "inputs": [],
      "name": "aaveProtocolDataProvider",
      "outputs": [
        {
          "internalType": "contract AaveProtocolDataProvider",
          "name": "",
          "type": "address"
        }
      ],
      "stateMutability": "view",
      "type": "function"
    },
    {
      "inputs": [
        {
          "internalType": "address",
          "name": "_keeperAddress",
          "type": "address"
        }
      ],
      "name": "addKeeper",
      "outputs": [],
      "stateMutability": "nonpayable",
      "type": "function"
    },
    {
      "inputs": [],
      "name": "approveToken",
      "outputs": [],
      "stateMutability": "nonpayable",
      "type": "function"
    },
    {
      "inputs": [],
      "name": "collateralToken",
      "outputs": [
        {
          "internalType": "contract IERC20",
          "name": "",
          "type": "address"
        }
      ],
      "stateMutability": "view",
      "type": "function"
    },
    {
      "inputs": [
        {
          "internalType": "uint256",
          "name": "amount",
          "type": "uint256"
        }
      ],
      "name": "convertFrom18",
      "outputs": [
        {
          "internalType": "uint256",
          "name": "",
          "type": "uint256"
        }
      ],
      "stateMutability": "pure",
      "type": "function"
    },
    {
      "inputs": [],
      "name": "feeCollector",
      "outputs": [
        {
          "internalType": "address",
          "name": "",
          "type": "address"
        }
      ],
      "stateMutability": "view",
      "type": "function"
    },
    {
      "inputs": [
        {
          "internalType": "address",
          "name": "_addressListFactory",
          "type": "address"
        }
      ],
      "name": "init",
      "outputs": [],
      "stateMutability": "nonpayable",
      "type": "function"
    },
    {
      "inputs": [
        {
          "internalType": "address",
          "name": "_token",
          "type": "address"
        }
      ],
      "name": "isReservedToken",
      "outputs": [
        {
          "internalType": "bool",
          "name": "",
          "type": "bool"
        }
      ],
      "stateMutability": "view",
      "type": "function"
    },
    {
      "inputs": [],
      "name": "keepers",
      "outputs": [
        {
          "internalType": "contract IAddressList",
          "name": "",
          "type": "address"
        }
      ],
      "stateMutability": "view",
      "type": "function"
    },
    {
      "inputs": [
        {
          "internalType": "address",
          "name": "_newStrategy",
          "type": "address"
        }
      ],
      "name": "migrate",
      "outputs": [],
      "stateMutability": "nonpayable",
      "type": "function"
    },
    {
      "inputs": [],
      "name": "pool",
      "outputs": [
        {
          "internalType": "address",
          "name": "",
          "type": "address"
        }
      ],
      "stateMutability": "view",
      "type": "function"
    },
    {
      "inputs": [],
      "name": "rebalance",
      "outputs": [],
      "stateMutability": "nonpayable",
      "type": "function"
    },
    {
      "inputs": [],
      "name": "receiptToken",
      "outputs": [
        {
          "internalType": "address",
          "name": "",
          "type": "address"
        }
      ],
      "stateMutability": "view",
      "type": "function"
    },
    {
      "inputs": [
        {
          "internalType": "address",
          "name": "_keeperAddress",
          "type": "address"
        }
      ],
      "name": "removeKeeper",
      "outputs": [],
      "stateMutability": "nonpayable",
      "type": "function"
    },
    {
      "inputs": [],
      "name": "rewardToken",
      "outputs": [
        {
          "internalType": "address",
          "name": "",
          "type": "address"
        }
      ],
      "stateMutability": "view",
      "type": "function"
    },
    {
      "inputs": [],
      "name": "setupOracles",
      "outputs": [],
      "stateMutability": "nonpayable",
      "type": "function"
    },
    {
      "inputs": [],
      "name": "swapManager",
      "outputs": [
        {
          "internalType": "contract ISwapManager",
          "name": "",
          "type": "address"
        }
      ],
      "stateMutability": "view",
      "type": "function"
    },
    {
      "inputs": [
        {
          "internalType": "address",
          "name": "_fromToken",
          "type": "address"
        }
      ],
      "name": "sweepERC20",
      "outputs": [],
      "stateMutability": "nonpayable",
      "type": "function"
    },
    {
      "inputs": [],
      "name": "token",
      "outputs": [
        {
          "internalType": "address",
          "name": "",
          "type": "address"
        }
      ],
      "stateMutability": "view",
      "type": "function"
    },
    {
      "inputs": [],
      "name": "totalValue",
      "outputs": [
        {
          "internalType": "uint256",
          "name": "",
          "type": "uint256"
        }
      ],
      "stateMutability": "view",
      "type": "function"
    },
    {
      "inputs": [
        {
          "internalType": "address",
          "name": "_newAddressesProvider",
          "type": "address"
        }
      ],
      "name": "updateAddressesProvider",
      "outputs": [],
      "stateMutability": "nonpayable",
      "type": "function"
    },
    {
      "inputs": [
        {
          "internalType": "address",
          "name": "_feeCollector",
          "type": "address"
        }
      ],
      "name": "updateFeeCollector",
      "outputs": [],
      "stateMutability": "nonpayable",
      "type": "function"
    },
    {
      "inputs": [
        {
          "internalType": "address",
          "name": "_swapManager",
          "type": "address"
        }
      ],
      "name": "updateSwapManager",
      "outputs": [],
      "stateMutability": "nonpayable",
      "type": "function"
    },
    {
      "inputs": [
        {
          "internalType": "uint256",
          "name": "_amount",
          "type": "uint256"
        }
      ],
      "name": "withdraw",
      "outputs": [],
      "stateMutability": "nonpayable",
      "type": "function"
    }
  ],
  "transactionHash": "0x71a260d4b326b944fc4238bd454801c9de32182c0b233e632328fc8fd4cabaf9",
  "args": [
    "0xD66FDcA0b120427C90C0318a454b37B88a3Aa40F",
    "0xefe48370DB8f8Ee343f4f24Ee0B09cC4A8FC3D76"
  ],
  "solcInputHash": "c913a96689eb2d738f3c473cb5b2163b",
  "bytecode": "0x610100604052600680546001600160a01b031990811673d05e3e715d945b59290df0ae8ef85c1bdb6847441790915560078054909116730d500b1d8e8ef31e21c99d1db9a6444d3adf12701790553480156200005a57600080fd5b5060405162003ada38038062003ada8339810160408190526200007d91620004fa565b81817328424507fefb6f7f8e9d3860f56504e4e5f5f3908282826001600160a01b038316620000f35760405162461bcd60e51b815260206004820152601460248201527f706f6f6c2d616464726573732d69732d7a65726f00000000000000000000000060448201526064015b60405180910390fd5b6001600160a01b038216620001405760405162461bcd60e51b8152602060048201526012602482015271736d2d616464726573732d69732d7a65726f60701b6044820152606401620000ea565b600280546001600160a01b0319166001600160a01b0384811691909117909155606084901b6001600160601b03191660c05260408051637e062a3560e11b815290519185169163fc0c546a91600480820192602092909190829003018186803b158015620001ad57600080fd5b505afa158015620001c2573d6000803e3d6000fd5b505050506040513d601f19601f82011682018060405250810190620001e89190620004d4565b6001600160601b0319606091821b811660805291901b1660a05250506001600160a01b0381166200025c5760405162461bcd60e51b815260206004820152601660248201527f61546f6b656e2d616464726573732d69732d7a65726f000000000000000000006044820152606401620000ea565b806001600160a01b031660e0816001600160a01b031660601b81525050806001600160a01b03166375d264136040518163ffffffff1660e01b815260040160206040518083038186803b158015620002b357600080fd5b505afa925050508015620002e6575060408051601f3d908101601f19168201909252620002e391810190620004d4565b60015b620002f15762000388565b50806001600160a01b03166375d264136040518163ffffffff1660e01b815260040160206040518083038186803b1580156200032c57600080fd5b505afa15801562000341573d6000803e3d6000fd5b505050506040513d601f19601f82011682018060405250810190620003679190620004d4565b600580546001600160a01b0319166001600160a01b03929092169190911790555b600660009054906101000a90046001600160a01b03166001600160a01b0316630261bf8b6040518163ffffffff1660e01b815260040160206040518083038186803b158015620003d757600080fd5b505afa158015620003ec573d6000803e3d6000fd5b505050506040513d601f19601f82011682018060405250810190620004129190620004d4565b600380546001600160a01b0319166001600160a01b039283161790556006546040516321f8a72160e01b8152600160f81b60048201529116906321f8a7219060240160206040518083038186803b1580156200046d57600080fd5b505afa15801562000482573d6000803e3d6000fd5b505050506040513d601f19601f82011682018060405250810190620004a89190620004d4565b600480546001600160a01b0319166001600160a01b039290921691909117905550620005519350505050565b600060208284031215620004e6578081fd5b8151620004f38162000538565b9392505050565b600080604083850312156200050d578081fd5b82516200051a8162000538565b60208401519092506200052d8162000538565b809150509250929050565b6001600160a01b03811681146200054e57600080fd5b50565b60805160601c60a05160601c60c05160601c60e05160601c6134476200069360003960008181610d9c015281816117a10152818161184e015281816119f3015281816122df01528181612472015281816125ce015261287301526000818161021e0152818161049701528181610626015281816108a001528181610b9e01528181610c1a01528181610df1015281816110880152818161125a01528181611323015281816115b201528181611d2801528181611d7301528181611e100152611f830152600081816104050152818161044d0152818161143701526114bb01526000818161036901528181611505015281816115890152818161194701528181611b7f01528181611ecd01528181611f6101528181611fb9015281816123740152818161243601528181612523015281816126940152612ad401526134476000f3fe608060405234801561001057600080fd5b50600436106101cf5760003560e01c806399b71d5c11610104578063d4c3eea0116100a2578063f7c618c111610071578063f7c618c114610427578063fb589de21461043a578063fc0c546a1461044b578063ffa1ad7414610471576101cf565b8063d4c3eea0146103c4578063e00af4a7146103da578063e9d337b8146103ed578063ec78e83214610400576101cf565b8063b2016bd4116100de578063b2016bd414610364578063c415b95c1461038b578063ce5494bb1461039e578063d2c35ce8146103b1576101cf565b806399b71d5c14610316578063a3f4df7e1461031e578063aa1018861461035c576101cf565b8063440d7248116101715780635f9d4d2e1161014b5780635f9d4d2e146102d5578063709d039d146102e85780637d7c2a1c146102fb578063951dc22c14610303576101cf565b8063440d72481461028c5780634c36fad7146102af5780635f2475ca146102c2576101cf565b806319ab453c116101ad57806319ab453c14610240578063219a9822146102535780632e1a7d4d146102665780634032b72b14610279576101cf565b806308bfa40a146101d457806314ae9f2e1461020457806316f0115b14610219575b600080fd5b6006546101e7906001600160a01b031681565b6040516001600160a01b0390911681526020015b60405180910390f35b610217610212366004612f19565b610495565b005b6101e77f000000000000000000000000000000000000000000000000000000000000000081565b61021761024e366004612f19565b610624565b610217610261366004612f19565b61089e565b6102176102743660046130b8565b610b9b565b610217610287366004612f19565b610c18565b61029f61029a366004612f19565b610d98565b60405190151581526020016101fb565b6102176102bd366004612f19565b610def565b6005546101e7906001600160a01b031681565b6004546101e7906001600160a01b031681565b6002546101e7906001600160a01b031681565b610217610fa2565b6000546101e7906001600160a01b031681565b6102176110f1565b61034f60405180604001604052806012815260200171082c2ecca5aa6e8e4c2e8cacef25aae8aa8960731b81525081565b6040516101fb919061322b565b6102176111ad565b6101e77f000000000000000000000000000000000000000000000000000000000000000081565b6001546101e7906001600160a01b031681565b6102176103ac366004612f19565b611257565b6102176103bf366004612f19565b6115b0565b6103cc611779565b6040519081526020016101fb565b6102176103e8366004612f19565b611a88565b6003546101e7906001600160a01b031681565b6101e77f000000000000000000000000000000000000000000000000000000000000000081565b6007546101e7906001600160a01b031681565b6103cc6104483660046130b8565b90565b7f00000000000000000000000000000000000000000000000000000000000000006101e7565b61034f60405180604001604052806005815260200164332e302e3760d81b81525081565b7f00000000000000000000000000000000000000000000000000000000000000006001600160a01b0316630c340a246040518163ffffffff1660e01b815260040160206040518083038186803b1580156104ee57600080fd5b505afa158015610502573d6000803e3d6000fd5b505050506040513d601f19601f820116820180604052508101906105269190612f35565b6001600160a01b0316336001600160a01b03161461055f5760405162461bcd60e51b81526004016105569061328e565b60405180910390fd5b600054604051631484968760e11b81526001600160a01b038381166004830152909116906329092d0e90602401602060405180830381600087803b1580156105a657600080fd5b505af11580156105ba573d6000803e3d6000fd5b505050506040513d601f19601f820116820180604052508101906105de9190613098565b6106215760405162461bcd60e51b81526020600482015260146024820152731c995b5bdd994b5ad9595c195c8b59985a5b195960621b6044820152606401610556565b50565b7f00000000000000000000000000000000000000000000000000000000000000006001600160a01b0316630c340a246040518163ffffffff1660e01b815260040160206040518083038186803b15801561067d57600080fd5b505afa158015610691573d6000803e3d6000fd5b505050506040513d601f19601f820116820180604052508101906106b59190612f35565b6001600160a01b0316336001600160a01b0316146106e55760405162461bcd60e51b81526004016105569061328e565b6000546001600160a01b03161561073e5760405162461bcd60e51b815260206004820152601b60248201527f6b65657065722d6c6973742d616c72656164792d6372656174656400000000006044820152606401610556565b6000819050806001600160a01b0316630fab4d256040518163ffffffff1660e01b8152600401602060405180830381600087803b15801561077e57600080fd5b505af1158015610792573d6000803e3d6000fd5b505050506040513d601f19601f820116820180604052508101906107b69190612f35565b600080546001600160a01b0319166001600160a01b03929092169182179055630a3b0a4f6107e13390565b6040516001600160e01b031960e084901b1681526001600160a01b039091166004820152602401602060405180830381600087803b15801561082257600080fd5b505af1158015610836573d6000803e3d6000fd5b505050506040513d601f19601f8201168201806040525081019061085a9190613098565b61089a5760405162461bcd60e51b81526020600482015260116024820152701859190b5ad9595c195c8b59985a5b1959607a1b6044820152606401610556565b5050565b7f00000000000000000000000000000000000000000000000000000000000000006001600160a01b0316630c340a246040518163ffffffff1660e01b815260040160206040518083038186803b1580156108f757600080fd5b505afa15801561090b573d6000803e3d6000fd5b505050506040513d601f19601f8201168201806040525081019061092f9190612f35565b6001600160a01b0316336001600160a01b03161461095f5760405162461bcd60e51b81526004016105569061328e565b6001600160a01b0381166109b55760405162461bcd60e51b815260206004820152601860248201527f70726f76696465722d616464726573732d69732d7a65726f00000000000000006044820152606401610556565b6006546001600160a01b0382811691161415610a135760405162461bcd60e51b815260206004820152601760248201527f73616d652d6164647265737365732d70726f76696465720000000000000000006044820152606401610556565b600654604080516001600160a01b03928316815291831660208301527fbea7427e7cdf11a91902e5dff8bf8ac6fe4861aa0940763e8fd78bb6f45798de910160405180910390a1600680546001600160a01b0319166001600160a01b03831690811790915560408051630261bf8b60e01b81529051630261bf8b91600480820192602092909190829003018186803b158015610aae57600080fd5b505afa158015610ac2573d6000803e3d6000fd5b505050506040513d601f19601f82011682018060405250810190610ae69190612f35565b600380546001600160a01b0319166001600160a01b039283161790556006546040516321f8a72160e01b8152600160f81b60048201529116906321f8a7219060240160206040518083038186803b158015610b4057600080fd5b505afa158015610b54573d6000803e3d6000fd5b505050506040513d601f19601f82011682018060405250810190610b789190612f35565b600480546001600160a01b0319166001600160a01b039290921691909117905550565b337f00000000000000000000000000000000000000000000000000000000000000006001600160a01b031614610c0f5760405162461bcd60e51b815260206004820152601960248201527818d85b1b195c8b5a5ccb5b9bdd0b5d995cdc195c8b5c1bdbdb603a1b6044820152606401610556565b61062181611d23565b7f00000000000000000000000000000000000000000000000000000000000000006001600160a01b0316630c340a246040518163ffffffff1660e01b815260040160206040518083038186803b158015610c7157600080fd5b505afa158015610c85573d6000803e3d6000fd5b505050506040513d601f19601f82011682018060405250810190610ca99190612f35565b6001600160a01b0316336001600160a01b031614610cd95760405162461bcd60e51b81526004016105569061328e565b600054604051630a3b0a4f60e01b81526001600160a01b03838116600483015290911690630a3b0a4f90602401602060405180830381600087803b158015610d2057600080fd5b505af1158015610d34573d6000803e3d6000fd5b505050506040513d601f19601f82011682018060405250810190610d589190613098565b6106215760405162461bcd60e51b81526020600482015260116024820152701859190b5ad9595c195c8b59985a5b1959607a1b6044820152606401610556565b60007f00000000000000000000000000000000000000000000000000000000000000006001600160a01b0316826001600160a01b03161480610de757506007546001600160a01b038381169116145b90505b919050565b7f00000000000000000000000000000000000000000000000000000000000000006001600160a01b0316630c340a246040518163ffffffff1660e01b815260040160206040518083038186803b158015610e4857600080fd5b505afa158015610e5c573d6000803e3d6000fd5b505050506040513d601f19601f82011682018060405250810190610e809190612f35565b6001600160a01b0316336001600160a01b031614610eb05760405162461bcd60e51b81526004016105569061328e565b6001600160a01b038116610efb5760405162461bcd60e51b8152602060048201526012602482015271736d2d616464726573732d69732d7a65726f60701b6044820152606401610556565b6002546001600160a01b0382811691161415610f465760405162461bcd60e51b815260206004820152600a602482015269736d2d69732d73616d6560b01b6044820152606401610556565b6002546040516001600160a01b038084169216907f2d19927e7cac08ceb98b38898a4fdff6da6a27295b9a2d62fe250408ebe044e190600090a3600280546001600160a01b0319166001600160a01b0392909216919091179055565b6000546001600160a01b0316635dbe47e8336040516001600160e01b031960e084901b1681526001600160a01b03909116600482015260240160206040518083038186803b158015610ff357600080fd5b505afa158015611007573d6000803e3d6000fd5b505050506040513d601f19601f8201168201806040525081019061102b9190613098565b6110475760405162461bcd60e51b81526004016105569061325e565b6000806000611054611d4d565b6040516302df682360e11b815260048101849052602481018390526044810182905292955090935091506001600160a01b037f000000000000000000000000000000000000000000000000000000000000000016906305bed04690606401600060405180830381600087803b1580156110cc57600080fd5b505af11580156110e0573d6000803e3d6000fd5b505050506110ec611eb4565b505050565b6000546001600160a01b0316635dbe47e8336040516001600160e01b031960e084901b1681526001600160a01b03909116600482015260240160206040518083038186803b15801561114257600080fd5b505afa158015611156573d6000803e3d6000fd5b505050506040513d601f19601f8201168201806040525081019061117a9190613098565b6111965760405162461bcd60e51b81526004016105569061325e565b6111a06000611f54565b6111ab600019611f54565b565b6000546001600160a01b0316635dbe47e8336040516001600160e01b031960e084901b1681526001600160a01b03909116600482015260240160206040518083038186803b1580156111fe57600080fd5b505afa158015611212573d6000803e3d6000fd5b505050506040513d601f19601f820116820180604052508101906112369190613098565b6112525760405162461bcd60e51b81526004016105569061325e565b6111ab565b337f00000000000000000000000000000000000000000000000000000000000000006001600160a01b0316146112cb5760405162461bcd60e51b815260206004820152601960248201527818d85b1b195c8b5a5ccb5b9bdd0b5d995cdc195c8b5c1bdbdb603a1b6044820152606401610556565b6001600160a01b0381166113215760405162461bcd60e51b815260206004820152601c60248201527f6e65772d73747261746567792d616464726573732d69732d7a65726f000000006044820152606401610556565b7f00000000000000000000000000000000000000000000000000000000000000006001600160a01b0316816001600160a01b03166316f0115b6040518163ffffffff1660e01b815260040160206040518083038186803b15801561138457600080fd5b505afa158015611398573d6000803e3d6000fd5b505050506040513d601f19601f820116820180604052508101906113bc9190612f35565b6001600160a01b03161461140b5760405162461bcd60e51b81526020600482015260166024820152756e6f742d76616c69642d6e65772d737472617465677960501b6044820152606401610556565b61141481612115565b6040516370a0823160e01b81523060048201526114e29082906001600160a01b037f000000000000000000000000000000000000000000000000000000000000000016906370a082319060240160206040518083038186803b15801561147957600080fd5b505afa15801561148d573d6000803e3d6000fd5b505050506040513d601f19601f820116820180604052508101906114b191906130d0565b6001600160a01b037f0000000000000000000000000000000000000000000000000000000000000000169190612141565b6040516370a0823160e01b81523060048201526106219082906001600160a01b037f000000000000000000000000000000000000000000000000000000000000000016906370a082319060240160206040518083038186803b15801561154757600080fd5b505afa15801561155b573d6000803e3d6000fd5b505050506040513d601f19601f8201168201806040525081019061157f91906130d0565b6001600160a01b037f0000000000000000000000000000000000000000000000000000000000000000169190612141565b7f00000000000000000000000000000000000000000000000000000000000000006001600160a01b0316630c340a246040518163ffffffff1660e01b815260040160206040518083038186803b15801561160957600080fd5b505afa15801561161d573d6000803e3d6000fd5b505050506040513d601f19601f820116820180604052508101906116419190612f35565b6001600160a01b0316336001600160a01b0316146116715760405162461bcd60e51b81526004016105569061328e565b6001600160a01b0381166116c75760405162461bcd60e51b815260206004820152601d60248201527f6665652d636f6c6c6563746f722d616464726573732d69732d7a65726f0000006044820152606401610556565b6001546001600160a01b038281169116141561171d5760405162461bcd60e51b81526020600482015260156024820152746665652d636f6c6c6563746f722d69732d73616d6560581b6044820152606401610556565b6001546040516001600160a01b038084169216907f0f06062680f9bd68e786e9980d9bb03d73d5620fc3b345e417b6eacb310b970690600090a3600180546001600160a01b0319166001600160a01b0392909216919091179055565b6005546000906001600160a01b031661182a576040516370a0823160e01b81523060048201527f00000000000000000000000000000000000000000000000000000000000000006001600160a01b0316906370a082319060240160206040518083038186803b1580156117eb57600080fd5b505afa1580156117ff573d6000803e3d6000fd5b505050506040513d601f19601f8201168201806040525081019061182391906130d0565b9050610448565b604080516001808252818301909252600091602080830190803683370190505090507f00000000000000000000000000000000000000000000000000000000000000008160008151811061188e57634e487b7160e01b600052603260045260246000fd5b6001600160a01b0392831660209182029290920101526005546040516345accf9360e11b81526000929190911690638b599f26906118d290859030906004016131ce565b60206040518083038186803b1580156118ea57600080fd5b505afa1580156118fe573d6000803e3d6000fd5b505050506040513d601f19601f8201168201806040525081019061192291906130d0565b600254600754604051631d1f307960e31b81526001600160a01b0391821660048201527f0000000000000000000000000000000000000000000000000000000000000000821660248201526044810184905292935060009291169063e8f983c89060640160006040518083038186803b15801561199e57600080fd5b505afa1580156119b2573d6000803e3d6000fd5b505050506040513d6000823e601f3d908101601f191682016040526119da9190810190612f51565b506040516370a0823160e01b81523060048201529092507f00000000000000000000000000000000000000000000000000000000000000006001600160a01b031691506370a082319060240160206040518083038186803b158015611a3e57600080fd5b505afa158015611a52573d6000803e3d6000fd5b505050506040513d601f19601f82011682018060405250810190611a7691906130d0565b611a809082613356565b935050505090565b6000546001600160a01b0316635dbe47e8336040516001600160e01b031960e084901b1681526001600160a01b03909116600482015260240160206040518083038186803b158015611ad957600080fd5b505afa158015611aed573d6000803e3d6000fd5b505050506040513d601f19601f82011682018060405250810190611b119190613098565b611b2d5760405162461bcd60e51b81526004016105569061325e565b6001546001600160a01b0316611b7d5760405162461bcd60e51b81526020600482015260156024820152741999594b58dbdb1b1958dd1bdc8b5b9bdd0b5cd95d605a1b6044820152606401610556565b7f00000000000000000000000000000000000000000000000000000000000000006001600160a01b0316816001600160a01b03161415611bff5760405162461bcd60e51b815260206004820152601f60248201527f6e6f742d616c6c6f7765642d746f2d73776565702d636f6c6c61746572616c006044820152606401610556565b611c0881610d98565b15611c4c5760405162461bcd60e51b815260206004820152601460248201527306e6f742d616c6c6f7765642d746f2d73776565760641b6044820152606401610556565b6001600160a01b03811673eeeeeeeeeeeeeeeeeeeeeeeeeeeeeeeeeeeeeeee1415611c8c57600154611c87906001600160a01b0316476121a4565b610621565b6040516370a0823160e01b81523060048201526000906001600160a01b038316906370a082319060240160206040518083038186803b158015611cce57600080fd5b505afa158015611ce2573d6000803e3d6000fd5b505050506040513d601f19601f82011682018060405250810190611d0691906130d0565b60015490915061089a906001600160a01b03848116911683612141565b61089a7f0000000000000000000000000000000000000000000000000000000000000000826122bd565b604051636a9eee1360e11b81523060048201526000908190819081906001600160a01b037f0000000000000000000000000000000000000000000000000000000000000000169063d53ddc269060240160206040518083038186803b158015611db557600080fd5b505afa158015611dc9573d6000803e3d6000fd5b505050506040513d601f19601f82011682018060405250810190611ded91906130d0565b604051639f2b283360e01b81523060048201529091506000906001600160a01b037f00000000000000000000000000000000000000000000000000000000000000001690639f2b28339060240160206040518083038186803b158015611e5257600080fd5b505afa158015611e66573d6000803e3d6000fd5b505050506040513d601f19601f82011682018060405250810190611e8a91906130d0565b9050611e958161242f565b9450611ea0816125ac565b9350611eab82612662565b92505050909192565b6040516370a0823160e01b81523060048201526111ab907f00000000000000000000000000000000000000000000000000000000000000006001600160a01b0316906370a082319060240160206040518083038186803b158015611f1757600080fd5b505afa158015611f2b573d6000803e3d6000fd5b505050506040513d601f19601f82011682018060405250810190611f4f91906130d0565b612674565b611fa86001600160a01b037f0000000000000000000000000000000000000000000000000000000000000000167f000000000000000000000000000000000000000000000000000000000000000083612710565b600354611fe2906001600160a01b037f00000000000000000000000000000000000000000000000000000000000000008116911683612710565b60005b600260009054906101000a90046001600160a01b03166001600160a01b031663c2fba6676040518163ffffffff1660e01b815260040160206040518083038186803b15801561203357600080fd5b505afa158015612047573d6000803e3d6000fd5b505050506040513d601f19601f8201168201806040525081019061206b91906130d0565b81101561089a57600254604051636e74a6f760e01b815260048101839052612103916001600160a01b031690636e74a6f79060240160206040518083038186803b1580156120b857600080fd5b505afa1580156120cc573d6000803e3d6000fd5b505050506040513d601f19601f820116820180604052508101906120f09190612f35565b6007546001600160a01b03169084612710565b8061210d816133b5565b915050611fe5565b600061211f612834565b9050612129612834565b1561089a5760075461089a906001600160a01b031683835b6040516001600160a01b0383166024820152604481018290526110ec90849063a9059cbb60e01b906064015b60408051601f198184030181529190526020810180516001600160e01b03166001600160e01b0319909316929092179091526129ca565b804710156121f45760405162461bcd60e51b815260206004820152601d60248201527f416464726573733a20696e73756666696369656e742062616c616e63650000006044820152606401610556565b6000826001600160a01b03168260405160006040518083038185875af1925050503d8060008114612241576040519150601f19603f3d011682016040523d82523d6000602084013e612246565b606091505b50509050806110ec5760405162461bcd60e51b815260206004820152603a60248201527f416464726573733a20756e61626c6520746f2073656e642076616c75652c207260448201527f6563697069656e74206d617920686176652072657665727465640000000000006064820152608401610556565b6040516370a0823160e01b815230600482015260009081906001600160a01b037f000000000000000000000000000000000000000000000000000000000000000016906370a082319060240160206040518083038186803b15801561232157600080fd5b505afa158015612335573d6000803e3d6000fd5b505050506040513d601f19601f8201168201806040525081019061235991906130d0565b600480546040516335ea6a7560e01b81526001600160a01b037f00000000000000000000000000000000000000000000000000000000000000008116938201939093529293506000929116906335ea6a75906024016101406040518083038186803b1580156123c757600080fd5b505afa1580156123db573d6000803e3d6000fd5b505050506040513d601f19601f820116820180604052508101906123ff91906130e8565b5050505050505050509050612426856124218661241c8686612a9c565b612a9c565b612ab2565b95945050505050565b600061245a7f0000000000000000000000000000000000000000000000000000000000000000612bb5565b6040516370a0823160e01b81523060048201526000907f00000000000000000000000000000000000000000000000000000000000000006001600160a01b0316906370a082319060240160206040518083038186803b1580156124bc57600080fd5b505afa1580156124d0573d6000803e3d6000fd5b505050506040513d601f19601f820116820180604052508101906124f491906130d0565b90508281111561250e5761250c30612421858461336e565b505b6040516370a0823160e01b81523060048201527f00000000000000000000000000000000000000000000000000000000000000006001600160a01b0316906370a082319060240160206040518083038186803b15801561256d57600080fd5b505afa158015612581573d6000803e3d6000fd5b505050506040513d601f19601f820116820180604052508101906125a591906130d0565b9392505050565b6040516370a0823160e01b815230600482015260009081906001600160a01b037f000000000000000000000000000000000000000000000000000000000000000016906370a082319060240160206040518083038186803b15801561261057600080fd5b505afa158015612624573d6000803e3d6000fd5b505050506040513d601f19601f8201168201806040525081019061264891906130d0565b90508281101561265c576125a5818461336e565b50919050565b60008115610dea57610de730836122bd565b80156106215760035460405163e8eda9df60e01b81526001600160a01b037f00000000000000000000000000000000000000000000000000000000000000008116600483015260248201849052306044830152600060648301529091169063e8eda9df90608401600060405180830381600087803b1580156126f557600080fd5b505af1158015612709573d6000803e3d6000fd5b5050505050565b8015806127995750604051636eb1769f60e11b81523060048201526001600160a01b03838116602483015284169063dd62ed3e9060440160206040518083038186803b15801561275f57600080fd5b505afa158015612773573d6000803e3d6000fd5b505050506040513d601f19601f8201168201806040525081019061279791906130d0565b155b6128045760405162461bcd60e51b815260206004820152603660248201527f5361666545524332303a20617070726f76652066726f6d206e6f6e2d7a65726f60448201527520746f206e6f6e2d7a65726f20616c6c6f77616e636560501b6064820152608401610556565b6040516001600160a01b0383166024820152604481018290526110ec90849063095ea7b360e01b9060640161216d565b6005546000906001600160a01b031661284f57506000610448565b604080516001808252818301909252600091602080830190803683370190505090507f0000000000000000000000000000000000000000000000000000000000000000816000815181106128b357634e487b7160e01b600052603260045260246000fd5b6001600160a01b039283166020918202929092010152600554604051633111e7b360e01b8152911690633111e7b3906128f69084906000199030906004016131f8565b602060405180830381600087803b15801561291057600080fd5b505af1158015612924573d6000803e3d6000fd5b505050506040513d601f19601f8201168201806040525081019061294891906130d0565b506007546040516370a0823160e01b81523060048201526001600160a01b03909116906370a082319060240160206040518083038186803b15801561298c57600080fd5b505afa1580156129a0573d6000803e3d6000fd5b505050506040513d601f19601f820116820180604052508101906129c491906130d0565b91505090565b6000612a1f826040518060400160405280602081526020017f5361666545524332303a206c6f772d6c6576656c2063616c6c206661696c6564815250856001600160a01b0316612be09092919063ffffffff16565b8051909150156110ec5780806020019051810190612a3d9190613098565b6110ec5760405162461bcd60e51b815260206004820152602a60248201527f5361666545524332303a204552433230206f7065726174696f6e20646964206e6044820152691bdd081cdd58d8d9595960b21b6064820152608401610556565b6000818310612aab57816125a5565b5090919050565b6000811561265c57600354604051631a4ca37b60e21b81526001600160a01b037f000000000000000000000000000000000000000000000000000000000000000081166004830152602482018590528581166044830152849216906369328dec90606401602060405180830381600087803b158015612b3057600080fd5b505af1158015612b44573d6000803e3d6000fd5b505050506040513d601f19601f82011682018060405250810190612b6891906130d0565b1461265c5760405162461bcd60e51b815260206004820152601f60248201527f77697468647261776e2d616d6f756e742d69732d6e6f742d636f7272656374006044820152606401610556565b6000612bbf612834565b9050801561089a5760075461089a906001600160a01b031683836001612bf7565b6060612bef8484600085612db8565b949350505050565b600254604051631d1f307960e31b81526001600160a01b038681166004830152858116602483015260448201859052600092839283929091169063e8f983c89060640160006040518083038186803b158015612c5257600080fd5b505afa158015612c66573d6000803e3d6000fd5b505050506040513d6000823e601f3d908101601f19168201604052612c8e9190810190612f51565b9250925092508360001415612ca257600193505b8115612daf57600254604051636e74a6f760e01b8152600481018390526001600160a01b0390911690636e74a6f79060240160206040518083038186803b158015612cec57600080fd5b505afa158015612d00573d6000803e3d6000fd5b505050506040513d601f19601f82011682018060405250810190612d249190612f35565b6001600160a01b03166338ed173986868630426040518663ffffffff1660e01b8152600401612d579594939291906132c5565b600060405180830381600087803b158015612d7157600080fd5b505af1158015612d85573d6000803e3d6000fd5b505050506040513d6000823e601f3d908101601f19168201604052612dad9190810190613005565b505b50505050505050565b606082471015612e195760405162461bcd60e51b815260206004820152602660248201527f416464726573733a20696e73756666696369656e742062616c616e636520666f6044820152651c8818d85b1b60d21b6064820152608401610556565b843b612e675760405162461bcd60e51b815260206004820152601d60248201527f416464726573733a2063616c6c20746f206e6f6e2d636f6e74726163740000006044820152606401610556565b600080866001600160a01b03168587604051612e8391906131b2565b60006040518083038185875af1925050503d8060008114612ec0576040519150601f19603f3d011682016040523d82523d6000602084013e612ec5565b606091505b5091509150612ed5828286612ee0565b979650505050505050565b60608315612eef5750816125a5565b825115612eff5782518084602001fd5b8160405162461bcd60e51b8152600401610556919061322b565b600060208284031215612f2a578081fd5b81356125a5816133fc565b600060208284031215612f46578081fd5b81516125a5816133fc565b600080600060608486031215612f65578182fd5b835167ffffffffffffffff811115612f7b578283fd5b8401601f81018613612f8b578283fd5b80516020612fa0612f9b83613332565b613301565b8083825282820191508285018a848660051b8801011115612fbf578788fd5b8795505b84861015612fea578051612fd6816133fc565b835260019590950194918301918301612fc3565b50918801516040909801519199979850909695505050505050565b60006020808385031215613017578182fd5b825167ffffffffffffffff81111561302d578283fd5b8301601f8101851361303d578283fd5b805161304b612f9b82613332565b80828252848201915084840188868560051b870101111561306a578687fd5b8694505b8385101561308c57805183526001949094019391850191850161306e565b50979650505050505050565b6000602082840312156130a9578081fd5b815180151581146125a5578182fd5b6000602082840312156130c9578081fd5b5035919050565b6000602082840312156130e1578081fd5b5051919050565b6000806000806000806000806000806101408b8d031215613107578586fd5b8a51995060208b0151985060408b0151975060608b0151965060808b0151955060a08b0151945060c08b0151935060e08b015192506101008b015191506101208b015164ffffffffff8116811461315c578182fd5b809150509295989b9194979a5092959850565b6000815180845260208085019450808401835b838110156131a75781516001600160a01b031687529582019590820190600101613182565b509495945050505050565b600082516131c4818460208701613385565b9190910192915050565b6000604082526131e1604083018561316f565b905060018060a01b03831660208301529392505050565b60006060825261320b606083018661316f565b6020830194909452506001600160a01b0391909116604090910152919050565b600060208252825180602084015261324a816040850160208701613385565b601f01601f19169190910160400192915050565b60208082526016908201527531b0b63632b916b4b996b737ba16b096b5b2b2b832b960511b604082015260600190565b6020808252601a908201527f63616c6c65722d69732d6e6f742d7468652d676f7665726e6f72000000000000604082015260600190565b600086825285602083015260a060408301526132e460a083018661316f565b6001600160a01b0394909416606083015250608001529392505050565b604051601f8201601f1916810167ffffffffffffffff8111828210171561332a5761332a6133e6565b604052919050565b600067ffffffffffffffff82111561334c5761334c6133e6565b5060051b60200190565b60008219821115613369576133696133d0565b500190565b600082821015613380576133806133d0565b500390565b60005b838110156133a0578181015183820152602001613388565b838111156133af576000848401525b50505050565b60006000198214156133c9576133c96133d0565b5060010190565b634e487b7160e01b600052601160045260246000fd5b634e487b7160e01b600052604160045260246000fd5b6001600160a01b038116811461062157600080fdfea264697066735822122065a9a33245bb3cdbbfbd5c1c102ac6db834bad5d99cb09e1190ced58e37e0b6164736f6c63430008030033",
  "devdoc": {
    "kind": "dev",
    "methods": {
      "addKeeper(address)": {
        "params": {
          "_keeperAddress": "keeper address to add."
        }
      },
      "approveToken()": {
        "details": "Approve all required tokens"
      },
      "convertFrom18(uint256)": {
        "details": "Convert from 18 decimals to token defined decimals. Default no conversion."
      },
      "init(address)": {
        "params": {
          "_addressListFactory": "To support same code in eth side chain, user _addressListFactory as param ethereum- 0xded8217De022706A191eE7Ee0Dc9df1185Fb5dA3 polygon-0xD10D5696A350D65A9AA15FE8B258caB4ab1bF291"
        }
      },
      "migrate(address)": {
        "details": "_beforeMigration hook can be implemented in child strategy to do extra steps.",
        "params": {
          "_newStrategy": "Address of new strategy"
        }
      },
      "rebalance()": {
        "details": "Rebalance profit, loss and investment of this strategy"
      },
      "removeKeeper(address)": {
        "params": {
          "_keeperAddress": "keeper address to remove."
        }
      },
      "sweepERC20(address)": {
        "details": "sweep given token to feeCollector of strategy",
        "params": {
          "_fromToken": "token address to sweep"
        }
      },
      "totalValue()": {
        "details": "aToken and collateral are 1:1"
      },
      "updateAddressesProvider(address)": {
        "details": "We will use new address to fetch lendingPool address and update that too."
      },
      "updateFeeCollector(address)": {
        "params": {
          "_feeCollector": "fee collector address"
        }
      },
      "updateSwapManager(address)": {
        "params": {
          "_swapManager": "swap manager address"
        }
      },
      "withdraw(uint256)": {
        "details": "Withdraw collateral token from lending pool.",
        "params": {
          "_amount": "Amount of collateral token"
        }
      }
    },
    "version": 1
  },
  "userdoc": {
    "kind": "user",
    "methods": {
      "addKeeper(address)": {
        "notice": "Add given address in keepers list."
      },
      "init(address)": {
        "notice": "Create keeper list NOTE: Any function with onlyKeeper modifier will not work until this function is called. NOTE: Due to gas constraint this function cannot be called in constructor."
      },
      "isReservedToken(address)": {
        "notice": "Check whether given token is reserved or not. Reserved tokens are not allowed to sweep."
      },
      "migrate(address)": {
        "notice": "Migrate all asset and vault ownership,if any, to new strategy"
      },
      "removeKeeper(address)": {
        "notice": "Remove given address from keepers list."
      },
      "token()": {
        "notice": "Returns address of token correspond to collateral token"
      },
      "totalValue()": {
        "notice": "Report total value"
      },
      "updateAddressesProvider(address)": {
        "notice": "Update address of Aave LendingPoolAddressesProvider"
      },
      "updateFeeCollector(address)": {
        "notice": "Update fee collector"
      },
      "updateSwapManager(address)": {
        "notice": "Update swap manager address"
      }
    },
    "version": 1
  },
  "storageLayout": {
    "storage": [
      {
        "astId": 9577,
        "contract": "contracts/strategies/aave/AaveStrategyPolygonWETH.sol:AaveStrategyPolygonWETH",
        "label": "keepers",
        "offset": 0,
        "slot": "0",
        "type": "t_contract(IAddressList)3647"
      },
      {
        "astId": 9580,
        "contract": "contracts/strategies/aave/AaveStrategyPolygonWETH.sol:AaveStrategyPolygonWETH",
        "label": "feeCollector",
        "offset": 0,
        "slot": "1",
        "type": "t_address"
      },
      {
        "astId": 9583,
        "contract": "contracts/strategies/aave/AaveStrategyPolygonWETH.sol:AaveStrategyPolygonWETH",
        "label": "swapManager",
        "offset": 0,
        "slot": "2",
        "type": "t_contract(ISwapManager)3950"
      },
      {
        "astId": 11299,
        "contract": "contracts/strategies/aave/AaveStrategyPolygonWETH.sol:AaveStrategyPolygonWETH",
        "label": "aaveLendingPool",
        "offset": 0,
        "slot": "3",
        "type": "t_contract(AaveLendingPool)3406"
      },
      {
        "astId": 11302,
        "contract": "contracts/strategies/aave/AaveStrategyPolygonWETH.sol:AaveStrategyPolygonWETH",
        "label": "aaveProtocolDataProvider",
        "offset": 0,
        "slot": "4",
        "type": "t_contract(AaveProtocolDataProvider)3443"
      },
      {
        "astId": 11305,
        "contract": "contracts/strategies/aave/AaveStrategyPolygonWETH.sol:AaveStrategyPolygonWETH",
        "label": "aaveIncentivesController",
        "offset": 0,
        "slot": "5",
        "type": "t_contract(AaveIncentivesController)3383"
      },
      {
        "astId": 11311,
        "contract": "contracts/strategies/aave/AaveStrategyPolygonWETH.sol:AaveStrategyPolygonWETH",
        "label": "aaveAddressesProvider",
        "offset": 0,
        "slot": "6",
        "type": "t_contract(AaveLendingPoolAddressesProvider)3351"
      },
      {
        "astId": 11314,
        "contract": "contracts/strategies/aave/AaveStrategyPolygonWETH.sol:AaveStrategyPolygonWETH",
        "label": "rewardToken",
        "offset": 0,
        "slot": "7",
        "type": "t_address"
      }
    ],
    "types": {
      "t_address": {
        "encoding": "inplace",
        "label": "address",
        "numberOfBytes": "20"
      },
      "t_contract(AaveIncentivesController)3383": {
        "encoding": "inplace",
        "label": "contract AaveIncentivesController",
        "numberOfBytes": "20"
      },
      "t_contract(AaveLendingPool)3406": {
        "encoding": "inplace",
        "label": "contract AaveLendingPool",
        "numberOfBytes": "20"
      },
      "t_contract(AaveLendingPoolAddressesProvider)3351": {
        "encoding": "inplace",
        "label": "contract AaveLendingPoolAddressesProvider",
        "numberOfBytes": "20"
      },
      "t_contract(AaveProtocolDataProvider)3443": {
        "encoding": "inplace",
        "label": "contract AaveProtocolDataProvider",
        "numberOfBytes": "20"
      },
      "t_contract(IAddressList)3647": {
        "encoding": "inplace",
        "label": "contract IAddressList",
        "numberOfBytes": "20"
      },
      "t_contract(ISwapManager)3950": {
        "encoding": "inplace",
        "label": "contract ISwapManager",
        "numberOfBytes": "20"
      }
    }
  }
}