{
  "address": "0x09c21F950ECB6b714E08D4411764C5036E53EBA9",
  "abi": [
    {
      "inputs": [
        {
          "internalType": "address",
          "name": "_pool",
          "type": "address"
        },
        {
          "internalType": "address",
          "name": "_swapManager",
          "type": "address"
        },
        {
          "internalType": "address",
          "name": "_receiptToken",
          "type": "address"
        },
        {
          "internalType": "string",
          "name": "_name",
          "type": "string"
        }
      ],
      "stateMutability": "nonpayable",
      "type": "constructor"
    },
    {
      "anonymous": false,
      "inputs": [
        {
          "indexed": true,
          "internalType": "address",
          "name": "previousFeeCollector",
          "type": "address"
        },
        {
          "indexed": true,
          "internalType": "address",
          "name": "newFeeCollector",
          "type": "address"
        }
      ],
      "name": "UpdatedFeeCollector",
      "type": "event"
    },
    {
      "anonymous": false,
      "inputs": [
        {
          "indexed": false,
          "internalType": "uint256",
          "name": "oldPeriod",
          "type": "uint256"
        },
        {
          "indexed": false,
          "internalType": "uint256",
          "name": "newPeriod",
          "type": "uint256"
        },
        {
          "indexed": false,
          "internalType": "uint256",
          "name": "oldRouterIdx",
          "type": "uint256"
        },
        {
          "indexed": false,
          "internalType": "uint256",
          "name": "newRouterIdx",
          "type": "uint256"
        }
      ],
      "name": "UpdatedOracleConfig",
      "type": "event"
    },
    {
      "anonymous": false,
      "inputs": [
        {
          "indexed": true,
          "internalType": "address",
          "name": "previousSwapManager",
          "type": "address"
        },
        {
          "indexed": true,
          "internalType": "address",
          "name": "newSwapManager",
          "type": "address"
        }
      ],
      "name": "UpdatedSwapManager",
      "type": "event"
    },
    {
      "anonymous": false,
      "inputs": [
        {
          "indexed": false,
          "internalType": "uint256",
          "name": "oldSwapSlippage",
          "type": "uint256"
        },
        {
          "indexed": false,
          "internalType": "uint256",
          "name": "newSwapSlippage",
          "type": "uint256"
        }
      ],
      "name": "UpdatedSwapSlippage",
      "type": "event"
    },
    {
      "inputs": [],
      "name": "AAVE",
      "outputs": [
        {
          "internalType": "address",
          "name": "",
          "type": "address"
        }
      ],
      "stateMutability": "view",
      "type": "function"
    },
    {
      "inputs": [],
      "name": "NAME",
      "outputs": [
        {
          "internalType": "string",
          "name": "",
          "type": "string"
        }
      ],
      "stateMutability": "view",
      "type": "function"
    },
    {
      "inputs": [],
      "name": "VERSION",
      "outputs": [
        {
          "internalType": "string",
          "name": "",
          "type": "string"
        }
      ],
      "stateMutability": "view",
      "type": "function"
    },
    {
      "inputs": [],
      "name": "aaveAddressesProvider",
      "outputs": [
        {
          "internalType": "contract AaveLendingPoolAddressesProvider",
          "name": "",
          "type": "address"
        }
      ],
      "stateMutability": "view",
      "type": "function"
    },
    {
      "inputs": [],
      "name": "aaveIncentivesController",
      "outputs": [
        {
          "internalType": "contract AaveIncentivesController",
          "name": "",
          "type": "address"
        }
      ],
      "stateMutability": "view",
      "type": "function"
    },
    {
      "inputs": [],
      "name": "aaveLendingPool",
      "outputs": [
        {
          "internalType": "contract AaveLendingPool",
          "name": "",
          "type": "address"
        }
      ],
      "stateMutability": "view",
      "type": "function"
    },
    {
      "inputs": [],
      "name": "aaveProtocolDataProvider",
      "outputs": [
        {
          "internalType": "contract AaveProtocolDataProvider",
          "name": "",
          "type": "address"
        }
      ],
      "stateMutability": "view",
      "type": "function"
    },
    {
      "inputs": [
        {
          "internalType": "address",
          "name": "_keeperAddress",
          "type": "address"
        }
      ],
      "name": "addKeeper",
      "outputs": [],
      "stateMutability": "nonpayable",
      "type": "function"
    },
    {
      "inputs": [],
      "name": "approveToken",
      "outputs": [],
      "stateMutability": "nonpayable",
      "type": "function"
    },
    {
      "inputs": [],
      "name": "canStartCooldown",
      "outputs": [
        {
          "internalType": "bool",
          "name": "",
          "type": "bool"
        }
      ],
      "stateMutability": "view",
      "type": "function"
    },
    {
      "inputs": [],
      "name": "canUnstake",
      "outputs": [
        {
          "internalType": "bool",
          "name": "",
          "type": "bool"
        }
      ],
      "stateMutability": "view",
      "type": "function"
    },
    {
      "inputs": [],
      "name": "collateralToken",
      "outputs": [
        {
          "internalType": "contract IERC20",
          "name": "",
          "type": "address"
        }
      ],
      "stateMutability": "view",
      "type": "function"
    },
    {
      "inputs": [],
      "name": "cooldownData",
      "outputs": [
        {
          "internalType": "uint256",
          "name": "_cooldownStart",
          "type": "uint256"
        },
        {
          "internalType": "uint256",
          "name": "_cooldownEnd",
          "type": "uint256"
        },
        {
          "internalType": "uint256",
          "name": "_unstakeEnd",
          "type": "uint256"
        }
      ],
      "stateMutability": "view",
      "type": "function"
    },
    {
      "inputs": [],
      "name": "feeCollector",
      "outputs": [
        {
          "internalType": "address",
          "name": "",
          "type": "address"
        }
      ],
      "stateMutability": "view",
      "type": "function"
    },
    {
      "inputs": [
        {
          "internalType": "address",
          "name": "_addressListFactory",
          "type": "address"
        }
      ],
      "name": "init",
      "outputs": [],
      "stateMutability": "nonpayable",
      "type": "function"
    },
    {
      "inputs": [
        {
          "internalType": "address",
          "name": "_token",
          "type": "address"
        }
      ],
      "name": "isReservedToken",
      "outputs": [
        {
          "internalType": "bool",
          "name": "",
          "type": "bool"
        }
      ],
      "stateMutability": "view",
      "type": "function"
    },
    {
      "inputs": [],
      "name": "keepers",
      "outputs": [
        {
          "internalType": "contract IAddressList",
          "name": "",
          "type": "address"
        }
      ],
      "stateMutability": "view",
      "type": "function"
    },
    {
      "inputs": [
        {
          "internalType": "address",
          "name": "_newStrategy",
          "type": "address"
        }
      ],
      "name": "migrate",
      "outputs": [],
      "stateMutability": "nonpayable",
      "type": "function"
    },
    {
      "inputs": [],
      "name": "oraclePeriod",
      "outputs": [
        {
          "internalType": "uint256",
          "name": "",
          "type": "uint256"
        }
      ],
      "stateMutability": "view",
      "type": "function"
    },
    {
      "inputs": [],
      "name": "oracleRouterIdx",
      "outputs": [
        {
          "internalType": "uint256",
          "name": "",
          "type": "uint256"
        }
      ],
      "stateMutability": "view",
      "type": "function"
    },
    {
      "inputs": [],
      "name": "pool",
      "outputs": [
        {
          "internalType": "address",
          "name": "",
          "type": "address"
        }
      ],
      "stateMutability": "view",
      "type": "function"
    },
    {
      "inputs": [],
      "name": "rebalance",
      "outputs": [],
      "stateMutability": "nonpayable",
      "type": "function"
    },
    {
      "inputs": [],
      "name": "receiptToken",
      "outputs": [
        {
          "internalType": "address",
          "name": "",
          "type": "address"
        }
      ],
      "stateMutability": "view",
      "type": "function"
    },
    {
      "inputs": [
        {
          "internalType": "address",
          "name": "_keeperAddress",
          "type": "address"
        }
      ],
      "name": "removeKeeper",
      "outputs": [],
      "stateMutability": "nonpayable",
      "type": "function"
    },
    {
      "inputs": [],
      "name": "setupOracles",
      "outputs": [],
      "stateMutability": "nonpayable",
      "type": "function"
    },
    {
      "inputs": [],
      "name": "startCooldown",
      "outputs": [
        {
          "internalType": "bool",
          "name": "",
          "type": "bool"
        }
      ],
      "stateMutability": "nonpayable",
      "type": "function"
    },
    {
      "inputs": [],
      "name": "stkAAVE",
      "outputs": [
        {
          "internalType": "contract StakedAave",
          "name": "",
          "type": "address"
        }
      ],
      "stateMutability": "view",
      "type": "function"
    },
    {
      "inputs": [],
      "name": "swapManager",
      "outputs": [
        {
          "internalType": "contract ISwapManager",
          "name": "",
          "type": "address"
        }
      ],
      "stateMutability": "view",
      "type": "function"
    },
    {
      "inputs": [],
      "name": "swapSlippage",
      "outputs": [
        {
          "internalType": "uint256",
          "name": "",
          "type": "uint256"
        }
      ],
      "stateMutability": "view",
      "type": "function"
    },
    {
      "inputs": [
        {
          "internalType": "address",
          "name": "_fromToken",
          "type": "address"
        }
      ],
      "name": "sweepERC20",
      "outputs": [],
      "stateMutability": "nonpayable",
      "type": "function"
    },
    {
      "inputs": [],
      "name": "token",
      "outputs": [
        {
          "internalType": "address",
          "name": "",
          "type": "address"
        }
      ],
      "stateMutability": "view",
      "type": "function"
    },
    {
      "inputs": [],
      "name": "totalValue",
      "outputs": [
        {
          "internalType": "uint256",
          "name": "",
          "type": "uint256"
        }
      ],
      "stateMutability": "view",
      "type": "function"
    },
    {
      "inputs": [],
      "name": "totalValueCurrent",
      "outputs": [
        {
          "internalType": "uint256",
          "name": "",
          "type": "uint256"
        }
      ],
      "stateMutability": "nonpayable",
      "type": "function"
    },
    {
      "inputs": [],
      "name": "unstakeAave",
      "outputs": [],
      "stateMutability": "nonpayable",
      "type": "function"
    },
    {
      "inputs": [
        {
          "internalType": "address",
          "name": "_feeCollector",
          "type": "address"
        }
      ],
      "name": "updateFeeCollector",
      "outputs": [],
      "stateMutability": "nonpayable",
      "type": "function"
    },
    {
      "inputs": [
        {
          "internalType": "uint256",
          "name": "_newPeriod",
          "type": "uint256"
        },
        {
          "internalType": "uint256",
          "name": "_newRouterIdx",
          "type": "uint256"
        }
      ],
      "name": "updateOracleConfig",
      "outputs": [],
      "stateMutability": "nonpayable",
      "type": "function"
    },
    {
      "inputs": [
        {
          "internalType": "address",
          "name": "_swapManager",
          "type": "address"
        }
      ],
      "name": "updateSwapManager",
      "outputs": [],
      "stateMutability": "nonpayable",
      "type": "function"
    },
    {
      "inputs": [
        {
          "internalType": "uint256",
          "name": "_newSwapSlippage",
          "type": "uint256"
        }
      ],
      "name": "updateSwapSlippage",
      "outputs": [],
      "stateMutability": "nonpayable",
      "type": "function"
    },
    {
      "inputs": [
        {
          "internalType": "uint256",
          "name": "_amount",
          "type": "uint256"
        }
      ],
      "name": "withdraw",
      "outputs": [],
      "stateMutability": "nonpayable",
      "type": "function"
    }
  ],
  "transactionHash": "0x8be9b89bf15f9dab02c2ac888fdef5f5bea849c08e70b39df0b5d946447baa8c",
  "args": [
    "0x9b91ab47cefC35dbe4DDCC7983fFA1fB40795663",
    "0xe382d9f2394A359B01006faa8A1864b8a60d2710",
    "0x6F634c6135D2EBD550000ac92F494F9CB8183dAe",
    "AaveStrategyDPI"
  ],
  "solcInputHash": "9fa3ab347f27460d477bd028befc9c60",
  "bytecode": "0x610140604052610e106004556000600555612710600655600780546001600160a01b03191673b53c1a33016b2dc2ff3653530bff1848a515c8c51790553480156200004957600080fd5b5060405162004f3238038062004f328339810160408190526200006c916200057b565b818484826001600160a01b038316620000cc5760405162461bcd60e51b815260206004820152601460248201527f706f6f6c2d616464726573732d69732d7a65726f00000000000000000000000060448201526064015b60405180910390fd5b6001600160a01b038216620001195760405162461bcd60e51b8152602060048201526012602482015271736d2d616464726573732d69732d7a65726f60701b6044820152606401620000c3565b600380546001600160a01b0319166001600160a01b0384811691909117909155606084901b6001600160601b03191660a05260408051637e062a3560e11b815290519185169163fc0c546a91600480820192602092909190829003018186803b1580156200018657600080fd5b505afa1580156200019b573d6000803e3d6000fd5b505050506040513d601f19601f82011682018060405250810190620001c1919062000555565b60601b6001600160601b031916608052600080546001600160a01b0319166001600160a01b039283161790558316151591506200024390505760405162461bcd60e51b815260206004820152601660248201527f61546f6b656e2d616464726573732d69732d7a65726f000000000000000000006044820152606401620000c3565b806001600160a01b0316610120816001600160a01b031660601b81525050806001600160a01b03166375d264136040518163ffffffff1660e01b815260040160206040518083038186803b1580156200029b57600080fd5b505afa925050508015620002ce575060408051601f3d908101601f19168201909252620002cb9181019062000555565b60015b620002d95762000361565b50806001600160a01b03166375d264136040518163ffffffff1660e01b815260040160206040518083038186803b1580156200031457600080fd5b505afa15801562000329573d6000803e3d6000fd5b505050506040513d601f19601f820116820180604052508101906200034f919062000555565b60601b6001600160601b031916610100525b600760009054906101000a90046001600160a01b03166001600160a01b0316630261bf8b6040518163ffffffff1660e01b815260040160206040518083038186803b158015620003b057600080fd5b505afa158015620003c5573d6000803e3d6000fd5b505050506040513d601f19601f82011682018060405250810190620003eb919062000555565b60601b6001600160601b03191660c0526007546040516321f8a72160e01b8152600160f81b60048201526001600160a01b03909116906321f8a7219060240160206040518083038186803b1580156200044357600080fd5b505afa15801562000458573d6000803e3d6000fd5b505050506040513d601f19601f820116820180604052508101906200047e919062000555565b60601b6001600160601b03191660e052508051620004a4906008906020840190620004af565b5050505050620006ff565b828054620004bd9062000693565b90600052602060002090601f016020900481019282620004e157600085556200052c565b82601f10620004fc57805160ff19168380011785556200052c565b828001600101855582156200052c579182015b828111156200052c5782518255916020019190600101906200050f565b506200053a9291506200053e565b5090565b5b808211156200053a57600081556001016200053f565b60006020828403121562000567578081fd5b81516200057481620006e6565b9392505050565b6000806000806080858703121562000591578283fd5b84516200059e81620006e6565b80945050602080860151620005b381620006e6565b6040870151909450620005c681620006e6565b60608701519093506001600160401b0380821115620005e3578384fd5b818801915088601f830112620005f7578384fd5b8151818111156200060c576200060c620006d0565b604051601f8201601f19908116603f01168101908382118183101715620006375762000637620006d0565b816040528281528b868487010111156200064f578687fd5b8693505b8284101562000672578484018601518185018701529285019262000653565b828411156200068357868684830101525b989b979a50959850505050505050565b600181811c90821680620006a857607f821691505b60208210811415620006ca57634e487b7160e01b600052602260045260246000fd5b50919050565b634e487b7160e01b600052604160045260246000fd5b6001600160a01b0381168114620006fc57600080fd5b50565b60805160601c60a05160601c60c05160601c60e05160601c6101005160601c6101205160601c61469d6200089560003960008181611c3b01528181611da1015281816121a601528181612a5c01528181612db501528181612f46015281816130bc015261364601526000818161039d01528181612a0401528181612bc4015281816135c801526136ab0152600081816103c40152612e54015260008181610500015281816125cb015281816131bc015261346001526000818161028c01528181610575015281816107b301528181610bce01528181610c4a01528181610ddd01528181610fb4015281816112990152818161144c0152818161172f015281816117f801528181611a4d0152818161217d01528181612365015281816124020152612577015260008181610474015281816119a001528181611a2401528181611cf901528181611f250152818161215c015281816124bf01528181612555015281816125a9015281816127f00152818161286f01528181612f0a01528181612fd701528181613018015261315d015261469d6000f3fe608060405234801561001057600080fd5b506004361061023d5760003560e01c8063709d039d1161013b578063ce5494bb116100b8578063e9d337b81161007c578063e9d337b8146104fb578063ec78e83214610522578063f51896f814610535578063fc0c546a1461053d578063ffa1ad741461054e5761023d565b8063ce5494bb146104b2578063d2c35ce8146104c5578063d4c3eea0146104d8578063e00af4a7146104e0578063e645c202146104f35761023d565b8063a923b2a6116100ff578063a923b2a614610454578063aa10188614610467578063b2016bd41461046f578063c415b95c14610496578063cd2d7ebe146104a95761023d565b8063709d039d146104095780637d7c2a1c1461041c578063951dc22c1461042457806399b71d5c14610437578063a3f4df7e1461043f5761023d565b80634032b72b116101c95780635f2475ca1161018d5780635f2475ca146103985780635f9d4d2e146103bf57806360a05a85146103e657806367f5e4b8146103ee578063680ff458146104015761023d565b80634032b72b1461032b57806342189c8f1461033e578063440d72481461034757806348ccda3c1461036a5780634c36fad7146103855761023d565b806319ab453c1161021057806319ab453c146102b65780631aedeabe146102c95780631fc29c01146102e057806321fc6bb0146102f55780632e1a7d4d146103185761023d565b806308bfa40a1461024257806314ae9f2e1461027257806316f0115b14610287578063189adf76146102ae575b600080fd5b600754610255906001600160a01b031681565b6040516001600160a01b0390911681526020015b60405180910390f35b610285610280366004614090565b610573565b005b6102557f000000000000000000000000000000000000000000000000000000000000000081565b610285610702565b6102856102c4366004614090565b6107b1565b6102d260065481565b604051908152602001610269565b61025560008051602061464883398151915281565b6102fd610a2b565b60408051938452602084019290925290820152606001610269565b610285610326366004614229565b610bcb565b610285610339366004614090565b610c48565b6102d260045481565b61035a610355366004614090565b610dc8565b6040519015158152602001610269565b610255737fc66500c84a76ad7e9c93437bfc5ac33e2ddae981565b610285610393366004614090565b610ddb565b6102557f000000000000000000000000000000000000000000000000000000000000000081565b6102557f000000000000000000000000000000000000000000000000000000000000000081565b61035a610f8e565b6102856103fc366004614229565b610fb2565b61035a6110fe565b600354610255906001600160a01b031681565b6102856111b3565b600154610255906001600160a01b031681565b610285611302565b6104476113bc565b60405161026991906143f1565b610285610462366004614259565b61144a565b61028561167f565b6102557f000000000000000000000000000000000000000000000000000000000000000081565b600254610255906001600160a01b031681565b6102d260055481565b6102856104c0366004614090565b61172c565b6102856104d3366004614090565b611a4b565b6102d2611c14565b6102856104ee366004614090565b611e2e565b6102d26120c9565b6102557f000000000000000000000000000000000000000000000000000000000000000081565b600054610255906001600160a01b031681565b61035a6120d3565b6000546001600160a01b0316610255565b6104476040518060400160405280600681526020016519971817191960d11b81525081565b7f00000000000000000000000000000000000000000000000000000000000000006001600160a01b0316630c340a246040518163ffffffff1660e01b815260040160206040518083038186803b1580156105cc57600080fd5b505afa1580156105e0573d6000803e3d6000fd5b505050506040513d601f19601f8201168201806040525081019061060491906140ac565b6001600160a01b0316336001600160a01b03161461063d5760405162461bcd60e51b815260040161063490614454565b60405180910390fd5b600154604051631484968760e11b81526001600160a01b038381166004830152909116906329092d0e90602401602060405180830381600087803b15801561068457600080fd5b505af1158015610698573d6000803e3d6000fd5b505050506040513d601f19601f820116820180604052508101906106bc919061420f565b6106ff5760405162461bcd60e51b81526020600482015260146024820152731c995b5bdd994b5ad9595c195c8b59985a5b195960621b6044820152606401610634565b50565b6001546001600160a01b0316635dbe47e8336040516001600160e01b031960e084901b1681526001600160a01b03909116600482015260240160206040518083038186803b15801561075357600080fd5b505afa158015610767573d6000803e3d6000fd5b505050506040513d601f19601f8201168201806040525081019061078b919061420f565b6107a75760405162461bcd60e51b815260040161063490614424565b6107af6120ef565b565b7f00000000000000000000000000000000000000000000000000000000000000006001600160a01b0316630c340a246040518163ffffffff1660e01b815260040160206040518083038186803b15801561080a57600080fd5b505afa15801561081e573d6000803e3d6000fd5b505050506040513d601f19601f8201168201806040525081019061084291906140ac565b6001600160a01b0316336001600160a01b0316146108725760405162461bcd60e51b815260040161063490614454565b6001546001600160a01b0316156108cb5760405162461bcd60e51b815260206004820152601b60248201527f6b65657065722d6c6973742d616c72656164792d6372656174656400000000006044820152606401610634565b6000819050806001600160a01b0316630fab4d256040518163ffffffff1660e01b8152600401602060405180830381600087803b15801561090b57600080fd5b505af115801561091f573d6000803e3d6000fd5b505050506040513d601f19601f8201168201806040525081019061094391906140ac565b600180546001600160a01b0319166001600160a01b03929092169182179055630a3b0a4f61096e3390565b6040516001600160e01b031960e084901b1681526001600160a01b039091166004820152602401602060405180830381600087803b1580156109af57600080fd5b505af11580156109c3573d6000803e3d6000fd5b505050506040513d601f19601f820116820180604052508101906109e7919061420f565b610a275760405162461bcd60e51b81526020600482015260116024820152701859190b5ad9595c195c8b59985a5b1959607a1b6044820152606401610634565b5050565b60405163091030c360e01b8152306004820152600090819081906000805160206146488339815191529063091030c39060240160206040518083038186803b158015610a7657600080fd5b505afa158015610a8a573d6000803e3d6000fd5b505050506040513d601f19601f82011682018060405250810190610aae9190614241565b92506000805160206146488339815191526001600160a01b03166372b49d636040518163ffffffff1660e01b815260040160206040518083038186803b158015610af757600080fd5b505afa158015610b0b573d6000803e3d6000fd5b505050506040513d601f19601f82011682018060405250810190610b2f9190614241565b610b39908461451c565b91506000805160206146488339815191526001600160a01b031663359c4a966040518163ffffffff1660e01b815260040160206040518083038186803b158015610b8257600080fd5b505afa158015610b96573d6000803e3d6000fd5b505050506040513d601f19601f82011682018060405250810190610bba9190614241565b610bc4908361451c565b9050909192565b337f00000000000000000000000000000000000000000000000000000000000000006001600160a01b031614610c3f5760405162461bcd60e51b815260206004820152601960248201527818d85b1b195c8b5a5ccb5b9bdd0b5d995cdc195c8b5c1bdbdb603a1b6044820152606401610634565b6106ff81612157565b7f00000000000000000000000000000000000000000000000000000000000000006001600160a01b0316630c340a246040518163ffffffff1660e01b815260040160206040518083038186803b158015610ca157600080fd5b505afa158015610cb5573d6000803e3d6000fd5b505050506040513d601f19601f82011682018060405250810190610cd991906140ac565b6001600160a01b0316336001600160a01b031614610d095760405162461bcd60e51b815260040161063490614454565b600154604051630a3b0a4f60e01b81526001600160a01b03838116600483015290911690630a3b0a4f90602401602060405180830381600087803b158015610d5057600080fd5b505af1158015610d64573d6000803e3d6000fd5b505050506040513d601f19601f82011682018060405250810190610d88919061420f565b6106ff5760405162461bcd60e51b81526020600482015260116024820152701859190b5ad9595c195c8b59985a5b1959607a1b6044820152606401610634565b6000610dd3826121a2565b90505b919050565b7f00000000000000000000000000000000000000000000000000000000000000006001600160a01b0316630c340a246040518163ffffffff1660e01b815260040160206040518083038186803b158015610e3457600080fd5b505afa158015610e48573d6000803e3d6000fd5b505050506040513d601f19601f82011682018060405250810190610e6c91906140ac565b6001600160a01b0316336001600160a01b031614610e9c5760405162461bcd60e51b815260040161063490614454565b6001600160a01b038116610ee75760405162461bcd60e51b8152602060048201526012602482015271736d2d616464726573732d69732d7a65726f60701b6044820152606401610634565b6003546001600160a01b0382811691161415610f325760405162461bcd60e51b815260206004820152600a602482015269736d2d69732d73616d6560b01b6044820152606401610634565b6003546040516001600160a01b038084169216907f2d19927e7cac08ceb98b38898a4fdff6da6a27295b9a2d62fe250408ebe044e190600090a3600380546001600160a01b0319166001600160a01b0392909216919091179055565b6000806000610f9b610a2b565b9250509150610faa8282612223565b925050505b90565b7f00000000000000000000000000000000000000000000000000000000000000006001600160a01b0316630c340a246040518163ffffffff1660e01b815260040160206040518083038186803b15801561100b57600080fd5b505afa15801561101f573d6000803e3d6000fd5b505050506040513d601f19601f8201168201806040525081019061104391906140ac565b6001600160a01b0316336001600160a01b0316146110735760405162461bcd60e51b815260040161063490614454565b6127108111156110be5760405162461bcd60e51b8152602060048201526016602482015275696e76616c69642d736c6970706167652d76616c756560501b6044820152606401610634565b60065460408051918252602082018390527ef1c5db862c7598b3b6765552ca951f498611e06412c2d57f8d0b58f82e7f82910160405180910390a1600655565b6001546000906001600160a01b0316635dbe47e8336040516001600160e01b031960e084901b1681526001600160a01b03909116600482015260240160206040518083038186803b15801561115257600080fd5b505afa158015611166573d6000803e3d6000fd5b505050506040513d601f19601f8201168201806040525081019061118a919061420f565b6111a65760405162461bcd60e51b815260040161063490614424565b6111ae6122c0565b905090565b6001546001600160a01b0316635dbe47e8336040516001600160e01b031960e084901b1681526001600160a01b03909116600482015260240160206040518083038186803b15801561120457600080fd5b505afa158015611218573d6000803e3d6000fd5b505050506040513d601f19601f8201168201806040525081019061123c919061420f565b6112585760405162461bcd60e51b815260040161063490614424565b600080600061126561233f565b6040516302df682360e11b815260048101849052602481018390526044810182905292955090935091506001600160a01b037f000000000000000000000000000000000000000000000000000000000000000016906305bed04690606401600060405180830381600087803b1580156112dd57600080fd5b505af11580156112f1573d6000803e3d6000fd5b505050506112fd6124a6565b505050565b6001546001600160a01b0316635dbe47e8336040516001600160e01b031960e084901b1681526001600160a01b03909116600482015260240160206040518083038186803b15801561135357600080fd5b505afa158015611367573d6000803e3d6000fd5b505050506040513d601f19601f8201168201806040525081019061138b919061420f565b6113a75760405162461bcd60e51b815260040161063490614424565b6113b16000612548565b6107af600019612548565b600880546113c9906145b6565b80601f01602080910402602001604051908101604052809291908181526020018280546113f5906145b6565b80156114425780601f1061141757610100808354040283529160200191611442565b820191906000526020600020905b81548152906001019060200180831161142557829003601f168201915b505050505081565b7f00000000000000000000000000000000000000000000000000000000000000006001600160a01b0316630c340a246040518163ffffffff1660e01b815260040160206040518083038186803b1580156114a357600080fd5b505afa1580156114b7573d6000803e3d6000fd5b505050506040513d601f19601f820116820180604052508101906114db91906140ac565b6001600160a01b0316336001600160a01b03161461150b5760405162461bcd60e51b815260040161063490614454565b600360009054906101000a90046001600160a01b03166001600160a01b031663c2fba6676040518163ffffffff1660e01b815260040160206040518083038186803b15801561155957600080fd5b505afa15801561156d573d6000803e3d6000fd5b505050506040513d601f19601f820116820180604052508101906115919190614241565b81106115d65760405162461bcd60e51b81526020600482015260146024820152730d2dcecc2d8d2c85ae4deeae8cae45ad2dcc8caf60631b6044820152606401610634565b816115e15760045491505b603b82116116295760405162461bcd60e51b81526020600482015260156024820152741a5b9d985b1a590b5bdc9858db194b5c195c9a5bd9605a1b6044820152606401610634565b6004546005546040805192835260208301859052820152606081018290527f83bc5ab8030537fcf1d29c2334f6d22c26c82dcbe5ff03923d2cff5c692c0a7f9060800160405180910390a1600491909155600555565b6001546001600160a01b0316635dbe47e8336040516001600160e01b031960e084901b1681526001600160a01b03909116600482015260240160206040518083038186803b1580156116d057600080fd5b505afa1580156116e4573d6000803e3d6000fd5b505050506040513d601f19601f82011682018060405250810190611708919061420f565b6117245760405162461bcd60e51b815260040161063490614424565b6107af61272c565b337f00000000000000000000000000000000000000000000000000000000000000006001600160a01b0316146117a05760405162461bcd60e51b815260206004820152601960248201527818d85b1b195c8b5a5ccb5b9bdd0b5d995cdc195c8b5c1bdbdb603a1b6044820152606401610634565b6001600160a01b0381166117f65760405162461bcd60e51b815260206004820152601c60248201527f6e65772d73747261746567792d616464726573732d69732d7a65726f000000006044820152606401610634565b7f00000000000000000000000000000000000000000000000000000000000000006001600160a01b0316816001600160a01b03166316f0115b6040518163ffffffff1660e01b815260040160206040518083038186803b15801561185957600080fd5b505afa15801561186d573d6000803e3d6000fd5b505050506040513d601f19601f8201168201806040525081019061189191906140ac565b6001600160a01b0316146118e05760405162461bcd60e51b81526020600482015260166024820152756e6f742d76616c69642d6e65772d737472617465677960501b6044820152606401610634565b6118e981612901565b6000546040516370a0823160e01b815230600482015261197d9183916001600160a01b03909116906370a082319060240160206040518083038186803b15801561193257600080fd5b505afa158015611946573d6000803e3d6000fd5b505050506040513d601f19601f8201168201806040525081019061196a9190614241565b6000546001600160a01b0316919061299d565b6040516370a0823160e01b81523060048201526106ff9082906001600160a01b037f000000000000000000000000000000000000000000000000000000000000000016906370a082319060240160206040518083038186803b1580156119e257600080fd5b505afa1580156119f6573d6000803e3d6000fd5b505050506040513d601f19601f82011682018060405250810190611a1a9190614241565b6001600160a01b037f000000000000000000000000000000000000000000000000000000000000000016919061299d565b7f00000000000000000000000000000000000000000000000000000000000000006001600160a01b0316630c340a246040518163ffffffff1660e01b815260040160206040518083038186803b158015611aa457600080fd5b505afa158015611ab8573d6000803e3d6000fd5b505050506040513d601f19601f82011682018060405250810190611adc91906140ac565b6001600160a01b0316336001600160a01b031614611b0c5760405162461bcd60e51b815260040161063490614454565b6001600160a01b038116611b625760405162461bcd60e51b815260206004820152601d60248201527f6665652d636f6c6c6563746f722d616464726573732d69732d7a65726f0000006044820152606401610634565b6002546001600160a01b0382811691161415611bb85760405162461bcd60e51b81526020600482015260156024820152746665652d636f6c6c6563746f722d69732d73616d6560581b6044820152606401610634565b6002546040516001600160a01b038084169216907f0f06062680f9bd68e786e9980d9bb03d73d5620fc3b345e417b6eacb310b970690600090a3600280546001600160a01b0319166001600160a01b0392909216919091179055565b600080611c1f612a00565b905080611cc5576040516370a0823160e01b81523060048201527f00000000000000000000000000000000000000000000000000000000000000006001600160a01b0316906370a082319060240160206040518083038186803b158015611c8557600080fd5b505afa158015611c99573d6000803e3d6000fd5b505050506040513d601f19601f82011682018060405250810190611cbd9190614241565b915050610faf565b600354604051631d1f307960e31b8152737fc66500c84a76ad7e9c93437bfc5ac33e2ddae960048201526001600160a01b037f00000000000000000000000000000000000000000000000000000000000000008116602483015260448201849052600092169063e8f983c89060640160006040518083038186803b158015611d4c57600080fd5b505afa158015611d60573d6000803e3d6000fd5b505050506040513d6000823e601f3d908101601f19168201604052611d8891908101906140c8565b506040516370a0823160e01b81523060048201529092507f00000000000000000000000000000000000000000000000000000000000000006001600160a01b031691506370a082319060240160206040518083038186803b158015611dec57600080fd5b505afa158015611e00573d6000803e3d6000fd5b505050506040513d601f19601f82011682018060405250810190611e249190614241565b610faa908261451c565b6001546001600160a01b0316635dbe47e8336040516001600160e01b031960e084901b1681526001600160a01b03909116600482015260240160206040518083038186803b158015611e7f57600080fd5b505afa158015611e93573d6000803e3d6000fd5b505050506040513d601f19601f82011682018060405250810190611eb7919061420f565b611ed35760405162461bcd60e51b815260040161063490614424565b6002546001600160a01b0316611f235760405162461bcd60e51b81526020600482015260156024820152741999594b58dbdb1b1958dd1bdc8b5b9bdd0b5cd95d605a1b6044820152606401610634565b7f00000000000000000000000000000000000000000000000000000000000000006001600160a01b0316816001600160a01b03161415611fa55760405162461bcd60e51b815260206004820152601f60248201527f6e6f742d616c6c6f7765642d746f2d73776565702d636f6c6c61746572616c006044820152606401610634565b611fae81610dc8565b15611ff25760405162461bcd60e51b815260206004820152601460248201527306e6f742d616c6c6f7765642d746f2d73776565760641b6044820152606401610634565b6001600160a01b03811673eeeeeeeeeeeeeeeeeeeeeeeeeeeeeeeeeeeeeeee14156120325760025461202d906001600160a01b031647612c65565b6106ff565b6040516370a0823160e01b81523060048201526000906001600160a01b038316906370a082319060240160206040518083038186803b15801561207457600080fd5b505afa158015612088573d6000803e3d6000fd5b505050506040513d601f19601f820116820180604052508101906120ac9190614241565b600254909150610a27906001600160a01b0384811691168361299d565b60006111ae611c14565b60008060006120e0610a2b565b9250925050610faa8282612d7e565b6040516301e9a69560e41b8152306004820152600019602482015260008051602061464883398151915290631e9a695090604401600060405180830381600087803b15801561213d57600080fd5b505af1158015612151573d6000803e3d6000fd5b50505050565b610a277f00000000000000000000000000000000000000000000000000000000000000007f000000000000000000000000000000000000000000000000000000000000000083612d93565b60007f00000000000000000000000000000000000000000000000000000000000000006001600160a01b0316826001600160a01b0316148061220057506001600160a01b038216737fc66500c84a76ad7e9c93437bfc5ac33e2ddae9145b80610dd35750506001600160a01b03166000805160206146488339815191521490565b6040516370a0823160e01b8152306004820152600090600080516020614648833981519152906370a082319060240160206040518083038186803b15801561226a57600080fd5b505afa15801561227e573d6000803e3d6000fd5b505050506040513d601f19601f820116820180604052508101906122a29190614241565b158015906122b757508215806122b757508142115b90505b92915050565b60006122ca610f8e565b15612339576000805160206146488339815191526001600160a01b031663787a08a66040518163ffffffff1660e01b8152600401600060405180830381600087803b15801561231857600080fd5b505af115801561232c573d6000803e3d6000fd5b5050505060019050610faf565b50600090565b604051636a9eee1360e11b81523060048201526000908190819081906001600160a01b037f0000000000000000000000000000000000000000000000000000000000000000169063d53ddc269060240160206040518083038186803b1580156123a757600080fd5b505afa1580156123bb573d6000803e3d6000fd5b505050506040513d601f19601f820116820180604052508101906123df9190614241565b604051639f2b283360e01b81523060048201529091506000906001600160a01b037f00000000000000000000000000000000000000000000000000000000000000001690639f2b28339060240160206040518083038186803b15801561244457600080fd5b505afa158015612458573d6000803e3d6000fd5b505050506040513d601f19601f8201168201806040525081019061247c9190614241565b905061248781612f03565b94506124928161309a565b935061249d82613150565b92505050909192565b6040516370a0823160e01b81523060048201526107af907f0000000000000000000000000000000000000000000000000000000000000000906001600160a01b038216906370a082319060240160206040518083038186803b15801561250b57600080fd5b505afa15801561251f573d6000803e3d6000fd5b505050506040513d601f19601f820116820180604052508101906125439190614241565b613183565b61259c6001600160a01b037f0000000000000000000000000000000000000000000000000000000000000000167f00000000000000000000000000000000000000000000000000000000000000008361321c565b6125f06001600160a01b037f0000000000000000000000000000000000000000000000000000000000000000167f00000000000000000000000000000000000000000000000000000000000000008361321c565b60005b600360009054906101000a90046001600160a01b03166001600160a01b031663c2fba6676040518163ffffffff1660e01b815260040160206040518083038186803b15801561264157600080fd5b505afa158015612655573d6000803e3d6000fd5b505050506040513d601f19601f820116820180604052508101906126799190614241565b811015610a2757600354604051636e74a6f760e01b81526004810183905261271a916001600160a01b031690636e74a6f79060240160206040518083038186803b1580156126c657600080fd5b505afa1580156126da573d6000803e3d6000fd5b505050506040513d601f19601f820116820180604052508101906126fe91906140ac565b737fc66500c84a76ad7e9c93437bfc5ac33e2ddae9908461321c565b80612724816145eb565b9150506125f3565b60035460048054600554604051630f30f2d360e21b8152737fc66500c84a76ad7e9c93437bfc5ac33e2ddae99381019390935273c02aaa39b223fe8d0a0e5c4f27ead9083c756cc26024840152604483019190915260648201526001600160a01b0390911690633cc3cb4c90608401602060405180830381600087803b1580156127b557600080fd5b505af11580156127c9573d6000803e3d6000fd5b505050506040513d601f19601f820116820180604052508101906127ed91906140ac565b507f00000000000000000000000000000000000000000000000000000000000000006001600160a01b031673c02aaa39b223fe8d0a0e5c4f27ead9083c756cc2146107af5760035460048054600554604051630f30f2d360e21b8152737fc66500c84a76ad7e9c93437bfc5ac33e2ddae9938101939093526001600160a01b037f0000000000000000000000000000000000000000000000000000000000000000811660248501526044840192909252606483015290911690633cc3cb4c90608401602060405180830381600087803b1580156128c957600080fd5b505af11580156128dd573d6000803e3d6000fd5b505050506040513d601f19601f820116820180604052508101906106ff91906140ac565b6040516370a0823160e01b8152306004820152600090600080516020614648833981519152906370a082319060240160206040518083038186803b15801561294857600080fd5b505afa15801561295c573d6000803e3d6000fd5b505050506040513d601f19601f820116820180604052508101906129809190614241565b90508015610a2757610a2760008051602061464883398151915283835b6040516001600160a01b0383166024820152604481018290526112fd90849063a9059cbb60e01b906064015b60408051601f198184030181529190526020810180516001600160e01b03166001600160e01b031990931692909217909152613340565b60007f00000000000000000000000000000000000000000000000000000000000000006001600160a01b0316612a3857506000610faf565b604080516001808252818301909252600091602080830190803683370190505090507f000000000000000000000000000000000000000000000000000000000000000081600081518110612a9c57634e487b7160e01b600052603260045260246000fd5b6001600160a01b0392909216602092830291909101909101526040516346df7f7160e11b815230600482015260008051602061464883398151915290638dbefee29060240160206040518083038186803b158015612af957600080fd5b505afa158015612b0d573d6000803e3d6000fd5b505050506040513d601f19601f82011682018060405250810190612b319190614241565b6040516370a0823160e01b8152306004820152600080516020614648833981519152906370a082319060240160206040518083038186803b158015612b7557600080fd5b505afa158015612b89573d6000803e3d6000fd5b505050506040513d601f19601f82011682018060405250810190612bad9190614241565b6040516345accf9360e11b81526001600160a01b037f00000000000000000000000000000000000000000000000000000000000000001690638b599f2690612bfb9086903090600401614394565b60206040518083038186803b158015612c1357600080fd5b505afa158015612c27573d6000803e3d6000fd5b505050506040513d601f19601f82011682018060405250810190612c4b9190614241565b612c55919061451c565b612c5f919061451c565b91505090565b80471015612cb55760405162461bcd60e51b815260206004820152601d60248201527f416464726573733a20696e73756666696369656e742062616c616e63650000006044820152606401610634565b6000826001600160a01b03168260405160006040518083038185875af1925050503d8060008114612d02576040519150601f19603f3d011682016040523d82523d6000602084013e612d07565b606091505b50509050806112fd5760405162461bcd60e51b815260206004820152603a60248201527f416464726573733a20756e61626c6520746f2073656e642076616c75652c207260448201527f6563697069656e74206d617920686176652072657665727465640000000000006064820152608401610634565b600082421180156122b7575050421115919050565b6040516370a0823160e01b815230600482015260009081906001600160a01b037f000000000000000000000000000000000000000000000000000000000000000016906370a082319060240160206040518083038186803b158015612df757600080fd5b505afa158015612e0b573d6000803e3d6000fd5b505050506040513d601f19601f82011682018060405250810190612e2f9190614241565b6040516335ea6a7560e01b81526001600160a01b0387811660048301529192506000917f000000000000000000000000000000000000000000000000000000000000000016906335ea6a75906024016101406040518083038186803b158015612e9757600080fd5b505afa158015612eab573d6000803e3d6000fd5b505050506040513d601f19601f82011682018060405250810190612ecf91906142ae565b5050505050505050509050612ef78686612ef287612eed8787613412565b613412565b613428565b925050505b9392505050565b6000612f2e7f0000000000000000000000000000000000000000000000000000000000000000613532565b6040516370a0823160e01b81523060048201526000907f00000000000000000000000000000000000000000000000000000000000000006001600160a01b0316906370a082319060240160206040518083038186803b158015612f9057600080fd5b505afa158015612fa4573d6000803e3d6000fd5b505050506040513d601f19601f82011682018060405250810190612fc89190614241565b905082811115613003576130017f000000000000000000000000000000000000000000000000000000000000000030612ef28685614573565b505b6040516370a0823160e01b81523060048201527f00000000000000000000000000000000000000000000000000000000000000006001600160a01b0316906370a082319060240160206040518083038186803b15801561306257600080fd5b505afa158015613076573d6000803e3d6000fd5b505050506040513d601f19601f82011682018060405250810190612efc9190614241565b6040516370a0823160e01b815230600482015260009081906001600160a01b037f000000000000000000000000000000000000000000000000000000000000000016906370a082319060240160206040518083038186803b1580156130fe57600080fd5b505afa158015613112573d6000803e3d6000fd5b505050506040513d601f19601f820116820180604052508101906131369190614241565b90508281101561314a57612efc8184614573565b50919050565b60008115610dd657610dd37f00000000000000000000000000000000000000000000000000000000000000003084612d93565b8015610a275760405163e8eda9df60e01b81526001600160a01b03838116600483015260248201839052306044830152600060648301527f0000000000000000000000000000000000000000000000000000000000000000169063e8eda9df90608401600060405180830381600087803b15801561320057600080fd5b505af1158015613214573d6000803e3d6000fd5b505050505050565b8015806132a55750604051636eb1769f60e11b81523060048201526001600160a01b03838116602483015284169063dd62ed3e9060440160206040518083038186803b15801561326b57600080fd5b505afa15801561327f573d6000803e3d6000fd5b505050506040513d601f19601f820116820180604052508101906132a39190614241565b155b6133105760405162461bcd60e51b815260206004820152603660248201527f5361666545524332303a20617070726f76652066726f6d206e6f6e2d7a65726f60448201527520746f206e6f6e2d7a65726f20616c6c6f77616e636560501b6064820152608401610634565b6040516001600160a01b0383166024820152604481018290526112fd90849063095ea7b360e01b906064016129c9565b6000613395826040518060400160405280602081526020017f5361666545524332303a206c6f772d6c6576656c2063616c6c206661696c6564815250856001600160a01b03166135ad9092919063ffffffff16565b8051909150156112fd57808060200190518101906133b3919061420f565b6112fd5760405162461bcd60e51b815260206004820152602a60248201527f5361666545524332303a204552433230206f7065726174696f6e20646964206e6044820152691bdd081cdd58d8d9595960b21b6064820152608401610634565b600081831061342157816122b7565b5090919050565b6000811561352b57604051631a4ca37b60e21b81526001600160a01b03858116600483015260248201849052848116604483015283917f0000000000000000000000000000000000000000000000000000000000000000909116906369328dec90606401602060405180830381600087803b1580156134a657600080fd5b505af11580156134ba573d6000803e3d6000fd5b505050506040513d601f19601f820116820180604052508101906134de9190614241565b1461352b5760405162461bcd60e51b815260206004820152601f60248201527f77697468647261776e2d616d6f756e742d69732d6e6f742d636f7272656374006044820152606401610634565b5092915050565b600061353c6135c4565b90508015610a27576000600654612710141561355957600161358b565b61358b61358361357d737fc66500c84a76ad7e9c93437bfc5ac33e2ddae986613927565b84613b1f565b600654613c4a565b90506112fd737fc66500c84a76ad7e9c93437bfc5ac33e2ddae9848484613c6d565b60606135bc8484600085613e2e565b949350505050565b60007f00000000000000000000000000000000000000000000000000000000000000006001600160a01b03166135fc57506000610faf565b6000806000613609610a2b565b925092509250826000148061361d57508042115b1561373d57604080516001808252818301909252600091602080830190803683370190505090507f00000000000000000000000000000000000000000000000000000000000000008160008151811061368657634e487b7160e01b600052603260045260246000fd5b6001600160a01b039283166020918202929092010152604051633111e7b360e01b81527f000000000000000000000000000000000000000000000000000000000000000090911690633111e7b3906136e89084906000199030906004016143be565b602060405180830381600087803b15801561370257600080fd5b505af1158015613716573d6000803e3d6000fd5b505050506040513d601f19601f8201168201806040525081019061373a9190614241565b50505b613745610a2b565b919450925090506137568282612d7e565b156137c6576040516301e9a69560e41b8152306004820152600019602482015260008051602061464883398151915290631e9a695090604401600060405180830381600087803b1580156137a957600080fd5b505af11580156137bd573d6000803e3d6000fd5b50505050613837565b6137d08382612223565b15613837576000805160206146488339815191526001600160a01b031663787a08a66040518163ffffffff1660e01b8152600401600060405180830381600087803b15801561381e57600080fd5b505af1158015613832573d6000803e3d6000fd5b505050505b6040516309a99b4f60e41b8152306004820152600019602482015260008051602061464883398151915290639a99b4f090604401600060405180830381600087803b15801561388557600080fd5b505af1158015613899573d6000803e3d6000fd5b50506040516370a0823160e01b8152306004820152737fc66500c84a76ad7e9c93437bfc5ac33e2ddae992506370a08231915060240160206040518083038186803b1580156138e757600080fd5b505afa1580156138fb573d6000803e3d6000fd5b505050506040513d601f19601f8201168201806040525081019061391f9190614241565b935050505090565b60606001600160a01b03831673c02aaa39b223fe8d0a0e5c4f27ead9083c756cc2148061397057506001600160a01b03821673c02aaa39b223fe8d0a0e5c4f27ead9083c756cc2145b15613a1e57604080516002808252606082018352909160208301908036833701905050905082816000815181106139b757634e487b7160e01b600052603260045260246000fd5b60200260200101906001600160a01b031690816001600160a01b03168152505081816001815181106139f957634e487b7160e01b600052603260045260246000fd5b60200260200101906001600160a01b031690816001600160a01b0316815250506122ba565b6040805160038082526080820190925290602082016060803683370190505090508281600081518110613a6157634e487b7160e01b600052603260045260246000fd5b60200260200101906001600160a01b031690816001600160a01b03168152505073c02aaa39b223fe8d0a0e5c4f27ead9083c756cc281600181518110613ab757634e487b7160e01b600052603260045260246000fd5b60200260200101906001600160a01b031690816001600160a01b0316815250508181600281518110613af957634e487b7160e01b600052603260045260246000fd5b60200260200101906001600160a01b031690816001600160a01b03168152505092915050565b60006001835111613b685760405162461bcd60e51b81526020600482015260136024820152720d2dcecc2d8d2c85adee4c2c6d8ca5ae0c2e8d606b1b6044820152606401610634565b50806000805b60018551613b7c9190614573565b811015613c4257613be8858281518110613ba657634e487b7160e01b600052603260045260246000fd5b602002602001015186836001613bbc919061451c565b81518110613bda57634e487b7160e01b600052603260045260246000fd5b602002602001015185613f56565b909350915081613c305760405162461bcd60e51b8152602060048201526013602482015272696e76616c69642d6f7261636c652d7261746560681b6044820152606401610634565b80613c3a816145eb565b915050613b6e565b505092915050565b6000612710613c598382614573565b613c639085614554565b6122b79190614534565b600354604051631d1f307960e31b81526001600160a01b038681166004830152858116602483015260448201859052600092839283929091169063e8f983c89060640160006040518083038186803b158015613cc857600080fd5b505afa158015613cdc573d6000803e3d6000fd5b505050506040513d6000823e601f3d908101601f19168201604052613d0491908101906140c8565b9250925092508360001415613d1857600193505b8115613e2557600354604051636e74a6f760e01b8152600481018390526001600160a01b0390911690636e74a6f79060240160206040518083038186803b158015613d6257600080fd5b505afa158015613d76573d6000803e3d6000fd5b505050506040513d601f19601f82011682018060405250810190613d9a91906140ac565b6001600160a01b03166338ed173986868630426040518663ffffffff1660e01b8152600401613dcd95949392919061448b565b600060405180830381600087803b158015613de757600080fd5b505af1158015613dfb573d6000803e3d6000fd5b505050506040513d6000823e601f3d908101601f19168201604052613e23919081019061417c565b505b50505050505050565b606082471015613e8f5760405162461bcd60e51b815260206004820152602660248201527f416464726573733a20696e73756666696369656e742062616c616e636520666f6044820152651c8818d85b1b60d21b6064820152608401610634565b843b613edd5760405162461bcd60e51b815260206004820152601d60248201527f416464726573733a2063616c6c20746f206e6f6e2d636f6e74726163740000006044820152606401610634565b600080866001600160a01b03168587604051613ef99190614378565b60006040518083038185875af1925050503d8060008114613f36576040519150601f19603f3d011682016040523d82523d6000602084013e613f3b565b606091505b5091509150613f4b828286614047565b979650505050505050565b6003546004805460055460405163b67bb24d60e01b81526001600160a01b038881169482019490945286841660248201526044810186905260648101929092526084820152600092839283928392919091169063b67bb24d9060a401606060405180830381600087803b158015613fcc57600080fd5b505af1158015613fe0573d6000803e3d6000fd5b505050506040513d601f19601f82011682018060405250810190614004919061427a565b5091509150600454426140179190614573565b8111801561402457508115155b15614035575091506001905061403f565b6000809350935050505b935093915050565b60608315614056575081612efc565b8251156140665782518084602001fd5b8160405162461bcd60e51b815260040161063491906143f1565b80518015158114610dd657600080fd5b6000602082840312156140a1578081fd5b8135612efc81614632565b6000602082840312156140bd578081fd5b8151612efc81614632565b6000806000606084860312156140dc578182fd5b835167ffffffffffffffff8111156140f2578283fd5b8401601f81018613614102578283fd5b80516020614117614112836144f8565b6144c7565b8083825282820191508285018a848660051b8801011115614136578788fd5b8795505b8486101561416157805161414d81614632565b83526001959095019491830191830161413a565b50918801516040909801519199979850909695505050505050565b6000602080838503121561418e578182fd5b825167ffffffffffffffff8111156141a4578283fd5b8301601f810185136141b4578283fd5b80516141c2614112826144f8565b80828252848201915084840188868560051b87010111156141e1578687fd5b8694505b838510156142035780518352600194909401939185019185016141e5565b50979650505050505050565b600060208284031215614220578081fd5b6122b782614080565b60006020828403121561423a578081fd5b5035919050565b600060208284031215614252578081fd5b5051919050565b6000806040838503121561426b578182fd5b50508035926020909101359150565b60008060006060848603121561428e578283fd5b83519250602084015191506142a560408501614080565b90509250925092565b6000806000806000806000806000806101408b8d0312156142cd578586fd5b8a51995060208b0151985060408b0151975060608b0151965060808b0151955060a08b0151945060c08b0151935060e08b015192506101008b015191506101208b015164ffffffffff81168114614322578182fd5b809150509295989b9194979a5092959850565b6000815180845260208085019450808401835b8381101561436d5781516001600160a01b031687529582019590820190600101614348565b509495945050505050565b6000825161438a81846020870161458a565b9190910192915050565b6000604082526143a76040830185614335565b905060018060a01b03831660208301529392505050565b6000606082526143d16060830186614335565b6020830194909452506001600160a01b0391909116604090910152919050565b600060208252825180602084015261441081604085016020870161458a565b601f01601f19169190910160400192915050565b60208082526016908201527531b0b63632b916b4b996b737ba16b096b5b2b2b832b960511b604082015260600190565b6020808252601a908201527f63616c6c65722d69732d6e6f742d7468652d676f7665726e6f72000000000000604082015260600190565b600086825285602083015260a060408301526144aa60a0830186614335565b6001600160a01b0394909416606083015250608001529392505050565b604051601f8201601f1916810167ffffffffffffffff811182821017156144f0576144f061461c565b604052919050565b600067ffffffffffffffff8211156145125761451261461c565b5060051b60200190565b6000821982111561452f5761452f614606565b500190565b60008261454f57634e487b7160e01b81526012600452602481fd5b500490565b600081600019048311821515161561456e5761456e614606565b500290565b60008282101561458557614585614606565b500390565b60005b838110156145a557818101518382015260200161458d565b838111156121515750506000910152565b600181811c908216806145ca57607f821691505b6020821081141561314a57634e487b7160e01b600052602260045260246000fd5b60006000198214156145ff576145ff614606565b5060010190565b634e487b7160e01b600052601160045260246000fd5b634e487b7160e01b600052604160045260246000fd5b6001600160a01b03811681146106ff57600080fdfe0000000000000000000000004da27a545c0c5b758a6ba100e3a049001de870f5a2646970667358221220f15de0f5d6150ff960bd45b833a6b6c7b57420e5311b0a88d382765932c5866464736f6c63430008030033",
  "devdoc": {
    "details": "This strategy will deposit collateral token in Aave and earn interest.",
    "kind": "dev",
    "methods": {
      "addKeeper(address)": {
        "params": {
          "_keeperAddress": "keeper address to add."
        }
      },
      "approveToken()": {
        "details": "Approve all required tokens"
      },
      "init(address)": {
        "params": {
          "_addressListFactory": "To support same code in eth side chain, user _addressListFactory as param mainnet - 0xded8217De022706A191eE7Ee0Dc9df1185Fb5dA3 polygon - 0xD10D5696A350D65A9AA15FE8B258caB4ab1bF291 avalanche - 0xc5CdF8CBE886FC5c1EF5CD4fdd599C975eC6BB54"
        }
      },
      "migrate(address)": {
        "details": "_beforeMigration hook can be implemented in child strategy to do extra steps.",
        "params": {
          "_newStrategy": "Address of new strategy"
        }
      },
      "rebalance()": {
        "details": "Rebalance profit, loss and investment of this strategy"
      },
      "removeKeeper(address)": {
        "params": {
          "_keeperAddress": "keeper address to remove."
        }
      },
      "sweepERC20(address)": {
        "details": "sweep given token to feeCollector of strategy",
        "params": {
          "_fromToken": "token address to sweep"
        }
      },
      "totalValue()": {
        "details": "aToken and collateral are 1:1"
      },
      "totalValueCurrent()": {
        "details": "Report total value in collateral token"
      },
      "updateFeeCollector(address)": {
        "params": {
          "_feeCollector": "fee collector address"
        }
      },
      "updateSwapManager(address)": {
        "params": {
          "_swapManager": "swap manager address"
        }
      },
      "withdraw(uint256)": {
        "details": "Withdraw collateral token from lending pool.",
        "params": {
          "_amount": "Amount of collateral token"
        }
      }
    },
    "version": 1
  },
  "userdoc": {
    "kind": "user",
    "methods": {
      "addKeeper(address)": {
        "notice": "Add given address in keepers list."
      },
      "canStartCooldown()": {
        "notice": "Returns true if we should start cooldown"
      },
      "canUnstake()": {
        "notice": "Returns true if Aave can be unstaked"
      },
      "cooldownData()": {
        "notice": "Return cooldown related timestamps"
      },
      "init(address)": {
        "notice": "Create keeper list NOTE: Any function with onlyKeeper modifier will not work until this function is called. NOTE: Due to gas constraint this function cannot be called in constructor."
      },
      "isReservedToken(address)": {
        "notice": "Check whether given token is reserved or not. Reserved tokens are not allowed to sweep."
      },
      "migrate(address)": {
        "notice": "Migrate all asset and vault ownership,if any, to new strategy"
      },
      "removeKeeper(address)": {
        "notice": "Remove given address from keepers list."
      },
      "startCooldown()": {
        "notice": "Initiate cooldown to unstake aave."
      },
      "token()": {
        "notice": "Returns address of token correspond to collateral token"
      },
      "totalValue()": {
        "notice": "Report total value"
      },
      "totalValueCurrent()": {
        "notice": "Calculate total value of asset under management (in real-time)"
      },
      "unstakeAave()": {
        "notice": "Unstake Aave from stakedAave contract"
      },
      "updateFeeCollector(address)": {
        "notice": "Update fee collector"
      },
      "updateSwapManager(address)": {
        "notice": "Update swap manager address"
      }
    },
    "version": 1
  },
  "storageLayout": {
    "storage": [
      {
        "astId": 13612,
        "contract": "contracts/strategies/aave/AaveStrategy.sol:AaveStrategy",
        "label": "receiptToken",
        "offset": 0,
        "slot": "0",
        "type": "t_address"
      },
      {
        "astId": 13619,
        "contract": "contracts/strategies/aave/AaveStrategy.sol:AaveStrategy",
        "label": "keepers",
        "offset": 0,
        "slot": "1",
        "type": "t_contract(IAddressList)4357"
      },
      {
        "astId": 13622,
        "contract": "contracts/strategies/aave/AaveStrategy.sol:AaveStrategy",
        "label": "feeCollector",
        "offset": 0,
        "slot": "2",
        "type": "t_address"
      },
      {
        "astId": 13625,
        "contract": "contracts/strategies/aave/AaveStrategy.sol:AaveStrategy",
        "label": "swapManager",
        "offset": 0,
        "slot": "3",
        "type": "t_contract(ISwapManager)4660"
      },
      {
        "astId": 13628,
        "contract": "contracts/strategies/aave/AaveStrategy.sol:AaveStrategy",
        "label": "oraclePeriod",
        "offset": 0,
        "slot": "4",
        "type": "t_uint256"
      },
      {
        "astId": 13631,
        "contract": "contracts/strategies/aave/AaveStrategy.sol:AaveStrategy",
        "label": "oracleRouterIdx",
        "offset": 0,
        "slot": "5",
        "type": "t_uint256"
      },
      {
        "astId": 13634,
        "contract": "contracts/strategies/aave/AaveStrategy.sol:AaveStrategy",
        "label": "swapSlippage",
        "offset": 0,
        "slot": "6",
        "type": "t_uint256"
      },
      {
        "astId": 14901,
        "contract": "contracts/strategies/aave/AaveStrategy.sol:AaveStrategy",
        "label": "aaveAddressesProvider",
        "offset": 0,
        "slot": "7",
        "type": "t_contract(AaveLendingPoolAddressesProvider)4003"
      },
      {
        "astId": 15504,
        "contract": "contracts/strategies/aave/AaveStrategy.sol:AaveStrategy",
        "label": "NAME",
        "offset": 0,
        "slot": "8",
        "type": "t_string_storage"
      }
    ],
    "types": {
      "t_address": {
        "encoding": "inplace",
        "label": "address",
        "numberOfBytes": "20"
      },
      "t_contract(AaveLendingPoolAddressesProvider)4003": {
        "encoding": "inplace",
        "label": "contract AaveLendingPoolAddressesProvider",
        "numberOfBytes": "20"
      },
      "t_contract(IAddressList)4357": {
        "encoding": "inplace",
        "label": "contract IAddressList",
        "numberOfBytes": "20"
      },
      "t_contract(ISwapManager)4660": {
        "encoding": "inplace",
        "label": "contract ISwapManager",
        "numberOfBytes": "20"
      },
      "t_string_storage": {
        "encoding": "bytes",
        "label": "string",
        "numberOfBytes": "32"
      },
      "t_uint256": {
        "encoding": "inplace",
        "label": "uint256",
        "numberOfBytes": "32"
      }
    }
  }
}