{
  "address": "0xef9a768880b4996cddB8C24a26F4b00d6e8ed35E",
  "abi": [
    {
      "inputs": [
        {
          "internalType": "address",
          "name": "_pool",
          "type": "address"
        },
        {
          "internalType": "address",
          "name": "_swapManager",
          "type": "address"
        }
      ],
      "stateMutability": "nonpayable",
      "type": "constructor"
    },
    {
      "anonymous": false,
      "inputs": [
        {
          "indexed": true,
          "internalType": "address",
          "name": "previousFeeCollector",
          "type": "address"
        },
        {
          "indexed": true,
          "internalType": "address",
          "name": "newFeeCollector",
          "type": "address"
        }
      ],
      "name": "UpdatedFeeCollector",
      "type": "event"
    },
    {
      "anonymous": false,
      "inputs": [
        {
          "indexed": false,
          "internalType": "uint256",
          "name": "oldPeriod",
          "type": "uint256"
        },
        {
          "indexed": false,
          "internalType": "uint256",
          "name": "newPeriod",
          "type": "uint256"
        },
        {
          "indexed": false,
          "internalType": "uint256",
          "name": "oldRouterIdx",
          "type": "uint256"
        },
        {
          "indexed": false,
          "internalType": "uint256",
          "name": "newRouterIdx",
          "type": "uint256"
        }
      ],
      "name": "UpdatedOracleConfig",
      "type": "event"
    },
    {
      "anonymous": false,
      "inputs": [
        {
          "indexed": true,
          "internalType": "address",
          "name": "previousSwapManager",
          "type": "address"
        },
        {
          "indexed": true,
          "internalType": "address",
          "name": "newSwapManager",
          "type": "address"
        }
      ],
      "name": "UpdatedSwapManager",
      "type": "event"
    },
    {
      "anonymous": false,
      "inputs": [
        {
          "indexed": false,
          "internalType": "uint256",
          "name": "oldSwapSlippage",
          "type": "uint256"
        },
        {
          "indexed": false,
          "internalType": "uint256",
          "name": "newSwapSlippage",
          "type": "uint256"
        }
      ],
      "name": "UpdatedSwapSlippage",
      "type": "event"
    },
    {
      "inputs": [],
      "name": "NAME",
      "outputs": [
        {
          "internalType": "string",
          "name": "",
          "type": "string"
        }
      ],
      "stateMutability": "view",
      "type": "function"
    },
    {
      "inputs": [],
      "name": "VERSION",
      "outputs": [
        {
          "internalType": "string",
          "name": "",
          "type": "string"
        }
      ],
      "stateMutability": "view",
      "type": "function"
    },
    {
      "inputs": [
        {
          "internalType": "address",
          "name": "_keeperAddress",
          "type": "address"
        }
      ],
      "name": "addKeeper",
      "outputs": [],
      "stateMutability": "nonpayable",
      "type": "function"
    },
    {
      "inputs": [],
      "name": "approveToken",
      "outputs": [],
      "stateMutability": "nonpayable",
      "type": "function"
    },
    {
      "inputs": [
        {
          "internalType": "uint256",
          "name": "amount",
          "type": "uint256"
        },
        {
          "internalType": "bytes32[]",
          "name": "proof",
          "type": "bytes32[]"
        }
      ],
      "name": "claimUTokenReward",
      "outputs": [],
      "stateMutability": "nonpayable",
      "type": "function"
    },
    {
      "inputs": [],
      "name": "collateralToken",
      "outputs": [
        {
          "internalType": "contract IERC20",
          "name": "",
          "type": "address"
        }
      ],
      "stateMutability": "view",
      "type": "function"
    },
    {
      "inputs": [],
      "name": "feeCollector",
      "outputs": [
        {
          "internalType": "address",
          "name": "",
          "type": "address"
        }
      ],
      "stateMutability": "view",
      "type": "function"
    },
    {
      "inputs": [
        {
          "internalType": "address",
          "name": "_addressListFactory",
          "type": "address"
        }
      ],
      "name": "init",
      "outputs": [],
      "stateMutability": "nonpayable",
      "type": "function"
    },
    {
      "inputs": [
        {
          "internalType": "address",
          "name": "_token",
          "type": "address"
        }
      ],
      "name": "isReservedToken",
      "outputs": [
        {
          "internalType": "bool",
          "name": "",
          "type": "bool"
        }
      ],
      "stateMutability": "view",
      "type": "function"
    },
    {
      "inputs": [],
      "name": "keepers",
      "outputs": [
        {
          "internalType": "contract IAddressList",
          "name": "",
          "type": "address"
        }
      ],
      "stateMutability": "view",
      "type": "function"
    },
    {
      "inputs": [
        {
          "internalType": "address",
          "name": "_newStrategy",
          "type": "address"
        }
      ],
      "name": "migrate",
      "outputs": [],
      "stateMutability": "nonpayable",
      "type": "function"
    },
    {
      "inputs": [],
      "name": "oraclePeriod",
      "outputs": [
        {
          "internalType": "uint256",
          "name": "",
          "type": "uint256"
        }
      ],
      "stateMutability": "view",
      "type": "function"
    },
    {
      "inputs": [],
      "name": "oracleRouterIdx",
      "outputs": [
        {
          "internalType": "uint256",
          "name": "",
          "type": "uint256"
        }
      ],
      "stateMutability": "view",
      "type": "function"
    },
    {
      "inputs": [],
      "name": "pool",
      "outputs": [
        {
          "internalType": "address",
          "name": "",
          "type": "address"
        }
      ],
      "stateMutability": "view",
      "type": "function"
    },
    {
      "inputs": [],
      "name": "rebalance",
      "outputs": [],
      "stateMutability": "nonpayable",
      "type": "function"
    },
    {
      "inputs": [],
      "name": "receiptToken",
      "outputs": [
        {
          "internalType": "address",
          "name": "",
          "type": "address"
        }
      ],
      "stateMutability": "view",
      "type": "function"
    },
    {
      "inputs": [
        {
          "internalType": "address",
          "name": "_keeperAddress",
          "type": "address"
        }
      ],
      "name": "removeKeeper",
      "outputs": [],
      "stateMutability": "nonpayable",
      "type": "function"
    },
    {
      "inputs": [],
      "name": "setupOracles",
      "outputs": [],
      "stateMutability": "nonpayable",
      "type": "function"
    },
    {
      "inputs": [],
      "name": "swapManager",
      "outputs": [
        {
          "internalType": "contract ISwapManager",
          "name": "",
          "type": "address"
        }
      ],
      "stateMutability": "view",
      "type": "function"
    },
    {
      "inputs": [],
      "name": "swapSlippage",
      "outputs": [
        {
          "internalType": "uint256",
          "name": "",
          "type": "uint256"
        }
      ],
      "stateMutability": "view",
      "type": "function"
    },
    {
      "inputs": [
        {
          "internalType": "address",
          "name": "_fromToken",
          "type": "address"
        }
      ],
      "name": "sweepERC20",
      "outputs": [],
      "stateMutability": "nonpayable",
      "type": "function"
    },
    {
      "inputs": [],
      "name": "token",
      "outputs": [
        {
          "internalType": "address",
          "name": "",
          "type": "address"
        }
      ],
      "stateMutability": "view",
      "type": "function"
    },
    {
      "inputs": [],
      "name": "totalValue",
      "outputs": [
        {
          "internalType": "uint256",
          "name": "_totalValue",
          "type": "uint256"
        }
      ],
      "stateMutability": "view",
      "type": "function"
    },
    {
      "inputs": [],
      "name": "totalValueCurrent",
      "outputs": [
        {
          "internalType": "uint256",
          "name": "",
          "type": "uint256"
        }
      ],
      "stateMutability": "nonpayable",
      "type": "function"
    },
    {
      "inputs": [
        {
          "internalType": "address",
          "name": "_feeCollector",
          "type": "address"
        }
      ],
      "name": "updateFeeCollector",
      "outputs": [],
      "stateMutability": "nonpayable",
      "type": "function"
    },
    {
      "inputs": [
        {
          "internalType": "uint256",
          "name": "_newPeriod",
          "type": "uint256"
        },
        {
          "internalType": "uint256",
          "name": "_newRouterIdx",
          "type": "uint256"
        }
      ],
      "name": "updateOracleConfig",
      "outputs": [],
      "stateMutability": "nonpayable",
      "type": "function"
    },
    {
      "inputs": [
        {
          "internalType": "address",
          "name": "_swapManager",
          "type": "address"
        }
      ],
      "name": "updateSwapManager",
      "outputs": [],
      "stateMutability": "nonpayable",
      "type": "function"
    },
    {
      "inputs": [
        {
          "internalType": "uint256",
          "name": "_newSwapSlippage",
          "type": "uint256"
        }
      ],
      "name": "updateSwapSlippage",
      "outputs": [],
      "stateMutability": "nonpayable",
      "type": "function"
    },
    {
      "inputs": [],
      "name": "updateTokenRate",
      "outputs": [
        {
          "internalType": "uint256",
          "name": "",
          "type": "uint256"
        }
      ],
      "stateMutability": "nonpayable",
      "type": "function"
    },
    {
      "inputs": [
        {
          "internalType": "uint256",
          "name": "_amount",
          "type": "uint256"
        }
      ],
      "name": "withdraw",
      "outputs": [],
      "stateMutability": "nonpayable",
      "type": "function"
    }
  ],
  "transactionHash": "0x1ef62be006ade87b0f9f82eb8acd42bfd41fb29e0d1d47d8f31fb1618176e5cd",
  "args": [
    "0x9b91ab47cefC35dbe4DDCC7983fFA1fB40795663",
    "0xe382d9f2394A359B01006faa8A1864b8a60d2710"
  ],
  "solcInputHash": "e2c10b7c320e8f08c5064f7bfe26523e",
  "bytecode": "0x60e0604052610e1060045560006005556127106006553480156200002257600080fd5b50604051620042bb380380620042bb8339810160408190526200004591620003d6565b818173d80ce6816f263c3ca551558b2034b61bc9852b978282826001600160a01b038316620000bb5760405162461bcd60e51b815260206004820152601460248201527f706f6f6c2d616464726573732d69732d7a65726f00000000000000000000000060448201526064015b60405180910390fd5b6001600160a01b038216620001085760405162461bcd60e51b8152602060048201526012602482015271736d2d616464726573732d69732d7a65726f60701b6044820152606401620000b2565b600380546001600160a01b0319166001600160a01b0384811691909117909155606084901b6001600160601b03191660a05260408051637e062a3560e11b815290519185169163fc0c546a91600480820192602092909190829003018186803b1580156200017557600080fd5b505afa1580156200018a573d6000803e3d6000fd5b505050506040513d601f19601f82011682018060405250810190620001b0919062000414565b60601b6001600160601b031916608052600080546001600160a01b03199081166001600160a01b03938416179091556007805490911691851691821790556040805163313ce56760e01b8152905191935063313ce5679250600480820192602092909190829003018186803b1580156200022957600080fd5b505afa1580156200023e573d6000803e3d6000fd5b505050506040513d601f19601f820116820180604052508101906200026491906200043a565b60ff1660c052620002758362000280565b505050505062000473565b600760009054906101000a90046001600160a01b03166001600160a01b031663633156376040518163ffffffff1660e01b815260040160206040518083038186803b158015620002cf57600080fd5b505afa158015620002e4573d6000803e3d6000fd5b505050506040513d601f19601f820116820180604052508101906200030a919062000414565b6001600160a01b0316816001600160a01b031663fc0c546a6040518163ffffffff1660e01b815260040160206040518083038186803b1580156200034d57600080fd5b505afa15801562000362573d6000803e3d6000fd5b505050506040513d601f19601f8201168201806040525081019062000388919062000414565b6001600160a01b031614620003d35760405162461bcd60e51b815260206004820152601060248201526f0ea5ae8ded6cadc5adad2e6dac2e8c6d60831b6044820152606401620000b2565b50565b60008060408385031215620003e9578182fd5b8251620003f6816200045d565b602084015190925062000409816200045d565b809150509250929050565b60006020828403121562000426578081fd5b815162000433816200045d565b9392505050565b6000602082840312156200044c578081fd5b815160ff8116811462000433578182fd5b6001600160a01b0381168114620003d357600080fd5b60805160601c60a05160601c60c051613d3c6200057f60003960005050600081816101f901528181610466015281816105f501528181610964015281816109e001528181610ba101528181610e7601528181610f81015281816111b1015281816112d8015281816115bb01528181611684015281816118d101528181611f4901528181611fc801528181612065015261223b01526000818161039401528181610ea201528181611823015281816118a801528181611b5b01528181611d7801528181611f730152818161212101528181612219015281816122710152818161249a015281816125190152818161285e01528181612a0601528181612aa20152612b300152613d3c6000f3fe608060405234801561001057600080fd5b50600436106101da5760003560e01c806399b71d5c11610104578063ce5494bb116100a2578063e645c20211610071578063e645c20214610413578063ec78e8321461041b578063fc0c546a1461042e578063ffa1ad741461043f576101da565b8063ce5494bb146103d2578063d2c35ce8146103e5578063d4c3eea0146103f8578063e00af4a714610400576101da565b8063aa101886116100de578063aa10188614610387578063b2016bd41461038f578063c415b95c146103b6578063cd2d7ebe146103c9576101da565b806399b71d5c14610323578063a3f4df7e1461032b578063a923b2a614610374576101da565b806342189c8f1161017c57806367f5e4b81161014b57806367f5e4b8146102e2578063709d039d146102f55780637d7c2a1c14610308578063951dc22c14610310576101da565b806342189c8f14610290578063440d7248146102995780634c36fad7146102bc578063653b449e146102cf576101da565b80631aedeabe116101b85780631aedeabe1461024b578063234fe5ab146102625780632e1a7d4d1461026a5780634032b72b1461027d576101da565b806314ae9f2e146101df57806316f0115b146101f457806319ab453c14610238575b600080fd5b6101f26101ed366004613787565b610464565b005b61021b7f000000000000000000000000000000000000000000000000000000000000000081565b6040516001600160a01b0390911681526020015b60405180910390f35b6101f2610246366004613787565b6105f3565b61025460065481565b60405190815260200161022f565b61025461086d565b6101f2610278366004613920565b610961565b6101f261028b366004613787565b6109de565b61025460045481565b6102ac6102a7366004613787565b610b5e565b604051901515815260200161022f565b6101f26102ca366004613787565b610b9f565b6101f26102dd366004613950565b610d52565b6101f26102f0366004613920565b610f7f565b60035461021b906001600160a01b031681565b6101f26110cb565b60015461021b906001600160a01b031681565b6101f261121a565b6103676040518060400160405280601781526020017f416c7068612d4c656e642d53747261746567792d44504900000000000000000081525081565b60405161022f9190613a60565b6101f26103823660046139ef565b6112d6565b6101f261150b565b61021b7f000000000000000000000000000000000000000000000000000000000000000081565b60025461021b906001600160a01b031681565b61025460055481565b6101f26103e0366004613787565b6115b8565b6101f26103f3366004613787565b6118cf565b610254611a98565b6101f261040e366004613787565b611c81565b610254611f1c565b60005461021b906001600160a01b031681565b6000546001600160a01b031661021b565b61036760405180604001604052806006815260200165332e302e323160d01b81525081565b7f00000000000000000000000000000000000000000000000000000000000000006001600160a01b0316630c340a246040518163ffffffff1660e01b815260040160206040518083038186803b1580156104bd57600080fd5b505afa1580156104d1573d6000803e3d6000fd5b505050506040513d601f19601f820116820180604052508101906104f591906137a3565b6001600160a01b0316336001600160a01b03161461052e5760405162461bcd60e51b815260040161052590613ac3565b60405180910390fd5b600154604051631484968760e11b81526001600160a01b038381166004830152909116906329092d0e90602401602060405180830381600087803b15801561057557600080fd5b505af1158015610589573d6000803e3d6000fd5b505050506040513d601f19601f820116820180604052508101906105ad9190613906565b6105f05760405162461bcd60e51b81526020600482015260146024820152731c995b5bdd994b5ad9595c195c8b59985a5b195960621b6044820152606401610525565b50565b7f00000000000000000000000000000000000000000000000000000000000000006001600160a01b0316630c340a246040518163ffffffff1660e01b815260040160206040518083038186803b15801561064c57600080fd5b505afa158015610660573d6000803e3d6000fd5b505050506040513d601f19601f8201168201806040525081019061068491906137a3565b6001600160a01b0316336001600160a01b0316146106b45760405162461bcd60e51b815260040161052590613ac3565b6001546001600160a01b03161561070d5760405162461bcd60e51b815260206004820152601b60248201527f6b65657065722d6c6973742d616c72656164792d6372656174656400000000006044820152606401610525565b6000819050806001600160a01b0316630fab4d256040518163ffffffff1660e01b8152600401602060405180830381600087803b15801561074d57600080fd5b505af1158015610761573d6000803e3d6000fd5b505050506040513d601f19601f8201168201806040525081019061078591906137a3565b600180546001600160a01b0319166001600160a01b03929092169182179055630a3b0a4f6107b03390565b6040516001600160e01b031960e084901b1681526001600160a01b039091166004820152602401602060405180830381600087803b1580156107f157600080fd5b505af1158015610805573d6000803e3d6000fd5b505050506040513d601f19601f820116820180604052508101906108299190613906565b6108695760405162461bcd60e51b81526020600482015260116024820152701859190b5ad9595c195c8b59985a5b1959607a1b6044820152606401610525565b5050565b600754604080516334f293ed60e11b815290516000926001600160a01b0316916369e527da916004808301926020929190829003018186803b1580156108b257600080fd5b505afa1580156108c6573d6000803e3d6000fd5b505050506040513d601f19601f820116820180604052508101906108ea91906137a3565b6001600160a01b031663bd6d894d6040518163ffffffff1660e01b8152600401602060405180830381600087803b15801561092457600080fd5b505af1158015610938573d6000803e3d6000fd5b505050506040513d601f19601f8201168201806040525081019061095c9190613938565b905090565b337f00000000000000000000000000000000000000000000000000000000000000006001600160a01b0316146109d55760405162461bcd60e51b815260206004820152601960248201527818d85b1b195c8b5a5ccb5b9bdd0b5d995cdc195c8b5c1bdbdb603a1b6044820152606401610525565b6105f081611f26565b7f00000000000000000000000000000000000000000000000000000000000000006001600160a01b0316630c340a246040518163ffffffff1660e01b815260040160206040518083038186803b158015610a3757600080fd5b505afa158015610a4b573d6000803e3d6000fd5b505050506040513d601f19601f82011682018060405250810190610a6f91906137a3565b6001600160a01b0316336001600160a01b031614610a9f5760405162461bcd60e51b815260040161052590613ac3565b600154604051630a3b0a4f60e01b81526001600160a01b03838116600483015290911690630a3b0a4f90602401602060405180830381600087803b158015610ae657600080fd5b505af1158015610afa573d6000803e3d6000fd5b505050506040513d601f19601f82011682018060405250810190610b1e9190613906565b6105f05760405162461bcd60e51b81526020600482015260116024820152701859190b5ad9595c195c8b59985a5b1959607a1b6044820152606401610525565b600080546001600160a01b0383811691161480610b9757506001600160a01b03821673a1faa113cbe53436df28ff0aee54275c13b40975145b90505b919050565b7f00000000000000000000000000000000000000000000000000000000000000006001600160a01b0316630c340a246040518163ffffffff1660e01b815260040160206040518083038186803b158015610bf857600080fd5b505afa158015610c0c573d6000803e3d6000fd5b505050506040513d601f19601f82011682018060405250810190610c3091906137a3565b6001600160a01b0316336001600160a01b031614610c605760405162461bcd60e51b815260040161052590613ac3565b6001600160a01b038116610cab5760405162461bcd60e51b8152602060048201526012602482015271736d2d616464726573732d69732d7a65726f60701b6044820152606401610525565b6003546001600160a01b0382811691161415610cf65760405162461bcd60e51b815260206004820152600a602482015269736d2d69732d73616d6560b01b6044820152606401610525565b6003546040516001600160a01b038084169216907f2d19927e7cac08ceb98b38898a4fdff6da6a27295b9a2d62fe250408ebe044e190600090a3600380546001600160a01b0319166001600160a01b0392909216919091179055565b6001546001600160a01b0316635dbe47e8336040516001600160e01b031960e084901b1681526001600160a01b03909116600482015260240160206040518083038186803b158015610da357600080fd5b505afa158015610db7573d6000803e3d6000fd5b505050506040513d601f19601f82011682018060405250810190610ddb9190613906565b610df75760405162461bcd60e51b815260040161052590613a93565b600754604051632f52ebb760e01b81526001600160a01b0390911690632f52ebb790610e299085908590600401613afa565b600060405180830381600087803b158015610e4357600080fd5b505af1158015610e57573d6000803e3d6000fd5b50506040516370a0823160e01b81523060048201526001600160a01b037f0000000000000000000000000000000000000000000000000000000000000000811693506305bed04692507f000000000000000000000000000000000000000000000000000000000000000016906370a082319060240160206040518083038186803b158015610ee457600080fd5b505afa158015610ef8573d6000803e3d6000fd5b505050506040513d601f19601f82011682018060405250810190610f1c9190613938565b6040516001600160e01b031960e084901b16815260048101919091526000602482018190526044820152606401600060405180830381600087803b158015610f6357600080fd5b505af1158015610f77573d6000803e3d6000fd5b505050505050565b7f00000000000000000000000000000000000000000000000000000000000000006001600160a01b0316630c340a246040518163ffffffff1660e01b815260040160206040518083038186803b158015610fd857600080fd5b505afa158015610fec573d6000803e3d6000fd5b505050506040513d601f19601f8201168201806040525081019061101091906137a3565b6001600160a01b0316336001600160a01b0316146110405760405162461bcd60e51b815260040161052590613ac3565b61271081111561108b5760405162461bcd60e51b8152602060048201526016602482015275696e76616c69642d736c6970706167652d76616c756560501b6044820152606401610525565b60065460408051918252602082018390527ef1c5db862c7598b3b6765552ca951f498611e06412c2d57f8d0b58f82e7f82910160405180910390a1600655565b6001546001600160a01b0316635dbe47e8336040516001600160e01b031960e084901b1681526001600160a01b03909116600482015260240160206040518083038186803b15801561111c57600080fd5b505afa158015611130573d6000803e3d6000fd5b505050506040513d601f19601f820116820180604052508101906111549190613906565b6111705760405162461bcd60e51b815260040161052590613a93565b600080600061117d611fa2565b6040516302df682360e11b815260048101849052602481018390526044810182905292955090935091506001600160a01b037f000000000000000000000000000000000000000000000000000000000000000016906305bed04690606401600060405180830381600087803b1580156111f557600080fd5b505af1158015611209573d6000803e3d6000fd5b50505050611215612109565b505050565b6001546001600160a01b0316635dbe47e8336040516001600160e01b031960e084901b1681526001600160a01b03909116600482015260240160206040518083038186803b15801561126b57600080fd5b505afa15801561127f573d6000803e3d6000fd5b505050506040513d601f19601f820116820180604052508101906112a39190613906565b6112bf5760405162461bcd60e51b815260040161052590613a93565b6112c9600061220c565b6112d460001961220c565b565b7f00000000000000000000000000000000000000000000000000000000000000006001600160a01b0316630c340a246040518163ffffffff1660e01b815260040160206040518083038186803b15801561132f57600080fd5b505afa158015611343573d6000803e3d6000fd5b505050506040513d601f19601f8201168201806040525081019061136791906137a3565b6001600160a01b0316336001600160a01b0316146113975760405162461bcd60e51b815260040161052590613ac3565b600360009054906101000a90046001600160a01b03166001600160a01b031663c2fba6676040518163ffffffff1660e01b815260040160206040518083038186803b1580156113e557600080fd5b505afa1580156113f9573d6000803e3d6000fd5b505050506040513d601f19601f8201168201806040525081019061141d9190613938565b81106114625760405162461bcd60e51b81526020600482015260146024820152730d2dcecc2d8d2c85ae4deeae8cae45ad2dcc8caf60631b6044820152606401610525565b8161146d5760045491505b603b82116114b55760405162461bcd60e51b81526020600482015260156024820152741a5b9d985b1a590b5bdc9858db194b5c195c9a5bd9605a1b6044820152606401610525565b6004546005546040805192835260208301859052820152606081018290527f83bc5ab8030537fcf1d29c2334f6d22c26c82dcbe5ff03923d2cff5c692c0a7f9060800160405180910390a1600491909155600555565b6001546001600160a01b0316635dbe47e8336040516001600160e01b031960e084901b1681526001600160a01b03909116600482015260240160206040518083038186803b15801561155c57600080fd5b505afa158015611570573d6000803e3d6000fd5b505050506040513d601f19601f820116820180604052508101906115949190613906565b6115b05760405162461bcd60e51b815260040161052590613a93565b6112d46123d6565b337f00000000000000000000000000000000000000000000000000000000000000006001600160a01b03161461162c5760405162461bcd60e51b815260206004820152601960248201527818d85b1b195c8b5a5ccb5b9bdd0b5d995cdc195c8b5c1bdbdb603a1b6044820152606401610525565b6001600160a01b0381166116825760405162461bcd60e51b815260206004820152601c60248201527f6e65772d73747261746567792d616464726573732d69732d7a65726f000000006044820152606401610525565b7f00000000000000000000000000000000000000000000000000000000000000006001600160a01b0316816001600160a01b03166316f0115b6040518163ffffffff1660e01b815260040160206040518083038186803b1580156116e557600080fd5b505afa1580156116f9573d6000803e3d6000fd5b505050506040513d601f19601f8201168201806040525081019061171d91906137a3565b6001600160a01b03161461176c5760405162461bcd60e51b81526020600482015260166024820152756e6f742d76616c69642d6e65772d737472617465677960501b6044820152606401610525565b6000546040516370a0823160e01b81523060048201526118009183916001600160a01b03909116906370a082319060240160206040518083038186803b1580156117b557600080fd5b505afa1580156117c9573d6000803e3d6000fd5b505050506040513d601f19601f820116820180604052508101906117ed9190613938565b6000546001600160a01b031691906125ab565b6040516370a0823160e01b81523060048201526105f09082906001600160a01b037f000000000000000000000000000000000000000000000000000000000000000016906370a08231906024015b60206040518083038186803b15801561186657600080fd5b505afa15801561187a573d6000803e3d6000fd5b505050506040513d601f19601f8201168201806040525081019061189e9190613938565b6001600160a01b037f00000000000000000000000000000000000000000000000000000000000000001691906125ab565b7f00000000000000000000000000000000000000000000000000000000000000006001600160a01b0316630c340a246040518163ffffffff1660e01b815260040160206040518083038186803b15801561192857600080fd5b505afa15801561193c573d6000803e3d6000fd5b505050506040513d601f19601f8201168201806040525081019061196091906137a3565b6001600160a01b0316336001600160a01b0316146119905760405162461bcd60e51b815260040161052590613ac3565b6001600160a01b0381166119e65760405162461bcd60e51b815260206004820152601d60248201527f6665652d636f6c6c6563746f722d616464726573732d69732d7a65726f0000006044820152606401610525565b6002546001600160a01b0382811691161415611a3c5760405162461bcd60e51b81526020600482015260156024820152746665652d636f6c6c6563746f722d69732d73616d6560581b6044820152606401610525565b6002546040516001600160a01b038084169216907f0f06062680f9bd68e786e9980d9bb03d73d5620fc3b345e417b6eacb310b970690600090a3600280546001600160a01b0319166001600160a01b0392909216919091179055565b6040516370a0823160e01b8152306004820152600090819073a1faa113cbe53436df28ff0aee54275c13b40975906370a082319060240160206040518083038186803b158015611ae757600080fd5b505afa158015611afb573d6000803e3d6000fd5b505050506040513d601f19601f82011682018060405250810190611b1f9190613938565b90508015611bee57600354604051631d1f307960e31b815273a1faa113cbe53436df28ff0aee54275c13b4097560048201526001600160a01b037f000000000000000000000000000000000000000000000000000000000000000081166024830152604482018490529091169063e8f983c89060640160006040518083038186803b158015611bad57600080fd5b505afa158015611bc1573d6000803e3d6000fd5b505050506040513d6000823e601f3d908101601f19168201604052611be991908101906137bf565b509250505b6007546040516370a0823160e01b8152306004820152611c71916001600160a01b0316906370a08231906024015b60206040518083038186803b158015611c3457600080fd5b505afa158015611c48573d6000803e3d6000fd5b505050506040513d601f19601f82011682018060405250810190611c6c9190613938565b61260e565b611c7b9083613c0c565b91505090565b6001546001600160a01b0316635dbe47e8336040516001600160e01b031960e084901b1681526001600160a01b03909116600482015260240160206040518083038186803b158015611cd257600080fd5b505afa158015611ce6573d6000803e3d6000fd5b505050506040513d601f19601f82011682018060405250810190611d0a9190613906565b611d265760405162461bcd60e51b815260040161052590613a93565b6002546001600160a01b0316611d765760405162461bcd60e51b81526020600482015260156024820152741999594b58dbdb1b1958dd1bdc8b5b9bdd0b5cd95d605a1b6044820152606401610525565b7f00000000000000000000000000000000000000000000000000000000000000006001600160a01b0316816001600160a01b03161415611df85760405162461bcd60e51b815260206004820152601f60248201527f6e6f742d616c6c6f7765642d746f2d73776565702d636f6c6c61746572616c006044820152606401610525565b611e0181610b5e565b15611e455760405162461bcd60e51b815260206004820152601460248201527306e6f742d616c6c6f7765642d746f2d73776565760641b6044820152606401610525565b6001600160a01b03811673eeeeeeeeeeeeeeeeeeeeeeeeeeeeeeeeeeeeeeee1415611e8557600254611e80906001600160a01b031647612723565b6105f0565b6040516370a0823160e01b81523060048201526000906001600160a01b038316906370a082319060240160206040518083038186803b158015611ec757600080fd5b505afa158015611edb573d6000803e3d6000fd5b505050506040513d601f19601f82011682018060405250810190611eff9190613938565b600254909150610869906001600160a01b038481169116836125ab565b600061095c611a98565b611f2f8161283c565b506040516370a0823160e01b81523060048201526105f0907f0000000000000000000000000000000000000000000000000000000000000000906001600160a01b037f000000000000000000000000000000000000000000000000000000000000000016906370a082319060240161184e565b604051636a9eee1360e11b81523060048201526000908190819081906001600160a01b037f0000000000000000000000000000000000000000000000000000000000000000169063d53ddc269060240160206040518083038186803b15801561200a57600080fd5b505afa15801561201e573d6000803e3d6000fd5b505050506040513d601f19601f820116820180604052508101906120429190613938565b604051639f2b283360e01b81523060048201529091506000906001600160a01b037f00000000000000000000000000000000000000000000000000000000000000001690639f2b28339060240160206040518083038186803b1580156120a757600080fd5b505afa1580156120bb573d6000803e3d6000fd5b505050506040513d601f19601f820116820180604052508101906120df9190613938565b90506120ea81612a9b565b94506120f581612bb9565b935061210082612c0a565b92505050909192565b6040516370a0823160e01b81523060048201526000907f00000000000000000000000000000000000000000000000000000000000000006001600160a01b0316906370a082319060240160206040518083038186803b15801561216b57600080fd5b505afa15801561217f573d6000803e3d6000fd5b505050506040513d601f19601f820116820180604052508101906121a39190613938565b905080156105f05760075460405163b6b55f2560e01b8152600481018390526001600160a01b039091169063b6b55f2590602401600060405180830381600087803b1580156121f157600080fd5b505af1158015612205573d6000803e3d6000fd5b5050505050565b6122606001600160a01b037f0000000000000000000000000000000000000000000000000000000000000000167f000000000000000000000000000000000000000000000000000000000000000083612c1b565b60075461229a906001600160a01b037f00000000000000000000000000000000000000000000000000000000000000008116911683612c1b565b60005b600360009054906101000a90046001600160a01b03166001600160a01b031663c2fba6676040518163ffffffff1660e01b815260040160206040518083038186803b1580156122eb57600080fd5b505afa1580156122ff573d6000803e3d6000fd5b505050506040513d601f19601f820116820180604052508101906123239190613938565b81101561086957600354604051636e74a6f760e01b8152600481018390526123c4916001600160a01b031690636e74a6f79060240160206040518083038186803b15801561237057600080fd5b505afa158015612384573d6000803e3d6000fd5b505050506040513d601f19601f820116820180604052508101906123a891906137a3565b73a1faa113cbe53436df28ff0aee54275c13b409759084612c1b565b806123ce81613caa565b91505061229d565b60035460048054600554604051630f30f2d360e21b815273a1faa113cbe53436df28ff0aee54275c13b409759381019390935273c02aaa39b223fe8d0a0e5c4f27ead9083c756cc26024840152604483019190915260648201526001600160a01b0390911690633cc3cb4c90608401602060405180830381600087803b15801561245f57600080fd5b505af1158015612473573d6000803e3d6000fd5b505050506040513d601f19601f8201168201806040525081019061249791906137a3565b507f00000000000000000000000000000000000000000000000000000000000000006001600160a01b031673c02aaa39b223fe8d0a0e5c4f27ead9083c756cc2146112d45760035460048054600554604051630f30f2d360e21b815273c02aaa39b223fe8d0a0e5c4f27ead9083c756cc2938101939093526001600160a01b037f0000000000000000000000000000000000000000000000000000000000000000811660248501526044840192909252606483015290911690633cc3cb4c90608401602060405180830381600087803b15801561257357600080fd5b505af1158015612587573d6000803e3d6000fd5b505050506040513d601f19601f820116820180604052508101906105f091906137a3565b6040516001600160a01b03831660248201526044810182905261121590849063a9059cbb60e01b906064015b60408051601f198184030181529190526020810180516001600160e01b03166001600160e01b031990931692909217909152612d3f565b6000670de0b6b3a7640000600760009054906101000a90046001600160a01b03166001600160a01b03166369e527da6040518163ffffffff1660e01b815260040160206040518083038186803b15801561266757600080fd5b505afa15801561267b573d6000803e3d6000fd5b505050506040513d601f19601f8201168201806040525081019061269f91906137a3565b6001600160a01b031663182df0f56040518163ffffffff1660e01b815260040160206040518083038186803b1580156126d757600080fd5b505afa1580156126eb573d6000803e3d6000fd5b505050506040513d601f19601f8201168201806040525081019061270f9190613938565b6127199084613c44565b610b979190613c24565b804710156127735760405162461bcd60e51b815260206004820152601d60248201527f416464726573733a20696e73756666696369656e742062616c616e63650000006044820152606401610525565b6000826001600160a01b03168260405160006040518083038185875af1925050503d80600081146127c0576040519150601f19603f3d011682016040523d82523d6000602084013e6127c5565b606091505b50509050806112155760405162461bcd60e51b815260206004820152603a60248201527f416464726573733a20756e61626c6520746f2073656e642076616c75652c207260448201527f6563697069656e74206d617920686176652072657665727465640000000000006064820152608401610525565b6040516370a0823160e01b815230600482015260009081906001600160a01b037f000000000000000000000000000000000000000000000000000000000000000016906370a082319060240160206040518083038186803b1580156128a057600080fd5b505afa1580156128b4573d6000803e3d6000fd5b505050506040513d601f19601f820116820180604052508101906128d89190613938565b6007546040516370a0823160e01b81523060048201529192506000916001600160a01b03909116906370a082319060240160206040518083038186803b15801561292157600080fd5b505afa158015612935573d6000803e3d6000fd5b505050506040513d601f19601f820116820180604052508101906129599190613938565b9050600061296685612e11565b90506129718161260e565b85111561298657612983600182613c0c565b90505b818111156129915750805b600754604051632e1a7d4d60e01b8152600481018390526001600160a01b0390911690632e1a7d4d90602401600060405180830381600087803b1580156129d757600080fd5b505af11580156129eb573d6000803e3d6000fd5b505050506040516370a0823160e01b815230600482015283907f00000000000000000000000000000000000000000000000000000000000000006001600160a01b0316906370a082319060240160206040518083038186803b158015612a5057600080fd5b505afa158015612a64573d6000803e3d6000fd5b505050506040513d601f19601f82011682018060405250810190612a889190613938565b612a929190613c63565b95945050505050565b6000612ac67f0000000000000000000000000000000000000000000000000000000000000000612f10565b6007546040516370a0823160e01b8152306004820152600091612afd916001600160a01b03909116906370a0823190602401611c1c565b905082811115612b1b57612b19612b148483613c63565b61283c565b505b6040516370a0823160e01b81523060048201527f00000000000000000000000000000000000000000000000000000000000000006001600160a01b0316906370a082319060240160206040518083038186803b158015612b7a57600080fd5b505afa158015612b8e573d6000803e3d6000fd5b505050506040513d601f19601f82011682018060405250810190612bb29190613938565b9392505050565b6007546040516370a0823160e01b81523060048201526000918291612bf0916001600160a01b0316906370a0823190602401611c1c565b905082811015612c0457612bb28184613c63565b50919050565b60008115610b9a57610b978261283c565b801580612ca45750604051636eb1769f60e11b81523060048201526001600160a01b03838116602483015284169063dd62ed3e9060440160206040518083038186803b158015612c6a57600080fd5b505afa158015612c7e573d6000803e3d6000fd5b505050506040513d601f19601f82011682018060405250810190612ca29190613938565b155b612d0f5760405162461bcd60e51b815260206004820152603660248201527f5361666545524332303a20617070726f76652066726f6d206e6f6e2d7a65726f60448201527520746f206e6f6e2d7a65726f20616c6c6f77616e636560501b6064820152608401610525565b6040516001600160a01b03831660248201526044810182905261121590849063095ea7b360e01b906064016125d7565b6000612d94826040518060400160405280602081526020017f5361666545524332303a206c6f772d6c6576656c2063616c6c206661696c6564815250856001600160a01b03166130069092919063ffffffff16565b8051909150156112155780806020019051810190612db29190613906565b6112155760405162461bcd60e51b815260206004820152602a60248201527f5361666545524332303a204552433230206f7065726174696f6e20646964206e6044820152691bdd081cdd58d8d9595960b21b6064820152608401610525565b600754604080516334f293ed60e11b815290516000926001600160a01b0316916369e527da916004808301926020929190829003018186803b158015612e5657600080fd5b505afa158015612e6a573d6000803e3d6000fd5b505050506040513d601f19601f82011682018060405250810190612e8e91906137a3565b6001600160a01b031663182df0f56040518163ffffffff1660e01b815260040160206040518083038186803b158015612ec657600080fd5b505afa158015612eda573d6000803e3d6000fd5b505050506040513d601f19601f82011682018060405250810190612efe9190613938565b61271983670de0b6b3a7640000613c44565b6040516370a0823160e01b815230600482015260009073a1faa113cbe53436df28ff0aee54275c13b40975906370a082319060240160206040518083038186803b158015612f5d57600080fd5b505afa158015612f71573d6000803e3d6000fd5b505050506040513d601f19601f82011682018060405250810190612f959190613938565b905080156108695760006006546127101415612fb2576001612fe4565b612fe4612fdc612fd673a1faa113cbe53436df28ff0aee54275c13b409758661301d565b84613216565b600654613341565b905061121573a1faa113cbe53436df28ff0aee54275c13b40975848484613364565b60606130158484600085613525565b949350505050565b60606001600160a01b03831673c02aaa39b223fe8d0a0e5c4f27ead9083c756cc2148061306657506001600160a01b03821673c02aaa39b223fe8d0a0e5c4f27ead9083c756cc2145b1561311457604080516002808252606082018352909160208301908036833701905050905082816000815181106130ad57634e487b7160e01b600052603260045260246000fd5b60200260200101906001600160a01b031690816001600160a01b03168152505081816001815181106130ef57634e487b7160e01b600052603260045260246000fd5b60200260200101906001600160a01b031690816001600160a01b031681525050613210565b604080516003808252608082019092529060208201606080368337019050509050828160008151811061315757634e487b7160e01b600052603260045260246000fd5b60200260200101906001600160a01b031690816001600160a01b03168152505073c02aaa39b223fe8d0a0e5c4f27ead9083c756cc2816001815181106131ad57634e487b7160e01b600052603260045260246000fd5b60200260200101906001600160a01b031690816001600160a01b03168152505081816002815181106131ef57634e487b7160e01b600052603260045260246000fd5b60200260200101906001600160a01b031690816001600160a01b0316815250505b92915050565b6000600183511161325f5760405162461bcd60e51b81526020600482015260136024820152720d2dcecc2d8d2c85adee4c2c6d8ca5ae0c2e8d606b1b6044820152606401610525565b50806000805b600185516132739190613c63565b811015613339576132df85828151811061329d57634e487b7160e01b600052603260045260246000fd5b6020026020010151868360016132b39190613c0c565b815181106132d157634e487b7160e01b600052603260045260246000fd5b60200260200101518561364d565b9093509150816133275760405162461bcd60e51b8152602060048201526013602482015272696e76616c69642d6f7261636c652d7261746560681b6044820152606401610525565b8061333181613caa565b915050613265565b505092915050565b60006127106133508382613c63565b61335a9085613c44565b612bb29190613c24565b600354604051631d1f307960e31b81526001600160a01b038681166004830152858116602483015260448201859052600092839283929091169063e8f983c89060640160006040518083038186803b1580156133bf57600080fd5b505afa1580156133d3573d6000803e3d6000fd5b505050506040513d6000823e601f3d908101601f191682016040526133fb91908101906137bf565b925092509250836000141561340f57600193505b811561351c57600354604051636e74a6f760e01b8152600481018390526001600160a01b0390911690636e74a6f79060240160206040518083038186803b15801561345957600080fd5b505afa15801561346d573d6000803e3d6000fd5b505050506040513d601f19601f8201168201806040525081019061349191906137a3565b6001600160a01b03166338ed173986868630426040518663ffffffff1660e01b81526004016134c4959493929190613b47565b600060405180830381600087803b1580156134de57600080fd5b505af11580156134f2573d6000803e3d6000fd5b505050506040513d6000823e601f3d908101601f1916820160405261351a9190810190613873565b505b50505050505050565b6060824710156135865760405162461bcd60e51b815260206004820152602660248201527f416464726573733a20696e73756666696369656e742062616c616e636520666f6044820152651c8818d85b1b60d21b6064820152608401610525565b843b6135d45760405162461bcd60e51b815260206004820152601d60248201527f416464726573733a2063616c6c20746f206e6f6e2d636f6e74726163740000006044820152606401610525565b600080866001600160a01b031685876040516135f09190613a44565b60006040518083038185875af1925050503d806000811461362d576040519150601f19603f3d011682016040523d82523d6000602084013e613632565b606091505b509150915061364282828661373e565b979650505050505050565b6003546004805460055460405163b67bb24d60e01b81526001600160a01b038881169482019490945286841660248201526044810186905260648101929092526084820152600092839283928392919091169063b67bb24d9060a401606060405180830381600087803b1580156136c357600080fd5b505af11580156136d7573d6000803e3d6000fd5b505050506040513d601f19601f820116820180604052508101906136fb9190613a10565b50915091506004544261370e9190613c63565b8111801561371b57508115155b1561372c5750915060019050613736565b6000809350935050505b935093915050565b6060831561374d575081612bb2565b82511561375d5782518084602001fd5b8160405162461bcd60e51b81526004016105259190613a60565b80518015158114610b9a57600080fd5b600060208284031215613798578081fd5b8135612bb281613cf1565b6000602082840312156137b4578081fd5b8151612bb281613cf1565b6000806000606084860312156137d3578182fd5b835167ffffffffffffffff8111156137e9578283fd5b8401601f810186136137f9578283fd5b8051602061380e61380983613be8565b613bb7565b8083825282820191508285018a848660051b880101111561382d578788fd5b8795505b8486101561385857805161384481613cf1565b835260019590950194918301918301613831565b50918801516040909801519199979850909695505050505050565b60006020808385031215613885578182fd5b825167ffffffffffffffff81111561389b578283fd5b8301601f810185136138ab578283fd5b80516138b961380982613be8565b80828252848201915084840188868560051b87010111156138d8578687fd5b8694505b838510156138fa5780518352600194909401939185019185016138dc565b50979650505050505050565b600060208284031215613917578081fd5b612bb282613777565b600060208284031215613931578081fd5b5035919050565b600060208284031215613949578081fd5b5051919050565b60008060408385031215613962578182fd5b8235915060208084013567ffffffffffffffff811115613980578283fd5b8401601f81018613613990578283fd5b803561399e61380982613be8565b80828252848201915084840189868560051b87010111156139bd578687fd5b8694505b838510156139df5780358352600194909401939185019185016139c1565b5080955050505050509250929050565b60008060408385031215613a01578182fd5b50508035926020909101359150565b600080600060608486031215613a24578081fd5b8351925060208401519150613a3b60408501613777565b90509250925092565b60008251613a56818460208701613c7a565b9190910192915050565b6000602082528251806020840152613a7f816040850160208701613c7a565b601f01601f19169190910160400192915050565b60208082526016908201527531b0b63632b916b4b996b737ba16b096b5b2b2b832b960511b604082015260600190565b6020808252601a908201527f63616c6c65722d69732d6e6f742d7468652d676f7665726e6f72000000000000604082015260600190565b60006040820184835260206040818501528185518084526060860191508287019350845b81811015613b3a57845183529383019391830191600101613b1e565b5090979650505050505050565b600060a082018783526020878185015260a0604085015281875180845260c0860191508289019350845b81811015613b965784516001600160a01b031683529383019391830191600101613b71565b50506001600160a01b03969096166060850152505050608001529392505050565b604051601f8201601f1916810167ffffffffffffffff81118282101715613be057613be0613cdb565b604052919050565b600067ffffffffffffffff821115613c0257613c02613cdb565b5060051b60200190565b60008219821115613c1f57613c1f613cc5565b500190565b600082613c3f57634e487b7160e01b81526012600452602481fd5b500490565b6000816000190483118215151615613c5e57613c5e613cc5565b500290565b600082821015613c7557613c75613cc5565b500390565b60005b83811015613c95578181015183820152602001613c7d565b83811115613ca4576000848401525b50505050565b6000600019821415613cbe57613cbe613cc5565b5060010190565b634e487b7160e01b600052601160045260246000fd5b634e487b7160e01b600052604160045260246000fd5b6001600160a01b03811681146105f057600080fdfea264697066735822122027a33c684d66b5b1feba2e5abb9ee69fa0d5ca2ad48982cba4171b3881de6c2164736f6c63430008030033",
  "devdoc": {
    "kind": "dev",
    "methods": {
      "addKeeper(address)": {
        "params": {
          "_keeperAddress": "keeper address to add."
        }
      },
      "approveToken()": {
        "details": "Approve all required tokens"
      },
      "init(address)": {
        "params": {
          "_addressListFactory": "To support same code in eth side chain, user _addressListFactory as param mainnet - 0xded8217De022706A191eE7Ee0Dc9df1185Fb5dA3 polygon - 0xD10D5696A350D65A9AA15FE8B258caB4ab1bF291 avalanche - 0xc5CdF8CBE886FC5c1EF5CD4fdd599C975eC6BB54"
        }
      },
      "migrate(address)": {
        "details": "_beforeMigration hook can be implemented in child strategy to do extra steps.",
        "params": {
          "_newStrategy": "Address of new strategy"
        }
      },
      "rebalance()": {
        "details": "Rebalance profit, loss and investment of this strategy"
      },
      "removeKeeper(address)": {
        "params": {
          "_keeperAddress": "keeper address to remove."
        }
      },
      "sweepERC20(address)": {
        "details": "sweep given token to feeCollector of strategy",
        "params": {
          "_fromToken": "token address to sweep"
        }
      },
      "totalValue()": {
        "details": "Report total value in collateral token"
      },
      "totalValueCurrent()": {
        "details": "Report total value in collateral token"
      },
      "updateFeeCollector(address)": {
        "params": {
          "_feeCollector": "fee collector address"
        }
      },
      "updateSwapManager(address)": {
        "params": {
          "_swapManager": "swap manager address"
        }
      },
      "withdraw(uint256)": {
        "details": "Withdraw collateral token from lending pool.",
        "params": {
          "_amount": "Amount of collateral token"
        }
      }
    },
    "title": "Deposit DPI in Alpha and earn interest.",
    "version": 1
  },
  "userdoc": {
    "kind": "user",
    "methods": {
      "addKeeper(address)": {
        "notice": "Add given address in keepers list."
      },
      "init(address)": {
        "notice": "Create keeper list NOTE: Any function with onlyKeeper modifier will not work until this function is called. NOTE: Due to gas constraint this function cannot be called in constructor."
      },
      "isReservedToken(address)": {
        "notice": "Check whether given token is reserved or not. Reserved tokens are not allowed to sweep."
      },
      "migrate(address)": {
        "notice": "Migrate all asset and vault ownership,if any, to new strategy"
      },
      "removeKeeper(address)": {
        "notice": "Remove given address from keepers list."
      },
      "token()": {
        "notice": "Returns address of token correspond to collateral token"
      },
      "totalValue()": {
        "notice": "Calculate total value using ALPHA accrued and cToken"
      },
      "totalValueCurrent()": {
        "notice": "Calculate total value of asset under management (in real-time)"
      },
      "updateFeeCollector(address)": {
        "notice": "Update fee collector"
      },
      "updateSwapManager(address)": {
        "notice": "Update swap manager address"
      }
    },
    "version": 1
  },
  "storageLayout": {
    "storage": [
      {
        "astId": 13633,
        "contract": "contracts/strategies/alpha/AlphaLendStrategyDPI.sol:AlphaLendStrategyDPI",
        "label": "receiptToken",
        "offset": 0,
        "slot": "0",
        "type": "t_address"
      },
      {
        "astId": 13640,
        "contract": "contracts/strategies/alpha/AlphaLendStrategyDPI.sol:AlphaLendStrategyDPI",
        "label": "keepers",
        "offset": 0,
        "slot": "1",
        "type": "t_contract(IAddressList)4357"
      },
      {
        "astId": 13643,
        "contract": "contracts/strategies/alpha/AlphaLendStrategyDPI.sol:AlphaLendStrategyDPI",
        "label": "feeCollector",
        "offset": 0,
        "slot": "2",
        "type": "t_address"
      },
      {
        "astId": 13646,
        "contract": "contracts/strategies/alpha/AlphaLendStrategyDPI.sol:AlphaLendStrategyDPI",
        "label": "swapManager",
        "offset": 0,
        "slot": "3",
        "type": "t_contract(ISwapManager)4660"
      },
      {
        "astId": 13649,
        "contract": "contracts/strategies/alpha/AlphaLendStrategyDPI.sol:AlphaLendStrategyDPI",
        "label": "oraclePeriod",
        "offset": 0,
        "slot": "4",
        "type": "t_uint256"
      },
      {
        "astId": 13652,
        "contract": "contracts/strategies/alpha/AlphaLendStrategyDPI.sol:AlphaLendStrategyDPI",
        "label": "oracleRouterIdx",
        "offset": 0,
        "slot": "5",
        "type": "t_uint256"
      },
      {
        "astId": 13655,
        "contract": "contracts/strategies/alpha/AlphaLendStrategyDPI.sol:AlphaLendStrategyDPI",
        "label": "swapSlippage",
        "offset": 0,
        "slot": "6",
        "type": "t_uint256"
      },
      {
        "astId": 18171,
        "contract": "contracts/strategies/alpha/AlphaLendStrategyDPI.sol:AlphaLendStrategyDPI",
        "label": "safeBox",
        "offset": 0,
        "slot": "7",
        "type": "t_contract(ISafeBox)4276"
      }
    ],
    "types": {
      "t_address": {
        "encoding": "inplace",
        "label": "address",
        "numberOfBytes": "20"
      },
      "t_contract(IAddressList)4357": {
        "encoding": "inplace",
        "label": "contract IAddressList",
        "numberOfBytes": "20"
      },
      "t_contract(ISafeBox)4276": {
        "encoding": "inplace",
        "label": "contract ISafeBox",
        "numberOfBytes": "20"
      },
      "t_contract(ISwapManager)4660": {
        "encoding": "inplace",
        "label": "contract ISwapManager",
        "numberOfBytes": "20"
      },
      "t_uint256": {
        "encoding": "inplace",
        "label": "uint256",
        "numberOfBytes": "32"
      }
    }
  }
}