{
  "address": "0x9ce483DBE7C810A7DE7fCB78e61cD13Cec4A0914",
  "abi": [
    {
      "inputs": [
        {
          "internalType": "address",
          "name": "_pool",
          "type": "address"
        },
        {
          "internalType": "address",
          "name": "_swapManager",
          "type": "address"
        }
      ],
      "stateMutability": "nonpayable",
      "type": "constructor"
    },
    {
      "anonymous": false,
      "inputs": [
        {
          "indexed": true,
          "internalType": "address",
          "name": "previousFeeCollector",
          "type": "address"
        },
        {
          "indexed": true,
          "internalType": "address",
          "name": "newFeeCollector",
          "type": "address"
        }
      ],
      "name": "UpdatedFeeCollector",
      "type": "event"
    },
    {
      "anonymous": false,
      "inputs": [
        {
          "indexed": false,
          "internalType": "uint256",
          "name": "oldPeriod",
          "type": "uint256"
        },
        {
          "indexed": false,
          "internalType": "uint256",
          "name": "newPeriod",
          "type": "uint256"
        },
        {
          "indexed": false,
          "internalType": "uint256",
          "name": "oldRouterIdx",
          "type": "uint256"
        },
        {
          "indexed": false,
          "internalType": "uint256",
          "name": "newRouterIdx",
          "type": "uint256"
        }
      ],
      "name": "UpdatedOracleConfig",
      "type": "event"
    },
    {
      "anonymous": false,
      "inputs": [
        {
          "indexed": true,
          "internalType": "address",
          "name": "previousSwapManager",
          "type": "address"
        },
        {
          "indexed": true,
          "internalType": "address",
          "name": "newSwapManager",
          "type": "address"
        }
      ],
      "name": "UpdatedSwapManager",
      "type": "event"
    },
    {
      "anonymous": false,
      "inputs": [
        {
          "indexed": false,
          "internalType": "uint256",
          "name": "oldSwapSlippage",
          "type": "uint256"
        },
        {
          "indexed": false,
          "internalType": "uint256",
          "name": "newSwapSlippage",
          "type": "uint256"
        }
      ],
      "name": "UpdatedSwapSlippage",
      "type": "event"
    },
    {
      "inputs": [],
      "name": "NAME",
      "outputs": [
        {
          "internalType": "string",
          "name": "",
          "type": "string"
        }
      ],
      "stateMutability": "view",
      "type": "function"
    },
    {
      "inputs": [],
      "name": "VERSION",
      "outputs": [
        {
          "internalType": "string",
          "name": "",
          "type": "string"
        }
      ],
      "stateMutability": "view",
      "type": "function"
    },
    {
      "inputs": [
        {
          "internalType": "address",
          "name": "_keeperAddress",
          "type": "address"
        }
      ],
      "name": "addKeeper",
      "outputs": [],
      "stateMutability": "nonpayable",
      "type": "function"
    },
    {
      "inputs": [],
      "name": "approveToken",
      "outputs": [],
      "stateMutability": "nonpayable",
      "type": "function"
    },
    {
      "inputs": [],
      "name": "collateralToken",
      "outputs": [
        {
          "internalType": "contract IERC20",
          "name": "",
          "type": "address"
        }
      ],
      "stateMutability": "view",
      "type": "function"
    },
    {
      "inputs": [
        {
          "internalType": "uint256",
          "name": "amount",
          "type": "uint256"
        }
      ],
      "name": "convertFrom18",
      "outputs": [
        {
          "internalType": "uint256",
          "name": "",
          "type": "uint256"
        }
      ],
      "stateMutability": "pure",
      "type": "function"
    },
    {
      "inputs": [],
      "name": "feeCollector",
      "outputs": [
        {
          "internalType": "address",
          "name": "",
          "type": "address"
        }
      ],
      "stateMutability": "view",
      "type": "function"
    },
    {
      "inputs": [
        {
          "internalType": "address",
          "name": "_addressListFactory",
          "type": "address"
        }
      ],
      "name": "init",
      "outputs": [],
      "stateMutability": "nonpayable",
      "type": "function"
    },
    {
      "inputs": [
        {
          "internalType": "address",
          "name": "_token",
          "type": "address"
        }
      ],
      "name": "isReservedToken",
      "outputs": [
        {
          "internalType": "bool",
          "name": "",
          "type": "bool"
        }
      ],
      "stateMutability": "view",
      "type": "function"
    },
    {
      "inputs": [],
      "name": "keepers",
      "outputs": [
        {
          "internalType": "contract IAddressList",
          "name": "",
          "type": "address"
        }
      ],
      "stateMutability": "view",
      "type": "function"
    },
    {
      "inputs": [
        {
          "internalType": "address",
          "name": "_newStrategy",
          "type": "address"
        }
      ],
      "name": "migrate",
      "outputs": [],
      "stateMutability": "nonpayable",
      "type": "function"
    },
    {
      "inputs": [],
      "name": "oraclePeriod",
      "outputs": [
        {
          "internalType": "uint256",
          "name": "",
          "type": "uint256"
        }
      ],
      "stateMutability": "view",
      "type": "function"
    },
    {
      "inputs": [],
      "name": "oracleRouterIdx",
      "outputs": [
        {
          "internalType": "uint256",
          "name": "",
          "type": "uint256"
        }
      ],
      "stateMutability": "view",
      "type": "function"
    },
    {
      "inputs": [],
      "name": "pool",
      "outputs": [
        {
          "internalType": "address",
          "name": "",
          "type": "address"
        }
      ],
      "stateMutability": "view",
      "type": "function"
    },
    {
      "inputs": [],
      "name": "rebalance",
      "outputs": [],
      "stateMutability": "nonpayable",
      "type": "function"
    },
    {
      "inputs": [],
      "name": "receiptToken",
      "outputs": [
        {
          "internalType": "address",
          "name": "",
          "type": "address"
        }
      ],
      "stateMutability": "view",
      "type": "function"
    },
    {
      "inputs": [
        {
          "internalType": "address",
          "name": "_keeperAddress",
          "type": "address"
        }
      ],
      "name": "removeKeeper",
      "outputs": [],
      "stateMutability": "nonpayable",
      "type": "function"
    },
    {
      "inputs": [],
      "name": "setupOracles",
      "outputs": [],
      "stateMutability": "nonpayable",
      "type": "function"
    },
    {
      "inputs": [],
      "name": "swapManager",
      "outputs": [
        {
          "internalType": "contract ISwapManager",
          "name": "",
          "type": "address"
        }
      ],
      "stateMutability": "view",
      "type": "function"
    },
    {
      "inputs": [],
      "name": "swapSlippage",
      "outputs": [
        {
          "internalType": "uint256",
          "name": "",
          "type": "uint256"
        }
      ],
      "stateMutability": "view",
      "type": "function"
    },
    {
      "inputs": [
        {
          "internalType": "address",
          "name": "_fromToken",
          "type": "address"
        }
      ],
      "name": "sweepERC20",
      "outputs": [],
      "stateMutability": "nonpayable",
      "type": "function"
    },
    {
      "inputs": [],
      "name": "token",
      "outputs": [
        {
          "internalType": "address",
          "name": "",
          "type": "address"
        }
      ],
      "stateMutability": "view",
      "type": "function"
    },
    {
      "inputs": [],
      "name": "totalValue",
      "outputs": [
        {
          "internalType": "uint256",
          "name": "_totalValue",
          "type": "uint256"
        }
      ],
      "stateMutability": "view",
      "type": "function"
    },
    {
      "inputs": [
        {
          "internalType": "address",
          "name": "_feeCollector",
          "type": "address"
        }
      ],
      "name": "updateFeeCollector",
      "outputs": [],
      "stateMutability": "nonpayable",
      "type": "function"
    },
    {
      "inputs": [
        {
          "internalType": "uint256",
          "name": "_newPeriod",
          "type": "uint256"
        },
        {
          "internalType": "uint256",
          "name": "_newRouterIdx",
          "type": "uint256"
        }
      ],
      "name": "updateOracleConfig",
      "outputs": [],
      "stateMutability": "nonpayable",
      "type": "function"
    },
    {
      "inputs": [
        {
          "internalType": "address",
          "name": "_swapManager",
          "type": "address"
        }
      ],
      "name": "updateSwapManager",
      "outputs": [],
      "stateMutability": "nonpayable",
      "type": "function"
    },
    {
      "inputs": [
        {
          "internalType": "uint256",
          "name": "_newSwapSlippage",
          "type": "uint256"
        }
      ],
      "name": "updateSwapSlippage",
      "outputs": [],
      "stateMutability": "nonpayable",
      "type": "function"
    },
    {
      "inputs": [
        {
          "internalType": "uint256",
          "name": "_amount",
          "type": "uint256"
        }
      ],
      "name": "withdraw",
      "outputs": [],
      "stateMutability": "nonpayable",
      "type": "function"
    }
  ],
  "transactionHash": "0x34df84619d81dc621622d3fe8295e5658b05a7db3275c6dbab4e697884320843",
  "args": [
    "0xB4eDcEFd59750144882170FCc52ffeD40BfD5f7d",
    "0xe382d9f2394A359B01006faa8A1864b8a60d2710"
  ],
  "solcInputHash": "0240e10ff10f0a265cf318dbea06484c",
  "bytecode": "0x60c0604052610e1060045560006005556127106006553480156200002257600080fd5b5060405162003ca038038062003ca0833981016040819052620000459162000263565b8181735d3a536e4d6dbd6114cc1ead35777bab948e36438282826001600160a01b038316620000bb5760405162461bcd60e51b815260206004820152601460248201527f706f6f6c2d616464726573732d69732d7a65726f00000000000000000000000060448201526064015b60405180910390fd5b6001600160a01b038216620001085760405162461bcd60e51b8152602060048201526012602482015271736d2d616464726573732d69732d7a65726f60701b6044820152606401620000b2565b600380546001600160a01b0319166001600160a01b0384811691909117909155606084901b6001600160601b03191660a05260408051637e062a3560e11b815290519185169163fc0c546a91600480820192602092909190829003018186803b1580156200017557600080fd5b505afa1580156200018a573d6000803e3d6000fd5b505050506040513d601f19601f82011682018060405250810190620001b09190620002a1565b60601b6001600160601b031916608052600080546001600160a01b0319166001600160a01b039283161790558316151591506200023290505760405162461bcd60e51b815260206004820152601660248201527f63546f6b656e2d616464726573732d69732d7a65726f000000000000000000006044820152606401620000b2565b600780546001600160a01b0319166001600160a01b0392909216919091179055505061271060065550620002e09050565b6000806040838503121562000276578182fd5b82516200028381620002c7565b60208401519092506200029681620002c7565b809150509250929050565b600060208284031215620002b3578081fd5b8151620002c081620002c7565b9392505050565b6001600160a01b0381168114620002dd57600080fd5b50565b60805160601c60a05160601c6138d7620003c9600039600081816101e301528181610435015281816105c40152818161083f015281816108bb01528181610a7e01528181610c3101528181610e6101528181610f880152818161126b015281816113340152818161158a01528181611bf401528181611c7301528181611d100152611f5001526000818161035b015281816114dc015281816115610152818161181e01528181611a2d01528181611c1e01528181611dcc01528181611f2e01528181611f86015281816121a30152818161222a015281816125cd015261265601526138d76000f3fe608060405234801561001057600080fd5b50600436106101c45760003560e01c8063a3f4df7e116100f9578063d2c35ce811610097578063ec78e83211610071578063ec78e832146103da578063fb589de2146103ed578063fc0c546a146103fe578063ffa1ad741461040f576101c4565b8063d2c35ce8146103ac578063d4c3eea0146103bf578063e00af4a7146103c7576101c4565b8063b2016bd4116100d3578063b2016bd414610356578063c415b95c1461037d578063cd2d7ebe14610390578063ce5494bb14610399576101c4565b8063a3f4df7e146102fa578063a923b2a61461033b578063aa1018861461034e576101c4565b8063440d724811610166578063709d039d11610140578063709d039d146102c45780637d7c2a1c146102d7578063951dc22c146102df57806399b71d5c146102f2576101c4565b8063440d72481461027b5780634c36fad71461029e57806367f5e4b8146102b1576101c4565b80631aedeabe116101a25780631aedeabe146102355780632e1a7d4d1461024c5780634032b72b1461025f57806342189c8f14610272576101c4565b806314ae9f2e146101c957806316f0115b146101de57806319ab453c14610222575b600080fd5b6101dc6101d73660046133d3565b610433565b005b6102057f000000000000000000000000000000000000000000000000000000000000000081565b6040516001600160a01b0390911681526020015b60405180910390f35b6101dc6102303660046133d3565b6105c2565b61023e60065481565b604051908152602001610219565b6101dc61025a36600461354b565b61083c565b6101dc61026d3660046133d3565b6108b9565b61023e60045481565b61028e6102893660046133d3565b610a39565b6040519015158152602001610219565b6101dc6102ac3660046133d3565b610a7c565b6101dc6102bf36600461354b565b610c2f565b600354610205906001600160a01b031681565b6101dc610d7b565b600154610205906001600160a01b031681565b6101dc610eca565b61032e60405180604001604052806015815260200174436f6d706f756e642d53747261746567792d44414960581b81525081565b604051610219919061367c565b6101dc61034936600461357b565b610f86565b6101dc6111bb565b6102057f000000000000000000000000000000000000000000000000000000000000000081565b600254610205906001600160a01b031681565b61023e60055481565b6101dc6103a73660046133d3565b611268565b6101dc6103ba3660046133d3565b611588565b61023e611751565b6101dc6103d53660046133d3565b611936565b600054610205906001600160a01b031681565b61023e6103fb36600461354b565b90565b6000546001600160a01b0316610205565b61032e604051806040016040528060058152602001640332e302e360dc1b81525081565b7f00000000000000000000000000000000000000000000000000000000000000006001600160a01b0316630c340a246040518163ffffffff1660e01b815260040160206040518083038186803b15801561048c57600080fd5b505afa1580156104a0573d6000803e3d6000fd5b505050506040513d601f19601f820116820180604052508101906104c491906133ef565b6001600160a01b0316336001600160a01b0316146104fd5760405162461bcd60e51b81526004016104f4906136df565b60405180910390fd5b600154604051631484968760e11b81526001600160a01b038381166004830152909116906329092d0e90602401602060405180830381600087803b15801561054457600080fd5b505af1158015610558573d6000803e3d6000fd5b505050506040513d601f19601f8201168201806040525081019061057c9190613531565b6105bf5760405162461bcd60e51b81526020600482015260146024820152731c995b5bdd994b5ad9595c195c8b59985a5b195960621b60448201526064016104f4565b50565b7f00000000000000000000000000000000000000000000000000000000000000006001600160a01b0316630c340a246040518163ffffffff1660e01b815260040160206040518083038186803b15801561061b57600080fd5b505afa15801561062f573d6000803e3d6000fd5b505050506040513d601f19601f8201168201806040525081019061065391906133ef565b6001600160a01b0316336001600160a01b0316146106835760405162461bcd60e51b81526004016104f4906136df565b6001546001600160a01b0316156106dc5760405162461bcd60e51b815260206004820152601b60248201527f6b65657065722d6c6973742d616c72656164792d63726561746564000000000060448201526064016104f4565b6000819050806001600160a01b0316630fab4d256040518163ffffffff1660e01b8152600401602060405180830381600087803b15801561071c57600080fd5b505af1158015610730573d6000803e3d6000fd5b505050506040513d601f19601f8201168201806040525081019061075491906133ef565b600180546001600160a01b0319166001600160a01b03929092169182179055630a3b0a4f61077f3390565b6040516001600160e01b031960e084901b1681526001600160a01b039091166004820152602401602060405180830381600087803b1580156107c057600080fd5b505af11580156107d4573d6000803e3d6000fd5b505050506040513d601f19601f820116820180604052508101906107f89190613531565b6108385760405162461bcd60e51b81526020600482015260116024820152701859190b5ad9595c195c8b59985a5b1959607a1b60448201526064016104f4565b5050565b337f00000000000000000000000000000000000000000000000000000000000000006001600160a01b0316146108b05760405162461bcd60e51b815260206004820152601960248201527818d85b1b195c8b5a5ccb5b9bdd0b5d995cdc195c8b5c1bdbdb603a1b60448201526064016104f4565b6105bf81611bd1565b7f00000000000000000000000000000000000000000000000000000000000000006001600160a01b0316630c340a246040518163ffffffff1660e01b815260040160206040518083038186803b15801561091257600080fd5b505afa158015610926573d6000803e3d6000fd5b505050506040513d601f19601f8201168201806040525081019061094a91906133ef565b6001600160a01b0316336001600160a01b03161461097a5760405162461bcd60e51b81526004016104f4906136df565b600154604051630a3b0a4f60e01b81526001600160a01b03838116600483015290911690630a3b0a4f90602401602060405180830381600087803b1580156109c157600080fd5b505af11580156109d5573d6000803e3d6000fd5b505050506040513d601f19601f820116820180604052508101906109f99190613531565b6105bf5760405162461bcd60e51b81526020600482015260116024820152701859190b5ad9595c195c8b59985a5b1959607a1b60448201526064016104f4565b6007546000906001600160a01b0383811691161480610a7457506001600160a01b03821673c00e94cb662c3520282e6f5717214004a7f26888145b90505b919050565b7f00000000000000000000000000000000000000000000000000000000000000006001600160a01b0316630c340a246040518163ffffffff1660e01b815260040160206040518083038186803b158015610ad557600080fd5b505afa158015610ae9573d6000803e3d6000fd5b505050506040513d601f19601f82011682018060405250810190610b0d91906133ef565b6001600160a01b0316336001600160a01b031614610b3d5760405162461bcd60e51b81526004016104f4906136df565b6001600160a01b038116610b885760405162461bcd60e51b8152602060048201526012602482015271736d2d616464726573732d69732d7a65726f60701b60448201526064016104f4565b6003546001600160a01b0382811691161415610bd35760405162461bcd60e51b815260206004820152600a602482015269736d2d69732d73616d6560b01b60448201526064016104f4565b6003546040516001600160a01b038084169216907f2d19927e7cac08ceb98b38898a4fdff6da6a27295b9a2d62fe250408ebe044e190600090a3600380546001600160a01b0319166001600160a01b0392909216919091179055565b7f00000000000000000000000000000000000000000000000000000000000000006001600160a01b0316630c340a246040518163ffffffff1660e01b815260040160206040518083038186803b158015610c8857600080fd5b505afa158015610c9c573d6000803e3d6000fd5b505050506040513d601f19601f82011682018060405250810190610cc091906133ef565b6001600160a01b0316336001600160a01b031614610cf05760405162461bcd60e51b81526004016104f4906136df565b612710811115610d3b5760405162461bcd60e51b8152602060048201526016602482015275696e76616c69642d736c6970706167652d76616c756560501b60448201526064016104f4565b60065460408051918252602082018390527ef1c5db862c7598b3b6765552ca951f498611e06412c2d57f8d0b58f82e7f82910160405180910390a1600655565b6001546001600160a01b0316635dbe47e8336040516001600160e01b031960e084901b1681526001600160a01b03909116600482015260240160206040518083038186803b158015610dcc57600080fd5b505afa158015610de0573d6000803e3d6000fd5b505050506040513d601f19601f82011682018060405250810190610e049190613531565b610e205760405162461bcd60e51b81526004016104f4906136af565b6000806000610e2d611c4d565b6040516302df682360e11b815260048101849052602481018390526044810182905292955090935091506001600160a01b037f000000000000000000000000000000000000000000000000000000000000000016906305bed04690606401600060405180830381600087803b158015610ea557600080fd5b505af1158015610eb9573d6000803e3d6000fd5b50505050610ec5611db4565b505050565b6001546001600160a01b0316635dbe47e8336040516001600160e01b031960e084901b1681526001600160a01b03909116600482015260240160206040518083038186803b158015610f1b57600080fd5b505afa158015610f2f573d6000803e3d6000fd5b505050506040513d601f19601f82011682018060405250810190610f539190613531565b610f6f5760405162461bcd60e51b81526004016104f4906136af565b610f796000611f21565b610f84600019611f21565b565b7f00000000000000000000000000000000000000000000000000000000000000006001600160a01b0316630c340a246040518163ffffffff1660e01b815260040160206040518083038186803b158015610fdf57600080fd5b505afa158015610ff3573d6000803e3d6000fd5b505050506040513d601f19601f8201168201806040525081019061101791906133ef565b6001600160a01b0316336001600160a01b0316146110475760405162461bcd60e51b81526004016104f4906136df565b600360009054906101000a90046001600160a01b03166001600160a01b031663c2fba6676040518163ffffffff1660e01b815260040160206040518083038186803b15801561109557600080fd5b505afa1580156110a9573d6000803e3d6000fd5b505050506040513d601f19601f820116820180604052508101906110cd9190613563565b81106111125760405162461bcd60e51b81526020600482015260146024820152730d2dcecc2d8d2c85ae4deeae8cae45ad2dcc8caf60631b60448201526064016104f4565b8161111d5760045491505b603b82116111655760405162461bcd60e51b81526020600482015260156024820152741a5b9d985b1a590b5bdc9858db194b5c195c9a5bd9605a1b60448201526064016104f4565b6004546005546040805192835260208301859052820152606081018290527f83bc5ab8030537fcf1d29c2334f6d22c26c82dcbe5ff03923d2cff5c692c0a7f9060800160405180910390a1600491909155600555565b6001546001600160a01b0316635dbe47e8336040516001600160e01b031960e084901b1681526001600160a01b03909116600482015260240160206040518083038186803b15801561120c57600080fd5b505afa158015611220573d6000803e3d6000fd5b505050506040513d601f19601f820116820180604052508101906112449190613531565b6112605760405162461bcd60e51b81526004016104f4906136af565b610f846120eb565b337f00000000000000000000000000000000000000000000000000000000000000006001600160a01b0316146112dc5760405162461bcd60e51b815260206004820152601960248201527818d85b1b195c8b5a5ccb5b9bdd0b5d995cdc195c8b5c1bdbdb603a1b60448201526064016104f4565b6001600160a01b0381166113325760405162461bcd60e51b815260206004820152601c60248201527f6e65772d73747261746567792d616464726573732d69732d7a65726f0000000060448201526064016104f4565b7f00000000000000000000000000000000000000000000000000000000000000006001600160a01b0316816001600160a01b03166316f0115b6040518163ffffffff1660e01b815260040160206040518083038186803b15801561139557600080fd5b505afa1580156113a9573d6000803e3d6000fd5b505050506040513d601f19601f820116820180604052508101906113cd91906133ef565b6001600160a01b03161461141c5760405162461bcd60e51b81526020600482015260166024820152756e6f742d76616c69642d6e65772d737472617465677960501b60448201526064016104f4565b611425816122a6565b6000546040516370a0823160e01b81523060048201526114b99183916001600160a01b03909116906370a082319060240160206040518083038186803b15801561146e57600080fd5b505afa158015611482573d6000803e3d6000fd5b505050506040513d601f19601f820116820180604052508101906114a69190613563565b6000546001600160a01b0316919061234e565b6040516370a0823160e01b81523060048201526105bf9082906001600160a01b037f000000000000000000000000000000000000000000000000000000000000000016906370a08231906024015b60206040518083038186803b15801561151f57600080fd5b505afa158015611533573d6000803e3d6000fd5b505050506040513d601f19601f820116820180604052508101906115579190613563565b6001600160a01b037f000000000000000000000000000000000000000000000000000000000000000016919061234e565b7f00000000000000000000000000000000000000000000000000000000000000006001600160a01b0316630c340a246040518163ffffffff1660e01b815260040160206040518083038186803b1580156115e157600080fd5b505afa1580156115f5573d6000803e3d6000fd5b505050506040513d601f19601f8201168201806040525081019061161991906133ef565b6001600160a01b0316336001600160a01b0316146116495760405162461bcd60e51b81526004016104f4906136df565b6001600160a01b03811661169f5760405162461bcd60e51b815260206004820152601d60248201527f6665652d636f6c6c6563746f722d616464726573732d69732d7a65726f00000060448201526064016104f4565b6002546001600160a01b03828116911614156116f55760405162461bcd60e51b81526020600482015260156024820152746665652d636f6c6c6563746f722d69732d73616d6560581b60448201526064016104f4565b6002546040516001600160a01b038084169216907f0f06062680f9bd68e786e9980d9bb03d73d5620fc3b345e417b6eacb310b970690600090a3600280546001600160a01b0319166001600160a01b0392909216919091179055565b60405163331faf7160e21b81523060048201526000908190733d9819210a31b4961b30ef54be2aed79b9c9cd3b9063cc7ebdc49060240160206040518083038186803b1580156117a057600080fd5b505afa1580156117b4573d6000803e3d6000fd5b505050506040513d601f19601f820116820180604052508101906117d89190613563565b905080156118a3576003546040516340b4c54560e11b81526001600160a01b03909116906381698a8a9061184b9073c00e94cb662c3520282e6f5717214004a7f26888907f000000000000000000000000000000000000000000000000000000000000000090869060009060040161362f565b60006040518083038186803b15801561186357600080fd5b505afa158015611877573d6000803e3d6000fd5b505050506040513d6000823e601f3d908101601f1916820160405261189f919081019061340b565b9250505b6007546040516370a0823160e01b8152306004820152611926916001600160a01b0316906370a08231906024015b60206040518083038186803b1580156118e957600080fd5b505afa1580156118fd573d6000803e3d6000fd5b505050506040513d601f19601f820116820180604052508101906119219190613563565b6123b1565b61193090836137a7565b91505090565b6001546001600160a01b0316635dbe47e8336040516001600160e01b031960e084901b1681526001600160a01b03909116600482015260240160206040518083038186803b15801561198757600080fd5b505afa15801561199b573d6000803e3d6000fd5b505050506040513d601f19601f820116820180604052508101906119bf9190613531565b6119db5760405162461bcd60e51b81526004016104f4906136af565b6002546001600160a01b0316611a2b5760405162461bcd60e51b81526020600482015260156024820152741999594b58dbdb1b1958dd1bdc8b5b9bdd0b5cd95d605a1b60448201526064016104f4565b7f00000000000000000000000000000000000000000000000000000000000000006001600160a01b0316816001600160a01b03161415611aad5760405162461bcd60e51b815260206004820152601f60248201527f6e6f742d616c6c6f7765642d746f2d73776565702d636f6c6c61746572616c0060448201526064016104f4565b611ab681610a39565b15611afa5760405162461bcd60e51b815260206004820152601460248201527306e6f742d616c6c6f7765642d746f2d73776565760641b60448201526064016104f4565b6001600160a01b03811673eeeeeeeeeeeeeeeeeeeeeeeeeeeeeeeeeeeeeeee1415611b3a57600254611b35906001600160a01b031647612456565b6105bf565b6040516370a0823160e01b81523060048201526000906001600160a01b038316906370a082319060240160206040518083038186803b158015611b7c57600080fd5b505afa158015611b90573d6000803e3d6000fd5b505050506040513d601f19601f82011682018060405250810190611bb49190613563565b600254909150610838906001600160a01b0384811691168361234e565b611bda8161256f565b506040516370a0823160e01b81523060048201526105bf907f0000000000000000000000000000000000000000000000000000000000000000906001600160a01b037f000000000000000000000000000000000000000000000000000000000000000016906370a0823190602401611507565b604051636a9eee1360e11b81523060048201526000908190819081906001600160a01b037f0000000000000000000000000000000000000000000000000000000000000000169063d53ddc269060240160206040518083038186803b158015611cb557600080fd5b505afa158015611cc9573d6000803e3d6000fd5b505050506040513d601f19601f82011682018060405250810190611ced9190613563565b604051639f2b283360e01b81523060048201529091506000906001600160a01b037f00000000000000000000000000000000000000000000000000000000000000001690639f2b28339060240160206040518083038186803b158015611d5257600080fd5b505afa158015611d66573d6000803e3d6000fd5b505050506040513d601f19601f82011682018060405250810190611d8a9190613563565b9050611d95816125c6565b9450611da0816126d8565b9350611dab82612729565b92505050909192565b6040516370a0823160e01b81523060048201526000907f00000000000000000000000000000000000000000000000000000000000000006001600160a01b0316906370a082319060240160206040518083038186803b158015611e1657600080fd5b505afa158015611e2a573d6000803e3d6000fd5b505050506040513d601f19601f82011682018060405250810190611e4e9190613563565b905080156105bf5760075460405163140e25ad60e31b8152600481018390526001600160a01b039091169063a0712d6890602401602060405180830381600087803b158015611e9c57600080fd5b505af1158015611eb0573d6000803e3d6000fd5b505050506040513d601f19601f82011682018060405250810190611ed49190613563565b156105bf5760405162461bcd60e51b815260206004820152601a60248201527f6465706f7369742d746f2d636f6d706f756e642d6661696c656400000000000060448201526064016104f4565b611f756001600160a01b037f0000000000000000000000000000000000000000000000000000000000000000167f00000000000000000000000000000000000000000000000000000000000000008361273a565b600754611faf906001600160a01b037f0000000000000000000000000000000000000000000000000000000000000000811691168361273a565b60005b600360009054906101000a90046001600160a01b03166001600160a01b031663c2fba6676040518163ffffffff1660e01b815260040160206040518083038186803b15801561200057600080fd5b505afa158015612014573d6000803e3d6000fd5b505050506040513d601f19601f820116820180604052508101906120389190613563565b81101561083857600354604051636e74a6f760e01b8152600481018390526120d9916001600160a01b031690636e74a6f79060240160206040518083038186803b15801561208557600080fd5b505afa158015612099573d6000803e3d6000fd5b505050506040513d601f19601f820116820180604052508101906120bd91906133ef565b73c00e94cb662c3520282e6f5717214004a7f26888908461273a565b806120e381613845565b915050611fb2565b60035460048054600554604051630f30f2d360e21b81526001600160a01b0390941693633cc3cb4c9361214e9373c00e94cb662c3520282e6f5717214004a7f268889373c02aaa39b223fe8d0a0e5c4f27ead9083c756cc293919290910161362f565b602060405180830381600087803b15801561216857600080fd5b505af115801561217c573d6000803e3d6000fd5b505050506040513d601f19601f820116820180604052508101906121a091906133ef565b507f00000000000000000000000000000000000000000000000000000000000000006001600160a01b031673c02aaa39b223fe8d0a0e5c4f27ead9083c756cc214610f845760035460048054600554604051630f30f2d360e21b81526001600160a01b0390941693633cc3cb4c936122549373c02aaa39b223fe8d0a0e5c4f27ead9083c756cc2937f000000000000000000000000000000000000000000000000000000000000000093919290910161362f565b602060405180830381600087803b15801561226e57600080fd5b505af1158015612282573d6000803e3d6000fd5b505050506040513d601f19601f820116820180604052508101906105bf91906133ef565b6122ae61285e565b6040516370a0823160e01b81523060048201526105bf90829073c00e94cb662c3520282e6f5717214004a7f26888906370a082319060240160206040518083038186803b1580156122fe57600080fd5b505afa158015612312573d6000803e3d6000fd5b505050506040513d601f19601f820116820180604052508101906123369190613563565b73c00e94cb662c3520282e6f5717214004a7f2688891905b6040516001600160a01b038316602482015260448101829052610ec590849063a9059cbb60e01b906064015b60408051601f198184030181529190526020810180516001600160e01b03166001600160e01b031990931692909217909152612933565b6000670de0b6b3a7640000600760009054906101000a90046001600160a01b03166001600160a01b031663182df0f56040518163ffffffff1660e01b815260040160206040518083038186803b15801561240a57600080fd5b505afa15801561241e573d6000803e3d6000fd5b505050506040513d601f19601f820116820180604052508101906124429190613563565b61244c90846137df565b610a7491906137bf565b804710156124a65760405162461bcd60e51b815260206004820152601d60248201527f416464726573733a20696e73756666696369656e742062616c616e636500000060448201526064016104f4565b6000826001600160a01b03168260405160006040518083038185875af1925050503d80600081146124f3576040519150601f19603f3d011682016040523d82523d6000602084013e6124f8565b606091505b5050905080610ec55760405162461bcd60e51b815260206004820152603a60248201527f416464726573733a20756e61626c6520746f2073656e642076616c75652c207260448201527f6563697069656e74206d6179206861766520726576657274656400000000000060648201526084016104f4565b6007546040516370a0823160e01b815230600482015260009182916125a6916001600160a01b0316906370a08231906024016118d1565b90506125bf8184106125b857816125ba565b835b612a05565b9392505050565b60006125f17f0000000000000000000000000000000000000000000000000000000000000000612adc565b6007546040516370a0823160e01b8152306004820152600091612628916001600160a01b03909116906370a08231906024016118d1565b9050828111156126415761263f6125ba84836137fe565b505b6040516370a0823160e01b81523060048201527f00000000000000000000000000000000000000000000000000000000000000006001600160a01b0316906370a082319060240160206040518083038186803b1580156126a057600080fd5b505afa1580156126b4573d6000803e3d6000fd5b505050506040513d601f19601f820116820180604052508101906125bf9190613563565b6007546040516370a0823160e01b8152306004820152600091829161270f916001600160a01b0316906370a08231906024016118d1565b905082811015612723576125bf81846137fe565b50919050565b60008115610a7757610a748261256f565b8015806127c35750604051636eb1769f60e11b81523060048201526001600160a01b03838116602483015284169063dd62ed3e9060440160206040518083038186803b15801561278957600080fd5b505afa15801561279d573d6000803e3d6000fd5b505050506040513d601f19601f820116820180604052508101906127c19190613563565b155b61282e5760405162461bcd60e51b815260206004820152603660248201527f5361666545524332303a20617070726f76652066726f6d206e6f6e2d7a65726f60448201527520746f206e6f6e2d7a65726f20616c6c6f77616e636560501b60648201526084016104f4565b6040516001600160a01b038316602482015260448101829052610ec590849063095ea7b360e01b9060640161237a565b60408051600180825281830190925260009160208083019080368337505060075482519293506001600160a01b0316918391506000906128ae57634e487b7160e01b600052603260045260246000fd5b6001600160a01b039092166020928302919091019091015260405162e1ed9760e51b8152733d9819210a31b4961b30ef54be2aed79b9c9cd3b90631c3db2e0906128fe9030908590600401613658565b600060405180830381600087803b15801561291857600080fd5b505af115801561292c573d6000803e3d6000fd5b5050505050565b6000612988826040518060400160405280602081526020017f5361666545524332303a206c6f772d6c6576656c2063616c6c206661696c6564815250856001600160a01b0316612bda9092919063ffffffff16565b805190915015610ec557808060200190518101906129a69190613531565b610ec55760405162461bcd60e51b815260206004820152602a60248201527f5361666545524332303a204552433230206f7065726174696f6e20646964206e6044820152691bdd081cdd58d8d9595960b21b60648201526084016104f4565b60008115612ad85760075460405163852a12e360e01b8152600481018490526001600160a01b039091169063852a12e390602401602060405180830381600087803b158015612a5357600080fd5b505af1158015612a67573d6000803e3d6000fd5b505050506040513d601f19601f82011682018060405250810190612a8b9190613563565b15612ad85760405162461bcd60e51b815260206004820152601d60248201527f77697468647261772d66726f6d2d636f6d706f756e642d6661696c656400000060448201526064016104f4565b5090565b612ae461285e565b6040516370a0823160e01b815230600482015260009073c00e94cb662c3520282e6f5717214004a7f26888906370a082319060240160206040518083038186803b158015612b3157600080fd5b505afa158015612b45573d6000803e3d6000fd5b505050506040513d601f19601f82011682018060405250810190612b699190613563565b905080156108385760006006546127101415612b86576001612bb8565b612bb8612bb0612baa73c00e94cb662c3520282e6f5717214004a7f2688886612bf1565b84612dea565b600654612f15565b9050610ec573c00e94cb662c3520282e6f5717214004a7f26888848484612f38565b6060612be984846000856130f9565b949350505050565b60606001600160a01b03831673c02aaa39b223fe8d0a0e5c4f27ead9083c756cc21480612c3a57506001600160a01b03821673c02aaa39b223fe8d0a0e5c4f27ead9083c756cc2145b15612ce85760408051600280825260608201835290916020830190803683370190505090508281600081518110612c8157634e487b7160e01b600052603260045260246000fd5b60200260200101906001600160a01b031690816001600160a01b0316815250508181600181518110612cc357634e487b7160e01b600052603260045260246000fd5b60200260200101906001600160a01b031690816001600160a01b031681525050612de4565b6040805160038082526080820190925290602082016060803683370190505090508281600081518110612d2b57634e487b7160e01b600052603260045260246000fd5b60200260200101906001600160a01b031690816001600160a01b03168152505073c02aaa39b223fe8d0a0e5c4f27ead9083c756cc281600181518110612d8157634e487b7160e01b600052603260045260246000fd5b60200260200101906001600160a01b031690816001600160a01b0316815250508181600281518110612dc357634e487b7160e01b600052603260045260246000fd5b60200260200101906001600160a01b031690816001600160a01b0316815250505b92915050565b60006001835111612e335760405162461bcd60e51b81526020600482015260136024820152720d2dcecc2d8d2c85adee4c2c6d8ca5ae0c2e8d606b1b60448201526064016104f4565b50806000805b60018551612e4791906137fe565b811015612f0d57612eb3858281518110612e7157634e487b7160e01b600052603260045260246000fd5b602002602001015186836001612e8791906137a7565b81518110612ea557634e487b7160e01b600052603260045260246000fd5b602002602001015185613221565b909350915081612efb5760405162461bcd60e51b8152602060048201526013602482015272696e76616c69642d6f7261636c652d7261746560681b60448201526064016104f4565b80612f0581613845565b915050612e39565b505092915050565b6000612710612f2483826137fe565b612f2e90856137df565b6125bf91906137bf565b600354604051631d1f307960e31b81526001600160a01b038681166004830152858116602483015260448201859052600092839283929091169063e8f983c89060640160006040518083038186803b158015612f9357600080fd5b505afa158015612fa7573d6000803e3d6000fd5b505050506040513d6000823e601f3d908101601f19168201604052612fcf9190810190613450565b9250925092508360001415612fe357600193505b81156130f057600354604051636e74a6f760e01b8152600481018390526001600160a01b0390911690636e74a6f79060240160206040518083038186803b15801561302d57600080fd5b505afa158015613041573d6000803e3d6000fd5b505050506040513d601f19601f8201168201806040525081019061306591906133ef565b6001600160a01b03166338ed173986868630426040518663ffffffff1660e01b8152600401613098959493929190613716565b600060405180830381600087803b1580156130b257600080fd5b505af11580156130c6573d6000803e3d6000fd5b505050506040513d6000823e601f3d908101601f191682016040526130ee919081019061349e565b505b50505050505050565b60608247101561315a5760405162461bcd60e51b815260206004820152602660248201527f416464726573733a20696e73756666696369656e742062616c616e636520666f6044820152651c8818d85b1b60d21b60648201526084016104f4565b843b6131a85760405162461bcd60e51b815260206004820152601d60248201527f416464726573733a2063616c6c20746f206e6f6e2d636f6e747261637400000060448201526064016104f4565b600080866001600160a01b031685876040516131c49190613613565b60006040518083038185875af1925050503d8060008114613201576040519150601f19603f3d011682016040523d82523d6000602084013e613206565b606091505b5091509150613216828286613312565b979650505050505050565b6003546004805460055460405163b67bb24d60e01b81526001600160a01b038881169482019490945286841660248201526044810186905260648101929092526084820152600092839283928392919091169063b67bb24d9060a401606060405180830381600087803b15801561329757600080fd5b505af11580156132ab573d6000803e3d6000fd5b505050506040513d601f19601f820116820180604052508101906132cf919061359c565b5091509150600454426132e291906137fe565b811180156132ef57508115155b15613300575091506001905061330a565b6000809350935050505b935093915050565b606083156133215750816125bf565b8251156133315782518084602001fd5b8160405162461bcd60e51b81526004016104f4919061367c565b600082601f83011261335b578081fd5b8151602061337061336b83613783565b613752565b80838252828201915082860187848660051b890101111561338f578586fd5b855b858110156133b65781516133a48161388c565b84529284019290840190600101613391565b5090979650505050505050565b80518015158114610a7757600080fd5b6000602082840312156133e4578081fd5b81356125bf8161388c565b600060208284031215613400578081fd5b81516125bf8161388c565b6000806040838503121561341d578081fd5b825167ffffffffffffffff811115613433578182fd5b61343f8582860161334b565b925050602083015190509250929050565b600080600060608486031215613464578081fd5b835167ffffffffffffffff81111561347a578182fd5b6134868682870161334b565b93505060208401519150604084015190509250925092565b600060208083850312156134b0578182fd5b825167ffffffffffffffff8111156134c6578283fd5b8301601f810185136134d6578283fd5b80516134e461336b82613783565b80828252848201915084840188868560051b8701011115613503578687fd5b8694505b83851015613525578051835260019490940193918501918501613507565b50979650505050505050565b600060208284031215613542578081fd5b6125bf826133c3565b60006020828403121561355c578081fd5b5035919050565b600060208284031215613574578081fd5b5051919050565b6000806040838503121561358d578182fd5b50508035926020909101359150565b6000806000606084860312156135b0578283fd5b83519250602084015191506135c7604085016133c3565b90509250925092565b6000815180845260208085019450808401835b838110156136085781516001600160a01b0316875295820195908201906001016135e3565b509495945050505050565b60008251613625818460208701613815565b9190910192915050565b6001600160a01b0394851681529290931660208301526040820152606081019190915260800190565b6001600160a01b0383168152604060208201819052600090612be9908301846135d0565b600060208252825180602084015261369b816040850160208701613815565b601f01601f19169190910160400192915050565b60208082526016908201527531b0b63632b916b4b996b737ba16b096b5b2b2b832b960511b604082015260600190565b6020808252601a908201527f63616c6c65722d69732d6e6f742d7468652d676f7665726e6f72000000000000604082015260600190565b600086825285602083015260a0604083015261373560a08301866135d0565b6001600160a01b0394909416606083015250608001529392505050565b604051601f8201601f1916810167ffffffffffffffff8111828210171561377b5761377b613876565b604052919050565b600067ffffffffffffffff82111561379d5761379d613876565b5060051b60200190565b600082198211156137ba576137ba613860565b500190565b6000826137da57634e487b7160e01b81526012600452602481fd5b500490565b60008160001904831182151516156137f9576137f9613860565b500290565b60008282101561381057613810613860565b500390565b60005b83811015613830578181015183820152602001613818565b8381111561383f576000848401525b50505050565b600060001982141561385957613859613860565b5060010190565b634e487b7160e01b600052601160045260246000fd5b634e487b7160e01b600052604160045260246000fd5b6001600160a01b03811681146105bf57600080fdfea26469706673582212206dc7e852340e5901c2e4e680e77070926bc9217efa5245671a56f54a33df4a6c64736f6c63430008030033",
  "devdoc": {
    "kind": "dev",
    "methods": {
      "addKeeper(address)": {
        "params": {
          "_keeperAddress": "keeper address to add."
        }
      },
      "approveToken()": {
        "details": "Approve all required tokens"
      },
      "convertFrom18(uint256)": {
        "details": "Convert from 18 decimals to token defined decimals. Default no conversion."
      },
      "init(address)": {
        "params": {
          "_addressListFactory": "To support same code in eth side chain, user _addressListFactory as param ethereum- 0xded8217De022706A191eE7Ee0Dc9df1185Fb5dA3 polygon-0xD10D5696A350D65A9AA15FE8B258caB4ab1bF291"
        }
      },
      "migrate(address)": {
        "details": "_beforeMigration hook can be implemented in child strategy to do extra steps.",
        "params": {
          "_newStrategy": "Address of new strategy"
        }
      },
      "rebalance()": {
        "details": "Rebalance profit, loss and investment of this strategy"
      },
      "removeKeeper(address)": {
        "params": {
          "_keeperAddress": "keeper address to remove."
        }
      },
      "sweepERC20(address)": {
        "details": "sweep given token to feeCollector of strategy",
        "params": {
          "_fromToken": "token address to sweep"
        }
      },
      "totalValue()": {
        "details": "Report total value in collateral token"
      },
      "updateFeeCollector(address)": {
        "params": {
          "_feeCollector": "fee collector address"
        }
      },
      "updateSwapManager(address)": {
        "params": {
          "_swapManager": "swap manager address"
        }
      },
      "withdraw(uint256)": {
        "details": "Withdraw collateral token from lending pool.",
        "params": {
          "_amount": "Amount of collateral token"
        }
      }
    },
    "title": "Deposit DAI in Compound and earn interest.",
    "version": 1
  },
  "userdoc": {
    "kind": "user",
    "methods": {
      "addKeeper(address)": {
        "notice": "Add given address in keepers list."
      },
      "init(address)": {
        "notice": "Create keeper list NOTE: Any function with onlyKeeper modifier will not work until this function is called. NOTE: Due to gas constraint this function cannot be called in constructor."
      },
      "isReservedToken(address)": {
        "notice": "Check whether given token is reserved or not. Reserved tokens are not allowed to sweep."
      },
      "migrate(address)": {
        "notice": "Migrate all asset and vault ownership,if any, to new strategy"
      },
      "removeKeeper(address)": {
        "notice": "Remove given address from keepers list."
      },
      "token()": {
        "notice": "Returns address of token correspond to collateral token"
      },
      "totalValue()": {
        "notice": "Calculate total value using COMP accrued and cToken"
      },
      "updateFeeCollector(address)": {
        "notice": "Update fee collector"
      },
      "updateSwapManager(address)": {
        "notice": "Update swap manager address"
      }
    },
    "version": 1
  },
  "storageLayout": {
    "storage": [
      {
        "astId": 10129,
        "contract": "contracts/strategies/compound/CompoundStrategyDAI.sol:CompoundStrategyDAI",
        "label": "receiptToken",
        "offset": 0,
        "slot": "0",
        "type": "t_address"
      },
      {
        "astId": 10135,
        "contract": "contracts/strategies/compound/CompoundStrategyDAI.sol:CompoundStrategyDAI",
        "label": "keepers",
        "offset": 0,
        "slot": "1",
        "type": "t_contract(IAddressList)3647"
      },
      {
        "astId": 10138,
        "contract": "contracts/strategies/compound/CompoundStrategyDAI.sol:CompoundStrategyDAI",
        "label": "feeCollector",
        "offset": 0,
        "slot": "2",
        "type": "t_address"
      },
      {
        "astId": 10141,
        "contract": "contracts/strategies/compound/CompoundStrategyDAI.sol:CompoundStrategyDAI",
        "label": "swapManager",
        "offset": 0,
        "slot": "3",
        "type": "t_contract(ISwapManager)3950"
      },
      {
        "astId": 10144,
        "contract": "contracts/strategies/compound/CompoundStrategyDAI.sol:CompoundStrategyDAI",
        "label": "oraclePeriod",
        "offset": 0,
        "slot": "4",
        "type": "t_uint256"
      },
      {
        "astId": 10147,
        "contract": "contracts/strategies/compound/CompoundStrategyDAI.sol:CompoundStrategyDAI",
        "label": "oracleRouterIdx",
        "offset": 0,
        "slot": "5",
        "type": "t_uint256"
      },
      {
        "astId": 10150,
        "contract": "contracts/strategies/compound/CompoundStrategyDAI.sol:CompoundStrategyDAI",
        "label": "swapSlippage",
        "offset": 0,
        "slot": "6",
        "type": "t_uint256"
      },
      {
        "astId": 14319,
        "contract": "contracts/strategies/compound/CompoundStrategyDAI.sol:CompoundStrategyDAI",
        "label": "cToken",
        "offset": 0,
        "slot": "7",
        "type": "t_contract(CToken)4026"
      }
    ],
    "types": {
      "t_address": {
        "encoding": "inplace",
        "label": "address",
        "numberOfBytes": "20"
      },
      "t_contract(CToken)4026": {
        "encoding": "inplace",
        "label": "contract CToken",
        "numberOfBytes": "20"
      },
      "t_contract(IAddressList)3647": {
        "encoding": "inplace",
        "label": "contract IAddressList",
        "numberOfBytes": "20"
      },
      "t_contract(ISwapManager)3950": {
        "encoding": "inplace",
        "label": "contract ISwapManager",
        "numberOfBytes": "20"
      },
      "t_uint256": {
        "encoding": "inplace",
        "label": "uint256",
        "numberOfBytes": "32"
      }
    }
  }
}