{
  "address": "0x6d7746336DeF5Dd009CEe7cef9A0331495e64153",
  "abi": [
    {
      "anonymous": false,
      "inputs": [
        {
          "indexed": false,
          "internalType": "uint256",
          "name": "reward",
          "type": "uint256"
        }
      ],
      "name": "RewardAdded",
      "type": "event"
    },
    {
      "anonymous": false,
      "inputs": [
        {
          "indexed": true,
          "internalType": "address",
          "name": "user",
          "type": "address"
        },
        {
          "indexed": false,
          "internalType": "uint256",
          "name": "reward",
          "type": "uint256"
        }
      ],
      "name": "RewardPaid",
      "type": "event"
    },
    {
      "inputs": [],
      "name": "GRACE_PERIOD",
      "outputs": [
        {
          "internalType": "uint256",
          "name": "",
          "type": "uint256"
        }
      ],
      "stateMutability": "view",
      "type": "function"
    },
    {
      "inputs": [
        {
          "internalType": "address",
          "name": "account",
          "type": "address"
        }
      ],
      "name": "claimReward",
      "outputs": [],
      "stateMutability": "nonpayable",
      "type": "function"
    },
    {
      "inputs": [
        {
          "internalType": "address",
          "name": "account",
          "type": "address"
        }
      ],
      "name": "claimable",
      "outputs": [
        {
          "internalType": "uint256",
          "name": "",
          "type": "uint256"
        }
      ],
      "stateMutability": "view",
      "type": "function"
    },
    {
      "inputs": [
        {
          "internalType": "address",
          "name": "_pool",
          "type": "address"
        },
        {
          "internalType": "address",
          "name": "_rewardToken",
          "type": "address"
        }
      ],
      "name": "initialize",
      "outputs": [],
      "stateMutability": "nonpayable",
      "type": "function"
    },
    {
      "inputs": [],
      "name": "lastTimeRewardApplicable",
      "outputs": [
        {
          "internalType": "uint256",
          "name": "",
          "type": "uint256"
        }
      ],
      "stateMutability": "view",
      "type": "function"
    },
    {
      "inputs": [],
      "name": "lastUpdateTime",
      "outputs": [
        {
          "internalType": "uint256",
          "name": "",
          "type": "uint256"
        }
      ],
      "stateMutability": "view",
      "type": "function"
    },
    {
      "inputs": [
        {
          "internalType": "uint256",
          "name": "rewardAmount",
          "type": "uint256"
        },
        {
          "internalType": "uint256",
          "name": "_rewardDuration",
          "type": "uint256"
        }
      ],
      "name": "notifyRewardAmount",
      "outputs": [],
      "stateMutability": "nonpayable",
      "type": "function"
    },
    {
      "inputs": [],
      "name": "periodFinish",
      "outputs": [
        {
          "internalType": "uint256",
          "name": "",
          "type": "uint256"
        }
      ],
      "stateMutability": "view",
      "type": "function"
    },
    {
      "inputs": [],
      "name": "pool",
      "outputs": [
        {
          "internalType": "address",
          "name": "",
          "type": "address"
        }
      ],
      "stateMutability": "view",
      "type": "function"
    },
    {
      "inputs": [],
      "name": "rewardDuration",
      "outputs": [
        {
          "internalType": "uint256",
          "name": "",
          "type": "uint256"
        }
      ],
      "stateMutability": "view",
      "type": "function"
    },
    {
      "inputs": [],
      "name": "rewardForDuration",
      "outputs": [
        {
          "internalType": "uint256",
          "name": "",
          "type": "uint256"
        }
      ],
      "stateMutability": "view",
      "type": "function"
    },
    {
      "inputs": [],
      "name": "rewardPerToken",
      "outputs": [
        {
          "internalType": "uint256",
          "name": "",
          "type": "uint256"
        }
      ],
      "stateMutability": "view",
      "type": "function"
    },
    {
      "inputs": [],
      "name": "rewardPerTokenStored",
      "outputs": [
        {
          "internalType": "uint256",
          "name": "",
          "type": "uint256"
        }
      ],
      "stateMutability": "view",
      "type": "function"
    },
    {
      "inputs": [],
      "name": "rewardRate",
      "outputs": [
        {
          "internalType": "uint256",
          "name": "",
          "type": "uint256"
        }
      ],
      "stateMutability": "view",
      "type": "function"
    },
    {
      "inputs": [],
      "name": "rewardToken",
      "outputs": [
        {
          "internalType": "address",
          "name": "",
          "type": "address"
        }
      ],
      "stateMutability": "view",
      "type": "function"
    },
    {
      "inputs": [
        {
          "internalType": "address",
          "name": "",
          "type": "address"
        }
      ],
      "name": "rewards",
      "outputs": [
        {
          "internalType": "uint256",
          "name": "",
          "type": "uint256"
        }
      ],
      "stateMutability": "view",
      "type": "function"
    },
    {
      "inputs": [
        {
          "internalType": "address",
          "name": "_account",
          "type": "address"
        }
      ],
      "name": "updateReward",
      "outputs": [],
      "stateMutability": "nonpayable",
      "type": "function"
    },
    {
      "inputs": [
        {
          "internalType": "address",
          "name": "",
          "type": "address"
        }
      ],
      "name": "userRewardPerTokenPaid",
      "outputs": [
        {
          "internalType": "uint256",
          "name": "",
          "type": "uint256"
        }
      ],
      "stateMutability": "view",
      "type": "function"
    }
  ],
  "transactionHash": "0x331aa76b563a6b9a4c6ad4873fd7348666c433471807b278dbef05e899ed7365",
  "args": [],
  "solcInputHash": "0240e10ff10f0a265cf318dbea06484c",
  "bytecode": "0x608060405234801561001057600080fd5b506001805561106e806100246000396000f3fe608060405234801561001057600080fd5b50600436106101165760003560e01c80638b876347116100a2578063d279c19111610071578063d279c1911461021b578063df136d651461022e578063ebe2b12b14610237578063f520e7e514610240578063f7c618c11461024957610116565b80638b876347146101e0578063c1a287e214610200578063c8f33c911461020a578063cd3daf9d1461021357610116565b8063485cc955116100e9578063485cc955146101a1578063632447c9146101b45780636946a235146101c75780637b0a47ee146101cf57806380faa57d146101d857610116565b80630700037d1461011b57806316f0115b1461014e578063246132f914610179578063402914f51461018e575b600080fd5b61013b610129366004610e57565b600a6020526000908152604090205481565b6040519081526020015b60405180910390f35b600254610161906001600160a01b031681565b6040516001600160a01b039091168152602001610145565b61018c610187366004610eff565b61025c565b005b61013b61019c366004610e57565b610346565b61018c6101af366004610e8f565b610447565b61018c6101c2366004610e57565b6105cf565b61013b610635565b61013b60055481565b61013b61064d565b61013b6101ee366004610e57565b60096020526000908152604090205481565b61013b62278d0081565b61013b60075481565b61013b610665565b61018c610229366004610e57565b6107d6565b61013b60085481565b61013b60045481565b61013b60065481565b600354610161906001600160a01b031681565b600260009054906101000a90046001600160a01b03166001600160a01b0316630c340a246040518163ffffffff1660e01b815260040160206040518083038186803b1580156102aa57600080fd5b505afa1580156102be573d6000803e3d6000fd5b505050506040513d601f19601f820116820180604052508101906102e29190610e73565b6001600160a01b0316336001600160a01b0316146103385760405162461bcd60e51b815260206004820152600e60248201526d1b9bdd0b585d5d1a1bdc9a5e995960921b60448201526064015b60405180910390fd5b6103428282610953565b5050565b6002546040516370a0823160e01b81526001600160a01b03838116600483015260009283929116906370a082319060240160206040518083038186803b15801561038f57600080fd5b505afa1580156103a3573d6000803e3d6000fd5b505050506040513d601f19601f820116820180604052508101906103c79190610ee7565b6001600160a01b038416600090815260096020526040812054919250906103ec610665565b6103f69190610fc6565b90506000670de0b6b3a764000061040d8385610fa7565b6104179190610f87565b6001600160a01b0386166000908152600a602052604090205490915061043e908290610f6f565b95945050505050565b600054610100900460ff1680610460575060005460ff16155b6104c35760405162461bcd60e51b815260206004820152602e60248201527f496e697469616c697a61626c653a20636f6e747261637420697320616c72656160448201526d191e481a5b9a5d1a585b1a5e995960921b606482015260840161032f565b600054610100900460ff161580156104e5576000805461ffff19166101011790555b6001600160a01b0383166105325760405162461bcd60e51b8152602060048201526014602482015273706f6f6c2d616464726573732d69732d7a65726f60601b604482015260640161032f565b6001600160a01b0382166105885760405162461bcd60e51b815260206004820152601b60248201527f726577617264546f6b656e2d616464726573732d69732d7a65726f0000000000604482015260640161032f565b600280546001600160a01b038086166001600160a01b031992831617909255600380549285169290911691909117905580156105ca576000805461ff00191690555b505050565b6002546001600160a01b031633146106295760405162461bcd60e51b815260206004820152601b60248201527f6f6e6c792d706f6f6c2d63616e2d7570646174652d7265776172640000000000604482015260640161032f565b61063281610b74565b50565b60006006546005546106479190610fa7565b90505b90565b6000600454421061066057600454610647565b504290565b600254604080516318160ddd60e01b815290516000926001600160a01b0316916318160ddd916004808301926020929190829003018186803b1580156106aa57600080fd5b505afa1580156106be573d6000803e3d6000fd5b505050506040513d601f19601f820116820180604052508101906106e29190610ee7565b6106ef575060085461064a565b60006007546106fc61064d565b6107069190610fc6565b90506000600554826107189190610fa7565b90506000600260009054906101000a90046001600160a01b03166001600160a01b03166318160ddd6040518163ffffffff1660e01b815260040160206040518083038186803b15801561076a57600080fd5b505afa15801561077e573d6000803e3d6000fd5b505050506040513d601f19601f820116820180604052508101906107a29190610ee7565b6107b483670de0b6b3a7640000610fa7565b6107be9190610f87565b9050806008546107ce9190610f6f565b935050505090565b600260015414156108295760405162461bcd60e51b815260206004820152601f60248201527f5265656e7472616e637947756172643a207265656e7472616e742063616c6c00604482015260640161032f565b600260015561083781610b74565b6001600160a01b0381166000908152600a602052604090205480158015906108d957506003546040516370a0823160e01b81523060048201526001600160a01b03909116906370a082319060240160206040518083038186803b15801561089d57600080fd5b505afa1580156108b1573d6000803e3d6000fd5b505050506040513d601f19601f820116820180604052508101906108d59190610ee7565b8111155b1561094b576001600160a01b038083166000908152600a602052604081205560035461090791168383610bd0565b816001600160a01b03167fe2403640ba68fed3a2f88b7557551d1993f84b99bb10ff833f0cf8db0c5e04868260405161094291815260200190565b60405180910390a25b505060018055565b6003546001600160a01b03166109a35760405162461bcd60e51b81526020600482015260156024820152741c995dd85c991ccb5d1bdad95b8b5b9bdd0b5cd95d605a1b604482015260640161032f565b600081116109f35760405162461bcd60e51b815260206004820152601960248201527f696e636f72726563742d7265776172642d6475726174696f6e00000000000000604482015260640161032f565b6109fd6000610b74565b6004544210610a1857610a108183610f87565b600555610a57565b600042600454610a289190610fc6565b9050600060055482610a3a9190610fa7565b905082610a478286610f6f565b610a519190610f87565b60055550505b6003546040516370a0823160e01b81523060048201526000916001600160a01b0316906370a082319060240160206040518083038186803b158015610a9b57600080fd5b505afa158015610aaf573d6000803e3d6000fd5b505050506040513d601f19601f82011682018060405250810190610ad39190610ee7565b9050610adf8282610f87565b6005541115610b235760405162461bcd60e51b815260206004820152601060248201526f0e4caeec2e4c8e65ae8dede5ad0d2ced60831b604482015260640161032f565b6006829055426007819055610b39908390610f6f565b6004556040518381527fde88a922e0d3b88b24e9623efeb464919c6bf9f66857a65e2bfcf2ce87a9433d9060200160405180910390a1505050565b610b7c610665565b600855610b8761064d565b6007556001600160a01b0381161561063257610ba281610346565b6001600160a01b0382166000908152600a602090815260408083209390935560085460099091529190205550565b604080516001600160a01b03848116602483015260448083018590528351808403909101815260649092018352602080830180516001600160e01b031663a9059cbb60e01b17905283518085019094528084527f5361666545524332303a206c6f772d6c6576656c2063616c6c206661696c6564908401526105ca92869291600091610c60918516908490610cdd565b8051909150156105ca5780806020019051810190610c7e9190610ec7565b6105ca5760405162461bcd60e51b815260206004820152602a60248201527f5361666545524332303a204552433230206f7065726174696f6e20646964206e6044820152691bdd081cdd58d8d9595960b21b606482015260840161032f565b6060610cec8484600085610cf6565b90505b9392505050565b606082471015610d575760405162461bcd60e51b815260206004820152602660248201527f416464726573733a20696e73756666696369656e742062616c616e636520666f6044820152651c8818d85b1b60d21b606482015260840161032f565b843b610da55760405162461bcd60e51b815260206004820152601d60248201527f416464726573733a2063616c6c20746f206e6f6e2d636f6e7472616374000000604482015260640161032f565b600080866001600160a01b03168587604051610dc19190610f20565b60006040518083038185875af1925050503d8060008114610dfe576040519150601f19603f3d011682016040523d82523d6000602084013e610e03565b606091505b5091509150610e13828286610e1e565b979650505050505050565b60608315610e2d575081610cef565b825115610e3d5782518084602001fd5b8160405162461bcd60e51b815260040161032f9190610f3c565b600060208284031215610e68578081fd5b8135610cef81611023565b600060208284031215610e84578081fd5b8151610cef81611023565b60008060408385031215610ea1578081fd5b8235610eac81611023565b91506020830135610ebc81611023565b809150509250929050565b600060208284031215610ed8578081fd5b81518015158114610cef578182fd5b600060208284031215610ef8578081fd5b5051919050565b60008060408385031215610f11578182fd5b50508035926020909101359150565b60008251610f32818460208701610fdd565b9190910192915050565b6000602082528251806020840152610f5b816040850160208701610fdd565b601f01601f19169190910160400192915050565b60008219821115610f8257610f8261100d565b500190565b600082610fa257634e487b7160e01b81526012600452602481fd5b500490565b6000816000190483118215151615610fc157610fc161100d565b500290565b600082821015610fd857610fd861100d565b500390565b60005b83811015610ff8578181015183820152602001610fe0565b83811115611007576000848401525b50505050565b634e487b7160e01b600052601160045260246000fd5b6001600160a01b038116811461063257600080fdfea2646970667358221220328360f2ec9a28f8db2b984c29d20a5f67ed6dc39e3a23685ef9b9dec2cb6e3364736f6c63430008030033",
  "devdoc": {
    "kind": "dev",
    "methods": {
      "claimReward(address)": {
        "details": "Claim earned rewards."
      },
      "claimable(address)": {
        "details": "Returns claimable reward amount."
      },
      "initialize(address,address)": {
        "details": "Called by proxy to initialize this contract",
        "params": {
          "_pool": "Vesper pool address",
          "_rewardToken": "VSP token address"
        }
      },
      "lastTimeRewardApplicable()": {
        "details": "Returns timestamp of last reward update"
      },
      "notifyRewardAmount(uint256,uint256)": {
        "details": "Notify that reward is added. Also updates reward rate and reward earning period."
      },
      "updateReward(address)": {
        "details": "Updated reward for given account. Only Pool can call"
      }
    },
    "version": 1
  },
  "userdoc": {
    "events": {
      "RewardAdded(uint256)": {
        "notice": "Emitted after reward added"
      },
      "RewardPaid(address,uint256)": {
        "notice": "Emitted whenever any user claim rewards"
      }
    },
    "kind": "user",
    "methods": {
      "GRACE_PERIOD()": {
        "notice": "Once reward end is triggered, owner has to wait at least grace period to expire before he can withdraw remaining reward."
      },
      "lastUpdateTime()": {
        "notice": "Last reward drip update time stamp"
      },
      "periodFinish()": {
        "notice": "Where is current reward period ending"
      },
      "pool()": {
        "notice": "Vesper pool address"
      },
      "rewardDuration()": {
        "notice": "Duration of current reward distribution"
      },
      "rewardPerTokenStored()": {
        "notice": "Reward per token calculated and stored at last drip update"
      },
      "rewardRate()": {
        "notice": "Current reward rate"
      },
      "rewardToken()": {
        "notice": "Reward token address, mostly it will be VSP"
      },
      "rewards(address)": {
        "notice": "User => Rewards earned till last reward update"
      },
      "userRewardPerTokenPaid(address)": {
        "notice": "User => Reward per token stored at last reward update"
      }
    },
    "version": 1
  },
  "storageLayout": {
    "storage": [
      {
        "astId": 887,
        "contract": "contracts/pool/PoolRewards.sol:PoolRewards",
        "label": "_initialized",
        "offset": 0,
        "slot": "0",
        "type": "t_bool"
      },
      {
        "astId": 890,
        "contract": "contracts/pool/PoolRewards.sol:PoolRewards",
        "label": "_initializing",
        "offset": 1,
        "slot": "0",
        "type": "t_bool"
      },
      {
        "astId": 938,
        "contract": "contracts/pool/PoolRewards.sol:PoolRewards",
        "label": "_status",
        "offset": 0,
        "slot": "1",
        "type": "t_uint256"
      },
      {
        "astId": 7739,
        "contract": "contracts/pool/PoolRewards.sol:PoolRewards",
        "label": "pool",
        "offset": 0,
        "slot": "2",
        "type": "t_address"
      },
      {
        "astId": 7742,
        "contract": "contracts/pool/PoolRewards.sol:PoolRewards",
        "label": "rewardToken",
        "offset": 0,
        "slot": "3",
        "type": "t_address"
      },
      {
        "astId": 7749,
        "contract": "contracts/pool/PoolRewards.sol:PoolRewards",
        "label": "periodFinish",
        "offset": 0,
        "slot": "4",
        "type": "t_uint256"
      },
      {
        "astId": 7752,
        "contract": "contracts/pool/PoolRewards.sol:PoolRewards",
        "label": "rewardRate",
        "offset": 0,
        "slot": "5",
        "type": "t_uint256"
      },
      {
        "astId": 7755,
        "contract": "contracts/pool/PoolRewards.sol:PoolRewards",
        "label": "rewardDuration",
        "offset": 0,
        "slot": "6",
        "type": "t_uint256"
      },
      {
        "astId": 7758,
        "contract": "contracts/pool/PoolRewards.sol:PoolRewards",
        "label": "lastUpdateTime",
        "offset": 0,
        "slot": "7",
        "type": "t_uint256"
      },
      {
        "astId": 7761,
        "contract": "contracts/pool/PoolRewards.sol:PoolRewards",
        "label": "rewardPerTokenStored",
        "offset": 0,
        "slot": "8",
        "type": "t_uint256"
      },
      {
        "astId": 7766,
        "contract": "contracts/pool/PoolRewards.sol:PoolRewards",
        "label": "userRewardPerTokenPaid",
        "offset": 0,
        "slot": "9",
        "type": "t_mapping(t_address,t_uint256)"
      },
      {
        "astId": 7771,
        "contract": "contracts/pool/PoolRewards.sol:PoolRewards",
        "label": "rewards",
        "offset": 0,
        "slot": "10",
        "type": "t_mapping(t_address,t_uint256)"
      }
    ],
    "types": {
      "t_address": {
        "encoding": "inplace",
        "label": "address",
        "numberOfBytes": "20"
      },
      "t_bool": {
        "encoding": "inplace",
        "label": "bool",
        "numberOfBytes": "1"
      },
      "t_mapping(t_address,t_uint256)": {
        "encoding": "mapping",
        "key": "t_address",
        "label": "mapping(address => uint256)",
        "numberOfBytes": "32",
        "value": "t_uint256"
      },
      "t_uint256": {
        "encoding": "inplace",
        "label": "uint256",
        "numberOfBytes": "32"
      }
    }
  }
}