{
  "address": "0xBE699fE81a8a4edb135e47BB5885A51FC58F0C39",
  "abi": [
    {
      "inputs": [
        {
          "internalType": "address",
          "name": "_pool",
          "type": "address"
        },
        {
          "internalType": "address",
          "name": "_swapManager",
          "type": "address"
        },
        {
          "internalType": "address",
          "name": "_receiptToken",
          "type": "address"
        }
      ],
      "stateMutability": "nonpayable",
      "type": "constructor"
    },
    {
      "anonymous": false,
      "inputs": [
        {
          "indexed": false,
          "internalType": "uint256",
          "name": "previousMinBorrowRatio",
          "type": "uint256"
        },
        {
          "indexed": false,
          "internalType": "uint256",
          "name": "newMinBorrowRatio",
          "type": "uint256"
        },
        {
          "indexed": false,
          "internalType": "uint256",
          "name": "previousMaxBorrowRatio",
          "type": "uint256"
        },
        {
          "indexed": false,
          "internalType": "uint256",
          "name": "newMaxBorrowRatio",
          "type": "uint256"
        }
      ],
      "name": "UpdatedBorrowRatio",
      "type": "event"
    },
    {
      "anonymous": false,
      "inputs": [
        {
          "indexed": true,
          "internalType": "address",
          "name": "previousFeeCollector",
          "type": "address"
        },
        {
          "indexed": true,
          "internalType": "address",
          "name": "newFeeCollector",
          "type": "address"
        }
      ],
      "name": "UpdatedFeeCollector",
      "type": "event"
    },
    {
      "anonymous": false,
      "inputs": [
        {
          "indexed": false,
          "internalType": "uint256",
          "name": "oldPeriod",
          "type": "uint256"
        },
        {
          "indexed": false,
          "internalType": "uint256",
          "name": "newPeriod",
          "type": "uint256"
        },
        {
          "indexed": false,
          "internalType": "uint256",
          "name": "oldRouterIdx",
          "type": "uint256"
        },
        {
          "indexed": false,
          "internalType": "uint256",
          "name": "newRouterIdx",
          "type": "uint256"
        }
      ],
      "name": "UpdatedOracleConfig",
      "type": "event"
    },
    {
      "anonymous": false,
      "inputs": [
        {
          "indexed": true,
          "internalType": "address",
          "name": "previousSwapManager",
          "type": "address"
        },
        {
          "indexed": true,
          "internalType": "address",
          "name": "newSwapManager",
          "type": "address"
        }
      ],
      "name": "UpdatedSwapManager",
      "type": "event"
    },
    {
      "anonymous": false,
      "inputs": [
        {
          "indexed": false,
          "internalType": "uint256",
          "name": "oldSwapSlippage",
          "type": "uint256"
        },
        {
          "indexed": false,
          "internalType": "uint256",
          "name": "newSwapSlippage",
          "type": "uint256"
        }
      ],
      "name": "UpdatedSwapSlippage",
      "type": "event"
    },
    {
      "inputs": [],
      "name": "NAME",
      "outputs": [
        {
          "internalType": "string",
          "name": "",
          "type": "string"
        }
      ],
      "stateMutability": "view",
      "type": "function"
    },
    {
      "inputs": [],
      "name": "VERSION",
      "outputs": [
        {
          "internalType": "string",
          "name": "",
          "type": "string"
        }
      ],
      "stateMutability": "view",
      "type": "function"
    },
    {
      "inputs": [
        {
          "internalType": "address",
          "name": "_keeperAddress",
          "type": "address"
        }
      ],
      "name": "addKeeper",
      "outputs": [],
      "stateMutability": "nonpayable",
      "type": "function"
    },
    {
      "inputs": [],
      "name": "approveToken",
      "outputs": [],
      "stateMutability": "nonpayable",
      "type": "function"
    },
    {
      "inputs": [
        {
          "internalType": "address",
          "name": "_sender",
          "type": "address"
        },
        {
          "components": [
            {
              "internalType": "address",
              "name": "owner",
              "type": "address"
            },
            {
              "internalType": "uint256",
              "name": "number",
              "type": "uint256"
            }
          ],
          "internalType": "struct Account.Info",
          "name": "",
          "type": "tuple"
        },
        {
          "internalType": "bytes",
          "name": "_callData",
          "type": "bytes"
        }
      ],
      "name": "callFunction",
      "outputs": [],
      "stateMutability": "nonpayable",
      "type": "function"
    },
    {
      "inputs": [],
      "name": "collateralToken",
      "outputs": [
        {
          "internalType": "contract IERC20",
          "name": "",
          "type": "address"
        }
      ],
      "stateMutability": "view",
      "type": "function"
    },
    {
      "inputs": [],
      "name": "currentBorrowRatio",
      "outputs": [
        {
          "internalType": "uint256",
          "name": "",
          "type": "uint256"
        }
      ],
      "stateMutability": "view",
      "type": "function"
    },
    {
      "inputs": [],
      "name": "dyDxMarketId",
      "outputs": [
        {
          "internalType": "uint256",
          "name": "",
          "type": "uint256"
        }
      ],
      "stateMutability": "view",
      "type": "function"
    },
    {
      "inputs": [
        {
          "internalType": "address[]",
          "name": "",
          "type": "address[]"
        },
        {
          "internalType": "uint256[]",
          "name": "_amounts",
          "type": "uint256[]"
        },
        {
          "internalType": "uint256[]",
          "name": "_premiums",
          "type": "uint256[]"
        },
        {
          "internalType": "address",
          "name": "_initiator",
          "type": "address"
        },
        {
          "internalType": "bytes",
          "name": "_data",
          "type": "bytes"
        }
      ],
      "name": "executeOperation",
      "outputs": [
        {
          "internalType": "bool",
          "name": "",
          "type": "bool"
        }
      ],
      "stateMutability": "nonpayable",
      "type": "function"
    },
    {
      "inputs": [],
      "name": "feeCollector",
      "outputs": [
        {
          "internalType": "address",
          "name": "",
          "type": "address"
        }
      ],
      "stateMutability": "view",
      "type": "function"
    },
    {
      "inputs": [],
      "name": "getPosition",
      "outputs": [
        {
          "internalType": "uint256",
          "name": "_supply",
          "type": "uint256"
        },
        {
          "internalType": "uint256",
          "name": "_borrow",
          "type": "uint256"
        }
      ],
      "stateMutability": "view",
      "type": "function"
    },
    {
      "inputs": [],
      "name": "isAaveActive",
      "outputs": [
        {
          "internalType": "bool",
          "name": "",
          "type": "bool"
        }
      ],
      "stateMutability": "view",
      "type": "function"
    },
    {
      "inputs": [],
      "name": "isDyDxActive",
      "outputs": [
        {
          "internalType": "bool",
          "name": "",
          "type": "bool"
        }
      ],
      "stateMutability": "view",
      "type": "function"
    },
    {
      "inputs": [],
      "name": "isLossMaking",
      "outputs": [
        {
          "internalType": "bool",
          "name": "",
          "type": "bool"
        }
      ],
      "stateMutability": "nonpayable",
      "type": "function"
    },
    {
      "inputs": [
        {
          "internalType": "address",
          "name": "_token",
          "type": "address"
        }
      ],
      "name": "isReservedToken",
      "outputs": [
        {
          "internalType": "bool",
          "name": "",
          "type": "bool"
        }
      ],
      "stateMutability": "view",
      "type": "function"
    },
    {
      "inputs": [],
      "name": "keepers",
      "outputs": [
        {
          "internalType": "address[]",
          "name": "",
          "type": "address[]"
        }
      ],
      "stateMutability": "view",
      "type": "function"
    },
    {
      "inputs": [],
      "name": "maxBorrowRatio",
      "outputs": [
        {
          "internalType": "uint256",
          "name": "",
          "type": "uint256"
        }
      ],
      "stateMutability": "view",
      "type": "function"
    },
    {
      "inputs": [
        {
          "internalType": "address",
          "name": "_newStrategy",
          "type": "address"
        }
      ],
      "name": "migrate",
      "outputs": [],
      "stateMutability": "nonpayable",
      "type": "function"
    },
    {
      "inputs": [],
      "name": "minBorrowRatio",
      "outputs": [
        {
          "internalType": "uint256",
          "name": "",
          "type": "uint256"
        }
      ],
      "stateMutability": "view",
      "type": "function"
    },
    {
      "inputs": [],
      "name": "oraclePeriod",
      "outputs": [
        {
          "internalType": "uint256",
          "name": "",
          "type": "uint256"
        }
      ],
      "stateMutability": "view",
      "type": "function"
    },
    {
      "inputs": [],
      "name": "oracleRouterIdx",
      "outputs": [
        {
          "internalType": "uint256",
          "name": "",
          "type": "uint256"
        }
      ],
      "stateMutability": "view",
      "type": "function"
    },
    {
      "inputs": [],
      "name": "pool",
      "outputs": [
        {
          "internalType": "address",
          "name": "",
          "type": "address"
        }
      ],
      "stateMutability": "view",
      "type": "function"
    },
    {
      "inputs": [],
      "name": "rebalance",
      "outputs": [],
      "stateMutability": "nonpayable",
      "type": "function"
    },
    {
      "inputs": [],
      "name": "receiptToken",
      "outputs": [
        {
          "internalType": "address",
          "name": "",
          "type": "address"
        }
      ],
      "stateMutability": "view",
      "type": "function"
    },
    {
      "inputs": [
        {
          "internalType": "address",
          "name": "_keeperAddress",
          "type": "address"
        }
      ],
      "name": "removeKeeper",
      "outputs": [],
      "stateMutability": "nonpayable",
      "type": "function"
    },
    {
      "inputs": [],
      "name": "setupOracles",
      "outputs": [],
      "stateMutability": "nonpayable",
      "type": "function"
    },
    {
      "inputs": [],
      "name": "swapManager",
      "outputs": [
        {
          "internalType": "contract ISwapManager",
          "name": "",
          "type": "address"
        }
      ],
      "stateMutability": "view",
      "type": "function"
    },
    {
      "inputs": [],
      "name": "swapSlippage",
      "outputs": [
        {
          "internalType": "uint256",
          "name": "",
          "type": "uint256"
        }
      ],
      "stateMutability": "view",
      "type": "function"
    },
    {
      "inputs": [
        {
          "internalType": "address",
          "name": "_fromToken",
          "type": "address"
        }
      ],
      "name": "sweepERC20",
      "outputs": [],
      "stateMutability": "nonpayable",
      "type": "function"
    },
    {
      "inputs": [],
      "name": "token",
      "outputs": [
        {
          "internalType": "address",
          "name": "",
          "type": "address"
        }
      ],
      "stateMutability": "view",
      "type": "function"
    },
    {
      "inputs": [],
      "name": "totalValue",
      "outputs": [
        {
          "internalType": "uint256",
          "name": "_totalValue",
          "type": "uint256"
        }
      ],
      "stateMutability": "view",
      "type": "function"
    },
    {
      "inputs": [],
      "name": "totalValueCurrent",
      "outputs": [
        {
          "internalType": "uint256",
          "name": "_totalValue",
          "type": "uint256"
        }
      ],
      "stateMutability": "nonpayable",
      "type": "function"
    },
    {
      "inputs": [
        {
          "internalType": "bool",
          "name": "_status",
          "type": "bool"
        }
      ],
      "name": "updateAaveStatus",
      "outputs": [],
      "stateMutability": "nonpayable",
      "type": "function"
    },
    {
      "inputs": [
        {
          "internalType": "uint256",
          "name": "_minBorrowRatio",
          "type": "uint256"
        },
        {
          "internalType": "uint256",
          "name": "_maxBorrowRatio",
          "type": "uint256"
        }
      ],
      "name": "updateBorrowRatio",
      "outputs": [],
      "stateMutability": "nonpayable",
      "type": "function"
    },
    {
      "inputs": [
        {
          "internalType": "bool",
          "name": "_status",
          "type": "bool"
        }
      ],
      "name": "updateDyDxStatus",
      "outputs": [],
      "stateMutability": "nonpayable",
      "type": "function"
    },
    {
      "inputs": [
        {
          "internalType": "address",
          "name": "_feeCollector",
          "type": "address"
        }
      ],
      "name": "updateFeeCollector",
      "outputs": [],
      "stateMutability": "nonpayable",
      "type": "function"
    },
    {
      "inputs": [
        {
          "internalType": "uint256",
          "name": "_newPeriod",
          "type": "uint256"
        },
        {
          "internalType": "uint256",
          "name": "_newRouterIdx",
          "type": "uint256"
        }
      ],
      "name": "updateOracleConfig",
      "outputs": [],
      "stateMutability": "nonpayable",
      "type": "function"
    },
    {
      "inputs": [
        {
          "internalType": "address",
          "name": "_swapManager",
          "type": "address"
        }
      ],
      "name": "updateSwapManager",
      "outputs": [],
      "stateMutability": "nonpayable",
      "type": "function"
    },
    {
      "inputs": [
        {
          "internalType": "uint256",
          "name": "_newSwapSlippage",
          "type": "uint256"
        }
      ],
      "name": "updateSwapSlippage",
      "outputs": [],
      "stateMutability": "nonpayable",
      "type": "function"
    },
    {
      "inputs": [
        {
          "internalType": "uint256",
          "name": "_amount",
          "type": "uint256"
        }
      ],
      "name": "withdraw",
      "outputs": [],
      "stateMutability": "nonpayable",
      "type": "function"
    }
  ],
  "transactionHash": "0x225f6b38f754d890f5250e72de60c7067140c761dfca07e1ac1f311f5bb31e71",
  "args": [
    "0x01e1d41C1159b745298724c5Fd3eAfF3da1C6efD",
    "0xe382d9f2394A359B01006faa8A1864b8a60d2710",
    "0xccF4429DB6322D5C611ee964527D42E5d685DD6a"
  ],
  "solcInputHash": "439081a66784645bdfe96aeef8211a1a",
  "bytecode": "0x60c0604052600080546001600160a01b03191673c02aaa39b223fe8d0a0e5c4f27ead9083c756cc2178155610e10600455600555612710600655600a805462ffffff19169055611388600b55611770600c553480156200005e57600080fd5b5060405162005f4438038062005f44833981016040819052620000819162000360565b8282828282826001600160a01b038316620000e35760405162461bcd60e51b815260206004820152601460248201527f706f6f6c2d616464726573732d69732d7a65726f00000000000000000000000060448201526064015b60405180910390fd5b6001600160a01b038216620001305760405162461bcd60e51b8152602060048201526012602482015271736d2d616464726573732d69732d7a65726f60701b6044820152606401620000da565b600380546001600160a01b0319166001600160a01b0384811691909117909155606084901b6001600160601b03191660a05260408051637e062a3560e11b815290519185169163fc0c546a91600480820192602092909190829003018186803b1580156200019d57600080fd5b505afa158015620001b2573d6000803e3d6000fd5b505050506040513d601f19601f82011682018060405250810190620001d89190620003b3565b60601b6001600160601b031916608052600180546001600160a01b0319166001600160a01b038316179055620002256200020f3390565b6007620002ee60201b62001f6e1790919060201c565b620002675760405162461bcd60e51b81526020600482015260116024820152701859190b5ad9595c195c8b59985a5b1959607a1b6044820152606401620000da565b5050506001600160a01b038116620002c25760405162461bcd60e51b815260206004820152601660248201527f63546f6b656e2d616464726573732d69732d7a65726f000000000000000000006044820152606401620000da565b600d80546001600160a01b0319166001600160a01b039290921691909117905550620003f29350505050565b600062000305836001600160a01b0384166200030e565b90505b92915050565b6000818152600183016020526040812054620003575750815460018181018455600084815260208082209093018490558454848252828601909352604090209190915562000308565b50600062000308565b60008060006060848603121562000375578283fd5b83516200038281620003d9565b60208501519093506200039581620003d9565b6040850151909250620003a881620003d9565b809150509250925092565b600060208284031215620003c5578081fd5b8151620003d281620003d9565b9392505050565b6001600160a01b0381168114620003ef57600080fd5b50565b60805160601c60a05160601c615a156200052f600039600081816102670152818161056601528181610682015281816106d20152818161085b01528181610a0e01528181610b3801528181610da6015281816110c2015281816111a401528181611404015281816114a1015281816116fe015281816118c701528181611d1401528181611fa401528181612039015281816120da01526126f301526000818161044b0152818161081f01528181610ad301528181611631015281816116d501528181611aa301528181612184015281816122c50152818161248f015281816125ad015281816126d1015281816127290152818161289401528181612a3b01528181612ad101528181612fcf015281816130e601528181613121015281816131d60152818161398201528181613a0e015261481f0152615a156000f3fe608060405234801561001057600080fd5b50600436106102485760003560e01c80639b7166a91161013b578063d3332539116100b8578063f23c47221161007c578063f23c472214610501578063f7c99bea14610513578063fc0c546a1461051c578063fef395d31461052d578063ffa1ad741461054057610248565b8063d3332539146104b8578063d4c3eea0146104cb578063e00af4a7146104d3578063e645c202146104e6578063ec78e832146104ee57610248565b8063b9098e3c116100ff578063b9098e3c1461046d578063c415b95c14610476578063cd2d7ebe14610489578063ce5494bb14610492578063d2c35ce8146104a557610248565b80639b7166a9146103d5578063a3f4df7e146103e2578063a923b2a61461042b578063aa1018861461043e578063b2016bd41461044657610248565b80635abda028116101c95780638b4187131161018d5780638b4187131461038a578063920f5c841461039d57806392986024146103b0578063951dc22c146103b857806399b71d5c146103cd57610248565b80635abda0281461033757806367f5e4b81461033f578063709d039d146103525780637398ab18146103655780637d7c2a1c1461038257610248565b80634032b72b116102105780634032b72b146102d257806342189c8f146102e5578063440d7248146102ee5780634c36fad714610311578063599e892a1461032457610248565b806314ae9f2e1461024d57806316f0115b146102625780631aedeabe1461029f5780632a049a21146102b65780632e1a7d4d146102bf575b600080fd5b61026061025b366004614de6565b610564565b005b6102897f000000000000000000000000000000000000000000000000000000000000000081565b60405161029691906154b1565b60405180910390f35b6102a860065481565b604051908152602001610296565b6102a8600c5481565b6102606102cd366004615284565b61067f565b6102606102e0366004614de6565b6106d0565b6102a860045481565b6103016102fc366004614de6565b6107dc565b6040519015158152602001610296565b61026061031f366004614de6565b610859565b610260610332366004615125565b610a0c565b6102a8610af7565b61026061034d366004615284565b610b36565b600354610289906001600160a01b031681565b61036d610c82565b60408051928352602083019190915201610296565b610260610d3c565b610260610398366004614e1e565b610e0f565b6103016103ab366004614ee9565b610eaf565b6103016110a8565b6103c0611155565b604051610296919061558b565b610260611166565b600a546103019060ff1681565b61041e6040518060400160405280601c81526020017f436f6d706f756e644c657665726167655374726174656779574254430000000081525081565b60405161029691906156f0565b6102606104393660046152e3565b6111a2565b6102606113d7565b6102897f000000000000000000000000000000000000000000000000000000000000000081565b6102a8600b5481565b600254610289906001600160a01b031681565b6102a860055481565b6102606104a0366004614de6565b611401565b6102606104b3366004614de6565b6116fc565b6102606104c6366004615125565b6118c5565b6102a8611999565b6102606104e1366004614de6565b611a2c565b6102a8611c50565b600154610289906001600160a01b031681565b600a5461030190610100900460ff1681565b6102a860095481565b6001546001600160a01b0316610289565b61026061053b3660046152e3565b611d12565b61041e60405180604001604052806005815260200164342e302e3160d81b81525081565b7f00000000000000000000000000000000000000000000000000000000000000006001600160a01b0316630c340a246040518163ffffffff1660e01b815260040160206040518083038186803b1580156105bd57600080fd5b505afa1580156105d1573d6000803e3d6000fd5b505050506040513d601f19601f820116820180604052508101906105f59190614e02565b6001600160a01b0316336001600160a01b03161461062e5760405162461bcd60e51b815260040161062590615795565b60405180910390fd5b610639600782611f8a565b61067c5760405162461bcd60e51b81526020600482015260146024820152731c995b5bdd994b5ad9595c195c8b59985a5b195960621b6044820152606401610625565b50565b337f00000000000000000000000000000000000000000000000000000000000000006001600160a01b0316146106c75760405162461bcd60e51b8152600401610625906157cc565b61067c81611f9f565b7f00000000000000000000000000000000000000000000000000000000000000006001600160a01b0316630c340a246040518163ffffffff1660e01b815260040160206040518083038186803b15801561072957600080fd5b505afa15801561073d573d6000803e3d6000fd5b505050506040513d601f19601f820116820180604052508101906107619190614e02565b6001600160a01b0316336001600160a01b0316146107915760405162461bcd60e51b815260040161062590615795565b61079c600782611f6e565b61067c5760405162461bcd60e51b81526020600482015260116024820152701859190b5ad9595c195c8b59985a5b1959607a1b6044820152606401610625565b600d546000906001600160a01b038381169116148061081757506001600160a01b03821673c00e94cb662c3520282e6f5717214004a7f26888145b8061085357507f00000000000000000000000000000000000000000000000000000000000000006001600160a01b0316826001600160a01b0316145b92915050565b7f00000000000000000000000000000000000000000000000000000000000000006001600160a01b0316630c340a246040518163ffffffff1660e01b815260040160206040518083038186803b1580156108b257600080fd5b505afa1580156108c6573d6000803e3d6000fd5b505050506040513d601f19601f820116820180604052508101906108ea9190614e02565b6001600160a01b0316336001600160a01b03161461091a5760405162461bcd60e51b815260040161062590615795565b6001600160a01b0381166109655760405162461bcd60e51b8152602060048201526012602482015271736d2d616464726573732d69732d7a65726f60701b6044820152606401610625565b6003546001600160a01b03828116911614156109b05760405162461bcd60e51b815260206004820152600a602482015269736d2d69732d73616d6560b01b6044820152606401610625565b6003546040516001600160a01b038084169216907f2d19927e7cac08ceb98b38898a4fdff6da6a27295b9a2d62fe250408ebe044e190600090a3600380546001600160a01b0319166001600160a01b0392909216919091179055565b7f00000000000000000000000000000000000000000000000000000000000000006001600160a01b0316630c340a246040518163ffffffff1660e01b815260040160206040518083038186803b158015610a6557600080fd5b505afa158015610a79573d6000803e3d6000fd5b505050506040513d601f19601f82011682018060405250810190610a9d9190614e02565b6001600160a01b0316336001600160a01b031614610acd5760405162461bcd60e51b815260040161062590615795565b61067c817f0000000000000000000000000000000000000000000000000000000000000000611fcc565b6000806000610b04610c82565b9150915080600014610b2c5781610b1d612710836158ed565b610b2791906158cd565b610b2f565b60005b9250505090565b7f00000000000000000000000000000000000000000000000000000000000000006001600160a01b0316630c340a246040518163ffffffff1660e01b815260040160206040518083038186803b158015610b8f57600080fd5b505afa158015610ba3573d6000803e3d6000fd5b505050506040513d601f19601f82011682018060405250810190610bc79190614e02565b6001600160a01b0316336001600160a01b031614610bf75760405162461bcd60e51b815260040161062590615795565b612710811115610c425760405162461bcd60e51b8152602060048201526016602482015275696e76616c69642d736c6970706167652d76616c756560501b6044820152606401610625565b60065460408051918252602082018390527ef1c5db862c7598b3b6765552ca951f498611e06412c2d57f8d0b58f82e7f82910160405180910390a1600655565b600d546040516361bfb47160e11b815260009182918291829182916001600160a01b03169063c37f68e290610cbb9030906004016154b1565b60806040518083038186803b158015610cd357600080fd5b505afa158015610ce7573d6000803e3d6000fd5b505050506040513d601f19601f82011682018060405250810190610d0b9190615304565b93509350935050670de0b6b3a76400008184610d2791906158ed565b610d3191906158cd565b959194509092505050565b610d49335b60079061200f565b610d655760405162461bcd60e51b81526004016106259061572e565b6000806000610d72612031565b6040516302df682360e11b815260048101849052602481018390526044810182905292955090935091506001600160a01b037f000000000000000000000000000000000000000000000000000000000000000016906305bed04690606401600060405180830381600087803b158015610dea57600080fd5b505af1158015610dfe573d6000803e3d6000fd5b50505050610e0a612475565b505050565b60008082806020019051810190610e269190615208565b909250905033731e0447b19bb6ecfdae1e4ae1694b0c3659614e4e14610e765760405162461bcd60e51b815260206004820152600560248201526421736f6c6f60d81b6044820152606401610625565b6001600160a01b0385163014610e9e5760405162461bcd60e51b815260040161062590615703565b610ea8828261258e565b5050505050565b600073b53c1a33016b2dc2ff3653530bff1848a515c8c56001600160a01b0316630261bf8b6040518163ffffffff1660e01b815260040160206040518083038186803b158015610efe57600080fd5b505afa158015610f12573d6000803e3d6000fd5b505050506040513d601f19601f82011682018060405250810190610f369190614e02565b6001600160a01b0316336001600160a01b031614610f835760405162461bcd60e51b815260206004820152600a6024820152690858585d994b5c1bdbdb60b21b6044820152606401610625565b600a5462010000900460ff16610fd05760405162461bcd60e51b815260206004820152601260248201527134b73b30b634b216b33630b9b416b637b0b760711b6044820152606401610625565b6001600160a01b0384163014610ff85760405162461bcd60e51b815260040161062590615703565b60008686600081811061101b57634e487b7160e01b600052603260045260246000fd5b905060200201358989600081811061104357634e487b7160e01b600052603260045260246000fd5b9050602002013561105491906158b5565b905061109784848080601f01602080910402602001604051908101604052809392919081815260200183838082843760009201919091525085925061258e915050565b5060019a9950505050505050505050565b604051639f2b283360e01b81526000906001600160a01b037f00000000000000000000000000000000000000000000000000000000000000001690639f2b2833906110f79030906004016154b1565b60206040518083038186803b15801561110f57600080fd5b505afa158015611123573d6000803e3d6000fd5b505050506040513d601f19601f82011682018060405250810190611147919061529c565b61114f611c50565b10905090565b606061116160076126b7565b905090565b61116f33610d41565b61118b5760405162461bcd60e51b81526004016106259061572e565b61119560006126c4565b6111a06000196126c4565b565b7f00000000000000000000000000000000000000000000000000000000000000006001600160a01b0316630c340a246040518163ffffffff1660e01b815260040160206040518083038186803b1580156111fb57600080fd5b505afa15801561120f573d6000803e3d6000fd5b505050506040513d601f19601f820116820180604052508101906112339190614e02565b6001600160a01b0316336001600160a01b0316146112635760405162461bcd60e51b815260040161062590615795565b600360009054906101000a90046001600160a01b03166001600160a01b031663c2fba6676040518163ffffffff1660e01b815260040160206040518083038186803b1580156112b157600080fd5b505afa1580156112c5573d6000803e3d6000fd5b505050506040513d601f19601f820116820180604052508101906112e9919061529c565b811061132e5760405162461bcd60e51b81526020600482015260146024820152730d2dcecc2d8d2c85ae4deeae8cae45ad2dcc8caf60631b6044820152606401610625565b816113395760045491505b603b82116113815760405162461bcd60e51b81526020600482015260156024820152741a5b9d985b1a590b5bdc9858db194b5c195c9a5bd9605a1b6044820152606401610625565b6004546005546040805192835260208301859052820152606081018290527f83bc5ab8030537fcf1d29c2334f6d22c26c82dcbe5ff03923d2cff5c692c0a7f9060800160405180910390a1600491909155600555565b6113e033610d41565b6113fc5760405162461bcd60e51b81526004016106259061572e565b6111a0565b337f00000000000000000000000000000000000000000000000000000000000000006001600160a01b0316146114495760405162461bcd60e51b8152600401610625906157cc565b6001600160a01b03811661149f5760405162461bcd60e51b815260206004820152601c60248201527f6e65772d73747261746567792d616464726573732d69732d7a65726f000000006044820152606401610625565b7f00000000000000000000000000000000000000000000000000000000000000006001600160a01b0316816001600160a01b03166316f0115b6040518163ffffffff1660e01b815260040160206040518083038186803b15801561150257600080fd5b505afa158015611516573d6000803e3d6000fd5b505050506040513d601f19601f8201168201806040525081019061153a9190614e02565b6001600160a01b0316146115895760405162461bcd60e51b81526020600482015260166024820152756e6f742d76616c69642d6e65772d737472617465677960501b6044820152606401610625565b611592816128b9565b6001546040516370a0823160e01b815261162b9183916001600160a01b03909116906370a08231906115c89030906004016154b1565b60206040518083038186803b1580156115e057600080fd5b505afa1580156115f4573d6000803e3d6000fd5b505050506040513d601f19601f82011682018060405250810190611618919061529c565b6001546001600160a01b03169190612991565b61067c817f00000000000000000000000000000000000000000000000000000000000000006001600160a01b03166370a08231306040518263ffffffff1660e01b815260040161167b91906154b1565b60206040518083038186803b15801561169357600080fd5b505afa1580156116a7573d6000803e3d6000fd5b505050506040513d601f19601f820116820180604052508101906116cb919061529c565b6001600160a01b037f0000000000000000000000000000000000000000000000000000000000000000169190612991565b7f00000000000000000000000000000000000000000000000000000000000000006001600160a01b0316630c340a246040518163ffffffff1660e01b815260040160206040518083038186803b15801561175557600080fd5b505afa158015611769573d6000803e3d6000fd5b505050506040513d601f19601f8201168201806040525081019061178d9190614e02565b6001600160a01b0316336001600160a01b0316146117bd5760405162461bcd60e51b815260040161062590615795565b6001600160a01b0381166118135760405162461bcd60e51b815260206004820152601d60248201527f6665652d636f6c6c6563746f722d616464726573732d69732d7a65726f0000006044820152606401610625565b6002546001600160a01b03828116911614156118695760405162461bcd60e51b81526020600482015260156024820152746665652d636f6c6c6563746f722d69732d73616d6560581b6044820152606401610625565b6002546040516001600160a01b038084169216907f0f06062680f9bd68e786e9980d9bb03d73d5620fc3b345e417b6eacb310b970690600090a3600280546001600160a01b0319166001600160a01b0392909216919091179055565b7f00000000000000000000000000000000000000000000000000000000000000006001600160a01b0316630c340a246040518163ffffffff1660e01b815260040160206040518083038186803b15801561191e57600080fd5b505afa158015611932573d6000803e3d6000fd5b505050506040513d601f19601f820116820180604052508101906119569190614e02565b6001600160a01b0316336001600160a01b0316146119865760405162461bcd60e51b815260040161062590615795565b600a805460ff191682151517905561067c565b60405163331faf7160e21b815260009061116190733d9819210a31b4961b30ef54be2aed79b9c9cd3b9063cc7ebdc4906119d79030906004016154b1565b60206040518083038186803b1580156119ef57600080fd5b505afa158015611a03573d6000803e3d6000fd5b505050506040513d601f19601f82011682018060405250810190611a27919061529c565b6129f4565b611a3533610d41565b611a515760405162461bcd60e51b81526004016106259061572e565b6002546001600160a01b0316611aa15760405162461bcd60e51b81526020600482015260156024820152741999594b58dbdb1b1958dd1bdc8b5b9bdd0b5cd95d605a1b6044820152606401610625565b7f00000000000000000000000000000000000000000000000000000000000000006001600160a01b0316816001600160a01b03161415611b235760405162461bcd60e51b815260206004820152601f60248201527f6e6f742d616c6c6f7765642d746f2d73776565702d636f6c6c61746572616c006044820152606401610625565b611b2c816107dc565b15611b705760405162461bcd60e51b815260206004820152601460248201527306e6f742d616c6c6f7765642d746f2d73776565760641b6044820152606401610625565b6001600160a01b03811673eeeeeeeeeeeeeeeeeeeeeeeeeeeeeeeeeeeeeeee1415611bb057600254611bab906001600160a01b031647612b92565b61067c565b6040516370a0823160e01b81526000906001600160a01b038316906370a0823190611bdf9030906004016154b1565b60206040518083038186803b158015611bf757600080fd5b505afa158015611c0b573d6000803e3d6000fd5b505050506040513d601f19601f82011682018060405250810190611c2f919061529c565b600254909150611c4c906001600160a01b03848116911683612991565b5050565b600d546040805163bd6d894d60e01b815290516000926001600160a01b03169163bd6d894d91600480830192602092919082900301818787803b158015611c9657600080fd5b505af1158015611caa573d6000803e3d6000fd5b505050506040513d601f19601f82011682018060405250810190611cce919061529c565b50611cd7612cab565b6040516370a0823160e01b81526111619073c00e94cb662c3520282e6f5717214004a7f26888906370a08231906119d79030906004016154b1565b7f00000000000000000000000000000000000000000000000000000000000000006001600160a01b0316630c340a246040518163ffffffff1660e01b815260040160206040518083038186803b158015611d6b57600080fd5b505afa158015611d7f573d6000803e3d6000fd5b505050506040513d601f19601f82011682018060405250810190611da39190614e02565b6001600160a01b0316336001600160a01b031614611dd35760405162461bcd60e51b815260040161062590615795565b600d54604051638e8f294b60e01b8152600091733d9819210a31b4961b30ef54be2aed79b9c9cd3b91638e8f294b91611e1a916001600160a01b03909116906004016154b1565b60606040518083038186803b158015611e3257600080fd5b505afa158015611e46573d6000803e3d6000fd5b505050506040513d601f19601f82011682018060405250810190611e6a919061515d565b509150611e7f9050655af3107a4000826158cd565b8210611ec85760405162461bcd60e51b81526020600482015260186024820152771a5b9d985b1a590b5b585e0b589bdc9c9bddcb5b1a5b5a5d60421b6044820152606401610625565b828211611f175760405162461bcd60e51b815260206004820152601d60248201527f6d61782d73686f756c642d62652d6869676865722d7468616e2d6d696e0000006044820152606401610625565b600b54600c546040805192835260208301869052820152606081018390527f0e68fa4c4a80a75427bcce81b711855825bd765ea0e6e15e330653b2437db78e9060800160405180910390a150600b91909155600c55565b6000611f83836001600160a01b038416612d79565b9392505050565b6000611f83836001600160a01b038416612dc8565b61067c7f00000000000000000000000000000000000000000000000000000000000000006116cb83612ee5565b8115611ff457611ff0731e0447b19bb6ecfdae1e4ae1694b0c3659614e4e82613271565b6009555b50600a80549115156101000261ff0019909216919091179055565b6001600160a01b03811660009081526001830160205260408120541515611f83565b6000806000807f00000000000000000000000000000000000000000000000000000000000000006001600160a01b031663d53ddc26306040518263ffffffff1660e01b815260040161208391906154b1565b60206040518083038186803b15801561209b57600080fd5b505afa1580156120af573d6000803e3d6000fd5b505050506040513d601f19601f820116820180604052508101906120d3919061529c565b90506000807f00000000000000000000000000000000000000000000000000000000000000006001600160a01b031663228bfd9f306040518263ffffffff1660e01b815260040161212491906154b1565b6101006040518083038186803b15801561213d57600080fd5b505afa158015612151573d6000803e3d6000fd5b505050506040513d601f19601f82011682018060405250810190612175919061519f565b975050509550505050506121a87f00000000000000000000000000000000000000000000000000000000000000006133f2565b600d54604051633af9e66960e01b81526000916001600160a01b031690633af9e669906121d99030906004016154b1565b602060405180830381600087803b1580156121f357600080fd5b505af1158015612207573d6000803e3d6000fd5b505050506040513d601f19601f8201168201806040525081019061222b919061529c565b600d546040516395dd919360e01b81529192506000916001600160a01b03909116906395dd9193906122619030906004016154b1565b60206040518083038186803b15801561227957600080fd5b505afa15801561228d573d6000803e3d6000fd5b505050506040513d601f19601f820116820180604052508101906122b1919061529c565b905060006122bf828461590c565b905060007f00000000000000000000000000000000000000000000000000000000000000006001600160a01b03166370a08231306040518263ffffffff1660e01b815260040161230f91906154b1565b60206040518083038186803b15801561232757600080fd5b505afa15801561233b573d6000803e3d6000fd5b505050506040513d601f19601f8201168201806040525081019061235f919061529c565b9050600061236d82846158b5565b90506000878211156123c757612383888361590c565b9b508b831161239d57612396838d61590c565b90506123c2565b6123a7898d6158b5565b83106123b5578899506123c2565b6123bf8c8461590c565b99505b6123d4565b6123d1828961590c565b9a505b60006123e08b8b61590c565b905060006123ee83836158b5565b9050801561242457600061240182612ee5565b90508381111561242257612415848261590c565b61241f908e6158b5565b9c505b505b61242c610c82565b90985096508815801561243e57508715155b8015612448575086155b15612465576124586000196134ab565b612462888f6158b5565b9d505b5050505050505050505050909192565b6040516370a0823160e01b81526000906001600160a01b037f000000000000000000000000000000000000000000000000000000000000000016906370a08231906124c49030906004016154b1565b60206040518083038186803b1580156124dc57600080fd5b505afa1580156124f0573d6000803e3d6000fd5b505050506040513d601f19601f82011682018060405250810190612514919061529c565b9050600080612524836001613665565b9150915061253183613864565b61253b828261392b565b612545908361590c565b915060005b60008311801561255b575060068111155b156125885761256a8383613a3e565b612574908461590c565b9250806125808161594f565b91505061254a565b50505050565b600080838060200190518101906125a591906152b4565b9150915060007f00000000000000000000000000000000000000000000000000000000000000006001600160a01b03166370a08231306040518263ffffffff1660e01b81526004016125f791906154b1565b60206040518083038186803b15801561260f57600080fd5b505afa158015612623573d6000803e3d6000fd5b505050506040513d601f19601f82011682018060405250810190612647919061529c565b9050828110156126885760405162461bcd60e51b815260206004820152600c60248201526b11931054d217d1905253115160a21b6044820152606401610625565b81156126a55761269783613b38565b6126a0846134ab565b610ea8565b6126ae81613864565b610ea884613bfe565b60606000611f8383613cc9565b6127186001600160a01b037f0000000000000000000000000000000000000000000000000000000000000000167f000000000000000000000000000000000000000000000000000000000000000083613d25565b600d54612752906001600160a01b037f00000000000000000000000000000000000000000000000000000000000000008116911683613d25565b60005b600360009054906101000a90046001600160a01b03166001600160a01b031663c2fba6676040518163ffffffff1660e01b815260040160206040518083038186803b1580156127a357600080fd5b505afa1580156127b7573d6000803e3d6000fd5b505050506040513d601f19601f820116820180604052508101906127db919061529c565b81101561288e57600354604051636e74a6f760e01b81526004810183905261287c916001600160a01b031690636e74a6f79060240160206040518083038186803b15801561282857600080fd5b505afa15801561283c573d6000803e3d6000fd5b505050506040513d601f19601f820116820180604052508101906128609190614e02565b73c00e94cb662c3520282e6f5717214004a7f268889084613d25565b806128868161594f565b915050612755565b5061067c7f000000000000000000000000000000000000000000000000000000000000000082613e49565b600d5460408051637e062a3560e11b815290516001600160a01b039283169284169163fc0c546a916004808301926020929190829003018186803b15801561290057600080fd5b505afa158015612914573d6000803e3d6000fd5b505050506040513d601f19601f820116820180604052508101906129389190614e02565b6001600160a01b0316146129845760405162461bcd60e51b81526020600482015260136024820152723bb937b73396b932b1b2b4b83a16ba37b5b2b760691b6044820152606401610625565b6000600b5561067c612475565b6040516001600160a01b038316602482015260448101829052610e0a90849063a9059cbb60e01b906064015b60408051601f198184030181529190526020810180516001600160e01b03166001600160e01b031990931692909217909152613f0a565b6000808215612abe57600354604051631d1f307960e31b81526001600160a01b039091169063e8f983c890612a659073c00e94cb662c3520282e6f5717214004a7f26888907f00000000000000000000000000000000000000000000000000000000000000009088906004016154c5565b60006040518083038186803b158015612a7d57600080fd5b505afa158015612a91573d6000803e3d6000fd5b505050506040513d6000823e601f3d908101601f19168201604052612ab99190810190614fe5565b509150505b600080612ac9610c82565b9150915080827f00000000000000000000000000000000000000000000000000000000000000006001600160a01b03166370a08231306040518263ffffffff1660e01b8152600401612b1b91906154b1565b60206040518083038186803b158015612b3357600080fd5b505afa158015612b47573d6000803e3d6000fd5b505050506040513d601f19601f82011682018060405250810190612b6b919061529c565b612b7590866158b5565b612b7f91906158b5565b612b89919061590c565b95945050505050565b80471015612be25760405162461bcd60e51b815260206004820152601d60248201527f416464726573733a20696e73756666696369656e742062616c616e63650000006044820152606401610625565b6000826001600160a01b03168260405160006040518083038185875af1925050503d8060008114612c2f576040519150601f19603f3d011682016040523d82523d6000602084013e612c34565b606091505b5050905080610e0a5760405162461bcd60e51b815260206004820152603a60248201527f416464726573733a20756e61626c6520746f2073656e642076616c75652c207260448201527f6563697069656e74206d617920686176652072657665727465640000000000006064820152608401610625565b604080516001808252818301909252600091602080830190803683375050600d5482519293506001600160a01b031691839150600090612cfb57634e487b7160e01b600052603260045260246000fd5b6001600160a01b039092166020928302919091019091015260405162e1ed9760e51b8152733d9819210a31b4961b30ef54be2aed79b9c9cd3b90631c3db2e090612d4b90309085906004016154e9565b600060405180830381600087803b158015612d6557600080fd5b505af1158015610ea8573d6000803e3d6000fd5b6000818152600183016020526040812054612dc057508154600181810184556000848152602080822090930184905584548482528286019093526040902091909155610853565b506000610853565b60008181526001830160205260408120548015612edb576000612dec60018361590c565b8554909150600090612e009060019061590c565b9050818114612e81576000866000018281548110612e2e57634e487b7160e01b600052603260045260246000fd5b9060005260206000200154905080876000018481548110612e5f57634e487b7160e01b600052603260045260246000fd5b6000918252602080832090910192909255918252600188019052604090208390555b8554869080612ea057634e487b7160e01b600052603160045260246000fd5b600190038181906000526020600020016000905590558560010160008681526020019081526020016000206000905560019350505050610853565b6000915050610853565b6000806000612ef5846000613665565b915091508015612fb557612f09828261392b565b612f13908361590c565b915060005b600083118015612f295750600a8111155b15612f5757612f39836001613a3e565b612f43908461590c565b925080612f4f8161594f565b915050612f18565b8215612fb357600080612f68610c82565b915091506000600c54600014612f9457600c54612f87612710846158ed565b612f9191906158cd565b90505b6000612fa0828561590c565b905080891115612fae578098505b505050505b505b6040516370a0823160e01b81526000906001600160a01b037f000000000000000000000000000000000000000000000000000000000000000016906370a08231906130049030906004016154b1565b60206040518083038186803b15801561301c57600080fd5b505afa158015613030573d6000803e3d6000fd5b505050506040513d601f19601f82011682018060405250810190613054919061529c565b600d54604051633af9e66960e01b81529192506001600160a01b031690633af9e669906130859030906004016154b1565b602060405180830381600087803b15801561309f57600080fd5b505af11580156130b3573d6000803e3d6000fd5b505050506040513d601f19601f820116820180604052508101906130d7919061529c565b8511156131b35750600061310a7f00000000000000000000000000000000000000000000000000000000000000006133f2565b6040516370a0823160e01b81526001600160a01b037f000000000000000000000000000000000000000000000000000000000000000016906370a08231906131569030906004016154b1565b60206040518083038186803b15801561316e57600080fd5b505afa158015613182573d6000803e3d6000fd5b505050506040513d601f19601f820116820180604052508101906131a6919061529c565b6131b0908661590c565b94505b6131bc856134ab565b6040516370a0823160e01b81526000906001600160a01b037f000000000000000000000000000000000000000000000000000000000000000016906370a082319061320b9030906004016154b1565b60206040518083038186803b15801561322357600080fd5b505afa158015613237573d6000803e3d6000fd5b505050506040513d601f19601f8201168201806040525081019061325b919061529c565b9050613267828261590c565b9695505050505050565b6000808390506000816001600160a01b031663295c39a56040518163ffffffff1660e01b815260040160206040518083038186803b1580156132b257600080fd5b505afa1580156132c6573d6000803e3d6000fd5b505050506040513d601f19601f820116820180604052508101906132ea919061529c565b90506000805b828110156133a95760405163062bd3e960e01b8152600481018290526001600160a01b0385169063062bd3e99060240160206040518083038186803b15801561333857600080fd5b505afa15801561334c573d6000803e3d6000fd5b505050506040513d601f19601f820116820180604052508101906133709190614e02565b9150856001600160a01b0316826001600160a01b0316141561339757935061085392505050565b806133a18161594f565b9150506132f0565b5060405162461bcd60e51b815260206004820152601b60248201527f6e6f2d6d61726b657449642d666f756e642d666f722d746f6b656e00000000006044820152606401610625565b6133fa612cab565b6040516370a0823160e01b815260009073c00e94cb662c3520282e6f5717214004a7f26888906370a08231906134349030906004016154b1565b60206040518083038186803b15801561344c57600080fd5b505afa158015613460573d6000803e3d6000fd5b505050506040513d601f19601f82011682018060405250810190613484919061529c565b90508015611c4c57611c4c73c00e94cb662c3520282e6f5717214004a7f268888383613fdc565b6000198114156135ca57600d546040516370a0823160e01b81526001600160a01b039091169063db006a759082906370a08231906134ed9030906004016154b1565b60206040518083038186803b15801561350557600080fd5b505afa158015613519573d6000803e3d6000fd5b505050506040513d601f19601f8201168201806040525081019061353d919061529c565b6040518263ffffffff1660e01b815260040161355b91815260200190565b602060405180830381600087803b15801561357557600080fd5b505af1158015613589573d6000803e3d6000fd5b505050506040513d601f19601f820116820180604052508101906135ad919061529c565b15611bab5760405162461bcd60e51b81526004016106259061575e565b600d5460405163852a12e360e01b8152600481018390526001600160a01b039091169063852a12e390602401602060405180830381600087803b15801561361057600080fd5b505af1158015613624573d6000803e3d6000fd5b505050506040513d601f19601f82011682018060405250810190613648919061529c565b1561067c5760405162461bcd60e51b81526004016106259061575e565b600d54604051633af9e66960e01b8152600091829182916001600160a01b031690633af9e6699061369a9030906004016154b1565b602060405180830381600087803b1580156136b457600080fd5b505af11580156136c8573d6000803e3d6000fd5b505050506040513d601f19601f820116820180604052508101906136ec919061529c565b600d546040516395dd919360e01b81529192506000916001600160a01b03909116906395dd9193906137229030906004016154b1565b60206040518083038186803b15801561373a57600080fd5b505afa15801561374e573d6000803e3d6000fd5b505050506040513d601f19601f82011682018060405250810190613772919061529c565b9050600b546000141561378c5792506001915061385d9050565b6000613798828461590c565b90506000866137be578782116137af5760006137b9565b6137b9888361590c565b6137c8565b6137c888836158b5565b90506000600c546127106137dc919061590c565b600c546137e990846158ed565b6137f391906158cd565b90506000600b54612710613807919061590c565b600b5461381490856158ed565b61381e91906158cd565b90508185111561383d5760019650613836818661590c565b9750613856565b808510156138565760009650613853858261590c565b97505b5050505050505b9250929050565b600d5460405163140e25ad60e31b8152600481018390526001600160a01b039091169063a0712d6890602401602060405180830381600087803b1580156138aa57600080fd5b505af11580156138be573d6000803e3d6000fd5b505050506040513d601f19601f820116820180604052508101906138e2919061529c565b1561067c5760405162461bcd60e51b81526020600482015260196024820152781cdd5c1c1b1e4b5d1bcb58dbdb5c1bdd5b990b59985a5b1959603a1b6044820152606401610625565b600a546000908190610100900460ff1680156139475750600084115b156139b8576000848460405160200161396c9291909182521515602082015260400190565b60405160208183030381529060405290506139a87f000000000000000000000000000000000000000000000000000000000000000086836140ad565b91506139b4828661590c565b9450505b600a5460ff1680156139c75750825b80156139d35750600084115b15611f8357600084846040516020016139f89291909182521515602082015260400190565b6040516020818303038152906040529050613a347f000000000000000000000000000000000000000000000000000000000000000086836143bb565b612b8990836158b5565b6000806000613a4b610c82565b91509150806000148015613a5c5750835b15613a6c57600092505050610853565b600d54604051638e8f294b60e01b8152600091733d9819210a31b4961b30ef54be2aed79b9c9cd3b91638e8f294b91613ab3916001600160a01b03909116906004016154b1565b60606040518083038186803b158015613acb57600080fd5b505afa158015613adf573d6000803e3d6000fd5b505050506040513d601f19601f82011682018060405250810190613b03919061515d565b509150508415613b2057613b198684848461475c565b9350613b2f565b613b2c868484846147c2565b93505b50505092915050565b600d5460405163073a938160e11b8152600481018390526001600160a01b0390911690630e75270290602401602060405180830381600087803b158015613b7e57600080fd5b505af1158015613b92573d6000803e3d6000fd5b505050506040513d601f19601f82011682018060405250810190613bb6919061529c565b1561067c5760405162461bcd60e51b81526020600482015260186024820152771c995c185e4b5d1bcb58dbdb5c1bdd5b990b59985a5b195960421b6044820152606401610625565b600d5460405163317afabb60e21b8152600481018390526001600160a01b039091169063c5ebeaec90602401602060405180830381600087803b158015613c4457600080fd5b505af1158015613c58573d6000803e3d6000fd5b505050506040513d601f19601f82011682018060405250810190613c7c919061529c565b1561067c5760405162461bcd60e51b815260206004820152601b60248201527f626f72726f772d66726f6d2d636f6d706f756e642d6661696c656400000000006044820152606401610625565b606081600001805480602002602001604051908101604052809291908181526020018280548015613d1957602002820191906000526020600020905b815481526020019060010190808311613d05575b50505050509050919050565b801580613dae5750604051636eb1769f60e11b81523060048201526001600160a01b03838116602483015284169063dd62ed3e9060440160206040518083038186803b158015613d7457600080fd5b505afa158015613d88573d6000803e3d6000fd5b505050506040513d601f19601f82011682018060405250810190613dac919061529c565b155b613e195760405162461bcd60e51b815260206004820152603660248201527f5361666545524332303a20617070726f76652066726f6d206e6f6e2d7a65726f60448201527520746f206e6f6e2d7a65726f20616c6c6f77616e636560501b6064820152608401610625565b6040516001600160a01b038316602482015260448101829052610e0a90849063095ea7b360e01b906064016129bd565b613e716001600160a01b038316731e0447b19bb6ecfdae1e4ae1694b0c3659614e4e83613d25565b611c4c73b53c1a33016b2dc2ff3653530bff1848a515c8c56001600160a01b0316630261bf8b6040518163ffffffff1660e01b815260040160206040518083038186803b158015613ec157600080fd5b505afa158015613ed5573d6000803e3d6000fd5b505050506040513d601f19601f82011682018060405250810190613ef99190614e02565b6001600160a01b0384169083613d25565b6000613f5f826040518060400160405280602081526020017f5361666545524332303a206c6f772d6c6576656c2063616c6c206661696c6564815250856001600160a01b03166148a99092919063ffffffff16565b805190915015610e0a5780806020019051810190613f7d9190615141565b610e0a5760405162461bcd60e51b815260206004820152602a60248201527f5361666545524332303a204552433230206f7065726174696f6e20646964206e6044820152691bdd081cdd58d8d9595960b21b6064820152608401610625565b60006006546127101415613ff157600161409f565b6040516358fac00360e01b81526001600160a01b0380861660048301526024820184905284166044820152610e10606482015261409f90730f1f5a87f99f0918e6c81f16e59f3518698221ff906358fac0039060840160206040518083038186803b15801561405f57600080fd5b505afa158015614073573d6000803e3d6000fd5b505050506040513d601f19601f82011682018060405250810190614097919061529c565b6006546148c0565b9050612588848484846148e3565b600a54600090610100900460ff166141075760405162461bcd60e51b815260206004820152601d60248201527f647964782d666c6173682d6c6f616e2d69732d6e6f742d6163746976650000006044820152606401610625565b6040516370a0823160e01b81526000906001600160a01b038616906370a082319061414a90731e0447b19bb6ecfdae1e4ae1694b0c3659614e4e906004016154b1565b60206040518083038186803b15801561416257600080fd5b505afa158015614176573d6000803e3d6000fd5b505050506040513d601f19601f8201168201806040525081019061419a919061529c565b9050808411156141a8578093505b60006141b58560026158b5565b9050600084826040516020016141cc9291906156ce565b60408051808303601f19018152600380845260808401909252925060009190816020015b6141f8614d2e565b8152602001906001900390816141f057905050905061421960095488614a9a565b8160008151811061423a57634e487b7160e01b600052603260045260246000fd5b602002602001018190525061424e82614b24565b8160018151811061426f57634e487b7160e01b600052603260045260246000fd5b602002602001018190525061428660095484614b92565b816002815181106142a757634e487b7160e01b600052603260045260246000fd5b6020908102919091010152604080516001808252818301909252600091816020015b60408051808201909152600080825260208201528152602001906001900390816142c9575050604080518082018252600080825260209182015281518083019092523082526001908201529091508160008151811061433857634e487b7160e01b600052603260045260246000fd5b602090810291909101015260405163a67a6a4560e01b8152731e0447b19bb6ecfdae1e4ae1694b0c3659614e4e9063a67a6a459061437c908490869060040161559e565b600060405180830381600087803b15801561439657600080fd5b505af11580156143aa573d6000803e3d6000fd5b50999b9a5050505050505050505050565b600a5460009060ff166144105760405162461bcd60e51b815260206004820152601d60248201527f616176652d666c6173682d6c6f616e2d69732d6e6f742d6163746976650000006044820152606401610625565b600073b53c1a33016b2dc2ff3653530bff1848a515c8c56001600160a01b0316630261bf8b6040518163ffffffff1660e01b815260040160206040518083038186803b15801561445f57600080fd5b505afa158015614473573d6000803e3d6000fd5b505050506040513d601f19601f820116820180604052508101906144979190614e02565b6040516321f8a72160e01b8152600160f81b600482015290915060009073b53c1a33016b2dc2ff3653530bff1848a515c8c5906321f8a7219060240160206040518083038186803b1580156144eb57600080fd5b505afa1580156144ff573d6000803e3d6000fd5b505050506040513d601f19601f820116820180604052508101906145239190614e02565b90506000816001600160a01b03166335ea6a75886040518263ffffffff1660e01b815260040161455391906154b1565b6101406040518083038186803b15801561456c57600080fd5b505afa158015614580573d6000803e3d6000fd5b505050506040513d601f19601f820116820180604052508101906145a49190615339565b5050505050505050509050808611156145bb578095505b6040805160018082528183019092526000916020808301908036833701905050905087816000815181106145ff57634e487b7160e01b600052603260045260246000fd5b6001600160a01b039290921660209283029190910190910152604080516001808252818301909252600091816020016020820280368337019050509050878160008151811061465e57634e487b7160e01b600052603260045260246000fd5b60209081029190910101526040805160018082528183019092526000918160200160208202803683370190505090506000816000815181106146b057634e487b7160e01b600052603260045260246000fd5b6020026020010181815250506001600a60026101000a81548160ff021916908315150217905550856001600160a01b031663ab9c4b5d30858585308e60006040518863ffffffff1660e01b8152600401614710979695949392919061550d565b600060405180830381600087803b15801561472a57600080fd5b505af115801561473e573d6000803e3d6000fd5b5050600a805462ff00001916905550989a9950505050505050505050565b6000808215614785578261477885670de0b6b3a76400006158ed565b61478291906158cd565b90505b61478f818661590c565b915083821061479c578391505b8582106147a7578591505b6147b0826134ab565b6147b982613b38565b50949350505050565b600080670de0b6b3a76400006147d884876158ed565b6147e291906158cd565b90506147ee848261590c565b91508582106147fb578591505b61480482613bfe565b6040516370a0823160e01b81526147b9906001600160a01b037f000000000000000000000000000000000000000000000000000000000000000016906370a08231906148549030906004016154b1565b60206040518083038186803b15801561486c57600080fd5b505afa158015614880573d6000803e3d6000fd5b505050506040513d601f19601f820116820180604052508101906148a4919061529c565b613864565b60606148b88484600085614bcd565b949350505050565b60006127106148cf838261590c565b6148d990856158ed565b611f8391906158cd565b600354604051631d1f307960e31b8152600091829182916001600160a01b03169063e8f983c89061491c908a908a908a906004016154c5565b60006040518083038186803b15801561493457600080fd5b505afa158015614948573d6000803e3d6000fd5b505050506040513d6000823e601f3d908101601f191682016040526149709190810190614fe5565b925092509250836000141561498457600193505b8115614a9157600354604051636e74a6f760e01b8152600481018390526001600160a01b0390911690636e74a6f79060240160206040518083038186803b1580156149ce57600080fd5b505afa1580156149e2573d6000803e3d6000fd5b505050506040513d601f19601f82011682018060405250810190614a069190614e02565b6001600160a01b03166338ed173986868630426040518663ffffffff1660e01b8152600401614a399594939291906157ff565b600060405180830381600087803b158015614a5357600080fd5b505af1158015614a67573d6000803e3d6000fd5b505050506040513d6000823e601f3d908101601f19168201604052614a8f9190810190615093565b505b50505050505050565b614aa2614d2e565b604080516101008101825260018152600060208083018290528351608081018552828152929384019291908201905b81526020016000815260200185815250815260200184815260200160008152602001306001600160a01b031681526020016000815260200160405180602001604052806000815250815250905092915050565b614b2c614d2e565b6040805161010081018252600881526000602080830182905283516080810185528281529293840192919082019081526020016000815260006020918201819052918352820181905260408201819052306060830152608082015260a001929092525090565b614b9a614d2e565b60408051610100810182526000808252602080830182905283516080810185526001815292938401929190820190614ad1565b606082471015614c2e5760405162461bcd60e51b815260206004820152602660248201527f416464726573733a20696e73756666696369656e742062616c616e636520666f6044820152651c8818d85b1b60d21b6064820152608401610625565b843b614c7c5760405162461bcd60e51b815260206004820152601d60248201527f416464726573733a2063616c6c20746f206e6f6e2d636f6e74726163740000006044820152606401610625565b600080866001600160a01b03168587604051614c989190615495565b60006040518083038185875af1925050503d8060008114614cd5576040519150601f19603f3d011682016040523d82523d6000602084013e614cda565b606091505b5091509150614cea828286614cf5565b979650505050505050565b60608315614d04575081611f83565b825115614d145782518084602001fd5b8160405162461bcd60e51b815260040161062591906156f0565b604080516101008101825260008082526020820152908101614d72604080516080810190915260008082526020820190815260200160008152602001600081525090565b8152602001600081526020016000815260200160006001600160a01b0316815260200160008152602001606081525090565b60008083601f840112614db5578182fd5b5081356001600160401b03811115614dcb578182fd5b6020830191508360208260051b850101111561385d57600080fd5b600060208284031215614df7578081fd5b8135611f83816159bc565b600060208284031215614e13578081fd5b8151611f83816159bc565b60008060008385036080811215614e33578283fd5b8435614e3e816159bc565b935060206040601f1983011215614e53578384fd5b614e5d604061583b565b915080860135614e6c816159bc565b82526040860135818301529092506060850135906001600160401b03821115614e93578283fd5b818601915086601f830112614ea6578283fd5b8135614eb9614eb48261588e565b61583b565b8181528883838601011115614ecc578485fd5b818385018483013784838383010152809450505050509250925092565b600080600080600080600080600060a08a8c031215614f06578485fd5b89356001600160401b0380821115614f1c578687fd5b614f288d838e01614da4565b909b50995060208c0135915080821115614f40578687fd5b614f4c8d838e01614da4565b909950975060408c0135915080821115614f64578687fd5b614f708d838e01614da4565b909750955060608c01359150614f85826159bc565b90935060808b01359080821115614f9a578384fd5b818c0191508c601f830112614fad578384fd5b813581811115614fbb578485fd5b8d6020828501011115614fcc578485fd5b6020830194508093505050509295985092959850929598565b600080600060608486031215614ff9578283fd5b83516001600160401b0381111561500e578384fd5b8401601f8101861361501e578384fd5b8051602061502e614eb48361586b565b8083825282820191508285018a848660051b880101111561504d578889fd5b8895505b84861015615078578051615064816159bc565b835260019590950194918301918301615051565b50918801516040909801519199979850909695505050505050565b600060208083850312156150a5578182fd5b82516001600160401b038111156150ba578283fd5b8301601f810185136150ca578283fd5b80516150d8614eb48261586b565b80828252848201915084840188868560051b87010111156150f7578687fd5b8694505b838510156151195780518352600194909401939185019185016150fb565b50979650505050505050565b600060208284031215615136578081fd5b8135611f83816159d1565b600060208284031215615152578081fd5b8151611f83816159d1565b600080600060608486031215615171578081fd5b835161517c816159d1565b602085015160408601519194509250615194816159d1565b809150509250925092565b600080600080600080600080610100898b0312156151bb578182fd5b88516151c6816159d1565b809850506020890151965060408901519550606089015194506080890151935060a0890151925060c0890151915060e089015190509295985092959890939650565b6000806040838503121561521a578182fd5b82516001600160401b0381111561522f578283fd5b8301601f8101851361523f578283fd5b805161524d614eb48261588e565b818152866020838501011115615261578485fd5b615272826020830160208601615923565b60209590950151949694955050505050565b600060208284031215615295578081fd5b5035919050565b6000602082840312156152ad578081fd5b5051919050565b600080604083850312156152c6578182fd5b8251915060208301516152d8816159d1565b809150509250929050565b600080604083850312156152f5578182fd5b50508035926020909101359150565b60008060008060808587031215615319578182fd5b505082516020840151604085015160609095015191969095509092509050565b6000806000806000806000806000806101408b8d031215615358578384fd5b8a51995060208b0151985060408b0151975060608b0151965060808b0151955060a08b0151945060c08b0151935060e08b015192506101008b015191506101208b015164ffffffffff811681146153ad578182fd5b809150509295989b9194979a5092959850565b6000815180845260208085019450808401835b838110156153f85781516001600160a01b0316875295820195908201906001016153d3565b509495945050505050565b6000815180845260208085019450808401835b838110156153f857815187529582019590820190600101615416565b6000815180845261544a816020860160208601615923565b601f01601f19169290920160200192915050565b8051151582526020810151615472816159ac565b60208301526040810151615485816159ac565b6040830152606090810151910152565b600082516154a7818460208701615923565b9190910192915050565b6001600160a01b0391909116815260200190565b6001600160a01b039384168152919092166020820152604081019190915260600190565b6001600160a01b03831681526040602082018190526000906148b8908301846153c0565b600060018060a01b03808a16835260e0602084015261552f60e084018a6153c0565b8381036040850152615541818a615403565b905083810360608501526155558189615403565b9050818716608085015283810360a08501526155718187615432565b9250505061ffff831660c083015298975050505050505050565b600060208252611f8360208301846153c0565b6040808252835182820181905260009190606090818501906020808901865b838110156155eb57815180516001600160a01b031686528301518386015293860193908201906001016155bd565b50508683038188015287518084528184019250600581901b84018201898301885b838110156156bd57601f19878403018652815161016081516009811061563457615634615980565b855281870151878601528a82015161564e8c87018261545e565b508982015160c081818801526080840151915060e0828189015260a085015192506156856101008901846001600160a01b03169052565b9084015161012088015290920151610140860182905291506156a981860183615432565b97870197945050509084019060010161560c565b50909b9a5050505050505050505050565b6000604082526156e16040830185615432565b90508260208301529392505050565b600060208252611f836020830184615432565b60208082526011908201527034b73b30b634b216b4b734ba34b0ba37b960791b604082015260600190565b60208082526016908201527531b0b63632b916b4b996b737ba16b096b5b2b2b832b960511b604082015260600190565b6020808252601d908201527f77697468647261772d66726f6d2d636f6d706f756e642d6661696c6564000000604082015260600190565b6020808252601a908201527f63616c6c65722d69732d6e6f742d7468652d676f7665726e6f72000000000000604082015260600190565b60208082526019908201527818d85b1b195c8b5a5ccb5b9bdd0b5d995cdc195c8b5c1bdbdb603a1b604082015260600190565b600086825285602083015260a0604083015261581e60a08301866153c0565b6001600160a01b0394909416606083015250608001529392505050565b604051601f8201601f191681016001600160401b038111828210171561586357615863615996565b604052919050565b60006001600160401b0382111561588457615884615996565b5060051b60200190565b60006001600160401b038211156158a7576158a7615996565b50601f01601f191660200190565b600082198211156158c8576158c861596a565b500190565b6000826158e857634e487b7160e01b81526012600452602481fd5b500490565b60008160001904831182151516156159075761590761596a565b500290565b60008282101561591e5761591e61596a565b500390565b60005b8381101561593e578181015183820152602001615926565b838111156125885750506000910152565b60006000198214156159635761596361596a565b5060010190565b634e487b7160e01b600052601160045260246000fd5b634e487b7160e01b600052602160045260246000fd5b634e487b7160e01b600052604160045260246000fd5b6002811061067c5761067c615980565b6001600160a01b038116811461067c57600080fd5b801515811461067c57600080fdfea26469706673582212204f42388fcda5766032a5ebb9c264a448da6cbe689e3f333d949eafd22868e3d864736f6c63430008030033",
  "devdoc": {
    "kind": "dev",
    "methods": {
      "addKeeper(address)": {
        "params": {
          "_keeperAddress": "keeper address to add."
        }
      },
      "approveToken()": {
        "details": "Approve all required tokens"
      },
      "callFunction(address,(address,uint256),bytes)": {
        "details": "DyDx calls this function after doing flash loan"
      },
      "executeOperation(address[],uint256[],uint256[],address,bytes)": {
        "details": "Aave will call this function after doing flash loan"
      },
      "migrate(address)": {
        "details": "_beforeMigration hook can be implemented in child strategy to do extra steps.",
        "params": {
          "_newStrategy": "Address of new strategy"
        }
      },
      "rebalance()": {
        "details": "Rebalance profit, loss and investment of this strategy"
      },
      "removeKeeper(address)": {
        "params": {
          "_keeperAddress": "keeper address to remove."
        }
      },
      "sweepERC20(address)": {
        "details": "sweep given token to feeCollector of strategy",
        "params": {
          "_fromToken": "token address to sweep"
        }
      },
      "totalValue()": {
        "details": "Compound calculate COMP accrued and store it when user interact with Compound contracts, i.e. deposit, withdraw or transfer tokens. So compAccrued() will return stored COMP accrued amount, which is olderFor up to date value check totalValueCurrent()"
      },
      "totalValueCurrent()": {
        "details": "Report total value in collateral tokenClaimed COMP will stay in strategy until next rebalance"
      },
      "updateBorrowRatio(uint256,uint256)": {
        "details": "It is possible to set 0 as _minBorrowRatio to not borrow anything",
        "params": {
          "_maxBorrowRatio": "Maximum % we want to borrow",
          "_minBorrowRatio": "Minimum % we want to borrow"
        }
      },
      "updateFeeCollector(address)": {
        "params": {
          "_feeCollector": "fee collector address"
        }
      },
      "updateSwapManager(address)": {
        "params": {
          "_swapManager": "swap manager address"
        }
      },
      "withdraw(uint256)": {
        "details": "Withdraw collateral token from lending pool.",
        "params": {
          "_amount": "Amount of collateral token"
        }
      }
    },
    "title": "Deposit LINK in Compound and also borrow LINK based on leverage condition",
    "version": 1
  },
  "userdoc": {
    "kind": "user",
    "methods": {
      "addKeeper(address)": {
        "notice": "Add given address in keepers list."
      },
      "currentBorrowRatio()": {
        "notice": "Current borrow ratio, calculated as current borrow divide by max allowed borrow Return value is based on basis points, i.e. 7500 = 75% ratio"
      },
      "getPosition()": {
        "notice": "Return supply and borrow position. Position may return few block old value"
      },
      "isLossMaking()": {
        "notice": "Calculate current position using claimed COMP and current borrow."
      },
      "isReservedToken(address)": {
        "notice": "Check whether given token is reserved or not. Reserved tokens are not allowed to sweep."
      },
      "keepers()": {
        "notice": "Return list of keepers"
      },
      "migrate(address)": {
        "notice": "Migrate all asset and vault ownership,if any, to new strategy"
      },
      "removeKeeper(address)": {
        "notice": "Remove given address from keepers list."
      },
      "token()": {
        "notice": "Returns address of token correspond to collateral token"
      },
      "totalValue()": {
        "notice": "Calculate total value using COMP accrued, supply and borrow position"
      },
      "totalValueCurrent()": {
        "notice": "Calculate total value based on COMP claimed, supply and borrow position"
      },
      "updateBorrowRatio(uint256,uint256)": {
        "notice": "Update upper and lower borrow ratio"
      },
      "updateFeeCollector(address)": {
        "notice": "Update fee collector"
      },
      "updateSwapManager(address)": {
        "notice": "Update swap manager address"
      }
    },
    "version": 1
  },
  "storageLayout": {
    "storage": [
      {
        "astId": 14867,
        "contract": "contracts/strategies/compound/CompoundLeverageStrategyWBTC.sol:CompoundLeverageStrategyWBTC",
        "label": "WETH",
        "offset": 0,
        "slot": "0",
        "type": "t_address"
      },
      {
        "astId": 14872,
        "contract": "contracts/strategies/compound/CompoundLeverageStrategyWBTC.sol:CompoundLeverageStrategyWBTC",
        "label": "receiptToken",
        "offset": 0,
        "slot": "1",
        "type": "t_address"
      },
      {
        "astId": 14878,
        "contract": "contracts/strategies/compound/CompoundLeverageStrategyWBTC.sol:CompoundLeverageStrategyWBTC",
        "label": "feeCollector",
        "offset": 0,
        "slot": "2",
        "type": "t_address"
      },
      {
        "astId": 14881,
        "contract": "contracts/strategies/compound/CompoundLeverageStrategyWBTC.sol:CompoundLeverageStrategyWBTC",
        "label": "swapManager",
        "offset": 0,
        "slot": "3",
        "type": "t_contract(ISwapManager)5259"
      },
      {
        "astId": 14884,
        "contract": "contracts/strategies/compound/CompoundLeverageStrategyWBTC.sol:CompoundLeverageStrategyWBTC",
        "label": "oraclePeriod",
        "offset": 0,
        "slot": "4",
        "type": "t_uint256"
      },
      {
        "astId": 14887,
        "contract": "contracts/strategies/compound/CompoundLeverageStrategyWBTC.sol:CompoundLeverageStrategyWBTC",
        "label": "oracleRouterIdx",
        "offset": 0,
        "slot": "5",
        "type": "t_uint256"
      },
      {
        "astId": 14890,
        "contract": "contracts/strategies/compound/CompoundLeverageStrategyWBTC.sol:CompoundLeverageStrategyWBTC",
        "label": "swapSlippage",
        "offset": 0,
        "slot": "6",
        "type": "t_uint256"
      },
      {
        "astId": 14893,
        "contract": "contracts/strategies/compound/CompoundLeverageStrategyWBTC.sol:CompoundLeverageStrategyWBTC",
        "label": "_keepers",
        "offset": 0,
        "slot": "7",
        "type": "t_struct(AddressSet)4299_storage"
      },
      {
        "astId": 3091,
        "contract": "contracts/strategies/compound/CompoundLeverageStrategyWBTC.sol:CompoundLeverageStrategyWBTC",
        "label": "dyDxMarketId",
        "offset": 0,
        "slot": "9",
        "type": "t_uint256"
      },
      {
        "astId": 3097,
        "contract": "contracts/strategies/compound/CompoundLeverageStrategyWBTC.sol:CompoundLeverageStrategyWBTC",
        "label": "isAaveActive",
        "offset": 0,
        "slot": "10",
        "type": "t_bool"
      },
      {
        "astId": 3100,
        "contract": "contracts/strategies/compound/CompoundLeverageStrategyWBTC.sol:CompoundLeverageStrategyWBTC",
        "label": "isDyDxActive",
        "offset": 1,
        "slot": "10",
        "type": "t_bool"
      },
      {
        "astId": 3170,
        "contract": "contracts/strategies/compound/CompoundLeverageStrategyWBTC.sol:CompoundLeverageStrategyWBTC",
        "label": "awaitingFlash",
        "offset": 2,
        "slot": "10",
        "type": "t_bool"
      },
      {
        "astId": 20297,
        "contract": "contracts/strategies/compound/CompoundLeverageStrategyWBTC.sol:CompoundLeverageStrategyWBTC",
        "label": "minBorrowRatio",
        "offset": 0,
        "slot": "11",
        "type": "t_uint256"
      },
      {
        "astId": 20300,
        "contract": "contracts/strategies/compound/CompoundLeverageStrategyWBTC.sol:CompoundLeverageStrategyWBTC",
        "label": "maxBorrowRatio",
        "offset": 0,
        "slot": "12",
        "type": "t_uint256"
      },
      {
        "astId": 20303,
        "contract": "contracts/strategies/compound/CompoundLeverageStrategyWBTC.sol:CompoundLeverageStrategyWBTC",
        "label": "cToken",
        "offset": 0,
        "slot": "13",
        "type": "t_contract(CToken)5389"
      }
    ],
    "types": {
      "t_address": {
        "encoding": "inplace",
        "label": "address",
        "numberOfBytes": "20"
      },
      "t_array(t_bytes32)dyn_storage": {
        "base": "t_bytes32",
        "encoding": "dynamic_array",
        "label": "bytes32[]",
        "numberOfBytes": "32"
      },
      "t_bool": {
        "encoding": "inplace",
        "label": "bool",
        "numberOfBytes": "1"
      },
      "t_bytes32": {
        "encoding": "inplace",
        "label": "bytes32",
        "numberOfBytes": "32"
      },
      "t_contract(CToken)5389": {
        "encoding": "inplace",
        "label": "contract CToken",
        "numberOfBytes": "20"
      },
      "t_contract(ISwapManager)5259": {
        "encoding": "inplace",
        "label": "contract ISwapManager",
        "numberOfBytes": "20"
      },
      "t_mapping(t_bytes32,t_uint256)": {
        "encoding": "mapping",
        "key": "t_bytes32",
        "label": "mapping(bytes32 => uint256)",
        "numberOfBytes": "32",
        "value": "t_uint256"
      },
      "t_struct(AddressSet)4299_storage": {
        "encoding": "inplace",
        "label": "struct EnumerableSet.AddressSet",
        "members": [
          {
            "astId": 4298,
            "contract": "contracts/strategies/compound/CompoundLeverageStrategyWBTC.sol:CompoundLeverageStrategyWBTC",
            "label": "_inner",
            "offset": 0,
            "slot": "0",
            "type": "t_struct(Set)3998_storage"
          }
        ],
        "numberOfBytes": "64"
      },
      "t_struct(Set)3998_storage": {
        "encoding": "inplace",
        "label": "struct EnumerableSet.Set",
        "members": [
          {
            "astId": 3993,
            "contract": "contracts/strategies/compound/CompoundLeverageStrategyWBTC.sol:CompoundLeverageStrategyWBTC",
            "label": "_values",
            "offset": 0,
            "slot": "0",
            "type": "t_array(t_bytes32)dyn_storage"
          },
          {
            "astId": 3997,
            "contract": "contracts/strategies/compound/CompoundLeverageStrategyWBTC.sol:CompoundLeverageStrategyWBTC",
            "label": "_indexes",
            "offset": 0,
            "slot": "1",
            "type": "t_mapping(t_bytes32,t_uint256)"
          }
        ],
        "numberOfBytes": "64"
      },
      "t_uint256": {
        "encoding": "inplace",
        "label": "uint256",
        "numberOfBytes": "32"
      }
    }
  }
}