{
  "address": "0x43CeCF2e018FEE7EE94410f85FcefeD2a3843ef2",
  "abi": [
    {
      "inputs": [
        {
          "internalType": "address",
          "name": "_pool",
          "type": "address"
        },
        {
          "internalType": "address",
          "name": "_swapManager",
          "type": "address"
        }
      ],
      "stateMutability": "nonpayable",
      "type": "constructor"
    },
    {
      "anonymous": false,
      "inputs": [
        {
          "indexed": false,
          "internalType": "string",
          "name": "reason",
          "type": "string"
        }
      ],
      "name": "DepositFailed",
      "type": "event"
    },
    {
      "anonymous": false,
      "inputs": [
        {
          "indexed": false,
          "internalType": "uint256",
          "name": "oldCrvSlippage",
          "type": "uint256"
        },
        {
          "indexed": false,
          "internalType": "uint256",
          "name": "newCrvSlippage",
          "type": "uint256"
        }
      ],
      "name": "UpdatedCrvSlippage",
      "type": "event"
    },
    {
      "anonymous": false,
      "inputs": [
        {
          "indexed": true,
          "internalType": "address",
          "name": "previousFeeCollector",
          "type": "address"
        },
        {
          "indexed": true,
          "internalType": "address",
          "name": "newFeeCollector",
          "type": "address"
        }
      ],
      "name": "UpdatedFeeCollector",
      "type": "event"
    },
    {
      "anonymous": false,
      "inputs": [
        {
          "indexed": false,
          "internalType": "uint256",
          "name": "oldPeriod",
          "type": "uint256"
        },
        {
          "indexed": false,
          "internalType": "uint256",
          "name": "newPeriod",
          "type": "uint256"
        },
        {
          "indexed": false,
          "internalType": "uint256",
          "name": "oldRouterIdx",
          "type": "uint256"
        },
        {
          "indexed": false,
          "internalType": "uint256",
          "name": "newRouterIdx",
          "type": "uint256"
        }
      ],
      "name": "UpdatedOracleConfig",
      "type": "event"
    },
    {
      "anonymous": false,
      "inputs": [
        {
          "indexed": true,
          "internalType": "address",
          "name": "previousSwapManager",
          "type": "address"
        },
        {
          "indexed": true,
          "internalType": "address",
          "name": "newSwapManager",
          "type": "address"
        }
      ],
      "name": "UpdatedSwapManager",
      "type": "event"
    },
    {
      "anonymous": false,
      "inputs": [
        {
          "indexed": false,
          "internalType": "uint256",
          "name": "oldSwapSlippage",
          "type": "uint256"
        },
        {
          "indexed": false,
          "internalType": "uint256",
          "name": "newSwapSlippage",
          "type": "uint256"
        }
      ],
      "name": "UpdatedSwapSlippage",
      "type": "event"
    },
    {
      "inputs": [],
      "name": "BOOSTER",
      "outputs": [
        {
          "internalType": "address",
          "name": "",
          "type": "address"
        }
      ],
      "stateMutability": "view",
      "type": "function"
    },
    {
      "inputs": [],
      "name": "CRV",
      "outputs": [
        {
          "internalType": "address",
          "name": "",
          "type": "address"
        }
      ],
      "stateMutability": "view",
      "type": "function"
    },
    {
      "inputs": [],
      "name": "CRV_MINTER",
      "outputs": [
        {
          "internalType": "address",
          "name": "",
          "type": "address"
        }
      ],
      "stateMutability": "view",
      "type": "function"
    },
    {
      "inputs": [],
      "name": "CVX",
      "outputs": [
        {
          "internalType": "address",
          "name": "",
          "type": "address"
        }
      ],
      "stateMutability": "view",
      "type": "function"
    },
    {
      "inputs": [],
      "name": "N",
      "outputs": [
        {
          "internalType": "uint256",
          "name": "",
          "type": "uint256"
        }
      ],
      "stateMutability": "view",
      "type": "function"
    },
    {
      "inputs": [],
      "name": "NAME",
      "outputs": [
        {
          "internalType": "string",
          "name": "",
          "type": "string"
        }
      ],
      "stateMutability": "view",
      "type": "function"
    },
    {
      "inputs": [],
      "name": "VERSION",
      "outputs": [
        {
          "internalType": "string",
          "name": "",
          "type": "string"
        }
      ],
      "stateMutability": "view",
      "type": "function"
    },
    {
      "inputs": [
        {
          "internalType": "address",
          "name": "_keeperAddress",
          "type": "address"
        }
      ],
      "name": "addKeeper",
      "outputs": [],
      "stateMutability": "nonpayable",
      "type": "function"
    },
    {
      "inputs": [],
      "name": "approveToken",
      "outputs": [],
      "stateMutability": "nonpayable",
      "type": "function"
    },
    {
      "inputs": [
        {
          "internalType": "uint256",
          "name": "_amtNeeded",
          "type": "uint256"
        },
        {
          "internalType": "uint256",
          "name": "i",
          "type": "uint256"
        }
      ],
      "name": "calcWithdrawLpAs",
      "outputs": [
        {
          "internalType": "uint256",
          "name": "lpToWithdraw",
          "type": "uint256"
        },
        {
          "internalType": "uint256",
          "name": "unstakeAmt",
          "type": "uint256"
        }
      ],
      "stateMutability": "view",
      "type": "function"
    },
    {
      "inputs": [],
      "name": "claimableRewards",
      "outputs": [
        {
          "internalType": "uint256",
          "name": "total",
          "type": "uint256"
        }
      ],
      "stateMutability": "view",
      "type": "function"
    },
    {
      "inputs": [
        {
          "internalType": "uint256",
          "name": "",
          "type": "uint256"
        }
      ],
      "name": "coinDecimals",
      "outputs": [
        {
          "internalType": "uint256",
          "name": "",
          "type": "uint256"
        }
      ],
      "stateMutability": "view",
      "type": "function"
    },
    {
      "inputs": [
        {
          "internalType": "uint256",
          "name": "",
          "type": "uint256"
        }
      ],
      "name": "coins",
      "outputs": [
        {
          "internalType": "address",
          "name": "",
          "type": "address"
        }
      ],
      "stateMutability": "view",
      "type": "function"
    },
    {
      "inputs": [],
      "name": "collIdx",
      "outputs": [
        {
          "internalType": "uint256",
          "name": "",
          "type": "uint256"
        }
      ],
      "stateMutability": "view",
      "type": "function"
    },
    {
      "inputs": [],
      "name": "collateralToken",
      "outputs": [
        {
          "internalType": "contract IERC20",
          "name": "",
          "type": "address"
        }
      ],
      "stateMutability": "view",
      "type": "function"
    },
    {
      "inputs": [
        {
          "internalType": "uint256",
          "name": "amount",
          "type": "uint256"
        }
      ],
      "name": "convertFrom18",
      "outputs": [
        {
          "internalType": "uint256",
          "name": "",
          "type": "uint256"
        }
      ],
      "stateMutability": "pure",
      "type": "function"
    },
    {
      "inputs": [],
      "name": "convexPoolId",
      "outputs": [
        {
          "internalType": "uint256",
          "name": "",
          "type": "uint256"
        }
      ],
      "stateMutability": "view",
      "type": "function"
    },
    {
      "inputs": [],
      "name": "crvGauge",
      "outputs": [
        {
          "internalType": "address",
          "name": "",
          "type": "address"
        }
      ],
      "stateMutability": "view",
      "type": "function"
    },
    {
      "inputs": [],
      "name": "crvLp",
      "outputs": [
        {
          "internalType": "address",
          "name": "",
          "type": "address"
        }
      ],
      "stateMutability": "view",
      "type": "function"
    },
    {
      "inputs": [],
      "name": "crvPool",
      "outputs": [
        {
          "internalType": "contract IStableSwapUnderlying",
          "name": "",
          "type": "address"
        }
      ],
      "stateMutability": "view",
      "type": "function"
    },
    {
      "inputs": [],
      "name": "crvSlippage",
      "outputs": [
        {
          "internalType": "uint256",
          "name": "",
          "type": "uint256"
        }
      ],
      "stateMutability": "view",
      "type": "function"
    },
    {
      "inputs": [],
      "name": "cvxCrvRewards",
      "outputs": [
        {
          "internalType": "address",
          "name": "",
          "type": "address"
        }
      ],
      "stateMutability": "view",
      "type": "function"
    },
    {
      "inputs": [],
      "name": "depositError",
      "outputs": [
        {
          "internalType": "bool",
          "name": "",
          "type": "bool"
        }
      ],
      "stateMutability": "view",
      "type": "function"
    },
    {
      "inputs": [],
      "name": "feeCollector",
      "outputs": [
        {
          "internalType": "address",
          "name": "",
          "type": "address"
        }
      ],
      "stateMutability": "view",
      "type": "function"
    },
    {
      "inputs": [],
      "name": "gauge",
      "outputs": [
        {
          "internalType": "address",
          "name": "",
          "type": "address"
        }
      ],
      "stateMutability": "view",
      "type": "function"
    },
    {
      "inputs": [
        {
          "internalType": "uint256",
          "name": "_lpAmount",
          "type": "uint256"
        }
      ],
      "name": "getLpValue",
      "outputs": [
        {
          "internalType": "uint256",
          "name": "",
          "type": "uint256"
        }
      ],
      "stateMutability": "view",
      "type": "function"
    },
    {
      "inputs": [
        {
          "internalType": "uint256",
          "name": "_lpAmount",
          "type": "uint256"
        },
        {
          "internalType": "uint256",
          "name": "i",
          "type": "uint256"
        }
      ],
      "name": "getLpValueAs",
      "outputs": [
        {
          "internalType": "uint256",
          "name": "",
          "type": "uint256"
        }
      ],
      "stateMutability": "view",
      "type": "function"
    },
    {
      "inputs": [
        {
          "internalType": "address",
          "name": "_addressListFactory",
          "type": "address"
        }
      ],
      "name": "init",
      "outputs": [],
      "stateMutability": "nonpayable",
      "type": "function"
    },
    {
      "inputs": [],
      "name": "isClaimExtras",
      "outputs": [
        {
          "internalType": "bool",
          "name": "",
          "type": "bool"
        }
      ],
      "stateMutability": "view",
      "type": "function"
    },
    {
      "inputs": [],
      "name": "isClaimRewards",
      "outputs": [
        {
          "internalType": "bool",
          "name": "",
          "type": "bool"
        }
      ],
      "stateMutability": "view",
      "type": "function"
    },
    {
      "inputs": [
        {
          "internalType": "address",
          "name": "_token",
          "type": "address"
        }
      ],
      "name": "isReservedToken",
      "outputs": [
        {
          "internalType": "bool",
          "name": "",
          "type": "bool"
        }
      ],
      "stateMutability": "view",
      "type": "function"
    },
    {
      "inputs": [],
      "name": "keepers",
      "outputs": [
        {
          "internalType": "contract IAddressList",
          "name": "",
          "type": "address"
        }
      ],
      "stateMutability": "view",
      "type": "function"
    },
    {
      "inputs": [
        {
          "internalType": "address",
          "name": "_newStrategy",
          "type": "address"
        }
      ],
      "name": "migrate",
      "outputs": [],
      "stateMutability": "nonpayable",
      "type": "function"
    },
    {
      "inputs": [],
      "name": "oraclePeriod",
      "outputs": [
        {
          "internalType": "uint256",
          "name": "",
          "type": "uint256"
        }
      ],
      "stateMutability": "view",
      "type": "function"
    },
    {
      "inputs": [],
      "name": "oracleRouterIdx",
      "outputs": [
        {
          "internalType": "uint256",
          "name": "",
          "type": "uint256"
        }
      ],
      "stateMutability": "view",
      "type": "function"
    },
    {
      "inputs": [],
      "name": "pool",
      "outputs": [
        {
          "internalType": "address",
          "name": "",
          "type": "address"
        }
      ],
      "stateMutability": "view",
      "type": "function"
    },
    {
      "inputs": [],
      "name": "rebalance",
      "outputs": [],
      "stateMutability": "nonpayable",
      "type": "function"
    },
    {
      "inputs": [],
      "name": "receiptToken",
      "outputs": [
        {
          "internalType": "address",
          "name": "",
          "type": "address"
        }
      ],
      "stateMutability": "view",
      "type": "function"
    },
    {
      "inputs": [
        {
          "internalType": "address",
          "name": "_keeperAddress",
          "type": "address"
        }
      ],
      "name": "removeKeeper",
      "outputs": [],
      "stateMutability": "nonpayable",
      "type": "function"
    },
    {
      "inputs": [],
      "name": "setCheckpoint",
      "outputs": [],
      "stateMutability": "nonpayable",
      "type": "function"
    },
    {
      "inputs": [],
      "name": "setupOracles",
      "outputs": [],
      "stateMutability": "nonpayable",
      "type": "function"
    },
    {
      "inputs": [],
      "name": "swapManager",
      "outputs": [
        {
          "internalType": "contract ISwapManager",
          "name": "",
          "type": "address"
        }
      ],
      "stateMutability": "view",
      "type": "function"
    },
    {
      "inputs": [],
      "name": "swapSlippage",
      "outputs": [
        {
          "internalType": "uint256",
          "name": "",
          "type": "uint256"
        }
      ],
      "stateMutability": "view",
      "type": "function"
    },
    {
      "inputs": [
        {
          "internalType": "address",
          "name": "_fromToken",
          "type": "address"
        }
      ],
      "name": "sweepERC20",
      "outputs": [],
      "stateMutability": "nonpayable",
      "type": "function"
    },
    {
      "inputs": [],
      "name": "threeCrv",
      "outputs": [
        {
          "internalType": "address",
          "name": "",
          "type": "address"
        }
      ],
      "stateMutability": "view",
      "type": "function"
    },
    {
      "inputs": [],
      "name": "threePool",
      "outputs": [
        {
          "internalType": "address",
          "name": "",
          "type": "address"
        }
      ],
      "stateMutability": "view",
      "type": "function"
    },
    {
      "inputs": [],
      "name": "token",
      "outputs": [
        {
          "internalType": "address",
          "name": "",
          "type": "address"
        }
      ],
      "stateMutability": "view",
      "type": "function"
    },
    {
      "inputs": [],
      "name": "totalLp",
      "outputs": [
        {
          "internalType": "uint256",
          "name": "total",
          "type": "uint256"
        }
      ],
      "stateMutability": "view",
      "type": "function"
    },
    {
      "inputs": [],
      "name": "totalStaked",
      "outputs": [
        {
          "internalType": "uint256",
          "name": "total",
          "type": "uint256"
        }
      ],
      "stateMutability": "view",
      "type": "function"
    },
    {
      "inputs": [],
      "name": "totalValue",
      "outputs": [
        {
          "internalType": "uint256",
          "name": "_value",
          "type": "uint256"
        }
      ],
      "stateMutability": "view",
      "type": "function"
    },
    {
      "inputs": [],
      "name": "totalValueCurrent",
      "outputs": [
        {
          "internalType": "uint256",
          "name": "",
          "type": "uint256"
        }
      ],
      "stateMutability": "nonpayable",
      "type": "function"
    },
    {
      "inputs": [
        {
          "internalType": "bool",
          "name": "_isClaimExtras",
          "type": "bool"
        }
      ],
      "name": "updateClaimExtras",
      "outputs": [],
      "stateMutability": "nonpayable",
      "type": "function"
    },
    {
      "inputs": [
        {
          "internalType": "bool",
          "name": "_isClaimRewards",
          "type": "bool"
        }
      ],
      "name": "updateClaimRewards",
      "outputs": [],
      "stateMutability": "nonpayable",
      "type": "function"
    },
    {
      "inputs": [
        {
          "internalType": "uint256",
          "name": "_newCrvSlippage",
          "type": "uint256"
        }
      ],
      "name": "updateCrvSlippage",
      "outputs": [],
      "stateMutability": "nonpayable",
      "type": "function"
    },
    {
      "inputs": [
        {
          "internalType": "address",
          "name": "_feeCollector",
          "type": "address"
        }
      ],
      "name": "updateFeeCollector",
      "outputs": [],
      "stateMutability": "nonpayable",
      "type": "function"
    },
    {
      "inputs": [
        {
          "internalType": "uint256",
          "name": "_newPeriod",
          "type": "uint256"
        },
        {
          "internalType": "uint256",
          "name": "_newRouterIdx",
          "type": "uint256"
        }
      ],
      "name": "updateOracleConfig",
      "outputs": [],
      "stateMutability": "nonpayable",
      "type": "function"
    },
    {
      "inputs": [
        {
          "internalType": "address",
          "name": "_swapManager",
          "type": "address"
        }
      ],
      "name": "updateSwapManager",
      "outputs": [],
      "stateMutability": "nonpayable",
      "type": "function"
    },
    {
      "inputs": [
        {
          "internalType": "uint256",
          "name": "_newSwapSlippage",
          "type": "uint256"
        }
      ],
      "name": "updateSwapSlippage",
      "outputs": [],
      "stateMutability": "nonpayable",
      "type": "function"
    },
    {
      "inputs": [],
      "name": "usdRate",
      "outputs": [
        {
          "internalType": "uint256",
          "name": "",
          "type": "uint256"
        }
      ],
      "stateMutability": "view",
      "type": "function"
    },
    {
      "inputs": [],
      "name": "usdRateTimestamp",
      "outputs": [
        {
          "internalType": "uint256",
          "name": "",
          "type": "uint256"
        }
      ],
      "stateMutability": "view",
      "type": "function"
    },
    {
      "inputs": [
        {
          "internalType": "uint256",
          "name": "_amount",
          "type": "uint256"
        }
      ],
      "name": "withdraw",
      "outputs": [],
      "stateMutability": "nonpayable",
      "type": "function"
    }
  ],
  "transactionHash": "0x27fd4374af93fb0f5da46f155488cd96d66f36217fdef2e78232dde7aefbaf92",
  "args": [
    "0x01e1d41C1159b745298724c5Fd3eAfF3da1C6efD",
    "0xe382d9f2394A359B01006faa8A1864b8a60d2710"
  ],
  "solcInputHash": "fc8db9fa013b709c2c5f8959af52ebd2",
  "bytecode": "0x61024060405260006101e0818152610200829052610220829052620000279190600362000772565b506040805160608101825260008082526020820181905291810191909152620000549060039081620007cf565b50610e10600a556000600b55612710600c55600a6011553480156200007857600080fd5b5060405162005f1638038062005f168339810160408190526200009b9162000842565b81737fc77b5c7614e1533320ea6ddc2eb61fa00a971473075b1bb99792c9e1041ba13afef80c91a1e70fb373705350c4bcd35c9441419ddd5d2f097d7a55410f8460016007868686868686858285878187828282620000fe565b60405180910390fd5b6001600160a01b038216620001565760405162461bcd60e51b815260206004820152601860248201527f4352564d67723a20696e76616c6964206c7020746f6b656e00000000000000006044820152606401620000f5565b6001600160a01b038116620001ae5760405162461bcd60e51b815260206004820152601560248201527f4352564d67723a20696e76616c696420676175676500000000000000000000006044820152606401620000f5565b6001600160601b0319606084811b821660805283811b821660a05282901b1660c052620001db83620005b3565b505050620001ef83620005b360201b60201c565b5050506001600160a01b0383166200024a5760405162461bcd60e51b815260206004820152601460248201527f706f6f6c2d616464726573732d69732d7a65726f0000000000000000000000006044820152606401620000f5565b6001600160a01b038216620002975760405162461bcd60e51b8152602060048201526012602482015271736d2d616464726573732d69732d7a65726f60701b6044820152606401620000f5565b600980546001600160a01b0319166001600160a01b0384811691909117909155606084901b6001600160601b0319166101005260408051637e062a3560e11b815290519185169163fc0c546a91600480820192602092909190829003018186803b1580156200030557600080fd5b505afa1580156200031a573d6000803e3d6000fd5b505050506040513d601f19601f820116820180604052508101906200034091906200081c565b60601b6001600160601b03191660e052600680546001600160a01b0319166001600160a01b0392909216919091179055505060038110620003b95760405162461bcd60e51b81526020600482015260126024820152711a5b9d985b1a590b58dbdb1b185d195c985b60721b6044820152606401620000f5565b606094851b6001600160601b03199081166101205284861b8116610140529290941b90911661016052506001600160a01b03166000908152600d60205260408082208054600160ff19918216811790925573d533a949740bb3306d119cc777fa900ba034cd5284527fe31f906f02761c534a3a259ad75c88b1f7b13d95bc1a0f4af2110d829a52457e80549091169091179055610180929092529051631526fe2760e01b815260048101849052909150819073f403c135812408bfbe8713b5a23a04b3d48aae3190631526fe279060240160c06040518083038186803b158015620004a357600080fd5b505afa158015620004b8573d6000803e3d6000fd5b505050506040513d601f19601f82011682018060405250810190620004de919062000880565b5050935050509150866001600160a01b0316826001600160a01b0316146200053e5760405162461bcd60e51b815260206004820152601260248201527134b731b7b93932b1ba16b63816ba37b5b2b760711b6044820152606401620000f5565b60601b6001600160601b0319166101a052506101c0525050734e3fbd56cd56c3e72c1403e103b45db9da5b9d2b6000908152600d6020527f6f5ac935a07b431a4a566af1f40b4c7a4b493bd776ce2dececf9cacb04249b108054600160ff19909116179055600b555062000986945050505050565b60005b600381600f0b12156200076e5760405163046e8dd760e31b8152600f82900b60048201819052906001600160a01b038416906323746eb89060240160206040518083038186803b1580156200060a57600080fd5b505afa1580156200061f573d6000803e3d6000fd5b505050506040513d601f19601f820116820180604052508101906200064591906200081c565b600082600381106200066757634e487b7160e01b600052603260045260246000fd5b0180546001600160a01b0319166001600160a01b039290921691909117905560008160038110620006a857634e487b7160e01b600052603260045260246000fd5b0160009054906101000a90046001600160a01b03166001600160a01b031663313ce5676040518163ffffffff1660e01b815260040160206040518083038186803b158015620006f657600080fd5b505afa1580156200070b573d6000803e3d6000fd5b505050506040513d601f19601f8201168201806040525081019062000731919062000916565b60ff16600382600381106200075657634e487b7160e01b600052603260045260246000fd5b01555080620007658162000939565b915050620005b6565b5050565b8260038101928215620007bd579160200282015b82811115620007bd57825182546001600160a01b0319166001600160a01b0390911617825560209092019160019091019062000786565b50620007cb92915062000805565b5090565b8260038101928215620007bd579160200282015b82811115620007bd578251829060ff16905591602001919060010190620007e3565b5b80821115620007cb576000815560010162000806565b6000602082840312156200082e578081fd5b81516200083b816200096d565b9392505050565b6000806040838503121562000855578081fd5b825162000862816200096d565b602084015190925062000875816200096d565b809150509250929050565b60008060008060008060c0878903121562000899578182fd5b8651620008a6816200096d565b6020880151909650620008b9816200096d565b6040880151909550620008cc816200096d565b6060880151909450620008df816200096d565b6080880151909350620008f2816200096d565b60a0880151909250801515811462000908578182fd5b809150509295509295509295565b60006020828403121562000928578081fd5b815160ff811681146200083b578182fd5b6000600f82900b60016001607f1b038114156200096457634e487b7160e01b82526011600452602482fd5b60010192915050565b6001600160a01b03811681146200098357600080fd5b50565b60805160601c60a05160601c60c05160601c60e05160601c6101005160601c6101205160601c6101405160601c6101605160601c610180516101a05160601c6101c05161534a62000bcc600039600081816108840152613b7301526000818161074d01528181610f6c0152818161177301528181611ac001528181613f92015281816140e701526143ad01526000818161050e0152818161344c015281816137b801526138a8015260006107260152600061049901526000818161059001526131790152600081816104240152818161093301528181610b5a01528181610ce001528181611097015281816112df0152818161145f01528181611612015281816118fc0152818161198e01528181611a2101528181611bb301528181611e9501528181611f89015281816120650152818161212e0152818161238301528181612aa501528181612c0f01528181612cac0152613d6a01526000818161078f015281816122d60152818161235a0152818161259301528181612655015281816127e9015281816129d601528181612a8301528181612d70015281816134dc0152818161359b0152818161361c0152818161365801528181613d480152613d9c0152600081816108ea01528181612b650152613f4f01526000818161066f015281816110030152818161113501528181612e5301528181613ada0152613f2d0152600081816107b601528181610aad0152818161122601528181613818015281816138ff015281816139d801528181613dbe0152818161429001526142e9015261534a6000f3fe608060405234801561001057600080fd5b50600436106103af5760003560e01c80637f44579b116101f4578063c66106571161011a578063e00af4a7116100ad578063fb589de21161007c578063fb589de2146108c1578063fc0c546a146108d4578063fd57a4df146108e5578063ffa1ad741461090c576103af565b8063e00af4a71461086c578063e529ee951461087f578063e645c202146108a6578063ec78e832146108ae576103af565b8063ce5494bb116100e9578063ce5494bb14610835578063d2c35ce814610848578063d4c3eea01461085b578063d572fd7f14610863576103af565b8063c6610657146107fe578063c9e525df14610811578063ca9fa3ab14610819578063cd2d7ebe1461082c576103af565b8063a6f19c8411610192578063b2016bd411610161578063b2016bd41461078a578063b20fdc0d146107b1578063c415b95c146107d8578063c609d46c146107eb576103af565b8063a6f19c8414610721578063a7404b7014610748578063a923b2a61461076f578063aa10188614610782576103af565b8063951dc22c116101ce578063951dc22c146106b457806396dd5a78146106c757806399b71d5c146106d0578063a3f4df7e146106d8576103af565b80637f44579b1461066a578063817b1cd214610691578063945c914214610699576103af565b806342189c8f116102d9578063709d039d1161027757806375b0ffd11161024657806375b0ffd11461063657806379b37a861461065157806379d5279f1461065a5780637d7c2a1c14610662576103af565b8063709d039d146105da57806372db30f3146105ed57806374db9ad414610600578063759cb53b1461061b576103af565b80635305bd8e116102b35780635305bd8e1461058b57806367f5e4b8146105b25780636c003a9b146105c55780636fe702c0146105cd576103af565b806342189c8f14610543578063440d72481461054c5780634c36fad714610578576103af565b80631c459a7f11610351578063319a444d11610320578063319a444d146104ce578063379173bb146104f657806337d265db146105095780634032b72b14610530576103af565b80631c459a7f1461047a578063242c135d1461048c5780632da9a694146104945780632e1a7d4d146104bb576103af565b806314ae9f2e1161038d57806314ae9f2e1461040c57806316f0115b1461041f57806319ab453c1461045e5780631aedeabe14610471576103af565b806304f4efc5146103b4578063058062b3146103c95780630acd095b146103ef575b600080fd5b6103c76103c2366004614da0565b610931565b005b6103dc6103d7366004614da0565b610a93565b6040519081526020015b60405180910390f35b6012546103fc9060ff1681565b60405190151581526020016103e6565b6103c761041a366004614bda565b610b58565b6104467f000000000000000000000000000000000000000000000000000000000000000081565b6040516001600160a01b0390911681526020016103e6565b6103c761046c366004614bda565b610cde565b6103dc600c5481565b6012546103fc90610100900460ff1681565b6103dc610f54565b6104467f000000000000000000000000000000000000000000000000000000000000000081565b6103c76104c9366004614da0565b611094565b6104e16104dc366004614dd0565b611111565b604080519283526020830191909152016103e6565b6103dc610504366004614dd0565b611216565b6103dc7f000000000000000000000000000000000000000000000000000000000000000081565b6103c761053e366004614bda565b6112dd565b6103dc600a5481565b6103fc61055a366004614bda565b6001600160a01b03166000908152600d602052604090205460ff1690565b6103c7610586366004614bda565b61145d565b6104467f000000000000000000000000000000000000000000000000000000000000000081565b6103c76105c0366004614da0565b611610565b6103dc61175c565b6010546103fc9060ff1681565b600954610446906001600160a01b031681565b6103dc6105fb366004614da0565b6117f5565b61044673d061d61a4d941c39e5453435b6345dc261c2fce081565b610446734e3fbd56cd56c3e72c1403e103b45db9da5b9d2b81565b61044673f403c135812408bfbe8713b5a23a04b3d48aae3181565b6103dc600e5481565b6103c761180c565b6103c7611816565b6104467f000000000000000000000000000000000000000000000000000000000000000081565b6103dc611aa8565b61044673d533a949740bb3306d119cc777fa900ba034cd5281565b600754610446906001600160a01b031681565b6103dc600f5481565b6103c7611af7565b6107146040518060400160405280601a81526020017f43757276652d436f6e7665782d734254432d537472617465677900000000000081525081565b6040516103e69190614ec9565b6104467f000000000000000000000000000000000000000000000000000000000000000081565b6104467f000000000000000000000000000000000000000000000000000000000000000081565b6103c761077d366004614dd0565b611bb1565b6103c7611de6565b6104467f000000000000000000000000000000000000000000000000000000000000000081565b6104467f000000000000000000000000000000000000000000000000000000000000000081565b600854610446906001600160a01b031681565b6103c76107f9366004614d68565b611e93565b61044661080c366004614da0565b611f67565b6103dc600381565b6103c7610827366004614d68565b611f87565b6103dc600b5481565b6103c7610843366004614bda565b612062565b6103c7610856366004614bda565b612381565b6103dc61254a565b6103dc60115481565b6103c761087a366004614bda565b6126f2565b6103dc7f000000000000000000000000000000000000000000000000000000000000000081565b6103dc6129a0565b600654610446906001600160a01b031681565b6103dc6108cf366004614da0565b6129ad565b6006546001600160a01b0316610446565b6104467f000000000000000000000000000000000000000000000000000000000000000081565b610714604051806040016040528060068152602001650ccb8c0b8c4d60d21b81525081565b7f00000000000000000000000000000000000000000000000000000000000000006001600160a01b0316630c340a246040518163ffffffff1660e01b815260040160206040518083038186803b15801561098a57600080fd5b505afa15801561099e573d6000803e3d6000fd5b505050506040513d601f19601f820116820180604052508101906109c29190614bf6565b6001600160a01b0316336001600160a01b0316146109fb5760405162461bcd60e51b81526004016109f290614f2c565b60405180910390fd5b6127108110610a455760405162461bcd60e51b8152602060048201526016602482015275696e76616c69642d736c6970706167652d76616c756560501b60448201526064016109f2565b60115460408051918252602082018390527f92a63de30132f370b1c9f477f770f1e326f1423d1b569641a4728fa610569f86910160405180910390a180601154610a8f9190615162565b5050565b600081610aa1576000610b50565b670de0b6b3a7640000827f00000000000000000000000000000000000000000000000000000000000000006001600160a01b031663bb7b8b806040518163ffffffff1660e01b815260040160206040518083038186803b158015610b0457600080fd5b505afa158015610b18573d6000803e3d6000fd5b505050506040513d601f19601f82011682018060405250810190610b3c9190614db8565b610b469190615143565b610b50919061500f565b90505b919050565b7f00000000000000000000000000000000000000000000000000000000000000006001600160a01b0316630c340a246040518163ffffffff1660e01b815260040160206040518083038186803b158015610bb157600080fd5b505afa158015610bc5573d6000803e3d6000fd5b505050506040513d601f19601f82011682018060405250810190610be99190614bf6565b6001600160a01b0316336001600160a01b031614610c195760405162461bcd60e51b81526004016109f290614f2c565b600754604051631484968760e11b81526001600160a01b038381166004830152909116906329092d0e90602401602060405180830381600087803b158015610c6057600080fd5b505af1158015610c74573d6000803e3d6000fd5b505050506040513d601f19601f82011682018060405250810190610c989190614d84565b610cdb5760405162461bcd60e51b81526020600482015260146024820152731c995b5bdd994b5ad9595c195c8b59985a5b195960621b60448201526064016109f2565b50565b7f00000000000000000000000000000000000000000000000000000000000000006001600160a01b0316630c340a246040518163ffffffff1660e01b815260040160206040518083038186803b158015610d3757600080fd5b505afa158015610d4b573d6000803e3d6000fd5b505050506040513d601f19601f82011682018060405250810190610d6f9190614bf6565b6001600160a01b0316336001600160a01b031614610d9f5760405162461bcd60e51b81526004016109f290614f2c565b6007546001600160a01b031615610df85760405162461bcd60e51b815260206004820152601b60248201527f6b65657065722d6c6973742d616c72656164792d63726561746564000000000060448201526064016109f2565b6000819050806001600160a01b0316630fab4d256040518163ffffffff1660e01b8152600401602060405180830381600087803b158015610e3857600080fd5b505af1158015610e4c573d6000803e3d6000fd5b505050506040513d601f19601f82011682018060405250810190610e709190614bf6565b600780546001600160a01b0319166001600160a01b03929092169182179055630a3b0a4f610e9b3390565b6040516001600160e01b031960e084901b1681526001600160a01b039091166004820152602401602060405180830381600087803b158015610edc57600080fd5b505af1158015610ef0573d6000803e3d6000fd5b505050506040513d601f19601f82011682018060405250810190610f149190614d84565b610a8f5760405162461bcd60e51b81526020600482015260116024820152701859190b5ad9595c195c8b59985a5b1959607a1b60448201526064016109f2565b6040516370a0823160e01b81523060048201526000907f00000000000000000000000000000000000000000000000000000000000000006001600160a01b0316906370a082319060240160206040518083038186803b158015610fb657600080fd5b505afa158015610fca573d6000803e3d6000fd5b505050506040513d601f19601f82011682018060405250810190610fee9190614db8565b6040516370a0823160e01b81523060048201527f00000000000000000000000000000000000000000000000000000000000000006001600160a01b0316906370a082319060240160206040518083038186803b15801561104d57600080fd5b505afa158015611061573d6000803e3d6000fd5b505050506040513d601f19601f820116820180604052508101906110859190614db8565b61108f9190614ff7565b905090565b337f00000000000000000000000000000000000000000000000000000000000000006001600160a01b0316146111085760405162461bcd60e51b815260206004820152601960248201527818d85b1b195c8b5a5ccb5b9bdd0b5d995cdc195c8b5c1bdbdb603a1b60448201526064016109f2565b610cdb816129be565b6040516370a0823160e01b8152306004820152600090819081906001600160a01b037f000000000000000000000000000000000000000000000000000000000000000016906370a082319060240160206040518083038186803b15801561117757600080fd5b505afa15801561118b573d6000803e3d6000fd5b505050506040513d601f19601f820116820180604052508101906111af9190614db8565b905060006111bb611aa8565b6111c59083614ff7565b90506111d18186611216565b6111db8288615143565b6111e5919061500f565b93508084116111f457836111f6565b805b93508184111561120d5761120a8285615162565b92505b50509250929050565b6000826112245760006112d4565b7f00000000000000000000000000000000000000000000000000000000000000006001600160a01b031663cc2b27d78461125d85612aca565b6040516001600160e01b031960e085901b1681526004810192909252600f0b602482015260440160206040518083038186803b15801561129c57600080fd5b505afa1580156112b0573d6000803e3d6000fd5b505050506040513d601f19601f820116820180604052508101906112d49190614db8565b90505b92915050565b7f00000000000000000000000000000000000000000000000000000000000000006001600160a01b0316630c340a246040518163ffffffff1660e01b815260040160206040518083038186803b15801561133657600080fd5b505afa15801561134a573d6000803e3d6000fd5b505050506040513d601f19601f8201168201806040525081019061136e9190614bf6565b6001600160a01b0316336001600160a01b03161461139e5760405162461bcd60e51b81526004016109f290614f2c565b600754604051630a3b0a4f60e01b81526001600160a01b03838116600483015290911690630a3b0a4f90602401602060405180830381600087803b1580156113e557600080fd5b505af11580156113f9573d6000803e3d6000fd5b505050506040513d601f19601f8201168201806040525081019061141d9190614d84565b610cdb5760405162461bcd60e51b81526020600482015260116024820152701859190b5ad9595c195c8b59985a5b1959607a1b60448201526064016109f2565b7f00000000000000000000000000000000000000000000000000000000000000006001600160a01b0316630c340a246040518163ffffffff1660e01b815260040160206040518083038186803b1580156114b657600080fd5b505afa1580156114ca573d6000803e3d6000fd5b505050506040513d601f19601f820116820180604052508101906114ee9190614bf6565b6001600160a01b0316336001600160a01b03161461151e5760405162461bcd60e51b81526004016109f290614f2c565b6001600160a01b0381166115695760405162461bcd60e51b8152602060048201526012602482015271736d2d616464726573732d69732d7a65726f60701b60448201526064016109f2565b6009546001600160a01b03828116911614156115b45760405162461bcd60e51b815260206004820152600a602482015269736d2d69732d73616d6560b01b60448201526064016109f2565b6009546040516001600160a01b038084169216907f2d19927e7cac08ceb98b38898a4fdff6da6a27295b9a2d62fe250408ebe044e190600090a3600980546001600160a01b0319166001600160a01b0392909216919091179055565b7f00000000000000000000000000000000000000000000000000000000000000006001600160a01b0316630c340a246040518163ffffffff1660e01b815260040160206040518083038186803b15801561166957600080fd5b505afa15801561167d573d6000803e3d6000fd5b505050506040513d601f19601f820116820180604052508101906116a19190614bf6565b6001600160a01b0316336001600160a01b0316146116d15760405162461bcd60e51b81526004016109f290614f2c565b61271081111561171c5760405162461bcd60e51b8152602060048201526016602482015275696e76616c69642d736c6970706167652d76616c756560501b60448201526064016109f2565b600c5460408051918252602082018390527ef1c5db862c7598b3b6765552ca951f498611e06412c2d57f8d0b58f82e7f82910160405180910390a1600c55565b6040516246613160e11b81523060048201526000907f00000000000000000000000000000000000000000000000000000000000000006001600160a01b031690628cc262906024015b60206040518083038186803b1580156117bd57600080fd5b505afa1580156117d1573d6000803e3d6000fd5b505050506040513d601f19601f8201168201806040525081019061108f9190614db8565b6003816003811061180557600080fd5b0154905081565b611814612b50565b565b6007546001600160a01b0316635dbe47e8336040516001600160e01b031960e084901b1681526001600160a01b03909116600482015260240160206040518083038186803b15801561186757600080fd5b505afa15801561187b573d6000803e3d6000fd5b505050506040513d601f19601f8201168201806040525081019061189f9190614d84565b6118bb5760405162461bcd60e51b81526004016109f290614efc565b60008060006118c8612be9565b6040516302df682360e11b815260048101849052602481018390526044810182905292955090935091506001600160a01b037f000000000000000000000000000000000000000000000000000000000000000016906305bed04690606401600060405180830381600087803b15801561194057600080fd5b505af1158015611954573d6000803e3d6000fd5b50505050611960612d4e565b60105460ff16611aa357604051639f2b283360e01b8152306004820152600090611a0d906001600160a01b037f00000000000000000000000000000000000000000000000000000000000000001690639f2b28339060240160206040518083038186803b1580156119d057600080fd5b505afa1580156119e4573d6000803e3d6000fd5b505050506040513d601f19601f82011682018060405250810190611a089190614db8565b612e15565b905082811115611aa1576001600160a01b037f00000000000000000000000000000000000000000000000000000000000000001663ddd6d260611a508584615162565b6040518263ffffffff1660e01b8152600401611a6e91815260200190565b600060405180830381600087803b158015611a8857600080fd5b505af1158015611a9c573d6000803e3d6000fd5b505050505b505b505050565b6040516370a0823160e01b81523060048201526000907f00000000000000000000000000000000000000000000000000000000000000006001600160a01b0316906370a08231906024016117a5565b6007546001600160a01b0316635dbe47e8336040516001600160e01b031960e084901b1681526001600160a01b03909116600482015260240160206040518083038186803b158015611b4857600080fd5b505afa158015611b5c573d6000803e3d6000fd5b505050506040513d601f19601f82011682018060405250810190611b809190614d84565b611b9c5760405162461bcd60e51b81526004016109f290614efc565b611ba66000612e46565b611814600019612e46565b7f00000000000000000000000000000000000000000000000000000000000000006001600160a01b0316630c340a246040518163ffffffff1660e01b815260040160206040518083038186803b158015611c0a57600080fd5b505afa158015611c1e573d6000803e3d6000fd5b505050506040513d601f19601f82011682018060405250810190611c429190614bf6565b6001600160a01b0316336001600160a01b031614611c725760405162461bcd60e51b81526004016109f290614f2c565b600960009054906101000a90046001600160a01b03166001600160a01b031663c2fba6676040518163ffffffff1660e01b815260040160206040518083038186803b158015611cc057600080fd5b505afa158015611cd4573d6000803e3d6000fd5b505050506040513d601f19601f82011682018060405250810190611cf89190614db8565b8110611d3d5760405162461bcd60e51b81526020600482015260146024820152730d2dcecc2d8d2c85ae4deeae8cae45ad2dcc8caf60631b60448201526064016109f2565b81611d4857600a5491505b603b8211611d905760405162461bcd60e51b81526020600482015260156024820152741a5b9d985b1a590b5bdc9858db194b5c195c9a5bd9605a1b60448201526064016109f2565b600a54600b546040805192835260208301859052820152606081018290527f83bc5ab8030537fcf1d29c2334f6d22c26c82dcbe5ff03923d2cff5c692c0a7f9060800160405180910390a1600a91909155600b55565b6007546001600160a01b0316635dbe47e8336040516001600160e01b031960e084901b1681526001600160a01b03909116600482015260240160206040518083038186803b158015611e3757600080fd5b505afa158015611e4b573d6000803e3d6000fd5b505050506040513d601f19601f82011682018060405250810190611e6f9190614d84565b611e8b5760405162461bcd60e51b81526004016109f290614efc565b611814612fd4565b7f00000000000000000000000000000000000000000000000000000000000000006001600160a01b0316630c340a246040518163ffffffff1660e01b815260040160206040518083038186803b158015611eec57600080fd5b505afa158015611f00573d6000803e3d6000fd5b505050506040513d601f19601f82011682018060405250810190611f249190614bf6565b6001600160a01b0316336001600160a01b031614611f545760405162461bcd60e51b81526004016109f290614f2c565b6012805460ff1916911515919091179055565b60008160038110611f7757600080fd5b01546001600160a01b0316905081565b7f00000000000000000000000000000000000000000000000000000000000000006001600160a01b0316630c340a246040518163ffffffff1660e01b815260040160206040518083038186803b158015611fe057600080fd5b505afa158015611ff4573d6000803e3d6000fd5b505050506040513d601f19601f820116820180604052508101906120189190614bf6565b6001600160a01b0316336001600160a01b0316146120485760405162461bcd60e51b81526004016109f290614f2c565b601280549115156101000261ff0019909216919091179055565b337f00000000000000000000000000000000000000000000000000000000000000006001600160a01b0316146120d65760405162461bcd60e51b815260206004820152601960248201527818d85b1b195c8b5a5ccb5b9bdd0b5d995cdc195c8b5c1bdbdb603a1b60448201526064016109f2565b6001600160a01b03811661212c5760405162461bcd60e51b815260206004820152601c60248201527f6e65772d73747261746567792d616464726573732d69732d7a65726f0000000060448201526064016109f2565b7f00000000000000000000000000000000000000000000000000000000000000006001600160a01b0316816001600160a01b03166316f0115b6040518163ffffffff1660e01b815260040160206040518083038186803b15801561218f57600080fd5b505afa1580156121a3573d6000803e3d6000fd5b505050506040513d601f19601f820116820180604052508101906121c79190614bf6565b6001600160a01b0316146122165760405162461bcd60e51b81526020600482015260166024820152756e6f742d76616c69642d6e65772d737472617465677960501b60448201526064016109f2565b61221f81613294565b6006546040516370a0823160e01b81523060048201526122b39183916001600160a01b03909116906370a082319060240160206040518083038186803b15801561226857600080fd5b505afa15801561227c573d6000803e3d6000fd5b505050506040513d601f19601f820116820180604052508101906122a09190614db8565b6006546001600160a01b0316919061329c565b6040516370a0823160e01b8152306004820152610cdb9082906001600160a01b037f000000000000000000000000000000000000000000000000000000000000000016906370a082319060240160206040518083038186803b15801561231857600080fd5b505afa15801561232c573d6000803e3d6000fd5b505050506040513d601f19601f820116820180604052508101906123509190614db8565b6001600160a01b037f000000000000000000000000000000000000000000000000000000000000000016919061329c565b7f00000000000000000000000000000000000000000000000000000000000000006001600160a01b0316630c340a246040518163ffffffff1660e01b815260040160206040518083038186803b1580156123da57600080fd5b505afa1580156123ee573d6000803e3d6000fd5b505050506040513d601f19601f820116820180604052508101906124129190614bf6565b6001600160a01b0316336001600160a01b0316146124425760405162461bcd60e51b81526004016109f290614f2c565b6001600160a01b0381166124985760405162461bcd60e51b815260206004820152601d60248201527f6665652d636f6c6c6563746f722d616464726573732d69732d7a65726f00000060448201526064016109f2565b6008546001600160a01b03828116911614156124ee5760405162461bcd60e51b81526020600482015260156024820152746665652d636f6c6c6563746f722d69732d73616d6560581b60448201526064016109f2565b6008546040516001600160a01b038084169216907f0f06062680f9bd68e786e9980d9bb03d73d5620fc3b345e417b6eacb310b970690600090a3600880546001600160a01b0319166001600160a01b0392909216919091179055565b60008061255561175c565b90506000811561262657600954604051631d1f307960e31b815273d533a949740bb3306d119cc777fa900ba034cd5260048201526001600160a01b037f000000000000000000000000000000000000000000000000000000000000000081166024830152604482018590529091169063e8f983c89060640160006040518083038186803b1580156125e557600080fd5b505afa1580156125f9573d6000803e3d6000fd5b505050506040513d6000823e601f3d908101601f191682016040526126219190810190614c12565b509150505b806126406108cf6126386103d7610f54565b6011546132ff565b6040516370a0823160e01b81523060048201527f00000000000000000000000000000000000000000000000000000000000000006001600160a01b0316906370a082319060240160206040518083038186803b15801561269f57600080fd5b505afa1580156126b3573d6000803e3d6000fd5b505050506040513d601f19601f820116820180604052508101906126d79190614db8565b6126e19190614ff7565b6126eb9190614ff7565b9250505090565b6007546001600160a01b0316635dbe47e8336040516001600160e01b031960e084901b1681526001600160a01b03909116600482015260240160206040518083038186803b15801561274357600080fd5b505afa158015612757573d6000803e3d6000fd5b505050506040513d601f19601f8201168201806040525081019061277b9190614d84565b6127975760405162461bcd60e51b81526004016109f290614efc565b6008546001600160a01b03166127e75760405162461bcd60e51b81526020600482015260156024820152741999594b58dbdb1b1958dd1bdc8b5b9bdd0b5cd95d605a1b60448201526064016109f2565b7f00000000000000000000000000000000000000000000000000000000000000006001600160a01b0316816001600160a01b031614156128695760405162461bcd60e51b815260206004820152601f60248201527f6e6f742d616c6c6f7765642d746f2d73776565702d636f6c6c61746572616c0060448201526064016109f2565b6001600160a01b0381166000908152600d602052604090205460ff16156128c95760405162461bcd60e51b815260206004820152601460248201527306e6f742d616c6c6f7765642d746f2d73776565760641b60448201526064016109f2565b6001600160a01b03811673eeeeeeeeeeeeeeeeeeeeeeeeeeeeeeeeeeeeeeee141561290957600854612904906001600160a01b031647613322565b610cdb565b6040516370a0823160e01b81523060048201526000906001600160a01b038316906370a082319060240160206040518083038186803b15801561294b57600080fd5b505afa15801561295f573d6000803e3d6000fd5b505050506040513d601f19601f820116820180604052508101906129839190614db8565b600854909150610a8f906001600160a01b0384811691168361329c565b600061108f61254a565b90565b6000610b506402540be4008361500f565b6040516370a0823160e01b81523060048201526000907f00000000000000000000000000000000000000000000000000000000000000006001600160a01b0316906370a082319060240160206040518083038186803b158015612a2057600080fd5b505afa158015612a34573d6000803e3d6000fd5b505050506040513d601f19601f82011682018060405250810190612a589190614db8565b905080821115612a7657612a74612a6f8284615162565b61343b565b505b610a8f6001600160a01b037f0000000000000000000000000000000000000000000000000000000000000000167f00000000000000000000000000000000000000000000000000000000000000008461329c565b60006f7fffffffffffffffffffffffffffffff198212158015612af057506001607f1b82125b612b4c5760405162461bcd60e51b815260206004820152602760248201527f53616665436173743a2076616c756520646f65736e27742066697420696e20316044820152663238206269747360c81b60648201526084016109f2565b5090565b604051634b82009360e01b81523060048201527f00000000000000000000000000000000000000000000000000000000000000006001600160a01b031690634b82009390602401602060405180830381600087803b158015612bb157600080fd5b505af1158015612bc5573d6000803e3d6000fd5b505050506040513d601f19601f82011682018060405250810190610cdb9190614d84565b604051636a9eee1360e11b81523060048201526000908190819081906001600160a01b037f0000000000000000000000000000000000000000000000000000000000000000169063d53ddc269060240160206040518083038186803b158015612c5157600080fd5b505afa158015612c65573d6000803e3d6000fd5b505050506040513d601f19601f82011682018060405250810190612c899190614db8565b604051639f2b283360e01b81523060048201529091506000906001600160a01b037f00000000000000000000000000000000000000000000000000000000000000001690639f2b28339060240160206040518083038186803b158015612cee57600080fd5b505afa158015612d02573d6000803e3d6000fd5b505050506040513d601f19601f82011682018060405250810190612d269190614db8565b90506000612d3382613575565b91975095509050612d448382613784565b9350505050909192565b6010805460ff191690556040516370a0823160e01b81523060048201526000907f00000000000000000000000000000000000000000000000000000000000000006001600160a01b0316906370a082319060240160206040518083038186803b158015612dba57600080fd5b505afa158015612dce573d6000803e3d6000fd5b505050506040513d601f19601f82011682018060405250810190612df29190614db8565b9050612dfd816137a4565b6010805460ff19169115919091179055610cdb613ac2565b600080612e296108cf6126386103d7610f54565b905082811015612e4057612e3d8184615162565b91505b50919050565b612e8e6001600160a01b037f00000000000000000000000000000000000000000000000000000000000000001673f403c135812408bfbe8713b5a23a04b3d48aae3183613c17565b60005b600960009054906101000a90046001600160a01b03166001600160a01b031663c2fba6676040518163ffffffff1660e01b815260040160206040518083038186803b158015612edf57600080fd5b505afa158015612ef3573d6000803e3d6000fd5b505050506040513d601f19601f82011682018060405250810190612f179190614db8565b811015612fca57600954604051636e74a6f760e01b815260048101839052612fb8916001600160a01b031690636e74a6f79060240160206040518083038186803b158015612f6457600080fd5b505afa158015612f78573d6000803e3d6000fd5b505050506040513d601f19601f82011682018060405250810190612f9c9190614bf6565b734e3fbd56cd56c3e72c1403e103b45db9da5b9d2b9084613c17565b80612fc281615201565b915050612e91565b50610cdb81613d3b565b600954600a54604051630f30f2d360e21b81526001600160a01b0390921691633cc3cb4c9161303491734e3fbd56cd56c3e72c1403e103b45db9da5b9d2b9173c02aaa39b223fe8d0a0e5c4f27ead9083c756cc291600190600401614e68565b602060405180830381600087803b15801561304e57600080fd5b505af1158015613062573d6000803e3d6000fd5b505050506040513d601f19601f820116820180604052508101906130869190614bf6565b50600954600a54600b54604051630f30f2d360e21b81526001600160a01b0390931692633cc3cb4c926130e99273d533a949740bb3306d119cc777fa900ba034cd529273c02aaa39b223fe8d0a0e5c4f27ead9083c756cc2929190600401614e68565b602060405180830381600087803b15801561310357600080fd5b505af1158015613117573d6000803e3d6000fd5b505050506040513d601f19601f8201168201806040525081019061313b9190614bf6565b5060005b600381600f0b1215610cdb5760095460405163046e8dd760e31b8152600f83900b60048201526001600160a01b0391821691633cc3cb4c917f0000000000000000000000000000000000000000000000000000000000000000909116906323746eb89060240160206040518083038186803b1580156131bd57600080fd5b505afa1580156131d1573d6000803e3d6000fd5b505050506040513d601f19601f820116820180604052508101906131f59190614bf6565b73c02aaa39b223fe8d0a0e5c4f27ead9083c756cc2600a54600b546040518563ffffffff1660e01b815260040161322f9493929190614e68565b602060405180830381600087803b15801561324957600080fd5b505af115801561325d573d6000803e3d6000fd5b505050506040513d601f19601f820116820180604052508101906132819190614bf6565b508061328c816151d2565b91505061313f565b610cdb613f74565b6040516001600160a01b038316602482015260448101829052611aa390849063a9059cbb60e01b906064015b60408051601f198184030181529190526020810180516001600160e01b03166001600160e01b031990931692909217909152613ff2565b600061271061330e8382615162565b6133189085615143565b6112d4919061500f565b804710156133725760405162461bcd60e51b815260206004820152601d60248201527f416464726573733a20696e73756666696369656e742062616c616e636500000060448201526064016109f2565b6000826001600160a01b03168260405160006040518083038185875af1925050503d80600081146133bf576040519150601f19603f3d011682016040523d82523d6000602084013e6133c4565b606091505b5050905080611aa35760405162461bcd60e51b815260206004820152603a60248201527f416464726573733a20756e61626c6520746f2073656e642076616c75652c207260448201527f6563697069656e74206d6179206861766520726576657274656400000000000060648201526084016109f2565b60008161344a57506000610b53565b7f00000000000000000000000000000000000000000000000000000000000000006000806134788584611111565b91509150613485816140c4565b60006134ba670de0b6b3a76400006134a66126386134a161411e565b614282565b6134b09086615143565b6108cf919061500f565b90506134c78382866142e7565b6040516370a0823160e01b81523060048201527f00000000000000000000000000000000000000000000000000000000000000006001600160a01b0316906370a082319060240160206040518083038186803b15801561352657600080fd5b505afa15801561353a573d6000803e3d6000fd5b505050506040513d601f19601f8201168201806040525081019061355e9190614db8565b94508585111561356c578594505b50505050919050565b6040516370a0823160e01b81523060048201526000908190819081906001600160a01b037f000000000000000000000000000000000000000000000000000000000000000016906370a082319060240160206040518083038186803b1580156135dd57600080fd5b505afa1580156135f1573d6000803e3d6000fd5b505050506040513d601f19601f820116820180604052508101906136159190614db8565b90506136407f0000000000000000000000000000000000000000000000000000000000000000614385565b6040516370a0823160e01b81523060048201526000907f00000000000000000000000000000000000000000000000000000000000000006001600160a01b0316906370a082319060240160206040518083038186803b1580156136a257600080fd5b505afa1580156136b6573d6000803e3d6000fd5b505050506040513d601f19601f820116820180604052508101906136da9190614db8565b90506136e68282615162565b945060006136fb6108cf6126386103d7610f54565b6137059084614ff7565b90508681111561372a576137198782615162565b6137239087614ff7565b9550613737565b6137348188615162565b94505b84861115613769576137498587615162565b95506000945081861115613764576137618287615162565b93505b61377a565b6137738686615162565b9450600095505b5050509193909250565b6000613793612a6f8385614ff7565b9050828111156112d7575090919050565b60008115613aba576137b4614bbc565b82817f0000000000000000000000000000000000000000000000000000000000000000600381106137f557634e487b7160e01b600052603260045260246000fd5b6020020152604051633883e11960e01b81526000906138a0906001600160a01b037f00000000000000000000000000000000000000000000000000000000000000001690633883e11990613850908690600190600401614e91565b60206040518083038186803b15801561386857600080fd5b505afa15801561387c573d6000803e3d6000fd5b505050506040513d601f19601f820116820180604052508101906126389190614db8565b9050600060037f0000000000000000000000000000000000000000000000000000000000000000600381106138e557634e487b7160e01b600052603260045260246000fd5b01546138f2906012615162565b6138fd90600a615075565b7f00000000000000000000000000000000000000000000000000000000000000006001600160a01b031663bb7b8b806040518163ffffffff1660e01b815260040160206040518083038186803b15801561395657600080fd5b505afa15801561396a573d6000803e3d6000fd5b505050506040513d601f19601f8201168201806040525081019061398e9190614db8565b61399661411e565b6139a09088615143565b6139aa919061500f565b6139b49190615143565b9050808211156139c15750805b604051634515cef360e01b81526001600160a01b037f00000000000000000000000000000000000000000000000000000000000000001690634515cef390613a0f9086908590600401614eae565b600060405180830381600087803b158015613a2957600080fd5b505af1925050508015613a3a575060015b613ab657613a46615248565b806308c379a01415613aaa5750613a5b61525f565b80613a665750613aac565b7f63299ad14374170063e6f2e5559417926f3a23da67eefa83fc2e9bf9f21e915c81604051613a959190614ec9565b60405180910390a16000945050505050610b53565b505b3d6000803e3d6000fd5b5050505b506001919050565b6040516370a0823160e01b81523060048201526000907f00000000000000000000000000000000000000000000000000000000000000006001600160a01b0316906370a082319060240160206040518083038186803b158015613b2457600080fd5b505afa158015613b38573d6000803e3d6000fd5b505050506040513d601f19601f82011682018060405250810190613b5c9190614db8565b90508015610cdb576040516321d0683360e11b81527f00000000000000000000000000000000000000000000000000000000000000006004820152602481018290526001604482015273f403c135812408bfbe8713b5a23a04b3d48aae31906343a0d066906064015b602060405180830381600087803b158015613bdf57600080fd5b505af1158015613bf3573d6000803e3d6000fd5b505050506040513d601f19601f82011682018060405250810190610a8f9190614d84565b801580613ca05750604051636eb1769f60e11b81523060048201526001600160a01b03838116602483015284169063dd62ed3e9060440160206040518083038186803b158015613c6657600080fd5b505afa158015613c7a573d6000803e3d6000fd5b505050506040513d601f19601f82011682018060405250810190613c9e9190614db8565b155b613d0b5760405162461bcd60e51b815260206004820152603660248201527f5361666545524332303a20617070726f76652066726f6d206e6f6e2d7a65726f60448201527520746f206e6f6e2d7a65726f20616c6c6f77616e636560501b60648201526084016109f2565b6040516001600160a01b038316602482015260448101829052611aa390849063095ea7b360e01b906064016132c8565b613d8f6001600160a01b037f0000000000000000000000000000000000000000000000000000000000000000167f000000000000000000000000000000000000000000000000000000000000000083613c17565b613de36001600160a01b037f0000000000000000000000000000000000000000000000000000000000000000167f000000000000000000000000000000000000000000000000000000000000000083613c17565b60005b600960009054906101000a90046001600160a01b03166001600160a01b031663c2fba6676040518163ffffffff1660e01b815260040160206040518083038186803b158015613e3457600080fd5b505afa158015613e48573d6000803e3d6000fd5b505050506040513d601f19601f82011682018060405250810190613e6c9190614db8565b811015613f1f57600954604051636e74a6f760e01b815260048101839052613f0d916001600160a01b031690636e74a6f79060240160206040518083038186803b158015613eb957600080fd5b505afa158015613ecd573d6000803e3d6000fd5b505050506040513d601f19601f82011682018060405250810190613ef19190614bf6565b73d533a949740bb3306d119cc777fa900ba034cd529084613c17565b80613f1781615201565b915050613de6565b50610cdb6001600160a01b037f0000000000000000000000000000000000000000000000000000000000000000167f000000000000000000000000000000000000000000000000000000000000000083613c17565b6012546040516324f81cd160e11b815260ff909116151560048201527f00000000000000000000000000000000000000000000000000000000000000006001600160a01b0316906349f039a290602401600060405180830381600087803b158015613fde57600080fd5b505af1158015611aa1573d6000803e3d6000fd5b6000614047826040518060400160405280602081526020017f5361666545524332303a206c6f772d6c6576656c2063616c6c206661696c6564815250856001600160a01b031661479b9092919063ffffffff16565b805190915015611aa357808060200190518101906140659190614d84565b611aa35760405162461bcd60e51b815260206004820152602a60248201527f5361666545524332303a204552433230206f7065726174696f6e20646964206e6044820152691bdd081cdd58d8d9595960b21b60648201526084016109f2565b8015610cdb57604051636197390160e11b815260048101829052600060248201527f00000000000000000000000000000000000000000000000000000000000000006001600160a01b03169063c32e720290604401613bc5565b6000600a544261412e9190615162565b600f5411801561413f5750600e5415155b1561414d5750600e546129aa565b60008060005b6003811015614215576000806141d56000846003811061418357634e487b7160e01b600052603260045260246000fd5b01546001600160a01b031673c02aaa39b223fe8d0a0e5c4f27ead9083c756cc26003868181106141c357634e487b7160e01b600052603260045260246000fd5b01546141d090600a615075565b6147b4565b915091508015614200578415806141eb57508482105b156141f4578194505b81841015614200578193505b5050808061420d90615201565b915050614153565b50816142555760405162461bcd60e51b815260206004820152600f60248201526e6e6f2d6f7261636c652d726174657360881b60448201526064016109f2565b42600f558061426c83670de0b6b3a7640000615143565b614276919061500f565b600e8190559250505090565b6000670de0b6b3a7640000827f00000000000000000000000000000000000000000000000000000000000000006001600160a01b031663bb7b8b806040518163ffffffff1660e01b815260040160206040518083038186803b158015610b0457600080fd5b7f00000000000000000000000000000000000000000000000000000000000000006001600160a01b0316631a4d01d28461432084612aca565b6040516001600160e01b031960e085901b1681526004810192909252600f0b602482015260448101859052606401600060405180830381600087803b15801561436857600080fd5b505af115801561437c573d6000803e3d6000fd5b50505050505050565b601254604051637050ccd960e01b815230600482015261010090910460ff16151560248201527f00000000000000000000000000000000000000000000000000000000000000006001600160a01b031690637050ccd990604401602060405180830381600087803b1580156143f957600080fd5b505af115801561440d573d6000803e3d6000fd5b505050506040513d601f19601f820116820180604052508101906144319190614d84565b506040516370a0823160e01b815230600482015260009073d533a949740bb3306d119cc777fa900ba034cd52906370a082319060240160206040518083038186803b15801561447f57600080fd5b505afa158015614493573d6000803e3d6000fd5b505050506040513d601f19601f820116820180604052508101906144b79190614db8565b905080156145e9576000612710600c5410156145c75760008061450373d533a949740bb3306d119cc777fa900ba034cd5273c02aaa39b223fe8d0a0e5c4f27ead9083c756cc2866147b4565b9150915060008061452973c02aaa39b223fe8d0a0e5c4f27ead9083c756cc288866147b4565b915091508261456d5760405162461bcd60e51b815260206004820152601060248201526f7374616c652d6372762d6f7261636c6560801b60448201526064016109f2565b806145b45760405162461bcd60e51b81526020600482015260176024820152767374616c652d636f6c6c61746572616c2d6f7261636c6560481b60448201526064016109f2565b6145c082600c546132ff565b9450505050505b6145e773d533a949740bb3306d119cc777fa900ba034cd528484846148a5565b505b6040516370a0823160e01b8152306004820152734e3fbd56cd56c3e72c1403e103b45db9da5b9d2b906370a082319060240160206040518083038186803b15801561463357600080fd5b505afa158015614647573d6000803e3d6000fd5b505050506040513d601f19601f8201168201806040525081019061466b9190614db8565b90508015610a8f576000612710600c54101561477b576000806146b7734e3fbd56cd56c3e72c1403e103b45db9da5b9d2b73c02aaa39b223fe8d0a0e5c4f27ead9083c756cc2866147b4565b915091506000806146dd73c02aaa39b223fe8d0a0e5c4f27ead9083c756cc288866147b4565b91509150826147215760405162461bcd60e51b815260206004820152601060248201526f7374616c652d6376782d6f7261636c6560801b60448201526064016109f2565b806147685760405162461bcd60e51b81526020600482015260176024820152767374616c652d636f6c6c61746572616c2d6f7261636c6560481b60448201526064016109f2565b61477482600c546132ff565b9450505050505b611aa3734e3fbd56cd56c3e72c1403e103b45db9da5b9d2b8484846148a5565b60606147aa8484600085614a5b565b90505b9392505050565b600954600a54600b5460405163b67bb24d60e01b81526001600160a01b03878116600483015286811660248301526044820186905260648201939093526084810191909152600092839283928392919091169063b67bb24d9060a401606060405180830381600087803b15801561482a57600080fd5b505af115801561483e573d6000803e3d6000fd5b505050506040513d601f19601f820116820180604052508101906148629190614df1565b5091509150600a54426148759190615162565b8111801561488257508115155b15614893575091506001905061489d565b6000809350935050505b935093915050565b600954604051631d1f307960e31b81526001600160a01b038681166004830152858116602483015260448201859052600092839283929091169063e8f983c89060640160006040518083038186803b15801561490057600080fd5b505afa158015614914573d6000803e3d6000fd5b505050506040513d6000823e601f3d908101601f1916820160405261493c9190810190614c12565b925092509250836000141561495057600193505b811561437c57600954604051636e74a6f760e01b8152600481018390526001600160a01b0390911690636e74a6f79060240160206040518083038186803b15801561499a57600080fd5b505afa1580156149ae573d6000803e3d6000fd5b505050506040513d601f19601f820116820180604052508101906149d29190614bf6565b6001600160a01b03166338ed173986868630426040518663ffffffff1660e01b8152600401614a05959493929190614f63565b600060405180830381600087803b158015614a1f57600080fd5b505af1158015614a33573d6000803e3d6000fd5b505050506040513d6000823e601f3d908101601f19168201604052611a9c9190810190614ccb565b606082471015614abc5760405162461bcd60e51b815260206004820152602660248201527f416464726573733a20696e73756666696369656e742062616c616e636520666f6044820152651c8818d85b1b60d21b60648201526084016109f2565b843b614b0a5760405162461bcd60e51b815260206004820152601d60248201527f416464726573733a2063616c6c20746f206e6f6e2d636f6e747261637400000060448201526064016109f2565b600080866001600160a01b03168587604051614b269190614e4c565b60006040518083038185875af1925050503d8060008114614b63576040519150601f19603f3d011682016040523d82523d6000602084013e614b68565b606091505b5091509150614b78828286614b83565b979650505050505050565b60608315614b925750816147ad565b825115614ba25782518084602001fd5b8160405162461bcd60e51b81526004016109f29190614ec9565b60405180606001604052806003906020820280368337509192915050565b600060208284031215614beb578081fd5b81356147ad816152f1565b600060208284031215614c07578081fd5b81516147ad816152f1565b600080600060608486031215614c26578182fd5b835167ffffffffffffffff811115614c3c578283fd5b8401601f81018613614c4c578283fd5b80516020614c5982614fd3565b604051614c6682826151a5565b8381528281019150848301600585901b860184018b1015614c85578788fd5b8795505b84861015614cb0578051614c9c816152f1565b835260019590950194918301918301614c89565b50918801516040909801519199979850909695505050505050565b60006020808385031215614cdd578182fd5b825167ffffffffffffffff811115614cf3578283fd5b8301601f81018513614d03578283fd5b8051614d0e81614fd3565b604051614d1b82826151a5565b8281528481019150838501600584901b85018601891015614d3a578687fd5b8694505b83851015614d5c578051835260019490940193918501918501614d3e565b50979650505050505050565b600060208284031215614d79578081fd5b81356147ad81615306565b600060208284031215614d95578081fd5b81516147ad81615306565b600060208284031215614db1578081fd5b5035919050565b600060208284031215614dc9578081fd5b5051919050565b60008060408385031215614de2578182fd5b50508035926020909101359150565b600080600060608486031215614e05578283fd5b83519250602084015191506040840151614e1e81615306565b809150509250925092565b8060005b6003811015611aa1578151845260209384019390910190600101614e2d565b60008251614e5e818460208701615179565b9190910192915050565b6001600160a01b0394851681529290931660208301526040820152606081019190915260800190565b60808101614e9f8285614e29565b82151560608301529392505050565b60808101614ebc8285614e29565b8260608301529392505050565b6000602082528251806020840152614ee8816040850160208701615179565b601f01601f19169190910160400192915050565b60208082526016908201527531b0b63632b916b4b996b737ba16b096b5b2b2b832b960511b604082015260600190565b6020808252601a908201527f63616c6c65722d69732d6e6f742d7468652d676f7665726e6f72000000000000604082015260600190565b600060a082018783526020878185015260a0604085015281875180845260c0860191508289019350845b81811015614fb25784516001600160a01b031683529383019391830191600101614f8d565b50506001600160a01b03969096166060850152505050608001529392505050565b600067ffffffffffffffff821115614fed57614fed615232565b5060051b60200190565b6000821982111561500a5761500a61521c565b500190565b60008261502a57634e487b7160e01b81526012600452602481fd5b500490565b80825b6001808611615041575061506c565b8187048211156150535761505361521c565b8086161561506057918102915b9490941c938002615032565b94509492505050565b60006112d4600019848460008261508e575060016147ad565b8161509b575060006147ad565b81600181146150b157600281146150bb576150e8565b60019150506147ad565b60ff8411156150cc576150cc61521c565b6001841b9150848211156150e2576150e261521c565b506147ad565b5060208310610133831016604e8410600b841016171561511b575081810a838111156151165761511661521c565b6147ad565b615128848484600161502f565b80860482111561513a5761513a61521c565b02949350505050565b600081600019048311821515161561515d5761515d61521c565b500290565b6000828210156151745761517461521c565b500390565b60005b8381101561519457818101518382015260200161517c565b83811115611aa15750506000910152565b601f8201601f1916810167ffffffffffffffff811182821017156151cb576151cb615232565b6040525050565b600081600f0b6f7fffffffffffffffffffffffffffffff8114156151f8576151f861521c565b60010192915050565b60006000198214156152155761521561521c565b5060010190565b634e487b7160e01b600052601160045260246000fd5b634e487b7160e01b600052604160045260246000fd5b600060033d11156129aa57600481823e5160e01c90565b600060443d101561526f576129aa565b6040516003193d81016004833e81513d67ffffffffffffffff81602484011181841117156152a15750505050506129aa565b82850191508151818111156152bb575050505050506129aa565b843d87010160208285010111156152d7575050505050506129aa565b6152e6602082860101876151a5565b509094505050505090565b6001600160a01b0381168114610cdb57600080fd5b8015158114610cdb57600080fdfea26469706673582212202d63500b530522a663e31fec1a3b9bf5550db53c1878df7c598c5e30c76a16e764736f6c63430008030033",
  "devdoc": {
    "kind": "dev",
    "methods": {
      "addKeeper(address)": {
        "params": {
          "_keeperAddress": "keeper address to add."
        }
      },
      "approveToken()": {
        "details": "Approve all required tokens"
      },
      "convertFrom18(uint256)": {
        "details": "Convert from 18 decimals to token defined decimals. Default no conversion."
      },
      "init(address)": {
        "params": {
          "_addressListFactory": "To support same code in eth side chain, user _addressListFactory as param ethereum- 0xded8217De022706A191eE7Ee0Dc9df1185Fb5dA3 polygon-0xD10D5696A350D65A9AA15FE8B258caB4ab1bF291"
        }
      },
      "isReservedToken(address)": {
        "details": "Check whether given token is reserved or not. Reserved tokens are not allowed to sweep."
      },
      "migrate(address)": {
        "details": "_beforeMigration hook can be implemented in child strategy to do extra steps.",
        "params": {
          "_newStrategy": "Address of new strategy"
        }
      },
      "rebalance()": {
        "details": "Rebalance profit, loss and investment of this strategy"
      },
      "removeKeeper(address)": {
        "params": {
          "_keeperAddress": "keeper address to remove."
        }
      },
      "sweepERC20(address)": {
        "details": "sweep given token to feeCollector of strategy",
        "params": {
          "_fromToken": "token address to sweep"
        }
      },
      "totalValue()": {
        "details": "Report total value in collateral token"
      },
      "totalValueCurrent()": {
        "details": "Report total value in collateral token"
      },
      "updateFeeCollector(address)": {
        "params": {
          "_feeCollector": "fee collector address"
        }
      },
      "updateSwapManager(address)": {
        "params": {
          "_swapManager": "swap manager address"
        }
      },
      "withdraw(uint256)": {
        "details": "Withdraw collateral token from lending pool.",
        "params": {
          "_amount": "Amount of collateral token"
        }
      }
    },
    "version": 1
  },
  "userdoc": {
    "kind": "user",
    "methods": {
      "addKeeper(address)": {
        "notice": "Add given address in keepers list."
      },
      "init(address)": {
        "notice": "Create keeper list NOTE: Any function with onlyKeeper modifier will not work until this function is called. NOTE: Due to gas constraint this function cannot be called in constructor."
      },
      "migrate(address)": {
        "notice": "Migrate all asset and vault ownership,if any, to new strategy"
      },
      "removeKeeper(address)": {
        "notice": "Remove given address from keepers list."
      },
      "token()": {
        "notice": "Returns address of token correspond to collateral token"
      },
      "totalValue()": {
        "notice": "Calculate total value of asset under management"
      },
      "totalValueCurrent()": {
        "notice": "Calculate total value of asset under management (in real-time)"
      },
      "updateFeeCollector(address)": {
        "notice": "Update fee collector"
      },
      "updateSwapManager(address)": {
        "notice": "Update swap manager address"
      }
    },
    "version": 1
  },
  "storageLayout": {
    "storage": [
      {
        "astId": 24859,
        "contract": "contracts/strategies/convex/ConvexSBTCStrategyWBTC.sol:ConvexSBTCStrategyWBTC",
        "label": "coins",
        "offset": 0,
        "slot": "0",
        "type": "t_array(t_address)3_storage"
      },
      {
        "astId": 24867,
        "contract": "contracts/strategies/convex/ConvexSBTCStrategyWBTC.sol:ConvexSBTCStrategyWBTC",
        "label": "coinDecimals",
        "offset": 0,
        "slot": "3",
        "type": "t_array(t_uint256)3_storage"
      },
      {
        "astId": 12211,
        "contract": "contracts/strategies/convex/ConvexSBTCStrategyWBTC.sol:ConvexSBTCStrategyWBTC",
        "label": "receiptToken",
        "offset": 0,
        "slot": "6",
        "type": "t_address"
      },
      {
        "astId": 12217,
        "contract": "contracts/strategies/convex/ConvexSBTCStrategyWBTC.sol:ConvexSBTCStrategyWBTC",
        "label": "keepers",
        "offset": 0,
        "slot": "7",
        "type": "t_contract(IAddressList)3647"
      },
      {
        "astId": 12220,
        "contract": "contracts/strategies/convex/ConvexSBTCStrategyWBTC.sol:ConvexSBTCStrategyWBTC",
        "label": "feeCollector",
        "offset": 0,
        "slot": "8",
        "type": "t_address"
      },
      {
        "astId": 12223,
        "contract": "contracts/strategies/convex/ConvexSBTCStrategyWBTC.sol:ConvexSBTCStrategyWBTC",
        "label": "swapManager",
        "offset": 0,
        "slot": "9",
        "type": "t_contract(ISwapManager)3950"
      },
      {
        "astId": 12226,
        "contract": "contracts/strategies/convex/ConvexSBTCStrategyWBTC.sol:ConvexSBTCStrategyWBTC",
        "label": "oraclePeriod",
        "offset": 0,
        "slot": "10",
        "type": "t_uint256"
      },
      {
        "astId": 12229,
        "contract": "contracts/strategies/convex/ConvexSBTCStrategyWBTC.sol:ConvexSBTCStrategyWBTC",
        "label": "oracleRouterIdx",
        "offset": 0,
        "slot": "11",
        "type": "t_uint256"
      },
      {
        "astId": 12232,
        "contract": "contracts/strategies/convex/ConvexSBTCStrategyWBTC.sol:ConvexSBTCStrategyWBTC",
        "label": "swapSlippage",
        "offset": 0,
        "slot": "12",
        "type": "t_uint256"
      },
      {
        "astId": 23822,
        "contract": "contracts/strategies/convex/ConvexSBTCStrategyWBTC.sol:ConvexSBTCStrategyWBTC",
        "label": "reservedToken",
        "offset": 0,
        "slot": "13",
        "type": "t_mapping(t_address,t_bool)"
      },
      {
        "astId": 23832,
        "contract": "contracts/strategies/convex/ConvexSBTCStrategyWBTC.sol:ConvexSBTCStrategyWBTC",
        "label": "usdRate",
        "offset": 0,
        "slot": "14",
        "type": "t_uint256"
      },
      {
        "astId": 23834,
        "contract": "contracts/strategies/convex/ConvexSBTCStrategyWBTC.sol:ConvexSBTCStrategyWBTC",
        "label": "usdRateTimestamp",
        "offset": 0,
        "slot": "15",
        "type": "t_uint256"
      },
      {
        "astId": 23836,
        "contract": "contracts/strategies/convex/ConvexSBTCStrategyWBTC.sol:ConvexSBTCStrategyWBTC",
        "label": "depositError",
        "offset": 0,
        "slot": "16",
        "type": "t_bool"
      },
      {
        "astId": 23839,
        "contract": "contracts/strategies/convex/ConvexSBTCStrategyWBTC.sol:ConvexSBTCStrategyWBTC",
        "label": "crvSlippage",
        "offset": 0,
        "slot": "17",
        "type": "t_uint256"
      },
      {
        "astId": 21923,
        "contract": "contracts/strategies/convex/ConvexSBTCStrategyWBTC.sol:ConvexSBTCStrategyWBTC",
        "label": "isClaimRewards",
        "offset": 0,
        "slot": "18",
        "type": "t_bool"
      },
      {
        "astId": 21925,
        "contract": "contracts/strategies/convex/ConvexSBTCStrategyWBTC.sol:ConvexSBTCStrategyWBTC",
        "label": "isClaimExtras",
        "offset": 1,
        "slot": "18",
        "type": "t_bool"
      }
    ],
    "types": {
      "t_address": {
        "encoding": "inplace",
        "label": "address",
        "numberOfBytes": "20"
      },
      "t_array(t_address)3_storage": {
        "base": "t_address",
        "encoding": "inplace",
        "label": "address[3]",
        "numberOfBytes": "96"
      },
      "t_array(t_uint256)3_storage": {
        "base": "t_uint256",
        "encoding": "inplace",
        "label": "uint256[3]",
        "numberOfBytes": "96"
      },
      "t_bool": {
        "encoding": "inplace",
        "label": "bool",
        "numberOfBytes": "1"
      },
      "t_contract(IAddressList)3647": {
        "encoding": "inplace",
        "label": "contract IAddressList",
        "numberOfBytes": "20"
      },
      "t_contract(ISwapManager)3950": {
        "encoding": "inplace",
        "label": "contract ISwapManager",
        "numberOfBytes": "20"
      },
      "t_mapping(t_address,t_bool)": {
        "encoding": "mapping",
        "key": "t_address",
        "label": "mapping(address => bool)",
        "numberOfBytes": "32",
        "value": "t_bool"
      },
      "t_uint256": {
        "encoding": "inplace",
        "label": "uint256",
        "numberOfBytes": "32"
      }
    }
  }
}