{
  "address": "0x8F09f6dbEc65C94e5aF7A5d2682342FC1fBC86Fc",
  "abi": [
    {
      "anonymous": false,
      "inputs": [
        {
          "indexed": true,
          "internalType": "address",
          "name": "rewardToken",
          "type": "address"
        },
        {
          "indexed": false,
          "internalType": "uint256",
          "name": "reward",
          "type": "uint256"
        },
        {
          "indexed": false,
          "internalType": "uint256",
          "name": "rewardDuration",
          "type": "uint256"
        }
      ],
      "name": "RewardAdded",
      "type": "event"
    },
    {
      "anonymous": false,
      "inputs": [
        {
          "indexed": true,
          "internalType": "address",
          "name": "user",
          "type": "address"
        },
        {
          "indexed": true,
          "internalType": "address",
          "name": "rewardToken",
          "type": "address"
        },
        {
          "indexed": false,
          "internalType": "uint256",
          "name": "reward",
          "type": "uint256"
        }
      ],
      "name": "RewardPaid",
      "type": "event"
    },
    {
      "anonymous": false,
      "inputs": [
        {
          "indexed": true,
          "internalType": "address",
          "name": "rewardToken",
          "type": "address"
        },
        {
          "indexed": false,
          "internalType": "address[]",
          "name": "existingRewardTokens",
          "type": "address[]"
        }
      ],
      "name": "RewardTokenAdded",
      "type": "event"
    },
    {
      "inputs": [
        {
          "internalType": "address",
          "name": "_newRewardToken",
          "type": "address"
        }
      ],
      "name": "addRewardToken",
      "outputs": [],
      "stateMutability": "nonpayable",
      "type": "function"
    },
    {
      "inputs": [
        {
          "internalType": "address",
          "name": "_account",
          "type": "address"
        }
      ],
      "name": "claimReward",
      "outputs": [],
      "stateMutability": "nonpayable",
      "type": "function"
    },
    {
      "inputs": [
        {
          "internalType": "address",
          "name": "_account",
          "type": "address"
        }
      ],
      "name": "claimable",
      "outputs": [
        {
          "internalType": "address[]",
          "name": "_rewardTokens",
          "type": "address[]"
        },
        {
          "internalType": "uint256[]",
          "name": "_claimableAmounts",
          "type": "uint256[]"
        }
      ],
      "stateMutability": "view",
      "type": "function"
    },
    {
      "inputs": [],
      "name": "getRewardTokens",
      "outputs": [
        {
          "internalType": "address[]",
          "name": "",
          "type": "address[]"
        }
      ],
      "stateMutability": "view",
      "type": "function"
    },
    {
      "inputs": [
        {
          "internalType": "address",
          "name": "_pool",
          "type": "address"
        },
        {
          "internalType": "address[]",
          "name": "_rewardTokens",
          "type": "address[]"
        }
      ],
      "name": "initialize",
      "outputs": [],
      "stateMutability": "nonpayable",
      "type": "function"
    },
    {
      "inputs": [
        {
          "internalType": "address",
          "name": "",
          "type": "address"
        }
      ],
      "name": "isRewardToken",
      "outputs": [
        {
          "internalType": "bool",
          "name": "",
          "type": "bool"
        }
      ],
      "stateMutability": "view",
      "type": "function"
    },
    {
      "inputs": [
        {
          "internalType": "address",
          "name": "_rewardToken",
          "type": "address"
        }
      ],
      "name": "lastTimeRewardApplicable",
      "outputs": [
        {
          "internalType": "uint256",
          "name": "",
          "type": "uint256"
        }
      ],
      "stateMutability": "view",
      "type": "function"
    },
    {
      "inputs": [
        {
          "internalType": "address",
          "name": "",
          "type": "address"
        }
      ],
      "name": "lastUpdateTime",
      "outputs": [
        {
          "internalType": "uint256",
          "name": "",
          "type": "uint256"
        }
      ],
      "stateMutability": "view",
      "type": "function"
    },
    {
      "inputs": [
        {
          "internalType": "address",
          "name": "_rewardToken",
          "type": "address"
        },
        {
          "internalType": "uint256",
          "name": "_rewardAmount",
          "type": "uint256"
        },
        {
          "internalType": "uint256",
          "name": "_rewardDuration",
          "type": "uint256"
        }
      ],
      "name": "notifyRewardAmount",
      "outputs": [],
      "stateMutability": "nonpayable",
      "type": "function"
    },
    {
      "inputs": [
        {
          "internalType": "address[]",
          "name": "_rewardTokens",
          "type": "address[]"
        },
        {
          "internalType": "uint256[]",
          "name": "_rewardAmounts",
          "type": "uint256[]"
        },
        {
          "internalType": "uint256[]",
          "name": "_rewardDurations",
          "type": "uint256[]"
        }
      ],
      "name": "notifyRewardAmount",
      "outputs": [],
      "stateMutability": "nonpayable",
      "type": "function"
    },
    {
      "inputs": [
        {
          "internalType": "address",
          "name": "",
          "type": "address"
        }
      ],
      "name": "periodFinish",
      "outputs": [
        {
          "internalType": "uint256",
          "name": "",
          "type": "uint256"
        }
      ],
      "stateMutability": "view",
      "type": "function"
    },
    {
      "inputs": [],
      "name": "pool",
      "outputs": [
        {
          "internalType": "address",
          "name": "",
          "type": "address"
        }
      ],
      "stateMutability": "view",
      "type": "function"
    },
    {
      "inputs": [
        {
          "internalType": "address",
          "name": "",
          "type": "address"
        }
      ],
      "name": "rewardDuration",
      "outputs": [
        {
          "internalType": "uint256",
          "name": "",
          "type": "uint256"
        }
      ],
      "stateMutability": "view",
      "type": "function"
    },
    {
      "inputs": [],
      "name": "rewardForDuration",
      "outputs": [
        {
          "internalType": "address[]",
          "name": "_rewardTokens",
          "type": "address[]"
        },
        {
          "internalType": "uint256[]",
          "name": "_rewardForDuration",
          "type": "uint256[]"
        }
      ],
      "stateMutability": "view",
      "type": "function"
    },
    {
      "inputs": [],
      "name": "rewardPerToken",
      "outputs": [
        {
          "internalType": "address[]",
          "name": "_rewardTokens",
          "type": "address[]"
        },
        {
          "internalType": "uint256[]",
          "name": "_rewardPerTokenRate",
          "type": "uint256[]"
        }
      ],
      "stateMutability": "view",
      "type": "function"
    },
    {
      "inputs": [
        {
          "internalType": "address",
          "name": "",
          "type": "address"
        }
      ],
      "name": "rewardPerTokenStored",
      "outputs": [
        {
          "internalType": "uint256",
          "name": "",
          "type": "uint256"
        }
      ],
      "stateMutability": "view",
      "type": "function"
    },
    {
      "inputs": [
        {
          "internalType": "address",
          "name": "",
          "type": "address"
        }
      ],
      "name": "rewardRates",
      "outputs": [
        {
          "internalType": "uint256",
          "name": "",
          "type": "uint256"
        }
      ],
      "stateMutability": "view",
      "type": "function"
    },
    {
      "inputs": [
        {
          "internalType": "uint256",
          "name": "",
          "type": "uint256"
        }
      ],
      "name": "rewardTokens",
      "outputs": [
        {
          "internalType": "address",
          "name": "",
          "type": "address"
        }
      ],
      "stateMutability": "view",
      "type": "function"
    },
    {
      "inputs": [
        {
          "internalType": "address",
          "name": "",
          "type": "address"
        },
        {
          "internalType": "address",
          "name": "",
          "type": "address"
        }
      ],
      "name": "rewards",
      "outputs": [
        {
          "internalType": "uint256",
          "name": "",
          "type": "uint256"
        }
      ],
      "stateMutability": "view",
      "type": "function"
    },
    {
      "inputs": [
        {
          "internalType": "address",
          "name": "_account",
          "type": "address"
        }
      ],
      "name": "updateReward",
      "outputs": [],
      "stateMutability": "nonpayable",
      "type": "function"
    },
    {
      "inputs": [
        {
          "internalType": "address",
          "name": "",
          "type": "address"
        },
        {
          "internalType": "address",
          "name": "",
          "type": "address"
        }
      ],
      "name": "userRewardPerTokenPaid",
      "outputs": [
        {
          "internalType": "uint256",
          "name": "",
          "type": "uint256"
        }
      ],
      "stateMutability": "view",
      "type": "function"
    }
  ],
  "transactionHash": "0x65cbec3628aafa4823937d1ed691306a0e1a0908bab47940069fc25a59cc1cf9",
  "args": [],
  "solcInputHash": "678c6d4982e16085b7cac7ef1710baa2",
  "bytecode": "0x608060405234801561001057600080fd5b5060018055612534806100246000396000f3fe608060405234801561001057600080fd5b50600436106101375760003560e01c8063946d9204116100b8578063c4f59f9b1161007c578063c4f59f9b146102e8578063cd3daf9d146102fd578063d279c19114610305578063da09d19d14610318578063e70b9e2714610338578063e9c544881461036357610137565b8063946d92041461025c5780639ce43f901461026f578063a3cd8ac41461028f578063b5fd73f8146102a2578063bcd68eb6146102d557610137565b8063632447c9116100ff578063632447c9146101f0578063638634ee146102035780636946a235146102165780637035ab981461021e5780637bb7bed11461024957610137565b806316f0115b1461013c5780631c03e6cc1461016c5780632ce9aead146101815780633d3b2603146101af578063402914f5146101cf575b600080fd5b60025461014f906001600160a01b031681565b6040516001600160a01b0390911681526020015b60405180910390f35b61017f61017a366004612080565b610383565b005b6101a161018f366004612080565b60086020526000908152604090205481565b604051908152602001610163565b6101a16101bd366004612080565b60066020526000908152604090205481565b6101e26101dd366004612080565b610541565b6040516101639291906122b8565b61017f6101fe366004612080565b610797565b6101a1610211366004612080565b61095c565b6101e26109a1565b6101a161022c3660046120b8565b600a60209081526000928352604080842090915290825290205481565b61014f610257366004612216565b610b5f565b61017f61026a3660046120f0565b610b89565b6101a161027d366004612080565b60096020526000908152604090205481565b61017f61029d36600461213e565b610d77565b6102c56102b0366004612080565b60046020526000908152604090205460ff1681565b6040519015158152602001610163565b61017f6102e3366004612172565b610ebe565b6102f0611005565b60405161016391906122a5565b6101e2611067565b61017f610313366004612080565b611236565b6101a1610326366004612080565b60056020526000908152604090205481565b6101a16103463660046120b8565b600b60209081526000928352604080842090915290825290205481565b6101a1610371366004612080565b60076020526000908152604090205481565b600260009054906101000a90046001600160a01b03166001600160a01b0316630c340a246040518163ffffffff1660e01b815260040160206040518083038186803b1580156103d157600080fd5b505afa1580156103e5573d6000803e3d6000fd5b505050506040513d601f19601f82011682018060405250810190610409919061209c565b6001600160a01b0316336001600160a01b0316146104425760405162461bcd60e51b815260040161043990612384565b60405180910390fd5b6001600160a01b0381166104985760405162461bcd60e51b815260206004820152601960248201527f7265776172642d746f6b656e2d616464726573732d7a65726f000000000000006044820152606401610439565b806001600160a01b03167f438dc3ee1ea07ec168befb145c10eb363aad7cbec063f8a006b032031582ac2b60036040516104d29190612301565b60405180910390a26003805460018181019092557fc2575a0e9e593c00f959f8c92f12db2869c3395a3b0502d05e2516446f71f85b0180546001600160a01b039093166001600160a01b031990931683179055600091825260046020526040909120805460ff19169091179055565b6060806000600260009054906101000a90046001600160a01b03166001600160a01b03166318160ddd6040518163ffffffff1660e01b815260040160206040518083038186803b15801561059457600080fd5b505afa1580156105a8573d6000803e3d6000fd5b505050506040513d601f19601f820116820180604052508101906105cc919061222e565b6002546040516370a0823160e01b81526001600160a01b038781166004830152929350600092909116906370a082319060240160206040518083038186803b15801561061757600080fd5b505afa15801561062b573d6000803e3d6000fd5b505050506040513d601f19601f8201168201806040525081019061064f919061222e565b6003549091508067ffffffffffffffff81111561067c57634e487b7160e01b600052604160045260246000fd5b6040519080825280602002602001820160405280156106a5578160200160208202803683370190505b50935060005b81811015610731576106f4600382815481106106d757634e487b7160e01b600052603260045260246000fd5b6000918252602090912001546001600160a01b0316888686611539565b85828151811061071457634e487b7160e01b600052603260045260246000fd5b6020908102919091010152806107298161249f565b9150506106ab565b50600380548060200260200160405190810160405280929190818152602001828054801561078857602002820191906000526020600020905b81546001600160a01b0316815260019091019060200180831161076a575b50505050509450505050915091565b6002546001600160a01b031633146107f15760405162461bcd60e51b815260206004820152601b60248201527f6f6e6c792d706f6f6c2d63616e2d7570646174652d72657761726400000000006044820152606401610439565b600254604080516318160ddd60e01b815290516000926001600160a01b0316916318160ddd916004808301926020929190829003018186803b15801561083657600080fd5b505afa15801561084a573d6000803e3d6000fd5b505050506040513d601f19601f8201168201806040525081019061086e919061222e565b6002546040516370a0823160e01b81526001600160a01b038581166004830152929350600092909116906370a082319060240160206040518083038186803b1580156108b957600080fd5b505afa1580156108cd573d6000803e3d6000fd5b505050506040513d601f19601f820116820180604052508101906108f1919061222e565b60035490915060005b81811015610955576109436003828154811061092657634e487b7160e01b600052603260045260246000fd5b6000918252602090912001546001600160a01b03168686866115d7565b8061094d8161249f565b9150506108fa565b5050505050565b6001600160a01b0381166000908152600560205260408120544210610999576001600160a01b03821660009081526005602052604090205461099b565b425b92915050565b60035460609081908067ffffffffffffffff8111156109d057634e487b7160e01b600052604160045260246000fd5b6040519080825280602002602001820160405280156109f9578160200160208202803683370190505b50915060005b81811015610afc576007600060038381548110610a2c57634e487b7160e01b600052603260045260246000fd5b9060005260206000200160009054906101000a90046001600160a01b03166001600160a01b03166001600160a01b03168152602001908152602001600020546006600060038481548110610a9057634e487b7160e01b600052603260045260246000fd5b60009182526020808320909101546001600160a01b03168352820192909252604001902054610abf9190612439565b838281518110610adf57634e487b7160e01b600052603260045260246000fd5b602090810291909101015280610af48161249f565b9150506109ff565b506003805480602002602001604051908101604052809291908181526020018280548015610b5357602002820191906000526020600020905b81546001600160a01b03168152600190910190602001808311610b35575b50505050509250509091565b60038181548110610b6f57600080fd5b6000918252602090912001546001600160a01b0316905081565b600054610100900460ff1680610ba2575060005460ff16155b610c055760405162461bcd60e51b815260206004820152602e60248201527f496e697469616c697a61626c653a20636f6e747261637420697320616c72656160448201526d191e481a5b9a5d1a585b1a5e995960921b6064820152608401610439565b600054610100900460ff16158015610c27576000805461ffff19166101011790555b6001600160a01b038316610c745760405162461bcd60e51b8152602060048201526014602482015273706f6f6c2d616464726573732d69732d7a65726f60601b6044820152606401610439565b8151610cba5760405162461bcd60e51b8152602060048201526015602482015274696e76616c69642d7265776172642d746f6b656e7360581b6044820152606401610439565b600280546001600160a01b0319166001600160a01b0385161790558151610ce8906003906020850190611f31565b5060005b8251811015610d5f57600160046000858481518110610d1b57634e487b7160e01b600052603260045260246000fd5b6020908102919091018101516001600160a01b03168252810191909152604001600020805460ff191691151591909117905580610d578161249f565b915050610cec565b508015610d72576000805461ff00191690555b505050565b600260009054906101000a90046001600160a01b03166001600160a01b0316630c340a246040518163ffffffff1660e01b815260040160206040518083038186803b158015610dc557600080fd5b505afa158015610dd9573d6000803e3d6000fd5b505050506040513d601f19601f82011682018060405250810190610dfd919061209c565b6001600160a01b0316336001600160a01b031614610e2d5760405162461bcd60e51b815260040161043990612384565b610d72838383600260009054906101000a90046001600160a01b03166001600160a01b03166318160ddd6040518163ffffffff1660e01b815260040160206040518083038186803b158015610e8157600080fd5b505afa158015610e95573d6000803e3d6000fd5b505050506040513d601f19601f82011682018060405250810190610eb9919061222e565b611680565b600260009054906101000a90046001600160a01b03166001600160a01b0316630c340a246040518163ffffffff1660e01b815260040160206040518083038186803b158015610f0c57600080fd5b505afa158015610f20573d6000803e3d6000fd5b505050506040513d601f19601f82011682018060405250810190610f44919061209c565b6001600160a01b0316336001600160a01b031614610f745760405162461bcd60e51b815260040161043990612384565b610d72838383600260009054906101000a90046001600160a01b03166001600160a01b03166318160ddd6040518163ffffffff1660e01b815260040160206040518083038186803b158015610fc857600080fd5b505afa158015610fdc573d6000803e3d6000fd5b505050506040513d601f19601f82011682018060405250810190611000919061222e565b611a17565b6060600380548060200260200160405190810160405280929190818152602001828054801561105d57602002820191906000526020600020905b81546001600160a01b0316815260019091019060200180831161103f575b5050505050905090565b6060806000600260009054906101000a90046001600160a01b03166001600160a01b03166318160ddd6040518163ffffffff1660e01b815260040160206040518083038186803b1580156110ba57600080fd5b505afa1580156110ce573d6000803e3d6000fd5b505050506040513d601f19601f820116820180604052508101906110f2919061222e565b6003549091508067ffffffffffffffff81111561111f57634e487b7160e01b600052604160045260246000fd5b604051908082528060200260200182016040528015611148578160200160208202803683370190505b50925060005b818110156111d2576111956003828154811061117a57634e487b7160e01b600052603260045260246000fd5b6000918252602090912001546001600160a01b031684611bef565b8482815181106111b557634e487b7160e01b600052603260045260246000fd5b6020908102919091010152806111ca8161249f565b91505061114e565b50600380548060200260200160405190810160405280929190818152602001828054801561122957602002820191906000526020600020905b81546001600160a01b0316815260019091019060200180831161120b575b5050505050935050509091565b600260015414156112895760405162461bcd60e51b815260206004820152601f60248201527f5265656e7472616e637947756172643a207265656e7472616e742063616c6c006044820152606401610439565b6002600181905554604080516318160ddd60e01b815290516000926001600160a01b0316916318160ddd916004808301926020929190829003018186803b1580156112d357600080fd5b505afa1580156112e7573d6000803e3d6000fd5b505050506040513d601f19601f8201168201806040525081019061130b919061222e565b6002546040516370a0823160e01b81526001600160a01b038581166004830152929350600092909116906370a082319060240160206040518083038186803b15801561135657600080fd5b505afa15801561136a573d6000803e3d6000fd5b505050506040513d601f19601f8201168201806040525081019061138e919061222e565b60035490915060005b8181101561152e576000600382815481106113c257634e487b7160e01b600052603260045260246000fd5b6000918252602090912001546001600160a01b031690506113e5818787876115d7565b6001600160a01b038082166000908152600b60209081526040808320938a1683529290522054801580159061149057506040516370a0823160e01b81523060048201526001600160a01b038316906370a082319060240160206040518083038186803b15801561145457600080fd5b505afa158015611468573d6000803e3d6000fd5b505050506040513d601f19601f8201168201806040525081019061148c919061222e565b8111155b15611519576001600160a01b038083166000818152600b60209081526040808320948c168352939052918220919091556114cb908883611cba565b816001600160a01b0316876001600160a01b03167f540798df468d7b23d11f156fdb954cb19ad414d150722a7b6d55ba369dea792e8360405161151091815260200190565b60405180910390a35b505080806115269061249f565b915050611397565b505060018055505050565b6001600160a01b038085166000908152600a60209081526040808320938716835292905290812054819061156d8786611bef565b6115779190612458565b90506000670de0b6b3a764000061158e8386612439565b6115989190612419565b6001600160a01b038089166000908152600b60209081526040808320938b16835292905220549091506115cc908290612401565b979650505050505050565b60006115e38584611bef565b6001600160a01b038616600090815260096020526040902081905590506116098561095c565b6001600160a01b038087166000908152600860205260409020919091558416156109555761163985858585611539565b6001600160a01b038087166000818152600b60209081526040808320948a1680845294825280832095909555918152600a8252838120928152919052208190555050505050565b6001600160a01b0384166116cf5760405162461bcd60e51b815260206004820152601660248201527534b731b7b93932b1ba16b932bbb0b93216ba37b5b2b760511b6044820152606401610439565b8261171c5760405162461bcd60e51b815260206004820152601760248201527f696e636f72726563742d7265776172642d616d6f756e740000000000000000006044820152606401610439565b816117695760405162461bcd60e51b815260206004820152601960248201527f696e636f72726563742d7265776172642d6475726174696f6e000000000000006044820152606401610439565b6001600160a01b03841660009081526004602052604090205460ff166117c85760405162461bcd60e51b815260206004820152601460248201527334b73b30b634b216b932bbb0b93216ba37b5b2b760611b6044820152606401610439565b6117d28482611bef565b6001600160a01b0385166000908152600960209081526040808320939093556005905220544210611825576118078284612419565b6001600160a01b0385166000908152600660205260409020556118a3565b6001600160a01b038416600090815260056020526040812054611849904290612458565b6001600160a01b038616600090815260066020526040812054919250906118709083612439565b90508361187d8287612401565b6118879190612419565b6001600160a01b03871660009081526006602052604090205550505b6040516370a0823160e01b81523060048201526000906001600160a01b038616906370a082319060240160206040518083038186803b1580156118e557600080fd5b505afa1580156118f9573d6000803e3d6000fd5b505050506040513d601f19601f8201168201806040525081019061191d919061222e565b90506119298382612419565b6001600160a01b03861660009081526006602052604090205411156119835760405162461bcd60e51b815260206004820152601060248201526f0e4caeec2e4c8e65ae8dede5ad0d2ced60831b6044820152606401610439565b6001600160a01b03851660009081526007602090815260408083208690556008909152902042908190556119b8908490612401565b6001600160a01b03861660008181526005602090815260409182902093909355805187815292830186905290917f6a6f77044107a33658235d41bedbbaf2fe9ccdceb313143c947a5e76e1ec8474910160405180910390a25050505050565b83518351835182611a625760405162461bcd60e51b8152602060048201526015602482015274696e76616c69642d7265776172642d746f6b656e7360581b6044820152606401610439565b81611aa85760405162461bcd60e51b8152602060048201526016602482015275696e76616c69642d7265776172642d616d6f756e747360501b6044820152606401610439565b80611af55760405162461bcd60e51b815260206004820152601860248201527f696e76616c69642d7265776172642d6475726174696f6e7300000000000000006044820152606401610439565b8183148015611b0357508083145b611b475760405162461bcd60e51b81526020600482015260156024820152740c2e4e4c2f25ad8cadccee8d05adad2e6dac2e8c6d605b1b6044820152606401610439565b60005b83811015611be557611bd3888281518110611b7557634e487b7160e01b600052603260045260246000fd5b6020026020010151888381518110611b9d57634e487b7160e01b600052603260045260246000fd5b6020026020010151888481518110611bc557634e487b7160e01b600052603260045260246000fd5b602002602001015188611680565b80611bdd8161249f565b915050611b4a565b5050505050505050565b600081611c1557506001600160a01b03821660009081526009602052604090205461099b565b6001600160a01b038316600090815260086020526040812054611c378561095c565b611c419190612458565b6001600160a01b03851660009081526006602052604081205491925090611c689083612439565b9050600084611c7f83670de0b6b3a7640000612439565b611c899190612419565b6001600160a01b038716600090815260096020526040902054909150611cb0908290612401565b9695505050505050565b604080516001600160a01b03848116602483015260448083018590528351808403909101815260649092018352602080830180516001600160e01b031663a9059cbb60e01b17905283518085019094528084527f5361666545524332303a206c6f772d6c6576656c2063616c6c206661696c656490840152610d7292869291600091611d4a918516908490611dc7565b805190915015610d725780806020019051810190611d6891906121f6565b610d725760405162461bcd60e51b815260206004820152602a60248201527f5361666545524332303a204552433230206f7065726174696f6e20646964206e6044820152691bdd081cdd58d8d9595960b21b6064820152608401610439565b6060611dd68484600085611de0565b90505b9392505050565b606082471015611e415760405162461bcd60e51b815260206004820152602660248201527f416464726573733a20696e73756666696369656e742062616c616e636520666f6044820152651c8818d85b1b60d21b6064820152608401610439565b843b611e8f5760405162461bcd60e51b815260206004820152601d60248201527f416464726573733a2063616c6c20746f206e6f6e2d636f6e74726163740000006044820152606401610439565b600080866001600160a01b03168587604051611eab9190612289565b60006040518083038185875af1925050503d8060008114611ee8576040519150601f19603f3d011682016040523d82523d6000602084013e611eed565b606091505b50915091506115cc82828660608315611f07575081611dd9565b825115611f175782518084602001fd5b8160405162461bcd60e51b81526004016104399190612351565b828054828255906000526020600020908101928215611f86579160200282015b82811115611f8657825182546001600160a01b0319166001600160a01b03909116178255602090920191600190910190611f51565b50611f92929150611f96565b5090565b5b80821115611f925760008155600101611f97565b600082601f830112611fbb578081fd5b81356020611fd0611fcb836123dd565b6123ac565b80838252828201915082860187848660051b8901011115611fef578586fd5b855b85811015612016578135612004816124e6565b84529284019290840190600101611ff1565b5090979650505050505050565b600082601f830112612033578081fd5b81356020612043611fcb836123dd565b80838252828201915082860187848660051b8901011115612062578586fd5b855b8581101561201657813584529284019290840190600101612064565b600060208284031215612091578081fd5b8135611dd9816124e6565b6000602082840312156120ad578081fd5b8151611dd9816124e6565b600080604083850312156120ca578081fd5b82356120d5816124e6565b915060208301356120e5816124e6565b809150509250929050565b60008060408385031215612102578182fd5b823561210d816124e6565b9150602083013567ffffffffffffffff811115612128578182fd5b61213485828601611fab565b9150509250929050565b600080600060608486031215612152578081fd5b833561215d816124e6565b95602085013595506040909401359392505050565b600080600060608486031215612186578283fd5b833567ffffffffffffffff8082111561219d578485fd5b6121a987838801611fab565b945060208601359150808211156121be578384fd5b6121ca87838801612023565b935060408601359150808211156121df578283fd5b506121ec86828701612023565b9150509250925092565b600060208284031215612207578081fd5b81518015158114611dd9578182fd5b600060208284031215612227578081fd5b5035919050565b60006020828403121561223f578081fd5b5051919050565b6000815180845260208085019450808401835b8381101561227e5781516001600160a01b031687529582019590820190600101612259565b509495945050505050565b6000825161229b81846020870161246f565b9190910192915050565b600060208252611dd96020830184612246565b6000604082526122cb6040830185612246565b828103602084810191909152845180835285820192820190845b81811015612016578451835293830193918301916001016122e5565b6020808252825482820181905260008481528281209092916040850190845b818110156123455783546001600160a01b031683526001938401939285019201612320565b50909695505050505050565b600060208252825180602084015261237081604085016020870161246f565b601f01601f19169190910160400192915050565b6020808252600e908201526d1b9bdd0b585d5d1a1bdc9a5e995960921b604082015260600190565b604051601f8201601f1916810167ffffffffffffffff811182821017156123d5576123d56124d0565b604052919050565b600067ffffffffffffffff8211156123f7576123f76124d0565b5060051b60200190565b60008219821115612414576124146124ba565b500190565b60008261243457634e487b7160e01b81526012600452602481fd5b500490565b6000816000190483118215151615612453576124536124ba565b500290565b60008282101561246a5761246a6124ba565b500390565b60005b8381101561248a578181015183820152602001612472565b83811115612499576000848401525b50505050565b60006000198214156124b3576124b36124ba565b5060010190565b634e487b7160e01b600052601160045260246000fd5b634e487b7160e01b600052604160045260246000fd5b6001600160a01b03811681146124fb57600080fd5b5056fea26469706673582212209062d5ea7c9359cab15810f5243f01253b896b664d4febcecd62e8ab14fb97a064736f6c63430008030033",
  "devdoc": {
    "kind": "dev",
    "methods": {
      "claimReward(address)": {
        "details": "This function will claim rewards for all tokens being rewarded"
      },
      "claimable(address)": {
        "returns": {
          "_claimableAmounts": "Array of claimable for token on same index in rewardTokens",
          "_rewardTokens": "Array of tokens being rewarded"
        }
      },
      "initialize(address,address[])": {
        "details": "Called by proxy to initialize this contract",
        "params": {
          "_pool": "Vesper pool address",
          "_rewardTokens": "Array of reward token addresses"
        }
      },
      "notifyRewardAmount(address[],uint256[],uint256[])": {
        "details": "Also updates reward rate and reward earning period.",
        "params": {
          "_rewardAmounts": "Rewards amount for token on same index in rewardTokens array",
          "_rewardDurations": "Duration for which reward will be distributed",
          "_rewardTokens": "Tokens being rewarded"
        }
      },
      "rewardPerToken()": {
        "returns": {
          "_rewardPerTokenRate": "Array of Rewards rate for token on same index in rewardTokens",
          "_rewardTokens": "Array of tokens being rewarded"
        }
      }
    },
    "title": "Distribute rewards based on vesper pool balance and supply",
    "version": 1
  },
  "userdoc": {
    "events": {
      "RewardAdded(address,uint256,uint256)": {
        "notice": "Emitted after reward added"
      },
      "RewardPaid(address,address,uint256)": {
        "notice": "Emitted whenever any user claim rewards"
      },
      "RewardTokenAdded(address,address[])": {
        "notice": "Emitted after adding new rewards token into rewardTokens array"
      }
    },
    "kind": "user",
    "methods": {
      "addRewardToken(address)": {
        "notice": "Add new reward token in existing rewardsToken array"
      },
      "claimReward(address)": {
        "notice": "Claim earned rewards."
      },
      "claimable(address)": {
        "notice": "Returns claimable reward amount."
      },
      "getRewardTokens()": {
        "notice": "Provides easy access to all rewardTokens"
      },
      "isRewardToken(address)": {
        "notice": "Reward token to valid/invalid flag mapping"
      },
      "lastTimeRewardApplicable(address)": {
        "notice": "Returns timestamp of last reward update"
      },
      "lastUpdateTime(address)": {
        "notice": "Reward token to Last reward drip update time stamp mapping"
      },
      "notifyRewardAmount(address[],uint256[],uint256[])": {
        "notice": "Notify that reward is added. Only authorized caller can call"
      },
      "periodFinish(address)": {
        "notice": "Reward token to period ending of current reward"
      },
      "pool()": {
        "notice": "Vesper pool address"
      },
      "rewardDuration(address)": {
        "notice": "Reward token to Duration of current reward distribution"
      },
      "rewardPerToken()": {
        "notice": "Rewards rate per pool token"
      },
      "rewardPerTokenStored(address)": {
        "notice": "Reward token to Reward per token mapping. Calculated and stored at last drip update"
      },
      "rewardRates(address)": {
        "notice": "Reward token to current reward rate mapping"
      },
      "rewardTokens(uint256)": {
        "notice": "Array of reward token addresses"
      },
      "rewards(address,address)": {
        "notice": "RewardToken => User => Rewards earned till last reward update"
      },
      "updateReward(address)": {
        "notice": "Updated reward for given account. Only Pool can call"
      },
      "userRewardPerTokenPaid(address,address)": {
        "notice": "Reward token => User => Reward per token stored at last reward update"
      }
    },
    "version": 1
  },
  "storageLayout": {
    "storage": [
      {
        "astId": 887,
        "contract": "contracts/pool/PoolRewards.sol:PoolRewards",
        "label": "_initialized",
        "offset": 0,
        "slot": "0",
        "type": "t_bool"
      },
      {
        "astId": 890,
        "contract": "contracts/pool/PoolRewards.sol:PoolRewards",
        "label": "_initializing",
        "offset": 1,
        "slot": "0",
        "type": "t_bool"
      },
      {
        "astId": 938,
        "contract": "contracts/pool/PoolRewards.sol:PoolRewards",
        "label": "_status",
        "offset": 0,
        "slot": "1",
        "type": "t_uint256"
      },
      {
        "astId": 7930,
        "contract": "contracts/pool/PoolRewards.sol:PoolRewards",
        "label": "pool",
        "offset": 0,
        "slot": "2",
        "type": "t_address"
      },
      {
        "astId": 7934,
        "contract": "contracts/pool/PoolRewards.sol:PoolRewards",
        "label": "rewardTokens",
        "offset": 0,
        "slot": "3",
        "type": "t_array(t_address)dyn_storage"
      },
      {
        "astId": 7939,
        "contract": "contracts/pool/PoolRewards.sol:PoolRewards",
        "label": "isRewardToken",
        "offset": 0,
        "slot": "4",
        "type": "t_mapping(t_address,t_bool)"
      },
      {
        "astId": 7944,
        "contract": "contracts/pool/PoolRewards.sol:PoolRewards",
        "label": "periodFinish",
        "offset": 0,
        "slot": "5",
        "type": "t_mapping(t_address,t_uint256)"
      },
      {
        "astId": 7949,
        "contract": "contracts/pool/PoolRewards.sol:PoolRewards",
        "label": "rewardRates",
        "offset": 0,
        "slot": "6",
        "type": "t_mapping(t_address,t_uint256)"
      },
      {
        "astId": 7954,
        "contract": "contracts/pool/PoolRewards.sol:PoolRewards",
        "label": "rewardDuration",
        "offset": 0,
        "slot": "7",
        "type": "t_mapping(t_address,t_uint256)"
      },
      {
        "astId": 7959,
        "contract": "contracts/pool/PoolRewards.sol:PoolRewards",
        "label": "lastUpdateTime",
        "offset": 0,
        "slot": "8",
        "type": "t_mapping(t_address,t_uint256)"
      },
      {
        "astId": 7964,
        "contract": "contracts/pool/PoolRewards.sol:PoolRewards",
        "label": "rewardPerTokenStored",
        "offset": 0,
        "slot": "9",
        "type": "t_mapping(t_address,t_uint256)"
      },
      {
        "astId": 7971,
        "contract": "contracts/pool/PoolRewards.sol:PoolRewards",
        "label": "userRewardPerTokenPaid",
        "offset": 0,
        "slot": "10",
        "type": "t_mapping(t_address,t_mapping(t_address,t_uint256))"
      },
      {
        "astId": 7978,
        "contract": "contracts/pool/PoolRewards.sol:PoolRewards",
        "label": "rewards",
        "offset": 0,
        "slot": "11",
        "type": "t_mapping(t_address,t_mapping(t_address,t_uint256))"
      }
    ],
    "types": {
      "t_address": {
        "encoding": "inplace",
        "label": "address",
        "numberOfBytes": "20"
      },
      "t_array(t_address)dyn_storage": {
        "base": "t_address",
        "encoding": "dynamic_array",
        "label": "address[]",
        "numberOfBytes": "32"
      },
      "t_bool": {
        "encoding": "inplace",
        "label": "bool",
        "numberOfBytes": "1"
      },
      "t_mapping(t_address,t_bool)": {
        "encoding": "mapping",
        "key": "t_address",
        "label": "mapping(address => bool)",
        "numberOfBytes": "32",
        "value": "t_bool"
      },
      "t_mapping(t_address,t_mapping(t_address,t_uint256))": {
        "encoding": "mapping",
        "key": "t_address",
        "label": "mapping(address => mapping(address => uint256))",
        "numberOfBytes": "32",
        "value": "t_mapping(t_address,t_uint256)"
      },
      "t_mapping(t_address,t_uint256)": {
        "encoding": "mapping",
        "key": "t_address",
        "label": "mapping(address => uint256)",
        "numberOfBytes": "32",
        "value": "t_uint256"
      },
      "t_uint256": {
        "encoding": "inplace",
        "label": "uint256",
        "numberOfBytes": "32"
      }
    }
  }
}