{
  "address": "0x70900C53202297Bd7Cd4ED1635486D84E3982484",
  "abi": [
    {
      "inputs": [
        {
          "internalType": "address",
          "name": "_pool",
          "type": "address"
        },
        {
          "internalType": "address",
          "name": "_cm",
          "type": "address"
        },
        {
          "internalType": "address",
          "name": "_swapManager",
          "type": "address"
        },
        {
          "internalType": "address",
          "name": "_vPool",
          "type": "address"
        },
        {
          "internalType": "bytes32",
          "name": "_collateralType",
          "type": "bytes32"
        },
        {
          "internalType": "string",
          "name": "_name",
          "type": "string"
        }
      ],
      "stateMutability": "nonpayable",
      "type": "constructor"
    },
    {
      "anonymous": false,
      "inputs": [
        {
          "indexed": true,
          "internalType": "address",
          "name": "previousFeeCollector",
          "type": "address"
        },
        {
          "indexed": true,
          "internalType": "address",
          "name": "newFeeCollector",
          "type": "address"
        }
      ],
      "name": "UpdatedFeeCollector",
      "type": "event"
    },
    {
      "anonymous": false,
      "inputs": [
        {
          "indexed": false,
          "internalType": "uint256",
          "name": "oldPeriod",
          "type": "uint256"
        },
        {
          "indexed": false,
          "internalType": "uint256",
          "name": "newPeriod",
          "type": "uint256"
        },
        {
          "indexed": false,
          "internalType": "uint256",
          "name": "oldRouterIdx",
          "type": "uint256"
        },
        {
          "indexed": false,
          "internalType": "uint256",
          "name": "newRouterIdx",
          "type": "uint256"
        }
      ],
      "name": "UpdatedOracleConfig",
      "type": "event"
    },
    {
      "anonymous": false,
      "inputs": [
        {
          "indexed": true,
          "internalType": "address",
          "name": "previousSwapManager",
          "type": "address"
        },
        {
          "indexed": true,
          "internalType": "address",
          "name": "newSwapManager",
          "type": "address"
        }
      ],
      "name": "UpdatedSwapManager",
      "type": "event"
    },
    {
      "anonymous": false,
      "inputs": [
        {
          "indexed": false,
          "internalType": "uint256",
          "name": "oldSwapSlippage",
          "type": "uint256"
        },
        {
          "indexed": false,
          "internalType": "uint256",
          "name": "newSwapSlippage",
          "type": "uint256"
        }
      ],
      "name": "UpdatedSwapSlippage",
      "type": "event"
    },
    {
      "inputs": [],
      "name": "NAME",
      "outputs": [
        {
          "internalType": "string",
          "name": "",
          "type": "string"
        }
      ],
      "stateMutability": "view",
      "type": "function"
    },
    {
      "inputs": [],
      "name": "VERSION",
      "outputs": [
        {
          "internalType": "string",
          "name": "",
          "type": "string"
        }
      ],
      "stateMutability": "view",
      "type": "function"
    },
    {
      "inputs": [
        {
          "internalType": "address",
          "name": "_keeperAddress",
          "type": "address"
        }
      ],
      "name": "addKeeper",
      "outputs": [],
      "stateMutability": "nonpayable",
      "type": "function"
    },
    {
      "inputs": [],
      "name": "approveToken",
      "outputs": [],
      "stateMutability": "nonpayable",
      "type": "function"
    },
    {
      "inputs": [],
      "name": "cm",
      "outputs": [
        {
          "internalType": "contract ICollateralManager",
          "name": "",
          "type": "address"
        }
      ],
      "stateMutability": "view",
      "type": "function"
    },
    {
      "inputs": [],
      "name": "collateralToken",
      "outputs": [
        {
          "internalType": "contract IERC20",
          "name": "",
          "type": "address"
        }
      ],
      "stateMutability": "view",
      "type": "function"
    },
    {
      "inputs": [],
      "name": "collateralType",
      "outputs": [
        {
          "internalType": "bytes32",
          "name": "",
          "type": "bytes32"
        }
      ],
      "stateMutability": "view",
      "type": "function"
    },
    {
      "inputs": [
        {
          "internalType": "uint256",
          "name": "_amount",
          "type": "uint256"
        }
      ],
      "name": "convertFrom18",
      "outputs": [
        {
          "internalType": "uint256",
          "name": "",
          "type": "uint256"
        }
      ],
      "stateMutability": "view",
      "type": "function"
    },
    {
      "inputs": [],
      "name": "createVault",
      "outputs": [],
      "stateMutability": "nonpayable",
      "type": "function"
    },
    {
      "inputs": [],
      "name": "decimalConversionFactor",
      "outputs": [
        {
          "internalType": "uint256",
          "name": "",
          "type": "uint256"
        }
      ],
      "stateMutability": "view",
      "type": "function"
    },
    {
      "inputs": [],
      "name": "feeCollector",
      "outputs": [
        {
          "internalType": "address",
          "name": "",
          "type": "address"
        }
      ],
      "stateMutability": "view",
      "type": "function"
    },
    {
      "inputs": [],
      "name": "highWater",
      "outputs": [
        {
          "internalType": "uint256",
          "name": "",
          "type": "uint256"
        }
      ],
      "stateMutability": "view",
      "type": "function"
    },
    {
      "inputs": [
        {
          "internalType": "address",
          "name": "_token",
          "type": "address"
        }
      ],
      "name": "isReservedToken",
      "outputs": [
        {
          "internalType": "bool",
          "name": "",
          "type": "bool"
        }
      ],
      "stateMutability": "view",
      "type": "function"
    },
    {
      "inputs": [],
      "name": "isUnderwater",
      "outputs": [
        {
          "internalType": "bool",
          "name": "",
          "type": "bool"
        }
      ],
      "stateMutability": "view",
      "type": "function"
    },
    {
      "inputs": [],
      "name": "keepers",
      "outputs": [
        {
          "internalType": "address[]",
          "name": "",
          "type": "address[]"
        }
      ],
      "stateMutability": "view",
      "type": "function"
    },
    {
      "inputs": [],
      "name": "lowWater",
      "outputs": [
        {
          "internalType": "uint256",
          "name": "",
          "type": "uint256"
        }
      ],
      "stateMutability": "view",
      "type": "function"
    },
    {
      "inputs": [
        {
          "internalType": "address",
          "name": "_newStrategy",
          "type": "address"
        }
      ],
      "name": "migrate",
      "outputs": [],
      "stateMutability": "nonpayable",
      "type": "function"
    },
    {
      "inputs": [],
      "name": "oraclePeriod",
      "outputs": [
        {
          "internalType": "uint256",
          "name": "",
          "type": "uint256"
        }
      ],
      "stateMutability": "view",
      "type": "function"
    },
    {
      "inputs": [],
      "name": "oracleRouterIdx",
      "outputs": [
        {
          "internalType": "uint256",
          "name": "",
          "type": "uint256"
        }
      ],
      "stateMutability": "view",
      "type": "function"
    },
    {
      "inputs": [],
      "name": "pool",
      "outputs": [
        {
          "internalType": "address",
          "name": "",
          "type": "address"
        }
      ],
      "stateMutability": "view",
      "type": "function"
    },
    {
      "inputs": [],
      "name": "rebalance",
      "outputs": [],
      "stateMutability": "nonpayable",
      "type": "function"
    },
    {
      "inputs": [],
      "name": "receiptToken",
      "outputs": [
        {
          "internalType": "address",
          "name": "",
          "type": "address"
        }
      ],
      "stateMutability": "view",
      "type": "function"
    },
    {
      "inputs": [
        {
          "internalType": "address",
          "name": "_keeperAddress",
          "type": "address"
        }
      ],
      "name": "removeKeeper",
      "outputs": [],
      "stateMutability": "nonpayable",
      "type": "function"
    },
    {
      "inputs": [],
      "name": "resurface",
      "outputs": [],
      "stateMutability": "nonpayable",
      "type": "function"
    },
    {
      "inputs": [],
      "name": "setupOracles",
      "outputs": [],
      "stateMutability": "nonpayable",
      "type": "function"
    },
    {
      "inputs": [],
      "name": "swapManager",
      "outputs": [
        {
          "internalType": "contract ISwapManager",
          "name": "",
          "type": "address"
        }
      ],
      "stateMutability": "view",
      "type": "function"
    },
    {
      "inputs": [],
      "name": "swapSlippage",
      "outputs": [
        {
          "internalType": "uint256",
          "name": "",
          "type": "uint256"
        }
      ],
      "stateMutability": "view",
      "type": "function"
    },
    {
      "inputs": [
        {
          "internalType": "address",
          "name": "_fromToken",
          "type": "address"
        }
      ],
      "name": "sweepERC20",
      "outputs": [],
      "stateMutability": "nonpayable",
      "type": "function"
    },
    {
      "inputs": [],
      "name": "token",
      "outputs": [
        {
          "internalType": "address",
          "name": "",
          "type": "address"
        }
      ],
      "stateMutability": "view",
      "type": "function"
    },
    {
      "inputs": [],
      "name": "totalValue",
      "outputs": [
        {
          "internalType": "uint256",
          "name": "_totalValue",
          "type": "uint256"
        }
      ],
      "stateMutability": "view",
      "type": "function"
    },
    {
      "inputs": [],
      "name": "totalValueCurrent",
      "outputs": [
        {
          "internalType": "uint256",
          "name": "",
          "type": "uint256"
        }
      ],
      "stateMutability": "nonpayable",
      "type": "function"
    },
    {
      "inputs": [
        {
          "internalType": "uint256",
          "name": "_highWater",
          "type": "uint256"
        },
        {
          "internalType": "uint256",
          "name": "_lowWater",
          "type": "uint256"
        }
      ],
      "name": "updateBalancingFactor",
      "outputs": [],
      "stateMutability": "nonpayable",
      "type": "function"
    },
    {
      "inputs": [
        {
          "internalType": "address",
          "name": "_feeCollector",
          "type": "address"
        }
      ],
      "name": "updateFeeCollector",
      "outputs": [],
      "stateMutability": "nonpayable",
      "type": "function"
    },
    {
      "inputs": [
        {
          "internalType": "uint256",
          "name": "_newPeriod",
          "type": "uint256"
        },
        {
          "internalType": "uint256",
          "name": "_newRouterIdx",
          "type": "uint256"
        }
      ],
      "name": "updateOracleConfig",
      "outputs": [],
      "stateMutability": "nonpayable",
      "type": "function"
    },
    {
      "inputs": [
        {
          "internalType": "address",
          "name": "_swapManager",
          "type": "address"
        }
      ],
      "name": "updateSwapManager",
      "outputs": [],
      "stateMutability": "nonpayable",
      "type": "function"
    },
    {
      "inputs": [
        {
          "internalType": "uint256",
          "name": "_newSwapSlippage",
          "type": "uint256"
        }
      ],
      "name": "updateSwapSlippage",
      "outputs": [],
      "stateMutability": "nonpayable",
      "type": "function"
    },
    {
      "inputs": [],
      "name": "vaultNum",
      "outputs": [
        {
          "internalType": "uint256",
          "name": "",
          "type": "uint256"
        }
      ],
      "stateMutability": "view",
      "type": "function"
    },
    {
      "inputs": [
        {
          "internalType": "uint256",
          "name": "_amount",
          "type": "uint256"
        }
      ],
      "name": "withdraw",
      "outputs": [],
      "stateMutability": "nonpayable",
      "type": "function"
    }
  ],
  "transactionHash": "0xe0c2ce685add89b9a0deaac2f47c9e9cd6b0ede8b7129aacb99bafede6f7140b",
  "args": [
    "0x01e1d41C1159b745298724c5Fd3eAfF3da1C6efD",
    "0xaBC64889601F01e7B26277Ef8756250d6ABf8c18",
    "0xe382d9f2394A359B01006faa8A1864b8a60d2710",
    "0x0538C8bAc84E95A9dF8aC10Aad17DbE81b9E36ee",
    "0x574254432d430000000000000000000000000000000000000000000000000000",
    "VesperMakerStrategyWBTC"
  ],
  "solcInputHash": "08a6b5bd93158006aa43afbc4be71aa7",
  "bytecode": "0x610100604052600080546001600160a01b03191673c02aaa39b223fe8d0a0e5c4f27ead9083c756cc2178155610e106004556005556127106006553480156200004757600080fd5b5060405162004e5138038062004e518339810160408190526200006a9162000601565b8585858585858584846001600160a01b038316620000cf5760405162461bcd60e51b815260206004820152601460248201527f706f6f6c2d616464726573732d69732d7a65726f00000000000000000000000060448201526064015b60405180910390fd5b6001600160a01b0382166200011c5760405162461bcd60e51b8152602060048201526012602482015271736d2d616464726573732d69732d7a65726f60701b6044820152606401620000c6565b600380546001600160a01b0319166001600160a01b0384811691909117909155606084901b6001600160601b03191660a05260408051637e062a3560e11b815290519185169163fc0c546a91600480820192602092909190829003018186803b1580156200018957600080fd5b505afa1580156200019e573d6000803e3d6000fd5b505050506040513d601f19601f82011682018060405250810190620001c4919062000739565b60601b6001600160601b031916608052600180546001600160a01b0319166001600160a01b03831617905562000211620001fb3390565b6007620004e960201b62001cc81790919060201c565b620002535760405162461bcd60e51b81526020600482015260116024820152701859190b5ad9595c195c8b59985a5b1959607a1b6044820152606401620000c6565b5050506001600160a01b038516620002a35760405162461bcd60e51b8152602060048201526012602482015271636d2d616464726573732d69732d7a65726f60701b6044820152606401620000c6565b8160e08181525050846001600160a01b031660c0816001600160a01b031660601b815250506000866001600160a01b031663fc0c546a6040518163ffffffff1660e01b815260040160206040518083038186803b1580156200030457600080fd5b505afa15801562000319573d6000803e3d6000fd5b505050506040513d601f19601f820116820180604052508101906200033f919062000739565b6001600160a01b031663313ce5676040518163ffffffff1660e01b815260040160206040518083038186803b1580156200037857600080fd5b505afa1580156200038d573d6000803e3d6000fd5b505050506040513d601f19601f82011682018060405250810190620003b391906200075f565b60ff169050620003c5816012620008b7565b620003d290600a620007cf565b600c558151620003ea9060099060208501906200055b565b5050505050505050736b175474e89094c44da98b954eedeac495271d0f6001600160a01b0316836001600160a01b031663fc0c546a6040518163ffffffff1660e01b815260040160206040518083038186803b1580156200044a57600080fd5b505afa1580156200045f573d6000803e3d6000fd5b505050506040513d601f19601f8201168201806040525081019062000485919062000739565b6001600160a01b031614620004dd5760405162461bcd60e51b815260206004820152601460248201527f6e6f742d612d76616c69642d6461692d706f6f6c0000000000000000000000006044820152606401620000c6565b50505050505062000953565b600062000500836001600160a01b03841662000509565b90505b92915050565b6000818152600183016020526040812054620005525750815460018181018455600084815260208082209093018490558454848252828601909352604090209190915562000503565b50600062000503565b8280546200056990620008d1565b90600052602060002090601f0160209004810192826200058d5760008555620005d8565b82601f10620005a857805160ff1916838001178555620005d8565b82800160010185558215620005d8579182015b82811115620005d8578251825591602001919060010190620005bb565b50620005e6929150620005ea565b5090565b5b80821115620005e65760008155600101620005eb565b60008060008060008060c087890312156200061a578182fd5b865162000627816200093a565b809650506020808801516200063c816200093a565b60408901519096506200064f816200093a565b606089015190955062000662816200093a565b608089015160a08a015191955093506001600160401b038082111562000686578384fd5b818a0191508a601f8301126200069a578384fd5b815181811115620006af57620006af62000924565b604051601f8201601f19908116603f01168101908382118183101715620006da57620006da62000924565b816040528281528d86848701011115620006f2578687fd5b8693505b82841015620007155784840186015181850187015292850192620006f6565b828411156200072657868684830101525b8096505050505050509295509295509295565b6000602082840312156200074b578081fd5b815162000758816200093a565b9392505050565b60006020828403121562000771578081fd5b815160ff8116811462000758578182fd5b80825b6001808611620007965750620007c6565b818704821115620007ab57620007ab6200090e565b80861615620007b957918102915b9490941c93800262000785565b94509492505050565b6000620005006000198484600082620007eb5750600162000758565b81620007fa5750600062000758565b81600181146200081357600281146200081e5762000852565b600191505062000758565b60ff8411156200083257620008326200090e565b6001841b9150848211156200084b576200084b6200090e565b5062000758565b5060208310610133831016604e8410600b84101617156200088a575081810a838111156200088457620008846200090e565b62000758565b62000899848484600162000782565b808604821115620008ae57620008ae6200090e565b02949350505050565b600082821015620008cc57620008cc6200090e565b500390565b600181811c90821680620008e657607f821691505b602082108114156200090857634e487b7160e01b600052602260045260246000fd5b50919050565b634e487b7160e01b600052601160045260246000fd5b634e487b7160e01b600052604160045260246000fd5b6001600160a01b03811681146200095057600080fd5b50565b60805160601c60a05160601c60c05160601c60e05161435d62000af46000396000818161047501528181610c0801526128fb01526000818161035901528181610717015281816108fb01528181610c2e01528181611851015281816119e601528181611f26015281816120990152818161221b015281816125b00152818161261f015281816129ef01528181612d3e01528181612e5a01528181613052015281816130ea0152818161313701528181613297015281816132eb01526137fb015260008181610231015281816104f401528181610610015281816107d70152818161098701528181610b3a01528181610cb401528181610e6401528181610fa3015281816112020152818161137f0152818161141c0152818161167901528181611d070152818161231a0152818161238f0152818161242f015261333f0152600081816103d6015281816115ac015281816116500152818161192f01528181611af301528181611d2801528181611fe70152818161250d01528181612f8701528181612fc5015281816132c90152818161331d015261347c015261435d6000f3fe608060405234801561001057600080fd5b50600436106102125760003560e01c806399b71d5c11610120578063ce5494bb116100b8578063e824600f1161007c578063e824600f14610470578063ec78e83214610497578063fb589de2146104aa578063fc0c546a146104bd578063ffa1ad74146104ce57610212565b8063ce5494bb14610427578063d2c35ce81461043a578063d4c3eea01461044d578063e00af4a714610455578063e645c2021461046857610212565b806399b71d5c14610390578063a3f4df7e14610398578063a923b2a6146103ad578063aa101886146103c0578063b09e8797146103c8578063b2016bd4146103d1578063b442bb23146103f8578063c415b95c1461040b578063cd2d7ebe1461041e57610212565b806342189c8f116101ae578063709d039d11610172578063709d039d146103305780637d7c2a1c146103435780638fe91ffb1461034b5780639318162014610354578063951dc22c1461037b57610212565b806342189c8f146102d7578063440d7248146102e05780634c36fad7146103025780635d12928b1461031557806367f5e4b81461031d57610212565b806314ae9f2e1461021757806316f0115b1461022c5780631aedeabe1461026957806325afda83146102805780632e1a7d4d146102895780632ecd89d41461029c5780633e918261146102b45780634032b72b146102bc578063415eea1b146102cf575b600080fd5b61022a610225366004613da7565b6104f2565b005b6102537f000000000000000000000000000000000000000000000000000000000000000081565b6040516102609190614014565b60405180910390f35b61027260065481565b604051908152602001610260565b610272600b5481565b61022a610297366004613f3d565b61060d565b6102a461065e565b6040519015158152602001610260565b61022a6107a2565b61022a6102ca366004613da7565b6107d5565b6102726108e1565b61027260045481565b6102a46102ee366004613da7565b6001546001600160a01b0390811691161490565b61022a610310366004613da7565b610985565b61022a610b38565b61022a61032b366004613f3d565b610cb2565b600354610253906001600160a01b031681565b61022a610dfe565b610272600c5481565b6102537f000000000000000000000000000000000000000000000000000000000000000081565b610383610ecd565b6040516102609190614065565b61022a610ed9565b6103a0610f13565b6040516102609190614078565b61022a6103bb366004613f55565b610fa1565b61022a6111d6565b610272600a5481565b6102537f000000000000000000000000000000000000000000000000000000000000000081565b61022a610406366004613f55565b611200565b600254610253906001600160a01b031681565b61027260055481565b61022a610435366004613da7565b61137c565b61022a610448366004613da7565b611677565b610272611840565b61022a610463366004613da7565b611a7c565b610272611ca8565b6102727f000000000000000000000000000000000000000000000000000000000000000081565b600154610253906001600160a01b031681565b6102726104b8366004613f3d565b611cb2565b6001546001600160a01b0316610253565b6103a0604051806040016040528060058152602001640342e302e360dc1b81525081565b7f00000000000000000000000000000000000000000000000000000000000000006001600160a01b0316630c340a246040518163ffffffff1660e01b815260040160206040518083038186803b15801561054b57600080fd5b505afa15801561055f573d6000803e3d6000fd5b505050506040513d601f19601f820116820180604052508101906105839190613dc3565b6001600160a01b0316336001600160a01b0316146105bc5760405162461bcd60e51b81526004016105b3906140db565b60405180910390fd5b6105c7600782611ce4565b61060a5760405162461bcd60e51b81526020600482015260146024820152731c995b5bdd994b5ad9595c195c8b59985a5b195960621b60448201526064016105b3565b50565b337f00000000000000000000000000000000000000000000000000000000000000006001600160a01b0316146106555760405162461bcd60e51b81526004016105b390614112565b61060a81611cf9565b6040516370a0823160e01b8152600090600080516020614308833981519152906370a0823190610692903090600401614014565b60206040518083038186803b1580156106aa57600080fd5b505afa1580156106be573d6000803e3d6000fd5b505050506040513d601f19601f820116820180604052508101906106e29190613f25565b6106ea611d72565b6106f491906141d6565b610700906103e86141d6565b60405163c0af0d3b60e01b81526001600160a01b037f0000000000000000000000000000000000000000000000000000000000000000169063c0af0d3b9061074c903090600401614014565b60206040518083038186803b15801561076457600080fd5b505afa158015610778573d6000803e3d6000fd5b505050506040513d601f19601f8201168201806040525081019061079c9190613f25565b11905090565b6107af335b600790611e99565b6107cb5760405162461bcd60e51b81526004016105b3906140ab565b6107d3611ebb565b565b7f00000000000000000000000000000000000000000000000000000000000000006001600160a01b0316630c340a246040518163ffffffff1660e01b815260040160206040518083038186803b15801561082e57600080fd5b505afa158015610842573d6000803e3d6000fd5b505050506040513d601f19601f820116820180604052508101906108669190613dc3565b6001600160a01b0316336001600160a01b0316146108965760405162461bcd60e51b81526004016105b3906140db565b6108a1600782611cc8565b61060a5760405162461bcd60e51b81526020600482015260116024820152701859190b5ad9595c195c8b59985a5b1959607a1b60448201526064016105b3565b60405163cd1adb6160e01b81526000906001600160a01b037f0000000000000000000000000000000000000000000000000000000000000000169063cd1adb6190610930903090600401614014565b60206040518083038186803b15801561094857600080fd5b505afa15801561095c573d6000803e3d6000fd5b505050506040513d601f19601f820116820180604052508101906109809190613f25565b905090565b7f00000000000000000000000000000000000000000000000000000000000000006001600160a01b0316630c340a246040518163ffffffff1660e01b815260040160206040518083038186803b1580156109de57600080fd5b505afa1580156109f2573d6000803e3d6000fd5b505050506040513d601f19601f82011682018060405250810190610a169190613dc3565b6001600160a01b0316336001600160a01b031614610a465760405162461bcd60e51b81526004016105b3906140db565b6001600160a01b038116610a915760405162461bcd60e51b8152602060048201526012602482015271736d2d616464726573732d69732d7a65726f60701b60448201526064016105b3565b6003546001600160a01b0382811691161415610adc5760405162461bcd60e51b815260206004820152600a602482015269736d2d69732d73616d6560b01b60448201526064016105b3565b6003546040516001600160a01b038084169216907f2d19927e7cac08ceb98b38898a4fdff6da6a27295b9a2d62fe250408ebe044e190600090a3600380546001600160a01b0319166001600160a01b0392909216919091179055565b7f00000000000000000000000000000000000000000000000000000000000000006001600160a01b0316630c340a246040518163ffffffff1660e01b815260040160206040518083038186803b158015610b9157600080fd5b505afa158015610ba5573d6000803e3d6000fd5b505050506040513d601f19601f82011682018060405250810190610bc99190613dc3565b6001600160a01b0316336001600160a01b031614610bf95760405162461bcd60e51b81526004016105b3906140db565b604051630bbccf9b60e11b81527f000000000000000000000000000000000000000000000000000000000000000060048201527f00000000000000000000000000000000000000000000000000000000000000006001600160a01b0316906317799f3690602401602060405180830381600087803b158015610c7a57600080fd5b505af1158015610c8e573d6000803e3d6000fd5b505050506040513d601f19601f8201168201806040525081019061060a9190613f25565b7f00000000000000000000000000000000000000000000000000000000000000006001600160a01b0316630c340a246040518163ffffffff1660e01b815260040160206040518083038186803b158015610d0b57600080fd5b505afa158015610d1f573d6000803e3d6000fd5b505050506040513d601f19601f82011682018060405250810190610d439190613dc3565b6001600160a01b0316336001600160a01b031614610d735760405162461bcd60e51b81526004016105b3906140db565b612710811115610dbe5760405162461bcd60e51b8152602060048201526016602482015275696e76616c69642d736c6970706167652d76616c756560501b60448201526064016105b3565b60065460408051918252602082018390527ef1c5db862c7598b3b6765552ca951f498611e06412c2d57f8d0b58f82e7f82910160405180910390a1600655565b610e07336107a7565b610e235760405162461bcd60e51b81526004016105b3906140ab565b6000806000610e30612387565b6040516302df682360e11b815260048101849052602481018390526044810182905292955090935091506001600160a01b037f000000000000000000000000000000000000000000000000000000000000000016906305bed04690606401600060405180830381600087803b158015610ea857600080fd5b505af1158015610ebc573d6000803e3d6000fd5b50505050610ec86124f3565b505050565b60606109806007612781565b610ee2336107a7565b610efe5760405162461bcd60e51b81526004016105b3906140ab565b610f08600061278e565b6107d360001961278e565b60098054610f2090614270565b80601f0160208091040260200160405190810160405280929190818152602001828054610f4c90614270565b8015610f995780601f10610f6e57610100808354040283529160200191610f99565b820191906000526020600020905b815481529060010190602001808311610f7c57829003601f168201915b505050505081565b7f00000000000000000000000000000000000000000000000000000000000000006001600160a01b0316630c340a246040518163ffffffff1660e01b815260040160206040518083038186803b158015610ffa57600080fd5b505afa15801561100e573d6000803e3d6000fd5b505050506040513d601f19601f820116820180604052508101906110329190613dc3565b6001600160a01b0316336001600160a01b0316146110625760405162461bcd60e51b81526004016105b3906140db565b600360009054906101000a90046001600160a01b03166001600160a01b031663c2fba6676040518163ffffffff1660e01b815260040160206040518083038186803b1580156110b057600080fd5b505afa1580156110c4573d6000803e3d6000fd5b505050506040513d601f19601f820116820180604052508101906110e89190613f25565b811061112d5760405162461bcd60e51b81526020600482015260146024820152730d2dcecc2d8d2c85ae4deeae8cae45ad2dcc8caf60631b60448201526064016105b3565b816111385760045491505b603b82116111805760405162461bcd60e51b81526020600482015260156024820152741a5b9d985b1a590b5bdc9858db194b5c195c9a5bd9605a1b60448201526064016105b3565b6004546005546040805192835260208301859052820152606081018290527f83bc5ab8030537fcf1d29c2334f6d22c26c82dcbe5ff03923d2cff5c692c0a7f9060800160405180910390a1600491909155600555565b6111df336107a7565b6111fb5760405162461bcd60e51b81526004016105b3906140ab565b6107d3565b7f00000000000000000000000000000000000000000000000000000000000000006001600160a01b0316630c340a246040518163ffffffff1660e01b815260040160206040518083038186803b15801561125957600080fd5b505afa15801561126d573d6000803e3d6000fd5b505050506040513d601f19601f820116820180604052508101906112919190613dc3565b6001600160a01b0316336001600160a01b0316146112c15760405162461bcd60e51b81526004016105b3906140db565b806113015760405162461bcd60e51b815260206004820152601060248201526f6c6f7757617465722d69732d7a65726f60801b60448201526064016105b3565b8082116113505760405162461bcd60e51b815260206004820152601c60248201527f6869676857617465722d6c6573732d7468616e2d6c6f7757617465720000000060448201526064016105b3565b611361662386f26fc100008361420e565b600a55611375662386f26fc100008261420e565b600b555050565b337f00000000000000000000000000000000000000000000000000000000000000006001600160a01b0316146113c45760405162461bcd60e51b81526004016105b390614112565b6001600160a01b03811661141a5760405162461bcd60e51b815260206004820152601c60248201527f6e65772d73747261746567792d616464726573732d69732d7a65726f0000000060448201526064016105b3565b7f00000000000000000000000000000000000000000000000000000000000000006001600160a01b0316816001600160a01b03166316f0115b6040518163ffffffff1660e01b815260040160206040518083038186803b15801561147d57600080fd5b505afa158015611491573d6000803e3d6000fd5b505050506040513d601f19601f820116820180604052508101906114b59190613dc3565b6001600160a01b0316146115045760405162461bcd60e51b81526020600482015260166024820152756e6f742d76616c69642d6e65772d737472617465677960501b60448201526064016105b3565b61150d816128f9565b6001546040516370a0823160e01b81526115a69183916001600160a01b03909116906370a0823190611543903090600401614014565b60206040518083038186803b15801561155b57600080fd5b505afa15801561156f573d6000803e3d6000fd5b505050506040513d601f19601f820116820180604052508101906115939190613f25565b6001546001600160a01b03169190612a59565b61060a817f00000000000000000000000000000000000000000000000000000000000000006001600160a01b03166370a08231306040518263ffffffff1660e01b81526004016115f69190614014565b60206040518083038186803b15801561160e57600080fd5b505afa158015611622573d6000803e3d6000fd5b505050506040513d601f19601f820116820180604052508101906116469190613f25565b6001600160a01b037f0000000000000000000000000000000000000000000000000000000000000000169190612a59565b7f00000000000000000000000000000000000000000000000000000000000000006001600160a01b0316630c340a246040518163ffffffff1660e01b815260040160206040518083038186803b1580156116d057600080fd5b505afa1580156116e4573d6000803e3d6000fd5b505050506040513d601f19601f820116820180604052508101906117089190613dc3565b6001600160a01b0316336001600160a01b0316146117385760405162461bcd60e51b81526004016105b3906140db565b6001600160a01b03811661178e5760405162461bcd60e51b815260206004820152601d60248201527f6665652d636f6c6c6563746f722d616464726573732d69732d7a65726f00000060448201526064016105b3565b6002546001600160a01b03828116911614156117e45760405162461bcd60e51b81526020600482015260156024820152746665652d636f6c6c6563746f722d69732d73616d6560581b60448201526064016105b3565b6002546040516001600160a01b038084169216907f0f06062680f9bd68e786e9980d9bb03d73d5620fc3b345e417b6eacb310b970690600090a3600280546001600160a01b0319166001600160a01b0392909216919091179055565b60008061184b611d72565b905060007f00000000000000000000000000000000000000000000000000000000000000006001600160a01b031663c0af0d3b306040518263ffffffff1660e01b815260040161189b9190614014565b60206040518083038186803b1580156118b357600080fd5b505afa1580156118c7573d6000803e3d6000fd5b505050506040513d601f19601f820116820180604052508101906118eb9190613f25565b9050808211156119cb576000611901828461422d565b6003546040516340b4c54560e11b815260008051602061430883398151915260048201526001600160a01b037f00000000000000000000000000000000000000000000000000000000000000008116602483015260448201849052600060648301529293509116906381698a8a9060840160006040518083038186803b15801561198a57600080fd5b505afa15801561199e573d6000803e3d6000fd5b505050506040513d6000823e601f3d908101601f191682016040526119c69190810190613ddf565b945050505b6040516369ebe00160e11b8152611a6b906001600160a01b037f0000000000000000000000000000000000000000000000000000000000000000169063d3d7c00290611a1b903090600401614014565b60206040518083038186803b158015611a3357600080fd5b505afa158015611a47573d6000803e3d6000fd5b505050506040513d601f19601f820116820180604052508101906104b89190613f25565b611a7590846141d6565b9250505090565b611a85336107a7565b611aa15760405162461bcd60e51b81526004016105b3906140ab565b6002546001600160a01b0316611af15760405162461bcd60e51b81526020600482015260156024820152741999594b58dbdb1b1958dd1bdc8b5b9bdd0b5cd95d605a1b60448201526064016105b3565b7f00000000000000000000000000000000000000000000000000000000000000006001600160a01b0316816001600160a01b03161415611b735760405162461bcd60e51b815260206004820152601f60248201527f6e6f742d616c6c6f7765642d746f2d73776565702d636f6c6c61746572616c0060448201526064016105b3565b6001546001600160a01b0380831691161415611bc85760405162461bcd60e51b815260206004820152601460248201527306e6f742d616c6c6f7765642d746f2d73776565760641b60448201526064016105b3565b6001600160a01b03811673eeeeeeeeeeeeeeeeeeeeeeeeeeeeeeeeeeeeeeee1415611c0857600254611c03906001600160a01b031647612aaf565b61060a565b6040516370a0823160e01b81526000906001600160a01b038316906370a0823190611c37903090600401614014565b60206040518083038186803b158015611c4f57600080fd5b505afa158015611c63573d6000803e3d6000fd5b505050506040513d601f19601f82011682018060405250810190611c879190613f25565b600254909150611ca4906001600160a01b03848116911683612a59565b5050565b6000610980611840565b6000600c5482611cc291906141ee565b92915050565b6000611cdd836001600160a01b038416612bc8565b9392505050565b6000611cdd836001600160a01b038416612c17565b611d0281612d34565b61060a7f00000000000000000000000000000000000000000000000000000000000000007f00000000000000000000000000000000000000000000000000000000000000006001600160a01b03166370a08231306040518263ffffffff1660e01b81526004016115f69190614014565b6001546040516370a0823160e01b8152600091670de0b6b3a7640000916001600160a01b03909116906370a0823190611daf903090600401614014565b60206040518083038186803b158015611dc757600080fd5b505afa158015611ddb573d6000803e3d6000fd5b505050506040513d601f19601f82011682018060405250810190611dff9190613f25565b600160009054906101000a90046001600160a01b03166001600160a01b03166399530b066040518163ffffffff1660e01b815260040160206040518083038186803b158015611e4d57600080fd5b505afa158015611e61573d6000803e3d6000fd5b505050506040513d601f19601f82011682018060405250810190611e859190613f25565b611e8f919061420e565b61098091906141ee565b6001600160a01b03811660009081526001830160205260408120541515611cdd565b611ec361065e565b611f055760405162461bcd60e51b81526020600482015260136024820152723837b7b616b4b996b0b137bb3296bbb0ba32b960691b60448201526064016105b3565b6000611f0f611d72565b60405163c0af0d3b60e01b81526001600160a01b037f0000000000000000000000000000000000000000000000000000000000000000169063c0af0d3b90611f5b903090600401614014565b60206040518083038186803b158015611f7357600080fd5b505afa158015611f87573d6000803e3d6000fd5b505050506040513d601f19601f82011682018060405250810190611fab9190613f25565b611fb5919061422d565b600354604051637a6f237b60e11b8152919250600091829182916001600160a01b039091169063f4de46f690612021907f000000000000000000000000000000000000000000000000000000000000000090600080516020614308833981519152908990600401614028565b60006040518083038186803b15801561203957600080fd5b505afa15801561204d573d6000803e3d6000fd5b505050506040513d6000823e601f3d908101601f191682016040526120759190810190613e24565b92509250925081600014612381576040516330897f1760e11b8152600481018390527f00000000000000000000000000000000000000000000000000000000000000006001600160a01b031690636112fe2e90602401600060405180830381600087803b1580156120e557600080fd5b505af11580156120f9573d6000803e3d6000fd5b5050600354604051636e74a6f760e01b8152600481018590526001600160a01b039091169250636e74a6f7915060240160206040518083038186803b15801561214157600080fd5b505afa158015612155573d6000803e3d6000fd5b505050506040513d601f19601f820116820180604052508101906121799190613dc3565b6001600160a01b03166338ed17398360018630426040518663ffffffff1660e01b81526004016121ad959493929190614145565b600060405180830381600087803b1580156121c757600080fd5b505af11580156121db573d6000803e3d6000fd5b505050506040513d6000823e601f3d908101601f191682016040526122039190810190613e72565b506040516370a0823160e01b81526001600160a01b037f0000000000000000000000000000000000000000000000000000000000000000169063a846c2fd90600080516020614308833981519152906370a0823190612266903090600401614014565b60206040518083038186803b15801561227e57600080fd5b505afa158015612292573d6000803e3d6000fd5b505050506040513d601f19601f820116820180604052508101906122b69190613f25565b6040518263ffffffff1660e01b81526004016122d491815260200190565b600060405180830381600087803b1580156122ee57600080fd5b505af1158015612302573d6000803e3d6000fd5b50506040516306eeb69360e51b8152600481018590527f00000000000000000000000000000000000000000000000000000000000000006001600160a01b0316925063ddd6d2609150602401600060405180830381600087803b15801561236857600080fd5b505af115801561237c573d6000803e3d6000fd5b505050505b50505050565b6000806000807f00000000000000000000000000000000000000000000000000000000000000006001600160a01b031663d53ddc26306040518263ffffffff1660e01b81526004016123d99190614014565b60206040518083038186803b1580156123f157600080fd5b505afa158015612405573d6000803e3d6000fd5b505050506040513d601f19601f820116820180604052508101906124299190613f25565b905060007f00000000000000000000000000000000000000000000000000000000000000006001600160a01b0316639f2b2833306040518263ffffffff1660e01b81526004016124799190614014565b60206040518083038186803b15801561249157600080fd5b505afa1580156124a5573d6000803e3d6000fd5b505050506040513d601f19601f820116820180604052508101906124c99190613f25565b90506124d481612ec6565b94506124df8161304a565b93506124ea826130b6565b92505050909192565b6040516370a0823160e01b81526000906001600160a01b037f000000000000000000000000000000000000000000000000000000000000000016906370a0823190612542903090600401614014565b60206040518083038186803b15801561255a57600080fd5b505afa15801561256e573d6000803e3d6000fd5b505050506040513d601f19601f820116820180604052508101906125929190613f25565b905080156126155760405163bad4a01f60e01b8152600481018290527f00000000000000000000000000000000000000000000000000000000000000006001600160a01b03169063bad4a01f90602401600060405180830381600087803b1580156125fc57600080fd5b505af1158015612610573d6000803e3d6000fd5b505050505b60008060008060007f00000000000000000000000000000000000000000000000000000000000000006001600160a01b03166390229af7306040518263ffffffff1660e01b81526004016126699190614014565b60a06040518083038186803b15801561268157600080fd5b505afa158015612695573d6000803e3d6000fd5b505050506040513d601f19601f820116820180604052508101906126b99190613f76565b945094509450945094506000600a5484876126d4919061420e565b6126de91906141ee565b9050818110156126f6576126f1856130c5565b612778565b600a5483111561275c5761270861065e565b1561274a5760405162461bcd60e51b81526020600482015260126024820152713837b7b616b4b996bab73232b93bb0ba32b960711b60448201526064016105b3565b6126f1612757868361422d565b613121565b600b5483101561277857612778612773828761422d565b6130c5565b50505050505050565b60606000611cdd83613227565b61279781613283565b6001546127bd90600080516020614308833981519152906001600160a01b031683613549565b60005b600360009054906101000a90046001600160a01b03166001600160a01b031663c2fba6676040518163ffffffff1660e01b815260040160206040518083038186803b15801561280e57600080fd5b505afa158015612822573d6000803e3d6000fd5b505050506040513d601f19601f820116820180604052508101906128469190613f25565b811015611ca457600354604051636e74a6f760e01b8152600481018390526128e7916001600160a01b031690636e74a6f79060240160206040518083038186803b15801561289357600080fd5b505afa1580156128a7573d6000803e3d6000fd5b505050506040513d601f19601f820116820180604052508101906128cb9190613dc3565b731b40183efb4dd766f11bda7a7c3ad8982e9984219084613549565b806128f1816142ab565b9150506127c0565b7f0000000000000000000000000000000000000000000000000000000000000000816001600160a01b031663e824600f6040518163ffffffff1660e01b815260040160206040518083038186803b15801561295357600080fd5b505afa158015612967573d6000803e3d6000fd5b505050506040513d601f19601f8201168201806040525081019061298b9190613f25565b146129d85760405162461bcd60e51b815260206004820181905260248201527f636f6c6c61746572616c2d747970652d6d7573742d62652d7468652d73616d6560448201526064016105b3565b604051637038e06560e11b81526001600160a01b037f0000000000000000000000000000000000000000000000000000000000000000169063e071c0ca90612a24908490600401614014565b600060405180830381600087803b158015612a3e57600080fd5b505af1158015612a52573d6000803e3d6000fd5b5050505050565b610ec88363a9059cbb60e01b8484604051602401612a7892919061404c565b60408051601f198184030181529190526020810180516001600160e01b03166001600160e01b03199093169290921790915261365c565b80471015612aff5760405162461bcd60e51b815260206004820152601d60248201527f416464726573733a20696e73756666696369656e742062616c616e636500000060448201526064016105b3565b6000826001600160a01b03168260405160006040518083038185875af1925050503d8060008114612b4c576040519150601f19603f3d011682016040523d82523d6000602084013e612b51565b606091505b5050905080610ec85760405162461bcd60e51b815260206004820152603a60248201527f416464726573733a20756e61626c6520746f2073656e642076616c75652c207260448201527f6563697069656e74206d6179206861766520726576657274656400000000000060648201526084016105b3565b6000818152600183016020526040812054612c0f57508154600181810184556000848152602080822090930184905584548482528286019093526040902091909155611cc2565b506000611cc2565b60008181526001830160205260408120548015612d2a576000612c3b60018361422d565b8554909150600090612c4f9060019061422d565b9050818114612cd0576000866000018281548110612c7d57634e487b7160e01b600052603260045260246000fd5b9060005260206000200154905080876000018481548110612cae57634e487b7160e01b600052603260045260246000fd5b6000918252602080832090910192909255918252600188019052604090208390555b8554869080612cef57634e487b7160e01b600052603160045260246000fd5b600190038181906000526020600020016000905590558560010160008681526020019081526020016000206000905560019350505050611cc2565b6000915050611cc2565b60008060008060007f00000000000000000000000000000000000000000000000000000000000000006001600160a01b03166352d5aee830886040518363ffffffff1660e01b8152600401612d8a92919061404c565b60a06040518083038186803b158015612da257600080fd5b505afa158015612db6573d6000803e3d6000fd5b505050506040513d601f19601f82011682018060405250810190612dda9190613f76565b9450945094509450945083600014158015612df65750600b5482105b15612e4457600a54600090612e0b858861420e565b612e1591906141ee565b905081811015612e2d57612e28856130c5565b612e42565b84811015612e4257612e42612773828761422d565b505b6040516330897f1760e11b8152600481018790527f00000000000000000000000000000000000000000000000000000000000000006001600160a01b031690636112fe2e90602401600060405180830381600087803b158015612ea657600080fd5b505af1158015612eba573d6000803e3d6000fd5b50505050505050505050565b6000612edf60008051602061430883398151915261372e565b612ee76137e1565b6040516370a0823160e01b8152600090600080516020614308833981519152906370a0823190612f1b903090600401614014565b60206040518083038186803b158015612f3357600080fd5b505afa158015612f47573d6000803e3d6000fd5b505050506040513d601f19601f82011682018060405250810190612f6b9190613f25565b90508015612fae57612fae6000805160206143088339815191527f00000000000000000000000000000000000000000000000000000000000000008360016138a8565b6040516370a0823160e01b81526001600160a01b037f000000000000000000000000000000000000000000000000000000000000000016906370a0823190612ffa903090600401614014565b60206040518083038186803b15801561301257600080fd5b505afa158015613026573d6000803e3d6000fd5b505050506040513d601f19601f82011682018060405250810190611cdd9190613f25565b60008061309c7f00000000000000000000000000000000000000000000000000000000000000006001600160a01b031663d3d7c002306040518263ffffffff1660e01b8152600401611a1b9190614014565b90508083116130ac576000611cdd565b611cdd818461422d565b60006130c182612d34565b5090565b801561060a576130d481613a54565b60405163a846c2fd60e01b8152600481018290527f00000000000000000000000000000000000000000000000000000000000000006001600160a01b03169063a846c2fd90602401612a24565b60405163317afabb60e21b8152600481018290527f00000000000000000000000000000000000000000000000000000000000000006001600160a01b03169063c5ebeaec90602401600060405180830381600087803b15801561318357600080fd5b505af1158015613197573d6000803e3d6000fd5b50506040516370a0823160e01b815260008051602061430883398151915292506370a0823191506131cc903090600401614014565b60206040518083038186803b1580156131e457600080fd5b505afa1580156131f8573d6000803e3d6000fd5b505050506040513d601f19601f8201168201806040525081019061321c9190613f25565b905061060a81613b86565b60608160000180548060200260200160405190810160405280929190818152602001828054801561327757602002820191906000526020600020905b815481526020019060010190808311613263575b50505050509050919050565b6132bc6000805160206143088339815191527f000000000000000000000000000000000000000000000000000000000000000083613549565b6133106001600160a01b037f0000000000000000000000000000000000000000000000000000000000000000167f000000000000000000000000000000000000000000000000000000000000000083613549565b6133646001600160a01b037f0000000000000000000000000000000000000000000000000000000000000000167f000000000000000000000000000000000000000000000000000000000000000083613549565b60005b600360009054906101000a90046001600160a01b03166001600160a01b031663c2fba6676040518163ffffffff1660e01b815260040160206040518083038186803b1580156133b557600080fd5b505afa1580156133c9573d6000803e3d6000fd5b505050506040513d601f19601f820116820180604052508101906133ed9190613f25565b811015611ca457600354604051636e74a6f760e01b8152600481018390526134a3916001600160a01b031690636e74a6f79060240160206040518083038186803b15801561343a57600080fd5b505afa15801561344e573d6000803e3d6000fd5b505050506040513d601f19601f820116820180604052508101906134729190613dc3565b6001600160a01b037f0000000000000000000000000000000000000000000000000000000000000000169084613549565b600354604051636e74a6f760e01b815260048101839052613537916001600160a01b031690636e74a6f79060240160206040518083038186803b1580156134e957600080fd5b505afa1580156134fd573d6000803e3d6000fd5b505050506040513d601f19601f820116820180604052508101906135219190613dc3565b6000805160206143088339815191529084613549565b80613541816142ab565b915050613367565b8015806135d25750604051636eb1769f60e11b81523060048201526001600160a01b03838116602483015284169063dd62ed3e9060440160206040518083038186803b15801561359857600080fd5b505afa1580156135ac573d6000803e3d6000fd5b505050506040513d601f19601f820116820180604052508101906135d09190613f25565b155b61363d5760405162461bcd60e51b815260206004820152603660248201527f5361666545524332303a20617070726f76652066726f6d206e6f6e2d7a65726f60448201527520746f206e6f6e2d7a65726f20616c6c6f77616e636560501b60648201526084016105b3565b610ec88363095ea7b360e01b8484604051602401612a7892919061404c565b60006136b1826040518060400160405280602081526020017f5361666545524332303a206c6f772d6c6576656c2063616c6c206661696c6564815250856001600160a01b0316613bb79092919063ffffffff16565b805190915015610ec857808060200190518101906136cf9190613f05565b610ec85760405162461bcd60e51b815260206004820152602a60248201527f5361666545524332303a204552433230206f7065726174696f6e20646964206e6044820152691bdd081cdd58d8d9595960b21b60648201526084016105b3565b6040516370a0823160e01b8152600090731b40183efb4dd766f11bda7a7c3ad8982e998421906370a0823190613768903090600401614014565b60206040518083038186803b15801561378057600080fd5b505afa158015613794573d6000803e3d6000fd5b505050506040513d601f19601f820116820180604052508101906137b89190613f25565b90508015611ca457611ca4731b40183efb4dd766f11bda7a7c3ad8982e998421838360016138a8565b60405163c0af0d3b60e01b81526000906001600160a01b037f0000000000000000000000000000000000000000000000000000000000000000169063c0af0d3b90613830903090600401614014565b60206040518083038186803b15801561384857600080fd5b505afa15801561385c573d6000803e3d6000fd5b505050506040513d601f19601f820116820180604052508101906138809190613f25565b9050600061388c611d72565b905081811115611ca457611ca46138a3838361422d565b613a54565b600354604051631d1f307960e31b8152600091829182916001600160a01b03169063e8f983c8906138e1908a908a908a90600401614028565b60006040518083038186803b1580156138f957600080fd5b505afa15801561390d573d6000803e3d6000fd5b505050506040513d6000823e601f3d908101601f191682016040526139359190810190613e24565b925092509250836000141561394957600193505b811561277857600354604051636e74a6f760e01b8152600481018390526001600160a01b0390911690636e74a6f79060240160206040518083038186803b15801561399357600080fd5b505afa1580156139a7573d6000803e3d6000fd5b505050506040513d601f19601f820116820180604052508101906139cb9190613dc3565b6001600160a01b03166338ed173986868630426040518663ffffffff1660e01b81526004016139fe959493929190614145565b600060405180830381600087803b158015613a1857600080fd5b505af1158015613a2c573d6000803e3d6000fd5b505050506040513d6000823e601f3d908101601f1916820160405261237c9190810190613e72565b60015460408051634ca9858360e11b815290516000926001600160a01b0316916399530b06916004808301926020929190829003018186803b158015613a9957600080fd5b505afa158015613aad573d6000803e3d6000fd5b505050506040513d601f19601f82011682018060405250810190613ad19190613f25565b9050600081613ae884670de0b6b3a764000061420e565b613af291906141ee565b9050670de0b6b3a7640000613b07838361420e565b613b1191906141ee565b8311613b1d5780613b28565b613b288160016141d6565b60015460405160016226f16160e21b03198152600481018390529192506001600160a01b03169063ff643a7c90602401600060405180830381600087803b158015613b7257600080fd5b505af1158015612778573d6000803e3d6000fd5b60015460405163b6b55f2560e01b8152600481018390526001600160a01b039091169063b6b55f2590602401612a24565b6060613bc68484600085613bce565b949350505050565b606082471015613c2f5760405162461bcd60e51b815260206004820152602660248201527f416464726573733a20696e73756666696369656e742062616c616e636520666f6044820152651c8818d85b1b60d21b60648201526084016105b3565b843b613c7d5760405162461bcd60e51b815260206004820152601d60248201527f416464726573733a2063616c6c20746f206e6f6e2d636f6e747261637400000060448201526064016105b3565b600080866001600160a01b03168587604051613c999190613ff8565b60006040518083038185875af1925050503d8060008114613cd6576040519150601f19603f3d011682016040523d82523d6000602084013e613cdb565b606091505b5091509150613ceb828286613cf6565b979650505050505050565b60608315613d05575081611cdd565b825115613d155782518084602001fd5b8160405162461bcd60e51b81526004016105b39190614078565b600082601f830112613d3f578081fd5b81516020613d54613d4f836141b2565b614181565b80838252828201915082860187848660051b8901011115613d73578586fd5b855b85811015613d9a578151613d88816142f2565b84529284019290840190600101613d75565b5090979650505050505050565b600060208284031215613db8578081fd5b8135611cdd816142f2565b600060208284031215613dd4578081fd5b8151611cdd816142f2565b60008060408385031215613df1578081fd5b825167ffffffffffffffff811115613e07578182fd5b613e1385828601613d2f565b925050602083015190509250929050565b600080600060608486031215613e38578081fd5b835167ffffffffffffffff811115613e4e578182fd5b613e5a86828701613d2f565b93505060208401519150604084015190509250925092565b60006020808385031215613e84578182fd5b825167ffffffffffffffff811115613e9a578283fd5b8301601f81018513613eaa578283fd5b8051613eb8613d4f826141b2565b80828252848201915084840188868560051b8701011115613ed7578687fd5b8694505b83851015613ef9578051835260019490940193918501918501613edb565b50979650505050505050565b600060208284031215613f16578081fd5b81518015158114611cdd578182fd5b600060208284031215613f36578081fd5b5051919050565b600060208284031215613f4e578081fd5b5035919050565b60008060408385031215613f67578182fd5b50508035926020909101359150565b600080600080600060a08688031215613f8d578081fd5b5050835160208501516040860151606087015160809097015192989197509594509092509050565b6000815180845260208085019450808401835b83811015613fed5781516001600160a01b031687529582019590820190600101613fc8565b509495945050505050565b6000825161400a818460208701614244565b9190910192915050565b6001600160a01b0391909116815260200190565b6001600160a01b039384168152919092166020820152604081019190915260600190565b6001600160a01b03929092168252602082015260400190565b600060208252611cdd6020830184613fb5565b6000602082528251806020840152614097816040850160208701614244565b601f01601f19169190910160400192915050565b60208082526016908201527531b0b63632b916b4b996b737ba16b096b5b2b2b832b960511b604082015260600190565b6020808252601a908201527f63616c6c65722d69732d6e6f742d7468652d676f7665726e6f72000000000000604082015260600190565b60208082526019908201527818d85b1b195c8b5a5ccb5b9bdd0b5d995cdc195c8b5c1bdbdb603a1b604082015260600190565b600086825285602083015260a0604083015261416460a0830186613fb5565b6001600160a01b0394909416606083015250608001529392505050565b604051601f8201601f1916810167ffffffffffffffff811182821017156141aa576141aa6142dc565b604052919050565b600067ffffffffffffffff8211156141cc576141cc6142dc565b5060051b60200190565b600082198211156141e9576141e96142c6565b500190565b60008261420957634e487b7160e01b81526012600452602481fd5b500490565b6000816000190483118215151615614228576142286142c6565b500290565b60008282101561423f5761423f6142c6565b500390565b60005b8381101561425f578181015183820152602001614247565b838111156123815750506000910152565b600181811c9082168061428457607f821691505b602082108114156142a557634e487b7160e01b600052602260045260246000fd5b50919050565b60006000198214156142bf576142bf6142c6565b5060010190565b634e487b7160e01b600052601160045260246000fd5b634e487b7160e01b600052604160045260246000fd5b6001600160a01b038116811461060a57600080fdfe0000000000000000000000006b175474e89094c44da98b954eedeac495271d0fa26469706673582212204977d65449c9f22ae31a3141ab91b8f6768809638774d97c916af744e5181c5a64736f6c63430008030033",
  "devdoc": {
    "details": "This strategy will deposit collateral token in Maker, borrow Dai and deposit borrowed DAI in Vesper DAI pool to earn interest.",
    "kind": "dev",
    "methods": {
      "addKeeper(address)": {
        "params": {
          "_keeperAddress": "keeper address to add."
        }
      },
      "approveToken()": {
        "details": "Approve all required tokens"
      },
      "convertFrom18(uint256)": {
        "details": "Convert from 18 decimals to token defined decimals."
      },
      "isReservedToken(address)": {
        "details": "Check whether given token is reserved or not. Reserved tokens are not allowed to sweep."
      },
      "migrate(address)": {
        "details": "_beforeMigration hook can be implemented in child strategy to do extra steps.",
        "params": {
          "_newStrategy": "Address of new strategy"
        }
      },
      "rebalance()": {
        "details": "Rebalance profit, loss and investment of this strategy"
      },
      "removeKeeper(address)": {
        "params": {
          "_keeperAddress": "keeper address to remove."
        }
      },
      "resurface()": {
        "details": "If pool is underwater this function will resolve underwater condition. If Debt in Maker is greater than Dai balance in lender then pool is underwater. Lowering DAI debt in Maker will resolve underwater condition. Resolve: Calculate required collateral token to lower DAI debt. Withdraw required collateral token from Maker and convert those to DAI via Uniswap. Finally payback debt in Maker using DAI.Also report loss in pool."
      },
      "sweepERC20(address)": {
        "details": "sweep given token to feeCollector of strategy",
        "params": {
          "_fromToken": "token address to sweep"
        }
      },
      "totalValue()": {
        "details": "Make sure to return value in collateral token and in order to do that we are using Uniswap to get collateral amount for earned DAI."
      },
      "totalValueCurrent()": {
        "details": "Report total value in collateral token"
      },
      "updateBalancingFactor(uint256,uint256)": {
        "params": {
          "_highWater": "Value for high water mark.",
          "_lowWater": "Value for low water mark."
        }
      },
      "updateFeeCollector(address)": {
        "params": {
          "_feeCollector": "fee collector address"
        }
      },
      "updateSwapManager(address)": {
        "params": {
          "_swapManager": "swap manager address"
        }
      },
      "withdraw(uint256)": {
        "details": "Withdraw collateral token from lending pool.",
        "params": {
          "_amount": "Amount of collateral token"
        }
      }
    },
    "version": 1
  },
  "userdoc": {
    "kind": "user",
    "methods": {
      "addKeeper(address)": {
        "notice": "Add given address in keepers list."
      },
      "createVault()": {
        "notice": "Create new Maker vault"
      },
      "isUnderwater()": {
        "notice": "Returns true if pool is underwater.Underwater - If debt is greater than (earning of pool + DAI in pool + some wei buffer).Earning - Sum of DAI balance and DAI from accrued reward, if any, in lending pool."
      },
      "keepers()": {
        "notice": "Return list of keepers"
      },
      "migrate(address)": {
        "notice": "Migrate all asset and vault ownership,if any, to new strategy"
      },
      "removeKeeper(address)": {
        "notice": "Remove given address from keepers list."
      },
      "token()": {
        "notice": "Returns address of token correspond to collateral token"
      },
      "totalValue()": {
        "notice": "Report total value of this strategy"
      },
      "totalValueCurrent()": {
        "notice": "Calculate total value of asset under management (in real-time)"
      },
      "updateBalancingFactor(uint256,uint256)": {
        "notice": "Update balancing factors aka high water and low water values. Water mark values represent Collateral Ratio in Maker. For example 300 as high water means 300% collateral ratio."
      },
      "updateFeeCollector(address)": {
        "notice": "Update fee collector"
      },
      "updateSwapManager(address)": {
        "notice": "Update swap manager address"
      }
    },
    "version": 1
  },
  "storageLayout": {
    "storage": [
      {
        "astId": 14867,
        "contract": "contracts/strategies/maker/VesperMakerStrategy.sol:VesperMakerStrategy",
        "label": "WETH",
        "offset": 0,
        "slot": "0",
        "type": "t_address"
      },
      {
        "astId": 14872,
        "contract": "contracts/strategies/maker/VesperMakerStrategy.sol:VesperMakerStrategy",
        "label": "receiptToken",
        "offset": 0,
        "slot": "1",
        "type": "t_address"
      },
      {
        "astId": 14878,
        "contract": "contracts/strategies/maker/VesperMakerStrategy.sol:VesperMakerStrategy",
        "label": "feeCollector",
        "offset": 0,
        "slot": "2",
        "type": "t_address"
      },
      {
        "astId": 14881,
        "contract": "contracts/strategies/maker/VesperMakerStrategy.sol:VesperMakerStrategy",
        "label": "swapManager",
        "offset": 0,
        "slot": "3",
        "type": "t_contract(ISwapManager)5259"
      },
      {
        "astId": 14884,
        "contract": "contracts/strategies/maker/VesperMakerStrategy.sol:VesperMakerStrategy",
        "label": "oraclePeriod",
        "offset": 0,
        "slot": "4",
        "type": "t_uint256"
      },
      {
        "astId": 14887,
        "contract": "contracts/strategies/maker/VesperMakerStrategy.sol:VesperMakerStrategy",
        "label": "oracleRouterIdx",
        "offset": 0,
        "slot": "5",
        "type": "t_uint256"
      },
      {
        "astId": 14890,
        "contract": "contracts/strategies/maker/VesperMakerStrategy.sol:VesperMakerStrategy",
        "label": "swapSlippage",
        "offset": 0,
        "slot": "6",
        "type": "t_uint256"
      },
      {
        "astId": 14893,
        "contract": "contracts/strategies/maker/VesperMakerStrategy.sol:VesperMakerStrategy",
        "label": "_keepers",
        "offset": 0,
        "slot": "7",
        "type": "t_struct(AddressSet)4299_storage"
      },
      {
        "astId": 34062,
        "contract": "contracts/strategies/maker/VesperMakerStrategy.sol:VesperMakerStrategy",
        "label": "NAME",
        "offset": 0,
        "slot": "9",
        "type": "t_string_storage"
      },
      {
        "astId": 34075,
        "contract": "contracts/strategies/maker/VesperMakerStrategy.sol:VesperMakerStrategy",
        "label": "highWater",
        "offset": 0,
        "slot": "10",
        "type": "t_uint256"
      },
      {
        "astId": 34077,
        "contract": "contracts/strategies/maker/VesperMakerStrategy.sol:VesperMakerStrategy",
        "label": "lowWater",
        "offset": 0,
        "slot": "11",
        "type": "t_uint256"
      },
      {
        "astId": 34079,
        "contract": "contracts/strategies/maker/VesperMakerStrategy.sol:VesperMakerStrategy",
        "label": "decimalConversionFactor",
        "offset": 0,
        "slot": "12",
        "type": "t_uint256"
      }
    ],
    "types": {
      "t_address": {
        "encoding": "inplace",
        "label": "address",
        "numberOfBytes": "20"
      },
      "t_array(t_bytes32)dyn_storage": {
        "base": "t_bytes32",
        "encoding": "dynamic_array",
        "label": "bytes32[]",
        "numberOfBytes": "32"
      },
      "t_bytes32": {
        "encoding": "inplace",
        "label": "bytes32",
        "numberOfBytes": "32"
      },
      "t_contract(ISwapManager)5259": {
        "encoding": "inplace",
        "label": "contract ISwapManager",
        "numberOfBytes": "20"
      },
      "t_mapping(t_bytes32,t_uint256)": {
        "encoding": "mapping",
        "key": "t_bytes32",
        "label": "mapping(bytes32 => uint256)",
        "numberOfBytes": "32",
        "value": "t_uint256"
      },
      "t_string_storage": {
        "encoding": "bytes",
        "label": "string",
        "numberOfBytes": "32"
      },
      "t_struct(AddressSet)4299_storage": {
        "encoding": "inplace",
        "label": "struct EnumerableSet.AddressSet",
        "members": [
          {
            "astId": 4298,
            "contract": "contracts/strategies/maker/VesperMakerStrategy.sol:VesperMakerStrategy",
            "label": "_inner",
            "offset": 0,
            "slot": "0",
            "type": "t_struct(Set)3998_storage"
          }
        ],
        "numberOfBytes": "64"
      },
      "t_struct(Set)3998_storage": {
        "encoding": "inplace",
        "label": "struct EnumerableSet.Set",
        "members": [
          {
            "astId": 3993,
            "contract": "contracts/strategies/maker/VesperMakerStrategy.sol:VesperMakerStrategy",
            "label": "_values",
            "offset": 0,
            "slot": "0",
            "type": "t_array(t_bytes32)dyn_storage"
          },
          {
            "astId": 3997,
            "contract": "contracts/strategies/maker/VesperMakerStrategy.sol:VesperMakerStrategy",
            "label": "_indexes",
            "offset": 0,
            "slot": "1",
            "type": "t_mapping(t_bytes32,t_uint256)"
          }
        ],
        "numberOfBytes": "64"
      },
      "t_uint256": {
        "encoding": "inplace",
        "label": "uint256",
        "numberOfBytes": "32"
      }
    }
  }
}