{
  "address": "0x11930e2838952908bfe7F6Ea9de5A551d759377E",
  "abi": [
    {
      "inputs": [
        {
          "internalType": "address",
          "name": "_pool",
          "type": "address"
        },
        {
          "internalType": "address",
          "name": "_swapManager",
          "type": "address"
        }
      ],
      "stateMutability": "nonpayable",
      "type": "constructor"
    },
    {
      "anonymous": false,
      "inputs": [
        {
          "indexed": false,
          "internalType": "address",
          "name": "_previousProvider",
          "type": "address"
        },
        {
          "indexed": false,
          "internalType": "address",
          "name": "_newProvider",
          "type": "address"
        }
      ],
      "name": "UpdatedAddressesProvider",
      "type": "event"
    },
    {
      "anonymous": false,
      "inputs": [
        {
          "indexed": true,
          "internalType": "address",
          "name": "previousFeeCollector",
          "type": "address"
        },
        {
          "indexed": true,
          "internalType": "address",
          "name": "newFeeCollector",
          "type": "address"
        }
      ],
      "name": "UpdatedFeeCollector",
      "type": "event"
    },
    {
      "anonymous": false,
      "inputs": [
        {
          "indexed": true,
          "internalType": "address",
          "name": "previousSwapManager",
          "type": "address"
        },
        {
          "indexed": true,
          "internalType": "address",
          "name": "newSwapManager",
          "type": "address"
        }
      ],
      "name": "UpdatedSwapManager",
      "type": "event"
    },
    {
      "inputs": [],
      "name": "NAME",
      "outputs": [
        {
          "internalType": "string",
          "name": "",
          "type": "string"
        }
      ],
      "stateMutability": "view",
      "type": "function"
    },
    {
      "inputs": [],
      "name": "VERSION",
      "outputs": [
        {
          "internalType": "string",
          "name": "",
          "type": "string"
        }
      ],
      "stateMutability": "view",
      "type": "function"
    },
    {
      "inputs": [],
      "name": "aaveAddressesProvider",
      "outputs": [
        {
          "internalType": "contract AaveLendingPoolAddressesProvider",
          "name": "",
          "type": "address"
        }
      ],
      "stateMutability": "view",
      "type": "function"
    },
    {
      "inputs": [],
      "name": "aaveIncentivesController",
      "outputs": [
        {
          "internalType": "contract AaveIncentivesController",
          "name": "",
          "type": "address"
        }
      ],
      "stateMutability": "view",
      "type": "function"
    },
    {
      "inputs": [],
      "name": "aaveLendingPool",
      "outputs": [
        {
          "internalType": "contract AaveLendingPool",
          "name": "",
          "type": "address"
        }
      ],
      "stateMutability": "view",
      "type": "function"
    },
    {
      "inputs": [],
      "name": "aaveProtocolDataProvider",
      "outputs": [
        {
          "internalType": "contract AaveProtocolDataProvider",
          "name": "",
          "type": "address"
        }
      ],
      "stateMutability": "view",
      "type": "function"
    },
    {
      "inputs": [
        {
          "internalType": "address",
          "name": "_keeperAddress",
          "type": "address"
        }
      ],
      "name": "addKeeper",
      "outputs": [],
      "stateMutability": "nonpayable",
      "type": "function"
    },
    {
      "inputs": [],
      "name": "approveToken",
      "outputs": [],
      "stateMutability": "nonpayable",
      "type": "function"
    },
    {
      "inputs": [],
      "name": "collateralToken",
      "outputs": [
        {
          "internalType": "contract IERC20",
          "name": "",
          "type": "address"
        }
      ],
      "stateMutability": "view",
      "type": "function"
    },
    {
      "inputs": [
        {
          "internalType": "uint256",
          "name": "amount",
          "type": "uint256"
        }
      ],
      "name": "convertFrom18",
      "outputs": [
        {
          "internalType": "uint256",
          "name": "",
          "type": "uint256"
        }
      ],
      "stateMutability": "pure",
      "type": "function"
    },
    {
      "inputs": [],
      "name": "feeCollector",
      "outputs": [
        {
          "internalType": "address",
          "name": "",
          "type": "address"
        }
      ],
      "stateMutability": "view",
      "type": "function"
    },
    {
      "inputs": [
        {
          "internalType": "address",
          "name": "_addressListFactory",
          "type": "address"
        }
      ],
      "name": "init",
      "outputs": [],
      "stateMutability": "nonpayable",
      "type": "function"
    },
    {
      "inputs": [
        {
          "internalType": "address",
          "name": "_token",
          "type": "address"
        }
      ],
      "name": "isReservedToken",
      "outputs": [
        {
          "internalType": "bool",
          "name": "",
          "type": "bool"
        }
      ],
      "stateMutability": "view",
      "type": "function"
    },
    {
      "inputs": [],
      "name": "keepers",
      "outputs": [
        {
          "internalType": "contract IAddressList",
          "name": "",
          "type": "address"
        }
      ],
      "stateMutability": "view",
      "type": "function"
    },
    {
      "inputs": [
        {
          "internalType": "address",
          "name": "_newStrategy",
          "type": "address"
        }
      ],
      "name": "migrate",
      "outputs": [],
      "stateMutability": "nonpayable",
      "type": "function"
    },
    {
      "inputs": [],
      "name": "pool",
      "outputs": [
        {
          "internalType": "address",
          "name": "",
          "type": "address"
        }
      ],
      "stateMutability": "view",
      "type": "function"
    },
    {
      "inputs": [],
      "name": "rebalance",
      "outputs": [],
      "stateMutability": "nonpayable",
      "type": "function"
    },
    {
      "inputs": [],
      "name": "receiptToken",
      "outputs": [
        {
          "internalType": "address",
          "name": "",
          "type": "address"
        }
      ],
      "stateMutability": "view",
      "type": "function"
    },
    {
      "inputs": [
        {
          "internalType": "address",
          "name": "_keeperAddress",
          "type": "address"
        }
      ],
      "name": "removeKeeper",
      "outputs": [],
      "stateMutability": "nonpayable",
      "type": "function"
    },
    {
      "inputs": [],
      "name": "rewardToken",
      "outputs": [
        {
          "internalType": "address",
          "name": "",
          "type": "address"
        }
      ],
      "stateMutability": "view",
      "type": "function"
    },
    {
      "inputs": [],
      "name": "setupOracles",
      "outputs": [],
      "stateMutability": "nonpayable",
      "type": "function"
    },
    {
      "inputs": [],
      "name": "swapManager",
      "outputs": [
        {
          "internalType": "contract ISwapManager",
          "name": "",
          "type": "address"
        }
      ],
      "stateMutability": "view",
      "type": "function"
    },
    {
      "inputs": [
        {
          "internalType": "address",
          "name": "_fromToken",
          "type": "address"
        }
      ],
      "name": "sweepERC20",
      "outputs": [],
      "stateMutability": "nonpayable",
      "type": "function"
    },
    {
      "inputs": [],
      "name": "token",
      "outputs": [
        {
          "internalType": "address",
          "name": "",
          "type": "address"
        }
      ],
      "stateMutability": "view",
      "type": "function"
    },
    {
      "inputs": [],
      "name": "totalValue",
      "outputs": [
        {
          "internalType": "uint256",
          "name": "",
          "type": "uint256"
        }
      ],
      "stateMutability": "view",
      "type": "function"
    },
    {
      "inputs": [
        {
          "internalType": "address",
          "name": "_newAddressesProvider",
          "type": "address"
        }
      ],
      "name": "updateAddressesProvider",
      "outputs": [],
      "stateMutability": "nonpayable",
      "type": "function"
    },
    {
      "inputs": [
        {
          "internalType": "address",
          "name": "_feeCollector",
          "type": "address"
        }
      ],
      "name": "updateFeeCollector",
      "outputs": [],
      "stateMutability": "nonpayable",
      "type": "function"
    },
    {
      "inputs": [
        {
          "internalType": "address",
          "name": "_swapManager",
          "type": "address"
        }
      ],
      "name": "updateSwapManager",
      "outputs": [],
      "stateMutability": "nonpayable",
      "type": "function"
    },
    {
      "inputs": [
        {
          "internalType": "uint256",
          "name": "_amount",
          "type": "uint256"
        }
      ],
      "name": "withdraw",
      "outputs": [],
      "stateMutability": "nonpayable",
      "type": "function"
    }
  ],
  "transactionHash": "0x44006bd7713a1e64b777c16c97dde3c7f4d593d164e646441118ea4ae2249889",
  "args": [
    "0xa1Bea64E941f61f84857D77708f7F9D2f23ea964",
    "0xefe48370DB8f8Ee343f4f24Ee0B09cC4A8FC3D76"
  ],
  "solcInputHash": "c913a96689eb2d738f3c473cb5b2163b",
  "bytecode": "0x610100604052600680546001600160a01b031990811673d05e3e715d945b59290df0ae8ef85c1bdb6847441790915560078054909116730d500b1d8e8ef31e21c99d1db9a6444d3adf12701790553480156200005a57600080fd5b5060405162003ad938038062003ad98339810160408190526200007d91620004fa565b81817327f8d03b3a2196956ed754badc28d73be8830a6e8282826001600160a01b038316620000f35760405162461bcd60e51b815260206004820152601460248201527f706f6f6c2d616464726573732d69732d7a65726f00000000000000000000000060448201526064015b60405180910390fd5b6001600160a01b038216620001405760405162461bcd60e51b8152602060048201526012602482015271736d2d616464726573732d69732d7a65726f60701b6044820152606401620000ea565b600280546001600160a01b0319166001600160a01b0384811691909117909155606084901b6001600160601b03191660c05260408051637e062a3560e11b815290519185169163fc0c546a91600480820192602092909190829003018186803b158015620001ad57600080fd5b505afa158015620001c2573d6000803e3d6000fd5b505050506040513d601f19601f82011682018060405250810190620001e89190620004d4565b6001600160601b0319606091821b811660805291901b1660a05250506001600160a01b0381166200025c5760405162461bcd60e51b815260206004820152601660248201527f61546f6b656e2d616464726573732d69732d7a65726f000000000000000000006044820152606401620000ea565b806001600160a01b031660e0816001600160a01b031660601b81525050806001600160a01b03166375d264136040518163ffffffff1660e01b815260040160206040518083038186803b158015620002b357600080fd5b505afa925050508015620002e6575060408051601f3d908101601f19168201909252620002e391810190620004d4565b60015b620002f15762000388565b50806001600160a01b03166375d264136040518163ffffffff1660e01b815260040160206040518083038186803b1580156200032c57600080fd5b505afa15801562000341573d6000803e3d6000fd5b505050506040513d601f19601f82011682018060405250810190620003679190620004d4565b600580546001600160a01b0319166001600160a01b03929092169190911790555b600660009054906101000a90046001600160a01b03166001600160a01b0316630261bf8b6040518163ffffffff1660e01b815260040160206040518083038186803b158015620003d757600080fd5b505afa158015620003ec573d6000803e3d6000fd5b505050506040513d601f19601f82011682018060405250810190620004129190620004d4565b600380546001600160a01b0319166001600160a01b039283161790556006546040516321f8a72160e01b8152600160f81b60048201529116906321f8a7219060240160206040518083038186803b1580156200046d57600080fd5b505afa15801562000482573d6000803e3d6000fd5b505050506040513d601f19601f82011682018060405250810190620004a89190620004d4565b600480546001600160a01b0319166001600160a01b039290921691909117905550620005519350505050565b600060208284031215620004e6578081fd5b8151620004f38162000538565b9392505050565b600080604083850312156200050d578081fd5b82516200051a8162000538565b60208401519092506200052d8162000538565b809150509250929050565b6001600160a01b03811681146200054e57600080fd5b50565b60805160601c60a05160601c60c05160601c60e05160601c6134466200069360003960008181610d9b015281816117a00152818161184d015281816119f2015281816122de01528181612471015281816125cd015261287201526000818161021e01528181610496015281816106250152818161089f01528181610b9d01528181610c1901528181610df0015281816110870152818161125901528181611322015281816115b101528181611d2701528181611d7201528181611e0f0152611f820152600081816104040152818161044c0152818161143601526114ba01526000818161036801528181611504015281816115880152818161194601528181611b7e01528181611ecc01528181611f6001528181611fb8015281816123730152818161243501528181612522015281816126930152612ad301526134466000f3fe608060405234801561001057600080fd5b50600436106101cf5760003560e01c806399b71d5c11610104578063d4c3eea0116100a2578063f7c618c111610071578063f7c618c114610426578063fb589de214610439578063fc0c546a1461044a578063ffa1ad7414610470576101cf565b8063d4c3eea0146103c3578063e00af4a7146103d9578063e9d337b8146103ec578063ec78e832146103ff576101cf565b8063b2016bd4116100de578063b2016bd414610363578063c415b95c1461038a578063ce5494bb1461039d578063d2c35ce8146103b0576101cf565b806399b71d5c14610316578063a3f4df7e1461031e578063aa1018861461035b576101cf565b8063440d7248116101715780635f9d4d2e1161014b5780635f9d4d2e146102d5578063709d039d146102e85780637d7c2a1c146102fb578063951dc22c14610303576101cf565b8063440d72481461028c5780634c36fad7146102af5780635f2475ca146102c2576101cf565b806319ab453c116101ad57806319ab453c14610240578063219a9822146102535780632e1a7d4d146102665780634032b72b14610279576101cf565b806308bfa40a146101d457806314ae9f2e1461020457806316f0115b14610219575b600080fd5b6006546101e7906001600160a01b031681565b6040516001600160a01b0390911681526020015b60405180910390f35b610217610212366004612f18565b610494565b005b6101e77f000000000000000000000000000000000000000000000000000000000000000081565b61021761024e366004612f18565b610623565b610217610261366004612f18565b61089d565b6102176102743660046130b7565b610b9a565b610217610287366004612f18565b610c17565b61029f61029a366004612f18565b610d97565b60405190151581526020016101fb565b6102176102bd366004612f18565b610dee565b6005546101e7906001600160a01b031681565b6004546101e7906001600160a01b031681565b6002546101e7906001600160a01b031681565b610217610fa1565b6000546101e7906001600160a01b031681565b6102176110f0565b61034e60405180604001604052806011815260200170416176652d53747261746567792d44414960781b81525081565b6040516101fb919061322a565b6102176111ac565b6101e77f000000000000000000000000000000000000000000000000000000000000000081565b6001546101e7906001600160a01b031681565b6102176103ab366004612f18565b611256565b6102176103be366004612f18565b6115af565b6103cb611778565b6040519081526020016101fb565b6102176103e7366004612f18565b611a87565b6003546101e7906001600160a01b031681565b6101e77f000000000000000000000000000000000000000000000000000000000000000081565b6007546101e7906001600160a01b031681565b6103cb6104473660046130b7565b90565b7f00000000000000000000000000000000000000000000000000000000000000006101e7565b61034e60405180604001604052806005815260200164332e302e3360d81b81525081565b7f00000000000000000000000000000000000000000000000000000000000000006001600160a01b0316630c340a246040518163ffffffff1660e01b815260040160206040518083038186803b1580156104ed57600080fd5b505afa158015610501573d6000803e3d6000fd5b505050506040513d601f19601f820116820180604052508101906105259190612f34565b6001600160a01b0316336001600160a01b03161461055e5760405162461bcd60e51b81526004016105559061328d565b60405180910390fd5b600054604051631484968760e11b81526001600160a01b038381166004830152909116906329092d0e90602401602060405180830381600087803b1580156105a557600080fd5b505af11580156105b9573d6000803e3d6000fd5b505050506040513d601f19601f820116820180604052508101906105dd9190613097565b6106205760405162461bcd60e51b81526020600482015260146024820152731c995b5bdd994b5ad9595c195c8b59985a5b195960621b6044820152606401610555565b50565b7f00000000000000000000000000000000000000000000000000000000000000006001600160a01b0316630c340a246040518163ffffffff1660e01b815260040160206040518083038186803b15801561067c57600080fd5b505afa158015610690573d6000803e3d6000fd5b505050506040513d601f19601f820116820180604052508101906106b49190612f34565b6001600160a01b0316336001600160a01b0316146106e45760405162461bcd60e51b81526004016105559061328d565b6000546001600160a01b03161561073d5760405162461bcd60e51b815260206004820152601b60248201527f6b65657065722d6c6973742d616c72656164792d6372656174656400000000006044820152606401610555565b6000819050806001600160a01b0316630fab4d256040518163ffffffff1660e01b8152600401602060405180830381600087803b15801561077d57600080fd5b505af1158015610791573d6000803e3d6000fd5b505050506040513d601f19601f820116820180604052508101906107b59190612f34565b600080546001600160a01b0319166001600160a01b03929092169182179055630a3b0a4f6107e03390565b6040516001600160e01b031960e084901b1681526001600160a01b039091166004820152602401602060405180830381600087803b15801561082157600080fd5b505af1158015610835573d6000803e3d6000fd5b505050506040513d601f19601f820116820180604052508101906108599190613097565b6108995760405162461bcd60e51b81526020600482015260116024820152701859190b5ad9595c195c8b59985a5b1959607a1b6044820152606401610555565b5050565b7f00000000000000000000000000000000000000000000000000000000000000006001600160a01b0316630c340a246040518163ffffffff1660e01b815260040160206040518083038186803b1580156108f657600080fd5b505afa15801561090a573d6000803e3d6000fd5b505050506040513d601f19601f8201168201806040525081019061092e9190612f34565b6001600160a01b0316336001600160a01b03161461095e5760405162461bcd60e51b81526004016105559061328d565b6001600160a01b0381166109b45760405162461bcd60e51b815260206004820152601860248201527f70726f76696465722d616464726573732d69732d7a65726f00000000000000006044820152606401610555565b6006546001600160a01b0382811691161415610a125760405162461bcd60e51b815260206004820152601760248201527f73616d652d6164647265737365732d70726f76696465720000000000000000006044820152606401610555565b600654604080516001600160a01b03928316815291831660208301527fbea7427e7cdf11a91902e5dff8bf8ac6fe4861aa0940763e8fd78bb6f45798de910160405180910390a1600680546001600160a01b0319166001600160a01b03831690811790915560408051630261bf8b60e01b81529051630261bf8b91600480820192602092909190829003018186803b158015610aad57600080fd5b505afa158015610ac1573d6000803e3d6000fd5b505050506040513d601f19601f82011682018060405250810190610ae59190612f34565b600380546001600160a01b0319166001600160a01b039283161790556006546040516321f8a72160e01b8152600160f81b60048201529116906321f8a7219060240160206040518083038186803b158015610b3f57600080fd5b505afa158015610b53573d6000803e3d6000fd5b505050506040513d601f19601f82011682018060405250810190610b779190612f34565b600480546001600160a01b0319166001600160a01b039290921691909117905550565b337f00000000000000000000000000000000000000000000000000000000000000006001600160a01b031614610c0e5760405162461bcd60e51b815260206004820152601960248201527818d85b1b195c8b5a5ccb5b9bdd0b5d995cdc195c8b5c1bdbdb603a1b6044820152606401610555565b61062081611d22565b7f00000000000000000000000000000000000000000000000000000000000000006001600160a01b0316630c340a246040518163ffffffff1660e01b815260040160206040518083038186803b158015610c7057600080fd5b505afa158015610c84573d6000803e3d6000fd5b505050506040513d601f19601f82011682018060405250810190610ca89190612f34565b6001600160a01b0316336001600160a01b031614610cd85760405162461bcd60e51b81526004016105559061328d565b600054604051630a3b0a4f60e01b81526001600160a01b03838116600483015290911690630a3b0a4f90602401602060405180830381600087803b158015610d1f57600080fd5b505af1158015610d33573d6000803e3d6000fd5b505050506040513d601f19601f82011682018060405250810190610d579190613097565b6106205760405162461bcd60e51b81526020600482015260116024820152701859190b5ad9595c195c8b59985a5b1959607a1b6044820152606401610555565b60007f00000000000000000000000000000000000000000000000000000000000000006001600160a01b0316826001600160a01b03161480610de657506007546001600160a01b038381169116145b90505b919050565b7f00000000000000000000000000000000000000000000000000000000000000006001600160a01b0316630c340a246040518163ffffffff1660e01b815260040160206040518083038186803b158015610e4757600080fd5b505afa158015610e5b573d6000803e3d6000fd5b505050506040513d601f19601f82011682018060405250810190610e7f9190612f34565b6001600160a01b0316336001600160a01b031614610eaf5760405162461bcd60e51b81526004016105559061328d565b6001600160a01b038116610efa5760405162461bcd60e51b8152602060048201526012602482015271736d2d616464726573732d69732d7a65726f60701b6044820152606401610555565b6002546001600160a01b0382811691161415610f455760405162461bcd60e51b815260206004820152600a602482015269736d2d69732d73616d6560b01b6044820152606401610555565b6002546040516001600160a01b038084169216907f2d19927e7cac08ceb98b38898a4fdff6da6a27295b9a2d62fe250408ebe044e190600090a3600280546001600160a01b0319166001600160a01b0392909216919091179055565b6000546001600160a01b0316635dbe47e8336040516001600160e01b031960e084901b1681526001600160a01b03909116600482015260240160206040518083038186803b158015610ff257600080fd5b505afa158015611006573d6000803e3d6000fd5b505050506040513d601f19601f8201168201806040525081019061102a9190613097565b6110465760405162461bcd60e51b81526004016105559061325d565b6000806000611053611d4c565b6040516302df682360e11b815260048101849052602481018390526044810182905292955090935091506001600160a01b037f000000000000000000000000000000000000000000000000000000000000000016906305bed04690606401600060405180830381600087803b1580156110cb57600080fd5b505af11580156110df573d6000803e3d6000fd5b505050506110eb611eb3565b505050565b6000546001600160a01b0316635dbe47e8336040516001600160e01b031960e084901b1681526001600160a01b03909116600482015260240160206040518083038186803b15801561114157600080fd5b505afa158015611155573d6000803e3d6000fd5b505050506040513d601f19601f820116820180604052508101906111799190613097565b6111955760405162461bcd60e51b81526004016105559061325d565b61119f6000611f53565b6111aa600019611f53565b565b6000546001600160a01b0316635dbe47e8336040516001600160e01b031960e084901b1681526001600160a01b03909116600482015260240160206040518083038186803b1580156111fd57600080fd5b505afa158015611211573d6000803e3d6000fd5b505050506040513d601f19601f820116820180604052508101906112359190613097565b6112515760405162461bcd60e51b81526004016105559061325d565b6111aa565b337f00000000000000000000000000000000000000000000000000000000000000006001600160a01b0316146112ca5760405162461bcd60e51b815260206004820152601960248201527818d85b1b195c8b5a5ccb5b9bdd0b5d995cdc195c8b5c1bdbdb603a1b6044820152606401610555565b6001600160a01b0381166113205760405162461bcd60e51b815260206004820152601c60248201527f6e65772d73747261746567792d616464726573732d69732d7a65726f000000006044820152606401610555565b7f00000000000000000000000000000000000000000000000000000000000000006001600160a01b0316816001600160a01b03166316f0115b6040518163ffffffff1660e01b815260040160206040518083038186803b15801561138357600080fd5b505afa158015611397573d6000803e3d6000fd5b505050506040513d601f19601f820116820180604052508101906113bb9190612f34565b6001600160a01b03161461140a5760405162461bcd60e51b81526020600482015260166024820152756e6f742d76616c69642d6e65772d737472617465677960501b6044820152606401610555565b61141381612114565b6040516370a0823160e01b81523060048201526114e19082906001600160a01b037f000000000000000000000000000000000000000000000000000000000000000016906370a082319060240160206040518083038186803b15801561147857600080fd5b505afa15801561148c573d6000803e3d6000fd5b505050506040513d601f19601f820116820180604052508101906114b091906130cf565b6001600160a01b037f0000000000000000000000000000000000000000000000000000000000000000169190612140565b6040516370a0823160e01b81523060048201526106209082906001600160a01b037f000000000000000000000000000000000000000000000000000000000000000016906370a082319060240160206040518083038186803b15801561154657600080fd5b505afa15801561155a573d6000803e3d6000fd5b505050506040513d601f19601f8201168201806040525081019061157e91906130cf565b6001600160a01b037f0000000000000000000000000000000000000000000000000000000000000000169190612140565b7f00000000000000000000000000000000000000000000000000000000000000006001600160a01b0316630c340a246040518163ffffffff1660e01b815260040160206040518083038186803b15801561160857600080fd5b505afa15801561161c573d6000803e3d6000fd5b505050506040513d601f19601f820116820180604052508101906116409190612f34565b6001600160a01b0316336001600160a01b0316146116705760405162461bcd60e51b81526004016105559061328d565b6001600160a01b0381166116c65760405162461bcd60e51b815260206004820152601d60248201527f6665652d636f6c6c6563746f722d616464726573732d69732d7a65726f0000006044820152606401610555565b6001546001600160a01b038281169116141561171c5760405162461bcd60e51b81526020600482015260156024820152746665652d636f6c6c6563746f722d69732d73616d6560581b6044820152606401610555565b6001546040516001600160a01b038084169216907f0f06062680f9bd68e786e9980d9bb03d73d5620fc3b345e417b6eacb310b970690600090a3600180546001600160a01b0319166001600160a01b0392909216919091179055565b6005546000906001600160a01b0316611829576040516370a0823160e01b81523060048201527f00000000000000000000000000000000000000000000000000000000000000006001600160a01b0316906370a082319060240160206040518083038186803b1580156117ea57600080fd5b505afa1580156117fe573d6000803e3d6000fd5b505050506040513d601f19601f8201168201806040525081019061182291906130cf565b9050610447565b604080516001808252818301909252600091602080830190803683370190505090507f00000000000000000000000000000000000000000000000000000000000000008160008151811061188d57634e487b7160e01b600052603260045260246000fd5b6001600160a01b0392831660209182029290920101526005546040516345accf9360e11b81526000929190911690638b599f26906118d190859030906004016131cd565b60206040518083038186803b1580156118e957600080fd5b505afa1580156118fd573d6000803e3d6000fd5b505050506040513d601f19601f8201168201806040525081019061192191906130cf565b600254600754604051631d1f307960e31b81526001600160a01b0391821660048201527f0000000000000000000000000000000000000000000000000000000000000000821660248201526044810184905292935060009291169063e8f983c89060640160006040518083038186803b15801561199d57600080fd5b505afa1580156119b1573d6000803e3d6000fd5b505050506040513d6000823e601f3d908101601f191682016040526119d99190810190612f50565b506040516370a0823160e01b81523060048201529092507f00000000000000000000000000000000000000000000000000000000000000006001600160a01b031691506370a082319060240160206040518083038186803b158015611a3d57600080fd5b505afa158015611a51573d6000803e3d6000fd5b505050506040513d601f19601f82011682018060405250810190611a7591906130cf565b611a7f9082613355565b935050505090565b6000546001600160a01b0316635dbe47e8336040516001600160e01b031960e084901b1681526001600160a01b03909116600482015260240160206040518083038186803b158015611ad857600080fd5b505afa158015611aec573d6000803e3d6000fd5b505050506040513d601f19601f82011682018060405250810190611b109190613097565b611b2c5760405162461bcd60e51b81526004016105559061325d565b6001546001600160a01b0316611b7c5760405162461bcd60e51b81526020600482015260156024820152741999594b58dbdb1b1958dd1bdc8b5b9bdd0b5cd95d605a1b6044820152606401610555565b7f00000000000000000000000000000000000000000000000000000000000000006001600160a01b0316816001600160a01b03161415611bfe5760405162461bcd60e51b815260206004820152601f60248201527f6e6f742d616c6c6f7765642d746f2d73776565702d636f6c6c61746572616c006044820152606401610555565b611c0781610d97565b15611c4b5760405162461bcd60e51b815260206004820152601460248201527306e6f742d616c6c6f7765642d746f2d73776565760641b6044820152606401610555565b6001600160a01b03811673eeeeeeeeeeeeeeeeeeeeeeeeeeeeeeeeeeeeeeee1415611c8b57600154611c86906001600160a01b0316476121a3565b610620565b6040516370a0823160e01b81523060048201526000906001600160a01b038316906370a082319060240160206040518083038186803b158015611ccd57600080fd5b505afa158015611ce1573d6000803e3d6000fd5b505050506040513d601f19601f82011682018060405250810190611d0591906130cf565b600154909150610899906001600160a01b03848116911683612140565b6108997f0000000000000000000000000000000000000000000000000000000000000000826122bc565b604051636a9eee1360e11b81523060048201526000908190819081906001600160a01b037f0000000000000000000000000000000000000000000000000000000000000000169063d53ddc269060240160206040518083038186803b158015611db457600080fd5b505afa158015611dc8573d6000803e3d6000fd5b505050506040513d601f19601f82011682018060405250810190611dec91906130cf565b604051639f2b283360e01b81523060048201529091506000906001600160a01b037f00000000000000000000000000000000000000000000000000000000000000001690639f2b28339060240160206040518083038186803b158015611e5157600080fd5b505afa158015611e65573d6000803e3d6000fd5b505050506040513d601f19601f82011682018060405250810190611e8991906130cf565b9050611e948161242e565b9450611e9f816125ab565b9350611eaa82612661565b92505050909192565b6040516370a0823160e01b81523060048201526111aa907f00000000000000000000000000000000000000000000000000000000000000006001600160a01b0316906370a082319060240160206040518083038186803b158015611f1657600080fd5b505afa158015611f2a573d6000803e3d6000fd5b505050506040513d601f19601f82011682018060405250810190611f4e91906130cf565b612673565b611fa76001600160a01b037f0000000000000000000000000000000000000000000000000000000000000000167f00000000000000000000000000000000000000000000000000000000000000008361270f565b600354611fe1906001600160a01b037f0000000000000000000000000000000000000000000000000000000000000000811691168361270f565b60005b600260009054906101000a90046001600160a01b03166001600160a01b031663c2fba6676040518163ffffffff1660e01b815260040160206040518083038186803b15801561203257600080fd5b505afa158015612046573d6000803e3d6000fd5b505050506040513d601f19601f8201168201806040525081019061206a91906130cf565b81101561089957600254604051636e74a6f760e01b815260048101839052612102916001600160a01b031690636e74a6f79060240160206040518083038186803b1580156120b757600080fd5b505afa1580156120cb573d6000803e3d6000fd5b505050506040513d601f19601f820116820180604052508101906120ef9190612f34565b6007546001600160a01b0316908461270f565b8061210c816133b4565b915050611fe4565b600061211e612833565b9050612128612833565b1561089957600754610899906001600160a01b031683835b6040516001600160a01b0383166024820152604481018290526110eb90849063a9059cbb60e01b906064015b60408051601f198184030181529190526020810180516001600160e01b03166001600160e01b0319909316929092179091526129c9565b804710156121f35760405162461bcd60e51b815260206004820152601d60248201527f416464726573733a20696e73756666696369656e742062616c616e63650000006044820152606401610555565b6000826001600160a01b03168260405160006040518083038185875af1925050503d8060008114612240576040519150601f19603f3d011682016040523d82523d6000602084013e612245565b606091505b50509050806110eb5760405162461bcd60e51b815260206004820152603a60248201527f416464726573733a20756e61626c6520746f2073656e642076616c75652c207260448201527f6563697069656e74206d617920686176652072657665727465640000000000006064820152608401610555565b6040516370a0823160e01b815230600482015260009081906001600160a01b037f000000000000000000000000000000000000000000000000000000000000000016906370a082319060240160206040518083038186803b15801561232057600080fd5b505afa158015612334573d6000803e3d6000fd5b505050506040513d601f19601f8201168201806040525081019061235891906130cf565b600480546040516335ea6a7560e01b81526001600160a01b037f00000000000000000000000000000000000000000000000000000000000000008116938201939093529293506000929116906335ea6a75906024016101406040518083038186803b1580156123c657600080fd5b505afa1580156123da573d6000803e3d6000fd5b505050506040513d601f19601f820116820180604052508101906123fe91906130e7565b5050505050505050509050612425856124208661241b8686612a9b565b612a9b565b612ab1565b95945050505050565b60006124597f0000000000000000000000000000000000000000000000000000000000000000612bb4565b6040516370a0823160e01b81523060048201526000907f00000000000000000000000000000000000000000000000000000000000000006001600160a01b0316906370a082319060240160206040518083038186803b1580156124bb57600080fd5b505afa1580156124cf573d6000803e3d6000fd5b505050506040513d601f19601f820116820180604052508101906124f391906130cf565b90508281111561250d5761250b30612420858461336d565b505b6040516370a0823160e01b81523060048201527f00000000000000000000000000000000000000000000000000000000000000006001600160a01b0316906370a082319060240160206040518083038186803b15801561256c57600080fd5b505afa158015612580573d6000803e3d6000fd5b505050506040513d601f19601f820116820180604052508101906125a491906130cf565b9392505050565b6040516370a0823160e01b815230600482015260009081906001600160a01b037f000000000000000000000000000000000000000000000000000000000000000016906370a082319060240160206040518083038186803b15801561260f57600080fd5b505afa158015612623573d6000803e3d6000fd5b505050506040513d601f19601f8201168201806040525081019061264791906130cf565b90508281101561265b576125a4818461336d565b50919050565b60008115610de957610de630836122bc565b80156106205760035460405163e8eda9df60e01b81526001600160a01b037f00000000000000000000000000000000000000000000000000000000000000008116600483015260248201849052306044830152600060648301529091169063e8eda9df90608401600060405180830381600087803b1580156126f457600080fd5b505af1158015612708573d6000803e3d6000fd5b5050505050565b8015806127985750604051636eb1769f60e11b81523060048201526001600160a01b03838116602483015284169063dd62ed3e9060440160206040518083038186803b15801561275e57600080fd5b505afa158015612772573d6000803e3d6000fd5b505050506040513d601f19601f8201168201806040525081019061279691906130cf565b155b6128035760405162461bcd60e51b815260206004820152603660248201527f5361666545524332303a20617070726f76652066726f6d206e6f6e2d7a65726f60448201527520746f206e6f6e2d7a65726f20616c6c6f77616e636560501b6064820152608401610555565b6040516001600160a01b0383166024820152604481018290526110eb90849063095ea7b360e01b9060640161216c565b6005546000906001600160a01b031661284e57506000610447565b604080516001808252818301909252600091602080830190803683370190505090507f0000000000000000000000000000000000000000000000000000000000000000816000815181106128b257634e487b7160e01b600052603260045260246000fd5b6001600160a01b039283166020918202929092010152600554604051633111e7b360e01b8152911690633111e7b3906128f59084906000199030906004016131f7565b602060405180830381600087803b15801561290f57600080fd5b505af1158015612923573d6000803e3d6000fd5b505050506040513d601f19601f8201168201806040525081019061294791906130cf565b506007546040516370a0823160e01b81523060048201526001600160a01b03909116906370a082319060240160206040518083038186803b15801561298b57600080fd5b505afa15801561299f573d6000803e3d6000fd5b505050506040513d601f19601f820116820180604052508101906129c391906130cf565b91505090565b6000612a1e826040518060400160405280602081526020017f5361666545524332303a206c6f772d6c6576656c2063616c6c206661696c6564815250856001600160a01b0316612bdf9092919063ffffffff16565b8051909150156110eb5780806020019051810190612a3c9190613097565b6110eb5760405162461bcd60e51b815260206004820152602a60248201527f5361666545524332303a204552433230206f7065726174696f6e20646964206e6044820152691bdd081cdd58d8d9595960b21b6064820152608401610555565b6000818310612aaa57816125a4565b5090919050565b6000811561265b57600354604051631a4ca37b60e21b81526001600160a01b037f000000000000000000000000000000000000000000000000000000000000000081166004830152602482018590528581166044830152849216906369328dec90606401602060405180830381600087803b158015612b2f57600080fd5b505af1158015612b43573d6000803e3d6000fd5b505050506040513d601f19601f82011682018060405250810190612b6791906130cf565b1461265b5760405162461bcd60e51b815260206004820152601f60248201527f77697468647261776e2d616d6f756e742d69732d6e6f742d636f7272656374006044820152606401610555565b6000612bbe612833565b9050801561089957600754610899906001600160a01b031683836001612bf6565b6060612bee8484600085612db7565b949350505050565b600254604051631d1f307960e31b81526001600160a01b038681166004830152858116602483015260448201859052600092839283929091169063e8f983c89060640160006040518083038186803b158015612c5157600080fd5b505afa158015612c65573d6000803e3d6000fd5b505050506040513d6000823e601f3d908101601f19168201604052612c8d9190810190612f50565b9250925092508360001415612ca157600193505b8115612dae57600254604051636e74a6f760e01b8152600481018390526001600160a01b0390911690636e74a6f79060240160206040518083038186803b158015612ceb57600080fd5b505afa158015612cff573d6000803e3d6000fd5b505050506040513d601f19601f82011682018060405250810190612d239190612f34565b6001600160a01b03166338ed173986868630426040518663ffffffff1660e01b8152600401612d569594939291906132c4565b600060405180830381600087803b158015612d7057600080fd5b505af1158015612d84573d6000803e3d6000fd5b505050506040513d6000823e601f3d908101601f19168201604052612dac9190810190613004565b505b50505050505050565b606082471015612e185760405162461bcd60e51b815260206004820152602660248201527f416464726573733a20696e73756666696369656e742062616c616e636520666f6044820152651c8818d85b1b60d21b6064820152608401610555565b843b612e665760405162461bcd60e51b815260206004820152601d60248201527f416464726573733a2063616c6c20746f206e6f6e2d636f6e74726163740000006044820152606401610555565b600080866001600160a01b03168587604051612e8291906131b1565b60006040518083038185875af1925050503d8060008114612ebf576040519150601f19603f3d011682016040523d82523d6000602084013e612ec4565b606091505b5091509150612ed4828286612edf565b979650505050505050565b60608315612eee5750816125a4565b825115612efe5782518084602001fd5b8160405162461bcd60e51b8152600401610555919061322a565b600060208284031215612f29578081fd5b81356125a4816133fb565b600060208284031215612f45578081fd5b81516125a4816133fb565b600080600060608486031215612f64578182fd5b835167ffffffffffffffff811115612f7a578283fd5b8401601f81018613612f8a578283fd5b80516020612f9f612f9a83613331565b613300565b8083825282820191508285018a848660051b8801011115612fbe578788fd5b8795505b84861015612fe9578051612fd5816133fb565b835260019590950194918301918301612fc2565b50918801516040909801519199979850909695505050505050565b60006020808385031215613016578182fd5b825167ffffffffffffffff81111561302c578283fd5b8301601f8101851361303c578283fd5b805161304a612f9a82613331565b80828252848201915084840188868560051b8701011115613069578687fd5b8694505b8385101561308b57805183526001949094019391850191850161306d565b50979650505050505050565b6000602082840312156130a8578081fd5b815180151581146125a4578182fd5b6000602082840312156130c8578081fd5b5035919050565b6000602082840312156130e0578081fd5b5051919050565b6000806000806000806000806000806101408b8d031215613106578586fd5b8a51995060208b0151985060408b0151975060608b0151965060808b0151955060a08b0151945060c08b0151935060e08b015192506101008b015191506101208b015164ffffffffff8116811461315b578182fd5b809150509295989b9194979a5092959850565b6000815180845260208085019450808401835b838110156131a65781516001600160a01b031687529582019590820190600101613181565b509495945050505050565b600082516131c3818460208701613384565b9190910192915050565b6000604082526131e0604083018561316e565b905060018060a01b03831660208301529392505050565b60006060825261320a606083018661316e565b6020830194909452506001600160a01b0391909116604090910152919050565b6000602082528251806020840152613249816040850160208701613384565b601f01601f19169190910160400192915050565b60208082526016908201527531b0b63632b916b4b996b737ba16b096b5b2b2b832b960511b604082015260600190565b6020808252601a908201527f63616c6c65722d69732d6e6f742d7468652d676f7665726e6f72000000000000604082015260600190565b600086825285602083015260a060408301526132e360a083018661316e565b6001600160a01b0394909416606083015250608001529392505050565b604051601f8201601f1916810167ffffffffffffffff81118282101715613329576133296133e5565b604052919050565b600067ffffffffffffffff82111561334b5761334b6133e5565b5060051b60200190565b60008219821115613368576133686133cf565b500190565b60008282101561337f5761337f6133cf565b500390565b60005b8381101561339f578181015183820152602001613387565b838111156133ae576000848401525b50505050565b60006000198214156133c8576133c86133cf565b5060010190565b634e487b7160e01b600052601160045260246000fd5b634e487b7160e01b600052604160045260246000fd5b6001600160a01b038116811461062057600080fdfea2646970667358221220bd144859e48eee27dbf85f180831a6a95c18376b9b0592058c25d939aa9c655b64736f6c63430008030033",
  "devdoc": {
    "kind": "dev",
    "methods": {
      "addKeeper(address)": {
        "params": {
          "_keeperAddress": "keeper address to add."
        }
      },
      "approveToken()": {
        "details": "Approve all required tokens"
      },
      "convertFrom18(uint256)": {
        "details": "Convert from 18 decimals to token defined decimals. Default no conversion."
      },
      "init(address)": {
        "params": {
          "_addressListFactory": "To support same code in eth side chain, user _addressListFactory as param ethereum- 0xded8217De022706A191eE7Ee0Dc9df1185Fb5dA3 polygon-0xD10D5696A350D65A9AA15FE8B258caB4ab1bF291"
        }
      },
      "migrate(address)": {
        "details": "_beforeMigration hook can be implemented in child strategy to do extra steps.",
        "params": {
          "_newStrategy": "Address of new strategy"
        }
      },
      "rebalance()": {
        "details": "Rebalance profit, loss and investment of this strategy"
      },
      "removeKeeper(address)": {
        "params": {
          "_keeperAddress": "keeper address to remove."
        }
      },
      "sweepERC20(address)": {
        "details": "sweep given token to feeCollector of strategy",
        "params": {
          "_fromToken": "token address to sweep"
        }
      },
      "totalValue()": {
        "details": "aToken and collateral are 1:1"
      },
      "updateAddressesProvider(address)": {
        "details": "We will use new address to fetch lendingPool address and update that too."
      },
      "updateFeeCollector(address)": {
        "params": {
          "_feeCollector": "fee collector address"
        }
      },
      "updateSwapManager(address)": {
        "params": {
          "_swapManager": "swap manager address"
        }
      },
      "withdraw(uint256)": {
        "details": "Withdraw collateral token from lending pool.",
        "params": {
          "_amount": "Amount of collateral token"
        }
      }
    },
    "version": 1
  },
  "userdoc": {
    "kind": "user",
    "methods": {
      "addKeeper(address)": {
        "notice": "Add given address in keepers list."
      },
      "init(address)": {
        "notice": "Create keeper list NOTE: Any function with onlyKeeper modifier will not work until this function is called. NOTE: Due to gas constraint this function cannot be called in constructor."
      },
      "isReservedToken(address)": {
        "notice": "Check whether given token is reserved or not. Reserved tokens are not allowed to sweep."
      },
      "migrate(address)": {
        "notice": "Migrate all asset and vault ownership,if any, to new strategy"
      },
      "removeKeeper(address)": {
        "notice": "Remove given address from keepers list."
      },
      "token()": {
        "notice": "Returns address of token correspond to collateral token"
      },
      "totalValue()": {
        "notice": "Report total value"
      },
      "updateAddressesProvider(address)": {
        "notice": "Update address of Aave LendingPoolAddressesProvider"
      },
      "updateFeeCollector(address)": {
        "notice": "Update fee collector"
      },
      "updateSwapManager(address)": {
        "notice": "Update swap manager address"
      }
    },
    "version": 1
  },
  "storageLayout": {
    "storage": [
      {
        "astId": 9577,
        "contract": "contracts/strategies/aave/AaveStrategyPolygonDAI.sol:AaveStrategyPolygonDAI",
        "label": "keepers",
        "offset": 0,
        "slot": "0",
        "type": "t_contract(IAddressList)3647"
      },
      {
        "astId": 9580,
        "contract": "contracts/strategies/aave/AaveStrategyPolygonDAI.sol:AaveStrategyPolygonDAI",
        "label": "feeCollector",
        "offset": 0,
        "slot": "1",
        "type": "t_address"
      },
      {
        "astId": 9583,
        "contract": "contracts/strategies/aave/AaveStrategyPolygonDAI.sol:AaveStrategyPolygonDAI",
        "label": "swapManager",
        "offset": 0,
        "slot": "2",
        "type": "t_contract(ISwapManager)3950"
      },
      {
        "astId": 11299,
        "contract": "contracts/strategies/aave/AaveStrategyPolygonDAI.sol:AaveStrategyPolygonDAI",
        "label": "aaveLendingPool",
        "offset": 0,
        "slot": "3",
        "type": "t_contract(AaveLendingPool)3406"
      },
      {
        "astId": 11302,
        "contract": "contracts/strategies/aave/AaveStrategyPolygonDAI.sol:AaveStrategyPolygonDAI",
        "label": "aaveProtocolDataProvider",
        "offset": 0,
        "slot": "4",
        "type": "t_contract(AaveProtocolDataProvider)3443"
      },
      {
        "astId": 11305,
        "contract": "contracts/strategies/aave/AaveStrategyPolygonDAI.sol:AaveStrategyPolygonDAI",
        "label": "aaveIncentivesController",
        "offset": 0,
        "slot": "5",
        "type": "t_contract(AaveIncentivesController)3383"
      },
      {
        "astId": 11311,
        "contract": "contracts/strategies/aave/AaveStrategyPolygonDAI.sol:AaveStrategyPolygonDAI",
        "label": "aaveAddressesProvider",
        "offset": 0,
        "slot": "6",
        "type": "t_contract(AaveLendingPoolAddressesProvider)3351"
      },
      {
        "astId": 11314,
        "contract": "contracts/strategies/aave/AaveStrategyPolygonDAI.sol:AaveStrategyPolygonDAI",
        "label": "rewardToken",
        "offset": 0,
        "slot": "7",
        "type": "t_address"
      }
    ],
    "types": {
      "t_address": {
        "encoding": "inplace",
        "label": "address",
        "numberOfBytes": "20"
      },
      "t_contract(AaveIncentivesController)3383": {
        "encoding": "inplace",
        "label": "contract AaveIncentivesController",
        "numberOfBytes": "20"
      },
      "t_contract(AaveLendingPool)3406": {
        "encoding": "inplace",
        "label": "contract AaveLendingPool",
        "numberOfBytes": "20"
      },
      "t_contract(AaveLendingPoolAddressesProvider)3351": {
        "encoding": "inplace",
        "label": "contract AaveLendingPoolAddressesProvider",
        "numberOfBytes": "20"
      },
      "t_contract(AaveProtocolDataProvider)3443": {
        "encoding": "inplace",
        "label": "contract AaveProtocolDataProvider",
        "numberOfBytes": "20"
      },
      "t_contract(IAddressList)3647": {
        "encoding": "inplace",
        "label": "contract IAddressList",
        "numberOfBytes": "20"
      },
      "t_contract(ISwapManager)3950": {
        "encoding": "inplace",
        "label": "contract ISwapManager",
        "numberOfBytes": "20"
      }
    }
  }
}