{
  "address": "0x4fACB0a93659868b4E236d50C86c9C761Dc5820C",
  "abi": [
    {
      "anonymous": false,
      "inputs": [
        {
          "indexed": true,
          "internalType": "address",
          "name": "strategy",
          "type": "address"
        },
        {
          "indexed": false,
          "internalType": "uint256",
          "name": "profit",
          "type": "uint256"
        },
        {
          "indexed": false,
          "internalType": "uint256",
          "name": "loss",
          "type": "uint256"
        },
        {
          "indexed": false,
          "internalType": "uint256",
          "name": "payback",
          "type": "uint256"
        },
        {
          "indexed": false,
          "internalType": "uint256",
          "name": "strategyDebt",
          "type": "uint256"
        },
        {
          "indexed": false,
          "internalType": "uint256",
          "name": "poolDebt",
          "type": "uint256"
        },
        {
          "indexed": false,
          "internalType": "uint256",
          "name": "creditLine",
          "type": "uint256"
        }
      ],
      "name": "EarningReported",
      "type": "event"
    },
    {
      "anonymous": false,
      "inputs": [
        {
          "indexed": true,
          "internalType": "address",
          "name": "strategy",
          "type": "address"
        },
        {
          "indexed": false,
          "internalType": "uint256",
          "name": "interestFee",
          "type": "uint256"
        },
        {
          "indexed": false,
          "internalType": "uint256",
          "name": "debtRatio",
          "type": "uint256"
        },
        {
          "indexed": false,
          "internalType": "uint256",
          "name": "debtRate",
          "type": "uint256"
        }
      ],
      "name": "StrategyAdded",
      "type": "event"
    },
    {
      "anonymous": false,
      "inputs": [
        {
          "indexed": true,
          "internalType": "address",
          "name": "oldStrategy",
          "type": "address"
        },
        {
          "indexed": true,
          "internalType": "address",
          "name": "newStrategy",
          "type": "address"
        },
        {
          "indexed": false,
          "internalType": "uint256",
          "name": "interestFee",
          "type": "uint256"
        },
        {
          "indexed": false,
          "internalType": "uint256",
          "name": "debtRatio",
          "type": "uint256"
        },
        {
          "indexed": false,
          "internalType": "uint256",
          "name": "debtRate",
          "type": "uint256"
        }
      ],
      "name": "StrategyMigrated",
      "type": "event"
    },
    {
      "anonymous": false,
      "inputs": [
        {
          "indexed": true,
          "internalType": "address",
          "name": "strategy",
          "type": "address"
        },
        {
          "indexed": false,
          "internalType": "uint256",
          "name": "interestFee",
          "type": "uint256"
        }
      ],
      "name": "UpdatedInterestFee",
      "type": "event"
    },
    {
      "anonymous": false,
      "inputs": [
        {
          "indexed": true,
          "internalType": "address",
          "name": "strategy",
          "type": "address"
        },
        {
          "indexed": false,
          "internalType": "uint256",
          "name": "debtRatio",
          "type": "uint256"
        },
        {
          "indexed": false,
          "internalType": "uint256",
          "name": "debtRate",
          "type": "uint256"
        }
      ],
      "name": "UpdatedStrategyDebtParams",
      "type": "event"
    },
    {
      "inputs": [],
      "name": "MAX_BPS",
      "outputs": [
        {
          "internalType": "uint256",
          "name": "",
          "type": "uint256"
        }
      ],
      "stateMutability": "view",
      "type": "function"
    },
    {
      "inputs": [],
      "name": "VERSION",
      "outputs": [
        {
          "internalType": "string",
          "name": "",
          "type": "string"
        }
      ],
      "stateMutability": "view",
      "type": "function"
    },
    {
      "inputs": [
        {
          "internalType": "address",
          "name": "_strategy",
          "type": "address"
        },
        {
          "internalType": "uint256",
          "name": "_interestFee",
          "type": "uint256"
        },
        {
          "internalType": "uint256",
          "name": "_debtRatio",
          "type": "uint256"
        },
        {
          "internalType": "uint256",
          "name": "_debtRate",
          "type": "uint256"
        }
      ],
      "name": "addStrategy",
      "outputs": [],
      "stateMutability": "nonpayable",
      "type": "function"
    },
    {
      "inputs": [
        {
          "internalType": "address",
          "name": "_strategy",
          "type": "address"
        }
      ],
      "name": "availableCreditLimit",
      "outputs": [
        {
          "internalType": "uint256",
          "name": "",
          "type": "uint256"
        }
      ],
      "stateMutability": "view",
      "type": "function"
    },
    {
      "inputs": [
        {
          "internalType": "address",
          "name": "_strategy",
          "type": "address"
        },
        {
          "internalType": "uint256",
          "name": "_decreaseBy",
          "type": "uint256"
        }
      ],
      "name": "decreaseDebt",
      "outputs": [],
      "stateMutability": "nonpayable",
      "type": "function"
    },
    {
      "inputs": [
        {
          "internalType": "address",
          "name": "_strategy",
          "type": "address"
        }
      ],
      "name": "excessDebt",
      "outputs": [
        {
          "internalType": "uint256",
          "name": "",
          "type": "uint256"
        }
      ],
      "stateMutability": "view",
      "type": "function"
    },
    {
      "inputs": [],
      "name": "getStrategies",
      "outputs": [
        {
          "internalType": "address[]",
          "name": "",
          "type": "address[]"
        }
      ],
      "stateMutability": "view",
      "type": "function"
    },
    {
      "inputs": [],
      "name": "getWithdrawQueue",
      "outputs": [
        {
          "internalType": "address[]",
          "name": "",
          "type": "address[]"
        }
      ],
      "stateMutability": "view",
      "type": "function"
    },
    {
      "inputs": [
        {
          "internalType": "address",
          "name": "_pool",
          "type": "address"
        }
      ],
      "name": "init",
      "outputs": [],
      "stateMutability": "nonpayable",
      "type": "function"
    },
    {
      "inputs": [
        {
          "internalType": "address",
          "name": "_old",
          "type": "address"
        },
        {
          "internalType": "address",
          "name": "_new",
          "type": "address"
        }
      ],
      "name": "migrateStrategy",
      "outputs": [],
      "stateMutability": "nonpayable",
      "type": "function"
    },
    {
      "inputs": [],
      "name": "pool",
      "outputs": [
        {
          "internalType": "address",
          "name": "",
          "type": "address"
        }
      ],
      "stateMutability": "view",
      "type": "function"
    },
    {
      "inputs": [
        {
          "internalType": "uint256",
          "name": "_index",
          "type": "uint256"
        }
      ],
      "name": "removeStrategy",
      "outputs": [],
      "stateMutability": "nonpayable",
      "type": "function"
    },
    {
      "inputs": [
        {
          "internalType": "address",
          "name": "_strategy",
          "type": "address"
        },
        {
          "internalType": "uint256",
          "name": "_profit",
          "type": "uint256"
        },
        {
          "internalType": "uint256",
          "name": "_loss",
          "type": "uint256"
        },
        {
          "internalType": "uint256",
          "name": "_payback",
          "type": "uint256"
        }
      ],
      "name": "reportEarning",
      "outputs": [
        {
          "internalType": "uint256",
          "name": "_actualPayback",
          "type": "uint256"
        },
        {
          "internalType": "uint256",
          "name": "_creditLine",
          "type": "uint256"
        },
        {
          "internalType": "uint256",
          "name": "_fee",
          "type": "uint256"
        }
      ],
      "stateMutability": "nonpayable",
      "type": "function"
    },
    {
      "inputs": [
        {
          "internalType": "address",
          "name": "_strategy",
          "type": "address"
        },
        {
          "internalType": "uint256",
          "name": "_loss",
          "type": "uint256"
        }
      ],
      "name": "reportLoss",
      "outputs": [],
      "stateMutability": "nonpayable",
      "type": "function"
    },
    {
      "inputs": [
        {
          "internalType": "uint256",
          "name": "",
          "type": "uint256"
        }
      ],
      "name": "strategies",
      "outputs": [
        {
          "internalType": "address",
          "name": "",
          "type": "address"
        }
      ],
      "stateMutability": "view",
      "type": "function"
    },
    {
      "inputs": [
        {
          "internalType": "address",
          "name": "",
          "type": "address"
        }
      ],
      "name": "strategy",
      "outputs": [
        {
          "internalType": "bool",
          "name": "active",
          "type": "bool"
        },
        {
          "internalType": "uint256",
          "name": "interestFee",
          "type": "uint256"
        },
        {
          "internalType": "uint256",
          "name": "debtRate",
          "type": "uint256"
        },
        {
          "internalType": "uint256",
          "name": "lastRebalance",
          "type": "uint256"
        },
        {
          "internalType": "uint256",
          "name": "totalDebt",
          "type": "uint256"
        },
        {
          "internalType": "uint256",
          "name": "totalLoss",
          "type": "uint256"
        },
        {
          "internalType": "uint256",
          "name": "totalProfit",
          "type": "uint256"
        },
        {
          "internalType": "uint256",
          "name": "debtRatio",
          "type": "uint256"
        }
      ],
      "stateMutability": "view",
      "type": "function"
    },
    {
      "inputs": [
        {
          "internalType": "address",
          "name": "_fromToken",
          "type": "address"
        }
      ],
      "name": "sweepERC20",
      "outputs": [],
      "stateMutability": "nonpayable",
      "type": "function"
    },
    {
      "inputs": [],
      "name": "totalDebt",
      "outputs": [
        {
          "internalType": "uint256",
          "name": "",
          "type": "uint256"
        }
      ],
      "stateMutability": "view",
      "type": "function"
    },
    {
      "inputs": [
        {
          "internalType": "address",
          "name": "_strategy",
          "type": "address"
        }
      ],
      "name": "totalDebtOf",
      "outputs": [
        {
          "internalType": "uint256",
          "name": "",
          "type": "uint256"
        }
      ],
      "stateMutability": "view",
      "type": "function"
    },
    {
      "inputs": [],
      "name": "totalDebtRatio",
      "outputs": [
        {
          "internalType": "uint256",
          "name": "",
          "type": "uint256"
        }
      ],
      "stateMutability": "view",
      "type": "function"
    },
    {
      "inputs": [
        {
          "internalType": "address",
          "name": "_strategy",
          "type": "address"
        },
        {
          "internalType": "uint256",
          "name": "_debtRate",
          "type": "uint256"
        }
      ],
      "name": "updateDebtRate",
      "outputs": [],
      "stateMutability": "nonpayable",
      "type": "function"
    },
    {
      "inputs": [
        {
          "internalType": "address",
          "name": "_strategy",
          "type": "address"
        },
        {
          "internalType": "uint256",
          "name": "_debtRatio",
          "type": "uint256"
        }
      ],
      "name": "updateDebtRatio",
      "outputs": [],
      "stateMutability": "nonpayable",
      "type": "function"
    },
    {
      "inputs": [
        {
          "internalType": "address",
          "name": "_strategy",
          "type": "address"
        },
        {
          "internalType": "uint256",
          "name": "_interestFee",
          "type": "uint256"
        }
      ],
      "name": "updateInterestFee",
      "outputs": [],
      "stateMutability": "nonpayable",
      "type": "function"
    },
    {
      "inputs": [
        {
          "internalType": "address[]",
          "name": "_withdrawQueue",
          "type": "address[]"
        }
      ],
      "name": "updateWithdrawQueue",
      "outputs": [],
      "stateMutability": "nonpayable",
      "type": "function"
    },
    {
      "inputs": [
        {
          "internalType": "uint256",
          "name": "",
          "type": "uint256"
        }
      ],
      "name": "withdrawQueue",
      "outputs": [
        {
          "internalType": "address",
          "name": "",
          "type": "address"
        }
      ],
      "stateMutability": "view",
      "type": "function"
    }
  ],
  "transactionHash": "0xca97de4e8d546498b066ed4f0f0af3ee7efb936f8d9d6252fae6398a26b2fefb",
  "args": [],
  "solcInputHash": "c913a96689eb2d738f3c473cb5b2163b",
  "bytecode": "0x608060405234801561001057600080fd5b50612f1c806100206000396000f3fe608060405234801561001057600080fd5b50600436106101735760003560e01c80638f88d18c116100de578063d20ed3ef11610097578063e00af4a711610071578063e00af4a7146103c6578063fc7b9c18146103d9578063fd967f47146103e2578063ffa1ad74146103eb57610173565b8063d20ed3ef1461038d578063d53ddc26146103a0578063d574ea3d146103b357610173565b80638f88d18c1461030b5780639f2b28331461031e578063a066654b14610331578063b49a60bb1461035f578063b64321ec14610367578063c0cbbca61461037a57610173565b80632fb9ba31116101305780632fb9ba311461029957806362518ddf146102ac5780636cb56d19146102bf5780637b62f070146102d25780637f13086e146102e5578063854f4d80146102f857610173565b80630dd21b6c14610178578063111830521461018d57806316f0115b146101ab57806319ab453c146101dc578063228bfd9f146101ef5780632df9eab914610282575b600080fd5b61018b610186366004612bb1565b61041c565b005b6101956107b5565b6040516101a29190612d1e565b60405180910390f35b6000546101c4906201000090046001600160a01b031681565b6040516001600160a01b0390911681526020016101a2565b61018b6101ea366004612b16565b610817565b6102456101fd366004612b16565b60056020819052600091825260409091208054600182015460028301546003840154600485015495850154600686015460079096015460ff9095169693959294919392909188565b6040805198151589526020890197909752958701949094526060860192909252608085015260a084015260c083015260e0820152610100016101a2565b61028b60015481565b6040519081526020016101a2565b61018b6102a7366004612b86565b61092e565b6101c46102ba366004612cd2565b6109d7565b61018b6102cd366004612b4e565b610a01565b61018b6102e0366004612b86565b610ed9565b61018b6102f3366004612b86565b611071565b61018b610306366004612beb565b611103565b61018b610319366004612b86565b611368565b61028b61032c366004612b16565b6115d8565b61034461033f366004612bb1565b6115fa565b604080519384526020840192909252908201526060016101a2565b61019561198e565b61028b610375366004612b16565b6119ee565b61018b610388366004612cd2565b6119ff565b61018b61039b366004612b86565b611e34565b61028b6103ae366004612b16565b61202c565b6101c46103c1366004612cd2565b612037565b61018b6103d4366004612b16565b612047565b61028b60025481565b61028b61271081565b61040f60405180604001604052806005815260200164332e302e3560d81b81525081565b6040516101a29190612d6b565b6000546040805163030d028960e21b8152905133926201000090046001600160a01b031691630c340a24916004808301926020929190829003018186803b15801561046657600080fd5b505afa15801561047a573d6000803e3d6000fd5b505050506040513d601f19601f8201168201806040525081019061049e9190612b32565b6001600160a01b0316146104cd5760405162461bcd60e51b81526004016104c490612dc2565b60405180910390fd5b604080518082019091526002815261031360f41b60208201526001600160a01b03851661050d5760405162461bcd60e51b81526004016104c49190612d6b565b506001600160a01b0384166000908152600560209081526040918290205482518084019093526002835261313560f01b9183019190915260ff16156105655760405162461bcd60e51b81526004016104c49190612d6b565b50816001546105749190612dec565b6001819055604080518082019091526002815261062760f31b60208201529061271010156105b55760405162461bcd60e51b81526004016104c49190612d6b565b50604080518082019091526002815261313160f01b60208201526127108411156105f25760405162461bcd60e51b81526004016104c49190612d6b565b5060006040518061010001604052806001151581526020018581526020018381526020014381526020016000815260200160008152602001600081526020018481525090508060056000876001600160a01b03166001600160a01b0316815260200190815260200160002060008201518160000160006101000a81548160ff0219169083151502179055506020820151816001015560408201518160020155606082015181600301556080820151816004015560a0820151816005015560c0820151816006015560e082015181600701559050506003859080600181540180825580915050600190039060005260206000200160009091909190916101000a8154816001600160a01b0302191690836001600160a01b031602179055506004859080600181540180825580915050600190039060005260206000200160009091909190916101000a8154816001600160a01b0302191690836001600160a01b03160217905550846001600160a01b03167f5ec27a4fa537fc86d0d17d84e0ee3172c9d253c78cc4ab5c69ee99c5f7084f518585856040516107a6939291909283526020830191909152604082015260600190565b60405180910390a25050505050565b6060600480548060200260200160405190810160405280929190818152602001828054801561080d57602002820191906000526020600020905b81546001600160a01b031681526001909101906020018083116107ef575b5050505050905090565b600054610100900460ff1680610830575060005460ff16155b6108935760405162461bcd60e51b815260206004820152602e60248201527f496e697469616c697a61626c653a20636f6e747261637420697320616c72656160448201526d191e481a5b9a5d1a585b1a5e995960921b60648201526084016104c4565b600054610100900460ff161580156108b5576000805461ffff19166101011790555b604080518082019091526002815261031360f41b60208201526001600160a01b0383166108f55760405162461bcd60e51b81526004016104c49190612d6b565b506000805462010000600160b01b031916620100006001600160a01b03851602179055801561092a576000805461ff00191690555b5050565b6000546001600160a01b036201000090910416331461095f5760405162461bcd60e51b81526004016104c490612d9e565b6001600160a01b038216600090815260056020526040902060040154610985908261222b565b6001600160a01b0383166000908152600560205260408120600401805492935083929091906109b5908490612e43565b9250508190555080600260008282546109ce9190612e43565b90915550505050565b600481815481106109e757600080fd5b6000918252602090912001546001600160a01b0316905081565b6000546001600160a01b0362010000909104163314610a325760405162461bcd60e51b81526004016104c490612d9e565b6001600160a01b0382166000908152600560209081526040918290205482518084019093526002835261189b60f11b9183019190915260ff16610a885760405162461bcd60e51b81526004016104c49190612d6b565b506001600160a01b0381166000908152600560209081526040918290205482518084019093526002835261313560f01b9183019190915260ff1615610ae05760405162461bcd60e51b81526004016104c49190612d6b565b50600060405180610100016040528060011515815260200160056000866001600160a01b03166001600160a01b0316815260200190815260200160002060010154815260200160056000866001600160a01b03166001600160a01b0316815260200190815260200160002060020154815260200160056000866001600160a01b03166001600160a01b0316815260200190815260200160002060030154815260200160056000866001600160a01b03166001600160a01b03168152602001908152602001600020600401548152602001600081526020016000815260200160056000866001600160a01b03166001600160a01b0316815260200190815260200160002060070154815250905060056000846001600160a01b03166001600160a01b03168152602001908152602001600020600080820160006101000a81549060ff0219169055600182016000905560028201600090556003820160009055600482016000905560058201600090556006820160009055600782016000905550508060056000846001600160a01b03166001600160a01b0316815260200190815260200160002060008201518160000160006101000a81548160ff0219169083151502179055506020820151816001015560408201518160020155606082015181600301556080820151816004015560a0820151816005015560c0820151816006015560e0820151816007015590505060005b600354811015610da957836001600160a01b031660038281548110610d2757634e487b7160e01b600052603260045260246000fd5b6000918252602090912001546001600160a01b03161415610d97578260038281548110610d6457634e487b7160e01b600052603260045260246000fd5b9060005260206000200160006101000a8154816001600160a01b0302191690836001600160a01b03160217905550610da9565b80610da181612e8a565b915050610cf2565b5060005b600454811015610e6457836001600160a01b031660048281548110610de257634e487b7160e01b600052603260045260246000fd5b6000918252602090912001546001600160a01b03161415610e52578260048281548110610e1f57634e487b7160e01b600052603260045260246000fd5b9060005260206000200160006101000a8154816001600160a01b0302191690836001600160a01b03160217905550610e64565b80610e5c81612e8a565b915050610dad565b506001600160a01b03828116600081815260056020908152604091829020600181015460078201546002909201548451918252928101919091529182015290918516907f35df46f62e188dd7abf424c0f449d857c487aa70360ca1bc904871a61617c20e9060600160405180910390a3505050565b6000546040805163030d028960e21b8152905133926201000090046001600160a01b031691630c340a24916004808301926020929190829003018186803b158015610f2357600080fd5b505afa158015610f37573d6000803e3d6000fd5b505050506040513d601f19601f82011682018060405250810190610f5b9190612b32565b6001600160a01b031614610f815760405162461bcd60e51b81526004016104c490612dc2565b6001600160a01b0382166000908152600560209081526040918290205482518084019093526002835261189b60f11b9183019190915260ff16610fd75760405162461bcd60e51b81526004016104c49190612d6b565b50604080518082019091526002815261313160f01b60208201526127108211156110145760405162461bcd60e51b81526004016104c49190612d6b565b506001600160a01b03821660008181526005602052604090819020600101839055517f683b8ed6de444177ebfaa1bac367068d61bd9dfef1f4c309b35e05dd709e73e1906110659084815260200190565b60405180910390a25050565b6000546001600160a01b03620100009091041633146110a25760405162461bcd60e51b81526004016104c490612d9e565b6001600160a01b0382166000908152600560209081526040918290205482518084019093526002835261189b60f11b9183019190915260ff166110f85760405162461bcd60e51b81526004016104c49190612d6b565b5061092a8282612243565b600060029054906101000a90046001600160a01b03166001600160a01b03166349eeb8606040518163ffffffff1660e01b815260040160206040518083038186803b15801561115157600080fd5b505afa158015611165573d6000803e3d6000fd5b505050506040513d601f19601f820116820180604052508101906111899190612b32565b6001600160a01b0316635dbe47e8336040516001600160e01b031960e084901b1681526001600160a01b03909116600482015260240160206040518083038186803b1580156111d757600080fd5b505afa1580156111eb573d6000803e3d6000fd5b505050506040513d601f19601f8201168201806040525081019061120f9190612cb2565b61124e5760405162461bcd60e51b815260206004820152601060248201526f3737ba16b096b6b0b4b73a30b4b732b960811b60448201526064016104c4565b805160045481148015611262575060035481145b604051806040016040528060018152602001600d60fa1b8152509061129a5760405162461bcd60e51b81526004016104c49190612d6b565b5060005b8181101561134f57600560008483815181106112ca57634e487b7160e01b600052603260045260246000fd5b60200260200101516001600160a01b03166001600160a01b0316815260200190815260200160002060000160009054906101000a900460ff1660405180604001604052806002815260200161189b60f11b8152509061133c5760405162461bcd60e51b81526004016104c49190612d6b565b508061134781612e8a565b91505061129e565b508151611363906004906020850190612a91565b505050565b600060029054906101000a90046001600160a01b03166001600160a01b03166349eeb8606040518163ffffffff1660e01b815260040160206040518083038186803b1580156113b657600080fd5b505afa1580156113ca573d6000803e3d6000fd5b505050506040513d601f19601f820116820180604052508101906113ee9190612b32565b6001600160a01b0316635dbe47e8336040516001600160e01b031960e084901b1681526001600160a01b03909116600482015260240160206040518083038186803b15801561143c57600080fd5b505afa158015611450573d6000803e3d6000fd5b505050506040513d601f19601f820116820180604052508101906114749190612cb2565b6114b35760405162461bcd60e51b815260206004820152601060248201526f3737ba16b096b6b0b4b73a30b4b732b960811b60448201526064016104c4565b6001600160a01b0382166000908152600560209081526040918290205482518084019093526002835261189b60f11b9183019190915260ff166115095760405162461bcd60e51b81526004016104c49190612d6b565b506001600160a01b038216600090815260056020526040902060070154600154829161153491612e43565b61153e9190612dec565b6001819055604080518082019091526002815261062760f31b602082015290612710101561157f5760405162461bcd60e51b81526004016104c49190612d6b565b506001600160a01b03821660008181526005602090815260409182902060078101859055600201548251858152918201527f3819805ced44aeebe5cbf4f81a253424557ef66c0a682cf3b54501e3fb935ba19101611065565b6001600160a01b0381166000908152600560205260409020600401545b919050565b60008054819081906001600160a01b03620100009091041633146116305760405162461bcd60e51b81526004016104c490612d9e565b6001600160a01b0387166000908152600560209081526040918290205482518084019093526002835261189b60f11b9183019190915260ff166116865760405162461bcd60e51b81526004016104c49190612d6b565b506116918487612dec565b600060029054906101000a90046001600160a01b03166001600160a01b031663fc0c546a6040518163ffffffff1660e01b815260040160206040518083038186803b1580156116df57600080fd5b505afa1580156116f3573d6000803e3d6000fd5b505050506040513d601f19601f820116820180604052508101906117179190612b32565b6040516370a0823160e01b81526001600160a01b038a8116600483015291909116906370a082319060240160206040518083038186803b15801561175a57600080fd5b505afa15801561176e573d6000803e3d6000fd5b505050506040513d601f19601f820116820180604052508101906117929190612cea565b1015604051806040016040528060018152602001603960f81b815250906117cc5760405162461bcd60e51b81526004016104c49190612d6b565b5084156117dd576117dd8786612243565b60006117e888612430565b90506117f4818661222b565b93508315611846576001600160a01b03881660009081526005602052604081206004018054869290611827908490612e43565b9250508190555083600260008282546118409190612e43565b90915550505b61184f886125cd565b925082156118a1576001600160a01b03881660009081526005602052604081206004018054859290611882908490612dec565b92505081905550826002600082825461189b9190612dec565b90915550505b861561190e576001600160a01b038816600090815260056020526040812060060180548992906118d2908490612dec565b90915550506001600160a01b038816600090815260056020526040902060010154612710906119019089612e24565b61190b9190612e04565b91505b6001600160a01b0388166000818152600560209081526040918290206004015460025483518c81529283018b90529282018890526060820152608081019190915260a081018590527f29c6c60e040fcd722949346bda66341e8859b20b9a2124a625326ad10373391b9060c00160405180910390a2509450945094915050565b6060600380548060200260200160405190810160405280929190818152602001828054801561080d576020028201919060005260206000209081546001600160a01b031681526001909101906020018083116107ef575050505050905090565b60006119f9826125cd565b92915050565b6000546040805163030d028960e21b8152905133926201000090046001600160a01b031691630c340a24916004808301926020929190829003018186803b158015611a4957600080fd5b505afa158015611a5d573d6000803e3d6000fd5b505050506040513d601f19601f82011682018060405250810190611a819190612b32565b6001600160a01b031614611aa75760405162461bcd60e51b81526004016104c490612dc2565b600060038281548110611aca57634e487b7160e01b600052603260045260246000fd5b60009182526020808320909101546001600160a01b0316808352600582526040928390205483518085019094526002845261189b60f11b92840192909252925060ff16611b2a5760405162461bcd60e51b81526004016104c49190612d6b565b506001600160a01b0381166000908152600560209081526040918290206004015482518084019093526002835261313960f01b9183019190915215611b825760405162461bcd60e51b81526004016104c49190612d6b565b506001600160a01b038116600090815260056020526040902060070154600154611bac9190612e43565b60019081556001600160a01b03821660009081526005602081905260408220805460ff1916815580840183905560028101839055600380820184905560048201849055918101839055600681018390556007019190915580549091611c1091612e43565b81548110611c2e57634e487b7160e01b600052603260045260246000fd5b600091825260209091200154600380546001600160a01b039092169184908110611c6857634e487b7160e01b600052603260045260246000fd5b9060005260206000200160006101000a8154816001600160a01b0302191690836001600160a01b031602179055506003805480611cb557634e487b7160e01b600052603160045260246000fd5b600082815260208120820160001990810180546001600160a01b031916905590910190915560035467ffffffffffffffff811115611d0357634e487b7160e01b600052604160045260246000fd5b604051908082528060200260200182016040528015611d2c578160200160208202803683370190505b5090506000805b600454811015611e1957836001600160a01b031660048281548110611d6857634e487b7160e01b600052603260045260246000fd5b6000918252602090912001546001600160a01b031614611e075760048181548110611da357634e487b7160e01b600052603260045260246000fd5b9060005260206000200160009054906101000a90046001600160a01b0316838381518110611de157634e487b7160e01b600052603260045260246000fd5b6001600160a01b039092166020928302919091019091015281611e0381612e8a565b9250505b80611e1181612e8a565b915050611d33565b508151611e2d906004906020850190612a91565b5050505050565b600060029054906101000a90046001600160a01b03166001600160a01b031663951dc22c6040518163ffffffff1660e01b815260040160206040518083038186803b158015611e8257600080fd5b505afa158015611e96573d6000803e3d6000fd5b505050506040513d601f19601f82011682018060405250810190611eba9190612b32565b6001600160a01b0316635dbe47e8336040516001600160e01b031960e084901b1681526001600160a01b03909116600482015260240160206040518083038186803b158015611f0857600080fd5b505afa158015611f1c573d6000803e3d6000fd5b505050506040513d601f19601f82011682018060405250810190611f409190612cb2565b611f7b5760405162461bcd60e51b815260206004820152600c60248201526b3737ba16b096b5b2b2b832b960a11b60448201526064016104c4565b6001600160a01b0382166000908152600560209081526040918290205482518084019093526002835261189b60f11b9183019190915260ff16611fd15760405162461bcd60e51b81526004016104c49190612d6b565b506001600160a01b038216600081815260056020908152604091829020600281018590556007015482519081529081018490527f3819805ced44aeebe5cbf4f81a253424557ef66c0a682cf3b54501e3fb935ba19101611065565b60006119f982612430565b600381815481106109e757600080fd5b600060029054906101000a90046001600160a01b03166001600160a01b031663951dc22c6040518163ffffffff1660e01b815260040160206040518083038186803b15801561209557600080fd5b505afa1580156120a9573d6000803e3d6000fd5b505050506040513d601f19601f820116820180604052508101906120cd9190612b32565b6001600160a01b0316635dbe47e8336040516001600160e01b031960e084901b1681526001600160a01b03909116600482015260240160206040518083038186803b15801561211b57600080fd5b505afa15801561212f573d6000803e3d6000fd5b505050506040513d601f19601f820116820180604052508101906121539190612cb2565b61218e5760405162461bcd60e51b815260206004820152600c60248201526b3737ba16b096b5b2b2b832b960a11b60448201526064016104c4565b6000546040516370a0823160e01b8152306004820152612228916201000090046001600160a01b0390811691908416906370a082319060240160206040518083038186803b1580156121df57600080fd5b505afa1580156121f3573d6000803e3d6000fd5b505050506040513d601f19601f820116820180604052508101906122179190612cea565b6001600160a01b0384169190612889565b50565b600081831061223a578161223c565b825b9392505050565b6001600160a01b0382166000908152600560209081526040918290206004015482518084019093526002835261032360f41b91830191909152908282101561229e5760405162461bcd60e51b81526004016104c49190612d6b565b506001600160a01b038316600090815260056020819052604082200180548492906122ca908490612dec565b90915550506001600160a01b038316600090815260056020526040812060040180548492906122fa908490612e43565b9250508190555081600260008282546123139190612e43565b9250508190555060006123dc600060029054906101000a90046001600160a01b03166001600160a01b031663d4c3eea06040518163ffffffff1660e01b815260040160206040518083038186803b15801561236d57600080fd5b505afa158015612381573d6000803e3d6000fd5b505050506040513d601f19601f820116820180604052508101906123a59190612cea565b6123b161271086612e24565b6123bb9190612e04565b6001600160a01b03861660009081526005602052604090206007015461222b565b6001600160a01b03851660009081526005602052604081206007018054929350839290919061240c908490612e43565b9250508190555080600160008282546124259190612e43565b909155505050505050565b60008060056000846001600160a01b03166001600160a01b03168152602001908152602001600020600401549050600060029054906101000a90046001600160a01b03166001600160a01b0316634938649a6040518163ffffffff1660e01b815260040160206040518083038186803b1580156124ac57600080fd5b505afa1580156124c0573d6000803e3d6000fd5b505050506040513d601f19601f820116820180604052508101906124e49190612cb2565b156124f05790506115f5565b6000612710600060029054906101000a90046001600160a01b03166001600160a01b031663d4c3eea06040518163ffffffff1660e01b815260040160206040518083038186803b15801561254357600080fd5b505afa158015612557573d6000803e3d6000fd5b505050506040513d601f19601f8201168201806040525081019061257b9190612cea565b6001600160a01b0386166000908152600560205260409020600701546125a19190612e24565b6125ab9190612e04565b90508082116125bb5760006125c5565b6125c58183612e43565b949350505050565b60008060029054906101000a90046001600160a01b03166001600160a01b0316634938649a6040518163ffffffff1660e01b815260040160206040518083038186803b15801561261c57600080fd5b505afa158015612630573d6000803e3d6000fd5b505050506040513d601f19601f820116820180604052508101906126549190612cb2565b15612661575060006115f5565b60008060029054906101000a90046001600160a01b03166001600160a01b031663d4c3eea06040518163ffffffff1660e01b815260040160206040518083038186803b1580156126b057600080fd5b505afa1580156126c4573d6000803e3d6000fd5b505050506040513d601f19601f820116820180604052508101906126e89190612cea565b6001600160a01b0384166000908152600560205260408120600701549192509061271090612717908490612e24565b6127219190612e04565b6001600160a01b03851660009081526005602052604090206004015490915081811061275357600093505050506115f5565b6000612710846001546127669190612e24565b6127709190612e04565b905080600254106127885760009450505050506115f5565b60006127948385612e43565b905061283a612828600060029054906101000a90046001600160a01b03166001600160a01b031663b8cb343d6040518163ffffffff1660e01b815260040160206040518083038186803b1580156127ea57600080fd5b505afa1580156127fe573d6000803e3d6000fd5b505050506040513d601f19601f820116820180604052508101906128229190612cea565b8361222b565b6002546128359085612e43565b61222b565b6001600160a01b0388166000908152600560205260409020600281015460039091015491925061287e9161286e9043612e43565b6128789190612e24565b8261222b565b979650505050505050565b604080516001600160a01b03848116602483015260448083018590528351808403909101815260649092018352602080830180516001600160e01b031663a9059cbb60e01b17905283518085019094528084527f5361666545524332303a206c6f772d6c6576656c2063616c6c206661696c65649084015261136392869291600091612919918516908490612996565b80519091501561136357808060200190518101906129379190612cb2565b6113635760405162461bcd60e51b815260206004820152602a60248201527f5361666545524332303a204552433230206f7065726174696f6e20646964206e6044820152691bdd081cdd58d8d9595960b21b60648201526084016104c4565b60606125c5848460008585843b6129ef5760405162461bcd60e51b815260206004820152601d60248201527f416464726573733a2063616c6c20746f206e6f6e2d636f6e747261637400000060448201526064016104c4565b600080866001600160a01b03168587604051612a0b9190612d02565b60006040518083038185875af1925050503d8060008114612a48576040519150601f19603f3d011682016040523d82523d6000602084013e612a4d565b606091505b509150915061287e82828660608315612a6757508161223c565b825115612a775782518084602001fd5b8160405162461bcd60e51b81526004016104c49190612d6b565b828054828255906000526020600020908101928215612ae6579160200282015b82811115612ae657825182546001600160a01b0319166001600160a01b03909116178255602090920191600190910190612ab1565b50612af2929150612af6565b5090565b5b80821115612af25760008155600101612af7565b80356115f581612ed1565b600060208284031215612b27578081fd5b813561223c81612ed1565b600060208284031215612b43578081fd5b815161223c81612ed1565b60008060408385031215612b60578081fd5b8235612b6b81612ed1565b91506020830135612b7b81612ed1565b809150509250929050565b60008060408385031215612b98578182fd5b8235612ba381612ed1565b946020939093013593505050565b60008060008060808587031215612bc6578182fd5b8435612bd181612ed1565b966020860135965060408601359560600135945092505050565b60006020808385031215612bfd578182fd5b823567ffffffffffffffff80821115612c14578384fd5b818501915085601f830112612c27578384fd5b813581811115612c3957612c39612ebb565b8060051b604051601f19603f83011681018181108582111715612c5e57612c5e612ebb565b604052828152858101935084860182860187018a1015612c7c578788fd5b8795505b83861015612ca557612c9181612b0b565b855260019590950194938601938601612c80565b5098975050505050505050565b600060208284031215612cc3578081fd5b8151801515811461223c578182fd5b600060208284031215612ce3578081fd5b5035919050565b600060208284031215612cfb578081fd5b5051919050565b60008251612d14818460208701612e5a565b9190910192915050565b6020808252825182820181905260009190848201906040850190845b81811015612d5f5783516001600160a01b031683529284019291840191600101612d3a565b50909695505050505050565b6000602082528251806020840152612d8a816040850160208701612e5a565b601f01601f19169190910160400192915050565b6020808252600a90820152691b9bdd0b584b5c1bdbdb60b21b604082015260600190565b60208082526010908201526f3737ba16ba343296b3b7bb32b93737b960811b604082015260600190565b60008219821115612dff57612dff612ea5565b500190565b600082612e1f57634e487b7160e01b81526012600452602481fd5b500490565b6000816000190483118215151615612e3e57612e3e612ea5565b500290565b600082821015612e5557612e55612ea5565b500390565b60005b83811015612e75578181015183820152602001612e5d565b83811115612e84576000848401525b50505050565b6000600019821415612e9e57612e9e612ea5565b5060010190565b634e487b7160e01b600052601160045260246000fd5b634e487b7160e01b600052604160045260246000fd5b6001600160a01b038116811461222857600080fdfea2646970667358221220f53c2bb40bec0a3d864bcc813c1487c7943a146195b0fe193b0b408a05a9d81a64736f6c63430008030033",
  "devdoc": {
    "kind": "dev",
    "methods": {
      "addStrategy(address,uint256,uint256,uint256)": {
        "params": {
          "_debtRate": "Debt rate per block",
          "_debtRatio": "Pool fund allocation to this strategy",
          "_interestFee": "Fee on earnings from this strategy",
          "_strategy": "Strategy address"
        }
      },
      "availableCreditLimit(address)": {
        "details": "Available credit limit is calculated based on current debt of pool and strategy, current debt limit of pool and strategy. credit available = min(pool's debt limit, strategy's debt limit, max debt per rebalance) when some strategy do not pay back outstanding debt, this impact credit line of other strategy if totalDebt of pool >= debtLimit of pool",
        "params": {
          "_strategy": "Strategy address"
        }
      },
      "decreaseDebt(address,uint256)": {
        "details": "In case of withdraw from strategy, pool will decrease debt by amount withdrawn",
        "params": {
          "_decreaseBy": "Amount by which strategy debt will be decreased",
          "_strategy": "Strategy Address"
        }
      },
      "excessDebt(address)": {
        "params": {
          "_strategy": "Address of strategy"
        }
      },
      "init(address)": {
        "details": "This init function meant to be called after proxy deployment.DO NOT CALL it with proxy deploy",
        "params": {
          "_pool": "Address of Vesper pool proxy"
        }
      },
      "migrateStrategy(address,address)": {
        "details": "Migrating strategy aka old and new strategy should be of same type.New strategy will replace old strategy in strategy mapping, strategies array, withdraw queue.",
        "params": {
          "_new": "Address of new strategy",
          "_old": "Address of strategy being migrated"
        }
      },
      "removeStrategy(uint256)": {
        "details": "Revoke and remove strategy from array. Update withdraw queue. Withdraw queue order should not change after remove. Strategy can be removed only after it has paid all debt. Use migrate strategy if debt is not paid and want to upgrade strategy."
      },
      "reportEarning(address,uint256,uint256,uint256)": {
        "details": "Strategy call this in regular interval.",
        "params": {
          "_loss": "Reduce debt ,also reduce debtRatio, increase loss in record.",
          "_payback": "strategy willing to payback outstanding above debtLimit. no performance fee on this amount.  when governance has reduced debtRatio of strategy, strategy will report profit and payback amount separately.",
          "_profit": "yield generated by strategy. Strategy get performance fee on this amount"
        }
      },
      "reportLoss(address,uint256)": {
        "params": {
          "_loss": "Loss of strategy",
          "_strategy": "Strategy which incur loss"
        }
      },
      "sweepERC20(address)": {
        "details": "Transfer given ERC20 token to pool",
        "params": {
          "_fromToken": "Token address to sweep"
        }
      },
      "totalDebtOf(address)": {
        "params": {
          "_strategy": "Strategy address"
        }
      },
      "updateDebtRate(address,uint256)": {
        "params": {
          "_debtRate": "New debt rate",
          "_strategy": "Strategy address for which debt rate is being updated"
        }
      },
      "updateDebtRatio(address,uint256)": {
        "details": "A strategy is retired when debtRatio is 0",
        "params": {
          "_debtRatio": "New debt ratio",
          "_strategy": "Strategy address for which debt ratio is being updated"
        }
      },
      "updateInterestFee(address,uint256)": {
        "params": {
          "_interestFee": "New interest fee",
          "_strategy": "Strategy address for which interest fee is being updated"
        }
      },
      "updateWithdrawQueue(address[])": {
        "details": "Pool always keep some buffer amount to satisfy withdrawal request, any withdrawal request higher than buffer will withdraw from withdraw queue. So withdrawQueue[0] will be the first strategy where withdrawal request will be send.",
        "params": {
          "_withdrawQueue": "Ordered list of strategy."
        }
      }
    },
    "title": "Accountant for Vesper pools which keep records of strategies.",
    "version": 1
  },
  "userdoc": {
    "kind": "user",
    "methods": {
      "addStrategy(address,uint256,uint256,uint256)": {
        "notice": "Add strategy. Once strategy is added it can call rebalance and borrow fund from pool and invest that fund in provider/lender."
      },
      "availableCreditLimit(address)": {
        "notice": "Get available credit limit of strategy. This is the amount strategy can borrow from pool"
      },
      "decreaseDebt(address,uint256)": {
        "notice": "Decrease debt of strategy, also decrease totalDebt"
      },
      "excessDebt(address)": {
        "notice": "Debt above current debt limit"
      },
      "getStrategies()": {
        "notice": "Return strategies array"
      },
      "getWithdrawQueue()": {
        "notice": "Return withdrawQueue"
      },
      "migrateStrategy(address,address)": {
        "notice": "Migrate existing strategy to new strategy."
      },
      "reportLoss(address,uint256)": {
        "notice": "Update strategy loss."
      },
      "totalDebtOf(address)": {
        "notice": "Get total debt of given strategy"
      },
      "updateDebtRate(address,uint256)": {
        "notice": "Update debtRate per block."
      },
      "updateDebtRatio(address,uint256)": {
        "notice": "Update debt ratio."
      },
      "updateInterestFee(address,uint256)": {
        "notice": "Update interest fee of strategy"
      },
      "updateWithdrawQueue(address[])": {
        "notice": "Update withdraw queue. Withdraw queue is list of strategy in the order in which funds should be withdrawn."
      }
    },
    "version": 1
  },
  "storageLayout": {
    "storage": [
      {
        "astId": 887,
        "contract": "contracts/pool/PoolAccountant.sol:PoolAccountant",
        "label": "_initialized",
        "offset": 0,
        "slot": "0",
        "type": "t_bool"
      },
      {
        "astId": 890,
        "contract": "contracts/pool/PoolAccountant.sol:PoolAccountant",
        "label": "_initializing",
        "offset": 1,
        "slot": "0",
        "type": "t_bool"
      },
      {
        "astId": 5150,
        "contract": "contracts/pool/PoolAccountant.sol:PoolAccountant",
        "label": "pool",
        "offset": 2,
        "slot": "0",
        "type": "t_address"
      },
      {
        "astId": 5152,
        "contract": "contracts/pool/PoolAccountant.sol:PoolAccountant",
        "label": "totalDebtRatio",
        "offset": 0,
        "slot": "1",
        "type": "t_uint256"
      },
      {
        "astId": 5154,
        "contract": "contracts/pool/PoolAccountant.sol:PoolAccountant",
        "label": "totalDebt",
        "offset": 0,
        "slot": "2",
        "type": "t_uint256"
      },
      {
        "astId": 5157,
        "contract": "contracts/pool/PoolAccountant.sol:PoolAccountant",
        "label": "strategies",
        "offset": 0,
        "slot": "3",
        "type": "t_array(t_address)dyn_storage"
      },
      {
        "astId": 5160,
        "contract": "contracts/pool/PoolAccountant.sol:PoolAccountant",
        "label": "withdrawQueue",
        "offset": 0,
        "slot": "4",
        "type": "t_array(t_address)dyn_storage"
      },
      {
        "astId": 5182,
        "contract": "contracts/pool/PoolAccountant.sol:PoolAccountant",
        "label": "strategy",
        "offset": 0,
        "slot": "5",
        "type": "t_mapping(t_address,t_struct(StrategyConfig)5177_storage)"
      }
    ],
    "types": {
      "t_address": {
        "encoding": "inplace",
        "label": "address",
        "numberOfBytes": "20"
      },
      "t_array(t_address)dyn_storage": {
        "base": "t_address",
        "encoding": "dynamic_array",
        "label": "address[]",
        "numberOfBytes": "32"
      },
      "t_bool": {
        "encoding": "inplace",
        "label": "bool",
        "numberOfBytes": "1"
      },
      "t_mapping(t_address,t_struct(StrategyConfig)5177_storage)": {
        "encoding": "mapping",
        "key": "t_address",
        "label": "mapping(address => struct PoolAccountantStorageV1.StrategyConfig)",
        "numberOfBytes": "32",
        "value": "t_struct(StrategyConfig)5177_storage"
      },
      "t_struct(StrategyConfig)5177_storage": {
        "encoding": "inplace",
        "label": "struct PoolAccountantStorageV1.StrategyConfig",
        "members": [
          {
            "astId": 5162,
            "contract": "contracts/pool/PoolAccountant.sol:PoolAccountant",
            "label": "active",
            "offset": 0,
            "slot": "0",
            "type": "t_bool"
          },
          {
            "astId": 5164,
            "contract": "contracts/pool/PoolAccountant.sol:PoolAccountant",
            "label": "interestFee",
            "offset": 0,
            "slot": "1",
            "type": "t_uint256"
          },
          {
            "astId": 5166,
            "contract": "contracts/pool/PoolAccountant.sol:PoolAccountant",
            "label": "debtRate",
            "offset": 0,
            "slot": "2",
            "type": "t_uint256"
          },
          {
            "astId": 5168,
            "contract": "contracts/pool/PoolAccountant.sol:PoolAccountant",
            "label": "lastRebalance",
            "offset": 0,
            "slot": "3",
            "type": "t_uint256"
          },
          {
            "astId": 5170,
            "contract": "contracts/pool/PoolAccountant.sol:PoolAccountant",
            "label": "totalDebt",
            "offset": 0,
            "slot": "4",
            "type": "t_uint256"
          },
          {
            "astId": 5172,
            "contract": "contracts/pool/PoolAccountant.sol:PoolAccountant",
            "label": "totalLoss",
            "offset": 0,
            "slot": "5",
            "type": "t_uint256"
          },
          {
            "astId": 5174,
            "contract": "contracts/pool/PoolAccountant.sol:PoolAccountant",
            "label": "totalProfit",
            "offset": 0,
            "slot": "6",
            "type": "t_uint256"
          },
          {
            "astId": 5176,
            "contract": "contracts/pool/PoolAccountant.sol:PoolAccountant",
            "label": "debtRatio",
            "offset": 0,
            "slot": "7",
            "type": "t_uint256"
          }
        ],
        "numberOfBytes": "256"
      },
      "t_uint256": {
        "encoding": "inplace",
        "label": "uint256",
        "numberOfBytes": "32"
      }
    }
  }
}