{
  "address": "0x4634826b13A6f4edED44539a9AAE119438c1517b",
  "abi": [
    {
      "inputs": [
        {
          "internalType": "address",
          "name": "_pool",
          "type": "address"
        },
        {
          "internalType": "address",
          "name": "_swapManager",
          "type": "address"
        },
        {
          "internalType": "address",
          "name": "_receiptToken",
          "type": "address"
        }
      ],
      "stateMutability": "nonpayable",
      "type": "constructor"
    },
    {
      "anonymous": false,
      "inputs": [
        {
          "indexed": false,
          "internalType": "uint256",
          "name": "previousMinBorrowRatio",
          "type": "uint256"
        },
        {
          "indexed": false,
          "internalType": "uint256",
          "name": "newMinBorrowRatio",
          "type": "uint256"
        },
        {
          "indexed": false,
          "internalType": "uint256",
          "name": "previousMaxBorrowRatio",
          "type": "uint256"
        },
        {
          "indexed": false,
          "internalType": "uint256",
          "name": "newMaxBorrowRatio",
          "type": "uint256"
        }
      ],
      "name": "UpdatedBorrowRatio",
      "type": "event"
    },
    {
      "anonymous": false,
      "inputs": [
        {
          "indexed": true,
          "internalType": "address",
          "name": "previousFeeCollector",
          "type": "address"
        },
        {
          "indexed": true,
          "internalType": "address",
          "name": "newFeeCollector",
          "type": "address"
        }
      ],
      "name": "UpdatedFeeCollector",
      "type": "event"
    },
    {
      "anonymous": false,
      "inputs": [
        {
          "indexed": false,
          "internalType": "uint256",
          "name": "oldPeriod",
          "type": "uint256"
        },
        {
          "indexed": false,
          "internalType": "uint256",
          "name": "newPeriod",
          "type": "uint256"
        },
        {
          "indexed": false,
          "internalType": "uint256",
          "name": "oldRouterIdx",
          "type": "uint256"
        },
        {
          "indexed": false,
          "internalType": "uint256",
          "name": "newRouterIdx",
          "type": "uint256"
        }
      ],
      "name": "UpdatedOracleConfig",
      "type": "event"
    },
    {
      "anonymous": false,
      "inputs": [
        {
          "indexed": true,
          "internalType": "address",
          "name": "previousSwapManager",
          "type": "address"
        },
        {
          "indexed": true,
          "internalType": "address",
          "name": "newSwapManager",
          "type": "address"
        }
      ],
      "name": "UpdatedSwapManager",
      "type": "event"
    },
    {
      "anonymous": false,
      "inputs": [
        {
          "indexed": false,
          "internalType": "uint256",
          "name": "oldSwapSlippage",
          "type": "uint256"
        },
        {
          "indexed": false,
          "internalType": "uint256",
          "name": "newSwapSlippage",
          "type": "uint256"
        }
      ],
      "name": "UpdatedSwapSlippage",
      "type": "event"
    },
    {
      "inputs": [],
      "name": "NAME",
      "outputs": [
        {
          "internalType": "string",
          "name": "",
          "type": "string"
        }
      ],
      "stateMutability": "view",
      "type": "function"
    },
    {
      "inputs": [],
      "name": "VERSION",
      "outputs": [
        {
          "internalType": "string",
          "name": "",
          "type": "string"
        }
      ],
      "stateMutability": "view",
      "type": "function"
    },
    {
      "inputs": [
        {
          "internalType": "address",
          "name": "_keeperAddress",
          "type": "address"
        }
      ],
      "name": "addKeeper",
      "outputs": [],
      "stateMutability": "nonpayable",
      "type": "function"
    },
    {
      "inputs": [],
      "name": "approveToken",
      "outputs": [],
      "stateMutability": "nonpayable",
      "type": "function"
    },
    {
      "inputs": [
        {
          "internalType": "address",
          "name": "_sender",
          "type": "address"
        },
        {
          "components": [
            {
              "internalType": "address",
              "name": "owner",
              "type": "address"
            },
            {
              "internalType": "uint256",
              "name": "number",
              "type": "uint256"
            }
          ],
          "internalType": "struct Account.Info",
          "name": "",
          "type": "tuple"
        },
        {
          "internalType": "bytes",
          "name": "_callData",
          "type": "bytes"
        }
      ],
      "name": "callFunction",
      "outputs": [],
      "stateMutability": "nonpayable",
      "type": "function"
    },
    {
      "inputs": [],
      "name": "collateralToken",
      "outputs": [
        {
          "internalType": "contract IERC20",
          "name": "",
          "type": "address"
        }
      ],
      "stateMutability": "view",
      "type": "function"
    },
    {
      "inputs": [],
      "name": "currentBorrowRatio",
      "outputs": [
        {
          "internalType": "uint256",
          "name": "",
          "type": "uint256"
        }
      ],
      "stateMutability": "view",
      "type": "function"
    },
    {
      "inputs": [],
      "name": "dyDxMarketId",
      "outputs": [
        {
          "internalType": "uint256",
          "name": "",
          "type": "uint256"
        }
      ],
      "stateMutability": "view",
      "type": "function"
    },
    {
      "inputs": [
        {
          "internalType": "address[]",
          "name": "",
          "type": "address[]"
        },
        {
          "internalType": "uint256[]",
          "name": "_amounts",
          "type": "uint256[]"
        },
        {
          "internalType": "uint256[]",
          "name": "_premiums",
          "type": "uint256[]"
        },
        {
          "internalType": "address",
          "name": "_initiator",
          "type": "address"
        },
        {
          "internalType": "bytes",
          "name": "_data",
          "type": "bytes"
        }
      ],
      "name": "executeOperation",
      "outputs": [
        {
          "internalType": "bool",
          "name": "",
          "type": "bool"
        }
      ],
      "stateMutability": "nonpayable",
      "type": "function"
    },
    {
      "inputs": [],
      "name": "feeCollector",
      "outputs": [
        {
          "internalType": "address",
          "name": "",
          "type": "address"
        }
      ],
      "stateMutability": "view",
      "type": "function"
    },
    {
      "inputs": [],
      "name": "getPosition",
      "outputs": [
        {
          "internalType": "uint256",
          "name": "_supply",
          "type": "uint256"
        },
        {
          "internalType": "uint256",
          "name": "_borrow",
          "type": "uint256"
        }
      ],
      "stateMutability": "view",
      "type": "function"
    },
    {
      "inputs": [],
      "name": "isAaveActive",
      "outputs": [
        {
          "internalType": "bool",
          "name": "",
          "type": "bool"
        }
      ],
      "stateMutability": "view",
      "type": "function"
    },
    {
      "inputs": [],
      "name": "isDyDxActive",
      "outputs": [
        {
          "internalType": "bool",
          "name": "",
          "type": "bool"
        }
      ],
      "stateMutability": "view",
      "type": "function"
    },
    {
      "inputs": [],
      "name": "isLossMaking",
      "outputs": [
        {
          "internalType": "bool",
          "name": "",
          "type": "bool"
        }
      ],
      "stateMutability": "nonpayable",
      "type": "function"
    },
    {
      "inputs": [
        {
          "internalType": "address",
          "name": "_token",
          "type": "address"
        }
      ],
      "name": "isReservedToken",
      "outputs": [
        {
          "internalType": "bool",
          "name": "",
          "type": "bool"
        }
      ],
      "stateMutability": "view",
      "type": "function"
    },
    {
      "inputs": [],
      "name": "keepers",
      "outputs": [
        {
          "internalType": "address[]",
          "name": "",
          "type": "address[]"
        }
      ],
      "stateMutability": "view",
      "type": "function"
    },
    {
      "inputs": [],
      "name": "maxBorrowRatio",
      "outputs": [
        {
          "internalType": "uint256",
          "name": "",
          "type": "uint256"
        }
      ],
      "stateMutability": "view",
      "type": "function"
    },
    {
      "inputs": [
        {
          "internalType": "address",
          "name": "_newStrategy",
          "type": "address"
        }
      ],
      "name": "migrate",
      "outputs": [],
      "stateMutability": "nonpayable",
      "type": "function"
    },
    {
      "inputs": [],
      "name": "minBorrowRatio",
      "outputs": [
        {
          "internalType": "uint256",
          "name": "",
          "type": "uint256"
        }
      ],
      "stateMutability": "view",
      "type": "function"
    },
    {
      "inputs": [],
      "name": "oraclePeriod",
      "outputs": [
        {
          "internalType": "uint256",
          "name": "",
          "type": "uint256"
        }
      ],
      "stateMutability": "view",
      "type": "function"
    },
    {
      "inputs": [],
      "name": "oracleRouterIdx",
      "outputs": [
        {
          "internalType": "uint256",
          "name": "",
          "type": "uint256"
        }
      ],
      "stateMutability": "view",
      "type": "function"
    },
    {
      "inputs": [],
      "name": "pool",
      "outputs": [
        {
          "internalType": "address",
          "name": "",
          "type": "address"
        }
      ],
      "stateMutability": "view",
      "type": "function"
    },
    {
      "inputs": [],
      "name": "rebalance",
      "outputs": [],
      "stateMutability": "nonpayable",
      "type": "function"
    },
    {
      "inputs": [],
      "name": "receiptToken",
      "outputs": [
        {
          "internalType": "address",
          "name": "",
          "type": "address"
        }
      ],
      "stateMutability": "view",
      "type": "function"
    },
    {
      "inputs": [
        {
          "internalType": "address",
          "name": "_keeperAddress",
          "type": "address"
        }
      ],
      "name": "removeKeeper",
      "outputs": [],
      "stateMutability": "nonpayable",
      "type": "function"
    },
    {
      "inputs": [],
      "name": "setupOracles",
      "outputs": [],
      "stateMutability": "nonpayable",
      "type": "function"
    },
    {
      "inputs": [],
      "name": "swapManager",
      "outputs": [
        {
          "internalType": "contract ISwapManager",
          "name": "",
          "type": "address"
        }
      ],
      "stateMutability": "view",
      "type": "function"
    },
    {
      "inputs": [],
      "name": "swapSlippage",
      "outputs": [
        {
          "internalType": "uint256",
          "name": "",
          "type": "uint256"
        }
      ],
      "stateMutability": "view",
      "type": "function"
    },
    {
      "inputs": [
        {
          "internalType": "address",
          "name": "_fromToken",
          "type": "address"
        }
      ],
      "name": "sweepERC20",
      "outputs": [],
      "stateMutability": "nonpayable",
      "type": "function"
    },
    {
      "inputs": [],
      "name": "token",
      "outputs": [
        {
          "internalType": "address",
          "name": "",
          "type": "address"
        }
      ],
      "stateMutability": "view",
      "type": "function"
    },
    {
      "inputs": [],
      "name": "totalValue",
      "outputs": [
        {
          "internalType": "uint256",
          "name": "_totalValue",
          "type": "uint256"
        }
      ],
      "stateMutability": "view",
      "type": "function"
    },
    {
      "inputs": [],
      "name": "totalValueCurrent",
      "outputs": [
        {
          "internalType": "uint256",
          "name": "_totalValue",
          "type": "uint256"
        }
      ],
      "stateMutability": "nonpayable",
      "type": "function"
    },
    {
      "inputs": [
        {
          "internalType": "bool",
          "name": "_status",
          "type": "bool"
        }
      ],
      "name": "updateAaveStatus",
      "outputs": [],
      "stateMutability": "nonpayable",
      "type": "function"
    },
    {
      "inputs": [
        {
          "internalType": "uint256",
          "name": "_minBorrowRatio",
          "type": "uint256"
        },
        {
          "internalType": "uint256",
          "name": "_maxBorrowRatio",
          "type": "uint256"
        }
      ],
      "name": "updateBorrowRatio",
      "outputs": [],
      "stateMutability": "nonpayable",
      "type": "function"
    },
    {
      "inputs": [
        {
          "internalType": "bool",
          "name": "_status",
          "type": "bool"
        }
      ],
      "name": "updateDyDxStatus",
      "outputs": [],
      "stateMutability": "nonpayable",
      "type": "function"
    },
    {
      "inputs": [
        {
          "internalType": "address",
          "name": "_feeCollector",
          "type": "address"
        }
      ],
      "name": "updateFeeCollector",
      "outputs": [],
      "stateMutability": "nonpayable",
      "type": "function"
    },
    {
      "inputs": [
        {
          "internalType": "uint256",
          "name": "_newPeriod",
          "type": "uint256"
        },
        {
          "internalType": "uint256",
          "name": "_newRouterIdx",
          "type": "uint256"
        }
      ],
      "name": "updateOracleConfig",
      "outputs": [],
      "stateMutability": "nonpayable",
      "type": "function"
    },
    {
      "inputs": [
        {
          "internalType": "address",
          "name": "_swapManager",
          "type": "address"
        }
      ],
      "name": "updateSwapManager",
      "outputs": [],
      "stateMutability": "nonpayable",
      "type": "function"
    },
    {
      "inputs": [
        {
          "internalType": "uint256",
          "name": "_newSwapSlippage",
          "type": "uint256"
        }
      ],
      "name": "updateSwapSlippage",
      "outputs": [],
      "stateMutability": "nonpayable",
      "type": "function"
    },
    {
      "inputs": [
        {
          "internalType": "uint256",
          "name": "_amount",
          "type": "uint256"
        }
      ],
      "name": "withdraw",
      "outputs": [],
      "stateMutability": "nonpayable",
      "type": "function"
    }
  ],
  "transactionHash": "0xae9cec28a4517a309aa650c4f738e7244208fcf1055fe3a796a32f923a1e7ddd",
  "args": [
    "0xef4F4604106de23CDadfEAE08fcC34602cB475C1",
    "0xe382d9f2394A359B01006faa8A1864b8a60d2710",
    "0xFAce851a4921ce59e912d19329929CE6da6EB0c7"
  ],
  "solcInputHash": "9538cd455de8fb8808e4539979965a68",
  "bytecode": "0x60c0604052600080546001600160a01b03191673c02aaa39b223fe8d0a0e5c4f27ead9083c756cc2178155610e10600455600555612710600655600a805462ffffff19169055611388600b55611770600c553480156200005e57600080fd5b5060405162005f3338038062005f33833981016040819052620000819162000360565b8282828282826001600160a01b038316620000e35760405162461bcd60e51b815260206004820152601460248201527f706f6f6c2d616464726573732d69732d7a65726f00000000000000000000000060448201526064015b60405180910390fd5b6001600160a01b038216620001305760405162461bcd60e51b8152602060048201526012602482015271736d2d616464726573732d69732d7a65726f60701b6044820152606401620000da565b600380546001600160a01b0319166001600160a01b0384811691909117909155606084901b6001600160601b03191660a05260408051637e062a3560e11b815290519185169163fc0c546a91600480820192602092909190829003018186803b1580156200019d57600080fd5b505afa158015620001b2573d6000803e3d6000fd5b505050506040513d601f19601f82011682018060405250810190620001d89190620003b3565b60601b6001600160601b031916608052600180546001600160a01b0319166001600160a01b038316179055620002256200020f3390565b6007620002ee60201b62001ffb1790919060201c565b620002675760405162461bcd60e51b81526020600482015260116024820152701859190b5ad9595c195c8b59985a5b1959607a1b6044820152606401620000da565b5050506001600160a01b038116620002c25760405162461bcd60e51b815260206004820152601660248201527f63546f6b656e2d616464726573732d69732d7a65726f000000000000000000006044820152606401620000da565b600d80546001600160a01b0319166001600160a01b039290921691909117905550620003f29350505050565b600062000305836001600160a01b0384166200030e565b90505b92915050565b6000818152600183016020526040812054620003575750815460018181018455600084815260208082209093018490558454848252828601909352604090209190915562000308565b50600062000308565b60008060006060848603121562000375578283fd5b83516200038281620003d9565b60208501519093506200039581620003d9565b6040850151909250620003a881620003d9565b809150509250925092565b600060208284031215620003c5578081fd5b8151620003d281620003d9565b9392505050565b6001600160a01b0381168114620003ef57600080fd5b50565b60805160601c60a05160601c615a046200052f600039600081816102670152818161056e0152818161068a015281816107060152818161088f01528181610a4201528181610b6c01528181610dd50152818161113701528181611216015281816114760152818161153f015281816117940152818161195d01528181611da101528181612031015281816120e40152818161218301526127670152600081816104520152818161085301528181610b07015281816116e70152818161176b01528181611b350152818161220d015281816123610152818161250901528181612641015281816127450152818161279d0152818161290801528181612aa501528181612b6901528181613045015281816131540152818161318d0152818161323d01528181613a3601528181613ac201526148cb0152615a046000f3fe608060405234801561001057600080fd5b50600436106102485760003560e01c80639b7166a91161013b578063d3332539116100b8578063f23c47221161007c578063f23c472214610508578063f7c99bea1461051a578063fc0c546a14610523578063fef395d314610534578063ffa1ad741461054757610248565b8063d3332539146104bf578063d4c3eea0146104d2578063e00af4a7146104da578063e645c202146104ed578063ec78e832146104f557610248565b8063b9098e3c116100ff578063b9098e3c14610474578063c415b95c1461047d578063cd2d7ebe14610490578063ce5494bb14610499578063d2c35ce8146104ac57610248565b80639b7166a9146103dc578063a3f4df7e146103e9578063a923b2a614610432578063aa10188614610445578063b2016bd41461044d57610248565b80635abda028116101c95780638b4187131161018d5780638b41871314610391578063920f5c84146103a457806392986024146103b7578063951dc22c146103bf57806399b71d5c146103d457610248565b80635abda0281461033e57806367f5e4b814610346578063709d039d146103595780637398ab181461036c5780637d7c2a1c1461038957610248565b80634032b72b116102105780634032b72b146102d957806342189c8f146102ec578063440d7248146102f55780634c36fad714610318578063599e892a1461032b57610248565b806314ae9f2e1461024d57806316f0115b146102625780631aedeabe146102a65780632a049a21146102bd5780632e1a7d4d146102c6575b600080fd5b61026061025b366004614e9a565b61056c565b005b6102897f000000000000000000000000000000000000000000000000000000000000000081565b6040516001600160a01b0390911681526020015b60405180910390f35b6102af60065481565b60405190815260200161029d565b6102af600c5481565b6102606102d436600461533d565b610687565b6102606102e7366004614e9a565b610704565b6102af60045481565b610308610303366004614e9a565b610810565b604051901515815260200161029d565b610260610326366004614e9a565b61088d565b6102606103393660046151dd565b610a40565b6102af610b2b565b61026061035436600461533d565b610b6a565b600354610289906001600160a01b031681565b610374610cb6565b6040805192835260208301919091520161029d565b610260610d6b565b61026061039f366004614ed2565b610e3e565b6103086103b2366004614f9e565b610f02565b61030861111f565b6103c76111c7565b60405161029d919061560c565b6102606111d8565b600a546103089060ff1681565b6104256040518060400160405280601c81526020017f436f6d706f756e644c6576657261676553747261746567794c494e4b0000000081525081565b60405161029d9190615771565b61026061044036600461539c565b611214565b610260611449565b6102897f000000000000000000000000000000000000000000000000000000000000000081565b6102af600b5481565b600254610289906001600160a01b031681565b6102af60055481565b6102606104a7366004614e9a565b611473565b6102606104ba366004614e9a565b611792565b6102606104cd3660046151dd565b61195b565b6102af611a2f565b6102606104e8366004614e9a565b611abe565b6102af611cdd565b600154610289906001600160a01b031681565b600a5461030890610100900460ff1681565b6102af60095481565b6001546001600160a01b0316610289565b61026061054236600461539c565b611d9f565b6104256040518060400160405280600681526020016519971817191960d11b81525081565b7f00000000000000000000000000000000000000000000000000000000000000006001600160a01b0316630c340a246040518163ffffffff1660e01b815260040160206040518083038186803b1580156105c557600080fd5b505afa1580156105d9573d6000803e3d6000fd5b505050506040513d601f19601f820116820180604052508101906105fd9190614eb6565b6001600160a01b0316336001600160a01b0316146106365760405162461bcd60e51b815260040161062d906157b4565b60405180910390fd5b610641600782612017565b6106845760405162461bcd60e51b81526020600482015260146024820152731c995b5bdd994b5ad9595c195c8b59985a5b195960621b604482015260640161062d565b50565b337f00000000000000000000000000000000000000000000000000000000000000006001600160a01b0316146106fb5760405162461bcd60e51b815260206004820152601960248201527818d85b1b195c8b5a5ccb5b9bdd0b5d995cdc195c8b5c1bdbdb603a1b604482015260640161062d565b6106848161202c565b7f00000000000000000000000000000000000000000000000000000000000000006001600160a01b0316630c340a246040518163ffffffff1660e01b815260040160206040518083038186803b15801561075d57600080fd5b505afa158015610771573d6000803e3d6000fd5b505050506040513d601f19601f820116820180604052508101906107959190614eb6565b6001600160a01b0316336001600160a01b0316146107c55760405162461bcd60e51b815260040161062d906157b4565b6107d0600782611ffb565b6106845760405162461bcd60e51b81526020600482015260116024820152701859190b5ad9595c195c8b59985a5b1959607a1b604482015260640161062d565b600d546000906001600160a01b038381169116148061084b57506001600160a01b03821673c00e94cb662c3520282e6f5717214004a7f26888145b8061088757507f00000000000000000000000000000000000000000000000000000000000000006001600160a01b0316826001600160a01b0316145b92915050565b7f00000000000000000000000000000000000000000000000000000000000000006001600160a01b0316630c340a246040518163ffffffff1660e01b815260040160206040518083038186803b1580156108e657600080fd5b505afa1580156108fa573d6000803e3d6000fd5b505050506040513d601f19601f8201168201806040525081019061091e9190614eb6565b6001600160a01b0316336001600160a01b03161461094e5760405162461bcd60e51b815260040161062d906157b4565b6001600160a01b0381166109995760405162461bcd60e51b8152602060048201526012602482015271736d2d616464726573732d69732d7a65726f60701b604482015260640161062d565b6003546001600160a01b03828116911614156109e45760405162461bcd60e51b815260206004820152600a602482015269736d2d69732d73616d6560b01b604482015260640161062d565b6003546040516001600160a01b038084169216907f2d19927e7cac08ceb98b38898a4fdff6da6a27295b9a2d62fe250408ebe044e190600090a3600380546001600160a01b0319166001600160a01b0392909216919091179055565b7f00000000000000000000000000000000000000000000000000000000000000006001600160a01b0316630c340a246040518163ffffffff1660e01b815260040160206040518083038186803b158015610a9957600080fd5b505afa158015610aad573d6000803e3d6000fd5b505050506040513d601f19601f82011682018060405250810190610ad19190614eb6565b6001600160a01b0316336001600160a01b031614610b015760405162461bcd60e51b815260040161062d906157b4565b610684817f0000000000000000000000000000000000000000000000000000000000000000612059565b6000806000610b38610cb6565b9150915080600014610b605781610b51612710836158dc565b610b5b91906158bc565b610b63565b60005b9250505090565b7f00000000000000000000000000000000000000000000000000000000000000006001600160a01b0316630c340a246040518163ffffffff1660e01b815260040160206040518083038186803b158015610bc357600080fd5b505afa158015610bd7573d6000803e3d6000fd5b505050506040513d601f19601f82011682018060405250810190610bfb9190614eb6565b6001600160a01b0316336001600160a01b031614610c2b5760405162461bcd60e51b815260040161062d906157b4565b612710811115610c765760405162461bcd60e51b8152602060048201526016602482015275696e76616c69642d736c6970706167652d76616c756560501b604482015260640161062d565b60065460408051918252602082018390527ef1c5db862c7598b3b6765552ca951f498611e06412c2d57f8d0b58f82e7f82910160405180910390a1600655565b600d546040516361bfb47160e11b815230600482015260009182918291829182916001600160a01b03169063c37f68e29060240160806040518083038186803b158015610d0257600080fd5b505afa158015610d16573d6000803e3d6000fd5b505050506040513d601f19601f82011682018060405250810190610d3a91906153bd565b93509350935050670de0b6b3a76400008184610d5691906158dc565b610d6091906158bc565b959194509092505050565b610d78335b60079061209c565b610d945760405162461bcd60e51b815260040161062d90615784565b6000806000610da16120be565b6040516302df682360e11b815260048101849052602481018390526044810182905292955090935091506001600160a01b037f000000000000000000000000000000000000000000000000000000000000000016906305bed04690606401600060405180830381600087803b158015610e1957600080fd5b505af1158015610e2d573d6000803e3d6000fd5b50505050610e396124f1565b505050565b60008082806020019051810190610e5591906152c0565b909250905033731e0447b19bb6ecfdae1e4ae1694b0c3659614e4e14610ea55760405162461bcd60e51b815260206004820152600560248201526421736f6c6f60d81b604482015260640161062d565b6001600160a01b0385163014610ef15760405162461bcd60e51b815260206004820152601160248201527034b73b30b634b216b4b734ba34b0ba37b960791b604482015260640161062d565b610efb8282612605565b5050505050565b600073b53c1a33016b2dc2ff3653530bff1848a515c8c56001600160a01b0316630261bf8b6040518163ffffffff1660e01b815260040160206040518083038186803b158015610f5157600080fd5b505afa158015610f65573d6000803e3d6000fd5b505050506040513d601f19601f82011682018060405250810190610f899190614eb6565b6001600160a01b0316336001600160a01b031614610fd65760405162461bcd60e51b815260206004820152600a6024820152690858585d994b5c1bdbdb60b21b604482015260640161062d565b600a5462010000900460ff166110235760405162461bcd60e51b815260206004820152601260248201527134b73b30b634b216b33630b9b416b637b0b760711b604482015260640161062d565b6001600160a01b038416301461106f5760405162461bcd60e51b815260206004820152601160248201527034b73b30b634b216b4b734ba34b0ba37b960791b604482015260640161062d565b60008686600081811061109257634e487b7160e01b600052603260045260246000fd5b90506020020135898960008181106110ba57634e487b7160e01b600052603260045260246000fd5b905060200201356110cb91906158a4565b905061110e84848080601f016020809104026020016040519081016040528093929190818152602001838380828437600092019190915250859250612605915050565b5060019a9950505050505050505050565b604051639f2b283360e01b81523060048201526000907f00000000000000000000000000000000000000000000000000000000000000006001600160a01b031690639f2b28339060240160206040518083038186803b15801561118157600080fd5b505afa158015611195573d6000803e3d6000fd5b505050506040513d601f19601f820116820180604052508101906111b99190615355565b6111c1611cdd565b10905090565b60606111d3600761272b565b905090565b6111e133610d70565b6111fd5760405162461bcd60e51b815260040161062d90615784565b6112076000612738565b611212600019612738565b565b7f00000000000000000000000000000000000000000000000000000000000000006001600160a01b0316630c340a246040518163ffffffff1660e01b815260040160206040518083038186803b15801561126d57600080fd5b505afa158015611281573d6000803e3d6000fd5b505050506040513d601f19601f820116820180604052508101906112a59190614eb6565b6001600160a01b0316336001600160a01b0316146112d55760405162461bcd60e51b815260040161062d906157b4565b600360009054906101000a90046001600160a01b03166001600160a01b031663c2fba6676040518163ffffffff1660e01b815260040160206040518083038186803b15801561132357600080fd5b505afa158015611337573d6000803e3d6000fd5b505050506040513d601f19601f8201168201806040525081019061135b9190615355565b81106113a05760405162461bcd60e51b81526020600482015260146024820152730d2dcecc2d8d2c85ae4deeae8cae45ad2dcc8caf60631b604482015260640161062d565b816113ab5760045491505b603b82116113f35760405162461bcd60e51b81526020600482015260156024820152741a5b9d985b1a590b5bdc9858db194b5c195c9a5bd9605a1b604482015260640161062d565b6004546005546040805192835260208301859052820152606081018290527f83bc5ab8030537fcf1d29c2334f6d22c26c82dcbe5ff03923d2cff5c692c0a7f9060800160405180910390a1600491909155600555565b61145233610d70565b61146e5760405162461bcd60e51b815260040161062d90615784565b611212565b337f00000000000000000000000000000000000000000000000000000000000000006001600160a01b0316146114e75760405162461bcd60e51b815260206004820152601960248201527818d85b1b195c8b5a5ccb5b9bdd0b5d995cdc195c8b5c1bdbdb603a1b604482015260640161062d565b6001600160a01b03811661153d5760405162461bcd60e51b815260206004820152601c60248201527f6e65772d73747261746567792d616464726573732d69732d7a65726f00000000604482015260640161062d565b7f00000000000000000000000000000000000000000000000000000000000000006001600160a01b0316816001600160a01b03166316f0115b6040518163ffffffff1660e01b815260040160206040518083038186803b1580156115a057600080fd5b505afa1580156115b4573d6000803e3d6000fd5b505050506040513d601f19601f820116820180604052508101906115d89190614eb6565b6001600160a01b0316146116275760405162461bcd60e51b81526020600482015260166024820152756e6f742d76616c69642d6e65772d737472617465677960501b604482015260640161062d565b6116308161292d565b6001546040516370a0823160e01b81523060048201526116c49183916001600160a01b03909116906370a082319060240160206040518083038186803b15801561167957600080fd5b505afa15801561168d573d6000803e3d6000fd5b505050506040513d601f19601f820116820180604052508101906116b19190615355565b6001546001600160a01b03169190612a05565b6040516370a0823160e01b81523060048201526106849082906001600160a01b037f000000000000000000000000000000000000000000000000000000000000000016906370a082319060240160206040518083038186803b15801561172957600080fd5b505afa15801561173d573d6000803e3d6000fd5b505050506040513d601f19601f820116820180604052508101906117619190615355565b6001600160a01b037f0000000000000000000000000000000000000000000000000000000000000000169190612a05565b7f00000000000000000000000000000000000000000000000000000000000000006001600160a01b0316630c340a246040518163ffffffff1660e01b815260040160206040518083038186803b1580156117eb57600080fd5b505afa1580156117ff573d6000803e3d6000fd5b505050506040513d601f19601f820116820180604052508101906118239190614eb6565b6001600160a01b0316336001600160a01b0316146118535760405162461bcd60e51b815260040161062d906157b4565b6001600160a01b0381166118a95760405162461bcd60e51b815260206004820152601d60248201527f6665652d636f6c6c6563746f722d616464726573732d69732d7a65726f000000604482015260640161062d565b6002546001600160a01b03828116911614156118ff5760405162461bcd60e51b81526020600482015260156024820152746665652d636f6c6c6563746f722d69732d73616d6560581b604482015260640161062d565b6002546040516001600160a01b038084169216907f0f06062680f9bd68e786e9980d9bb03d73d5620fc3b345e417b6eacb310b970690600090a3600280546001600160a01b0319166001600160a01b0392909216919091179055565b7f00000000000000000000000000000000000000000000000000000000000000006001600160a01b0316630c340a246040518163ffffffff1660e01b815260040160206040518083038186803b1580156119b457600080fd5b505afa1580156119c8573d6000803e3d6000fd5b505050506040513d601f19601f820116820180604052508101906119ec9190614eb6565b6001600160a01b0316336001600160a01b031614611a1c5760405162461bcd60e51b815260040161062d906157b4565b600a805460ff1916821515179055610684565b60405163331faf7160e21b81523060048201526000906111d390733d9819210a31b4961b30ef54be2aed79b9c9cd3b9063cc7ebdc4906024015b60206040518083038186803b158015611a8157600080fd5b505afa158015611a95573d6000803e3d6000fd5b505050506040513d601f19601f82011682018060405250810190611ab99190615355565b612a68565b611ac733610d70565b611ae35760405162461bcd60e51b815260040161062d90615784565b6002546001600160a01b0316611b335760405162461bcd60e51b81526020600482015260156024820152741999594b58dbdb1b1958dd1bdc8b5b9bdd0b5cd95d605a1b604482015260640161062d565b7f00000000000000000000000000000000000000000000000000000000000000006001600160a01b0316816001600160a01b03161415611bb55760405162461bcd60e51b815260206004820152601f60248201527f6e6f742d616c6c6f7765642d746f2d73776565702d636f6c6c61746572616c00604482015260640161062d565b611bbe81610810565b15611c025760405162461bcd60e51b815260206004820152601460248201527306e6f742d616c6c6f7765642d746f2d73776565760641b604482015260640161062d565b6001600160a01b03811673eeeeeeeeeeeeeeeeeeeeeeeeeeeeeeeeeeeeeeee1415611c4257600254611c3d906001600160a01b031647612c0a565b610684565b6040516370a0823160e01b81523060048201526000906001600160a01b038316906370a082319060240160206040518083038186803b158015611c8457600080fd5b505afa158015611c98573d6000803e3d6000fd5b505050506040513d601f19601f82011682018060405250810190611cbc9190615355565b600254909150611cd9906001600160a01b03848116911683612a05565b5050565b600d546040805163bd6d894d60e01b815290516000926001600160a01b03169163bd6d894d91600480830192602092919082900301818787803b158015611d2357600080fd5b505af1158015611d37573d6000803e3d6000fd5b505050506040513d601f19601f82011682018060405250810190611d5b9190615355565b50611d64612d23565b6040516370a0823160e01b81523060048201526111d39073c00e94cb662c3520282e6f5717214004a7f26888906370a0823190602401611a69565b7f00000000000000000000000000000000000000000000000000000000000000006001600160a01b0316630c340a246040518163ffffffff1660e01b815260040160206040518083038186803b158015611df857600080fd5b505afa158015611e0c573d6000803e3d6000fd5b505050506040513d601f19601f82011682018060405250810190611e309190614eb6565b6001600160a01b0316336001600160a01b031614611e605760405162461bcd60e51b815260040161062d906157b4565b600d54604051638e8f294b60e01b81526001600160a01b039091166004820152600090733d9819210a31b4961b30ef54be2aed79b9c9cd3b90638e8f294b9060240160606040518083038186803b158015611eba57600080fd5b505afa158015611ece573d6000803e3d6000fd5b505050506040513d601f19601f82011682018060405250810190611ef29190615215565b509150611f079050655af3107a4000826158bc565b8210611f555760405162461bcd60e51b815260206004820152601860248201527f696e76616c69642d6d61782d626f72726f772d6c696d69740000000000000000604482015260640161062d565b828211611fa45760405162461bcd60e51b815260206004820152601d60248201527f6d61782d73686f756c642d62652d6869676865722d7468616e2d6d696e000000604482015260640161062d565b600b54600c546040805192835260208301869052820152606081018390527f0e68fa4c4a80a75427bcce81b711855825bd765ea0e6e15e330653b2437db78e9060800160405180910390a150600b91909155600c55565b6000612010836001600160a01b038416612df1565b9392505050565b6000612010836001600160a01b038416612e40565b6106847f000000000000000000000000000000000000000000000000000000000000000061176183612f5d565b81156120815761207d731e0447b19bb6ecfdae1e4ae1694b0c3659614e4e826132d5565b6009555b50600a80549115156101000261ff0019909216919091179055565b6001600160a01b03811660009081526001830160205260408120541515612010565b604051636a9eee1360e11b81523060048201526000908190819081906001600160a01b037f0000000000000000000000000000000000000000000000000000000000000000169063d53ddc269060240160206040518083038186803b15801561212657600080fd5b505afa15801561213a573d6000803e3d6000fd5b505050506040513d601f19601f8201168201806040525081019061215e9190615355565b60405163228bfd9f60e01b815230600482015290915060009081906001600160a01b037f0000000000000000000000000000000000000000000000000000000000000000169063228bfd9f906024016101006040518083038186803b1580156121c657600080fd5b505afa1580156121da573d6000803e3d6000fd5b505050506040513d601f19601f820116820180604052508101906121fe9190615257565b975050509550505050506122317f0000000000000000000000000000000000000000000000000000000000000000613456565b600d54604051633af9e66960e01b81523060048201526000916001600160a01b031690633af9e66990602401602060405180830381600087803b15801561227757600080fd5b505af115801561228b573d6000803e3d6000fd5b505050506040513d601f19601f820116820180604052508101906122af9190615355565b600d546040516395dd919360e01b81523060048201529192506000916001600160a01b03909116906395dd91939060240160206040518083038186803b1580156122f857600080fd5b505afa15801561230c573d6000803e3d6000fd5b505050506040513d601f19601f820116820180604052508101906123309190615355565b9050600061233e82846158fb565b6040516370a0823160e01b81523060048201529091506000906001600160a01b037f000000000000000000000000000000000000000000000000000000000000000016906370a082319060240160206040518083038186803b1580156123a357600080fd5b505afa1580156123b7573d6000803e3d6000fd5b505050506040513d601f19601f820116820180604052508101906123db9190615355565b905060006123e982846158a4565b9050600087821115612443576123ff88836158fb565b9b508b831161241957612412838d6158fb565b905061243e565b612423898d6158a4565b83106124315788995061243e565b61243b8c846158fb565b99505b612450565b61244d82896158fb565b9a505b600061245c8b8b6158fb565b9050600061246a83836158a4565b905080156124a057600061247d82612f5d565b90508381111561249e5761249184826158fb565b61249b908e6158a4565b9c505b505b6124a8610cb6565b9098509650881580156124ba57508715155b80156124c4575086155b156124e1576124d460001961350a565b6124de888f6158a4565b9d505b5050505050505050505050909192565b6040516370a0823160e01b81523060048201526000907f00000000000000000000000000000000000000000000000000000000000000006001600160a01b0316906370a082319060240160206040518083038186803b15801561255357600080fd5b505afa158015612567573d6000803e3d6000fd5b505050506040513d601f19601f8201168201806040525081019061258b9190615355565b905060008061259b83600161371f565b915091506125a883613914565b6125b282826139df565b6125bc90836158fb565b915060005b6000831180156125d2575060068111155b156125ff576125e18383613af2565b6125eb90846158fb565b9250806125f78161593e565b9150506125c1565b50505050565b6000808380602001905181019061261c919061536d565b6040516370a0823160e01b815230600482015291935091506000906001600160a01b037f000000000000000000000000000000000000000000000000000000000000000016906370a082319060240160206040518083038186803b15801561268357600080fd5b505afa158015612697573d6000803e3d6000fd5b505050506040513d601f19601f820116820180604052508101906126bb9190615355565b9050828110156126fc5760405162461bcd60e51b815260206004820152600c60248201526b11931054d217d1905253115160a21b604482015260640161062d565b81156127195761270b83613be7565b6127148461350a565b610efb565b61272281613914565b610efb84613cb2565b6060600061201083613d7d565b61278c6001600160a01b037f0000000000000000000000000000000000000000000000000000000000000000167f000000000000000000000000000000000000000000000000000000000000000083613dd9565b600d546127c6906001600160a01b037f00000000000000000000000000000000000000000000000000000000000000008116911683613dd9565b60005b600360009054906101000a90046001600160a01b03166001600160a01b031663c2fba6676040518163ffffffff1660e01b815260040160206040518083038186803b15801561281757600080fd5b505afa15801561282b573d6000803e3d6000fd5b505050506040513d601f19601f8201168201806040525081019061284f9190615355565b81101561290257600354604051636e74a6f760e01b8152600481018390526128f0916001600160a01b031690636e74a6f79060240160206040518083038186803b15801561289c57600080fd5b505afa1580156128b0573d6000803e3d6000fd5b505050506040513d601f19601f820116820180604052508101906128d49190614eb6565b73c00e94cb662c3520282e6f5717214004a7f268889084613dd9565b806128fa8161593e565b9150506127c9565b506106847f000000000000000000000000000000000000000000000000000000000000000082613efd565b600d5460408051637e062a3560e11b815290516001600160a01b039283169284169163fc0c546a916004808301926020929190829003018186803b15801561297457600080fd5b505afa158015612988573d6000803e3d6000fd5b505050506040513d601f19601f820116820180604052508101906129ac9190614eb6565b6001600160a01b0316146129f85760405162461bcd60e51b81526020600482015260136024820152723bb937b73396b932b1b2b4b83a16ba37b5b2b760691b604482015260640161062d565b6000600b556106846124f1565b6040516001600160a01b038316602482015260448101829052610e3990849063a9059cbb60e01b906064015b60408051601f198184030181529190526020810180516001600160e01b03166001600160e01b031990931692909217909152613fbe565b6000808215612b3857600354604051631d1f307960e31b815273c00e94cb662c3520282e6f5717214004a7f2688860048201526001600160a01b037f000000000000000000000000000000000000000000000000000000000000000081166024830152604482018690529091169063e8f983c89060640160006040518083038186803b158015612af757600080fd5b505afa158015612b0b573d6000803e3d6000fd5b505050506040513d6000823e601f3d908101601f19168201604052612b33919081019061509b565b509150505b600080612b43610cb6565b6040516370a0823160e01b81523060048201529193509150819083906001600160a01b037f000000000000000000000000000000000000000000000000000000000000000016906370a082319060240160206040518083038186803b158015612bab57600080fd5b505afa158015612bbf573d6000803e3d6000fd5b505050506040513d601f19601f82011682018060405250810190612be39190615355565b612bed90866158a4565b612bf791906158a4565b612c0191906158fb565b95945050505050565b80471015612c5a5760405162461bcd60e51b815260206004820152601d60248201527f416464726573733a20696e73756666696369656e742062616c616e6365000000604482015260640161062d565b6000826001600160a01b03168260405160006040518083038185875af1925050503d8060008114612ca7576040519150601f19603f3d011682016040523d82523d6000602084013e612cac565b606091505b5050905080610e395760405162461bcd60e51b815260206004820152603a60248201527f416464726573733a20756e61626c6520746f2073656e642076616c75652c207260448201527f6563697069656e74206d61792068617665207265766572746564000000000000606482015260840161062d565b604080516001808252818301909252600091602080830190803683375050600d5482519293506001600160a01b031691839150600090612d7357634e487b7160e01b600052603260045260246000fd5b6001600160a01b039092166020928302919091019091015260405162e1ed9760e51b8152733d9819210a31b4961b30ef54be2aed79b9c9cd3b90631c3db2e090612dc3903090859060040161556a565b600060405180830381600087803b158015612ddd57600080fd5b505af1158015610efb573d6000803e3d6000fd5b6000818152600183016020526040812054612e3857508154600181810184556000848152602080822090930184905584548482528286019093526040902091909155610887565b506000610887565b60008181526001830160205260408120548015612f53576000612e646001836158fb565b8554909150600090612e78906001906158fb565b9050818114612ef9576000866000018281548110612ea657634e487b7160e01b600052603260045260246000fd5b9060005260206000200154905080876000018481548110612ed757634e487b7160e01b600052603260045260246000fd5b6000918252602080832090910192909255918252600188019052604090208390555b8554869080612f1857634e487b7160e01b600052603160045260246000fd5b600190038181906000526020600020016000905590558560010160008681526020019081526020016000206000905560019350505050610887565b6000915050610887565b6000806000612f6d84600061371f565b91509150801561302d57612f8182826139df565b612f8b90836158fb565b915060005b600083118015612fa15750600a8111155b15612fcf57612fb1836001613af2565b612fbb90846158fb565b925080612fc78161593e565b915050612f90565b821561302b57600080612fe0610cb6565b915091506000600c5460001461300c57600c54612fff612710846158dc565b61300991906158bc565b90505b600061301882856158fb565b905080891115613026578098505b505050505b505b6040516370a0823160e01b81523060048201526000907f00000000000000000000000000000000000000000000000000000000000000006001600160a01b0316906370a082319060240160206040518083038186803b15801561308f57600080fd5b505afa1580156130a3573d6000803e3d6000fd5b505050506040513d601f19601f820116820180604052508101906130c79190615355565b600d54604051633af9e66960e01b81523060048201529192506001600160a01b031690633af9e66990602401602060405180830381600087803b15801561310d57600080fd5b505af1158015613121573d6000803e3d6000fd5b505050506040513d601f19601f820116820180604052508101906131459190615355565b85111561321c575060006131787f0000000000000000000000000000000000000000000000000000000000000000613456565b6040516370a0823160e01b81523060048201527f00000000000000000000000000000000000000000000000000000000000000006001600160a01b0316906370a082319060240160206040518083038186803b1580156131d757600080fd5b505afa1580156131eb573d6000803e3d6000fd5b505050506040513d601f19601f8201168201806040525081019061320f9190615355565b61321990866158fb565b94505b6132258561350a565b6040516370a0823160e01b81523060048201526000907f00000000000000000000000000000000000000000000000000000000000000006001600160a01b0316906370a082319060240160206040518083038186803b15801561328757600080fd5b505afa15801561329b573d6000803e3d6000fd5b505050506040513d601f19601f820116820180604052508101906132bf9190615355565b90506132cb82826158fb565b9695505050505050565b6000808390506000816001600160a01b031663295c39a56040518163ffffffff1660e01b815260040160206040518083038186803b15801561331657600080fd5b505afa15801561332a573d6000803e3d6000fd5b505050506040513d601f19601f8201168201806040525081019061334e9190615355565b90506000805b8281101561340d5760405163062bd3e960e01b8152600481018290526001600160a01b0385169063062bd3e99060240160206040518083038186803b15801561339c57600080fd5b505afa1580156133b0573d6000803e3d6000fd5b505050506040513d601f19601f820116820180604052508101906133d49190614eb6565b9150856001600160a01b0316826001600160a01b031614156133fb57935061088792505050565b806134058161593e565b915050613354565b5060405162461bcd60e51b815260206004820152601b60248201527f6e6f2d6d61726b657449642d666f756e642d666f722d746f6b656e0000000000604482015260640161062d565b61345e612d23565b6040516370a0823160e01b815230600482015260009073c00e94cb662c3520282e6f5717214004a7f26888906370a082319060240160206040518083038186803b1580156134ab57600080fd5b505afa1580156134bf573d6000803e3d6000fd5b505050506040513d601f19601f820116820180604052508101906134e39190615355565b90508015611cd957611cd973c00e94cb662c3520282e6f5717214004a7f268888383614090565b60001981141561365457600d546040516370a0823160e01b81523060048201526001600160a01b039091169063db006a759082906370a082319060240160206040518083038186803b15801561355f57600080fd5b505afa158015613573573d6000803e3d6000fd5b505050506040513d601f19601f820116820180604052508101906135979190615355565b6040518263ffffffff1660e01b81526004016135b591815260200190565b602060405180830381600087803b1580156135cf57600080fd5b505af11580156135e3573d6000803e3d6000fd5b505050506040513d601f19601f820116820180604052508101906136079190615355565b15611c3d5760405162461bcd60e51b815260206004820152601d60248201527f77697468647261772d66726f6d2d636f6d706f756e642d6661696c6564000000604482015260640161062d565b600d5460405163852a12e360e01b8152600481018390526001600160a01b039091169063852a12e390602401602060405180830381600087803b15801561369a57600080fd5b505af11580156136ae573d6000803e3d6000fd5b505050506040513d601f19601f820116820180604052508101906136d29190615355565b156106845760405162461bcd60e51b815260206004820152601d60248201527f77697468647261772d66726f6d2d636f6d706f756e642d6661696c6564000000604482015260640161062d565b600d54604051633af9e66960e01b8152306004820152600091829182916001600160a01b031690633af9e66990602401602060405180830381600087803b15801561376957600080fd5b505af115801561377d573d6000803e3d6000fd5b505050506040513d601f19601f820116820180604052508101906137a19190615355565b600d546040516395dd919360e01b81523060048201529192506000916001600160a01b03909116906395dd91939060240160206040518083038186803b1580156137ea57600080fd5b505afa1580156137fe573d6000803e3d6000fd5b505050506040513d601f19601f820116820180604052508101906138229190615355565b9050600b546000141561383c5792506001915061390d9050565b600061384882846158fb565b905060008661386e5787821161385f576000613869565b61386988836158fb565b613878565b61387888836158a4565b90506000600c5461271061388c91906158fb565b600c5461389990846158dc565b6138a391906158bc565b90506000600b546127106138b791906158fb565b600b546138c490856158dc565b6138ce91906158bc565b9050818511156138ed57600196506138e681866158fb565b9750613906565b80851015613906576000965061390385826158fb565b97505b5050505050505b9250929050565b600d5460405163140e25ad60e31b8152600481018390526001600160a01b039091169063a0712d6890602401602060405180830381600087803b15801561395a57600080fd5b505af115801561396e573d6000803e3d6000fd5b505050506040513d601f19601f820116820180604052508101906139929190615355565b156106845760405162461bcd60e51b815260206004820152601960248201527f737570706c792d746f2d636f6d706f756e642d6661696c656400000000000000604482015260640161062d565b600a546000908190610100900460ff1680156139fb5750600084115b15613a6c5760008484604051602001613a209291909182521515602082015260400190565b6040516020818303038152906040529050613a5c7f00000000000000000000000000000000000000000000000000000000000000008683614161565b9150613a6882866158fb565b9450505b600a5460ff168015613a7b5750825b8015613a875750600084115b156120105760008484604051602001613aac9291909182521515602082015260400190565b6040516020818303038152906040529050613ae87f0000000000000000000000000000000000000000000000000000000000000000868361446a565b612c0190836158a4565b6000806000613aff610cb6565b91509150806000148015613b105750835b15613b2057600092505050610887565b600d54604051638e8f294b60e01b81526001600160a01b039091166004820152600090733d9819210a31b4961b30ef54be2aed79b9c9cd3b90638e8f294b9060240160606040518083038186803b158015613b7a57600080fd5b505afa158015613b8e573d6000803e3d6000fd5b505050506040513d601f19601f82011682018060405250810190613bb29190615215565b509150508415613bcf57613bc88684848461480a565b9350613bde565b613bdb86848484614870565b93505b50505092915050565b600d5460405163073a938160e11b8152600481018390526001600160a01b0390911690630e75270290602401602060405180830381600087803b158015613c2d57600080fd5b505af1158015613c41573d6000803e3d6000fd5b505050506040513d601f19601f82011682018060405250810190613c659190615355565b156106845760405162461bcd60e51b815260206004820152601860248201527f72657061792d746f2d636f6d706f756e642d6661696c65640000000000000000604482015260640161062d565b600d5460405163317afabb60e21b8152600481018390526001600160a01b039091169063c5ebeaec90602401602060405180830381600087803b158015613cf857600080fd5b505af1158015613d0c573d6000803e3d6000fd5b505050506040513d601f19601f82011682018060405250810190613d309190615355565b156106845760405162461bcd60e51b815260206004820152601b60248201527f626f72726f772d66726f6d2d636f6d706f756e642d6661696c65640000000000604482015260640161062d565b606081600001805480602002602001604051908101604052809291908181526020018280548015613dcd57602002820191906000526020600020905b815481526020019060010190808311613db9575b50505050509050919050565b801580613e625750604051636eb1769f60e11b81523060048201526001600160a01b03838116602483015284169063dd62ed3e9060440160206040518083038186803b158015613e2857600080fd5b505afa158015613e3c573d6000803e3d6000fd5b505050506040513d601f19601f82011682018060405250810190613e609190615355565b155b613ecd5760405162461bcd60e51b815260206004820152603660248201527f5361666545524332303a20617070726f76652066726f6d206e6f6e2d7a65726f60448201527520746f206e6f6e2d7a65726f20616c6c6f77616e636560501b606482015260840161062d565b6040516001600160a01b038316602482015260448101829052610e3990849063095ea7b360e01b90606401612a31565b613f256001600160a01b038316731e0447b19bb6ecfdae1e4ae1694b0c3659614e4e83613dd9565b611cd973b53c1a33016b2dc2ff3653530bff1848a515c8c56001600160a01b0316630261bf8b6040518163ffffffff1660e01b815260040160206040518083038186803b158015613f7557600080fd5b505afa158015613f89573d6000803e3d6000fd5b505050506040513d601f19601f82011682018060405250810190613fad9190614eb6565b6001600160a01b0384169083613dd9565b6000614013826040518060400160405280602081526020017f5361666545524332303a206c6f772d6c6576656c2063616c6c206661696c6564815250856001600160a01b03166149529092919063ffffffff16565b805190915015610e39578080602001905181019061403191906151f9565b610e395760405162461bcd60e51b815260206004820152602a60248201527f5361666545524332303a204552433230206f7065726174696f6e20646964206e6044820152691bdd081cdd58d8d9595960b21b606482015260840161062d565b600060065461271014156140a5576001614153565b6040516358fac00360e01b81526001600160a01b0380861660048301526024820184905284166044820152610e10606482015261415390730f1f5a87f99f0918e6c81f16e59f3518698221ff906358fac0039060840160206040518083038186803b15801561411357600080fd5b505afa158015614127573d6000803e3d6000fd5b505050506040513d601f19601f8201168201806040525081019061414b9190615355565b600654614969565b90506125ff8484848461498c565b600a54600090610100900460ff166141bb5760405162461bcd60e51b815260206004820152601d60248201527f647964782d666c6173682d6c6f616e2d69732d6e6f742d616374697665000000604482015260640161062d565b6040516370a0823160e01b8152731e0447b19bb6ecfdae1e4ae1694b0c3659614e4e60048201526000906001600160a01b038616906370a082319060240160206040518083038186803b15801561421157600080fd5b505afa158015614225573d6000803e3d6000fd5b505050506040513d601f19601f820116820180604052508101906142499190615355565b905080841115614257578093505b60006142648560026158a4565b90506000848260405160200161427b92919061574f565b60408051808303601f19018152600380845260808401909252925060009190816020015b6142a7614de1565b81526020019060019003908161429f5790505090506142c860095488614b4d565b816000815181106142e957634e487b7160e01b600052603260045260246000fd5b60200260200101819052506142fd82614bd7565b8160018151811061431e57634e487b7160e01b600052603260045260246000fd5b602002602001018190525061433560095484614c45565b8160028151811061435657634e487b7160e01b600052603260045260246000fd5b6020908102919091010152604080516001808252818301909252600091816020015b604080518082019091526000808252602082015281526020019060019003908161437857505060408051808201825260008082526020918201528151808301909252308252600190820152909150816000815181106143e757634e487b7160e01b600052603260045260246000fd5b602090810291909101015260405163a67a6a4560e01b8152731e0447b19bb6ecfdae1e4ae1694b0c3659614e4e9063a67a6a459061442b908490869060040161561f565b600060405180830381600087803b15801561444557600080fd5b505af1158015614459573d6000803e3d6000fd5b50999b9a5050505050505050505050565b600a5460009060ff166144bf5760405162461bcd60e51b815260206004820152601d60248201527f616176652d666c6173682d6c6f616e2d69732d6e6f742d616374697665000000604482015260640161062d565b600073b53c1a33016b2dc2ff3653530bff1848a515c8c56001600160a01b0316630261bf8b6040518163ffffffff1660e01b815260040160206040518083038186803b15801561450e57600080fd5b505afa158015614522573d6000803e3d6000fd5b505050506040513d601f19601f820116820180604052508101906145469190614eb6565b6040516321f8a72160e01b8152600160f81b600482015290915060009073b53c1a33016b2dc2ff3653530bff1848a515c8c5906321f8a7219060240160206040518083038186803b15801561459a57600080fd5b505afa1580156145ae573d6000803e3d6000fd5b505050506040513d601f19601f820116820180604052508101906145d29190614eb6565b6040516335ea6a7560e01b81526001600160a01b0388811660048301529192506000918316906335ea6a75906024016101406040518083038186803b15801561461a57600080fd5b505afa15801561462e573d6000803e3d6000fd5b505050506040513d601f19601f8201168201806040525081019061465291906153f2565b505050505050505050905080861115614669578095505b6040805160018082528183019092526000916020808301908036833701905050905087816000815181106146ad57634e487b7160e01b600052603260045260246000fd5b6001600160a01b039290921660209283029190910190910152604080516001808252818301909252600091816020016020820280368337019050509050878160008151811061470c57634e487b7160e01b600052603260045260246000fd5b602090810291909101015260408051600180825281830190925260009181602001602082028036833701905050905060008160008151811061475e57634e487b7160e01b600052603260045260246000fd5b6020026020010181815250506001600a60026101000a81548160ff021916908315150217905550856001600160a01b031663ab9c4b5d30858585308e60006040518863ffffffff1660e01b81526004016147be979695949392919061558e565b600060405180830381600087803b1580156147d857600080fd5b505af11580156147ec573d6000803e3d6000fd5b5050600a805462ff00001916905550989a9950505050505050505050565b6000808215614833578261482685670de0b6b3a76400006158dc565b61483091906158bc565b90505b61483d81866158fb565b915083821061484a578391505b858210614855578591505b61485e8261350a565b61486782613be7565b50949350505050565b600080670de0b6b3a764000061488684876158dc565b61489091906158bc565b905061489c84826158fb565b91508582106148a9578591505b6148b282613cb2565b6040516370a0823160e01b8152306004820152614867907f00000000000000000000000000000000000000000000000000000000000000006001600160a01b0316906370a082319060240160206040518083038186803b15801561491557600080fd5b505afa158015614929573d6000803e3d6000fd5b505050506040513d601f19601f8201168201806040525081019061494d9190615355565b613914565b60606149618484600085614c80565b949350505050565b600061271061497883826158fb565b61498290856158dc565b61201091906158bc565b600354604051631d1f307960e31b81526001600160a01b038681166004830152858116602483015260448201859052600092839283929091169063e8f983c89060640160006040518083038186803b1580156149e757600080fd5b505afa1580156149fb573d6000803e3d6000fd5b505050506040513d6000823e601f3d908101601f19168201604052614a23919081019061509b565b9250925092508360001415614a3757600193505b8115614b4457600354604051636e74a6f760e01b8152600481018390526001600160a01b0390911690636e74a6f79060240160206040518083038186803b158015614a8157600080fd5b505afa158015614a95573d6000803e3d6000fd5b505050506040513d601f19601f82011682018060405250810190614ab99190614eb6565b6001600160a01b03166338ed173986868630426040518663ffffffff1660e01b8152600401614aec9594939291906157eb565b600060405180830381600087803b158015614b0657600080fd5b505af1158015614b1a573d6000803e3d6000fd5b505050506040513d6000823e601f3d908101601f19168201604052614b42919081019061514a565b505b50505050505050565b614b55614de1565b604080516101008101825260018152600060208083018290528351608081018552828152929384019291908201905b81526020016000815260200185815250815260200184815260200160008152602001306001600160a01b031681526020016000815260200160405180602001604052806000815250815250905092915050565b614bdf614de1565b6040805161010081018252600881526000602080830182905283516080810185528281529293840192919082019081526020016000815260006020918201819052918352820181905260408201819052306060830152608082015260a001929092525090565b614c4d614de1565b60408051610100810182526000808252602080830182905283516080810185526001815292938401929190820190614b84565b606082471015614ce15760405162461bcd60e51b815260206004820152602660248201527f416464726573733a20696e73756666696369656e742062616c616e636520666f6044820152651c8818d85b1b60d21b606482015260840161062d565b843b614d2f5760405162461bcd60e51b815260206004820152601d60248201527f416464726573733a2063616c6c20746f206e6f6e2d636f6e7472616374000000604482015260640161062d565b600080866001600160a01b03168587604051614d4b919061554e565b60006040518083038185875af1925050503d8060008114614d88576040519150601f19603f3d011682016040523d82523d6000602084013e614d8d565b606091505b5091509150614d9d828286614da8565b979650505050505050565b60608315614db7575081612010565b825115614dc75782518084602001fd5b8160405162461bcd60e51b815260040161062d9190615771565b604080516101008101825260008082526020820152908101614e25604080516080810190915260008082526020820190815260200160008152602001600081525090565b8152602001600081526020016000815260200160006001600160a01b0316815260200160008152602001606081525090565b60008083601f840112614e68578182fd5b50813567ffffffffffffffff811115614e7f578182fd5b6020830191508360208260051b850101111561390d57600080fd5b600060208284031215614eab578081fd5b8135612010816159ab565b600060208284031215614ec7578081fd5b8151612010816159ab565b60008060008385036080811215614ee7578283fd5b8435614ef2816159ab565b935060206040601f1983011215614f07578384fd5b614f116040615827565b915080860135614f20816159ab565b825260408601358183015290925060608501359067ffffffffffffffff821115614f48578283fd5b818601915086601f830112614f5b578283fd5b8135614f6e614f698261587c565b615827565b8181528883838601011115614f81578485fd5b818385018483013784838383010152809450505050509250925092565b600080600080600080600080600060a08a8c031215614fbb578485fd5b893567ffffffffffffffff80821115614fd2578687fd5b614fde8d838e01614e57565b909b50995060208c0135915080821115614ff6578687fd5b6150028d838e01614e57565b909950975060408c013591508082111561501a578687fd5b6150268d838e01614e57565b909750955060608c0135915061503b826159ab565b90935060808b01359080821115615050578384fd5b818c0191508c601f830112615063578384fd5b813581811115615071578485fd5b8d6020828501011115615082578485fd5b6020830194508093505050509295985092959850929598565b6000806000606084860312156150af578283fd5b835167ffffffffffffffff8111156150c5578384fd5b8401601f810186136150d5578384fd5b805160206150e5614f6983615858565b8083825282820191508285018a848660051b8801011115615104578889fd5b8895505b8486101561512f57805161511b816159ab565b835260019590950194918301918301615108565b50918801516040909801519199979850909695505050505050565b6000602080838503121561515c578182fd5b825167ffffffffffffffff811115615172578283fd5b8301601f81018513615182578283fd5b8051615190614f6982615858565b80828252848201915084840188868560051b87010111156151af578687fd5b8694505b838510156151d15780518352600194909401939185019185016151b3565b50979650505050505050565b6000602082840312156151ee578081fd5b8135612010816159c0565b60006020828403121561520a578081fd5b8151612010816159c0565b600080600060608486031215615229578081fd5b8351615234816159c0565b60208501516040860151919450925061524c816159c0565b809150509250925092565b600080600080600080600080610100898b031215615273578182fd5b885161527e816159c0565b809850506020890151965060408901519550606089015194506080890151935060a0890151925060c0890151915060e089015190509295985092959890939650565b600080604083850312156152d2578182fd5b825167ffffffffffffffff8111156152e8578283fd5b8301601f810185136152f8578283fd5b8051615306614f698261587c565b81815286602083850101111561531a578485fd5b61532b826020830160208601615912565b60209590950151949694955050505050565b60006020828403121561534e578081fd5b5035919050565b600060208284031215615366578081fd5b5051919050565b6000806040838503121561537f578182fd5b825191506020830151615391816159c0565b809150509250929050565b600080604083850312156153ae578182fd5b50508035926020909101359150565b600080600080608085870312156153d2578182fd5b505082516020840151604085015160609095015191969095509092509050565b6000806000806000806000806000806101408b8d031215615411578384fd5b8a51995060208b0151985060408b0151975060608b0151965060808b0151955060a08b0151945060c08b0151935060e08b015192506101008b015191506101208b015164ffffffffff81168114615466578182fd5b809150509295989b9194979a5092959850565b6000815180845260208085019450808401835b838110156154b15781516001600160a01b03168752958201959082019060010161548c565b509495945050505050565b6000815180845260208085019450808401835b838110156154b1578151875295820195908201906001016154cf565b60008151808452615503816020860160208601615912565b601f01601f19169290920160200192915050565b805115158252602081015161552b8161599b565b6020830152604081015161553e8161599b565b6040830152606090810151910152565b60008251615560818460208701615912565b9190910192915050565b6001600160a01b038316815260406020820181905260009061496190830184615479565b600060018060a01b03808a16835260e060208401526155b060e084018a615479565b83810360408501526155c2818a6154bc565b905083810360608501526155d681896154bc565b9050818716608085015283810360a08501526155f281876154eb565b9250505061ffff831660c083015298975050505050505050565b6000602082526120106020830184615479565b6040808252835182820181905260009190606090818501906020808901865b8381101561566c57815180516001600160a01b0316865283015183860152938601939082019060010161563e565b50508683038188015287518084528184019250600581901b84018201898301885b8381101561573e57601f1987840301865281516101608151600981106156b5576156b561596f565b855281870151878601528a8201516156cf8c870182615517565b508982015160c081818801526080840151915060e0828189015260a085015192506157066101008901846001600160a01b03169052565b90840151610120880152909201516101408601829052915061572a818601836154eb565b97870197945050509084019060010161568d565b50909b9a5050505050505050505050565b60006040825261576260408301856154eb565b90508260208301529392505050565b60006020825261201060208301846154eb565b60208082526016908201527531b0b63632b916b4b996b737ba16b096b5b2b2b832b960511b604082015260600190565b6020808252601a908201527f63616c6c65722d69732d6e6f742d7468652d676f7665726e6f72000000000000604082015260600190565b600086825285602083015260a0604083015261580a60a0830186615479565b6001600160a01b0394909416606083015250608001529392505050565b604051601f8201601f1916810167ffffffffffffffff8111828210171561585057615850615985565b604052919050565b600067ffffffffffffffff82111561587257615872615985565b5060051b60200190565b600067ffffffffffffffff82111561589657615896615985565b50601f01601f191660200190565b600082198211156158b7576158b7615959565b500190565b6000826158d757634e487b7160e01b81526012600452602481fd5b500490565b60008160001904831182151516156158f6576158f6615959565b500290565b60008282101561590d5761590d615959565b500390565b60005b8381101561592d578181015183820152602001615915565b838111156125ff5750506000910152565b600060001982141561595257615952615959565b5060010190565b634e487b7160e01b600052601160045260246000fd5b634e487b7160e01b600052602160045260246000fd5b634e487b7160e01b600052604160045260246000fd5b600281106106845761068461596f565b6001600160a01b038116811461068457600080fd5b801515811461068457600080fdfea264697066735822122076362b47c7457590a1607a6b0d6497904fa419e840373d6fd691878d3ee9912a64736f6c63430008030033",
  "devdoc": {
    "kind": "dev",
    "methods": {
      "addKeeper(address)": {
        "params": {
          "_keeperAddress": "keeper address to add."
        }
      },
      "approveToken()": {
        "details": "Approve all required tokens"
      },
      "callFunction(address,(address,uint256),bytes)": {
        "details": "DyDx calls this function after doing flash loan"
      },
      "executeOperation(address[],uint256[],uint256[],address,bytes)": {
        "details": "Aave will call this function after doing flash loan"
      },
      "migrate(address)": {
        "details": "_beforeMigration hook can be implemented in child strategy to do extra steps.",
        "params": {
          "_newStrategy": "Address of new strategy"
        }
      },
      "rebalance()": {
        "details": "Rebalance profit, loss and investment of this strategy"
      },
      "removeKeeper(address)": {
        "params": {
          "_keeperAddress": "keeper address to remove."
        }
      },
      "sweepERC20(address)": {
        "details": "sweep given token to feeCollector of strategy",
        "params": {
          "_fromToken": "token address to sweep"
        }
      },
      "totalValue()": {
        "details": "Compound calculate COMP accrued and store it when user interact with Compound contracts, i.e. deposit, withdraw or transfer tokens. So compAccrued() will return stored COMP accrued amount, which is olderFor up to date value check totalValueCurrent()"
      },
      "totalValueCurrent()": {
        "details": "Report total value in collateral tokenClaimed COMP will stay in strategy until next rebalance"
      },
      "updateBorrowRatio(uint256,uint256)": {
        "details": "It is possible to set 0 as _minBorrowRatio to not borrow anything",
        "params": {
          "_maxBorrowRatio": "Maximum % we want to borrow",
          "_minBorrowRatio": "Minimum % we want to borrow"
        }
      },
      "updateFeeCollector(address)": {
        "params": {
          "_feeCollector": "fee collector address"
        }
      },
      "updateSwapManager(address)": {
        "params": {
          "_swapManager": "swap manager address"
        }
      },
      "withdraw(uint256)": {
        "details": "Withdraw collateral token from lending pool.",
        "params": {
          "_amount": "Amount of collateral token"
        }
      }
    },
    "title": "Deposit LINK in Compound and also borrow LINK based on leverage condition",
    "version": 1
  },
  "userdoc": {
    "kind": "user",
    "methods": {
      "addKeeper(address)": {
        "notice": "Add given address in keepers list."
      },
      "currentBorrowRatio()": {
        "notice": "Current borrow ratio, calculated as current borrow divide by max allowed borrow Return value is based on basis points, i.e. 7500 = 75% ratio"
      },
      "getPosition()": {
        "notice": "Return supply and borrow position. Position may return few block old value"
      },
      "isLossMaking()": {
        "notice": "Calculate current position using claimed COMP and current borrow."
      },
      "isReservedToken(address)": {
        "notice": "Check whether given token is reserved or not. Reserved tokens are not allowed to sweep."
      },
      "keepers()": {
        "notice": "Return list of keepers"
      },
      "migrate(address)": {
        "notice": "Migrate all asset and vault ownership,if any, to new strategy"
      },
      "removeKeeper(address)": {
        "notice": "Remove given address from keepers list."
      },
      "token()": {
        "notice": "Returns address of token correspond to collateral token"
      },
      "totalValue()": {
        "notice": "Calculate total value using COMP accrued, supply and borrow position"
      },
      "totalValueCurrent()": {
        "notice": "Calculate total value based on COMP claimed, supply and borrow position"
      },
      "updateBorrowRatio(uint256,uint256)": {
        "notice": "Update upper and lower borrow ratio"
      },
      "updateFeeCollector(address)": {
        "notice": "Update fee collector"
      },
      "updateSwapManager(address)": {
        "notice": "Update swap manager address"
      }
    },
    "version": 1
  },
  "storageLayout": {
    "storage": [
      {
        "astId": 14295,
        "contract": "contracts/strategies/compound/CompoundLeverageStrategyLINK.sol:CompoundLeverageStrategyLINK",
        "label": "WETH",
        "offset": 0,
        "slot": "0",
        "type": "t_address"
      },
      {
        "astId": 14300,
        "contract": "contracts/strategies/compound/CompoundLeverageStrategyLINK.sol:CompoundLeverageStrategyLINK",
        "label": "receiptToken",
        "offset": 0,
        "slot": "1",
        "type": "t_address"
      },
      {
        "astId": 14306,
        "contract": "contracts/strategies/compound/CompoundLeverageStrategyLINK.sol:CompoundLeverageStrategyLINK",
        "label": "feeCollector",
        "offset": 0,
        "slot": "2",
        "type": "t_address"
      },
      {
        "astId": 14309,
        "contract": "contracts/strategies/compound/CompoundLeverageStrategyLINK.sol:CompoundLeverageStrategyLINK",
        "label": "swapManager",
        "offset": 0,
        "slot": "3",
        "type": "t_contract(ISwapManager)5259"
      },
      {
        "astId": 14312,
        "contract": "contracts/strategies/compound/CompoundLeverageStrategyLINK.sol:CompoundLeverageStrategyLINK",
        "label": "oraclePeriod",
        "offset": 0,
        "slot": "4",
        "type": "t_uint256"
      },
      {
        "astId": 14315,
        "contract": "contracts/strategies/compound/CompoundLeverageStrategyLINK.sol:CompoundLeverageStrategyLINK",
        "label": "oracleRouterIdx",
        "offset": 0,
        "slot": "5",
        "type": "t_uint256"
      },
      {
        "astId": 14318,
        "contract": "contracts/strategies/compound/CompoundLeverageStrategyLINK.sol:CompoundLeverageStrategyLINK",
        "label": "swapSlippage",
        "offset": 0,
        "slot": "6",
        "type": "t_uint256"
      },
      {
        "astId": 14321,
        "contract": "contracts/strategies/compound/CompoundLeverageStrategyLINK.sol:CompoundLeverageStrategyLINK",
        "label": "_keepers",
        "offset": 0,
        "slot": "7",
        "type": "t_struct(AddressSet)4299_storage"
      },
      {
        "astId": 3091,
        "contract": "contracts/strategies/compound/CompoundLeverageStrategyLINK.sol:CompoundLeverageStrategyLINK",
        "label": "dyDxMarketId",
        "offset": 0,
        "slot": "9",
        "type": "t_uint256"
      },
      {
        "astId": 3097,
        "contract": "contracts/strategies/compound/CompoundLeverageStrategyLINK.sol:CompoundLeverageStrategyLINK",
        "label": "isAaveActive",
        "offset": 0,
        "slot": "10",
        "type": "t_bool"
      },
      {
        "astId": 3100,
        "contract": "contracts/strategies/compound/CompoundLeverageStrategyLINK.sol:CompoundLeverageStrategyLINK",
        "label": "isDyDxActive",
        "offset": 1,
        "slot": "10",
        "type": "t_bool"
      },
      {
        "astId": 3170,
        "contract": "contracts/strategies/compound/CompoundLeverageStrategyLINK.sol:CompoundLeverageStrategyLINK",
        "label": "awaitingFlash",
        "offset": 2,
        "slot": "10",
        "type": "t_bool"
      },
      {
        "astId": 19672,
        "contract": "contracts/strategies/compound/CompoundLeverageStrategyLINK.sol:CompoundLeverageStrategyLINK",
        "label": "minBorrowRatio",
        "offset": 0,
        "slot": "11",
        "type": "t_uint256"
      },
      {
        "astId": 19675,
        "contract": "contracts/strategies/compound/CompoundLeverageStrategyLINK.sol:CompoundLeverageStrategyLINK",
        "label": "maxBorrowRatio",
        "offset": 0,
        "slot": "12",
        "type": "t_uint256"
      },
      {
        "astId": 19678,
        "contract": "contracts/strategies/compound/CompoundLeverageStrategyLINK.sol:CompoundLeverageStrategyLINK",
        "label": "cToken",
        "offset": 0,
        "slot": "13",
        "type": "t_contract(CToken)5389"
      }
    ],
    "types": {
      "t_address": {
        "encoding": "inplace",
        "label": "address",
        "numberOfBytes": "20"
      },
      "t_array(t_bytes32)dyn_storage": {
        "base": "t_bytes32",
        "encoding": "dynamic_array",
        "label": "bytes32[]",
        "numberOfBytes": "32"
      },
      "t_bool": {
        "encoding": "inplace",
        "label": "bool",
        "numberOfBytes": "1"
      },
      "t_bytes32": {
        "encoding": "inplace",
        "label": "bytes32",
        "numberOfBytes": "32"
      },
      "t_contract(CToken)5389": {
        "encoding": "inplace",
        "label": "contract CToken",
        "numberOfBytes": "20"
      },
      "t_contract(ISwapManager)5259": {
        "encoding": "inplace",
        "label": "contract ISwapManager",
        "numberOfBytes": "20"
      },
      "t_mapping(t_bytes32,t_uint256)": {
        "encoding": "mapping",
        "key": "t_bytes32",
        "label": "mapping(bytes32 => uint256)",
        "numberOfBytes": "32",
        "value": "t_uint256"
      },
      "t_struct(AddressSet)4299_storage": {
        "encoding": "inplace",
        "label": "struct EnumerableSet.AddressSet",
        "members": [
          {
            "astId": 4298,
            "contract": "contracts/strategies/compound/CompoundLeverageStrategyLINK.sol:CompoundLeverageStrategyLINK",
            "label": "_inner",
            "offset": 0,
            "slot": "0",
            "type": "t_struct(Set)3998_storage"
          }
        ],
        "numberOfBytes": "64"
      },
      "t_struct(Set)3998_storage": {
        "encoding": "inplace",
        "label": "struct EnumerableSet.Set",
        "members": [
          {
            "astId": 3993,
            "contract": "contracts/strategies/compound/CompoundLeverageStrategyLINK.sol:CompoundLeverageStrategyLINK",
            "label": "_values",
            "offset": 0,
            "slot": "0",
            "type": "t_array(t_bytes32)dyn_storage"
          },
          {
            "astId": 3997,
            "contract": "contracts/strategies/compound/CompoundLeverageStrategyLINK.sol:CompoundLeverageStrategyLINK",
            "label": "_indexes",
            "offset": 0,
            "slot": "1",
            "type": "t_mapping(t_bytes32,t_uint256)"
          }
        ],
        "numberOfBytes": "64"
      },
      "t_uint256": {
        "encoding": "inplace",
        "label": "uint256",
        "numberOfBytes": "32"
      }
    }
  }
}