{
  "address": "0x0827F18a1fAD688C5C720FC27Ef0cC00D6DAd19a",
  "abi": [
    {
      "inputs": [
        {
          "internalType": "address",
          "name": "_pool",
          "type": "address"
        },
        {
          "internalType": "address",
          "name": "_cm",
          "type": "address"
        },
        {
          "internalType": "address",
          "name": "_swapManager",
          "type": "address"
        },
        {
          "internalType": "address",
          "name": "_vPool",
          "type": "address"
        },
        {
          "internalType": "bytes32",
          "name": "_collateralType",
          "type": "bytes32"
        },
        {
          "internalType": "string",
          "name": "_name",
          "type": "string"
        }
      ],
      "stateMutability": "nonpayable",
      "type": "constructor"
    },
    {
      "anonymous": false,
      "inputs": [
        {
          "indexed": true,
          "internalType": "address",
          "name": "previousFeeCollector",
          "type": "address"
        },
        {
          "indexed": true,
          "internalType": "address",
          "name": "newFeeCollector",
          "type": "address"
        }
      ],
      "name": "UpdatedFeeCollector",
      "type": "event"
    },
    {
      "anonymous": false,
      "inputs": [
        {
          "indexed": false,
          "internalType": "uint256",
          "name": "oldPeriod",
          "type": "uint256"
        },
        {
          "indexed": false,
          "internalType": "uint256",
          "name": "newPeriod",
          "type": "uint256"
        },
        {
          "indexed": false,
          "internalType": "uint256",
          "name": "oldRouterIdx",
          "type": "uint256"
        },
        {
          "indexed": false,
          "internalType": "uint256",
          "name": "newRouterIdx",
          "type": "uint256"
        }
      ],
      "name": "UpdatedOracleConfig",
      "type": "event"
    },
    {
      "anonymous": false,
      "inputs": [
        {
          "indexed": true,
          "internalType": "address",
          "name": "previousSwapManager",
          "type": "address"
        },
        {
          "indexed": true,
          "internalType": "address",
          "name": "newSwapManager",
          "type": "address"
        }
      ],
      "name": "UpdatedSwapManager",
      "type": "event"
    },
    {
      "anonymous": false,
      "inputs": [
        {
          "indexed": false,
          "internalType": "uint256",
          "name": "oldSwapSlippage",
          "type": "uint256"
        },
        {
          "indexed": false,
          "internalType": "uint256",
          "name": "newSwapSlippage",
          "type": "uint256"
        }
      ],
      "name": "UpdatedSwapSlippage",
      "type": "event"
    },
    {
      "inputs": [],
      "name": "NAME",
      "outputs": [
        {
          "internalType": "string",
          "name": "",
          "type": "string"
        }
      ],
      "stateMutability": "view",
      "type": "function"
    },
    {
      "inputs": [],
      "name": "VERSION",
      "outputs": [
        {
          "internalType": "string",
          "name": "",
          "type": "string"
        }
      ],
      "stateMutability": "view",
      "type": "function"
    },
    {
      "inputs": [
        {
          "internalType": "address",
          "name": "_keeperAddress",
          "type": "address"
        }
      ],
      "name": "addKeeper",
      "outputs": [],
      "stateMutability": "nonpayable",
      "type": "function"
    },
    {
      "inputs": [],
      "name": "approveToken",
      "outputs": [],
      "stateMutability": "nonpayable",
      "type": "function"
    },
    {
      "inputs": [],
      "name": "cm",
      "outputs": [
        {
          "internalType": "contract ICollateralManager",
          "name": "",
          "type": "address"
        }
      ],
      "stateMutability": "view",
      "type": "function"
    },
    {
      "inputs": [],
      "name": "collateralToken",
      "outputs": [
        {
          "internalType": "contract IERC20",
          "name": "",
          "type": "address"
        }
      ],
      "stateMutability": "view",
      "type": "function"
    },
    {
      "inputs": [],
      "name": "collateralType",
      "outputs": [
        {
          "internalType": "bytes32",
          "name": "",
          "type": "bytes32"
        }
      ],
      "stateMutability": "view",
      "type": "function"
    },
    {
      "inputs": [
        {
          "internalType": "uint256",
          "name": "_amount",
          "type": "uint256"
        }
      ],
      "name": "convertFrom18",
      "outputs": [
        {
          "internalType": "uint256",
          "name": "",
          "type": "uint256"
        }
      ],
      "stateMutability": "view",
      "type": "function"
    },
    {
      "inputs": [],
      "name": "createVault",
      "outputs": [],
      "stateMutability": "nonpayable",
      "type": "function"
    },
    {
      "inputs": [],
      "name": "decimalConversionFactor",
      "outputs": [
        {
          "internalType": "uint256",
          "name": "",
          "type": "uint256"
        }
      ],
      "stateMutability": "view",
      "type": "function"
    },
    {
      "inputs": [],
      "name": "feeCollector",
      "outputs": [
        {
          "internalType": "address",
          "name": "",
          "type": "address"
        }
      ],
      "stateMutability": "view",
      "type": "function"
    },
    {
      "inputs": [],
      "name": "highWater",
      "outputs": [
        {
          "internalType": "uint256",
          "name": "",
          "type": "uint256"
        }
      ],
      "stateMutability": "view",
      "type": "function"
    },
    {
      "inputs": [
        {
          "internalType": "address",
          "name": "_token",
          "type": "address"
        }
      ],
      "name": "isReservedToken",
      "outputs": [
        {
          "internalType": "bool",
          "name": "",
          "type": "bool"
        }
      ],
      "stateMutability": "view",
      "type": "function"
    },
    {
      "inputs": [],
      "name": "isUnderwater",
      "outputs": [
        {
          "internalType": "bool",
          "name": "",
          "type": "bool"
        }
      ],
      "stateMutability": "view",
      "type": "function"
    },
    {
      "inputs": [],
      "name": "keepers",
      "outputs": [
        {
          "internalType": "address[]",
          "name": "",
          "type": "address[]"
        }
      ],
      "stateMutability": "view",
      "type": "function"
    },
    {
      "inputs": [],
      "name": "lowWater",
      "outputs": [
        {
          "internalType": "uint256",
          "name": "",
          "type": "uint256"
        }
      ],
      "stateMutability": "view",
      "type": "function"
    },
    {
      "inputs": [
        {
          "internalType": "address",
          "name": "_newStrategy",
          "type": "address"
        }
      ],
      "name": "migrate",
      "outputs": [],
      "stateMutability": "nonpayable",
      "type": "function"
    },
    {
      "inputs": [],
      "name": "oraclePeriod",
      "outputs": [
        {
          "internalType": "uint256",
          "name": "",
          "type": "uint256"
        }
      ],
      "stateMutability": "view",
      "type": "function"
    },
    {
      "inputs": [],
      "name": "oracleRouterIdx",
      "outputs": [
        {
          "internalType": "uint256",
          "name": "",
          "type": "uint256"
        }
      ],
      "stateMutability": "view",
      "type": "function"
    },
    {
      "inputs": [],
      "name": "pool",
      "outputs": [
        {
          "internalType": "address",
          "name": "",
          "type": "address"
        }
      ],
      "stateMutability": "view",
      "type": "function"
    },
    {
      "inputs": [],
      "name": "rebalance",
      "outputs": [],
      "stateMutability": "nonpayable",
      "type": "function"
    },
    {
      "inputs": [],
      "name": "receiptToken",
      "outputs": [
        {
          "internalType": "address",
          "name": "",
          "type": "address"
        }
      ],
      "stateMutability": "view",
      "type": "function"
    },
    {
      "inputs": [
        {
          "internalType": "address",
          "name": "_keeperAddress",
          "type": "address"
        }
      ],
      "name": "removeKeeper",
      "outputs": [],
      "stateMutability": "nonpayable",
      "type": "function"
    },
    {
      "inputs": [],
      "name": "resurface",
      "outputs": [],
      "stateMutability": "nonpayable",
      "type": "function"
    },
    {
      "inputs": [],
      "name": "setupOracles",
      "outputs": [],
      "stateMutability": "nonpayable",
      "type": "function"
    },
    {
      "inputs": [],
      "name": "swapManager",
      "outputs": [
        {
          "internalType": "contract ISwapManager",
          "name": "",
          "type": "address"
        }
      ],
      "stateMutability": "view",
      "type": "function"
    },
    {
      "inputs": [],
      "name": "swapSlippage",
      "outputs": [
        {
          "internalType": "uint256",
          "name": "",
          "type": "uint256"
        }
      ],
      "stateMutability": "view",
      "type": "function"
    },
    {
      "inputs": [
        {
          "internalType": "address",
          "name": "_fromToken",
          "type": "address"
        }
      ],
      "name": "sweepERC20",
      "outputs": [],
      "stateMutability": "nonpayable",
      "type": "function"
    },
    {
      "inputs": [],
      "name": "token",
      "outputs": [
        {
          "internalType": "address",
          "name": "",
          "type": "address"
        }
      ],
      "stateMutability": "view",
      "type": "function"
    },
    {
      "inputs": [],
      "name": "totalValue",
      "outputs": [
        {
          "internalType": "uint256",
          "name": "_totalValue",
          "type": "uint256"
        }
      ],
      "stateMutability": "view",
      "type": "function"
    },
    {
      "inputs": [],
      "name": "totalValueCurrent",
      "outputs": [
        {
          "internalType": "uint256",
          "name": "",
          "type": "uint256"
        }
      ],
      "stateMutability": "nonpayable",
      "type": "function"
    },
    {
      "inputs": [
        {
          "internalType": "uint256",
          "name": "_highWater",
          "type": "uint256"
        },
        {
          "internalType": "uint256",
          "name": "_lowWater",
          "type": "uint256"
        }
      ],
      "name": "updateBalancingFactor",
      "outputs": [],
      "stateMutability": "nonpayable",
      "type": "function"
    },
    {
      "inputs": [
        {
          "internalType": "address",
          "name": "_feeCollector",
          "type": "address"
        }
      ],
      "name": "updateFeeCollector",
      "outputs": [],
      "stateMutability": "nonpayable",
      "type": "function"
    },
    {
      "inputs": [
        {
          "internalType": "uint256",
          "name": "_newPeriod",
          "type": "uint256"
        },
        {
          "internalType": "uint256",
          "name": "_newRouterIdx",
          "type": "uint256"
        }
      ],
      "name": "updateOracleConfig",
      "outputs": [],
      "stateMutability": "nonpayable",
      "type": "function"
    },
    {
      "inputs": [
        {
          "internalType": "address",
          "name": "_swapManager",
          "type": "address"
        }
      ],
      "name": "updateSwapManager",
      "outputs": [],
      "stateMutability": "nonpayable",
      "type": "function"
    },
    {
      "inputs": [
        {
          "internalType": "uint256",
          "name": "_newSwapSlippage",
          "type": "uint256"
        }
      ],
      "name": "updateSwapSlippage",
      "outputs": [],
      "stateMutability": "nonpayable",
      "type": "function"
    },
    {
      "inputs": [],
      "name": "vaultNum",
      "outputs": [
        {
          "internalType": "uint256",
          "name": "",
          "type": "uint256"
        }
      ],
      "stateMutability": "view",
      "type": "function"
    },
    {
      "inputs": [
        {
          "internalType": "uint256",
          "name": "_amount",
          "type": "uint256"
        }
      ],
      "name": "withdraw",
      "outputs": [],
      "stateMutability": "nonpayable",
      "type": "function"
    }
  ],
  "transactionHash": "0x645493152aa3f80d66c887d3332fcf93d2712ac1de5541b377084293d9728bc5",
  "args": [
    "0xef4F4604106de23CDadfEAE08fcC34602cB475C1",
    "0xaBC64889601F01e7B26277Ef8756250d6ABf8c18",
    "0xe382d9f2394A359B01006faa8A1864b8a60d2710",
    "0x0538C8bAc84E95A9dF8aC10Aad17DbE81b9E36ee",
    "0x4c494e4b2d410000000000000000000000000000000000000000000000000000",
    "VesperMakerStrategyLINK"
  ],
  "solcInputHash": "9538cd455de8fb8808e4539979965a68",
  "bytecode": "0x610100604052600080546001600160a01b03191673c02aaa39b223fe8d0a0e5c4f27ead9083c756cc2178155610e106004556005556127106006553480156200004757600080fd5b5060405162004e4c38038062004e4c8339810160408190526200006a9162000601565b8585858585858584846001600160a01b038316620000cf5760405162461bcd60e51b815260206004820152601460248201527f706f6f6c2d616464726573732d69732d7a65726f00000000000000000000000060448201526064015b60405180910390fd5b6001600160a01b0382166200011c5760405162461bcd60e51b8152602060048201526012602482015271736d2d616464726573732d69732d7a65726f60701b6044820152606401620000c6565b600380546001600160a01b0319166001600160a01b0384811691909117909155606084901b6001600160601b03191660a05260408051637e062a3560e11b815290519185169163fc0c546a91600480820192602092909190829003018186803b1580156200018957600080fd5b505afa1580156200019e573d6000803e3d6000fd5b505050506040513d601f19601f82011682018060405250810190620001c4919062000739565b60601b6001600160601b031916608052600180546001600160a01b0319166001600160a01b03831617905562000211620001fb3390565b6007620004e960201b62001d321790919060201c565b620002535760405162461bcd60e51b81526020600482015260116024820152701859190b5ad9595c195c8b59985a5b1959607a1b6044820152606401620000c6565b5050506001600160a01b038516620002a35760405162461bcd60e51b8152602060048201526012602482015271636d2d616464726573732d69732d7a65726f60701b6044820152606401620000c6565b8160e08181525050846001600160a01b031660c0816001600160a01b031660601b815250506000866001600160a01b031663fc0c546a6040518163ffffffff1660e01b815260040160206040518083038186803b1580156200030457600080fd5b505afa15801562000319573d6000803e3d6000fd5b505050506040513d601f19601f820116820180604052508101906200033f919062000739565b6001600160a01b031663313ce5676040518163ffffffff1660e01b815260040160206040518083038186803b1580156200037857600080fd5b505afa1580156200038d573d6000803e3d6000fd5b505050506040513d601f19601f82011682018060405250810190620003b391906200075f565b60ff169050620003c5816012620008b7565b620003d290600a620007cf565b600c558151620003ea9060099060208501906200055b565b5050505050505050736b175474e89094c44da98b954eedeac495271d0f6001600160a01b0316836001600160a01b031663fc0c546a6040518163ffffffff1660e01b815260040160206040518083038186803b1580156200044a57600080fd5b505afa1580156200045f573d6000803e3d6000fd5b505050506040513d601f19601f8201168201806040525081019062000485919062000739565b6001600160a01b031614620004dd5760405162461bcd60e51b815260206004820152601460248201527f6e6f742d612d76616c69642d6461692d706f6f6c0000000000000000000000006044820152606401620000c6565b50505050505062000953565b600062000500836001600160a01b03841662000509565b90505b92915050565b6000818152600183016020526040812054620005525750815460018181018455600084815260208082209093018490558454848252828601909352604090209190915562000503565b50600062000503565b8280546200056990620008d1565b90600052602060002090601f0160209004810192826200058d5760008555620005d8565b82601f10620005a857805160ff1916838001178555620005d8565b82800160010185558215620005d8579182015b82811115620005d8578251825591602001919060010190620005bb565b50620005e6929150620005ea565b5090565b5b80821115620005e65760008155600101620005eb565b60008060008060008060c087890312156200061a578182fd5b865162000627816200093a565b809650506020808801516200063c816200093a565b60408901519096506200064f816200093a565b606089015190955062000662816200093a565b608089015160a08a015191955093506001600160401b038082111562000686578384fd5b818a0191508a601f8301126200069a578384fd5b815181811115620006af57620006af62000924565b604051601f8201601f19908116603f01168101908382118183101715620006da57620006da62000924565b816040528281528d86848701011115620006f2578687fd5b8693505b82841015620007155784840186015181850187015292850192620006f6565b828411156200072657868684830101525b8096505050505050509295509295509295565b6000602082840312156200074b578081fd5b815162000758816200093a565b9392505050565b60006020828403121562000771578081fd5b815160ff8116811462000758578182fd5b80825b6001808611620007965750620007c6565b818704821115620007ab57620007ab6200090e565b80861615620007b957918102915b9490941c93800262000785565b94509492505050565b6000620005006000198484600082620007eb5750600162000758565b81620007fa5750600062000758565b81600181146200081357600281146200081e5762000852565b600191505062000758565b60ff8411156200083257620008326200090e565b6001841b9150848211156200084b576200084b6200090e565b5062000758565b5060208310610133831016604e8410600b84101617156200088a575081810a838111156200088457620008846200090e565b62000758565b62000899848484600162000782565b808604821115620008ae57620008ae6200090e565b02949350505050565b600082821015620008cc57620008cc6200090e565b500390565b600181811c90821680620008e657607f821691505b602082108114156200090857634e487b7160e01b600052602260045260246000fd5b50919050565b634e487b7160e01b600052601160045260246000fd5b634e487b7160e01b600052604160045260246000fd5b6001600160a01b03811681146200095057600080fd5b50565b60805160601c60a05160601c60c05160601c60e05161435862000af46000396000818161049c01528181610c5301526129630152600081816103800152818161076a0152818161094901528181610c79015281816118de01528181611a5701528181611f8b015281816121060152818161228601528181612614015281816126a101528181612a5f01528181612dd601528181612ed0015281816130ee0152818161316b015281816131b80152818161331f0152818161337301526138930152600081816102510152818161051c0152818161063801528181610827015281816109d201528181610b8501528181610cff01528181610eaf01528181610fee0152818161124d015281816113ca01528181611493015281816116e901528181611d85015281816123880152818161241b015281816124b801526133c70152600081816103fd0152818161163b015281816116c0015281816119a201528181611b6201528181611daf01528181612031015281816125740152818161300a0152818161304601528181613351015281816133a5015261350401526143586000f3fe608060405234801561001057600080fd5b50600436106102325760003560e01c806399b71d5c11610130578063ce5494bb116100b8578063e824600f1161007c578063e824600f14610497578063ec78e832146104be578063fb589de2146104d1578063fc0c546a146104e4578063ffa1ad74146104f557610232565b8063ce5494bb1461044e578063d2c35ce814610461578063d4c3eea014610474578063e00af4a71461047c578063e645c2021461048f57610232565b8063b09e8797116100ff578063b09e8797146103ef578063b2016bd4146103f8578063b442bb231461041f578063c415b95c14610432578063cd2d7ebe1461044557610232565b806399b71d5c146103b7578063a3f4df7e146103bf578063a923b2a6146103d4578063aa101886146103e757610232565b806342189c8f116101be578063709d039d11610182578063709d039d146103575780637d7c2a1c1461036a5780638fe91ffb14610372578063931816201461037b578063951dc22c146103a257610232565b806342189c8f146102fe578063440d7248146103075780634c36fad7146103295780635d12928b1461033c57806367f5e4b81461034457610232565b80632e1a7d4d116102055780632e1a7d4d146102b05780632ecd89d4146102c35780633e918261146102db5780634032b72b146102e3578063415eea1b146102f657610232565b806314ae9f2e1461023757806316f0115b1461024c5780631aedeabe1461029057806325afda83146102a7575b600080fd5b61024a610245366004613e46565b61051a565b005b6102737f000000000000000000000000000000000000000000000000000000000000000081565b6040516001600160a01b0390911681526020015b60405180910390f35b61029960065481565b604051908152602001610287565b610299600b5481565b61024a6102be366004613fdc565b610635565b6102cb6106b2565b6040519015158152602001610287565b61024a6107f2565b61024a6102f1366004613e46565b610825565b610299610931565b61029960045481565b6102cb610315366004613e46565b6001546001600160a01b0390811691161490565b61024a610337366004613e46565b6109d0565b61024a610b83565b61024a610352366004613fdc565b610cfd565b600354610273906001600160a01b031681565b61024a610e49565b610299600c5481565b6102737f000000000000000000000000000000000000000000000000000000000000000081565b6103aa610f18565b60405161028791906140b3565b61024a610f24565b6103c7610f5e565b60405161028791906140c6565b61024a6103e2366004613ff4565b610fec565b61024a611221565b610299600a5481565b6102737f000000000000000000000000000000000000000000000000000000000000000081565b61024a61042d366004613ff4565b61124b565b600254610273906001600160a01b031681565b61029960055481565b61024a61045c366004613e46565b6113c7565b61024a61046f366004613e46565b6116e7565b6102996118b0565b61024a61048a366004613e46565b611aeb565b610299611d12565b6102997f000000000000000000000000000000000000000000000000000000000000000081565b600154610273906001600160a01b031681565b6102996104df366004613fdc565b611d1c565b6001546001600160a01b0316610273565b6103c76040518060400160405280600681526020016519971817191960d11b81525081565b7f00000000000000000000000000000000000000000000000000000000000000006001600160a01b0316630c340a246040518163ffffffff1660e01b815260040160206040518083038186803b15801561057357600080fd5b505afa158015610587573d6000803e3d6000fd5b505050506040513d601f19601f820116820180604052508101906105ab9190613e62565b6001600160a01b0316336001600160a01b0316146105e45760405162461bcd60e51b81526004016105db90614129565b60405180910390fd5b6105ef600782611d4e565b6106325760405162461bcd60e51b81526020600482015260146024820152731c995b5bdd994b5ad9595c195c8b59985a5b195960621b60448201526064016105db565b50565b337f00000000000000000000000000000000000000000000000000000000000000006001600160a01b0316146106a95760405162461bcd60e51b815260206004820152601960248201527818d85b1b195c8b5a5ccb5b9bdd0b5d995cdc195c8b5c1bdbdb603a1b60448201526064016105db565b61063281611d63565b6040516370a0823160e01b8152306004820152600090736b175474e89094c44da98b954eedeac495271d0f906370a082319060240160206040518083038186803b1580156106ff57600080fd5b505afa158015610713573d6000803e3d6000fd5b505050506040513d601f19601f820116820180604052508101906107379190613fc4565b61073f611dde565b61074991906141f1565b610755906103e86141f1565b60405163c0af0d3b60e01b81523060048201527f00000000000000000000000000000000000000000000000000000000000000006001600160a01b03169063c0af0d3b9060240160206040518083038186803b1580156107b457600080fd5b505afa1580156107c8573d6000803e3d6000fd5b505050506040513d601f19601f820116820180604052508101906107ec9190613fc4565b11905090565b6107ff335b600790611f00565b61081b5760405162461bcd60e51b81526004016105db906140f9565b610823611f22565b565b7f00000000000000000000000000000000000000000000000000000000000000006001600160a01b0316630c340a246040518163ffffffff1660e01b815260040160206040518083038186803b15801561087e57600080fd5b505afa158015610892573d6000803e3d6000fd5b505050506040513d601f19601f820116820180604052508101906108b69190613e62565b6001600160a01b0316336001600160a01b0316146108e65760405162461bcd60e51b81526004016105db90614129565b6108f1600782611d32565b6106325760405162461bcd60e51b81526020600482015260116024820152701859190b5ad9595c195c8b59985a5b1959607a1b60448201526064016105db565b60405163cd1adb6160e01b81523060048201526000907f00000000000000000000000000000000000000000000000000000000000000006001600160a01b03169063cd1adb619060240160206040518083038186803b15801561099357600080fd5b505afa1580156109a7573d6000803e3d6000fd5b505050506040513d601f19601f820116820180604052508101906109cb9190613fc4565b905090565b7f00000000000000000000000000000000000000000000000000000000000000006001600160a01b0316630c340a246040518163ffffffff1660e01b815260040160206040518083038186803b158015610a2957600080fd5b505afa158015610a3d573d6000803e3d6000fd5b505050506040513d601f19601f82011682018060405250810190610a619190613e62565b6001600160a01b0316336001600160a01b031614610a915760405162461bcd60e51b81526004016105db90614129565b6001600160a01b038116610adc5760405162461bcd60e51b8152602060048201526012602482015271736d2d616464726573732d69732d7a65726f60701b60448201526064016105db565b6003546001600160a01b0382811691161415610b275760405162461bcd60e51b815260206004820152600a602482015269736d2d69732d73616d6560b01b60448201526064016105db565b6003546040516001600160a01b038084169216907f2d19927e7cac08ceb98b38898a4fdff6da6a27295b9a2d62fe250408ebe044e190600090a3600380546001600160a01b0319166001600160a01b0392909216919091179055565b7f00000000000000000000000000000000000000000000000000000000000000006001600160a01b0316630c340a246040518163ffffffff1660e01b815260040160206040518083038186803b158015610bdc57600080fd5b505afa158015610bf0573d6000803e3d6000fd5b505050506040513d601f19601f82011682018060405250810190610c149190613e62565b6001600160a01b0316336001600160a01b031614610c445760405162461bcd60e51b81526004016105db90614129565b604051630bbccf9b60e11b81527f000000000000000000000000000000000000000000000000000000000000000060048201527f00000000000000000000000000000000000000000000000000000000000000006001600160a01b0316906317799f3690602401602060405180830381600087803b158015610cc557600080fd5b505af1158015610cd9573d6000803e3d6000fd5b505050506040513d601f19601f820116820180604052508101906106329190613fc4565b7f00000000000000000000000000000000000000000000000000000000000000006001600160a01b0316630c340a246040518163ffffffff1660e01b815260040160206040518083038186803b158015610d5657600080fd5b505afa158015610d6a573d6000803e3d6000fd5b505050506040513d601f19601f82011682018060405250810190610d8e9190613e62565b6001600160a01b0316336001600160a01b031614610dbe5760405162461bcd60e51b81526004016105db90614129565b612710811115610e095760405162461bcd60e51b8152602060048201526016602482015275696e76616c69642d736c6970706167652d76616c756560501b60448201526064016105db565b60065460408051918252602082018390527ef1c5db862c7598b3b6765552ca951f498611e06412c2d57f8d0b58f82e7f82910160405180910390a1600655565b610e52336107f7565b610e6e5760405162461bcd60e51b81526004016105db906140f9565b6000806000610e7b6123f5565b6040516302df682360e11b815260048101849052602481018390526044810182905292955090935091506001600160a01b037f000000000000000000000000000000000000000000000000000000000000000016906305bed04690606401600060405180830381600087803b158015610ef357600080fd5b505af1158015610f07573d6000803e3d6000fd5b50505050610f1361255c565b505050565b60606109cb60076127e3565b610f2d336107f7565b610f495760405162461bcd60e51b81526004016105db906140f9565b610f5360006127f0565b6108236000196127f0565b60098054610f6b9061428b565b80601f0160208091040260200160405190810160405280929190818152602001828054610f979061428b565b8015610fe45780601f10610fb957610100808354040283529160200191610fe4565b820191906000526020600020905b815481529060010190602001808311610fc757829003601f168201915b505050505081565b7f00000000000000000000000000000000000000000000000000000000000000006001600160a01b0316630c340a246040518163ffffffff1660e01b815260040160206040518083038186803b15801561104557600080fd5b505afa158015611059573d6000803e3d6000fd5b505050506040513d601f19601f8201168201806040525081019061107d9190613e62565b6001600160a01b0316336001600160a01b0316146110ad5760405162461bcd60e51b81526004016105db90614129565b600360009054906101000a90046001600160a01b03166001600160a01b031663c2fba6676040518163ffffffff1660e01b815260040160206040518083038186803b1580156110fb57600080fd5b505afa15801561110f573d6000803e3d6000fd5b505050506040513d601f19601f820116820180604052508101906111339190613fc4565b81106111785760405162461bcd60e51b81526020600482015260146024820152730d2dcecc2d8d2c85ae4deeae8cae45ad2dcc8caf60631b60448201526064016105db565b816111835760045491505b603b82116111cb5760405162461bcd60e51b81526020600482015260156024820152741a5b9d985b1a590b5bdc9858db194b5c195c9a5bd9605a1b60448201526064016105db565b6004546005546040805192835260208301859052820152606081018290527f83bc5ab8030537fcf1d29c2334f6d22c26c82dcbe5ff03923d2cff5c692c0a7f9060800160405180910390a1600491909155600555565b61122a336107f7565b6112465760405162461bcd60e51b81526004016105db906140f9565b610823565b7f00000000000000000000000000000000000000000000000000000000000000006001600160a01b0316630c340a246040518163ffffffff1660e01b815260040160206040518083038186803b1580156112a457600080fd5b505afa1580156112b8573d6000803e3d6000fd5b505050506040513d601f19601f820116820180604052508101906112dc9190613e62565b6001600160a01b0316336001600160a01b03161461130c5760405162461bcd60e51b81526004016105db90614129565b8061134c5760405162461bcd60e51b815260206004820152601060248201526f6c6f7757617465722d69732d7a65726f60801b60448201526064016105db565b80821161139b5760405162461bcd60e51b815260206004820152601c60248201527f6869676857617465722d6c6573732d7468616e2d6c6f7757617465720000000060448201526064016105db565b6113ac662386f26fc1000083614229565b600a556113c0662386f26fc1000082614229565b600b555050565b337f00000000000000000000000000000000000000000000000000000000000000006001600160a01b03161461143b5760405162461bcd60e51b815260206004820152601960248201527818d85b1b195c8b5a5ccb5b9bdd0b5d995cdc195c8b5c1bdbdb603a1b60448201526064016105db565b6001600160a01b0381166114915760405162461bcd60e51b815260206004820152601c60248201527f6e65772d73747261746567792d616464726573732d69732d7a65726f0000000060448201526064016105db565b7f00000000000000000000000000000000000000000000000000000000000000006001600160a01b0316816001600160a01b03166316f0115b6040518163ffffffff1660e01b815260040160206040518083038186803b1580156114f457600080fd5b505afa158015611508573d6000803e3d6000fd5b505050506040513d601f19601f8201168201806040525081019061152c9190613e62565b6001600160a01b03161461157b5760405162461bcd60e51b81526020600482015260166024820152756e6f742d76616c69642d6e65772d737472617465677960501b60448201526064016105db565b61158481612961565b6001546040516370a0823160e01b81523060048201526116189183916001600160a01b03909116906370a082319060240160206040518083038186803b1580156115cd57600080fd5b505afa1580156115e1573d6000803e3d6000fd5b505050506040513d601f19601f820116820180604052508101906116059190613fc4565b6001546001600160a01b03169190612abf565b6040516370a0823160e01b81523060048201526106329082906001600160a01b037f000000000000000000000000000000000000000000000000000000000000000016906370a08231906024015b60206040518083038186803b15801561167e57600080fd5b505afa158015611692573d6000803e3d6000fd5b505050506040513d601f19601f820116820180604052508101906116b69190613fc4565b6001600160a01b037f0000000000000000000000000000000000000000000000000000000000000000169190612abf565b7f00000000000000000000000000000000000000000000000000000000000000006001600160a01b0316630c340a246040518163ffffffff1660e01b815260040160206040518083038186803b15801561174057600080fd5b505afa158015611754573d6000803e3d6000fd5b505050506040513d601f19601f820116820180604052508101906117789190613e62565b6001600160a01b0316336001600160a01b0316146117a85760405162461bcd60e51b81526004016105db90614129565b6001600160a01b0381166117fe5760405162461bcd60e51b815260206004820152601d60248201527f6665652d636f6c6c6563746f722d616464726573732d69732d7a65726f00000060448201526064016105db565b6002546001600160a01b03828116911614156118545760405162461bcd60e51b81526020600482015260156024820152746665652d636f6c6c6563746f722d69732d73616d6560581b60448201526064016105db565b6002546040516001600160a01b038084169216907f0f06062680f9bd68e786e9980d9bb03d73d5620fc3b345e417b6eacb310b970690600090a3600280546001600160a01b0319166001600160a01b0392909216919091179055565b6000806118bb611dde565b60405163c0af0d3b60e01b81523060048201529091506000906001600160a01b037f0000000000000000000000000000000000000000000000000000000000000000169063c0af0d3b9060240160206040518083038186803b15801561192057600080fd5b505afa158015611934573d6000803e3d6000fd5b505050506040513d601f19601f820116820180604052508101906119589190613fc4565b905080821115611a3e57600061196e8284614248565b6003546040516340b4c54560e11b8152736b175474e89094c44da98b954eedeac495271d0f60048201526001600160a01b037f00000000000000000000000000000000000000000000000000000000000000008116602483015260448201849052600060648301529293509116906381698a8a9060840160006040518083038186803b1580156119fd57600080fd5b505afa158015611a11573d6000803e3d6000fd5b505050506040513d6000823e601f3d908101601f19168201604052611a399190810190613e7e565b945050505b6040516369ebe00160e11b8152306004820152611ada907f00000000000000000000000000000000000000000000000000000000000000006001600160a01b03169063d3d7c002906024015b60206040518083038186803b158015611aa257600080fd5b505afa158015611ab6573d6000803e3d6000fd5b505050506040513d601f19601f820116820180604052508101906104df9190613fc4565b611ae490846141f1565b9250505090565b611af4336107f7565b611b105760405162461bcd60e51b81526004016105db906140f9565b6002546001600160a01b0316611b605760405162461bcd60e51b81526020600482015260156024820152741999594b58dbdb1b1958dd1bdc8b5b9bdd0b5cd95d605a1b60448201526064016105db565b7f00000000000000000000000000000000000000000000000000000000000000006001600160a01b0316816001600160a01b03161415611be25760405162461bcd60e51b815260206004820152601f60248201527f6e6f742d616c6c6f7765642d746f2d73776565702d636f6c6c61746572616c0060448201526064016105db565b6001546001600160a01b0380831691161415611c375760405162461bcd60e51b815260206004820152601460248201527306e6f742d616c6c6f7765642d746f2d73776565760641b60448201526064016105db565b6001600160a01b03811673eeeeeeeeeeeeeeeeeeeeeeeeeeeeeeeeeeeeeeee1415611c7757600254611c72906001600160a01b031647612b22565b610632565b6040516370a0823160e01b81523060048201526000906001600160a01b038316906370a082319060240160206040518083038186803b158015611cb957600080fd5b505afa158015611ccd573d6000803e3d6000fd5b505050506040513d601f19601f82011682018060405250810190611cf19190613fc4565b600254909150611d0e906001600160a01b03848116911683612abf565b5050565b60006109cb6118b0565b6000600c5482611d2c9190614209565b92915050565b6000611d47836001600160a01b038416612c3b565b9392505050565b6000611d47836001600160a01b038416612c8a565b611d6c81612da7565b6040516370a0823160e01b8152306004820152610632907f0000000000000000000000000000000000000000000000000000000000000000906001600160a01b037f000000000000000000000000000000000000000000000000000000000000000016906370a0823190602401611666565b6001546040516370a0823160e01b8152306004820152600091670de0b6b3a7640000916001600160a01b03909116906370a082319060240160206040518083038186803b158015611e2e57600080fd5b505afa158015611e42573d6000803e3d6000fd5b505050506040513d601f19601f82011682018060405250810190611e669190613fc4565b600160009054906101000a90046001600160a01b03166001600160a01b03166399530b066040518163ffffffff1660e01b815260040160206040518083038186803b158015611eb457600080fd5b505afa158015611ec8573d6000803e3d6000fd5b505050506040513d601f19601f82011682018060405250810190611eec9190613fc4565b611ef69190614229565b6109cb9190614209565b6001600160a01b03811660009081526001830160205260408120541515611d47565b611f2a6106b2565b611f6c5760405162461bcd60e51b81526020600482015260136024820152723837b7b616b4b996b0b137bb3296bbb0ba32b960691b60448201526064016105db565b6000611f76611dde565b60405163c0af0d3b60e01b81523060048201527f00000000000000000000000000000000000000000000000000000000000000006001600160a01b03169063c0af0d3b9060240160206040518083038186803b158015611fd557600080fd5b505afa158015611fe9573d6000803e3d6000fd5b505050506040513d601f19601f8201168201806040525081019061200d9190613fc4565b6120179190614248565b600354604051637a6f237b60e11b81526001600160a01b037f000000000000000000000000000000000000000000000000000000000000000081166004830152736b175474e89094c44da98b954eedeac495271d0f6024830152604482018490529293506000928392839291169063f4de46f69060640160006040518083038186803b1580156120a657600080fd5b505afa1580156120ba573d6000803e3d6000fd5b505050506040513d6000823e601f3d908101601f191682016040526120e29190810190613ec3565b925092509250816000146123ef576040516330897f1760e11b8152600481018390527f00000000000000000000000000000000000000000000000000000000000000006001600160a01b031690636112fe2e90602401600060405180830381600087803b15801561215257600080fd5b505af1158015612166573d6000803e3d6000fd5b5050600354604051636e74a6f760e01b8152600481018590526001600160a01b039091169250636e74a6f7915060240160206040518083038186803b1580156121ae57600080fd5b505afa1580156121c2573d6000803e3d6000fd5b505050506040513d601f19601f820116820180604052508101906121e69190613e62565b6001600160a01b03166338ed17398360018630426040518663ffffffff1660e01b815260040161221a959493929190614160565b600060405180830381600087803b15801561223457600080fd5b505af1158015612248573d6000803e3d6000fd5b505050506040513d6000823e601f3d908101601f191682016040526122709190810190613f11565b506040516370a0823160e01b81523060048201527f00000000000000000000000000000000000000000000000000000000000000006001600160a01b03169063a846c2fd90736b175474e89094c44da98b954eedeac495271d0f906370a082319060240160206040518083038186803b1580156122ec57600080fd5b505afa158015612300573d6000803e3d6000fd5b505050506040513d601f19601f820116820180604052508101906123249190613fc4565b6040518263ffffffff1660e01b815260040161234291815260200190565b600060405180830381600087803b15801561235c57600080fd5b505af1158015612370573d6000803e3d6000fd5b50506040516306eeb69360e51b8152600481018590527f00000000000000000000000000000000000000000000000000000000000000006001600160a01b0316925063ddd6d2609150602401600060405180830381600087803b1580156123d657600080fd5b505af11580156123ea573d6000803e3d6000fd5b505050505b50505050565b604051636a9eee1360e11b81523060048201526000908190819081906001600160a01b037f0000000000000000000000000000000000000000000000000000000000000000169063d53ddc269060240160206040518083038186803b15801561245d57600080fd5b505afa158015612471573d6000803e3d6000fd5b505050506040513d601f19601f820116820180604052508101906124959190613fc4565b604051639f2b283360e01b81523060048201529091506000906001600160a01b037f00000000000000000000000000000000000000000000000000000000000000001690639f2b28339060240160206040518083038186803b1580156124fa57600080fd5b505afa15801561250e573d6000803e3d6000fd5b505050506040513d601f19601f820116820180604052508101906125329190613fc4565b905061253d81612f3c565b9450612548816130c8565b935061255382613137565b92505050909192565b6040516370a0823160e01b81523060048201526000907f00000000000000000000000000000000000000000000000000000000000000006001600160a01b0316906370a082319060240160206040518083038186803b1580156125be57600080fd5b505afa1580156125d2573d6000803e3d6000fd5b505050506040513d601f19601f820116820180604052508101906125f69190613fc4565b905080156126795760405163bad4a01f60e01b8152600481018290527f00000000000000000000000000000000000000000000000000000000000000006001600160a01b03169063bad4a01f90602401600060405180830381600087803b15801561266057600080fd5b505af1158015612674573d6000803e3d6000fd5b505050505b6040516390229af760e01b815230600482015260009081908190819081906001600160a01b037f000000000000000000000000000000000000000000000000000000000000000016906390229af79060240160a06040518083038186803b1580156126e357600080fd5b505afa1580156126f7573d6000803e3d6000fd5b505050506040513d601f19601f8201168201806040525081019061271b9190614015565b945094509450945094506000600a5484876127369190614229565b6127409190614209565b9050818110156127585761275385613146565b6127da565b600a548311156127be5761276a6106b2565b156127ac5760405162461bcd60e51b81526020600482015260126024820152713837b7b616b4b996bab73232b93bb0ba32b960711b60448201526064016105db565b6127536127b98683614248565b6131a2565b600b548310156127da576127da6127d58287614248565b613146565b50505050505050565b60606000611d47836132a9565b6127f981613305565b60015461282590736b175474e89094c44da98b954eedeac495271d0f906001600160a01b0316836135d7565b60005b600360009054906101000a90046001600160a01b03166001600160a01b031663c2fba6676040518163ffffffff1660e01b815260040160206040518083038186803b15801561287657600080fd5b505afa15801561288a573d6000803e3d6000fd5b505050506040513d601f19601f820116820180604052508101906128ae9190613fc4565b811015611d0e57600354604051636e74a6f760e01b81526004810183905261294f916001600160a01b031690636e74a6f79060240160206040518083038186803b1580156128fb57600080fd5b505afa15801561290f573d6000803e3d6000fd5b505050506040513d601f19601f820116820180604052508101906129339190613e62565b731b40183efb4dd766f11bda7a7c3ad8982e99842190846135d7565b80612959816142c6565b915050612828565b7f0000000000000000000000000000000000000000000000000000000000000000816001600160a01b031663e824600f6040518163ffffffff1660e01b815260040160206040518083038186803b1580156129bb57600080fd5b505afa1580156129cf573d6000803e3d6000fd5b505050506040513d601f19601f820116820180604052508101906129f39190613fc4565b14612a405760405162461bcd60e51b815260206004820181905260248201527f636f6c6c61746572616c2d747970652d6d7573742d62652d7468652d73616d6560448201526064016105db565b604051637038e06560e11b81526001600160a01b0382811660048301527f0000000000000000000000000000000000000000000000000000000000000000169063e071c0ca906024015b600060405180830381600087803b158015612aa457600080fd5b505af1158015612ab8573d6000803e3d6000fd5b5050505050565b6040516001600160a01b038316602482015260448101829052610f1390849063a9059cbb60e01b906064015b60408051601f198184030181529190526020810180516001600160e01b03166001600160e01b0319909316929092179091526136fb565b80471015612b725760405162461bcd60e51b815260206004820152601d60248201527f416464726573733a20696e73756666696369656e742062616c616e636500000060448201526064016105db565b6000826001600160a01b03168260405160006040518083038185875af1925050503d8060008114612bbf576040519150601f19603f3d011682016040523d82523d6000602084013e612bc4565b606091505b5050905080610f135760405162461bcd60e51b815260206004820152603a60248201527f416464726573733a20756e61626c6520746f2073656e642076616c75652c207260448201527f6563697069656e74206d6179206861766520726576657274656400000000000060648201526084016105db565b6000818152600183016020526040812054612c8257508154600181810184556000848152602080822090930184905584548482528286019093526040902091909155611d2c565b506000611d2c565b60008181526001830160205260408120548015612d9d576000612cae600183614248565b8554909150600090612cc290600190614248565b9050818114612d43576000866000018281548110612cf057634e487b7160e01b600052603260045260246000fd5b9060005260206000200154905080876000018481548110612d2157634e487b7160e01b600052603260045260246000fd5b6000918252602080832090910192909255918252600188019052604090208390555b8554869080612d6257634e487b7160e01b600052603160045260246000fd5b600190038181906000526020600020016000905590558560010160008681526020019081526020016000206000905560019350505050611d2c565b6000915050611d2c565b604051630a5ab5dd60e31b81523060048201526024810182905260009081908190819081906001600160a01b037f000000000000000000000000000000000000000000000000000000000000000016906352d5aee89060440160a06040518083038186803b158015612e1857600080fd5b505afa158015612e2c573d6000803e3d6000fd5b505050506040513d601f19601f82011682018060405250810190612e509190614015565b9450945094509450945083600014158015612e6c5750600b5482105b15612eba57600a54600090612e818588614229565b612e8b9190614209565b905081811015612ea357612e9e85613146565b612eb8565b84811015612eb857612eb86127d58287614248565b505b6040516330897f1760e11b8152600481018790527f00000000000000000000000000000000000000000000000000000000000000006001600160a01b031690636112fe2e90602401600060405180830381600087803b158015612f1c57600080fd5b505af1158015612f30573d6000803e3d6000fd5b50505050505050505050565b6000612f5b736b175474e89094c44da98b954eedeac495271d0f6137cd565b612f6361387b565b6040516370a0823160e01b8152306004820152600090736b175474e89094c44da98b954eedeac495271d0f906370a082319060240160206040518083038186803b158015612fb057600080fd5b505afa158015612fc4573d6000803e3d6000fd5b505050506040513d601f19601f82011682018060405250810190612fe89190613fc4565b9050801561303157613031736b175474e89094c44da98b954eedeac495271d0f7f000000000000000000000000000000000000000000000000000000000000000083600161393d565b6040516370a0823160e01b81523060048201527f00000000000000000000000000000000000000000000000000000000000000006001600160a01b0316906370a082319060240160206040518083038186803b15801561309057600080fd5b505afa1580156130a4573d6000803e3d6000fd5b505050506040513d601f19601f82011682018060405250810190611d479190613fc4565b6040516369ebe00160e11b8152306004820152600090819061311d906001600160a01b037f0000000000000000000000000000000000000000000000000000000000000000169063d3d7c00290602401611a8a565b905080831161312d576000611d47565b611d478184614248565b600061314282612da7565b5090565b80156106325761315581613af3565b60405163a846c2fd60e01b8152600481018290527f00000000000000000000000000000000000000000000000000000000000000006001600160a01b03169063a846c2fd90602401612a8a565b60405163317afabb60e21b8152600481018290527f00000000000000000000000000000000000000000000000000000000000000006001600160a01b03169063c5ebeaec90602401600060405180830381600087803b15801561320457600080fd5b505af1158015613218573d6000803e3d6000fd5b50506040516370a0823160e01b8152306004820152736b175474e89094c44da98b954eedeac495271d0f92506370a08231915060240160206040518083038186803b15801561326657600080fd5b505afa15801561327a573d6000803e3d6000fd5b505050506040513d601f19601f8201168201806040525081019061329e9190613fc4565b905061063281613c25565b6060816000018054806020026020016040519081016040528092919081815260200182805480156132f957602002820191906000526020600020905b8154815260200190600101908083116132e5575b50505050509050919050565b613344736b175474e89094c44da98b954eedeac495271d0f7f0000000000000000000000000000000000000000000000000000000000000000836135d7565b6133986001600160a01b037f0000000000000000000000000000000000000000000000000000000000000000167f0000000000000000000000000000000000000000000000000000000000000000836135d7565b6133ec6001600160a01b037f0000000000000000000000000000000000000000000000000000000000000000167f0000000000000000000000000000000000000000000000000000000000000000836135d7565b60005b600360009054906101000a90046001600160a01b03166001600160a01b031663c2fba6676040518163ffffffff1660e01b815260040160206040518083038186803b15801561343d57600080fd5b505afa158015613451573d6000803e3d6000fd5b505050506040513d601f19601f820116820180604052508101906134759190613fc4565b811015611d0e57600354604051636e74a6f760e01b81526004810183905261352b916001600160a01b031690636e74a6f79060240160206040518083038186803b1580156134c257600080fd5b505afa1580156134d6573d6000803e3d6000fd5b505050506040513d601f19601f820116820180604052508101906134fa9190613e62565b6001600160a01b037f00000000000000000000000000000000000000000000000000000000000000001690846135d7565b600354604051636e74a6f760e01b8152600481018390526135c5916001600160a01b031690636e74a6f79060240160206040518083038186803b15801561357157600080fd5b505afa158015613585573d6000803e3d6000fd5b505050506040513d601f19601f820116820180604052508101906135a99190613e62565b736b175474e89094c44da98b954eedeac495271d0f90846135d7565b806135cf816142c6565b9150506133ef565b8015806136605750604051636eb1769f60e11b81523060048201526001600160a01b03838116602483015284169063dd62ed3e9060440160206040518083038186803b15801561362657600080fd5b505afa15801561363a573d6000803e3d6000fd5b505050506040513d601f19601f8201168201806040525081019061365e9190613fc4565b155b6136cb5760405162461bcd60e51b815260206004820152603660248201527f5361666545524332303a20617070726f76652066726f6d206e6f6e2d7a65726f60448201527520746f206e6f6e2d7a65726f20616c6c6f77616e636560501b60648201526084016105db565b6040516001600160a01b038316602482015260448101829052610f1390849063095ea7b360e01b90606401612aeb565b6000613750826040518060400160405280602081526020017f5361666545524332303a206c6f772d6c6576656c2063616c6c206661696c6564815250856001600160a01b0316613c569092919063ffffffff16565b805190915015610f13578080602001905181019061376e9190613fa4565b610f135760405162461bcd60e51b815260206004820152602a60248201527f5361666545524332303a204552433230206f7065726174696f6e20646964206e6044820152691bdd081cdd58d8d9595960b21b60648201526084016105db565b6040516370a0823160e01b8152306004820152600090731b40183efb4dd766f11bda7a7c3ad8982e998421906370a082319060240160206040518083038186803b15801561381a57600080fd5b505afa15801561382e573d6000803e3d6000fd5b505050506040513d601f19601f820116820180604052508101906138529190613fc4565b90508015611d0e57611d0e731b40183efb4dd766f11bda7a7c3ad8982e9984218383600161393d565b60405163c0af0d3b60e01b81523060048201526000907f00000000000000000000000000000000000000000000000000000000000000006001600160a01b03169063c0af0d3b9060240160206040518083038186803b1580156138dd57600080fd5b505afa1580156138f1573d6000803e3d6000fd5b505050506040513d601f19601f820116820180604052508101906139159190613fc4565b90506000613921611dde565b905081811115611d0e57611d0e6139388383614248565b613af3565b600354604051631d1f307960e31b81526001600160a01b038681166004830152858116602483015260448201859052600092839283929091169063e8f983c89060640160006040518083038186803b15801561399857600080fd5b505afa1580156139ac573d6000803e3d6000fd5b505050506040513d6000823e601f3d908101601f191682016040526139d49190810190613ec3565b92509250925083600014156139e857600193505b81156127da57600354604051636e74a6f760e01b8152600481018390526001600160a01b0390911690636e74a6f79060240160206040518083038186803b158015613a3257600080fd5b505afa158015613a46573d6000803e3d6000fd5b505050506040513d601f19601f82011682018060405250810190613a6a9190613e62565b6001600160a01b03166338ed173986868630426040518663ffffffff1660e01b8152600401613a9d959493929190614160565b600060405180830381600087803b158015613ab757600080fd5b505af1158015613acb573d6000803e3d6000fd5b505050506040513d6000823e601f3d908101601f191682016040526123ea9190810190613f11565b60015460408051634ca9858360e11b815290516000926001600160a01b0316916399530b06916004808301926020929190829003018186803b158015613b3857600080fd5b505afa158015613b4c573d6000803e3d6000fd5b505050506040513d601f19601f82011682018060405250810190613b709190613fc4565b9050600081613b8784670de0b6b3a7640000614229565b613b919190614209565b9050670de0b6b3a7640000613ba68383614229565b613bb09190614209565b8311613bbc5780613bc7565b613bc78160016141f1565b60015460405160016226f16160e21b03198152600481018390529192506001600160a01b03169063ff643a7c90602401600060405180830381600087803b158015613c1157600080fd5b505af11580156127da573d6000803e3d6000fd5b60015460405163b6b55f2560e01b8152600481018390526001600160a01b039091169063b6b55f2590602401612a8a565b6060613c658484600085613c6d565b949350505050565b606082471015613cce5760405162461bcd60e51b815260206004820152602660248201527f416464726573733a20696e73756666696369656e742062616c616e636520666f6044820152651c8818d85b1b60d21b60648201526084016105db565b843b613d1c5760405162461bcd60e51b815260206004820152601d60248201527f416464726573733a2063616c6c20746f206e6f6e2d636f6e747261637400000060448201526064016105db565b600080866001600160a01b03168587604051613d389190614097565b60006040518083038185875af1925050503d8060008114613d75576040519150601f19603f3d011682016040523d82523d6000602084013e613d7a565b606091505b5091509150613d8a828286613d95565b979650505050505050565b60608315613da4575081611d47565b825115613db45782518084602001fd5b8160405162461bcd60e51b81526004016105db91906140c6565b600082601f830112613dde578081fd5b81516020613df3613dee836141cd565b61419c565b80838252828201915082860187848660051b8901011115613e12578586fd5b855b85811015613e39578151613e278161430d565b84529284019290840190600101613e14565b5090979650505050505050565b600060208284031215613e57578081fd5b8135611d478161430d565b600060208284031215613e73578081fd5b8151611d478161430d565b60008060408385031215613e90578081fd5b825167ffffffffffffffff811115613ea6578182fd5b613eb285828601613dce565b925050602083015190509250929050565b600080600060608486031215613ed7578081fd5b835167ffffffffffffffff811115613eed578182fd5b613ef986828701613dce565b93505060208401519150604084015190509250925092565b60006020808385031215613f23578182fd5b825167ffffffffffffffff811115613f39578283fd5b8301601f81018513613f49578283fd5b8051613f57613dee826141cd565b80828252848201915084840188868560051b8701011115613f76578687fd5b8694505b83851015613f98578051835260019490940193918501918501613f7a565b50979650505050505050565b600060208284031215613fb5578081fd5b81518015158114611d47578182fd5b600060208284031215613fd5578081fd5b5051919050565b600060208284031215613fed578081fd5b5035919050565b60008060408385031215614006578182fd5b50508035926020909101359150565b600080600080600060a0868803121561402c578081fd5b5050835160208501516040860151606087015160809097015192989197509594509092509050565b6000815180845260208085019450808401835b8381101561408c5781516001600160a01b031687529582019590820190600101614067565b509495945050505050565b600082516140a981846020870161425f565b9190910192915050565b600060208252611d476020830184614054565b60006020825282518060208401526140e581604085016020870161425f565b601f01601f19169190910160400192915050565b60208082526016908201527531b0b63632b916b4b996b737ba16b096b5b2b2b832b960511b604082015260600190565b6020808252601a908201527f63616c6c65722d69732d6e6f742d7468652d676f7665726e6f72000000000000604082015260600190565b600086825285602083015260a0604083015261417f60a0830186614054565b6001600160a01b0394909416606083015250608001529392505050565b604051601f8201601f1916810167ffffffffffffffff811182821017156141c5576141c56142f7565b604052919050565b600067ffffffffffffffff8211156141e7576141e76142f7565b5060051b60200190565b60008219821115614204576142046142e1565b500190565b60008261422457634e487b7160e01b81526012600452602481fd5b500490565b6000816000190483118215151615614243576142436142e1565b500290565b60008282101561425a5761425a6142e1565b500390565b60005b8381101561427a578181015183820152602001614262565b838111156123ef5750506000910152565b600181811c9082168061429f57607f821691505b602082108114156142c057634e487b7160e01b600052602260045260246000fd5b50919050565b60006000198214156142da576142da6142e1565b5060010190565b634e487b7160e01b600052601160045260246000fd5b634e487b7160e01b600052604160045260246000fd5b6001600160a01b038116811461063257600080fdfea264697066735822122026fb057eff3dfbe268baa0eed136abbe2eac8bbcfcbff15db67043d98c05341a64736f6c63430008030033",
  "devdoc": {
    "details": "This strategy will deposit collateral token in Maker, borrow Dai and deposit borrowed DAI in Vesper DAI pool to earn interest.",
    "kind": "dev",
    "methods": {
      "addKeeper(address)": {
        "params": {
          "_keeperAddress": "keeper address to add."
        }
      },
      "approveToken()": {
        "details": "Approve all required tokens"
      },
      "convertFrom18(uint256)": {
        "details": "Convert from 18 decimals to token defined decimals."
      },
      "isReservedToken(address)": {
        "details": "Check whether given token is reserved or not. Reserved tokens are not allowed to sweep."
      },
      "migrate(address)": {
        "details": "_beforeMigration hook can be implemented in child strategy to do extra steps.",
        "params": {
          "_newStrategy": "Address of new strategy"
        }
      },
      "rebalance()": {
        "details": "Rebalance profit, loss and investment of this strategy"
      },
      "removeKeeper(address)": {
        "params": {
          "_keeperAddress": "keeper address to remove."
        }
      },
      "resurface()": {
        "details": "If pool is underwater this function will resolve underwater condition. If Debt in Maker is greater than Dai balance in lender then pool is underwater. Lowering DAI debt in Maker will resolve underwater condition. Resolve: Calculate required collateral token to lower DAI debt. Withdraw required collateral token from Maker and convert those to DAI via Uniswap. Finally payback debt in Maker using DAI.Also report loss in pool."
      },
      "sweepERC20(address)": {
        "details": "sweep given token to feeCollector of strategy",
        "params": {
          "_fromToken": "token address to sweep"
        }
      },
      "totalValue()": {
        "details": "Make sure to return value in collateral token and in order to do that we are using Uniswap to get collateral amount for earned DAI."
      },
      "totalValueCurrent()": {
        "details": "Report total value in collateral token"
      },
      "updateBalancingFactor(uint256,uint256)": {
        "params": {
          "_highWater": "Value for high water mark.",
          "_lowWater": "Value for low water mark."
        }
      },
      "updateFeeCollector(address)": {
        "params": {
          "_feeCollector": "fee collector address"
        }
      },
      "updateSwapManager(address)": {
        "params": {
          "_swapManager": "swap manager address"
        }
      },
      "withdraw(uint256)": {
        "details": "Withdraw collateral token from lending pool.",
        "params": {
          "_amount": "Amount of collateral token"
        }
      }
    },
    "version": 1
  },
  "userdoc": {
    "kind": "user",
    "methods": {
      "addKeeper(address)": {
        "notice": "Add given address in keepers list."
      },
      "createVault()": {
        "notice": "Create new Maker vault"
      },
      "isUnderwater()": {
        "notice": "Returns true if pool is underwater.Underwater - If debt is greater than (earning of pool + DAI in pool + some wei buffer).Earning - Sum of DAI balance and DAI from accrued reward, if any, in lending pool."
      },
      "keepers()": {
        "notice": "Return list of keepers"
      },
      "migrate(address)": {
        "notice": "Migrate all asset and vault ownership,if any, to new strategy"
      },
      "removeKeeper(address)": {
        "notice": "Remove given address from keepers list."
      },
      "token()": {
        "notice": "Returns address of token correspond to collateral token"
      },
      "totalValue()": {
        "notice": "Report total value of this strategy"
      },
      "totalValueCurrent()": {
        "notice": "Calculate total value of asset under management (in real-time)"
      },
      "updateBalancingFactor(uint256,uint256)": {
        "notice": "Update balancing factors aka high water and low water values. Water mark values represent Collateral Ratio in Maker. For example 300 as high water means 300% collateral ratio."
      },
      "updateFeeCollector(address)": {
        "notice": "Update fee collector"
      },
      "updateSwapManager(address)": {
        "notice": "Update swap manager address"
      }
    },
    "version": 1
  },
  "storageLayout": {
    "storage": [
      {
        "astId": 14295,
        "contract": "contracts/strategies/maker/VesperMakerStrategy.sol:VesperMakerStrategy",
        "label": "WETH",
        "offset": 0,
        "slot": "0",
        "type": "t_address"
      },
      {
        "astId": 14300,
        "contract": "contracts/strategies/maker/VesperMakerStrategy.sol:VesperMakerStrategy",
        "label": "receiptToken",
        "offset": 0,
        "slot": "1",
        "type": "t_address"
      },
      {
        "astId": 14306,
        "contract": "contracts/strategies/maker/VesperMakerStrategy.sol:VesperMakerStrategy",
        "label": "feeCollector",
        "offset": 0,
        "slot": "2",
        "type": "t_address"
      },
      {
        "astId": 14309,
        "contract": "contracts/strategies/maker/VesperMakerStrategy.sol:VesperMakerStrategy",
        "label": "swapManager",
        "offset": 0,
        "slot": "3",
        "type": "t_contract(ISwapManager)5259"
      },
      {
        "astId": 14312,
        "contract": "contracts/strategies/maker/VesperMakerStrategy.sol:VesperMakerStrategy",
        "label": "oraclePeriod",
        "offset": 0,
        "slot": "4",
        "type": "t_uint256"
      },
      {
        "astId": 14315,
        "contract": "contracts/strategies/maker/VesperMakerStrategy.sol:VesperMakerStrategy",
        "label": "oracleRouterIdx",
        "offset": 0,
        "slot": "5",
        "type": "t_uint256"
      },
      {
        "astId": 14318,
        "contract": "contracts/strategies/maker/VesperMakerStrategy.sol:VesperMakerStrategy",
        "label": "swapSlippage",
        "offset": 0,
        "slot": "6",
        "type": "t_uint256"
      },
      {
        "astId": 14321,
        "contract": "contracts/strategies/maker/VesperMakerStrategy.sol:VesperMakerStrategy",
        "label": "_keepers",
        "offset": 0,
        "slot": "7",
        "type": "t_struct(AddressSet)4299_storage"
      },
      {
        "astId": 33749,
        "contract": "contracts/strategies/maker/VesperMakerStrategy.sol:VesperMakerStrategy",
        "label": "NAME",
        "offset": 0,
        "slot": "9",
        "type": "t_string_storage"
      },
      {
        "astId": 33762,
        "contract": "contracts/strategies/maker/VesperMakerStrategy.sol:VesperMakerStrategy",
        "label": "highWater",
        "offset": 0,
        "slot": "10",
        "type": "t_uint256"
      },
      {
        "astId": 33764,
        "contract": "contracts/strategies/maker/VesperMakerStrategy.sol:VesperMakerStrategy",
        "label": "lowWater",
        "offset": 0,
        "slot": "11",
        "type": "t_uint256"
      },
      {
        "astId": 33766,
        "contract": "contracts/strategies/maker/VesperMakerStrategy.sol:VesperMakerStrategy",
        "label": "decimalConversionFactor",
        "offset": 0,
        "slot": "12",
        "type": "t_uint256"
      }
    ],
    "types": {
      "t_address": {
        "encoding": "inplace",
        "label": "address",
        "numberOfBytes": "20"
      },
      "t_array(t_bytes32)dyn_storage": {
        "base": "t_bytes32",
        "encoding": "dynamic_array",
        "label": "bytes32[]",
        "numberOfBytes": "32"
      },
      "t_bytes32": {
        "encoding": "inplace",
        "label": "bytes32",
        "numberOfBytes": "32"
      },
      "t_contract(ISwapManager)5259": {
        "encoding": "inplace",
        "label": "contract ISwapManager",
        "numberOfBytes": "20"
      },
      "t_mapping(t_bytes32,t_uint256)": {
        "encoding": "mapping",
        "key": "t_bytes32",
        "label": "mapping(bytes32 => uint256)",
        "numberOfBytes": "32",
        "value": "t_uint256"
      },
      "t_string_storage": {
        "encoding": "bytes",
        "label": "string",
        "numberOfBytes": "32"
      },
      "t_struct(AddressSet)4299_storage": {
        "encoding": "inplace",
        "label": "struct EnumerableSet.AddressSet",
        "members": [
          {
            "astId": 4298,
            "contract": "contracts/strategies/maker/VesperMakerStrategy.sol:VesperMakerStrategy",
            "label": "_inner",
            "offset": 0,
            "slot": "0",
            "type": "t_struct(Set)3998_storage"
          }
        ],
        "numberOfBytes": "64"
      },
      "t_struct(Set)3998_storage": {
        "encoding": "inplace",
        "label": "struct EnumerableSet.Set",
        "members": [
          {
            "astId": 3993,
            "contract": "contracts/strategies/maker/VesperMakerStrategy.sol:VesperMakerStrategy",
            "label": "_values",
            "offset": 0,
            "slot": "0",
            "type": "t_array(t_bytes32)dyn_storage"
          },
          {
            "astId": 3997,
            "contract": "contracts/strategies/maker/VesperMakerStrategy.sol:VesperMakerStrategy",
            "label": "_indexes",
            "offset": 0,
            "slot": "1",
            "type": "t_mapping(t_bytes32,t_uint256)"
          }
        ],
        "numberOfBytes": "64"
      },
      "t_uint256": {
        "encoding": "inplace",
        "label": "uint256",
        "numberOfBytes": "32"
      }
    }
  }
}