{
  "address": "0x6671745A4Ff7a3358BEae215495040179a881942",
  "abi": [
    {
      "inputs": [
        {
          "internalType": "address",
          "name": "_multicall",
          "type": "address"
        }
      ],
      "stateMutability": "nonpayable",
      "type": "constructor"
    },
    {
      "anonymous": false,
      "inputs": [
        {
          "indexed": true,
          "internalType": "address",
          "name": "previousOwner",
          "type": "address"
        },
        {
          "indexed": true,
          "internalType": "address",
          "name": "newOwner",
          "type": "address"
        }
      ],
      "name": "OwnershipTransferred",
      "type": "event"
    },
    {
      "inputs": [
        {
          "internalType": "contract TransparentUpgradeableProxy",
          "name": "proxy",
          "type": "address"
        },
        {
          "internalType": "address",
          "name": "newAdmin",
          "type": "address"
        }
      ],
      "name": "changeProxyAdmin",
      "outputs": [],
      "stateMutability": "nonpayable",
      "type": "function"
    },
    {
      "inputs": [
        {
          "internalType": "contract TransparentUpgradeableProxy",
          "name": "proxy",
          "type": "address"
        }
      ],
      "name": "getProxyAdmin",
      "outputs": [
        {
          "internalType": "address",
          "name": "",
          "type": "address"
        }
      ],
      "stateMutability": "view",
      "type": "function"
    },
    {
      "inputs": [
        {
          "internalType": "contract TransparentUpgradeableProxy",
          "name": "proxy",
          "type": "address"
        }
      ],
      "name": "getProxyImplementation",
      "outputs": [
        {
          "internalType": "address",
          "name": "",
          "type": "address"
        }
      ],
      "stateMutability": "view",
      "type": "function"
    },
    {
      "inputs": [],
      "name": "multicall",
      "outputs": [
        {
          "internalType": "address",
          "name": "",
          "type": "address"
        }
      ],
      "stateMutability": "view",
      "type": "function"
    },
    {
      "inputs": [],
      "name": "owner",
      "outputs": [
        {
          "internalType": "address",
          "name": "",
          "type": "address"
        }
      ],
      "stateMutability": "view",
      "type": "function"
    },
    {
      "inputs": [],
      "name": "renounceOwnership",
      "outputs": [],
      "stateMutability": "nonpayable",
      "type": "function"
    },
    {
      "inputs": [
        {
          "internalType": "address",
          "name": "_proxy",
          "type": "address"
        },
        {
          "internalType": "address",
          "name": "_implementation",
          "type": "address"
        }
      ],
      "name": "safeUpgrade",
      "outputs": [],
      "stateMutability": "nonpayable",
      "type": "function"
    },
    {
      "inputs": [
        {
          "internalType": "address",
          "name": "_proxy",
          "type": "address"
        },
        {
          "internalType": "address",
          "name": "_implementation",
          "type": "address"
        },
        {
          "internalType": "bytes",
          "name": "_data",
          "type": "bytes"
        }
      ],
      "name": "safeUpgradeToAndCall",
      "outputs": [],
      "stateMutability": "payable",
      "type": "function"
    },
    {
      "inputs": [
        {
          "internalType": "address",
          "name": "newOwner",
          "type": "address"
        }
      ],
      "name": "transferOwnership",
      "outputs": [],
      "stateMutability": "nonpayable",
      "type": "function"
    },
    {
      "inputs": [
        {
          "internalType": "contract TransparentUpgradeableProxy",
          "name": "proxy",
          "type": "address"
        },
        {
          "internalType": "address",
          "name": "implementation",
          "type": "address"
        }
      ],
      "name": "upgrade",
      "outputs": [],
      "stateMutability": "nonpayable",
      "type": "function"
    },
    {
      "inputs": [
        {
          "internalType": "contract TransparentUpgradeableProxy",
          "name": "proxy",
          "type": "address"
        },
        {
          "internalType": "address",
          "name": "implementation",
          "type": "address"
        },
        {
          "internalType": "bytes",
          "name": "data",
          "type": "bytes"
        }
      ],
      "name": "upgradeAndCall",
      "outputs": [],
      "stateMutability": "payable",
      "type": "function"
    }
  ],
  "transactionHash": "0x10a6140a0ae41473e1f4953f71c017ded4efab2c2ddb430e8b47a4ee14863f60",
  "args": [
    "0xeefba1e63905ef1d7acba5a8513c70307c1ce441"
  ],
  "numDeployments": 1,
  "solcInputHash": "c91ec8da7445f08f528614adf27c911d",
  "bytecode": "0x608060405234801561001057600080fd5b5060405161128e38038061128e83398101604081905261002f91610096565b600080546001600160a01b031916339081178255604051839282917f8be0079c531659141344cd1fd0a4f28419497f9722a3daafe3b4186f6b6457e0908290a350600180546001600160a01b0319166001600160a01b0392909216919091179055506100c6565b6000602082840312156100a857600080fd5b81516001600160a01b03811681146100bf57600080fd5b9392505050565b6111b9806100d56000396000f3fe60806040526004361061009c5760003560e01c80637eff275e116100645780637eff275e146101415780638da5cb5b146101615780639623609d1461017657806399a88ec414610189578063f2fde38b146101a9578063f3b7dead146101c957600080fd5b80631cdcf85a146100a1578063204e1c7a146100d75780635e79c977146100f7578063715018a61461011957806371a2d6981461012e575b600080fd5b3480156100ad57600080fd5b506001546100c1906001600160a01b031681565b6040516100ce9190610c28565b60405180910390f35b3480156100e357600080fd5b506100c16100f2366004610c54565b6101e9565b34801561010357600080fd5b50610117610112366004610c78565b61027a565b005b34801561012557600080fd5b5061011761034a565b61011761013c366004610d74565b6103c3565b34801561014d57600080fd5b5061011761015c366004610c78565b61048d565b34801561016d57600080fd5b506100c1610516565b610117610184366004610d74565b610525565b34801561019557600080fd5b506101176101a4366004610c78565b6105bb565b3480156101b557600080fd5b506101176101c4366004610c54565b610616565b3480156101d557600080fd5b506100c16101e4366004610c54565b610705565b6000806000836001600160a01b031660405161020f90635c60da1b60e01b815260040190565b600060405180830381855afa9150503d806000811461024a576040519150601f19603f3d011682016040523d82523d6000602084013e61024f565b606091505b50915091508161025e57600080fd5b808060200190518101906102729190610dd5565b949350505050565b33610283610516565b6001600160a01b0316146102b25760405162461bcd60e51b81526004016102a990610df2565b60405180910390fd5b60006102bc61072b565b905060006102ca848361083e565b604051631b2ce7f360e11b81529091506001600160a01b03851690633659cfe6906102f9908690600401610c28565b600060405180830381600087803b15801561031357600080fd5b505af1158015610327573d6000803e3d6000fd5b505050506000610337858461083e565b905061034382826109bb565b5050505050565b33610353610516565b6001600160a01b0316146103795760405162461bcd60e51b81526004016102a990610df2565b600080546040516001600160a01b03909116907f8be0079c531659141344cd1fd0a4f28419497f9722a3daafe3b4186f6b6457e0908390a3600080546001600160a01b0319169055565b336103cc610516565b6001600160a01b0316146103f25760405162461bcd60e51b81526004016102a990610df2565b60006103fc61072b565b9050600061040a858361083e565b9050846001600160a01b0316634f1ef2863486866040518463ffffffff1660e01b815260040161043b929190610e83565b6000604051808303818588803b15801561045457600080fd5b505af1158015610468573d6000803e3d6000fd5b50505050506000610479868461083e565b905061048582826109bb565b505050505050565b33610496610516565b6001600160a01b0316146104bc5760405162461bcd60e51b81526004016102a990610df2565b6040516308f2839760e41b81526001600160a01b03831690638f283970906104e8908490600401610c28565b600060405180830381600087803b15801561050257600080fd5b505af1158015610485573d6000803e3d6000fd5b6000546001600160a01b031690565b3361052e610516565b6001600160a01b0316146105545760405162461bcd60e51b81526004016102a990610df2565b60405163278f794360e11b81526001600160a01b03841690634f1ef2869034906105849086908690600401610e83565b6000604051808303818588803b15801561059d57600080fd5b505af11580156105b1573d6000803e3d6000fd5b5050505050505050565b336105c4610516565b6001600160a01b0316146105ea5760405162461bcd60e51b81526004016102a990610df2565b604051631b2ce7f360e11b81526001600160a01b03831690633659cfe6906104e8908490600401610c28565b3361061f610516565b6001600160a01b0316146106455760405162461bcd60e51b81526004016102a990610df2565b6001600160a01b0381166106aa5760405162461bcd60e51b815260206004820152602660248201527f4f776e61626c653a206e6577206f776e657220697320746865207a65726f206160448201526564647265737360d01b60648201526084016102a9565b600080546040516001600160a01b03808516939216917f8be0079c531659141344cd1fd0a4f28419497f9722a3daafe3b4186f6b6457e091a3600080546001600160a01b0319166001600160a01b0392909216919091179055565b6000806000836001600160a01b031660405161020f906303e1469160e61b815260040190565b60408051600380825260808201909252606091816020015b6060815260200190600190039081610743579050506040805160048152602481019091526020810180516001600160e01b03166316f0115b60e01b179052815191925090829060009061079857610798610ea7565b60209081029190910181019190915260408051600481526024810190915290810180516001600160e01b031663c4f59f9b60e01b1790528151829060019081106107e4576107e4610ea7565b60209081029190910181019190915260408051600481526024810190915290810180516001600160e01b031663cd3daf9d60e01b17905281518290600290811061083057610830610ea7565b602002602001018190525090565b6060600082516001600160401b0381111561085b5761085b610cb1565b6040519080825280602002602001820160405280156108a157816020015b6040805180820190915260008152606060208201528152602001906001900390816108795790505b50905060005b835181101561092b57848282815181106108c3576108c3610ea7565b60209081029190910101516001600160a01b03909116905283518490829081106108ef576108ef610ea7565b602002602001015182828151811061090957610909610ea7565b602002602001015160200181905250808061092390610ebd565b9150506108a7565b50600154604051631296dd2160e11b81526001600160a01b039091169063252dba429061095c908490600401610ee6565b600060405180830381600087803b15801561097657600080fd5b505af115801561098a573d6000803e3d6000fd5b505050506040513d6000823e601f3d908101601f191682016040526109b29190810190610f86565b95945050505050565b6000826000815181106109d0576109d0610ea7565b60200260200101518060200190518101906109eb9190610dd5565b9050600083600181518110610a0257610a02610ea7565b6020026020010151806020019051810190610a1d91906110ec565b9050600084600281518110610a3457610a34610ea7565b6020026020010151806020019051810190610a4f9190611120565b915050600084600081518110610a6757610a67610ea7565b6020026020010151806020019051810190610a829190610dd5565b9050600085600181518110610a9957610a99610ea7565b6020026020010151806020019051810190610ab491906110ec565b9050600086600281518110610acb57610acb610ea7565b6020026020010151806020019051810190610ae69190611120565b915050826001600160a01b0316866001600160a01b031614610b3f5760405162461bcd60e51b8152602060048201526012602482015271199a595b191ccb5d195cdd0b59985a5b195960721b60448201526064016102a9565b81518551148015610b95575081600081518110610b5e57610b5e610ea7565b60200260200101516001600160a01b031685600081518110610b8257610b82610ea7565b60200260200101516001600160a01b0316145b8015610be6575080600081518110610baf57610baf610ea7565b60200260200101516001600160a01b031684600081518110610bd357610bd3610ea7565b60200260200101516001600160a01b0316145b6105b15760405162461bcd60e51b81526020600482015260136024820152721b595d1a1bd91ccb5d195cdd0b59985a5b1959606a1b60448201526064016102a9565b6001600160a01b0391909116815260200190565b6001600160a01b0381168114610c5157600080fd5b50565b600060208284031215610c6657600080fd5b8135610c7181610c3c565b9392505050565b60008060408385031215610c8b57600080fd5b8235610c9681610c3c565b91506020830135610ca681610c3c565b809150509250929050565b634e487b7160e01b600052604160045260246000fd5b604051601f8201601f191681016001600160401b0381118282101715610cef57610cef610cb1565b604052919050565b60006001600160401b03821115610d1057610d10610cb1565b50601f01601f191660200190565b600082601f830112610d2f57600080fd5b8135610d42610d3d82610cf7565b610cc7565b818152846020838601011115610d5757600080fd5b816020850160208301376000918101602001919091529392505050565b600080600060608486031215610d8957600080fd5b8335610d9481610c3c565b92506020840135610da481610c3c565b915060408401356001600160401b03811115610dbf57600080fd5b610dcb86828701610d1e565b9150509250925092565b600060208284031215610de757600080fd5b8151610c7181610c3c565b6020808252818101527f4f776e61626c653a2063616c6c6572206973206e6f7420746865206f776e6572604082015260600190565b60005b83811015610e42578181015183820152602001610e2a565b83811115610e51576000848401525b50505050565b60008151808452610e6f816020860160208601610e27565b601f01601f19169290920160200192915050565b6001600160a01b038316815260406020820181905260009061027290830184610e57565b634e487b7160e01b600052603260045260246000fd5b6000600019821415610edf57634e487b7160e01b600052601160045260246000fd5b5060010190565b60006020808301818452808551808352604092508286019150828160051b87010184880160005b83811015610f5557888303603f19018552815180516001600160a01b03168452870151878401879052610f4287850182610e57565b9588019593505090860190600101610f0d565b509098975050505050505050565b60006001600160401b03821115610f7c57610f7c610cb1565b5060051b60200190565b6000806040808486031215610f9a57600080fd5b835192506020808501516001600160401b0380821115610fb957600080fd5b818701915087601f830112610fcd57600080fd5b8151610fdb610d3d82610f63565b81815260059190911b8301840190848101908a831115610ffa57600080fd5b8585015b8381101561106b578051858111156110165760008081fd5b8601603f81018d136110285760008081fd5b87810151611038610d3d82610cf7565b8181528e8b83850101111561104d5760008081fd5b61105c828b83018d8601610e27565b85525050918601918601610ffe565b50809750505050505050509250929050565b600082601f83011261108e57600080fd5b8151602061109e610d3d83610f63565b82815260059290921b840181019181810190868411156110bd57600080fd5b8286015b848110156110e15780516110d481610c3c565b83529183019183016110c1565b509695505050505050565b6000602082840312156110fe57600080fd5b81516001600160401b0381111561111457600080fd5b6102728482850161107d565b6000806040838503121561113357600080fd5b82516001600160401b038082111561114a57600080fd5b6111568683870161107d565b9350602085015191508082111561116c57600080fd5b506111798582860161107d565b915050925092905056fea2646970667358221220135e67d5a0dd6ff7a54f4e7d03f95f57f8f278e8296530a349efd9b053f9ae0d64736f6c63430008090033",
  "devdoc": {
    "kind": "dev",
    "methods": {
      "changeProxyAdmin(address,address)": {
        "details": "Changes the admin of `proxy` to `newAdmin`. Requirements: - This contract must be the current admin of `proxy`."
      },
      "getProxyAdmin(address)": {
        "details": "Returns the current admin of `proxy`. Requirements: - This contract must be the admin of `proxy`."
      },
      "getProxyImplementation(address)": {
        "details": "Returns the current implementation of `proxy`. Requirements: - This contract must be the admin of `proxy`."
      },
      "owner()": {
        "details": "Returns the address of the current owner."
      },
      "renounceOwnership()": {
        "details": "Leaves the contract without owner. It will not be possible to call `onlyOwner` functions anymore. Can only be called by the current owner. NOTE: Renouncing ownership will leave the contract without an owner, thereby removing any functionality that is only available to the owner."
      },
      "transferOwnership(address)": {
        "details": "Transfers ownership of the contract to a new account (`newOwner`). Can only be called by the current owner."
      },
      "upgrade(address,address)": {
        "details": "Upgrades `proxy` to `implementation`. See {TransparentUpgradeableProxy-upgradeTo}. Requirements: - This contract must be the admin of `proxy`."
      },
      "upgradeAndCall(address,address,bytes)": {
        "details": "Upgrades `proxy` to `implementation` and calls a function on the new implementation. See {TransparentUpgradeableProxy-upgradeToAndCall}. Requirements: - This contract must be the admin of `proxy`."
      }
    },
    "version": 1
  },
  "userdoc": {
    "kind": "user",
    "methods": {},
    "version": 1
  },
  "storageLayout": {
    "storage": [
      {
        "astId": 1058,
        "contract": "contracts/upgraders/PoolRewardsUpgrader.sol:PoolRewardsUpgrader",
        "label": "_owner",
        "offset": 0,
        "slot": "0",
        "type": "t_address"
      },
      {
        "astId": 46000,
        "contract": "contracts/upgraders/PoolRewardsUpgrader.sol:PoolRewardsUpgrader",
        "label": "multicall",
        "offset": 0,
        "slot": "1",
        "type": "t_address"
      }
    ],
    "types": {
      "t_address": {
        "encoding": "inplace",
        "label": "address",
        "numberOfBytes": "20"
      }
    }
  }
}