{
  "address": "0xaCCa7cd8c908b6AcBc488c8990A22a6A41a4638D",
  "abi": [
    {
      "inputs": [
        {
          "internalType": "address",
          "name": "_multicall",
          "type": "address"
        }
      ],
      "stateMutability": "nonpayable",
      "type": "constructor"
    },
    {
      "anonymous": false,
      "inputs": [
        {
          "indexed": true,
          "internalType": "address",
          "name": "previousOwner",
          "type": "address"
        },
        {
          "indexed": true,
          "internalType": "address",
          "name": "newOwner",
          "type": "address"
        }
      ],
      "name": "OwnershipTransferred",
      "type": "event"
    },
    {
      "inputs": [
        {
          "internalType": "contract TransparentUpgradeableProxy",
          "name": "proxy",
          "type": "address"
        },
        {
          "internalType": "address",
          "name": "newAdmin",
          "type": "address"
        }
      ],
      "name": "changeProxyAdmin",
      "outputs": [],
      "stateMutability": "nonpayable",
      "type": "function"
    },
    {
      "inputs": [
        {
          "internalType": "contract TransparentUpgradeableProxy",
          "name": "proxy",
          "type": "address"
        }
      ],
      "name": "getProxyAdmin",
      "outputs": [
        {
          "internalType": "address",
          "name": "",
          "type": "address"
        }
      ],
      "stateMutability": "view",
      "type": "function"
    },
    {
      "inputs": [
        {
          "internalType": "contract TransparentUpgradeableProxy",
          "name": "proxy",
          "type": "address"
        }
      ],
      "name": "getProxyImplementation",
      "outputs": [
        {
          "internalType": "address",
          "name": "",
          "type": "address"
        }
      ],
      "stateMutability": "view",
      "type": "function"
    },
    {
      "inputs": [],
      "name": "multicall",
      "outputs": [
        {
          "internalType": "address",
          "name": "",
          "type": "address"
        }
      ],
      "stateMutability": "view",
      "type": "function"
    },
    {
      "inputs": [],
      "name": "owner",
      "outputs": [
        {
          "internalType": "address",
          "name": "",
          "type": "address"
        }
      ],
      "stateMutability": "view",
      "type": "function"
    },
    {
      "inputs": [],
      "name": "renounceOwnership",
      "outputs": [],
      "stateMutability": "nonpayable",
      "type": "function"
    },
    {
      "inputs": [
        {
          "internalType": "address",
          "name": "_proxy",
          "type": "address"
        },
        {
          "internalType": "address",
          "name": "_implementation",
          "type": "address"
        }
      ],
      "name": "safeUpgrade",
      "outputs": [],
      "stateMutability": "nonpayable",
      "type": "function"
    },
    {
      "inputs": [
        {
          "internalType": "address",
          "name": "_proxy",
          "type": "address"
        },
        {
          "internalType": "address",
          "name": "_implementation",
          "type": "address"
        },
        {
          "internalType": "bytes",
          "name": "_data",
          "type": "bytes"
        }
      ],
      "name": "safeUpgradeToAndCall",
      "outputs": [],
      "stateMutability": "payable",
      "type": "function"
    },
    {
      "inputs": [
        {
          "internalType": "address",
          "name": "newOwner",
          "type": "address"
        }
      ],
      "name": "transferOwnership",
      "outputs": [],
      "stateMutability": "nonpayable",
      "type": "function"
    },
    {
      "inputs": [
        {
          "internalType": "contract TransparentUpgradeableProxy",
          "name": "proxy",
          "type": "address"
        },
        {
          "internalType": "address",
          "name": "implementation",
          "type": "address"
        }
      ],
      "name": "upgrade",
      "outputs": [],
      "stateMutability": "nonpayable",
      "type": "function"
    },
    {
      "inputs": [
        {
          "internalType": "contract TransparentUpgradeableProxy",
          "name": "proxy",
          "type": "address"
        },
        {
          "internalType": "address",
          "name": "implementation",
          "type": "address"
        },
        {
          "internalType": "bytes",
          "name": "data",
          "type": "bytes"
        }
      ],
      "name": "upgradeAndCall",
      "outputs": [],
      "stateMutability": "payable",
      "type": "function"
    }
  ],
  "transactionHash": "0x41898ce34dfe92128d867455959f81bd20eb36d1faf9341de9db27a74a59f7c5",
  "args": [
    "0xeefba1e63905ef1d7acba5a8513c70307c1ce441"
  ],
  "numDeployments": 1,
  "solcInputHash": "c91ec8da7445f08f528614adf27c911d",
  "bytecode": "0x608060405234801561001057600080fd5b5060405161133738038061133783398101604081905261002f91610096565b600080546001600160a01b031916339081178255604051839282917f8be0079c531659141344cd1fd0a4f28419497f9722a3daafe3b4186f6b6457e0908290a350600180546001600160a01b0319166001600160a01b0392909216919091179055506100c6565b6000602082840312156100a857600080fd5b81516001600160a01b03811681146100bf57600080fd5b9392505050565b611262806100d56000396000f3fe60806040526004361061009c5760003560e01c80637eff275e116100645780637eff275e146101415780638da5cb5b146101615780639623609d1461017657806399a88ec414610189578063f2fde38b146101a9578063f3b7dead146101c957600080fd5b80631cdcf85a146100a1578063204e1c7a146100d75780635e79c977146100f7578063715018a61461011957806371a2d6981461012e575b600080fd5b3480156100ad57600080fd5b506001546100c1906001600160a01b031681565b6040516100ce9190610d25565b60405180910390f35b3480156100e357600080fd5b506100c16100f2366004610d51565b6101e9565b34801561010357600080fd5b50610117610112366004610d75565b61027a565b005b34801561012557600080fd5b5061011761034a565b61011761013c366004610e71565b6103c3565b34801561014d57600080fd5b5061011761015c366004610d75565b61048d565b34801561016d57600080fd5b506100c1610516565b610117610184366004610e71565b610525565b34801561019557600080fd5b506101176101a4366004610d75565b6105bb565b3480156101b557600080fd5b506101176101c4366004610d51565b610616565b3480156101d557600080fd5b506100c16101e4366004610d51565b610705565b6000806000836001600160a01b031660405161020f90635c60da1b60e01b815260040190565b600060405180830381855afa9150503d806000811461024a576040519150601f19603f3d011682016040523d82523d6000602084013e61024f565b606091505b50915091508161025e57600080fd5b808060200190518101906102729190610ed2565b949350505050565b33610283610516565b6001600160a01b0316146102b25760405162461bcd60e51b81526004016102a990610eef565b60405180910390fd5b60006102bc61072b565b905060006102ca84836108d5565b604051631b2ce7f360e11b81529091506001600160a01b03851690633659cfe6906102f9908690600401610d25565b600060405180830381600087803b15801561031357600080fd5b505af1158015610327573d6000803e3d6000fd5b50505050600061033785846108d5565b90506103438282610a52565b5050505050565b33610353610516565b6001600160a01b0316146103795760405162461bcd60e51b81526004016102a990610eef565b600080546040516001600160a01b03909116907f8be0079c531659141344cd1fd0a4f28419497f9722a3daafe3b4186f6b6457e0908390a3600080546001600160a01b0319169055565b336103cc610516565b6001600160a01b0316146103f25760405162461bcd60e51b81526004016102a990610eef565b60006103fc61072b565b9050600061040a85836108d5565b9050846001600160a01b0316634f1ef2863486866040518463ffffffff1660e01b815260040161043b929190610f80565b6000604051808303818588803b15801561045457600080fd5b505af1158015610468573d6000803e3d6000fd5b5050505050600061047986846108d5565b90506104858282610a52565b505050505050565b33610496610516565b6001600160a01b0316146104bc5760405162461bcd60e51b81526004016102a990610eef565b6040516308f2839760e41b81526001600160a01b03831690638f283970906104e8908490600401610d25565b600060405180830381600087803b15801561050257600080fd5b505af1158015610485573d6000803e3d6000fd5b6000546001600160a01b031690565b3361052e610516565b6001600160a01b0316146105545760405162461bcd60e51b81526004016102a990610eef565b60405163278f794360e11b81526001600160a01b03841690634f1ef2869034906105849086908690600401610f80565b6000604051808303818588803b15801561059d57600080fd5b505af11580156105b1573d6000803e3d6000fd5b5050505050505050565b336105c4610516565b6001600160a01b0316146105ea5760405162461bcd60e51b81526004016102a990610eef565b604051631b2ce7f360e11b81526001600160a01b03831690633659cfe6906104e8908490600401610d25565b3361061f610516565b6001600160a01b0316146106455760405162461bcd60e51b81526004016102a990610eef565b6001600160a01b0381166106aa5760405162461bcd60e51b815260206004820152602660248201527f4f776e61626c653a206e6577206f776e657220697320746865207a65726f206160448201526564647265737360d01b60648201526084016102a9565b600080546040516001600160a01b03808516939216917f8be0079c531659141344cd1fd0a4f28419497f9722a3daafe3b4186f6b6457e091a3600080546001600160a01b0319166001600160a01b0392909216919091179055565b6000806000836001600160a01b031660405161020f906303e1469160e61b815260040190565b60408051600580825260c08201909252606091816020015b6060815260200190600190039081610743579050506040805160048152602481019091526020810180516001600160e01b03166316f0115b60e01b179052815191925090829060009061079857610798610fa4565b60209081029190910181019190915260408051600481526024810190915290810180516001600160e01b0316632df9eab960e01b1790528151829060019081106107e4576107e4610fa4565b60209081029190910181019190915260408051600481526024810190915290810180516001600160e01b0316631f8f738360e31b17905281518290600290811061083057610830610fa4565b60209081029190910181019190915260408051600481526024810190915290810180516001600160e01b031663b49a60bb60e01b17905281518290600390811061087c5761087c610fa4565b6020908102919091018101919091526040805160048082526024820190925291820180516001600160e01b031663088c182960e11b179052825183919081106108c7576108c7610fa4565b602002602001018190525090565b6060600082516001600160401b038111156108f2576108f2610dae565b60405190808252806020026020018201604052801561093857816020015b6040805180820190915260008152606060208201528152602001906001900390816109105790505b50905060005b83518110156109c2578482828151811061095a5761095a610fa4565b60209081029190910101516001600160a01b039091169052835184908290811061098657610986610fa4565b60200260200101518282815181106109a0576109a0610fa4565b60200260200101516020018190525080806109ba90610fba565b91505061093e565b50600154604051631296dd2160e11b81526001600160a01b039091169063252dba42906109f3908490600401610fe3565b600060405180830381600087803b158015610a0d57600080fd5b505af1158015610a21573d6000803e3d6000fd5b505050506040513d6000823e601f3d908101601f19168201604052610a499190810190611083565b95945050505050565b600082600081518110610a6757610a67610fa4565b6020026020010151806020019051810190610a829190610ed2565b9050600083600181518110610a9957610a99610fa4565b6020026020010151806020019051810190610ab4919061117a565b9050600084600281518110610acb57610acb610fa4565b6020026020010151806020019051810190610ae6919061117a565b9050600085600381518110610afd57610afd610fa4565b6020026020010151806020019051810190610b189190611193565b9050600086600481518110610b2f57610b2f610fa4565b6020026020010151806020019051810190610b4a9190611193565b9050600086600081518110610b6157610b61610fa4565b6020026020010151806020019051810190610b7c9190610ed2565b9050600087600181518110610b9357610b93610fa4565b6020026020010151806020019051810190610bae919061117a565b9050600088600281518110610bc557610bc5610fa4565b6020026020010151806020019051810190610be0919061117a565b9050600089600381518110610bf757610bf7610fa4565b6020026020010151806020019051810190610c129190611193565b905060008a600481518110610c2957610c29610fa4565b6020026020010151806020019051810190610c449190611193565b9050846001600160a01b03168a6001600160a01b0316148015610c6657508389145b8015610c7157508288145b610cb95760405162461bcd60e51b81526020600482015260196024820152781cda5b5c1b194b599a595b191ccb5d195cdd0b59985a5b1959603a1b60448201526064016102a9565b81518751148015610ccb575080518651145b610d175760405162461bcd60e51b815260206004820152601a60248201527f64796e616d69632d6669656c64732d746573742d6661696c656400000000000060448201526064016102a9565b505050505050505050505050565b6001600160a01b0391909116815260200190565b6001600160a01b0381168114610d4e57600080fd5b50565b600060208284031215610d6357600080fd5b8135610d6e81610d39565b9392505050565b60008060408385031215610d8857600080fd5b8235610d9381610d39565b91506020830135610da381610d39565b809150509250929050565b634e487b7160e01b600052604160045260246000fd5b604051601f8201601f191681016001600160401b0381118282101715610dec57610dec610dae565b604052919050565b60006001600160401b03821115610e0d57610e0d610dae565b50601f01601f191660200190565b600082601f830112610e2c57600080fd5b8135610e3f610e3a82610df4565b610dc4565b818152846020838601011115610e5457600080fd5b816020850160208301376000918101602001919091529392505050565b600080600060608486031215610e8657600080fd5b8335610e9181610d39565b92506020840135610ea181610d39565b915060408401356001600160401b03811115610ebc57600080fd5b610ec886828701610e1b565b9150509250925092565b600060208284031215610ee457600080fd5b8151610d6e81610d39565b6020808252818101527f4f776e61626c653a2063616c6c6572206973206e6f7420746865206f776e6572604082015260600190565b60005b83811015610f3f578181015183820152602001610f27565b83811115610f4e576000848401525b50505050565b60008151808452610f6c816020860160208601610f24565b601f01601f19169290920160200192915050565b6001600160a01b038316815260406020820181905260009061027290830184610f54565b634e487b7160e01b600052603260045260246000fd5b6000600019821415610fdc57634e487b7160e01b600052601160045260246000fd5b5060010190565b60006020808301818452808551808352604092508286019150828160051b87010184880160005b8381101561105257888303603f19018552815180516001600160a01b0316845287015187840187905261103f87850182610f54565b958801959350509086019060010161100a565b509098975050505050505050565b60006001600160401b0382111561107957611079610dae565b5060051b60200190565b600080604080848603121561109757600080fd5b835192506020808501516001600160401b03808211156110b657600080fd5b818701915087601f8301126110ca57600080fd5b81516110d8610e3a82611060565b81815260059190911b8301840190848101908a8311156110f757600080fd5b8585015b83811015611168578051858111156111135760008081fd5b8601603f81018d136111255760008081fd5b87810151611135610e3a82610df4565b8181528e8b83850101111561114a5760008081fd5b611159828b83018d8601610f24565b855250509186019186016110fb565b50809750505050505050509250929050565b60006020828403121561118c57600080fd5b5051919050565b600060208083850312156111a657600080fd5b82516001600160401b038111156111bc57600080fd5b8301601f810185136111cd57600080fd5b80516111db610e3a82611060565b81815260059190911b820183019083810190878311156111fa57600080fd5b928401925b8284101561122157835161121281610d39565b825292840192908401906111ff565b97965050505050505056fea264697066735822122023cd6609842cde8417185c26ac60c4cf9e98fc14083c9034d7eb7649758f290164736f6c63430008090033",
  "devdoc": {
    "kind": "dev",
    "methods": {
      "changeProxyAdmin(address,address)": {
        "details": "Changes the admin of `proxy` to `newAdmin`. Requirements: - This contract must be the current admin of `proxy`."
      },
      "getProxyAdmin(address)": {
        "details": "Returns the current admin of `proxy`. Requirements: - This contract must be the admin of `proxy`."
      },
      "getProxyImplementation(address)": {
        "details": "Returns the current implementation of `proxy`. Requirements: - This contract must be the admin of `proxy`."
      },
      "owner()": {
        "details": "Returns the address of the current owner."
      },
      "renounceOwnership()": {
        "details": "Leaves the contract without owner. It will not be possible to call `onlyOwner` functions anymore. Can only be called by the current owner. NOTE: Renouncing ownership will leave the contract without an owner, thereby removing any functionality that is only available to the owner."
      },
      "transferOwnership(address)": {
        "details": "Transfers ownership of the contract to a new account (`newOwner`). Can only be called by the current owner."
      },
      "upgrade(address,address)": {
        "details": "Upgrades `proxy` to `implementation`. See {TransparentUpgradeableProxy-upgradeTo}. Requirements: - This contract must be the admin of `proxy`."
      },
      "upgradeAndCall(address,address,bytes)": {
        "details": "Upgrades `proxy` to `implementation` and calls a function on the new implementation. See {TransparentUpgradeableProxy-upgradeToAndCall}. Requirements: - This contract must be the admin of `proxy`."
      }
    },
    "version": 1
  },
  "userdoc": {
    "kind": "user",
    "methods": {},
    "version": 1
  },
  "storageLayout": {
    "storage": [
      {
        "astId": 1058,
        "contract": "contracts/upgraders/PoolAccountantUpgrader.sol:PoolAccountantUpgrader",
        "label": "_owner",
        "offset": 0,
        "slot": "0",
        "type": "t_address"
      },
      {
        "astId": 46000,
        "contract": "contracts/upgraders/PoolAccountantUpgrader.sol:PoolAccountantUpgrader",
        "label": "multicall",
        "offset": 0,
        "slot": "1",
        "type": "t_address"
      }
    ],
    "types": {
      "t_address": {
        "encoding": "inplace",
        "label": "address",
        "numberOfBytes": "20"
      }
    }
  }
}