{
  "address": "0x39450c358b499caec553d15d6588cC186DC4DE19",
  "abi": [
    {
      "anonymous": false,
      "inputs": [
        {
          "indexed": true,
          "internalType": "address",
          "name": "strategy",
          "type": "address"
        },
        {
          "indexed": false,
          "internalType": "uint256",
          "name": "profit",
          "type": "uint256"
        },
        {
          "indexed": false,
          "internalType": "uint256",
          "name": "loss",
          "type": "uint256"
        },
        {
          "indexed": false,
          "internalType": "uint256",
          "name": "payback",
          "type": "uint256"
        },
        {
          "indexed": false,
          "internalType": "uint256",
          "name": "strategyDebt",
          "type": "uint256"
        },
        {
          "indexed": false,
          "internalType": "uint256",
          "name": "poolDebt",
          "type": "uint256"
        },
        {
          "indexed": false,
          "internalType": "uint256",
          "name": "creditLine",
          "type": "uint256"
        }
      ],
      "name": "EarningReported",
      "type": "event"
    },
    {
      "anonymous": false,
      "inputs": [
        {
          "indexed": true,
          "internalType": "address",
          "name": "strategy",
          "type": "address"
        },
        {
          "indexed": false,
          "internalType": "uint256",
          "name": "loss",
          "type": "uint256"
        }
      ],
      "name": "LossReported",
      "type": "event"
    },
    {
      "anonymous": false,
      "inputs": [
        {
          "indexed": true,
          "internalType": "address",
          "name": "strategy",
          "type": "address"
        },
        {
          "indexed": false,
          "internalType": "uint256",
          "name": "debtRatio",
          "type": "uint256"
        },
        {
          "indexed": false,
          "internalType": "uint256",
          "name": "debtRate",
          "type": "uint256"
        },
        {
          "indexed": false,
          "internalType": "uint256",
          "name": "externalDepositFee",
          "type": "uint256"
        }
      ],
      "name": "StrategyAdded",
      "type": "event"
    },
    {
      "anonymous": false,
      "inputs": [
        {
          "indexed": true,
          "internalType": "address",
          "name": "oldStrategy",
          "type": "address"
        },
        {
          "indexed": true,
          "internalType": "address",
          "name": "newStrategy",
          "type": "address"
        },
        {
          "indexed": false,
          "internalType": "uint256",
          "name": "debtRatio",
          "type": "uint256"
        },
        {
          "indexed": false,
          "internalType": "uint256",
          "name": "debtRate",
          "type": "uint256"
        },
        {
          "indexed": false,
          "internalType": "uint256",
          "name": "externalDepositFee",
          "type": "uint256"
        }
      ],
      "name": "StrategyMigrated",
      "type": "event"
    },
    {
      "anonymous": false,
      "inputs": [
        {
          "indexed": true,
          "internalType": "address",
          "name": "strategy",
          "type": "address"
        }
      ],
      "name": "StrategyRemoved",
      "type": "event"
    },
    {
      "anonymous": false,
      "inputs": [
        {
          "indexed": true,
          "internalType": "address",
          "name": "strategy",
          "type": "address"
        },
        {
          "indexed": false,
          "internalType": "uint256",
          "name": "previousFee",
          "type": "uint256"
        },
        {
          "indexed": false,
          "internalType": "uint256",
          "name": "newFee",
          "type": "uint256"
        }
      ],
      "name": "UpdatedExternalDepositFee",
      "type": "event"
    },
    {
      "anonymous": false,
      "inputs": [
        {
          "indexed": false,
          "internalType": "uint256",
          "name": "previousFee",
          "type": "uint256"
        },
        {
          "indexed": false,
          "internalType": "uint256",
          "name": "newFee",
          "type": "uint256"
        }
      ],
      "name": "UpdatedPoolExternalDepositFee",
      "type": "event"
    },
    {
      "anonymous": false,
      "inputs": [
        {
          "indexed": true,
          "internalType": "address",
          "name": "strategy",
          "type": "address"
        },
        {
          "indexed": false,
          "internalType": "uint256",
          "name": "debtRatio",
          "type": "uint256"
        },
        {
          "indexed": false,
          "internalType": "uint256",
          "name": "debtRate",
          "type": "uint256"
        }
      ],
      "name": "UpdatedStrategyDebtParams",
      "type": "event"
    },
    {
      "inputs": [],
      "name": "MAX_BPS",
      "outputs": [
        {
          "internalType": "uint256",
          "name": "",
          "type": "uint256"
        }
      ],
      "stateMutability": "view",
      "type": "function"
    },
    {
      "inputs": [],
      "name": "VERSION",
      "outputs": [
        {
          "internalType": "string",
          "name": "",
          "type": "string"
        }
      ],
      "stateMutability": "view",
      "type": "function"
    },
    {
      "inputs": [
        {
          "internalType": "address",
          "name": "_strategy",
          "type": "address"
        },
        {
          "internalType": "uint256",
          "name": "_debtRatio",
          "type": "uint256"
        },
        {
          "internalType": "uint256",
          "name": "_debtRate",
          "type": "uint256"
        },
        {
          "internalType": "uint256",
          "name": "_externalDepositFee",
          "type": "uint256"
        }
      ],
      "name": "addStrategy",
      "outputs": [],
      "stateMutability": "nonpayable",
      "type": "function"
    },
    {
      "inputs": [
        {
          "internalType": "address",
          "name": "_strategy",
          "type": "address"
        }
      ],
      "name": "availableCreditLimit",
      "outputs": [
        {
          "internalType": "uint256",
          "name": "",
          "type": "uint256"
        }
      ],
      "stateMutability": "view",
      "type": "function"
    },
    {
      "inputs": [
        {
          "internalType": "address",
          "name": "_strategy",
          "type": "address"
        },
        {
          "internalType": "uint256",
          "name": "_decreaseBy",
          "type": "uint256"
        }
      ],
      "name": "decreaseDebt",
      "outputs": [],
      "stateMutability": "nonpayable",
      "type": "function"
    },
    {
      "inputs": [
        {
          "internalType": "address",
          "name": "_strategy",
          "type": "address"
        }
      ],
      "name": "excessDebt",
      "outputs": [
        {
          "internalType": "uint256",
          "name": "",
          "type": "uint256"
        }
      ],
      "stateMutability": "view",
      "type": "function"
    },
    {
      "inputs": [],
      "name": "externalDepositFee",
      "outputs": [
        {
          "internalType": "uint256",
          "name": "",
          "type": "uint256"
        }
      ],
      "stateMutability": "view",
      "type": "function"
    },
    {
      "inputs": [],
      "name": "getStrategies",
      "outputs": [
        {
          "internalType": "address[]",
          "name": "",
          "type": "address[]"
        }
      ],
      "stateMutability": "view",
      "type": "function"
    },
    {
      "inputs": [],
      "name": "getWithdrawQueue",
      "outputs": [
        {
          "internalType": "address[]",
          "name": "",
          "type": "address[]"
        }
      ],
      "stateMutability": "view",
      "type": "function"
    },
    {
      "inputs": [
        {
          "internalType": "address",
          "name": "_pool",
          "type": "address"
        }
      ],
      "name": "init",
      "outputs": [],
      "stateMutability": "nonpayable",
      "type": "function"
    },
    {
      "inputs": [
        {
          "internalType": "address",
          "name": "_old",
          "type": "address"
        },
        {
          "internalType": "address",
          "name": "_new",
          "type": "address"
        }
      ],
      "name": "migrateStrategy",
      "outputs": [],
      "stateMutability": "nonpayable",
      "type": "function"
    },
    {
      "inputs": [],
      "name": "pool",
      "outputs": [
        {
          "internalType": "address",
          "name": "",
          "type": "address"
        }
      ],
      "stateMutability": "view",
      "type": "function"
    },
    {
      "inputs": [],
      "name": "recalculatePoolExternalDepositFee",
      "outputs": [],
      "stateMutability": "nonpayable",
      "type": "function"
    },
    {
      "inputs": [
        {
          "internalType": "uint256",
          "name": "_index",
          "type": "uint256"
        }
      ],
      "name": "removeStrategy",
      "outputs": [],
      "stateMutability": "nonpayable",
      "type": "function"
    },
    {
      "inputs": [
        {
          "internalType": "address",
          "name": "_strategy",
          "type": "address"
        },
        {
          "internalType": "uint256",
          "name": "_profit",
          "type": "uint256"
        },
        {
          "internalType": "uint256",
          "name": "_loss",
          "type": "uint256"
        },
        {
          "internalType": "uint256",
          "name": "_payback",
          "type": "uint256"
        }
      ],
      "name": "reportEarning",
      "outputs": [
        {
          "internalType": "uint256",
          "name": "_actualPayback",
          "type": "uint256"
        },
        {
          "internalType": "uint256",
          "name": "_creditLine",
          "type": "uint256"
        }
      ],
      "stateMutability": "nonpayable",
      "type": "function"
    },
    {
      "inputs": [
        {
          "internalType": "address",
          "name": "_strategy",
          "type": "address"
        },
        {
          "internalType": "uint256",
          "name": "_loss",
          "type": "uint256"
        }
      ],
      "name": "reportLoss",
      "outputs": [],
      "stateMutability": "nonpayable",
      "type": "function"
    },
    {
      "inputs": [
        {
          "internalType": "uint256",
          "name": "",
          "type": "uint256"
        }
      ],
      "name": "strategies",
      "outputs": [
        {
          "internalType": "address",
          "name": "",
          "type": "address"
        }
      ],
      "stateMutability": "view",
      "type": "function"
    },
    {
      "inputs": [
        {
          "internalType": "address",
          "name": "",
          "type": "address"
        }
      ],
      "name": "strategy",
      "outputs": [
        {
          "internalType": "bool",
          "name": "active",
          "type": "bool"
        },
        {
          "internalType": "uint256",
          "name": "interestFeeObsolete",
          "type": "uint256"
        },
        {
          "internalType": "uint256",
          "name": "debtRate",
          "type": "uint256"
        },
        {
          "internalType": "uint256",
          "name": "lastRebalance",
          "type": "uint256"
        },
        {
          "internalType": "uint256",
          "name": "totalDebt",
          "type": "uint256"
        },
        {
          "internalType": "uint256",
          "name": "totalLoss",
          "type": "uint256"
        },
        {
          "internalType": "uint256",
          "name": "totalProfit",
          "type": "uint256"
        },
        {
          "internalType": "uint256",
          "name": "debtRatio",
          "type": "uint256"
        },
        {
          "internalType": "uint256",
          "name": "externalDepositFee",
          "type": "uint256"
        }
      ],
      "stateMutability": "view",
      "type": "function"
    },
    {
      "inputs": [
        {
          "internalType": "address",
          "name": "_fromToken",
          "type": "address"
        }
      ],
      "name": "sweepERC20",
      "outputs": [],
      "stateMutability": "nonpayable",
      "type": "function"
    },
    {
      "inputs": [],
      "name": "totalDebt",
      "outputs": [
        {
          "internalType": "uint256",
          "name": "",
          "type": "uint256"
        }
      ],
      "stateMutability": "view",
      "type": "function"
    },
    {
      "inputs": [
        {
          "internalType": "address",
          "name": "_strategy",
          "type": "address"
        }
      ],
      "name": "totalDebtOf",
      "outputs": [
        {
          "internalType": "uint256",
          "name": "",
          "type": "uint256"
        }
      ],
      "stateMutability": "view",
      "type": "function"
    },
    {
      "inputs": [],
      "name": "totalDebtRatio",
      "outputs": [
        {
          "internalType": "uint256",
          "name": "",
          "type": "uint256"
        }
      ],
      "stateMutability": "view",
      "type": "function"
    },
    {
      "inputs": [
        {
          "internalType": "address",
          "name": "_strategy",
          "type": "address"
        },
        {
          "internalType": "uint256",
          "name": "_debtRate",
          "type": "uint256"
        }
      ],
      "name": "updateDebtRate",
      "outputs": [],
      "stateMutability": "nonpayable",
      "type": "function"
    },
    {
      "inputs": [
        {
          "internalType": "address",
          "name": "_strategy",
          "type": "address"
        },
        {
          "internalType": "uint256",
          "name": "_debtRatio",
          "type": "uint256"
        }
      ],
      "name": "updateDebtRatio",
      "outputs": [],
      "stateMutability": "nonpayable",
      "type": "function"
    },
    {
      "inputs": [
        {
          "internalType": "address",
          "name": "_strategy",
          "type": "address"
        },
        {
          "internalType": "uint256",
          "name": "_externalDepositFee",
          "type": "uint256"
        }
      ],
      "name": "updateExternalDepositFee",
      "outputs": [],
      "stateMutability": "nonpayable",
      "type": "function"
    },
    {
      "inputs": [
        {
          "internalType": "address[]",
          "name": "_withdrawQueue",
          "type": "address[]"
        }
      ],
      "name": "updateWithdrawQueue",
      "outputs": [],
      "stateMutability": "nonpayable",
      "type": "function"
    },
    {
      "inputs": [
        {
          "internalType": "uint256",
          "name": "",
          "type": "uint256"
        }
      ],
      "name": "withdrawQueue",
      "outputs": [
        {
          "internalType": "address",
          "name": "",
          "type": "address"
        }
      ],
      "stateMutability": "view",
      "type": "function"
    }
  ],
  "transactionHash": "0xf02991207697c7dd1f421c79a60e499dcd79be71a73dd2622c688edb0f7454f5",
  "args": [],
  "solcInputHash": "1fcc9d6bba2e02812b6c126ef0fdf444",
  "bytecode": "0x608060405234801561001057600080fd5b506131c6806100206000396000f3fe608060405234801561001057600080fd5b50600436106101795760003560e01c8063854f4d80116100d9578063d20ed3ef11610087578063d20ed3ef146103bd578063d53ddc26146103d0578063d574ea3d146103e3578063e00af4a7146103f6578063fc7b9c1814610409578063fd967f4714610412578063ffa1ad741461041b57600080fd5b8063854f4d80146103155780638f88d18c146103285780639f2b28331461033b578063a066654b14610367578063b49a60bb1461038f578063b64321ec14610397578063c0cbbca6146103aa57600080fd5b80632df9eab9116101365780632df9eab9146102965780632fb9ba31146102ad57806332b77a76146102c0578063346162d5146102d357806362518ddf146102dc5780636cb56d19146102ef5780637f13086e1461030257600080fd5b80630dd21b6c1461017e578063111830521461019357806316f0115b146101b157806319ab453c146101d7578063228bfd9f146101ea5780632a1f6ec11461028e575b600080fd5b61019161018c366004612d40565b61044c565b005b61019b6107ff565b6040516101a89190612d7b565b60405180910390f35b6000546101ca906201000090046001600160a01b031681565b6040516101a89190612dc8565b6101916101e5366004612ddc565b610861565b6102486101f8366004612ddc565b600560208190526000918252604090912080546001820154600283015460038401546004850154958501546006860154600787015460089097015460ff9096169794969395929493919290919089565b604080519915158a5260208a0198909852968801959095526060870193909352608086019190915260a085015260c084015260e0830152610100820152610120016101a8565b610191610978565b61029f60015481565b6040519081526020016101a8565b6101916102bb366004612df9565b610ab4565b6101916102ce366004612df9565b610b5d565b61029f60065481565b6101ca6102ea366004612e25565b610d03565b6101916102fd366004612e3e565b610d2d565b610191610310366004612df9565b6111e7565b610191610323366004612e8d565b6112c0565b610191610336366004612df9565b6114f9565b61029f610349366004612ddc565b6001600160a01b031660009081526005602052604090206004015490565b61037a610375366004612d40565b61175b565b604080519283526020830191909152016101a8565b61019b611abc565b61029f6103a5366004612ddc565b611b1c565b6101916103b8366004612e25565b611b2d565b6101916103cb366004612df9565b611f3f565b61029f6103de366004612ddc565b612122565b6101ca6103f1366004612e25565b61212d565b610191610404366004612ddc565b61213d565b61029f60025481565b61029f61271081565b61043f604051806040016040528060058152602001640352e302e360dc1b81525081565b6040516101a89190612f7e565b6000546040805163030d028960e21b8152905133926201000090046001600160a01b031691630c340a24916004808301926020929190829003018186803b15801561049657600080fd5b505afa1580156104aa573d6000803e3d6000fd5b505050506040513d601f19601f820116820180604052508101906104ce9190612fb1565b6001600160a01b0316146104fd5760405162461bcd60e51b81526004016104f490612fce565b60405180910390fd5b604080518082019091526002815261031360f41b60208201526001600160a01b03851661053d5760405162461bcd60e51b81526004016104f49190612f7e565b506001600160a01b0384166000908152600560209081526040918290205482518084019093526002835261313560f01b9183019190915260ff16156105955760405162461bcd60e51b81526004016104f49190612f7e565b50826001546105a4919061300e565b6001819055604080518082019091526002815261062760f31b60208201529061271010156105e55760405162461bcd60e51b81526004016104f49190612f7e565b50604080518082019091526002815261313160f01b60208201526127108211156106225760405162461bcd60e51b81526004016104f49190612f7e565b506000604051806101200160405280600115158152602001600081526020018481526020014381526020016000815260200160008152602001600081526020018581526020018381525090508060056000876001600160a01b03166001600160a01b0316815260200190815260200160002060008201518160000160006101000a81548160ff0219169083151502179055506020820151816001015560408201518160020155606082015181600301556080820151816004015560a0820151816005015560c0820151816006015560e0820151816007015561010082015181600801559050506003859080600181540180825580915050600190039060005260206000200160009091909190916101000a8154816001600160a01b0302191690836001600160a01b031602179055506004859080600181540180825580915050600190039060005260206000200160009091909190916101000a8154816001600160a01b0302191690836001600160a01b03160217905550846001600160a01b03167f5ec27a4fa537fc86d0d17d84e0ee3172c9d253c78cc4ab5c69ee99c5f7084f518585856040516107e8939291909283526020830191909152604082015260600190565b60405180910390a26107f8612311565b5050505050565b6060600480548060200260200160405190810160405280929190818152602001828054801561085757602002820191906000526020600020905b81546001600160a01b03168152600190910190602001808311610839575b5050505050905090565b600054610100900460ff168061087a575060005460ff16155b6108dd5760405162461bcd60e51b815260206004820152602e60248201527f496e697469616c697a61626c653a20636f6e747261637420697320616c72656160448201526d191e481a5b9a5d1a585b1a5e995960921b60648201526084016104f4565b600054610100900460ff161580156108ff576000805461ffff19166101011790555b604080518082019091526002815261031360f41b60208201526001600160a01b03831661093f5760405162461bcd60e51b81526004016104f49190612f7e565b506000805462010000600160b01b031916620100006001600160a01b038516021790558015610974576000805461ff00191690555b5050565b6000546040805163030d028960e21b8152905133926201000090046001600160a01b031691630c340a24916004808301926020929190829003018186803b1580156109c257600080fd5b505afa1580156109d6573d6000803e3d6000fd5b505050506040513d601f19601f820116820180604052508101906109fa9190612fb1565b6001600160a01b03161480610a8e57506000546201000090046001600160a01b0316636ba42aaa336040518263ffffffff1660e01b8152600401610a3e9190612dc8565b60206040518083038186803b158015610a5657600080fd5b505afa158015610a6a573d6000803e3d6000fd5b505050506040513d601f19601f82011682018060405250810190610a8e9190613026565b610aaa5760405162461bcd60e51b81526004016104f490613048565b610ab2612311565b565b6000546001600160a01b0362010000909104163314610ae55760405162461bcd60e51b81526004016104f49061306e565b6001600160a01b038216600090815260056020526040902060040154610b0b908261243e565b6001600160a01b038316600090815260056020526040812060040180549293508392909190610b3b908490613092565b925050819055508060026000828254610b549190613092565b90915550505050565b6000546040805163030d028960e21b8152905133926201000090046001600160a01b031691630c340a24916004808301926020929190829003018186803b158015610ba757600080fd5b505afa158015610bbb573d6000803e3d6000fd5b505050506040513d601f19601f82011682018060405250810190610bdf9190612fb1565b6001600160a01b031614610c055760405162461bcd60e51b81526004016104f490612fce565b6001600160a01b0382166000908152600560209081526040918290205482518084019093526002835261189b60f11b9183019190915260ff16610c5b5760405162461bcd60e51b81526004016104f49190612f7e565b50604080518082019091526002815261313160f01b6020820152612710821115610c985760405162461bcd60e51b81526004016104f49190612f7e565b506001600160a01b038216600081815260056020908152604091829020600801805490859055825181815291820185905292917f3e57eabb1906726caa174b6716b34373026dfd25dbae17ba47ec46e8a9ced9ee910160405180910390a2610cfe612311565b505050565b60048181548110610d1357600080fd5b6000918252602090912001546001600160a01b0316905081565b6000546001600160a01b0362010000909104163314610d5e5760405162461bcd60e51b81526004016104f49061306e565b6001600160a01b0382166000908152600560209081526040918290205482518084019093526002835261189b60f11b9183019190915260ff16610db45760405162461bcd60e51b81526004016104f49190612f7e565b506001600160a01b0381166000908152600560209081526040918290205482518084019093526002835261313560f01b9183019190915260ff1615610e0c5760405162461bcd60e51b81526004016104f49190612f7e565b5060006040518061012001604052806001151581526020016000815260200160056000866001600160a01b03166001600160a01b0316815260200190815260200160002060020154815260200160056000866001600160a01b03166001600160a01b0316815260200190815260200160002060030154815260200160056000866001600160a01b03166001600160a01b03168152602001908152602001600020600401548152602001600081526020016000815260200160056000866001600160a01b03166001600160a01b0316815260200190815260200160002060070154815260200160056000866001600160a01b03166001600160a01b0316815260200190815260200160002060080154815250905060056000846001600160a01b03166001600160a01b03168152602001908152602001600020600080820160006101000a81549060ff02191690556001820160009055600282016000905560038201600090556004820160009055600582016000905560068201600090556007820160009055600882016000905550508060056000846001600160a01b03166001600160a01b0316815260200190815260200160002060008201518160000160006101000a81548160ff0219169083151502179055506020820151816001015560408201518160020155606082015181600301556080820151816004015560a0820151816005015560c0820151816006015560e08201518160070155610100820151816008015590505060005b6003548110156110d357836001600160a01b03166003828154811061105f5761105f6130a9565b6000918252602090912001546001600160a01b031614156110c157826003828154811061108e5761108e6130a9565b9060005260206000200160006101000a8154816001600160a01b0302191690836001600160a01b031602179055506110d3565b806110cb816130bf565b915050611038565b5060005b60045481101561117257836001600160a01b0316600482815481106110fe576110fe6130a9565b6000918252602090912001546001600160a01b0316141561116057826004828154811061112d5761112d6130a9565b9060005260206000200160006101000a8154816001600160a01b0302191690836001600160a01b03160217905550611172565b8061116a816130bf565b9150506110d7565b506001600160a01b03828116600081815260056020908152604091829020600781015460028201546008909201548451918252928101919091529182015290918516907f35df46f62e188dd7abf424c0f449d857c487aa70360ca1bc904871a61617c20e9060600160405180910390a3505050565b6000546001600160a01b03620100009091041633146112185760405162461bcd60e51b81526004016104f49061306e565b6001600160a01b0382166000908152600560209081526040918290205482518084019093526002835261189b60f11b9183019190915260ff1661126e5760405162461bcd60e51b81526004016104f49190612f7e565b506112798282612456565b816001600160a01b03167f3ffa9beb41b46c88b16758ef6c236ebd4d07cdfd4d22471030eb6b2d662482d9826040516112b491815260200190565b60405180910390a25050565b6000546040805163030d028960e21b8152905133926201000090046001600160a01b031691630c340a24916004808301926020929190829003018186803b15801561130a57600080fd5b505afa15801561131e573d6000803e3d6000fd5b505050506040513d601f19601f820116820180604052508101906113429190612fb1565b6001600160a01b031614806113d657506000546201000090046001600160a01b031663dd57366a336040518263ffffffff1660e01b81526004016113869190612dc8565b60206040518083038186803b15801561139e57600080fd5b505afa1580156113b2573d6000803e3d6000fd5b505050506040513d601f19601f820116820180604052508101906113d69190613026565b6113f25760405162461bcd60e51b81526004016104f4906130da565b805160045481148015611406575060035481145b604051806040016040528060018152602001600d60fa1b8152509061143e5760405162461bcd60e51b81526004016104f49190612f7e565b5060005b818110156114e55760056000848381518110611460576114606130a9565b60200260200101516001600160a01b03166001600160a01b0316815260200190815260200160002060000160009054906101000a900460ff1660405180604001604052806002815260200161189b60f11b815250906114d25760405162461bcd60e51b81526004016104f49190612f7e565b50806114dd816130bf565b915050611442565b508151610cfe906004906020850190612ca1565b6000546040805163030d028960e21b8152905133926201000090046001600160a01b031691630c340a24916004808301926020929190829003018186803b15801561154357600080fd5b505afa158015611557573d6000803e3d6000fd5b505050506040513d601f19601f8201168201806040525081019061157b9190612fb1565b6001600160a01b0316148061160f57506000546201000090046001600160a01b031663dd57366a336040518263ffffffff1660e01b81526004016115bf9190612dc8565b60206040518083038186803b1580156115d757600080fd5b505afa1580156115eb573d6000803e3d6000fd5b505050506040513d601f19601f8201168201806040525081019061160f9190613026565b61162b5760405162461bcd60e51b81526004016104f4906130da565b6001600160a01b0382166000908152600560209081526040918290205482518084019093526002835261189b60f11b9183019190915260ff166116815760405162461bcd60e51b81526004016104f49190612f7e565b506001600160a01b03821660009081526005602052604090206007015460015482916116ac91613092565b6116b6919061300e565b6001819055604080518082019091526002815261062760f31b60208201529061271010156116f75760405162461bcd60e51b81526004016104f49190612f7e565b506001600160a01b03821660008181526005602090815260409182902060078101859055600201548251858152918201527f3819805ced44aeebe5cbf4f81a253424557ef66c0a682cf3b54501e3fb935ba1910160405180910390a2610974612311565b6000805481906001600160a01b036201000090910416331461178f5760405162461bcd60e51b81526004016104f49061306e565b6001600160a01b0386166000908152600560209081526040918290205482518084019093526002835261189b60f11b9183019190915260ff166117e55760405162461bcd60e51b81526004016104f49190612f7e565b506117f0838661300e565b600060029054906101000a90046001600160a01b03166001600160a01b031663fc0c546a6040518163ffffffff1660e01b815260040160206040518083038186803b15801561183e57600080fd5b505afa158015611852573d6000803e3d6000fd5b505050506040513d601f19601f820116820180604052508101906118769190612fb1565b6001600160a01b03166370a08231886040518263ffffffff1660e01b81526004016118a19190612dc8565b60206040518083038186803b1580156118b957600080fd5b505afa1580156118cd573d6000803e3d6000fd5b505050506040513d601f19601f820116820180604052508101906118f19190613104565b1015604051806040016040528060018152602001603960f81b8152509061192b5760405162461bcd60e51b81526004016104f49190612f7e565b50831561193c5761193c8685612456565b600061194787612643565b9050611953818561243e565b925082156119a5576001600160a01b03871660009081526005602052604081206004018054859290611986908490613092565b92505081905550826002600082825461199f9190613092565b90915550505b6119ae876127df565b91508115611a00576001600160a01b038716600090815260056020526040812060040180548492906119e190849061300e565b9250508190555081600260008282546119fa919061300e565b90915550505b8515611a37576001600160a01b03871660009081526005602052604081206006018054889290611a3190849061300e565b90915550505b6001600160a01b0387166000818152600560209081526040918290204360038201556004015460025483518b81529283018a90529282018790526060820152608081019190915260a081018490527f29c6c60e040fcd722949346bda66341e8859b20b9a2124a625326ad10373391b9060c00160405180910390a25094509492505050565b60606003805480602002602001604051908101604052809291908181526020018280548015610857576020028201919060005260206000209081546001600160a01b03168152600190910190602001808311610839575050505050905090565b6000611b27826127df565b92915050565b6000546040805163030d028960e21b8152905133926201000090046001600160a01b031691630c340a24916004808301926020929190829003018186803b158015611b7757600080fd5b505afa158015611b8b573d6000803e3d6000fd5b505050506040513d601f19601f82011682018060405250810190611baf9190612fb1565b6001600160a01b031614611bd55760405162461bcd60e51b81526004016104f490612fce565b600060038281548110611bea57611bea6130a9565b60009182526020808320909101546001600160a01b0316808352600582526040928390205483518085019094526002845261189b60f11b92840192909252925060ff16611c4a5760405162461bcd60e51b81526004016104f49190612f7e565b506001600160a01b0381166000908152600560209081526040918290206004015482518084019093526002835261313960f01b9183019190915215611ca25760405162461bcd60e51b81526004016104f49190612f7e565b506001600160a01b0381166000908152600560205260408120600701546001805491929091611cd2908490613092565b90915550506001600160a01b03811660009081526005602081905260408220805460ff19168155600180820184905560028201849055600380830185905560048301859055928201849055600682018490556007820184905560089091019290925580549091611d4191613092565b81548110611d5157611d516130a9565b600091825260209091200154600380546001600160a01b039092169184908110611d7d57611d7d6130a9565b9060005260206000200160006101000a8154816001600160a01b0302191690836001600160a01b031602179055506003805480611dbc57611dbc61311d565b600082815260208120820160001990810180546001600160a01b031916905590910190915560035467ffffffffffffffff811115611dfc57611dfc612e77565b604051908082528060200260200182016040528015611e25578160200160208202803683370190505b5090506000805b600454811015611ee857836001600160a01b031660048281548110611e5357611e536130a9565b6000918252602090912001546001600160a01b031614611ed65760048181548110611e8057611e806130a9565b9060005260206000200160009054906101000a90046001600160a01b0316838381518110611eb057611eb06130a9565b6001600160a01b039092166020928302919091019091015281611ed2816130bf565b9250505b80611ee0816130bf565b915050611e2c565b508151611efc906004906020850190612ca1565b506040516001600160a01b038416907f09a1db4b80c32706328728508c941a6b954f31eb5affd32f236c1fd405f8fea490600090a2611f39612311565b50505050565b6000546040805163030d028960e21b8152905133926201000090046001600160a01b031691630c340a24916004808301926020929190829003018186803b158015611f8957600080fd5b505afa158015611f9d573d6000803e3d6000fd5b505050506040513d601f19601f82011682018060405250810190611fc19190612fb1565b6001600160a01b0316148061205557506000546201000090046001600160a01b0316636ba42aaa336040518263ffffffff1660e01b81526004016120059190612dc8565b60206040518083038186803b15801561201d57600080fd5b505afa158015612031573d6000803e3d6000fd5b505050506040513d601f19601f820116820180604052508101906120559190613026565b6120715760405162461bcd60e51b81526004016104f490613048565b6001600160a01b0382166000908152600560209081526040918290205482518084019093526002835261189b60f11b9183019190915260ff166120c75760405162461bcd60e51b81526004016104f49190612f7e565b506001600160a01b038216600081815260056020908152604091829020600281018590556007015482519081529081018490527f3819805ced44aeebe5cbf4f81a253424557ef66c0a682cf3b54501e3fb935ba191016112b4565b6000611b2782612643565b60038181548110610d1357600080fd5b6000546040805163030d028960e21b8152905133926201000090046001600160a01b031691630c340a24916004808301926020929190829003018186803b15801561218757600080fd5b505afa15801561219b573d6000803e3d6000fd5b505050506040513d601f19601f820116820180604052508101906121bf9190612fb1565b6001600160a01b0316148061225357506000546201000090046001600160a01b0316636ba42aaa336040518263ffffffff1660e01b81526004016122039190612dc8565b60206040518083038186803b15801561221b57600080fd5b505afa15801561222f573d6000803e3d6000fd5b505050506040513d601f19601f820116820180604052508101906122539190613026565b61226f5760405162461bcd60e51b81526004016104f490613048565b6000546040516370a0823160e01b815261230e916001600160a01b0362010000909104811691908416906370a08231906122ad903090600401612dc8565b60206040518083038186803b1580156122c557600080fd5b505afa1580156122d9573d6000803e3d6000fd5b505050506040513d601f19601f820116820180604052508101906122fd9190613104565b6001600160a01b0384169190612a99565b50565b600354600154600090156123f95760005b828110156123f7576001546005600060038481548110612344576123446130a9565b9060005260206000200160009054906101000a90046001600160a01b03166001600160a01b03166001600160a01b0316815260200190815260200160002060070154600560006003858154811061239d5761239d6130a9565b60009182526020808320909101546001600160a01b031683528201929092526040019020600801546123cf9190613133565b6123d99190613152565b6123e3908361300e565b9150806123ef816130bf565b915050612322565b505b600680549082905560408051918252602082018390527f2d6a5770d560080bb77885132eea46b6db3b15e70e6e5e73087ea7bcd138fcf0910160405180910390a15050565b600081831061244d578161244f565b825b9392505050565b6001600160a01b0382166000908152600560209081526040918290206004015482518084019093526002835261032360f41b9183019190915290828210156124b15760405162461bcd60e51b81526004016104f49190612f7e565b506001600160a01b038316600090815260056020819052604082200180548492906124dd90849061300e565b90915550506001600160a01b0383166000908152600560205260408120600401805484929061250d908490613092565b9250508190555081600260008282546125269190613092565b9250508190555060006125ef600060029054906101000a90046001600160a01b03166001600160a01b031663d4c3eea06040518163ffffffff1660e01b815260040160206040518083038186803b15801561258057600080fd5b505afa158015612594573d6000803e3d6000fd5b505050506040513d601f19601f820116820180604052508101906125b89190613104565b6125c461271086613133565b6125ce9190613152565b6001600160a01b03861660009081526005602052604090206007015461243e565b6001600160a01b03851660009081526005602052604081206007018054929350839290919061261f908490613092565b9250508190555080600160008282546126389190613092565b909155505050505050565b60008060056000846001600160a01b03166001600160a01b03168152602001908152602001600020600401549050600060029054906101000a90046001600160a01b03166001600160a01b0316634938649a6040518163ffffffff1660e01b815260040160206040518083038186803b1580156126bf57600080fd5b505afa1580156126d3573d6000803e3d6000fd5b505050506040513d601f19601f820116820180604052508101906126f79190613026565b156127025792915050565b6000612710600060029054906101000a90046001600160a01b03166001600160a01b031663d4c3eea06040518163ffffffff1660e01b815260040160206040518083038186803b15801561275557600080fd5b505afa158015612769573d6000803e3d6000fd5b505050506040513d601f19601f8201168201806040525081019061278d9190613104565b6001600160a01b0386166000908152600560205260409020600701546127b39190613133565b6127bd9190613152565b90508082116127cd5760006127d7565b6127d78183613092565b949350505050565b60008060029054906101000a90046001600160a01b03166001600160a01b0316634938649a6040518163ffffffff1660e01b815260040160206040518083038186803b15801561282e57600080fd5b505afa158015612842573d6000803e3d6000fd5b505050506040513d601f19601f820116820180604052508101906128669190613026565b1561287357506000919050565b60008060029054906101000a90046001600160a01b03166001600160a01b031663d4c3eea06040518163ffffffff1660e01b815260040160206040518083038186803b1580156128c257600080fd5b505afa1580156128d6573d6000803e3d6000fd5b505050506040513d601f19601f820116820180604052508101906128fa9190613104565b6001600160a01b0384166000908152600560205260408120600701549192509061271090612929908490613133565b6129339190613152565b6001600160a01b03851660009081526005602052604090206004015490915081811061296457506000949350505050565b6000612710846001546129779190613133565b6129819190613152565b905080600254106129985750600095945050505050565b60006129a48385613092565b9050612a4a612a38600060029054906101000a90046001600160a01b03166001600160a01b031663b8cb343d6040518163ffffffff1660e01b815260040160206040518083038186803b1580156129fa57600080fd5b505afa158015612a0e573d6000803e3d6000fd5b505050506040513d601f19601f82011682018060405250810190612a329190613104565b8361243e565b600254612a459085613092565b61243e565b6001600160a01b03881660009081526005602052604090206002810154600390910154919250612a8e91612a7e9043613092565b612a889190613133565b8261243e565b979650505050505050565b604080516001600160a01b03848116602483015260448083018590528351808403909101815260649092018352602080830180516001600160e01b031663a9059cbb60e01b17905283518085019094528084527f5361666545524332303a206c6f772d6c6576656c2063616c6c206661696c656490840152610cfe92869291600091612b29918516908490612ba6565b805190915015610cfe5780806020019051810190612b479190613026565b610cfe5760405162461bcd60e51b815260206004820152602a60248201527f5361666545524332303a204552433230206f7065726174696f6e20646964206e6044820152691bdd081cdd58d8d9595960b21b60648201526084016104f4565b60606127d7848460008585843b612bff5760405162461bcd60e51b815260206004820152601d60248201527f416464726573733a2063616c6c20746f206e6f6e2d636f6e747261637400000060448201526064016104f4565b600080866001600160a01b03168587604051612c1b9190613174565b60006040518083038185875af1925050503d8060008114612c58576040519150601f19603f3d011682016040523d82523d6000602084013e612c5d565b606091505b5091509150612a8e82828660608315612c7757508161244f565b825115612c875782518084602001fd5b8160405162461bcd60e51b81526004016104f49190612f7e565b828054828255906000526020600020908101928215612cf6579160200282015b82811115612cf657825182546001600160a01b0319166001600160a01b03909116178255602090920191600190910190612cc1565b50612d02929150612d06565b5090565b5b80821115612d025760008155600101612d07565b6001600160a01b038116811461230e57600080fd5b8035612d3b81612d1b565b919050565b60008060008060808587031215612d5657600080fd5b8435612d6181612d1b565b966020860135965060408601359560600135945092505050565b6020808252825182820181905260009190848201906040850190845b81811015612dbc5783516001600160a01b031683529284019291840191600101612d97565b50909695505050505050565b6001600160a01b0391909116815260200190565b600060208284031215612dee57600080fd5b813561244f81612d1b565b60008060408385031215612e0c57600080fd5b8235612e1781612d1b565b946020939093013593505050565b600060208284031215612e3757600080fd5b5035919050565b60008060408385031215612e5157600080fd5b8235612e5c81612d1b565b91506020830135612e6c81612d1b565b809150509250929050565b634e487b7160e01b600052604160045260246000fd5b60006020808385031215612ea057600080fd5b823567ffffffffffffffff80821115612eb857600080fd5b818501915085601f830112612ecc57600080fd5b813581811115612ede57612ede612e77565b8060051b604051601f19603f83011681018181108582111715612f0357612f03612e77565b604052918252848201925083810185019188831115612f2157600080fd5b938501935b82851015612f4657612f3785612d30565b84529385019392850192612f26565b98975050505050505050565b60005b83811015612f6d578181015183820152602001612f55565b83811115611f395750506000910152565b6020815260008251806020840152612f9d816040850160208701612f52565b601f01601f19169190910160400192915050565b600060208284031215612fc357600080fd5b815161244f81612d1b565b60208082526010908201526f3737ba16ba343296b3b7bb32b93737b960811b604082015260600190565b634e487b7160e01b600052601160045260246000fd5b6000821982111561302157613021612ff8565b500190565b60006020828403121561303857600080fd5b8151801515811461244f57600080fd5b6020808252600c908201526b3737ba16b096b5b2b2b832b960a11b604082015260600190565b6020808252600a90820152691b9bdd0b584b5c1bdbdb60b21b604082015260600190565b6000828210156130a4576130a4612ff8565b500390565b634e487b7160e01b600052603260045260246000fd5b60006000198214156130d3576130d3612ff8565b5060010190565b60208082526010908201526f3737ba16b096b6b0b4b73a30b4b732b960811b604082015260600190565b60006020828403121561311657600080fd5b5051919050565b634e487b7160e01b600052603160045260246000fd5b600081600019048311821515161561314d5761314d612ff8565b500290565b60008261316f57634e487b7160e01b600052601260045260246000fd5b500490565b60008251613186818460208701612f52565b919091019291505056fea264697066735822122061e3ef8433afa9011cd125621c3392e0a3d42deada00fd139bf66ce15058b75564736f6c63430008090033",
  "devdoc": {
    "kind": "dev",
    "methods": {
      "addStrategy(address,uint256,uint256,uint256)": {
        "details": "Recalculate pool level external deposit fee after all state variables are updated.",
        "params": {
          "_debtRate": "Debt rate per block",
          "_debtRatio": "Pool fund allocation to this strategy",
          "_externalDepositFee": "External deposit fee of strategy",
          "_strategy": "Strategy address"
        }
      },
      "availableCreditLimit(address)": {
        "details": "Available credit limit is calculated based on current debt of pool and strategy, current debt limit of pool and strategy. credit available = min(pool's debt limit, strategy's debt limit, max debt per rebalance) when some strategy do not pay back outstanding debt, this impact credit line of other strategy if totalDebt of pool >= debtLimit of pool",
        "params": {
          "_strategy": "Strategy address"
        }
      },
      "decreaseDebt(address,uint256)": {
        "details": "In case of withdraw from strategy, pool will decrease debt by amount withdrawn",
        "params": {
          "_decreaseBy": "Amount by which strategy debt will be decreased",
          "_strategy": "Strategy Address"
        }
      },
      "excessDebt(address)": {
        "params": {
          "_strategy": "Address of strategy"
        }
      },
      "init(address)": {
        "details": "This init function meant to be called after proxy deployment.DO NOT CALL it with proxy deploy",
        "params": {
          "_pool": "Address of Vesper pool proxy"
        }
      },
      "migrateStrategy(address,address)": {
        "details": "Migrating strategy aka old and new strategy should be of same type.New strategy will replace old strategy in strategy mapping, strategies array, withdraw queue.",
        "params": {
          "_new": "Address of new strategy",
          "_old": "Address of strategy being migrated"
        }
      },
      "recalculatePoolExternalDepositFee()": {
        "details": "Whenever debtRatio changes recalculation is required. DebtRatio changes if strategy reports loss and in that case an off chain application can watch for it and take action accordingly.This function is gas heavy hence we do not want to call during reportLoss."
      },
      "removeStrategy(uint256)": {
        "details": "Revoke and remove strategy from array. Update withdraw queue. Withdraw queue order should not change after remove. Strategy can be removed only after it has paid all debt. Use migrate strategy if debt is not paid and want to upgrade strategy."
      },
      "reportEarning(address,uint256,uint256,uint256)": {
        "details": "Strategy call this in regular interval.",
        "params": {
          "_loss": "Reduce debt ,also reduce debtRatio, increase loss in record.",
          "_payback": "strategy willing to payback outstanding above debtLimit. no performance fee on this amount.  when governance has reduced debtRatio of strategy, strategy will report profit and payback amount separately.",
          "_profit": "yield generated by strategy. Strategy get performance fee on this amount"
        }
      },
      "reportLoss(address,uint256)": {
        "params": {
          "_loss": "Loss of strategy",
          "_strategy": "Strategy which incur loss"
        }
      },
      "sweepERC20(address)": {
        "details": "Transfer given ERC20 token to pool",
        "params": {
          "_fromToken": "Token address to sweep"
        }
      },
      "totalDebtOf(address)": {
        "params": {
          "_strategy": "Strategy address"
        }
      },
      "updateDebtRate(address,uint256)": {
        "params": {
          "_debtRate": "New debt rate",
          "_strategy": "Strategy address for which debt rate is being updated"
        }
      },
      "updateDebtRatio(address,uint256)": {
        "details": "A strategy is retired when debtRatio is 0As debtRatio impacts pool level external deposit fee hence recalculate it after updating debtRatio.",
        "params": {
          "_debtRatio": "New debt ratio",
          "_strategy": "Strategy address for which debt ratio is being updated"
        }
      },
      "updateExternalDepositFee(address,uint256)": {
        "params": {
          "_externalDepositFee": "New external deposit fee",
          "_strategy": "Strategy address for which external deposit fee is being updated"
        }
      },
      "updateWithdrawQueue(address[])": {
        "details": "Pool always keep some buffer amount to satisfy withdrawal request, any withdrawal request higher than buffer will withdraw from withdraw queue. So withdrawQueue[0] will be the first strategy where withdrawal request will be send.",
        "params": {
          "_withdrawQueue": "Ordered list of strategy."
        }
      }
    },
    "title": "Accountant for Vesper pools which keep records of strategies.",
    "version": 1
  },
  "userdoc": {
    "kind": "user",
    "methods": {
      "addStrategy(address,uint256,uint256,uint256)": {
        "notice": "Add strategy. Once strategy is added it can call rebalance and borrow fund from pool and invest that fund in provider/lender."
      },
      "availableCreditLimit(address)": {
        "notice": "Get available credit limit of strategy. This is the amount strategy can borrow from pool"
      },
      "decreaseDebt(address,uint256)": {
        "notice": "Decrease debt of strategy, also decrease totalDebt"
      },
      "excessDebt(address)": {
        "notice": "Debt above current debt limit"
      },
      "getStrategies()": {
        "notice": "Return strategies array"
      },
      "getWithdrawQueue()": {
        "notice": "Return withdrawQueue"
      },
      "migrateStrategy(address,address)": {
        "notice": "Migrate existing strategy to new strategy."
      },
      "recalculatePoolExternalDepositFee()": {
        "notice": "Recalculate pool external deposit fee. It is calculated using debtRatio and external deposit fee of each strategy."
      },
      "removeStrategy(uint256)": {
        "notice": "Remove strategy and recalculate pool level external deposit fee."
      },
      "reportLoss(address,uint256)": {
        "notice": "Update strategy loss."
      },
      "totalDebtOf(address)": {
        "notice": "Get total debt of given strategy"
      },
      "updateDebtRate(address,uint256)": {
        "notice": "Update debtRate per block."
      },
      "updateDebtRatio(address,uint256)": {
        "notice": "Update debt ratio."
      },
      "updateExternalDepositFee(address,uint256)": {
        "notice": "Update external deposit fee of strategy and recalculate pool level external deposit fee."
      },
      "updateWithdrawQueue(address[])": {
        "notice": "Update withdraw queue. Withdraw queue is list of strategy in the order in which funds should be withdrawn."
      }
    },
    "version": 1
  },
  "storageLayout": {
    "storage": [
      {
        "astId": 887,
        "contract": "contracts/pool/PoolAccountant.sol:PoolAccountant",
        "label": "_initialized",
        "offset": 0,
        "slot": "0",
        "type": "t_bool"
      },
      {
        "astId": 890,
        "contract": "contracts/pool/PoolAccountant.sol:PoolAccountant",
        "label": "_initializing",
        "offset": 1,
        "slot": "0",
        "type": "t_bool"
      },
      {
        "astId": 9207,
        "contract": "contracts/pool/PoolAccountant.sol:PoolAccountant",
        "label": "pool",
        "offset": 2,
        "slot": "0",
        "type": "t_address"
      },
      {
        "astId": 9209,
        "contract": "contracts/pool/PoolAccountant.sol:PoolAccountant",
        "label": "totalDebtRatio",
        "offset": 0,
        "slot": "1",
        "type": "t_uint256"
      },
      {
        "astId": 9211,
        "contract": "contracts/pool/PoolAccountant.sol:PoolAccountant",
        "label": "totalDebt",
        "offset": 0,
        "slot": "2",
        "type": "t_uint256"
      },
      {
        "astId": 9214,
        "contract": "contracts/pool/PoolAccountant.sol:PoolAccountant",
        "label": "strategies",
        "offset": 0,
        "slot": "3",
        "type": "t_array(t_address)dyn_storage"
      },
      {
        "astId": 9217,
        "contract": "contracts/pool/PoolAccountant.sol:PoolAccountant",
        "label": "withdrawQueue",
        "offset": 0,
        "slot": "4",
        "type": "t_array(t_address)dyn_storage"
      },
      {
        "astId": 9244,
        "contract": "contracts/pool/PoolAccountant.sol:PoolAccountant",
        "label": "strategy",
        "offset": 0,
        "slot": "5",
        "type": "t_mapping(t_address,t_struct(StrategyConfig)9239_storage)"
      },
      {
        "astId": 9246,
        "contract": "contracts/pool/PoolAccountant.sol:PoolAccountant",
        "label": "externalDepositFee",
        "offset": 0,
        "slot": "6",
        "type": "t_uint256"
      }
    ],
    "types": {
      "t_address": {
        "encoding": "inplace",
        "label": "address",
        "numberOfBytes": "20"
      },
      "t_array(t_address)dyn_storage": {
        "base": "t_address",
        "encoding": "dynamic_array",
        "label": "address[]",
        "numberOfBytes": "32"
      },
      "t_bool": {
        "encoding": "inplace",
        "label": "bool",
        "numberOfBytes": "1"
      },
      "t_mapping(t_address,t_struct(StrategyConfig)9239_storage)": {
        "encoding": "mapping",
        "key": "t_address",
        "label": "mapping(address => struct PoolAccountantStorageV2.StrategyConfig)",
        "numberOfBytes": "32",
        "value": "t_struct(StrategyConfig)9239_storage"
      },
      "t_struct(StrategyConfig)9239_storage": {
        "encoding": "inplace",
        "label": "struct PoolAccountantStorageV2.StrategyConfig",
        "members": [
          {
            "astId": 9222,
            "contract": "contracts/pool/PoolAccountant.sol:PoolAccountant",
            "label": "active",
            "offset": 0,
            "slot": "0",
            "type": "t_bool"
          },
          {
            "astId": 9224,
            "contract": "contracts/pool/PoolAccountant.sol:PoolAccountant",
            "label": "interestFeeObsolete",
            "offset": 0,
            "slot": "1",
            "type": "t_uint256"
          },
          {
            "astId": 9226,
            "contract": "contracts/pool/PoolAccountant.sol:PoolAccountant",
            "label": "debtRate",
            "offset": 0,
            "slot": "2",
            "type": "t_uint256"
          },
          {
            "astId": 9228,
            "contract": "contracts/pool/PoolAccountant.sol:PoolAccountant",
            "label": "lastRebalance",
            "offset": 0,
            "slot": "3",
            "type": "t_uint256"
          },
          {
            "astId": 9230,
            "contract": "contracts/pool/PoolAccountant.sol:PoolAccountant",
            "label": "totalDebt",
            "offset": 0,
            "slot": "4",
            "type": "t_uint256"
          },
          {
            "astId": 9232,
            "contract": "contracts/pool/PoolAccountant.sol:PoolAccountant",
            "label": "totalLoss",
            "offset": 0,
            "slot": "5",
            "type": "t_uint256"
          },
          {
            "astId": 9234,
            "contract": "contracts/pool/PoolAccountant.sol:PoolAccountant",
            "label": "totalProfit",
            "offset": 0,
            "slot": "6",
            "type": "t_uint256"
          },
          {
            "astId": 9236,
            "contract": "contracts/pool/PoolAccountant.sol:PoolAccountant",
            "label": "debtRatio",
            "offset": 0,
            "slot": "7",
            "type": "t_uint256"
          },
          {
            "astId": 9238,
            "contract": "contracts/pool/PoolAccountant.sol:PoolAccountant",
            "label": "externalDepositFee",
            "offset": 0,
            "slot": "8",
            "type": "t_uint256"
          }
        ],
        "numberOfBytes": "288"
      },
      "t_uint256": {
        "encoding": "inplace",
        "label": "uint256",
        "numberOfBytes": "32"
      }
    }
  }
}