{
  "address": "0xa163dc188e14c3B3c8f3FBa6F4351Ea5147ad9aC",
  "abi": [
    {
      "anonymous": false,
      "inputs": [
        {
          "indexed": true,
          "internalType": "address",
          "name": "rewardToken",
          "type": "address"
        },
        {
          "indexed": false,
          "internalType": "uint256",
          "name": "reward",
          "type": "uint256"
        },
        {
          "indexed": false,
          "internalType": "uint256",
          "name": "rewardDuration",
          "type": "uint256"
        }
      ],
      "name": "RewardAdded",
      "type": "event"
    },
    {
      "anonymous": false,
      "inputs": [
        {
          "indexed": true,
          "internalType": "address",
          "name": "user",
          "type": "address"
        },
        {
          "indexed": true,
          "internalType": "address",
          "name": "rewardToken",
          "type": "address"
        },
        {
          "indexed": false,
          "internalType": "uint256",
          "name": "reward",
          "type": "uint256"
        }
      ],
      "name": "RewardPaid",
      "type": "event"
    },
    {
      "anonymous": false,
      "inputs": [
        {
          "indexed": true,
          "internalType": "address",
          "name": "rewardToken",
          "type": "address"
        },
        {
          "indexed": false,
          "internalType": "address[]",
          "name": "existingRewardTokens",
          "type": "address[]"
        }
      ],
      "name": "RewardTokenAdded",
      "type": "event"
    },
    {
      "inputs": [],
      "name": "VERSION",
      "outputs": [
        {
          "internalType": "string",
          "name": "",
          "type": "string"
        }
      ],
      "stateMutability": "view",
      "type": "function"
    },
    {
      "inputs": [
        {
          "internalType": "address",
          "name": "_newRewardToken",
          "type": "address"
        }
      ],
      "name": "addRewardToken",
      "outputs": [],
      "stateMutability": "nonpayable",
      "type": "function"
    },
    {
      "inputs": [
        {
          "internalType": "address",
          "name": "_account",
          "type": "address"
        }
      ],
      "name": "claimReward",
      "outputs": [],
      "stateMutability": "nonpayable",
      "type": "function"
    },
    {
      "inputs": [
        {
          "internalType": "address",
          "name": "_account",
          "type": "address"
        }
      ],
      "name": "claimable",
      "outputs": [
        {
          "internalType": "address[]",
          "name": "_rewardTokens",
          "type": "address[]"
        },
        {
          "internalType": "uint256[]",
          "name": "_claimableAmounts",
          "type": "uint256[]"
        }
      ],
      "stateMutability": "view",
      "type": "function"
    },
    {
      "inputs": [],
      "name": "getRewardTokens",
      "outputs": [
        {
          "internalType": "address[]",
          "name": "",
          "type": "address[]"
        }
      ],
      "stateMutability": "view",
      "type": "function"
    },
    {
      "inputs": [
        {
          "internalType": "address",
          "name": "_pool",
          "type": "address"
        },
        {
          "internalType": "address[]",
          "name": "_rewardTokens",
          "type": "address[]"
        }
      ],
      "name": "initialize",
      "outputs": [],
      "stateMutability": "nonpayable",
      "type": "function"
    },
    {
      "inputs": [
        {
          "internalType": "address",
          "name": "",
          "type": "address"
        }
      ],
      "name": "isRewardToken",
      "outputs": [
        {
          "internalType": "bool",
          "name": "",
          "type": "bool"
        }
      ],
      "stateMutability": "view",
      "type": "function"
    },
    {
      "inputs": [
        {
          "internalType": "address",
          "name": "_rewardToken",
          "type": "address"
        }
      ],
      "name": "lastTimeRewardApplicable",
      "outputs": [
        {
          "internalType": "uint256",
          "name": "",
          "type": "uint256"
        }
      ],
      "stateMutability": "view",
      "type": "function"
    },
    {
      "inputs": [
        {
          "internalType": "address",
          "name": "",
          "type": "address"
        }
      ],
      "name": "lastUpdateTime",
      "outputs": [
        {
          "internalType": "uint256",
          "name": "",
          "type": "uint256"
        }
      ],
      "stateMutability": "view",
      "type": "function"
    },
    {
      "inputs": [
        {
          "internalType": "address",
          "name": "_rewardToken",
          "type": "address"
        },
        {
          "internalType": "uint256",
          "name": "_rewardAmount",
          "type": "uint256"
        },
        {
          "internalType": "uint256",
          "name": "_rewardDuration",
          "type": "uint256"
        }
      ],
      "name": "notifyRewardAmount",
      "outputs": [],
      "stateMutability": "nonpayable",
      "type": "function"
    },
    {
      "inputs": [
        {
          "internalType": "address[]",
          "name": "_rewardTokens",
          "type": "address[]"
        },
        {
          "internalType": "uint256[]",
          "name": "_rewardAmounts",
          "type": "uint256[]"
        },
        {
          "internalType": "uint256[]",
          "name": "_rewardDurations",
          "type": "uint256[]"
        }
      ],
      "name": "notifyRewardAmount",
      "outputs": [],
      "stateMutability": "nonpayable",
      "type": "function"
    },
    {
      "inputs": [
        {
          "internalType": "address",
          "name": "",
          "type": "address"
        }
      ],
      "name": "periodFinish",
      "outputs": [
        {
          "internalType": "uint256",
          "name": "",
          "type": "uint256"
        }
      ],
      "stateMutability": "view",
      "type": "function"
    },
    {
      "inputs": [],
      "name": "pool",
      "outputs": [
        {
          "internalType": "address",
          "name": "",
          "type": "address"
        }
      ],
      "stateMutability": "view",
      "type": "function"
    },
    {
      "inputs": [
        {
          "internalType": "address",
          "name": "",
          "type": "address"
        }
      ],
      "name": "rewardDuration",
      "outputs": [
        {
          "internalType": "uint256",
          "name": "",
          "type": "uint256"
        }
      ],
      "stateMutability": "view",
      "type": "function"
    },
    {
      "inputs": [],
      "name": "rewardForDuration",
      "outputs": [
        {
          "internalType": "address[]",
          "name": "_rewardTokens",
          "type": "address[]"
        },
        {
          "internalType": "uint256[]",
          "name": "_rewardForDuration",
          "type": "uint256[]"
        }
      ],
      "stateMutability": "view",
      "type": "function"
    },
    {
      "inputs": [],
      "name": "rewardPerToken",
      "outputs": [
        {
          "internalType": "address[]",
          "name": "_rewardTokens",
          "type": "address[]"
        },
        {
          "internalType": "uint256[]",
          "name": "_rewardPerTokenRate",
          "type": "uint256[]"
        }
      ],
      "stateMutability": "view",
      "type": "function"
    },
    {
      "inputs": [
        {
          "internalType": "address",
          "name": "",
          "type": "address"
        }
      ],
      "name": "rewardPerTokenStored",
      "outputs": [
        {
          "internalType": "uint256",
          "name": "",
          "type": "uint256"
        }
      ],
      "stateMutability": "view",
      "type": "function"
    },
    {
      "inputs": [
        {
          "internalType": "address",
          "name": "",
          "type": "address"
        }
      ],
      "name": "rewardRates",
      "outputs": [
        {
          "internalType": "uint256",
          "name": "",
          "type": "uint256"
        }
      ],
      "stateMutability": "view",
      "type": "function"
    },
    {
      "inputs": [
        {
          "internalType": "uint256",
          "name": "",
          "type": "uint256"
        }
      ],
      "name": "rewardTokens",
      "outputs": [
        {
          "internalType": "address",
          "name": "",
          "type": "address"
        }
      ],
      "stateMutability": "view",
      "type": "function"
    },
    {
      "inputs": [
        {
          "internalType": "address",
          "name": "",
          "type": "address"
        },
        {
          "internalType": "address",
          "name": "",
          "type": "address"
        }
      ],
      "name": "rewards",
      "outputs": [
        {
          "internalType": "uint256",
          "name": "",
          "type": "uint256"
        }
      ],
      "stateMutability": "view",
      "type": "function"
    },
    {
      "inputs": [
        {
          "internalType": "address",
          "name": "_account",
          "type": "address"
        }
      ],
      "name": "updateReward",
      "outputs": [],
      "stateMutability": "nonpayable",
      "type": "function"
    },
    {
      "inputs": [
        {
          "internalType": "address",
          "name": "",
          "type": "address"
        },
        {
          "internalType": "address",
          "name": "",
          "type": "address"
        }
      ],
      "name": "userRewardPerTokenPaid",
      "outputs": [
        {
          "internalType": "uint256",
          "name": "",
          "type": "uint256"
        }
      ],
      "stateMutability": "view",
      "type": "function"
    }
  ],
  "transactionHash": "0x1a08ec6c2bc28350bfebcbd1ca3fe675052df31d854fdeaed83812b9299067c1",
  "args": [],
  "solcInputHash": "1fcc9d6bba2e02812b6c126ef0fdf444",
  "bytecode": "0x608060405234801561001057600080fd5b50600180556124ad806100246000396000f3fe608060405234801561001057600080fd5b50600436106101425760003560e01c80639ce43f90116100b8578063cd3daf9d1161007c578063cd3daf9d14610301578063d279c19114610309578063da09d19d1461031c578063e70b9e271461033c578063e9c5448814610367578063ffa1ad741461038757600080fd5b80639ce43f9014610273578063a3cd8ac414610293578063b5fd73f8146102a6578063bcd68eb6146102d9578063c4f59f9b146102ec57600080fd5b8063632447c91161010a578063632447c9146101f4578063638634ee146102075780636946a2351461021a5780637035ab98146102225780637bb7bed11461024d578063946d92041461026057600080fd5b806316f0115b146101475780631c03e6cc146101705780632ce9aead146101855780633d3b2603146101b3578063402914f5146101d3575b600080fd5b60025461015a906001600160a01b031681565b6040516101679190611eb6565b60405180910390f35b61018361017e366004611ee2565b6103b8565b005b6101a5610193366004611ee2565b60086020526000908152604090205481565b604051908152602001610167565b6101a56101c1366004611ee2565b60066020526000908152604090205481565b6101e66101e1366004611ee2565b6105db565b604051610167929190611f43565b610183610202366004611ee2565b610809565b6101a5610215366004611ee2565b610969565b6101e66109ae565b6101a5610230366004611f9a565b600a60209081526000928352604080842090915290825290205481565b61015a61025b366004611fd3565b610b33565b61018361026e3660046120c9565b610b5d565b6101a5610281366004611ee2565b60096020526000908152604090205481565b6101836102a1366004612118565b610d15565b6102c96102b4366004611ee2565b60046020526000908152604090205460ff1681565b6040519015158152602001610167565b6101836102e73660046121a8565b610e5c565b6102f4610fa3565b604051610167919061222f565b6101e6611005565b610183610317366004611ee2565b6111a9565b6101a561032a366004611ee2565b60056020526000908152604090205481565b6101a561034a366004611f9a565b600b60209081526000928352604080842090915290825290205481565b6101a5610375366004611ee2565b60076020526000908152604090205481565b6103ab604051806040016040528060058152602001640342e302e360dc1b81525081565b6040516101679190612272565b600260009054906101000a90046001600160a01b03166001600160a01b0316630c340a246040518163ffffffff1660e01b815260040160206040518083038186803b15801561040657600080fd5b505afa15801561041a573d6000803e3d6000fd5b505050506040513d601f19601f8201168201806040525081019061043e91906122a5565b6001600160a01b0316336001600160a01b0316146104775760405162461bcd60e51b815260040161046e906122c2565b60405180910390fd5b6001600160a01b0381166104c95760405162461bcd60e51b81526020600482015260196024820152787265776172642d746f6b656e2d616464726573732d7a65726f60381b604482015260640161046e565b6001600160a01b03811660009081526004602052604090205460ff16156105325760405162461bcd60e51b815260206004820152601a60248201527f7265776172642d746f6b656e2d616c72656164792d6578697374000000000000604482015260640161046e565b806001600160a01b03167f438dc3ee1ea07ec168befb145c10eb363aad7cbec063f8a006b032031582ac2b600360405161056c91906122ea565b60405180910390a26003805460018181019092557fc2575a0e9e593c00f959f8c92f12db2869c3395a3b0502d05e2516446f71f85b0180546001600160a01b039093166001600160a01b031990931683179055600091825260046020526040909120805460ff19169091179055565b6060806000600260009054906101000a90046001600160a01b03166001600160a01b03166318160ddd6040518163ffffffff1660e01b815260040160206040518083038186803b15801561062e57600080fd5b505afa158015610642573d6000803e3d6000fd5b505050506040513d601f19601f82011682018060405250810190610666919061233a565b6002546040516370a0823160e01b81529192506000916001600160a01b03909116906370a082319061069c908890600401611eb6565b60206040518083038186803b1580156106b457600080fd5b505afa1580156106c8573d6000803e3d6000fd5b505050506040513d601f19601f820116820180604052508101906106ec919061233a565b600354909150806001600160401b0381111561070a5761070a611fec565b604051908082528060200260200182016040528015610733578160200160208202803683370190505b50935060005b818110156107a3576107746003828154811061075757610757612353565b6000918252602090912001546001600160a01b031688868661147b565b85828151811061078657610786612353565b60209081029190910101528061079b8161237f565b915050610739565b5060038054806020026020016040519081016040528092919081815260200182805480156107fa57602002820191906000526020600020905b81546001600160a01b031681526001909101906020018083116107dc575b50505050509450505050915091565b600254604080516318160ddd60e01b815290516000926001600160a01b0316916318160ddd916004808301926020929190829003018186803b15801561084e57600080fd5b505afa158015610862573d6000803e3d6000fd5b505050506040513d601f19601f82011682018060405250810190610886919061233a565b6002546040516370a0823160e01b81529192506000916001600160a01b03909116906370a08231906108bc908690600401611eb6565b60206040518083038186803b1580156108d457600080fd5b505afa1580156108e8573d6000803e3d6000fd5b505050506040513d601f19601f8201168201806040525081019061090c919061233a565b60035490915060005b81811015610962576109506003828154811061093357610933612353565b6000918252602090912001546001600160a01b0316868686611519565b8061095a8161237f565b915050610915565b5050505050565b6001600160a01b03811660009081526005602052604081205442106109a6576001600160a01b0382166000908152600560205260409020546109a8565b425b92915050565b6003546060908190806001600160401b038111156109ce576109ce611fec565b6040519080825280602002602001820160405280156109f7578160200160208202803683370190505b50915060005b81811015610ad0576007600060038381548110610a1c57610a1c612353565b9060005260206000200160009054906101000a90046001600160a01b03166001600160a01b03166001600160a01b03168152602001908152602001600020546006600060038481548110610a7257610a72612353565b60009182526020808320909101546001600160a01b03168352820192909252604001902054610aa1919061239a565b838281518110610ab357610ab3612353565b602090810291909101015280610ac88161237f565b9150506109fd565b506003805480602002602001604051908101604052809291908181526020018280548015610b2757602002820191906000526020600020905b81546001600160a01b03168152600190910190602001808311610b09575b50505050509250509091565b60038181548110610b4357600080fd5b6000918252602090912001546001600160a01b0316905081565b600054610100900460ff1680610b76575060005460ff16155b610bd95760405162461bcd60e51b815260206004820152602e60248201527f496e697469616c697a61626c653a20636f6e747261637420697320616c72656160448201526d191e481a5b9a5d1a585b1a5e995960921b606482015260840161046e565b600054610100900460ff16158015610bfb576000805461ffff19166101011790555b6001600160a01b038316610c485760405162461bcd60e51b8152602060048201526014602482015273706f6f6c2d616464726573732d69732d7a65726f60601b604482015260640161046e565b8151610c665760405162461bcd60e51b815260040161046e906123b9565b600280546001600160a01b0319166001600160a01b0385161790558151610c94906003906020850190611e3c565b5060005b8251811015610cfd57600160046000858481518110610cb957610cb9612353565b6020908102919091018101516001600160a01b03168252810191909152604001600020805460ff191691151591909117905580610cf58161237f565b915050610c98565b508015610d10576000805461ff00191690555b505050565b600260009054906101000a90046001600160a01b03166001600160a01b0316630c340a246040518163ffffffff1660e01b815260040160206040518083038186803b158015610d6357600080fd5b505afa158015610d77573d6000803e3d6000fd5b505050506040513d601f19601f82011682018060405250810190610d9b91906122a5565b6001600160a01b0316336001600160a01b031614610dcb5760405162461bcd60e51b815260040161046e906122c2565b610d10838383600260009054906101000a90046001600160a01b03166001600160a01b03166318160ddd6040518163ffffffff1660e01b815260040160206040518083038186803b158015610e1f57600080fd5b505afa158015610e33573d6000803e3d6000fd5b505050506040513d601f19601f82011682018060405250810190610e57919061233a565b6115c2565b600260009054906101000a90046001600160a01b03166001600160a01b0316630c340a246040518163ffffffff1660e01b815260040160206040518083038186803b158015610eaa57600080fd5b505afa158015610ebe573d6000803e3d6000fd5b505050506040513d601f19601f82011682018060405250810190610ee291906122a5565b6001600160a01b0316336001600160a01b031614610f125760405162461bcd60e51b815260040161046e906122c2565b610d10838383600260009054906101000a90046001600160a01b03166001600160a01b03166318160ddd6040518163ffffffff1660e01b815260040160206040518083038186803b158015610f6657600080fd5b505afa158015610f7a573d6000803e3d6000fd5b505050506040513d601f19601f82011682018060405250810190610f9e919061233a565b611954565b60606003805480602002602001604051908101604052809291908181526020018280548015610ffb57602002820191906000526020600020905b81546001600160a01b03168152600190910190602001808311610fdd575b5050505050905090565b6060806000600260009054906101000a90046001600160a01b03166001600160a01b03166318160ddd6040518163ffffffff1660e01b815260040160206040518083038186803b15801561105857600080fd5b505afa15801561106c573d6000803e3d6000fd5b505050506040513d601f19601f82011682018060405250810190611090919061233a565b600354909150806001600160401b038111156110ae576110ae611fec565b6040519080825280602002602001820160405280156110d7578160200160208202803683370190505b50925060005b8181101561114557611116600382815481106110fb576110fb612353565b6000918252602090912001546001600160a01b031684611ad5565b84828151811061112857611128612353565b60209081029190910101528061113d8161237f565b9150506110dd565b50600380548060200260200160405190810160405280929190818152602001828054801561119c57602002820191906000526020600020905b81546001600160a01b0316815260019091019060200180831161117e575b5050505050935050509091565b600260015414156111fc5760405162461bcd60e51b815260206004820152601f60248201527f5265656e7472616e637947756172643a207265656e7472616e742063616c6c00604482015260640161046e565b6002600181905554604080516318160ddd60e01b815290516000926001600160a01b0316916318160ddd916004808301926020929190829003018186803b15801561124657600080fd5b505afa15801561125a573d6000803e3d6000fd5b505050506040513d601f19601f8201168201806040525081019061127e919061233a565b6002546040516370a0823160e01b81529192506000916001600160a01b03909116906370a08231906112b4908690600401611eb6565b60206040518083038186803b1580156112cc57600080fd5b505afa1580156112e0573d6000803e3d6000fd5b505050506040513d601f19601f82011682018060405250810190611304919061233a565b60035490915060005b818110156114705760006003828154811061132a5761132a612353565b6000918252602090912001546001600160a01b0316905061134d81878787611519565b6001600160a01b038082166000908152600b60209081526040808320938a168352929052205480158015906113fd57506040516370a0823160e01b81526001600160a01b038316906370a08231906113a9903090600401611eb6565b60206040518083038186803b1580156113c157600080fd5b505afa1580156113d5573d6000803e3d6000fd5b505050506040513d601f19601f820116820180604052508101906113f9919061233a565b8111155b1561145b5761140d828883611ba0565b816001600160a01b0316876001600160a01b03167f540798df468d7b23d11f156fdb954cb19ad414d150722a7b6d55ba369dea792e8360405161145291815260200190565b60405180910390a35b505080806114689061237f565b91505061130d565b505060018055505050565b6001600160a01b038085166000908152600a6020908152604080832093871683529290529081205481906114af8786611ad5565b6114b991906123e8565b90506000670de0b6b3a76400006114d0838661239a565b6114da91906123ff565b6001600160a01b038089166000908152600b60209081526040808320938b168352929052205490915061150e908290612421565b979650505050505050565b60006115258584611ad5565b6001600160a01b0386166000908152600960205260409020819055905061154b85610969565b6001600160a01b038087166000908152600860205260409020919091558416156109625761157b8585858561147b565b6001600160a01b038087166000818152600b60209081526040808320948a1680845294825280832095909555918152600a8252838120928152919052208190555050505050565b6001600160a01b0384166116115760405162461bcd60e51b815260206004820152601660248201527534b731b7b93932b1ba16b932bbb0b93216ba37b5b2b760511b604482015260640161046e565b826116585760405162461bcd60e51b81526020600482015260176024820152761a5b98dbdc9c9958dd0b5c995dd85c990b585b5bdd5b9d604a1b604482015260640161046e565b816116a15760405162461bcd60e51b815260206004820152601960248201527834b731b7b93932b1ba16b932bbb0b93216b23ab930ba34b7b760391b604482015260640161046e565b6001600160a01b03841660009081526004602052604090205460ff166117005760405162461bcd60e51b815260206004820152601460248201527334b73b30b634b216b932bbb0b93216ba37b5b2b760611b604482015260640161046e565b61170a8482611ad5565b6001600160a01b038516600090815260096020908152604080832093909355600590522054421061175d5761173f82846123ff565b6001600160a01b0385166000908152600660205260409020556117db565b6001600160a01b0384166000908152600560205260408120546117819042906123e8565b6001600160a01b038616600090815260066020526040812054919250906117a8908361239a565b9050836117b58287612421565b6117bf91906123ff565b6001600160a01b03871660009081526006602052604090205550505b6040516370a0823160e01b81526000906001600160a01b038616906370a082319061180a903090600401611eb6565b60206040518083038186803b15801561182257600080fd5b505afa158015611836573d6000803e3d6000fd5b505050506040513d601f19601f8201168201806040525081019061185a919061233a565b905061186683826123ff565b6001600160a01b03861660009081526006602052604090205411156118c05760405162461bcd60e51b815260206004820152601060248201526f0e4caeec2e4c8e65ae8dede5ad0d2ced60831b604482015260640161046e565b6001600160a01b03851660009081526007602090815260408083208690556008909152902042908190556118f5908490612421565b6001600160a01b03861660008181526005602090815260409182902093909355805187815292830186905290917f6a6f77044107a33658235d41bedbbaf2fe9ccdceb313143c947a5e76e1ec8474910160405180910390a25050505050565b835183518351826119775760405162461bcd60e51b815260040161046e906123b9565b816119bd5760405162461bcd60e51b8152602060048201526016602482015275696e76616c69642d7265776172642d616d6f756e747360501b604482015260640161046e565b80611a055760405162461bcd60e51b8152602060048201526018602482015277696e76616c69642d7265776172642d6475726174696f6e7360401b604482015260640161046e565b8183148015611a1357508083145b611a575760405162461bcd60e51b81526020600482015260156024820152740c2e4e4c2f25ad8cadccee8d05adad2e6dac2e8c6d605b1b604482015260640161046e565b60005b83811015611acb57611ab9888281518110611a7757611a77612353565b6020026020010151888381518110611a9157611a91612353565b6020026020010151888481518110611aab57611aab612353565b6020026020010151886115c2565b80611ac38161237f565b915050611a5a565b5050505050505050565b600081611afb57506001600160a01b0382166000908152600960205260409020546109a8565b6001600160a01b038316600090815260086020526040812054611b1d85610969565b611b2791906123e8565b6001600160a01b03851660009081526006602052604081205491925090611b4e908361239a565b9050600084611b6583670de0b6b3a764000061239a565b611b6f91906123ff565b6001600160a01b038716600090815260096020526040902054909150611b96908290612421565b9695505050505050565b6001600160a01b038381166000818152600b60209081526040808320948716808452948252808320839055805160248101959095526044808601879052815180870390910181526064909501815284820180516001600160e01b031663a9059cbb60e01b17905280518082019091528181527f5361666545524332303a206c6f772d6c6576656c2063616c6c206661696c656491810191909152610d109386928692869286929091611c559084908490611cd2565b805190915015610d105780806020019051810190611c739190612439565b610d105760405162461bcd60e51b815260206004820152602a60248201527f5361666545524332303a204552433230206f7065726174696f6e20646964206e6044820152691bdd081cdd58d8d9595960b21b606482015260840161046e565b6060611ce18484600085611ceb565b90505b9392505050565b606082471015611d4c5760405162461bcd60e51b815260206004820152602660248201527f416464726573733a20696e73756666696369656e742062616c616e636520666f6044820152651c8818d85b1b60d21b606482015260840161046e565b843b611d9a5760405162461bcd60e51b815260206004820152601d60248201527f416464726573733a2063616c6c20746f206e6f6e2d636f6e7472616374000000604482015260640161046e565b600080866001600160a01b03168587604051611db6919061245b565b60006040518083038185875af1925050503d8060008114611df3576040519150601f19603f3d011682016040523d82523d6000602084013e611df8565b606091505b509150915061150e82828660608315611e12575081611ce4565b825115611e225782518084602001fd5b8160405162461bcd60e51b815260040161046e9190612272565b828054828255906000526020600020908101928215611e91579160200282015b82811115611e9157825182546001600160a01b0319166001600160a01b03909116178255602090920191600190910190611e5c565b50611e9d929150611ea1565b5090565b5b80821115611e9d5760008155600101611ea2565b6001600160a01b0391909116815260200190565b6001600160a01b0381168114611edf57600080fd5b50565b600060208284031215611ef457600080fd5b8135611ce481611eca565b600081518084526020808501945080840160005b83811015611f385781516001600160a01b031687529582019590820190600101611f13565b509495945050505050565b604081526000611f566040830185611eff565b82810360208481019190915284518083528582019282019060005b81811015611f8d57845183529383019391830191600101611f71565b5090979650505050505050565b60008060408385031215611fad57600080fd5b8235611fb881611eca565b91506020830135611fc881611eca565b809150509250929050565b600060208284031215611fe557600080fd5b5035919050565b634e487b7160e01b600052604160045260246000fd5b604051601f8201601f191681016001600160401b038111828210171561202a5761202a611fec565b604052919050565b60006001600160401b0382111561204b5761204b611fec565b5060051b60200190565b600082601f83011261206657600080fd5b8135602061207b61207683612032565b612002565b82815260059290921b8401810191818101908684111561209a57600080fd5b8286015b848110156120be5780356120b181611eca565b835291830191830161209e565b509695505050505050565b600080604083850312156120dc57600080fd5b82356120e781611eca565b915060208301356001600160401b0381111561210257600080fd5b61210e85828601612055565b9150509250929050565b60008060006060848603121561212d57600080fd5b833561213881611eca565b95602085013595506040909401359392505050565b600082601f83011261215e57600080fd5b8135602061216e61207683612032565b82815260059290921b8401810191818101908684111561218d57600080fd5b8286015b848110156120be5780358352918301918301612191565b6000806000606084860312156121bd57600080fd5b83356001600160401b03808211156121d457600080fd5b6121e087838801612055565b945060208601359150808211156121f657600080fd5b6122028783880161214d565b9350604086013591508082111561221857600080fd5b506122258682870161214d565b9150509250925092565b602081526000611ce46020830184611eff565b60005b8381101561225d578181015183820152602001612245565b8381111561226c576000848401525b50505050565b6020815260008251806020840152612291816040850160208701612242565b601f01601f19169190910160400192915050565b6000602082840312156122b757600080fd5b8151611ce481611eca565b6020808252600e908201526d1b9bdd0b585d5d1a1bdc9a5e995960921b604082015260600190565b6020808252825482820181905260008481528281209092916040850190845b8181101561232e5783546001600160a01b031683526001938401939285019201612309565b50909695505050505050565b60006020828403121561234c57600080fd5b5051919050565b634e487b7160e01b600052603260045260246000fd5b634e487b7160e01b600052601160045260246000fd5b600060001982141561239357612393612369565b5060010190565b60008160001904831182151516156123b4576123b4612369565b500290565b602080825260159082015274696e76616c69642d7265776172642d746f6b656e7360581b604082015260600190565b6000828210156123fa576123fa612369565b500390565b60008261241c57634e487b7160e01b600052601260045260246000fd5b500490565b6000821982111561243457612434612369565b500190565b60006020828403121561244b57600080fd5b81518015158114611ce457600080fd5b6000825161246d818460208701612242565b919091019291505056fea26469706673582212208da5f550b610e1ca87fa11c61a2aa122f0f5f574004fa5ed0413b65266c7bfb064736f6c63430008090033",
  "devdoc": {
    "kind": "dev",
    "methods": {
      "claimReward(address)": {
        "details": "This function will claim rewards for all tokens being rewarded"
      },
      "claimable(address)": {
        "returns": {
          "_claimableAmounts": "Array of claimable for token on same index in rewardTokens",
          "_rewardTokens": "Array of tokens being rewarded"
        }
      },
      "initialize(address,address[])": {
        "details": "Called by proxy to initialize this contract",
        "params": {
          "_pool": "Vesper pool address",
          "_rewardTokens": "Array of reward token addresses"
        }
      },
      "notifyRewardAmount(address[],uint256[],uint256[])": {
        "details": "Also updates reward rate and reward earning period.",
        "params": {
          "_rewardAmounts": "Rewards amount for token on same index in rewardTokens array",
          "_rewardDurations": "Duration for which reward will be distributed",
          "_rewardTokens": "Tokens being rewarded"
        }
      },
      "rewardPerToken()": {
        "returns": {
          "_rewardPerTokenRate": "Array of Rewards rate for token on same index in rewardTokens",
          "_rewardTokens": "Array of tokens being rewarded"
        }
      }
    },
    "title": "Distribute rewards based on vesper pool balance and supply",
    "version": 1
  },
  "userdoc": {
    "events": {
      "RewardAdded(address,uint256,uint256)": {
        "notice": "Emitted after reward added"
      },
      "RewardPaid(address,address,uint256)": {
        "notice": "Emitted whenever any user claim rewards"
      },
      "RewardTokenAdded(address,address[])": {
        "notice": "Emitted after adding new rewards token into rewardTokens array"
      }
    },
    "kind": "user",
    "methods": {
      "addRewardToken(address)": {
        "notice": "Add new reward token in existing rewardsToken array"
      },
      "claimReward(address)": {
        "notice": "Claim earned rewards."
      },
      "claimable(address)": {
        "notice": "Returns claimable reward amount."
      },
      "getRewardTokens()": {
        "notice": "Provides easy access to all rewardTokens"
      },
      "isRewardToken(address)": {
        "notice": "Reward token to valid/invalid flag mapping"
      },
      "lastTimeRewardApplicable(address)": {
        "notice": "Returns timestamp of last reward update"
      },
      "lastUpdateTime(address)": {
        "notice": "Reward token to Last reward drip update time stamp mapping"
      },
      "notifyRewardAmount(address[],uint256[],uint256[])": {
        "notice": "Notify that reward is added. Only authorized caller can call"
      },
      "periodFinish(address)": {
        "notice": "Reward token to period ending of current reward"
      },
      "pool()": {
        "notice": "Vesper pool address"
      },
      "rewardDuration(address)": {
        "notice": "Reward token to Duration of current reward distribution"
      },
      "rewardPerToken()": {
        "notice": "Rewards rate per pool token"
      },
      "rewardPerTokenStored(address)": {
        "notice": "Reward token to Reward per token mapping. Calculated and stored at last drip update"
      },
      "rewardRates(address)": {
        "notice": "Reward token to current reward rate mapping"
      },
      "rewardTokens(uint256)": {
        "notice": "Array of reward token addresses"
      },
      "rewards(address,address)": {
        "notice": "RewardToken => User => Rewards earned till last reward update"
      },
      "updateReward(address)": {
        "notice": "Updated reward for given account."
      },
      "userRewardPerTokenPaid(address,address)": {
        "notice": "Reward token => User => Reward per token stored at last reward update"
      }
    },
    "version": 1
  },
  "storageLayout": {
    "storage": [
      {
        "astId": 887,
        "contract": "contracts/pool/PoolRewards.sol:PoolRewards",
        "label": "_initialized",
        "offset": 0,
        "slot": "0",
        "type": "t_bool"
      },
      {
        "astId": 890,
        "contract": "contracts/pool/PoolRewards.sol:PoolRewards",
        "label": "_initializing",
        "offset": 1,
        "slot": "0",
        "type": "t_bool"
      },
      {
        "astId": 938,
        "contract": "contracts/pool/PoolRewards.sol:PoolRewards",
        "label": "_status",
        "offset": 0,
        "slot": "1",
        "type": "t_uint256"
      },
      {
        "astId": 10006,
        "contract": "contracts/pool/PoolRewards.sol:PoolRewards",
        "label": "pool",
        "offset": 0,
        "slot": "2",
        "type": "t_address"
      },
      {
        "astId": 10010,
        "contract": "contracts/pool/PoolRewards.sol:PoolRewards",
        "label": "rewardTokens",
        "offset": 0,
        "slot": "3",
        "type": "t_array(t_address)dyn_storage"
      },
      {
        "astId": 10015,
        "contract": "contracts/pool/PoolRewards.sol:PoolRewards",
        "label": "isRewardToken",
        "offset": 0,
        "slot": "4",
        "type": "t_mapping(t_address,t_bool)"
      },
      {
        "astId": 10020,
        "contract": "contracts/pool/PoolRewards.sol:PoolRewards",
        "label": "periodFinish",
        "offset": 0,
        "slot": "5",
        "type": "t_mapping(t_address,t_uint256)"
      },
      {
        "astId": 10025,
        "contract": "contracts/pool/PoolRewards.sol:PoolRewards",
        "label": "rewardRates",
        "offset": 0,
        "slot": "6",
        "type": "t_mapping(t_address,t_uint256)"
      },
      {
        "astId": 10030,
        "contract": "contracts/pool/PoolRewards.sol:PoolRewards",
        "label": "rewardDuration",
        "offset": 0,
        "slot": "7",
        "type": "t_mapping(t_address,t_uint256)"
      },
      {
        "astId": 10035,
        "contract": "contracts/pool/PoolRewards.sol:PoolRewards",
        "label": "lastUpdateTime",
        "offset": 0,
        "slot": "8",
        "type": "t_mapping(t_address,t_uint256)"
      },
      {
        "astId": 10040,
        "contract": "contracts/pool/PoolRewards.sol:PoolRewards",
        "label": "rewardPerTokenStored",
        "offset": 0,
        "slot": "9",
        "type": "t_mapping(t_address,t_uint256)"
      },
      {
        "astId": 10047,
        "contract": "contracts/pool/PoolRewards.sol:PoolRewards",
        "label": "userRewardPerTokenPaid",
        "offset": 0,
        "slot": "10",
        "type": "t_mapping(t_address,t_mapping(t_address,t_uint256))"
      },
      {
        "astId": 10054,
        "contract": "contracts/pool/PoolRewards.sol:PoolRewards",
        "label": "rewards",
        "offset": 0,
        "slot": "11",
        "type": "t_mapping(t_address,t_mapping(t_address,t_uint256))"
      }
    ],
    "types": {
      "t_address": {
        "encoding": "inplace",
        "label": "address",
        "numberOfBytes": "20"
      },
      "t_array(t_address)dyn_storage": {
        "base": "t_address",
        "encoding": "dynamic_array",
        "label": "address[]",
        "numberOfBytes": "32"
      },
      "t_bool": {
        "encoding": "inplace",
        "label": "bool",
        "numberOfBytes": "1"
      },
      "t_mapping(t_address,t_bool)": {
        "encoding": "mapping",
        "key": "t_address",
        "label": "mapping(address => bool)",
        "numberOfBytes": "32",
        "value": "t_bool"
      },
      "t_mapping(t_address,t_mapping(t_address,t_uint256))": {
        "encoding": "mapping",
        "key": "t_address",
        "label": "mapping(address => mapping(address => uint256))",
        "numberOfBytes": "32",
        "value": "t_mapping(t_address,t_uint256)"
      },
      "t_mapping(t_address,t_uint256)": {
        "encoding": "mapping",
        "key": "t_address",
        "label": "mapping(address => uint256)",
        "numberOfBytes": "32",
        "value": "t_uint256"
      },
      "t_uint256": {
        "encoding": "inplace",
        "label": "uint256",
        "numberOfBytes": "32"
      }
    }
  }
}