{
  "address": "0xb436d8a2e3e23aF57040B2dA8E01463c818e0999",
  "abi": [
    {
      "inputs": [
        {
          "internalType": "address",
          "name": "_pool",
          "type": "address"
        },
        {
          "internalType": "address",
          "name": "_swapManager",
          "type": "address"
        },
        {
          "internalType": "uint256",
          "name": "_fusePoolId",
          "type": "uint256"
        },
        {
          "internalType": "contract IFusePoolDirectory",
          "name": "_fusePoolDirectory",
          "type": "address"
        },
        {
          "internalType": "string",
          "name": "_name",
          "type": "string"
        }
      ],
      "stateMutability": "nonpayable",
      "type": "constructor"
    },
    {
      "anonymous": false,
      "inputs": [
        {
          "indexed": true,
          "internalType": "uint256",
          "name": "newFusePoolId",
          "type": "uint256"
        },
        {
          "indexed": true,
          "internalType": "address",
          "name": "oldCToken",
          "type": "address"
        },
        {
          "indexed": true,
          "internalType": "address",
          "name": "newCToken",
          "type": "address"
        }
      ],
      "name": "FusePoolChanged",
      "type": "event"
    },
    {
      "anonymous": false,
      "inputs": [
        {
          "indexed": true,
          "internalType": "address",
          "name": "previousFeeCollector",
          "type": "address"
        },
        {
          "indexed": true,
          "internalType": "address",
          "name": "newFeeCollector",
          "type": "address"
        }
      ],
      "name": "UpdatedFeeCollector",
      "type": "event"
    },
    {
      "anonymous": false,
      "inputs": [
        {
          "indexed": false,
          "internalType": "uint256",
          "name": "oldPeriod",
          "type": "uint256"
        },
        {
          "indexed": false,
          "internalType": "uint256",
          "name": "newPeriod",
          "type": "uint256"
        },
        {
          "indexed": false,
          "internalType": "uint256",
          "name": "oldRouterIdx",
          "type": "uint256"
        },
        {
          "indexed": false,
          "internalType": "uint256",
          "name": "newRouterIdx",
          "type": "uint256"
        }
      ],
      "name": "UpdatedOracleConfig",
      "type": "event"
    },
    {
      "anonymous": false,
      "inputs": [
        {
          "indexed": true,
          "internalType": "address",
          "name": "previousSwapManager",
          "type": "address"
        },
        {
          "indexed": true,
          "internalType": "address",
          "name": "newSwapManager",
          "type": "address"
        }
      ],
      "name": "UpdatedSwapManager",
      "type": "event"
    },
    {
      "anonymous": false,
      "inputs": [
        {
          "indexed": false,
          "internalType": "uint256",
          "name": "oldSwapSlippage",
          "type": "uint256"
        },
        {
          "indexed": false,
          "internalType": "uint256",
          "name": "newSwapSlippage",
          "type": "uint256"
        }
      ],
      "name": "UpdatedSwapSlippage",
      "type": "event"
    },
    {
      "inputs": [],
      "name": "COMPTROLLER",
      "outputs": [
        {
          "internalType": "contract Comptroller",
          "name": "",
          "type": "address"
        }
      ],
      "stateMutability": "view",
      "type": "function"
    },
    {
      "inputs": [],
      "name": "NAME",
      "outputs": [
        {
          "internalType": "string",
          "name": "",
          "type": "string"
        }
      ],
      "stateMutability": "view",
      "type": "function"
    },
    {
      "inputs": [],
      "name": "VERSION",
      "outputs": [
        {
          "internalType": "string",
          "name": "",
          "type": "string"
        }
      ],
      "stateMutability": "view",
      "type": "function"
    },
    {
      "inputs": [
        {
          "internalType": "address",
          "name": "_keeperAddress",
          "type": "address"
        }
      ],
      "name": "addKeeper",
      "outputs": [],
      "stateMutability": "nonpayable",
      "type": "function"
    },
    {
      "inputs": [],
      "name": "approveToken",
      "outputs": [],
      "stateMutability": "nonpayable",
      "type": "function"
    },
    {
      "inputs": [],
      "name": "claimRewards",
      "outputs": [],
      "stateMutability": "nonpayable",
      "type": "function"
    },
    {
      "inputs": [],
      "name": "collateralToken",
      "outputs": [
        {
          "internalType": "contract IERC20",
          "name": "",
          "type": "address"
        }
      ],
      "stateMutability": "view",
      "type": "function"
    },
    {
      "inputs": [],
      "name": "feeCollector",
      "outputs": [
        {
          "internalType": "address",
          "name": "",
          "type": "address"
        }
      ],
      "stateMutability": "view",
      "type": "function"
    },
    {
      "inputs": [],
      "name": "fusePoolDirectory",
      "outputs": [
        {
          "internalType": "contract IFusePoolDirectory",
          "name": "",
          "type": "address"
        }
      ],
      "stateMutability": "view",
      "type": "function"
    },
    {
      "inputs": [],
      "name": "fusePoolId",
      "outputs": [
        {
          "internalType": "uint256",
          "name": "",
          "type": "uint256"
        }
      ],
      "stateMutability": "view",
      "type": "function"
    },
    {
      "inputs": [
        {
          "internalType": "address",
          "name": "_token",
          "type": "address"
        }
      ],
      "name": "isReservedToken",
      "outputs": [
        {
          "internalType": "bool",
          "name": "",
          "type": "bool"
        }
      ],
      "stateMutability": "view",
      "type": "function"
    },
    {
      "inputs": [],
      "name": "keepers",
      "outputs": [
        {
          "internalType": "address[]",
          "name": "",
          "type": "address[]"
        }
      ],
      "stateMutability": "view",
      "type": "function"
    },
    {
      "inputs": [
        {
          "internalType": "address",
          "name": "_newStrategy",
          "type": "address"
        }
      ],
      "name": "migrate",
      "outputs": [],
      "stateMutability": "nonpayable",
      "type": "function"
    },
    {
      "inputs": [
        {
          "internalType": "uint256",
          "name": "_newPoolId",
          "type": "uint256"
        }
      ],
      "name": "migrateFusePool",
      "outputs": [],
      "stateMutability": "nonpayable",
      "type": "function"
    },
    {
      "inputs": [],
      "name": "oraclePeriod",
      "outputs": [
        {
          "internalType": "uint256",
          "name": "",
          "type": "uint256"
        }
      ],
      "stateMutability": "view",
      "type": "function"
    },
    {
      "inputs": [],
      "name": "oracleRouterIdx",
      "outputs": [
        {
          "internalType": "uint256",
          "name": "",
          "type": "uint256"
        }
      ],
      "stateMutability": "view",
      "type": "function"
    },
    {
      "inputs": [],
      "name": "pool",
      "outputs": [
        {
          "internalType": "address",
          "name": "",
          "type": "address"
        }
      ],
      "stateMutability": "view",
      "type": "function"
    },
    {
      "inputs": [],
      "name": "rebalance",
      "outputs": [],
      "stateMutability": "nonpayable",
      "type": "function"
    },
    {
      "inputs": [],
      "name": "receiptToken",
      "outputs": [
        {
          "internalType": "address",
          "name": "",
          "type": "address"
        }
      ],
      "stateMutability": "view",
      "type": "function"
    },
    {
      "inputs": [
        {
          "internalType": "address",
          "name": "_keeperAddress",
          "type": "address"
        }
      ],
      "name": "removeKeeper",
      "outputs": [],
      "stateMutability": "nonpayable",
      "type": "function"
    },
    {
      "inputs": [],
      "name": "rewardDistributor",
      "outputs": [
        {
          "internalType": "address",
          "name": "",
          "type": "address"
        }
      ],
      "stateMutability": "view",
      "type": "function"
    },
    {
      "inputs": [],
      "name": "rewardToken",
      "outputs": [
        {
          "internalType": "address",
          "name": "",
          "type": "address"
        }
      ],
      "stateMutability": "view",
      "type": "function"
    },
    {
      "inputs": [],
      "name": "setupOracles",
      "outputs": [],
      "stateMutability": "nonpayable",
      "type": "function"
    },
    {
      "inputs": [],
      "name": "swapManager",
      "outputs": [
        {
          "internalType": "contract ISwapManager",
          "name": "",
          "type": "address"
        }
      ],
      "stateMutability": "view",
      "type": "function"
    },
    {
      "inputs": [],
      "name": "swapSlippage",
      "outputs": [
        {
          "internalType": "uint256",
          "name": "",
          "type": "uint256"
        }
      ],
      "stateMutability": "view",
      "type": "function"
    },
    {
      "inputs": [
        {
          "internalType": "address",
          "name": "_fromToken",
          "type": "address"
        }
      ],
      "name": "sweepERC20",
      "outputs": [],
      "stateMutability": "nonpayable",
      "type": "function"
    },
    {
      "inputs": [],
      "name": "token",
      "outputs": [
        {
          "internalType": "address",
          "name": "",
          "type": "address"
        }
      ],
      "stateMutability": "view",
      "type": "function"
    },
    {
      "inputs": [],
      "name": "totalValue",
      "outputs": [
        {
          "internalType": "uint256",
          "name": "_totalValue",
          "type": "uint256"
        }
      ],
      "stateMutability": "view",
      "type": "function"
    },
    {
      "inputs": [],
      "name": "totalValueCurrent",
      "outputs": [
        {
          "internalType": "uint256",
          "name": "_totalValue",
          "type": "uint256"
        }
      ],
      "stateMutability": "nonpayable",
      "type": "function"
    },
    {
      "inputs": [
        {
          "internalType": "address",
          "name": "_feeCollector",
          "type": "address"
        }
      ],
      "name": "updateFeeCollector",
      "outputs": [],
      "stateMutability": "nonpayable",
      "type": "function"
    },
    {
      "inputs": [
        {
          "internalType": "uint256",
          "name": "_newPeriod",
          "type": "uint256"
        },
        {
          "internalType": "uint256",
          "name": "_newRouterIdx",
          "type": "uint256"
        }
      ],
      "name": "updateOracleConfig",
      "outputs": [],
      "stateMutability": "nonpayable",
      "type": "function"
    },
    {
      "inputs": [
        {
          "internalType": "address",
          "name": "_swapManager",
          "type": "address"
        }
      ],
      "name": "updateSwapManager",
      "outputs": [],
      "stateMutability": "nonpayable",
      "type": "function"
    },
    {
      "inputs": [
        {
          "internalType": "uint256",
          "name": "_newSwapSlippage",
          "type": "uint256"
        }
      ],
      "name": "updateSwapSlippage",
      "outputs": [],
      "stateMutability": "nonpayable",
      "type": "function"
    },
    {
      "inputs": [
        {
          "internalType": "uint256",
          "name": "_amount",
          "type": "uint256"
        }
      ],
      "name": "withdraw",
      "outputs": [],
      "stateMutability": "nonpayable",
      "type": "function"
    }
  ],
  "transactionHash": "0xf598b2704c561e0c2b5f96209b0bfa7285920f61650ef2f128f7fe0050380ff8",
  "args": [
    "0xA5Bc6eB0A7E6738e2F2Ac6c92280b32771aC52Ad",
    "0xe382d9f2394A359B01006faa8A1864b8a60d2710",
    127,
    "0x835482FE0532f169024d5E9410199369aAD5C77E",
    "RariFuseStrategyAPE"
  ],
  "solcInputHash": "1fcc9d6bba2e02812b6c126ef0fdf444",
  "bytecode": "0x610100604052600080546001600160a01b03191673c02aaa39b223fe8d0a0e5c4f27ead9083c756cc2178155610e106004556005556127106006553480156200004757600080fd5b5060405162004c5138038062004c518339810160408190526200006a91620009bf565b848484848484846200009485856001600160a01b0316620004cd60201b62001bcb1790919060201c565b6000620001d98760008054906101000a90046001600160a01b03166001600160a01b03168b6001600160a01b031663fc0c546a6040518163ffffffff1660e01b815260040160206040518083038186803b158015620000f257600080fd5b505afa15801562000107573d6000803e3d6000fd5b505050506040513d601f19601f820116820180604052508101906200012d919062000a4a565b6001600160a01b031614620001b7578a6001600160a01b031663fc0c546a6040518163ffffffff1660e01b815260040160206040518083038186803b1580156200017657600080fd5b505afa1580156200018b573d6000803e3d6000fd5b505050506040513d601f19601f82011682018060405250810190620001b1919062000a4a565b620001ba565b60005b886001600160a01b03166200055c60201b62001c56179092919060201c565b858585836001600160a01b038316620002395760405162461bcd60e51b815260206004820152601460248201527f706f6f6c2d616464726573732d69732d7a65726f00000000000000000000000060448201526064015b60405180910390fd5b6001600160a01b038216620002865760405162461bcd60e51b8152602060048201526012602482015271736d2d616464726573732d69732d7a65726f60701b604482015260640162000230565b600380546001600160a01b0319166001600160a01b0384811691909117909155831660a081905260408051637e062a3560e11b8152905163fc0c546a91600480820192602092909190829003018186803b158015620002e457600080fd5b505afa158015620002f9573d6000803e3d6000fd5b505050506040513d601f19601f820116820180604052508101906200031f919062000a4a565b6001600160a01b03908116608052600180546001600160a01b03191691831691909117905562000366620003503390565b6007620006a460201b62001d921790919060201c565b620003a85760405162461bcd60e51b81526020600482015260116024820152701859190b5ad9595c195c8b59985a5b1959607a1b604482015260640162000230565b5050506001600160a01b038216620004035760405162461bcd60e51b815260206004820152601660248201527f63546f6b656e2d616464726573732d69732d7a65726f00000000000000000000604482015260640162000230565b600a80546001600160a01b0319166001600160a01b03841617905561271060065580516200043990600990602084019062000833565b5050506001600160a01b0391821660c052600b80546001600160a01b031916918316919091179055600c869055841660e0819052620004889250905084620006c4602090811b62001dae17901c565b600b80546001600160a01b039283166001600160a01b031991821617909155600d8054939092169216919091179055505060016005555062000b2b9650505050505050565b6040516315895f4760e31b8152600481018290526000906001600160a01b0384169063ac4afa389060240160006040518083038186803b1580156200051157600080fd5b505afa15801562000526573d6000803e3d6000fd5b505050506040513d6000823e601f3d908101601f1916820160405262000550919081019062000a71565b50909695505050505050565b6000806200056b8585620004cd565b90506001600160a01b038116620005c55760405162461bcd60e51b815260206004820152601d60248201527f726172692d667573652d696e76616c69642d636f6d7074726f6c6c6572000000604482015260640162000230565b6040516318ffa3fd60e11b81526001600160a01b0384811660048301528216906331ff47fa9060240160206040518083038186803b1580156200060757600080fd5b505afa1580156200061c573d6000803e3d6000fd5b505050506040513d601f19601f8201168201806040525081019062000642919062000a4a565b91506001600160a01b0382166200069c5760405162461bcd60e51b815260206004820152601860248201527f726172692d667573652d696e76616c69642d63746f6b656e0000000000000000604482015260640162000230565b509392505050565b6000620006bb836001600160a01b038416620007e1565b90505b92915050565b6000808080620006d58686620004cd565b905063c6c5b0dd60e01b813b80620007305760405162461bcd60e51b815260206004820152601a60248201527f636f6d7074726f6c6c65722d6e6f742d612d636f6e7472616374000000000000604482015260640162000230565b6040518281526000600482015260208160248387617530fa9051965093506001600160a01b03861615620007d657856001600160a01b031663f7c618c16040518163ffffffff1660e01b815260040160206040518083038186803b1580156200079857600080fd5b505afa158015620007ad573d6000803e3d6000fd5b505050506040513d601f19601f82011682018060405250810190620007d3919062000a4a565b94505b505050509250929050565b60008181526001830160205260408120546200082a57508154600181810184556000848152602080822090930184905584548482528286019093526040902091909155620006be565b506000620006be565b828054620008419062000aee565b90600052602060002090601f016020900481019282620008655760008555620008b0565b82601f106200088057805160ff1916838001178555620008b0565b82800160010185558215620008b0579182015b82811115620008b057825182559160200191906001019062000893565b50620008be929150620008c2565b5090565b5b80821115620008be5760008155600101620008c3565b6001600160a01b0381168114620008ef57600080fd5b50565b634e487b7160e01b600052604160045260246000fd5b600082601f8301126200091a57600080fd5b81516001600160401b0380821115620009375762000937620008f2565b604051601f8301601f19908116603f01168101908282118183101715620009625762000962620008f2565b816040528381526020925086838588010111156200097f57600080fd5b600091505b83821015620009a3578582018301518183018401529082019062000984565b83821115620009b55760008385830101525b9695505050505050565b600080600080600060a08688031215620009d857600080fd5b8551620009e581620008d9565b6020870151909550620009f881620008d9565b60408701516060880151919550935062000a1281620008d9565b60808701519092506001600160401b0381111562000a2f57600080fd5b62000a3d8882890162000908565b9150509295509295909350565b60006020828403121562000a5d57600080fd5b815162000a6a81620008d9565b9392505050565b600080600080600060a0868803121562000a8a57600080fd5b85516001600160401b0381111562000aa157600080fd5b62000aaf8882890162000908565b955050602086015162000ac281620008d9565b604087015190945062000ad581620008d9565b6060870151608090970151959894975095949392505050565b600181811c9082168062000b0357607f821691505b6020821081141562000b2557634e487b7160e01b600052602260045260246000fd5b50919050565b60805160a05160c05160e05161400562000c4c6000396000818161030e015281816109e00152610e09015260006102b90152600081816101e5015281816104820152818161059e015281816106210152818161075f0152818161091201528181610e640152818161101401528181611158015281816113bb01528181611458015281816116ac01528181611ee701528181612137015281816121d7015261244901526000818161039e01528181610a0301528181610bcf01528181610c0601528181610c40015281816115df015281816116830152818161197601528181611f08015281816122b5015281816124270152818161247f01528181612698015281816126fe0152818161299e01528181612d700152612dfb01526140056000f3fe608060405234801561001057600080fd5b50600436106101c65760003560e01c80639b0db5d0116100fa578063ce5494bb1161009d578063ce5494bb146103dc578063d2c35ce8146103ef578063d4c3eea014610402578063e00af4a71461040a578063e645c2021461041d578063ec78e83214610425578063f7c618c114610438578063fc0c546a1461044b578063ffa1ad741461045c57600080fd5b80639b0db5d01461034d578063a3f4df7e14610356578063a923b2a61461036b578063aa1018861461037e578063acc2166a14610386578063b2016bd414610399578063c415b95c146103c0578063cd2d7ebe146103d357600080fd5b80634c36fad71161016d5780634c36fad71461028e5780634dda5222146102a15780635f82c67e146102b457806367f5e4b8146102db578063709d039d146102ee5780637d7c2a1c14610301578063805c5e4014610309578063951dc22c1461033057806399b71d5c1461034557600080fd5b806314ae9f2e146101cb57806316f0115b146101e05780631aedeabe1461021d5780632e1a7d4d14610234578063372500ab146102475780634032b72b1461024f57806342189c8f14610262578063440d72481461026b575b600080fd5b6101de6101d93660046138f9565b610480565b005b6102077f000000000000000000000000000000000000000000000000000000000000000081565b6040516102149190613916565b60405180910390f35b61022660065481565b604051908152602001610214565b6101de61024236600461392a565b61059b565b6101de6105ec565b6101de61025d3660046138f9565b61061f565b61022660045481565b61027e6102793660046138f9565b61072b565b6040519015158152602001610214565b6101de61029c3660046138f9565b61075d565b6101de6102af36600461392a565b610910565b6102077f000000000000000000000000000000000000000000000000000000000000000081565b6101de6102e936600461392a565b610e62565b600354610207906001600160a01b031681565b6101de610fae565b6102077f000000000000000000000000000000000000000000000000000000000000000081565b61033861107d565b6040516102149190613987565b6101de61108e565b610226600c5481565b61035e6110c8565b60405161021491906139c6565b6101de6103793660046139f9565b611156565b6101de61138b565b600d54610207906001600160a01b031681565b6102077f000000000000000000000000000000000000000000000000000000000000000081565b600254610207906001600160a01b031681565b61022660055481565b6101de6103ea3660046138f9565b6113b8565b6101de6103fd3660046138f9565b6116aa565b610226611873565b6101de6104183660046138f9565b6118ff565b610226611b1e565b600154610207906001600160a01b031681565b600b54610207906001600160a01b031681565b6001546001600160a01b0316610207565b61035e604051806040016040528060058152602001640342e302e360dc1b81525081565b7f00000000000000000000000000000000000000000000000000000000000000006001600160a01b0316630c340a246040518163ffffffff1660e01b815260040160206040518083038186803b1580156104d957600080fd5b505afa1580156104ed573d6000803e3d6000fd5b505050506040513d601f19601f820116820180604052508101906105119190613a26565b6001600160a01b0316336001600160a01b03161461054a5760405162461bcd60e51b815260040161054190613a43565b60405180910390fd5b610555600782611ec3565b6105985760405162461bcd60e51b81526020600482015260146024820152731c995b5bdd994b5ad9595c195c8b59985a5b195960621b6044820152606401610541565b50565b337f00000000000000000000000000000000000000000000000000000000000000006001600160a01b0316146105e35760405162461bcd60e51b815260040161054190613a7a565b61059881611ed8565b6105f9335b600790611f52565b6106155760405162461bcd60e51b815260040161054190613aad565b61061d611f74565b565b7f00000000000000000000000000000000000000000000000000000000000000006001600160a01b0316630c340a246040518163ffffffff1660e01b815260040160206040518083038186803b15801561067857600080fd5b505afa15801561068c573d6000803e3d6000fd5b505050506040513d601f19601f820116820180604052508101906106b09190613a26565b6001600160a01b0316336001600160a01b0316146106e05760405162461bcd60e51b815260040161054190613a43565b6106eb600782611d92565b6105985760405162461bcd60e51b81526020600482015260116024820152701859190b5ad9595c195c8b59985a5b1959607a1b6044820152606401610541565b600a546000906001600160a01b03838116911614806107575750600b546001600160a01b038381169116145b92915050565b7f00000000000000000000000000000000000000000000000000000000000000006001600160a01b0316630c340a246040518163ffffffff1660e01b815260040160206040518083038186803b1580156107b657600080fd5b505afa1580156107ca573d6000803e3d6000fd5b505050506040513d601f19601f820116820180604052508101906107ee9190613a26565b6001600160a01b0316336001600160a01b03161461081e5760405162461bcd60e51b815260040161054190613a43565b6001600160a01b0381166108695760405162461bcd60e51b8152602060048201526012602482015271736d2d616464726573732d69732d7a65726f60701b6044820152606401610541565b6003546001600160a01b03828116911614156108b45760405162461bcd60e51b815260206004820152600a602482015269736d2d69732d73616d6560b01b6044820152606401610541565b6003546040516001600160a01b038084169216907f2d19927e7cac08ceb98b38898a4fdff6da6a27295b9a2d62fe250408ebe044e190600090a3600380546001600160a01b0319166001600160a01b0392909216919091179055565b7f00000000000000000000000000000000000000000000000000000000000000006001600160a01b0316630c340a246040518163ffffffff1660e01b815260040160206040518083038186803b15801561096957600080fd5b505afa15801561097d573d6000803e3d6000fd5b505050506040513d601f19601f820116820180604052508101906109a19190613a26565b6001600160a01b0316336001600160a01b0316146109d15760405162461bcd60e51b815260040161054190613a43565b6000610a276001600160a01b037f000000000000000000000000000000000000000000000000000000000000000016837f0000000000000000000000000000000000000000000000000000000000000000611c56565b600a549091506001600160a01b0380831691161415610a795760405162461bcd60e51b815260206004820152600e60248201526d1cd85b594b599d5cd94b5c1bdbdb60921b6044820152606401610541565b600a546040516370a0823160e01b81526001600160a01b039091169063db006a759082906370a0823190610ab1903090600401613916565b60206040518083038186803b158015610ac957600080fd5b505afa158015610add573d6000803e3d6000fd5b505050506040513d601f19601f82011682018060405250810190610b019190613add565b6040518263ffffffff1660e01b8152600401610b1f91815260200190565b602060405180830381600087803b158015610b3957600080fd5b505af1158015610b4d573d6000803e3d6000fd5b505050506040513d601f19601f82011682018060405250810190610b719190613add565b15610bbe5760405162461bcd60e51b815260206004820152601e60248201527f77697468647261772d66726f6d2d667573652d706f6f6c2d6661696c656400006044820152606401610541565b600a54610bf9906001600160a01b037f0000000000000000000000000000000000000000000000000000000000000000811691166000611fd8565b610c2f6001600160a01b037f00000000000000000000000000000000000000000000000000000000000000001682600019611fd8565b806001600160a01b031663a0712d687f00000000000000000000000000000000000000000000000000000000000000006001600160a01b03166370a08231306040518263ffffffff1660e01b8152600401610c8a9190613916565b60206040518083038186803b158015610ca257600080fd5b505afa158015610cb6573d6000803e3d6000fd5b505050506040513d601f19601f82011682018060405250810190610cda9190613add565b6040518263ffffffff1660e01b8152600401610cf891815260200190565b602060405180830381600087803b158015610d1257600080fd5b505af1158015610d26573d6000803e3d6000fd5b505050506040513d601f19601f82011682018060405250810190610d4a9190613add565b15610d975760405162461bcd60e51b815260206004820152601b60248201527f6465706f7369742d746f2d667573652d706f6f6c2d6661696c656400000000006044820152606401610541565b600a546040516001600160a01b0380841692169084907f7725294be69fa7d941c001b388e2086daa9acdf58fbbc7aef3fd8cce3c316b6e90600090a4600a80546001600160a01b03199081166001600160a01b0384811691821790935560018054909216179055600c839055610e2f907f00000000000000000000000000000000000000000000000000000000000000001683611dae565b600b80546001600160a01b039283166001600160a01b031991821617909155600d80549390921692169190911790555050565b7f00000000000000000000000000000000000000000000000000000000000000006001600160a01b0316630c340a246040518163ffffffff1660e01b815260040160206040518083038186803b158015610ebb57600080fd5b505afa158015610ecf573d6000803e3d6000fd5b505050506040513d601f19601f82011682018060405250810190610ef39190613a26565b6001600160a01b0316336001600160a01b031614610f235760405162461bcd60e51b815260040161054190613a43565b612710811115610f6e5760405162461bcd60e51b8152602060048201526016602482015275696e76616c69642d736c6970706167652d76616c756560501b6044820152606401610541565b60065460408051918252602082018390527ef1c5db862c7598b3b6765552ca951f498611e06412c2d57f8d0b58f82e7f82910160405180910390a1600655565b610fb7336105f1565b610fd35760405162461bcd60e51b815260040161054190613aad565b6000806000610fe061212f565b6040516302df682360e11b815260048101849052602481018390526044810182905292955090935091506001600160a01b037f000000000000000000000000000000000000000000000000000000000000000016906305bed04690606401600060405180830381600087803b15801561105857600080fd5b505af115801561106c573d6000803e3d6000fd5b5050505061107861229b565b505050565b6060611089600761240d565b905090565b611097336105f1565b6110b35760405162461bcd60e51b815260040161054190613aad565b6110bd600061241a565b61061d60001961241a565b600980546110d590613af6565b80601f016020809104026020016040519081016040528092919081815260200182805461110190613af6565b801561114e5780601f106111235761010080835404028352916020019161114e565b820191906000526020600020905b81548152906001019060200180831161113157829003601f168201915b505050505081565b7f00000000000000000000000000000000000000000000000000000000000000006001600160a01b0316630c340a246040518163ffffffff1660e01b815260040160206040518083038186803b1580156111af57600080fd5b505afa1580156111c3573d6000803e3d6000fd5b505050506040513d601f19601f820116820180604052508101906111e79190613a26565b6001600160a01b0316336001600160a01b0316146112175760405162461bcd60e51b815260040161054190613a43565b600360009054906101000a90046001600160a01b03166001600160a01b031663c2fba6676040518163ffffffff1660e01b815260040160206040518083038186803b15801561126557600080fd5b505afa158015611279573d6000803e3d6000fd5b505050506040513d601f19601f8201168201806040525081019061129d9190613add565b81106112e25760405162461bcd60e51b81526020600482015260146024820152730d2dcecc2d8d2c85ae4deeae8cae45ad2dcc8caf60631b6044820152606401610541565b816112ed5760045491505b603b82116113355760405162461bcd60e51b81526020600482015260156024820152741a5b9d985b1a590b5bdc9858db194b5c195c9a5bd9605a1b6044820152606401610541565b6004546005546040805192835260208301859052820152606081018290527f83bc5ab8030537fcf1d29c2334f6d22c26c82dcbe5ff03923d2cff5c692c0a7f9060800160405180910390a1600491909155600555565b611394336105f1565b6113b05760405162461bcd60e51b815260040161054190613aad565b61061d6125ec565b337f00000000000000000000000000000000000000000000000000000000000000006001600160a01b0316146114005760405162461bcd60e51b815260040161054190613a7a565b6001600160a01b0381166114565760405162461bcd60e51b815260206004820152601c60248201527f6e65772d73747261746567792d616464726573732d69732d7a65726f000000006044820152606401610541565b7f00000000000000000000000000000000000000000000000000000000000000006001600160a01b0316816001600160a01b03166316f0115b6040518163ffffffff1660e01b815260040160206040518083038186803b1580156114b957600080fd5b505afa1580156114cd573d6000803e3d6000fd5b505050506040513d601f19601f820116820180604052508101906114f19190613a26565b6001600160a01b0316146115405760405162461bcd60e51b81526020600482015260166024820152756e6f742d76616c69642d6e65772d737472617465677960501b6044820152606401610541565b6001546040516370a0823160e01b81526115d99183916001600160a01b03909116906370a0823190611576903090600401613916565b60206040518083038186803b15801561158e57600080fd5b505afa1580156115a2573d6000803e3d6000fd5b505050506040513d601f19601f820116820180604052508101906115c69190613add565b6001546001600160a01b0316919061277a565b610598817f00000000000000000000000000000000000000000000000000000000000000006001600160a01b03166370a08231306040518263ffffffff1660e01b81526004016116299190613916565b60206040518083038186803b15801561164157600080fd5b505afa158015611655573d6000803e3d6000fd5b505050506040513d601f19601f820116820180604052508101906116799190613add565b6001600160a01b037f000000000000000000000000000000000000000000000000000000000000000016919061277a565b7f00000000000000000000000000000000000000000000000000000000000000006001600160a01b0316630c340a246040518163ffffffff1660e01b815260040160206040518083038186803b15801561170357600080fd5b505afa158015611717573d6000803e3d6000fd5b505050506040513d601f19601f8201168201806040525081019061173b9190613a26565b6001600160a01b0316336001600160a01b03161461176b5760405162461bcd60e51b815260040161054190613a43565b6001600160a01b0381166117c15760405162461bcd60e51b815260206004820152601d60248201527f6665652d636f6c6c6563746f722d616464726573732d69732d7a65726f0000006044820152606401610541565b6002546001600160a01b03828116911614156118175760405162461bcd60e51b81526020600482015260156024820152746665652d636f6c6c6563746f722d69732d73616d6560581b6044820152606401610541565b6002546040516001600160a01b038084169216907f0f06062680f9bd68e786e9980d9bb03d73d5620fc3b345e417b6eacb310b970690600090a3600280546001600160a01b0319166001600160a01b0392909216919091179055565b600a546040516370a0823160e01b8152600091611089916001600160a01b03909116906370a08231906118aa903090600401613916565b60206040518083038186803b1580156118c257600080fd5b505afa1580156118d6573d6000803e3d6000fd5b505050506040513d601f19601f820116820180604052508101906118fa9190613add565b6127aa565b611908336105f1565b6119245760405162461bcd60e51b815260040161054190613aad565b6002546001600160a01b03166119745760405162461bcd60e51b81526020600482015260156024820152741999594b58dbdb1b1958dd1bdc8b5b9bdd0b5cd95d605a1b6044820152606401610541565b7f00000000000000000000000000000000000000000000000000000000000000006001600160a01b0316816001600160a01b031614156119f65760405162461bcd60e51b815260206004820152601f60248201527f6e6f742d616c6c6f7765642d746f2d73776565702d636f6c6c61746572616c006044820152606401610541565b6119ff8161072b565b15611a435760405162461bcd60e51b815260206004820152601460248201527306e6f742d616c6c6f7765642d746f2d73776565760641b6044820152606401610541565b6001600160a01b03811673eeeeeeeeeeeeeeeeeeeeeeeeeeeeeeeeeeeeeeee1415611a7e57600254610598906001600160a01b03164761284f565b6040516370a0823160e01b81526000906001600160a01b038316906370a0823190611aad903090600401613916565b60206040518083038186803b158015611ac557600080fd5b505afa158015611ad9573d6000803e3d6000fd5b505050506040513d601f19601f82011682018060405250810190611afd9190613add565b600254909150611b1a906001600160a01b0384811691168361277a565b5050565b600b546000906001600160a01b031615611bc157611b3a611f74565b600b546040516370a0823160e01b8152611089916001600160a01b0316906370a0823190611b6c903090600401613916565b60206040518083038186803b158015611b8457600080fd5b505afa158015611b98573d6000803e3d6000fd5b505050506040513d601f19601f82011682018060405250810190611bbc9190613add565b612968565b6110896000612968565b6040516315895f4760e31b8152600481018290526000906001600160a01b0384169063ac4afa389060240160006040518083038186803b158015611c0e57600080fd5b505afa158015611c22573d6000803e3d6000fd5b505050506040513d6000823e601f3d908101601f19168201604052611c4a9190810190613b72565b50909695505050505050565b600080611c638585611bcb565b90506001600160a01b038116611cbb5760405162461bcd60e51b815260206004820152601d60248201527f726172692d667573652d696e76616c69642d636f6d7074726f6c6c65720000006044820152606401610541565b6040516318ffa3fd60e11b81526001600160a01b038216906331ff47fa90611ce7908690600401613916565b60206040518083038186803b158015611cff57600080fd5b505afa158015611d13573d6000803e3d6000fd5b505050506040513d601f19601f82011682018060405250810190611d379190613a26565b91506001600160a01b038216611d8a5760405162461bcd60e51b81526020600482015260186024820152773930b93496b33ab9b296b4b73b30b634b216b1ba37b5b2b760411b6044820152606401610541565b509392505050565b6000611da7836001600160a01b038416612a5f565b9392505050565b600080600080611dbe8686611bcb565b905063c6c5b0dd60e01b813b80611e175760405162461bcd60e51b815260206004820152601a60248201527f636f6d7074726f6c6c65722d6e6f742d612d636f6e74726163740000000000006044820152606401610541565b6040518281526000600482015260208160248387617530fa9051965093506001600160a01b03861615611eb857856001600160a01b031663f7c618c16040518163ffffffff1660e01b815260040160206040518083038186803b158015611e7d57600080fd5b505afa158015611e91573d6000803e3d6000fd5b505050506040513d601f19601f82011682018060405250810190611eb59190613a26565b94505b505050509250929050565b6000611da7836001600160a01b038416612aae565b611ee181612ba1565b506105987f00000000000000000000000000000000000000000000000000000000000000007f00000000000000000000000000000000000000000000000000000000000000006001600160a01b03166370a08231306040518263ffffffff1660e01b81526004016116299190613916565b6001600160a01b03811660009081526001830160205260408120541515611da7565b600d54604051633bd73ee360e21b81526001600160a01b039091169063ef5cfb8c90611fa4903090600401613916565b600060405180830381600087803b158015611fbe57600080fd5b505af1158015611fd2573d6000803e3d6000fd5b50505050565b8015806120615750604051636eb1769f60e11b81523060048201526001600160a01b03838116602483015284169063dd62ed3e9060440160206040518083038186803b15801561202757600080fd5b505afa15801561203b573d6000803e3d6000fd5b505050506040513d601f19601f8201168201806040525081019061205f9190613add565b155b6120cc5760405162461bcd60e51b815260206004820152603660248201527f5361666545524332303a20617070726f76652066726f6d206e6f6e2d7a65726f60448201527520746f206e6f6e2d7a65726f20616c6c6f77616e636560501b6064820152608401610541565b6040516001600160a01b03831660248201526044810182905261107890849063095ea7b360e01b906064015b60408051601f198184030181529190526020810180516001600160e01b03166001600160e01b031990931692909217909152612c97565b6000806000807f00000000000000000000000000000000000000000000000000000000000000006001600160a01b031663d53ddc26306040518263ffffffff1660e01b81526004016121819190613916565b60206040518083038186803b15801561219957600080fd5b505afa1580156121ad573d6000803e3d6000fd5b505050506040513d601f19601f820116820180604052508101906121d19190613add565b905060007f00000000000000000000000000000000000000000000000000000000000000006001600160a01b0316639f2b2833306040518263ffffffff1660e01b81526004016122219190613916565b60206040518083038186803b15801561223957600080fd5b505afa15801561224d573d6000803e3d6000fd5b505050506040513d601f19601f820116820180604052508101906122719190613add565b905061227c81612d69565b945061228781612e80565b935061229282612ed1565b92505050909192565b6040516370a0823160e01b81526000906001600160a01b037f000000000000000000000000000000000000000000000000000000000000000016906370a08231906122ea903090600401613916565b60206040518083038186803b15801561230257600080fd5b505afa158015612316573d6000803e3d6000fd5b505050506040513d601f19601f8201168201806040525081019061233a9190613add565b9050801561059857600a5460405163140e25ad60e31b8152600481018390526001600160a01b039091169063a0712d6890602401602060405180830381600087803b15801561238857600080fd5b505af115801561239c573d6000803e3d6000fd5b505050506040513d601f19601f820116820180604052508101906123c09190613add565b156105985760405162461bcd60e51b815260206004820152601a60248201527f6465706f7369742d746f2d636f6d706f756e642d6661696c65640000000000006044820152606401610541565b60606000611da783612ee7565b61246e6001600160a01b037f0000000000000000000000000000000000000000000000000000000000000000167f000000000000000000000000000000000000000000000000000000000000000083611fd8565b600a546124a8906001600160a01b037f00000000000000000000000000000000000000000000000000000000000000008116911683611fd8565b600b546001600160a01b0316156105985760005b600360009054906101000a90046001600160a01b03166001600160a01b031663c2fba6676040518163ffffffff1660e01b815260040160206040518083038186803b15801561250a57600080fd5b505afa15801561251e573d6000803e3d6000fd5b505050506040513d601f19601f820116820180604052508101906125429190613add565b811015611b1a57600354604051636e74a6f760e01b8152600481018390526125da916001600160a01b031690636e74a6f79060240160206040518083038186803b15801561258f57600080fd5b505afa1580156125a3573d6000803e3d6000fd5b505050506040513d601f19601f820116820180604052508101906125c79190613a26565b600b546001600160a01b03169084611fd8565b806125e481613c51565b9150506124bc565b600b546001600160a01b03161561269357600354600b5460005460048054600554604051630f30f2d360e21b81526001600160a01b0396871696633cc3cb4c9661263f9690821695911693929101613c6c565b602060405180830381600087803b15801561265957600080fd5b505af115801561266d573d6000803e3d6000fd5b505050506040513d601f19601f820116820180604052508101906126919190613a26565b505b6000547f00000000000000000000000000000000000000000000000000000000000000006001600160a01b0390811691161461061d5760035460005460048054600554604051630f30f2d360e21b81526001600160a01b0395861695633cc3cb4c95612728959116937f0000000000000000000000000000000000000000000000000000000000000000939092909101613c6c565b602060405180830381600087803b15801561274257600080fd5b505af1158015612756573d6000803e3d6000fd5b505050506040513d601f19601f820116820180604052508101906105989190613a26565b6040516001600160a01b03831660248201526044810182905261107890849063a9059cbb60e01b906064016120f8565b6000670de0b6b3a7640000600a60009054906101000a90046001600160a01b03166001600160a01b031663182df0f56040518163ffffffff1660e01b815260040160206040518083038186803b15801561280357600080fd5b505afa158015612817573d6000803e3d6000fd5b505050506040513d601f19601f8201168201806040525081019061283b9190613add565b6128459084613c95565b6107579190613cb4565b8047101561289f5760405162461bcd60e51b815260206004820152601d60248201527f416464726573733a20696e73756666696369656e742062616c616e63650000006044820152606401610541565b6000826001600160a01b03168260405160006040518083038185875af1925050503d80600081146128ec576040519150601f19603f3d011682016040523d82523d6000602084013e6128f1565b606091505b50509050806110785760405162461bcd60e51b815260206004820152603a60248201527f416464726573733a20756e61626c6520746f2073656e642076616c75652c207260448201527f6563697069656e74206d617920686176652072657665727465640000000000006064820152608401610541565b60008115612a2357600354600b546040516340b4c54560e11b81526001600160a01b03928316926381698a8a926129cb929116907f0000000000000000000000000000000000000000000000000000000000000000908790600090600401613c6c565b60006040518083038186803b1580156129e357600080fd5b505afa1580156129f7573d6000803e3d6000fd5b505050506040513d6000823e601f3d908101601f19168201604052612a1f9190810190613d6e565b9150505b600a546040516370a0823160e01b8152612a55916001600160a01b0316906370a08231906118aa903090600401613916565b6107579082613db5565b6000818152600183016020526040812054612aa657508154600181810184556000848152602080822090930184905584548482528286019093526040902091909155610757565b506000610757565b60008181526001830160205260408120548015612b97576000612ad2600183613dcd565b8554909150600090612ae690600190613dcd565b9050818114612b4b576000866000018281548110612b0657612b06613de4565b9060005260206000200154905080876000018481548110612b2957612b29613de4565b6000918252602080832090910192909255918252600188019052604090208390555b8554869080612b5c57612b5c613dfa565b600190038181906000526020600020016000905590558560010160008681526020019081526020016000206000905560019350505050610757565b6000915050610757565b600a546040516370a0823160e01b81526000918291612bd8916001600160a01b0316906370a08231906118aa903090600401613916565b90506000600a60009054906101000a90046001600160a01b03166001600160a01b0316633b1d21a26040518163ffffffff1660e01b815260040160206040518083038186803b158015612c2a57600080fd5b505afa158015612c3e573d6000803e3d6000fd5b505050506040513d601f19601f82011682018060405250810190612c629190613add565b90506000818510612c735781612c75565b845b9050612c8e838210612c875783612f43565b815b612f43565b95945050505050565b6000612cec826040518060400160405280602081526020017f5361666545524332303a206c6f772d6c6576656c2063616c6c206661696c6564815250856001600160a01b031661301a9092919063ffffffff16565b8051909150156110785780806020019051810190612d0a9190613e20565b6110785760405162461bcd60e51b815260206004820152602a60248201527f5361666545524332303a204552433230206f7065726174696f6e20646964206e6044820152691bdd081cdd58d8d9595960b21b6064820152608401610541565b6000612d947f0000000000000000000000000000000000000000000000000000000000000000613031565b600a546040516370a0823160e01b8152600091612dcb916001600160a01b03909116906370a08231906118aa903090600401613916565b905082811115612de457612de2612c898483613dcd565b505b6040516370a0823160e01b81526001600160a01b037f000000000000000000000000000000000000000000000000000000000000000016906370a0823190612e30903090600401613916565b60206040518083038186803b158015612e4857600080fd5b505afa158015612e5c573d6000803e3d6000fd5b505050506040513d601f19601f82011682018060405250810190611da79190613add565b600a546040516370a0823160e01b81526000918291612eb7916001600160a01b0316906370a08231906118aa903090600401613916565b905082811015612ecb57611da78184613dcd565b50919050565b60008115612ee25761075782612ba1565b919050565b606081600001805480602002602001604051908101604052809291908181526020018280548015612f3757602002820191906000526020600020905b815481526020019060010190808311612f23575b50505050509050919050565b6000811561301657600a5460405163852a12e360e01b8152600481018490526001600160a01b039091169063852a12e390602401602060405180830381600087803b158015612f9157600080fd5b505af1158015612fa5573d6000803e3d6000fd5b505050506040513d601f19601f82011682018060405250810190612fc99190613add565b156130165760405162461bcd60e51b815260206004820152601d60248201527f77697468647261772d66726f6d2d636f6d706f756e642d6661696c65640000006044820152606401610541565b5090565b6060613029848460008561312f565b949350505050565b600b546001600160a01b0316156105985761304a611f74565b600b546040516370a0823160e01b81526000916001600160a01b0316906370a082319061307b903090600401613916565b60206040518083038186803b15801561309357600080fd5b505afa1580156130a7573d6000803e3d6000fd5b505050506040513d601f19601f820116820180604052508101906130cb9190613add565b90508015611b1a57600060065461271014156130e8576001613114565b600b546131149061310c90613106906001600160a01b031686613257565b846133d5565b6006546134e4565b600b54909150611078906001600160a01b0316848484613507565b6060824710156131905760405162461bcd60e51b815260206004820152602660248201527f416464726573733a20696e73756666696369656e742062616c616e636520666f6044820152651c8818d85b1b60d21b6064820152608401610541565b843b6131de5760405162461bcd60e51b815260206004820152601d60248201527f416464726573733a2063616c6c20746f206e6f6e2d636f6e74726163740000006044820152606401610541565b600080866001600160a01b031685876040516131fa9190613e3b565b60006040518083038185875af1925050503d8060008114613237576040519150601f19603f3d011682016040523d82523d6000602084013e61323c565b606091505b509150915061324c8282866136c8565b979650505050505050565b6000546060906001600160a01b038481169116148061328357506000546001600160a01b038381169116145b1561331557604080516002808252606082018352909160208301908036833701905050905082816000815181106132bc576132bc613de4565b60200260200101906001600160a01b031690816001600160a01b03168152505081816001815181106132f0576132f0613de4565b60200260200101906001600160a01b031690816001600160a01b031681525050610757565b604080516003808252608082019092529060208201606080368337019050509050828160008151811061334a5761334a613de4565b6001600160a01b03928316602091820292909201015260005482519116908290600190811061337b5761337b613de4565b60200260200101906001600160a01b031690816001600160a01b03168152505081816002815181106133af576133af613de4565b60200260200101906001600160a01b031690816001600160a01b03168152505092915050565b6000600183511161341e5760405162461bcd60e51b81526020600482015260136024820152720d2dcecc2d8d2c85adee4c2c6d8ca5ae0c2e8d606b1b6044820152606401610541565b50806000805b600185516134329190613dcd565b8110156134dc5761348285828151811061344e5761344e613de4565b6020026020010151868360016134649190613db5565b8151811061347457613474613de4565b602002602001015185613701565b9093509150816134ca5760405162461bcd60e51b8152602060048201526013602482015272696e76616c69642d6f7261636c652d7261746560681b6044820152606401610541565b806134d481613c51565b915050613424565b505092915050565b60006127106134f38382613dcd565b6134fd9085613c95565b611da79190613cb4565b600354604051631d1f307960e31b81526001600160a01b038681166004830152858116602483015260448201859052600092839283929091169063e8f983c89060640160006040518083038186803b15801561356257600080fd5b505afa158015613576573d6000803e3d6000fd5b505050506040513d6000823e601f3d908101601f1916820160405261359e9190810190613e57565b92509250925083600014156135b257600193505b81156136bf57600354604051636e74a6f760e01b8152600481018390526001600160a01b0390911690636e74a6f79060240160206040518083038186803b1580156135fc57600080fd5b505afa158015613610573d6000803e3d6000fd5b505050506040513d601f19601f820116820180604052508101906136349190613a26565b6001600160a01b03166338ed173986868630426040518663ffffffff1660e01b8152600401613667959493929190613ea7565b600060405180830381600087803b15801561368157600080fd5b505af1158015613695573d6000803e3d6000fd5b505050506040513d6000823e601f3d908101601f191682016040526136bd9190810190613ee3565b505b50505050505050565b606083156136d7575081611da7565b8251156136e75782518084602001fd5b8160405162461bcd60e51b815260040161054191906139c6565b60008060005b600360009054906101000a90046001600160a01b03166001600160a01b031663c2fba6676040518163ffffffff1660e01b815260040160206040518083038186803b15801561375557600080fd5b505afa158015613769573d6000803e3d6000fd5b505050506040513d601f19601f8201168201806040525081019061378d9190613add565b8110156138d357600354600454604080516001600160a01b038a811660208301528981168284015260608201899052608082019390935260a08082018690528251808303909101815260c08201909252600093849316916137fa9163b67bb24d60e01b919060e001613f69565b60408051601f198184030181529082905261381491613e3b565b6000604051808303816000865af19150503d8060008114613851576040519150601f19603f3d011682016040523d82523d6000602084013e613856565b606091505b509150915081156138be57600080828060200190518101906138789190613f9a565b50915091506004544261388b9190613dcd565b8111801561389857508115155b156138ad57509450600193506138dc92505050565b6000809650965050505050506138dc565b505080806138cb90613c51565b915050613707565b50600080915091505b935093915050565b6001600160a01b038116811461059857600080fd5b60006020828403121561390b57600080fd5b8135611da7816138e4565b6001600160a01b0391909116815260200190565b60006020828403121561393c57600080fd5b5035919050565b600081518084526020808501945080840160005b8381101561397c5781516001600160a01b031687529582019590820190600101613957565b509495945050505050565b602081526000611da76020830184613943565b60005b838110156139b557818101518382015260200161399d565b83811115611fd25750506000910152565b60208152600082518060208401526139e581604085016020870161399a565b601f01601f19169190910160400192915050565b60008060408385031215613a0c57600080fd5b50508035926020909101359150565b8051612ee2816138e4565b600060208284031215613a3857600080fd5b8151611da7816138e4565b6020808252601a908201527f63616c6c65722d69732d6e6f742d7468652d676f7665726e6f72000000000000604082015260600190565b60208082526019908201527818d85b1b195c8b5a5ccb5b9bdd0b5d995cdc195c8b5c1bdbdb603a1b604082015260600190565b60208082526016908201527531b0b63632b916b4b996b737ba16b096b5b2b2b832b960511b604082015260600190565b600060208284031215613aef57600080fd5b5051919050565b600181811c90821680613b0a57607f821691505b60208210811415612ecb57634e487b7160e01b600052602260045260246000fd5b634e487b7160e01b600052604160045260246000fd5b604051601f8201601f1916810167ffffffffffffffff81118282101715613b6a57613b6a613b2b565b604052919050565b600080600080600060a08688031215613b8a57600080fd5b855167ffffffffffffffff80821115613ba257600080fd5b818801915088601f830112613bb657600080fd5b815181811115613bc857613bc8613b2b565b613bdb601f8201601f1916602001613b41565b9150808252896020828501011115613bf257600080fd5b613c0381602084016020860161399a565b509550613c14905060208701613a1b565b9350613c2260408701613a1b565b6060870151608090970151959894975095949392505050565b634e487b7160e01b600052601160045260246000fd5b6000600019821415613c6557613c65613c3b565b5060010190565b6001600160a01b0394851681529290931660208301526040820152606081019190915260800190565b6000816000190483118215151615613caf57613caf613c3b565b500290565b600082613cd157634e487b7160e01b600052601260045260246000fd5b500490565b600067ffffffffffffffff821115613cf057613cf0613b2b565b5060051b60200190565b600082601f830112613d0b57600080fd5b81516020613d20613d1b83613cd6565b613b41565b82815260059290921b84018101918181019086841115613d3f57600080fd5b8286015b84811015613d63578051613d56816138e4565b8352918301918301613d43565b509695505050505050565b60008060408385031215613d8157600080fd5b825167ffffffffffffffff811115613d9857600080fd5b613da485828601613cfa565b925050602083015190509250929050565b60008219821115613dc857613dc8613c3b565b500190565b600082821015613ddf57613ddf613c3b565b500390565b634e487b7160e01b600052603260045260246000fd5b634e487b7160e01b600052603160045260246000fd5b80518015158114612ee257600080fd5b600060208284031215613e3257600080fd5b611da782613e10565b60008251613e4d81846020870161399a565b9190910192915050565b600080600060608486031215613e6c57600080fd5b835167ffffffffffffffff811115613e8357600080fd5b613e8f86828701613cfa565b93505060208401519150604084015190509250925092565b85815284602082015260a060408201526000613ec660a0830186613943565b6001600160a01b0394909416606083015250608001529392505050565b60006020808385031215613ef657600080fd5b825167ffffffffffffffff811115613f0d57600080fd5b8301601f81018513613f1e57600080fd5b8051613f2c613d1b82613cd6565b81815260059190911b82018301908381019087831115613f4b57600080fd5b928401925b8284101561324c57835182529284019290840190613f50565b6001600160e01b0319831681528151600090613f8c81600485016020870161399a565b919091016004019392505050565b600080600060608486031215613faf57600080fd5b8351925060208401519150613fc660408501613e10565b9050925092509256fea2646970667358221220b756d6cc5e7f6a659563f908895a7fd98d13a09c632440989c782b5294eae8da64736f6c63430008090033",
  "devdoc": {
    "kind": "dev",
    "methods": {
      "addKeeper(address)": {
        "params": {
          "_keeperAddress": "keeper address to add."
        }
      },
      "approveToken()": {
        "details": "Approve all required tokens"
      },
      "claimRewards()": {
        "details": "Manually claim rewards from rewardDistributor by keeper"
      },
      "migrate(address)": {
        "details": "_beforeMigration hook can be implemented in child strategy to do extra steps.",
        "params": {
          "_newStrategy": "Address of new strategy"
        }
      },
      "migrateFusePool(uint256)": {
        "details": "Redeems cTokens from current fuse pool and mints cTokens of new Fuse Pool",
        "params": {
          "_newPoolId": "Fuse Pool ID"
        }
      },
      "rebalance()": {
        "details": "Rebalance profit, loss and investment of this strategy"
      },
      "removeKeeper(address)": {
        "params": {
          "_keeperAddress": "keeper address to remove."
        }
      },
      "sweepERC20(address)": {
        "details": "sweep given token to feeCollector of strategy",
        "params": {
          "_fromToken": "token address to sweep"
        }
      },
      "totalValue()": {
        "details": "Report total value in collateral token"
      },
      "totalValueCurrent()": {
        "details": "Report total value in collateral token"
      },
      "updateFeeCollector(address)": {
        "params": {
          "_feeCollector": "fee collector address"
        }
      },
      "updateSwapManager(address)": {
        "params": {
          "_swapManager": "swap manager address"
        }
      },
      "withdraw(uint256)": {
        "details": "Withdraw collateral token from lending pool.",
        "params": {
          "_amount": "Amount of collateral token"
        }
      }
    },
    "title": "This strategy will deposit collateral token in a Rari Fuse Pool and earn interest.",
    "version": 1
  },
  "userdoc": {
    "kind": "user",
    "methods": {
      "addKeeper(address)": {
        "notice": "Add given address in keepers list."
      },
      "claimRewards()": {
        "notice": "Properly tests if reward claim works"
      },
      "isReservedToken(address)": {
        "notice": "Check whether given token is reserved or not. Reserved tokens are not allowed to sweep."
      },
      "keepers()": {
        "notice": "Return list of keepers"
      },
      "migrate(address)": {
        "notice": "Migrate all asset and vault ownership,if any, to new strategy"
      },
      "migrateFusePool(uint256)": {
        "notice": "Changes the underlying Fuse Pool to a new one"
      },
      "removeKeeper(address)": {
        "notice": "Remove given address from keepers list."
      },
      "token()": {
        "notice": "Returns address of token correspond to collateral token"
      },
      "totalValue()": {
        "notice": "Calculate total value using underlying token"
      },
      "totalValueCurrent()": {
        "notice": "Calculate total value of asset under management (in real-time)"
      },
      "updateFeeCollector(address)": {
        "notice": "Update fee collector"
      },
      "updateSwapManager(address)": {
        "notice": "Update swap manager address"
      }
    },
    "version": 1
  },
  "storageLayout": {
    "storage": [
      {
        "astId": 13804,
        "contract": "contracts/strategies/rari-fuse/RariFuseStrategyAPE.sol:RariFuseStrategyAPE",
        "label": "WETH",
        "offset": 0,
        "slot": "0",
        "type": "t_address"
      },
      {
        "astId": 13809,
        "contract": "contracts/strategies/rari-fuse/RariFuseStrategyAPE.sol:RariFuseStrategyAPE",
        "label": "receiptToken",
        "offset": 0,
        "slot": "1",
        "type": "t_address"
      },
      {
        "astId": 13815,
        "contract": "contracts/strategies/rari-fuse/RariFuseStrategyAPE.sol:RariFuseStrategyAPE",
        "label": "feeCollector",
        "offset": 0,
        "slot": "2",
        "type": "t_address"
      },
      {
        "astId": 13818,
        "contract": "contracts/strategies/rari-fuse/RariFuseStrategyAPE.sol:RariFuseStrategyAPE",
        "label": "swapManager",
        "offset": 0,
        "slot": "3",
        "type": "t_contract(ISwapManager)5430"
      },
      {
        "astId": 13821,
        "contract": "contracts/strategies/rari-fuse/RariFuseStrategyAPE.sol:RariFuseStrategyAPE",
        "label": "oraclePeriod",
        "offset": 0,
        "slot": "4",
        "type": "t_uint256"
      },
      {
        "astId": 13824,
        "contract": "contracts/strategies/rari-fuse/RariFuseStrategyAPE.sol:RariFuseStrategyAPE",
        "label": "oracleRouterIdx",
        "offset": 0,
        "slot": "5",
        "type": "t_uint256"
      },
      {
        "astId": 13827,
        "contract": "contracts/strategies/rari-fuse/RariFuseStrategyAPE.sol:RariFuseStrategyAPE",
        "label": "swapSlippage",
        "offset": 0,
        "slot": "6",
        "type": "t_uint256"
      },
      {
        "astId": 13830,
        "contract": "contracts/strategies/rari-fuse/RariFuseStrategyAPE.sol:RariFuseStrategyAPE",
        "label": "_keepers",
        "offset": 0,
        "slot": "7",
        "type": "t_struct(AddressSet)4399_storage"
      },
      {
        "astId": 22986,
        "contract": "contracts/strategies/rari-fuse/RariFuseStrategyAPE.sol:RariFuseStrategyAPE",
        "label": "NAME",
        "offset": 0,
        "slot": "9",
        "type": "t_string_storage"
      },
      {
        "astId": 22992,
        "contract": "contracts/strategies/rari-fuse/RariFuseStrategyAPE.sol:RariFuseStrategyAPE",
        "label": "cToken",
        "offset": 0,
        "slot": "10",
        "type": "t_contract(CToken)5560"
      },
      {
        "astId": 22997,
        "contract": "contracts/strategies/rari-fuse/RariFuseStrategyAPE.sol:RariFuseStrategyAPE",
        "label": "rewardToken",
        "offset": 0,
        "slot": "11",
        "type": "t_address"
      },
      {
        "astId": 36789,
        "contract": "contracts/strategies/rari-fuse/RariFuseStrategyAPE.sol:RariFuseStrategyAPE",
        "label": "fusePoolId",
        "offset": 0,
        "slot": "12",
        "type": "t_uint256"
      },
      {
        "astId": 36794,
        "contract": "contracts/strategies/rari-fuse/RariFuseStrategyAPE.sol:RariFuseStrategyAPE",
        "label": "rewardDistributor",
        "offset": 0,
        "slot": "13",
        "type": "t_address"
      }
    ],
    "types": {
      "t_address": {
        "encoding": "inplace",
        "label": "address",
        "numberOfBytes": "20"
      },
      "t_array(t_bytes32)dyn_storage": {
        "base": "t_bytes32",
        "encoding": "dynamic_array",
        "label": "bytes32[]",
        "numberOfBytes": "32"
      },
      "t_bytes32": {
        "encoding": "inplace",
        "label": "bytes32",
        "numberOfBytes": "32"
      },
      "t_contract(CToken)5560": {
        "encoding": "inplace",
        "label": "contract CToken",
        "numberOfBytes": "20"
      },
      "t_contract(ISwapManager)5430": {
        "encoding": "inplace",
        "label": "contract ISwapManager",
        "numberOfBytes": "20"
      },
      "t_mapping(t_bytes32,t_uint256)": {
        "encoding": "mapping",
        "key": "t_bytes32",
        "label": "mapping(bytes32 => uint256)",
        "numberOfBytes": "32",
        "value": "t_uint256"
      },
      "t_string_storage": {
        "encoding": "bytes",
        "label": "string",
        "numberOfBytes": "32"
      },
      "t_struct(AddressSet)4399_storage": {
        "encoding": "inplace",
        "label": "struct EnumerableSet.AddressSet",
        "members": [
          {
            "astId": 4398,
            "contract": "contracts/strategies/rari-fuse/RariFuseStrategyAPE.sol:RariFuseStrategyAPE",
            "label": "_inner",
            "offset": 0,
            "slot": "0",
            "type": "t_struct(Set)4098_storage"
          }
        ],
        "numberOfBytes": "64"
      },
      "t_struct(Set)4098_storage": {
        "encoding": "inplace",
        "label": "struct EnumerableSet.Set",
        "members": [
          {
            "astId": 4093,
            "contract": "contracts/strategies/rari-fuse/RariFuseStrategyAPE.sol:RariFuseStrategyAPE",
            "label": "_values",
            "offset": 0,
            "slot": "0",
            "type": "t_array(t_bytes32)dyn_storage"
          },
          {
            "astId": 4097,
            "contract": "contracts/strategies/rari-fuse/RariFuseStrategyAPE.sol:RariFuseStrategyAPE",
            "label": "_indexes",
            "offset": 0,
            "slot": "1",
            "type": "t_mapping(t_bytes32,t_uint256)"
          }
        ],
        "numberOfBytes": "64"
      },
      "t_uint256": {
        "encoding": "inplace",
        "label": "uint256",
        "numberOfBytes": "32"
      }
    }
  }
}