{
  "address": "0x2B63A64693fb0ade57ac5C364861c14a56f427bB",
  "abi": [
    {
      "inputs": [
        {
          "internalType": "address",
          "name": "_pool",
          "type": "address"
        },
        {
          "internalType": "address",
          "name": "_swapManager",
          "type": "address"
        }
      ],
      "stateMutability": "nonpayable",
      "type": "constructor"
    },
    {
      "anonymous": false,
      "inputs": [
        {
          "indexed": false,
          "internalType": "address",
          "name": "_previousProvider",
          "type": "address"
        },
        {
          "indexed": false,
          "internalType": "address",
          "name": "_newProvider",
          "type": "address"
        }
      ],
      "name": "UpdatedAddressesProvider",
      "type": "event"
    },
    {
      "anonymous": false,
      "inputs": [
        {
          "indexed": true,
          "internalType": "address",
          "name": "previousFeeCollector",
          "type": "address"
        },
        {
          "indexed": true,
          "internalType": "address",
          "name": "newFeeCollector",
          "type": "address"
        }
      ],
      "name": "UpdatedFeeCollector",
      "type": "event"
    },
    {
      "anonymous": false,
      "inputs": [
        {
          "indexed": false,
          "internalType": "uint256",
          "name": "oldPeriod",
          "type": "uint256"
        },
        {
          "indexed": false,
          "internalType": "uint256",
          "name": "newPeriod",
          "type": "uint256"
        },
        {
          "indexed": false,
          "internalType": "uint256",
          "name": "oldRouterIdx",
          "type": "uint256"
        },
        {
          "indexed": false,
          "internalType": "uint256",
          "name": "newRouterIdx",
          "type": "uint256"
        }
      ],
      "name": "UpdatedOracleConfig",
      "type": "event"
    },
    {
      "anonymous": false,
      "inputs": [
        {
          "indexed": true,
          "internalType": "address",
          "name": "previousSwapManager",
          "type": "address"
        },
        {
          "indexed": true,
          "internalType": "address",
          "name": "newSwapManager",
          "type": "address"
        }
      ],
      "name": "UpdatedSwapManager",
      "type": "event"
    },
    {
      "anonymous": false,
      "inputs": [
        {
          "indexed": false,
          "internalType": "uint256",
          "name": "oldSwapSlippage",
          "type": "uint256"
        },
        {
          "indexed": false,
          "internalType": "uint256",
          "name": "newSwapSlippage",
          "type": "uint256"
        }
      ],
      "name": "UpdatedSwapSlippage",
      "type": "event"
    },
    {
      "inputs": [],
      "name": "NAME",
      "outputs": [
        {
          "internalType": "string",
          "name": "",
          "type": "string"
        }
      ],
      "stateMutability": "view",
      "type": "function"
    },
    {
      "inputs": [],
      "name": "VERSION",
      "outputs": [
        {
          "internalType": "string",
          "name": "",
          "type": "string"
        }
      ],
      "stateMutability": "view",
      "type": "function"
    },
    {
      "inputs": [],
      "name": "aaveAddressesProvider",
      "outputs": [
        {
          "internalType": "contract AaveLendingPoolAddressesProvider",
          "name": "",
          "type": "address"
        }
      ],
      "stateMutability": "view",
      "type": "function"
    },
    {
      "inputs": [],
      "name": "aaveIncentivesController",
      "outputs": [
        {
          "internalType": "contract AaveIncentivesController",
          "name": "",
          "type": "address"
        }
      ],
      "stateMutability": "view",
      "type": "function"
    },
    {
      "inputs": [],
      "name": "aaveLendingPool",
      "outputs": [
        {
          "internalType": "contract AaveLendingPool",
          "name": "",
          "type": "address"
        }
      ],
      "stateMutability": "view",
      "type": "function"
    },
    {
      "inputs": [],
      "name": "aaveProtocolDataProvider",
      "outputs": [
        {
          "internalType": "contract AaveProtocolDataProvider",
          "name": "",
          "type": "address"
        }
      ],
      "stateMutability": "view",
      "type": "function"
    },
    {
      "inputs": [
        {
          "internalType": "address",
          "name": "_keeperAddress",
          "type": "address"
        }
      ],
      "name": "addKeeper",
      "outputs": [],
      "stateMutability": "nonpayable",
      "type": "function"
    },
    {
      "inputs": [],
      "name": "approveToken",
      "outputs": [],
      "stateMutability": "nonpayable",
      "type": "function"
    },
    {
      "inputs": [],
      "name": "collateralToken",
      "outputs": [
        {
          "internalType": "contract IERC20",
          "name": "",
          "type": "address"
        }
      ],
      "stateMutability": "view",
      "type": "function"
    },
    {
      "inputs": [],
      "name": "feeCollector",
      "outputs": [
        {
          "internalType": "address",
          "name": "",
          "type": "address"
        }
      ],
      "stateMutability": "view",
      "type": "function"
    },
    {
      "inputs": [
        {
          "internalType": "address",
          "name": "_addressListFactory",
          "type": "address"
        }
      ],
      "name": "init",
      "outputs": [],
      "stateMutability": "nonpayable",
      "type": "function"
    },
    {
      "inputs": [
        {
          "internalType": "address",
          "name": "_token",
          "type": "address"
        }
      ],
      "name": "isReservedToken",
      "outputs": [
        {
          "internalType": "bool",
          "name": "",
          "type": "bool"
        }
      ],
      "stateMutability": "view",
      "type": "function"
    },
    {
      "inputs": [],
      "name": "keepers",
      "outputs": [
        {
          "internalType": "contract IAddressList",
          "name": "",
          "type": "address"
        }
      ],
      "stateMutability": "view",
      "type": "function"
    },
    {
      "inputs": [
        {
          "internalType": "address",
          "name": "_newStrategy",
          "type": "address"
        }
      ],
      "name": "migrate",
      "outputs": [],
      "stateMutability": "nonpayable",
      "type": "function"
    },
    {
      "inputs": [],
      "name": "oraclePeriod",
      "outputs": [
        {
          "internalType": "uint256",
          "name": "",
          "type": "uint256"
        }
      ],
      "stateMutability": "view",
      "type": "function"
    },
    {
      "inputs": [],
      "name": "oracleRouterIdx",
      "outputs": [
        {
          "internalType": "uint256",
          "name": "",
          "type": "uint256"
        }
      ],
      "stateMutability": "view",
      "type": "function"
    },
    {
      "inputs": [],
      "name": "pool",
      "outputs": [
        {
          "internalType": "address",
          "name": "",
          "type": "address"
        }
      ],
      "stateMutability": "view",
      "type": "function"
    },
    {
      "inputs": [],
      "name": "rebalance",
      "outputs": [],
      "stateMutability": "nonpayable",
      "type": "function"
    },
    {
      "inputs": [],
      "name": "receiptToken",
      "outputs": [
        {
          "internalType": "address",
          "name": "",
          "type": "address"
        }
      ],
      "stateMutability": "view",
      "type": "function"
    },
    {
      "inputs": [
        {
          "internalType": "address",
          "name": "_keeperAddress",
          "type": "address"
        }
      ],
      "name": "removeKeeper",
      "outputs": [],
      "stateMutability": "nonpayable",
      "type": "function"
    },
    {
      "inputs": [],
      "name": "rewardToken",
      "outputs": [
        {
          "internalType": "address",
          "name": "",
          "type": "address"
        }
      ],
      "stateMutability": "view",
      "type": "function"
    },
    {
      "inputs": [],
      "name": "setupOracles",
      "outputs": [],
      "stateMutability": "nonpayable",
      "type": "function"
    },
    {
      "inputs": [],
      "name": "swapManager",
      "outputs": [
        {
          "internalType": "contract ISwapManager",
          "name": "",
          "type": "address"
        }
      ],
      "stateMutability": "view",
      "type": "function"
    },
    {
      "inputs": [],
      "name": "swapSlippage",
      "outputs": [
        {
          "internalType": "uint256",
          "name": "",
          "type": "uint256"
        }
      ],
      "stateMutability": "view",
      "type": "function"
    },
    {
      "inputs": [
        {
          "internalType": "address",
          "name": "_fromToken",
          "type": "address"
        }
      ],
      "name": "sweepERC20",
      "outputs": [],
      "stateMutability": "nonpayable",
      "type": "function"
    },
    {
      "inputs": [],
      "name": "token",
      "outputs": [
        {
          "internalType": "address",
          "name": "",
          "type": "address"
        }
      ],
      "stateMutability": "view",
      "type": "function"
    },
    {
      "inputs": [],
      "name": "totalValue",
      "outputs": [
        {
          "internalType": "uint256",
          "name": "",
          "type": "uint256"
        }
      ],
      "stateMutability": "view",
      "type": "function"
    },
    {
      "inputs": [],
      "name": "totalValueCurrent",
      "outputs": [
        {
          "internalType": "uint256",
          "name": "",
          "type": "uint256"
        }
      ],
      "stateMutability": "nonpayable",
      "type": "function"
    },
    {
      "inputs": [
        {
          "internalType": "address",
          "name": "_newAddressesProvider",
          "type": "address"
        }
      ],
      "name": "updateAddressesProvider",
      "outputs": [],
      "stateMutability": "nonpayable",
      "type": "function"
    },
    {
      "inputs": [
        {
          "internalType": "address",
          "name": "_feeCollector",
          "type": "address"
        }
      ],
      "name": "updateFeeCollector",
      "outputs": [],
      "stateMutability": "nonpayable",
      "type": "function"
    },
    {
      "inputs": [
        {
          "internalType": "uint256",
          "name": "_newPeriod",
          "type": "uint256"
        },
        {
          "internalType": "uint256",
          "name": "_newRouterIdx",
          "type": "uint256"
        }
      ],
      "name": "updateOracleConfig",
      "outputs": [],
      "stateMutability": "nonpayable",
      "type": "function"
    },
    {
      "inputs": [
        {
          "internalType": "address",
          "name": "_swapManager",
          "type": "address"
        }
      ],
      "name": "updateSwapManager",
      "outputs": [],
      "stateMutability": "nonpayable",
      "type": "function"
    },
    {
      "inputs": [
        {
          "internalType": "uint256",
          "name": "_newSwapSlippage",
          "type": "uint256"
        }
      ],
      "name": "updateSwapSlippage",
      "outputs": [],
      "stateMutability": "nonpayable",
      "type": "function"
    },
    {
      "inputs": [
        {
          "internalType": "uint256",
          "name": "_amount",
          "type": "uint256"
        }
      ],
      "name": "withdraw",
      "outputs": [],
      "stateMutability": "nonpayable",
      "type": "function"
    }
  ],
  "transactionHash": "0xbc054747f154e99ada0e440d310f9e7f82feeb86cab83ae6f0dd6d10af38c6cd",
  "args": [
    "0x329846f9e19dAa7fD9844065a62eD01BCf63Cf69",
    "0xefe48370DB8f8Ee343f4f24Ee0B09cC4A8FC3D76"
  ],
  "solcInputHash": "f9d9c8d41405aa17a0f0e534dcf35fdb",
  "bytecode": "0x60e0604052610e106004556000600555612710600655600a80546001600160a01b031990811673d05e3e715d945b59290df0ae8ef85c1bdb68474417909155600b8054909116730d500b1d8e8ef31e21c99d1db9a6444d3adf12701790553480156200006a57600080fd5b5060405162003e8a38038062003e8a8339810160408190526200008d9162000518565b8181738df3aad3a84da6b69a4da8aec3ea40d9091b2ac48282826001600160a01b038316620001035760405162461bcd60e51b815260206004820152601460248201527f706f6f6c2d616464726573732d69732d7a65726f00000000000000000000000060448201526064015b60405180910390fd5b6001600160a01b038216620001505760405162461bcd60e51b8152602060048201526012602482015271736d2d616464726573732d69732d7a65726f60701b6044820152606401620000fa565b600380546001600160a01b0319166001600160a01b0384811691909117909155606084901b6001600160601b03191660a05260408051637e062a3560e11b815290519185169163fc0c546a91600480820192602092909190829003018186803b158015620001bd57600080fd5b505afa158015620001d2573d6000803e3d6000fd5b505050506040513d601f19601f82011682018060405250810190620001f89190620004f2565b60601b6001600160601b031916608052600080546001600160a01b0319166001600160a01b039283161790558316151591506200027a90505760405162461bcd60e51b815260206004820152601660248201527f61546f6b656e2d616464726573732d69732d7a65726f000000000000000000006044820152606401620000fa565b806001600160a01b031660c0816001600160a01b031660601b81525050806001600160a01b03166375d264136040518163ffffffff1660e01b815260040160206040518083038186803b158015620002d157600080fd5b505afa92505050801562000304575060408051601f3d908101601f191682019092526200030191810190620004f2565b60015b6200030f57620003a6565b50806001600160a01b03166375d264136040518163ffffffff1660e01b815260040160206040518083038186803b1580156200034a57600080fd5b505afa1580156200035f573d6000803e3d6000fd5b505050506040513d601f19601f82011682018060405250810190620003859190620004f2565b600980546001600160a01b0319166001600160a01b03929092169190911790555b600a60009054906101000a90046001600160a01b03166001600160a01b0316630261bf8b6040518163ffffffff1660e01b815260040160206040518083038186803b158015620003f557600080fd5b505afa1580156200040a573d6000803e3d6000fd5b505050506040513d601f19601f82011682018060405250810190620004309190620004f2565b600780546001600160a01b0319166001600160a01b03928316179055600a546040516321f8a72160e01b8152600160f81b60048201529116906321f8a7219060240160206040518083038186803b1580156200048b57600080fd5b505afa158015620004a0573d6000803e3d6000fd5b505050506040513d601f19601f82011682018060405250810190620004c69190620004f2565b600880546001600160a01b0319166001600160a01b0392909216919091179055506200056f9350505050565b60006020828403121562000504578081fd5b8151620005118162000556565b9392505050565b600080604083850312156200052b578081fd5b8251620005388162000556565b60208401519092506200054b8162000556565b809150509250929050565b6001600160a01b03811681146200056c57600080fd5b50565b60805160601c60a05160601c60c05160601c6137ed6200069d60003960008181610de501528181611b2801528181611bd501528181611d7a0152818161264a015281816127db015281816129370152612e25015260008181610255015281816104e00152818161066f015281816108e901528181610be701528181610c6301528181610e3a01528181610fed0152818161121d0152818161134401528181611624015281816116ed01528181611939015281816120bf0152818161210a015281816121a7015261231a0152600081816103e80152818161188c0152818161191001528181611cce01528181611f0701528181612264015281816122f801528181612350015281816126de0152818161279f0152818161288c015281816129fd0152612ca701526137ed6000f3fe608060405234801561001057600080fd5b50600436106102065760003560e01c806399b71d5c1161011a578063d2c35ce8116100ad578063e9d337b81161007c578063e9d337b81461046f578063ec78e83214610482578063f7c618c114610495578063fc0c546a146104a8578063ffa1ad74146104b957610206565b8063d2c35ce814610439578063d4c3eea01461044c578063e00af4a714610454578063e645c2021461046757610206565b8063b2016bd4116100e9578063b2016bd4146103e3578063c415b95c1461040a578063cd2d7ebe1461041d578063ce5494bb1461042657610206565b806399b71d5c14610380578063a3f4df7e14610388578063a923b2a6146103c8578063aa101886146103db57610206565b806342189c8f1161019d5780635f9d4d2e1161016c5780635f9d4d2e1461032c57806367f5e4b81461033f578063709d039d146103525780637d7c2a1c14610365578063951dc22c1461036d57610206565b806342189c8f146102da578063440d7248146102e35780634c36fad7146103065780635f2475ca1461031957610206565b80631aedeabe116101d95780631aedeabe1461028a578063219a9822146102a15780632e1a7d4d146102b45780634032b72b146102c757610206565b806308bfa40a1461020b57806314ae9f2e1461023b57806316f0115b1461025057806319ab453c14610277575b600080fd5b600a5461021e906001600160a01b031681565b6040516001600160a01b0390911681526020015b60405180910390f35b61024e61024936600461329e565b6104de565b005b61021e7f000000000000000000000000000000000000000000000000000000000000000081565b61024e61028536600461329e565b61066d565b61029360065481565b604051908152602001610232565b61024e6102af36600461329e565b6108e7565b61024e6102c236600461343d565b610be4565b61024e6102d536600461329e565b610c61565b61029360045481565b6102f66102f136600461329e565b610de1565b6040519015158152602001610232565b61024e61031436600461329e565b610e38565b60095461021e906001600160a01b031681565b60085461021e906001600160a01b031681565b61024e61034d36600461343d565b610feb565b60035461021e906001600160a01b031681565b61024e611137565b60015461021e906001600160a01b031681565b61024e611286565b6103bb60405180604001604052806014815260200173416176652d53747261746567792d574d4154494360601b81525081565b60405161023291906135d1565b61024e6103d636600461346d565b611342565b61024e611577565b61021e7f000000000000000000000000000000000000000000000000000000000000000081565b60025461021e906001600160a01b031681565b61029360055481565b61024e61043436600461329e565b611621565b61024e61044736600461329e565b611937565b610293611b00565b61024e61046236600461329e565b611e10565b6102936120ab565b60075461021e906001600160a01b031681565b60005461021e906001600160a01b031681565b600b5461021e906001600160a01b031681565b6000546001600160a01b031661021e565b6103bb60405180604001604052806006815260200165332e302e323160d01b81525081565b7f00000000000000000000000000000000000000000000000000000000000000006001600160a01b0316630c340a246040518163ffffffff1660e01b815260040160206040518083038186803b15801561053757600080fd5b505afa15801561054b573d6000803e3d6000fd5b505050506040513d601f19601f8201168201806040525081019061056f91906132ba565b6001600160a01b0316336001600160a01b0316146105a85760405162461bcd60e51b815260040161059f90613634565b60405180910390fd5b600154604051631484968760e11b81526001600160a01b038381166004830152909116906329092d0e90602401602060405180830381600087803b1580156105ef57600080fd5b505af1158015610603573d6000803e3d6000fd5b505050506040513d601f19601f82011682018060405250810190610627919061341d565b61066a5760405162461bcd60e51b81526020600482015260146024820152731c995b5bdd994b5ad9595c195c8b59985a5b195960621b604482015260640161059f565b50565b7f00000000000000000000000000000000000000000000000000000000000000006001600160a01b0316630c340a246040518163ffffffff1660e01b815260040160206040518083038186803b1580156106c657600080fd5b505afa1580156106da573d6000803e3d6000fd5b505050506040513d601f19601f820116820180604052508101906106fe91906132ba565b6001600160a01b0316336001600160a01b03161461072e5760405162461bcd60e51b815260040161059f90613634565b6001546001600160a01b0316156107875760405162461bcd60e51b815260206004820152601b60248201527f6b65657065722d6c6973742d616c72656164792d637265617465640000000000604482015260640161059f565b6000819050806001600160a01b0316630fab4d256040518163ffffffff1660e01b8152600401602060405180830381600087803b1580156107c757600080fd5b505af11580156107db573d6000803e3d6000fd5b505050506040513d601f19601f820116820180604052508101906107ff91906132ba565b600180546001600160a01b0319166001600160a01b03929092169182179055630a3b0a4f61082a3390565b6040516001600160e01b031960e084901b1681526001600160a01b039091166004820152602401602060405180830381600087803b15801561086b57600080fd5b505af115801561087f573d6000803e3d6000fd5b505050506040513d601f19601f820116820180604052508101906108a3919061341d565b6108e35760405162461bcd60e51b81526020600482015260116024820152701859190b5ad9595c195c8b59985a5b1959607a1b604482015260640161059f565b5050565b7f00000000000000000000000000000000000000000000000000000000000000006001600160a01b0316630c340a246040518163ffffffff1660e01b815260040160206040518083038186803b15801561094057600080fd5b505afa158015610954573d6000803e3d6000fd5b505050506040513d601f19601f8201168201806040525081019061097891906132ba565b6001600160a01b0316336001600160a01b0316146109a85760405162461bcd60e51b815260040161059f90613634565b6001600160a01b0381166109fe5760405162461bcd60e51b815260206004820152601860248201527f70726f76696465722d616464726573732d69732d7a65726f0000000000000000604482015260640161059f565b600a546001600160a01b0382811691161415610a5c5760405162461bcd60e51b815260206004820152601760248201527f73616d652d6164647265737365732d70726f7669646572000000000000000000604482015260640161059f565b600a54604080516001600160a01b03928316815291831660208301527fbea7427e7cdf11a91902e5dff8bf8ac6fe4861aa0940763e8fd78bb6f45798de910160405180910390a1600a80546001600160a01b0319166001600160a01b03831690811790915560408051630261bf8b60e01b81529051630261bf8b91600480820192602092909190829003018186803b158015610af757600080fd5b505afa158015610b0b573d6000803e3d6000fd5b505050506040513d601f19601f82011682018060405250810190610b2f91906132ba565b600780546001600160a01b0319166001600160a01b03928316179055600a546040516321f8a72160e01b8152600160f81b60048201529116906321f8a7219060240160206040518083038186803b158015610b8957600080fd5b505afa158015610b9d573d6000803e3d6000fd5b505050506040513d601f19601f82011682018060405250810190610bc191906132ba565b600880546001600160a01b0319166001600160a01b039290921691909117905550565b337f00000000000000000000000000000000000000000000000000000000000000006001600160a01b031614610c585760405162461bcd60e51b815260206004820152601960248201527818d85b1b195c8b5a5ccb5b9bdd0b5d995cdc195c8b5c1bdbdb603a1b604482015260640161059f565b61066a816120ba565b7f00000000000000000000000000000000000000000000000000000000000000006001600160a01b0316630c340a246040518163ffffffff1660e01b815260040160206040518083038186803b158015610cba57600080fd5b505afa158015610cce573d6000803e3d6000fd5b505050506040513d601f19601f82011682018060405250810190610cf291906132ba565b6001600160a01b0316336001600160a01b031614610d225760405162461bcd60e51b815260040161059f90613634565b600154604051630a3b0a4f60e01b81526001600160a01b03838116600483015290911690630a3b0a4f90602401602060405180830381600087803b158015610d6957600080fd5b505af1158015610d7d573d6000803e3d6000fd5b505050506040513d601f19601f82011682018060405250810190610da1919061341d565b61066a5760405162461bcd60e51b81526020600482015260116024820152701859190b5ad9595c195c8b59985a5b1959607a1b604482015260640161059f565b60007f00000000000000000000000000000000000000000000000000000000000000006001600160a01b0316826001600160a01b03161480610e305750600b546001600160a01b038381169116145b90505b919050565b7f00000000000000000000000000000000000000000000000000000000000000006001600160a01b0316630c340a246040518163ffffffff1660e01b815260040160206040518083038186803b158015610e9157600080fd5b505afa158015610ea5573d6000803e3d6000fd5b505050506040513d601f19601f82011682018060405250810190610ec991906132ba565b6001600160a01b0316336001600160a01b031614610ef95760405162461bcd60e51b815260040161059f90613634565b6001600160a01b038116610f445760405162461bcd60e51b8152602060048201526012602482015271736d2d616464726573732d69732d7a65726f60701b604482015260640161059f565b6003546001600160a01b0382811691161415610f8f5760405162461bcd60e51b815260206004820152600a602482015269736d2d69732d73616d6560b01b604482015260640161059f565b6003546040516001600160a01b038084169216907f2d19927e7cac08ceb98b38898a4fdff6da6a27295b9a2d62fe250408ebe044e190600090a3600380546001600160a01b0319166001600160a01b0392909216919091179055565b7f00000000000000000000000000000000000000000000000000000000000000006001600160a01b0316630c340a246040518163ffffffff1660e01b815260040160206040518083038186803b15801561104457600080fd5b505afa158015611058573d6000803e3d6000fd5b505050506040513d601f19601f8201168201806040525081019061107c91906132ba565b6001600160a01b0316336001600160a01b0316146110ac5760405162461bcd60e51b815260040161059f90613634565b6127108111156110f75760405162461bcd60e51b8152602060048201526016602482015275696e76616c69642d736c6970706167652d76616c756560501b604482015260640161059f565b60065460408051918252602082018390527ef1c5db862c7598b3b6765552ca951f498611e06412c2d57f8d0b58f82e7f82910160405180910390a1600655565b6001546001600160a01b0316635dbe47e8336040516001600160e01b031960e084901b1681526001600160a01b03909116600482015260240160206040518083038186803b15801561118857600080fd5b505afa15801561119c573d6000803e3d6000fd5b505050506040513d601f19601f820116820180604052508101906111c0919061341d565b6111dc5760405162461bcd60e51b815260040161059f90613604565b60008060006111e96120e4565b6040516302df682360e11b815260048101849052602481018390526044810182905292955090935091506001600160a01b037f000000000000000000000000000000000000000000000000000000000000000016906305bed04690606401600060405180830381600087803b15801561126157600080fd5b505af1158015611275573d6000803e3d6000fd5b5050505061128161224b565b505050565b6001546001600160a01b0316635dbe47e8336040516001600160e01b031960e084901b1681526001600160a01b03909116600482015260240160206040518083038186803b1580156112d757600080fd5b505afa1580156112eb573d6000803e3d6000fd5b505050506040513d601f19601f8201168201806040525081019061130f919061341d565b61132b5760405162461bcd60e51b815260040161059f90613604565b61133560006122eb565b6113406000196122eb565b565b7f00000000000000000000000000000000000000000000000000000000000000006001600160a01b0316630c340a246040518163ffffffff1660e01b815260040160206040518083038186803b15801561139b57600080fd5b505afa1580156113af573d6000803e3d6000fd5b505050506040513d601f19601f820116820180604052508101906113d391906132ba565b6001600160a01b0316336001600160a01b0316146114035760405162461bcd60e51b815260040161059f90613634565b600360009054906101000a90046001600160a01b03166001600160a01b031663c2fba6676040518163ffffffff1660e01b815260040160206040518083038186803b15801561145157600080fd5b505afa158015611465573d6000803e3d6000fd5b505050506040513d601f19601f820116820180604052508101906114899190613455565b81106114ce5760405162461bcd60e51b81526020600482015260146024820152730d2dcecc2d8d2c85ae4deeae8cae45ad2dcc8caf60631b604482015260640161059f565b816114d95760045491505b603b82116115215760405162461bcd60e51b81526020600482015260156024820152741a5b9d985b1a590b5bdc9858db194b5c195c9a5bd9605a1b604482015260640161059f565b6004546005546040805192835260208301859052820152606081018290527f83bc5ab8030537fcf1d29c2334f6d22c26c82dcbe5ff03923d2cff5c692c0a7f9060800160405180910390a1600491909155600555565b6001546001600160a01b0316635dbe47e8336040516001600160e01b031960e084901b1681526001600160a01b03909116600482015260240160206040518083038186803b1580156115c857600080fd5b505afa1580156115dc573d6000803e3d6000fd5b505050506040513d601f19601f82011682018060405250810190611600919061341d565b61161c5760405162461bcd60e51b815260040161059f90613604565b611340565b337f00000000000000000000000000000000000000000000000000000000000000006001600160a01b0316146116955760405162461bcd60e51b815260206004820152601960248201527818d85b1b195c8b5a5ccb5b9bdd0b5d995cdc195c8b5c1bdbdb603a1b604482015260640161059f565b6001600160a01b0381166116eb5760405162461bcd60e51b815260206004820152601c60248201527f6e65772d73747261746567792d616464726573732d69732d7a65726f00000000604482015260640161059f565b7f00000000000000000000000000000000000000000000000000000000000000006001600160a01b0316816001600160a01b03166316f0115b6040518163ffffffff1660e01b815260040160206040518083038186803b15801561174e57600080fd5b505afa158015611762573d6000803e3d6000fd5b505050506040513d601f19601f8201168201806040525081019061178691906132ba565b6001600160a01b0316146117d55760405162461bcd60e51b81526020600482015260166024820152756e6f742d76616c69642d6e65772d737472617465677960501b604482015260640161059f565b6000546040516370a0823160e01b81523060048201526118699183916001600160a01b03909116906370a082319060240160206040518083038186803b15801561181e57600080fd5b505afa158015611832573d6000803e3d6000fd5b505050506040513d601f19601f820116820180604052508101906118569190613455565b6000546001600160a01b031691906124ac565b6040516370a0823160e01b815230600482015261066a9082906001600160a01b037f000000000000000000000000000000000000000000000000000000000000000016906370a082319060240160206040518083038186803b1580156118ce57600080fd5b505afa1580156118e2573d6000803e3d6000fd5b505050506040513d601f19601f820116820180604052508101906119069190613455565b6001600160a01b037f00000000000000000000000000000000000000000000000000000000000000001691906124ac565b7f00000000000000000000000000000000000000000000000000000000000000006001600160a01b0316630c340a246040518163ffffffff1660e01b815260040160206040518083038186803b15801561199057600080fd5b505afa1580156119a4573d6000803e3d6000fd5b505050506040513d601f19601f820116820180604052508101906119c891906132ba565b6001600160a01b0316336001600160a01b0316146119f85760405162461bcd60e51b815260040161059f90613634565b6001600160a01b038116611a4e5760405162461bcd60e51b815260206004820152601d60248201527f6665652d636f6c6c6563746f722d616464726573732d69732d7a65726f000000604482015260640161059f565b6002546001600160a01b0382811691161415611aa45760405162461bcd60e51b81526020600482015260156024820152746665652d636f6c6c6563746f722d69732d73616d6560581b604482015260640161059f565b6002546040516001600160a01b038084169216907f0f06062680f9bd68e786e9980d9bb03d73d5620fc3b345e417b6eacb310b970690600090a3600280546001600160a01b0319166001600160a01b0392909216919091179055565b6009546000906001600160a01b0316611bb1576040516370a0823160e01b81523060048201527f00000000000000000000000000000000000000000000000000000000000000006001600160a01b0316906370a082319060240160206040518083038186803b158015611b7257600080fd5b505afa158015611b86573d6000803e3d6000fd5b505050506040513d601f19601f82011682018060405250810190611baa9190613455565b9050611e0d565b604080516001808252818301909252600091602080830190803683370190505090507f000000000000000000000000000000000000000000000000000000000000000081600081518110611c1557634e487b7160e01b600052603260045260246000fd5b6001600160a01b0392831660209182029290920101526009546040516345accf9360e11b81526000929190911690638b599f2690611c599085903090600401613574565b60206040518083038186803b158015611c7157600080fd5b505afa158015611c85573d6000803e3d6000fd5b505050506040513d601f19601f82011682018060405250810190611ca99190613455565b600354600b54604051631d1f307960e31b81526001600160a01b0391821660048201527f0000000000000000000000000000000000000000000000000000000000000000821660248201526044810184905292935060009291169063e8f983c89060640160006040518083038186803b158015611d2557600080fd5b505afa158015611d39573d6000803e3d6000fd5b505050506040513d6000823e601f3d908101601f19168201604052611d6191908101906132d6565b506040516370a0823160e01b81523060048201529092507f00000000000000000000000000000000000000000000000000000000000000006001600160a01b031691506370a082319060240160206040518083038186803b158015611dc557600080fd5b505afa158015611dd9573d6000803e3d6000fd5b505050506040513d601f19601f82011682018060405250810190611dfd9190613455565b611e0790826136fc565b93505050505b90565b6001546001600160a01b0316635dbe47e8336040516001600160e01b031960e084901b1681526001600160a01b03909116600482015260240160206040518083038186803b158015611e6157600080fd5b505afa158015611e75573d6000803e3d6000fd5b505050506040513d601f19601f82011682018060405250810190611e99919061341d565b611eb55760405162461bcd60e51b815260040161059f90613604565b6002546001600160a01b0316611f055760405162461bcd60e51b81526020600482015260156024820152741999594b58dbdb1b1958dd1bdc8b5b9bdd0b5cd95d605a1b604482015260640161059f565b7f00000000000000000000000000000000000000000000000000000000000000006001600160a01b0316816001600160a01b03161415611f875760405162461bcd60e51b815260206004820152601f60248201527f6e6f742d616c6c6f7765642d746f2d73776565702d636f6c6c61746572616c00604482015260640161059f565b611f9081610de1565b15611fd45760405162461bcd60e51b815260206004820152601460248201527306e6f742d616c6c6f7765642d746f2d73776565760641b604482015260640161059f565b6001600160a01b03811673eeeeeeeeeeeeeeeeeeeeeeeeeeeeeeeeeeeeeeee14156120145760025461200f906001600160a01b03164761250f565b61066a565b6040516370a0823160e01b81523060048201526000906001600160a01b038316906370a082319060240160206040518083038186803b15801561205657600080fd5b505afa15801561206a573d6000803e3d6000fd5b505050506040513d601f19601f8201168201806040525081019061208e9190613455565b6002549091506108e3906001600160a01b038481169116836124ac565b60006120b5611b00565b905090565b6108e37f000000000000000000000000000000000000000000000000000000000000000082612628565b604051636a9eee1360e11b81523060048201526000908190819081906001600160a01b037f0000000000000000000000000000000000000000000000000000000000000000169063d53ddc269060240160206040518083038186803b15801561214c57600080fd5b505afa158015612160573d6000803e3d6000fd5b505050506040513d601f19601f820116820180604052508101906121849190613455565b604051639f2b283360e01b81523060048201529091506000906001600160a01b037f00000000000000000000000000000000000000000000000000000000000000001690639f2b28339060240160206040518083038186803b1580156121e957600080fd5b505afa1580156121fd573d6000803e3d6000fd5b505050506040513d601f19601f820116820180604052508101906122219190613455565b905061222c81612798565b945061223781612915565b9350612242826129cb565b92505050909192565b6040516370a0823160e01b8152306004820152611340907f00000000000000000000000000000000000000000000000000000000000000006001600160a01b0316906370a082319060240160206040518083038186803b1580156122ae57600080fd5b505afa1580156122c2573d6000803e3d6000fd5b505050506040513d601f19601f820116820180604052508101906122e69190613455565b6129dd565b61233f6001600160a01b037f0000000000000000000000000000000000000000000000000000000000000000167f000000000000000000000000000000000000000000000000000000000000000083612a79565b600754612379906001600160a01b037f00000000000000000000000000000000000000000000000000000000000000008116911683612a79565b60005b600360009054906101000a90046001600160a01b03166001600160a01b031663c2fba6676040518163ffffffff1660e01b815260040160206040518083038186803b1580156123ca57600080fd5b505afa1580156123de573d6000803e3d6000fd5b505050506040513d601f19601f820116820180604052508101906124029190613455565b8110156108e357600354604051636e74a6f760e01b81526004810183905261249a916001600160a01b031690636e74a6f79060240160206040518083038186803b15801561244f57600080fd5b505afa158015612463573d6000803e3d6000fd5b505050506040513d601f19601f8201168201806040525081019061248791906132ba565b600b546001600160a01b03169084612a79565b806124a48161375b565b91505061237c565b6040516001600160a01b03831660248201526044810182905261128190849063a9059cbb60e01b906064015b60408051601f198184030181529190526020810180516001600160e01b03166001600160e01b031990931692909217909152612b9d565b8047101561255f5760405162461bcd60e51b815260206004820152601d60248201527f416464726573733a20696e73756666696369656e742062616c616e6365000000604482015260640161059f565b6000826001600160a01b03168260405160006040518083038185875af1925050503d80600081146125ac576040519150601f19603f3d011682016040523d82523d6000602084013e6125b1565b606091505b50509050806112815760405162461bcd60e51b815260206004820152603a60248201527f416464726573733a20756e61626c6520746f2073656e642076616c75652c207260448201527f6563697069656e74206d61792068617665207265766572746564000000000000606482015260840161059f565b6040516370a0823160e01b815230600482015260009081906001600160a01b037f000000000000000000000000000000000000000000000000000000000000000016906370a082319060240160206040518083038186803b15801561268c57600080fd5b505afa1580156126a0573d6000803e3d6000fd5b505050506040513d601f19601f820116820180604052508101906126c49190613455565b6008546040516335ea6a7560e01b81526001600160a01b037f000000000000000000000000000000000000000000000000000000000000000081166004830152929350600092909116906335ea6a75906024016101406040518083038186803b15801561273057600080fd5b505afa158015612744573d6000803e3d6000fd5b505050506040513d601f19601f82011682018060405250810190612768919061348e565b505050505050505050905061278f8561278a866127858686612c6f565b612c6f565b612c85565b95945050505050565b60006127c37f0000000000000000000000000000000000000000000000000000000000000000612d88565b6040516370a0823160e01b81523060048201526000907f00000000000000000000000000000000000000000000000000000000000000006001600160a01b0316906370a082319060240160206040518083038186803b15801561282557600080fd5b505afa158015612839573d6000803e3d6000fd5b505050506040513d601f19601f8201168201806040525081019061285d9190613455565b905082811115612877576128753061278a8584613714565b505b6040516370a0823160e01b81523060048201527f00000000000000000000000000000000000000000000000000000000000000006001600160a01b0316906370a082319060240160206040518083038186803b1580156128d657600080fd5b505afa1580156128ea573d6000803e3d6000fd5b505050506040513d601f19601f8201168201806040525081019061290e9190613455565b9392505050565b6040516370a0823160e01b815230600482015260009081906001600160a01b037f000000000000000000000000000000000000000000000000000000000000000016906370a082319060240160206040518083038186803b15801561297957600080fd5b505afa15801561298d573d6000803e3d6000fd5b505050506040513d601f19601f820116820180604052508101906129b19190613455565b9050828110156129c55761290e8184613714565b50919050565b60008115610e3357610e303083612628565b801561066a5760075460405163e8eda9df60e01b81526001600160a01b037f00000000000000000000000000000000000000000000000000000000000000008116600483015260248201849052306044830152600060648301529091169063e8eda9df90608401600060405180830381600087803b158015612a5e57600080fd5b505af1158015612a72573d6000803e3d6000fd5b5050505050565b801580612b025750604051636eb1769f60e11b81523060048201526001600160a01b03838116602483015284169063dd62ed3e9060440160206040518083038186803b158015612ac857600080fd5b505afa158015612adc573d6000803e3d6000fd5b505050506040513d601f19601f82011682018060405250810190612b009190613455565b155b612b6d5760405162461bcd60e51b815260206004820152603660248201527f5361666545524332303a20617070726f76652066726f6d206e6f6e2d7a65726f60448201527520746f206e6f6e2d7a65726f20616c6c6f77616e636560501b606482015260840161059f565b6040516001600160a01b03831660248201526044810182905261128190849063095ea7b360e01b906064016124d8565b6000612bf2826040518060400160405280602081526020017f5361666545524332303a206c6f772d6c6576656c2063616c6c206661696c6564815250856001600160a01b0316612dcf9092919063ffffffff16565b8051909150156112815780806020019051810190612c10919061341d565b6112815760405162461bcd60e51b815260206004820152602a60248201527f5361666545524332303a204552433230206f7065726174696f6e20646964206e6044820152691bdd081cdd58d8d9595960b21b606482015260840161059f565b6000818310612c7e578161290e565b5090919050565b600081156129c557600754604051631a4ca37b60e21b81526001600160a01b037f000000000000000000000000000000000000000000000000000000000000000081166004830152602482018590528581166044830152849216906369328dec90606401602060405180830381600087803b158015612d0357600080fd5b505af1158015612d17573d6000803e3d6000fd5b505050506040513d601f19601f82011682018060405250810190612d3b9190613455565b146129c55760405162461bcd60e51b815260206004820152601f60248201527f77697468647261776e2d616d6f756e742d69732d6e6f742d636f727265637400604482015260640161059f565b6000612d92612de6565b90508015801590612db15750600b546001600160a01b03838116911614155b156108e357600b546108e3906001600160a01b031683836001612f7c565b6060612dde848460008561313d565b949350505050565b6009546000906001600160a01b0316612e0157506000611e0d565b604080516001808252818301909252600091602080830190803683370190505090507f000000000000000000000000000000000000000000000000000000000000000081600081518110612e6557634e487b7160e01b600052603260045260246000fd5b6001600160a01b039283166020918202929092010152600954604051633111e7b360e01b8152911690633111e7b390612ea890849060001990309060040161359e565b602060405180830381600087803b158015612ec257600080fd5b505af1158015612ed6573d6000803e3d6000fd5b505050506040513d601f19601f82011682018060405250810190612efa9190613455565b50600b546040516370a0823160e01b81523060048201526001600160a01b03909116906370a082319060240160206040518083038186803b158015612f3e57600080fd5b505afa158015612f52573d6000803e3d6000fd5b505050506040513d601f19601f82011682018060405250810190612f769190613455565b91505090565b600354604051631d1f307960e31b81526001600160a01b038681166004830152858116602483015260448201859052600092839283929091169063e8f983c89060640160006040518083038186803b158015612fd757600080fd5b505afa158015612feb573d6000803e3d6000fd5b505050506040513d6000823e601f3d908101601f1916820160405261301391908101906132d6565b925092509250836000141561302757600193505b811561313457600354604051636e74a6f760e01b8152600481018390526001600160a01b0390911690636e74a6f79060240160206040518083038186803b15801561307157600080fd5b505afa158015613085573d6000803e3d6000fd5b505050506040513d601f19601f820116820180604052508101906130a991906132ba565b6001600160a01b03166338ed173986868630426040518663ffffffff1660e01b81526004016130dc95949392919061366b565b600060405180830381600087803b1580156130f657600080fd5b505af115801561310a573d6000803e3d6000fd5b505050506040513d6000823e601f3d908101601f19168201604052613132919081019061338a565b505b50505050505050565b60608247101561319e5760405162461bcd60e51b815260206004820152602660248201527f416464726573733a20696e73756666696369656e742062616c616e636520666f6044820152651c8818d85b1b60d21b606482015260840161059f565b843b6131ec5760405162461bcd60e51b815260206004820152601d60248201527f416464726573733a2063616c6c20746f206e6f6e2d636f6e7472616374000000604482015260640161059f565b600080866001600160a01b031685876040516132089190613558565b60006040518083038185875af1925050503d8060008114613245576040519150601f19603f3d011682016040523d82523d6000602084013e61324a565b606091505b509150915061325a828286613265565b979650505050505050565b6060831561327457508161290e565b8251156132845782518084602001fd5b8160405162461bcd60e51b815260040161059f91906135d1565b6000602082840312156132af578081fd5b813561290e816137a2565b6000602082840312156132cb578081fd5b815161290e816137a2565b6000806000606084860312156132ea578182fd5b835167ffffffffffffffff811115613300578283fd5b8401601f81018613613310578283fd5b80516020613325613320836136d8565b6136a7565b8083825282820191508285018a848660051b8801011115613344578788fd5b8795505b8486101561336f57805161335b816137a2565b835260019590950194918301918301613348565b50918801516040909801519199979850909695505050505050565b6000602080838503121561339c578182fd5b825167ffffffffffffffff8111156133b2578283fd5b8301601f810185136133c2578283fd5b80516133d0613320826136d8565b80828252848201915084840188868560051b87010111156133ef578687fd5b8694505b838510156134115780518352600194909401939185019185016133f3565b50979650505050505050565b60006020828403121561342e578081fd5b8151801515811461290e578182fd5b60006020828403121561344e578081fd5b5035919050565b600060208284031215613466578081fd5b5051919050565b6000806040838503121561347f578182fd5b50508035926020909101359150565b6000806000806000806000806000806101408b8d0312156134ad578586fd5b8a51995060208b0151985060408b0151975060608b0151965060808b0151955060a08b0151945060c08b0151935060e08b015192506101008b015191506101208b015164ffffffffff81168114613502578182fd5b809150509295989b9194979a5092959850565b6000815180845260208085019450808401835b8381101561354d5781516001600160a01b031687529582019590820190600101613528565b509495945050505050565b6000825161356a81846020870161372b565b9190910192915050565b6000604082526135876040830185613515565b905060018060a01b03831660208301529392505050565b6000606082526135b16060830186613515565b6020830194909452506001600160a01b0391909116604090910152919050565b60006020825282518060208401526135f081604085016020870161372b565b601f01601f19169190910160400192915050565b60208082526016908201527531b0b63632b916b4b996b737ba16b096b5b2b2b832b960511b604082015260600190565b6020808252601a908201527f63616c6c65722d69732d6e6f742d7468652d676f7665726e6f72000000000000604082015260600190565b600086825285602083015260a0604083015261368a60a0830186613515565b6001600160a01b0394909416606083015250608001529392505050565b604051601f8201601f1916810167ffffffffffffffff811182821017156136d0576136d061378c565b604052919050565b600067ffffffffffffffff8211156136f2576136f261378c565b5060051b60200190565b6000821982111561370f5761370f613776565b500190565b60008282101561372657613726613776565b500390565b60005b8381101561374657818101518382015260200161372e565b83811115613755576000848401525b50505050565b600060001982141561376f5761376f613776565b5060010190565b634e487b7160e01b600052601160045260246000fd5b634e487b7160e01b600052604160045260246000fd5b6001600160a01b038116811461066a57600080fdfea2646970667358221220f6a71302eadc93dc23909a77c06e9b4c77b249fae3a229e87c44f6e1352a522664736f6c63430008030033",
  "devdoc": {
    "kind": "dev",
    "methods": {
      "addKeeper(address)": {
        "params": {
          "_keeperAddress": "keeper address to add."
        }
      },
      "approveToken()": {
        "details": "Approve all required tokens"
      },
      "init(address)": {
        "params": {
          "_addressListFactory": "To support same code in eth side chain, user _addressListFactory as param mainnet - 0xded8217De022706A191eE7Ee0Dc9df1185Fb5dA3 polygon - 0xD10D5696A350D65A9AA15FE8B258caB4ab1bF291 avalanche - 0xc5CdF8CBE886FC5c1EF5CD4fdd599C975eC6BB54"
        }
      },
      "migrate(address)": {
        "details": "_beforeMigration hook can be implemented in child strategy to do extra steps.",
        "params": {
          "_newStrategy": "Address of new strategy"
        }
      },
      "rebalance()": {
        "details": "Rebalance profit, loss and investment of this strategy"
      },
      "removeKeeper(address)": {
        "params": {
          "_keeperAddress": "keeper address to remove."
        }
      },
      "sweepERC20(address)": {
        "details": "sweep given token to feeCollector of strategy",
        "params": {
          "_fromToken": "token address to sweep"
        }
      },
      "totalValue()": {
        "details": "aToken and collateral are 1:1"
      },
      "totalValueCurrent()": {
        "details": "Report total value in collateral token"
      },
      "updateAddressesProvider(address)": {
        "details": "We will use new address to fetch lendingPool address and update that too."
      },
      "updateFeeCollector(address)": {
        "params": {
          "_feeCollector": "fee collector address"
        }
      },
      "updateSwapManager(address)": {
        "params": {
          "_swapManager": "swap manager address"
        }
      },
      "withdraw(uint256)": {
        "details": "Withdraw collateral token from lending pool.",
        "params": {
          "_amount": "Amount of collateral token"
        }
      }
    },
    "version": 1
  },
  "userdoc": {
    "kind": "user",
    "methods": {
      "addKeeper(address)": {
        "notice": "Add given address in keepers list."
      },
      "init(address)": {
        "notice": "Create keeper list NOTE: Any function with onlyKeeper modifier will not work until this function is called. NOTE: Due to gas constraint this function cannot be called in constructor."
      },
      "isReservedToken(address)": {
        "notice": "Check whether given token is reserved or not. Reserved tokens are not allowed to sweep."
      },
      "migrate(address)": {
        "notice": "Migrate all asset and vault ownership,if any, to new strategy"
      },
      "removeKeeper(address)": {
        "notice": "Remove given address from keepers list."
      },
      "token()": {
        "notice": "Returns address of token correspond to collateral token"
      },
      "totalValue()": {
        "notice": "Report total value"
      },
      "totalValueCurrent()": {
        "notice": "Calculate total value of asset under management (in real-time)"
      },
      "updateAddressesProvider(address)": {
        "notice": "Update address of Aave LendingPoolAddressesProvider"
      },
      "updateFeeCollector(address)": {
        "notice": "Update fee collector"
      },
      "updateSwapManager(address)": {
        "notice": "Update swap manager address"
      }
    },
    "version": 1
  },
  "storageLayout": {
    "storage": [
      {
        "astId": 13612,
        "contract": "contracts/strategies/aave/AaveStrategyPolygonMatic.sol:AaveStrategyPolygonWMATIC",
        "label": "receiptToken",
        "offset": 0,
        "slot": "0",
        "type": "t_address"
      },
      {
        "astId": 13619,
        "contract": "contracts/strategies/aave/AaveStrategyPolygonMatic.sol:AaveStrategyPolygonWMATIC",
        "label": "keepers",
        "offset": 0,
        "slot": "1",
        "type": "t_contract(IAddressList)4357"
      },
      {
        "astId": 13622,
        "contract": "contracts/strategies/aave/AaveStrategyPolygonMatic.sol:AaveStrategyPolygonWMATIC",
        "label": "feeCollector",
        "offset": 0,
        "slot": "2",
        "type": "t_address"
      },
      {
        "astId": 13625,
        "contract": "contracts/strategies/aave/AaveStrategyPolygonMatic.sol:AaveStrategyPolygonWMATIC",
        "label": "swapManager",
        "offset": 0,
        "slot": "3",
        "type": "t_contract(ISwapManager)4660"
      },
      {
        "astId": 13628,
        "contract": "contracts/strategies/aave/AaveStrategyPolygonMatic.sol:AaveStrategyPolygonWMATIC",
        "label": "oraclePeriod",
        "offset": 0,
        "slot": "4",
        "type": "t_uint256"
      },
      {
        "astId": 13631,
        "contract": "contracts/strategies/aave/AaveStrategyPolygonMatic.sol:AaveStrategyPolygonWMATIC",
        "label": "oracleRouterIdx",
        "offset": 0,
        "slot": "5",
        "type": "t_uint256"
      },
      {
        "astId": 13634,
        "contract": "contracts/strategies/aave/AaveStrategyPolygonMatic.sol:AaveStrategyPolygonWMATIC",
        "label": "swapSlippage",
        "offset": 0,
        "slot": "6",
        "type": "t_uint256"
      },
      {
        "astId": 16685,
        "contract": "contracts/strategies/aave/AaveStrategyPolygonMatic.sol:AaveStrategyPolygonWMATIC",
        "label": "aaveLendingPool",
        "offset": 0,
        "slot": "7",
        "type": "t_contract(AaveLendingPool)4078"
      },
      {
        "astId": 16688,
        "contract": "contracts/strategies/aave/AaveStrategyPolygonMatic.sol:AaveStrategyPolygonWMATIC",
        "label": "aaveProtocolDataProvider",
        "offset": 0,
        "slot": "8",
        "type": "t_contract(AaveProtocolDataProvider)4115"
      },
      {
        "astId": 16691,
        "contract": "contracts/strategies/aave/AaveStrategyPolygonMatic.sol:AaveStrategyPolygonWMATIC",
        "label": "aaveIncentivesController",
        "offset": 0,
        "slot": "9",
        "type": "t_contract(AaveIncentivesController)4035"
      },
      {
        "astId": 16697,
        "contract": "contracts/strategies/aave/AaveStrategyPolygonMatic.sol:AaveStrategyPolygonWMATIC",
        "label": "aaveAddressesProvider",
        "offset": 0,
        "slot": "10",
        "type": "t_contract(AaveLendingPoolAddressesProvider)4003"
      },
      {
        "astId": 16700,
        "contract": "contracts/strategies/aave/AaveStrategyPolygonMatic.sol:AaveStrategyPolygonWMATIC",
        "label": "rewardToken",
        "offset": 0,
        "slot": "11",
        "type": "t_address"
      }
    ],
    "types": {
      "t_address": {
        "encoding": "inplace",
        "label": "address",
        "numberOfBytes": "20"
      },
      "t_contract(AaveIncentivesController)4035": {
        "encoding": "inplace",
        "label": "contract AaveIncentivesController",
        "numberOfBytes": "20"
      },
      "t_contract(AaveLendingPool)4078": {
        "encoding": "inplace",
        "label": "contract AaveLendingPool",
        "numberOfBytes": "20"
      },
      "t_contract(AaveLendingPoolAddressesProvider)4003": {
        "encoding": "inplace",
        "label": "contract AaveLendingPoolAddressesProvider",
        "numberOfBytes": "20"
      },
      "t_contract(AaveProtocolDataProvider)4115": {
        "encoding": "inplace",
        "label": "contract AaveProtocolDataProvider",
        "numberOfBytes": "20"
      },
      "t_contract(IAddressList)4357": {
        "encoding": "inplace",
        "label": "contract IAddressList",
        "numberOfBytes": "20"
      },
      "t_contract(ISwapManager)4660": {
        "encoding": "inplace",
        "label": "contract ISwapManager",
        "numberOfBytes": "20"
      },
      "t_uint256": {
        "encoding": "inplace",
        "label": "uint256",
        "numberOfBytes": "32"
      }
    }
  }
}