{
  "address": "0x631E4eFe520152b9aa98aCa50739a7F6a8f21319",
  "abi": [
    {
      "inputs": [
        {
          "internalType": "string",
          "name": "_name",
          "type": "string"
        },
        {
          "internalType": "string",
          "name": "_symbol",
          "type": "string"
        },
        {
          "internalType": "address",
          "name": "_token",
          "type": "address"
        }
      ],
      "stateMutability": "nonpayable",
      "type": "constructor"
    },
    {
      "anonymous": false,
      "inputs": [
        {
          "indexed": true,
          "internalType": "address",
          "name": "owner",
          "type": "address"
        },
        {
          "indexed": true,
          "internalType": "address",
          "name": "spender",
          "type": "address"
        },
        {
          "indexed": false,
          "internalType": "uint256",
          "name": "value",
          "type": "uint256"
        }
      ],
      "name": "Approval",
      "type": "event"
    },
    {
      "anonymous": false,
      "inputs": [
        {
          "indexed": true,
          "internalType": "address",
          "name": "owner",
          "type": "address"
        },
        {
          "indexed": false,
          "internalType": "uint256",
          "name": "shares",
          "type": "uint256"
        },
        {
          "indexed": false,
          "internalType": "uint256",
          "name": "amount",
          "type": "uint256"
        }
      ],
      "name": "Deposit",
      "type": "event"
    },
    {
      "anonymous": false,
      "inputs": [
        {
          "indexed": false,
          "internalType": "address",
          "name": "account",
          "type": "address"
        }
      ],
      "name": "Open",
      "type": "event"
    },
    {
      "anonymous": false,
      "inputs": [
        {
          "indexed": false,
          "internalType": "address",
          "name": "account",
          "type": "address"
        }
      ],
      "name": "Paused",
      "type": "event"
    },
    {
      "anonymous": false,
      "inputs": [
        {
          "indexed": false,
          "internalType": "address",
          "name": "account",
          "type": "address"
        }
      ],
      "name": "Shutdown",
      "type": "event"
    },
    {
      "anonymous": false,
      "inputs": [
        {
          "indexed": true,
          "internalType": "address",
          "name": "from",
          "type": "address"
        },
        {
          "indexed": true,
          "internalType": "address",
          "name": "to",
          "type": "address"
        },
        {
          "indexed": false,
          "internalType": "uint256",
          "name": "value",
          "type": "uint256"
        }
      ],
      "name": "Transfer",
      "type": "event"
    },
    {
      "anonymous": false,
      "inputs": [
        {
          "indexed": false,
          "internalType": "address",
          "name": "account",
          "type": "address"
        }
      ],
      "name": "Unpaused",
      "type": "event"
    },
    {
      "anonymous": false,
      "inputs": [
        {
          "indexed": true,
          "internalType": "address",
          "name": "previousFeeCollector",
          "type": "address"
        },
        {
          "indexed": true,
          "internalType": "address",
          "name": "newFeeCollector",
          "type": "address"
        }
      ],
      "name": "UpdatedFeeCollector",
      "type": "event"
    },
    {
      "anonymous": false,
      "inputs": [
        {
          "indexed": true,
          "internalType": "address",
          "name": "previousGovernor",
          "type": "address"
        },
        {
          "indexed": true,
          "internalType": "address",
          "name": "proposedGovernor",
          "type": "address"
        }
      ],
      "name": "UpdatedGovernor",
      "type": "event"
    },
    {
      "anonymous": false,
      "inputs": [
        {
          "indexed": true,
          "internalType": "address",
          "name": "previousPoolRewards",
          "type": "address"
        },
        {
          "indexed": true,
          "internalType": "address",
          "name": "newPoolRewards",
          "type": "address"
        }
      ],
      "name": "UpdatedPoolRewards",
      "type": "event"
    },
    {
      "anonymous": false,
      "inputs": [
        {
          "indexed": false,
          "internalType": "uint256",
          "name": "previousWithdrawFee",
          "type": "uint256"
        },
        {
          "indexed": false,
          "internalType": "uint256",
          "name": "newWithdrawFee",
          "type": "uint256"
        }
      ],
      "name": "UpdatedWithdrawFee",
      "type": "event"
    },
    {
      "anonymous": false,
      "inputs": [
        {
          "indexed": true,
          "internalType": "address",
          "name": "owner",
          "type": "address"
        },
        {
          "indexed": false,
          "internalType": "uint256",
          "name": "shares",
          "type": "uint256"
        },
        {
          "indexed": false,
          "internalType": "uint256",
          "name": "amount",
          "type": "uint256"
        }
      ],
      "name": "Withdraw",
      "type": "event"
    },
    {
      "inputs": [],
      "name": "DOMAIN_SEPARATOR",
      "outputs": [
        {
          "internalType": "bytes32",
          "name": "",
          "type": "bytes32"
        }
      ],
      "stateMutability": "view",
      "type": "function"
    },
    {
      "inputs": [],
      "name": "MAX_BPS",
      "outputs": [
        {
          "internalType": "uint256",
          "name": "",
          "type": "uint256"
        }
      ],
      "stateMutability": "view",
      "type": "function"
    },
    {
      "inputs": [],
      "name": "VERSION",
      "outputs": [
        {
          "internalType": "string",
          "name": "",
          "type": "string"
        }
      ],
      "stateMutability": "view",
      "type": "function"
    },
    {
      "inputs": [],
      "name": "acceptGovernorship",
      "outputs": [],
      "stateMutability": "nonpayable",
      "type": "function"
    },
    {
      "inputs": [
        {
          "internalType": "address",
          "name": "_listToUpdate",
          "type": "address"
        },
        {
          "internalType": "address",
          "name": "_addressToAdd",
          "type": "address"
        }
      ],
      "name": "addInList",
      "outputs": [],
      "stateMutability": "nonpayable",
      "type": "function"
    },
    {
      "inputs": [
        {
          "internalType": "address",
          "name": "owner",
          "type": "address"
        },
        {
          "internalType": "address",
          "name": "spender",
          "type": "address"
        }
      ],
      "name": "allowance",
      "outputs": [
        {
          "internalType": "uint256",
          "name": "",
          "type": "uint256"
        }
      ],
      "stateMutability": "view",
      "type": "function"
    },
    {
      "inputs": [
        {
          "internalType": "address",
          "name": "spender",
          "type": "address"
        },
        {
          "internalType": "uint256",
          "name": "amount",
          "type": "uint256"
        }
      ],
      "name": "approve",
      "outputs": [
        {
          "internalType": "bool",
          "name": "",
          "type": "bool"
        }
      ],
      "stateMutability": "nonpayable",
      "type": "function"
    },
    {
      "inputs": [
        {
          "internalType": "address",
          "name": "_strategy",
          "type": "address"
        }
      ],
      "name": "availableCreditLimit",
      "outputs": [
        {
          "internalType": "uint256",
          "name": "",
          "type": "uint256"
        }
      ],
      "stateMutability": "view",
      "type": "function"
    },
    {
      "inputs": [
        {
          "internalType": "address",
          "name": "account",
          "type": "address"
        }
      ],
      "name": "balanceOf",
      "outputs": [
        {
          "internalType": "uint256",
          "name": "",
          "type": "uint256"
        }
      ],
      "stateMutability": "view",
      "type": "function"
    },
    {
      "inputs": [
        {
          "internalType": "uint256",
          "name": "_amount",
          "type": "uint256"
        }
      ],
      "name": "convertFrom18",
      "outputs": [
        {
          "internalType": "uint256",
          "name": "",
          "type": "uint256"
        }
      ],
      "stateMutability": "view",
      "type": "function"
    },
    {
      "inputs": [],
      "name": "decimalConversionFactor",
      "outputs": [
        {
          "internalType": "uint256",
          "name": "",
          "type": "uint256"
        }
      ],
      "stateMutability": "view",
      "type": "function"
    },
    {
      "inputs": [],
      "name": "decimals",
      "outputs": [
        {
          "internalType": "uint8",
          "name": "",
          "type": "uint8"
        }
      ],
      "stateMutability": "view",
      "type": "function"
    },
    {
      "inputs": [
        {
          "internalType": "address",
          "name": "spender",
          "type": "address"
        },
        {
          "internalType": "uint256",
          "name": "subtractedValue",
          "type": "uint256"
        }
      ],
      "name": "decreaseAllowance",
      "outputs": [
        {
          "internalType": "bool",
          "name": "",
          "type": "bool"
        }
      ],
      "stateMutability": "nonpayable",
      "type": "function"
    },
    {
      "inputs": [
        {
          "internalType": "uint256",
          "name": "_amount",
          "type": "uint256"
        }
      ],
      "name": "deposit",
      "outputs": [],
      "stateMutability": "nonpayable",
      "type": "function"
    },
    {
      "inputs": [],
      "name": "deposit",
      "outputs": [],
      "stateMutability": "payable",
      "type": "function"
    },
    {
      "inputs": [
        {
          "internalType": "uint256",
          "name": "_amount",
          "type": "uint256"
        },
        {
          "internalType": "uint256",
          "name": "_deadline",
          "type": "uint256"
        },
        {
          "internalType": "uint8",
          "name": "_v",
          "type": "uint8"
        },
        {
          "internalType": "bytes32",
          "name": "_r",
          "type": "bytes32"
        },
        {
          "internalType": "bytes32",
          "name": "_s",
          "type": "bytes32"
        }
      ],
      "name": "depositWithPermit",
      "outputs": [],
      "stateMutability": "nonpayable",
      "type": "function"
    },
    {
      "inputs": [
        {
          "internalType": "address",
          "name": "_strategy",
          "type": "address"
        }
      ],
      "name": "excessDebt",
      "outputs": [
        {
          "internalType": "uint256",
          "name": "",
          "type": "uint256"
        }
      ],
      "stateMutability": "view",
      "type": "function"
    },
    {
      "inputs": [],
      "name": "feeCollector",
      "outputs": [
        {
          "internalType": "address",
          "name": "",
          "type": "address"
        }
      ],
      "stateMutability": "view",
      "type": "function"
    },
    {
      "inputs": [],
      "name": "feeWhitelist",
      "outputs": [
        {
          "internalType": "address",
          "name": "",
          "type": "address"
        }
      ],
      "stateMutability": "view",
      "type": "function"
    },
    {
      "inputs": [],
      "name": "getStrategies",
      "outputs": [
        {
          "internalType": "address[]",
          "name": "",
          "type": "address[]"
        }
      ],
      "stateMutability": "view",
      "type": "function"
    },
    {
      "inputs": [],
      "name": "getWithdrawQueue",
      "outputs": [
        {
          "internalType": "address[]",
          "name": "",
          "type": "address[]"
        }
      ],
      "stateMutability": "view",
      "type": "function"
    },
    {
      "inputs": [],
      "name": "governor",
      "outputs": [
        {
          "internalType": "address",
          "name": "",
          "type": "address"
        }
      ],
      "stateMutability": "view",
      "type": "function"
    },
    {
      "inputs": [
        {
          "internalType": "address",
          "name": "spender",
          "type": "address"
        },
        {
          "internalType": "uint256",
          "name": "addedValue",
          "type": "uint256"
        }
      ],
      "name": "increaseAllowance",
      "outputs": [
        {
          "internalType": "bool",
          "name": "",
          "type": "bool"
        }
      ],
      "stateMutability": "nonpayable",
      "type": "function"
    },
    {
      "inputs": [
        {
          "internalType": "string",
          "name": "_name",
          "type": "string"
        },
        {
          "internalType": "string",
          "name": "_symbol",
          "type": "string"
        },
        {
          "internalType": "address",
          "name": "_token",
          "type": "address"
        },
        {
          "internalType": "address",
          "name": "_poolAccountant",
          "type": "address"
        },
        {
          "internalType": "address",
          "name": "_addressListFactory",
          "type": "address"
        }
      ],
      "name": "initialize",
      "outputs": [],
      "stateMutability": "nonpayable",
      "type": "function"
    },
    {
      "inputs": [],
      "name": "keepers",
      "outputs": [
        {
          "internalType": "address",
          "name": "",
          "type": "address"
        }
      ],
      "stateMutability": "view",
      "type": "function"
    },
    {
      "inputs": [],
      "name": "maintainers",
      "outputs": [
        {
          "internalType": "address",
          "name": "",
          "type": "address"
        }
      ],
      "stateMutability": "view",
      "type": "function"
    },
    {
      "inputs": [
        {
          "internalType": "address",
          "name": "_old",
          "type": "address"
        },
        {
          "internalType": "address",
          "name": "_new",
          "type": "address"
        }
      ],
      "name": "migrateStrategy",
      "outputs": [],
      "stateMutability": "nonpayable",
      "type": "function"
    },
    {
      "inputs": [
        {
          "internalType": "address[]",
          "name": "_recipients",
          "type": "address[]"
        },
        {
          "internalType": "uint256[]",
          "name": "_amounts",
          "type": "uint256[]"
        }
      ],
      "name": "multiTransfer",
      "outputs": [
        {
          "internalType": "bool",
          "name": "",
          "type": "bool"
        }
      ],
      "stateMutability": "nonpayable",
      "type": "function"
    },
    {
      "inputs": [],
      "name": "name",
      "outputs": [
        {
          "internalType": "string",
          "name": "",
          "type": "string"
        }
      ],
      "stateMutability": "view",
      "type": "function"
    },
    {
      "inputs": [
        {
          "internalType": "address",
          "name": "",
          "type": "address"
        }
      ],
      "name": "nonces",
      "outputs": [
        {
          "internalType": "uint256",
          "name": "",
          "type": "uint256"
        }
      ],
      "stateMutability": "view",
      "type": "function"
    },
    {
      "inputs": [],
      "name": "open",
      "outputs": [],
      "stateMutability": "nonpayable",
      "type": "function"
    },
    {
      "inputs": [],
      "name": "pause",
      "outputs": [],
      "stateMutability": "nonpayable",
      "type": "function"
    },
    {
      "inputs": [],
      "name": "paused",
      "outputs": [
        {
          "internalType": "bool",
          "name": "",
          "type": "bool"
        }
      ],
      "stateMutability": "view",
      "type": "function"
    },
    {
      "inputs": [
        {
          "internalType": "address",
          "name": "owner",
          "type": "address"
        },
        {
          "internalType": "address",
          "name": "spender",
          "type": "address"
        },
        {
          "internalType": "uint256",
          "name": "value",
          "type": "uint256"
        },
        {
          "internalType": "uint256",
          "name": "deadline",
          "type": "uint256"
        },
        {
          "internalType": "uint8",
          "name": "v",
          "type": "uint8"
        },
        {
          "internalType": "bytes32",
          "name": "r",
          "type": "bytes32"
        },
        {
          "internalType": "bytes32",
          "name": "s",
          "type": "bytes32"
        }
      ],
      "name": "permit",
      "outputs": [],
      "stateMutability": "nonpayable",
      "type": "function"
    },
    {
      "inputs": [],
      "name": "poolAccountant",
      "outputs": [
        {
          "internalType": "address",
          "name": "",
          "type": "address"
        }
      ],
      "stateMutability": "view",
      "type": "function"
    },
    {
      "inputs": [],
      "name": "poolRewards",
      "outputs": [
        {
          "internalType": "address",
          "name": "",
          "type": "address"
        }
      ],
      "stateMutability": "view",
      "type": "function"
    },
    {
      "inputs": [],
      "name": "pricePerShare",
      "outputs": [
        {
          "internalType": "uint256",
          "name": "",
          "type": "uint256"
        }
      ],
      "stateMutability": "view",
      "type": "function"
    },
    {
      "inputs": [
        {
          "internalType": "address",
          "name": "_listToUpdate",
          "type": "address"
        },
        {
          "internalType": "address",
          "name": "_addressToRemove",
          "type": "address"
        }
      ],
      "name": "removeFromList",
      "outputs": [],
      "stateMutability": "nonpayable",
      "type": "function"
    },
    {
      "inputs": [
        {
          "internalType": "uint256",
          "name": "_profit",
          "type": "uint256"
        },
        {
          "internalType": "uint256",
          "name": "_loss",
          "type": "uint256"
        },
        {
          "internalType": "uint256",
          "name": "_payback",
          "type": "uint256"
        }
      ],
      "name": "reportEarning",
      "outputs": [],
      "stateMutability": "nonpayable",
      "type": "function"
    },
    {
      "inputs": [
        {
          "internalType": "uint256",
          "name": "_loss",
          "type": "uint256"
        }
      ],
      "name": "reportLoss",
      "outputs": [],
      "stateMutability": "nonpayable",
      "type": "function"
    },
    {
      "inputs": [],
      "name": "shutdown",
      "outputs": [],
      "stateMutability": "nonpayable",
      "type": "function"
    },
    {
      "inputs": [],
      "name": "stopEverything",
      "outputs": [
        {
          "internalType": "bool",
          "name": "",
          "type": "bool"
        }
      ],
      "stateMutability": "view",
      "type": "function"
    },
    {
      "inputs": [
        {
          "internalType": "address",
          "name": "_strategy",
          "type": "address"
        }
      ],
      "name": "strategy",
      "outputs": [
        {
          "internalType": "bool",
          "name": "_active",
          "type": "bool"
        },
        {
          "internalType": "uint256",
          "name": "_interestFee",
          "type": "uint256"
        },
        {
          "internalType": "uint256",
          "name": "_debtRate",
          "type": "uint256"
        },
        {
          "internalType": "uint256",
          "name": "_lastRebalance",
          "type": "uint256"
        },
        {
          "internalType": "uint256",
          "name": "_totalDebt",
          "type": "uint256"
        },
        {
          "internalType": "uint256",
          "name": "_totalLoss",
          "type": "uint256"
        },
        {
          "internalType": "uint256",
          "name": "_totalProfit",
          "type": "uint256"
        },
        {
          "internalType": "uint256",
          "name": "_debtRatio",
          "type": "uint256"
        }
      ],
      "stateMutability": "view",
      "type": "function"
    },
    {
      "inputs": [
        {
          "internalType": "address",
          "name": "_fromToken",
          "type": "address"
        }
      ],
      "name": "sweepERC20",
      "outputs": [],
      "stateMutability": "nonpayable",
      "type": "function"
    },
    {
      "inputs": [],
      "name": "symbol",
      "outputs": [
        {
          "internalType": "string",
          "name": "",
          "type": "string"
        }
      ],
      "stateMutability": "view",
      "type": "function"
    },
    {
      "inputs": [],
      "name": "token",
      "outputs": [
        {
          "internalType": "contract IERC20",
          "name": "",
          "type": "address"
        }
      ],
      "stateMutability": "view",
      "type": "function"
    },
    {
      "inputs": [],
      "name": "tokensHere",
      "outputs": [
        {
          "internalType": "uint256",
          "name": "",
          "type": "uint256"
        }
      ],
      "stateMutability": "view",
      "type": "function"
    },
    {
      "inputs": [],
      "name": "totalDebt",
      "outputs": [
        {
          "internalType": "uint256",
          "name": "",
          "type": "uint256"
        }
      ],
      "stateMutability": "view",
      "type": "function"
    },
    {
      "inputs": [
        {
          "internalType": "address",
          "name": "_strategy",
          "type": "address"
        }
      ],
      "name": "totalDebtOf",
      "outputs": [
        {
          "internalType": "uint256",
          "name": "",
          "type": "uint256"
        }
      ],
      "stateMutability": "view",
      "type": "function"
    },
    {
      "inputs": [],
      "name": "totalDebtRatio",
      "outputs": [
        {
          "internalType": "uint256",
          "name": "",
          "type": "uint256"
        }
      ],
      "stateMutability": "view",
      "type": "function"
    },
    {
      "inputs": [],
      "name": "totalSupply",
      "outputs": [
        {
          "internalType": "uint256",
          "name": "",
          "type": "uint256"
        }
      ],
      "stateMutability": "view",
      "type": "function"
    },
    {
      "inputs": [],
      "name": "totalValue",
      "outputs": [
        {
          "internalType": "uint256",
          "name": "",
          "type": "uint256"
        }
      ],
      "stateMutability": "view",
      "type": "function"
    },
    {
      "inputs": [
        {
          "internalType": "address",
          "name": "recipient",
          "type": "address"
        },
        {
          "internalType": "uint256",
          "name": "amount",
          "type": "uint256"
        }
      ],
      "name": "transfer",
      "outputs": [
        {
          "internalType": "bool",
          "name": "",
          "type": "bool"
        }
      ],
      "stateMutability": "nonpayable",
      "type": "function"
    },
    {
      "inputs": [
        {
          "internalType": "address",
          "name": "sender",
          "type": "address"
        },
        {
          "internalType": "address",
          "name": "recipient",
          "type": "address"
        },
        {
          "internalType": "uint256",
          "name": "amount",
          "type": "uint256"
        }
      ],
      "name": "transferFrom",
      "outputs": [
        {
          "internalType": "bool",
          "name": "",
          "type": "bool"
        }
      ],
      "stateMutability": "nonpayable",
      "type": "function"
    },
    {
      "inputs": [
        {
          "internalType": "address",
          "name": "_proposedGovernor",
          "type": "address"
        }
      ],
      "name": "transferGovernorship",
      "outputs": [],
      "stateMutability": "nonpayable",
      "type": "function"
    },
    {
      "inputs": [],
      "name": "unpause",
      "outputs": [],
      "stateMutability": "nonpayable",
      "type": "function"
    },
    {
      "inputs": [
        {
          "internalType": "address",
          "name": "_newFeeCollector",
          "type": "address"
        }
      ],
      "name": "updateFeeCollector",
      "outputs": [],
      "stateMutability": "nonpayable",
      "type": "function"
    },
    {
      "inputs": [
        {
          "internalType": "address",
          "name": "_newPoolRewards",
          "type": "address"
        }
      ],
      "name": "updatePoolRewards",
      "outputs": [],
      "stateMutability": "nonpayable",
      "type": "function"
    },
    {
      "inputs": [
        {
          "internalType": "uint256",
          "name": "_newWithdrawFee",
          "type": "uint256"
        }
      ],
      "name": "updateWithdrawFee",
      "outputs": [],
      "stateMutability": "nonpayable",
      "type": "function"
    },
    {
      "inputs": [
        {
          "internalType": "uint256",
          "name": "_shares",
          "type": "uint256"
        }
      ],
      "name": "whitelistedWithdraw",
      "outputs": [],
      "stateMutability": "nonpayable",
      "type": "function"
    },
    {
      "inputs": [
        {
          "internalType": "uint256",
          "name": "_shares",
          "type": "uint256"
        }
      ],
      "name": "withdraw",
      "outputs": [],
      "stateMutability": "nonpayable",
      "type": "function"
    },
    {
      "inputs": [
        {
          "internalType": "uint256",
          "name": "_shares",
          "type": "uint256"
        }
      ],
      "name": "withdrawETH",
      "outputs": [],
      "stateMutability": "nonpayable",
      "type": "function"
    },
    {
      "inputs": [],
      "name": "withdrawFee",
      "outputs": [
        {
          "internalType": "uint256",
          "name": "",
          "type": "uint256"
        }
      ],
      "stateMutability": "view",
      "type": "function"
    },
    {
      "stateMutability": "payable",
      "type": "receive"
    }
  ],
  "transactionHash": "0x2440f0abb2884b1e5960535e8c37380b1e0908e28dc0916c9ca4271acd1f6147",
  "args": [
    "vMATIC Pool",
    "vMATIC",
    "0x0d500b1d8e8ef31e21c99d1db9a6444d3adf1270"
  ],
  "solcInputHash": "f9d9c8d41405aa17a0f0e534dcf35fdb",
  "bytecode": "0x60806040523480156200001157600080fd5b50604051620052ce380380620052ce833981016040819052620000349162000264565b82828282828282828282828160039080519060200190620000579291906200010b565b5080516200006d9060049060208401906200010b565b5050506000620000826200010760201b60201c565b600a80546001600160a01b0319166001600160a01b038316908117909155604051919250906000907fd4459d5b8b913cab0244230fd9b1c08b6ceace7fe9230e60d0f74cbffdf849d0908290a3506001600c55600d80546001600160a01b0319166001600160a01b039290921691909117905550620003409950505050505050505050565b3390565b8280546200011990620002ed565b90600052602060002090601f0160209004810192826200013d576000855562000188565b82601f106200015857805160ff191683800117855562000188565b8280016001018555821562000188579182015b82811115620001885782518255916020019190600101906200016b565b50620001969291506200019a565b5090565b5b808211156200019657600081556001016200019b565b600082601f830112620001c2578081fd5b81516001600160401b0380821115620001df57620001df6200032a565b604051601f8301601f19908116603f011681019082821181831017156200020a576200020a6200032a565b8160405283815260209250868385880101111562000226578485fd5b8491505b838210156200024957858201830151818301840152908201906200022a565b838211156200025a57848385830101525b9695505050505050565b60008060006060848603121562000279578283fd5b83516001600160401b038082111562000290578485fd5b6200029e87838801620001b1565b94506020860151915080821115620002b4578384fd5b50620002c386828701620001b1565b604086015190935090506001600160a01b0381168114620002e2578182fd5b809150509250925092565b600181811c908216806200030257607f821691505b602082108114156200032457634e487b7160e01b600052602260045260246000fd5b50919050565b634e487b7160e01b600052604160045260246000fd5b614f7e80620003506000396000f3fe6080604052600436106103bc5760003560e01c80639f2b2833116101f2578063db0ed6a01161010d578063fc0c546a116100a0578063fcfff16f1161006f578063fcfff16f14610b34578063fd967f4714610b49578063ff643a7c14610b5f578063ffa1ad7414610b7f576103dd565b8063fc0c546a14610aca578063fc0e74d114610aea578063fc76781014610aff578063fc7b9c1814610b1f576103dd565b8063e941fa78116100dc578063e941fa7814610a5f578063f14210a614610a75578063f3b27bc314610a95578063fb589de214610aaa576103dd565b8063db0ed6a0146109b9578063dd62ed3e146109d9578063ddd6d26014610a1f578063e00af4a714610a3f576103dd565b8063c12d636b11610185578063d4c3eea011610154578063d4c3eea014610944578063d505accf14610959578063d53ddc2614610979578063daf635de14610999576103dd565b8063c12d636b146108dc578063c415b95c146108fc578063d0e30db01461091c578063d2c35ce814610924576103dd565b8063b64321ec116101c1578063b64321ec14610867578063b6aa515b14610887578063b6b55f25146108a7578063b8cb343d146108c7576103dd565b80639f2b2833146107f2578063a457c2d714610812578063a9059cbb14610832578063b49a60bb14610852576103dd565b80633f4ba83a116102e25780637ecebe0011610275578063940c408211610244578063940c408214610788578063951dc22c146107a857806395d89b41146107c857806399530b06146107dd576103dd565b80637ecebe00146107105780638456cb591461073d5780638bc6beb2146107525780638fe91ffb14610772576103dd565b80635c975abb116102b15780635c975abb1461068f57806367187d3d146106b05780636cb56d19146106d057806370a08231146106f0576103dd565b80633f4ba83a146106195780634938649a1461062e57806349eeb8601461064f5780634a970be71461066f576103dd565b80631e89d5451161035a5780632e1a7d4d116103295780632e1a7d4d146105a8578063313ce567146105c85780633644e515146105e457806339509351146105f9576103dd565b80631e89d545146104f6578063228bfd9f1461051657806323b872dd146105735780632df9eab914610593576103dd565b80630c340a24116103965780630c340a241461045d578063111830521461049557806318160ddd146104b75780631e751ac1146104d6576103dd565b806305bed046146103e257806306fdde0314610402578063095ea7b31461042d576103dd565b366103dd57600d546001600160a01b031633146103db576103db610bb1565b005b600080fd5b3480156103ee57600080fd5b506103db6103fd366004614a54565b610cde565b34801561040e57600080fd5b50610417610e84565b6040516104249190614b79565b60405180910390f35b34801561043957600080fd5b5061044d6104483660046147c2565b610f17565b6040519015158152602001610424565b34801561046957600080fd5b50600a5461047d906001600160a01b031681565b6040516001600160a01b039091168152602001610424565b3480156104a157600080fd5b506104aa610f2d565b6040516104249190614b2c565b3480156104c357600080fd5b506002545b604051908152602001610424565b3480156104e257600080fd5b506103db6104f13660046146da565b610fb3565b34801561050257600080fd5b5061044d6105113660046147ed565b611112565b34801561052257600080fd5b506105366105313660046146a2565b611214565b6040805198151589526020890197909752958701949094526060860192909252608085015260a084015260c083015260e082015261010001610424565b34801561057f57600080fd5b5061044d61058e366004614712565b6112bd565b34801561059f57600080fd5b506104c8611370565b3480156105b457600080fd5b506103db6105c3366004614a24565b6113ed565b3480156105d457600080fd5b5060405160128152602001610424565b3480156105f057600080fd5b506104c8611450565b34801561060557600080fd5b5061044d6106143660046147c2565b61145a565b34801561062557600080fd5b506103db611491565b34801561063a57600080fd5b50600b5461044d90600160a81b900460ff1681565b34801561065b57600080fd5b5060125461047d906001600160a01b031681565b34801561067b57600080fd5b506103db61068a366004614aac565b611540565b34801561069b57600080fd5b50600b5461044d90600160a01b900460ff1681565b3480156106bc57600080fd5b506103db6106cb3660046146da565b61163d565b3480156106dc57600080fd5b506103db6106eb3660046146da565b611796565b3480156106fc57600080fd5b506104c861070b3660046146a2565b6119d2565b34801561071c57600080fd5b506104c861072b3660046146a2565b60096020526000908152604090205481565b34801561074957600080fd5b506103db6119f1565b34801561075e57600080fd5b50600f5461047d906001600160a01b031681565b34801561077e57600080fd5b506104c860155481565b34801561079457600080fd5b506103db6107a33660046146a2565b611a9e565b3480156107b457600080fd5b5060115461047d906001600160a01b031681565b3480156107d457600080fd5b50610417611b65565b3480156107e957600080fd5b506104c8611b74565b3480156107fe57600080fd5b506104c861080d3660046146a2565b611bd4565b34801561081e57600080fd5b5061044d61082d3660046147c2565b611c59565b34801561083e57600080fd5b5061044d61084d3660046147c2565b611cf4565b34801561085e57600080fd5b506104aa611d01565b34801561087357600080fd5b506104c86108823660046146a2565b611d46565b34801561089357600080fd5b506103db6108a23660046146a2565b611d79565b3480156108b357600080fd5b506103db6108c2366004614a24565b611e1b565b3480156108d357600080fd5b506104c8611e76565b3480156108e857600080fd5b50600e5461047d906001600160a01b031681565b34801561090857600080fd5b5060135461047d906001600160a01b031681565b6103db610bb1565b34801561093057600080fd5b506103db61093f3660046146a2565b611eba565b34801561095057600080fd5b506104c8611f81565b34801561096557600080fd5b506103db610974366004614752565b61201b565b34801561098557600080fd5b506104c86109943660046146a2565b6121db565b3480156109a557600080fd5b506103db6109b4366004614a24565b61220e565b3480156109c557600080fd5b506103db6109d4366004614989565b6122f9565b3480156109e557600080fd5b506104c86109f43660046146da565b6001600160a01b03918216600090815260016020908152604080832093909416825291909152205490565b348015610a2b57600080fd5b506103db610a3a366004614a24565b612376565b348015610a4b57600080fd5b506103db610a5a3660046146a2565b6123de565b348015610a6b57600080fd5b506104c860145481565b348015610a8157600080fd5b506103db610a90366004614a24565b6125a6565b348015610aa157600080fd5b506103db612620565b348015610ab657600080fd5b506104c8610ac5366004614a24565b6126e0565b348015610ad657600080fd5b50600d5461047d906001600160a01b031681565b348015610af657600080fd5b506103db6126f0565b348015610b0b57600080fd5b5060105461047d906001600160a01b031681565b348015610b2b57600080fd5b506104c861279d565b348015610b4057600080fd5b506103db6127e2565b348015610b5557600080fd5b506104c861271081565b348015610b6b57600080fd5b506103db610b7a366004614a24565b61288f565b348015610b8b57600080fd5b5061041760405180604001604052806006815260200165332e302e323160d01b81525081565b600b54600160a01b900460ff1615610be45760405162461bcd60e51b8152600401610bdb90614c79565b60405180910390fd5b6002600c541415610c075760405162461bcd60e51b8152600401610bdb90614c42565b6002600c55610c16335b6129ac565b6000610c21346129ef565b9050600d60009054906101000a90046001600160a01b03166001600160a01b031663d0e30db0346040518263ffffffff1660e01b81526004016000604051808303818588803b158015610c7357600080fd5b505af1158015610c87573d6000803e3d6000fd5b5050505050610c9c610c963390565b82612a8d565b6040805182815234602082015233917f90890809c654f11d6e72a28fa60149770a0d11ec6c92319d6ceb2bb0a4ea1a15910160405180910390a2506001600c55565b600e54600090819081906001600160a01b031663a066654b336040516001600160e01b031960e084901b1681526001600160a01b039091166004820152602481018990526044810188905260648101879052608401606060405180830381600087803b158015610d4d57600080fd5b505af1158015610d61573d6000803e3d6000fd5b505050506040513d601f19601f82011682018060405250810190610d859190614a7f565b919450925090506000610d988488614cf4565b905082811015610dc857610dc333610db08386614e5f565b600d546001600160a01b03169190612b6c565b610df3565b82811115610df357610df33330610ddf8685614e5f565b600d546001600160a01b0316929190612bcf565b8115610e7b57610e7b336001600160a01b031663c415b95c6040518163ffffffff1660e01b815260040160206040518083038186803b158015610e3557600080fd5b505afa158015610e49573d6000803e3d6000fd5b505050506040513d601f19601f82011682018060405250810190610e6d91906146be565b610e76846129ef565b612a8d565b50505050505050565b606060038054610e9390614ea2565b80601f0160208091040260200160405190810160405280929190818152602001828054610ebf90614ea2565b8015610f0c5780601f10610ee157610100808354040283529160200191610f0c565b820191906000526020600020905b815481529060010190602001808311610eef57829003601f168201915b505050505090505b90565b6000610f24338484612c0d565b50600192915050565b600e546040805163088c182960e11b815290516060926001600160a01b0316916311183052916004808301926000929190829003018186803b158015610f7257600080fd5b505afa158015610f86573d6000803e3d6000fd5b505050506040513d6000823e601f3d908101601f19168201604052610fae9190810190614856565b905090565b6011546001600160a01b0316635dbe47e8336040516001600160e01b031960e084901b1681526001600160a01b03909116600482015260240160206040518083038186803b15801561100457600080fd5b505afa158015611018573d6000803e3d6000fd5b505050506040513d601f19601f8201168201806040525081019061103c919061490a565b6110585760405162461bcd60e51b8152600401610bdb90614bfa565b604051630a3b0a4f60e01b81526001600160a01b038281166004830152831690630a3b0a4f906024015b602060405180830381600087803b15801561109c57600080fd5b505af11580156110b0573d6000803e3d6000fd5b505050506040513d601f19601f820116820180604052508101906110d4919061490a565b60405180604001604052806002815260200161313360f01b8152509061110d5760405162461bcd60e51b8152600401610bdb9190614b79565b505050565b6040805180820190915260018152600d60fa1b602082015260009084831461114d5760405162461bcd60e51b8152600401610bdb9190614b79565b5060005b84811015611208576111bd86868381811061117c57634e487b7160e01b600052603260045260246000fd5b905060200201602081019061119191906146a2565b8585848181106111b157634e487b7160e01b600052603260045260246000fd5b90506020020135611cf4565b604051806040016040528060018152602001601b60f91b815250906111f55760405162461bcd60e51b8152600401610bdb9190614b79565b508061120081614edd565b915050611151565b50600195945050505050565b600e5460405163228bfd9f60e01b81526001600160a01b038381166004830152600092839283928392839283928392839291169063228bfd9f906024016101006040518083038186803b15801561126a57600080fd5b505afa15801561127e573d6000803e3d6000fd5b505050506040513d601f19601f820116820180604052508101906112a29190614924565b97509750975097509750975097509750919395975091939597565b60006112ca848484612d32565b6001600160a01b03841660009081526001602090815260408083203384529091529020548281101561134f5760405162461bcd60e51b815260206004820152602860248201527f45524332303a207472616e7366657220616d6f756e74206578636565647320616044820152676c6c6f77616e636560c01b6064820152608401610bdb565b611363853361135e8685614e5f565b612c0d565b60019150505b9392505050565b600e5460408051632df9eab960e01b815290516000926001600160a01b031691632df9eab9916004808301926020929190829003018186803b1580156113b557600080fd5b505afa1580156113c9573d6000803e3d6000fd5b505050506040513d601f19601f82011682018060405250810190610fae9190614a3c565b6002600c5414156114105760405162461bcd60e51b8152600401610bdb90614c42565b6002600c55600b54600160a81b900460ff161561143f5760405162461bcd60e51b8152600401610bdb90614c20565b61144881612e0d565b506001600c55565b6000610fae612f65565b3360008181526001602090815260408083206001600160a01b03871684529091528120549091610f2491859061135e908690614cf4565b6011546001600160a01b0316635dbe47e8336040516001600160e01b031960e084901b1681526001600160a01b03909116600482015260240160206040518083038186803b1580156114e257600080fd5b505afa1580156114f6573d6000803e3d6000fd5b505050506040513d601f19601f8201168201806040525081019061151a919061490a565b6115365760405162461bcd60e51b8152600401610bdb90614bfa565b61153e612fe2565b565b6002600c5414156115635760405162461bcd60e51b8152600401610bdb90614c42565b6002600c55600b54600160a01b900460ff16156115925760405162461bcd60e51b8152600401610bdb90614c79565b600d546001600160a01b031663d505accf336040516001600160e01b031960e084901b1681526001600160a01b039091166004820152306024820152604481018890526064810187905260ff8616608482015260a4810185905260c4810184905260e401600060405180830381600087803b15801561161057600080fd5b505af1158015611624573d6000803e3d6000fd5b505050506116318561309f565b50506001600c55505050565b6011546001600160a01b0316635dbe47e8336040516001600160e01b031960e084901b1681526001600160a01b03909116600482015260240160206040518083038186803b15801561168e57600080fd5b505afa1580156116a2573d6000803e3d6000fd5b505050506040513d601f19601f820116820180604052508101906116c6919061490a565b6116e25760405162461bcd60e51b8152600401610bdb90614bfa565b604051631484968760e11b81526001600160a01b0382811660048301528316906329092d0e90602401602060405180830381600087803b15801561172557600080fd5b505af1158015611739573d6000803e3d6000fd5b505050506040513d601f19601f8201168201806040525081019061175d919061490a565b604051806040016040528060028152602001610c4d60f21b8152509061110d5760405162461bcd60e51b8152600401610bdb9190614b79565b600a546001600160a01b031633146117c05760405162461bcd60e51b8152600401610bdb90614c99565b306001600160a01b0316816001600160a01b03166316f0115b6040518163ffffffff1660e01b815260040160206040518083038186803b15801561180357600080fd5b505afa158015611817573d6000803e3d6000fd5b505050506040513d601f19601f8201168201806040525081019061183b91906146be565b6001600160a01b03161480156118d25750306001600160a01b0316826001600160a01b03166316f0115b6040518163ffffffff1660e01b815260040160206040518083038186803b15801561188f57600080fd5b505afa1580156118a3573d6000803e3d6000fd5b505050506040513d601f19601f820116820180604052508101906118c791906146be565b6001600160a01b0316145b60405180604001604052806002815260200161313760f01b8152509061190b5760405162461bcd60e51b8152600401610bdb9190614b79565b50600e54604051636cb56d1960e01b81526001600160a01b038481166004830152838116602483015290911690636cb56d1990604401600060405180830381600087803b15801561195b57600080fd5b505af115801561196f573d6000803e3d6000fd5b505060405163ce5494bb60e01b81526001600160a01b0384811660048301528516925063ce5494bb9150602401600060405180830381600087803b1580156119b657600080fd5b505af11580156119ca573d6000803e3d6000fd5b505050505050565b6001600160a01b0381166000908152602081905260409020545b919050565b6011546001600160a01b0316635dbe47e8336040516001600160e01b031960e084901b1681526001600160a01b03909116600482015260240160206040518083038186803b158015611a4257600080fd5b505afa158015611a56573d6000803e3d6000fd5b505050506040513d601f19601f82011682018060405250810190611a7a919061490a565b611a965760405162461bcd60e51b8152600401610bdb90614bfa565b61153e613106565b600a546001600160a01b03163314611ac85760405162461bcd60e51b8152600401610bdb90614c99565b604080518082019091526002815261031360f41b60208201526001600160a01b038216611b085760405162461bcd60e51b8152600401610bdb9190614b79565b50600f546040516001600160a01b038084169216907fe239974dad08ac696e723caf1886bd0b5afc0870088f9a1266082757f824927690600090a3600f80546001600160a01b0319166001600160a01b0392909216919091179055565b606060048054610e9390614ea2565b6000611b7f60025490565b1580611b905750611b8e611f81565b155b15611bad57611ba6670de0b6b3a76400006126e0565b9050610f14565b600254611bb8611f81565b611bca90670de0b6b3a7640000614e40565b610fae9190614d0c565b600e54604051639f2b283360e01b81526001600160a01b0383811660048301526000921690639f2b2833906024015b60206040518083038186803b158015611c1b57600080fd5b505afa158015611c2f573d6000803e3d6000fd5b505050506040513d601f19601f82011682018060405250810190611c539190614a3c565b92915050565b3360009081526001602090815260408083206001600160a01b038616845290915281205482811015611cdb5760405162461bcd60e51b815260206004820152602560248201527f45524332303a2064656372656173656420616c6c6f77616e63652062656c6f77604482015264207a65726f60d81b6064820152608401610bdb565b611cea338561135e8685614e5f565b5060019392505050565b6000610f24338484612d32565b600e546040805163b49a60bb60e01b815290516060926001600160a01b03169163b49a60bb916004808301926000929190829003018186803b158015610f7257600080fd5b600e54604051632d90c87b60e21b81526001600160a01b038381166004830152600092169063b64321ec90602401611c03565b600a546001600160a01b03163314611da35760405162461bcd60e51b8152600401610bdb90614c99565b6001600160a01b038116611df95760405162461bcd60e51b815260206004820152601960248201527f70726f706f7365642d676f7665726e6f722d69732d7a65726f000000000000006044820152606401610bdb565b600b80546001600160a01b0319166001600160a01b0392909216919091179055565b6002600c541415611e3e5760405162461bcd60e51b8152600401610bdb90614c42565b6002600c55600b54600160a01b900460ff1615611e6d5760405162461bcd60e51b8152600401610bdb90614c79565b6114488161309f565b600d546040516370a0823160e01b81523060048201526000916001600160a01b0316906370a082319060240160206040518083038186803b1580156113b557600080fd5b600a546001600160a01b03163314611ee45760405162461bcd60e51b8152600401610bdb90614c99565b604080518082019091526002815261031360f41b60208201526001600160a01b038216611f245760405162461bcd60e51b8152600401610bdb9190614b79565b506013546040516001600160a01b038084169216907f0f06062680f9bd68e786e9980d9bb03d73d5620fc3b345e417b6eacb310b970690600090a3601380546001600160a01b0319166001600160a01b0392909216919091179055565b6000611f8b611e76565b600e60009054906101000a90046001600160a01b03166001600160a01b031663fc7b9c186040518163ffffffff1660e01b815260040160206040518083038186803b158015611fd957600080fd5b505afa158015611fed573d6000803e3d6000fd5b505050506040513d601f19601f820116820180604052508101906120119190614a3c565b610fae9190614cf4565b8342111561206b5760405162461bcd60e51b815260206004820152601d60248201527f45524332305065726d69743a206578706972656420646561646c696e650000006044820152606401610bdb565b6001600160a01b0387811660008181526009602090815260408083205481517f6e71edae12b1b97f4d1f60370fef10105fa2faae0126114a169c64845d6126c98185015280830195909552948b166060850152608084018a905260a0840185905260c08085018a90528151808603909101815260e090940190528251920191909120906120f6612f65565b60405161190160f01b6020820152602281019190915260428101839052606201604051602081830303815290604052805190602001209050600061213c8288888861316b565b90508a6001600160a01b0316816001600160a01b03161461219f5760405162461bcd60e51b815260206004820152601e60248201527f45524332305065726d69743a20696e76616c6964207369676e617475726500006044820152606401610bdb565b6121aa846001614cf4565b6001600160a01b038c166000908152600960205260409020556121ce8b8b8b612c0d565b5050505050505050505050565b600e54604051636a9eee1360e11b81526001600160a01b038381166004830152600092169063d53ddc2690602401611c03565b600a546001600160a01b031633146122385760405162461bcd60e51b8152600401610bdb90614c99565b6013546040805180820190915260018152603760f81b6020820152906001600160a01b031661227a5760405162461bcd60e51b8152600401610bdb9190614b79565b50604080518082019091526002815261313160f01b60208201526127108211156122b75760405162461bcd60e51b8152600401610bdb9190614b79565b5060145460408051918252602082018390527f2bf847f5692332004b0f69e0d84a8f85ed020bcf8573b3ede68afc92009965bf910160405180910390a1601455565b600554610100900460ff1680612312575060055460ff16155b61232e5760405162461bcd60e51b8152600401610bdb90614bac565b600554610100900460ff16158015612350576005805461ffff19166101011790555b61235d8686868686613314565b80156119ca576005805461ff0019169055505050505050565b600e54604051633f89843760e11b8152336004820152602481018390526001600160a01b0390911690637f13086e906044015b600060405180830381600087803b1580156123c357600080fd5b505af11580156123d7573d6000803e3d6000fd5b5050505050565b6011546001600160a01b0316635dbe47e8336040516001600160e01b031960e084901b1681526001600160a01b03909116600482015260240160206040518083038186803b15801561242f57600080fd5b505afa158015612443573d6000803e3d6000fd5b505050506040513d601f19601f82011682018060405250810190612467919061490a565b6124835760405162461bcd60e51b8152600401610bdb90614bfa565b600d546040805180820190915260018152600760fb1b6020820152906001600160a01b03838116911614156124cb5760405162461bcd60e51b8152600401610bdb9190614b79565b506013546040805180820190915260018152603760f81b6020820152906001600160a01b031661250e5760405162461bcd60e51b8152600401610bdb9190614b79565b506013546040516370a0823160e01b81523060048201526125a3916001600160a01b0390811691908416906370a082319060240160206040518083038186803b15801561255a57600080fd5b505afa15801561256e573d6000803e3d6000fd5b505050506040513d601f19601f820116820180604052508101906125929190614a3c565b6001600160a01b0384169190612b6c565b50565b600b54600160a81b900460ff16156125d05760405162461bcd60e51b8152600401610bdb90614c20565b6002600c5414156125f35760405162461bcd60e51b8152600401610bdb90614c42565b6002600c556016805460ff1916600117905561260e81612e0d565b506016805460ff191690556001600c55565b600b546001600160a01b0316331461267a5760405162461bcd60e51b815260206004820152601960248201527f6e6f742d7468652d70726f706f7365642d676f7665726e6f72000000000000006044820152606401610bdb565b600b54600a546040516001600160a01b0392831692909116907fd4459d5b8b913cab0244230fd9b1c08b6ceace7fe9230e60d0f74cbffdf849d090600090a3600b8054600a80546001600160a01b03199081166001600160a01b03841617909155169055565b600060155482611c539190614d0c565b6011546001600160a01b0316635dbe47e8336040516001600160e01b031960e084901b1681526001600160a01b03909116600482015260240160206040518083038186803b15801561274157600080fd5b505afa158015612755573d6000803e3d6000fd5b505050506040513d601f19601f82011682018060405250810190612779919061490a565b6127955760405162461bcd60e51b8152600401610bdb90614bfa565b61153e61343d565b600e5460408051631f8f738360e31b815290516000926001600160a01b03169163fc7b9c18916004808301926020929190829003018186803b1580156113b557600080fd5b6011546001600160a01b0316635dbe47e8336040516001600160e01b031960e084901b1681526001600160a01b03909116600482015260240160206040518083038186803b15801561283357600080fd5b505afa158015612847573d6000803e3d6000fd5b505050506040513d601f19601f8201168201806040525081019061286b919061490a565b6128875760405162461bcd60e51b8152600401610bdb90614bfa565b61153e6134a4565b6002600c5414156128b25760405162461bcd60e51b8152600401610bdb90614c42565b6002600c55600b54600160a81b900460ff16156128e15760405162461bcd60e51b8152600401610bdb90614c20565b6010546001600160a01b0316635dbe47e8336040516001600160e01b031960e084901b1681526001600160a01b03909116600482015260240160206040518083038186803b15801561293257600080fd5b505afa158015612946573d6000803e3d6000fd5b505050506040513d601f19601f8201168201806040525081019061296a919061490a565b604051806040016040528060018152602001603560f81b815250906129a25760405162461bcd60e51b8152600401610bdb9190614b79565b5061144881613520565b600f546001600160a01b0316156125a357600f5460405163d279c19160e01b81526001600160a01b0383811660048301529091169063d279c191906024016123a9565b6040805180820190915260018152603160f81b602082015260009082612a285760405162461bcd60e51b8152600401610bdb9190614b79565b506000612a33611b74565b612a4584670de0b6b3a7640000614e40565b612a4f9190614d0c565b9050670de0b6b3a7640000612a62611b74565b612a6c9083614e40565b612a769190614d0c565b8311612a825780611369565b611369816001614cf4565b6001600160a01b038216612ae35760405162461bcd60e51b815260206004820152601f60248201527f45524332303a206d696e7420746f20746865207a65726f2061646472657373006044820152606401610bdb565b8060026000828254612af59190614cf4565b90915550506001600160a01b03821660009081526020819052604081208054839290612b22908490614cf4565b90915550506040518181526001600160a01b038316906000907fddf252ad1be2c89b69c2b068fc378daa952ba7f163c4a11628f55a4df523b3ef9060200160405180910390a35050565b6040516001600160a01b03831660248201526044810182905261110d90849063a9059cbb60e01b906064015b60408051601f198184030181529190526020810180516001600160e01b03166001600160e01b0319909316929092179091526135e9565b6040516001600160a01b0380851660248301528316604482015260648101829052612c079085906323b872dd60e01b90608401612b98565b50505050565b6001600160a01b038316612c6f5760405162461bcd60e51b8152602060048201526024808201527f45524332303a20617070726f76652066726f6d20746865207a65726f206164646044820152637265737360e01b6064820152608401610bdb565b6001600160a01b038216612cd05760405162461bcd60e51b815260206004820152602260248201527f45524332303a20617070726f766520746f20746865207a65726f206164647265604482015261737360f01b6064820152608401610bdb565b6001600160a01b0383811660008181526001602090815260408083209487168084529482529182902085905590518481527f8c5be1e5ebec7d5bd14f71427d1e84f3dd0314c0f7b2291e5b200ac8c7c3b92591015b60405180910390a3505050565b600f546001600160a01b031615612e0257600f5460405163632447c960e01b81526001600160a01b0385811660048301529091169063632447c990602401600060405180830381600087803b158015612d8a57600080fd5b505af1158015612d9e573d6000803e3d6000fd5b5050600f5460405163632447c960e01b81526001600160a01b038681166004830152909116925063632447c99150602401600060405180830381600087803b158015612de957600080fd5b505af1158015612dfd573d6000803e3d6000fd5b505050505b61110d8383836136bb565b601454612e2257612e1d81613520565b6125a3565b6040805180820190915260018152601960f91b602082015281612e585760405162461bcd60e51b8152600401610bdb9190614b79565b50612e6233610c11565b600061271060145483612e759190614e40565b612e7f9190614d0c565b90506000612e8d8284614e5f565b90506000612e9a82613893565b90506000612ea7826129ef565b9050612eb2836126e0565b612ebb826126e0565b1015612ef857601454612ed090612710614e5f565b612edc61271083614e40565b612ee69190614d0c565b9450612ef28186614e5f565b93508092505b612f03335b84613905565b612f19336013546001600160a01b031686612d32565b612f2282613a54565b50604080518681526020810184905233917ff279e6a1f5e320cca91135676d9cb6e44ca8a08c0b88342bcdb1144f6511b568910160405180910390a25050505050565b6000600854461415612f7a5750600654610f14565b6007546040805180820190915260018152603160f81b602090910152611ba6907f8b73c3c69bb8fe3d512ecc4cf759cc79239f7b179b0ffacaa9a75d522b39400f907fc89efdaa54c0f20c7adf612882df0950f5a951637e0307cdcb4c672f298b8bc6613ae4565b600b54600160a01b900460ff166130285760405162461bcd60e51b815260206004820152600a6024820152691b9bdd0b5c185d5cd95960b21b6044820152606401610bdb565b600b54600160a81b900460ff16156130525760405162461bcd60e51b8152600401610bdb90614c20565b600b805460ff60a01b191690557f5db9ee0a495bf2e6ff9c91a7834c1ba4fdd244a5e8aa4e537bd38aeae4b073aa335b6040516001600160a01b03909116815260200160405180910390a1565b6130a833610c11565b60006130b3826129ef565b90506130be82613b2d565b6130c733610c96565b604080518281526020810184905233917f90890809c654f11d6e72a28fa60149770a0d11ec6c92319d6ceb2bb0a4ea1a15910160405180910390a25050565b600b54600160a01b900460ff16156131305760405162461bcd60e51b8152600401610bdb90614c79565b600b805460ff60a01b1916600160a01b1790557f62e78cea01bee320cd4e420270b5ea74000d11b0c9f74754ebdbfc544b05a2586130823390565b60007f7fffffffffffffffffffffffffffffff5d576e7357a4501ddfe92f46681b20a08211156131e85760405162461bcd60e51b815260206004820152602260248201527f45434453413a20696e76616c6964207369676e6174757265202773272076616c604482015261756560f01b6064820152608401610bdb565b8360ff16601b14806131fd57508360ff16601c145b6132545760405162461bcd60e51b815260206004820152602260248201527f45434453413a20696e76616c6964207369676e6174757265202776272076616c604482015261756560f01b6064820152608401610bdb565b6040805160008082526020820180845288905260ff871692820192909252606081018590526080810184905260019060a0016020604051602081039080840390855afa1580156132a8573d6000803e3d6000fd5b5050604051601f1901519150506001600160a01b03811661330b5760405162461bcd60e51b815260206004820152601860248201527f45434453413a20696e76616c6964207369676e617475726500000000000000006044820152606401610bdb565b95945050505050565b600554610100900460ff168061332d575060055460ff16155b6133495760405162461bcd60e51b8152600401610bdb90614bac565b600554610100900460ff1615801561336b576005805461ffff19166101011790555b604080518082019091526002815261031360f41b60208201526001600160a01b0384166133ab5760405162461bcd60e51b8152600401610bdb9190614b79565b50604080518082019091526002815261031360f41b60208201526001600160a01b0383166133ec5760405162461bcd60e51b8152600401610bdb9190614b79565b506133f8868686613b45565b613400613cbd565b61340982613d6b565b600e80546001600160a01b0319166001600160a01b03851617905580156119ca576005805461ff0019169055505050505050565b600b54600160a81b900460ff16156134675760405162461bcd60e51b8152600401610bdb90614c20565b600b805461ffff60a01b191661010160a01b1790557f28b4c24cb1012c094cd2f59f98e89d791973295f8fda6eaa118022d6d318960a6130823390565b600b54600160a81b900460ff166134ec5760405162461bcd60e51b815260206004820152600c60248201526b3737ba16b9b43aba3237bbb760a11b6044820152606401610bdb565b600b805460ff60a81b191690557fece7583a70a505ef0e36d4dec768f5ae597713e09c26011022599ee01abdabfc33613082565b6040805180820190915260018152601960f91b6020820152816135565760405162461bcd60e51b8152600401610bdb9190614b79565b5061356033610c11565b600061356b82613893565b90506000613578826129ef565b9050613583836126e0565b61358c826126e0565b1015613596578092505b61359f33612efd565b6135a882613a54565b50604080518481526020810184905233917ff279e6a1f5e320cca91135676d9cb6e44ca8a08c0b88342bcdb1144f6511b568910160405180910390a2505050565b600061363e826040518060400160405280602081526020017f5361666545524332303a206c6f772d6c6576656c2063616c6c206661696c6564815250856001600160a01b03166140699092919063ffffffff16565b80519091501561110d578080602001905181019061365c919061490a565b61110d5760405162461bcd60e51b815260206004820152602a60248201527f5361666545524332303a204552433230206f7065726174696f6e20646964206e6044820152691bdd081cdd58d8d9595960b21b6064820152608401610bdb565b6001600160a01b03831661371f5760405162461bcd60e51b815260206004820152602560248201527f45524332303a207472616e736665722066726f6d20746865207a65726f206164604482015264647265737360d81b6064820152608401610bdb565b6001600160a01b0382166137815760405162461bcd60e51b815260206004820152602360248201527f45524332303a207472616e7366657220746f20746865207a65726f206164647260448201526265737360e81b6064820152608401610bdb565b6001600160a01b038316600090815260208190526040902054818110156137f95760405162461bcd60e51b815260206004820152602660248201527f45524332303a207472616e7366657220616d6f756e7420657863656564732062604482015265616c616e636560d01b6064820152608401610bdb565b6138038282614e5f565b6001600160a01b038086166000908152602081905260408082209390935590851681529081208054849290613839908490614cf4565b92505081905550826001600160a01b0316846001600160a01b03167fddf252ad1be2c89b69c2b068fc378daa952ba7f163c4a11628f55a4df523b3ef8460405161388591815260200190565b60405180910390a350505050565b600080670de0b6b3a76400006138a7611b74565b6138b19085614e40565b6138bb9190614d0c565b905060006138c7611e76565b9050808211156138ee576138e36138de8284614e5f565b614078565b6138eb611e76565b90505b8181106138fb57816138fd565b805b949350505050565b6001600160a01b0382166139655760405162461bcd60e51b815260206004820152602160248201527f45524332303a206275726e2066726f6d20746865207a65726f206164647265736044820152607360f81b6064820152608401610bdb565b6001600160a01b038216600090815260208190526040902054818110156139d95760405162461bcd60e51b815260206004820152602260248201527f45524332303a206275726e20616d6f756e7420657863656564732062616c616e604482015261636560f01b6064820152608401610bdb565b6139e38282614e5f565b6001600160a01b03841660009081526020819052604081209190915560028054849290613a11908490614e5f565b90915550506040518281526000906001600160a01b038516907fddf252ad1be2c89b69c2b068fc378daa952ba7f163c4a11628f55a4df523b3ef90602001612d25565b60165460009060ff1615613ad557600d54604051632e1a7d4d60e01b8152600481018490526001600160a01b0390911690632e1a7d4d90602401600060405180830381600087803b158015613aa857600080fd5b505af1158015613abc573d6000803e3d6000fd5b50505050613ad0613aca3390565b83614211565b613ae0565b613ade8261432a565b505b5090565b6040805160208101859052908101839052606081018290524660808201523060a082015260009060c0016040516020818303038152906040528051906020012090509392505050565b6125a333600d546001600160a01b0316903084612bcf565b600554610100900460ff1680613b5e575060055460ff16155b613b7a5760405162461bcd60e51b8152600401610bdb90614bac565b600554610100900460ff16158015613b9c576005805461ffff19166101011790555b604080518082019091526002815261031360f41b60208201526001600160a01b038316613bdc5760405162461bcd60e51b8152600401610bdb9190614b79565b50613be684614343565b613bef8361435a565b613bf88461436d565b600d80546001600160a01b0319166001600160a01b0384169081179091556040805163313ce56760e01b815290516000929163313ce567916004808301926020929190829003018186803b158015613c4f57600080fd5b505afa158015613c63573d6000803e3d6000fd5b505050506040513d601f19601f82011682018060405250810190613c879190614af4565b60ff169050613c97816012614e5f565b613ca290600a614d72565b601555508015612c07576005805461ff001916905550505050565b600554610100900460ff1680613cd6575060055460ff16155b613cf25760405162461bcd60e51b8152600401610bdb90614bac565b600554610100900460ff16158015613d14576005805461ffff19166101011790555b600a80546001600160a01b0319163390811790915560405181906000907fd4459d5b8b913cab0244230fd9b1c08b6ceace7fe9230e60d0f74cbffdf849d0908290a35080156125a3576005805461ff001916905550565b601154604080518082019091526002815261189960f11b6020820152906001600160a01b031615613daf5760405162461bcd60e51b8152600401610bdb9190614b79565b506000819050806001600160a01b0316630fab4d256040518163ffffffff1660e01b8152600401602060405180830381600087803b158015613df057600080fd5b505af1158015613e04573d6000803e3d6000fd5b505050506040513d601f19601f82011682018060405250810190613e2891906146be565b601060006101000a8154816001600160a01b0302191690836001600160a01b03160217905550806001600160a01b0316630fab4d256040518163ffffffff1660e01b8152600401602060405180830381600087803b158015613e8957600080fd5b505af1158015613e9d573d6000803e3d6000fd5b505050506040513d601f19601f82011682018060405250810190613ec191906146be565b601160006101000a8154816001600160a01b0302191690836001600160a01b03160217905550806001600160a01b0316630fab4d256040518163ffffffff1660e01b8152600401602060405180830381600087803b158015613f2257600080fd5b505af1158015613f36573d6000803e3d6000fd5b505050506040513d601f19601f82011682018060405250810190613f5a91906146be565b601280546001600160a01b0319166001600160a01b0392831617905560115416630a3b0a4f613f863390565b6040516001600160e01b031960e084901b1681526001600160a01b039091166004820152602401602060405180830381600087803b158015613fc757600080fd5b505af1158015613fdb573d6000803e3d6000fd5b505050506040513d601f19601f82011682018060405250810190613fff919061490a565b60405180604001604052806002815260200161313360f01b815250906140385760405162461bcd60e51b8152600401610bdb9190614b79565b50601254604051630a3b0a4f60e01b81523360048201526001600160a01b0390911690630a3b0a4f90602401611082565b60606138fd84846000856143ec565b6000808080848180614088610f2d565b805190915060005b818110156142055760008382815181106140ba57634e487b7160e01b600052603260045260246000fd5b602002602001015190506140cd81611bd4565b9950896140da57506141f3565b898611156140e6578995505b6140ee611e76565b604051632e1a7d4d60e01b8152600481018890529098506001600160a01b03821690632e1a7d4d90602401600060405180830381600087803b15801561413357600080fd5b505af1925050508015614144575060015b61414e57506141f3565b614156611e76565b9850614162888a614e5f565b600e54604051632fb9ba3160e01b81526001600160a01b03848116600483015260248201849052929950911690632fb9ba3190604401600060405180830381600087803b1580156141b257600080fd5b505af11580156141c6573d6000803e3d6000fd5b5050505086856141d69190614cf4565b94508a85106141e55750614205565b6141ef858c614e5f565b9550505b806141fd81614edd565b915050614090565b50505050505050505050565b804710156142615760405162461bcd60e51b815260206004820152601d60248201527f416464726573733a20696e73756666696369656e742062616c616e63650000006044820152606401610bdb565b6000826001600160a01b03168260405160006040518083038185875af1925050503d80600081146142ae576040519150601f19603f3d011682016040523d82523d6000602084013e6142b3565b606091505b505090508061110d5760405162461bcd60e51b815260206004820152603a60248201527f416464726573733a20756e61626c6520746f2073656e642076616c75652c207260448201527f6563697069656e74206d617920686176652072657665727465640000000000006064820152608401610bdb565b6000613ae033600d546001600160a01b03169084612b6c565b805161435690600390602084019061454d565b5050565b805161435690600490602084019061454d565b80516020808301919091206007819055466008556040805180820190915260018152603160f81b9201919091526143e6907f8b73c3c69bb8fe3d512ecc4cf759cc79239f7b179b0ffacaa9a75d522b39400f907fc89efdaa54c0f20c7adf612882df0950f5a951637e0307cdcb4c672f298b8bc6613ae4565b60065550565b60608247101561444d5760405162461bcd60e51b815260206004820152602660248201527f416464726573733a20696e73756666696369656e742062616c616e636520666f6044820152651c8818d85b1b60d21b6064820152608401610bdb565b843b61449b5760405162461bcd60e51b815260206004820152601d60248201527f416464726573733a2063616c6c20746f206e6f6e2d636f6e74726163740000006044820152606401610bdb565b600080866001600160a01b031685876040516144b79190614b10565b60006040518083038185875af1925050503d80600081146144f4576040519150601f19603f3d011682016040523d82523d6000602084013e6144f9565b606091505b5091509150614509828286614514565b979650505050505050565b60608315614523575081611369565b8251156145335782518084602001fd5b8160405162461bcd60e51b8152600401610bdb9190614b79565b82805461455990614ea2565b90600052602060002090601f01602090048101928261457b57600085556145c1565b82601f1061459457805160ff19168380011785556145c1565b828001600101855582156145c1579182015b828111156145c15782518255916020019190600101906145a6565b50613ae09291505b80821115613ae057600081556001016145c9565b60008083601f8401126145ee578182fd5b50813567ffffffffffffffff811115614605578182fd5b6020830191508360208260051b850101111561462057600080fd5b9250929050565b805180151581146119ec57600080fd5b600082601f830112614647578081fd5b813567ffffffffffffffff81111561466157614661614f0e565b614674601f8201601f1916602001614cc3565b818152846020838601011115614688578283fd5b816020850160208301379081016020019190915292915050565b6000602082840312156146b3578081fd5b813561136981614f24565b6000602082840312156146cf578081fd5b815161136981614f24565b600080604083850312156146ec578081fd5b82356146f781614f24565b9150602083013561470781614f24565b809150509250929050565b600080600060608486031215614726578081fd5b833561473181614f24565b9250602084013561474181614f24565b929592945050506040919091013590565b600080600080600080600060e0888a03121561476c578283fd5b873561477781614f24565b9650602088013561478781614f24565b9550604088013594506060880135935060808801356147a581614f39565b9699959850939692959460a0840135945060c09093013592915050565b600080604083850312156147d4578182fd5b82356147df81614f24565b946020939093013593505050565b60008060008060408587031215614802578384fd5b843567ffffffffffffffff80821115614819578586fd5b614825888389016145dd565b9096509450602087013591508082111561483d578384fd5b5061484a878288016145dd565b95989497509550505050565b60006020808385031215614868578182fd5b825167ffffffffffffffff8082111561487f578384fd5b818501915085601f830112614892578384fd5b8151818111156148a4576148a4614f0e565b8060051b91506148b5848301614cc3565b8181528481019084860184860187018a10156148cf578788fd5b8795505b838610156148fd57805194506148e885614f24565b848352600195909501949186019186016148d3565b5098975050505050505050565b60006020828403121561491b578081fd5b61136982614627565b600080600080600080600080610100898b031215614940578182fd5b61494989614627565b97506020890151965060408901519550606089015194506080890151935060a0890151925060c0890151915060e089015190509295985092959890939650565b600080600080600060a086880312156149a0578283fd5b853567ffffffffffffffff808211156149b7578485fd5b6149c389838a01614637565b965060208801359150808211156149d8578485fd5b506149e588828901614637565b94505060408601356149f681614f24565b92506060860135614a0681614f24565b91506080860135614a1681614f24565b809150509295509295909350565b600060208284031215614a35578081fd5b5035919050565b600060208284031215614a4d578081fd5b5051919050565b600080600060608486031215614a68578081fd5b505081359360208301359350604090920135919050565b600080600060608486031215614a93578081fd5b8351925060208401519150604084015190509250925092565b600080600080600060a08688031215614ac3578283fd5b85359450602086013593506040860135614adc81614f39565b94979396509394606081013594506080013592915050565b600060208284031215614b05578081fd5b815161136981614f39565b60008251614b22818460208701614e76565b9190910192915050565b6020808252825182820181905260009190848201906040850190845b81811015614b6d5783516001600160a01b031683529284019291840191600101614b48565b50909695505050505050565b6000602082528251806020840152614b98816040850160208701614e76565b601f01601f19169190910160400192915050565b6020808252602e908201527f496e697469616c697a61626c653a20636f6e747261637420697320616c72656160408201526d191e481a5b9a5d1a585b1a5e995960921b606082015260800190565b6020808252600c908201526b3737ba16b096b5b2b2b832b960a11b604082015260600190565b60208082526008908201526739b43aba3237bbb760c11b604082015260600190565b6020808252601f908201527f5265656e7472616e637947756172643a207265656e7472616e742063616c6c00604082015260600190565b6020808252600690820152651c185d5cd95960d21b604082015260600190565b60208082526010908201526f3737ba16ba343296b3b7bb32b93737b960811b604082015260600190565b604051601f8201601f1916810167ffffffffffffffff81118282101715614cec57614cec614f0e565b604052919050565b60008219821115614d0757614d07614ef8565b500190565b600082614d2757634e487b7160e01b81526012600452602481fd5b500490565b80825b6001808611614d3e5750614d69565b818704821115614d5057614d50614ef8565b80861615614d5d57918102915b9490941c938002614d2f565b94509492505050565b60006113696000198484600082614d8b57506001611369565b81614d9857506000611369565b8160018114614dae5760028114614db857614de5565b6001915050611369565b60ff841115614dc957614dc9614ef8565b6001841b915084821115614ddf57614ddf614ef8565b50611369565b5060208310610133831016604e8410600b8410161715614e18575081810a83811115614e1357614e13614ef8565b611369565b614e258484846001614d2c565b808604821115614e3757614e37614ef8565b02949350505050565b6000816000190483118215151615614e5a57614e5a614ef8565b500290565b600082821015614e7157614e71614ef8565b500390565b60005b83811015614e91578181015183820152602001614e79565b83811115612c075750506000910152565b600181811c90821680614eb657607f821691505b60208210811415614ed757634e487b7160e01b600052602260045260246000fd5b50919050565b6000600019821415614ef157614ef1614ef8565b5060010190565b634e487b7160e01b600052601160045260246000fd5b634e487b7160e01b600052604160045260246000fd5b6001600160a01b03811681146125a357600080fd5b60ff811681146125a357600080fdfea26469706673582212201aa7635c708f13848d894834932e9e9ba55e8760468a35f8f61148eee9e2a23e64736f6c63430008030033",
  "devdoc": {
    "kind": "dev",
    "methods": {
      "DOMAIN_SEPARATOR()": {
        "details": "See {IERC20Permit-DOMAIN_SEPARATOR}."
      },
      "acceptGovernorship()": {
        "details": "Allows new governor to accept governorship of the contract."
      },
      "addInList(address,address)": {
        "details": "Use it to add keeper in keepers list and to add address in feeWhitelist",
        "params": {
          "_addressToAdd": "address which we want to add in AddressList.",
          "_listToUpdate": "address of AddressList contract."
        }
      },
      "allowance(address,address)": {
        "details": "See {IERC20-allowance}."
      },
      "approve(address,uint256)": {
        "details": "See {IERC20-approve}. Requirements: - `spender` cannot be the zero address."
      },
      "availableCreditLimit(address)": {
        "details": "Available credit limit is calculated based on current debt of pool and strategy, current debt limit of pool and strategy. credit available = min(pool's debt limit, strategy's debt limit, max debt per rebalance) when some strategy do not pay back outstanding debt, this impact credit line of other strategy if totalDebt of pool >= debtLimit of pool",
        "params": {
          "_strategy": "Strategy address"
        }
      },
      "balanceOf(address)": {
        "details": "Returns the amount of tokens owned by `account`."
      },
      "convertFrom18(uint256)": {
        "details": "Convert from 18 decimals to token defined decimals."
      },
      "decimals()": {
        "details": "Returns the decimals of the token. default to 18"
      },
      "decreaseAllowance(address,uint256)": {
        "details": "Atomically decreases the allowance granted to `spender` by the caller. This is an alternative to {approve} that can be used as a mitigation for problems described in {IERC20-approve}. Emits an {Approval} event indicating the updated allowance. Requirements: - `spender` cannot be the zero address. - `spender` must have allowance for the caller of at least `subtractedValue`."
      },
      "deposit()": {
        "details": "Receives ETH and grants new tokens/shares to the sender depending on the value of pool's share."
      },
      "deposit(uint256)": {
        "params": {
          "_amount": "ERC20 token amount."
        }
      },
      "depositWithPermit(uint256,uint256,uint8,bytes32,bytes32)": {
        "params": {
          "_amount": "ERC20 token amount.",
          "_deadline": "The time at which signature will expire",
          "_r": "Half of the ECDSA signature pair",
          "_s": "Half of the ECDSA signature pair",
          "_v": "The recovery byte of the signature"
        }
      },
      "excessDebt(address)": {
        "params": {
          "_strategy": "Address of strategy"
        }
      },
      "increaseAllowance(address,uint256)": {
        "details": "Atomically increases the allowance granted to `spender` by the caller. This is an alternative to {approve} that can be used as a mitigation for problems described in {IERC20-approve}. Emits an {Approval} event indicating the updated allowance. Requirements: - `spender` cannot be the zero address."
      },
      "migrateStrategy(address,address)": {
        "details": "Migrating strategy aka old and new strategy should be of same type.",
        "params": {
          "_new": "Address of new strategy",
          "_old": "Address of strategy being migrated"
        }
      },
      "multiTransfer(address[],uint256[])": {
        "details": "Address array and amount array are 1:1 and are in order.",
        "params": {
          "_amounts": "array of token amounts",
          "_recipients": "array of recipient addresses"
        },
        "returns": {
          "_0": "true/false"
        }
      },
      "name()": {
        "details": "Returns the name of the token."
      },
      "permit(address,address,uint256,uint256,uint8,bytes32,bytes32)": {
        "details": "See {IERC20Permit-permit}."
      },
      "pricePerShare()": {
        "details": "Return value will be in token defined decimals."
      },
      "removeFromList(address,address)": {
        "details": "Use it to remove keeper from keepers list and to remove address from feeWhitelist",
        "params": {
          "_addressToRemove": "address which we want to remove from AddressList.",
          "_listToUpdate": "address of AddressList contract."
        }
      },
      "reportEarning(uint256,uint256,uint256)": {
        "details": "Strategy call this in regular interval.",
        "params": {
          "_loss": "Reduce debt ,also reduce debtRatio, increase loss in record.",
          "_payback": "strategy willing to payback outstanding above debtLimit. no performance fee on this amount.  when governance has reduced debtRatio of strategy, strategy will report profit and payback amount separately.",
          "_profit": "yield generated by strategy. Strategy get performance fee on this amount"
        }
      },
      "reportLoss(uint256)": {
        "details": "Some strategies pay deposit fee thus realizing loss at deposit. For example: Curve's 3pool has some slippage due to deposit of one asset in 3pool. Strategy may want report this loss instead of waiting for next rebalance.",
        "params": {
          "_loss": "Loss that strategy want to report"
        }
      },
      "sweepERC20(address)": {
        "details": "Transfer given ERC20 token to feeCollector",
        "params": {
          "_fromToken": "Token address to sweep"
        }
      },
      "symbol()": {
        "details": "Returns the symbol of the token, usually a shorter version of the name."
      },
      "tokensHere()": {
        "details": "Returns the token stored in the pool. It will be in token defined decimals."
      },
      "totalDebtOf(address)": {
        "params": {
          "_strategy": "Strategy address"
        }
      },
      "totalSupply()": {
        "details": "Returns total supply of the token."
      },
      "totalValue()": {
        "details": "Returns total value of vesper pool, in terms of collateral token"
      },
      "transfer(address,uint256)": {
        "details": "See {IERC20-transfer}. Requirements: - `recipient` cannot be the zero address. - the caller must have a balance of at least `amount`."
      },
      "transferFrom(address,address,uint256)": {
        "details": "See {IERC20-transferFrom}. Emits an {Approval} event indicating the updated allowance. This is not required by the EIP. See the note at the beginning of {ERC20}. Requirements: - `sender` and `recipient` cannot be the zero address. - `sender` must have a balance of at least `amount`. - the caller must have allowance for ``sender``'s tokens of at least `amount`."
      },
      "transferGovernorship(address)": {
        "details": "Transfers governorship of the contract to a new account (`proposedGovernor`). Can only be called by the current owner."
      },
      "updateFeeCollector(address)": {
        "params": {
          "_newFeeCollector": "new fee collector address"
        }
      },
      "updatePoolRewards(address)": {
        "params": {
          "_newPoolRewards": "new pool rewards address"
        }
      },
      "updateWithdrawFee(uint256)": {
        "details": "Format: 1500 = 15% fee, 100 = 1%",
        "params": {
          "_newWithdrawFee": "new withdraw fee"
        }
      },
      "whitelistedWithdraw(uint256)": {
        "details": "Burn shares and return collateral. No withdraw fee will be assessed when this function is called. Only some white listed address can call this function.",
        "params": {
          "_shares": "Pool shares. It will be in 18 decimals."
        }
      },
      "withdraw(uint256)": {
        "params": {
          "_shares": "Pool shares. It will be in 18 decimals."
        }
      },
      "withdrawETH(uint256)": {
        "details": "Burns tokens/shares and returns the ETH value, after fee, of those."
      }
    },
    "version": 1
  },
  "userdoc": {
    "kind": "user",
    "methods": {
      "addInList(address,address)": {
        "notice": "Add given address in provided address list."
      },
      "availableCreditLimit(address)": {
        "notice": "Get available credit limit of strategy. This is the amount strategy can borrow from pool"
      },
      "deposit(uint256)": {
        "notice": "Deposit ERC20 tokens and receive pool shares depending on the current share price."
      },
      "depositWithPermit(uint256,uint256,uint8,bytes32,bytes32)": {
        "notice": "Deposit ERC20 tokens with permit aka gasless approval."
      },
      "excessDebt(address)": {
        "notice": "Debt above current debt limit"
      },
      "migrateStrategy(address,address)": {
        "notice": "Migrate existing strategy to new strategy."
      },
      "multiTransfer(address[],uint256[])": {
        "notice": "Transfer tokens to multiple recipient"
      },
      "pricePerShare()": {
        "notice": "Get price per share"
      },
      "removeFromList(address,address)": {
        "notice": "Remove given address from provided address list."
      },
      "reportLoss(uint256)": {
        "notice": "Report loss outside of rebalance activity."
      },
      "totalDebt()": {
        "notice": "Get total debt of pool"
      },
      "totalDebtOf(address)": {
        "notice": "Get total debt of given strategy"
      },
      "totalDebtRatio()": {
        "notice": "Get total debt ratio. Total debt ratio helps us keep buffer in pool"
      },
      "updateFeeCollector(address)": {
        "notice": "Update fee collector address for this pool"
      },
      "updatePoolRewards(address)": {
        "notice": "Update pool rewards address for this pool"
      },
      "updateWithdrawFee(uint256)": {
        "notice": "Update withdraw fee for this pool"
      },
      "whitelistedWithdraw(uint256)": {
        "notice": "Withdraw collateral based on given shares and the current share price."
      },
      "withdraw(uint256)": {
        "notice": "Withdraw collateral based on given shares and the current share price. Withdraw fee, if any, will be deduced from given shares and transferred to feeCollector. Burn remaining shares and return collateral."
      }
    },
    "version": 1
  },
  "storageLayout": {
    "storage": [
      {
        "astId": 8262,
        "contract": "contracts/pool/VETH.sol:VETH",
        "label": "_balances",
        "offset": 0,
        "slot": "0",
        "type": "t_mapping(t_address,t_uint256)"
      },
      {
        "astId": 8268,
        "contract": "contracts/pool/VETH.sol:VETH",
        "label": "_allowances",
        "offset": 0,
        "slot": "1",
        "type": "t_mapping(t_address,t_mapping(t_address,t_uint256))"
      },
      {
        "astId": 8270,
        "contract": "contracts/pool/VETH.sol:VETH",
        "label": "_totalSupply",
        "offset": 0,
        "slot": "2",
        "type": "t_uint256"
      },
      {
        "astId": 8272,
        "contract": "contracts/pool/VETH.sol:VETH",
        "label": "_name",
        "offset": 0,
        "slot": "3",
        "type": "t_string_storage"
      },
      {
        "astId": 8274,
        "contract": "contracts/pool/VETH.sol:VETH",
        "label": "_symbol",
        "offset": 0,
        "slot": "4",
        "type": "t_string_storage"
      },
      {
        "astId": 887,
        "contract": "contracts/pool/VETH.sol:VETH",
        "label": "_initialized",
        "offset": 0,
        "slot": "5",
        "type": "t_bool"
      },
      {
        "astId": 890,
        "contract": "contracts/pool/VETH.sol:VETH",
        "label": "_initializing",
        "offset": 1,
        "slot": "5",
        "type": "t_bool"
      },
      {
        "astId": 8803,
        "contract": "contracts/pool/VETH.sol:VETH",
        "label": "_CACHED_DOMAIN_SEPARATOR",
        "offset": 0,
        "slot": "6",
        "type": "t_bytes32"
      },
      {
        "astId": 8805,
        "contract": "contracts/pool/VETH.sol:VETH",
        "label": "_HASHED_NAME",
        "offset": 0,
        "slot": "7",
        "type": "t_bytes32"
      },
      {
        "astId": 8807,
        "contract": "contracts/pool/VETH.sol:VETH",
        "label": "_CACHED_CHAIN_ID",
        "offset": 0,
        "slot": "8",
        "type": "t_uint256"
      },
      {
        "astId": 8813,
        "contract": "contracts/pool/VETH.sol:VETH",
        "label": "nonces",
        "offset": 0,
        "slot": "9",
        "type": "t_mapping(t_address,t_uint256)"
      },
      {
        "astId": 3732,
        "contract": "contracts/pool/VETH.sol:VETH",
        "label": "governor",
        "offset": 0,
        "slot": "10",
        "type": "t_address"
      },
      {
        "astId": 3734,
        "contract": "contracts/pool/VETH.sol:VETH",
        "label": "proposedGovernor",
        "offset": 0,
        "slot": "11",
        "type": "t_address"
      },
      {
        "astId": 3876,
        "contract": "contracts/pool/VETH.sol:VETH",
        "label": "paused",
        "offset": 20,
        "slot": "11",
        "type": "t_bool"
      },
      {
        "astId": 3878,
        "contract": "contracts/pool/VETH.sol:VETH",
        "label": "stopEverything",
        "offset": 21,
        "slot": "11",
        "type": "t_bool"
      },
      {
        "astId": 938,
        "contract": "contracts/pool/VETH.sol:VETH",
        "label": "_status",
        "offset": 0,
        "slot": "12",
        "type": "t_uint256"
      },
      {
        "astId": 10754,
        "contract": "contracts/pool/VETH.sol:VETH",
        "label": "token",
        "offset": 0,
        "slot": "13",
        "type": "t_contract(IERC20)1552"
      },
      {
        "astId": 10756,
        "contract": "contracts/pool/VETH.sol:VETH",
        "label": "poolAccountant",
        "offset": 0,
        "slot": "14",
        "type": "t_address"
      },
      {
        "astId": 10758,
        "contract": "contracts/pool/VETH.sol:VETH",
        "label": "poolRewards",
        "offset": 0,
        "slot": "15",
        "type": "t_address"
      },
      {
        "astId": 10760,
        "contract": "contracts/pool/VETH.sol:VETH",
        "label": "feeWhitelist",
        "offset": 0,
        "slot": "16",
        "type": "t_address"
      },
      {
        "astId": 10762,
        "contract": "contracts/pool/VETH.sol:VETH",
        "label": "keepers",
        "offset": 0,
        "slot": "17",
        "type": "t_address"
      },
      {
        "astId": 10764,
        "contract": "contracts/pool/VETH.sol:VETH",
        "label": "maintainers",
        "offset": 0,
        "slot": "18",
        "type": "t_address"
      },
      {
        "astId": 10766,
        "contract": "contracts/pool/VETH.sol:VETH",
        "label": "feeCollector",
        "offset": 0,
        "slot": "19",
        "type": "t_address"
      },
      {
        "astId": 10768,
        "contract": "contracts/pool/VETH.sol:VETH",
        "label": "withdrawFee",
        "offset": 0,
        "slot": "20",
        "type": "t_uint256"
      },
      {
        "astId": 10770,
        "contract": "contracts/pool/VETH.sol:VETH",
        "label": "decimalConversionFactor",
        "offset": 0,
        "slot": "21",
        "type": "t_uint256"
      },
      {
        "astId": 10772,
        "contract": "contracts/pool/VETH.sol:VETH",
        "label": "withdrawInETH",
        "offset": 0,
        "slot": "22",
        "type": "t_bool"
      }
    ],
    "types": {
      "t_address": {
        "encoding": "inplace",
        "label": "address",
        "numberOfBytes": "20"
      },
      "t_bool": {
        "encoding": "inplace",
        "label": "bool",
        "numberOfBytes": "1"
      },
      "t_bytes32": {
        "encoding": "inplace",
        "label": "bytes32",
        "numberOfBytes": "32"
      },
      "t_contract(IERC20)1552": {
        "encoding": "inplace",
        "label": "contract IERC20",
        "numberOfBytes": "20"
      },
      "t_mapping(t_address,t_mapping(t_address,t_uint256))": {
        "encoding": "mapping",
        "key": "t_address",
        "label": "mapping(address => mapping(address => uint256))",
        "numberOfBytes": "32",
        "value": "t_mapping(t_address,t_uint256)"
      },
      "t_mapping(t_address,t_uint256)": {
        "encoding": "mapping",
        "key": "t_address",
        "label": "mapping(address => uint256)",
        "numberOfBytes": "32",
        "value": "t_uint256"
      },
      "t_string_storage": {
        "encoding": "bytes",
        "label": "string",
        "numberOfBytes": "32"
      },
      "t_uint256": {
        "encoding": "inplace",
        "label": "uint256",
        "numberOfBytes": "32"
      }
    }
  }
}