{
  "address": "0x87201Cd1ad8c0e98d0f1C67aEbD3922E46F9dA0C",
  "abi": [
    {
      "inputs": [
        {
          "internalType": "address",
          "name": "_pool",
          "type": "address"
        },
        {
          "internalType": "address",
          "name": "_cm",
          "type": "address"
        },
        {
          "internalType": "address",
          "name": "_swapManager",
          "type": "address"
        }
      ],
      "stateMutability": "nonpayable",
      "type": "constructor"
    },
    {
      "anonymous": false,
      "inputs": [
        {
          "indexed": true,
          "internalType": "address",
          "name": "previousFeeCollector",
          "type": "address"
        },
        {
          "indexed": true,
          "internalType": "address",
          "name": "newFeeCollector",
          "type": "address"
        }
      ],
      "name": "UpdatedFeeCollector",
      "type": "event"
    },
    {
      "anonymous": false,
      "inputs": [
        {
          "indexed": true,
          "internalType": "address",
          "name": "previousSwapManager",
          "type": "address"
        },
        {
          "indexed": true,
          "internalType": "address",
          "name": "newSwapManager",
          "type": "address"
        }
      ],
      "name": "UpdatedSwapManager",
      "type": "event"
    },
    {
      "inputs": [],
      "name": "AAVE",
      "outputs": [
        {
          "internalType": "address",
          "name": "",
          "type": "address"
        }
      ],
      "stateMutability": "view",
      "type": "function"
    },
    {
      "inputs": [],
      "name": "NAME",
      "outputs": [
        {
          "internalType": "string",
          "name": "",
          "type": "string"
        }
      ],
      "stateMutability": "view",
      "type": "function"
    },
    {
      "inputs": [],
      "name": "VERSION",
      "outputs": [
        {
          "internalType": "string",
          "name": "",
          "type": "string"
        }
      ],
      "stateMutability": "view",
      "type": "function"
    },
    {
      "inputs": [],
      "name": "aaveAddressesProvider",
      "outputs": [
        {
          "internalType": "contract AaveLendingPoolAddressesProvider",
          "name": "",
          "type": "address"
        }
      ],
      "stateMutability": "view",
      "type": "function"
    },
    {
      "inputs": [],
      "name": "aaveIncentivesController",
      "outputs": [
        {
          "internalType": "contract AaveIncentivesController",
          "name": "",
          "type": "address"
        }
      ],
      "stateMutability": "view",
      "type": "function"
    },
    {
      "inputs": [],
      "name": "aaveLendingPool",
      "outputs": [
        {
          "internalType": "contract AaveLendingPool",
          "name": "",
          "type": "address"
        }
      ],
      "stateMutability": "view",
      "type": "function"
    },
    {
      "inputs": [],
      "name": "aaveProtocolDataProvider",
      "outputs": [
        {
          "internalType": "contract AaveProtocolDataProvider",
          "name": "",
          "type": "address"
        }
      ],
      "stateMutability": "view",
      "type": "function"
    },
    {
      "inputs": [
        {
          "internalType": "address",
          "name": "_keeperAddress",
          "type": "address"
        }
      ],
      "name": "addKeeper",
      "outputs": [],
      "stateMutability": "nonpayable",
      "type": "function"
    },
    {
      "inputs": [],
      "name": "approveToken",
      "outputs": [],
      "stateMutability": "nonpayable",
      "type": "function"
    },
    {
      "inputs": [],
      "name": "canStartCooldown",
      "outputs": [
        {
          "internalType": "bool",
          "name": "",
          "type": "bool"
        }
      ],
      "stateMutability": "view",
      "type": "function"
    },
    {
      "inputs": [],
      "name": "canUnstake",
      "outputs": [
        {
          "internalType": "bool",
          "name": "",
          "type": "bool"
        }
      ],
      "stateMutability": "view",
      "type": "function"
    },
    {
      "inputs": [],
      "name": "cm",
      "outputs": [
        {
          "internalType": "contract ICollateralManager",
          "name": "",
          "type": "address"
        }
      ],
      "stateMutability": "view",
      "type": "function"
    },
    {
      "inputs": [],
      "name": "collateralToken",
      "outputs": [
        {
          "internalType": "contract IERC20",
          "name": "",
          "type": "address"
        }
      ],
      "stateMutability": "view",
      "type": "function"
    },
    {
      "inputs": [],
      "name": "collateralType",
      "outputs": [
        {
          "internalType": "bytes32",
          "name": "",
          "type": "bytes32"
        }
      ],
      "stateMutability": "view",
      "type": "function"
    },
    {
      "inputs": [
        {
          "internalType": "uint256",
          "name": "amount",
          "type": "uint256"
        }
      ],
      "name": "convertFrom18",
      "outputs": [
        {
          "internalType": "uint256",
          "name": "",
          "type": "uint256"
        }
      ],
      "stateMutability": "pure",
      "type": "function"
    },
    {
      "inputs": [],
      "name": "cooldownData",
      "outputs": [
        {
          "internalType": "uint256",
          "name": "_cooldownStart",
          "type": "uint256"
        },
        {
          "internalType": "uint256",
          "name": "_cooldownEnd",
          "type": "uint256"
        },
        {
          "internalType": "uint256",
          "name": "_unstakeEnd",
          "type": "uint256"
        }
      ],
      "stateMutability": "view",
      "type": "function"
    },
    {
      "inputs": [],
      "name": "createVault",
      "outputs": [],
      "stateMutability": "nonpayable",
      "type": "function"
    },
    {
      "inputs": [],
      "name": "dripPeriod",
      "outputs": [
        {
          "internalType": "uint256",
          "name": "",
          "type": "uint256"
        }
      ],
      "stateMutability": "view",
      "type": "function"
    },
    {
      "inputs": [],
      "name": "feeCollector",
      "outputs": [
        {
          "internalType": "address",
          "name": "",
          "type": "address"
        }
      ],
      "stateMutability": "view",
      "type": "function"
    },
    {
      "inputs": [],
      "name": "highWater",
      "outputs": [
        {
          "internalType": "uint256",
          "name": "",
          "type": "uint256"
        }
      ],
      "stateMutability": "view",
      "type": "function"
    },
    {
      "inputs": [
        {
          "internalType": "address",
          "name": "_addressListFactory",
          "type": "address"
        }
      ],
      "name": "init",
      "outputs": [],
      "stateMutability": "nonpayable",
      "type": "function"
    },
    {
      "inputs": [
        {
          "internalType": "address",
          "name": "_token",
          "type": "address"
        }
      ],
      "name": "isReservedToken",
      "outputs": [
        {
          "internalType": "bool",
          "name": "",
          "type": "bool"
        }
      ],
      "stateMutability": "view",
      "type": "function"
    },
    {
      "inputs": [],
      "name": "isUnderwater",
      "outputs": [
        {
          "internalType": "bool",
          "name": "",
          "type": "bool"
        }
      ],
      "stateMutability": "view",
      "type": "function"
    },
    {
      "inputs": [],
      "name": "keepers",
      "outputs": [
        {
          "internalType": "contract IAddressList",
          "name": "",
          "type": "address"
        }
      ],
      "stateMutability": "view",
      "type": "function"
    },
    {
      "inputs": [],
      "name": "lowWater",
      "outputs": [
        {
          "internalType": "uint256",
          "name": "",
          "type": "uint256"
        }
      ],
      "stateMutability": "view",
      "type": "function"
    },
    {
      "inputs": [
        {
          "internalType": "address",
          "name": "_newStrategy",
          "type": "address"
        }
      ],
      "name": "migrate",
      "outputs": [],
      "stateMutability": "nonpayable",
      "type": "function"
    },
    {
      "inputs": [],
      "name": "pool",
      "outputs": [
        {
          "internalType": "address",
          "name": "",
          "type": "address"
        }
      ],
      "stateMutability": "view",
      "type": "function"
    },
    {
      "inputs": [],
      "name": "rebalance",
      "outputs": [],
      "stateMutability": "nonpayable",
      "type": "function"
    },
    {
      "inputs": [],
      "name": "receiptToken",
      "outputs": [
        {
          "internalType": "address",
          "name": "",
          "type": "address"
        }
      ],
      "stateMutability": "view",
      "type": "function"
    },
    {
      "inputs": [
        {
          "internalType": "address",
          "name": "_keeperAddress",
          "type": "address"
        }
      ],
      "name": "removeKeeper",
      "outputs": [],
      "stateMutability": "nonpayable",
      "type": "function"
    },
    {
      "inputs": [],
      "name": "resurface",
      "outputs": [],
      "stateMutability": "nonpayable",
      "type": "function"
    },
    {
      "inputs": [],
      "name": "startCooldown",
      "outputs": [
        {
          "internalType": "bool",
          "name": "",
          "type": "bool"
        }
      ],
      "stateMutability": "nonpayable",
      "type": "function"
    },
    {
      "inputs": [],
      "name": "stkAAVE",
      "outputs": [
        {
          "internalType": "contract StakedAave",
          "name": "",
          "type": "address"
        }
      ],
      "stateMutability": "view",
      "type": "function"
    },
    {
      "inputs": [],
      "name": "swapManager",
      "outputs": [
        {
          "internalType": "contract ISwapManager",
          "name": "",
          "type": "address"
        }
      ],
      "stateMutability": "view",
      "type": "function"
    },
    {
      "inputs": [
        {
          "internalType": "address",
          "name": "_fromToken",
          "type": "address"
        }
      ],
      "name": "sweepERC20",
      "outputs": [],
      "stateMutability": "nonpayable",
      "type": "function"
    },
    {
      "inputs": [],
      "name": "token",
      "outputs": [
        {
          "internalType": "address",
          "name": "",
          "type": "address"
        }
      ],
      "stateMutability": "view",
      "type": "function"
    },
    {
      "inputs": [],
      "name": "totalEarned",
      "outputs": [
        {
          "internalType": "uint256",
          "name": "",
          "type": "uint256"
        }
      ],
      "stateMutability": "view",
      "type": "function"
    },
    {
      "inputs": [],
      "name": "totalValue",
      "outputs": [
        {
          "internalType": "uint256",
          "name": "_totalValue",
          "type": "uint256"
        }
      ],
      "stateMutability": "view",
      "type": "function"
    },
    {
      "inputs": [],
      "name": "unstakeAave",
      "outputs": [],
      "stateMutability": "nonpayable",
      "type": "function"
    },
    {
      "inputs": [
        {
          "internalType": "uint256",
          "name": "_highWater",
          "type": "uint256"
        },
        {
          "internalType": "uint256",
          "name": "_lowWater",
          "type": "uint256"
        }
      ],
      "name": "updateBalancingFactor",
      "outputs": [],
      "stateMutability": "nonpayable",
      "type": "function"
    },
    {
      "inputs": [
        {
          "internalType": "uint256",
          "name": "_dripPeriod",
          "type": "uint256"
        }
      ],
      "name": "updateDripPeriod",
      "outputs": [],
      "stateMutability": "nonpayable",
      "type": "function"
    },
    {
      "inputs": [
        {
          "internalType": "address",
          "name": "_feeCollector",
          "type": "address"
        }
      ],
      "name": "updateFeeCollector",
      "outputs": [],
      "stateMutability": "nonpayable",
      "type": "function"
    },
    {
      "inputs": [
        {
          "internalType": "address",
          "name": "_swapManager",
          "type": "address"
        }
      ],
      "name": "updateSwapManager",
      "outputs": [],
      "stateMutability": "nonpayable",
      "type": "function"
    },
    {
      "inputs": [],
      "name": "vaultNum",
      "outputs": [
        {
          "internalType": "uint256",
          "name": "",
          "type": "uint256"
        }
      ],
      "stateMutability": "view",
      "type": "function"
    },
    {
      "inputs": [
        {
          "internalType": "uint256",
          "name": "_amount",
          "type": "uint256"
        }
      ],
      "name": "withdraw",
      "outputs": [],
      "stateMutability": "nonpayable",
      "type": "function"
    }
  ],
  "transactionHash": "0xa8afb378be267983a57574cda4d78ccf02314f8036b517c816008c523ee186e6",
  "args": [
    "0xA89566489E932a2d334b9eFF7884Feb21a07d2B3",
    "0x6846470150e5273C61f16c5FFB94Fff5Fed259DF",
    "0xB73A2A2FF72b112e8D2D324ba8Eca904ab9F24c4"
  ],
  "solcInputHash": "c3d492b34dbdb93ec393fc77342e476c",
  "bytecode": "0x6101a06040526202a300600055600780546001600160a01b03191673b53c1a33016b2dc2ff3653530bff1848a515c8c51790553480156200003f57600080fd5b506040516200571e3803806200571e8339810160408190526200006291620004ba565b82828273028171bca77440897b824ca71d1c56cac55b68a3644554482d4160d81b84848484848185858583858483836001600160a01b038316620000ed5760405162461bcd60e51b815260206004820152601460248201527f706f6f6c2d616464726573732d69732d7a65726f00000000000000000000000060448201526064015b60405180910390fd5b6001600160a01b0382166200013a5760405162461bcd60e51b8152602060048201526012602482015271736d2d616464726573732d69732d7a65726f60701b6044820152606401620000e4565b600480546001600160a01b0319166001600160a01b03848116919091178255606085901b6001600160601b03191660c05260408051637e062a3560e11b815290519186169263fc0c546a928282019260209290829003018186803b158015620001a257600080fd5b505afa158015620001b7573d6000803e3d6000fd5b505050506040513d601f19601f82011682018060405250810190620001dd919062000494565b6001600160601b0319606091821b811660805291901b1660a05250506001600160a01b038416620002465760405162461bcd60e51b8152602060048201526012602482015271636d2d616464726573732d69732d7a65726f60701b6044820152606401620000e4565b61010052505060601b6001600160601b03191660e052506001600160a01b038116620002b55760405162461bcd60e51b815260206004820152601660248201527f61546f6b656e2d616464726573732d69732d7a65726f000000000000000000006044820152606401620000e4565b806001600160a01b0316610180816001600160a01b031660601b81525050806001600160a01b03166375d264136040518163ffffffff1660e01b815260040160206040518083038186803b1580156200030d57600080fd5b505afa15801562000322573d6000803e3d6000fd5b505050506040513d601f19601f8201168201806040525081019062000348919062000494565b60601b6001600160601b0319166101605260075460408051630261bf8b60e01b815290516001600160a01b0390921691630261bf8b91600480820192602092909190829003018186803b1580156200039f57600080fd5b505afa158015620003b4573d6000803e3d6000fd5b505050506040513d601f19601f82011682018060405250810190620003da919062000494565b60601b6001600160601b031916610120526007546040516321f8a72160e01b8152600160f81b60048201526001600160a01b03909116906321f8a7219060240160206040518083038186803b1580156200043357600080fd5b505afa15801562000448573d6000803e3d6000fd5b505050506040513d601f19601f820116820180604052508101906200046e919062000494565b60601b6001600160601b0319166101405250620005269c50505050505050505050505050565b600060208284031215620004a6578081fd5b8151620004b3816200050d565b9392505050565b600080600060608486031215620004cf578182fd5b8351620004dc816200050d565b6020850151909350620004ef816200050d565b604085015190925062000502816200050d565b809150509250925092565b6001600160a01b03811681146200052357600080fd5b50565b60805160601c60a05160601c60c05160601c60e05160601c610100516101205160601c6101405160601c6101605160601c6101805160601c614fcb620007536000396000818161247d0152818161298a015281816140c00152614579015260008181610409015261412501526000818161043001526146180152600081816105dd01528181612f3201528181614027015261483b0152600081816105b6015261146d01526000818161049401528181610e820152818161114f0152818161149301528181611ec00152818161203e0152818161251d0152818161269a0152818161281801528181612d4001528181612dcd015281816132e6015281816133e00152818161357c015281816135f90152818161367701528181613782015281816137d601528181613b750152613cc10152600081816102ce0152818161068b015281816108c9015281816109ce01528181610de901528181610fb9015281816111ec0152818161139f015281816116d0015281816117f50152818161197201528181611a3b01528181611ccb0152818161240c0152818161291a01528181612b4701528181612be40152818161349b015261382a0152600081816106040152818161064101528181611b4f0152611bd301526000818161052801528181611c1d01528181611ca201528181611f87015281816121c201528181612436015281816125c401528181612ca0015281816134d4015281816137b401528181613808015261395d0152614fcb6000f3fe608060405234801561001057600080fd5b506004361061027f5760003560e01c80636dfa8d991161015c578063c415b95c116100ce578063e9d337b811610087578063e9d337b8146105d8578063ec78e832146105ff578063f51896f814610626578063fb589de21461062e578063fc0c546a1461063f578063ffa1ad74146106655761027f565b8063c415b95c1461055d578063ce5494bb14610570578063d2c35ce814610583578063d4c3eea014610596578063e00af4a71461059e578063e824600f146105b15761027f565b8063951dc22c11610120578063951dc22c146104b657806399b71d5c146104c9578063a3f4df7e146104d1578063b09e87971461051a578063b2016bd414610523578063b442bb231461054a5761027f565b80636dfa8d9914610462578063709d039d1461046b578063715064141461047e5780637d7c2a1c14610487578063931816201461048f5761027f565b80633e918261116101f55780634c36fad7116101b95780634c36fad7146103e95780635d12928b146103fc5780635f2475ca146104045780635f9d4d2e1461042b57806360a05a8514610452578063680ff4581461045a5761027f565b80633e918261146103985780634032b72b146103a0578063415eea1b146103b3578063440d7248146103bb57806348ccda3c146103ce5761027f565b806319ab453c1161024757806319ab453c1461030b5780631fc29c011461031e57806321fc6bb01461033357806325afda83146103565780632e1a7d4d1461036d5780632ecd89d4146103805761027f565b806308bfa40a1461028457806314ae9f2e146102b457806316f0115b146102c9578063189adf76146102f05780631960d116146102f8575b600080fd5b600754610297906001600160a01b031681565b6040516001600160a01b0390911681526020015b60405180910390f35b6102c76102c23660046149ce565b610689565b005b6102977f000000000000000000000000000000000000000000000000000000000000000081565b6102c7610818565b6102c7610306366004614bab565b6108c7565b6102c76103193660046149ce565b6109cc565b610297600080516020614f7683398151915281565b61033b610c46565b604080519384526020840192909252908201526060016102ab565b61035f60065481565b6040519081526020016102ab565b6102c761037b366004614bab565b610de6565b610388610e63565b60405190151581526020016102ab565b6102c7610f0a565b6102c76103ae3660046149ce565b610fb7565b61035f611137565b6103886103c93660046149ce565b6111d7565b610297737fc66500c84a76ad7e9c93437bfc5ac33e2ddae981565b6102c76103f73660046149ce565b6111ea565b6102c761139d565b6102977f000000000000000000000000000000000000000000000000000000000000000081565b6102977f000000000000000000000000000000000000000000000000000000000000000081565b610388611517565b61038861153a565b61035f60015481565b600454610297906001600160a01b031681565b61035f60005481565b6102c76115ea565b6102977f000000000000000000000000000000000000000000000000000000000000000081565b600254610297906001600160a01b031681565b6102c7611739565b61050d6040518060400160405280601c81526020017f4561726e2d416176652d4d616b65722d53747261746567792d4554480000000081525081565b6040516102ab9190614d54565b61035f60055481565b6102977f000000000000000000000000000000000000000000000000000000000000000081565b6102c7610558366004614bdb565b6117f3565b600354610297906001600160a01b031681565b6102c761057e3660046149ce565b61196f565b6102c76105913660046149ce565b611cc9565b61035f611e92565b6102c76105ac3660046149ce565b6120cb565b61035f7f000000000000000000000000000000000000000000000000000000000000000081565b6102977f000000000000000000000000000000000000000000000000000000000000000081565b6102977f000000000000000000000000000000000000000000000000000000000000000081565b610388612366565b61035f61063c366004614bab565b90565b7f0000000000000000000000000000000000000000000000000000000000000000610297565b61050d60405180604001604052806005815260200164332e302e3560d81b81525081565b7f00000000000000000000000000000000000000000000000000000000000000006001600160a01b0316630c340a246040518163ffffffff1660e01b815260040160206040518083038186803b1580156106e257600080fd5b505afa1580156106f6573d6000803e3d6000fd5b505050506040513d601f19601f8201168201806040525081019061071a91906149ea565b6001600160a01b0316336001600160a01b0316146107535760405162461bcd60e51b815260040161074a90614db7565b60405180910390fd5b600254604051631484968760e11b81526001600160a01b038381166004830152909116906329092d0e90602401602060405180830381600087803b15801561079a57600080fd5b505af11580156107ae573d6000803e3d6000fd5b505050506040513d601f19601f820116820180604052508101906107d29190614b2c565b6108155760405162461bcd60e51b81526020600482015260146024820152731c995b5bdd994b5ad9595c195c8b59985a5b195960621b604482015260640161074a565b50565b6002546001600160a01b0316635dbe47e8336040516001600160e01b031960e084901b1681526001600160a01b03909116600482015260240160206040518083038186803b15801561086957600080fd5b505afa15801561087d573d6000803e3d6000fd5b505050506040513d601f19601f820116820180604052508101906108a19190614b2c565b6108bd5760405162461bcd60e51b815260040161074a90614d87565b6108c5612382565b565b7f00000000000000000000000000000000000000000000000000000000000000006001600160a01b0316630c340a246040518163ffffffff1660e01b815260040160206040518083038186803b15801561092057600080fd5b505afa158015610934573d6000803e3d6000fd5b505050506040513d601f19601f8201168201806040525081019061095891906149ea565b6001600160a01b0316336001600160a01b0316146109885760405162461bcd60e51b815260040161074a90614db7565b806109c75760405162461bcd60e51b815260206004820152600f60248201526e64726970506572696f642d7a65726f60881b604482015260640161074a565b600055565b7f00000000000000000000000000000000000000000000000000000000000000006001600160a01b0316630c340a246040518163ffffffff1660e01b815260040160206040518083038186803b158015610a2557600080fd5b505afa158015610a39573d6000803e3d6000fd5b505050506040513d601f19601f82011682018060405250810190610a5d91906149ea565b6001600160a01b0316336001600160a01b031614610a8d5760405162461bcd60e51b815260040161074a90614db7565b6002546001600160a01b031615610ae65760405162461bcd60e51b815260206004820152601b60248201527f6b65657065722d6c6973742d616c72656164792d637265617465640000000000604482015260640161074a565b6000819050806001600160a01b0316630fab4d256040518163ffffffff1660e01b8152600401602060405180830381600087803b158015610b2657600080fd5b505af1158015610b3a573d6000803e3d6000fd5b505050506040513d601f19601f82011682018060405250810190610b5e91906149ea565b600280546001600160a01b0319166001600160a01b03929092169182179055630a3b0a4f610b893390565b6040516001600160e01b031960e084901b1681526001600160a01b039091166004820152602401602060405180830381600087803b158015610bca57600080fd5b505af1158015610bde573d6000803e3d6000fd5b505050506040513d601f19601f82011682018060405250810190610c029190614b2c565b610c425760405162461bcd60e51b81526020600482015260116024820152701859190b5ad9595c195c8b59985a5b1959607a1b604482015260640161074a565b5050565b60405163091030c360e01b815230600482015260009081908190600080516020614f768339815191529063091030c39060240160206040518083038186803b158015610c9157600080fd5b505afa158015610ca5573d6000803e3d6000fd5b505050506040513d601f19601f82011682018060405250810190610cc99190614bc3565b9250600080516020614f768339815191526001600160a01b03166372b49d636040518163ffffffff1660e01b815260040160206040518083038186803b158015610d1257600080fd5b505afa158015610d26573d6000803e3d6000fd5b505050506040513d601f19601f82011682018060405250810190610d4a9190614bc3565b610d549084614e7f565b9150600080516020614f768339815191526001600160a01b031663359c4a966040518163ffffffff1660e01b815260040160206040518083038186803b158015610d9d57600080fd5b505afa158015610db1573d6000803e3d6000fd5b505050506040513d601f19601f82011682018060405250810190610dd59190614bc3565b610ddf9083614e7f565b9050909192565b337f00000000000000000000000000000000000000000000000000000000000000006001600160a01b031614610e5a5760405162461bcd60e51b815260206004820152601960248201527818d85b1b195c8b5a5ccb5b9bdd0b5d995cdc195c8b5c1bdbdb603a1b604482015260640161074a565b610815816123ea565b6000610e6d612465565b60405163c0af0d3b60e01b81523060048201527f00000000000000000000000000000000000000000000000000000000000000006001600160a01b03169063c0af0d3b9060240160206040518083038186803b158015610ecc57600080fd5b505afa158015610ee0573d6000803e3d6000fd5b505050506040513d601f19601f82011682018060405250810190610f049190614bc3565b11905090565b6002546001600160a01b0316635dbe47e8336040516001600160e01b031960e084901b1681526001600160a01b03909116600482015260240160206040518083038186803b158015610f5b57600080fd5b505afa158015610f6f573d6000803e3d6000fd5b505050506040513d601f19601f82011682018060405250810190610f939190614b2c565b610faf5760405162461bcd60e51b815260040161074a90614d87565b6108c56124b4565b7f00000000000000000000000000000000000000000000000000000000000000006001600160a01b0316630c340a246040518163ffffffff1660e01b815260040160206040518083038186803b15801561101057600080fd5b505afa158015611024573d6000803e3d6000fd5b505050506040513d601f19601f8201168201806040525081019061104891906149ea565b6001600160a01b0316336001600160a01b0316146110785760405162461bcd60e51b815260040161074a90614db7565b600254604051630a3b0a4f60e01b81526001600160a01b03838116600483015290911690630a3b0a4f90602401602060405180830381600087803b1580156110bf57600080fd5b505af11580156110d3573d6000803e3d6000fd5b505050506040513d601f19601f820116820180604052508101906110f79190614b2c565b6108155760405162461bcd60e51b81526020600482015260116024820152701859190b5ad9595c195c8b59985a5b1959607a1b604482015260640161074a565b60405163cd1adb6160e01b81523060048201526000907f00000000000000000000000000000000000000000000000000000000000000006001600160a01b03169063cd1adb61906024015b60206040518083038186803b15801561119a57600080fd5b505afa1580156111ae573d6000803e3d6000fd5b505050506040513d601f19601f820116820180604052508101906111d29190614bc3565b905090565b60006111e282612986565b90505b919050565b7f00000000000000000000000000000000000000000000000000000000000000006001600160a01b0316630c340a246040518163ffffffff1660e01b815260040160206040518083038186803b15801561124357600080fd5b505afa158015611257573d6000803e3d6000fd5b505050506040513d601f19601f8201168201806040525081019061127b91906149ea565b6001600160a01b0316336001600160a01b0316146112ab5760405162461bcd60e51b815260040161074a90614db7565b6001600160a01b0381166112f65760405162461bcd60e51b8152602060048201526012602482015271736d2d616464726573732d69732d7a65726f60701b604482015260640161074a565b6004546001600160a01b03828116911614156113415760405162461bcd60e51b815260206004820152600a602482015269736d2d69732d73616d6560b01b604482015260640161074a565b6004546040516001600160a01b038084169216907f2d19927e7cac08ceb98b38898a4fdff6da6a27295b9a2d62fe250408ebe044e190600090a3600480546001600160a01b0319166001600160a01b0392909216919091179055565b7f00000000000000000000000000000000000000000000000000000000000000006001600160a01b0316630c340a246040518163ffffffff1660e01b815260040160206040518083038186803b1580156113f657600080fd5b505afa15801561140a573d6000803e3d6000fd5b505050506040513d601f19601f8201168201806040525081019061142e91906149ea565b6001600160a01b0316336001600160a01b03161461145e5760405162461bcd60e51b815260040161074a90614db7565b604051630bbccf9b60e11b81527f000000000000000000000000000000000000000000000000000000000000000060048201527f00000000000000000000000000000000000000000000000000000000000000006001600160a01b0316906317799f3690602401602060405180830381600087803b1580156114df57600080fd5b505af11580156114f3573d6000803e3d6000fd5b505050506040513d601f19601f820116820180604052508101906108159190614bc3565b6000806000611524610c46565b92505091506115338282612a07565b9250505090565b6002546000906001600160a01b0316635dbe47e8336040516001600160e01b031960e084901b1681526001600160a01b03909116600482015260240160206040518083038186803b15801561158e57600080fd5b505afa1580156115a2573d6000803e3d6000fd5b505050506040513d601f19601f820116820180604052508101906115c69190614b2c565b6115e25760405162461bcd60e51b815260040161074a90614d87565b6111d2612aa2565b6002546001600160a01b0316635dbe47e8336040516001600160e01b031960e084901b1681526001600160a01b03909116600482015260240160206040518083038186803b15801561163b57600080fd5b505afa15801561164f573d6000803e3d6000fd5b505050506040513d601f19601f820116820180604052508101906116739190614b2c565b61168f5760405162461bcd60e51b815260040161074a90614d87565b600080600061169c612b21565b6040516302df682360e11b815260048101849052602481018390526044810182905292955090935091506001600160a01b037f000000000000000000000000000000000000000000000000000000000000000016906305bed04690606401600060405180830381600087803b15801561171457600080fd5b505af1158015611728573d6000803e3d6000fd5b50505050611734612c88565b505050565b6002546001600160a01b0316635dbe47e8336040516001600160e01b031960e084901b1681526001600160a01b03909116600482015260240160206040518083038186803b15801561178a57600080fd5b505afa15801561179e573d6000803e3d6000fd5b505050506040513d601f19601f820116820180604052508101906117c29190614b2c565b6117de5760405162461bcd60e51b815260040161074a90614d87565b6117e86000612f0f565b6108c5600019612f0f565b7f00000000000000000000000000000000000000000000000000000000000000006001600160a01b0316630c340a246040518163ffffffff1660e01b815260040160206040518083038186803b15801561184c57600080fd5b505afa158015611860573d6000803e3d6000fd5b505050506040513d601f19601f8201168201806040525081019061188491906149ea565b6001600160a01b0316336001600160a01b0316146118b45760405162461bcd60e51b815260040161074a90614db7565b806118f45760405162461bcd60e51b815260206004820152601060248201526f6c6f7757617465722d69732d7a65726f60801b604482015260640161074a565b8082116119435760405162461bcd60e51b815260206004820152601c60248201527f6869676857617465722d6c6573732d7468616e2d6c6f77576174657200000000604482015260640161074a565b611954662386f26fc1000083614eb7565b600555611968662386f26fc1000082614eb7565b6006555050565b337f00000000000000000000000000000000000000000000000000000000000000006001600160a01b0316146119e35760405162461bcd60e51b815260206004820152601960248201527818d85b1b195c8b5a5ccb5b9bdd0b5d995cdc195c8b5c1bdbdb603a1b604482015260640161074a565b6001600160a01b038116611a395760405162461bcd60e51b815260206004820152601c60248201527f6e65772d73747261746567792d616464726573732d69732d7a65726f00000000604482015260640161074a565b7f00000000000000000000000000000000000000000000000000000000000000006001600160a01b0316816001600160a01b03166316f0115b6040518163ffffffff1660e01b815260040160206040518083038186803b158015611a9c57600080fd5b505afa158015611ab0573d6000803e3d6000fd5b505050506040513d601f19601f82011682018060405250810190611ad491906149ea565b6001600160a01b031614611b235760405162461bcd60e51b81526020600482015260166024820152756e6f742d76616c69642d6e65772d737472617465677960501b604482015260640161074a565b611b2c81613089565b6040516370a0823160e01b8152306004820152611bfa9082906001600160a01b037f000000000000000000000000000000000000000000000000000000000000000016906370a082319060240160206040518083038186803b158015611b9157600080fd5b505afa158015611ba5573d6000803e3d6000fd5b505050506040513d601f19601f82011682018060405250810190611bc99190614bc3565b6001600160a01b037f0000000000000000000000000000000000000000000000000000000000000000169190613126565b6040516370a0823160e01b81523060048201526108159082906001600160a01b037f000000000000000000000000000000000000000000000000000000000000000016906370a08231906024015b60206040518083038186803b158015611c6057600080fd5b505afa158015611c74573d6000803e3d6000fd5b505050506040513d601f19601f82011682018060405250810190611c989190614bc3565b6001600160a01b037f0000000000000000000000000000000000000000000000000000000000000000169190613126565b7f00000000000000000000000000000000000000000000000000000000000000006001600160a01b0316630c340a246040518163ffffffff1660e01b815260040160206040518083038186803b158015611d2257600080fd5b505afa158015611d36573d6000803e3d6000fd5b505050506040513d601f19601f82011682018060405250810190611d5a91906149ea565b6001600160a01b0316336001600160a01b031614611d8a5760405162461bcd60e51b815260040161074a90614db7565b6001600160a01b038116611de05760405162461bcd60e51b815260206004820152601d60248201527f6665652d636f6c6c6563746f722d616464726573732d69732d7a65726f000000604482015260640161074a565b6003546001600160a01b0382811691161415611e365760405162461bcd60e51b81526020600482015260156024820152746665652d636f6c6c6563746f722d69732d73616d6560581b604482015260640161074a565b6003546040516001600160a01b038084169216907f0f06062680f9bd68e786e9980d9bb03d73d5620fc3b345e417b6eacb310b970690600090a3600380546001600160a01b0319166001600160a01b0392909216919091179055565b600080611e9d612465565b60405163c0af0d3b60e01b81523060048201529091506000906001600160a01b037f0000000000000000000000000000000000000000000000000000000000000000169063c0af0d3b9060240160206040518083038186803b158015611f0257600080fd5b505afa158015611f16573d6000803e3d6000fd5b505050506040513d601f19601f82011682018060405250810190611f3a9190614bc3565b905080821115612025576000611f508284614ed6565b600480546040516340b4c54560e11b8152736b175474e89094c44da98b954eedeac495271d0f928101929092526001600160a01b037f000000000000000000000000000000000000000000000000000000000000000081166024840152604483018490526000606484015292935091909116906381698a8a9060840160006040518083038186803b158015611fe457600080fd5b505afa158015611ff8573d6000803e3d6000fd5b505050506040513d6000823e601f3d908101601f191682016040526120209190810190614a06565b945050505b6040516369ebe00160e11b81523060048201526120c1907f00000000000000000000000000000000000000000000000000000000000000006001600160a01b03169063d3d7c002906024015b60206040518083038186803b15801561208957600080fd5b505afa15801561209d573d6000803e3d6000fd5b505050506040513d601f19601f8201168201806040525081019061063c9190614bc3565b6115339084614e7f565b6002546001600160a01b0316635dbe47e8336040516001600160e01b031960e084901b1681526001600160a01b03909116600482015260240160206040518083038186803b15801561211c57600080fd5b505afa158015612130573d6000803e3d6000fd5b505050506040513d601f19601f820116820180604052508101906121549190614b2c565b6121705760405162461bcd60e51b815260040161074a90614d87565b6003546001600160a01b03166121c05760405162461bcd60e51b81526020600482015260156024820152741999594b58dbdb1b1958dd1bdc8b5b9bdd0b5cd95d605a1b604482015260640161074a565b7f00000000000000000000000000000000000000000000000000000000000000006001600160a01b0316816001600160a01b031614156122425760405162461bcd60e51b815260206004820152601f60248201527f6e6f742d616c6c6f7765642d746f2d73776565702d636f6c6c61746572616c00604482015260640161074a565b61224b816111d7565b1561228f5760405162461bcd60e51b815260206004820152601460248201527306e6f742d616c6c6f7765642d746f2d73776565760641b604482015260640161074a565b6001600160a01b03811673eeeeeeeeeeeeeeeeeeeeeeeeeeeeeeeeeeeeeeee14156122cf576003546122ca906001600160a01b031647613189565b610815565b6040516370a0823160e01b81523060048201526000906001600160a01b038316906370a082319060240160206040518083038186803b15801561231157600080fd5b505afa158015612325573d6000803e3d6000fd5b505050506040513d601f19601f820116820180604052508101906123499190614bc3565b600354909150610c42906001600160a01b03848116911683613126565b6000806000612373610c46565b925092505061153382826132a2565b6040516301e9a69560e41b81523060048201526000196024820152600080516020614f7683398151915290631e9a695090604401600060405180830381600087803b1580156123d057600080fd5b505af11580156123e4573d6000803e3d6000fd5b50505050565b6123f3816132b7565b6040516370a0823160e01b8152306004820152610815907f0000000000000000000000000000000000000000000000000000000000000000906001600160a01b037f000000000000000000000000000000000000000000000000000000000000000016906370a0823190602401611c48565b6040516370a0823160e01b81523060048201526000907f00000000000000000000000000000000000000000000000000000000000000006001600160a01b0316906370a0823190602401611182565b6124bc610e63565b6124fe5760405162461bcd60e51b81526020600482015260136024820152723837b7b616b4b996b0b137bb3296bbb0ba32b960691b604482015260640161074a565b6000612508612465565b60405163c0af0d3b60e01b81523060048201527f00000000000000000000000000000000000000000000000000000000000000006001600160a01b03169063c0af0d3b9060240160206040518083038186803b15801561256757600080fd5b505afa15801561257b573d6000803e3d6000fd5b505050506040513d601f19601f8201168201806040525081019061259f9190614bc3565b6125a99190614ed6565b60048054604051637a6f237b60e11b81526001600160a01b037f0000000000000000000000000000000000000000000000000000000000000000811693820193909352736b175474e89094c44da98b954eedeac495271d0f60248201526044810184905292935060009283928392169063f4de46f69060640160006040518083038186803b15801561263a57600080fd5b505afa15801561264e573d6000803e3d6000fd5b505050506040513d6000823e601f3d908101601f191682016040526126769190810190614a4b565b925092509250816000146123e4576040516330897f1760e11b8152600481018390527f00000000000000000000000000000000000000000000000000000000000000006001600160a01b031690636112fe2e90602401600060405180830381600087803b1580156126e657600080fd5b505af11580156126fa573d6000803e3d6000fd5b505060048054604051636e74a6f760e01b81529182018590526001600160a01b03169250636e74a6f7915060240160206040518083038186803b15801561274057600080fd5b505afa158015612754573d6000803e3d6000fd5b505050506040513d601f19601f8201168201806040525081019061277891906149ea565b6001600160a01b03166338ed17398360018630426040518663ffffffff1660e01b81526004016127ac959493929190614dee565b600060405180830381600087803b1580156127c657600080fd5b505af11580156127da573d6000803e3d6000fd5b505050506040513d6000823e601f3d908101601f191682016040526128029190810190614a99565b506040516370a0823160e01b81523060048201527f00000000000000000000000000000000000000000000000000000000000000006001600160a01b03169063a846c2fd90736b175474e89094c44da98b954eedeac495271d0f906370a082319060240160206040518083038186803b15801561287e57600080fd5b505afa158015612892573d6000803e3d6000fd5b505050506040513d601f19601f820116820180604052508101906128b69190614bc3565b6040518263ffffffff1660e01b81526004016128d491815260200190565b600060405180830381600087803b1580156128ee57600080fd5b505af1158015612902573d6000803e3d6000fd5b50506040516306eeb69360e51b8152600481018790527f00000000000000000000000000000000000000000000000000000000000000006001600160a01b0316925063ddd6d2609150602401600060405180830381600087803b15801561296857600080fd5b505af115801561297c573d6000803e3d6000fd5b5050505050505050565b60007f00000000000000000000000000000000000000000000000000000000000000006001600160a01b0316826001600160a01b031614806129e457506001600160a01b038216737fc66500c84a76ad7e9c93437bfc5ac33e2ddae9145b806111e25750506001600160a01b0316600080516020614f768339815191521490565b6040516370a0823160e01b8152306004820152600090600080516020614f76833981519152906370a082319060240160206040518083038186803b158015612a4e57600080fd5b505afa158015612a62573d6000803e3d6000fd5b505050506040513d601f19601f82011682018060405250810190612a869190614bc3565b15801590612a9b5750821580612a9b57508142115b9392505050565b6000612aac611517565b15612b1b57600080516020614f768339815191526001600160a01b031663787a08a66040518163ffffffff1660e01b8152600401600060405180830381600087803b158015612afa57600080fd5b505af1158015612b0e573d6000803e3d6000fd5b505050506001905061063c565b50600090565b604051636a9eee1360e11b81523060048201526000908190819081906001600160a01b037f0000000000000000000000000000000000000000000000000000000000000000169063d53ddc269060240160206040518083038186803b158015612b8957600080fd5b505afa158015612b9d573d6000803e3d6000fd5b505050506040513d601f19601f82011682018060405250810190612bc19190614bc3565b604051639f2b283360e01b81523060048201529091506000906001600160a01b037f00000000000000000000000000000000000000000000000000000000000000001690639f2b28339060240160206040518083038186803b158015612c2657600080fd5b505afa158015612c3a573d6000803e3d6000fd5b505050506040513d601f19601f82011682018060405250810190612c5e9190614bc3565b9050612c698161344c565b9450612c7481613556565b9350612c7f826135c5565b92505050909192565b6040516370a0823160e01b81523060048201526000907f00000000000000000000000000000000000000000000000000000000000000006001600160a01b0316906370a082319060240160206040518083038186803b158015612cea57600080fd5b505afa158015612cfe573d6000803e3d6000fd5b505050506040513d601f19601f82011682018060405250810190612d229190614bc3565b90508015612da55760405163bad4a01f60e01b8152600481018290527f00000000000000000000000000000000000000000000000000000000000000006001600160a01b03169063bad4a01f90602401600060405180830381600087803b158015612d8c57600080fd5b505af1158015612da0573d6000803e3d6000fd5b505050505b6040516390229af760e01b815230600482015260009081908190819081906001600160a01b037f000000000000000000000000000000000000000000000000000000000000000016906390229af79060240160a06040518083038186803b158015612e0f57600080fd5b505afa158015612e23573d6000803e3d6000fd5b505050506040513d601f19601f82011682018060405250810190612e479190614bfc565b9450945094509450945060006005548487612e629190614eb7565b612e6c9190614e97565b905081811015612e8457612e7f856135d4565b612f06565b600554831115612eea57612e96610e63565b15612ed85760405162461bcd60e51b81526020600482015260126024820152713837b7b616b4b996bab73232b93bb0ba32b960711b604482015260640161074a565b612e7f612ee58683614ed6565b613661565b600654831015612f0657612f06612f018287614ed6565b6135d4565b50505050505050565b612f1881613768565b612f57736b175474e89094c44da98b954eedeac495271d0f7f000000000000000000000000000000000000000000000000000000000000000083613a32565b60005b600480546040805163c2fba66760e01b815290516001600160a01b039092169263c2fba667928282019260209290829003018186803b158015612f9c57600080fd5b505afa158015612fb0573d6000803e3d6000fd5b505050506040513d601f19601f82011682018060405250810190612fd49190614bc3565b811015610c425760048054604051636e74a6f760e01b8152918201839052613077916001600160a01b0390911690636e74a6f79060240160206040518083038186803b15801561302357600080fd5b505afa158015613037573d6000803e3d6000fd5b505050506040513d601f19601f8201168201806040525081019061305b91906149ea565b737fc66500c84a76ad7e9c93437bfc5ac33e2ddae99084613a32565b8061308181614f19565b915050612f5a565b61309281613b56565b6040516370a0823160e01b8152306004820152610815908290600080516020614f76833981519152906370a082319060240160206040518083038186803b1580156130dc57600080fd5b505afa1580156130f0573d6000803e3d6000fd5b505050506040513d601f19601f820116820180604052508101906131149190614bc3565b600080516020614f7683398151915291905b6040516001600160a01b03831660248201526044810182905261173490849063a9059cbb60e01b906064015b60408051601f198184030181529190526020810180516001600160e01b03166001600160e01b031990931692909217909152613ba4565b804710156131d95760405162461bcd60e51b815260206004820152601d60248201527f416464726573733a20696e73756666696369656e742062616c616e6365000000604482015260640161074a565b6000826001600160a01b03168260405160006040518083038185875af1925050503d8060008114613226576040519150601f19603f3d011682016040523d82523d6000602084013e61322b565b606091505b50509050806117345760405162461bcd60e51b815260206004820152603a60248201527f416464726573733a20756e61626c6520746f2073656e642076616c75652c207260448201527f6563697069656e74206d61792068617665207265766572746564000000000000606482015260840161074a565b60008242118015612a9b575050421115919050565b604051630a5ab5dd60e31b81523060048201526024810182905260009081908190819081906001600160a01b037f000000000000000000000000000000000000000000000000000000000000000016906352d5aee89060440160a06040518083038186803b15801561332857600080fd5b505afa15801561333c573d6000803e3d6000fd5b505050506040513d601f19601f820116820180604052508101906133609190614bfc565b945094509450945094508360001415801561337c575060065482105b156133ca576005546000906133918588614eb7565b61339b9190614e97565b9050818110156133b3576133ae856135d4565b6133c8565b848110156133c8576133c8612f018287614ed6565b505b6040516330897f1760e11b8152600481018790527f00000000000000000000000000000000000000000000000000000000000000006001600160a01b031690636112fe2e90602401600060405180830381600087803b15801561342c57600080fd5b505af1158015613440573d6000803e3d6000fd5b50505050505050505050565b600061346b736b175474e89094c44da98b954eedeac495271d0f613c76565b613473613ca9565b6003546134bf90736b175474e89094c44da98b954eedeac495271d0f906001600160a01b03167f0000000000000000000000000000000000000000000000000000000000000000613d6b565b6040516370a0823160e01b81523060048201527f00000000000000000000000000000000000000000000000000000000000000006001600160a01b0316906370a082319060240160206040518083038186803b15801561351e57600080fd5b505afa158015613532573d6000803e3d6000fd5b505050506040513d601f19601f820116820180604052508101906111e29190614bc3565b6040516369ebe00160e11b815230600482015260009081906135ab906001600160a01b037f0000000000000000000000000000000000000000000000000000000000000000169063d3d7c00290602401612071565b90508083116135bb576000612a9b565b612a9b8184614ed6565b60006135d0826132b7565b5090565b8015610815576135e381613fcb565b60405163a846c2fd60e01b8152600481018290527f00000000000000000000000000000000000000000000000000000000000000006001600160a01b03169063a846c2fd906024015b600060405180830381600087803b15801561364657600080fd5b505af115801561365a573d6000803e3d6000fd5b5050505050565b60405163317afabb60e21b8152600481018290527f00000000000000000000000000000000000000000000000000000000000000006001600160a01b03169063c5ebeaec90602401600060405180830381600087803b1580156136c357600080fd5b505af11580156136d7573d6000803e3d6000fd5b50506040516370a0823160e01b8152306004820152736b175474e89094c44da98b954eedeac495271d0f92506370a08231915060240160206040518083038186803b15801561372557600080fd5b505afa158015613739573d6000803e3d6000fd5b505050506040513d601f19601f8201168201806040525081019061375d9190614bc3565b905061081581613fea565b6137a7736b175474e89094c44da98b954eedeac495271d0f7f000000000000000000000000000000000000000000000000000000000000000083613a32565b6137fb6001600160a01b037f0000000000000000000000000000000000000000000000000000000000000000167f000000000000000000000000000000000000000000000000000000000000000083613a32565b61384f6001600160a01b037f0000000000000000000000000000000000000000000000000000000000000000167f000000000000000000000000000000000000000000000000000000000000000083613a32565b60005b600480546040805163c2fba66760e01b815290516001600160a01b039092169263c2fba667928282019260209290829003018186803b15801561389457600080fd5b505afa1580156138a8573d6000803e3d6000fd5b505050506040513d601f19601f820116820180604052508101906138cc9190614bc3565b811015610c425760048054604051636e74a6f760e01b8152918201839052613984916001600160a01b0390911690636e74a6f79060240160206040518083038186803b15801561391b57600080fd5b505afa15801561392f573d6000803e3d6000fd5b505050506040513d601f19601f8201168201806040525081019061395391906149ea565b6001600160a01b037f0000000000000000000000000000000000000000000000000000000000000000169084613a32565b60048054604051636e74a6f760e01b8152918201839052613a20916001600160a01b0390911690636e74a6f79060240160206040518083038186803b1580156139cc57600080fd5b505afa1580156139e0573d6000803e3d6000fd5b505050506040513d601f19601f82011682018060405250810190613a0491906149ea565b736b175474e89094c44da98b954eedeac495271d0f9084613a32565b80613a2a81614f19565b915050613852565b801580613abb5750604051636eb1769f60e11b81523060048201526001600160a01b03838116602483015284169063dd62ed3e9060440160206040518083038186803b158015613a8157600080fd5b505afa158015613a95573d6000803e3d6000fd5b505050506040513d601f19601f82011682018060405250810190613ab99190614bc3565b155b613b265760405162461bcd60e51b815260206004820152603660248201527f5361666545524332303a20617070726f76652066726f6d206e6f6e2d7a65726f60448201527520746f206e6f6e2d7a65726f20616c6c6f77616e636560501b606482015260840161074a565b6040516001600160a01b03831660248201526044810182905261173490849063095ea7b360e01b90606401613152565b604051637038e06560e11b81526001600160a01b0382811660048301527f0000000000000000000000000000000000000000000000000000000000000000169063e071c0ca9060240161362c565b6000613bf9826040518060400160405280602081526020017f5361666545524332303a206c6f772d6c6576656c2063616c6c206661696c6564815250856001600160a01b031661405e9092919063ffffffff16565b8051909150156117345780806020019051810190613c179190614b2c565b6117345760405162461bcd60e51b815260206004820152602a60248201527f5361666545524332303a204552433230206f7065726174696f6e20646964206e6044820152691bdd081cdd58d8d9595960b21b606482015260840161074a565b6000613c80614075565b90508015610c4257610c42737fc66500c84a76ad7e9c93437bfc5ac33e2ddae9838360016143a1565b60405163c0af0d3b60e01b81523060048201526000907f00000000000000000000000000000000000000000000000000000000000000006001600160a01b03169063c0af0d3b9060240160206040518083038186803b158015613d0b57600080fd5b505afa158015613d1f573d6000803e3d6000fd5b505050506040513d601f19601f82011682018060405250810190613d439190614bc3565b90506000613d4f612465565b905081811115610c4257610c42613d668383614ed6565b613fcb565b60405163228bfd9f60e01b81523060048201526000906001600160a01b0383169063228bfd9f906024016101006040518083038186803b158015613dae57600080fd5b505afa158015613dc2573d6000803e3d6000fd5b505050506040513d601f19601f82011682018060405250810190613de69190614b46565b5050505050509150506000826001600160a01b0316638bc6beb26040518163ffffffff1660e01b8152600401602060405180830381600087803b158015613e2c57600080fd5b505af1158015613e40573d6000803e3d6000fd5b505050506040513d601f19601f82011682018060405250810190613e6491906149ea565b6040516370a0823160e01b81523060048201529091506000906001600160a01b038716906370a082319060240160206040518083038186803b158015613ea957600080fd5b505afa158015613ebd573d6000803e3d6000fd5b505050506040513d601f19601f82011682018060405250810190613ee19190614bc3565b90508015613fc3578060016000828254613efb9190614e7f565b9091555060009050612710613f108584614eb7565b613f1a9190614e97565b90508015613f4357613f366001600160a01b0388168783613126565b613f408183614ed6565b91505b613f576001600160a01b0388168484613126565b60005460405163246132f960e01b81526001600160a01b0385169163246132f991613f8f918691600401918252602082015260400190565b600060405180830381600087803b158015613fa957600080fd5b505af1158015613fbd573d6000803e3d6000fd5b50505050505b505050505050565b610c42736b175474e89094c44da98b954eedeac495271d0f3083614557565b60405163e8eda9df60e01b8152736b175474e89094c44da98b954eedeac495271d0f600482015260248101829052306044820152600060648201527f00000000000000000000000000000000000000000000000000000000000000006001600160a01b03169063e8eda9df9060840161362c565b606061406d84846000856146c5565b949350505050565b600080600080614083610c46565b925092509250826000148061409757508042115b156141b757604080516001808252818301909252600091602080830190803683370190505090507f00000000000000000000000000000000000000000000000000000000000000008160008151811061410057634e487b7160e01b600052603260045260246000fd5b6001600160a01b039283166020918202929092010152604051633111e7b360e01b81527f000000000000000000000000000000000000000000000000000000000000000090911690633111e7b390614162908490600019903090600401614d21565b602060405180830381600087803b15801561417c57600080fd5b505af1158015614190573d6000803e3d6000fd5b505050506040513d601f19601f820116820180604052508101906141b49190614bc3565b50505b6141bf610c46565b919450925090506141d082826132a2565b15614240576040516301e9a69560e41b81523060048201526000196024820152600080516020614f7683398151915290631e9a695090604401600060405180830381600087803b15801561422357600080fd5b505af1158015614237573d6000803e3d6000fd5b505050506142b1565b61424a8382612a07565b156142b157600080516020614f768339815191526001600160a01b031663787a08a66040518163ffffffff1660e01b8152600401600060405180830381600087803b15801561429857600080fd5b505af11580156142ac573d6000803e3d6000fd5b505050505b6040516309a99b4f60e41b81523060048201526000196024820152600080516020614f7683398151915290639a99b4f090604401600060405180830381600087803b1580156142ff57600080fd5b505af1158015614313573d6000803e3d6000fd5b50506040516370a0823160e01b8152306004820152737fc66500c84a76ad7e9c93437bfc5ac33e2ddae992506370a08231915060240160206040518083038186803b15801561436157600080fd5b505afa158015614375573d6000803e3d6000fd5b505050506040513d601f19601f820116820180604052508101906143999190614bc3565b935050505090565b60048054604051631d1f307960e31b81526001600160a01b03878116938201939093528583166024820152604481018590526000928392839291169063e8f983c89060640160006040518083038186803b1580156143fe57600080fd5b505afa158015614412573d6000803e3d6000fd5b505050506040513d6000823e601f3d908101601f1916820160405261443a9190810190614a4b565b925092509250836000141561444e57600193505b8115612f065760048054604051636e74a6f760e01b81529182018390526001600160a01b031690636e74a6f79060240160206040518083038186803b15801561449657600080fd5b505afa1580156144aa573d6000803e3d6000fd5b505050506040513d601f19601f820116820180604052508101906144ce91906149ea565b6001600160a01b03166338ed173986868630426040518663ffffffff1660e01b8152600401614501959493929190614dee565b600060405180830381600087803b15801561451b57600080fd5b505af115801561452f573d6000803e3d6000fd5b505050506040513d6000823e601f3d908101601f1916820160405261297c9190810190614a99565b6040516370a0823160e01b815230600482015260009081906001600160a01b037f000000000000000000000000000000000000000000000000000000000000000016906370a082319060240160206040518083038186803b1580156145bb57600080fd5b505afa1580156145cf573d6000803e3d6000fd5b505050506040513d601f19601f820116820180604052508101906145f39190614bc3565b6040516335ea6a7560e01b81526001600160a01b0387811660048301529192506000917f000000000000000000000000000000000000000000000000000000000000000016906335ea6a75906024016101406040518083038186803b15801561465b57600080fd5b505afa15801561466f573d6000803e3d6000fd5b505050506040513d601f19601f820116820180604052508101906146939190614c3b565b50505050505050505090506146bb86866146b6876146b187876147ed565b6147ed565b614803565b9695505050505050565b6060824710156147265760405162461bcd60e51b815260206004820152602660248201527f416464726573733a20696e73756666696369656e742062616c616e636520666f6044820152651c8818d85b1b60d21b606482015260840161074a565b843b6147745760405162461bcd60e51b815260206004820152601d60248201527f416464726573733a2063616c6c20746f206e6f6e2d636f6e7472616374000000604482015260640161074a565b600080866001600160a01b031685876040516147909190614d05565b60006040518083038185875af1925050503d80600081146147cd576040519150601f19603f3d011682016040523d82523d6000602084013e6147d2565b606091505b50915091506147e282828661490d565b979650505050505050565b60008183106147fc5781612a9b565b5090919050565b6000811561490657604051631a4ca37b60e21b81526001600160a01b03858116600483015260248201849052848116604483015283917f0000000000000000000000000000000000000000000000000000000000000000909116906369328dec90606401602060405180830381600087803b15801561488157600080fd5b505af1158015614895573d6000803e3d6000fd5b505050506040513d601f19601f820116820180604052508101906148b99190614bc3565b146149065760405162461bcd60e51b815260206004820152601f60248201527f77697468647261776e2d616d6f756e742d69732d6e6f742d636f727265637400604482015260640161074a565b5092915050565b6060831561491c575081612a9b565b82511561492c5782518084602001fd5b8160405162461bcd60e51b815260040161074a9190614d54565b600082601f830112614956578081fd5b8151602061496b61496683614e5b565b614e2a565b80838252828201915082860187848660051b890101111561498a578586fd5b855b858110156149b157815161499f81614f60565b8452928401929084019060010161498c565b5090979650505050505050565b805180151581146111e557600080fd5b6000602082840312156149df578081fd5b8135612a9b81614f60565b6000602082840312156149fb578081fd5b8151612a9b81614f60565b60008060408385031215614a18578081fd5b825167ffffffffffffffff811115614a2e578182fd5b614a3a85828601614946565b925050602083015190509250929050565b600080600060608486031215614a5f578081fd5b835167ffffffffffffffff811115614a75578182fd5b614a8186828701614946565b93505060208401519150604084015190509250925092565b60006020808385031215614aab578182fd5b825167ffffffffffffffff811115614ac1578283fd5b8301601f81018513614ad1578283fd5b8051614adf61496682614e5b565b80828252848201915084840188868560051b8701011115614afe578687fd5b8694505b83851015614b20578051835260019490940193918501918501614b02565b50979650505050505050565b600060208284031215614b3d578081fd5b612a9b826149be565b600080600080600080600080610100898b031215614b62578384fd5b614b6b896149be565b97506020890151965060408901519550606089015194506080890151935060a0890151925060c0890151915060e089015190509295985092959890939650565b600060208284031215614bbc578081fd5b5035919050565b600060208284031215614bd4578081fd5b5051919050565b60008060408385031215614bed578182fd5b50508035926020909101359150565b600080600080600060a08688031215614c13578081fd5b5050835160208501516040860151606087015160809097015192989197509594509092509050565b6000806000806000806000806000806101408b8d031215614c5a578384fd5b8a51995060208b0151985060408b0151975060608b0151965060808b0151955060a08b0151945060c08b0151935060e08b015192506101008b015191506101208b015164ffffffffff81168114614caf578182fd5b809150509295989b9194979a5092959850565b6000815180845260208085019450808401835b83811015614cfa5781516001600160a01b031687529582019590820190600101614cd5565b509495945050505050565b60008251614d17818460208701614eed565b9190910192915050565b600060608252614d346060830186614cc2565b6020830194909452506001600160a01b0391909116604090910152919050565b6000602082528251806020840152614d73816040850160208701614eed565b601f01601f19169190910160400192915050565b60208082526016908201527531b0b63632b916b4b996b737ba16b096b5b2b2b832b960511b604082015260600190565b6020808252601a908201527f63616c6c65722d69732d6e6f742d7468652d676f7665726e6f72000000000000604082015260600190565b600086825285602083015260a06040830152614e0d60a0830186614cc2565b6001600160a01b0394909416606083015250608001529392505050565b604051601f8201601f1916810167ffffffffffffffff81118282101715614e5357614e53614f4a565b604052919050565b600067ffffffffffffffff821115614e7557614e75614f4a565b5060051b60200190565b60008219821115614e9257614e92614f34565b500190565b600082614eb257634e487b7160e01b81526012600452602481fd5b500490565b6000816000190483118215151615614ed157614ed1614f34565b500290565b600082821015614ee857614ee8614f34565b500390565b60005b83811015614f08578181015183820152602001614ef0565b838111156123e45750506000910152565b6000600019821415614f2d57614f2d614f34565b5060010190565b634e487b7160e01b600052601160045260246000fd5b634e487b7160e01b600052604160045260246000fd5b6001600160a01b038116811461081557600080fdfe0000000000000000000000004da27a545c0c5b758a6ba100e3a049001de870f5a26469706673582212207eb47bbff50aa97d052e097b836db4f38ef55b369a75ad37acdc80a6ec91508964736f6c63430008030033",
  "devdoc": {
    "kind": "dev",
    "methods": {
      "addKeeper(address)": {
        "params": {
          "_keeperAddress": "keeper address to add."
        }
      },
      "approveToken()": {
        "details": "Approve all required tokens"
      },
      "convertFrom18(uint256)": {
        "details": "Convert from 18 decimals to token defined decimals. Default no conversion."
      },
      "init(address)": {
        "params": {
          "_addressListFactory": "To support same code in eth side chain, user _addressListFactory as param ethereum- 0xded8217De022706A191eE7Ee0Dc9df1185Fb5dA3 polygon-0xD10D5696A350D65A9AA15FE8B258caB4ab1bF291"
        }
      },
      "isReservedToken(address)": {
        "details": "Check whether given token is reserved or not. Reserved tokens are not allowed to sweep."
      },
      "migrate(address)": {
        "details": "_beforeMigration hook can be implemented in child strategy to do extra steps.",
        "params": {
          "_newStrategy": "Address of new strategy"
        }
      },
      "rebalance()": {
        "details": "Rebalance profit, loss and investment of this strategy"
      },
      "removeKeeper(address)": {
        "params": {
          "_keeperAddress": "keeper address to remove."
        }
      },
      "resurface()": {
        "details": "If pool is underwater this function will resolve underwater condition. If Debt in Maker is greater than Dai balance in lender then pool is underwater. Lowering DAI debt in Maker will resolve underwater condition. Resolve: Calculate required collateral token to lower DAI debt. Withdraw required collateral token from Maker and convert those to DAI via Uniswap. Finally payback debt in Maker using DAI.Also report loss in pool."
      },
      "sweepERC20(address)": {
        "details": "sweep given token to feeCollector of strategy",
        "params": {
          "_fromToken": "token address to sweep"
        }
      },
      "totalValue()": {
        "details": "Make sure to return value in collateral token and in order to do that we are using Uniswap to get collateral amount for earned DAI."
      },
      "updateBalancingFactor(uint256,uint256)": {
        "params": {
          "_highWater": "Value for high water mark.",
          "_lowWater": "Value for low water mark."
        }
      },
      "updateDripPeriod(uint256)": {
        "details": "_dripPeriod in seconds"
      },
      "updateFeeCollector(address)": {
        "params": {
          "_feeCollector": "fee collector address"
        }
      },
      "updateSwapManager(address)": {
        "params": {
          "_swapManager": "swap manager address"
        }
      },
      "withdraw(uint256)": {
        "details": "Withdraw collateral token from lending pool.",
        "params": {
          "_amount": "Amount of collateral token"
        }
      }
    },
    "version": 1
  },
  "userdoc": {
    "kind": "user",
    "methods": {
      "addKeeper(address)": {
        "notice": "Add given address in keepers list."
      },
      "canStartCooldown()": {
        "notice": "Returns true if we should start cooldown"
      },
      "canUnstake()": {
        "notice": "Returns true if Aave can be unstaked"
      },
      "cooldownData()": {
        "notice": "Return cooldown related timestamps"
      },
      "createVault()": {
        "notice": "Create new Maker vault"
      },
      "init(address)": {
        "notice": "Create keeper list NOTE: Any function with onlyKeeper modifier will not work until this function is called. NOTE: Due to gas constraint this function cannot be called in constructor."
      },
      "isUnderwater()": {
        "notice": "Returns true if pool is underwater.Underwater - If debt is greater than earning of pool.Earning - Sum of DAI balance and DAI from accrued reward, if any, in lending pool."
      },
      "migrate(address)": {
        "notice": "Migrate all asset and vault ownership,if any, to new strategy"
      },
      "removeKeeper(address)": {
        "notice": "Remove given address from keepers list."
      },
      "startCooldown()": {
        "notice": "Initiate cooldown to unstake aave."
      },
      "token()": {
        "notice": "Returns address of token correspond to collateral token"
      },
      "totalValue()": {
        "notice": "Report total value of this strategy"
      },
      "unstakeAave()": {
        "notice": "Unstake Aave from stakedAave contract"
      },
      "updateBalancingFactor(uint256,uint256)": {
        "notice": "Update balancing factors aka high water and low water values. Water mark values represent Collateral Ratio in Maker. For example 300 as high water means 300% collateral ratio."
      },
      "updateDripPeriod(uint256)": {
        "notice": "Update update period of distribution of earning done in one rebalance"
      },
      "updateFeeCollector(address)": {
        "notice": "Update fee collector"
      },
      "updateSwapManager(address)": {
        "notice": "Update swap manager address"
      }
    },
    "version": 1
  },
  "storageLayout": {
    "storage": [
      {
        "astId": 17553,
        "contract": "contracts/strategies/maker/EarnAaveMakerStrategyETH.sol:EarnAaveMakerStrategyETH",
        "label": "dripPeriod",
        "offset": 0,
        "slot": "0",
        "type": "t_uint256"
      },
      {
        "astId": 17555,
        "contract": "contracts/strategies/maker/EarnAaveMakerStrategyETH.sol:EarnAaveMakerStrategyETH",
        "label": "totalEarned",
        "offset": 0,
        "slot": "1",
        "type": "t_uint256"
      },
      {
        "astId": 9567,
        "contract": "contracts/strategies/maker/EarnAaveMakerStrategyETH.sol:EarnAaveMakerStrategyETH",
        "label": "keepers",
        "offset": 0,
        "slot": "2",
        "type": "t_contract(IAddressList)3591"
      },
      {
        "astId": 9570,
        "contract": "contracts/strategies/maker/EarnAaveMakerStrategyETH.sol:EarnAaveMakerStrategyETH",
        "label": "feeCollector",
        "offset": 0,
        "slot": "3",
        "type": "t_address"
      },
      {
        "astId": 9573,
        "contract": "contracts/strategies/maker/EarnAaveMakerStrategyETH.sol:EarnAaveMakerStrategyETH",
        "label": "swapManager",
        "offset": 0,
        "slot": "4",
        "type": "t_contract(ISwapManager)3894"
      },
      {
        "astId": 17901,
        "contract": "contracts/strategies/maker/EarnAaveMakerStrategyETH.sol:EarnAaveMakerStrategyETH",
        "label": "highWater",
        "offset": 0,
        "slot": "5",
        "type": "t_uint256"
      },
      {
        "astId": 17903,
        "contract": "contracts/strategies/maker/EarnAaveMakerStrategyETH.sol:EarnAaveMakerStrategyETH",
        "label": "lowWater",
        "offset": 0,
        "slot": "6",
        "type": "t_uint256"
      },
      {
        "astId": 10270,
        "contract": "contracts/strategies/maker/EarnAaveMakerStrategyETH.sol:EarnAaveMakerStrategyETH",
        "label": "aaveAddressesProvider",
        "offset": 0,
        "slot": "7",
        "type": "t_contract(AaveLendingPoolAddressesProvider)3351"
      }
    ],
    "types": {
      "t_address": {
        "encoding": "inplace",
        "label": "address",
        "numberOfBytes": "20"
      },
      "t_contract(AaveLendingPoolAddressesProvider)3351": {
        "encoding": "inplace",
        "label": "contract AaveLendingPoolAddressesProvider",
        "numberOfBytes": "20"
      },
      "t_contract(IAddressList)3591": {
        "encoding": "inplace",
        "label": "contract IAddressList",
        "numberOfBytes": "20"
      },
      "t_contract(ISwapManager)3894": {
        "encoding": "inplace",
        "label": "contract ISwapManager",
        "numberOfBytes": "20"
      },
      "t_uint256": {
        "encoding": "inplace",
        "label": "uint256",
        "numberOfBytes": "32"
      }
    }
  }
}