{
  "address": "0xe3eCC89D37E90edFfE6380Dc26fDBcCbd6f95435",
  "abi": [
    {
      "inputs": [
        {
          "internalType": "address",
          "name": "_pool",
          "type": "address"
        },
        {
          "internalType": "address",
          "name": "_swapManager",
          "type": "address"
        }
      ],
      "stateMutability": "nonpayable",
      "type": "constructor"
    },
    {
      "anonymous": false,
      "inputs": [
        {
          "indexed": true,
          "internalType": "address",
          "name": "previousFeeCollector",
          "type": "address"
        },
        {
          "indexed": true,
          "internalType": "address",
          "name": "newFeeCollector",
          "type": "address"
        }
      ],
      "name": "UpdatedFeeCollector",
      "type": "event"
    },
    {
      "anonymous": false,
      "inputs": [
        {
          "indexed": true,
          "internalType": "address",
          "name": "previousSwapManager",
          "type": "address"
        },
        {
          "indexed": true,
          "internalType": "address",
          "name": "newSwapManager",
          "type": "address"
        }
      ],
      "name": "UpdatedSwapManager",
      "type": "event"
    },
    {
      "inputs": [],
      "name": "AAVE",
      "outputs": [
        {
          "internalType": "address",
          "name": "",
          "type": "address"
        }
      ],
      "stateMutability": "view",
      "type": "function"
    },
    {
      "inputs": [],
      "name": "NAME",
      "outputs": [
        {
          "internalType": "string",
          "name": "",
          "type": "string"
        }
      ],
      "stateMutability": "view",
      "type": "function"
    },
    {
      "inputs": [],
      "name": "VERSION",
      "outputs": [
        {
          "internalType": "string",
          "name": "",
          "type": "string"
        }
      ],
      "stateMutability": "view",
      "type": "function"
    },
    {
      "inputs": [],
      "name": "aaveAddressesProvider",
      "outputs": [
        {
          "internalType": "contract AaveLendingPoolAddressesProvider",
          "name": "",
          "type": "address"
        }
      ],
      "stateMutability": "view",
      "type": "function"
    },
    {
      "inputs": [],
      "name": "aaveIncentivesController",
      "outputs": [
        {
          "internalType": "contract AaveIncentivesController",
          "name": "",
          "type": "address"
        }
      ],
      "stateMutability": "view",
      "type": "function"
    },
    {
      "inputs": [],
      "name": "aaveLendingPool",
      "outputs": [
        {
          "internalType": "contract AaveLendingPool",
          "name": "",
          "type": "address"
        }
      ],
      "stateMutability": "view",
      "type": "function"
    },
    {
      "inputs": [],
      "name": "aaveProtocolDataProvider",
      "outputs": [
        {
          "internalType": "contract AaveProtocolDataProvider",
          "name": "",
          "type": "address"
        }
      ],
      "stateMutability": "view",
      "type": "function"
    },
    {
      "inputs": [
        {
          "internalType": "address",
          "name": "_keeperAddress",
          "type": "address"
        }
      ],
      "name": "addKeeper",
      "outputs": [],
      "stateMutability": "nonpayable",
      "type": "function"
    },
    {
      "inputs": [],
      "name": "approveToken",
      "outputs": [],
      "stateMutability": "nonpayable",
      "type": "function"
    },
    {
      "inputs": [],
      "name": "canStartCooldown",
      "outputs": [
        {
          "internalType": "bool",
          "name": "",
          "type": "bool"
        }
      ],
      "stateMutability": "view",
      "type": "function"
    },
    {
      "inputs": [],
      "name": "canUnstake",
      "outputs": [
        {
          "internalType": "bool",
          "name": "",
          "type": "bool"
        }
      ],
      "stateMutability": "view",
      "type": "function"
    },
    {
      "inputs": [],
      "name": "collateralToken",
      "outputs": [
        {
          "internalType": "contract IERC20",
          "name": "",
          "type": "address"
        }
      ],
      "stateMutability": "view",
      "type": "function"
    },
    {
      "inputs": [
        {
          "internalType": "uint256",
          "name": "amount",
          "type": "uint256"
        }
      ],
      "name": "convertFrom18",
      "outputs": [
        {
          "internalType": "uint256",
          "name": "",
          "type": "uint256"
        }
      ],
      "stateMutability": "pure",
      "type": "function"
    },
    {
      "inputs": [],
      "name": "cooldownData",
      "outputs": [
        {
          "internalType": "uint256",
          "name": "_cooldownStart",
          "type": "uint256"
        },
        {
          "internalType": "uint256",
          "name": "_cooldownEnd",
          "type": "uint256"
        },
        {
          "internalType": "uint256",
          "name": "_unstakeEnd",
          "type": "uint256"
        }
      ],
      "stateMutability": "view",
      "type": "function"
    },
    {
      "inputs": [],
      "name": "feeCollector",
      "outputs": [
        {
          "internalType": "address",
          "name": "",
          "type": "address"
        }
      ],
      "stateMutability": "view",
      "type": "function"
    },
    {
      "inputs": [
        {
          "internalType": "address",
          "name": "_addressListFactory",
          "type": "address"
        }
      ],
      "name": "init",
      "outputs": [],
      "stateMutability": "nonpayable",
      "type": "function"
    },
    {
      "inputs": [
        {
          "internalType": "address",
          "name": "_token",
          "type": "address"
        }
      ],
      "name": "isReservedToken",
      "outputs": [
        {
          "internalType": "bool",
          "name": "",
          "type": "bool"
        }
      ],
      "stateMutability": "view",
      "type": "function"
    },
    {
      "inputs": [],
      "name": "keepers",
      "outputs": [
        {
          "internalType": "contract IAddressList",
          "name": "",
          "type": "address"
        }
      ],
      "stateMutability": "view",
      "type": "function"
    },
    {
      "inputs": [
        {
          "internalType": "address",
          "name": "_newStrategy",
          "type": "address"
        }
      ],
      "name": "migrate",
      "outputs": [],
      "stateMutability": "nonpayable",
      "type": "function"
    },
    {
      "inputs": [],
      "name": "pool",
      "outputs": [
        {
          "internalType": "address",
          "name": "",
          "type": "address"
        }
      ],
      "stateMutability": "view",
      "type": "function"
    },
    {
      "inputs": [],
      "name": "rebalance",
      "outputs": [],
      "stateMutability": "nonpayable",
      "type": "function"
    },
    {
      "inputs": [],
      "name": "receiptToken",
      "outputs": [
        {
          "internalType": "address",
          "name": "",
          "type": "address"
        }
      ],
      "stateMutability": "view",
      "type": "function"
    },
    {
      "inputs": [
        {
          "internalType": "address",
          "name": "_keeperAddress",
          "type": "address"
        }
      ],
      "name": "removeKeeper",
      "outputs": [],
      "stateMutability": "nonpayable",
      "type": "function"
    },
    {
      "inputs": [],
      "name": "setupOracles",
      "outputs": [],
      "stateMutability": "nonpayable",
      "type": "function"
    },
    {
      "inputs": [],
      "name": "startCooldown",
      "outputs": [
        {
          "internalType": "bool",
          "name": "",
          "type": "bool"
        }
      ],
      "stateMutability": "nonpayable",
      "type": "function"
    },
    {
      "inputs": [],
      "name": "stkAAVE",
      "outputs": [
        {
          "internalType": "contract StakedAave",
          "name": "",
          "type": "address"
        }
      ],
      "stateMutability": "view",
      "type": "function"
    },
    {
      "inputs": [],
      "name": "swapManager",
      "outputs": [
        {
          "internalType": "contract ISwapManager",
          "name": "",
          "type": "address"
        }
      ],
      "stateMutability": "view",
      "type": "function"
    },
    {
      "inputs": [
        {
          "internalType": "address",
          "name": "_fromToken",
          "type": "address"
        }
      ],
      "name": "sweepERC20",
      "outputs": [],
      "stateMutability": "nonpayable",
      "type": "function"
    },
    {
      "inputs": [],
      "name": "token",
      "outputs": [
        {
          "internalType": "address",
          "name": "",
          "type": "address"
        }
      ],
      "stateMutability": "view",
      "type": "function"
    },
    {
      "inputs": [],
      "name": "totalValue",
      "outputs": [
        {
          "internalType": "uint256",
          "name": "",
          "type": "uint256"
        }
      ],
      "stateMutability": "view",
      "type": "function"
    },
    {
      "inputs": [],
      "name": "unstakeAave",
      "outputs": [],
      "stateMutability": "nonpayable",
      "type": "function"
    },
    {
      "inputs": [
        {
          "internalType": "address",
          "name": "_feeCollector",
          "type": "address"
        }
      ],
      "name": "updateFeeCollector",
      "outputs": [],
      "stateMutability": "nonpayable",
      "type": "function"
    },
    {
      "inputs": [
        {
          "internalType": "address",
          "name": "_swapManager",
          "type": "address"
        }
      ],
      "name": "updateSwapManager",
      "outputs": [],
      "stateMutability": "nonpayable",
      "type": "function"
    },
    {
      "inputs": [
        {
          "internalType": "uint256",
          "name": "_amount",
          "type": "uint256"
        }
      ],
      "name": "withdraw",
      "outputs": [],
      "stateMutability": "nonpayable",
      "type": "function"
    }
  ],
  "transactionHash": "0x0f3bc9794952c9825e643c6808b81b18dee60fbbb03609364d539f2b96a66f08",
  "args": [
    "0xfF43C327410F960261057ba1DA787eD78B42c257",
    "0xe382d9f2394A359B01006faa8A1864b8a60d2710"
  ],
  "solcInputHash": "c913a96689eb2d738f3c473cb5b2163b",
  "bytecode": "0x610160604052600380546001600160a01b03191673b53c1a33016b2dc2ff3653530bff1848a515c8c51790553480156200003857600080fd5b506040516200421c3803806200421c8339810160408190526200005b91620004ba565b818173b9d7cb55f463405cdfbe4e90a6d2df01c2b92bf1808383826001600160a01b038316620000d25760405162461bcd60e51b815260206004820152601460248201527f706f6f6c2d616464726573732d69732d7a65726f00000000000000000000000060448201526064015b60405180910390fd5b6001600160a01b0382166200011f5760405162461bcd60e51b8152602060048201526012602482015271736d2d616464726573732d69732d7a65726f60701b6044820152606401620000c9565b600280546001600160a01b0319166001600160a01b0384811691909117909155606084901b6001600160601b03191660c05260408051637e062a3560e11b815290519185169163fc0c546a91600480820192602092909190829003018186803b1580156200018c57600080fd5b505afa158015620001a1573d6000803e3d6000fd5b505050506040513d601f19601f82011682018060405250810190620001c7919062000494565b6001600160601b0319606091821b811660805291901b1660a05250506001600160a01b0381166200023b5760405162461bcd60e51b815260206004820152601660248201527f61546f6b656e2d616464726573732d69732d7a65726f000000000000000000006044820152606401620000c9565b806001600160a01b0316610140816001600160a01b031660601b81525050806001600160a01b03166375d264136040518163ffffffff1660e01b815260040160206040518083038186803b1580156200029357600080fd5b505afa925050508015620002c6575060408051601f3d908101601f19168201909252620002c39181019062000494565b60015b620002d15762000359565b50806001600160a01b03166375d264136040518163ffffffff1660e01b815260040160206040518083038186803b1580156200030c57600080fd5b505afa15801562000321573d6000803e3d6000fd5b505050506040513d601f19601f8201168201806040525081019062000347919062000494565b60601b6001600160601b031916610120525b600360009054906101000a90046001600160a01b03166001600160a01b0316630261bf8b6040518163ffffffff1660e01b815260040160206040518083038186803b158015620003a857600080fd5b505afa158015620003bd573d6000803e3d6000fd5b505050506040513d601f19601f82011682018060405250810190620003e3919062000494565b60601b6001600160601b03191660e0526003546040516321f8a72160e01b8152600160f81b60048201526001600160a01b03909116906321f8a7219060240160206040518083038186803b1580156200043b57600080fd5b505afa15801562000450573d6000803e3d6000fd5b505050506040513d601f19601f8201168201806040525081019062000476919062000494565b60601b6001600160601b031916610100525062000511945050505050565b600060208284031215620004a6578081fd5b8151620004b381620004f8565b9392505050565b60008060408385031215620004cd578081fd5b8251620004da81620004f8565b6020840151909250620004ed81620004f8565b809150509250929050565b6001600160a01b03811681146200050e57600080fd5b50565b60805160601c60a05160601c60c05160601c60e05160601c6101005160601c6101205160601c6101405160601c613b6e620006ae60003960008181611841015281816119a701528181611da201528181612481015281816127da0152818161296901528181612adf015261302101526000818161034601528181612429015281816125e901528181612fa3015261308601526000818161036d01526128790152600081816104a8015281816121c501528181612bdf0152612e83015260008181610255015281816105560152818161079401528181610baf01528181610c2b01528181610dbe0152818161112b015281816112fb015281816113c40152818161165301528181611d7901528181611f5f01528181611ffc01526121710152600081816104cf0152818161050c015281816114d8015261155c01526000818161041f015281816115a60152818161162a015281816118ff01528181611b2b01528181611d58015281816120b90152818161214f015281816121a30152818161292d015281816129fa01528181612a3b0152612b800152613b6e6000f3fe608060405234801561001057600080fd5b50600436106102065760003560e01c80637d7c2a1c1161011a578063d2c35ce8116100ad578063ec78e8321161007c578063ec78e832146104ca578063f51896f8146104f1578063fb589de2146104f9578063fc0c546a1461050a578063ffa1ad741461053057610206565b8063d2c35ce814610467578063d4c3eea01461047a578063e00af4a714610490578063e9d337b8146104a357610206565b8063aa101886116100e9578063aa10188614610412578063b2016bd41461041a578063c415b95c14610441578063ce5494bb1461045457610206565b80637d7c2a1c146103b2578063951dc22c146103ba57806399b71d5c146103cd578063a3f4df7e146103d557610206565b80634032b72b1161019d5780635f2475ca1161016c5780635f2475ca146103415780635f9d4d2e1461036857806360a05a851461038f578063680ff45814610397578063709d039d1461039f57610206565b80634032b72b146102dd578063440d7248146102f057806348ccda3c146103135780634c36fad71461032e57610206565b806319ab453c116101d957806319ab453c1461027f5780631fc29c011461029257806321fc6bb0146102a75780632e1a7d4d146102ca57610206565b806308bfa40a1461020b57806314ae9f2e1461023b57806316f0115b14610250578063189adf7614610277575b600080fd5b60035461021e906001600160a01b031681565b6040516001600160a01b0390911681526020015b60405180910390f35b61024e610249366004613624565b610554565b005b61021e7f000000000000000000000000000000000000000000000000000000000000000081565b61024e6106e3565b61024e61028d366004613624565b610792565b61021e600080516020613b1983398151915281565b6102af610a0c565b60408051938452602084019290925290820152606001610232565b61024e6102d83660046137c3565b610bac565b61024e6102eb366004613624565b610c29565b6103036102fe366004613624565b610da9565b6040519015158152602001610232565b61021e737fc66500c84a76ad7e9c93437bfc5ac33e2ddae981565b61024e61033c366004613624565b610dbc565b61021e7f000000000000000000000000000000000000000000000000000000000000000081565b61021e7f000000000000000000000000000000000000000000000000000000000000000081565b610303610f6f565b610303610f92565b60025461021e906001600160a01b031681565b61024e611045565b60005461021e906001600160a01b031681565b61024e611194565b61040560405180604001604052806011815260200170416176652d53747261746567792d554e4960781b81525081565b6040516102329190613936565b61024e61124e565b61021e7f000000000000000000000000000000000000000000000000000000000000000081565b60015461021e906001600160a01b031681565b61024e610462366004613624565b6112f8565b61024e610475366004613624565b611651565b61048261181a565b604051908152602001610232565b61024e61049e366004613624565b611a34565b61021e7f000000000000000000000000000000000000000000000000000000000000000081565b61021e7f000000000000000000000000000000000000000000000000000000000000000081565b610303611ccf565b6104826105073660046137c3565b90565b7f000000000000000000000000000000000000000000000000000000000000000061021e565b610405604051806040016040528060058152602001640332e302e360dc1b81525081565b7f00000000000000000000000000000000000000000000000000000000000000006001600160a01b0316630c340a246040518163ffffffff1660e01b815260040160206040518083038186803b1580156105ad57600080fd5b505afa1580156105c1573d6000803e3d6000fd5b505050506040513d601f19601f820116820180604052508101906105e59190613640565b6001600160a01b0316336001600160a01b03161461061e5760405162461bcd60e51b815260040161061590613999565b60405180910390fd5b600054604051631484968760e11b81526001600160a01b038381166004830152909116906329092d0e90602401602060405180830381600087803b15801561066557600080fd5b505af1158015610679573d6000803e3d6000fd5b505050506040513d601f19601f8201168201806040525081019061069d91906137a3565b6106e05760405162461bcd60e51b81526020600482015260146024820152731c995b5bdd994b5ad9595c195c8b59985a5b195960621b6044820152606401610615565b50565b6000546001600160a01b0316635dbe47e8336040516001600160e01b031960e084901b1681526001600160a01b03909116600482015260240160206040518083038186803b15801561073457600080fd5b505afa158015610748573d6000803e3d6000fd5b505050506040513d601f19601f8201168201806040525081019061076c91906137a3565b6107885760405162461bcd60e51b815260040161061590613969565b610790611ceb565b565b7f00000000000000000000000000000000000000000000000000000000000000006001600160a01b0316630c340a246040518163ffffffff1660e01b815260040160206040518083038186803b1580156107eb57600080fd5b505afa1580156107ff573d6000803e3d6000fd5b505050506040513d601f19601f820116820180604052508101906108239190613640565b6001600160a01b0316336001600160a01b0316146108535760405162461bcd60e51b815260040161061590613999565b6000546001600160a01b0316156108ac5760405162461bcd60e51b815260206004820152601b60248201527f6b65657065722d6c6973742d616c72656164792d6372656174656400000000006044820152606401610615565b6000819050806001600160a01b0316630fab4d256040518163ffffffff1660e01b8152600401602060405180830381600087803b1580156108ec57600080fd5b505af1158015610900573d6000803e3d6000fd5b505050506040513d601f19601f820116820180604052508101906109249190613640565b600080546001600160a01b0319166001600160a01b03929092169182179055630a3b0a4f61094f3390565b6040516001600160e01b031960e084901b1681526001600160a01b039091166004820152602401602060405180830381600087803b15801561099057600080fd5b505af11580156109a4573d6000803e3d6000fd5b505050506040513d601f19601f820116820180604052508101906109c891906137a3565b610a085760405162461bcd60e51b81526020600482015260116024820152701859190b5ad9595c195c8b59985a5b1959607a1b6044820152606401610615565b5050565b60405163091030c360e01b815230600482015260009081908190600080516020613b198339815191529063091030c39060240160206040518083038186803b158015610a5757600080fd5b505afa158015610a6b573d6000803e3d6000fd5b505050506040513d601f19601f82011682018060405250810190610a8f91906137db565b9250600080516020613b198339815191526001600160a01b03166372b49d636040518163ffffffff1660e01b815260040160206040518083038186803b158015610ad857600080fd5b505afa158015610aec573d6000803e3d6000fd5b505050506040513d601f19601f82011682018060405250810190610b1091906137db565b610b1a9084613a61565b9150600080516020613b198339815191526001600160a01b031663359c4a966040518163ffffffff1660e01b815260040160206040518083038186803b158015610b6357600080fd5b505afa158015610b77573d6000803e3d6000fd5b505050506040513d601f19601f82011682018060405250810190610b9b91906137db565b610ba59083613a61565b9050909192565b337f00000000000000000000000000000000000000000000000000000000000000006001600160a01b031614610c205760405162461bcd60e51b815260206004820152601960248201527818d85b1b195c8b5a5ccb5b9bdd0b5d995cdc195c8b5c1bdbdb603a1b6044820152606401610615565b6106e081611d53565b7f00000000000000000000000000000000000000000000000000000000000000006001600160a01b0316630c340a246040518163ffffffff1660e01b815260040160206040518083038186803b158015610c8257600080fd5b505afa158015610c96573d6000803e3d6000fd5b505050506040513d601f19601f82011682018060405250810190610cba9190613640565b6001600160a01b0316336001600160a01b031614610cea5760405162461bcd60e51b815260040161061590613999565b600054604051630a3b0a4f60e01b81526001600160a01b03838116600483015290911690630a3b0a4f90602401602060405180830381600087803b158015610d3157600080fd5b505af1158015610d45573d6000803e3d6000fd5b505050506040513d601f19601f82011682018060405250810190610d6991906137a3565b6106e05760405162461bcd60e51b81526020600482015260116024820152701859190b5ad9595c195c8b59985a5b1959607a1b6044820152606401610615565b6000610db482611d9e565b90505b919050565b7f00000000000000000000000000000000000000000000000000000000000000006001600160a01b0316630c340a246040518163ffffffff1660e01b815260040160206040518083038186803b158015610e1557600080fd5b505afa158015610e29573d6000803e3d6000fd5b505050506040513d601f19601f82011682018060405250810190610e4d9190613640565b6001600160a01b0316336001600160a01b031614610e7d5760405162461bcd60e51b815260040161061590613999565b6001600160a01b038116610ec85760405162461bcd60e51b8152602060048201526012602482015271736d2d616464726573732d69732d7a65726f60701b6044820152606401610615565b6002546001600160a01b0382811691161415610f135760405162461bcd60e51b815260206004820152600a602482015269736d2d69732d73616d6560b01b6044820152606401610615565b6002546040516001600160a01b038084169216907f2d19927e7cac08ceb98b38898a4fdff6da6a27295b9a2d62fe250408ebe044e190600090a3600280546001600160a01b0319166001600160a01b0392909216919091179055565b6000806000610f7c610a0c565b9250509150610f8b8282611e1f565b9250505090565b600080546001600160a01b0316635dbe47e8336040516001600160e01b031960e084901b1681526001600160a01b03909116600482015260240160206040518083038186803b158015610fe457600080fd5b505afa158015610ff8573d6000803e3d6000fd5b505050506040513d601f19601f8201168201806040525081019061101c91906137a3565b6110385760405162461bcd60e51b815260040161061590613969565b611040611eba565b905090565b6000546001600160a01b0316635dbe47e8336040516001600160e01b031960e084901b1681526001600160a01b03909116600482015260240160206040518083038186803b15801561109657600080fd5b505afa1580156110aa573d6000803e3d6000fd5b505050506040513d601f19601f820116820180604052508101906110ce91906137a3565b6110ea5760405162461bcd60e51b815260040161061590613969565b60008060006110f7611f39565b6040516302df682360e11b815260048101849052602481018390526044810182905292955090935091506001600160a01b037f000000000000000000000000000000000000000000000000000000000000000016906305bed04690606401600060405180830381600087803b15801561116f57600080fd5b505af1158015611183573d6000803e3d6000fd5b5050505061118f6120a0565b505050565b6000546001600160a01b0316635dbe47e8336040516001600160e01b031960e084901b1681526001600160a01b03909116600482015260240160206040518083038186803b1580156111e557600080fd5b505afa1580156111f9573d6000803e3d6000fd5b505050506040513d601f19601f8201168201806040525081019061121d91906137a3565b6112395760405162461bcd60e51b815260040161061590613969565b6112436000612142565b610790600019612142565b6000546001600160a01b0316635dbe47e8336040516001600160e01b031960e084901b1681526001600160a01b03909116600482015260240160206040518083038186803b15801561129f57600080fd5b505afa1580156112b3573d6000803e3d6000fd5b505050506040513d601f19601f820116820180604052508101906112d791906137a3565b6112f35760405162461bcd60e51b815260040161061590613969565b610790565b337f00000000000000000000000000000000000000000000000000000000000000006001600160a01b03161461136c5760405162461bcd60e51b815260206004820152601960248201527818d85b1b195c8b5a5ccb5b9bdd0b5d995cdc195c8b5c1bdbdb603a1b6044820152606401610615565b6001600160a01b0381166113c25760405162461bcd60e51b815260206004820152601c60248201527f6e65772d73747261746567792d616464726573732d69732d7a65726f000000006044820152606401610615565b7f00000000000000000000000000000000000000000000000000000000000000006001600160a01b0316816001600160a01b03166316f0115b6040518163ffffffff1660e01b815260040160206040518083038186803b15801561142557600080fd5b505afa158015611439573d6000803e3d6000fd5b505050506040513d601f19601f8201168201806040525081019061145d9190613640565b6001600160a01b0316146114ac5760405162461bcd60e51b81526020600482015260166024820152756e6f742d76616c69642d6e65772d737472617465677960501b6044820152606401610615565b6114b581612326565b6040516370a0823160e01b81523060048201526115839082906001600160a01b037f000000000000000000000000000000000000000000000000000000000000000016906370a082319060240160206040518083038186803b15801561151a57600080fd5b505afa15801561152e573d6000803e3d6000fd5b505050506040513d601f19601f8201168201806040525081019061155291906137db565b6001600160a01b037f00000000000000000000000000000000000000000000000000000000000000001691906123c2565b6040516370a0823160e01b81523060048201526106e09082906001600160a01b037f000000000000000000000000000000000000000000000000000000000000000016906370a082319060240160206040518083038186803b1580156115e857600080fd5b505afa1580156115fc573d6000803e3d6000fd5b505050506040513d601f19601f8201168201806040525081019061162091906137db565b6001600160a01b037f00000000000000000000000000000000000000000000000000000000000000001691906123c2565b7f00000000000000000000000000000000000000000000000000000000000000006001600160a01b0316630c340a246040518163ffffffff1660e01b815260040160206040518083038186803b1580156116aa57600080fd5b505afa1580156116be573d6000803e3d6000fd5b505050506040513d601f19601f820116820180604052508101906116e29190613640565b6001600160a01b0316336001600160a01b0316146117125760405162461bcd60e51b815260040161061590613999565b6001600160a01b0381166117685760405162461bcd60e51b815260206004820152601d60248201527f6665652d636f6c6c6563746f722d616464726573732d69732d7a65726f0000006044820152606401610615565b6001546001600160a01b03828116911614156117be5760405162461bcd60e51b81526020600482015260156024820152746665652d636f6c6c6563746f722d69732d73616d6560581b6044820152606401610615565b6001546040516001600160a01b038084169216907f0f06062680f9bd68e786e9980d9bb03d73d5620fc3b345e417b6eacb310b970690600090a3600180546001600160a01b0319166001600160a01b0392909216919091179055565b600080611825612425565b9050806118cb576040516370a0823160e01b81523060048201527f00000000000000000000000000000000000000000000000000000000000000006001600160a01b0316906370a082319060240160206040518083038186803b15801561188b57600080fd5b505afa15801561189f573d6000803e3d6000fd5b505050506040513d601f19601f820116820180604052508101906118c391906137db565b915050610507565b600254604051631d1f307960e31b8152737fc66500c84a76ad7e9c93437bfc5ac33e2ddae960048201526001600160a01b037f00000000000000000000000000000000000000000000000000000000000000008116602483015260448201849052600092169063e8f983c89060640160006040518083038186803b15801561195257600080fd5b505afa158015611966573d6000803e3d6000fd5b505050506040513d6000823e601f3d908101601f1916820160405261198e919081019061365c565b506040516370a0823160e01b81523060048201529092507f00000000000000000000000000000000000000000000000000000000000000006001600160a01b031691506370a082319060240160206040518083038186803b1580156119f257600080fd5b505afa158015611a06573d6000803e3d6000fd5b505050506040513d601f19601f82011682018060405250810190611a2a91906137db565b610f8b9082613a61565b6000546001600160a01b0316635dbe47e8336040516001600160e01b031960e084901b1681526001600160a01b03909116600482015260240160206040518083038186803b158015611a8557600080fd5b505afa158015611a99573d6000803e3d6000fd5b505050506040513d601f19601f82011682018060405250810190611abd91906137a3565b611ad95760405162461bcd60e51b815260040161061590613969565b6001546001600160a01b0316611b295760405162461bcd60e51b81526020600482015260156024820152741999594b58dbdb1b1958dd1bdc8b5b9bdd0b5cd95d605a1b6044820152606401610615565b7f00000000000000000000000000000000000000000000000000000000000000006001600160a01b0316816001600160a01b03161415611bab5760405162461bcd60e51b815260206004820152601f60248201527f6e6f742d616c6c6f7765642d746f2d73776565702d636f6c6c61746572616c006044820152606401610615565b611bb481610da9565b15611bf85760405162461bcd60e51b815260206004820152601460248201527306e6f742d616c6c6f7765642d746f2d73776565760641b6044820152606401610615565b6001600160a01b03811673eeeeeeeeeeeeeeeeeeeeeeeeeeeeeeeeeeeeeeee1415611c3857600154611c33906001600160a01b03164761268a565b6106e0565b6040516370a0823160e01b81523060048201526000906001600160a01b038316906370a082319060240160206040518083038186803b158015611c7a57600080fd5b505afa158015611c8e573d6000803e3d6000fd5b505050506040513d601f19601f82011682018060405250810190611cb291906137db565b600154909150610a08906001600160a01b038481169116836123c2565b6000806000611cdc610a0c565b9250925050610f8b82826127a3565b6040516301e9a69560e41b81523060048201526000196024820152600080516020613b1983398151915290631e9a695090604401600060405180830381600087803b158015611d3957600080fd5b505af1158015611d4d573d6000803e3d6000fd5b50505050565b610a087f00000000000000000000000000000000000000000000000000000000000000007f0000000000000000000000000000000000000000000000000000000000000000836127b8565b60007f00000000000000000000000000000000000000000000000000000000000000006001600160a01b0316826001600160a01b03161480611dfc57506001600160a01b038216737fc66500c84a76ad7e9c93437bfc5ac33e2ddae9145b80610db45750506001600160a01b0316600080516020613b198339815191521490565b6040516370a0823160e01b8152306004820152600090600080516020613b19833981519152906370a082319060240160206040518083038186803b158015611e6657600080fd5b505afa158015611e7a573d6000803e3d6000fd5b505050506040513d601f19601f82011682018060405250810190611e9e91906137db565b15801590611eb35750821580611eb357508142115b9392505050565b6000611ec4610f6f565b15611f3357600080516020613b198339815191526001600160a01b031663787a08a66040518163ffffffff1660e01b8152600401600060405180830381600087803b158015611f1257600080fd5b505af1158015611f26573d6000803e3d6000fd5b5050505060019050610507565b50600090565b604051636a9eee1360e11b81523060048201526000908190819081906001600160a01b037f0000000000000000000000000000000000000000000000000000000000000000169063d53ddc269060240160206040518083038186803b158015611fa157600080fd5b505afa158015611fb5573d6000803e3d6000fd5b505050506040513d601f19601f82011682018060405250810190611fd991906137db565b604051639f2b283360e01b81523060048201529091506000906001600160a01b037f00000000000000000000000000000000000000000000000000000000000000001690639f2b28339060240160206040518083038186803b15801561203e57600080fd5b505afa158015612052573d6000803e3d6000fd5b505050506040513d601f19601f8201168201806040525081019061207691906137db565b905061208181612926565b945061208c81612abd565b935061209782612b73565b92505050909192565b6040516370a0823160e01b8152306004820152610790907f0000000000000000000000000000000000000000000000000000000000000000906001600160a01b038216906370a082319060240160206040518083038186803b15801561210557600080fd5b505afa158015612119573d6000803e3d6000fd5b505050506040513d601f19601f8201168201806040525081019061213d91906137db565b612ba6565b6121966001600160a01b037f0000000000000000000000000000000000000000000000000000000000000000167f000000000000000000000000000000000000000000000000000000000000000083612c3f565b6121ea6001600160a01b037f0000000000000000000000000000000000000000000000000000000000000000167f000000000000000000000000000000000000000000000000000000000000000083612c3f565b60005b600260009054906101000a90046001600160a01b03166001600160a01b031663c2fba6676040518163ffffffff1660e01b815260040160206040518083038186803b15801561223b57600080fd5b505afa15801561224f573d6000803e3d6000fd5b505050506040513d601f19601f8201168201806040525081019061227391906137db565b811015610a0857600254604051636e74a6f760e01b815260048101839052612314916001600160a01b031690636e74a6f79060240160206040518083038186803b1580156122c057600080fd5b505afa1580156122d4573d6000803e3d6000fd5b505050506040513d601f19601f820116820180604052508101906122f89190613640565b737fc66500c84a76ad7e9c93437bfc5ac33e2ddae99084612c3f565b8061231e81613abc565b9150506121ed565b6040516370a0823160e01b8152306004820152600090600080516020613b19833981519152906370a082319060240160206040518083038186803b15801561236d57600080fd5b505afa158015612381573d6000803e3d6000fd5b505050506040513d601f19601f820116820180604052508101906123a591906137db565b90508015610a0857610a08600080516020613b1983398151915283835b6040516001600160a01b03831660248201526044810182905261118f90849063a9059cbb60e01b906064015b60408051601f198184030181529190526020810180516001600160e01b03166001600160e01b031990931692909217909152612d63565b60007f00000000000000000000000000000000000000000000000000000000000000006001600160a01b031661245d57506000610507565b604080516001808252818301909252600091602080830190803683370190505090507f0000000000000000000000000000000000000000000000000000000000000000816000815181106124c157634e487b7160e01b600052603260045260246000fd5b6001600160a01b0392909216602092830291909101909101526040516346df7f7160e11b8152306004820152600080516020613b1983398151915290638dbefee29060240160206040518083038186803b15801561251e57600080fd5b505afa158015612532573d6000803e3d6000fd5b505050506040513d601f19601f8201168201806040525081019061255691906137db565b6040516370a0823160e01b8152306004820152600080516020613b19833981519152906370a082319060240160206040518083038186803b15801561259a57600080fd5b505afa1580156125ae573d6000803e3d6000fd5b505050506040513d601f19601f820116820180604052508101906125d291906137db565b6040516345accf9360e11b81526001600160a01b037f00000000000000000000000000000000000000000000000000000000000000001690638b599f269061262090869030906004016138d9565b60206040518083038186803b15801561263857600080fd5b505afa15801561264c573d6000803e3d6000fd5b505050506040513d601f19601f8201168201806040525081019061267091906137db565b61267a9190613a61565b6126849190613a61565b91505090565b804710156126da5760405162461bcd60e51b815260206004820152601d60248201527f416464726573733a20696e73756666696369656e742062616c616e63650000006044820152606401610615565b6000826001600160a01b03168260405160006040518083038185875af1925050503d8060008114612727576040519150601f19603f3d011682016040523d82523d6000602084013e61272c565b606091505b505090508061118f5760405162461bcd60e51b815260206004820152603a60248201527f416464726573733a20756e61626c6520746f2073656e642076616c75652c207260448201527f6563697069656e74206d617920686176652072657665727465640000000000006064820152608401610615565b60008242118015611eb3575050421115919050565b6040516370a0823160e01b815230600482015260009081906001600160a01b037f000000000000000000000000000000000000000000000000000000000000000016906370a082319060240160206040518083038186803b15801561281c57600080fd5b505afa158015612830573d6000803e3d6000fd5b505050506040513d601f19601f8201168201806040525081019061285491906137db565b6040516335ea6a7560e01b81526001600160a01b0387811660048301529192506000917f000000000000000000000000000000000000000000000000000000000000000016906335ea6a75906024016101406040518083038186803b1580156128bc57600080fd5b505afa1580156128d0573d6000803e3d6000fd5b505050506040513d601f19601f820116820180604052508101906128f491906137f3565b505050505050505050905061291c8686612917876129128787612e35565b612e35565b612e4b565b9695505050505050565b60006129517f0000000000000000000000000000000000000000000000000000000000000000612f55565b6040516370a0823160e01b81523060048201526000907f00000000000000000000000000000000000000000000000000000000000000006001600160a01b0316906370a082319060240160206040518083038186803b1580156129b357600080fd5b505afa1580156129c7573d6000803e3d6000fd5b505050506040513d601f19601f820116820180604052508101906129eb91906137db565b905082811115612a2657612a247f0000000000000000000000000000000000000000000000000000000000000000306129178685613a79565b505b6040516370a0823160e01b81523060048201527f00000000000000000000000000000000000000000000000000000000000000006001600160a01b0316906370a082319060240160206040518083038186803b158015612a8557600080fd5b505afa158015612a99573d6000803e3d6000fd5b505050506040513d601f19601f82011682018060405250810190611eb391906137db565b6040516370a0823160e01b815230600482015260009081906001600160a01b037f000000000000000000000000000000000000000000000000000000000000000016906370a082319060240160206040518083038186803b158015612b2157600080fd5b505afa158015612b35573d6000803e3d6000fd5b505050506040513d601f19601f82011682018060405250810190612b5991906137db565b905082811015612b6d57611eb38184613a79565b50919050565b60008115610db757610db47f000000000000000000000000000000000000000000000000000000000000000030846127b8565b8015610a085760405163e8eda9df60e01b81526001600160a01b03838116600483015260248201839052306044830152600060648301527f0000000000000000000000000000000000000000000000000000000000000000169063e8eda9df90608401600060405180830381600087803b158015612c2357600080fd5b505af1158015612c37573d6000803e3d6000fd5b505050505050565b801580612cc85750604051636eb1769f60e11b81523060048201526001600160a01b03838116602483015284169063dd62ed3e9060440160206040518083038186803b158015612c8e57600080fd5b505afa158015612ca2573d6000803e3d6000fd5b505050506040513d601f19601f82011682018060405250810190612cc691906137db565b155b612d335760405162461bcd60e51b815260206004820152603660248201527f5361666545524332303a20617070726f76652066726f6d206e6f6e2d7a65726f60448201527520746f206e6f6e2d7a65726f20616c6c6f77616e636560501b6064820152608401610615565b6040516001600160a01b03831660248201526044810182905261118f90849063095ea7b360e01b906064016123ee565b6000612db8826040518060400160405280602081526020017f5361666545524332303a206c6f772d6c6576656c2063616c6c206661696c6564815250856001600160a01b0316612f889092919063ffffffff16565b80519091501561118f5780806020019051810190612dd691906137a3565b61118f5760405162461bcd60e51b815260206004820152602a60248201527f5361666545524332303a204552433230206f7065726174696f6e20646964206e6044820152691bdd081cdd58d8d9595960b21b6064820152608401610615565b6000818310612e445781611eb3565b5090919050565b60008115612f4e57604051631a4ca37b60e21b81526001600160a01b03858116600483015260248201849052848116604483015283917f0000000000000000000000000000000000000000000000000000000000000000909116906369328dec90606401602060405180830381600087803b158015612ec957600080fd5b505af1158015612edd573d6000803e3d6000fd5b505050506040513d601f19601f82011682018060405250810190612f0191906137db565b14612f4e5760405162461bcd60e51b815260206004820152601f60248201527f77697468647261776e2d616d6f756e742d69732d6e6f742d636f7272656374006044820152606401610615565b5092915050565b6000612f5f612f9f565b90508015610a0857610a08737fc66500c84a76ad7e9c93437bfc5ac33e2ddae983836001613302565b6060612f9784846000856134c3565b949350505050565b60007f00000000000000000000000000000000000000000000000000000000000000006001600160a01b0316612fd757506000610507565b6000806000612fe4610a0c565b9250925092508260001480612ff857508042115b1561311857604080516001808252818301909252600091602080830190803683370190505090507f00000000000000000000000000000000000000000000000000000000000000008160008151811061306157634e487b7160e01b600052603260045260246000fd5b6001600160a01b039283166020918202929092010152604051633111e7b360e01b81527f000000000000000000000000000000000000000000000000000000000000000090911690633111e7b3906130c3908490600019903090600401613903565b602060405180830381600087803b1580156130dd57600080fd5b505af11580156130f1573d6000803e3d6000fd5b505050506040513d601f19601f8201168201806040525081019061311591906137db565b50505b613120610a0c565b9194509250905061313182826127a3565b156131a1576040516301e9a69560e41b81523060048201526000196024820152600080516020613b1983398151915290631e9a695090604401600060405180830381600087803b15801561318457600080fd5b505af1158015613198573d6000803e3d6000fd5b50505050613212565b6131ab8382611e1f565b1561321257600080516020613b198339815191526001600160a01b031663787a08a66040518163ffffffff1660e01b8152600401600060405180830381600087803b1580156131f957600080fd5b505af115801561320d573d6000803e3d6000fd5b505050505b6040516309a99b4f60e41b81523060048201526000196024820152600080516020613b1983398151915290639a99b4f090604401600060405180830381600087803b15801561326057600080fd5b505af1158015613274573d6000803e3d6000fd5b50506040516370a0823160e01b8152306004820152737fc66500c84a76ad7e9c93437bfc5ac33e2ddae992506370a08231915060240160206040518083038186803b1580156132c257600080fd5b505afa1580156132d6573d6000803e3d6000fd5b505050506040513d601f19601f820116820180604052508101906132fa91906137db565b935050505090565b600254604051631d1f307960e31b81526001600160a01b038681166004830152858116602483015260448201859052600092839283929091169063e8f983c89060640160006040518083038186803b15801561335d57600080fd5b505afa158015613371573d6000803e3d6000fd5b505050506040513d6000823e601f3d908101601f19168201604052613399919081019061365c565b92509250925083600014156133ad57600193505b81156134ba57600254604051636e74a6f760e01b8152600481018390526001600160a01b0390911690636e74a6f79060240160206040518083038186803b1580156133f757600080fd5b505afa15801561340b573d6000803e3d6000fd5b505050506040513d601f19601f8201168201806040525081019061342f9190613640565b6001600160a01b03166338ed173986868630426040518663ffffffff1660e01b81526004016134629594939291906139d0565b600060405180830381600087803b15801561347c57600080fd5b505af1158015613490573d6000803e3d6000fd5b505050506040513d6000823e601f3d908101601f191682016040526134b89190810190613710565b505b50505050505050565b6060824710156135245760405162461bcd60e51b815260206004820152602660248201527f416464726573733a20696e73756666696369656e742062616c616e636520666f6044820152651c8818d85b1b60d21b6064820152608401610615565b843b6135725760405162461bcd60e51b815260206004820152601d60248201527f416464726573733a2063616c6c20746f206e6f6e2d636f6e74726163740000006044820152606401610615565b600080866001600160a01b0316858760405161358e91906138bd565b60006040518083038185875af1925050503d80600081146135cb576040519150601f19603f3d011682016040523d82523d6000602084013e6135d0565b606091505b50915091506135e08282866135eb565b979650505050505050565b606083156135fa575081611eb3565b82511561360a5782518084602001fd5b8160405162461bcd60e51b81526004016106159190613936565b600060208284031215613635578081fd5b8135611eb381613b03565b600060208284031215613651578081fd5b8151611eb381613b03565b600080600060608486031215613670578182fd5b835167ffffffffffffffff811115613686578283fd5b8401601f81018613613696578283fd5b805160206136ab6136a683613a3d565b613a0c565b8083825282820191508285018a848660051b88010111156136ca578788fd5b8795505b848610156136f55780516136e181613b03565b8352600195909501949183019183016136ce565b50918801516040909801519199979850909695505050505050565b60006020808385031215613722578182fd5b825167ffffffffffffffff811115613738578283fd5b8301601f81018513613748578283fd5b80516137566136a682613a3d565b80828252848201915084840188868560051b8701011115613775578687fd5b8694505b83851015613797578051835260019490940193918501918501613779565b50979650505050505050565b6000602082840312156137b4578081fd5b81518015158114611eb3578182fd5b6000602082840312156137d4578081fd5b5035919050565b6000602082840312156137ec578081fd5b5051919050565b6000806000806000806000806000806101408b8d031215613812578586fd5b8a51995060208b0151985060408b0151975060608b0151965060808b0151955060a08b0151945060c08b0151935060e08b015192506101008b015191506101208b015164ffffffffff81168114613867578182fd5b809150509295989b9194979a5092959850565b6000815180845260208085019450808401835b838110156138b25781516001600160a01b03168752958201959082019060010161388d565b509495945050505050565b600082516138cf818460208701613a90565b9190910192915050565b6000604082526138ec604083018561387a565b905060018060a01b03831660208301529392505050565b600060608252613916606083018661387a565b6020830194909452506001600160a01b0391909116604090910152919050565b6000602082528251806020840152613955816040850160208701613a90565b601f01601f19169190910160400192915050565b60208082526016908201527531b0b63632b916b4b996b737ba16b096b5b2b2b832b960511b604082015260600190565b6020808252601a908201527f63616c6c65722d69732d6e6f742d7468652d676f7665726e6f72000000000000604082015260600190565b600086825285602083015260a060408301526139ef60a083018661387a565b6001600160a01b0394909416606083015250608001529392505050565b604051601f8201601f1916810167ffffffffffffffff81118282101715613a3557613a35613aed565b604052919050565b600067ffffffffffffffff821115613a5757613a57613aed565b5060051b60200190565b60008219821115613a7457613a74613ad7565b500190565b600082821015613a8b57613a8b613ad7565b500390565b60005b83811015613aab578181015183820152602001613a93565b83811115611d4d5750506000910152565b6000600019821415613ad057613ad0613ad7565b5060010190565b634e487b7160e01b600052601160045260246000fd5b634e487b7160e01b600052604160045260246000fd5b6001600160a01b03811681146106e057600080fdfe0000000000000000000000004da27a545c0c5b758a6ba100e3a049001de870f5a26469706673582212208b40311c696b7443fe6f562ed5ac71acd01750ee41c76419eb3d483f2d846a1464736f6c63430008030033",
  "devdoc": {
    "kind": "dev",
    "methods": {
      "addKeeper(address)": {
        "params": {
          "_keeperAddress": "keeper address to add."
        }
      },
      "approveToken()": {
        "details": "Approve all required tokens"
      },
      "convertFrom18(uint256)": {
        "details": "Convert from 18 decimals to token defined decimals. Default no conversion."
      },
      "init(address)": {
        "params": {
          "_addressListFactory": "To support same code in eth side chain, user _addressListFactory as param ethereum- 0xded8217De022706A191eE7Ee0Dc9df1185Fb5dA3 polygon-0xD10D5696A350D65A9AA15FE8B258caB4ab1bF291"
        }
      },
      "migrate(address)": {
        "details": "_beforeMigration hook can be implemented in child strategy to do extra steps.",
        "params": {
          "_newStrategy": "Address of new strategy"
        }
      },
      "rebalance()": {
        "details": "Rebalance profit, loss and investment of this strategy"
      },
      "removeKeeper(address)": {
        "params": {
          "_keeperAddress": "keeper address to remove."
        }
      },
      "sweepERC20(address)": {
        "details": "sweep given token to feeCollector of strategy",
        "params": {
          "_fromToken": "token address to sweep"
        }
      },
      "totalValue()": {
        "details": "aToken and collateral are 1:1"
      },
      "updateFeeCollector(address)": {
        "params": {
          "_feeCollector": "fee collector address"
        }
      },
      "updateSwapManager(address)": {
        "params": {
          "_swapManager": "swap manager address"
        }
      },
      "withdraw(uint256)": {
        "details": "Withdraw collateral token from lending pool.",
        "params": {
          "_amount": "Amount of collateral token"
        }
      }
    },
    "version": 1
  },
  "userdoc": {
    "kind": "user",
    "methods": {
      "addKeeper(address)": {
        "notice": "Add given address in keepers list."
      },
      "canStartCooldown()": {
        "notice": "Returns true if we should start cooldown"
      },
      "canUnstake()": {
        "notice": "Returns true if Aave can be unstaked"
      },
      "cooldownData()": {
        "notice": "Return cooldown related timestamps"
      },
      "init(address)": {
        "notice": "Create keeper list NOTE: Any function with onlyKeeper modifier will not work until this function is called. NOTE: Due to gas constraint this function cannot be called in constructor."
      },
      "isReservedToken(address)": {
        "notice": "Check whether given token is reserved or not. Reserved tokens are not allowed to sweep."
      },
      "migrate(address)": {
        "notice": "Migrate all asset and vault ownership,if any, to new strategy"
      },
      "removeKeeper(address)": {
        "notice": "Remove given address from keepers list."
      },
      "startCooldown()": {
        "notice": "Initiate cooldown to unstake aave."
      },
      "token()": {
        "notice": "Returns address of token correspond to collateral token"
      },
      "totalValue()": {
        "notice": "Report total value"
      },
      "unstakeAave()": {
        "notice": "Unstake Aave from stakedAave contract"
      },
      "updateFeeCollector(address)": {
        "notice": "Update fee collector"
      },
      "updateSwapManager(address)": {
        "notice": "Update swap manager address"
      }
    },
    "version": 1
  },
  "storageLayout": {
    "storage": [
      {
        "astId": 9577,
        "contract": "contracts/strategies/aave/AaveStrategyUNI.sol:AaveStrategyUNI",
        "label": "keepers",
        "offset": 0,
        "slot": "0",
        "type": "t_contract(IAddressList)3647"
      },
      {
        "astId": 9580,
        "contract": "contracts/strategies/aave/AaveStrategyUNI.sol:AaveStrategyUNI",
        "label": "feeCollector",
        "offset": 0,
        "slot": "1",
        "type": "t_address"
      },
      {
        "astId": 9583,
        "contract": "contracts/strategies/aave/AaveStrategyUNI.sol:AaveStrategyUNI",
        "label": "swapManager",
        "offset": 0,
        "slot": "2",
        "type": "t_contract(ISwapManager)3950"
      },
      {
        "astId": 10294,
        "contract": "contracts/strategies/aave/AaveStrategyUNI.sol:AaveStrategyUNI",
        "label": "aaveAddressesProvider",
        "offset": 0,
        "slot": "3",
        "type": "t_contract(AaveLendingPoolAddressesProvider)3351"
      }
    ],
    "types": {
      "t_address": {
        "encoding": "inplace",
        "label": "address",
        "numberOfBytes": "20"
      },
      "t_contract(AaveLendingPoolAddressesProvider)3351": {
        "encoding": "inplace",
        "label": "contract AaveLendingPoolAddressesProvider",
        "numberOfBytes": "20"
      },
      "t_contract(IAddressList)3647": {
        "encoding": "inplace",
        "label": "contract IAddressList",
        "numberOfBytes": "20"
      },
      "t_contract(ISwapManager)3950": {
        "encoding": "inplace",
        "label": "contract ISwapManager",
        "numberOfBytes": "20"
      }
    }
  }
}