{
  "address": "0xed8BA4be8E0422f345156E9071f1B7218f0E36Ba",
  "abi": [
    {
      "inputs": [
        {
          "internalType": "address",
          "name": "_pool",
          "type": "address"
        },
        {
          "internalType": "address",
          "name": "_swapManager",
          "type": "address"
        }
      ],
      "stateMutability": "nonpayable",
      "type": "constructor"
    },
    {
      "anonymous": false,
      "inputs": [
        {
          "indexed": true,
          "internalType": "address",
          "name": "previousFeeCollector",
          "type": "address"
        },
        {
          "indexed": true,
          "internalType": "address",
          "name": "newFeeCollector",
          "type": "address"
        }
      ],
      "name": "UpdatedFeeCollector",
      "type": "event"
    },
    {
      "anonymous": false,
      "inputs": [
        {
          "indexed": false,
          "internalType": "uint256",
          "name": "oldPeriod",
          "type": "uint256"
        },
        {
          "indexed": false,
          "internalType": "uint256",
          "name": "newPeriod",
          "type": "uint256"
        },
        {
          "indexed": false,
          "internalType": "uint256",
          "name": "oldRouterIdx",
          "type": "uint256"
        },
        {
          "indexed": false,
          "internalType": "uint256",
          "name": "newRouterIdx",
          "type": "uint256"
        }
      ],
      "name": "UpdatedOracleConfig",
      "type": "event"
    },
    {
      "anonymous": false,
      "inputs": [
        {
          "indexed": true,
          "internalType": "address",
          "name": "previousSwapManager",
          "type": "address"
        },
        {
          "indexed": true,
          "internalType": "address",
          "name": "newSwapManager",
          "type": "address"
        }
      ],
      "name": "UpdatedSwapManager",
      "type": "event"
    },
    {
      "anonymous": false,
      "inputs": [
        {
          "indexed": false,
          "internalType": "uint256",
          "name": "oldSwapSlippage",
          "type": "uint256"
        },
        {
          "indexed": false,
          "internalType": "uint256",
          "name": "newSwapSlippage",
          "type": "uint256"
        }
      ],
      "name": "UpdatedSwapSlippage",
      "type": "event"
    },
    {
      "inputs": [],
      "name": "AAVE",
      "outputs": [
        {
          "internalType": "address",
          "name": "",
          "type": "address"
        }
      ],
      "stateMutability": "view",
      "type": "function"
    },
    {
      "inputs": [],
      "name": "NAME",
      "outputs": [
        {
          "internalType": "string",
          "name": "",
          "type": "string"
        }
      ],
      "stateMutability": "view",
      "type": "function"
    },
    {
      "inputs": [],
      "name": "VERSION",
      "outputs": [
        {
          "internalType": "string",
          "name": "",
          "type": "string"
        }
      ],
      "stateMutability": "view",
      "type": "function"
    },
    {
      "inputs": [],
      "name": "aaveAddressesProvider",
      "outputs": [
        {
          "internalType": "contract AaveLendingPoolAddressesProvider",
          "name": "",
          "type": "address"
        }
      ],
      "stateMutability": "view",
      "type": "function"
    },
    {
      "inputs": [],
      "name": "aaveIncentivesController",
      "outputs": [
        {
          "internalType": "contract AaveIncentivesController",
          "name": "",
          "type": "address"
        }
      ],
      "stateMutability": "view",
      "type": "function"
    },
    {
      "inputs": [],
      "name": "aaveLendingPool",
      "outputs": [
        {
          "internalType": "contract AaveLendingPool",
          "name": "",
          "type": "address"
        }
      ],
      "stateMutability": "view",
      "type": "function"
    },
    {
      "inputs": [],
      "name": "aaveProtocolDataProvider",
      "outputs": [
        {
          "internalType": "contract AaveProtocolDataProvider",
          "name": "",
          "type": "address"
        }
      ],
      "stateMutability": "view",
      "type": "function"
    },
    {
      "inputs": [
        {
          "internalType": "address",
          "name": "_keeperAddress",
          "type": "address"
        }
      ],
      "name": "addKeeper",
      "outputs": [],
      "stateMutability": "nonpayable",
      "type": "function"
    },
    {
      "inputs": [],
      "name": "approveToken",
      "outputs": [],
      "stateMutability": "nonpayable",
      "type": "function"
    },
    {
      "inputs": [],
      "name": "canStartCooldown",
      "outputs": [
        {
          "internalType": "bool",
          "name": "",
          "type": "bool"
        }
      ],
      "stateMutability": "view",
      "type": "function"
    },
    {
      "inputs": [],
      "name": "canUnstake",
      "outputs": [
        {
          "internalType": "bool",
          "name": "",
          "type": "bool"
        }
      ],
      "stateMutability": "view",
      "type": "function"
    },
    {
      "inputs": [],
      "name": "collateralToken",
      "outputs": [
        {
          "internalType": "contract IERC20",
          "name": "",
          "type": "address"
        }
      ],
      "stateMutability": "view",
      "type": "function"
    },
    {
      "inputs": [
        {
          "internalType": "uint256",
          "name": "amount",
          "type": "uint256"
        }
      ],
      "name": "convertFrom18",
      "outputs": [
        {
          "internalType": "uint256",
          "name": "",
          "type": "uint256"
        }
      ],
      "stateMutability": "pure",
      "type": "function"
    },
    {
      "inputs": [],
      "name": "cooldownData",
      "outputs": [
        {
          "internalType": "uint256",
          "name": "_cooldownStart",
          "type": "uint256"
        },
        {
          "internalType": "uint256",
          "name": "_cooldownEnd",
          "type": "uint256"
        },
        {
          "internalType": "uint256",
          "name": "_unstakeEnd",
          "type": "uint256"
        }
      ],
      "stateMutability": "view",
      "type": "function"
    },
    {
      "inputs": [],
      "name": "feeCollector",
      "outputs": [
        {
          "internalType": "address",
          "name": "",
          "type": "address"
        }
      ],
      "stateMutability": "view",
      "type": "function"
    },
    {
      "inputs": [
        {
          "internalType": "address",
          "name": "_addressListFactory",
          "type": "address"
        }
      ],
      "name": "init",
      "outputs": [],
      "stateMutability": "nonpayable",
      "type": "function"
    },
    {
      "inputs": [
        {
          "internalType": "address",
          "name": "_token",
          "type": "address"
        }
      ],
      "name": "isReservedToken",
      "outputs": [
        {
          "internalType": "bool",
          "name": "",
          "type": "bool"
        }
      ],
      "stateMutability": "view",
      "type": "function"
    },
    {
      "inputs": [],
      "name": "keepers",
      "outputs": [
        {
          "internalType": "contract IAddressList",
          "name": "",
          "type": "address"
        }
      ],
      "stateMutability": "view",
      "type": "function"
    },
    {
      "inputs": [
        {
          "internalType": "address",
          "name": "_newStrategy",
          "type": "address"
        }
      ],
      "name": "migrate",
      "outputs": [],
      "stateMutability": "nonpayable",
      "type": "function"
    },
    {
      "inputs": [],
      "name": "oraclePeriod",
      "outputs": [
        {
          "internalType": "uint256",
          "name": "",
          "type": "uint256"
        }
      ],
      "stateMutability": "view",
      "type": "function"
    },
    {
      "inputs": [],
      "name": "oracleRouterIdx",
      "outputs": [
        {
          "internalType": "uint256",
          "name": "",
          "type": "uint256"
        }
      ],
      "stateMutability": "view",
      "type": "function"
    },
    {
      "inputs": [],
      "name": "pool",
      "outputs": [
        {
          "internalType": "address",
          "name": "",
          "type": "address"
        }
      ],
      "stateMutability": "view",
      "type": "function"
    },
    {
      "inputs": [],
      "name": "rebalance",
      "outputs": [],
      "stateMutability": "nonpayable",
      "type": "function"
    },
    {
      "inputs": [],
      "name": "receiptToken",
      "outputs": [
        {
          "internalType": "address",
          "name": "",
          "type": "address"
        }
      ],
      "stateMutability": "view",
      "type": "function"
    },
    {
      "inputs": [
        {
          "internalType": "address",
          "name": "_keeperAddress",
          "type": "address"
        }
      ],
      "name": "removeKeeper",
      "outputs": [],
      "stateMutability": "nonpayable",
      "type": "function"
    },
    {
      "inputs": [],
      "name": "setupOracles",
      "outputs": [],
      "stateMutability": "nonpayable",
      "type": "function"
    },
    {
      "inputs": [],
      "name": "startCooldown",
      "outputs": [
        {
          "internalType": "bool",
          "name": "",
          "type": "bool"
        }
      ],
      "stateMutability": "nonpayable",
      "type": "function"
    },
    {
      "inputs": [],
      "name": "stkAAVE",
      "outputs": [
        {
          "internalType": "contract StakedAave",
          "name": "",
          "type": "address"
        }
      ],
      "stateMutability": "view",
      "type": "function"
    },
    {
      "inputs": [],
      "name": "swapManager",
      "outputs": [
        {
          "internalType": "contract ISwapManager",
          "name": "",
          "type": "address"
        }
      ],
      "stateMutability": "view",
      "type": "function"
    },
    {
      "inputs": [],
      "name": "swapSlippage",
      "outputs": [
        {
          "internalType": "uint256",
          "name": "",
          "type": "uint256"
        }
      ],
      "stateMutability": "view",
      "type": "function"
    },
    {
      "inputs": [
        {
          "internalType": "address",
          "name": "_fromToken",
          "type": "address"
        }
      ],
      "name": "sweepERC20",
      "outputs": [],
      "stateMutability": "nonpayable",
      "type": "function"
    },
    {
      "inputs": [],
      "name": "token",
      "outputs": [
        {
          "internalType": "address",
          "name": "",
          "type": "address"
        }
      ],
      "stateMutability": "view",
      "type": "function"
    },
    {
      "inputs": [],
      "name": "totalValue",
      "outputs": [
        {
          "internalType": "uint256",
          "name": "",
          "type": "uint256"
        }
      ],
      "stateMutability": "view",
      "type": "function"
    },
    {
      "inputs": [],
      "name": "totalValueCurrent",
      "outputs": [
        {
          "internalType": "uint256",
          "name": "",
          "type": "uint256"
        }
      ],
      "stateMutability": "nonpayable",
      "type": "function"
    },
    {
      "inputs": [],
      "name": "unstakeAave",
      "outputs": [],
      "stateMutability": "nonpayable",
      "type": "function"
    },
    {
      "inputs": [
        {
          "internalType": "address",
          "name": "_feeCollector",
          "type": "address"
        }
      ],
      "name": "updateFeeCollector",
      "outputs": [],
      "stateMutability": "nonpayable",
      "type": "function"
    },
    {
      "inputs": [
        {
          "internalType": "uint256",
          "name": "_newPeriod",
          "type": "uint256"
        },
        {
          "internalType": "uint256",
          "name": "_newRouterIdx",
          "type": "uint256"
        }
      ],
      "name": "updateOracleConfig",
      "outputs": [],
      "stateMutability": "nonpayable",
      "type": "function"
    },
    {
      "inputs": [
        {
          "internalType": "address",
          "name": "_swapManager",
          "type": "address"
        }
      ],
      "name": "updateSwapManager",
      "outputs": [],
      "stateMutability": "nonpayable",
      "type": "function"
    },
    {
      "inputs": [
        {
          "internalType": "uint256",
          "name": "_newSwapSlippage",
          "type": "uint256"
        }
      ],
      "name": "updateSwapSlippage",
      "outputs": [],
      "stateMutability": "nonpayable",
      "type": "function"
    },
    {
      "inputs": [
        {
          "internalType": "uint256",
          "name": "_amount",
          "type": "uint256"
        }
      ],
      "name": "withdraw",
      "outputs": [],
      "stateMutability": "nonpayable",
      "type": "function"
    }
  ],
  "transactionHash": "0x586d6499452e6cb841a80c9655f3ab659c213ea9be1c5afd44f4520bf861a01c",
  "args": [
    "0xfF43C327410F960261057ba1DA787eD78B42c257",
    "0xe382d9f2394A359B01006faa8A1864b8a60d2710"
  ],
  "solcInputHash": "06a2c836f2f2bf5854a36dc7e3b1fed0",
  "bytecode": "0x610140604052610e106004556000600555612710600655600780546001600160a01b03191673b53c1a33016b2dc2ff3653530bff1848a515c8c51790553480156200004957600080fd5b5060405162004ce138038062004ce18339810160408190526200006c91620004d8565b818173b9d7cb55f463405cdfbe4e90a6d2df01c2b92bf1808383826001600160a01b038316620000e35760405162461bcd60e51b815260206004820152601460248201527f706f6f6c2d616464726573732d69732d7a65726f00000000000000000000000060448201526064015b60405180910390fd5b6001600160a01b038216620001305760405162461bcd60e51b8152602060048201526012602482015271736d2d616464726573732d69732d7a65726f60701b6044820152606401620000da565b600380546001600160a01b0319166001600160a01b0384811691909117909155606084901b6001600160601b03191660a05260408051637e062a3560e11b815290519185169163fc0c546a91600480820192602092909190829003018186803b1580156200019d57600080fd5b505afa158015620001b2573d6000803e3d6000fd5b505050506040513d601f19601f82011682018060405250810190620001d89190620004b2565b60601b6001600160601b031916608052600080546001600160a01b0319166001600160a01b039283161790558316151591506200025a90505760405162461bcd60e51b815260206004820152601660248201527f61546f6b656e2d616464726573732d69732d7a65726f000000000000000000006044820152606401620000da565b806001600160a01b0316610120816001600160a01b031660601b81525050806001600160a01b03166375d264136040518163ffffffff1660e01b815260040160206040518083038186803b158015620002b257600080fd5b505afa925050508015620002e5575060408051601f3d908101601f19168201909252620002e291810190620004b2565b60015b620002f05762000378565b50806001600160a01b03166375d264136040518163ffffffff1660e01b815260040160206040518083038186803b1580156200032b57600080fd5b505afa15801562000340573d6000803e3d6000fd5b505050506040513d601f19601f82011682018060405250810190620003669190620004b2565b60601b6001600160601b031916610100525b600760009054906101000a90046001600160a01b03166001600160a01b0316630261bf8b6040518163ffffffff1660e01b815260040160206040518083038186803b158015620003c757600080fd5b505afa158015620003dc573d6000803e3d6000fd5b505050506040513d601f19601f82011682018060405250810190620004029190620004b2565b60601b6001600160601b03191660c0526007546040516321f8a72160e01b8152600160f81b60048201526001600160a01b03909116906321f8a7219060240160206040518083038186803b1580156200045a57600080fd5b505afa1580156200046f573d6000803e3d6000fd5b505050506040513d601f19601f82011682018060405250810190620004959190620004b2565b60601b6001600160601b03191660e052506200052f945050505050565b600060208284031215620004c4578081fd5b8151620004d18162000516565b9392505050565b60008060408385031215620004eb578081fd5b8251620004f88162000516565b60208401519092506200050b8162000516565b809150509250929050565b6001600160a01b03811681146200052c57600080fd5b50565b60805160601c60a05160601c60c05160601c60e05160601c6101005160601c6101205160601c61461c620006c560003960008181611bef01528181611d550152818161215a01528181612a1001528181612d6901528181612efa0152818161307001526135fa0152600081816103a8015281816129b801528181612b780152818161357c015261365f0152600081816103cf0152612e080152600081816105330152818161257f015281816131700152613414015260008181610297015281816105b8015281816107f601528181610c1101528181610c8d01528181610e2001528181610ff6015281816112db01528181611400015281816116e3015281816117ac01528181611a010152818161213101528181612319015281816123b6015261252b0152600081816104a701528181611954015281816119d801528181611cad01528181611ed90152818161211001528181612473015281816125090152818161255d015281816127a40152818161282301528181612ebe01528181612f8b01528181612fcc0152613111015261461c6000f3fe608060405234801561001057600080fd5b50600436106102485760003560e01c80637d7c2a1c1161013b578063d2c35ce8116100b8578063ec78e8321161007c578063ec78e83214610555578063f51896f814610568578063fb589de214610570578063fc0c546a14610581578063ffa1ad741461059257610248565b8063d2c35ce8146104f8578063d4c3eea01461050b578063e00af4a714610513578063e645c20214610526578063e9d337b81461052e57610248565b8063aa101886116100ff578063aa1018861461049a578063b2016bd4146104a2578063c415b95c146104c9578063cd2d7ebe146104dc578063ce5494bb146104e557610248565b80637d7c2a1c14610427578063951dc22c1461042f57806399b71d5c14610442578063a3f4df7e1461044a578063a923b2a61461048757610248565b806342189c8f116101c95780635f9d4d2e1161018d5780635f9d4d2e146103ca57806360a05a85146103f157806367f5e4b8146103f9578063680ff4581461040c578063709d039d1461041457610248565b806342189c8f14610349578063440d72481461035257806348ccda3c146103755780634c36fad7146103905780635f2475ca146103a357610248565b80631aedeabe116102105780631aedeabe146102d45780631fc29c01146102eb57806321fc6bb0146103005780632e1a7d4d146103235780634032b72b1461033657610248565b806308bfa40a1461024d57806314ae9f2e1461027d57806316f0115b14610292578063189adf76146102b957806319ab453c146102c1575b600080fd5b600754610260906001600160a01b031681565b6040516001600160a01b0390911681526020015b60405180910390f35b61029061028b366004614044565b6105b6565b005b6102607f000000000000000000000000000000000000000000000000000000000000000081565b610290610745565b6102906102cf366004614044565b6107f4565b6102dd60065481565b604051908152602001610274565b6102606000805160206145c783398151915281565b610308610a6e565b60408051938452602084019290925290820152606001610274565b6102906103313660046141dd565b610c0e565b610290610344366004614044565b610c8b565b6102dd60045481565b610365610360366004614044565b610e0b565b6040519015158152602001610274565b610260737fc66500c84a76ad7e9c93437bfc5ac33e2ddae981565b61029061039e366004614044565b610e1e565b6102607f000000000000000000000000000000000000000000000000000000000000000081565b6102607f000000000000000000000000000000000000000000000000000000000000000081565b610365610fd1565b6102906104073660046141dd565b610ff4565b610365611140565b600354610260906001600160a01b031681565b6102906111f5565b600154610260906001600160a01b031681565b610290611344565b61047a60405180604001604052806011815260200170416176652d53747261746567792d554e4960781b81525081565b60405161027491906143a5565b61029061049536600461420d565b6113fe565b610290611633565b6102607f000000000000000000000000000000000000000000000000000000000000000081565b600254610260906001600160a01b031681565b6102dd60055481565b6102906104f3366004614044565b6116e0565b610290610506366004614044565b6119ff565b6102dd611bc8565b610290610521366004614044565b611de2565b6102dd61207d565b6102607f000000000000000000000000000000000000000000000000000000000000000081565b600054610260906001600160a01b031681565b610365612087565b6102dd61057e3660046141dd565b90565b6000546001600160a01b0316610260565b61047a604051806040016040528060058152602001640332e302e360dc1b81525081565b7f00000000000000000000000000000000000000000000000000000000000000006001600160a01b0316630c340a246040518163ffffffff1660e01b815260040160206040518083038186803b15801561060f57600080fd5b505afa158015610623573d6000803e3d6000fd5b505050506040513d601f19601f820116820180604052508101906106479190614060565b6001600160a01b0316336001600160a01b0316146106805760405162461bcd60e51b815260040161067790614408565b60405180910390fd5b600154604051631484968760e11b81526001600160a01b038381166004830152909116906329092d0e90602401602060405180830381600087803b1580156106c757600080fd5b505af11580156106db573d6000803e3d6000fd5b505050506040513d601f19601f820116820180604052508101906106ff91906141c3565b6107425760405162461bcd60e51b81526020600482015260146024820152731c995b5bdd994b5ad9595c195c8b59985a5b195960621b6044820152606401610677565b50565b6001546001600160a01b0316635dbe47e8336040516001600160e01b031960e084901b1681526001600160a01b03909116600482015260240160206040518083038186803b15801561079657600080fd5b505afa1580156107aa573d6000803e3d6000fd5b505050506040513d601f19601f820116820180604052508101906107ce91906141c3565b6107ea5760405162461bcd60e51b8152600401610677906143d8565b6107f26120a3565b565b7f00000000000000000000000000000000000000000000000000000000000000006001600160a01b0316630c340a246040518163ffffffff1660e01b815260040160206040518083038186803b15801561084d57600080fd5b505afa158015610861573d6000803e3d6000fd5b505050506040513d601f19601f820116820180604052508101906108859190614060565b6001600160a01b0316336001600160a01b0316146108b55760405162461bcd60e51b815260040161067790614408565b6001546001600160a01b03161561090e5760405162461bcd60e51b815260206004820152601b60248201527f6b65657065722d6c6973742d616c72656164792d6372656174656400000000006044820152606401610677565b6000819050806001600160a01b0316630fab4d256040518163ffffffff1660e01b8152600401602060405180830381600087803b15801561094e57600080fd5b505af1158015610962573d6000803e3d6000fd5b505050506040513d601f19601f820116820180604052508101906109869190614060565b600180546001600160a01b0319166001600160a01b03929092169182179055630a3b0a4f6109b13390565b6040516001600160e01b031960e084901b1681526001600160a01b039091166004820152602401602060405180830381600087803b1580156109f257600080fd5b505af1158015610a06573d6000803e3d6000fd5b505050506040513d601f19601f82011682018060405250810190610a2a91906141c3565b610a6a5760405162461bcd60e51b81526020600482015260116024820152701859190b5ad9595c195c8b59985a5b1959607a1b6044820152606401610677565b5050565b60405163091030c360e01b8152306004820152600090819081906000805160206145c78339815191529063091030c39060240160206040518083038186803b158015610ab957600080fd5b505afa158015610acd573d6000803e3d6000fd5b505050506040513d601f19601f82011682018060405250810190610af191906141f5565b92506000805160206145c78339815191526001600160a01b03166372b49d636040518163ffffffff1660e01b815260040160206040518083038186803b158015610b3a57600080fd5b505afa158015610b4e573d6000803e3d6000fd5b505050506040513d601f19601f82011682018060405250810190610b7291906141f5565b610b7c90846144d0565b91506000805160206145c78339815191526001600160a01b031663359c4a966040518163ffffffff1660e01b815260040160206040518083038186803b158015610bc557600080fd5b505afa158015610bd9573d6000803e3d6000fd5b505050506040513d601f19601f82011682018060405250810190610bfd91906141f5565b610c0790836144d0565b9050909192565b337f00000000000000000000000000000000000000000000000000000000000000006001600160a01b031614610c825760405162461bcd60e51b815260206004820152601960248201527818d85b1b195c8b5a5ccb5b9bdd0b5d995cdc195c8b5c1bdbdb603a1b6044820152606401610677565b6107428161210b565b7f00000000000000000000000000000000000000000000000000000000000000006001600160a01b0316630c340a246040518163ffffffff1660e01b815260040160206040518083038186803b158015610ce457600080fd5b505afa158015610cf8573d6000803e3d6000fd5b505050506040513d601f19601f82011682018060405250810190610d1c9190614060565b6001600160a01b0316336001600160a01b031614610d4c5760405162461bcd60e51b815260040161067790614408565b600154604051630a3b0a4f60e01b81526001600160a01b03838116600483015290911690630a3b0a4f90602401602060405180830381600087803b158015610d9357600080fd5b505af1158015610da7573d6000803e3d6000fd5b505050506040513d601f19601f82011682018060405250810190610dcb91906141c3565b6107425760405162461bcd60e51b81526020600482015260116024820152701859190b5ad9595c195c8b59985a5b1959607a1b6044820152606401610677565b6000610e1682612156565b90505b919050565b7f00000000000000000000000000000000000000000000000000000000000000006001600160a01b0316630c340a246040518163ffffffff1660e01b815260040160206040518083038186803b158015610e7757600080fd5b505afa158015610e8b573d6000803e3d6000fd5b505050506040513d601f19601f82011682018060405250810190610eaf9190614060565b6001600160a01b0316336001600160a01b031614610edf5760405162461bcd60e51b815260040161067790614408565b6001600160a01b038116610f2a5760405162461bcd60e51b8152602060048201526012602482015271736d2d616464726573732d69732d7a65726f60701b6044820152606401610677565b6003546001600160a01b0382811691161415610f755760405162461bcd60e51b815260206004820152600a602482015269736d2d69732d73616d6560b01b6044820152606401610677565b6003546040516001600160a01b038084169216907f2d19927e7cac08ceb98b38898a4fdff6da6a27295b9a2d62fe250408ebe044e190600090a3600380546001600160a01b0319166001600160a01b0392909216919091179055565b6000806000610fde610a6e565b9250509150610fed82826121d7565b9250505090565b7f00000000000000000000000000000000000000000000000000000000000000006001600160a01b0316630c340a246040518163ffffffff1660e01b815260040160206040518083038186803b15801561104d57600080fd5b505afa158015611061573d6000803e3d6000fd5b505050506040513d601f19601f820116820180604052508101906110859190614060565b6001600160a01b0316336001600160a01b0316146110b55760405162461bcd60e51b815260040161067790614408565b6127108111156111005760405162461bcd60e51b8152602060048201526016602482015275696e76616c69642d736c6970706167652d76616c756560501b6044820152606401610677565b60065460408051918252602082018390527ef1c5db862c7598b3b6765552ca951f498611e06412c2d57f8d0b58f82e7f82910160405180910390a1600655565b6001546000906001600160a01b0316635dbe47e8336040516001600160e01b031960e084901b1681526001600160a01b03909116600482015260240160206040518083038186803b15801561119457600080fd5b505afa1580156111a8573d6000803e3d6000fd5b505050506040513d601f19601f820116820180604052508101906111cc91906141c3565b6111e85760405162461bcd60e51b8152600401610677906143d8565b6111f0612274565b905090565b6001546001600160a01b0316635dbe47e8336040516001600160e01b031960e084901b1681526001600160a01b03909116600482015260240160206040518083038186803b15801561124657600080fd5b505afa15801561125a573d6000803e3d6000fd5b505050506040513d601f19601f8201168201806040525081019061127e91906141c3565b61129a5760405162461bcd60e51b8152600401610677906143d8565b60008060006112a76122f3565b6040516302df682360e11b815260048101849052602481018390526044810182905292955090935091506001600160a01b037f000000000000000000000000000000000000000000000000000000000000000016906305bed04690606401600060405180830381600087803b15801561131f57600080fd5b505af1158015611333573d6000803e3d6000fd5b5050505061133f61245a565b505050565b6001546001600160a01b0316635dbe47e8336040516001600160e01b031960e084901b1681526001600160a01b03909116600482015260240160206040518083038186803b15801561139557600080fd5b505afa1580156113a9573d6000803e3d6000fd5b505050506040513d601f19601f820116820180604052508101906113cd91906141c3565b6113e95760405162461bcd60e51b8152600401610677906143d8565b6113f360006124fc565b6107f26000196124fc565b7f00000000000000000000000000000000000000000000000000000000000000006001600160a01b0316630c340a246040518163ffffffff1660e01b815260040160206040518083038186803b15801561145757600080fd5b505afa15801561146b573d6000803e3d6000fd5b505050506040513d601f19601f8201168201806040525081019061148f9190614060565b6001600160a01b0316336001600160a01b0316146114bf5760405162461bcd60e51b815260040161067790614408565b600360009054906101000a90046001600160a01b03166001600160a01b031663c2fba6676040518163ffffffff1660e01b815260040160206040518083038186803b15801561150d57600080fd5b505afa158015611521573d6000803e3d6000fd5b505050506040513d601f19601f8201168201806040525081019061154591906141f5565b811061158a5760405162461bcd60e51b81526020600482015260146024820152730d2dcecc2d8d2c85ae4deeae8cae45ad2dcc8caf60631b6044820152606401610677565b816115955760045491505b603b82116115dd5760405162461bcd60e51b81526020600482015260156024820152741a5b9d985b1a590b5bdc9858db194b5c195c9a5bd9605a1b6044820152606401610677565b6004546005546040805192835260208301859052820152606081018290527f83bc5ab8030537fcf1d29c2334f6d22c26c82dcbe5ff03923d2cff5c692c0a7f9060800160405180910390a1600491909155600555565b6001546001600160a01b0316635dbe47e8336040516001600160e01b031960e084901b1681526001600160a01b03909116600482015260240160206040518083038186803b15801561168457600080fd5b505afa158015611698573d6000803e3d6000fd5b505050506040513d601f19601f820116820180604052508101906116bc91906141c3565b6116d85760405162461bcd60e51b8152600401610677906143d8565b6107f26126e0565b337f00000000000000000000000000000000000000000000000000000000000000006001600160a01b0316146117545760405162461bcd60e51b815260206004820152601960248201527818d85b1b195c8b5a5ccb5b9bdd0b5d995cdc195c8b5c1bdbdb603a1b6044820152606401610677565b6001600160a01b0381166117aa5760405162461bcd60e51b815260206004820152601c60248201527f6e65772d73747261746567792d616464726573732d69732d7a65726f000000006044820152606401610677565b7f00000000000000000000000000000000000000000000000000000000000000006001600160a01b0316816001600160a01b03166316f0115b6040518163ffffffff1660e01b815260040160206040518083038186803b15801561180d57600080fd5b505afa158015611821573d6000803e3d6000fd5b505050506040513d601f19601f820116820180604052508101906118459190614060565b6001600160a01b0316146118945760405162461bcd60e51b81526020600482015260166024820152756e6f742d76616c69642d6e65772d737472617465677960501b6044820152606401610677565b61189d816128b5565b6000546040516370a0823160e01b81523060048201526119319183916001600160a01b03909116906370a082319060240160206040518083038186803b1580156118e657600080fd5b505afa1580156118fa573d6000803e3d6000fd5b505050506040513d601f19601f8201168201806040525081019061191e91906141f5565b6000546001600160a01b03169190612951565b6040516370a0823160e01b81523060048201526107429082906001600160a01b037f000000000000000000000000000000000000000000000000000000000000000016906370a082319060240160206040518083038186803b15801561199657600080fd5b505afa1580156119aa573d6000803e3d6000fd5b505050506040513d601f19601f820116820180604052508101906119ce91906141f5565b6001600160a01b037f0000000000000000000000000000000000000000000000000000000000000000169190612951565b7f00000000000000000000000000000000000000000000000000000000000000006001600160a01b0316630c340a246040518163ffffffff1660e01b815260040160206040518083038186803b158015611a5857600080fd5b505afa158015611a6c573d6000803e3d6000fd5b505050506040513d601f19601f82011682018060405250810190611a909190614060565b6001600160a01b0316336001600160a01b031614611ac05760405162461bcd60e51b815260040161067790614408565b6001600160a01b038116611b165760405162461bcd60e51b815260206004820152601d60248201527f6665652d636f6c6c6563746f722d616464726573732d69732d7a65726f0000006044820152606401610677565b6002546001600160a01b0382811691161415611b6c5760405162461bcd60e51b81526020600482015260156024820152746665652d636f6c6c6563746f722d69732d73616d6560581b6044820152606401610677565b6002546040516001600160a01b038084169216907f0f06062680f9bd68e786e9980d9bb03d73d5620fc3b345e417b6eacb310b970690600090a3600280546001600160a01b0319166001600160a01b0392909216919091179055565b600080611bd36129b4565b905080611c79576040516370a0823160e01b81523060048201527f00000000000000000000000000000000000000000000000000000000000000006001600160a01b0316906370a082319060240160206040518083038186803b158015611c3957600080fd5b505afa158015611c4d573d6000803e3d6000fd5b505050506040513d601f19601f82011682018060405250810190611c7191906141f5565b91505061057e565b600354604051631d1f307960e31b8152737fc66500c84a76ad7e9c93437bfc5ac33e2ddae960048201526001600160a01b037f00000000000000000000000000000000000000000000000000000000000000008116602483015260448201849052600092169063e8f983c89060640160006040518083038186803b158015611d0057600080fd5b505afa158015611d14573d6000803e3d6000fd5b505050506040513d6000823e601f3d908101601f19168201604052611d3c919081019061407c565b506040516370a0823160e01b81523060048201529092507f00000000000000000000000000000000000000000000000000000000000000006001600160a01b031691506370a082319060240160206040518083038186803b158015611da057600080fd5b505afa158015611db4573d6000803e3d6000fd5b505050506040513d601f19601f82011682018060405250810190611dd891906141f5565b610fed90826144d0565b6001546001600160a01b0316635dbe47e8336040516001600160e01b031960e084901b1681526001600160a01b03909116600482015260240160206040518083038186803b158015611e3357600080fd5b505afa158015611e47573d6000803e3d6000fd5b505050506040513d601f19601f82011682018060405250810190611e6b91906141c3565b611e875760405162461bcd60e51b8152600401610677906143d8565b6002546001600160a01b0316611ed75760405162461bcd60e51b81526020600482015260156024820152741999594b58dbdb1b1958dd1bdc8b5b9bdd0b5cd95d605a1b6044820152606401610677565b7f00000000000000000000000000000000000000000000000000000000000000006001600160a01b0316816001600160a01b03161415611f595760405162461bcd60e51b815260206004820152601f60248201527f6e6f742d616c6c6f7765642d746f2d73776565702d636f6c6c61746572616c006044820152606401610677565b611f6281610e0b565b15611fa65760405162461bcd60e51b815260206004820152601460248201527306e6f742d616c6c6f7765642d746f2d73776565760641b6044820152606401610677565b6001600160a01b03811673eeeeeeeeeeeeeeeeeeeeeeeeeeeeeeeeeeeeeeee1415611fe657600254611fe1906001600160a01b031647612c19565b610742565b6040516370a0823160e01b81523060048201526000906001600160a01b038316906370a082319060240160206040518083038186803b15801561202857600080fd5b505afa15801561203c573d6000803e3d6000fd5b505050506040513d601f19601f8201168201806040525081019061206091906141f5565b600254909150610a6a906001600160a01b03848116911683612951565b60006111f0611bc8565b6000806000612094610a6e565b9250925050610fed8282612d32565b6040516301e9a69560e41b815230600482015260001960248201526000805160206145c783398151915290631e9a695090604401600060405180830381600087803b1580156120f157600080fd5b505af1158015612105573d6000803e3d6000fd5b50505050565b610a6a7f00000000000000000000000000000000000000000000000000000000000000007f000000000000000000000000000000000000000000000000000000000000000083612d47565b60007f00000000000000000000000000000000000000000000000000000000000000006001600160a01b0316826001600160a01b031614806121b457506001600160a01b038216737fc66500c84a76ad7e9c93437bfc5ac33e2ddae9145b80610e165750506001600160a01b03166000805160206145c78339815191521490565b6040516370a0823160e01b81523060048201526000906000805160206145c7833981519152906370a082319060240160206040518083038186803b15801561221e57600080fd5b505afa158015612232573d6000803e3d6000fd5b505050506040513d601f19601f8201168201806040525081019061225691906141f5565b1580159061226b575082158061226b57508142115b90505b92915050565b600061227e610fd1565b156122ed576000805160206145c78339815191526001600160a01b031663787a08a66040518163ffffffff1660e01b8152600401600060405180830381600087803b1580156122cc57600080fd5b505af11580156122e0573d6000803e3d6000fd5b505050506001905061057e565b50600090565b604051636a9eee1360e11b81523060048201526000908190819081906001600160a01b037f0000000000000000000000000000000000000000000000000000000000000000169063d53ddc269060240160206040518083038186803b15801561235b57600080fd5b505afa15801561236f573d6000803e3d6000fd5b505050506040513d601f19601f8201168201806040525081019061239391906141f5565b604051639f2b283360e01b81523060048201529091506000906001600160a01b037f00000000000000000000000000000000000000000000000000000000000000001690639f2b28339060240160206040518083038186803b1580156123f857600080fd5b505afa15801561240c573d6000803e3d6000fd5b505050506040513d601f19601f8201168201806040525081019061243091906141f5565b905061243b81612eb7565b94506124468161304e565b935061245182613104565b92505050909192565b6040516370a0823160e01b81523060048201526107f2907f0000000000000000000000000000000000000000000000000000000000000000906001600160a01b038216906370a082319060240160206040518083038186803b1580156124bf57600080fd5b505afa1580156124d3573d6000803e3d6000fd5b505050506040513d601f19601f820116820180604052508101906124f791906141f5565b613137565b6125506001600160a01b037f0000000000000000000000000000000000000000000000000000000000000000167f0000000000000000000000000000000000000000000000000000000000000000836131d0565b6125a46001600160a01b037f0000000000000000000000000000000000000000000000000000000000000000167f0000000000000000000000000000000000000000000000000000000000000000836131d0565b60005b600360009054906101000a90046001600160a01b03166001600160a01b031663c2fba6676040518163ffffffff1660e01b815260040160206040518083038186803b1580156125f557600080fd5b505afa158015612609573d6000803e3d6000fd5b505050506040513d601f19601f8201168201806040525081019061262d91906141f5565b811015610a6a57600354604051636e74a6f760e01b8152600481018390526126ce916001600160a01b031690636e74a6f79060240160206040518083038186803b15801561267a57600080fd5b505afa15801561268e573d6000803e3d6000fd5b505050506040513d601f19601f820116820180604052508101906126b29190614060565b737fc66500c84a76ad7e9c93437bfc5ac33e2ddae990846131d0565b806126d88161456a565b9150506125a7565b60035460048054600554604051630f30f2d360e21b8152737fc66500c84a76ad7e9c93437bfc5ac33e2ddae99381019390935273c02aaa39b223fe8d0a0e5c4f27ead9083c756cc26024840152604483019190915260648201526001600160a01b0390911690633cc3cb4c90608401602060405180830381600087803b15801561276957600080fd5b505af115801561277d573d6000803e3d6000fd5b505050506040513d601f19601f820116820180604052508101906127a19190614060565b507f00000000000000000000000000000000000000000000000000000000000000006001600160a01b031673c02aaa39b223fe8d0a0e5c4f27ead9083c756cc2146107f25760035460048054600554604051630f30f2d360e21b8152737fc66500c84a76ad7e9c93437bfc5ac33e2ddae9938101939093526001600160a01b037f0000000000000000000000000000000000000000000000000000000000000000811660248501526044840192909252606483015290911690633cc3cb4c90608401602060405180830381600087803b15801561287d57600080fd5b505af1158015612891573d6000803e3d6000fd5b505050506040513d601f19601f820116820180604052508101906107429190614060565b6040516370a0823160e01b81523060048201526000906000805160206145c7833981519152906370a082319060240160206040518083038186803b1580156128fc57600080fd5b505afa158015612910573d6000803e3d6000fd5b505050506040513d601f19601f8201168201806040525081019061293491906141f5565b90508015610a6a57610a6a6000805160206145c783398151915283835b6040516001600160a01b03831660248201526044810182905261133f90849063a9059cbb60e01b906064015b60408051601f198184030181529190526020810180516001600160e01b03166001600160e01b0319909316929092179091526132f4565b60007f00000000000000000000000000000000000000000000000000000000000000006001600160a01b03166129ec5750600061057e565b604080516001808252818301909252600091602080830190803683370190505090507f000000000000000000000000000000000000000000000000000000000000000081600081518110612a5057634e487b7160e01b600052603260045260246000fd5b6001600160a01b0392909216602092830291909101909101526040516346df7f7160e11b81523060048201526000805160206145c783398151915290638dbefee29060240160206040518083038186803b158015612aad57600080fd5b505afa158015612ac1573d6000803e3d6000fd5b505050506040513d601f19601f82011682018060405250810190612ae591906141f5565b6040516370a0823160e01b81523060048201526000805160206145c7833981519152906370a082319060240160206040518083038186803b158015612b2957600080fd5b505afa158015612b3d573d6000803e3d6000fd5b505050506040513d601f19601f82011682018060405250810190612b6191906141f5565b6040516345accf9360e11b81526001600160a01b037f00000000000000000000000000000000000000000000000000000000000000001690638b599f2690612baf9086903090600401614348565b60206040518083038186803b158015612bc757600080fd5b505afa158015612bdb573d6000803e3d6000fd5b505050506040513d601f19601f82011682018060405250810190612bff91906141f5565b612c0991906144d0565b612c1391906144d0565b91505090565b80471015612c695760405162461bcd60e51b815260206004820152601d60248201527f416464726573733a20696e73756666696369656e742062616c616e63650000006044820152606401610677565b6000826001600160a01b03168260405160006040518083038185875af1925050503d8060008114612cb6576040519150601f19603f3d011682016040523d82523d6000602084013e612cbb565b606091505b505090508061133f5760405162461bcd60e51b815260206004820152603a60248201527f416464726573733a20756e61626c6520746f2073656e642076616c75652c207260448201527f6563697069656e74206d617920686176652072657665727465640000000000006064820152608401610677565b6000824211801561226b575050421115919050565b6040516370a0823160e01b815230600482015260009081906001600160a01b037f000000000000000000000000000000000000000000000000000000000000000016906370a082319060240160206040518083038186803b158015612dab57600080fd5b505afa158015612dbf573d6000803e3d6000fd5b505050506040513d601f19601f82011682018060405250810190612de391906141f5565b6040516335ea6a7560e01b81526001600160a01b0387811660048301529192506000917f000000000000000000000000000000000000000000000000000000000000000016906335ea6a75906024016101406040518083038186803b158015612e4b57600080fd5b505afa158015612e5f573d6000803e3d6000fd5b505050506040513d601f19601f82011682018060405250810190612e839190614262565b5050505050505050509050612eab8686612ea687612ea187876133c6565b6133c6565b6133dc565b925050505b9392505050565b6000612ee27f00000000000000000000000000000000000000000000000000000000000000006134e6565b6040516370a0823160e01b81523060048201526000907f00000000000000000000000000000000000000000000000000000000000000006001600160a01b0316906370a082319060240160206040518083038186803b158015612f4457600080fd5b505afa158015612f58573d6000803e3d6000fd5b505050506040513d601f19601f82011682018060405250810190612f7c91906141f5565b905082811115612fb757612fb57f000000000000000000000000000000000000000000000000000000000000000030612ea68685614527565b505b6040516370a0823160e01b81523060048201527f00000000000000000000000000000000000000000000000000000000000000006001600160a01b0316906370a082319060240160206040518083038186803b15801561301657600080fd5b505afa15801561302a573d6000803e3d6000fd5b505050506040513d601f19601f82011682018060405250810190612eb091906141f5565b6040516370a0823160e01b815230600482015260009081906001600160a01b037f000000000000000000000000000000000000000000000000000000000000000016906370a082319060240160206040518083038186803b1580156130b257600080fd5b505afa1580156130c6573d6000803e3d6000fd5b505050506040513d601f19601f820116820180604052508101906130ea91906141f5565b9050828110156130fe57612eb08184614527565b50919050565b60008115610e1957610e167f00000000000000000000000000000000000000000000000000000000000000003084612d47565b8015610a6a5760405163e8eda9df60e01b81526001600160a01b03838116600483015260248201839052306044830152600060648301527f0000000000000000000000000000000000000000000000000000000000000000169063e8eda9df90608401600060405180830381600087803b1580156131b457600080fd5b505af11580156131c8573d6000803e3d6000fd5b505050505050565b8015806132595750604051636eb1769f60e11b81523060048201526001600160a01b03838116602483015284169063dd62ed3e9060440160206040518083038186803b15801561321f57600080fd5b505afa158015613233573d6000803e3d6000fd5b505050506040513d601f19601f8201168201806040525081019061325791906141f5565b155b6132c45760405162461bcd60e51b815260206004820152603660248201527f5361666545524332303a20617070726f76652066726f6d206e6f6e2d7a65726f60448201527520746f206e6f6e2d7a65726f20616c6c6f77616e636560501b6064820152608401610677565b6040516001600160a01b03831660248201526044810182905261133f90849063095ea7b360e01b9060640161297d565b6000613349826040518060400160405280602081526020017f5361666545524332303a206c6f772d6c6576656c2063616c6c206661696c6564815250856001600160a01b03166135619092919063ffffffff16565b80519091501561133f578080602001905181019061336791906141c3565b61133f5760405162461bcd60e51b815260206004820152602a60248201527f5361666545524332303a204552433230206f7065726174696f6e20646964206e6044820152691bdd081cdd58d8d9595960b21b6064820152608401610677565b60008183106133d5578161226b565b5090919050565b600081156134df57604051631a4ca37b60e21b81526001600160a01b03858116600483015260248201849052848116604483015283917f0000000000000000000000000000000000000000000000000000000000000000909116906369328dec90606401602060405180830381600087803b15801561345a57600080fd5b505af115801561346e573d6000803e3d6000fd5b505050506040513d601f19601f8201168201806040525081019061349291906141f5565b146134df5760405162461bcd60e51b815260206004820152601f60248201527f77697468647261776e2d616d6f756e742d69732d6e6f742d636f7272656374006044820152606401610677565b5092915050565b60006134f0613578565b90508015610a6a576000600654612710141561350d57600161353f565b61353f613537613531737fc66500c84a76ad7e9c93437bfc5ac33e2ddae9866138db565b84613ad3565b600654613bfe565b905061133f737fc66500c84a76ad7e9c93437bfc5ac33e2ddae9848484613c21565b60606135708484600085613de2565b949350505050565b60007f00000000000000000000000000000000000000000000000000000000000000006001600160a01b03166135b05750600061057e565b60008060006135bd610a6e565b92509250925082600014806135d157508042115b156136f157604080516001808252818301909252600091602080830190803683370190505090507f00000000000000000000000000000000000000000000000000000000000000008160008151811061363a57634e487b7160e01b600052603260045260246000fd5b6001600160a01b039283166020918202929092010152604051633111e7b360e01b81527f000000000000000000000000000000000000000000000000000000000000000090911690633111e7b39061369c908490600019903090600401614372565b602060405180830381600087803b1580156136b657600080fd5b505af11580156136ca573d6000803e3d6000fd5b505050506040513d601f19601f820116820180604052508101906136ee91906141f5565b50505b6136f9610a6e565b9194509250905061370a8282612d32565b1561377a576040516301e9a69560e41b815230600482015260001960248201526000805160206145c783398151915290631e9a695090604401600060405180830381600087803b15801561375d57600080fd5b505af1158015613771573d6000803e3d6000fd5b505050506137eb565b61378483826121d7565b156137eb576000805160206145c78339815191526001600160a01b031663787a08a66040518163ffffffff1660e01b8152600401600060405180830381600087803b1580156137d257600080fd5b505af11580156137e6573d6000803e3d6000fd5b505050505b6040516309a99b4f60e41b815230600482015260001960248201526000805160206145c783398151915290639a99b4f090604401600060405180830381600087803b15801561383957600080fd5b505af115801561384d573d6000803e3d6000fd5b50506040516370a0823160e01b8152306004820152737fc66500c84a76ad7e9c93437bfc5ac33e2ddae992506370a08231915060240160206040518083038186803b15801561389b57600080fd5b505afa1580156138af573d6000803e3d6000fd5b505050506040513d601f19601f820116820180604052508101906138d391906141f5565b935050505090565b60606001600160a01b03831673c02aaa39b223fe8d0a0e5c4f27ead9083c756cc2148061392457506001600160a01b03821673c02aaa39b223fe8d0a0e5c4f27ead9083c756cc2145b156139d2576040805160028082526060820183529091602083019080368337019050509050828160008151811061396b57634e487b7160e01b600052603260045260246000fd5b60200260200101906001600160a01b031690816001600160a01b03168152505081816001815181106139ad57634e487b7160e01b600052603260045260246000fd5b60200260200101906001600160a01b031690816001600160a01b03168152505061226e565b6040805160038082526080820190925290602082016060803683370190505090508281600081518110613a1557634e487b7160e01b600052603260045260246000fd5b60200260200101906001600160a01b031690816001600160a01b03168152505073c02aaa39b223fe8d0a0e5c4f27ead9083c756cc281600181518110613a6b57634e487b7160e01b600052603260045260246000fd5b60200260200101906001600160a01b031690816001600160a01b0316815250508181600281518110613aad57634e487b7160e01b600052603260045260246000fd5b60200260200101906001600160a01b031690816001600160a01b03168152505092915050565b60006001835111613b1c5760405162461bcd60e51b81526020600482015260136024820152720d2dcecc2d8d2c85adee4c2c6d8ca5ae0c2e8d606b1b6044820152606401610677565b50806000805b60018551613b309190614527565b811015613bf657613b9c858281518110613b5a57634e487b7160e01b600052603260045260246000fd5b602002602001015186836001613b7091906144d0565b81518110613b8e57634e487b7160e01b600052603260045260246000fd5b602002602001015185613f0a565b909350915081613be45760405162461bcd60e51b8152602060048201526013602482015272696e76616c69642d6f7261636c652d7261746560681b6044820152606401610677565b80613bee8161456a565b915050613b22565b505092915050565b6000612710613c0d8382614527565b613c179085614508565b61226b91906144e8565b600354604051631d1f307960e31b81526001600160a01b038681166004830152858116602483015260448201859052600092839283929091169063e8f983c89060640160006040518083038186803b158015613c7c57600080fd5b505afa158015613c90573d6000803e3d6000fd5b505050506040513d6000823e601f3d908101601f19168201604052613cb8919081019061407c565b9250925092508360001415613ccc57600193505b8115613dd957600354604051636e74a6f760e01b8152600481018390526001600160a01b0390911690636e74a6f79060240160206040518083038186803b158015613d1657600080fd5b505afa158015613d2a573d6000803e3d6000fd5b505050506040513d601f19601f82011682018060405250810190613d4e9190614060565b6001600160a01b03166338ed173986868630426040518663ffffffff1660e01b8152600401613d8195949392919061443f565b600060405180830381600087803b158015613d9b57600080fd5b505af1158015613daf573d6000803e3d6000fd5b505050506040513d6000823e601f3d908101601f19168201604052613dd79190810190614130565b505b50505050505050565b606082471015613e435760405162461bcd60e51b815260206004820152602660248201527f416464726573733a20696e73756666696369656e742062616c616e636520666f6044820152651c8818d85b1b60d21b6064820152608401610677565b843b613e915760405162461bcd60e51b815260206004820152601d60248201527f416464726573733a2063616c6c20746f206e6f6e2d636f6e74726163740000006044820152606401610677565b600080866001600160a01b03168587604051613ead919061432c565b60006040518083038185875af1925050503d8060008114613eea576040519150601f19603f3d011682016040523d82523d6000602084013e613eef565b606091505b5091509150613eff828286613ffb565b979650505050505050565b6003546004805460055460405163b67bb24d60e01b81526001600160a01b038881169482019490945286841660248201526044810186905260648101929092526084820152600092839283928392919091169063b67bb24d9060a401606060405180830381600087803b158015613f8057600080fd5b505af1158015613f94573d6000803e3d6000fd5b505050506040513d601f19601f82011682018060405250810190613fb8919061422e565b509150915060045442613fcb9190614527565b81118015613fd857508115155b15613fe95750915060019050613ff3565b6000809350935050505b935093915050565b6060831561400a575081612eb0565b82511561401a5782518084602001fd5b8160405162461bcd60e51b815260040161067791906143a5565b80518015158114610e1957600080fd5b600060208284031215614055578081fd5b8135612eb0816145b1565b600060208284031215614071578081fd5b8151612eb0816145b1565b600080600060608486031215614090578182fd5b835167ffffffffffffffff8111156140a6578283fd5b8401601f810186136140b6578283fd5b805160206140cb6140c6836144ac565b61447b565b8083825282820191508285018a848660051b88010111156140ea578788fd5b8795505b84861015614115578051614101816145b1565b8352600195909501949183019183016140ee565b50918801516040909801519199979850909695505050505050565b60006020808385031215614142578182fd5b825167ffffffffffffffff811115614158578283fd5b8301601f81018513614168578283fd5b80516141766140c6826144ac565b80828252848201915084840188868560051b8701011115614195578687fd5b8694505b838510156141b7578051835260019490940193918501918501614199565b50979650505050505050565b6000602082840312156141d4578081fd5b61226b82614034565b6000602082840312156141ee578081fd5b5035919050565b600060208284031215614206578081fd5b5051919050565b6000806040838503121561421f578182fd5b50508035926020909101359150565b600080600060608486031215614242578283fd5b835192506020840151915061425960408501614034565b90509250925092565b6000806000806000806000806000806101408b8d031215614281578586fd5b8a51995060208b0151985060408b0151975060608b0151965060808b0151955060a08b0151945060c08b0151935060e08b015192506101008b015191506101208b015164ffffffffff811681146142d6578182fd5b809150509295989b9194979a5092959850565b6000815180845260208085019450808401835b838110156143215781516001600160a01b0316875295820195908201906001016142fc565b509495945050505050565b6000825161433e81846020870161453e565b9190910192915050565b60006040825261435b60408301856142e9565b905060018060a01b03831660208301529392505050565b60006060825261438560608301866142e9565b6020830194909452506001600160a01b0391909116604090910152919050565b60006020825282518060208401526143c481604085016020870161453e565b601f01601f19169190910160400192915050565b60208082526016908201527531b0b63632b916b4b996b737ba16b096b5b2b2b832b960511b604082015260600190565b6020808252601a908201527f63616c6c65722d69732d6e6f742d7468652d676f7665726e6f72000000000000604082015260600190565b600086825285602083015260a0604083015261445e60a08301866142e9565b6001600160a01b0394909416606083015250608001529392505050565b604051601f8201601f1916810167ffffffffffffffff811182821017156144a4576144a461459b565b604052919050565b600067ffffffffffffffff8211156144c6576144c661459b565b5060051b60200190565b600082198211156144e3576144e3614585565b500190565b60008261450357634e487b7160e01b81526012600452602481fd5b500490565b600081600019048311821515161561452257614522614585565b500290565b60008282101561453957614539614585565b500390565b60005b83811015614559578181015183820152602001614541565b838111156121055750506000910152565b600060001982141561457e5761457e614585565b5060010190565b634e487b7160e01b600052601160045260246000fd5b634e487b7160e01b600052604160045260246000fd5b6001600160a01b038116811461074257600080fdfe0000000000000000000000004da27a545c0c5b758a6ba100e3a049001de870f5a26469706673582212207f9acdc66d81d34e7984520c7124cd646f8d91e8ca76181f5a2eb4005669c26464736f6c63430008030033",
  "devdoc": {
    "kind": "dev",
    "methods": {
      "addKeeper(address)": {
        "params": {
          "_keeperAddress": "keeper address to add."
        }
      },
      "approveToken()": {
        "details": "Approve all required tokens"
      },
      "convertFrom18(uint256)": {
        "details": "Convert from 18 decimals to token defined decimals. Default no conversion."
      },
      "init(address)": {
        "params": {
          "_addressListFactory": "To support same code in eth side chain, user _addressListFactory as param ethereum- 0xded8217De022706A191eE7Ee0Dc9df1185Fb5dA3 polygon-0xD10D5696A350D65A9AA15FE8B258caB4ab1bF291"
        }
      },
      "migrate(address)": {
        "details": "_beforeMigration hook can be implemented in child strategy to do extra steps.",
        "params": {
          "_newStrategy": "Address of new strategy"
        }
      },
      "rebalance()": {
        "details": "Rebalance profit, loss and investment of this strategy"
      },
      "removeKeeper(address)": {
        "params": {
          "_keeperAddress": "keeper address to remove."
        }
      },
      "sweepERC20(address)": {
        "details": "sweep given token to feeCollector of strategy",
        "params": {
          "_fromToken": "token address to sweep"
        }
      },
      "totalValue()": {
        "details": "aToken and collateral are 1:1"
      },
      "totalValueCurrent()": {
        "details": "Report total value in collateral token"
      },
      "updateFeeCollector(address)": {
        "params": {
          "_feeCollector": "fee collector address"
        }
      },
      "updateSwapManager(address)": {
        "params": {
          "_swapManager": "swap manager address"
        }
      },
      "withdraw(uint256)": {
        "details": "Withdraw collateral token from lending pool.",
        "params": {
          "_amount": "Amount of collateral token"
        }
      }
    },
    "version": 1
  },
  "userdoc": {
    "kind": "user",
    "methods": {
      "addKeeper(address)": {
        "notice": "Add given address in keepers list."
      },
      "canStartCooldown()": {
        "notice": "Returns true if we should start cooldown"
      },
      "canUnstake()": {
        "notice": "Returns true if Aave can be unstaked"
      },
      "cooldownData()": {
        "notice": "Return cooldown related timestamps"
      },
      "init(address)": {
        "notice": "Create keeper list NOTE: Any function with onlyKeeper modifier will not work until this function is called. NOTE: Due to gas constraint this function cannot be called in constructor."
      },
      "isReservedToken(address)": {
        "notice": "Check whether given token is reserved or not. Reserved tokens are not allowed to sweep."
      },
      "migrate(address)": {
        "notice": "Migrate all asset and vault ownership,if any, to new strategy"
      },
      "removeKeeper(address)": {
        "notice": "Remove given address from keepers list."
      },
      "startCooldown()": {
        "notice": "Initiate cooldown to unstake aave."
      },
      "token()": {
        "notice": "Returns address of token correspond to collateral token"
      },
      "totalValue()": {
        "notice": "Report total value"
      },
      "totalValueCurrent()": {
        "notice": "Calculate total value of asset under management (in real-time)"
      },
      "unstakeAave()": {
        "notice": "Unstake Aave from stakedAave contract"
      },
      "updateFeeCollector(address)": {
        "notice": "Update fee collector"
      },
      "updateSwapManager(address)": {
        "notice": "Update swap manager address"
      }
    },
    "version": 1
  },
  "storageLayout": {
    "storage": [
      {
        "astId": 13019,
        "contract": "contracts/strategies/aave/AaveStrategyUNI.sol:AaveStrategyUNI",
        "label": "receiptToken",
        "offset": 0,
        "slot": "0",
        "type": "t_address"
      },
      {
        "astId": 13025,
        "contract": "contracts/strategies/aave/AaveStrategyUNI.sol:AaveStrategyUNI",
        "label": "keepers",
        "offset": 0,
        "slot": "1",
        "type": "t_contract(IAddressList)4259"
      },
      {
        "astId": 13028,
        "contract": "contracts/strategies/aave/AaveStrategyUNI.sol:AaveStrategyUNI",
        "label": "feeCollector",
        "offset": 0,
        "slot": "2",
        "type": "t_address"
      },
      {
        "astId": 13031,
        "contract": "contracts/strategies/aave/AaveStrategyUNI.sol:AaveStrategyUNI",
        "label": "swapManager",
        "offset": 0,
        "slot": "3",
        "type": "t_contract(ISwapManager)4562"
      },
      {
        "astId": 13034,
        "contract": "contracts/strategies/aave/AaveStrategyUNI.sol:AaveStrategyUNI",
        "label": "oraclePeriod",
        "offset": 0,
        "slot": "4",
        "type": "t_uint256"
      },
      {
        "astId": 13037,
        "contract": "contracts/strategies/aave/AaveStrategyUNI.sol:AaveStrategyUNI",
        "label": "oracleRouterIdx",
        "offset": 0,
        "slot": "5",
        "type": "t_uint256"
      },
      {
        "astId": 13040,
        "contract": "contracts/strategies/aave/AaveStrategyUNI.sol:AaveStrategyUNI",
        "label": "swapSlippage",
        "offset": 0,
        "slot": "6",
        "type": "t_uint256"
      },
      {
        "astId": 14300,
        "contract": "contracts/strategies/aave/AaveStrategyUNI.sol:AaveStrategyUNI",
        "label": "aaveAddressesProvider",
        "offset": 0,
        "slot": "7",
        "type": "t_contract(AaveLendingPoolAddressesProvider)3943"
      }
    ],
    "types": {
      "t_address": {
        "encoding": "inplace",
        "label": "address",
        "numberOfBytes": "20"
      },
      "t_contract(AaveLendingPoolAddressesProvider)3943": {
        "encoding": "inplace",
        "label": "contract AaveLendingPoolAddressesProvider",
        "numberOfBytes": "20"
      },
      "t_contract(IAddressList)4259": {
        "encoding": "inplace",
        "label": "contract IAddressList",
        "numberOfBytes": "20"
      },
      "t_contract(ISwapManager)4562": {
        "encoding": "inplace",
        "label": "contract ISwapManager",
        "numberOfBytes": "20"
      },
      "t_uint256": {
        "encoding": "inplace",
        "label": "uint256",
        "numberOfBytes": "32"
      }
    }
  }
}