{
  "address": "0xdeF359ce2a21f81A5d54eba58894DC00A2781d3a",
  "abi": [
    {
      "inputs": [
        {
          "internalType": "address",
          "name": "_pool",
          "type": "address"
        },
        {
          "internalType": "address",
          "name": "_swapManager",
          "type": "address"
        }
      ],
      "stateMutability": "nonpayable",
      "type": "constructor"
    },
    {
      "anonymous": false,
      "inputs": [
        {
          "indexed": true,
          "internalType": "address",
          "name": "previousFeeCollector",
          "type": "address"
        },
        {
          "indexed": true,
          "internalType": "address",
          "name": "newFeeCollector",
          "type": "address"
        }
      ],
      "name": "UpdatedFeeCollector",
      "type": "event"
    },
    {
      "anonymous": false,
      "inputs": [
        {
          "indexed": false,
          "internalType": "uint256",
          "name": "oldPeriod",
          "type": "uint256"
        },
        {
          "indexed": false,
          "internalType": "uint256",
          "name": "newPeriod",
          "type": "uint256"
        },
        {
          "indexed": false,
          "internalType": "uint256",
          "name": "oldRouterIdx",
          "type": "uint256"
        },
        {
          "indexed": false,
          "internalType": "uint256",
          "name": "newRouterIdx",
          "type": "uint256"
        }
      ],
      "name": "UpdatedOracleConfig",
      "type": "event"
    },
    {
      "anonymous": false,
      "inputs": [
        {
          "indexed": true,
          "internalType": "address",
          "name": "previousSwapManager",
          "type": "address"
        },
        {
          "indexed": true,
          "internalType": "address",
          "name": "newSwapManager",
          "type": "address"
        }
      ],
      "name": "UpdatedSwapManager",
      "type": "event"
    },
    {
      "anonymous": false,
      "inputs": [
        {
          "indexed": false,
          "internalType": "uint256",
          "name": "oldSwapSlippage",
          "type": "uint256"
        },
        {
          "indexed": false,
          "internalType": "uint256",
          "name": "newSwapSlippage",
          "type": "uint256"
        }
      ],
      "name": "UpdatedSwapSlippage",
      "type": "event"
    },
    {
      "inputs": [],
      "name": "NAME",
      "outputs": [
        {
          "internalType": "string",
          "name": "",
          "type": "string"
        }
      ],
      "stateMutability": "view",
      "type": "function"
    },
    {
      "inputs": [],
      "name": "VERSION",
      "outputs": [
        {
          "internalType": "string",
          "name": "",
          "type": "string"
        }
      ],
      "stateMutability": "view",
      "type": "function"
    },
    {
      "inputs": [
        {
          "internalType": "address",
          "name": "_keeperAddress",
          "type": "address"
        }
      ],
      "name": "addKeeper",
      "outputs": [],
      "stateMutability": "nonpayable",
      "type": "function"
    },
    {
      "inputs": [],
      "name": "approveToken",
      "outputs": [],
      "stateMutability": "nonpayable",
      "type": "function"
    },
    {
      "inputs": [],
      "name": "borrowRatioRange",
      "outputs": [
        {
          "internalType": "uint256",
          "name": "_minBorrowRatio",
          "type": "uint256"
        },
        {
          "internalType": "uint256",
          "name": "_maxBorrowRatio",
          "type": "uint256"
        }
      ],
      "stateMutability": "view",
      "type": "function"
    },
    {
      "inputs": [
        {
          "internalType": "address",
          "name": "",
          "type": "address"
        },
        {
          "components": [
            {
              "internalType": "address",
              "name": "owner",
              "type": "address"
            },
            {
              "internalType": "uint256",
              "name": "number",
              "type": "uint256"
            }
          ],
          "internalType": "struct Account.Info",
          "name": "",
          "type": "tuple"
        },
        {
          "internalType": "bytes",
          "name": "_callData",
          "type": "bytes"
        }
      ],
      "name": "callFunction",
      "outputs": [],
      "stateMutability": "nonpayable",
      "type": "function"
    },
    {
      "inputs": [],
      "name": "collateralToken",
      "outputs": [
        {
          "internalType": "contract IERC20",
          "name": "",
          "type": "address"
        }
      ],
      "stateMutability": "view",
      "type": "function"
    },
    {
      "inputs": [
        {
          "internalType": "uint256",
          "name": "amount",
          "type": "uint256"
        }
      ],
      "name": "convertFrom18",
      "outputs": [
        {
          "internalType": "uint256",
          "name": "",
          "type": "uint256"
        }
      ],
      "stateMutability": "pure",
      "type": "function"
    },
    {
      "inputs": [],
      "name": "currentBorrowRatio",
      "outputs": [
        {
          "internalType": "uint256",
          "name": "",
          "type": "uint256"
        }
      ],
      "stateMutability": "view",
      "type": "function"
    },
    {
      "inputs": [],
      "name": "dyDxMarketId",
      "outputs": [
        {
          "internalType": "uint256",
          "name": "",
          "type": "uint256"
        }
      ],
      "stateMutability": "view",
      "type": "function"
    },
    {
      "inputs": [
        {
          "internalType": "address[]",
          "name": "",
          "type": "address[]"
        },
        {
          "internalType": "uint256[]",
          "name": "_amounts",
          "type": "uint256[]"
        },
        {
          "internalType": "uint256[]",
          "name": "_premiums",
          "type": "uint256[]"
        },
        {
          "internalType": "address",
          "name": "_initiator",
          "type": "address"
        },
        {
          "internalType": "bytes",
          "name": "_data",
          "type": "bytes"
        }
      ],
      "name": "executeOperation",
      "outputs": [
        {
          "internalType": "bool",
          "name": "",
          "type": "bool"
        }
      ],
      "stateMutability": "nonpayable",
      "type": "function"
    },
    {
      "inputs": [],
      "name": "feeCollector",
      "outputs": [
        {
          "internalType": "address",
          "name": "",
          "type": "address"
        }
      ],
      "stateMutability": "view",
      "type": "function"
    },
    {
      "inputs": [],
      "name": "getPosition",
      "outputs": [
        {
          "internalType": "uint256",
          "name": "_supply",
          "type": "uint256"
        },
        {
          "internalType": "uint256",
          "name": "_borrow",
          "type": "uint256"
        }
      ],
      "stateMutability": "view",
      "type": "function"
    },
    {
      "inputs": [
        {
          "internalType": "address",
          "name": "_addressListFactory",
          "type": "address"
        }
      ],
      "name": "init",
      "outputs": [],
      "stateMutability": "nonpayable",
      "type": "function"
    },
    {
      "inputs": [],
      "name": "isAaveActive",
      "outputs": [
        {
          "internalType": "bool",
          "name": "",
          "type": "bool"
        }
      ],
      "stateMutability": "view",
      "type": "function"
    },
    {
      "inputs": [],
      "name": "isDyDxActive",
      "outputs": [
        {
          "internalType": "bool",
          "name": "",
          "type": "bool"
        }
      ],
      "stateMutability": "view",
      "type": "function"
    },
    {
      "inputs": [],
      "name": "isLossMaking",
      "outputs": [
        {
          "internalType": "bool",
          "name": "",
          "type": "bool"
        }
      ],
      "stateMutability": "nonpayable",
      "type": "function"
    },
    {
      "inputs": [
        {
          "internalType": "address",
          "name": "_token",
          "type": "address"
        }
      ],
      "name": "isReservedToken",
      "outputs": [
        {
          "internalType": "bool",
          "name": "",
          "type": "bool"
        }
      ],
      "stateMutability": "view",
      "type": "function"
    },
    {
      "inputs": [],
      "name": "keepers",
      "outputs": [
        {
          "internalType": "contract IAddressList",
          "name": "",
          "type": "address"
        }
      ],
      "stateMutability": "view",
      "type": "function"
    },
    {
      "inputs": [],
      "name": "maxBorrowLimit",
      "outputs": [
        {
          "internalType": "uint256",
          "name": "",
          "type": "uint256"
        }
      ],
      "stateMutability": "view",
      "type": "function"
    },
    {
      "inputs": [
        {
          "internalType": "address",
          "name": "_newStrategy",
          "type": "address"
        }
      ],
      "name": "migrate",
      "outputs": [],
      "stateMutability": "nonpayable",
      "type": "function"
    },
    {
      "inputs": [],
      "name": "minBorrowLimit",
      "outputs": [
        {
          "internalType": "uint256",
          "name": "",
          "type": "uint256"
        }
      ],
      "stateMutability": "view",
      "type": "function"
    },
    {
      "inputs": [],
      "name": "oraclePeriod",
      "outputs": [
        {
          "internalType": "uint256",
          "name": "",
          "type": "uint256"
        }
      ],
      "stateMutability": "view",
      "type": "function"
    },
    {
      "inputs": [],
      "name": "oracleRouterIdx",
      "outputs": [
        {
          "internalType": "uint256",
          "name": "",
          "type": "uint256"
        }
      ],
      "stateMutability": "view",
      "type": "function"
    },
    {
      "inputs": [],
      "name": "pool",
      "outputs": [
        {
          "internalType": "address",
          "name": "",
          "type": "address"
        }
      ],
      "stateMutability": "view",
      "type": "function"
    },
    {
      "inputs": [],
      "name": "rebalance",
      "outputs": [],
      "stateMutability": "nonpayable",
      "type": "function"
    },
    {
      "inputs": [],
      "name": "receiptToken",
      "outputs": [
        {
          "internalType": "address",
          "name": "",
          "type": "address"
        }
      ],
      "stateMutability": "view",
      "type": "function"
    },
    {
      "inputs": [
        {
          "internalType": "address",
          "name": "_keeperAddress",
          "type": "address"
        }
      ],
      "name": "removeKeeper",
      "outputs": [],
      "stateMutability": "nonpayable",
      "type": "function"
    },
    {
      "inputs": [],
      "name": "setupOracles",
      "outputs": [],
      "stateMutability": "nonpayable",
      "type": "function"
    },
    {
      "inputs": [],
      "name": "swapManager",
      "outputs": [
        {
          "internalType": "contract ISwapManager",
          "name": "",
          "type": "address"
        }
      ],
      "stateMutability": "view",
      "type": "function"
    },
    {
      "inputs": [],
      "name": "swapSlippage",
      "outputs": [
        {
          "internalType": "uint256",
          "name": "",
          "type": "uint256"
        }
      ],
      "stateMutability": "view",
      "type": "function"
    },
    {
      "inputs": [
        {
          "internalType": "address",
          "name": "_fromToken",
          "type": "address"
        }
      ],
      "name": "sweepERC20",
      "outputs": [],
      "stateMutability": "nonpayable",
      "type": "function"
    },
    {
      "inputs": [],
      "name": "token",
      "outputs": [
        {
          "internalType": "address",
          "name": "",
          "type": "address"
        }
      ],
      "stateMutability": "view",
      "type": "function"
    },
    {
      "inputs": [],
      "name": "totalValue",
      "outputs": [
        {
          "internalType": "uint256",
          "name": "_totalValue",
          "type": "uint256"
        }
      ],
      "stateMutability": "view",
      "type": "function"
    },
    {
      "inputs": [],
      "name": "totalValueCurrent",
      "outputs": [
        {
          "internalType": "uint256",
          "name": "_totalValue",
          "type": "uint256"
        }
      ],
      "stateMutability": "nonpayable",
      "type": "function"
    },
    {
      "inputs": [
        {
          "internalType": "bool",
          "name": "_status",
          "type": "bool"
        }
      ],
      "name": "updateAaveStatus",
      "outputs": [],
      "stateMutability": "nonpayable",
      "type": "function"
    },
    {
      "inputs": [
        {
          "internalType": "uint256",
          "name": "_minBorrowLimit",
          "type": "uint256"
        },
        {
          "internalType": "uint256",
          "name": "_maxBorrowLimit",
          "type": "uint256"
        }
      ],
      "name": "updateBorrowLimit",
      "outputs": [],
      "stateMutability": "nonpayable",
      "type": "function"
    },
    {
      "inputs": [
        {
          "internalType": "bool",
          "name": "_status",
          "type": "bool"
        }
      ],
      "name": "updateDyDxStatus",
      "outputs": [],
      "stateMutability": "nonpayable",
      "type": "function"
    },
    {
      "inputs": [
        {
          "internalType": "address",
          "name": "_feeCollector",
          "type": "address"
        }
      ],
      "name": "updateFeeCollector",
      "outputs": [],
      "stateMutability": "nonpayable",
      "type": "function"
    },
    {
      "inputs": [
        {
          "internalType": "uint256",
          "name": "_newPeriod",
          "type": "uint256"
        },
        {
          "internalType": "uint256",
          "name": "_newRouterIdx",
          "type": "uint256"
        }
      ],
      "name": "updateOracleConfig",
      "outputs": [],
      "stateMutability": "nonpayable",
      "type": "function"
    },
    {
      "inputs": [
        {
          "internalType": "address",
          "name": "_swapManager",
          "type": "address"
        }
      ],
      "name": "updateSwapManager",
      "outputs": [],
      "stateMutability": "nonpayable",
      "type": "function"
    },
    {
      "inputs": [
        {
          "internalType": "uint256",
          "name": "_newSwapSlippage",
          "type": "uint256"
        }
      ],
      "name": "updateSwapSlippage",
      "outputs": [],
      "stateMutability": "nonpayable",
      "type": "function"
    },
    {
      "inputs": [
        {
          "internalType": "uint256",
          "name": "_amount",
          "type": "uint256"
        }
      ],
      "name": "withdraw",
      "outputs": [],
      "stateMutability": "nonpayable",
      "type": "function"
    }
  ],
  "transactionHash": "0xca0f5547538976c1fe984a55141fbda3dd59768d142815c1de40435d224845d0",
  "args": [
    "0xfF43C327410F960261057ba1DA787eD78B42c257",
    "0xe382d9f2394A359B01006faa8A1864b8a60d2710"
  ],
  "solcInputHash": "82e92ed4fcb32722a66f99b06c3003f7",
  "bytecode": "0x60c0604052610e1060045560006005556127106006556008805462ffffff19169055611b58600955612328600a553480156200003a57600080fd5b506040516200601e3803806200601e8339810160408190526200005d9162000275565b81817335a18000230da775cac24873d00ff85bccded5508282826001600160a01b038316620000d35760405162461bcd60e51b815260206004820152601460248201527f706f6f6c2d616464726573732d69732d7a65726f00000000000000000000000060448201526064015b60405180910390fd5b6001600160a01b038216620001205760405162461bcd60e51b8152602060048201526012602482015271736d2d616464726573732d69732d7a65726f60701b6044820152606401620000ca565b600380546001600160a01b0319166001600160a01b0384811691909117909155606084901b6001600160601b03191660a05260408051637e062a3560e11b815290519185169163fc0c546a91600480820192602092909190829003018186803b1580156200018d57600080fd5b505afa158015620001a2573d6000803e3d6000fd5b505050506040513d601f19601f82011682018060405250810190620001c89190620002b3565b60601b6001600160601b031916608052600080546001600160a01b0319166001600160a01b039283161790558316151591506200024a90505760405162461bcd60e51b815260206004820152601660248201527f63546f6b656e2d616464726573732d69732d7a65726f000000000000000000006044820152606401620000ca565b600b80546001600160a01b0319166001600160a01b039290921691909117905550620002f292505050565b6000806040838503121562000288578182fd5b82516200029581620002d9565b6020840151909250620002a881620002d9565b809150509250929050565b600060208284031215620002c5578081fd5b8151620002d281620002d9565b9392505050565b6001600160a01b0381168114620002ef57600080fd5b50565b60805160601c60a05160601c615bd36200044b600039600081816102a4015281816105b901528181610748015281816109c301528181610a3f01528181610c3c01528181610def01528181610f19015281816111fe015281816117580152818161196e01528181611c4e01528181611d1701528181611f6c01528181612135015281816125fa01528181612769015281816127fa015281816128970152612f6101526000818161048c01528181610c0001528181610eb40152818161162f0152818161180401528181611ebf01528181611f43015281816123920152818161291801528181612a6c01528181612bd201528181612cc301528181612d7a01528181612f3f01528181612f97015281816131020152818161329f015281816133630152818161357d015281816135fe015281816136f4015281816138030152818161383c015281816138ec0152614cce0152615bd36000f3fe608060405234801561001057600080fd5b50600436106102695760003560e01c806399b71d5c11610151578063d4c3eea0116100c3578063f23c472211610087578063f23c472214610542578063f7c99bea14610554578063fb589de21461055d578063fb7ee1021461056e578063fc0c546a14610581578063ffa1ad741461059257610269565b8063d4c3eea014610503578063e00af4a71461050b578063e260d7471461051e578063e645c20214610527578063ec78e8321461052f57610269565b8063b2016bd411610115578063b2016bd414610487578063c415b95c146104ae578063cd2d7ebe146104c1578063ce5494bb146104ca578063d2c35ce8146104dd578063d3332539146104f057610269565b806399b71d5c1461040e5780639b7166a914610416578063a3f4df7e14610423578063a923b2a61461046c578063aa1018861461047f57610269565b8063599e892a116101ea5780637d7c2a1c116101ae5780637d7c2a1c146103bd5780638b418713146103c557806391d260e9146103d8578063920f5c84146103e057806392986024146103f3578063951dc22c146103fb57610269565b8063599e892a1461035f5780635abda0281461037257806367f5e4b81461037a578063709d039d1461038d5780637398ab18146103a057610269565b80632e1a7d4d116102315780632e1a7d4d146102fa5780634032b72b1461030d57806342189c8f14610320578063440d7248146103295780634c36fad71461034c57610269565b80630181686c1461026e57806314ae9f2e1461028a57806316f0115b1461029f57806319ab453c146102de5780631aedeabe146102f1575b600080fd5b610277600a5481565b6040519081526020015b60405180910390f35b61029d61029836600461516c565b6105b7565b005b6102c67f000000000000000000000000000000000000000000000000000000000000000081565b6040516001600160a01b039091168152602001610281565b61029d6102ec36600461516c565b610746565b61027760065481565b61029d6103083660046155a6565b6109c0565b61029d61031b36600461516c565b610a3d565b61027760045481565b61033c61033736600461516c565b610bbd565b6040519015158152602001610281565b61029d61035a36600461516c565b610c3a565b61029d61036d3660046154af565b610ded565b610277610ed8565b61029d6103883660046155a6565b610f17565b6003546102c6906001600160a01b031681565b6103a8611063565b60408051928352602083019190915201610281565b61029d611118565b61029d6103d33660046151a4565b611267565b6103a86112e2565b61033c6103ee366004615270565b6113c7565b61033c6115e4565b6001546102c6906001600160a01b031681565b61029d6118b0565b60085461033c9060ff1681565b61045f6040518060400160405280601e81526020017f436f6d706f756e642d4c657665726167652d53747261746567792d554e49000081525081565b6040516102819190615940565b61029d61047a366004615605565b61196c565b61029d611ba1565b6102c67f000000000000000000000000000000000000000000000000000000000000000081565b6002546102c6906001600160a01b031681565b61027760055481565b61029d6104d836600461516c565b611c4b565b61029d6104eb36600461516c565b611f6a565b61029d6104fe3660046154af565b612133565b610277612207565b61029d61051936600461516c565b61229b565b61027760095481565b610277612536565b6000546102c6906001600160a01b031681565b60085461033c90610100900460ff1681565b61027760075481565b61027761056b3660046155a6565b90565b61029d61057c366004615605565b6125f8565b6000546001600160a01b03166102c6565b61045f6040518060400160405280600681526020016519971817189960d11b81525081565b7f00000000000000000000000000000000000000000000000000000000000000006001600160a01b0316630c340a246040518163ffffffff1660e01b815260040160206040518083038186803b15801561061057600080fd5b505afa158015610624573d6000803e3d6000fd5b505050506040513d601f19601f820116820180604052508101906106489190615188565b6001600160a01b0316336001600160a01b0316146106815760405162461bcd60e51b815260040161067890615983565b60405180910390fd5b600154604051631484968760e11b81526001600160a01b038381166004830152909116906329092d0e90602401602060405180830381600087803b1580156106c857600080fd5b505af11580156106dc573d6000803e3d6000fd5b505050506040513d601f19601f8201168201806040525081019061070091906154cb565b6107435760405162461bcd60e51b81526020600482015260146024820152731c995b5bdd994b5ad9595c195c8b59985a5b195960621b6044820152606401610678565b50565b7f00000000000000000000000000000000000000000000000000000000000000006001600160a01b0316630c340a246040518163ffffffff1660e01b815260040160206040518083038186803b15801561079f57600080fd5b505afa1580156107b3573d6000803e3d6000fd5b505050506040513d601f19601f820116820180604052508101906107d79190615188565b6001600160a01b0316336001600160a01b0316146108075760405162461bcd60e51b815260040161067890615983565b6001546001600160a01b0316156108605760405162461bcd60e51b815260206004820152601b60248201527f6b65657065722d6c6973742d616c72656164792d6372656174656400000000006044820152606401610678565b6000819050806001600160a01b0316630fab4d256040518163ffffffff1660e01b8152600401602060405180830381600087803b1580156108a057600080fd5b505af11580156108b4573d6000803e3d6000fd5b505050506040513d601f19601f820116820180604052508101906108d89190615188565b600180546001600160a01b0319166001600160a01b03929092169182179055630a3b0a4f6109033390565b6040516001600160e01b031960e084901b1681526001600160a01b039091166004820152602401602060405180830381600087803b15801561094457600080fd5b505af1158015610958573d6000803e3d6000fd5b505050506040513d601f19601f8201168201806040525081019061097c91906154cb565b6109bc5760405162461bcd60e51b81526020600482015260116024820152701859190b5ad9595c195c8b59985a5b1959607a1b6044820152606401610678565b5050565b337f00000000000000000000000000000000000000000000000000000000000000006001600160a01b031614610a345760405162461bcd60e51b815260206004820152601960248201527818d85b1b195c8b5a5ccb5b9bdd0b5d995cdc195c8b5c1bdbdb603a1b6044820152606401610678565b61074381612764565b7f00000000000000000000000000000000000000000000000000000000000000006001600160a01b0316630c340a246040518163ffffffff1660e01b815260040160206040518083038186803b158015610a9657600080fd5b505afa158015610aaa573d6000803e3d6000fd5b505050506040513d601f19601f82011682018060405250810190610ace9190615188565b6001600160a01b0316336001600160a01b031614610afe5760405162461bcd60e51b815260040161067890615983565b600154604051630a3b0a4f60e01b81526001600160a01b03838116600483015290911690630a3b0a4f90602401602060405180830381600087803b158015610b4557600080fd5b505af1158015610b59573d6000803e3d6000fd5b505050506040513d601f19601f82011682018060405250810190610b7d91906154cb565b6107435760405162461bcd60e51b81526020600482015260116024820152701859190b5ad9595c195c8b59985a5b1959607a1b6044820152606401610678565b600b546000906001600160a01b0383811691161480610bf857506001600160a01b03821673c00e94cb662c3520282e6f5717214004a7f26888145b80610c3457507f00000000000000000000000000000000000000000000000000000000000000006001600160a01b0316826001600160a01b0316145b92915050565b7f00000000000000000000000000000000000000000000000000000000000000006001600160a01b0316630c340a246040518163ffffffff1660e01b815260040160206040518083038186803b158015610c9357600080fd5b505afa158015610ca7573d6000803e3d6000fd5b505050506040513d601f19601f82011682018060405250810190610ccb9190615188565b6001600160a01b0316336001600160a01b031614610cfb5760405162461bcd60e51b815260040161067890615983565b6001600160a01b038116610d465760405162461bcd60e51b8152602060048201526012602482015271736d2d616464726573732d69732d7a65726f60701b6044820152606401610678565b6003546001600160a01b0382811691161415610d915760405162461bcd60e51b815260206004820152600a602482015269736d2d69732d73616d6560b01b6044820152606401610678565b6003546040516001600160a01b038084169216907f2d19927e7cac08ceb98b38898a4fdff6da6a27295b9a2d62fe250408ebe044e190600090a3600380546001600160a01b0319166001600160a01b0392909216919091179055565b7f00000000000000000000000000000000000000000000000000000000000000006001600160a01b0316630c340a246040518163ffffffff1660e01b815260040160206040518083038186803b158015610e4657600080fd5b505afa158015610e5a573d6000803e3d6000fd5b505050506040513d601f19601f82011682018060405250810190610e7e9190615188565b6001600160a01b0316336001600160a01b031614610eae5760405162461bcd60e51b815260040161067890615983565b610743817f0000000000000000000000000000000000000000000000000000000000000000612791565b6000806000610ee5611063565b9150915080600014610f0d5781610efe61271083615aab565b610f089190615a8b565b610f10565b60005b9250505090565b7f00000000000000000000000000000000000000000000000000000000000000006001600160a01b0316630c340a246040518163ffffffff1660e01b815260040160206040518083038186803b158015610f7057600080fd5b505afa158015610f84573d6000803e3d6000fd5b505050506040513d601f19601f82011682018060405250810190610fa89190615188565b6001600160a01b0316336001600160a01b031614610fd85760405162461bcd60e51b815260040161067890615983565b6127108111156110235760405162461bcd60e51b8152602060048201526016602482015275696e76616c69642d736c6970706167652d76616c756560501b6044820152606401610678565b60065460408051918252602082018390527ef1c5db862c7598b3b6765552ca951f498611e06412c2d57f8d0b58f82e7f82910160405180910390a1600655565b600b546040516361bfb47160e11b815230600482015260009182918291829182916001600160a01b03169063c37f68e29060240160806040518083038186803b1580156110af57600080fd5b505afa1580156110c3573d6000803e3d6000fd5b505050506040513d601f19601f820116820180604052508101906110e79190615626565b93509350935050670de0b6b3a764000081846111039190615aab565b61110d9190615a8b565b959194509092505050565b6001546001600160a01b0316635dbe47e8336040516001600160e01b031960e084901b1681526001600160a01b03909116600482015260240160206040518083038186803b15801561116957600080fd5b505afa15801561117d573d6000803e3d6000fd5b505050506040513d601f19601f820116820180604052508101906111a191906154cb565b6111bd5760405162461bcd60e51b815260040161067890615953565b60008060006111ca6127d4565b6040516302df682360e11b815260048101849052602481018390526044810182905292955090935091506001600160a01b037f000000000000000000000000000000000000000000000000000000000000000016906305bed04690606401600060405180830381600087803b15801561124257600080fd5b505af1158015611256573d6000803e3d6000fd5b50505050611262612bba565b505050565b6000808280602001905181019061127e9190615529565b909250905033731e0447b19bb6ecfdae1e4ae1694b0c3659614e4e146112d15760405162461bcd60e51b81526020600482015260086024820152674e4f545f534f4c4f60c01b6044820152606401610678565b6112db8282612d3e565b5050505050565b600b54604051638e8f294b60e01b81526001600160a01b03909116600482015260009081908190733d9819210a31b4961b30ef54be2aed79b9c9cd3b90638e8f294b9060240160606040518083038186803b15801561134057600080fd5b505afa158015611354573d6000803e3d6000fd5b505050506040513d601f19601f8201168201806040525081019061137891906154e7565b50915050670de0b6b3a7640000816009546113939190615aab565b61139d9190615a8b565b9250670de0b6b3a764000081600a546113b69190615aab565b6113c09190615a8b565b9150509091565b600073b53c1a33016b2dc2ff3653530bff1848a515c8c56001600160a01b0316630261bf8b6040518163ffffffff1660e01b815260040160206040518083038186803b15801561141657600080fd5b505afa15801561142a573d6000803e3d6000fd5b505050506040513d601f19601f8201168201806040525081019061144e9190615188565b6001600160a01b0316336001600160a01b03161461149b5760405162461bcd60e51b815260206004820152600a6024820152690858585d994b5c1bdbdb60b21b6044820152606401610678565b60085462010000900460ff166114e85760405162461bcd60e51b815260206004820152601260248201527134b73b30b634b216b33630b9b416b637b0b760711b6044820152606401610678565b6001600160a01b03841630146115345760405162461bcd60e51b815260206004820152601160248201527034b73b30b634b216b4b734ba34b0ba37b960791b6044820152606401610678565b60008686600081811061155757634e487b7160e01b600052603260045260246000fd5b905060200201358989600081811061157f57634e487b7160e01b600052603260045260246000fd5b905060200201356115909190615a73565b90506115d384848080601f016020809104026020016040519081016040528093929190818152602001838380828437600092019190915250859250612d3e915050565b5060019a9950505050505050505050565b60006115ee612e64565b6003546040516370a0823160e01b81523060048201526000916001600160a01b03169063e8f983c89073c00e94cb662c3520282e6f5717214004a7f26888907f00000000000000000000000000000000000000000000000000000000000000009082906370a082319060240160206040518083038186803b15801561167257600080fd5b505afa158015611686573d6000803e3d6000fd5b505050506040513d601f19601f820116820180604052508101906116aa91906155be565b6040516001600160e01b031960e086901b1681526001600160a01b039384166004820152929091166024830152604482015260640160006040518083038186803b1580156116f757600080fd5b505afa15801561170b573d6000803e3d6000fd5b505050506040513d6000823e601f3d908101601f19168201604052611733919081019061536d565b50604051639f2b283360e01b8152306004820152909250600091506001600160a01b037f00000000000000000000000000000000000000000000000000000000000000001690639f2b28339060240160206040518083038186803b15801561179a57600080fd5b505afa1580156117ae573d6000803e3d6000fd5b505050506040513d601f19601f820116820180604052508101906117d291906155be565b90506000806117df611063565b6040516370a0823160e01b815230600482015291935091506000906001600160a01b037f000000000000000000000000000000000000000000000000000000000000000016906370a082319060240160206040518083038186803b15801561184657600080fd5b505afa15801561185a573d6000803e3d6000fd5b505050506040513d601f19601f8201168201806040525081019061187e91906155be565b90506000828461188e8885615a73565b6118989190615a73565b6118a29190615aca565b949094109550505050505090565b6001546001600160a01b0316635dbe47e8336040516001600160e01b031960e084901b1681526001600160a01b03909116600482015260240160206040518083038186803b15801561190157600080fd5b505afa158015611915573d6000803e3d6000fd5b505050506040513d601f19601f8201168201806040525081019061193991906154cb565b6119555760405162461bcd60e51b815260040161067890615953565b61195f6000612f32565b61196a600019612f32565b565b7f00000000000000000000000000000000000000000000000000000000000000006001600160a01b0316630c340a246040518163ffffffff1660e01b815260040160206040518083038186803b1580156119c557600080fd5b505afa1580156119d9573d6000803e3d6000fd5b505050506040513d601f19601f820116820180604052508101906119fd9190615188565b6001600160a01b0316336001600160a01b031614611a2d5760405162461bcd60e51b815260040161067890615983565b600360009054906101000a90046001600160a01b03166001600160a01b031663c2fba6676040518163ffffffff1660e01b815260040160206040518083038186803b158015611a7b57600080fd5b505afa158015611a8f573d6000803e3d6000fd5b505050506040513d601f19601f82011682018060405250810190611ab391906155be565b8110611af85760405162461bcd60e51b81526020600482015260146024820152730d2dcecc2d8d2c85ae4deeae8cae45ad2dcc8caf60631b6044820152606401610678565b81611b035760045491505b603b8211611b4b5760405162461bcd60e51b81526020600482015260156024820152741a5b9d985b1a590b5bdc9858db194b5c195c9a5bd9605a1b6044820152606401610678565b6004546005546040805192835260208301859052820152606081018290527f83bc5ab8030537fcf1d29c2334f6d22c26c82dcbe5ff03923d2cff5c692c0a7f9060800160405180910390a1600491909155600555565b6001546001600160a01b0316635dbe47e8336040516001600160e01b031960e084901b1681526001600160a01b03909116600482015260240160206040518083038186803b158015611bf257600080fd5b505afa158015611c06573d6000803e3d6000fd5b505050506040513d601f19601f82011682018060405250810190611c2a91906154cb565b611c465760405162461bcd60e51b815260040161067890615953565b61196a565b337f00000000000000000000000000000000000000000000000000000000000000006001600160a01b031614611cbf5760405162461bcd60e51b815260206004820152601960248201527818d85b1b195c8b5a5ccb5b9bdd0b5d995cdc195c8b5c1bdbdb603a1b6044820152606401610678565b6001600160a01b038116611d155760405162461bcd60e51b815260206004820152601c60248201527f6e65772d73747261746567792d616464726573732d69732d7a65726f000000006044820152606401610678565b7f00000000000000000000000000000000000000000000000000000000000000006001600160a01b0316816001600160a01b03166316f0115b6040518163ffffffff1660e01b815260040160206040518083038186803b158015611d7857600080fd5b505afa158015611d8c573d6000803e3d6000fd5b505050506040513d601f19601f82011682018060405250810190611db09190615188565b6001600160a01b031614611dff5760405162461bcd60e51b81526020600482015260166024820152756e6f742d76616c69642d6e65772d737472617465677960501b6044820152606401610678565b611e0881613127565b6000546040516370a0823160e01b8152306004820152611e9c9183916001600160a01b03909116906370a082319060240160206040518083038186803b158015611e5157600080fd5b505afa158015611e65573d6000803e3d6000fd5b505050506040513d601f19601f82011682018060405250810190611e8991906155be565b6000546001600160a01b031691906131ff565b6040516370a0823160e01b81523060048201526107439082906001600160a01b037f000000000000000000000000000000000000000000000000000000000000000016906370a082319060240160206040518083038186803b158015611f0157600080fd5b505afa158015611f15573d6000803e3d6000fd5b505050506040513d601f19601f82011682018060405250810190611f3991906155be565b6001600160a01b037f00000000000000000000000000000000000000000000000000000000000000001691906131ff565b7f00000000000000000000000000000000000000000000000000000000000000006001600160a01b0316630c340a246040518163ffffffff1660e01b815260040160206040518083038186803b158015611fc357600080fd5b505afa158015611fd7573d6000803e3d6000fd5b505050506040513d601f19601f82011682018060405250810190611ffb9190615188565b6001600160a01b0316336001600160a01b03161461202b5760405162461bcd60e51b815260040161067890615983565b6001600160a01b0381166120815760405162461bcd60e51b815260206004820152601d60248201527f6665652d636f6c6c6563746f722d616464726573732d69732d7a65726f0000006044820152606401610678565b6002546001600160a01b03828116911614156120d75760405162461bcd60e51b81526020600482015260156024820152746665652d636f6c6c6563746f722d69732d73616d6560581b6044820152606401610678565b6002546040516001600160a01b038084169216907f0f06062680f9bd68e786e9980d9bb03d73d5620fc3b345e417b6eacb310b970690600090a3600280546001600160a01b0319166001600160a01b0392909216919091179055565b7f00000000000000000000000000000000000000000000000000000000000000006001600160a01b0316630c340a246040518163ffffffff1660e01b815260040160206040518083038186803b15801561218c57600080fd5b505afa1580156121a0573d6000803e3d6000fd5b505050506040513d601f19601f820116820180604052508101906121c49190615188565b6001600160a01b0316336001600160a01b0316146121f45760405162461bcd60e51b815260040161067890615983565b6008805460ff1916821515179055610743565b60405163331faf7160e21b815230600482015260009061229690733d9819210a31b4961b30ef54be2aed79b9c9cd3b9063cc7ebdc4906024015b60206040518083038186803b15801561225957600080fd5b505afa15801561226d573d6000803e3d6000fd5b505050506040513d601f19601f8201168201806040525081019061229191906155be565b613262565b905090565b6001546001600160a01b0316635dbe47e8336040516001600160e01b031960e084901b1681526001600160a01b03909116600482015260240160206040518083038186803b1580156122ec57600080fd5b505afa158015612300573d6000803e3d6000fd5b505050506040513d601f19601f8201168201806040525081019061232491906154cb565b6123405760405162461bcd60e51b815260040161067890615953565b6002546001600160a01b03166123905760405162461bcd60e51b81526020600482015260156024820152741999594b58dbdb1b1958dd1bdc8b5b9bdd0b5cd95d605a1b6044820152606401610678565b7f00000000000000000000000000000000000000000000000000000000000000006001600160a01b0316816001600160a01b031614156124125760405162461bcd60e51b815260206004820152601f60248201527f6e6f742d616c6c6f7765642d746f2d73776565702d636f6c6c61746572616c006044820152606401610678565b61241b81610bbd565b1561245f5760405162461bcd60e51b815260206004820152601460248201527306e6f742d616c6c6f7765642d746f2d73776565760641b6044820152606401610678565b6001600160a01b03811673eeeeeeeeeeeeeeeeeeeeeeeeeeeeeeeeeeeeeeee141561249f5760025461249a906001600160a01b031647613404565b610743565b6040516370a0823160e01b81523060048201526000906001600160a01b038316906370a082319060240160206040518083038186803b1580156124e157600080fd5b505afa1580156124f5573d6000803e3d6000fd5b505050506040513d601f19601f8201168201806040525081019061251991906155be565b6002549091506109bc906001600160a01b038481169116836131ff565b600b546040805163bd6d894d60e01b815290516000926001600160a01b03169163bd6d894d91600480830192602092919082900301818787803b15801561257c57600080fd5b505af1158015612590573d6000803e3d6000fd5b505050506040513d601f19601f820116820180604052508101906125b491906155be565b506125bd612e64565b6040516370a0823160e01b81523060048201526122969073c00e94cb662c3520282e6f5717214004a7f26888906370a0823190602401612241565b7f00000000000000000000000000000000000000000000000000000000000000006001600160a01b0316630c340a246040518163ffffffff1660e01b815260040160206040518083038186803b15801561265157600080fd5b505afa158015612665573d6000803e3d6000fd5b505050506040513d601f19601f820116820180604052508101906126899190615188565b6001600160a01b0316336001600160a01b0316146126b95760405162461bcd60e51b815260040161067890615983565b612710811061270a5760405162461bcd60e51b815260206004820152601860248201527f696e76616c69642d6d61782d626f72726f772d6c696d697400000000000000006044820152606401610678565b8181116127595760405162461bcd60e51b815260206004820152601d60248201527f6d61782d73686f756c642d62652d6869676865722d7468616e2d6d696e0000006044820152606401610678565b600991909155600a55565b6107437f0000000000000000000000000000000000000000000000000000000000000000611f398361351d565b81156127b9576127b5731e0447b19bb6ecfdae1e4ae1694b0c3659614e4e82613984565b6007555b50600880549115156101000261ff0019909216919091179055565b604051636a9eee1360e11b81523060048201526000908190819081906001600160a01b037f0000000000000000000000000000000000000000000000000000000000000000169063d53ddc269060240160206040518083038186803b15801561283c57600080fd5b505afa158015612850573d6000803e3d6000fd5b505050506040513d601f19601f8201168201806040525081019061287491906155be565b604051639f2b283360e01b81523060048201529091506000906001600160a01b037f00000000000000000000000000000000000000000000000000000000000000001690639f2b28339060240160206040518083038186803b1580156128d957600080fd5b505afa1580156128ed573d6000803e3d6000fd5b505050506040513d601f19601f8201168201806040525081019061291191906155be565b905061293c7f0000000000000000000000000000000000000000000000000000000000000000613b05565b600b54604051633af9e66960e01b81523060048201526000916001600160a01b031690633af9e66990602401602060405180830381600087803b15801561298257600080fd5b505af1158015612996573d6000803e3d6000fd5b505050506040513d601f19601f820116820180604052508101906129ba91906155be565b600b546040516395dd919360e01b81523060048201529192506000916001600160a01b03909116906395dd91939060240160206040518083038186803b158015612a0357600080fd5b505afa158015612a17573d6000803e3d6000fd5b505050506040513d601f19601f82011682018060405250810190612a3b91906155be565b90506000612a498284615aca565b6040516370a0823160e01b81523060048201529091506000906001600160a01b037f000000000000000000000000000000000000000000000000000000000000000016906370a082319060240160206040518083038186803b158015612aae57600080fd5b505afa158015612ac2573d6000803e3d6000fd5b505050506040513d601f19601f82011682018060405250810190612ae691906155be565b90506000612af48284615a73565b9050600086821115612b4e57612b0a8783615aca565b9a508a8311612b2457612b1d838c615aca565b9050612b49565b612b2e888c615a73565b8310612b3c57879850612b49565b612b468b84615aca565b98505b612b5b565b612b588288615aca565b99505b6000612b678a8a615aca565b90506000612b758383615a73565b90508015612bab576000612b888261351d565b905083811115612ba957612b9c8482615aca565b612ba6908d615a73565b9b505b505b50505050505050505050909192565b6040516370a0823160e01b81523060048201526000907f00000000000000000000000000000000000000000000000000000000000000006001600160a01b0316906370a082319060240160206040518083038186803b158015612c1c57600080fd5b505afa158015612c30573d6000803e3d6000fd5b505050506040513d601f19601f82011682018060405250810190612c5491906155be565b9050600080612c64836001613bb9565b91509150612c7183613db2565b600854610100900460ff168015612c885750600082115b15612cf75760008282604051602001612cad9291909182521515602082015260400190565b6040516020818303038152906040529050612ce97f00000000000000000000000000000000000000000000000000000000000000008483613e7d565b612cf39084615aca565b9250505b60005b600083118015612d0b575060068111155b15612d3857612d1a8383614188565b612d249084615aca565b925080612d3081615b0d565b915050612cfa565b50505050565b60008083806020019051810190612d5591906155d6565b6040516370a0823160e01b815230600482015291935091506000906001600160a01b037f000000000000000000000000000000000000000000000000000000000000000016906370a082319060240160206040518083038186803b158015612dbc57600080fd5b505afa158015612dd0573d6000803e3d6000fd5b505050506040513d601f19601f82011682018060405250810190612df491906155be565b905082811015612e355760405162461bcd60e51b815260206004820152600c60248201526b11931054d217d1905253115160a21b6044820152606401610678565b8115612e5257612e448361427d565b612e4d84614348565b6112db565b612e5b81613db2565b6112db84614413565b604080516001808252818301909252600091602080830190803683375050600b5482519293506001600160a01b031691839150600090612eb457634e487b7160e01b600052603260045260246000fd5b6001600160a01b039092166020928302919091019091015260405162e1ed9760e51b8152733d9819210a31b4961b30ef54be2aed79b9c9cd3b90631c3db2e090612f04903090859060040161574c565b600060405180830381600087803b158015612f1e57600080fd5b505af11580156112db573d6000803e3d6000fd5b612f866001600160a01b037f0000000000000000000000000000000000000000000000000000000000000000167f0000000000000000000000000000000000000000000000000000000000000000836144de565b600b54612fc0906001600160a01b037f000000000000000000000000000000000000000000000000000000000000000081169116836144de565b60005b600360009054906101000a90046001600160a01b03166001600160a01b031663c2fba6676040518163ffffffff1660e01b815260040160206040518083038186803b15801561301157600080fd5b505afa158015613025573d6000803e3d6000fd5b505050506040513d601f19601f8201168201806040525081019061304991906155be565b8110156130fc57600354604051636e74a6f760e01b8152600481018390526130ea916001600160a01b031690636e74a6f79060240160206040518083038186803b15801561309657600080fd5b505afa1580156130aa573d6000803e3d6000fd5b505050506040513d601f19601f820116820180604052508101906130ce9190615188565b73c00e94cb662c3520282e6f5717214004a7f2688890846144de565b806130f481615b0d565b915050612fc3565b506107437f000000000000000000000000000000000000000000000000000000000000000082614602565b600b5460408051637e062a3560e11b815290516001600160a01b039283169284169163fc0c546a916004808301926020929190829003018186803b15801561316e57600080fd5b505afa158015613182573d6000803e3d6000fd5b505050506040513d601f19601f820116820180604052508101906131a69190615188565b6001600160a01b0316146131f25760405162461bcd60e51b81526020600482015260136024820152723bb937b73396b932b1b2b4b83a16ba37b5b2b760691b6044820152606401610678565b6000600955610743612bba565b6040516001600160a01b03831660248201526044810182905261126290849063a9059cbb60e01b906064015b60408051601f198184030181529190526020810180516001600160e01b03166001600160e01b0319909316929092179091526146c3565b600080821561333257600354604051631d1f307960e31b815273c00e94cb662c3520282e6f5717214004a7f2688860048201526001600160a01b037f000000000000000000000000000000000000000000000000000000000000000081166024830152604482018690529091169063e8f983c89060640160006040518083038186803b1580156132f157600080fd5b505afa158015613305573d6000803e3d6000fd5b505050506040513d6000823e601f3d908101601f1916820160405261332d919081019061536d565b509150505b60008061333d611063565b6040516370a0823160e01b81523060048201529193509150819083906001600160a01b037f000000000000000000000000000000000000000000000000000000000000000016906370a082319060240160206040518083038186803b1580156133a557600080fd5b505afa1580156133b9573d6000803e3d6000fd5b505050506040513d601f19601f820116820180604052508101906133dd91906155be565b6133e79086615a73565b6133f19190615a73565b6133fb9190615aca565b95945050505050565b804710156134545760405162461bcd60e51b815260206004820152601d60248201527f416464726573733a20696e73756666696369656e742062616c616e63650000006044820152606401610678565b6000826001600160a01b03168260405160006040518083038185875af1925050503d80600081146134a1576040519150601f19603f3d011682016040523d82523d6000602084013e6134a6565b606091505b50509050806112625760405162461bcd60e51b815260206004820152603a60248201527f416464726573733a20756e61626c6520746f2073656e642076616c75652c207260448201527f6563697069656e74206d617920686176652072657665727465640000000000006064820152608401610678565b600080600061352d846000613bb9565b9150915080156136dc57600854610100900460ff16156135b157600082826040516020016135679291909182521515602082015260400190565b60405160208183030381529060405290506135a37f00000000000000000000000000000000000000000000000000000000000000008483613e7d565b6135ad9084615aca565b9250505b6000821180156135c3575060085460ff165b1561363257600082826040516020016135e89291909182521515602082015260400190565b60405160208183030381529060405290506136247f00000000000000000000000000000000000000000000000000000000000000008483614795565b61362e9084615aca565b9250505b60005b6000831180156136465750600a8111155b1561367457613656836001614188565b6136609084615aca565b92508061366c81615b0d565b915050613635565b82156136da57600080613685611063565b9150915060006136936112e2565b9150506000816000146136ba57816136ad61271085615aab565b6136b79190615a8b565b90505b60006136c68286615aca565b9050808a11156136d4578099505b50505050505b505b6040516370a0823160e01b81523060048201526000907f00000000000000000000000000000000000000000000000000000000000000006001600160a01b0316906370a082319060240160206040518083038186803b15801561373e57600080fd5b505afa158015613752573d6000803e3d6000fd5b505050506040513d601f19601f8201168201806040525081019061377691906155be565b600b54604051633af9e66960e01b81523060048201529192506001600160a01b031690633af9e66990602401602060405180830381600087803b1580156137bc57600080fd5b505af11580156137d0573d6000803e3d6000fd5b505050506040513d601f19601f820116820180604052508101906137f491906155be565b8511156138cb575060006138277f0000000000000000000000000000000000000000000000000000000000000000613b05565b6040516370a0823160e01b81523060048201527f00000000000000000000000000000000000000000000000000000000000000006001600160a01b0316906370a082319060240160206040518083038186803b15801561388657600080fd5b505afa15801561389a573d6000803e3d6000fd5b505050506040513d601f19601f820116820180604052508101906138be91906155be565b6138c89086615aca565b94505b6138d485614348565b6040516370a0823160e01b81523060048201526000907f00000000000000000000000000000000000000000000000000000000000000006001600160a01b0316906370a082319060240160206040518083038186803b15801561393657600080fd5b505afa15801561394a573d6000803e3d6000fd5b505050506040513d601f19601f8201168201806040525081019061396e91906155be565b905061397a8282615aca565b9695505050505050565b6000808390506000816001600160a01b031663295c39a56040518163ffffffff1660e01b815260040160206040518083038186803b1580156139c557600080fd5b505afa1580156139d9573d6000803e3d6000fd5b505050506040513d601f19601f820116820180604052508101906139fd91906155be565b90506000805b82811015613abc5760405163062bd3e960e01b8152600481018290526001600160a01b0385169063062bd3e99060240160206040518083038186803b158015613a4b57600080fd5b505afa158015613a5f573d6000803e3d6000fd5b505050506040513d601f19601f82011682018060405250810190613a839190615188565b9150856001600160a01b0316826001600160a01b03161415613aaa579350610c3492505050565b80613ab481615b0d565b915050613a03565b5060405162461bcd60e51b815260206004820152601b60248201527f6e6f2d6d61726b657449642d666f756e642d666f722d746f6b656e00000000006044820152606401610678565b613b0d612e64565b6040516370a0823160e01b815230600482015260009073c00e94cb662c3520282e6f5717214004a7f26888906370a082319060240160206040518083038186803b158015613b5a57600080fd5b505afa158015613b6e573d6000803e3d6000fd5b505050506040513d601f19601f82011682018060405250810190613b9291906155be565b905080156109bc576109bc73c00e94cb662c3520282e6f5717214004a7f268888383614a09565b600b54604051633af9e66960e01b8152306004820152600091829182916001600160a01b031690633af9e66990602401602060405180830381600087803b158015613c0357600080fd5b505af1158015613c17573d6000803e3d6000fd5b505050506040513d601f19601f82011682018060405250810190613c3b91906155be565b600b546040516395dd919360e01b81523060048201529192506000916001600160a01b03909116906395dd91939060240160206040518083038186803b158015613c8457600080fd5b505afa158015613c98573d6000803e3d6000fd5b505050506040513d601f19601f82011682018060405250810190613cbc91906155be565b905060095460001415613cd657925060019150613dab9050565b6000613ce28284615aca565b9050600086613d0857878211613cf9576000613d03565b613d038883615aca565b613d12565b613d128883615a73565b9050600080613d1f6112e2565b90925090506000613d3282612710615aca565b613d3c8386615aab565b613d469190615a8b565b90506000613d5684612710615aca565b613d608587615aab565b613d6a9190615a8b565b905081871115613d895760019850613d828188615aca565b9950613da2565b80871015613da25760009850613d9f8782615aca565b99505b50505050505050505b9250929050565b600b5460405163140e25ad60e31b8152600481018390526001600160a01b039091169063a0712d6890602401602060405180830381600087803b158015613df857600080fd5b505af1158015613e0c573d6000803e3d6000fd5b505050506040513d601f19601f82011682018060405250810190613e3091906155be565b156107435760405162461bcd60e51b815260206004820152601960248201527f737570706c792d746f2d636f6d706f756e642d6661696c6564000000000000006044820152606401610678565b600854600090610100900460ff16613ed75760405162461bcd60e51b815260206004820152601d60248201527f647964782d666c6173682d6c6f616e2d69732d6e6f742d6163746976650000006044820152606401610678565b506040516370a0823160e01b8152731e0447b19bb6ecfdae1e4ae1694b0c3659614e4e600482015282906000906001600160a01b038616906370a082319060240160206040518083038186803b158015613f3057600080fd5b505afa158015613f44573d6000803e3d6000fd5b505050506040513d601f19601f82011682018060405250810190613f6891906155be565b905080821115613f76578091505b6000613f83836002615a73565b905060008482604051602001613f9a92919061591e565b60408051808303601f19018152600380845260808401909252925060009190816020015b613fc66150b3565b815260200190600190039081613fbe579050509050613fe760075486614ada565b8160008151811061400857634e487b7160e01b600052603260045260246000fd5b602002602001018190525061401c82614b64565b8160018151811061403d57634e487b7160e01b600052603260045260246000fd5b602002602001018190525061405460075484614bd2565b8160028151811061407557634e487b7160e01b600052603260045260246000fd5b6020908102919091010152604080516001808252818301909252600091816020015b6040805180820190915260008082526020820152815260200190600190039081614097575050604080518082018252600080825260209182015281518083019092523082526001908201529091508160008151811061410657634e487b7160e01b600052603260045260246000fd5b602090810291909101015260405163a67a6a4560e01b8152731e0447b19bb6ecfdae1e4ae1694b0c3659614e4e9063a67a6a459061414a90849086906004016157ee565b600060405180830381600087803b15801561416457600080fd5b505af1158015614178573d6000803e3d6000fd5b5050505050505050509392505050565b6000806000614195611063565b915091508060001480156141a65750835b156141b657600092505050610c34565b600b54604051638e8f294b60e01b81526001600160a01b039091166004820152600090733d9819210a31b4961b30ef54be2aed79b9c9cd3b90638e8f294b9060240160606040518083038186803b15801561421057600080fd5b505afa158015614224573d6000803e3d6000fd5b505050506040513d601f19601f8201168201806040525081019061424891906154e7565b5091505084156142655761425e86848484614c0d565b9350614274565b61427186848484614c73565b93505b50505092915050565b600b5460405163073a938160e11b8152600481018390526001600160a01b0390911690630e75270290602401602060405180830381600087803b1580156142c357600080fd5b505af11580156142d7573d6000803e3d6000fd5b505050506040513d601f19601f820116820180604052508101906142fb91906155be565b156107435760405162461bcd60e51b815260206004820152601860248201527f72657061792d746f2d636f6d706f756e642d6661696c656400000000000000006044820152606401610678565b600b5460405163852a12e360e01b8152600481018390526001600160a01b039091169063852a12e390602401602060405180830381600087803b15801561438e57600080fd5b505af11580156143a2573d6000803e3d6000fd5b505050506040513d601f19601f820116820180604052508101906143c691906155be565b156107435760405162461bcd60e51b815260206004820152601d60248201527f77697468647261772d66726f6d2d636f6d706f756e642d6661696c65640000006044820152606401610678565b600b5460405163317afabb60e21b8152600481018390526001600160a01b039091169063c5ebeaec90602401602060405180830381600087803b15801561445957600080fd5b505af115801561446d573d6000803e3d6000fd5b505050506040513d601f19601f8201168201806040525081019061449191906155be565b156107435760405162461bcd60e51b815260206004820152601b60248201527f626f72726f772d66726f6d2d636f6d706f756e642d6661696c656400000000006044820152606401610678565b8015806145675750604051636eb1769f60e11b81523060048201526001600160a01b03838116602483015284169063dd62ed3e9060440160206040518083038186803b15801561452d57600080fd5b505afa158015614541573d6000803e3d6000fd5b505050506040513d601f19601f8201168201806040525081019061456591906155be565b155b6145d25760405162461bcd60e51b815260206004820152603660248201527f5361666545524332303a20617070726f76652066726f6d206e6f6e2d7a65726f60448201527520746f206e6f6e2d7a65726f20616c6c6f77616e636560501b6064820152608401610678565b6040516001600160a01b03831660248201526044810182905261126290849063095ea7b360e01b9060640161322b565b61462a6001600160a01b038316731e0447b19bb6ecfdae1e4ae1694b0c3659614e4e836144de565b6109bc73b53c1a33016b2dc2ff3653530bff1848a515c8c56001600160a01b0316630261bf8b6040518163ffffffff1660e01b815260040160206040518083038186803b15801561467a57600080fd5b505afa15801561468e573d6000803e3d6000fd5b505050506040513d601f19601f820116820180604052508101906146b29190615188565b6001600160a01b03841690836144de565b6000614718826040518060400160405280602081526020017f5361666545524332303a206c6f772d6c6576656c2063616c6c206661696c6564815250856001600160a01b0316614d559092919063ffffffff16565b805190915015611262578080602001905181019061473691906154cb565b6112625760405162461bcd60e51b815260206004820152602a60248201527f5361666545524332303a204552433230206f7065726174696f6e20646964206e6044820152691bdd081cdd58d8d9595960b21b6064820152608401610678565b60085460009060ff166147ea5760405162461bcd60e51b815260206004820152601d60248201527f616176652d666c6173682d6c6f616e2d69732d6e6f742d6163746976650000006044820152606401610678565b600073b53c1a33016b2dc2ff3653530bff1848a515c8c56001600160a01b0316630261bf8b6040518163ffffffff1660e01b815260040160206040518083038186803b15801561483957600080fd5b505afa15801561484d573d6000803e3d6000fd5b505050506040513d601f19601f820116820180604052508101906148719190615188565b604080516001808252818301909252919250600091906020808301908036833701905050905085816000815181106148b957634e487b7160e01b600052603260045260246000fd5b6001600160a01b039290921660209283029190910190910152604080516001808252818301909252600091816020016020820280368337019050509050858160008151811061491857634e487b7160e01b600052603260045260246000fd5b602090810291909101015260408051600180825281830190925260009181602001602082028036833701905050905060008160008151811061496a57634e487b7160e01b600052603260045260246000fd5b60209081029190910101526008805462ff000019166201000017905560405163ab9c4b5d60e01b81526001600160a01b0385169063ab9c4b5d906149bf90309087908790879084908e90600090600401615770565b600060405180830381600087803b1580156149d957600080fd5b505af11580156149ed573d6000803e3d6000fd5b50506008805462ff000019169055509698975050505050505050565b60006006546127101415614a1e576001614acc565b6040516358fac00360e01b81526001600160a01b0380861660048301526024820184905284166044820152610e106064820152614acc90730f1f5a87f99f0918e6c81f16e59f3518698221ff906358fac0039060840160206040518083038186803b158015614a8c57600080fd5b505afa158015614aa0573d6000803e3d6000fd5b505050506040513d601f19601f82011682018060405250810190614ac491906155be565b600654614d6e565b9050612d3884848484614d91565b614ae26150b3565b604080516101008101825260018152600060208083018290528351608081018552828152929384019291908201905b81526020016000815260200185815250815260200184815260200160008152602001306001600160a01b031681526020016000815260200160405180602001604052806000815250815250905092915050565b614b6c6150b3565b6040805161010081018252600881526000602080830182905283516080810185528281529293840192919082019081526020016000815260006020918201819052918352820181905260408201819052306060830152608082015260a001929092525090565b614bda6150b3565b60408051610100810182526000808252602080830182905283516080810185526001815292938401929190820190614b11565b6000808215614c365782614c2985670de0b6b3a7640000615aab565b614c339190615a8b565b90505b614c408186615aca565b9150838210614c4d578391505b858210614c58578591505b614c6182614348565b614c6a8261427d565b50949350505050565b600080670de0b6b3a7640000614c898487615aab565b614c939190615a8b565b9050614c9f8482615aca565b9150858210614cac578591505b614cb582614413565b6040516370a0823160e01b8152306004820152614c6a907f00000000000000000000000000000000000000000000000000000000000000006001600160a01b0316906370a082319060240160206040518083038186803b158015614d1857600080fd5b505afa158015614d2c573d6000803e3d6000fd5b505050506040513d601f19601f82011682018060405250810190614d5091906155be565b613db2565b6060614d648484600085614f52565b90505b9392505050565b6000612710614d7d8382615aca565b614d879085615aab565b614d679190615a8b565b600354604051631d1f307960e31b81526001600160a01b038681166004830152858116602483015260448201859052600092839283929091169063e8f983c89060640160006040518083038186803b158015614dec57600080fd5b505afa158015614e00573d6000803e3d6000fd5b505050506040513d6000823e601f3d908101601f19168201604052614e28919081019061536d565b9250925092508360001415614e3c57600193505b8115614f4957600354604051636e74a6f760e01b8152600481018390526001600160a01b0390911690636e74a6f79060240160206040518083038186803b158015614e8657600080fd5b505afa158015614e9a573d6000803e3d6000fd5b505050506040513d601f19601f82011682018060405250810190614ebe9190615188565b6001600160a01b03166338ed173986868630426040518663ffffffff1660e01b8152600401614ef19594939291906159ba565b600060405180830381600087803b158015614f0b57600080fd5b505af1158015614f1f573d6000803e3d6000fd5b505050506040513d6000823e601f3d908101601f19168201604052614f47919081019061541c565b505b50505050505050565b606082471015614fb35760405162461bcd60e51b815260206004820152602660248201527f416464726573733a20696e73756666696369656e742062616c616e636520666f6044820152651c8818d85b1b60d21b6064820152608401610678565b843b6150015760405162461bcd60e51b815260206004820152601d60248201527f416464726573733a2063616c6c20746f206e6f6e2d636f6e74726163740000006044820152606401610678565b600080866001600160a01b0316858760405161501d9190615730565b60006040518083038185875af1925050503d806000811461505a576040519150601f19603f3d011682016040523d82523d6000602084013e61505f565b606091505b509150915061506f82828661507a565b979650505050505050565b60608315615089575081614d67565b8251156150995782518084602001fd5b8160405162461bcd60e51b81526004016106789190615940565b6040805161010081018252600080825260208201529081016150f7604080516080810190915260008082526020820190815260200160008152602001600081525090565b8152602001600081526020016000815260200160006001600160a01b0316815260200160008152602001606081525090565b60008083601f84011261513a578182fd5b50813567ffffffffffffffff811115615151578182fd5b6020830191508360208260051b8501011115613dab57600080fd5b60006020828403121561517d578081fd5b8135614d6781615b7a565b600060208284031215615199578081fd5b8151614d6781615b7a565b600080600083850360808112156151b9578283fd5b84356151c481615b7a565b935060206040601f19830112156151d9578384fd5b6151e360406159f6565b9150808601356151f281615b7a565b825260408601358183015290925060608501359067ffffffffffffffff82111561521a578283fd5b818601915086601f83011261522d578283fd5b813561524061523b82615a4b565b6159f6565b8181528883838601011115615253578485fd5b818385018483013784838383010152809450505050509250925092565b600080600080600080600080600060a08a8c03121561528d578485fd5b893567ffffffffffffffff808211156152a4578687fd5b6152b08d838e01615129565b909b50995060208c01359150808211156152c8578687fd5b6152d48d838e01615129565b909950975060408c01359150808211156152ec578687fd5b6152f88d838e01615129565b909750955060608c0135915061530d82615b7a565b90935060808b01359080821115615322578384fd5b818c0191508c601f830112615335578384fd5b813581811115615343578485fd5b8d6020828501011115615354578485fd5b6020830194508093505050509295985092959850929598565b600080600060608486031215615381578283fd5b835167ffffffffffffffff811115615397578384fd5b8401601f810186136153a7578384fd5b805160206153b761523b83615a27565b8083825282820191508285018a848660051b88010111156153d6578889fd5b8895505b848610156154015780516153ed81615b7a565b8352600195909501949183019183016153da565b50918801516040909801519199979850909695505050505050565b6000602080838503121561542e578182fd5b825167ffffffffffffffff811115615444578283fd5b8301601f81018513615454578283fd5b805161546261523b82615a27565b80828252848201915084840188868560051b8701011115615481578687fd5b8694505b838510156154a3578051835260019490940193918501918501615485565b50979650505050505050565b6000602082840312156154c0578081fd5b8135614d6781615b8f565b6000602082840312156154dc578081fd5b8151614d6781615b8f565b6000806000606084860312156154fb578081fd5b835161550681615b8f565b60208501516040860151919450925061551e81615b8f565b809150509250925092565b6000806040838503121561553b578182fd5b825167ffffffffffffffff811115615551578283fd5b8301601f81018513615561578283fd5b805161556f61523b82615a4b565b818152866020838501011115615583578485fd5b615594826020830160208601615ae1565b60209590950151949694955050505050565b6000602082840312156155b7578081fd5b5035919050565b6000602082840312156155cf578081fd5b5051919050565b600080604083850312156155e8578182fd5b8251915060208301516155fa81615b8f565b809150509250929050565b60008060408385031215615617578182fd5b50508035926020909101359150565b6000806000806080858703121561563b578182fd5b505082516020840151604085015160609095015191969095509092509050565b6000815180845260208085019450808401835b838110156156935781516001600160a01b03168752958201959082019060010161566e565b509495945050505050565b6000815180845260208085019450808401835b83811015615693578151875295820195908201906001016156b1565b600081518084526156e5816020860160208601615ae1565b601f01601f19169290920160200192915050565b805115158252602081015161570d81615b6a565b6020830152604081015161572081615b6a565b6040830152606090810151910152565b60008251615742818460208701615ae1565b9190910192915050565b6001600160a01b0383168152604060208201819052600090614d649083018461565b565b600060018060a01b03808a16835260e0602084015261579260e084018a61565b565b83810360408501526157a4818a61569e565b905083810360608501526157b8818961569e565b9050818716608085015283810360a08501526157d481876156cd565b9250505061ffff831660c083015298975050505050505050565b6040808252835182820181905260009190606090818501906020808901865b8381101561583b57815180516001600160a01b0316865283015183860152938601939082019060010161580d565b50508683038188015287518084528184019250600581901b84018201898301885b8381101561590d57601f19878403018652815161016081516009811061588457615884615b3e565b855281870151878601528a82015161589e8c8701826156f9565b508982015160c081818801526080840151915060e0828189015260a085015192506158d56101008901846001600160a01b03169052565b9084015161012088015290920151610140860182905291506158f9818601836156cd565b97870197945050509084019060010161585c565b50909b9a5050505050505050505050565b60006040825261593160408301856156cd565b90508260208301529392505050565b600060208252614d6760208301846156cd565b60208082526016908201527531b0b63632b916b4b996b737ba16b096b5b2b2b832b960511b604082015260600190565b6020808252601a908201527f63616c6c65722d69732d6e6f742d7468652d676f7665726e6f72000000000000604082015260600190565b600086825285602083015260a060408301526159d960a083018661565b565b6001600160a01b0394909416606083015250608001529392505050565b604051601f8201601f1916810167ffffffffffffffff81118282101715615a1f57615a1f615b54565b604052919050565b600067ffffffffffffffff821115615a4157615a41615b54565b5060051b60200190565b600067ffffffffffffffff821115615a6557615a65615b54565b50601f01601f191660200190565b60008219821115615a8657615a86615b28565b500190565b600082615aa657634e487b7160e01b81526012600452602481fd5b500490565b6000816000190483118215151615615ac557615ac5615b28565b500290565b600082821015615adc57615adc615b28565b500390565b60005b83811015615afc578181015183820152602001615ae4565b83811115612d385750506000910152565b6000600019821415615b2157615b21615b28565b5060010190565b634e487b7160e01b600052601160045260246000fd5b634e487b7160e01b600052602160045260246000fd5b634e487b7160e01b600052604160045260246000fd5b6002811061074357610743615b3e565b6001600160a01b038116811461074357600080fd5b801515811461074357600080fdfea2646970667358221220a62e284941a615045dec466ea4ca927f82f95e987ed2d8f21a4f991d746beaa064736f6c63430008030033",
  "devdoc": {
    "kind": "dev",
    "methods": {
      "addKeeper(address)": {
        "params": {
          "_keeperAddress": "keeper address to add."
        }
      },
      "approveToken()": {
        "details": "Approve all required tokens"
      },
      "borrowRatioRange()": {
        "details": "It is calculated as collateralFactor * borrowLimit"
      },
      "callFunction(address,(address,uint256),bytes)": {
        "details": "DyDx calls this function after doing flash loan"
      },
      "convertFrom18(uint256)": {
        "details": "Convert from 18 decimals to token defined decimals. Default no conversion."
      },
      "executeOperation(address[],uint256[],uint256[],address,bytes)": {
        "details": "Aave will call this function after doing flash loan"
      },
      "init(address)": {
        "params": {
          "_addressListFactory": "To support same code in eth side chain, user _addressListFactory as param ethereum- 0xded8217De022706A191eE7Ee0Dc9df1185Fb5dA3 polygon-0xD10D5696A350D65A9AA15FE8B258caB4ab1bF291"
        }
      },
      "migrate(address)": {
        "details": "_beforeMigration hook can be implemented in child strategy to do extra steps.",
        "params": {
          "_newStrategy": "Address of new strategy"
        }
      },
      "rebalance()": {
        "details": "Rebalance profit, loss and investment of this strategy"
      },
      "removeKeeper(address)": {
        "params": {
          "_keeperAddress": "keeper address to remove."
        }
      },
      "sweepERC20(address)": {
        "details": "sweep given token to feeCollector of strategy",
        "params": {
          "_fromToken": "token address to sweep"
        }
      },
      "totalValue()": {
        "details": "Compound calculate COMP accrued and store it when user interact with Compound contracts, i.e. deposit, withdraw or transfer tokens. So compAccrued() will return stored COMP accrued amount, which is olderFor up to date value check totalValueCurrent()"
      },
      "totalValueCurrent()": {
        "details": "Report total value in collateral tokenClaimed COMP will stay in strategy until next rebalance"
      },
      "updateBorrowLimit(uint256,uint256)": {
        "details": "It is possible to set 0 as _minBorrowLimit to not borrow anything",
        "params": {
          "_maxBorrowLimit": "Maximum % we want to borrow",
          "_minBorrowLimit": "Minimum % we want to borrow"
        }
      },
      "updateFeeCollector(address)": {
        "params": {
          "_feeCollector": "fee collector address"
        }
      },
      "updateSwapManager(address)": {
        "params": {
          "_swapManager": "swap manager address"
        }
      },
      "withdraw(uint256)": {
        "details": "Withdraw collateral token from lending pool.",
        "params": {
          "_amount": "Amount of collateral token"
        }
      }
    },
    "title": "Deposit UNI in Compound and also borrow UNI based on leverage condition",
    "version": 1
  },
  "userdoc": {
    "kind": "user",
    "methods": {
      "addKeeper(address)": {
        "notice": "Add given address in keepers list."
      },
      "borrowRatioRange()": {
        "notice": "Calculate and return borrow ratio range."
      },
      "currentBorrowRatio()": {
        "notice": "Current borrow ratio, calculated as current borrow divide by max allowed borrow Return value is based on basis points, i.e. 7500 = 75% ratio"
      },
      "getPosition()": {
        "notice": "Return supply and borrow position. Position may return few block old value"
      },
      "init(address)": {
        "notice": "Create keeper list NOTE: Any function with onlyKeeper modifier will not work until this function is called. NOTE: Due to gas constraint this function cannot be called in constructor."
      },
      "isLossMaking()": {
        "notice": "Calculate current position using claimed COMP and current borrow."
      },
      "isReservedToken(address)": {
        "notice": "Check whether given token is reserved or not. Reserved tokens are not allowed to sweep."
      },
      "migrate(address)": {
        "notice": "Migrate all asset and vault ownership,if any, to new strategy"
      },
      "removeKeeper(address)": {
        "notice": "Remove given address from keepers list."
      },
      "token()": {
        "notice": "Returns address of token correspond to collateral token"
      },
      "totalValue()": {
        "notice": "Calculate total value using COMP accrued, supply and borrow position"
      },
      "totalValueCurrent()": {
        "notice": "Calculate total value based on COMP claimed, supply and borrow position"
      },
      "updateBorrowLimit(uint256,uint256)": {
        "notice": "Update upper and lower borrow limit"
      },
      "updateFeeCollector(address)": {
        "notice": "Update fee collector"
      },
      "updateSwapManager(address)": {
        "notice": "Update swap manager address"
      }
    },
    "version": 1
  },
  "storageLayout": {
    "storage": [
      {
        "astId": 13227,
        "contract": "contracts/strategies/compound/CompoundLeverageStrategyUNI.sol:CompoundLeverageStrategyUNI",
        "label": "receiptToken",
        "offset": 0,
        "slot": "0",
        "type": "t_address"
      },
      {
        "astId": 13233,
        "contract": "contracts/strategies/compound/CompoundLeverageStrategyUNI.sol:CompoundLeverageStrategyUNI",
        "label": "keepers",
        "offset": 0,
        "slot": "1",
        "type": "t_contract(IAddressList)4281"
      },
      {
        "astId": 13236,
        "contract": "contracts/strategies/compound/CompoundLeverageStrategyUNI.sol:CompoundLeverageStrategyUNI",
        "label": "feeCollector",
        "offset": 0,
        "slot": "2",
        "type": "t_address"
      },
      {
        "astId": 13239,
        "contract": "contracts/strategies/compound/CompoundLeverageStrategyUNI.sol:CompoundLeverageStrategyUNI",
        "label": "swapManager",
        "offset": 0,
        "slot": "3",
        "type": "t_contract(ISwapManager)4584"
      },
      {
        "astId": 13242,
        "contract": "contracts/strategies/compound/CompoundLeverageStrategyUNI.sol:CompoundLeverageStrategyUNI",
        "label": "oraclePeriod",
        "offset": 0,
        "slot": "4",
        "type": "t_uint256"
      },
      {
        "astId": 13245,
        "contract": "contracts/strategies/compound/CompoundLeverageStrategyUNI.sol:CompoundLeverageStrategyUNI",
        "label": "oracleRouterIdx",
        "offset": 0,
        "slot": "5",
        "type": "t_uint256"
      },
      {
        "astId": 13248,
        "contract": "contracts/strategies/compound/CompoundLeverageStrategyUNI.sol:CompoundLeverageStrategyUNI",
        "label": "swapSlippage",
        "offset": 0,
        "slot": "6",
        "type": "t_uint256"
      },
      {
        "astId": 3091,
        "contract": "contracts/strategies/compound/CompoundLeverageStrategyUNI.sol:CompoundLeverageStrategyUNI",
        "label": "dyDxMarketId",
        "offset": 0,
        "slot": "7",
        "type": "t_uint256"
      },
      {
        "astId": 3094,
        "contract": "contracts/strategies/compound/CompoundLeverageStrategyUNI.sol:CompoundLeverageStrategyUNI",
        "label": "isAaveActive",
        "offset": 0,
        "slot": "8",
        "type": "t_bool"
      },
      {
        "astId": 3097,
        "contract": "contracts/strategies/compound/CompoundLeverageStrategyUNI.sol:CompoundLeverageStrategyUNI",
        "label": "isDyDxActive",
        "offset": 1,
        "slot": "8",
        "type": "t_bool"
      },
      {
        "astId": 3168,
        "contract": "contracts/strategies/compound/CompoundLeverageStrategyUNI.sol:CompoundLeverageStrategyUNI",
        "label": "awaitingFlash",
        "offset": 2,
        "slot": "8",
        "type": "t_bool"
      },
      {
        "astId": 18257,
        "contract": "contracts/strategies/compound/CompoundLeverageStrategyUNI.sol:CompoundLeverageStrategyUNI",
        "label": "minBorrowLimit",
        "offset": 0,
        "slot": "9",
        "type": "t_uint256"
      },
      {
        "astId": 18260,
        "contract": "contracts/strategies/compound/CompoundLeverageStrategyUNI.sol:CompoundLeverageStrategyUNI",
        "label": "maxBorrowLimit",
        "offset": 0,
        "slot": "10",
        "type": "t_uint256"
      },
      {
        "astId": 18263,
        "contract": "contracts/strategies/compound/CompoundLeverageStrategyUNI.sol:CompoundLeverageStrategyUNI",
        "label": "cToken",
        "offset": 0,
        "slot": "11",
        "type": "t_contract(CToken)4714"
      }
    ],
    "types": {
      "t_address": {
        "encoding": "inplace",
        "label": "address",
        "numberOfBytes": "20"
      },
      "t_bool": {
        "encoding": "inplace",
        "label": "bool",
        "numberOfBytes": "1"
      },
      "t_contract(CToken)4714": {
        "encoding": "inplace",
        "label": "contract CToken",
        "numberOfBytes": "20"
      },
      "t_contract(IAddressList)4281": {
        "encoding": "inplace",
        "label": "contract IAddressList",
        "numberOfBytes": "20"
      },
      "t_contract(ISwapManager)4584": {
        "encoding": "inplace",
        "label": "contract ISwapManager",
        "numberOfBytes": "20"
      },
      "t_uint256": {
        "encoding": "inplace",
        "label": "uint256",
        "numberOfBytes": "32"
      }
    }
  }
}