{
  "address": "0xA1CcDa3c0b94f3CA7eE44DCc2Bd9e414f7167669",
  "abi": [
    {
      "inputs": [
        {
          "internalType": "address",
          "name": "_pool",
          "type": "address"
        },
        {
          "internalType": "address",
          "name": "_cm",
          "type": "address"
        },
        {
          "internalType": "address",
          "name": "_swapManager",
          "type": "address"
        }
      ],
      "stateMutability": "nonpayable",
      "type": "constructor"
    },
    {
      "anonymous": false,
      "inputs": [
        {
          "indexed": true,
          "internalType": "address",
          "name": "previousFeeCollector",
          "type": "address"
        },
        {
          "indexed": true,
          "internalType": "address",
          "name": "newFeeCollector",
          "type": "address"
        }
      ],
      "name": "UpdatedFeeCollector",
      "type": "event"
    },
    {
      "anonymous": false,
      "inputs": [
        {
          "indexed": true,
          "internalType": "address",
          "name": "previousSwapManager",
          "type": "address"
        },
        {
          "indexed": true,
          "internalType": "address",
          "name": "newSwapManager",
          "type": "address"
        }
      ],
      "name": "UpdatedSwapManager",
      "type": "event"
    },
    {
      "inputs": [],
      "name": "NAME",
      "outputs": [
        {
          "internalType": "string",
          "name": "",
          "type": "string"
        }
      ],
      "stateMutability": "view",
      "type": "function"
    },
    {
      "inputs": [],
      "name": "VERSION",
      "outputs": [
        {
          "internalType": "string",
          "name": "",
          "type": "string"
        }
      ],
      "stateMutability": "view",
      "type": "function"
    },
    {
      "inputs": [
        {
          "internalType": "address",
          "name": "_keeperAddress",
          "type": "address"
        }
      ],
      "name": "addKeeper",
      "outputs": [],
      "stateMutability": "nonpayable",
      "type": "function"
    },
    {
      "inputs": [],
      "name": "approveToken",
      "outputs": [],
      "stateMutability": "nonpayable",
      "type": "function"
    },
    {
      "inputs": [],
      "name": "cm",
      "outputs": [
        {
          "internalType": "contract ICollateralManager",
          "name": "",
          "type": "address"
        }
      ],
      "stateMutability": "view",
      "type": "function"
    },
    {
      "inputs": [],
      "name": "collateralToken",
      "outputs": [
        {
          "internalType": "contract IERC20",
          "name": "",
          "type": "address"
        }
      ],
      "stateMutability": "view",
      "type": "function"
    },
    {
      "inputs": [],
      "name": "collateralType",
      "outputs": [
        {
          "internalType": "bytes32",
          "name": "",
          "type": "bytes32"
        }
      ],
      "stateMutability": "view",
      "type": "function"
    },
    {
      "inputs": [
        {
          "internalType": "uint256",
          "name": "amount",
          "type": "uint256"
        }
      ],
      "name": "convertFrom18",
      "outputs": [
        {
          "internalType": "uint256",
          "name": "",
          "type": "uint256"
        }
      ],
      "stateMutability": "pure",
      "type": "function"
    },
    {
      "inputs": [],
      "name": "createVault",
      "outputs": [],
      "stateMutability": "nonpayable",
      "type": "function"
    },
    {
      "inputs": [],
      "name": "feeCollector",
      "outputs": [
        {
          "internalType": "address",
          "name": "",
          "type": "address"
        }
      ],
      "stateMutability": "view",
      "type": "function"
    },
    {
      "inputs": [],
      "name": "highWater",
      "outputs": [
        {
          "internalType": "uint256",
          "name": "",
          "type": "uint256"
        }
      ],
      "stateMutability": "view",
      "type": "function"
    },
    {
      "inputs": [
        {
          "internalType": "address",
          "name": "_addressListFactory",
          "type": "address"
        }
      ],
      "name": "init",
      "outputs": [],
      "stateMutability": "nonpayable",
      "type": "function"
    },
    {
      "inputs": [
        {
          "internalType": "address",
          "name": "_token",
          "type": "address"
        }
      ],
      "name": "isReservedToken",
      "outputs": [
        {
          "internalType": "bool",
          "name": "",
          "type": "bool"
        }
      ],
      "stateMutability": "view",
      "type": "function"
    },
    {
      "inputs": [],
      "name": "isUnderwater",
      "outputs": [
        {
          "internalType": "bool",
          "name": "",
          "type": "bool"
        }
      ],
      "stateMutability": "view",
      "type": "function"
    },
    {
      "inputs": [],
      "name": "keepers",
      "outputs": [
        {
          "internalType": "contract IAddressList",
          "name": "",
          "type": "address"
        }
      ],
      "stateMutability": "view",
      "type": "function"
    },
    {
      "inputs": [],
      "name": "lowWater",
      "outputs": [
        {
          "internalType": "uint256",
          "name": "",
          "type": "uint256"
        }
      ],
      "stateMutability": "view",
      "type": "function"
    },
    {
      "inputs": [
        {
          "internalType": "address",
          "name": "_newStrategy",
          "type": "address"
        }
      ],
      "name": "migrate",
      "outputs": [],
      "stateMutability": "nonpayable",
      "type": "function"
    },
    {
      "inputs": [],
      "name": "pool",
      "outputs": [
        {
          "internalType": "address",
          "name": "",
          "type": "address"
        }
      ],
      "stateMutability": "view",
      "type": "function"
    },
    {
      "inputs": [],
      "name": "rebalance",
      "outputs": [],
      "stateMutability": "nonpayable",
      "type": "function"
    },
    {
      "inputs": [],
      "name": "receiptToken",
      "outputs": [
        {
          "internalType": "address",
          "name": "",
          "type": "address"
        }
      ],
      "stateMutability": "view",
      "type": "function"
    },
    {
      "inputs": [
        {
          "internalType": "address",
          "name": "_keeperAddress",
          "type": "address"
        }
      ],
      "name": "removeKeeper",
      "outputs": [],
      "stateMutability": "nonpayable",
      "type": "function"
    },
    {
      "inputs": [],
      "name": "resurface",
      "outputs": [],
      "stateMutability": "nonpayable",
      "type": "function"
    },
    {
      "inputs": [],
      "name": "setupOracles",
      "outputs": [],
      "stateMutability": "nonpayable",
      "type": "function"
    },
    {
      "inputs": [],
      "name": "swapManager",
      "outputs": [
        {
          "internalType": "contract ISwapManager",
          "name": "",
          "type": "address"
        }
      ],
      "stateMutability": "view",
      "type": "function"
    },
    {
      "inputs": [
        {
          "internalType": "address",
          "name": "_fromToken",
          "type": "address"
        }
      ],
      "name": "sweepERC20",
      "outputs": [],
      "stateMutability": "nonpayable",
      "type": "function"
    },
    {
      "inputs": [],
      "name": "token",
      "outputs": [
        {
          "internalType": "address",
          "name": "",
          "type": "address"
        }
      ],
      "stateMutability": "view",
      "type": "function"
    },
    {
      "inputs": [],
      "name": "totalValue",
      "outputs": [
        {
          "internalType": "uint256",
          "name": "_totalValue",
          "type": "uint256"
        }
      ],
      "stateMutability": "view",
      "type": "function"
    },
    {
      "inputs": [
        {
          "internalType": "uint256",
          "name": "_highWater",
          "type": "uint256"
        },
        {
          "internalType": "uint256",
          "name": "_lowWater",
          "type": "uint256"
        }
      ],
      "name": "updateBalancingFactor",
      "outputs": [],
      "stateMutability": "nonpayable",
      "type": "function"
    },
    {
      "inputs": [
        {
          "internalType": "address",
          "name": "_feeCollector",
          "type": "address"
        }
      ],
      "name": "updateFeeCollector",
      "outputs": [],
      "stateMutability": "nonpayable",
      "type": "function"
    },
    {
      "inputs": [
        {
          "internalType": "address",
          "name": "_swapManager",
          "type": "address"
        }
      ],
      "name": "updateSwapManager",
      "outputs": [],
      "stateMutability": "nonpayable",
      "type": "function"
    },
    {
      "inputs": [],
      "name": "vaultNum",
      "outputs": [
        {
          "internalType": "uint256",
          "name": "",
          "type": "uint256"
        }
      ],
      "stateMutability": "view",
      "type": "function"
    },
    {
      "inputs": [
        {
          "internalType": "uint256",
          "name": "_amount",
          "type": "uint256"
        }
      ],
      "name": "withdraw",
      "outputs": [],
      "stateMutability": "nonpayable",
      "type": "function"
    }
  ],
  "transactionHash": "0xf6ef3b101c9f1fd795feec29c3b172b2938693a67e4539d6e08944b90ee89296",
  "args": [
    "0xfF43C327410F960261057ba1DA787eD78B42c257",
    "0xaBC64889601F01e7B26277Ef8756250d6ABf8c18",
    "0xe382d9f2394A359B01006faa8A1864b8a60d2710"
  ],
  "solcInputHash": "e0dde88da0ebee6e8283149335552532",
  "bytecode": "0x6101406040523480156200001257600080fd5b5060405162004be038038062004be08339810160408190526200003591620002a6565b828282735d3a536e4d6dbd6114cc1ead35777bab948e364364554e492d4160d81b84848484848483836001600160a01b038316620000ba5760405162461bcd60e51b815260206004820152601460248201527f706f6f6c2d616464726573732d69732d7a65726f00000000000000000000000060448201526064015b60405180910390fd5b6001600160a01b038216620001075760405162461bcd60e51b8152602060048201526012602482015271736d2d616464726573732d69732d7a65726f60701b6044820152606401620000b1565b600280546001600160a01b0319166001600160a01b0384811691909117909155606084901b6001600160601b03191660c05260408051637e062a3560e11b815290519185169163fc0c546a91600480820192602092909190829003018186803b1580156200017457600080fd5b505afa15801562000189573d6000803e3d6000fd5b505050506040513d601f19601f82011682018060405250810190620001af9190620002f9565b6001600160601b0319606091821b811660805291901b1660a05250506001600160a01b038416620002185760405162461bcd60e51b8152602060048201526012602482015271636d2d616464726573732d69732d7a65726f60701b6044820152606401620000b1565b61010052505060601b6001600160601b03191660e052506001600160a01b038216620002875760405162461bcd60e51b815260206004820152601660248201527f63546f6b656e2d616464726573732d69732d7a65726f000000000000000000006044820152606401620000b1565b5060601b6001600160601b031916610120525062000338945050505050565b600080600060608486031215620002bb578283fd5b8351620002c8816200031f565b6020850151909350620002db816200031f565b6040850151909250620002ee816200031f565b809150509250925092565b6000602082840312156200030b578081fd5b815162000318816200031f565b9392505050565b6001600160a01b03811681146200033557600080fd5b50565b60805160601c60a05160601c60c05160601c60e05160601c610100516101205160601c6146b36200052d600039600081816121c5015281816122690152818161393401528181613df40152613ee101526000818161043e015261111701526000818161031401528181610ad801528181610da90152818161113d01528181611b4101528181611e0d01528181612368015281816124e301528181612663015281816129f101528181612a7e01528181612d6301528181612f6e015281816130680152818161328d0152818161330a0152818161335701528181613462015281816134b60152613abc01526000818161020f015281816104e401528181610673015281816108ee01528181610c1301528181610e9601528181611049015281816112a701528181611476015281816115f3015281816116bc0152818161194c0152818161215f01528181612765015281816127f801528181612895015261350a0152600081816104650152818161049a01528181610e34015281816117d0015281816118540152612be30152600081816103b00152818161189e0152818161192301528181611c1001528181611d6201528181611f99015281816121890152818161240e01528181612951015281816131a2015281816131de01528181613494015281816134e8015261364701526146b36000f3fe608060405234801561001057600080fd5b50600436106101f05760003560e01c806399b71d5c1161010f578063d2c35ce8116100a2578063ec78e83211610071578063ec78e83214610460578063fb589de214610487578063fc0c546a14610498578063ffa1ad74146104be576101f0565b8063d2c35ce81461040b578063d4c3eea01461041e578063e00af4a714610426578063e824600f14610439576101f0565b8063b2016bd4116100de578063b2016bd4146103ab578063b442bb23146103d2578063c415b95c146103e5578063ce5494bb146103f8576101f0565b806399b71d5c14610349578063a3f4df7e14610351578063aa1018861461039a578063b09e8797146103a2576101f0565b8063415eea1b11610187578063709d039d11610156578063709d039d146102f45780637d7c2a1c14610307578063931816201461030f578063951dc22c14610336576101f0565b8063415eea1b146102be578063440d7248146102c65780634c36fad7146102d95780635d12928b146102ec576101f0565b80632e1a7d4d116101c35780632e1a7d4d146102785780632ecd89d41461028b5780633e918261146102a35780634032b72b146102ab576101f0565b806314ae9f2e146101f557806316f0115b1461020a57806319ab453c1461024e57806325afda8314610261575b600080fd5b6102086102033660046141a2565b6104e2565b005b6102317f000000000000000000000000000000000000000000000000000000000000000081565b6040516001600160a01b0390911681526020015b60405180910390f35b61020861025c3660046141a2565b610671565b61026a60045481565b604051908152602001610245565b610208610286366004614320565b6108eb565b610293610968565b6040519015158152602001610245565b610208610b62565b6102086102b93660046141a2565b610c11565b61026a610d91565b6102936102d43660046141a2565b610e30565b6102086102e73660046141a2565b610e94565b610208611047565b600254610231906001600160a01b031681565b6102086111c1565b6102317f000000000000000000000000000000000000000000000000000000000000000081565b600054610231906001600160a01b031681565b610208611310565b61038d6040518060400160405280601b81526020017f436f6d706f756e642d4d616b65722d53747261746567792d554e49000000000081525081565b604051610245919061445c565b6102086113ca565b61026a60035481565b6102317f000000000000000000000000000000000000000000000000000000000000000081565b6102086103e0366004614350565b611474565b600154610231906001600160a01b031681565b6102086104063660046141a2565b6115f0565b6102086104193660046141a2565b61194a565b61026a611b13565b6102086104343660046141a2565b611ea2565b61026a7f000000000000000000000000000000000000000000000000000000000000000081565b6102317f000000000000000000000000000000000000000000000000000000000000000081565b61026a610495366004614320565b90565b7f0000000000000000000000000000000000000000000000000000000000000000610231565b61038d60405180604001604052806005815260200164332e302e3960d81b81525081565b7f00000000000000000000000000000000000000000000000000000000000000006001600160a01b0316630c340a246040518163ffffffff1660e01b815260040160206040518083038186803b15801561053b57600080fd5b505afa15801561054f573d6000803e3d6000fd5b505050506040513d601f19601f8201168201806040525081019061057391906141be565b6001600160a01b0316336001600160a01b0316146105ac5760405162461bcd60e51b81526004016105a3906144bf565b60405180910390fd5b600054604051631484968760e11b81526001600160a01b038381166004830152909116906329092d0e90602401602060405180830381600087803b1580156105f357600080fd5b505af1158015610607573d6000803e3d6000fd5b505050506040513d601f19601f8201168201806040525081019061062b9190614300565b61066e5760405162461bcd60e51b81526020600482015260146024820152731c995b5bdd994b5ad9595c195c8b59985a5b195960621b60448201526064016105a3565b50565b7f00000000000000000000000000000000000000000000000000000000000000006001600160a01b0316630c340a246040518163ffffffff1660e01b815260040160206040518083038186803b1580156106ca57600080fd5b505afa1580156106de573d6000803e3d6000fd5b505050506040513d601f19601f8201168201806040525081019061070291906141be565b6001600160a01b0316336001600160a01b0316146107325760405162461bcd60e51b81526004016105a3906144bf565b6000546001600160a01b03161561078b5760405162461bcd60e51b815260206004820152601b60248201527f6b65657065722d6c6973742d616c72656164792d63726561746564000000000060448201526064016105a3565b6000819050806001600160a01b0316630fab4d256040518163ffffffff1660e01b8152600401602060405180830381600087803b1580156107cb57600080fd5b505af11580156107df573d6000803e3d6000fd5b505050506040513d601f19601f8201168201806040525081019061080391906141be565b600080546001600160a01b0319166001600160a01b03929092169182179055630a3b0a4f61082e3390565b6040516001600160e01b031960e084901b1681526001600160a01b039091166004820152602401602060405180830381600087803b15801561086f57600080fd5b505af1158015610883573d6000803e3d6000fd5b505050506040513d601f19601f820116820180604052508101906108a79190614300565b6108e75760405162461bcd60e51b81526020600482015260116024820152701859190b5ad9595c195c8b59985a5b1959607a1b60448201526064016105a3565b5050565b337f00000000000000000000000000000000000000000000000000000000000000006001600160a01b03161461095f5760405162461bcd60e51b815260206004820152601960248201527818d85b1b195c8b5a5ccb5b9bdd0b5d995cdc195c8b5c1bdbdb603a1b60448201526064016105a3565b61066e8161213d565b60405163331faf7160e21b81523060048201526000908190733d9819210a31b4961b30ef54be2aed79b9c9cd3b9063cc7ebdc49060240160206040518083038186803b1580156109b757600080fd5b505afa1580156109cb573d6000803e3d6000fd5b505050506040513d601f19601f820116820180604052508101906109ef9190614338565b905060008115610ab0576002546040516340b4c54560e11b81526001600160a01b03909116906381698a8a90610a589073c00e94cb662c3520282e6f5717214004a7f2688890736b175474e89094c44da98b954eedeac495271d0f90879060009060040161440f565b60006040518083038186803b158015610a7057600080fd5b505afa158015610a84573d6000803e3d6000fd5b505050506040513d6000823e601f3d908101601f19168201604052610aac91908101906141da565b9150505b80610ab96121b8565b610ac39190614587565b60405163c0af0d3b60e01b81523060048201527f00000000000000000000000000000000000000000000000000000000000000006001600160a01b03169063c0af0d3b9060240160206040518083038186803b158015610b2257600080fd5b505afa158015610b36573d6000803e3d6000fd5b505050506040513d601f19601f82011682018060405250810190610b5a9190614338565b119250505090565b6000546001600160a01b0316635dbe47e8336040516001600160e01b031960e084901b1681526001600160a01b03909116600482015260240160206040518083038186803b158015610bb357600080fd5b505afa158015610bc7573d6000803e3d6000fd5b505050506040513d601f19601f82011682018060405250810190610beb9190614300565b610c075760405162461bcd60e51b81526004016105a39061448f565b610c0f6122ff565b565b7f00000000000000000000000000000000000000000000000000000000000000006001600160a01b0316630c340a246040518163ffffffff1660e01b815260040160206040518083038186803b158015610c6a57600080fd5b505afa158015610c7e573d6000803e3d6000fd5b505050506040513d601f19601f82011682018060405250810190610ca291906141be565b6001600160a01b0316336001600160a01b031614610cd25760405162461bcd60e51b81526004016105a3906144bf565b600054604051630a3b0a4f60e01b81526001600160a01b03838116600483015290911690630a3b0a4f90602401602060405180830381600087803b158015610d1957600080fd5b505af1158015610d2d573d6000803e3d6000fd5b505050506040513d601f19601f82011682018060405250810190610d519190614300565b61066e5760405162461bcd60e51b81526020600482015260116024820152701859190b5ad9595c195c8b59985a5b1959607a1b60448201526064016105a3565b60405163cd1adb6160e01b81523060048201526000907f00000000000000000000000000000000000000000000000000000000000000006001600160a01b03169063cd1adb619060240160206040518083038186803b158015610df357600080fd5b505afa158015610e07573d6000803e3d6000fd5b505050506040513d601f19601f82011682018060405250810190610e2b9190614338565b905090565b60007f00000000000000000000000000000000000000000000000000000000000000006001600160a01b0316826001600160a01b03161480610e8e57506001600160a01b03821673c00e94cb662c3520282e6f5717214004a7f26888145b92915050565b7f00000000000000000000000000000000000000000000000000000000000000006001600160a01b0316630c340a246040518163ffffffff1660e01b815260040160206040518083038186803b158015610eed57600080fd5b505afa158015610f01573d6000803e3d6000fd5b505050506040513d601f19601f82011682018060405250810190610f2591906141be565b6001600160a01b0316336001600160a01b031614610f555760405162461bcd60e51b81526004016105a3906144bf565b6001600160a01b038116610fa05760405162461bcd60e51b8152602060048201526012602482015271736d2d616464726573732d69732d7a65726f60701b60448201526064016105a3565b6002546001600160a01b0382811691161415610feb5760405162461bcd60e51b815260206004820152600a602482015269736d2d69732d73616d6560b01b60448201526064016105a3565b6002546040516001600160a01b038084169216907f2d19927e7cac08ceb98b38898a4fdff6da6a27295b9a2d62fe250408ebe044e190600090a3600280546001600160a01b0319166001600160a01b0392909216919091179055565b7f00000000000000000000000000000000000000000000000000000000000000006001600160a01b0316630c340a246040518163ffffffff1660e01b815260040160206040518083038186803b1580156110a057600080fd5b505afa1580156110b4573d6000803e3d6000fd5b505050506040513d601f19601f820116820180604052508101906110d891906141be565b6001600160a01b0316336001600160a01b0316146111085760405162461bcd60e51b81526004016105a3906144bf565b604051630bbccf9b60e11b81527f000000000000000000000000000000000000000000000000000000000000000060048201527f00000000000000000000000000000000000000000000000000000000000000006001600160a01b0316906317799f3690602401602060405180830381600087803b15801561118957600080fd5b505af115801561119d573d6000803e3d6000fd5b505050506040513d601f19601f8201168201806040525081019061066e9190614338565b6000546001600160a01b0316635dbe47e8336040516001600160e01b031960e084901b1681526001600160a01b03909116600482015260240160206040518083038186803b15801561121257600080fd5b505afa158015611226573d6000803e3d6000fd5b505050506040513d601f19601f8201168201806040525081019061124a9190614300565b6112665760405162461bcd60e51b81526004016105a39061448f565b60008060006112736127d2565b6040516302df682360e11b815260048101849052602481018390526044810182905292955090935091506001600160a01b037f000000000000000000000000000000000000000000000000000000000000000016906305bed04690606401600060405180830381600087803b1580156112eb57600080fd5b505af11580156112ff573d6000803e3d6000fd5b5050505061130b612939565b505050565b6000546001600160a01b0316635dbe47e8336040516001600160e01b031960e084901b1681526001600160a01b03909116600482015260240160206040518083038186803b15801561136157600080fd5b505afa158015611375573d6000803e3d6000fd5b505050506040513d601f19601f820116820180604052508101906113999190614300565b6113b55760405162461bcd60e51b81526004016105a39061448f565b6113bf6000612bc0565b610c0f600019612bc0565b6000546001600160a01b0316635dbe47e8336040516001600160e01b031960e084901b1681526001600160a01b03909116600482015260240160206040518083038186803b15801561141b57600080fd5b505afa15801561142f573d6000803e3d6000fd5b505050506040513d601f19601f820116820180604052508101906114539190614300565b61146f5760405162461bcd60e51b81526004016105a39061448f565b610c0f565b7f00000000000000000000000000000000000000000000000000000000000000006001600160a01b0316630c340a246040518163ffffffff1660e01b815260040160206040518083038186803b1580156114cd57600080fd5b505afa1580156114e1573d6000803e3d6000fd5b505050506040513d601f19601f8201168201806040525081019061150591906141be565b6001600160a01b0316336001600160a01b0316146115355760405162461bcd60e51b81526004016105a3906144bf565b806115755760405162461bcd60e51b815260206004820152601060248201526f6c6f7757617465722d69732d7a65726f60801b60448201526064016105a3565b8082116115c45760405162461bcd60e51b815260206004820152601c60248201527f6869676857617465722d6c6573732d7468616e2d6c6f7757617465720000000060448201526064016105a3565b6115d5662386f26fc10000836145bf565b6003556115e9662386f26fc10000826145bf565b6004555050565b337f00000000000000000000000000000000000000000000000000000000000000006001600160a01b0316146116645760405162461bcd60e51b815260206004820152601960248201527818d85b1b195c8b5a5ccb5b9bdd0b5d995cdc195c8b5c1bdbdb603a1b60448201526064016105a3565b6001600160a01b0381166116ba5760405162461bcd60e51b815260206004820152601c60248201527f6e65772d73747261746567792d616464726573732d69732d7a65726f0000000060448201526064016105a3565b7f00000000000000000000000000000000000000000000000000000000000000006001600160a01b0316816001600160a01b03166316f0115b6040518163ffffffff1660e01b815260040160206040518083038186803b15801561171d57600080fd5b505afa158015611731573d6000803e3d6000fd5b505050506040513d601f19601f8201168201806040525081019061175591906141be565b6001600160a01b0316146117a45760405162461bcd60e51b81526020600482015260166024820152756e6f742d76616c69642d6e65772d737472617465677960501b60448201526064016105a3565b6117ad81612d44565b6040516370a0823160e01b815230600482015261187b9082906001600160a01b037f000000000000000000000000000000000000000000000000000000000000000016906370a082319060240160206040518083038186803b15801561181257600080fd5b505afa158015611826573d6000803e3d6000fd5b505050506040513d601f19601f8201168201806040525081019061184a9190614338565b6001600160a01b037f0000000000000000000000000000000000000000000000000000000000000000169190612dc3565b6040516370a0823160e01b815230600482015261066e9082906001600160a01b037f000000000000000000000000000000000000000000000000000000000000000016906370a08231906024015b60206040518083038186803b1580156118e157600080fd5b505afa1580156118f5573d6000803e3d6000fd5b505050506040513d601f19601f820116820180604052508101906119199190614338565b6001600160a01b037f0000000000000000000000000000000000000000000000000000000000000000169190612dc3565b7f00000000000000000000000000000000000000000000000000000000000000006001600160a01b0316630c340a246040518163ffffffff1660e01b815260040160206040518083038186803b1580156119a357600080fd5b505afa1580156119b7573d6000803e3d6000fd5b505050506040513d601f19601f820116820180604052508101906119db91906141be565b6001600160a01b0316336001600160a01b031614611a0b5760405162461bcd60e51b81526004016105a3906144bf565b6001600160a01b038116611a615760405162461bcd60e51b815260206004820152601d60248201527f6665652d636f6c6c6563746f722d616464726573732d69732d7a65726f00000060448201526064016105a3565b6001546001600160a01b0382811691161415611ab75760405162461bcd60e51b81526020600482015260156024820152746665652d636f6c6c6563746f722d69732d73616d6560581b60448201526064016105a3565b6001546040516001600160a01b038084169216907f0f06062680f9bd68e786e9980d9bb03d73d5620fc3b345e417b6eacb310b970690600090a3600180546001600160a01b0319166001600160a01b0392909216919091179055565b600080611b1e6121b8565b60405163c0af0d3b60e01b81523060048201529091506000906001600160a01b037f0000000000000000000000000000000000000000000000000000000000000000169063c0af0d3b9060240160206040518083038186803b158015611b8357600080fd5b505afa158015611b97573d6000803e3d6000fd5b505050506040513d601f19601f82011682018060405250810190611bbb9190614338565b905080821115611c96576000611bd182846145de565b6002546040516340b4c54560e11b81529192506001600160a01b0316906381698a8a90611c3d90736b175474e89094c44da98b954eedeac495271d0f907f000000000000000000000000000000000000000000000000000000000000000090869060009060040161440f565b60006040518083038186803b158015611c5557600080fd5b505afa158015611c69573d6000803e3d6000fd5b505050506040513d6000823e601f3d908101601f19168201604052611c9191908101906141da565b945050505b60405163331faf7160e21b8152306004820152600090733d9819210a31b4961b30ef54be2aed79b9c9cd3b9063cc7ebdc49060240160206040518083038186803b158015611ce357600080fd5b505afa158015611cf7573d6000803e3d6000fd5b505050506040513d601f19601f82011682018060405250810190611d1b9190614338565b90508015611df4576002546040516340b4c54560e11b81526000916001600160a01b0316906381698a8a90611d8e9073c00e94cb662c3520282e6f5717214004a7f26888907f0000000000000000000000000000000000000000000000000000000000000000908790879060040161440f565b60006040518083038186803b158015611da657600080fd5b505afa158015611dba573d6000803e3d6000fd5b505050506040513d6000823e601f3d908101601f19168201604052611de291908101906141da565b9150611df090508186614587565b9450505b6040516369ebe00160e11b8152306004820152611e90907f00000000000000000000000000000000000000000000000000000000000000006001600160a01b03169063d3d7c002906024015b60206040518083038186803b158015611e5857600080fd5b505afa158015611e6c573d6000803e3d6000fd5b505050506040513d601f19601f820116820180604052508101906104959190614338565b611e9a9085614587565b935050505090565b6000546001600160a01b0316635dbe47e8336040516001600160e01b031960e084901b1681526001600160a01b03909116600482015260240160206040518083038186803b158015611ef357600080fd5b505afa158015611f07573d6000803e3d6000fd5b505050506040513d601f19601f82011682018060405250810190611f2b9190614300565b611f475760405162461bcd60e51b81526004016105a39061448f565b6001546001600160a01b0316611f975760405162461bcd60e51b81526020600482015260156024820152741999594b58dbdb1b1958dd1bdc8b5b9bdd0b5cd95d605a1b60448201526064016105a3565b7f00000000000000000000000000000000000000000000000000000000000000006001600160a01b0316816001600160a01b031614156120195760405162461bcd60e51b815260206004820152601f60248201527f6e6f742d616c6c6f7765642d746f2d73776565702d636f6c6c61746572616c0060448201526064016105a3565b61202281610e30565b156120665760405162461bcd60e51b815260206004820152601460248201527306e6f742d616c6c6f7765642d746f2d73776565760641b60448201526064016105a3565b6001600160a01b03811673eeeeeeeeeeeeeeeeeeeeeeeeeeeeeeeeeeeeeeee14156120a6576001546120a1906001600160a01b031647612e26565b61066e565b6040516370a0823160e01b81523060048201526000906001600160a01b038316906370a082319060240160206040518083038186803b1580156120e857600080fd5b505afa1580156120fc573d6000803e3d6000fd5b505050506040513d601f19601f820116820180604052508101906121209190614338565b6001549091506108e7906001600160a01b03848116911683612dc3565b61214681612f3f565b6040516370a0823160e01b815230600482015261066e907f0000000000000000000000000000000000000000000000000000000000000000906001600160a01b037f000000000000000000000000000000000000000000000000000000000000000016906370a08231906024016118c9565b6000670de0b6b3a76400007f00000000000000000000000000000000000000000000000000000000000000006001600160a01b031663182df0f56040518163ffffffff1660e01b815260040160206040518083038186803b15801561221c57600080fd5b505afa158015612230573d6000803e3d6000fd5b505050506040513d601f19601f820116820180604052508101906122549190614338565b6040516370a0823160e01b81523060048201527f00000000000000000000000000000000000000000000000000000000000000006001600160a01b0316906370a082319060240160206040518083038186803b1580156122b357600080fd5b505afa1580156122c7573d6000803e3d6000fd5b505050506040513d601f19601f820116820180604052508101906122eb9190614338565b6122f591906145bf565b610e2b919061459f565b612307610968565b6123495760405162461bcd60e51b81526020600482015260136024820152723837b7b616b4b996b0b137bb3296bbb0ba32b960691b60448201526064016105a3565b60006123536121b8565b60405163c0af0d3b60e01b81523060048201527f00000000000000000000000000000000000000000000000000000000000000006001600160a01b03169063c0af0d3b9060240160206040518083038186803b1580156123b257600080fd5b505afa1580156123c6573d6000803e3d6000fd5b505050506040513d601f19601f820116820180604052508101906123ea9190614338565b6123f491906145de565b600254604051637a6f237b60e11b81526001600160a01b037f000000000000000000000000000000000000000000000000000000000000000081166004830152736b175474e89094c44da98b954eedeac495271d0f6024830152604482018490529293506000928392839291169063f4de46f69060640160006040518083038186803b15801561248357600080fd5b505afa158015612497573d6000803e3d6000fd5b505050506040513d6000823e601f3d908101601f191682016040526124bf919081019061421f565b925092509250816000146127cc576040516330897f1760e11b8152600481018390527f00000000000000000000000000000000000000000000000000000000000000006001600160a01b031690636112fe2e90602401600060405180830381600087803b15801561252f57600080fd5b505af1158015612543573d6000803e3d6000fd5b5050600254604051636e74a6f760e01b8152600481018590526001600160a01b039091169250636e74a6f7915060240160206040518083038186803b15801561258b57600080fd5b505afa15801561259f573d6000803e3d6000fd5b505050506040513d601f19601f820116820180604052508101906125c391906141be565b6001600160a01b03166338ed17398360018630426040518663ffffffff1660e01b81526004016125f79594939291906144f6565b600060405180830381600087803b15801561261157600080fd5b505af1158015612625573d6000803e3d6000fd5b505050506040513d6000823e601f3d908101601f1916820160405261264d919081019061426d565b506040516370a0823160e01b81523060048201527f00000000000000000000000000000000000000000000000000000000000000006001600160a01b03169063a846c2fd90736b175474e89094c44da98b954eedeac495271d0f906370a082319060240160206040518083038186803b1580156126c957600080fd5b505afa1580156126dd573d6000803e3d6000fd5b505050506040513d601f19601f820116820180604052508101906127019190614338565b6040518263ffffffff1660e01b815260040161271f91815260200190565b600060405180830381600087803b15801561273957600080fd5b505af115801561274d573d6000803e3d6000fd5b50506040516306eeb69360e51b8152600481018790527f00000000000000000000000000000000000000000000000000000000000000006001600160a01b0316925063ddd6d2609150602401600060405180830381600087803b1580156127b357600080fd5b505af11580156127c7573d6000803e3d6000fd5b505050505b50505050565b604051636a9eee1360e11b81523060048201526000908190819081906001600160a01b037f0000000000000000000000000000000000000000000000000000000000000000169063d53ddc269060240160206040518083038186803b15801561283a57600080fd5b505afa15801561284e573d6000803e3d6000fd5b505050506040513d601f19601f820116820180604052508101906128729190614338565b604051639f2b283360e01b81523060048201529091506000906001600160a01b037f00000000000000000000000000000000000000000000000000000000000000001690639f2b28339060240160206040518083038186803b1580156128d757600080fd5b505afa1580156128eb573d6000803e3d6000fd5b505050506040513d601f19601f8201168201806040525081019061290f9190614338565b905061291a816130d4565b945061292581613267565b9350612930826132d6565b92505050909192565b6040516370a0823160e01b81523060048201526000907f00000000000000000000000000000000000000000000000000000000000000006001600160a01b0316906370a082319060240160206040518083038186803b15801561299b57600080fd5b505afa1580156129af573d6000803e3d6000fd5b505050506040513d601f19601f820116820180604052508101906129d39190614338565b90508015612a565760405163bad4a01f60e01b8152600481018290527f00000000000000000000000000000000000000000000000000000000000000006001600160a01b03169063bad4a01f90602401600060405180830381600087803b158015612a3d57600080fd5b505af1158015612a51573d6000803e3d6000fd5b505050505b6040516390229af760e01b815230600482015260009081908190819081906001600160a01b037f000000000000000000000000000000000000000000000000000000000000000016906390229af79060240160a06040518083038186803b158015612ac057600080fd5b505afa158015612ad4573d6000803e3d6000fd5b505050506040513d601f19601f82011682018060405250810190612af89190614371565b9450945094509450945060006003548487612b1391906145bf565b612b1d919061459f565b905081811015612b3557612b30856132e5565b612bb7565b600354831115612b9b57612b47610968565b15612b895760405162461bcd60e51b81526020600482015260126024820152713837b7b616b4b996bab73232b93bb0ba32b960711b60448201526064016105a3565b612b30612b9686836145de565b613341565b600454831015612bb757612bb7612bb282876145de565b6132e5565b50505050505050565b612bc981613448565b612c08736b175474e89094c44da98b954eedeac495271d0f7f00000000000000000000000000000000000000000000000000000000000000008361371a565b60005b600260009054906101000a90046001600160a01b03166001600160a01b031663c2fba6676040518163ffffffff1660e01b815260040160206040518083038186803b158015612c5957600080fd5b505afa158015612c6d573d6000803e3d6000fd5b505050506040513d601f19601f82011682018060405250810190612c919190614338565b8110156108e757600254604051636e74a6f760e01b815260048101839052612d32916001600160a01b031690636e74a6f79060240160206040518083038186803b158015612cde57600080fd5b505afa158015612cf2573d6000803e3d6000fd5b505050506040513d601f19601f82011682018060405250810190612d1691906141be565b73c00e94cb662c3520282e6f5717214004a7f26888908461371a565b80612d3c81614621565b915050612c0b565b604051637038e06560e11b81526001600160a01b0382811660048301527f0000000000000000000000000000000000000000000000000000000000000000169063e071c0ca906024015b600060405180830381600087803b158015612da857600080fd5b505af1158015612dbc573d6000803e3d6000fd5b5050505050565b6040516001600160a01b03831660248201526044810182905261130b90849063a9059cbb60e01b906064015b60408051601f198184030181529190526020810180516001600160e01b03166001600160e01b03199093169290921790915261383e565b80471015612e765760405162461bcd60e51b815260206004820152601d60248201527f416464726573733a20696e73756666696369656e742062616c616e636500000060448201526064016105a3565b6000826001600160a01b03168260405160006040518083038185875af1925050503d8060008114612ec3576040519150601f19603f3d011682016040523d82523d6000602084013e612ec8565b606091505b505090508061130b5760405162461bcd60e51b815260206004820152603a60248201527f416464726573733a20756e61626c6520746f2073656e642076616c75652c207260448201527f6563697069656e74206d6179206861766520726576657274656400000000000060648201526084016105a3565b604051630a5ab5dd60e31b81523060048201526024810182905260009081908190819081906001600160a01b037f000000000000000000000000000000000000000000000000000000000000000016906352d5aee89060440160a06040518083038186803b158015612fb057600080fd5b505afa158015612fc4573d6000803e3d6000fd5b505050506040513d601f19601f82011682018060405250810190612fe89190614371565b9450945094509450945083600014158015613004575060045482105b156130525760035460009061301985886145bf565b613023919061459f565b90508181101561303b57613036856132e5565b613050565b8481101561305057613050612bb282876145de565b505b6040516330897f1760e11b8152600481018790527f00000000000000000000000000000000000000000000000000000000000000006001600160a01b031690636112fe2e90602401600060405180830381600087803b1580156130b457600080fd5b505af11580156130c8573d6000803e3d6000fd5b50505050505050505050565b60006130f3736b175474e89094c44da98b954eedeac495271d0f613910565b6130fb613aa4565b6040516370a0823160e01b8152306004820152600090736b175474e89094c44da98b954eedeac495271d0f906370a082319060240160206040518083038186803b15801561314857600080fd5b505afa15801561315c573d6000803e3d6000fd5b505050506040513d601f19601f820116820180604052508101906131809190614338565b905080156131c9576131c9736b175474e89094c44da98b954eedeac495271d0f7f0000000000000000000000000000000000000000000000000000000000000000836001613c28565b6040516370a0823160e01b81523060048201527f00000000000000000000000000000000000000000000000000000000000000006001600160a01b0316906370a082319060240160206040518083038186803b15801561322857600080fd5b505afa15801561323c573d6000803e3d6000fd5b505050506040513d601f19601f820116820180604052508101906132609190614338565b9392505050565b6040516369ebe00160e11b815230600482015260009081906132bc906001600160a01b037f0000000000000000000000000000000000000000000000000000000000000000169063d3d7c00290602401611e40565b90508083116132cc576000613260565b61326081846145de565b60006132e182612f3f565b5090565b801561066e576132f481613dde565b60405163a846c2fd60e01b8152600481018290527f00000000000000000000000000000000000000000000000000000000000000006001600160a01b03169063a846c2fd90602401612d8e565b60405163317afabb60e21b8152600481018290527f00000000000000000000000000000000000000000000000000000000000000006001600160a01b03169063c5ebeaec90602401600060405180830381600087803b1580156133a357600080fd5b505af11580156133b7573d6000803e3d6000fd5b50506040516370a0823160e01b8152306004820152736b175474e89094c44da98b954eedeac495271d0f92506370a08231915060240160206040518083038186803b15801561340557600080fd5b505afa158015613419573d6000803e3d6000fd5b505050506040513d601f19601f8201168201806040525081019061343d9190614338565b905061066e81613ec5565b613487736b175474e89094c44da98b954eedeac495271d0f7f00000000000000000000000000000000000000000000000000000000000000008361371a565b6134db6001600160a01b037f0000000000000000000000000000000000000000000000000000000000000000167f00000000000000000000000000000000000000000000000000000000000000008361371a565b61352f6001600160a01b037f0000000000000000000000000000000000000000000000000000000000000000167f00000000000000000000000000000000000000000000000000000000000000008361371a565b60005b600260009054906101000a90046001600160a01b03166001600160a01b031663c2fba6676040518163ffffffff1660e01b815260040160206040518083038186803b15801561358057600080fd5b505afa158015613594573d6000803e3d6000fd5b505050506040513d601f19601f820116820180604052508101906135b89190614338565b8110156108e757600254604051636e74a6f760e01b81526004810183905261366e916001600160a01b031690636e74a6f79060240160206040518083038186803b15801561360557600080fd5b505afa158015613619573d6000803e3d6000fd5b505050506040513d601f19601f8201168201806040525081019061363d91906141be565b6001600160a01b037f000000000000000000000000000000000000000000000000000000000000000016908461371a565b600254604051636e74a6f760e01b815260048101839052613708916001600160a01b031690636e74a6f79060240160206040518083038186803b1580156136b457600080fd5b505afa1580156136c8573d6000803e3d6000fd5b505050506040513d601f19601f820116820180604052508101906136ec91906141be565b736b175474e89094c44da98b954eedeac495271d0f908461371a565b8061371281614621565b915050613532565b8015806137a35750604051636eb1769f60e11b81523060048201526001600160a01b03838116602483015284169063dd62ed3e9060440160206040518083038186803b15801561376957600080fd5b505afa15801561377d573d6000803e3d6000fd5b505050506040513d601f19601f820116820180604052508101906137a19190614338565b155b61380e5760405162461bcd60e51b815260206004820152603660248201527f5361666545524332303a20617070726f76652066726f6d206e6f6e2d7a65726f60448201527520746f206e6f6e2d7a65726f20616c6c6f77616e636560501b60648201526084016105a3565b6040516001600160a01b03831660248201526044810182905261130b90849063095ea7b360e01b90606401612def565b6000613893826040518060400160405280602081526020017f5361666545524332303a206c6f772d6c6576656c2063616c6c206661696c6564815250856001600160a01b0316613fb29092919063ffffffff16565b80519091501561130b57808060200190518101906138b19190614300565b61130b5760405162461bcd60e51b815260206004820152602a60248201527f5361666545524332303a204552433230206f7065726174696f6e20646964206e6044820152691bdd081cdd58d8d9595960b21b60648201526084016105a3565b604080516001808252818301909252600091602080830190803683370190505090507f00000000000000000000000000000000000000000000000000000000000000008160008151811061397457634e487b7160e01b600052603260045260246000fd5b6001600160a01b039092166020928302919091019091015260405162e1ed9760e51b8152733d9819210a31b4961b30ef54be2aed79b9c9cd3b90631c3db2e0906139c49030908590600401614438565b600060405180830381600087803b1580156139de57600080fd5b505af11580156139f2573d6000803e3d6000fd5b50506040516370a0823160e01b81523060048201526000925073c00e94cb662c3520282e6f5717214004a7f2688891506370a082319060240160206040518083038186803b158015613a4357600080fd5b505afa158015613a57573d6000803e3d6000fd5b505050506040513d601f19601f82011682018060405250810190613a7b9190614338565b9050801561130b5761130b73c00e94cb662c3520282e6f5717214004a7f2688884836001613c28565b60405163c0af0d3b60e01b81523060048201526000907f00000000000000000000000000000000000000000000000000000000000000006001600160a01b03169063c0af0d3b9060240160206040518083038186803b158015613b0657600080fd5b505afa158015613b1a573d6000803e3d6000fd5b505050506040513d601f19601f82011682018060405250810190613b3e9190614338565b90506000613b4a6121b8565b905081811115613b6b57613b66613b6183836145de565b613dde565b6108e7565b818110156108e7576000613b7f82846145de565b6040516370a0823160e01b8152306004820152909150600090736b175474e89094c44da98b954eedeac495271d0f906370a082319060240160206040518083038186803b158015613bcf57600080fd5b505afa158015613be3573d6000803e3d6000fd5b505050506040513d601f19601f82011682018060405250810190613c079190614338565b905081811115613c1f57613c1a82613ec5565b6127cc565b6127cc81613ec5565b600254604051631d1f307960e31b81526001600160a01b038681166004830152858116602483015260448201859052600092839283929091169063e8f983c89060640160006040518083038186803b158015613c8357600080fd5b505afa158015613c97573d6000803e3d6000fd5b505050506040513d6000823e601f3d908101601f19168201604052613cbf919081019061421f565b9250925092508360001415613cd357600193505b8115612bb757600254604051636e74a6f760e01b8152600481018390526001600160a01b0390911690636e74a6f79060240160206040518083038186803b158015613d1d57600080fd5b505afa158015613d31573d6000803e3d6000fd5b505050506040513d601f19601f82011682018060405250810190613d5591906141be565b6001600160a01b03166338ed173986868630426040518663ffffffff1660e01b8152600401613d889594939291906144f6565b600060405180830381600087803b158015613da257600080fd5b505af1158015613db6573d6000803e3d6000fd5b505050506040513d6000823e601f3d908101601f191682016040526127c7919081019061426d565b60405163852a12e360e01b8152600481018290527f00000000000000000000000000000000000000000000000000000000000000006001600160a01b03169063852a12e390602401602060405180830381600087803b158015613e4057600080fd5b505af1158015613e54573d6000803e3d6000fd5b505050506040513d601f19601f82011682018060405250810190613e789190614338565b1561066e5760405162461bcd60e51b815260206004820152601d60248201527f77697468647261772d66726f6d2d636f6d706f756e642d6661696c656400000060448201526064016105a3565b801561066e5760405163140e25ad60e31b8152600481018290527f00000000000000000000000000000000000000000000000000000000000000006001600160a01b03169063a0712d6890602401602060405180830381600087803b158015613f2d57600080fd5b505af1158015613f41573d6000803e3d6000fd5b505050506040513d601f19601f82011682018060405250810190613f659190614338565b1561066e5760405162461bcd60e51b815260206004820152601a60248201527f6465706f7369742d696e2d636f6d706f756e642d6661696c656400000000000060448201526064016105a3565b6060613fc18484600085613fc9565b949350505050565b60608247101561402a5760405162461bcd60e51b815260206004820152602660248201527f416464726573733a20696e73756666696369656e742062616c616e636520666f6044820152651c8818d85b1b60d21b60648201526084016105a3565b843b6140785760405162461bcd60e51b815260206004820152601d60248201527f416464726573733a2063616c6c20746f206e6f6e2d636f6e747261637400000060448201526064016105a3565b600080866001600160a01b0316858760405161409491906143f3565b60006040518083038185875af1925050503d80600081146140d1576040519150601f19603f3d011682016040523d82523d6000602084013e6140d6565b606091505b50915091506140e68282866140f1565b979650505050505050565b60608315614100575081613260565b8251156141105782518084602001fd5b8160405162461bcd60e51b81526004016105a3919061445c565b600082601f83011261413a578081fd5b8151602061414f61414a83614563565b614532565b80838252828201915082860187848660051b890101111561416e578586fd5b855b8581101561419557815161418381614668565b84529284019290840190600101614170565b5090979650505050505050565b6000602082840312156141b3578081fd5b813561326081614668565b6000602082840312156141cf578081fd5b815161326081614668565b600080604083850312156141ec578081fd5b825167ffffffffffffffff811115614202578182fd5b61420e8582860161412a565b925050602083015190509250929050565b600080600060608486031215614233578081fd5b835167ffffffffffffffff811115614249578182fd5b6142558682870161412a565b93505060208401519150604084015190509250925092565b6000602080838503121561427f578182fd5b825167ffffffffffffffff811115614295578283fd5b8301601f810185136142a5578283fd5b80516142b361414a82614563565b80828252848201915084840188868560051b87010111156142d2578687fd5b8694505b838510156142f45780518352600194909401939185019185016142d6565b50979650505050505050565b600060208284031215614311578081fd5b81518015158114613260578182fd5b600060208284031215614331578081fd5b5035919050565b600060208284031215614349578081fd5b5051919050565b60008060408385031215614362578182fd5b50508035926020909101359150565b600080600080600060a08688031215614388578081fd5b5050835160208501516040860151606087015160809097015192989197509594509092509050565b6000815180845260208085019450808401835b838110156143e85781516001600160a01b0316875295820195908201906001016143c3565b509495945050505050565b600082516144058184602087016145f5565b9190910192915050565b6001600160a01b0394851681529290931660208301526040820152606081019190915260800190565b6001600160a01b0383168152604060208201819052600090613fc1908301846143b0565b600060208252825180602084015261447b8160408501602087016145f5565b601f01601f19169190910160400192915050565b60208082526016908201527531b0b63632b916b4b996b737ba16b096b5b2b2b832b960511b604082015260600190565b6020808252601a908201527f63616c6c65722d69732d6e6f742d7468652d676f7665726e6f72000000000000604082015260600190565b600086825285602083015260a0604083015261451560a08301866143b0565b6001600160a01b0394909416606083015250608001529392505050565b604051601f8201601f1916810167ffffffffffffffff8111828210171561455b5761455b614652565b604052919050565b600067ffffffffffffffff82111561457d5761457d614652565b5060051b60200190565b6000821982111561459a5761459a61463c565b500190565b6000826145ba57634e487b7160e01b81526012600452602481fd5b500490565b60008160001904831182151516156145d9576145d961463c565b500290565b6000828210156145f0576145f061463c565b500390565b60005b838110156146105781810151838201526020016145f8565b838111156127cc5750506000910152565b60006000198214156146355761463561463c565b5060010190565b634e487b7160e01b600052601160045260246000fd5b634e487b7160e01b600052604160045260246000fd5b6001600160a01b038116811461066e57600080fdfea26469706673582212201990ed14455723d0c4b5e6308207e3e6db92c0232af04ea44b64a713192d4f9964736f6c63430008030033",
  "devdoc": {
    "kind": "dev",
    "methods": {
      "addKeeper(address)": {
        "params": {
          "_keeperAddress": "keeper address to add."
        }
      },
      "approveToken()": {
        "details": "Approve all required tokens"
      },
      "convertFrom18(uint256)": {
        "details": "Convert from 18 decimals to token defined decimals. Default no conversion."
      },
      "init(address)": {
        "params": {
          "_addressListFactory": "To support same code in eth side chain, user _addressListFactory as param ethereum- 0xded8217De022706A191eE7Ee0Dc9df1185Fb5dA3 polygon-0xD10D5696A350D65A9AA15FE8B258caB4ab1bF291"
        }
      },
      "isReservedToken(address)": {
        "details": "Check whether given token is reserved or not. Reserved tokens are not allowed to sweep."
      },
      "isUnderwater()": {
        "details": "There can be a scenario when someone calls claimComp() periodically which will leave compAccrued = 0 and pool might be underwater. Call rebalance() to liquidate COMP."
      },
      "migrate(address)": {
        "details": "_beforeMigration hook can be implemented in child strategy to do extra steps.",
        "params": {
          "_newStrategy": "Address of new strategy"
        }
      },
      "rebalance()": {
        "details": "Rebalance profit, loss and investment of this strategy"
      },
      "removeKeeper(address)": {
        "params": {
          "_keeperAddress": "keeper address to remove."
        }
      },
      "resurface()": {
        "details": "If pool is underwater this function will resolve underwater condition. If Debt in Maker is greater than Dai balance in lender then pool is underwater. Lowering DAI debt in Maker will resolve underwater condition. Resolve: Calculate required collateral token to lower DAI debt. Withdraw required collateral token from Maker and convert those to DAI via Uniswap. Finally payback debt in Maker using DAI.Also report loss in pool."
      },
      "sweepERC20(address)": {
        "details": "sweep given token to feeCollector of strategy",
        "params": {
          "_fromToken": "token address to sweep"
        }
      },
      "totalValue()": {
        "details": "Make sure to return value in collateral token.Total value = DAI earned + COMP earned + Collateral locked in Maker"
      },
      "updateBalancingFactor(uint256,uint256)": {
        "params": {
          "_highWater": "Value for high water mark.",
          "_lowWater": "Value for low water mark."
        }
      },
      "updateFeeCollector(address)": {
        "params": {
          "_feeCollector": "fee collector address"
        }
      },
      "updateSwapManager(address)": {
        "params": {
          "_swapManager": "swap manager address"
        }
      },
      "withdraw(uint256)": {
        "details": "Withdraw collateral token from lending pool.",
        "params": {
          "_amount": "Amount of collateral token"
        }
      }
    },
    "version": 1
  },
  "userdoc": {
    "kind": "user",
    "methods": {
      "addKeeper(address)": {
        "notice": "Add given address in keepers list."
      },
      "createVault()": {
        "notice": "Create new Maker vault"
      },
      "init(address)": {
        "notice": "Create keeper list NOTE: Any function with onlyKeeper modifier will not work until this function is called. NOTE: Due to gas constraint this function cannot be called in constructor."
      },
      "isUnderwater()": {
        "notice": "Returns true if pool is underwater.Underwater - If debt is greater than earning of pool.Earning - Sum of DAI balance and DAI from accrued reward, if any, in lending pool."
      },
      "migrate(address)": {
        "notice": "Migrate all asset and vault ownership,if any, to new strategy"
      },
      "removeKeeper(address)": {
        "notice": "Remove given address from keepers list."
      },
      "token()": {
        "notice": "Returns address of token correspond to collateral token"
      },
      "totalValue()": {
        "notice": "Report total value of this strategy"
      },
      "updateBalancingFactor(uint256,uint256)": {
        "notice": "Update balancing factors aka high water and low water values. Water mark values represent Collateral Ratio in Maker. For example 300 as high water means 300% collateral ratio."
      },
      "updateFeeCollector(address)": {
        "notice": "Update fee collector"
      },
      "updateSwapManager(address)": {
        "notice": "Update swap manager address"
      }
    },
    "version": 1
  },
  "storageLayout": {
    "storage": [
      {
        "astId": 9577,
        "contract": "contracts/strategies/maker/CompoundMakerStrategyUNI.sol:CompoundMakerStrategyUNI",
        "label": "keepers",
        "offset": 0,
        "slot": "0",
        "type": "t_contract(IAddressList)3647"
      },
      {
        "astId": 9580,
        "contract": "contracts/strategies/maker/CompoundMakerStrategyUNI.sol:CompoundMakerStrategyUNI",
        "label": "feeCollector",
        "offset": 0,
        "slot": "1",
        "type": "t_address"
      },
      {
        "astId": 9583,
        "contract": "contracts/strategies/maker/CompoundMakerStrategyUNI.sol:CompoundMakerStrategyUNI",
        "label": "swapManager",
        "offset": 0,
        "slot": "2",
        "type": "t_contract(ISwapManager)3950"
      },
      {
        "astId": 19009,
        "contract": "contracts/strategies/maker/CompoundMakerStrategyUNI.sol:CompoundMakerStrategyUNI",
        "label": "highWater",
        "offset": 0,
        "slot": "3",
        "type": "t_uint256"
      },
      {
        "astId": 19011,
        "contract": "contracts/strategies/maker/CompoundMakerStrategyUNI.sol:CompoundMakerStrategyUNI",
        "label": "lowWater",
        "offset": 0,
        "slot": "4",
        "type": "t_uint256"
      }
    ],
    "types": {
      "t_address": {
        "encoding": "inplace",
        "label": "address",
        "numberOfBytes": "20"
      },
      "t_contract(IAddressList)3647": {
        "encoding": "inplace",
        "label": "contract IAddressList",
        "numberOfBytes": "20"
      },
      "t_contract(ISwapManager)3950": {
        "encoding": "inplace",
        "label": "contract ISwapManager",
        "numberOfBytes": "20"
      },
      "t_uint256": {
        "encoding": "inplace",
        "label": "uint256",
        "numberOfBytes": "32"
      }
    }
  }
}