{
  "address": "0x76C78059581891Eb96eEf286d223015936bC6972",
  "abi": [
    {
      "inputs": [
        {
          "internalType": "address",
          "name": "_pool",
          "type": "address"
        },
        {
          "internalType": "address",
          "name": "_swapManager",
          "type": "address"
        },
        {
          "internalType": "address",
          "name": "_receiptToken",
          "type": "address"
        },
        {
          "internalType": "string",
          "name": "_name",
          "type": "string"
        }
      ],
      "stateMutability": "nonpayable",
      "type": "constructor"
    },
    {
      "anonymous": false,
      "inputs": [
        {
          "indexed": true,
          "internalType": "address",
          "name": "previousFeeCollector",
          "type": "address"
        },
        {
          "indexed": true,
          "internalType": "address",
          "name": "newFeeCollector",
          "type": "address"
        }
      ],
      "name": "UpdatedFeeCollector",
      "type": "event"
    },
    {
      "anonymous": false,
      "inputs": [
        {
          "indexed": false,
          "internalType": "uint256",
          "name": "oldPeriod",
          "type": "uint256"
        },
        {
          "indexed": false,
          "internalType": "uint256",
          "name": "newPeriod",
          "type": "uint256"
        },
        {
          "indexed": false,
          "internalType": "uint256",
          "name": "oldRouterIdx",
          "type": "uint256"
        },
        {
          "indexed": false,
          "internalType": "uint256",
          "name": "newRouterIdx",
          "type": "uint256"
        }
      ],
      "name": "UpdatedOracleConfig",
      "type": "event"
    },
    {
      "anonymous": false,
      "inputs": [
        {
          "indexed": true,
          "internalType": "address",
          "name": "previousSwapManager",
          "type": "address"
        },
        {
          "indexed": true,
          "internalType": "address",
          "name": "newSwapManager",
          "type": "address"
        }
      ],
      "name": "UpdatedSwapManager",
      "type": "event"
    },
    {
      "anonymous": false,
      "inputs": [
        {
          "indexed": false,
          "internalType": "uint256",
          "name": "oldSwapSlippage",
          "type": "uint256"
        },
        {
          "indexed": false,
          "internalType": "uint256",
          "name": "newSwapSlippage",
          "type": "uint256"
        }
      ],
      "name": "UpdatedSwapSlippage",
      "type": "event"
    },
    {
      "inputs": [],
      "name": "NAME",
      "outputs": [
        {
          "internalType": "string",
          "name": "",
          "type": "string"
        }
      ],
      "stateMutability": "view",
      "type": "function"
    },
    {
      "inputs": [],
      "name": "VERSION",
      "outputs": [
        {
          "internalType": "string",
          "name": "",
          "type": "string"
        }
      ],
      "stateMutability": "view",
      "type": "function"
    },
    {
      "inputs": [
        {
          "internalType": "address",
          "name": "_keeperAddress",
          "type": "address"
        }
      ],
      "name": "addKeeper",
      "outputs": [],
      "stateMutability": "nonpayable",
      "type": "function"
    },
    {
      "inputs": [],
      "name": "approveToken",
      "outputs": [],
      "stateMutability": "nonpayable",
      "type": "function"
    },
    {
      "inputs": [
        {
          "internalType": "uint256",
          "name": "amount",
          "type": "uint256"
        },
        {
          "internalType": "bytes32[]",
          "name": "proof",
          "type": "bytes32[]"
        }
      ],
      "name": "claimUTokenReward",
      "outputs": [],
      "stateMutability": "nonpayable",
      "type": "function"
    },
    {
      "inputs": [],
      "name": "collateralToken",
      "outputs": [
        {
          "internalType": "contract IERC20",
          "name": "",
          "type": "address"
        }
      ],
      "stateMutability": "view",
      "type": "function"
    },
    {
      "inputs": [],
      "name": "feeCollector",
      "outputs": [
        {
          "internalType": "address",
          "name": "",
          "type": "address"
        }
      ],
      "stateMutability": "view",
      "type": "function"
    },
    {
      "inputs": [
        {
          "internalType": "address",
          "name": "_token",
          "type": "address"
        }
      ],
      "name": "isReservedToken",
      "outputs": [
        {
          "internalType": "bool",
          "name": "",
          "type": "bool"
        }
      ],
      "stateMutability": "view",
      "type": "function"
    },
    {
      "inputs": [],
      "name": "keepers",
      "outputs": [
        {
          "internalType": "address[]",
          "name": "",
          "type": "address[]"
        }
      ],
      "stateMutability": "view",
      "type": "function"
    },
    {
      "inputs": [
        {
          "internalType": "address",
          "name": "_newStrategy",
          "type": "address"
        }
      ],
      "name": "migrate",
      "outputs": [],
      "stateMutability": "nonpayable",
      "type": "function"
    },
    {
      "inputs": [],
      "name": "oraclePeriod",
      "outputs": [
        {
          "internalType": "uint256",
          "name": "",
          "type": "uint256"
        }
      ],
      "stateMutability": "view",
      "type": "function"
    },
    {
      "inputs": [],
      "name": "oracleRouterIdx",
      "outputs": [
        {
          "internalType": "uint256",
          "name": "",
          "type": "uint256"
        }
      ],
      "stateMutability": "view",
      "type": "function"
    },
    {
      "inputs": [],
      "name": "pool",
      "outputs": [
        {
          "internalType": "address",
          "name": "",
          "type": "address"
        }
      ],
      "stateMutability": "view",
      "type": "function"
    },
    {
      "inputs": [],
      "name": "rebalance",
      "outputs": [],
      "stateMutability": "nonpayable",
      "type": "function"
    },
    {
      "inputs": [],
      "name": "receiptToken",
      "outputs": [
        {
          "internalType": "address",
          "name": "",
          "type": "address"
        }
      ],
      "stateMutability": "view",
      "type": "function"
    },
    {
      "inputs": [
        {
          "internalType": "address",
          "name": "_keeperAddress",
          "type": "address"
        }
      ],
      "name": "removeKeeper",
      "outputs": [],
      "stateMutability": "nonpayable",
      "type": "function"
    },
    {
      "inputs": [],
      "name": "setupOracles",
      "outputs": [],
      "stateMutability": "nonpayable",
      "type": "function"
    },
    {
      "inputs": [],
      "name": "swapManager",
      "outputs": [
        {
          "internalType": "contract ISwapManager",
          "name": "",
          "type": "address"
        }
      ],
      "stateMutability": "view",
      "type": "function"
    },
    {
      "inputs": [],
      "name": "swapSlippage",
      "outputs": [
        {
          "internalType": "uint256",
          "name": "",
          "type": "uint256"
        }
      ],
      "stateMutability": "view",
      "type": "function"
    },
    {
      "inputs": [
        {
          "internalType": "address",
          "name": "_fromToken",
          "type": "address"
        }
      ],
      "name": "sweepERC20",
      "outputs": [],
      "stateMutability": "nonpayable",
      "type": "function"
    },
    {
      "inputs": [],
      "name": "token",
      "outputs": [
        {
          "internalType": "address",
          "name": "",
          "type": "address"
        }
      ],
      "stateMutability": "view",
      "type": "function"
    },
    {
      "inputs": [],
      "name": "totalValue",
      "outputs": [
        {
          "internalType": "uint256",
          "name": "_totalValue",
          "type": "uint256"
        }
      ],
      "stateMutability": "view",
      "type": "function"
    },
    {
      "inputs": [],
      "name": "totalValueCurrent",
      "outputs": [
        {
          "internalType": "uint256",
          "name": "",
          "type": "uint256"
        }
      ],
      "stateMutability": "nonpayable",
      "type": "function"
    },
    {
      "inputs": [
        {
          "internalType": "address",
          "name": "_feeCollector",
          "type": "address"
        }
      ],
      "name": "updateFeeCollector",
      "outputs": [],
      "stateMutability": "nonpayable",
      "type": "function"
    },
    {
      "inputs": [
        {
          "internalType": "uint256",
          "name": "_newPeriod",
          "type": "uint256"
        },
        {
          "internalType": "uint256",
          "name": "_newRouterIdx",
          "type": "uint256"
        }
      ],
      "name": "updateOracleConfig",
      "outputs": [],
      "stateMutability": "nonpayable",
      "type": "function"
    },
    {
      "inputs": [
        {
          "internalType": "address",
          "name": "_swapManager",
          "type": "address"
        }
      ],
      "name": "updateSwapManager",
      "outputs": [],
      "stateMutability": "nonpayable",
      "type": "function"
    },
    {
      "inputs": [
        {
          "internalType": "uint256",
          "name": "_newSwapSlippage",
          "type": "uint256"
        }
      ],
      "name": "updateSwapSlippage",
      "outputs": [],
      "stateMutability": "nonpayable",
      "type": "function"
    },
    {
      "inputs": [],
      "name": "updateTokenRate",
      "outputs": [
        {
          "internalType": "uint256",
          "name": "",
          "type": "uint256"
        }
      ],
      "stateMutability": "nonpayable",
      "type": "function"
    },
    {
      "inputs": [
        {
          "internalType": "uint256",
          "name": "_amount",
          "type": "uint256"
        }
      ],
      "name": "withdraw",
      "outputs": [],
      "stateMutability": "nonpayable",
      "type": "function"
    }
  ],
  "transactionHash": "0x240e22143a100737172ee85779f58ac9df76d06eea2c3ddd552b317aba3b40f0",
  "args": [
    "0x13AECC59A88A65F02E053eEce29d743a952D6f1e",
    "0xEbedFD259c9FB1F5c0ab9A9f24E79F8d80E29B23",
    "0xD3843b60e69f958eF93BeC299467e6Ed301CbEeB",
    "AlphaLendAvalancheStrategyUSDC"
  ],
  "solcInputHash": "6ba4830a698936f1415bafc9123c0704",
  "bytecode": "0x60e0604052600080546001600160a01b031990811673c02aaa39b223fe8d0a0e5c4f27ead9083c756cc2178255610e10600455600591909155612710600655600a805490911673a1faa113cbe53436df28ff0aee54275c13b409751790553480156200006a57600080fd5b5060405162004380380380620043808339810160408190526200008d91620005f4565b838383838383836001600160a01b038316620000f05760405162461bcd60e51b815260206004820152601460248201527f706f6f6c2d616464726573732d69732d7a65726f00000000000000000000000060448201526064015b60405180910390fd5b6001600160a01b0382166200013d5760405162461bcd60e51b8152602060048201526012602482015271736d2d616464726573732d69732d7a65726f60701b6044820152606401620000e7565b600380546001600160a01b0319166001600160a01b0384811691909117909155606084901b6001600160601b03191660a05260408051637e062a3560e11b815290519185169163fc0c546a91600480820192602092909190829003018186803b158015620001aa57600080fd5b505afa158015620001bf573d6000803e3d6000fd5b505050506040513d601f19601f82011682018060405250810190620001e591906200070c565b60601b6001600160601b031916608052600180546001600160a01b0319166001600160a01b038316179055620002326200021c3390565b60076200038660201b620018eb1790919060201c565b620002745760405162461bcd60e51b81526020600482015260116024820152701859190b5ad9595c195c8b59985a5b1959607a1b6044820152606401620000e7565b5050600b80546001600160a01b0319166001600160a01b0385169081179091556040805163313ce56760e01b8152905191925063313ce567916004808301926020929190829003018186803b158015620002cd57600080fd5b505afa158015620002e2573d6000803e3d6000fd5b505050506040513d601f19601f8201168201806040525081019062000308919062000732565b60ff1660c0526200031984620003a6565b80516200032e9060099060208401906200054e565b5050600080546001600160a01b031990811673b31f66aa3c1e785363f0875a1b74e27b85fd66c717909155600a8054909116732147efff675e4a4ee1c2f918d181cdbd7a8e208f17905550620007be95505050505050565b60006200039d836001600160a01b038416620004fc565b90505b92915050565b600b60009054906101000a90046001600160a01b03166001600160a01b031663633156376040518163ffffffff1660e01b815260040160206040518083038186803b158015620003f557600080fd5b505afa1580156200040a573d6000803e3d6000fd5b505050506040513d601f19601f820116820180604052508101906200043091906200070c565b6001600160a01b0316816001600160a01b031663fc0c546a6040518163ffffffff1660e01b815260040160206040518083038186803b1580156200047357600080fd5b505afa15801562000488573d6000803e3d6000fd5b505050506040513d601f19601f82011682018060405250810190620004ae91906200070c565b6001600160a01b031614620004f95760405162461bcd60e51b815260206004820152601060248201526f0ea5ae8ded6cadc5adad2e6dac2e8c6d60831b6044820152606401620000e7565b50565b60008181526001830160205260408120546200054557508154600181810184556000848152602080822090930184905584548482528286019093526040902091909155620003a0565b506000620003a0565b8280546200055c9062000755565b90600052602060002090601f016020900481019282620005805760008555620005cb565b82601f106200059b57805160ff1916838001178555620005cb565b82800160010185558215620005cb579182015b82811115620005cb578251825591602001919060010190620005ae565b50620005d9929150620005dd565b5090565b5b80821115620005d95760008155600101620005de565b600080600080608085870312156200060a578384fd5b84516200061781620007a8565b809450506020808601516200062c81620007a8565b60408701519094506200063f81620007a8565b60608701519093506001600160401b03808211156200065c578384fd5b818801915088601f83011262000670578384fd5b81518181111562000685576200068562000792565b604051601f8201601f19908116603f01168101908382118183101715620006b057620006b062000792565b816040528281528b86848701011115620006c8578687fd5b8693505b82841015620006eb5784840186015181850187015292850192620006cc565b82841115620006fc57868684830101525b989b979a50959850505050505050565b6000602082840312156200071e578081fd5b81516200072b81620007a8565b9392505050565b60006020828403121562000744578081fd5b815160ff811681146200072b578182fd5b600181811c908216806200076a57607f821691505b602082108114156200078c57634e487b7160e01b600052602260045260246000fd5b50919050565b634e487b7160e01b600052604160045260246000fd5b6001600160a01b0381168114620004f957600080fd5b60805160601c60a05160601c60c051613abd620008c360003960005050600081816101ae015281816103ce015281816105de0152818161062e0152818161076e015281816109ae01528181610adc01528181610c8c01528181610dcd01528181611030015281816110cd015281816113210152818161192d015281816119c201528181611a620152611c710152600081816102fd015281816109dd01528181611254015281816112f8015281816115a3015281816117340152818161194e01528181611b4001528181611c4f01528181611ca701528181611e9d01528181611f030152818161238101528181612550015281816125ef015261267f0152613abd6000f3fe608060405234801561001057600080fd5b506004361061018f5760003560e01c806399b71d5c116100e4578063ce5494bb11610092578063ce5494bb1461033b578063d2c35ce81461034e578063d4c3eea014610361578063e00af4a714610369578063e645c2021461037c578063ec78e83214610384578063fc0c546a14610397578063ffa1ad74146103a85761018f565b806399b71d5c146102c0578063a3f4df7e146102c8578063a923b2a6146102dd578063aa101886146102f0578063b2016bd4146102f8578063c415b95c1461031f578063cd2d7ebe146103325761018f565b8063440d724811610141578063440d7248146102345780634c36fad714610257578063653b449e1461026a57806367f5e4b81461027d578063709d039d146102905780637d7c2a1c146102a3578063951dc22c146102ab5761018f565b806314ae9f2e1461019457806316f0115b146101a95780631aedeabe146101e6578063234fe5ab146101fd5780632e1a7d4d146102055780634032b72b1461021857806342189c8f1461022b575b600080fd5b6101a76101a23660046133f0565b6103cc565b005b6101d07f000000000000000000000000000000000000000000000000000000000000000081565b6040516101dd919061373d565b60405180910390f35b6101ef60065481565b6040519081526020016101dd565b6101ef6104e7565b6101a7610213366004613589565b6105db565b6101a76102263660046133f0565b61062c565b6101ef60045481565b6102476102423660046133f0565b610738565b60405190151581526020016101dd565b6101a76102653660046133f0565b61076c565b6101a76102783660046135b9565b61091f565b6101a761028b366004613589565b610ada565b6003546101d0906001600160a01b031681565b6101a7610c26565b6102b3610cf5565b6040516101dd919061379e565b6101a7610d01565b6102d0610d3d565b6040516101dd91906137b1565b6101a76102eb366004613658565b610dcb565b6101a7611000565b6101d07f000000000000000000000000000000000000000000000000000000000000000081565b6002546101d0906001600160a01b031681565b6101ef60055481565b6101a76103493660046133f0565b61102d565b6101a761035c3660046133f0565b61131f565b6101ef6114e8565b6101a76103773660046133f0565b6116bd565b6101ef6118e1565b6001546101d0906001600160a01b031681565b6001546001600160a01b03166101d0565b6102d0604051806040016040528060058152602001640342e302e360dc1b81525081565b7f00000000000000000000000000000000000000000000000000000000000000006001600160a01b0316630c340a246040518163ffffffff1660e01b815260040160206040518083038186803b15801561042557600080fd5b505afa158015610439573d6000803e3d6000fd5b505050506040513d601f19601f8201168201806040525081019061045d919061340c565b6001600160a01b0316336001600160a01b0316146104965760405162461bcd60e51b815260040161048d90613814565b60405180910390fd5b6104a1600782611909565b6104e45760405162461bcd60e51b81526020600482015260146024820152731c995b5bdd994b5ad9595c195c8b59985a5b195960621b604482015260640161048d565b50565b600b54604080516334f293ed60e11b815290516000926001600160a01b0316916369e527da916004808301926020929190829003018186803b15801561052c57600080fd5b505afa158015610540573d6000803e3d6000fd5b505050506040513d601f19601f82011682018060405250810190610564919061340c565b6001600160a01b031663bd6d894d6040518163ffffffff1660e01b8152600401602060405180830381600087803b15801561059e57600080fd5b505af11580156105b2573d6000803e3d6000fd5b505050506040513d601f19601f820116820180604052508101906105d691906135a1565b905090565b337f00000000000000000000000000000000000000000000000000000000000000006001600160a01b0316146106235760405162461bcd60e51b815260040161048d9061384b565b6104e48161191e565b7f00000000000000000000000000000000000000000000000000000000000000006001600160a01b0316630c340a246040518163ffffffff1660e01b815260040160206040518083038186803b15801561068557600080fd5b505afa158015610699573d6000803e3d6000fd5b505050506040513d601f19601f820116820180604052508101906106bd919061340c565b6001600160a01b0316336001600160a01b0316146106ed5760405162461bcd60e51b815260040161048d90613814565b6106f86007826118eb565b6104e45760405162461bcd60e51b81526020600482015260116024820152701859190b5ad9595c195c8b59985a5b1959607a1b604482015260640161048d565b6001546000906001600160a01b03838116911614806107645750600a546001600160a01b038381169116145b90505b919050565b7f00000000000000000000000000000000000000000000000000000000000000006001600160a01b0316630c340a246040518163ffffffff1660e01b815260040160206040518083038186803b1580156107c557600080fd5b505afa1580156107d9573d6000803e3d6000fd5b505050506040513d601f19601f820116820180604052508101906107fd919061340c565b6001600160a01b0316336001600160a01b03161461082d5760405162461bcd60e51b815260040161048d90613814565b6001600160a01b0381166108785760405162461bcd60e51b8152602060048201526012602482015271736d2d616464726573732d69732d7a65726f60701b604482015260640161048d565b6003546001600160a01b03828116911614156108c35760405162461bcd60e51b815260206004820152600a602482015269736d2d69732d73616d6560b01b604482015260640161048d565b6003546040516001600160a01b038084169216907f2d19927e7cac08ceb98b38898a4fdff6da6a27295b9a2d62fe250408ebe044e190600090a3600380546001600160a01b0319166001600160a01b0392909216919091179055565b61092c335b600790611998565b6109485760405162461bcd60e51b815260040161048d906137e4565b600b54604051632f52ebb760e01b81526001600160a01b0390911690632f52ebb79061097a908590859060040161387e565b600060405180830381600087803b15801561099457600080fd5b505af11580156109a8573d6000803e3d6000fd5b505050507f00000000000000000000000000000000000000000000000000000000000000006001600160a01b03166305bed0467f00000000000000000000000000000000000000000000000000000000000000006001600160a01b03166370a08231306040518263ffffffff1660e01b8152600401610a27919061373d565b60206040518083038186803b158015610a3f57600080fd5b505afa158015610a53573d6000803e3d6000fd5b505050506040513d601f19601f82011682018060405250810190610a7791906135a1565b6040516001600160e01b031960e084901b16815260048101919091526000602482018190526044820152606401600060405180830381600087803b158015610abe57600080fd5b505af1158015610ad2573d6000803e3d6000fd5b505050505050565b7f00000000000000000000000000000000000000000000000000000000000000006001600160a01b0316630c340a246040518163ffffffff1660e01b815260040160206040518083038186803b158015610b3357600080fd5b505afa158015610b47573d6000803e3d6000fd5b505050506040513d601f19601f82011682018060405250810190610b6b919061340c565b6001600160a01b0316336001600160a01b031614610b9b5760405162461bcd60e51b815260040161048d90613814565b612710811115610be65760405162461bcd60e51b8152602060048201526016602482015275696e76616c69642d736c6970706167652d76616c756560501b604482015260640161048d565b60065460408051918252602082018390527ef1c5db862c7598b3b6765552ca951f498611e06412c2d57f8d0b58f82e7f82910160405180910390a1600655565b610c2f33610924565b610c4b5760405162461bcd60e51b815260040161048d906137e4565b6000806000610c586119ba565b6040516302df682360e11b815260048101849052602481018390526044810182905292955090935091506001600160a01b037f000000000000000000000000000000000000000000000000000000000000000016906305bed04690606401600060405180830381600087803b158015610cd057600080fd5b505af1158015610ce4573d6000803e3d6000fd5b50505050610cf0611b26565b505050565b60606105d66007611c2e565b610d0a33610924565b610d265760405162461bcd60e51b815260040161048d906137e4565b610d306000611c42565b610d3b600019611c42565b565b60098054610d4a906139f6565b80601f0160208091040260200160405190810160405280929190818152602001828054610d76906139f6565b8015610dc35780601f10610d9857610100808354040283529160200191610dc3565b820191906000526020600020905b815481529060010190602001808311610da657829003601f168201915b505050505081565b7f00000000000000000000000000000000000000000000000000000000000000006001600160a01b0316630c340a246040518163ffffffff1660e01b815260040160206040518083038186803b158015610e2457600080fd5b505afa158015610e38573d6000803e3d6000fd5b505050506040513d601f19601f82011682018060405250810190610e5c919061340c565b6001600160a01b0316336001600160a01b031614610e8c5760405162461bcd60e51b815260040161048d90613814565b600360009054906101000a90046001600160a01b03166001600160a01b031663c2fba6676040518163ffffffff1660e01b815260040160206040518083038186803b158015610eda57600080fd5b505afa158015610eee573d6000803e3d6000fd5b505050506040513d601f19601f82011682018060405250810190610f1291906135a1565b8110610f575760405162461bcd60e51b81526020600482015260146024820152730d2dcecc2d8d2c85ae4deeae8cae45ad2dcc8caf60631b604482015260640161048d565b81610f625760045491505b603b8211610faa5760405162461bcd60e51b81526020600482015260156024820152741a5b9d985b1a590b5bdc9858db194b5c195c9a5bd9605a1b604482015260640161048d565b6004546005546040805192835260208301859052820152606081018290527f83bc5ab8030537fcf1d29c2334f6d22c26c82dcbe5ff03923d2cff5c692c0a7f9060800160405180910390a1600491909155600555565b61100933610924565b6110255760405162461bcd60e51b815260040161048d906137e4565b610d3b611e03565b337f00000000000000000000000000000000000000000000000000000000000000006001600160a01b0316146110755760405162461bcd60e51b815260040161048d9061384b565b6001600160a01b0381166110cb5760405162461bcd60e51b815260206004820152601c60248201527f6e65772d73747261746567792d616464726573732d69732d7a65726f00000000604482015260640161048d565b7f00000000000000000000000000000000000000000000000000000000000000006001600160a01b0316816001600160a01b03166316f0115b6040518163ffffffff1660e01b815260040160206040518083038186803b15801561112e57600080fd5b505afa158015611142573d6000803e3d6000fd5b505050506040513d601f19601f82011682018060405250810190611166919061340c565b6001600160a01b0316146111b55760405162461bcd60e51b81526020600482015260166024820152756e6f742d76616c69642d6e65772d737472617465677960501b604482015260640161048d565b6001546040516370a0823160e01b815261124e9183916001600160a01b03909116906370a08231906111eb90309060040161373d565b60206040518083038186803b15801561120357600080fd5b505afa158015611217573d6000803e3d6000fd5b505050506040513d601f19601f8201168201806040525081019061123b91906135a1565b6001546001600160a01b03169190611f7f565b6104e4817f00000000000000000000000000000000000000000000000000000000000000006001600160a01b03166370a08231306040518263ffffffff1660e01b815260040161129e919061373d565b60206040518083038186803b1580156112b657600080fd5b505afa1580156112ca573d6000803e3d6000fd5b505050506040513d601f19601f820116820180604052508101906112ee91906135a1565b6001600160a01b037f0000000000000000000000000000000000000000000000000000000000000000169190611f7f565b7f00000000000000000000000000000000000000000000000000000000000000006001600160a01b0316630c340a246040518163ffffffff1660e01b815260040160206040518083038186803b15801561137857600080fd5b505afa15801561138c573d6000803e3d6000fd5b505050506040513d601f19601f820116820180604052508101906113b0919061340c565b6001600160a01b0316336001600160a01b0316146113e05760405162461bcd60e51b815260040161048d90613814565b6001600160a01b0381166114365760405162461bcd60e51b815260206004820152601d60248201527f6665652d636f6c6c6563746f722d616464726573732d69732d7a65726f000000604482015260640161048d565b6002546001600160a01b038281169116141561148c5760405162461bcd60e51b81526020600482015260156024820152746665652d636f6c6c6563746f722d69732d73616d6560581b604482015260640161048d565b6002546040516001600160a01b038084169216907f0f06062680f9bd68e786e9980d9bb03d73d5620fc3b345e417b6eacb310b970690600090a3600280546001600160a01b0319166001600160a01b0392909216919091179055565b600a546040516370a0823160e01b815260009182916001600160a01b03909116906370a082319061151d90309060040161373d565b60206040518083038186803b15801561153557600080fd5b505afa158015611549573d6000803e3d6000fd5b505050506040513d601f19601f8201168201806040525081019061156d91906135a1565b9050801561162657600354600a54604051631d1f307960e31b81526001600160a01b039283169263e8f983c8926115cd929116907f0000000000000000000000000000000000000000000000000000000000000000908690600401613751565b60006040518083038186803b1580156115e557600080fd5b505afa1580156115f9573d6000803e3d6000fd5b505050506040513d6000823e601f3d908101601f191682016040526116219190810190613428565b509250505b600b546040516370a0823160e01b81526116ad916001600160a01b0316906370a082319061165890309060040161373d565b60206040518083038186803b15801561167057600080fd5b505afa158015611684573d6000803e3d6000fd5b505050506040513d601f19601f820116820180604052508101906116a891906135a1565b611fe2565b6116b7908361395c565b91505090565b6116c633610924565b6116e25760405162461bcd60e51b815260040161048d906137e4565b6002546001600160a01b03166117325760405162461bcd60e51b81526020600482015260156024820152741999594b58dbdb1b1958dd1bdc8b5b9bdd0b5cd95d605a1b604482015260640161048d565b7f00000000000000000000000000000000000000000000000000000000000000006001600160a01b0316816001600160a01b031614156117b45760405162461bcd60e51b815260206004820152601f60248201527f6e6f742d616c6c6f7765642d746f2d73776565702d636f6c6c61746572616c00604482015260640161048d565b6117bd81610738565b156118015760405162461bcd60e51b815260206004820152601460248201527306e6f742d616c6c6f7765642d746f2d73776565760641b604482015260640161048d565b6001600160a01b03811673eeeeeeeeeeeeeeeeeeeeeeeeeeeeeeeeeeeeeeee14156118415760025461183c906001600160a01b0316476120f7565b6104e4565b6040516370a0823160e01b81526000906001600160a01b038316906370a082319061187090309060040161373d565b60206040518083038186803b15801561188857600080fd5b505afa15801561189c573d6000803e3d6000fd5b505050506040513d601f19601f820116820180604052508101906118c091906135a1565b6002549091506118dd906001600160a01b03848116911683611f7f565b5050565b60006105d66114e8565b6000611900836001600160a01b038416612210565b90505b92915050565b6000611900836001600160a01b03841661225f565b6119278161237c565b506104e47f00000000000000000000000000000000000000000000000000000000000000007f00000000000000000000000000000000000000000000000000000000000000006001600160a01b03166370a08231306040518263ffffffff1660e01b815260040161129e919061373d565b6001600160a01b03811660009081526001830160205260408120541515611900565b6000806000807f00000000000000000000000000000000000000000000000000000000000000006001600160a01b031663d53ddc26306040518263ffffffff1660e01b8152600401611a0c919061373d565b60206040518083038186803b158015611a2457600080fd5b505afa158015611a38573d6000803e3d6000fd5b505050506040513d601f19601f82011682018060405250810190611a5c91906135a1565b905060007f00000000000000000000000000000000000000000000000000000000000000006001600160a01b0316639f2b2833306040518263ffffffff1660e01b8152600401611aac919061373d565b60206040518083038186803b158015611ac457600080fd5b505afa158015611ad8573d6000803e3d6000fd5b505050506040513d601f19601f82011682018060405250810190611afc91906135a1565b9050611b07816125e8565b9450611b1281612704565b9350611b1d82612755565b92505050909192565b6040516370a0823160e01b81526000906001600160a01b037f000000000000000000000000000000000000000000000000000000000000000016906370a0823190611b7590309060040161373d565b60206040518083038186803b158015611b8d57600080fd5b505afa158015611ba1573d6000803e3d6000fd5b505050506040513d601f19601f82011682018060405250810190611bc591906135a1565b905080156104e457600b5460405163b6b55f2560e01b8152600481018390526001600160a01b039091169063b6b55f2590602401600060405180830381600087803b158015611c1357600080fd5b505af1158015611c27573d6000803e3d6000fd5b5050505050565b60606000611c3b83612766565b9392505050565b611c966001600160a01b037f0000000000000000000000000000000000000000000000000000000000000000167f0000000000000000000000000000000000000000000000000000000000000000836127c2565b600b54611cd0906001600160a01b037f000000000000000000000000000000000000000000000000000000000000000081169116836127c2565b60005b600360009054906101000a90046001600160a01b03166001600160a01b031663c2fba6676040518163ffffffff1660e01b815260040160206040518083038186803b158015611d2157600080fd5b505afa158015611d35573d6000803e3d6000fd5b505050506040513d601f19601f82011682018060405250810190611d5991906135a1565b8110156118dd57600354604051636e74a6f760e01b815260048101839052611df1916001600160a01b031690636e74a6f79060240160206040518083038186803b158015611da657600080fd5b505afa158015611dba573d6000803e3d6000fd5b505050506040513d601f19601f82011682018060405250810190611dde919061340c565b600a546001600160a01b031690846127c2565b80611dfb81613a2b565b915050611cd3565b600354600a5460005460048054600554604051630f30f2d360e21b81526001600160a01b0396871696633cc3cb4c96611e459690821695911693929101613775565b602060405180830381600087803b158015611e5f57600080fd5b505af1158015611e73573d6000803e3d6000fd5b505050506040513d601f19601f82011682018060405250810190611e97919061340c565b506000547f00000000000000000000000000000000000000000000000000000000000000006001600160a01b03908116911614610d3b5760035460005460048054600554604051630f30f2d360e21b81526001600160a01b0395861695633cc3cb4c95611f2d959116937f0000000000000000000000000000000000000000000000000000000000000000939092909101613775565b602060405180830381600087803b158015611f4757600080fd5b505af1158015611f5b573d6000803e3d6000fd5b505050506040513d601f19601f820116820180604052508101906104e4919061340c565b6040516001600160a01b038316602482015260448101829052610cf090849063a9059cbb60e01b906064015b60408051601f198184030181529190526020810180516001600160e01b03166001600160e01b0319909316929092179091526128e6565b6000670de0b6b3a7640000600b60009054906101000a90046001600160a01b03166001600160a01b03166369e527da6040518163ffffffff1660e01b815260040160206040518083038186803b15801561203b57600080fd5b505afa15801561204f573d6000803e3d6000fd5b505050506040513d601f19601f82011682018060405250810190612073919061340c565b6001600160a01b031663182df0f56040518163ffffffff1660e01b815260040160206040518083038186803b1580156120ab57600080fd5b505afa1580156120bf573d6000803e3d6000fd5b505050506040513d601f19601f820116820180604052508101906120e391906135a1565b6120ed9084613994565b6107649190613974565b804710156121475760405162461bcd60e51b815260206004820152601d60248201527f416464726573733a20696e73756666696369656e742062616c616e6365000000604482015260640161048d565b6000826001600160a01b03168260405160006040518083038185875af1925050503d8060008114612194576040519150601f19603f3d011682016040523d82523d6000602084013e612199565b606091505b5050905080610cf05760405162461bcd60e51b815260206004820152603a60248201527f416464726573733a20756e61626c6520746f2073656e642076616c75652c207260448201527f6563697069656e74206d61792068617665207265766572746564000000000000606482015260840161048d565b600081815260018301602052604081205461225757508154600181810184556000848152602080822090930184905584548482528286019093526040902091909155611903565b506000611903565b600081815260018301602052604081205480156123725760006122836001836139b3565b8554909150600090612297906001906139b3565b90508181146123185760008660000182815481106122c557634e487b7160e01b600052603260045260246000fd5b90600052602060002001549050808760000184815481106122f657634e487b7160e01b600052603260045260246000fd5b6000918252602080832090910192909255918252600188019052604090208390555b855486908061233757634e487b7160e01b600052603160045260246000fd5b600190038181906000526020600020016000905590558560010160008681526020019081526020016000206000905560019350505050611903565b6000915050611903565b6000807f00000000000000000000000000000000000000000000000000000000000000006001600160a01b03166370a08231306040518263ffffffff1660e01b81526004016123cb919061373d565b60206040518083038186803b1580156123e357600080fd5b505afa1580156123f7573d6000803e3d6000fd5b505050506040513d601f19601f8201168201806040525081019061241b91906135a1565b600b546040516370a0823160e01b81529192506000916001600160a01b03909116906370a082319061245190309060040161373d565b60206040518083038186803b15801561246957600080fd5b505afa15801561247d573d6000803e3d6000fd5b505050506040513d601f19601f820116820180604052508101906124a191906135a1565b905060006124ae856129b8565b90506124b981611fe2565b8511156124ce576124cb60018261395c565b90505b818111156124d95750805b600b54604051632e1a7d4d60e01b8152600481018390526001600160a01b0390911690632e1a7d4d90602401600060405180830381600087803b15801561251f57600080fd5b505af1158015612533573d6000803e3d6000fd5b505050506040516370a0823160e01b815283906001600160a01b037f000000000000000000000000000000000000000000000000000000000000000016906370a082319061258590309060040161373d565b60206040518083038186803b15801561259d57600080fd5b505afa1580156125b1573d6000803e3d6000fd5b505050506040513d601f19601f820116820180604052508101906125d591906135a1565b6125df91906139b3565b95945050505050565b60006126137f0000000000000000000000000000000000000000000000000000000000000000612ab7565b600b546040516370a0823160e01b815260009161264a916001600160a01b03909116906370a082319061165890309060040161373d565b9050828111156126685761266661266184836139b3565b61237c565b505b6040516370a0823160e01b81526001600160a01b037f000000000000000000000000000000000000000000000000000000000000000016906370a08231906126b490309060040161373d565b60206040518083038186803b1580156126cc57600080fd5b505afa1580156126e0573d6000803e3d6000fd5b505050506040513d601f19601f82011682018060405250810190611c3b91906135a1565b600b546040516370a0823160e01b8152600091829161273b916001600160a01b0316906370a082319061165890309060040161373d565b90508281101561274f57611c3b81846139b3565b50919050565b60008115610767576107648261237c565b6060816000018054806020026020016040519081016040528092919081815260200182805480156127b657602002820191906000526020600020905b8154815260200190600101908083116127a2575b50505050509050919050565b80158061284b5750604051636eb1769f60e11b81523060048201526001600160a01b03838116602483015284169063dd62ed3e9060440160206040518083038186803b15801561281157600080fd5b505afa158015612825573d6000803e3d6000fd5b505050506040513d601f19601f8201168201806040525081019061284991906135a1565b155b6128b65760405162461bcd60e51b815260206004820152603660248201527f5361666545524332303a20617070726f76652066726f6d206e6f6e2d7a65726f60448201527520746f206e6f6e2d7a65726f20616c6c6f77616e636560501b606482015260840161048d565b6040516001600160a01b038316602482015260448101829052610cf090849063095ea7b360e01b90606401611fab565b600061293b826040518060400160405280602081526020017f5361666545524332303a206c6f772d6c6576656c2063616c6c206661696c6564815250856001600160a01b0316612b9c9092919063ffffffff16565b805190915015610cf05780806020019051810190612959919061356f565b610cf05760405162461bcd60e51b815260206004820152602a60248201527f5361666545524332303a204552433230206f7065726174696f6e20646964206e6044820152691bdd081cdd58d8d9595960b21b606482015260840161048d565b600b54604080516334f293ed60e11b815290516000926001600160a01b0316916369e527da916004808301926020929190829003018186803b1580156129fd57600080fd5b505afa158015612a11573d6000803e3d6000fd5b505050506040513d601f19601f82011682018060405250810190612a35919061340c565b6001600160a01b031663182df0f56040518163ffffffff1660e01b815260040160206040518083038186803b158015612a6d57600080fd5b505afa158015612a81573d6000803e3d6000fd5b505050506040513d601f19601f82011682018060405250810190612aa591906135a1565b6120ed83670de0b6b3a7640000613994565b600a546040516370a0823160e01b81526000916001600160a01b0316906370a0823190612ae890309060040161373d565b60206040518083038186803b158015612b0057600080fd5b505afa158015612b14573d6000803e3d6000fd5b505050506040513d601f19601f82011682018060405250810190612b3891906135a1565b905080156118dd5760006006546127101415612b55576001612b81565b600a54612b8190612b7990612b73906001600160a01b031686612bb3565b84612d77565b600654612ea2565b600a54909150610cf0906001600160a01b0316848484612ec5565b6060612bab848460008561309c565b949350505050565b6000546060906001600160a01b0384811691161480612bdf57506000546001600160a01b038381169116145b15612c8d5760408051600280825260608201835290916020830190803683370190505090508281600081518110612c2657634e487b7160e01b600052603260045260246000fd5b60200260200101906001600160a01b031690816001600160a01b0316815250508181600181518110612c6857634e487b7160e01b600052603260045260246000fd5b60200260200101906001600160a01b031690816001600160a01b031681525050611903565b6040805160038082526080820190925290602082016060803683370190505090508281600081518110612cd057634e487b7160e01b600052603260045260246000fd5b6001600160a01b039283166020918202929092010152600054825191169082906001908110612d0f57634e487b7160e01b600052603260045260246000fd5b60200260200101906001600160a01b031690816001600160a01b0316815250508181600281518110612d5157634e487b7160e01b600052603260045260246000fd5b60200260200101906001600160a01b031690816001600160a01b03168152505092915050565b60006001835111612dc05760405162461bcd60e51b81526020600482015260136024820152720d2dcecc2d8d2c85adee4c2c6d8ca5ae0c2e8d606b1b604482015260640161048d565b50806000805b60018551612dd491906139b3565b811015612e9a57612e40858281518110612dfe57634e487b7160e01b600052603260045260246000fd5b602002602001015186836001612e14919061395c565b81518110612e3257634e487b7160e01b600052603260045260246000fd5b6020026020010151856131c4565b909350915081612e885760405162461bcd60e51b8152602060048201526013602482015272696e76616c69642d6f7261636c652d7261746560681b604482015260640161048d565b80612e9281613a2b565b915050612dc6565b505092915050565b6000612710612eb183826139b3565b612ebb9085613994565b6119009190613974565b826001600160a01b0316846001600160a01b03161415612ee457613096565b600354604051631d1f307960e31b8152600091829182916001600160a01b03169063e8f983c890612f1d908a908a908a90600401613751565b60006040518083038186803b158015612f3557600080fd5b505afa158015612f49573d6000803e3d6000fd5b505050506040513d6000823e601f3d908101601f19168201604052612f719190810190613428565b9250925092508360001415612f8557600193505b811561309257600354604051636e74a6f760e01b8152600481018390526001600160a01b0390911690636e74a6f79060240160206040518083038186803b158015612fcf57600080fd5b505afa158015612fe3573d6000803e3d6000fd5b505050506040513d601f19601f82011682018060405250810190613007919061340c565b6001600160a01b03166338ed173986868630426040518663ffffffff1660e01b815260040161303a9594939291906138cb565b600060405180830381600087803b15801561305457600080fd5b505af1158015613068573d6000803e3d6000fd5b505050506040513d6000823e601f3d908101601f1916820160405261309091908101906134dc565b505b5050505b50505050565b6060824710156130fd5760405162461bcd60e51b815260206004820152602660248201527f416464726573733a20696e73756666696369656e742062616c616e636520666f6044820152651c8818d85b1b60d21b606482015260840161048d565b843b61314b5760405162461bcd60e51b815260206004820152601d60248201527f416464726573733a2063616c6c20746f206e6f6e2d636f6e7472616374000000604482015260640161048d565b600080866001600160a01b031685876040516131679190613721565b60006040518083038185875af1925050503d80600081146131a4576040519150601f19603f3d011682016040523d82523d6000602084013e6131a9565b606091505b50915091506131b98282866133a7565b979650505050505050565b60008060005b600360009054906101000a90046001600160a01b03166001600160a01b031663c2fba6676040518163ffffffff1660e01b815260040160206040518083038186803b15801561321857600080fd5b505afa15801561322c573d6000803e3d6000fd5b505050506040513d601f19601f8201168201806040525081019061325091906135a1565b81101561339657600354600454604080516001600160a01b038a811660208301528981168284015260608201899052608082019390935260a08082018690528251808303909101815260c08201909252600093849316916132bd9163b67bb24d60e01b919060e0016136f0565b60408051601f19818403018152908290526132d791613721565b6000604051808303816000865af19150503d8060008114613314576040519150601f19603f3d011682016040523d82523d6000602084013e613319565b606091505b50915091508115613381576000808280602001905181019061333b9190613679565b50915091506004544261334e91906139b3565b8111801561335b57508115155b15613370575094506001935061339f92505050565b60008096509650505050505061339f565b5050808061338e90613a2b565b9150506131ca565b50600080915091505b935093915050565b606083156133b6575081611c3b565b8251156133c65782518084602001fd5b8160405162461bcd60e51b815260040161048d91906137b1565b8051801515811461076757600080fd5b600060208284031215613401578081fd5b8135611c3b81613a72565b60006020828403121561341d578081fd5b8151611c3b81613a72565b60008060006060848603121561343c578182fd5b835167ffffffffffffffff811115613452578283fd5b8401601f81018613613462578283fd5b8051602061347761347283613938565b613907565b8083825282820191508285018a848660051b8801011115613496578788fd5b8795505b848610156134c15780516134ad81613a72565b83526001959095019491830191830161349a565b50918801516040909801519199979850909695505050505050565b600060208083850312156134ee578182fd5b825167ffffffffffffffff811115613504578283fd5b8301601f81018513613514578283fd5b805161352261347282613938565b80828252848201915084840188868560051b8701011115613541578687fd5b8694505b83851015613563578051835260019490940193918501918501613545565b50979650505050505050565b600060208284031215613580578081fd5b611900826133e0565b60006020828403121561359a578081fd5b5035919050565b6000602082840312156135b2578081fd5b5051919050565b600080604083850312156135cb578182fd5b8235915060208084013567ffffffffffffffff8111156135e9578283fd5b8401601f810186136135f9578283fd5b803561360761347282613938565b80828252848201915084840189868560051b8701011115613626578687fd5b8694505b8385101561364857803583526001949094019391850191850161362a565b5080955050505050509250929050565b6000806040838503121561366a578182fd5b50508035926020909101359150565b60008060006060848603121561368d578081fd5b83519250602084015191506136a4604085016133e0565b90509250925092565b6000815180845260208085019450808401835b838110156136e55781516001600160a01b0316875295820195908201906001016136c0565b509495945050505050565b6001600160e01b03198316815281516000906137138160048501602087016139ca565b919091016004019392505050565b600082516137338184602087016139ca565b9190910192915050565b6001600160a01b0391909116815260200190565b6001600160a01b039384168152919092166020820152604081019190915260600190565b6001600160a01b0394851681529290931660208301526040820152606081019190915260800190565b60006020825261190060208301846136ad565b60006020825282518060208401526137d08160408501602087016139ca565b601f01601f19169190910160400192915050565b60208082526016908201527531b0b63632b916b4b996b737ba16b096b5b2b2b832b960511b604082015260600190565b6020808252601a908201527f63616c6c65722d69732d6e6f742d7468652d676f7665726e6f72000000000000604082015260600190565b60208082526019908201527818d85b1b195c8b5a5ccb5b9bdd0b5d995cdc195c8b5c1bdbdb603a1b604082015260600190565b60006040820184835260206040818501528185518084526060860191508287019350845b818110156138be578451835293830193918301916001016138a2565b5090979650505050505050565b600086825285602083015260a060408301526138ea60a08301866136ad565b6001600160a01b0394909416606083015250608001529392505050565b604051601f8201601f1916810167ffffffffffffffff8111828210171561393057613930613a5c565b604052919050565b600067ffffffffffffffff82111561395257613952613a5c565b5060051b60200190565b6000821982111561396f5761396f613a46565b500190565b60008261398f57634e487b7160e01b81526012600452602481fd5b500490565b60008160001904831182151516156139ae576139ae613a46565b500290565b6000828210156139c5576139c5613a46565b500390565b60005b838110156139e55781810151838201526020016139cd565b838111156130965750506000910152565b600181811c90821680613a0a57607f821691505b6020821081141561274f57634e487b7160e01b600052602260045260246000fd5b6000600019821415613a3f57613a3f613a46565b5060010190565b634e487b7160e01b600052601160045260246000fd5b634e487b7160e01b600052604160045260246000fd5b6001600160a01b03811681146104e457600080fdfea26469706673582212205730a56953dce21544c804f22d6d16aa623741ad565bd28fc8491129b4d9f88564736f6c63430008030033",
  "devdoc": {
    "kind": "dev",
    "methods": {
      "addKeeper(address)": {
        "params": {
          "_keeperAddress": "keeper address to add."
        }
      },
      "approveToken()": {
        "details": "Approve all required tokens"
      },
      "migrate(address)": {
        "details": "_beforeMigration hook can be implemented in child strategy to do extra steps.",
        "params": {
          "_newStrategy": "Address of new strategy"
        }
      },
      "rebalance()": {
        "details": "Rebalance profit, loss and investment of this strategy"
      },
      "removeKeeper(address)": {
        "params": {
          "_keeperAddress": "keeper address to remove."
        }
      },
      "sweepERC20(address)": {
        "details": "sweep given token to feeCollector of strategy",
        "params": {
          "_fromToken": "token address to sweep"
        }
      },
      "totalValue()": {
        "details": "Report total value in collateral token"
      },
      "totalValueCurrent()": {
        "details": "Report total value in collateral token"
      },
      "updateFeeCollector(address)": {
        "params": {
          "_feeCollector": "fee collector address"
        }
      },
      "updateSwapManager(address)": {
        "params": {
          "_swapManager": "swap manager address"
        }
      },
      "withdraw(uint256)": {
        "details": "Withdraw collateral token from lending pool.",
        "params": {
          "_amount": "Amount of collateral token"
        }
      }
    },
    "title": "This strategy will deposit collateral token in Alpha SafeBox (ibXYZv2) and earn interest.",
    "version": 1
  },
  "userdoc": {
    "kind": "user",
    "methods": {
      "addKeeper(address)": {
        "notice": "Add given address in keepers list."
      },
      "isReservedToken(address)": {
        "notice": "Check whether given token is reserved or not. Reserved tokens are not allowed to sweep."
      },
      "keepers()": {
        "notice": "Return list of keepers"
      },
      "migrate(address)": {
        "notice": "Migrate all asset and vault ownership,if any, to new strategy"
      },
      "removeKeeper(address)": {
        "notice": "Remove given address from keepers list."
      },
      "token()": {
        "notice": "Returns address of token correspond to collateral token"
      },
      "totalValue()": {
        "notice": "Calculate total value using ALPHA accrued and cToken"
      },
      "totalValueCurrent()": {
        "notice": "Calculate total value of asset under management (in real-time)"
      },
      "updateFeeCollector(address)": {
        "notice": "Update fee collector"
      },
      "updateSwapManager(address)": {
        "notice": "Update swap manager address"
      }
    },
    "version": 1
  },
  "storageLayout": {
    "storage": [
      {
        "astId": 15118,
        "contract": "contracts/strategies/alpha/AlphaLendAvalancheStrategy.sol:AlphaLendAvalancheStrategy",
        "label": "WETH",
        "offset": 0,
        "slot": "0",
        "type": "t_address"
      },
      {
        "astId": 15123,
        "contract": "contracts/strategies/alpha/AlphaLendAvalancheStrategy.sol:AlphaLendAvalancheStrategy",
        "label": "receiptToken",
        "offset": 0,
        "slot": "1",
        "type": "t_address"
      },
      {
        "astId": 15129,
        "contract": "contracts/strategies/alpha/AlphaLendAvalancheStrategy.sol:AlphaLendAvalancheStrategy",
        "label": "feeCollector",
        "offset": 0,
        "slot": "2",
        "type": "t_address"
      },
      {
        "astId": 15132,
        "contract": "contracts/strategies/alpha/AlphaLendAvalancheStrategy.sol:AlphaLendAvalancheStrategy",
        "label": "swapManager",
        "offset": 0,
        "slot": "3",
        "type": "t_contract(ISwapManager)5430"
      },
      {
        "astId": 15135,
        "contract": "contracts/strategies/alpha/AlphaLendAvalancheStrategy.sol:AlphaLendAvalancheStrategy",
        "label": "oraclePeriod",
        "offset": 0,
        "slot": "4",
        "type": "t_uint256"
      },
      {
        "astId": 15138,
        "contract": "contracts/strategies/alpha/AlphaLendAvalancheStrategy.sol:AlphaLendAvalancheStrategy",
        "label": "oracleRouterIdx",
        "offset": 0,
        "slot": "5",
        "type": "t_uint256"
      },
      {
        "astId": 15141,
        "contract": "contracts/strategies/alpha/AlphaLendAvalancheStrategy.sol:AlphaLendAvalancheStrategy",
        "label": "swapSlippage",
        "offset": 0,
        "slot": "6",
        "type": "t_uint256"
      },
      {
        "astId": 15144,
        "contract": "contracts/strategies/alpha/AlphaLendAvalancheStrategy.sol:AlphaLendAvalancheStrategy",
        "label": "_keepers",
        "offset": 0,
        "slot": "7",
        "type": "t_struct(AddressSet)4399_storage"
      },
      {
        "astId": 20960,
        "contract": "contracts/strategies/alpha/AlphaLendAvalancheStrategy.sol:AlphaLendAvalancheStrategy",
        "label": "NAME",
        "offset": 0,
        "slot": "9",
        "type": "t_string_storage"
      },
      {
        "astId": 20966,
        "contract": "contracts/strategies/alpha/AlphaLendAvalancheStrategy.sol:AlphaLendAvalancheStrategy",
        "label": "ALPHA",
        "offset": 0,
        "slot": "10",
        "type": "t_address"
      },
      {
        "astId": 20969,
        "contract": "contracts/strategies/alpha/AlphaLendAvalancheStrategy.sol:AlphaLendAvalancheStrategy",
        "label": "safeBox",
        "offset": 0,
        "slot": "11",
        "type": "t_contract(ISafeBox)5046"
      }
    ],
    "types": {
      "t_address": {
        "encoding": "inplace",
        "label": "address",
        "numberOfBytes": "20"
      },
      "t_array(t_bytes32)dyn_storage": {
        "base": "t_bytes32",
        "encoding": "dynamic_array",
        "label": "bytes32[]",
        "numberOfBytes": "32"
      },
      "t_bytes32": {
        "encoding": "inplace",
        "label": "bytes32",
        "numberOfBytes": "32"
      },
      "t_contract(ISafeBox)5046": {
        "encoding": "inplace",
        "label": "contract ISafeBox",
        "numberOfBytes": "20"
      },
      "t_contract(ISwapManager)5430": {
        "encoding": "inplace",
        "label": "contract ISwapManager",
        "numberOfBytes": "20"
      },
      "t_mapping(t_bytes32,t_uint256)": {
        "encoding": "mapping",
        "key": "t_bytes32",
        "label": "mapping(bytes32 => uint256)",
        "numberOfBytes": "32",
        "value": "t_uint256"
      },
      "t_string_storage": {
        "encoding": "bytes",
        "label": "string",
        "numberOfBytes": "32"
      },
      "t_struct(AddressSet)4399_storage": {
        "encoding": "inplace",
        "label": "struct EnumerableSet.AddressSet",
        "members": [
          {
            "astId": 4398,
            "contract": "contracts/strategies/alpha/AlphaLendAvalancheStrategy.sol:AlphaLendAvalancheStrategy",
            "label": "_inner",
            "offset": 0,
            "slot": "0",
            "type": "t_struct(Set)4098_storage"
          }
        ],
        "numberOfBytes": "64"
      },
      "t_struct(Set)4098_storage": {
        "encoding": "inplace",
        "label": "struct EnumerableSet.Set",
        "members": [
          {
            "astId": 4093,
            "contract": "contracts/strategies/alpha/AlphaLendAvalancheStrategy.sol:AlphaLendAvalancheStrategy",
            "label": "_values",
            "offset": 0,
            "slot": "0",
            "type": "t_array(t_bytes32)dyn_storage"
          },
          {
            "astId": 4097,
            "contract": "contracts/strategies/alpha/AlphaLendAvalancheStrategy.sol:AlphaLendAvalancheStrategy",
            "label": "_indexes",
            "offset": 0,
            "slot": "1",
            "type": "t_mapping(t_bytes32,t_uint256)"
          }
        ],
        "numberOfBytes": "64"
      },
      "t_uint256": {
        "encoding": "inplace",
        "label": "uint256",
        "numberOfBytes": "32"
      }
    }
  }
}