{
  "address": "0x4c9d61AdB5d8b7B554fa3d1056C65dAAB1158963",
  "abi": [
    {
      "inputs": [
        {
          "internalType": "address",
          "name": "_pool",
          "type": "address"
        },
        {
          "internalType": "address",
          "name": "_swapManager",
          "type": "address"
        }
      ],
      "stateMutability": "nonpayable",
      "type": "constructor"
    },
    {
      "anonymous": false,
      "inputs": [
        {
          "indexed": true,
          "internalType": "address",
          "name": "previousFeeCollector",
          "type": "address"
        },
        {
          "indexed": true,
          "internalType": "address",
          "name": "newFeeCollector",
          "type": "address"
        }
      ],
      "name": "UpdatedFeeCollector",
      "type": "event"
    },
    {
      "anonymous": false,
      "inputs": [
        {
          "indexed": true,
          "internalType": "address",
          "name": "previousSwapManager",
          "type": "address"
        },
        {
          "indexed": true,
          "internalType": "address",
          "name": "newSwapManager",
          "type": "address"
        }
      ],
      "name": "UpdatedSwapManager",
      "type": "event"
    },
    {
      "inputs": [],
      "name": "AAVE",
      "outputs": [
        {
          "internalType": "address",
          "name": "",
          "type": "address"
        }
      ],
      "stateMutability": "view",
      "type": "function"
    },
    {
      "inputs": [],
      "name": "NAME",
      "outputs": [
        {
          "internalType": "string",
          "name": "",
          "type": "string"
        }
      ],
      "stateMutability": "view",
      "type": "function"
    },
    {
      "inputs": [],
      "name": "VERSION",
      "outputs": [
        {
          "internalType": "string",
          "name": "",
          "type": "string"
        }
      ],
      "stateMutability": "view",
      "type": "function"
    },
    {
      "inputs": [],
      "name": "aaveAddressesProvider",
      "outputs": [
        {
          "internalType": "contract AaveLendingPoolAddressesProvider",
          "name": "",
          "type": "address"
        }
      ],
      "stateMutability": "view",
      "type": "function"
    },
    {
      "inputs": [],
      "name": "aaveIncentivesController",
      "outputs": [
        {
          "internalType": "contract AaveIncentivesController",
          "name": "",
          "type": "address"
        }
      ],
      "stateMutability": "view",
      "type": "function"
    },
    {
      "inputs": [],
      "name": "aaveLendingPool",
      "outputs": [
        {
          "internalType": "contract AaveLendingPool",
          "name": "",
          "type": "address"
        }
      ],
      "stateMutability": "view",
      "type": "function"
    },
    {
      "inputs": [],
      "name": "aaveProtocolDataProvider",
      "outputs": [
        {
          "internalType": "contract AaveProtocolDataProvider",
          "name": "",
          "type": "address"
        }
      ],
      "stateMutability": "view",
      "type": "function"
    },
    {
      "inputs": [
        {
          "internalType": "address",
          "name": "_keeperAddress",
          "type": "address"
        }
      ],
      "name": "addKeeper",
      "outputs": [],
      "stateMutability": "nonpayable",
      "type": "function"
    },
    {
      "inputs": [],
      "name": "approveToken",
      "outputs": [],
      "stateMutability": "nonpayable",
      "type": "function"
    },
    {
      "inputs": [],
      "name": "canStartCooldown",
      "outputs": [
        {
          "internalType": "bool",
          "name": "",
          "type": "bool"
        }
      ],
      "stateMutability": "view",
      "type": "function"
    },
    {
      "inputs": [],
      "name": "canUnstake",
      "outputs": [
        {
          "internalType": "bool",
          "name": "",
          "type": "bool"
        }
      ],
      "stateMutability": "view",
      "type": "function"
    },
    {
      "inputs": [],
      "name": "collateralToken",
      "outputs": [
        {
          "internalType": "contract IERC20",
          "name": "",
          "type": "address"
        }
      ],
      "stateMutability": "view",
      "type": "function"
    },
    {
      "inputs": [
        {
          "internalType": "uint256",
          "name": "amount",
          "type": "uint256"
        }
      ],
      "name": "convertFrom18",
      "outputs": [
        {
          "internalType": "uint256",
          "name": "",
          "type": "uint256"
        }
      ],
      "stateMutability": "pure",
      "type": "function"
    },
    {
      "inputs": [],
      "name": "cooldownData",
      "outputs": [
        {
          "internalType": "uint256",
          "name": "_cooldownStart",
          "type": "uint256"
        },
        {
          "internalType": "uint256",
          "name": "_cooldownEnd",
          "type": "uint256"
        },
        {
          "internalType": "uint256",
          "name": "_unstakeEnd",
          "type": "uint256"
        }
      ],
      "stateMutability": "view",
      "type": "function"
    },
    {
      "inputs": [],
      "name": "feeCollector",
      "outputs": [
        {
          "internalType": "address",
          "name": "",
          "type": "address"
        }
      ],
      "stateMutability": "view",
      "type": "function"
    },
    {
      "inputs": [
        {
          "internalType": "address",
          "name": "_addressListFactory",
          "type": "address"
        }
      ],
      "name": "init",
      "outputs": [],
      "stateMutability": "nonpayable",
      "type": "function"
    },
    {
      "inputs": [
        {
          "internalType": "address",
          "name": "_token",
          "type": "address"
        }
      ],
      "name": "isReservedToken",
      "outputs": [
        {
          "internalType": "bool",
          "name": "",
          "type": "bool"
        }
      ],
      "stateMutability": "view",
      "type": "function"
    },
    {
      "inputs": [],
      "name": "keepers",
      "outputs": [
        {
          "internalType": "contract IAddressList",
          "name": "",
          "type": "address"
        }
      ],
      "stateMutability": "view",
      "type": "function"
    },
    {
      "inputs": [
        {
          "internalType": "address",
          "name": "_newStrategy",
          "type": "address"
        }
      ],
      "name": "migrate",
      "outputs": [],
      "stateMutability": "nonpayable",
      "type": "function"
    },
    {
      "inputs": [],
      "name": "pool",
      "outputs": [
        {
          "internalType": "address",
          "name": "",
          "type": "address"
        }
      ],
      "stateMutability": "view",
      "type": "function"
    },
    {
      "inputs": [],
      "name": "rebalance",
      "outputs": [],
      "stateMutability": "nonpayable",
      "type": "function"
    },
    {
      "inputs": [],
      "name": "receiptToken",
      "outputs": [
        {
          "internalType": "address",
          "name": "",
          "type": "address"
        }
      ],
      "stateMutability": "view",
      "type": "function"
    },
    {
      "inputs": [
        {
          "internalType": "address",
          "name": "_keeperAddress",
          "type": "address"
        }
      ],
      "name": "removeKeeper",
      "outputs": [],
      "stateMutability": "nonpayable",
      "type": "function"
    },
    {
      "inputs": [],
      "name": "startCooldown",
      "outputs": [
        {
          "internalType": "bool",
          "name": "",
          "type": "bool"
        }
      ],
      "stateMutability": "nonpayable",
      "type": "function"
    },
    {
      "inputs": [],
      "name": "stkAAVE",
      "outputs": [
        {
          "internalType": "contract StakedAave",
          "name": "",
          "type": "address"
        }
      ],
      "stateMutability": "view",
      "type": "function"
    },
    {
      "inputs": [],
      "name": "swapManager",
      "outputs": [
        {
          "internalType": "contract ISwapManager",
          "name": "",
          "type": "address"
        }
      ],
      "stateMutability": "view",
      "type": "function"
    },
    {
      "inputs": [
        {
          "internalType": "address",
          "name": "_fromToken",
          "type": "address"
        }
      ],
      "name": "sweepERC20",
      "outputs": [],
      "stateMutability": "nonpayable",
      "type": "function"
    },
    {
      "inputs": [],
      "name": "token",
      "outputs": [
        {
          "internalType": "address",
          "name": "",
          "type": "address"
        }
      ],
      "stateMutability": "view",
      "type": "function"
    },
    {
      "inputs": [],
      "name": "totalValue",
      "outputs": [
        {
          "internalType": "uint256",
          "name": "",
          "type": "uint256"
        }
      ],
      "stateMutability": "view",
      "type": "function"
    },
    {
      "inputs": [],
      "name": "unstakeAave",
      "outputs": [],
      "stateMutability": "nonpayable",
      "type": "function"
    },
    {
      "inputs": [
        {
          "internalType": "address",
          "name": "_feeCollector",
          "type": "address"
        }
      ],
      "name": "updateFeeCollector",
      "outputs": [],
      "stateMutability": "nonpayable",
      "type": "function"
    },
    {
      "inputs": [
        {
          "internalType": "address",
          "name": "_swapManager",
          "type": "address"
        }
      ],
      "name": "updateSwapManager",
      "outputs": [],
      "stateMutability": "nonpayable",
      "type": "function"
    },
    {
      "inputs": [
        {
          "internalType": "uint256",
          "name": "_amount",
          "type": "uint256"
        }
      ],
      "name": "withdraw",
      "outputs": [],
      "stateMutability": "nonpayable",
      "type": "function"
    }
  ],
  "transactionHash": "0xbae63d3bcc757d4f0c6d27c410db103f634abc1cf5a4b7d079115f2a6bc9a985",
  "args": [
    "0xBA680a906d8f624a5F11fba54D3C672f09F26e47",
    "0xB73A2A2FF72b112e8D2D324ba8Eca904ab9F24c4"
  ],
  "solcInputHash": "1fd2e47746da81af69930b6239c9e912",
  "bytecode": "0x610160604052600380546001600160a01b03191673b53c1a33016b2dc2ff3653530bff1848a515c8c51790553480156200003857600080fd5b5060405162003fa838038062003fa88339810160408190526200005b9162000437565b8181733ed3b47dd13ec9a98b44e6204a523e766b225811808383826001600160a01b038316620000d25760405162461bcd60e51b815260206004820152601460248201527f706f6f6c2d616464726573732d69732d7a65726f00000000000000000000000060448201526064015b60405180910390fd5b6001600160a01b0382166200011f5760405162461bcd60e51b8152602060048201526012602482015271736d2d616464726573732d69732d7a65726f60701b6044820152606401620000c9565b600280546001600160a01b0319166001600160a01b0384811691909117909155606084901b6001600160601b03191660c05260408051637e062a3560e11b815290519185169163fc0c546a91600480820192602092909190829003018186803b1580156200018c57600080fd5b505afa158015620001a1573d6000803e3d6000fd5b505050506040513d601f19601f82011682018060405250810190620001c7919062000411565b6001600160601b0319606091821b811660805291901b1660a05250506001600160a01b0381166200023b5760405162461bcd60e51b815260206004820152601660248201527f61546f6b656e2d616464726573732d69732d7a65726f000000000000000000006044820152606401620000c9565b806001600160a01b0316610140816001600160a01b031660601b81525050806001600160a01b03166375d264136040518163ffffffff1660e01b815260040160206040518083038186803b1580156200029357600080fd5b505afa158015620002a8573d6000803e3d6000fd5b505050506040513d601f19601f82011682018060405250810190620002ce919062000411565b60601b6001600160601b0319166101205260035460408051630261bf8b60e01b815290516001600160a01b0390921691630261bf8b91600480820192602092909190829003018186803b1580156200032557600080fd5b505afa1580156200033a573d6000803e3d6000fd5b505050506040513d601f19601f8201168201806040525081019062000360919062000411565b60601b6001600160601b03191660e0526003546040516321f8a72160e01b8152600160f81b60048201526001600160a01b03909116906321f8a7219060240160206040518083038186803b158015620003b857600080fd5b505afa158015620003cd573d6000803e3d6000fd5b505050506040513d601f19601f82011682018060405250810190620003f3919062000411565b60601b6001600160601b03191661010052506200048e945050505050565b60006020828403121562000423578081fd5b8151620004308162000475565b9392505050565b600080604083850312156200044a578081fd5b8251620004578162000475565b60208401519092506200046a8162000475565b809150509250929050565b6001600160a01b03811681146200048b57600080fd5b50565b60805160601c60a05160601c60c05160601c60e05160601c6101005160601c6101205160601c6101405160601c613992620006166000396000818161178501528181611a6701528181611e6a0152818161263d015281816127cc015281816129420152612e4d01526000818161033b015281816117ed0152612eb201526000818161036201526126dc0152600081816104960152818161228d01528181612a420152612ce601526000818161024a015281816105440152818161078201528181610b9d01528181610c1901528181610dac015281816111190152818161123f015281816113080152818161159701528181611e4101528181612027015281816120c401526122390152600081816104bd015281816104fa0152818161141c01526114a001526000818161040d015281816114ea0152818161156e015281816119ba01528181611bf301528181611e2001528181612181015281816122170152818161226b015281816127900152818161285d0152818161289e01526129e301526139926000f3fe608060405234801561001057600080fd5b50600436106101fb5760003560e01c8063709d039d1161011a578063d2c35ce8116100ad578063ec78e8321161007c578063ec78e832146104b8578063f51896f8146104df578063fb589de2146104e7578063fc0c546a146104f8578063ffa1ad741461051e576101fb565b8063d2c35ce814610455578063d4c3eea014610468578063e00af4a71461047e578063e9d337b814610491576101fb565b8063a3f4df7e116100e9578063a3f4df7e146103ca578063b2016bd414610408578063c415b95c1461042f578063ce5494bb14610442576101fb565b8063709d039d146103945780637d7c2a1c146103a7578063951dc22c146103af57806399b71d5c146103c2576101fb565b80634032b72b116101925780635f2475ca116101615780635f2475ca146103365780635f9d4d2e1461035d57806360a05a8514610384578063680ff4581461038c576101fb565b80634032b72b146102d2578063440d7248146102e557806348ccda3c146103085780634c36fad714610323576101fb565b806319ab453c116101ce57806319ab453c146102745780631fc29c011461028757806321fc6bb01461029c5780632e1a7d4d146102bf576101fb565b806308bfa40a1461020057806314ae9f2e1461023057806316f0115b14610245578063189adf761461026c575b600080fd5b600354610213906001600160a01b031681565b6040516001600160a01b0390911681526020015b60405180910390f35b61024361023e366004613448565b610542565b005b6102137f000000000000000000000000000000000000000000000000000000000000000081565b6102436106d1565b610243610282366004613448565b610780565b61021360008051602061393d83398151915281565b6102a46109fa565b60408051938452602084019290925290820152606001610227565b6102436102cd3660046135e7565b610b9a565b6102436102e0366004613448565b610c17565b6102f86102f3366004613448565b610d97565b6040519015158152602001610227565b610213737fc66500c84a76ad7e9c93437bfc5ac33e2ddae981565b610243610331366004613448565b610daa565b6102137f000000000000000000000000000000000000000000000000000000000000000081565b6102137f000000000000000000000000000000000000000000000000000000000000000081565b6102f8610f5d565b6102f8610f80565b600254610213906001600160a01b031681565b610243611033565b600054610213906001600160a01b031681565b610243611182565b6103fb6040518060400160405280601281526020017110585d994b54dd1c985d1959de4b5554d11560721b81525081565b604051610227919061375a565b6102137f000000000000000000000000000000000000000000000000000000000000000081565b600154610213906001600160a01b031681565b610243610450366004613448565b61123c565b610243610463366004613448565b611595565b61047061175e565b604051908152602001610227565b61024361048c366004613448565b611afc565b6102137f000000000000000000000000000000000000000000000000000000000000000081565b6102137f000000000000000000000000000000000000000000000000000000000000000081565b6102f8611d97565b6104706104f53660046135e7565b90565b7f0000000000000000000000000000000000000000000000000000000000000000610213565b6103fb60405180604001604052806005815260200164199718171b60d91b81525081565b7f00000000000000000000000000000000000000000000000000000000000000006001600160a01b0316630c340a246040518163ffffffff1660e01b815260040160206040518083038186803b15801561059b57600080fd5b505afa1580156105af573d6000803e3d6000fd5b505050506040513d601f19601f820116820180604052508101906105d39190613464565b6001600160a01b0316336001600160a01b03161461060c5760405162461bcd60e51b8152600401610603906137bd565b60405180910390fd5b600054604051631484968760e11b81526001600160a01b038381166004830152909116906329092d0e90602401602060405180830381600087803b15801561065357600080fd5b505af1158015610667573d6000803e3d6000fd5b505050506040513d601f19601f8201168201806040525081019061068b91906135c7565b6106ce5760405162461bcd60e51b81526020600482015260146024820152731c995b5bdd994b5ad9595c195c8b59985a5b195960621b6044820152606401610603565b50565b6000546001600160a01b0316635dbe47e8336040516001600160e01b031960e084901b1681526001600160a01b03909116600482015260240160206040518083038186803b15801561072257600080fd5b505afa158015610736573d6000803e3d6000fd5b505050506040513d601f19601f8201168201806040525081019061075a91906135c7565b6107765760405162461bcd60e51b81526004016106039061378d565b61077e611db3565b565b7f00000000000000000000000000000000000000000000000000000000000000006001600160a01b0316630c340a246040518163ffffffff1660e01b815260040160206040518083038186803b1580156107d957600080fd5b505afa1580156107ed573d6000803e3d6000fd5b505050506040513d601f19601f820116820180604052508101906108119190613464565b6001600160a01b0316336001600160a01b0316146108415760405162461bcd60e51b8152600401610603906137bd565b6000546001600160a01b03161561089a5760405162461bcd60e51b815260206004820152601b60248201527f6b65657065722d6c6973742d616c72656164792d6372656174656400000000006044820152606401610603565b6000819050806001600160a01b0316630fab4d256040518163ffffffff1660e01b8152600401602060405180830381600087803b1580156108da57600080fd5b505af11580156108ee573d6000803e3d6000fd5b505050506040513d601f19601f820116820180604052508101906109129190613464565b600080546001600160a01b0319166001600160a01b03929092169182179055630a3b0a4f61093d3390565b6040516001600160e01b031960e084901b1681526001600160a01b039091166004820152602401602060405180830381600087803b15801561097e57600080fd5b505af1158015610992573d6000803e3d6000fd5b505050506040513d601f19601f820116820180604052508101906109b691906135c7565b6109f65760405162461bcd60e51b81526020600482015260116024820152701859190b5ad9595c195c8b59985a5b1959607a1b6044820152606401610603565b5050565b60405163091030c360e01b81523060048201526000908190819060008051602061393d8339815191529063091030c39060240160206040518083038186803b158015610a4557600080fd5b505afa158015610a59573d6000803e3d6000fd5b505050506040513d601f19601f82011682018060405250810190610a7d91906135ff565b925060008051602061393d8339815191526001600160a01b03166372b49d636040518163ffffffff1660e01b815260040160206040518083038186803b158015610ac657600080fd5b505afa158015610ada573d6000803e3d6000fd5b505050506040513d601f19601f82011682018060405250810190610afe91906135ff565b610b089084613885565b915060008051602061393d8339815191526001600160a01b031663359c4a966040518163ffffffff1660e01b815260040160206040518083038186803b158015610b5157600080fd5b505afa158015610b65573d6000803e3d6000fd5b505050506040513d601f19601f82011682018060405250810190610b8991906135ff565b610b939083613885565b9050909192565b337f00000000000000000000000000000000000000000000000000000000000000006001600160a01b031614610c0e5760405162461bcd60e51b815260206004820152601960248201527818d85b1b195c8b5a5ccb5b9bdd0b5d995cdc195c8b5c1bdbdb603a1b6044820152606401610603565b6106ce81611e1b565b7f00000000000000000000000000000000000000000000000000000000000000006001600160a01b0316630c340a246040518163ffffffff1660e01b815260040160206040518083038186803b158015610c7057600080fd5b505afa158015610c84573d6000803e3d6000fd5b505050506040513d601f19601f82011682018060405250810190610ca89190613464565b6001600160a01b0316336001600160a01b031614610cd85760405162461bcd60e51b8152600401610603906137bd565b600054604051630a3b0a4f60e01b81526001600160a01b03838116600483015290911690630a3b0a4f90602401602060405180830381600087803b158015610d1f57600080fd5b505af1158015610d33573d6000803e3d6000fd5b505050506040513d601f19601f82011682018060405250810190610d5791906135c7565b6106ce5760405162461bcd60e51b81526020600482015260116024820152701859190b5ad9595c195c8b59985a5b1959607a1b6044820152606401610603565b6000610da282611e66565b90505b919050565b7f00000000000000000000000000000000000000000000000000000000000000006001600160a01b0316630c340a246040518163ffffffff1660e01b815260040160206040518083038186803b158015610e0357600080fd5b505afa158015610e17573d6000803e3d6000fd5b505050506040513d601f19601f82011682018060405250810190610e3b9190613464565b6001600160a01b0316336001600160a01b031614610e6b5760405162461bcd60e51b8152600401610603906137bd565b6001600160a01b038116610eb65760405162461bcd60e51b8152602060048201526012602482015271736d2d616464726573732d69732d7a65726f60701b6044820152606401610603565b6002546001600160a01b0382811691161415610f015760405162461bcd60e51b815260206004820152600a602482015269736d2d69732d73616d6560b01b6044820152606401610603565b6002546040516001600160a01b038084169216907f2d19927e7cac08ceb98b38898a4fdff6da6a27295b9a2d62fe250408ebe044e190600090a3600280546001600160a01b0319166001600160a01b0392909216919091179055565b6000806000610f6a6109fa565b9250509150610f798282611ee7565b9250505090565b600080546001600160a01b0316635dbe47e8336040516001600160e01b031960e084901b1681526001600160a01b03909116600482015260240160206040518083038186803b158015610fd257600080fd5b505afa158015610fe6573d6000803e3d6000fd5b505050506040513d601f19601f8201168201806040525081019061100a91906135c7565b6110265760405162461bcd60e51b81526004016106039061378d565b61102e611f82565b905090565b6000546001600160a01b0316635dbe47e8336040516001600160e01b031960e084901b1681526001600160a01b03909116600482015260240160206040518083038186803b15801561108457600080fd5b505afa158015611098573d6000803e3d6000fd5b505050506040513d601f19601f820116820180604052508101906110bc91906135c7565b6110d85760405162461bcd60e51b81526004016106039061378d565b60008060006110e5612001565b6040516302df682360e11b815260048101849052602481018390526044810182905292955090935091506001600160a01b037f000000000000000000000000000000000000000000000000000000000000000016906305bed04690606401600060405180830381600087803b15801561115d57600080fd5b505af1158015611171573d6000803e3d6000fd5b5050505061117d612168565b505050565b6000546001600160a01b0316635dbe47e8336040516001600160e01b031960e084901b1681526001600160a01b03909116600482015260240160206040518083038186803b1580156111d357600080fd5b505afa1580156111e7573d6000803e3d6000fd5b505050506040513d601f19601f8201168201806040525081019061120b91906135c7565b6112275760405162461bcd60e51b81526004016106039061378d565b611231600061220a565b61077e60001961220a565b337f00000000000000000000000000000000000000000000000000000000000000006001600160a01b0316146112b05760405162461bcd60e51b815260206004820152601960248201527818d85b1b195c8b5a5ccb5b9bdd0b5d995cdc195c8b5c1bdbdb603a1b6044820152606401610603565b6001600160a01b0381166113065760405162461bcd60e51b815260206004820152601c60248201527f6e65772d73747261746567792d616464726573732d69732d7a65726f000000006044820152606401610603565b7f00000000000000000000000000000000000000000000000000000000000000006001600160a01b0316816001600160a01b03166316f0115b6040518163ffffffff1660e01b815260040160206040518083038186803b15801561136957600080fd5b505afa15801561137d573d6000803e3d6000fd5b505050506040513d601f19601f820116820180604052508101906113a19190613464565b6001600160a01b0316146113f05760405162461bcd60e51b81526020600482015260166024820152756e6f742d76616c69642d6e65772d737472617465677960501b6044820152606401610603565b6113f9816123ee565b6040516370a0823160e01b81523060048201526114c79082906001600160a01b037f000000000000000000000000000000000000000000000000000000000000000016906370a082319060240160206040518083038186803b15801561145e57600080fd5b505afa158015611472573d6000803e3d6000fd5b505050506040513d601f19601f8201168201806040525081019061149691906135ff565b6001600160a01b037f000000000000000000000000000000000000000000000000000000000000000016919061248a565b6040516370a0823160e01b81523060048201526106ce9082906001600160a01b037f000000000000000000000000000000000000000000000000000000000000000016906370a082319060240160206040518083038186803b15801561152c57600080fd5b505afa158015611540573d6000803e3d6000fd5b505050506040513d601f19601f8201168201806040525081019061156491906135ff565b6001600160a01b037f000000000000000000000000000000000000000000000000000000000000000016919061248a565b7f00000000000000000000000000000000000000000000000000000000000000006001600160a01b0316630c340a246040518163ffffffff1660e01b815260040160206040518083038186803b1580156115ee57600080fd5b505afa158015611602573d6000803e3d6000fd5b505050506040513d601f19601f820116820180604052508101906116269190613464565b6001600160a01b0316336001600160a01b0316146116565760405162461bcd60e51b8152600401610603906137bd565b6001600160a01b0381166116ac5760405162461bcd60e51b815260206004820152601d60248201527f6665652d636f6c6c6563746f722d616464726573732d69732d7a65726f0000006044820152606401610603565b6001546001600160a01b03828116911614156117025760405162461bcd60e51b81526020600482015260156024820152746665652d636f6c6c6563746f722d69732d73616d6560581b6044820152606401610603565b6001546040516001600160a01b038084169216907f0f06062680f9bd68e786e9980d9bb03d73d5620fc3b345e417b6eacb310b970690600090a3600180546001600160a01b0319166001600160a01b0392909216919091179055565b604080516001808252818301909252600091829190602080830190803683370190505090507f0000000000000000000000000000000000000000000000000000000000000000816000815181106117c557634e487b7160e01b600052603260045260246000fd5b6001600160a01b0392831660209182029290920101526040516345accf9360e11b81526000917f00000000000000000000000000000000000000000000000000000000000000001690638b599f269061182490859030906004016136fd565b60206040518083038186803b15801561183c57600080fd5b505afa158015611850573d6000803e3d6000fd5b505050506040513d601f19601f8201168201806040525081019061187491906135ff565b6040516370a0823160e01b815230600482015290915060008051602061393d833981519152906370a082319060240160206040518083038186803b1580156118bb57600080fd5b505afa1580156118cf573d6000803e3d6000fd5b505050506040513d601f19601f820116820180604052508101906118f391906135ff565b6118fd9082613885565b6040516346df7f7160e11b815230600482015290915060008051602061393d83398151915290638dbefee29060240160206040518083038186803b15801561194457600080fd5b505afa158015611958573d6000803e3d6000fd5b505050506040513d601f19601f8201168201806040525081019061197c91906135ff565b6119869082613885565b600254604051631d1f307960e31b8152737fc66500c84a76ad7e9c93437bfc5ac33e2ddae960048201526001600160a01b037f000000000000000000000000000000000000000000000000000000000000000081166024830152604482018490529293506000929091169063e8f983c89060640160006040518083038186803b158015611a1257600080fd5b505afa158015611a26573d6000803e3d6000fd5b505050506040513d6000823e601f3d908101601f19168201604052611a4e9190810190613480565b506040516370a0823160e01b81523060048201529092507f00000000000000000000000000000000000000000000000000000000000000006001600160a01b031691506370a082319060240160206040518083038186803b158015611ab257600080fd5b505afa158015611ac6573d6000803e3d6000fd5b505050506040513d601f19601f82011682018060405250810190611aea91906135ff565b611af49082613885565b935050505090565b6000546001600160a01b0316635dbe47e8336040516001600160e01b031960e084901b1681526001600160a01b03909116600482015260240160206040518083038186803b158015611b4d57600080fd5b505afa158015611b61573d6000803e3d6000fd5b505050506040513d601f19601f82011682018060405250810190611b8591906135c7565b611ba15760405162461bcd60e51b81526004016106039061378d565b6001546001600160a01b0316611bf15760405162461bcd60e51b81526020600482015260156024820152741999594b58dbdb1b1958dd1bdc8b5b9bdd0b5cd95d605a1b6044820152606401610603565b7f00000000000000000000000000000000000000000000000000000000000000006001600160a01b0316816001600160a01b03161415611c735760405162461bcd60e51b815260206004820152601f60248201527f6e6f742d616c6c6f7765642d746f2d73776565702d636f6c6c61746572616c006044820152606401610603565b611c7c81610d97565b15611cc05760405162461bcd60e51b815260206004820152601460248201527306e6f742d616c6c6f7765642d746f2d73776565760641b6044820152606401610603565b6001600160a01b03811673eeeeeeeeeeeeeeeeeeeeeeeeeeeeeeeeeeeeeeee1415611d0057600154611cfb906001600160a01b0316476124ed565b6106ce565b6040516370a0823160e01b81523060048201526000906001600160a01b038316906370a082319060240160206040518083038186803b158015611d4257600080fd5b505afa158015611d56573d6000803e3d6000fd5b505050506040513d601f19601f82011682018060405250810190611d7a91906135ff565b6001549091506109f6906001600160a01b0384811691168361248a565b6000806000611da46109fa565b9250925050610f798282612606565b6040516301e9a69560e41b8152306004820152600019602482015260008051602061393d83398151915290631e9a695090604401600060405180830381600087803b158015611e0157600080fd5b505af1158015611e15573d6000803e3d6000fd5b50505050565b6109f67f00000000000000000000000000000000000000000000000000000000000000007f00000000000000000000000000000000000000000000000000000000000000008361261b565b60007f00000000000000000000000000000000000000000000000000000000000000006001600160a01b0316826001600160a01b03161480611ec457506001600160a01b038216737fc66500c84a76ad7e9c93437bfc5ac33e2ddae9145b80610da25750506001600160a01b031660008051602061393d8339815191521490565b6040516370a0823160e01b815230600482015260009060008051602061393d833981519152906370a082319060240160206040518083038186803b158015611f2e57600080fd5b505afa158015611f42573d6000803e3d6000fd5b505050506040513d601f19601f82011682018060405250810190611f6691906135ff565b15801590611f7b5750821580611f7b57508142115b9392505050565b6000611f8c610f5d565b15611ffb5760008051602061393d8339815191526001600160a01b031663787a08a66040518163ffffffff1660e01b8152600401600060405180830381600087803b158015611fda57600080fd5b505af1158015611fee573d6000803e3d6000fd5b50505050600190506104f5565b50600090565b604051636a9eee1360e11b81523060048201526000908190819081906001600160a01b037f0000000000000000000000000000000000000000000000000000000000000000169063d53ddc269060240160206040518083038186803b15801561206957600080fd5b505afa15801561207d573d6000803e3d6000fd5b505050506040513d601f19601f820116820180604052508101906120a191906135ff565b604051639f2b283360e01b81523060048201529091506000906001600160a01b037f00000000000000000000000000000000000000000000000000000000000000001690639f2b28339060240160206040518083038186803b15801561210657600080fd5b505afa15801561211a573d6000803e3d6000fd5b505050506040513d601f19601f8201168201806040525081019061213e91906135ff565b905061214981612789565b945061215481612920565b935061215f826129d6565b92505050909192565b6040516370a0823160e01b815230600482015261077e907f0000000000000000000000000000000000000000000000000000000000000000906001600160a01b038216906370a082319060240160206040518083038186803b1580156121cd57600080fd5b505afa1580156121e1573d6000803e3d6000fd5b505050506040513d601f19601f8201168201806040525081019061220591906135ff565b612a09565b61225e6001600160a01b037f0000000000000000000000000000000000000000000000000000000000000000167f000000000000000000000000000000000000000000000000000000000000000083612aa2565b6122b26001600160a01b037f0000000000000000000000000000000000000000000000000000000000000000167f000000000000000000000000000000000000000000000000000000000000000083612aa2565b60005b600260009054906101000a90046001600160a01b03166001600160a01b031663c2fba6676040518163ffffffff1660e01b815260040160206040518083038186803b15801561230357600080fd5b505afa158015612317573d6000803e3d6000fd5b505050506040513d601f19601f8201168201806040525081019061233b91906135ff565b8110156109f657600254604051636e74a6f760e01b8152600481018390526123dc916001600160a01b031690636e74a6f79060240160206040518083038186803b15801561238857600080fd5b505afa15801561239c573d6000803e3d6000fd5b505050506040513d601f19601f820116820180604052508101906123c09190613464565b737fc66500c84a76ad7e9c93437bfc5ac33e2ddae99084612aa2565b806123e6816138e0565b9150506122b5565b6040516370a0823160e01b815230600482015260009060008051602061393d833981519152906370a082319060240160206040518083038186803b15801561243557600080fd5b505afa158015612449573d6000803e3d6000fd5b505050506040513d601f19601f8201168201806040525081019061246d91906135ff565b905080156109f6576109f660008051602061393d83398151915283835b6040516001600160a01b03831660248201526044810182905261117d90849063a9059cbb60e01b906064015b60408051601f198184030181529190526020810180516001600160e01b03166001600160e01b031990931692909217909152612bc6565b8047101561253d5760405162461bcd60e51b815260206004820152601d60248201527f416464726573733a20696e73756666696369656e742062616c616e63650000006044820152606401610603565b6000826001600160a01b03168260405160006040518083038185875af1925050503d806000811461258a576040519150601f19603f3d011682016040523d82523d6000602084013e61258f565b606091505b505090508061117d5760405162461bcd60e51b815260206004820152603a60248201527f416464726573733a20756e61626c6520746f2073656e642076616c75652c207260448201527f6563697069656e74206d617920686176652072657665727465640000000000006064820152608401610603565b60008242118015611f7b575050421115919050565b6040516370a0823160e01b815230600482015260009081906001600160a01b037f000000000000000000000000000000000000000000000000000000000000000016906370a082319060240160206040518083038186803b15801561267f57600080fd5b505afa158015612693573d6000803e3d6000fd5b505050506040513d601f19601f820116820180604052508101906126b791906135ff565b6040516335ea6a7560e01b81526001600160a01b0387811660048301529192506000917f000000000000000000000000000000000000000000000000000000000000000016906335ea6a75906024016101406040518083038186803b15801561271f57600080fd5b505afa158015612733573d6000803e3d6000fd5b505050506040513d601f19601f820116820180604052508101906127579190613617565b505050505050505050905061277f868661277a876127758787612c98565b612c98565b612cae565b9695505050505050565b60006127b47f0000000000000000000000000000000000000000000000000000000000000000612db8565b6040516370a0823160e01b81523060048201526000907f00000000000000000000000000000000000000000000000000000000000000006001600160a01b0316906370a082319060240160206040518083038186803b15801561281657600080fd5b505afa15801561282a573d6000803e3d6000fd5b505050506040513d601f19601f8201168201806040525081019061284e91906135ff565b905082811115612889576128877f00000000000000000000000000000000000000000000000000000000000000003061277a868561389d565b505b6040516370a0823160e01b81523060048201527f00000000000000000000000000000000000000000000000000000000000000006001600160a01b0316906370a082319060240160206040518083038186803b1580156128e857600080fd5b505afa1580156128fc573d6000803e3d6000fd5b505050506040513d601f19601f82011682018060405250810190611f7b91906135ff565b6040516370a0823160e01b815230600482015260009081906001600160a01b037f000000000000000000000000000000000000000000000000000000000000000016906370a082319060240160206040518083038186803b15801561298457600080fd5b505afa158015612998573d6000803e3d6000fd5b505050506040513d601f19601f820116820180604052508101906129bc91906135ff565b9050828110156129d057611f7b818461389d565b50919050565b60008115610da557610da27f0000000000000000000000000000000000000000000000000000000000000000308461261b565b80156109f65760405163e8eda9df60e01b81526001600160a01b03838116600483015260248201839052306044830152600060648301527f0000000000000000000000000000000000000000000000000000000000000000169063e8eda9df90608401600060405180830381600087803b158015612a8657600080fd5b505af1158015612a9a573d6000803e3d6000fd5b505050505050565b801580612b2b5750604051636eb1769f60e11b81523060048201526001600160a01b03838116602483015284169063dd62ed3e9060440160206040518083038186803b158015612af157600080fd5b505afa158015612b05573d6000803e3d6000fd5b505050506040513d601f19601f82011682018060405250810190612b2991906135ff565b155b612b965760405162461bcd60e51b815260206004820152603660248201527f5361666545524332303a20617070726f76652066726f6d206e6f6e2d7a65726f60448201527520746f206e6f6e2d7a65726f20616c6c6f77616e636560501b6064820152608401610603565b6040516001600160a01b03831660248201526044810182905261117d90849063095ea7b360e01b906064016124b6565b6000612c1b826040518060400160405280602081526020017f5361666545524332303a206c6f772d6c6576656c2063616c6c206661696c6564815250856001600160a01b0316612deb9092919063ffffffff16565b80519091501561117d5780806020019051810190612c3991906135c7565b61117d5760405162461bcd60e51b815260206004820152602a60248201527f5361666545524332303a204552433230206f7065726174696f6e20646964206e6044820152691bdd081cdd58d8d9595960b21b6064820152608401610603565b6000818310612ca75781611f7b565b5090919050565b60008115612db157604051631a4ca37b60e21b81526001600160a01b03858116600483015260248201849052848116604483015283917f0000000000000000000000000000000000000000000000000000000000000000909116906369328dec90606401602060405180830381600087803b158015612d2c57600080fd5b505af1158015612d40573d6000803e3d6000fd5b505050506040513d601f19601f82011682018060405250810190612d6491906135ff565b14612db15760405162461bcd60e51b815260206004820152601f60248201527f77697468647261776e2d616d6f756e742d69732d6e6f742d636f7272656374006044820152606401610603565b5092915050565b6000612dc2612e02565b905080156109f6576109f6737fc66500c84a76ad7e9c93437bfc5ac33e2ddae983836001613126565b6060612dfa84846000856132e7565b949350505050565b600080600080612e106109fa565b9250925092508260001480612e2457508042115b15612f4457604080516001808252818301909252600091602080830190803683370190505090507f000000000000000000000000000000000000000000000000000000000000000081600081518110612e8d57634e487b7160e01b600052603260045260246000fd5b6001600160a01b039283166020918202929092010152604051633111e7b360e01b81527f000000000000000000000000000000000000000000000000000000000000000090911690633111e7b390612eef908490600019903090600401613727565b602060405180830381600087803b158015612f0957600080fd5b505af1158015612f1d573d6000803e3d6000fd5b505050506040513d601f19601f82011682018060405250810190612f4191906135ff565b50505b612f4c6109fa565b91945092509050612f5d8282612606565b15612fcd576040516301e9a69560e41b8152306004820152600019602482015260008051602061393d83398151915290631e9a695090604401600060405180830381600087803b158015612fb057600080fd5b505af1158015612fc4573d6000803e3d6000fd5b5050505061303e565b612fd78382611ee7565b1561303e5760008051602061393d8339815191526001600160a01b031663787a08a66040518163ffffffff1660e01b8152600401600060405180830381600087803b15801561302557600080fd5b505af1158015613039573d6000803e3d6000fd5b505050505b6040516309a99b4f60e41b8152306004820152600019602482015260008051602061393d83398151915290639a99b4f090604401600060405180830381600087803b15801561308c57600080fd5b505af11580156130a0573d6000803e3d6000fd5b50506040516370a0823160e01b8152306004820152737fc66500c84a76ad7e9c93437bfc5ac33e2ddae992506370a08231915060240160206040518083038186803b1580156130ee57600080fd5b505afa158015613102573d6000803e3d6000fd5b505050506040513d601f19601f82011682018060405250810190611af491906135ff565b600254604051631d1f307960e31b81526001600160a01b038681166004830152858116602483015260448201859052600092839283929091169063e8f983c89060640160006040518083038186803b15801561318157600080fd5b505afa158015613195573d6000803e3d6000fd5b505050506040513d6000823e601f3d908101601f191682016040526131bd9190810190613480565b92509250925083600014156131d157600193505b81156132de57600254604051636e74a6f760e01b8152600481018390526001600160a01b0390911690636e74a6f79060240160206040518083038186803b15801561321b57600080fd5b505afa15801561322f573d6000803e3d6000fd5b505050506040513d601f19601f820116820180604052508101906132539190613464565b6001600160a01b03166338ed173986868630426040518663ffffffff1660e01b81526004016132869594939291906137f4565b600060405180830381600087803b1580156132a057600080fd5b505af11580156132b4573d6000803e3d6000fd5b505050506040513d6000823e601f3d908101601f191682016040526132dc9190810190613534565b505b50505050505050565b6060824710156133485760405162461bcd60e51b815260206004820152602660248201527f416464726573733a20696e73756666696369656e742062616c616e636520666f6044820152651c8818d85b1b60d21b6064820152608401610603565b843b6133965760405162461bcd60e51b815260206004820152601d60248201527f416464726573733a2063616c6c20746f206e6f6e2d636f6e74726163740000006044820152606401610603565b600080866001600160a01b031685876040516133b291906136e1565b60006040518083038185875af1925050503d80600081146133ef576040519150601f19603f3d011682016040523d82523d6000602084013e6133f4565b606091505b509150915061340482828661340f565b979650505050505050565b6060831561341e575081611f7b565b82511561342e5782518084602001fd5b8160405162461bcd60e51b8152600401610603919061375a565b600060208284031215613459578081fd5b8135611f7b81613927565b600060208284031215613475578081fd5b8151611f7b81613927565b600080600060608486031215613494578182fd5b835167ffffffffffffffff8111156134aa578283fd5b8401601f810186136134ba578283fd5b805160206134cf6134ca83613861565b613830565b8083825282820191508285018a848660051b88010111156134ee578788fd5b8795505b8486101561351957805161350581613927565b8352600195909501949183019183016134f2565b50918801516040909801519199979850909695505050505050565b60006020808385031215613546578182fd5b825167ffffffffffffffff81111561355c578283fd5b8301601f8101851361356c578283fd5b805161357a6134ca82613861565b80828252848201915084840188868560051b8701011115613599578687fd5b8694505b838510156135bb57805183526001949094019391850191850161359d565b50979650505050505050565b6000602082840312156135d8578081fd5b81518015158114611f7b578182fd5b6000602082840312156135f8578081fd5b5035919050565b600060208284031215613610578081fd5b5051919050565b6000806000806000806000806000806101408b8d031215613636578586fd5b8a51995060208b0151985060408b0151975060608b0151965060808b0151955060a08b0151945060c08b0151935060e08b015192506101008b015191506101208b015164ffffffffff8116811461368b578182fd5b809150509295989b9194979a5092959850565b6000815180845260208085019450808401835b838110156136d65781516001600160a01b0316875295820195908201906001016136b1565b509495945050505050565b600082516136f38184602087016138b4565b9190910192915050565b600060408252613710604083018561369e565b905060018060a01b03831660208301529392505050565b60006060825261373a606083018661369e565b6020830194909452506001600160a01b0391909116604090910152919050565b60006020825282518060208401526137798160408501602087016138b4565b601f01601f19169190910160400192915050565b60208082526016908201527531b0b63632b916b4b996b737ba16b096b5b2b2b832b960511b604082015260600190565b6020808252601a908201527f63616c6c65722d69732d6e6f742d7468652d676f7665726e6f72000000000000604082015260600190565b600086825285602083015260a0604083015261381360a083018661369e565b6001600160a01b0394909416606083015250608001529392505050565b604051601f8201601f1916810167ffffffffffffffff8111828210171561385957613859613911565b604052919050565b600067ffffffffffffffff82111561387b5761387b613911565b5060051b60200190565b60008219821115613898576138986138fb565b500190565b6000828210156138af576138af6138fb565b500390565b60005b838110156138cf5781810151838201526020016138b7565b83811115611e155750506000910152565b60006000198214156138f4576138f46138fb565b5060010190565b634e487b7160e01b600052601160045260246000fd5b634e487b7160e01b600052604160045260246000fd5b6001600160a01b03811681146106ce57600080fdfe0000000000000000000000004da27a545c0c5b758a6ba100e3a049001de870f5a2646970667358221220e4db270ab1fe9671bf14bba4359852f5f8aee5fabdc623d4607656f85fe023bc64736f6c63430008030033",
  "devdoc": {
    "kind": "dev",
    "methods": {
      "addKeeper(address)": {
        "params": {
          "_keeperAddress": "keeper address to add."
        }
      },
      "approveToken()": {
        "details": "Approve all required tokens"
      },
      "convertFrom18(uint256)": {
        "details": "Convert from 18 decimals to token defined decimals. Default no conversion."
      },
      "init(address)": {
        "params": {
          "_addressListFactory": "To support same code in eth side chain, user _addressListFactory as param ethereum- 0xded8217De022706A191eE7Ee0Dc9df1185Fb5dA3 polygon-0xD10D5696A350D65A9AA15FE8B258caB4ab1bF291"
        }
      },
      "migrate(address)": {
        "details": "_beforeMigration hook can be implemented in child strategy to do extra steps.",
        "params": {
          "_newStrategy": "Address of new strategy"
        }
      },
      "rebalance()": {
        "details": "Rebalance profit, loss and investment of this strategy"
      },
      "removeKeeper(address)": {
        "params": {
          "_keeperAddress": "keeper address to remove."
        }
      },
      "sweepERC20(address)": {
        "details": "sweep given token to feeCollector of strategy",
        "params": {
          "_fromToken": "token address to sweep"
        }
      },
      "totalValue()": {
        "details": "aToken and collateral are 1:1 and Aave and StakedAave are 1:1"
      },
      "updateFeeCollector(address)": {
        "params": {
          "_feeCollector": "fee collector address"
        }
      },
      "updateSwapManager(address)": {
        "params": {
          "_swapManager": "swap manager address"
        }
      },
      "withdraw(uint256)": {
        "details": "Withdraw collateral token from lending pool.",
        "params": {
          "_amount": "Amount of collateral token"
        }
      }
    },
    "version": 1
  },
  "userdoc": {
    "kind": "user",
    "methods": {
      "addKeeper(address)": {
        "notice": "Add given address in keepers list."
      },
      "canStartCooldown()": {
        "notice": "Returns true if we should start cooldown"
      },
      "canUnstake()": {
        "notice": "Returns true if Aave can be unstaked"
      },
      "cooldownData()": {
        "notice": "Return cooldown related timestamps"
      },
      "init(address)": {
        "notice": "Create keeper list NOTE: Any function with onlyKeeper modifier will not work until this function is called. NOTE: Due to gas constraint this function cannot be called in constructor."
      },
      "isReservedToken(address)": {
        "notice": "Check whether given token is reserved or not. Reserved tokens are not allowed to sweep."
      },
      "migrate(address)": {
        "notice": "Migrate all asset and vault ownership,if any, to new strategy"
      },
      "removeKeeper(address)": {
        "notice": "Remove given address from keepers list."
      },
      "startCooldown()": {
        "notice": "Initiate cooldown to unstake aave."
      },
      "token()": {
        "notice": "Returns address of token correspond to collateral token"
      },
      "totalValue()": {
        "notice": "Report total value"
      },
      "unstakeAave()": {
        "notice": "Unstake Aave from stakedAave contract"
      },
      "updateFeeCollector(address)": {
        "notice": "Update fee collector"
      },
      "updateSwapManager(address)": {
        "notice": "Update swap manager address"
      }
    },
    "version": 1
  },
  "storageLayout": {
    "storage": [
      {
        "astId": 9623,
        "contract": "contracts/strategies/aave/AaveStrategyUSDT.sol:AaveStrategyUSDT",
        "label": "keepers",
        "offset": 0,
        "slot": "0",
        "type": "t_contract(IAddressList)3647"
      },
      {
        "astId": 9626,
        "contract": "contracts/strategies/aave/AaveStrategyUSDT.sol:AaveStrategyUSDT",
        "label": "feeCollector",
        "offset": 0,
        "slot": "1",
        "type": "t_address"
      },
      {
        "astId": 9629,
        "contract": "contracts/strategies/aave/AaveStrategyUSDT.sol:AaveStrategyUSDT",
        "label": "swapManager",
        "offset": 0,
        "slot": "2",
        "type": "t_contract(ISwapManager)3950"
      },
      {
        "astId": 10326,
        "contract": "contracts/strategies/aave/AaveStrategyUSDT.sol:AaveStrategyUSDT",
        "label": "aaveAddressesProvider",
        "offset": 0,
        "slot": "3",
        "type": "t_contract(AaveLendingPoolAddressesProvider)3351"
      }
    ],
    "types": {
      "t_address": {
        "encoding": "inplace",
        "label": "address",
        "numberOfBytes": "20"
      },
      "t_contract(AaveLendingPoolAddressesProvider)3351": {
        "encoding": "inplace",
        "label": "contract AaveLendingPoolAddressesProvider",
        "numberOfBytes": "20"
      },
      "t_contract(IAddressList)3647": {
        "encoding": "inplace",
        "label": "contract IAddressList",
        "numberOfBytes": "20"
      },
      "t_contract(ISwapManager)3950": {
        "encoding": "inplace",
        "label": "contract ISwapManager",
        "numberOfBytes": "20"
      }
    }
  }
}