{
  "address": "0x07E5247687ba0235dC3400736c3B6B7607Bd7D8E",
  "abi": [
    {
      "inputs": [
        {
          "internalType": "address",
          "name": "_pool",
          "type": "address"
        },
        {
          "internalType": "address",
          "name": "_swapManager",
          "type": "address"
        }
      ],
      "stateMutability": "nonpayable",
      "type": "constructor"
    },
    {
      "anonymous": false,
      "inputs": [
        {
          "indexed": true,
          "internalType": "address",
          "name": "previousFeeCollector",
          "type": "address"
        },
        {
          "indexed": true,
          "internalType": "address",
          "name": "newFeeCollector",
          "type": "address"
        }
      ],
      "name": "UpdatedFeeCollector",
      "type": "event"
    },
    {
      "anonymous": false,
      "inputs": [
        {
          "indexed": true,
          "internalType": "address",
          "name": "previousSwapManager",
          "type": "address"
        },
        {
          "indexed": true,
          "internalType": "address",
          "name": "newSwapManager",
          "type": "address"
        }
      ],
      "name": "UpdatedSwapManager",
      "type": "event"
    },
    {
      "inputs": [],
      "name": "NAME",
      "outputs": [
        {
          "internalType": "string",
          "name": "",
          "type": "string"
        }
      ],
      "stateMutability": "view",
      "type": "function"
    },
    {
      "inputs": [],
      "name": "VERSION",
      "outputs": [
        {
          "internalType": "string",
          "name": "",
          "type": "string"
        }
      ],
      "stateMutability": "view",
      "type": "function"
    },
    {
      "inputs": [
        {
          "internalType": "address",
          "name": "_keeperAddress",
          "type": "address"
        }
      ],
      "name": "addKeeper",
      "outputs": [],
      "stateMutability": "nonpayable",
      "type": "function"
    },
    {
      "inputs": [],
      "name": "approveToken",
      "outputs": [],
      "stateMutability": "nonpayable",
      "type": "function"
    },
    {
      "inputs": [],
      "name": "collateralToken",
      "outputs": [
        {
          "internalType": "contract IERC20",
          "name": "",
          "type": "address"
        }
      ],
      "stateMutability": "view",
      "type": "function"
    },
    {
      "inputs": [
        {
          "internalType": "uint256",
          "name": "amount",
          "type": "uint256"
        }
      ],
      "name": "convertFrom18",
      "outputs": [
        {
          "internalType": "uint256",
          "name": "",
          "type": "uint256"
        }
      ],
      "stateMutability": "pure",
      "type": "function"
    },
    {
      "inputs": [],
      "name": "feeCollector",
      "outputs": [
        {
          "internalType": "address",
          "name": "",
          "type": "address"
        }
      ],
      "stateMutability": "view",
      "type": "function"
    },
    {
      "inputs": [
        {
          "internalType": "address",
          "name": "_addressListFactory",
          "type": "address"
        }
      ],
      "name": "init",
      "outputs": [],
      "stateMutability": "nonpayable",
      "type": "function"
    },
    {
      "inputs": [
        {
          "internalType": "address",
          "name": "_token",
          "type": "address"
        }
      ],
      "name": "isReservedToken",
      "outputs": [
        {
          "internalType": "bool",
          "name": "",
          "type": "bool"
        }
      ],
      "stateMutability": "view",
      "type": "function"
    },
    {
      "inputs": [],
      "name": "keepers",
      "outputs": [
        {
          "internalType": "contract IAddressList",
          "name": "",
          "type": "address"
        }
      ],
      "stateMutability": "view",
      "type": "function"
    },
    {
      "inputs": [
        {
          "internalType": "address",
          "name": "_newStrategy",
          "type": "address"
        }
      ],
      "name": "migrate",
      "outputs": [],
      "stateMutability": "nonpayable",
      "type": "function"
    },
    {
      "inputs": [],
      "name": "pool",
      "outputs": [
        {
          "internalType": "address",
          "name": "",
          "type": "address"
        }
      ],
      "stateMutability": "view",
      "type": "function"
    },
    {
      "inputs": [],
      "name": "rebalance",
      "outputs": [],
      "stateMutability": "nonpayable",
      "type": "function"
    },
    {
      "inputs": [],
      "name": "receiptToken",
      "outputs": [
        {
          "internalType": "address",
          "name": "",
          "type": "address"
        }
      ],
      "stateMutability": "view",
      "type": "function"
    },
    {
      "inputs": [
        {
          "internalType": "address",
          "name": "_keeperAddress",
          "type": "address"
        }
      ],
      "name": "removeKeeper",
      "outputs": [],
      "stateMutability": "nonpayable",
      "type": "function"
    },
    {
      "inputs": [],
      "name": "swapManager",
      "outputs": [
        {
          "internalType": "contract ISwapManager",
          "name": "",
          "type": "address"
        }
      ],
      "stateMutability": "view",
      "type": "function"
    },
    {
      "inputs": [
        {
          "internalType": "address",
          "name": "_fromToken",
          "type": "address"
        }
      ],
      "name": "sweepERC20",
      "outputs": [],
      "stateMutability": "nonpayable",
      "type": "function"
    },
    {
      "inputs": [],
      "name": "token",
      "outputs": [
        {
          "internalType": "address",
          "name": "",
          "type": "address"
        }
      ],
      "stateMutability": "view",
      "type": "function"
    },
    {
      "inputs": [],
      "name": "totalValue",
      "outputs": [
        {
          "internalType": "uint256",
          "name": "_totalValue",
          "type": "uint256"
        }
      ],
      "stateMutability": "view",
      "type": "function"
    },
    {
      "inputs": [
        {
          "internalType": "address",
          "name": "_feeCollector",
          "type": "address"
        }
      ],
      "name": "updateFeeCollector",
      "outputs": [],
      "stateMutability": "nonpayable",
      "type": "function"
    },
    {
      "inputs": [
        {
          "internalType": "address",
          "name": "_swapManager",
          "type": "address"
        }
      ],
      "name": "updateSwapManager",
      "outputs": [],
      "stateMutability": "nonpayable",
      "type": "function"
    },
    {
      "inputs": [
        {
          "internalType": "uint256",
          "name": "_amount",
          "type": "uint256"
        }
      ],
      "name": "withdraw",
      "outputs": [],
      "stateMutability": "nonpayable",
      "type": "function"
    }
  ],
  "transactionHash": "0x05556d3637c4ad71ffc524f081f5e4b48c60e657bc5a4baee8e7c19260428134",
  "args": [
    "0xBA680a906d8f624a5F11fba54D3C672f09F26e47",
    "0xb3361918F2651409a6302DcEC2B1F0C6241fEC2e"
  ],
  "solcInputHash": "c2f62ce78ec0012540fd7a368ab20d45",
  "bytecode": "0x6101006040523480156200001257600080fd5b506040516200327a3803806200327a83398101604081905262000035916200022f565b818173f650c3d88d12db855b8bf7d11be6c55a4e07dcc98282826001600160a01b038316620000ab5760405162461bcd60e51b815260206004820152601460248201527f706f6f6c2d616464726573732d69732d7a65726f00000000000000000000000060448201526064015b60405180910390fd5b6001600160a01b038216620000f85760405162461bcd60e51b8152602060048201526012602482015271736d2d616464726573732d69732d7a65726f60701b6044820152606401620000a2565b600280546001600160a01b0319166001600160a01b0384811691909117909155606084901b6001600160601b03191660c05260408051637e062a3560e11b815290519185169163fc0c546a91600480820192602092909190829003018186803b1580156200016557600080fd5b505afa1580156200017a573d6000803e3d6000fd5b505050506040513d601f19601f82011682018060405250810190620001a091906200026d565b6001600160601b0319606091821b811660805291901b1660a05250506001600160a01b038116620002145760405162461bcd60e51b815260206004820152601660248201527f63546f6b656e2d616464726573732d69732d7a65726f000000000000000000006044820152606401620000a2565b60601b6001600160601b03191660e05250620002ac92505050565b6000806040838503121562000242578182fd5b82516200024f8162000293565b6020840151909250620002628162000293565b809150509250929050565b6000602082840312156200027f578081fd5b81516200028c8162000293565b9392505050565b6001600160a01b0381168114620002a957600080fd5b50565b60805160601c60a05160601c60c05160601c60e05160601c612e93620003e76000396000818161099c0152818161145401528181611a2201528181611b7601528181611def01528181611fd10152818161206f015281816121740152818161231601526124cb01526000818161016101528181610394015281816105230152818161079e0152818161081a01528181610a0001528181610c9701528181610dbf01528181610e8801528181611118015281816117aa01528181611829015281816118c60152611b220152600081816103150152818161034a01528181610f9c015261102001526000818161028c0152818161106a015281816110ef015281816113a2015281816115e3015281816117d40152818161198201528181611b0001528181611b540152818161202701526120cc0152612e936000f3fe608060405234801561001057600080fd5b50600436106101425760003560e01c8063a3f4df7e116100b8578063d4c3eea01161007c578063d4c3eea0146102e7578063e00af4a7146102fd578063ec78e83214610310578063fb589de214610337578063fc0c546a14610348578063ffa1ad741461036e57610142565b8063a3f4df7e14610245578063b2016bd414610287578063c415b95c146102ae578063ce5494bb146102c1578063d2c35ce8146102d457610142565b8063440d72481161010a578063440d7248146101d95780634c36fad7146101fc578063709d039d1461020f5780637d7c2a1c14610222578063951dc22c1461022a57806399b71d5c1461023d57610142565b806314ae9f2e1461014757806316f0115b1461015c57806319ab453c146101a05780632e1a7d4d146101b35780634032b72b146101c6575b600080fd5b61015a610155366004612a07565b610392565b005b6101837f000000000000000000000000000000000000000000000000000000000000000081565b6040516001600160a01b0390911681526020015b60405180910390f35b61015a6101ae366004612a07565b610521565b61015a6101c1366004612b85565b61079b565b61015a6101d4366004612a07565b610818565b6101ec6101e7366004612a07565b610998565b6040519015158152602001610197565b61015a61020a366004612a07565b6109fe565b600254610183906001600160a01b031681565b61015a610bb1565b600054610183906001600160a01b031681565b61015a610d00565b61027a6040518060400160405280601681526020017510dbdb5c1bdd5b990b54dd1c985d1959de4b5554d11560521b81525081565b6040516101979190612c38565b6101837f000000000000000000000000000000000000000000000000000000000000000081565b600154610183906001600160a01b031681565b61015a6102cf366004612a07565b610dbc565b61015a6102e2366004612a07565b611116565b6102ef6112df565b604051908152602001610197565b61015a61030b366004612a07565b6114ec565b6101837f000000000000000000000000000000000000000000000000000000000000000081565b6102ef610345366004612b85565b90565b7f0000000000000000000000000000000000000000000000000000000000000000610183565b61027a60405180604001604052806005815260200164332e302e3360d81b81525081565b7f00000000000000000000000000000000000000000000000000000000000000006001600160a01b0316630c340a246040518163ffffffff1660e01b815260040160206040518083038186803b1580156103eb57600080fd5b505afa1580156103ff573d6000803e3d6000fd5b505050506040513d601f19601f820116820180604052508101906104239190612a23565b6001600160a01b0316336001600160a01b03161461045c5760405162461bcd60e51b815260040161045390612c9b565b60405180910390fd5b600054604051631484968760e11b81526001600160a01b038381166004830152909116906329092d0e90602401602060405180830381600087803b1580156104a357600080fd5b505af11580156104b7573d6000803e3d6000fd5b505050506040513d601f19601f820116820180604052508101906104db9190612b65565b61051e5760405162461bcd60e51b81526020600482015260146024820152731c995b5bdd994b5ad9595c195c8b59985a5b195960621b6044820152606401610453565b50565b7f00000000000000000000000000000000000000000000000000000000000000006001600160a01b0316630c340a246040518163ffffffff1660e01b815260040160206040518083038186803b15801561057a57600080fd5b505afa15801561058e573d6000803e3d6000fd5b505050506040513d601f19601f820116820180604052508101906105b29190612a23565b6001600160a01b0316336001600160a01b0316146105e25760405162461bcd60e51b815260040161045390612c9b565b6000546001600160a01b03161561063b5760405162461bcd60e51b815260206004820152601b60248201527f6b65657065722d6c6973742d616c72656164792d6372656174656400000000006044820152606401610453565b6000819050806001600160a01b0316630fab4d256040518163ffffffff1660e01b8152600401602060405180830381600087803b15801561067b57600080fd5b505af115801561068f573d6000803e3d6000fd5b505050506040513d601f19601f820116820180604052508101906106b39190612a23565b600080546001600160a01b0319166001600160a01b03929092169182179055630a3b0a4f6106de3390565b6040516001600160e01b031960e084901b1681526001600160a01b039091166004820152602401602060405180830381600087803b15801561071f57600080fd5b505af1158015610733573d6000803e3d6000fd5b505050506040513d601f19601f820116820180604052508101906107579190612b65565b6107975760405162461bcd60e51b81526020600482015260116024820152701859190b5ad9595c195c8b59985a5b1959607a1b6044820152606401610453565b5050565b337f00000000000000000000000000000000000000000000000000000000000000006001600160a01b03161461080f5760405162461bcd60e51b815260206004820152601960248201527818d85b1b195c8b5a5ccb5b9bdd0b5d995cdc195c8b5c1bdbdb603a1b6044820152606401610453565b61051e81611787565b7f00000000000000000000000000000000000000000000000000000000000000006001600160a01b0316630c340a246040518163ffffffff1660e01b815260040160206040518083038186803b15801561087157600080fd5b505afa158015610885573d6000803e3d6000fd5b505050506040513d601f19601f820116820180604052508101906108a99190612a23565b6001600160a01b0316336001600160a01b0316146108d95760405162461bcd60e51b815260040161045390612c9b565b600054604051630a3b0a4f60e01b81526001600160a01b03838116600483015290911690630a3b0a4f90602401602060405180830381600087803b15801561092057600080fd5b505af1158015610934573d6000803e3d6000fd5b505050506040513d601f19601f820116820180604052508101906109589190612b65565b61051e5760405162461bcd60e51b81526020600482015260116024820152701859190b5ad9595c195c8b59985a5b1959607a1b6044820152606401610453565b60007f00000000000000000000000000000000000000000000000000000000000000006001600160a01b0316826001600160a01b031614806109f657506001600160a01b03821673c00e94cb662c3520282e6f5717214004a7f26888145b90505b919050565b7f00000000000000000000000000000000000000000000000000000000000000006001600160a01b0316630c340a246040518163ffffffff1660e01b815260040160206040518083038186803b158015610a5757600080fd5b505afa158015610a6b573d6000803e3d6000fd5b505050506040513d601f19601f82011682018060405250810190610a8f9190612a23565b6001600160a01b0316336001600160a01b031614610abf5760405162461bcd60e51b815260040161045390612c9b565b6001600160a01b038116610b0a5760405162461bcd60e51b8152602060048201526012602482015271736d2d616464726573732d69732d7a65726f60701b6044820152606401610453565b6002546001600160a01b0382811691161415610b555760405162461bcd60e51b815260206004820152600a602482015269736d2d69732d73616d6560b01b6044820152606401610453565b6002546040516001600160a01b038084169216907f2d19927e7cac08ceb98b38898a4fdff6da6a27295b9a2d62fe250408ebe044e190600090a3600280546001600160a01b0319166001600160a01b0392909216919091179055565b6000546001600160a01b0316635dbe47e8336040516001600160e01b031960e084901b1681526001600160a01b03909116600482015260240160206040518083038186803b158015610c0257600080fd5b505afa158015610c16573d6000803e3d6000fd5b505050506040513d601f19601f82011682018060405250810190610c3a9190612b65565b610c565760405162461bcd60e51b815260040161045390612c6b565b6000806000610c63611803565b6040516302df682360e11b815260048101849052602481018390526044810182905292955090935091506001600160a01b037f000000000000000000000000000000000000000000000000000000000000000016906305bed04690606401600060405180830381600087803b158015610cdb57600080fd5b505af1158015610cef573d6000803e3d6000fd5b50505050610cfb61196a565b505050565b6000546001600160a01b0316635dbe47e8336040516001600160e01b031960e084901b1681526001600160a01b03909116600482015260240160206040518083038186803b158015610d5157600080fd5b505afa158015610d65573d6000803e3d6000fd5b505050506040513d601f19601f82011682018060405250810190610d899190612b65565b610da55760405162461bcd60e51b815260040161045390612c6b565b610daf6000611af3565b610dba600019611af3565b565b337f00000000000000000000000000000000000000000000000000000000000000006001600160a01b031614610e305760405162461bcd60e51b815260206004820152601960248201527818d85b1b195c8b5a5ccb5b9bdd0b5d995cdc195c8b5c1bdbdb603a1b6044820152606401610453565b6001600160a01b038116610e865760405162461bcd60e51b815260206004820152601c60248201527f6e65772d73747261746567792d616464726573732d69732d7a65726f000000006044820152606401610453565b7f00000000000000000000000000000000000000000000000000000000000000006001600160a01b0316816001600160a01b03166316f0115b6040518163ffffffff1660e01b815260040160206040518083038186803b158015610ee957600080fd5b505afa158015610efd573d6000803e3d6000fd5b505050506040513d601f19601f82011682018060405250810190610f219190612a23565b6001600160a01b031614610f705760405162461bcd60e51b81526020600482015260166024820152756e6f742d76616c69642d6e65772d737472617465677960501b6044820152606401610453565b610f7981611cd7565b6040516370a0823160e01b81523060048201526110479082906001600160a01b037f000000000000000000000000000000000000000000000000000000000000000016906370a082319060240160206040518083038186803b158015610fde57600080fd5b505afa158015610ff2573d6000803e3d6000fd5b505050506040513d601f19601f820116820180604052508101906110169190612b9d565b6001600160a01b037f0000000000000000000000000000000000000000000000000000000000000000169190611d7f565b6040516370a0823160e01b815230600482015261051e9082906001600160a01b037f000000000000000000000000000000000000000000000000000000000000000016906370a08231906024015b60206040518083038186803b1580156110ad57600080fd5b505afa1580156110c1573d6000803e3d6000fd5b505050506040513d601f19601f820116820180604052508101906110e59190612b9d565b6001600160a01b037f0000000000000000000000000000000000000000000000000000000000000000169190611d7f565b7f00000000000000000000000000000000000000000000000000000000000000006001600160a01b0316630c340a246040518163ffffffff1660e01b815260040160206040518083038186803b15801561116f57600080fd5b505afa158015611183573d6000803e3d6000fd5b505050506040513d601f19601f820116820180604052508101906111a79190612a23565b6001600160a01b0316336001600160a01b0316146111d75760405162461bcd60e51b815260040161045390612c9b565b6001600160a01b03811661122d5760405162461bcd60e51b815260206004820152601d60248201527f6665652d636f6c6c6563746f722d616464726573732d69732d7a65726f0000006044820152606401610453565b6001546001600160a01b03828116911614156112835760405162461bcd60e51b81526020600482015260156024820152746665652d636f6c6c6563746f722d69732d73616d6560581b6044820152606401610453565b6001546040516001600160a01b038084169216907f0f06062680f9bd68e786e9980d9bb03d73d5620fc3b345e417b6eacb310b970690600090a3600180546001600160a01b0319166001600160a01b0392909216919091179055565b60405163331faf7160e21b81523060048201526000908190733d9819210a31b4961b30ef54be2aed79b9c9cd3b9063cc7ebdc49060240160206040518083038186803b15801561132e57600080fd5b505afa158015611342573d6000803e3d6000fd5b505050506040513d601f19601f820116820180604052508101906113669190612b9d565b9050801561143b576002546040516340b4c54560e11b815273c00e94cb662c3520282e6f5717214004a7f2688860048201526001600160a01b037f0000000000000000000000000000000000000000000000000000000000000000811660248301526044820184905260006064830152909116906381698a8a9060840160006040518083038186803b1580156113fb57600080fd5b505afa15801561140f573d6000803e3d6000fd5b505050506040513d6000823e601f3d908101601f191682016040526114379190810190612a3f565b9250505b6040516370a0823160e01b81523060048201526114dc907f00000000000000000000000000000000000000000000000000000000000000006001600160a01b0316906370a08231906024015b60206040518083038186803b15801561149f57600080fd5b505afa1580156114b3573d6000803e3d6000fd5b505050506040513d601f19601f820116820180604052508101906114d79190612b9d565b611de2565b6114e69083612d63565b91505090565b6000546001600160a01b0316635dbe47e8336040516001600160e01b031960e084901b1681526001600160a01b03909116600482015260240160206040518083038186803b15801561153d57600080fd5b505afa158015611551573d6000803e3d6000fd5b505050506040513d601f19601f820116820180604052508101906115759190612b65565b6115915760405162461bcd60e51b815260040161045390612c6b565b6001546001600160a01b03166115e15760405162461bcd60e51b81526020600482015260156024820152741999594b58dbdb1b1958dd1bdc8b5b9bdd0b5cd95d605a1b6044820152606401610453565b7f00000000000000000000000000000000000000000000000000000000000000006001600160a01b0316816001600160a01b031614156116635760405162461bcd60e51b815260206004820152601f60248201527f6e6f742d616c6c6f7765642d746f2d73776565702d636f6c6c61746572616c006044820152606401610453565b61166c81610998565b156116b05760405162461bcd60e51b815260206004820152601460248201527306e6f742d616c6c6f7765642d746f2d73776565760641b6044820152606401610453565b6001600160a01b03811673eeeeeeeeeeeeeeeeeeeeeeeeeeeeeeeeeeeeeeee14156116f0576001546116eb906001600160a01b031647611e92565b61051e565b6040516370a0823160e01b81523060048201526000906001600160a01b038316906370a082319060240160206040518083038186803b15801561173257600080fd5b505afa158015611746573d6000803e3d6000fd5b505050506040513d601f19601f8201168201806040525081019061176a9190612b9d565b600154909150610797906001600160a01b03848116911683611d7f565b61179081611fab565b506040516370a0823160e01b815230600482015261051e907f0000000000000000000000000000000000000000000000000000000000000000906001600160a01b037f000000000000000000000000000000000000000000000000000000000000000016906370a0823190602401611095565b604051636a9eee1360e11b81523060048201526000908190819081906001600160a01b037f0000000000000000000000000000000000000000000000000000000000000000169063d53ddc269060240160206040518083038186803b15801561186b57600080fd5b505afa15801561187f573d6000803e3d6000fd5b505050506040513d601f19601f820116820180604052508101906118a39190612b9d565b604051639f2b283360e01b81523060048201529091506000906001600160a01b037f00000000000000000000000000000000000000000000000000000000000000001690639f2b28339060240160206040518083038186803b15801561190857600080fd5b505afa15801561191c573d6000803e3d6000fd5b505050506040513d601f19601f820116820180604052508101906119409190612b9d565b905061194b81612020565b94506119568161214e565b9350611961826121bd565b92505050909192565b6040516370a0823160e01b81523060048201526000907f00000000000000000000000000000000000000000000000000000000000000006001600160a01b0316906370a082319060240160206040518083038186803b1580156119cc57600080fd5b505afa1580156119e0573d6000803e3d6000fd5b505050506040513d601f19601f82011682018060405250810190611a049190612b9d565b9050801561051e5760405163140e25ad60e31b8152600481018290527f00000000000000000000000000000000000000000000000000000000000000006001600160a01b03169063a0712d6890602401602060405180830381600087803b158015611a6e57600080fd5b505af1158015611a82573d6000803e3d6000fd5b505050506040513d601f19601f82011682018060405250810190611aa69190612b9d565b1561051e5760405162461bcd60e51b815260206004820152601a60248201527f6465706f7369742d746f2d636f6d706f756e642d6661696c65640000000000006044820152606401610453565b611b476001600160a01b037f0000000000000000000000000000000000000000000000000000000000000000167f0000000000000000000000000000000000000000000000000000000000000000836121ce565b611b9b6001600160a01b037f0000000000000000000000000000000000000000000000000000000000000000167f0000000000000000000000000000000000000000000000000000000000000000836121ce565b60005b600260009054906101000a90046001600160a01b03166001600160a01b031663c2fba6676040518163ffffffff1660e01b815260040160206040518083038186803b158015611bec57600080fd5b505afa158015611c00573d6000803e3d6000fd5b505050506040513d601f19601f82011682018060405250810190611c249190612b9d565b81101561079757600254604051636e74a6f760e01b815260048101839052611cc5916001600160a01b031690636e74a6f79060240160206040518083038186803b158015611c7157600080fd5b505afa158015611c85573d6000803e3d6000fd5b505050506040513d601f19601f82011682018060405250810190611ca99190612a23565b73c00e94cb662c3520282e6f5717214004a7f2688890846121ce565b80611ccf81612e01565b915050611b9e565b611cdf6122f2565b6040516370a0823160e01b815230600482015261051e90829073c00e94cb662c3520282e6f5717214004a7f26888906370a082319060240160206040518083038186803b158015611d2f57600080fd5b505afa158015611d43573d6000803e3d6000fd5b505050506040513d601f19601f82011682018060405250810190611d679190612b9d565b73c00e94cb662c3520282e6f5717214004a7f2688891905b6040516001600160a01b038316602482015260448101829052610cfb90849063a9059cbb60e01b906064015b60408051601f198184030181529190526020810180516001600160e01b03166001600160e01b0319909316929092179091526123db565b6000670de0b6b3a76400007f00000000000000000000000000000000000000000000000000000000000000006001600160a01b031663182df0f56040518163ffffffff1660e01b815260040160206040518083038186803b158015611e4657600080fd5b505afa158015611e5a573d6000803e3d6000fd5b505050506040513d601f19601f82011682018060405250810190611e7e9190612b9d565b611e889084612d9b565b6109f69190612d7b565b80471015611ee25760405162461bcd60e51b815260206004820152601d60248201527f416464726573733a20696e73756666696369656e742062616c616e63650000006044820152606401610453565b6000826001600160a01b03168260405160006040518083038185875af1925050503d8060008114611f2f576040519150601f19603f3d011682016040523d82523d6000602084013e611f34565b606091505b5050905080610cfb5760405162461bcd60e51b815260206004820152603a60248201527f416464726573733a20756e61626c6520746f2073656e642076616c75652c207260448201527f6563697069656e74206d617920686176652072657665727465640000000000006064820152608401610453565b6040516370a0823160e01b81523060048201526000908190612000906001600160a01b037f000000000000000000000000000000000000000000000000000000000000000016906370a0823190602401611487565b90506120198184106120125781612014565b835b6124ad565b9392505050565b600061204b7f00000000000000000000000000000000000000000000000000000000000000006125a0565b6040516370a0823160e01b815230600482015260009061209e906001600160a01b037f000000000000000000000000000000000000000000000000000000000000000016906370a0823190602401611487565b9050828111156120b7576120b56120148483612dba565b505b6040516370a0823160e01b81523060048201527f00000000000000000000000000000000000000000000000000000000000000006001600160a01b0316906370a082319060240160206040518083038186803b15801561211657600080fd5b505afa15801561212a573d6000803e3d6000fd5b505050506040513d601f19601f820116820180604052508101906120199190612b9d565b6040516370a0823160e01b815230600482015260009081906121a3906001600160a01b037f000000000000000000000000000000000000000000000000000000000000000016906370a0823190602401611487565b9050828110156121b7576120198184612dba565b50919050565b600081156109f9576109f682611fab565b8015806122575750604051636eb1769f60e11b81523060048201526001600160a01b03838116602483015284169063dd62ed3e9060440160206040518083038186803b15801561221d57600080fd5b505afa158015612231573d6000803e3d6000fd5b505050506040513d601f19601f820116820180604052508101906122559190612b9d565b155b6122c25760405162461bcd60e51b815260206004820152603660248201527f5361666545524332303a20617070726f76652066726f6d206e6f6e2d7a65726f60448201527520746f206e6f6e2d7a65726f20616c6c6f77616e636560501b6064820152608401610453565b6040516001600160a01b038316602482015260448101829052610cfb90849063095ea7b360e01b90606401611dab565b604080516001808252818301909252600091602080830190803683370190505090507f00000000000000000000000000000000000000000000000000000000000000008160008151811061235657634e487b7160e01b600052603260045260246000fd5b6001600160a01b039092166020928302919091019091015260405162e1ed9760e51b8152733d9819210a31b4961b30ef54be2aed79b9c9cd3b90631c3db2e0906123a69030908590600401612c14565b600060405180830381600087803b1580156123c057600080fd5b505af11580156123d4573d6000803e3d6000fd5b5050505050565b6000612430826040518060400160405280602081526020017f5361666545524332303a206c6f772d6c6576656c2063616c6c206661696c6564815250856001600160a01b03166126569092919063ffffffff16565b805190915015610cfb578080602001905181019061244e9190612b65565b610cfb5760405162461bcd60e51b815260206004820152602a60248201527f5361666545524332303a204552433230206f7065726174696f6e20646964206e6044820152691bdd081cdd58d8d9595960b21b6064820152608401610453565b6000811561259c5760405163852a12e360e01b8152600481018390527f00000000000000000000000000000000000000000000000000000000000000006001600160a01b03169063852a12e390602401602060405180830381600087803b15801561251757600080fd5b505af115801561252b573d6000803e3d6000fd5b505050506040513d601f19601f8201168201806040525081019061254f9190612b9d565b1561259c5760405162461bcd60e51b815260206004820152601d60248201527f77697468647261772d66726f6d2d636f6d706f756e642d6661696c65640000006044820152606401610453565b5090565b6125a86122f2565b6040516370a0823160e01b815230600482015260009073c00e94cb662c3520282e6f5717214004a7f26888906370a082319060240160206040518083038186803b1580156125f557600080fd5b505afa158015612609573d6000803e3d6000fd5b505050506040513d601f19601f8201168201806040525081019061262d9190612b9d565b905080156107975761079773c00e94cb662c3520282e6f5717214004a7f268888383600161266d565b6060612665848460008561282e565b949350505050565b600254604051631d1f307960e31b81526001600160a01b038681166004830152858116602483015260448201859052600092839283929091169063e8f983c89060640160006040518083038186803b1580156126c857600080fd5b505afa1580156126dc573d6000803e3d6000fd5b505050506040513d6000823e601f3d908101601f191682016040526127049190810190612a84565b925092509250836000141561271857600193505b811561282557600254604051636e74a6f760e01b8152600481018390526001600160a01b0390911690636e74a6f79060240160206040518083038186803b15801561276257600080fd5b505afa158015612776573d6000803e3d6000fd5b505050506040513d601f19601f8201168201806040525081019061279a9190612a23565b6001600160a01b03166338ed173986868630426040518663ffffffff1660e01b81526004016127cd959493929190612cd2565b600060405180830381600087803b1580156127e757600080fd5b505af11580156127fb573d6000803e3d6000fd5b505050506040513d6000823e601f3d908101601f191682016040526128239190810190612ad2565b505b50505050505050565b60608247101561288f5760405162461bcd60e51b815260206004820152602660248201527f416464726573733a20696e73756666696369656e742062616c616e636520666f6044820152651c8818d85b1b60d21b6064820152608401610453565b843b6128dd5760405162461bcd60e51b815260206004820152601d60248201527f416464726573733a2063616c6c20746f206e6f6e2d636f6e74726163740000006044820152606401610453565b600080866001600160a01b031685876040516128f99190612bf8565b60006040518083038185875af1925050503d8060008114612936576040519150601f19603f3d011682016040523d82523d6000602084013e61293b565b606091505b509150915061294b828286612956565b979650505050505050565b60608315612965575081612019565b8251156129755782518084602001fd5b8160405162461bcd60e51b81526004016104539190612c38565b600082601f83011261299f578081fd5b815160206129b46129af83612d3f565b612d0e565b80838252828201915082860187848660051b89010111156129d3578586fd5b855b858110156129fa5781516129e881612e48565b845292840192908401906001016129d5565b5090979650505050505050565b600060208284031215612a18578081fd5b813561201981612e48565b600060208284031215612a34578081fd5b815161201981612e48565b60008060408385031215612a51578081fd5b825167ffffffffffffffff811115612a67578182fd5b612a738582860161298f565b925050602083015190509250929050565b600080600060608486031215612a98578081fd5b835167ffffffffffffffff811115612aae578182fd5b612aba8682870161298f565b93505060208401519150604084015190509250925092565b60006020808385031215612ae4578182fd5b825167ffffffffffffffff811115612afa578283fd5b8301601f81018513612b0a578283fd5b8051612b186129af82612d3f565b80828252848201915084840188868560051b8701011115612b37578687fd5b8694505b83851015612b59578051835260019490940193918501918501612b3b565b50979650505050505050565b600060208284031215612b76578081fd5b81518015158114612019578182fd5b600060208284031215612b96578081fd5b5035919050565b600060208284031215612bae578081fd5b5051919050565b6000815180845260208085019450808401835b83811015612bed5781516001600160a01b031687529582019590820190600101612bc8565b509495945050505050565b60008251612c0a818460208701612dd1565b9190910192915050565b6001600160a01b038316815260406020820181905260009061266590830184612bb5565b6000602082528251806020840152612c57816040850160208701612dd1565b601f01601f19169190910160400192915050565b60208082526016908201527531b0b63632b916b4b996b737ba16b096b5b2b2b832b960511b604082015260600190565b6020808252601a908201527f63616c6c65722d69732d6e6f742d7468652d676f7665726e6f72000000000000604082015260600190565b600086825285602083015260a06040830152612cf160a0830186612bb5565b6001600160a01b0394909416606083015250608001529392505050565b604051601f8201601f1916810167ffffffffffffffff81118282101715612d3757612d37612e32565b604052919050565b600067ffffffffffffffff821115612d5957612d59612e32565b5060051b60200190565b60008219821115612d7657612d76612e1c565b500190565b600082612d9657634e487b7160e01b81526012600452602481fd5b500490565b6000816000190483118215151615612db557612db5612e1c565b500290565b600082821015612dcc57612dcc612e1c565b500390565b60005b83811015612dec578181015183820152602001612dd4565b83811115612dfb576000848401525b50505050565b6000600019821415612e1557612e15612e1c565b5060010190565b634e487b7160e01b600052601160045260246000fd5b634e487b7160e01b600052604160045260246000fd5b6001600160a01b038116811461051e57600080fdfea26469706673582212201af996909efdc115bfa01be59061c65a80250d57a0cf5dcb25108a3e1208f52864736f6c63430008030033",
  "devdoc": {
    "kind": "dev",
    "methods": {
      "addKeeper(address)": {
        "params": {
          "_keeperAddress": "keeper address to add."
        }
      },
      "approveToken()": {
        "details": "Approve all required tokens"
      },
      "convertFrom18(uint256)": {
        "details": "Convert from 18 decimals to token defined decimals. Default no conversion."
      },
      "init(address)": {
        "params": {
          "_addressListFactory": "To support same code in eth side chain, user _addressListFactory as param ethereum- 0xded8217De022706A191eE7Ee0Dc9df1185Fb5dA3 polygon-0xD10D5696A350D65A9AA15FE8B258caB4ab1bF291"
        }
      },
      "migrate(address)": {
        "details": "_beforeMigration hook can be implemented in child strategy to do extra steps.",
        "params": {
          "_newStrategy": "Address of new strategy"
        }
      },
      "rebalance()": {
        "details": "Rebalance profit, loss and investment of this strategy"
      },
      "removeKeeper(address)": {
        "params": {
          "_keeperAddress": "keeper address to remove."
        }
      },
      "sweepERC20(address)": {
        "details": "sweep given token to feeCollector of strategy",
        "params": {
          "_fromToken": "token address to sweep"
        }
      },
      "totalValue()": {
        "details": "Report total value in collateral token"
      },
      "updateFeeCollector(address)": {
        "params": {
          "_feeCollector": "fee collector address"
        }
      },
      "updateSwapManager(address)": {
        "params": {
          "_swapManager": "swap manager address"
        }
      },
      "withdraw(uint256)": {
        "details": "Withdraw collateral token from lending pool.",
        "params": {
          "_amount": "Amount of collateral token"
        }
      }
    },
    "title": "Deposit USDT in Compound and earn interest.",
    "version": 1
  },
  "userdoc": {
    "kind": "user",
    "methods": {
      "addKeeper(address)": {
        "notice": "Add given address in keepers list."
      },
      "init(address)": {
        "notice": "Create keeper list NOTE: Any function with onlyKeeper modifier will not work until this function is called. NOTE: Due to gas constraint this function cannot be called in constructor."
      },
      "isReservedToken(address)": {
        "notice": "Check whether given token is reserved or not. Reserved tokens are not allowed to sweep."
      },
      "migrate(address)": {
        "notice": "Migrate all asset and vault ownership,if any, to new strategy"
      },
      "removeKeeper(address)": {
        "notice": "Remove given address from keepers list."
      },
      "token()": {
        "notice": "Returns address of token correspond to collateral token"
      },
      "totalValue()": {
        "notice": "Calculate total value using COMP accrued and cToken"
      },
      "updateFeeCollector(address)": {
        "notice": "Update fee collector"
      },
      "updateSwapManager(address)": {
        "notice": "Update swap manager address"
      }
    },
    "version": 1
  },
  "storageLayout": {
    "storage": [
      {
        "astId": 9453,
        "contract": "contracts/strategies/compound/CompoundStrategyUSDT.sol:CompoundStrategyUSDT",
        "label": "keepers",
        "offset": 0,
        "slot": "0",
        "type": "t_contract(IAddressList)3591"
      },
      {
        "astId": 9456,
        "contract": "contracts/strategies/compound/CompoundStrategyUSDT.sol:CompoundStrategyUSDT",
        "label": "feeCollector",
        "offset": 0,
        "slot": "1",
        "type": "t_address"
      },
      {
        "astId": 9459,
        "contract": "contracts/strategies/compound/CompoundStrategyUSDT.sol:CompoundStrategyUSDT",
        "label": "swapManager",
        "offset": 0,
        "slot": "2",
        "type": "t_contract(ISwapManager)3894"
      }
    ],
    "types": {
      "t_address": {
        "encoding": "inplace",
        "label": "address",
        "numberOfBytes": "20"
      },
      "t_contract(IAddressList)3591": {
        "encoding": "inplace",
        "label": "contract IAddressList",
        "numberOfBytes": "20"
      },
      "t_contract(ISwapManager)3894": {
        "encoding": "inplace",
        "label": "contract ISwapManager",
        "numberOfBytes": "20"
      }
    }
  }
}