{
  "address": "0x8EacbA80Bee37Ed291B084752375C49cD489590b",
  "abi": [
    {
      "inputs": [
        {
          "internalType": "address",
          "name": "_pool",
          "type": "address"
        },
        {
          "internalType": "address",
          "name": "_swapManager",
          "type": "address"
        }
      ],
      "stateMutability": "nonpayable",
      "type": "constructor"
    },
    {
      "anonymous": false,
      "inputs": [
        {
          "indexed": true,
          "internalType": "address",
          "name": "previousFeeCollector",
          "type": "address"
        },
        {
          "indexed": true,
          "internalType": "address",
          "name": "newFeeCollector",
          "type": "address"
        }
      ],
      "name": "UpdatedFeeCollector",
      "type": "event"
    },
    {
      "anonymous": false,
      "inputs": [
        {
          "indexed": false,
          "internalType": "uint256",
          "name": "oldPeriod",
          "type": "uint256"
        },
        {
          "indexed": false,
          "internalType": "uint256",
          "name": "newPeriod",
          "type": "uint256"
        },
        {
          "indexed": false,
          "internalType": "uint256",
          "name": "oldRouterIdx",
          "type": "uint256"
        },
        {
          "indexed": false,
          "internalType": "uint256",
          "name": "newRouterIdx",
          "type": "uint256"
        }
      ],
      "name": "UpdatedOracleConfig",
      "type": "event"
    },
    {
      "anonymous": false,
      "inputs": [
        {
          "indexed": true,
          "internalType": "address",
          "name": "previousSwapManager",
          "type": "address"
        },
        {
          "indexed": true,
          "internalType": "address",
          "name": "newSwapManager",
          "type": "address"
        }
      ],
      "name": "UpdatedSwapManager",
      "type": "event"
    },
    {
      "anonymous": false,
      "inputs": [
        {
          "indexed": false,
          "internalType": "uint256",
          "name": "oldSwapSlippage",
          "type": "uint256"
        },
        {
          "indexed": false,
          "internalType": "uint256",
          "name": "newSwapSlippage",
          "type": "uint256"
        }
      ],
      "name": "UpdatedSwapSlippage",
      "type": "event"
    },
    {
      "inputs": [],
      "name": "NAME",
      "outputs": [
        {
          "internalType": "string",
          "name": "",
          "type": "string"
        }
      ],
      "stateMutability": "view",
      "type": "function"
    },
    {
      "inputs": [],
      "name": "VERSION",
      "outputs": [
        {
          "internalType": "string",
          "name": "",
          "type": "string"
        }
      ],
      "stateMutability": "view",
      "type": "function"
    },
    {
      "inputs": [
        {
          "internalType": "address",
          "name": "_keeperAddress",
          "type": "address"
        }
      ],
      "name": "addKeeper",
      "outputs": [],
      "stateMutability": "nonpayable",
      "type": "function"
    },
    {
      "inputs": [],
      "name": "approveToken",
      "outputs": [],
      "stateMutability": "nonpayable",
      "type": "function"
    },
    {
      "inputs": [],
      "name": "collateralToken",
      "outputs": [
        {
          "internalType": "contract IERC20",
          "name": "",
          "type": "address"
        }
      ],
      "stateMutability": "view",
      "type": "function"
    },
    {
      "inputs": [
        {
          "internalType": "uint256",
          "name": "amount",
          "type": "uint256"
        }
      ],
      "name": "convertFrom18",
      "outputs": [
        {
          "internalType": "uint256",
          "name": "",
          "type": "uint256"
        }
      ],
      "stateMutability": "pure",
      "type": "function"
    },
    {
      "inputs": [],
      "name": "feeCollector",
      "outputs": [
        {
          "internalType": "address",
          "name": "",
          "type": "address"
        }
      ],
      "stateMutability": "view",
      "type": "function"
    },
    {
      "inputs": [
        {
          "internalType": "address",
          "name": "_addressListFactory",
          "type": "address"
        }
      ],
      "name": "init",
      "outputs": [],
      "stateMutability": "nonpayable",
      "type": "function"
    },
    {
      "inputs": [
        {
          "internalType": "address",
          "name": "_token",
          "type": "address"
        }
      ],
      "name": "isReservedToken",
      "outputs": [
        {
          "internalType": "bool",
          "name": "",
          "type": "bool"
        }
      ],
      "stateMutability": "view",
      "type": "function"
    },
    {
      "inputs": [],
      "name": "keepers",
      "outputs": [
        {
          "internalType": "contract IAddressList",
          "name": "",
          "type": "address"
        }
      ],
      "stateMutability": "view",
      "type": "function"
    },
    {
      "inputs": [
        {
          "internalType": "address",
          "name": "_newStrategy",
          "type": "address"
        }
      ],
      "name": "migrate",
      "outputs": [],
      "stateMutability": "nonpayable",
      "type": "function"
    },
    {
      "inputs": [],
      "name": "oraclePeriod",
      "outputs": [
        {
          "internalType": "uint256",
          "name": "",
          "type": "uint256"
        }
      ],
      "stateMutability": "view",
      "type": "function"
    },
    {
      "inputs": [],
      "name": "oracleRouterIdx",
      "outputs": [
        {
          "internalType": "uint256",
          "name": "",
          "type": "uint256"
        }
      ],
      "stateMutability": "view",
      "type": "function"
    },
    {
      "inputs": [],
      "name": "pool",
      "outputs": [
        {
          "internalType": "address",
          "name": "",
          "type": "address"
        }
      ],
      "stateMutability": "view",
      "type": "function"
    },
    {
      "inputs": [],
      "name": "rebalance",
      "outputs": [],
      "stateMutability": "nonpayable",
      "type": "function"
    },
    {
      "inputs": [],
      "name": "receiptToken",
      "outputs": [
        {
          "internalType": "address",
          "name": "",
          "type": "address"
        }
      ],
      "stateMutability": "view",
      "type": "function"
    },
    {
      "inputs": [
        {
          "internalType": "address",
          "name": "_keeperAddress",
          "type": "address"
        }
      ],
      "name": "removeKeeper",
      "outputs": [],
      "stateMutability": "nonpayable",
      "type": "function"
    },
    {
      "inputs": [],
      "name": "setupOracles",
      "outputs": [],
      "stateMutability": "nonpayable",
      "type": "function"
    },
    {
      "inputs": [],
      "name": "swapManager",
      "outputs": [
        {
          "internalType": "contract ISwapManager",
          "name": "",
          "type": "address"
        }
      ],
      "stateMutability": "view",
      "type": "function"
    },
    {
      "inputs": [],
      "name": "swapSlippage",
      "outputs": [
        {
          "internalType": "uint256",
          "name": "",
          "type": "uint256"
        }
      ],
      "stateMutability": "view",
      "type": "function"
    },
    {
      "inputs": [
        {
          "internalType": "address",
          "name": "_fromToken",
          "type": "address"
        }
      ],
      "name": "sweepERC20",
      "outputs": [],
      "stateMutability": "nonpayable",
      "type": "function"
    },
    {
      "inputs": [],
      "name": "token",
      "outputs": [
        {
          "internalType": "address",
          "name": "",
          "type": "address"
        }
      ],
      "stateMutability": "view",
      "type": "function"
    },
    {
      "inputs": [],
      "name": "totalValue",
      "outputs": [
        {
          "internalType": "uint256",
          "name": "_totalValue",
          "type": "uint256"
        }
      ],
      "stateMutability": "view",
      "type": "function"
    },
    {
      "inputs": [
        {
          "internalType": "address",
          "name": "_feeCollector",
          "type": "address"
        }
      ],
      "name": "updateFeeCollector",
      "outputs": [],
      "stateMutability": "nonpayable",
      "type": "function"
    },
    {
      "inputs": [
        {
          "internalType": "uint256",
          "name": "_newPeriod",
          "type": "uint256"
        },
        {
          "internalType": "uint256",
          "name": "_newRouterIdx",
          "type": "uint256"
        }
      ],
      "name": "updateOracleConfig",
      "outputs": [],
      "stateMutability": "nonpayable",
      "type": "function"
    },
    {
      "inputs": [
        {
          "internalType": "address",
          "name": "_swapManager",
          "type": "address"
        }
      ],
      "name": "updateSwapManager",
      "outputs": [],
      "stateMutability": "nonpayable",
      "type": "function"
    },
    {
      "inputs": [
        {
          "internalType": "uint256",
          "name": "_newSwapSlippage",
          "type": "uint256"
        }
      ],
      "name": "updateSwapSlippage",
      "outputs": [],
      "stateMutability": "nonpayable",
      "type": "function"
    },
    {
      "inputs": [
        {
          "internalType": "uint256",
          "name": "_amount",
          "type": "uint256"
        }
      ],
      "name": "withdraw",
      "outputs": [],
      "stateMutability": "nonpayable",
      "type": "function"
    }
  ],
  "transactionHash": "0xef110870d5205d7202ee10a08e77ba35670938061d01f2284372c0a043308699",
  "args": [
    "0xBA680a906d8f624a5F11fba54D3C672f09F26e47",
    "0xe382d9f2394A359B01006faa8A1864b8a60d2710"
  ],
  "solcInputHash": "46e9466a4617b3a5ef01235e94022acf",
  "bytecode": "0x60c0604052610e1060045560006005556127106006553480156200002257600080fd5b5060405162002e8838038062002e88833981016040819052620000459162000269565b818173797aab1ce7c01eb727ab980762ba88e7133d21578282828282826001600160a01b038316620000be5760405162461bcd60e51b815260206004820152601460248201527f706f6f6c2d616464726573732d69732d7a65726f00000000000000000000000060448201526064015b60405180910390fd5b6001600160a01b0382166200010b5760405162461bcd60e51b8152602060048201526012602482015271736d2d616464726573732d69732d7a65726f60701b6044820152606401620000b5565b600380546001600160a01b0319166001600160a01b0384811691909117909155606084901b6001600160601b03191660a05260408051637e062a3560e11b815290519185169163fc0c546a91600480820192602092909190829003018186803b1580156200017857600080fd5b505afa1580156200018d573d6000803e3d6000fd5b505050506040513d601f19601f82011682018060405250810190620001b39190620002a7565b60601b6001600160601b031916608052600080546001600160a01b0319166001600160a01b039283161790558316151591506200023590505760405162461bcd60e51b815260206004820152601660248201527f63546f6b656e2d616464726573732d69732d7a65726f000000000000000000006044820152606401620000b5565b600780546001600160a01b0319166001600160a01b0392909216919091179055505061271060065550620002e69350505050565b600080604083850312156200027c578182fd5b82516200028981620002cd565b60208401519092506200029c81620002cd565b809150509250929050565b600060208284031215620002b9578081fd5b8151620002c681620002cd565b9392505050565b6001600160a01b0381168114620002e357600080fd5b50565b60805160601c60a05160601c612ac7620003c1600039600081816101e301528181610434015281816105c30152818161083e015281816108ba01528181610a5101528181610c0401528181610e3401528181610f5b0152818161123e015281816113070152818161155401528181611a6601528181611ae501528181611b820152611dc2015260008181610359015281816114a60152818161152b0152818161189f01528181611a9001528181611c3e01528181611da001528181611df801528181611ee501528181611f6401526123580152612ac76000f3fe608060405234801561001057600080fd5b50600436106101c45760003560e01c8063a3f4df7e116100f9578063d2c35ce811610097578063ec78e83211610071578063ec78e832146103d8578063fb589de2146103eb578063fc0c546a146103fc578063ffa1ad741461040d576101c4565b8063d2c35ce8146103aa578063d4c3eea0146103bd578063e00af4a7146103c5576101c4565b8063b2016bd4116100d3578063b2016bd414610354578063c415b95c1461037b578063cd2d7ebe1461038e578063ce5494bb14610397576101c4565b8063a3f4df7e146102fa578063a923b2a614610339578063aa1018861461034c576101c4565b8063440d724811610166578063709d039d11610140578063709d039d146102c45780637d7c2a1c146102d7578063951dc22c146102df57806399b71d5c146102f2576101c4565b8063440d72481461027b5780634c36fad71461029e57806367f5e4b8146102b1576101c4565b80631aedeabe116101a25780631aedeabe146102355780632e1a7d4d1461024c5780634032b72b1461025f57806342189c8f14610272576101c4565b806314ae9f2e146101c957806316f0115b146101de57806319ab453c14610222575b600080fd5b6101dc6101d7366004612881565b610432565b005b6102057f000000000000000000000000000000000000000000000000000000000000000081565b6040516001600160a01b0390911681526020015b60405180910390f35b6101dc610230366004612881565b6105c1565b61023e60065481565b604051908152602001610219565b6101dc61025a3660046128d9565b61083b565b6101dc61026d366004612881565b6108b8565b61023e60045481565b61028e610289366004612881565b610a38565b6040519015158152602001610219565b6101dc6102ac366004612881565b610a4f565b6101dc6102bf3660046128d9565b610c02565b600354610205906001600160a01b031681565b6101dc610d4e565b600154610205906001600160a01b031681565b6101dc610e9d565b61032c6040518060400160405280601381526020017210dc99585b4b54dd1c985d1959de4b5554d115606a1b81525081565b6040516102199190612946565b6101dc610347366004612909565b610f59565b6101dc61118e565b6102057f000000000000000000000000000000000000000000000000000000000000000081565b600254610205906001600160a01b031681565b61023e60055481565b6101dc6103a5366004612881565b61123b565b6101dc6103b8366004612881565b611552565b61023e61171b565b6101dc6103d3366004612881565b6117a8565b600054610205906001600160a01b031681565b61023e6103f93660046128d9565b90565b6000546001600160a01b0316610205565b61032c60405180604001604052806006815260200165332e302e313160d01b81525081565b7f00000000000000000000000000000000000000000000000000000000000000006001600160a01b0316630c340a246040518163ffffffff1660e01b815260040160206040518083038186803b15801561048b57600080fd5b505afa15801561049f573d6000803e3d6000fd5b505050506040513d601f19601f820116820180604052508101906104c3919061289d565b6001600160a01b0316336001600160a01b0316146104fc5760405162461bcd60e51b81526004016104f3906129a9565b60405180910390fd5b600154604051631484968760e11b81526001600160a01b038381166004830152909116906329092d0e90602401602060405180830381600087803b15801561054357600080fd5b505af1158015610557573d6000803e3d6000fd5b505050506040513d601f19601f8201168201806040525081019061057b91906128b9565b6105be5760405162461bcd60e51b81526020600482015260146024820152731c995b5bdd994b5ad9595c195c8b59985a5b195960621b60448201526064016104f3565b50565b7f00000000000000000000000000000000000000000000000000000000000000006001600160a01b0316630c340a246040518163ffffffff1660e01b815260040160206040518083038186803b15801561061a57600080fd5b505afa15801561062e573d6000803e3d6000fd5b505050506040513d601f19601f82011682018060405250810190610652919061289d565b6001600160a01b0316336001600160a01b0316146106825760405162461bcd60e51b81526004016104f3906129a9565b6001546001600160a01b0316156106db5760405162461bcd60e51b815260206004820152601b60248201527f6b65657065722d6c6973742d616c72656164792d63726561746564000000000060448201526064016104f3565b6000819050806001600160a01b0316630fab4d256040518163ffffffff1660e01b8152600401602060405180830381600087803b15801561071b57600080fd5b505af115801561072f573d6000803e3d6000fd5b505050506040513d601f19601f82011682018060405250810190610753919061289d565b600180546001600160a01b0319166001600160a01b03929092169182179055630a3b0a4f61077e3390565b6040516001600160e01b031960e084901b1681526001600160a01b039091166004820152602401602060405180830381600087803b1580156107bf57600080fd5b505af11580156107d3573d6000803e3d6000fd5b505050506040513d601f19601f820116820180604052508101906107f791906128b9565b6108375760405162461bcd60e51b81526020600482015260116024820152701859190b5ad9595c195c8b59985a5b1959607a1b60448201526064016104f3565b5050565b337f00000000000000000000000000000000000000000000000000000000000000006001600160a01b0316146108af5760405162461bcd60e51b815260206004820152601960248201527818d85b1b195c8b5a5ccb5b9bdd0b5d995cdc195c8b5c1bdbdb603a1b60448201526064016104f3565b6105be81611a43565b7f00000000000000000000000000000000000000000000000000000000000000006001600160a01b0316630c340a246040518163ffffffff1660e01b815260040160206040518083038186803b15801561091157600080fd5b505afa158015610925573d6000803e3d6000fd5b505050506040513d601f19601f82011682018060405250810190610949919061289d565b6001600160a01b0316336001600160a01b0316146109795760405162461bcd60e51b81526004016104f3906129a9565b600154604051630a3b0a4f60e01b81526001600160a01b03838116600483015290911690630a3b0a4f90602401602060405180830381600087803b1580156109c057600080fd5b505af11580156109d4573d6000803e3d6000fd5b505050506040513d601f19601f820116820180604052508101906109f891906128b9565b6105be5760405162461bcd60e51b81526020600482015260116024820152701859190b5ad9595c195c8b59985a5b1959607a1b60448201526064016104f3565b6007546001600160a01b038281169116145b919050565b7f00000000000000000000000000000000000000000000000000000000000000006001600160a01b0316630c340a246040518163ffffffff1660e01b815260040160206040518083038186803b158015610aa857600080fd5b505afa158015610abc573d6000803e3d6000fd5b505050506040513d601f19601f82011682018060405250810190610ae0919061289d565b6001600160a01b0316336001600160a01b031614610b105760405162461bcd60e51b81526004016104f3906129a9565b6001600160a01b038116610b5b5760405162461bcd60e51b8152602060048201526012602482015271736d2d616464726573732d69732d7a65726f60701b60448201526064016104f3565b6003546001600160a01b0382811691161415610ba65760405162461bcd60e51b815260206004820152600a602482015269736d2d69732d73616d6560b01b60448201526064016104f3565b6003546040516001600160a01b038084169216907f2d19927e7cac08ceb98b38898a4fdff6da6a27295b9a2d62fe250408ebe044e190600090a3600380546001600160a01b0319166001600160a01b0392909216919091179055565b7f00000000000000000000000000000000000000000000000000000000000000006001600160a01b0316630c340a246040518163ffffffff1660e01b815260040160206040518083038186803b158015610c5b57600080fd5b505afa158015610c6f573d6000803e3d6000fd5b505050506040513d601f19601f82011682018060405250810190610c93919061289d565b6001600160a01b0316336001600160a01b031614610cc35760405162461bcd60e51b81526004016104f3906129a9565b612710811115610d0e5760405162461bcd60e51b8152602060048201526016602482015275696e76616c69642d736c6970706167652d76616c756560501b60448201526064016104f3565b60065460408051918252602082018390527ef1c5db862c7598b3b6765552ca951f498611e06412c2d57f8d0b58f82e7f82910160405180910390a1600655565b6001546001600160a01b0316635dbe47e8336040516001600160e01b031960e084901b1681526001600160a01b03909116600482015260240160206040518083038186803b158015610d9f57600080fd5b505afa158015610db3573d6000803e3d6000fd5b505050506040513d601f19601f82011682018060405250810190610dd791906128b9565b610df35760405162461bcd60e51b81526004016104f390612979565b6000806000610e00611abf565b6040516302df682360e11b815260048101849052602481018390526044810182905292955090935091506001600160a01b037f000000000000000000000000000000000000000000000000000000000000000016906305bed04690606401600060405180830381600087803b158015610e7857600080fd5b505af1158015610e8c573d6000803e3d6000fd5b50505050610e98611c26565b505050565b6001546001600160a01b0316635dbe47e8336040516001600160e01b031960e084901b1681526001600160a01b03909116600482015260240160206040518083038186803b158015610eee57600080fd5b505afa158015610f02573d6000803e3d6000fd5b505050506040513d601f19601f82011682018060405250810190610f2691906128b9565b610f425760405162461bcd60e51b81526004016104f390612979565b610f4c6000611d93565b610f57600019611d93565b565b7f00000000000000000000000000000000000000000000000000000000000000006001600160a01b0316630c340a246040518163ffffffff1660e01b815260040160206040518083038186803b158015610fb257600080fd5b505afa158015610fc6573d6000803e3d6000fd5b505050506040513d601f19601f82011682018060405250810190610fea919061289d565b6001600160a01b0316336001600160a01b03161461101a5760405162461bcd60e51b81526004016104f3906129a9565b600360009054906101000a90046001600160a01b03166001600160a01b031663c2fba6676040518163ffffffff1660e01b815260040160206040518083038186803b15801561106857600080fd5b505afa15801561107c573d6000803e3d6000fd5b505050506040513d601f19601f820116820180604052508101906110a091906128f1565b81106110e55760405162461bcd60e51b81526020600482015260146024820152730d2dcecc2d8d2c85ae4deeae8cae45ad2dcc8caf60631b60448201526064016104f3565b816110f05760045491505b603b82116111385760405162461bcd60e51b81526020600482015260156024820152741a5b9d985b1a590b5bdc9858db194b5c195c9a5bd9605a1b60448201526064016104f3565b6004546005546040805192835260208301859052820152606081018290527f83bc5ab8030537fcf1d29c2334f6d22c26c82dcbe5ff03923d2cff5c692c0a7f9060800160405180910390a1600491909155600555565b6001546001600160a01b0316635dbe47e8336040516001600160e01b031960e084901b1681526001600160a01b03909116600482015260240160206040518083038186803b1580156111df57600080fd5b505afa1580156111f3573d6000803e3d6000fd5b505050506040513d601f19601f8201168201806040525081019061121791906128b9565b6112335760405162461bcd60e51b81526004016104f390612979565b610f57611e21565b337f00000000000000000000000000000000000000000000000000000000000000006001600160a01b0316146112af5760405162461bcd60e51b815260206004820152601960248201527818d85b1b195c8b5a5ccb5b9bdd0b5d995cdc195c8b5c1bdbdb603a1b60448201526064016104f3565b6001600160a01b0381166113055760405162461bcd60e51b815260206004820152601c60248201527f6e65772d73747261746567792d616464726573732d69732d7a65726f0000000060448201526064016104f3565b7f00000000000000000000000000000000000000000000000000000000000000006001600160a01b0316816001600160a01b03166316f0115b6040518163ffffffff1660e01b815260040160206040518083038186803b15801561136857600080fd5b505afa15801561137c573d6000803e3d6000fd5b505050506040513d601f19601f820116820180604052508101906113a0919061289d565b6001600160a01b0316146113ef5760405162461bcd60e51b81526020600482015260166024820152756e6f742d76616c69642d6e65772d737472617465677960501b60448201526064016104f3565b6000546040516370a0823160e01b81523060048201526114839183916001600160a01b03909116906370a082319060240160206040518083038186803b15801561143857600080fd5b505afa15801561144c573d6000803e3d6000fd5b505050506040513d601f19601f8201168201806040525081019061147091906128f1565b6000546001600160a01b03169190611ff6565b6040516370a0823160e01b81523060048201526105be9082906001600160a01b037f000000000000000000000000000000000000000000000000000000000000000016906370a08231906024015b60206040518083038186803b1580156114e957600080fd5b505afa1580156114fd573d6000803e3d6000fd5b505050506040513d601f19601f8201168201806040525081019061152191906128f1565b6001600160a01b037f0000000000000000000000000000000000000000000000000000000000000000169190611ff6565b7f00000000000000000000000000000000000000000000000000000000000000006001600160a01b0316630c340a246040518163ffffffff1660e01b815260040160206040518083038186803b1580156115ab57600080fd5b505afa1580156115bf573d6000803e3d6000fd5b505050506040513d601f19601f820116820180604052508101906115e3919061289d565b6001600160a01b0316336001600160a01b0316146116135760405162461bcd60e51b81526004016104f3906129a9565b6001600160a01b0381166116695760405162461bcd60e51b815260206004820152601d60248201527f6665652d636f6c6c6563746f722d616464726573732d69732d7a65726f00000060448201526064016104f3565b6002546001600160a01b03828116911614156116bf5760405162461bcd60e51b81526020600482015260156024820152746665652d636f6c6c6563746f722d69732d73616d6560581b60448201526064016104f3565b6002546040516001600160a01b038084169216907f0f06062680f9bd68e786e9980d9bb03d73d5620fc3b345e417b6eacb310b970690600090a3600280546001600160a01b0319166001600160a01b0392909216919091179055565b6007546040516370a0823160e01b81523060048201526000916117a3916001600160a01b03909116906370a08231906024015b60206040518083038186803b15801561176657600080fd5b505afa15801561177a573d6000803e3d6000fd5b505050506040513d601f19601f8201168201806040525081019061179e91906128f1565b612059565b905090565b6001546001600160a01b0316635dbe47e8336040516001600160e01b031960e084901b1681526001600160a01b03909116600482015260240160206040518083038186803b1580156117f957600080fd5b505afa15801561180d573d6000803e3d6000fd5b505050506040513d601f19601f8201168201806040525081019061183191906128b9565b61184d5760405162461bcd60e51b81526004016104f390612979565b6002546001600160a01b031661189d5760405162461bcd60e51b81526020600482015260156024820152741999594b58dbdb1b1958dd1bdc8b5b9bdd0b5cd95d605a1b60448201526064016104f3565b7f00000000000000000000000000000000000000000000000000000000000000006001600160a01b0316816001600160a01b0316141561191f5760405162461bcd60e51b815260206004820152601f60248201527f6e6f742d616c6c6f7765642d746f2d73776565702d636f6c6c61746572616c0060448201526064016104f3565b61192881610a38565b1561196c5760405162461bcd60e51b815260206004820152601460248201527306e6f742d616c6c6f7765642d746f2d73776565760641b60448201526064016104f3565b6001600160a01b03811673eeeeeeeeeeeeeeeeeeeeeeeeeeeeeeeeeeeeeeee14156119ac576002546119a7906001600160a01b031647612104565b6105be565b6040516370a0823160e01b81523060048201526000906001600160a01b038316906370a082319060240160206040518083038186803b1580156119ee57600080fd5b505afa158015611a02573d6000803e3d6000fd5b505050506040513d601f19601f82011682018060405250810190611a2691906128f1565b600254909150610837906001600160a01b03848116911683611ff6565b611a4c8161221d565b506040516370a0823160e01b81523060048201526105be907f0000000000000000000000000000000000000000000000000000000000000000906001600160a01b037f000000000000000000000000000000000000000000000000000000000000000016906370a08231906024016114d1565b604051636a9eee1360e11b81523060048201526000908190819081906001600160a01b037f0000000000000000000000000000000000000000000000000000000000000000169063d53ddc269060240160206040518083038186803b158015611b2757600080fd5b505afa158015611b3b573d6000803e3d6000fd5b505050506040513d601f19601f82011682018060405250810190611b5f91906128f1565b604051639f2b283360e01b81523060048201529091506000906001600160a01b037f00000000000000000000000000000000000000000000000000000000000000001690639f2b28339060240160206040518083038186803b158015611bc457600080fd5b505afa158015611bd8573d6000803e3d6000fd5b505050506040513d601f19601f82011682018060405250810190611bfc91906128f1565b9050611c0781612274565b9450611c12816123da565b9350611c1d8261242b565b92505050909192565b6040516370a0823160e01b81523060048201526000907f00000000000000000000000000000000000000000000000000000000000000006001600160a01b0316906370a082319060240160206040518083038186803b158015611c8857600080fd5b505afa158015611c9c573d6000803e3d6000fd5b505050506040513d601f19601f82011682018060405250810190611cc091906128f1565b905080156105be5760075460405163140e25ad60e31b8152600481018390526001600160a01b039091169063a0712d6890602401602060405180830381600087803b158015611d0e57600080fd5b505af1158015611d22573d6000803e3d6000fd5b505050506040513d601f19601f82011682018060405250810190611d4691906128f1565b156105be5760405162461bcd60e51b815260206004820152601a60248201527f6465706f7369742d746f2d636f6d706f756e642d6661696c656400000000000060448201526064016104f3565b611de76001600160a01b037f0000000000000000000000000000000000000000000000000000000000000000167f00000000000000000000000000000000000000000000000000000000000000008361243c565b6007546105be906001600160a01b037f0000000000000000000000000000000000000000000000000000000000000000811691168361243c565b60035460048054600554604051630f30f2d360e21b815273c00e94cb662c3520282e6f5717214004a7f268889381019390935273c02aaa39b223fe8d0a0e5c4f27ead9083c756cc26024840152604483019190915260648201526001600160a01b0390911690633cc3cb4c90608401602060405180830381600087803b158015611eaa57600080fd5b505af1158015611ebe573d6000803e3d6000fd5b505050506040513d601f19601f82011682018060405250810190611ee2919061289d565b507f00000000000000000000000000000000000000000000000000000000000000006001600160a01b031673c02aaa39b223fe8d0a0e5c4f27ead9083c756cc214610f575760035460048054600554604051630f30f2d360e21b815273c02aaa39b223fe8d0a0e5c4f27ead9083c756cc2938101939093526001600160a01b037f0000000000000000000000000000000000000000000000000000000000000000811660248501526044840192909252606483015290911690633cc3cb4c90608401602060405180830381600087803b158015611fbe57600080fd5b505af1158015611fd2573d6000803e3d6000fd5b505050506040513d601f19601f820116820180604052508101906105be919061289d565b6040516001600160a01b038316602482015260448101829052610e9890849063a9059cbb60e01b906064015b60408051601f198184030181529190526020810180516001600160e01b03166001600160e01b031990931692909217909152612560565b6000670de0b6b3a7640000600760009054906101000a90046001600160a01b03166001600160a01b031663182df0f56040518163ffffffff1660e01b815260040160206040518083038186803b1580156120b257600080fd5b505afa1580156120c6573d6000803e3d6000fd5b505050506040513d601f19601f820116820180604052508101906120ea91906128f1565b6120f49084612a00565b6120fe91906129e0565b92915050565b804710156121545760405162461bcd60e51b815260206004820152601d60248201527f416464726573733a20696e73756666696369656e742062616c616e636500000060448201526064016104f3565b6000826001600160a01b03168260405160006040518083038185875af1925050503d80600081146121a1576040519150601f19603f3d011682016040523d82523d6000602084013e6121a6565b606091505b5050905080610e985760405162461bcd60e51b815260206004820152603a60248201527f416464726573733a20756e61626c6520746f2073656e642076616c75652c207260448201527f6563697069656e74206d6179206861766520726576657274656400000000000060648201526084016104f3565b6007546040516370a0823160e01b81523060048201526000918291612254916001600160a01b0316906370a082319060240161174e565b905061226d8184106122665781612268565b835b612632565b9392505050565b6007546040805163a6afed9560e01b815290516000926001600160a01b03169163a6afed9591600480830192602092919082900301818787803b1580156122ba57600080fd5b505af11580156122ce573d6000803e3d6000fd5b505050506040513d601f19601f820116820180604052508101906122f291906128f1565b506007546040516370a0823160e01b815230600482015260009161232a916001600160a01b03909116906370a082319060240161174e565b905082811115612343576123416122688483612a1f565b505b6040516370a0823160e01b81523060048201527f00000000000000000000000000000000000000000000000000000000000000006001600160a01b0316906370a082319060240160206040518083038186803b1580156123a257600080fd5b505afa1580156123b6573d6000803e3d6000fd5b505050506040513d601f19601f8201168201806040525081019061226d91906128f1565b6007546040516370a0823160e01b81523060048201526000918291612411916001600160a01b0316906370a082319060240161174e565b9050828110156124255761226d8184612a1f565b50919050565b60008115610a4a576120fe8261221d565b8015806124c55750604051636eb1769f60e11b81523060048201526001600160a01b03838116602483015284169063dd62ed3e9060440160206040518083038186803b15801561248b57600080fd5b505afa15801561249f573d6000803e3d6000fd5b505050506040513d601f19601f820116820180604052508101906124c391906128f1565b155b6125305760405162461bcd60e51b815260206004820152603660248201527f5361666545524332303a20617070726f76652066726f6d206e6f6e2d7a65726f60448201527520746f206e6f6e2d7a65726f20616c6c6f77616e636560501b60648201526084016104f3565b6040516001600160a01b038316602482015260448101829052610e9890849063095ea7b360e01b90606401612022565b60006125b5826040518060400160405280602081526020017f5361666545524332303a206c6f772d6c6576656c2063616c6c206661696c6564815250856001600160a01b03166127099092919063ffffffff16565b805190915015610e9857808060200190518101906125d391906128b9565b610e985760405162461bcd60e51b815260206004820152602a60248201527f5361666545524332303a204552433230206f7065726174696f6e20646964206e6044820152691bdd081cdd58d8d9595960b21b60648201526084016104f3565b600081156127055760075460405163852a12e360e01b8152600481018490526001600160a01b039091169063852a12e390602401602060405180830381600087803b15801561268057600080fd5b505af1158015612694573d6000803e3d6000fd5b505050506040513d601f19601f820116820180604052508101906126b891906128f1565b156127055760405162461bcd60e51b815260206004820152601d60248201527f77697468647261772d66726f6d2d636f6d706f756e642d6661696c656400000060448201526064016104f3565b5090565b60606127188484600085612720565b949350505050565b6060824710156127815760405162461bcd60e51b815260206004820152602660248201527f416464726573733a20696e73756666696369656e742062616c616e636520666f6044820152651c8818d85b1b60d21b60648201526084016104f3565b843b6127cf5760405162461bcd60e51b815260206004820152601d60248201527f416464726573733a2063616c6c20746f206e6f6e2d636f6e747261637400000060448201526064016104f3565b600080866001600160a01b031685876040516127eb919061292a565b60006040518083038185875af1925050503d8060008114612828576040519150601f19603f3d011682016040523d82523d6000602084013e61282d565b606091505b509150915061283d828286612848565b979650505050505050565b6060831561285757508161226d565b8251156128675782518084602001fd5b8160405162461bcd60e51b81526004016104f39190612946565b600060208284031215612892578081fd5b813561226d81612a7c565b6000602082840312156128ae578081fd5b815161226d81612a7c565b6000602082840312156128ca578081fd5b8151801515811461226d578182fd5b6000602082840312156128ea578081fd5b5035919050565b600060208284031215612902578081fd5b5051919050565b6000806040838503121561291b578081fd5b50508035926020909101359150565b6000825161293c818460208701612a36565b9190910192915050565b6000602082528251806020840152612965816040850160208701612a36565b601f01601f19169190910160400192915050565b60208082526016908201527531b0b63632b916b4b996b737ba16b096b5b2b2b832b960511b604082015260600190565b6020808252601a908201527f63616c6c65722d69732d6e6f742d7468652d676f7665726e6f72000000000000604082015260600190565b6000826129fb57634e487b7160e01b81526012600452602481fd5b500490565b6000816000190483118215151615612a1a57612a1a612a66565b500290565b600082821015612a3157612a31612a66565b500390565b60005b83811015612a51578181015183820152602001612a39565b83811115612a60576000848401525b50505050565b634e487b7160e01b600052601160045260246000fd5b6001600160a01b03811681146105be57600080fdfea26469706673582212209bf360729b3cfe082d01de2ff707fdae1cb7585f3fa505e9c090f8e52f950b4864736f6c63430008030033",
  "devdoc": {
    "kind": "dev",
    "methods": {
      "addKeeper(address)": {
        "params": {
          "_keeperAddress": "keeper address to add."
        }
      },
      "approveToken()": {
        "details": "Approve all required tokens"
      },
      "convertFrom18(uint256)": {
        "details": "Convert from 18 decimals to token defined decimals. Default no conversion."
      },
      "init(address)": {
        "params": {
          "_addressListFactory": "To support same code in eth side chain, user _addressListFactory as param ethereum- 0xded8217De022706A191eE7Ee0Dc9df1185Fb5dA3 polygon-0xD10D5696A350D65A9AA15FE8B258caB4ab1bF291"
        }
      },
      "migrate(address)": {
        "details": "_beforeMigration hook can be implemented in child strategy to do extra steps.",
        "params": {
          "_newStrategy": "Address of new strategy"
        }
      },
      "rebalance()": {
        "details": "Rebalance profit, loss and investment of this strategy"
      },
      "removeKeeper(address)": {
        "params": {
          "_keeperAddress": "keeper address to remove."
        }
      },
      "sweepERC20(address)": {
        "details": "sweep given token to feeCollector of strategy",
        "params": {
          "_fromToken": "token address to sweep"
        }
      },
      "totalValue()": {
        "details": "Report total value in collateral token"
      },
      "updateFeeCollector(address)": {
        "params": {
          "_feeCollector": "fee collector address"
        }
      },
      "updateSwapManager(address)": {
        "params": {
          "_swapManager": "swap manager address"
        }
      },
      "withdraw(uint256)": {
        "details": "Withdraw collateral token from lending pool.",
        "params": {
          "_amount": "Amount of collateral token"
        }
      }
    },
    "title": "Deposit USDT in C.R.E.A.M. and earn interest.",
    "version": 1
  },
  "userdoc": {
    "kind": "user",
    "methods": {
      "addKeeper(address)": {
        "notice": "Add given address in keepers list."
      },
      "init(address)": {
        "notice": "Create keeper list NOTE: Any function with onlyKeeper modifier will not work until this function is called. NOTE: Due to gas constraint this function cannot be called in constructor."
      },
      "isReservedToken(address)": {
        "notice": "Check whether given token is reserved or not. Reserved tokens are not allowed to sweep."
      },
      "migrate(address)": {
        "notice": "Migrate all asset and vault ownership,if any, to new strategy"
      },
      "removeKeeper(address)": {
        "notice": "Remove given address from keepers list."
      },
      "token()": {
        "notice": "Returns address of token correspond to collateral token"
      },
      "totalValue()": {
        "notice": "Calculate total value using underlying token"
      },
      "updateFeeCollector(address)": {
        "notice": "Update fee collector"
      },
      "updateSwapManager(address)": {
        "notice": "Update swap manager address"
      }
    },
    "version": 1
  },
  "storageLayout": {
    "storage": [
      {
        "astId": 10109,
        "contract": "contracts/strategies/cream/CreamStrategyUSDT.sol:CreamStrategyUSDT",
        "label": "receiptToken",
        "offset": 0,
        "slot": "0",
        "type": "t_address"
      },
      {
        "astId": 10115,
        "contract": "contracts/strategies/cream/CreamStrategyUSDT.sol:CreamStrategyUSDT",
        "label": "keepers",
        "offset": 0,
        "slot": "1",
        "type": "t_contract(IAddressList)3647"
      },
      {
        "astId": 10118,
        "contract": "contracts/strategies/cream/CreamStrategyUSDT.sol:CreamStrategyUSDT",
        "label": "feeCollector",
        "offset": 0,
        "slot": "2",
        "type": "t_address"
      },
      {
        "astId": 10121,
        "contract": "contracts/strategies/cream/CreamStrategyUSDT.sol:CreamStrategyUSDT",
        "label": "swapManager",
        "offset": 0,
        "slot": "3",
        "type": "t_contract(ISwapManager)3950"
      },
      {
        "astId": 10124,
        "contract": "contracts/strategies/cream/CreamStrategyUSDT.sol:CreamStrategyUSDT",
        "label": "oraclePeriod",
        "offset": 0,
        "slot": "4",
        "type": "t_uint256"
      },
      {
        "astId": 10127,
        "contract": "contracts/strategies/cream/CreamStrategyUSDT.sol:CreamStrategyUSDT",
        "label": "oracleRouterIdx",
        "offset": 0,
        "slot": "5",
        "type": "t_uint256"
      },
      {
        "astId": 10130,
        "contract": "contracts/strategies/cream/CreamStrategyUSDT.sol:CreamStrategyUSDT",
        "label": "swapSlippage",
        "offset": 0,
        "slot": "6",
        "type": "t_uint256"
      },
      {
        "astId": 14299,
        "contract": "contracts/strategies/cream/CreamStrategyUSDT.sol:CreamStrategyUSDT",
        "label": "cToken",
        "offset": 0,
        "slot": "7",
        "type": "t_contract(CToken)4026"
      }
    ],
    "types": {
      "t_address": {
        "encoding": "inplace",
        "label": "address",
        "numberOfBytes": "20"
      },
      "t_contract(CToken)4026": {
        "encoding": "inplace",
        "label": "contract CToken",
        "numberOfBytes": "20"
      },
      "t_contract(IAddressList)3647": {
        "encoding": "inplace",
        "label": "contract IAddressList",
        "numberOfBytes": "20"
      },
      "t_contract(ISwapManager)3950": {
        "encoding": "inplace",
        "label": "contract ISwapManager",
        "numberOfBytes": "20"
      },
      "t_uint256": {
        "encoding": "inplace",
        "label": "uint256",
        "numberOfBytes": "32"
      }
    }
  }
}