{
  "address": "0x604af53401f7e84C3c332CB3C64a3FfE48A68cBf",
  "abi": [
    {
      "inputs": [
        {
          "internalType": "string",
          "name": "_name",
          "type": "string"
        },
        {
          "internalType": "string",
          "name": "_symbol",
          "type": "string"
        },
        {
          "internalType": "address",
          "name": "_token",
          "type": "address"
        }
      ],
      "stateMutability": "nonpayable",
      "type": "constructor"
    },
    {
      "anonymous": false,
      "inputs": [
        {
          "indexed": true,
          "internalType": "address",
          "name": "owner",
          "type": "address"
        },
        {
          "indexed": true,
          "internalType": "address",
          "name": "spender",
          "type": "address"
        },
        {
          "indexed": false,
          "internalType": "uint256",
          "name": "value",
          "type": "uint256"
        }
      ],
      "name": "Approval",
      "type": "event"
    },
    {
      "anonymous": false,
      "inputs": [
        {
          "indexed": true,
          "internalType": "address",
          "name": "owner",
          "type": "address"
        },
        {
          "indexed": false,
          "internalType": "uint256",
          "name": "shares",
          "type": "uint256"
        },
        {
          "indexed": false,
          "internalType": "uint256",
          "name": "amount",
          "type": "uint256"
        }
      ],
      "name": "Deposit",
      "type": "event"
    },
    {
      "anonymous": false,
      "inputs": [
        {
          "indexed": false,
          "internalType": "address",
          "name": "account",
          "type": "address"
        }
      ],
      "name": "Open",
      "type": "event"
    },
    {
      "anonymous": false,
      "inputs": [
        {
          "indexed": false,
          "internalType": "address",
          "name": "account",
          "type": "address"
        }
      ],
      "name": "Paused",
      "type": "event"
    },
    {
      "anonymous": false,
      "inputs": [
        {
          "indexed": false,
          "internalType": "address",
          "name": "account",
          "type": "address"
        }
      ],
      "name": "Shutdown",
      "type": "event"
    },
    {
      "anonymous": false,
      "inputs": [
        {
          "indexed": true,
          "internalType": "address",
          "name": "from",
          "type": "address"
        },
        {
          "indexed": true,
          "internalType": "address",
          "name": "to",
          "type": "address"
        },
        {
          "indexed": false,
          "internalType": "uint256",
          "name": "value",
          "type": "uint256"
        }
      ],
      "name": "Transfer",
      "type": "event"
    },
    {
      "anonymous": false,
      "inputs": [
        {
          "indexed": false,
          "internalType": "address",
          "name": "account",
          "type": "address"
        }
      ],
      "name": "Unpaused",
      "type": "event"
    },
    {
      "anonymous": false,
      "inputs": [
        {
          "indexed": true,
          "internalType": "address",
          "name": "previousFeeCollector",
          "type": "address"
        },
        {
          "indexed": true,
          "internalType": "address",
          "name": "newFeeCollector",
          "type": "address"
        }
      ],
      "name": "UpdatedFeeCollector",
      "type": "event"
    },
    {
      "anonymous": false,
      "inputs": [
        {
          "indexed": true,
          "internalType": "address",
          "name": "previousGovernor",
          "type": "address"
        },
        {
          "indexed": true,
          "internalType": "address",
          "name": "proposedGovernor",
          "type": "address"
        }
      ],
      "name": "UpdatedGovernor",
      "type": "event"
    },
    {
      "anonymous": false,
      "inputs": [
        {
          "indexed": true,
          "internalType": "address",
          "name": "previousPoolRewards",
          "type": "address"
        },
        {
          "indexed": true,
          "internalType": "address",
          "name": "newPoolRewards",
          "type": "address"
        }
      ],
      "name": "UpdatedPoolRewards",
      "type": "event"
    },
    {
      "anonymous": false,
      "inputs": [
        {
          "indexed": false,
          "internalType": "uint256",
          "name": "previousWithdrawFee",
          "type": "uint256"
        },
        {
          "indexed": false,
          "internalType": "uint256",
          "name": "newWithdrawFee",
          "type": "uint256"
        }
      ],
      "name": "UpdatedWithdrawFee",
      "type": "event"
    },
    {
      "anonymous": false,
      "inputs": [
        {
          "indexed": true,
          "internalType": "address",
          "name": "owner",
          "type": "address"
        },
        {
          "indexed": false,
          "internalType": "uint256",
          "name": "shares",
          "type": "uint256"
        },
        {
          "indexed": false,
          "internalType": "uint256",
          "name": "amount",
          "type": "uint256"
        }
      ],
      "name": "Withdraw",
      "type": "event"
    },
    {
      "inputs": [],
      "name": "DOMAIN_SEPARATOR",
      "outputs": [
        {
          "internalType": "bytes32",
          "name": "",
          "type": "bytes32"
        }
      ],
      "stateMutability": "view",
      "type": "function"
    },
    {
      "inputs": [],
      "name": "MAX_BPS",
      "outputs": [
        {
          "internalType": "uint256",
          "name": "",
          "type": "uint256"
        }
      ],
      "stateMutability": "view",
      "type": "function"
    },
    {
      "inputs": [],
      "name": "VERSION",
      "outputs": [
        {
          "internalType": "string",
          "name": "",
          "type": "string"
        }
      ],
      "stateMutability": "view",
      "type": "function"
    },
    {
      "inputs": [],
      "name": "acceptGovernorship",
      "outputs": [],
      "stateMutability": "nonpayable",
      "type": "function"
    },
    {
      "inputs": [
        {
          "internalType": "address",
          "name": "_keeperAddress",
          "type": "address"
        }
      ],
      "name": "addKeeper",
      "outputs": [],
      "stateMutability": "nonpayable",
      "type": "function"
    },
    {
      "inputs": [
        {
          "internalType": "address",
          "name": "_maintainerAddress",
          "type": "address"
        }
      ],
      "name": "addMaintainer",
      "outputs": [],
      "stateMutability": "nonpayable",
      "type": "function"
    },
    {
      "inputs": [
        {
          "internalType": "address",
          "name": "_addressToAdd",
          "type": "address"
        }
      ],
      "name": "addToFeeWhitelist",
      "outputs": [],
      "stateMutability": "nonpayable",
      "type": "function"
    },
    {
      "inputs": [
        {
          "internalType": "address",
          "name": "owner",
          "type": "address"
        },
        {
          "internalType": "address",
          "name": "spender",
          "type": "address"
        }
      ],
      "name": "allowance",
      "outputs": [
        {
          "internalType": "uint256",
          "name": "",
          "type": "uint256"
        }
      ],
      "stateMutability": "view",
      "type": "function"
    },
    {
      "inputs": [
        {
          "internalType": "address",
          "name": "spender",
          "type": "address"
        },
        {
          "internalType": "uint256",
          "name": "amount",
          "type": "uint256"
        }
      ],
      "name": "approve",
      "outputs": [
        {
          "internalType": "bool",
          "name": "",
          "type": "bool"
        }
      ],
      "stateMutability": "nonpayable",
      "type": "function"
    },
    {
      "inputs": [
        {
          "internalType": "address",
          "name": "_strategy",
          "type": "address"
        }
      ],
      "name": "availableCreditLimit",
      "outputs": [
        {
          "internalType": "uint256",
          "name": "",
          "type": "uint256"
        }
      ],
      "stateMutability": "view",
      "type": "function"
    },
    {
      "inputs": [
        {
          "internalType": "address",
          "name": "account",
          "type": "address"
        }
      ],
      "name": "balanceOf",
      "outputs": [
        {
          "internalType": "uint256",
          "name": "",
          "type": "uint256"
        }
      ],
      "stateMutability": "view",
      "type": "function"
    },
    {
      "inputs": [
        {
          "internalType": "uint256",
          "name": "_amount",
          "type": "uint256"
        }
      ],
      "name": "calculateMintage",
      "outputs": [
        {
          "internalType": "uint256",
          "name": "_shares",
          "type": "uint256"
        }
      ],
      "stateMutability": "view",
      "type": "function"
    },
    {
      "inputs": [
        {
          "internalType": "uint256",
          "name": "_amount",
          "type": "uint256"
        }
      ],
      "name": "convertFrom18",
      "outputs": [
        {
          "internalType": "uint256",
          "name": "",
          "type": "uint256"
        }
      ],
      "stateMutability": "view",
      "type": "function"
    },
    {
      "inputs": [],
      "name": "decimalConversionFactor",
      "outputs": [
        {
          "internalType": "uint256",
          "name": "",
          "type": "uint256"
        }
      ],
      "stateMutability": "view",
      "type": "function"
    },
    {
      "inputs": [],
      "name": "decimals",
      "outputs": [
        {
          "internalType": "uint8",
          "name": "",
          "type": "uint8"
        }
      ],
      "stateMutability": "view",
      "type": "function"
    },
    {
      "inputs": [
        {
          "internalType": "address",
          "name": "spender",
          "type": "address"
        },
        {
          "internalType": "uint256",
          "name": "subtractedValue",
          "type": "uint256"
        }
      ],
      "name": "decreaseAllowance",
      "outputs": [
        {
          "internalType": "bool",
          "name": "",
          "type": "bool"
        }
      ],
      "stateMutability": "nonpayable",
      "type": "function"
    },
    {
      "inputs": [
        {
          "internalType": "uint256",
          "name": "_amount",
          "type": "uint256"
        }
      ],
      "name": "deposit",
      "outputs": [],
      "stateMutability": "nonpayable",
      "type": "function"
    },
    {
      "inputs": [
        {
          "internalType": "uint256",
          "name": "_amount",
          "type": "uint256"
        }
      ],
      "name": "depositAndClaim",
      "outputs": [],
      "stateMutability": "nonpayable",
      "type": "function"
    },
    {
      "inputs": [
        {
          "internalType": "uint256",
          "name": "_amount",
          "type": "uint256"
        },
        {
          "internalType": "uint256",
          "name": "_deadline",
          "type": "uint256"
        },
        {
          "internalType": "uint8",
          "name": "_v",
          "type": "uint8"
        },
        {
          "internalType": "bytes32",
          "name": "_r",
          "type": "bytes32"
        },
        {
          "internalType": "bytes32",
          "name": "_s",
          "type": "bytes32"
        }
      ],
      "name": "depositWithPermit",
      "outputs": [],
      "stateMutability": "nonpayable",
      "type": "function"
    },
    {
      "inputs": [
        {
          "internalType": "address",
          "name": "_strategy",
          "type": "address"
        }
      ],
      "name": "excessDebt",
      "outputs": [
        {
          "internalType": "uint256",
          "name": "",
          "type": "uint256"
        }
      ],
      "stateMutability": "view",
      "type": "function"
    },
    {
      "inputs": [],
      "name": "feeCollector",
      "outputs": [
        {
          "internalType": "address",
          "name": "",
          "type": "address"
        }
      ],
      "stateMutability": "view",
      "type": "function"
    },
    {
      "inputs": [],
      "name": "feeWhitelist",
      "outputs": [
        {
          "internalType": "address[]",
          "name": "",
          "type": "address[]"
        }
      ],
      "stateMutability": "view",
      "type": "function"
    },
    {
      "inputs": [],
      "name": "getStrategies",
      "outputs": [
        {
          "internalType": "address[]",
          "name": "",
          "type": "address[]"
        }
      ],
      "stateMutability": "view",
      "type": "function"
    },
    {
      "inputs": [],
      "name": "getWithdrawQueue",
      "outputs": [
        {
          "internalType": "address[]",
          "name": "",
          "type": "address[]"
        }
      ],
      "stateMutability": "view",
      "type": "function"
    },
    {
      "inputs": [],
      "name": "governor",
      "outputs": [
        {
          "internalType": "address",
          "name": "",
          "type": "address"
        }
      ],
      "stateMutability": "view",
      "type": "function"
    },
    {
      "inputs": [
        {
          "internalType": "address",
          "name": "spender",
          "type": "address"
        },
        {
          "internalType": "uint256",
          "name": "addedValue",
          "type": "uint256"
        }
      ],
      "name": "increaseAllowance",
      "outputs": [
        {
          "internalType": "bool",
          "name": "",
          "type": "bool"
        }
      ],
      "stateMutability": "nonpayable",
      "type": "function"
    },
    {
      "inputs": [
        {
          "internalType": "string",
          "name": "_name",
          "type": "string"
        },
        {
          "internalType": "string",
          "name": "_symbol",
          "type": "string"
        },
        {
          "internalType": "address",
          "name": "_token",
          "type": "address"
        },
        {
          "internalType": "address",
          "name": "_poolAccountant",
          "type": "address"
        }
      ],
      "name": "initialize",
      "outputs": [],
      "stateMutability": "nonpayable",
      "type": "function"
    },
    {
      "inputs": [
        {
          "internalType": "address",
          "name": "_address",
          "type": "address"
        }
      ],
      "name": "isFeeWhitelisted",
      "outputs": [
        {
          "internalType": "bool",
          "name": "",
          "type": "bool"
        }
      ],
      "stateMutability": "view",
      "type": "function"
    },
    {
      "inputs": [
        {
          "internalType": "address",
          "name": "_address",
          "type": "address"
        }
      ],
      "name": "isKeeper",
      "outputs": [
        {
          "internalType": "bool",
          "name": "",
          "type": "bool"
        }
      ],
      "stateMutability": "view",
      "type": "function"
    },
    {
      "inputs": [
        {
          "internalType": "address",
          "name": "_address",
          "type": "address"
        }
      ],
      "name": "isMaintainer",
      "outputs": [
        {
          "internalType": "bool",
          "name": "",
          "type": "bool"
        }
      ],
      "stateMutability": "view",
      "type": "function"
    },
    {
      "inputs": [],
      "name": "keepers",
      "outputs": [
        {
          "internalType": "address[]",
          "name": "",
          "type": "address[]"
        }
      ],
      "stateMutability": "view",
      "type": "function"
    },
    {
      "inputs": [],
      "name": "maintainers",
      "outputs": [
        {
          "internalType": "address[]",
          "name": "",
          "type": "address[]"
        }
      ],
      "stateMutability": "view",
      "type": "function"
    },
    {
      "inputs": [
        {
          "internalType": "address",
          "name": "_old",
          "type": "address"
        },
        {
          "internalType": "address",
          "name": "_new",
          "type": "address"
        }
      ],
      "name": "migrateStrategy",
      "outputs": [],
      "stateMutability": "nonpayable",
      "type": "function"
    },
    {
      "inputs": [
        {
          "internalType": "address[]",
          "name": "_recipients",
          "type": "address[]"
        },
        {
          "internalType": "uint256[]",
          "name": "_amounts",
          "type": "uint256[]"
        }
      ],
      "name": "multiTransfer",
      "outputs": [
        {
          "internalType": "bool",
          "name": "",
          "type": "bool"
        }
      ],
      "stateMutability": "nonpayable",
      "type": "function"
    },
    {
      "inputs": [],
      "name": "name",
      "outputs": [
        {
          "internalType": "string",
          "name": "",
          "type": "string"
        }
      ],
      "stateMutability": "view",
      "type": "function"
    },
    {
      "inputs": [
        {
          "internalType": "address",
          "name": "",
          "type": "address"
        }
      ],
      "name": "nonces",
      "outputs": [
        {
          "internalType": "uint256",
          "name": "",
          "type": "uint256"
        }
      ],
      "stateMutability": "view",
      "type": "function"
    },
    {
      "inputs": [],
      "name": "open",
      "outputs": [],
      "stateMutability": "nonpayable",
      "type": "function"
    },
    {
      "inputs": [],
      "name": "pause",
      "outputs": [],
      "stateMutability": "nonpayable",
      "type": "function"
    },
    {
      "inputs": [],
      "name": "paused",
      "outputs": [
        {
          "internalType": "bool",
          "name": "",
          "type": "bool"
        }
      ],
      "stateMutability": "view",
      "type": "function"
    },
    {
      "inputs": [
        {
          "internalType": "address",
          "name": "owner",
          "type": "address"
        },
        {
          "internalType": "address",
          "name": "spender",
          "type": "address"
        },
        {
          "internalType": "uint256",
          "name": "value",
          "type": "uint256"
        },
        {
          "internalType": "uint256",
          "name": "deadline",
          "type": "uint256"
        },
        {
          "internalType": "uint8",
          "name": "v",
          "type": "uint8"
        },
        {
          "internalType": "bytes32",
          "name": "r",
          "type": "bytes32"
        },
        {
          "internalType": "bytes32",
          "name": "s",
          "type": "bytes32"
        }
      ],
      "name": "permit",
      "outputs": [],
      "stateMutability": "nonpayable",
      "type": "function"
    },
    {
      "inputs": [],
      "name": "poolAccountant",
      "outputs": [
        {
          "internalType": "address",
          "name": "",
          "type": "address"
        }
      ],
      "stateMutability": "view",
      "type": "function"
    },
    {
      "inputs": [],
      "name": "poolRewards",
      "outputs": [
        {
          "internalType": "address",
          "name": "",
          "type": "address"
        }
      ],
      "stateMutability": "view",
      "type": "function"
    },
    {
      "inputs": [],
      "name": "pricePerShare",
      "outputs": [
        {
          "internalType": "uint256",
          "name": "",
          "type": "uint256"
        }
      ],
      "stateMutability": "view",
      "type": "function"
    },
    {
      "inputs": [
        {
          "internalType": "address",
          "name": "_addressToRemove",
          "type": "address"
        }
      ],
      "name": "removeFromFeeWhitelist",
      "outputs": [],
      "stateMutability": "nonpayable",
      "type": "function"
    },
    {
      "inputs": [
        {
          "internalType": "address",
          "name": "_keeperAddress",
          "type": "address"
        }
      ],
      "name": "removeKeeper",
      "outputs": [],
      "stateMutability": "nonpayable",
      "type": "function"
    },
    {
      "inputs": [
        {
          "internalType": "address",
          "name": "_maintainerAddress",
          "type": "address"
        }
      ],
      "name": "removeMaintainer",
      "outputs": [],
      "stateMutability": "nonpayable",
      "type": "function"
    },
    {
      "inputs": [
        {
          "internalType": "uint256",
          "name": "_profit",
          "type": "uint256"
        },
        {
          "internalType": "uint256",
          "name": "_loss",
          "type": "uint256"
        },
        {
          "internalType": "uint256",
          "name": "_payback",
          "type": "uint256"
        }
      ],
      "name": "reportEarning",
      "outputs": [],
      "stateMutability": "nonpayable",
      "type": "function"
    },
    {
      "inputs": [
        {
          "internalType": "uint256",
          "name": "_loss",
          "type": "uint256"
        }
      ],
      "name": "reportLoss",
      "outputs": [],
      "stateMutability": "nonpayable",
      "type": "function"
    },
    {
      "inputs": [],
      "name": "shutdown",
      "outputs": [],
      "stateMutability": "nonpayable",
      "type": "function"
    },
    {
      "inputs": [],
      "name": "stopEverything",
      "outputs": [
        {
          "internalType": "bool",
          "name": "",
          "type": "bool"
        }
      ],
      "stateMutability": "view",
      "type": "function"
    },
    {
      "inputs": [
        {
          "internalType": "address",
          "name": "_strategy",
          "type": "address"
        }
      ],
      "name": "strategy",
      "outputs": [
        {
          "internalType": "bool",
          "name": "_active",
          "type": "bool"
        },
        {
          "internalType": "uint256",
          "name": "_interestFee",
          "type": "uint256"
        },
        {
          "internalType": "uint256",
          "name": "_debtRate",
          "type": "uint256"
        },
        {
          "internalType": "uint256",
          "name": "_lastRebalance",
          "type": "uint256"
        },
        {
          "internalType": "uint256",
          "name": "_totalDebt",
          "type": "uint256"
        },
        {
          "internalType": "uint256",
          "name": "_totalLoss",
          "type": "uint256"
        },
        {
          "internalType": "uint256",
          "name": "_totalProfit",
          "type": "uint256"
        },
        {
          "internalType": "uint256",
          "name": "_debtRatio",
          "type": "uint256"
        },
        {
          "internalType": "uint256",
          "name": "_externalDepositFee",
          "type": "uint256"
        }
      ],
      "stateMutability": "view",
      "type": "function"
    },
    {
      "inputs": [
        {
          "internalType": "address",
          "name": "_fromToken",
          "type": "address"
        }
      ],
      "name": "sweepERC20",
      "outputs": [],
      "stateMutability": "nonpayable",
      "type": "function"
    },
    {
      "inputs": [],
      "name": "symbol",
      "outputs": [
        {
          "internalType": "string",
          "name": "",
          "type": "string"
        }
      ],
      "stateMutability": "view",
      "type": "function"
    },
    {
      "inputs": [],
      "name": "token",
      "outputs": [
        {
          "internalType": "contract IERC20",
          "name": "",
          "type": "address"
        }
      ],
      "stateMutability": "view",
      "type": "function"
    },
    {
      "inputs": [],
      "name": "tokensHere",
      "outputs": [
        {
          "internalType": "uint256",
          "name": "",
          "type": "uint256"
        }
      ],
      "stateMutability": "view",
      "type": "function"
    },
    {
      "inputs": [],
      "name": "totalDebt",
      "outputs": [
        {
          "internalType": "uint256",
          "name": "",
          "type": "uint256"
        }
      ],
      "stateMutability": "view",
      "type": "function"
    },
    {
      "inputs": [
        {
          "internalType": "address",
          "name": "_strategy",
          "type": "address"
        }
      ],
      "name": "totalDebtOf",
      "outputs": [
        {
          "internalType": "uint256",
          "name": "",
          "type": "uint256"
        }
      ],
      "stateMutability": "view",
      "type": "function"
    },
    {
      "inputs": [],
      "name": "totalDebtRatio",
      "outputs": [
        {
          "internalType": "uint256",
          "name": "",
          "type": "uint256"
        }
      ],
      "stateMutability": "view",
      "type": "function"
    },
    {
      "inputs": [],
      "name": "totalSupply",
      "outputs": [
        {
          "internalType": "uint256",
          "name": "",
          "type": "uint256"
        }
      ],
      "stateMutability": "view",
      "type": "function"
    },
    {
      "inputs": [],
      "name": "totalValue",
      "outputs": [
        {
          "internalType": "uint256",
          "name": "",
          "type": "uint256"
        }
      ],
      "stateMutability": "view",
      "type": "function"
    },
    {
      "inputs": [
        {
          "internalType": "address",
          "name": "recipient",
          "type": "address"
        },
        {
          "internalType": "uint256",
          "name": "amount",
          "type": "uint256"
        }
      ],
      "name": "transfer",
      "outputs": [
        {
          "internalType": "bool",
          "name": "",
          "type": "bool"
        }
      ],
      "stateMutability": "nonpayable",
      "type": "function"
    },
    {
      "inputs": [
        {
          "internalType": "address",
          "name": "sender",
          "type": "address"
        },
        {
          "internalType": "address",
          "name": "recipient",
          "type": "address"
        },
        {
          "internalType": "uint256",
          "name": "amount",
          "type": "uint256"
        }
      ],
      "name": "transferFrom",
      "outputs": [
        {
          "internalType": "bool",
          "name": "",
          "type": "bool"
        }
      ],
      "stateMutability": "nonpayable",
      "type": "function"
    },
    {
      "inputs": [
        {
          "internalType": "address",
          "name": "_proposedGovernor",
          "type": "address"
        }
      ],
      "name": "transferGovernorship",
      "outputs": [],
      "stateMutability": "nonpayable",
      "type": "function"
    },
    {
      "inputs": [],
      "name": "unpause",
      "outputs": [],
      "stateMutability": "nonpayable",
      "type": "function"
    },
    {
      "inputs": [
        {
          "internalType": "address",
          "name": "_newFeeCollector",
          "type": "address"
        }
      ],
      "name": "updateFeeCollector",
      "outputs": [],
      "stateMutability": "nonpayable",
      "type": "function"
    },
    {
      "inputs": [
        {
          "internalType": "address",
          "name": "_newPoolRewards",
          "type": "address"
        }
      ],
      "name": "updatePoolRewards",
      "outputs": [],
      "stateMutability": "nonpayable",
      "type": "function"
    },
    {
      "inputs": [
        {
          "internalType": "uint256",
          "name": "_newWithdrawFee",
          "type": "uint256"
        }
      ],
      "name": "updateWithdrawFee",
      "outputs": [],
      "stateMutability": "nonpayable",
      "type": "function"
    },
    {
      "inputs": [
        {
          "internalType": "uint256",
          "name": "_shares",
          "type": "uint256"
        }
      ],
      "name": "whitelistedWithdraw",
      "outputs": [],
      "stateMutability": "nonpayable",
      "type": "function"
    },
    {
      "inputs": [
        {
          "internalType": "uint256",
          "name": "_shares",
          "type": "uint256"
        }
      ],
      "name": "withdraw",
      "outputs": [],
      "stateMutability": "nonpayable",
      "type": "function"
    },
    {
      "inputs": [
        {
          "internalType": "uint256",
          "name": "_shares",
          "type": "uint256"
        }
      ],
      "name": "withdrawAndClaim",
      "outputs": [],
      "stateMutability": "nonpayable",
      "type": "function"
    },
    {
      "inputs": [],
      "name": "withdrawFee",
      "outputs": [
        {
          "internalType": "uint256",
          "name": "",
          "type": "uint256"
        }
      ],
      "stateMutability": "view",
      "type": "function"
    }
  ],
  "transactionHash": "0x3d5e8fa1c5bde483caac17392053dec7d178d72d8ab88d9f5ffc371d7f57423a",
  "args": [
    "veDAI-WBTC Earn Pool",
    "veDAI-WBTC",
    "0x8f3Cf7ad23Cd3CaDbD9735AFf958023239c6A063"
  ],
  "solcInputHash": "823560cd19d9e3828cc7119f3ce09956",
  "bytecode": "0x60806040523480156200001157600080fd5b5060405162004b2538038062004b2583398101604081905262000034916200025e565b828282828282828281600390805190602001906200005492919062000105565b5080516200006a90600490602084019062000105565b50505060006200007f6200010160201b60201c565b600a80546001600160a01b0319166001600160a01b038316908117909155604051919250906000907fd4459d5b8b913cab0244230fd9b1c08b6ceace7fe9230e60d0f74cbffdf849d0908290a3506001600c55600d80546001600160a01b0319166001600160a01b0392909216919091179055506200033a9650505050505050565b3390565b8280546200011390620002e7565b90600052602060002090601f01602090048101928262000137576000855562000182565b82601f106200015257805160ff191683800117855562000182565b8280016001018555821562000182579182015b828111156200018257825182559160200191906001019062000165565b506200019092915062000194565b5090565b5b8082111562000190576000815560010162000195565b600082601f830112620001bc578081fd5b81516001600160401b0380821115620001d957620001d962000324565b604051601f8301601f19908116603f0116810190828211818310171562000204576200020462000324565b8160405283815260209250868385880101111562000220578485fd5b8491505b8382101562000243578582018301518183018401529082019062000224565b838211156200025457848385830101525b9695505050505050565b60008060006060848603121562000273578283fd5b83516001600160401b03808211156200028a578485fd5b6200029887838801620001ab565b94506020860151915080821115620002ae578384fd5b50620002bd86828701620001ab565b604086015190935090506001600160a01b0381168114620002dc578182fd5b809150509250925092565b600181811c90821680620002fc57607f821691505b602082108114156200031e57634e487b7160e01b600052602260045260246000fd5b50919050565b634e487b7160e01b600052604160045260246000fd5b6147db806200034a6000396000f3fe608060405234801561001057600080fd5b506004361061039d5760003560e01c806399530b06116101eb578063daea862311610110578063fc0c546a116100a8578063fc0c546a1461085c578063fc0e74d11461086f578063fc51ab2a14610877578063fc7678101461088a578063fc7b9c1814610892578063fcfff16f1461089a578063fd967f47146108a2578063ff643a7c146108ab578063ffa1ad74146108be5761039d565b8063daea8623146107a0578063daf635de146107b3578063dd57366a146107c6578063dd62ed3e146107d9578063ddd6d26014610812578063e00af4a714610825578063e941fa7814610838578063f3b27bc314610841578063fb589de2146108495761039d565b8063b8cb343d11610183578063b8cb343d1461070b578063c01e0d4014610713578063c12d636b14610726578063c415b95c14610739578063d2c35ce81461074c578063d4c3eea01461075f578063d505accf14610767578063d53ddc261461077a578063d8baf7cf1461078d5761039d565b806399530b06146106765780639f2b28331461067e578063a457c2d714610691578063a9059cbb146106a4578063a941a90e146106b7578063b49a60bb146106ca578063b64321ec146106d2578063b6aa515b146106e5578063b6b55f25146106f85761039d565b8063448a1047116102d15780637ecebe00116102695780637ecebe00146105e95780638456cb59146106095780638bc6beb2146106115780638f15b414146106245780638fe91ffb146106375780639198c85914610640578063940c408214610653578063951dc22c1461066657806395d89b411461066e5761039d565b8063448a1047146105315780634938649a1461054457806349eeb860146105585780634a970be7146105605780635c975abb146105735780636b453c1f146105875780636ba42aaa1461059a5780636cb56d19146105ad57806370a08231146105c05761039d565b8063228bfd9f11610344578063228bfd9f1461046557806323b872dd146104be5780632df9eab9146104d15780632e1a7d4d146104d9578063313ce567146104ec5780633644e515146104fb57806339509351146105035780633f4ba83a146105165780634032b72b1461051e5761039d565b806305bed046146103a257806306fdde03146103b7578063095ea7b3146103d55780630c340a24146103f8578063111830521461041857806314ae9f2e1461042d57806318160ddd146104405780631e89d54514610452575b600080fd5b6103b56103b0366004614264565b6108e2565b005b6103bf610a88565b6040516103cc91906143b6565b60405180910390f35b6103e86103e3366004613fdd565b610b1b565b60405190151581526020016103cc565b600a5461040b906001600160a01b031681565b6040516103cc919061433c565b610420610b32565b6040516103cc9190614369565b6103b561043b366004613ebd565b610bb8565b6002545b6040519081526020016103cc565b6103e8610460366004614008565b610c46565b610478610473366004613ebd565b610d48565b604080519915158a5260208a0198909852968801959095526060870193909352608086019190915260a085015260c084015260e0830152610100820152610120016103cc565b6103e86104cc366004613f2d565b610df9565b610444610eac565b6103b56104e7366004614234565b610f29565b604051601281526020016103cc565b610444610f96565b6103e8610511366004613fdd565b610fa0565b6103b5610fd7565b6103b561052c366004613ebd565b61101a565b6103b561053f366004614234565b611097565b600b546103e890600160a81b900460ff1681565b6104206110f2565b6103b561056e3660046142bc565b6110fe565b600b546103e890600160a01b900460ff1681565b6103b5610595366004613ebd565b6111fb565b6103e86105a8366004613ebd565b61123f565b6103b56105bb366004613ef5565b611254565b6104446105ce366004613ebd565b6001600160a01b031660009081526020819052604090205490565b6104446105f7366004613ebd565b60096020526000908152604090205481565b6103b5611493565b600f5461040b906001600160a01b031681565b6103b56106323660046141ae565b6114d4565b61044460155481565b6103b561064e366004613ebd565b611550565b6103b5610661366004613ebd565b611594565b61042061165b565b6103bf611667565b610444611676565b61044461068c366004613ebd565b6116d6565b6103e861069f366004613fdd565b611757565b6103e86106b2366004613fdd565b6117f2565b6103b56106c5366004614234565b6117ff565b61042061185a565b6104446106e0366004613ebd565b61189f565b6103b56106f3366004613ebd565b6118d0565b6103b5610706366004614234565b61196e565b6104446119d2565b610444610721366004614234565b611a1b565b600e5461040b906001600160a01b031681565b60135461040b906001600160a01b031681565b6103b561075a366004613ebd565b611b08565b610444611bcf565b6103b5610775366004613f6d565b611c69565b610444610788366004613ebd565b611e29565b6103b561079b366004613ebd565b611e5a565b6103e86107ae366004613ebd565b611e9e565b6103b56107c1366004614234565b611eab565b6103e86107d4366004613ebd565b611f96565b6104446107e7366004613ef5565b6001600160a01b03918216600090815260016020908152604080832093909416825291909152205490565b6103b5610820366004614234565b611fa3565b6103b5610833366004613ebd565b61200a565b61044460145481565b6103b5612168565b610444610857366004614234565b612224565b600d5461040b906001600160a01b031681565b6103b5612234565b6103b5610885366004613ebd565b612275565b6104206122b9565b6104446122c5565b6103b561230a565b61044461271081565b6103b56108b9366004614234565b61234b565b6103bf604051806040016040528060058152602001640342e302e360dc1b81525081565b600e54600090819081906001600160a01b031663a066654b336040516001600160e01b031960e084901b1681526001600160a01b039091166004820152602481018990526044810188905260648101879052608401606060405180830381600087803b15801561095157600080fd5b505af1158015610965573d6000803e3d6000fd5b505050506040513d601f19601f82011682018060405250810190610989919061428f565b91945092509050600061099c8488614531565b9050828110156109cc576109c7336109b4838661469c565b600d546001600160a01b0316919061242d565b6109f7565b828111156109f7576109f733306109e3868561469c565b600d546001600160a01b0316929190612488565b8115610a7f57610a7f336001600160a01b031663c415b95c6040518163ffffffff1660e01b815260040160206040518083038186803b158015610a3957600080fd5b505afa158015610a4d573d6000803e3d6000fd5b505050506040513d601f19601f82011682018060405250810190610a719190613ed9565b610a7a846124c6565b61252b565b50505050505050565b606060038054610a97906146df565b80601f0160208091040260200160405190810160405280929190818152602001828054610ac3906146df565b8015610b105780601f10610ae557610100808354040283529160200191610b10565b820191906000526020600020905b815481529060010190602001808311610af357829003601f168201915b505050505090505b90565b6000610b283384846125f8565b5060015b92915050565b600e546040805163088c182960e11b815290516060926001600160a01b0316916311183052916004808301926000929190829003018186803b158015610b7757600080fd5b505afa158015610b8b573d6000803e3d6000fd5b505050506040513d6000823e601f3d908101601f19168201604052610bb39190810190614071565b905090565b600a546001600160a01b0316331480610bd95750610bd9335b60199061271d565b610bfe5760405162461bcd60e51b8152600401610bf590614437565b60405180910390fd5b610c0960198261273f565b604051806040016040528060028152602001610c4d60f21b81525090610c425760405162461bcd60e51b8152600401610bf591906143b6565b5050565b6040805180820190915260018152600d60fa1b6020820152600090848314610c815760405162461bcd60e51b8152600401610bf591906143b6565b5060005b84811015610d3c57610cf1868683818110610cb057634e487b7160e01b600052603260045260246000fd5b9050602002016020810190610cc59190613ebd565b858584818110610ce557634e487b7160e01b600052603260045260246000fd5b905060200201356117f2565b604051806040016040528060018152602001601b60f91b81525090610d295760405162461bcd60e51b8152600401610bf591906143b6565b5080610d348161471a565b915050610c85565b50600195945050505050565b600e5460405163228bfd9f60e01b8152600091829182918291829182918291829182916001600160a01b03169063228bfd9f90610d89908d9060040161433c565b6101206040518083038186803b158015610da257600080fd5b505afa158015610db6573d6000803e3d6000fd5b505050506040513d601f19601f82011682018060405250810190610dda919061413f565b9850985098509850985098509850985098509193959799909294969850565b6000610e06848484612754565b6001600160a01b038416600090815260016020908152604080832033845290915290205482811015610e8b5760405162461bcd60e51b815260206004820152602860248201527f45524332303a207472616e7366657220616d6f756e74206578636565647320616044820152676c6c6f77616e636560c01b6064820152608401610bf5565b610e9f8533610e9a868561469c565b6125f8565b60019150505b9392505050565b600e5460408051632df9eab960e01b815290516000926001600160a01b031691632df9eab9916004808301926020929190829003018186803b158015610ef157600080fd5b505afa158015610f05573d6000803e3d6000fd5b505050506040513d601f19601f82011682018060405250810190610bb3919061424c565b6002600c541415610f4c5760405162461bcd60e51b8152600401610bf59061447f565b6002600c55600b54600160a81b900460ff1615610f7b5760405162461bcd60e51b8152600401610bf59061445d565b610f85335b612835565b610f8e81612876565b506001600c55565b6000610bb36129d6565b3360008181526001602090815260408083206001600160a01b03871684529091528120549091610b28918590610e9a908690614531565b600a546001600160a01b0316331480610ff45750610ff433610bd1565b6110105760405162461bcd60e51b8152600401610bf590614437565b611018612a53565b565b600a546001600160a01b0316331480611037575061103733610bd1565b6110535760405162461bcd60e51b8152600401610bf590614437565b61105e601982612b0a565b60405180604001604052806002815260200161313360f01b81525090610c425760405162461bcd60e51b8152600401610bf591906143b6565b6002600c5414156110ba5760405162461bcd60e51b8152600401610bf59061447f565b6002600c55600b54600160a81b900460ff16156110e95760405162461bcd60e51b8152600401610bf59061445d565b610f8e81612b1f565b6060610bb3601b612b31565b6002600c5414156111215760405162461bcd60e51b8152600401610bf59061447f565b6002600c55600b54600160a01b900460ff16156111505760405162461bcd60e51b8152600401610bf5906144b6565b600d546001600160a01b031663d505accf336040516001600160e01b031960e084901b1681526001600160a01b039091166004820152306024820152604481018890526064810187905260ff8616608482015260a4810185905260c4810184905260e401600060405180830381600087803b1580156111ce57600080fd5b505af11580156111e2573d6000803e3d6000fd5b505050506111ef85612b3e565b50506001600c55505050565b600a546001600160a01b0316331480611218575061121833610bd1565b6112345760405162461bcd60e51b8152600401610bf590614437565b61105e601b82612b0a565b600061124c60198361271d565b90505b919050565b600a546001600160a01b0316331461127e5760405162461bcd60e51b8152600401610bf5906144d6565b306001600160a01b0316816001600160a01b03166316f0115b6040518163ffffffff1660e01b815260040160206040518083038186803b1580156112c157600080fd5b505afa1580156112d5573d6000803e3d6000fd5b505050506040513d601f19601f820116820180604052508101906112f99190613ed9565b6001600160a01b03161480156113905750306001600160a01b0316826001600160a01b03166316f0115b6040518163ffffffff1660e01b815260040160206040518083038186803b15801561134d57600080fd5b505afa158015611361573d6000803e3d6000fd5b505050506040513d601f19601f820116820180604052508101906113859190613ed9565b6001600160a01b0316145b60405180604001604052806002815260200161313760f01b815250906113c95760405162461bcd60e51b8152600401610bf591906143b6565b50600e54604051636cb56d1960e01b81526001600160a01b038481166004830152838116602483015290911690636cb56d1990604401600060405180830381600087803b15801561141957600080fd5b505af115801561142d573d6000803e3d6000fd5b505060405163ce5494bb60e01b81526001600160a01b038516925063ce5494bb915061145d90849060040161433c565b600060405180830381600087803b15801561147757600080fd5b505af115801561148b573d6000803e3d6000fd5b505050505050565b600a546001600160a01b03163314806114b057506114b033610bd1565b6114cc5760405162461bcd60e51b8152600401610bf590614437565b611018612b9d565b600554610100900460ff16806114ed575060055460ff16155b6115095760405162461bcd60e51b8152600401610bf5906143e9565b600554610100900460ff1615801561152b576005805461ffff19166101011790555b61153785858585612c02565b8015611549576005805461ff00191690555b5050505050565b600a546001600160a01b031633148061156d575061156d33610bd1565b6115895760405162461bcd60e51b8152600401610bf590614437565b61105e601782612b0a565b600a546001600160a01b031633146115be5760405162461bcd60e51b8152600401610bf5906144d6565b604080518082019091526002815261031360f41b60208201526001600160a01b0382166115fe5760405162461bcd60e51b8152600401610bf591906143b6565b50600f546040516001600160a01b038084169216907fe239974dad08ac696e723caf1886bd0b5afc0870088f9a1266082757f824927690600090a3600f80546001600160a01b0319166001600160a01b0392909216919091179055565b6060610bb36019612b31565b606060048054610a97906146df565b600061168160025490565b15806116925750611690611bcf565b155b156116af576116a8670de0b6b3a7640000612224565b9050610b18565b6002546116ba611bcf565b6116cc90670de0b6b3a764000061467d565b610bb39190614549565b600e54604051639f2b283360e01b81526000916001600160a01b031690639f2b28339061170790859060040161433c565b60206040518083038186803b15801561171f57600080fd5b505afa158015611733573d6000803e3d6000fd5b505050506040513d601f19601f8201168201806040525081019061124c919061424c565b3360009081526001602090815260408083206001600160a01b0386168452909152812054828110156117d95760405162461bcd60e51b815260206004820152602560248201527f45524332303a2064656372656173656420616c6c6f77616e63652062656c6f77604482015264207a65726f60d81b6064820152608401610bf5565b6117e83385610e9a868561469c565b5060019392505050565b6000610b28338484612754565b6002600c5414156118225760405162461bcd60e51b8152600401610bf59061447f565b6002600c55600b54600160a01b900460ff16156118515760405162461bcd60e51b8152600401610bf5906144b6565b610f8e81612d6a565b600e546040805163b49a60bb60e01b815290516060926001600160a01b03169163b49a60bb916004808301926000929190829003018186803b158015610b7757600080fd5b600e54604051632d90c87b60e21b81526000916001600160a01b03169063b64321ec9061170790859060040161433c565b600a546001600160a01b031633146118fa5760405162461bcd60e51b8152600401610bf5906144d6565b6001600160a01b03811661194c5760405162461bcd60e51b815260206004820152601960248201527870726f706f7365642d676f7665726e6f722d69732d7a65726f60381b6044820152606401610bf5565b600b80546001600160a01b0319166001600160a01b0392909216919091179055565b6002600c5414156119915760405162461bcd60e51b8152600401610bf59061447f565b6002600c55600b54600160a01b900460ff16156119c05760405162461bcd60e51b8152600401610bf5906144b6565b6119c933610f80565b610f8e81612b3e565b600d546040516370a0823160e01b81526000916001600160a01b0316906370a0823190611a0390309060040161433c565b60206040518083038186803b158015610ef157600080fd5b6040805180820190915260018152603160f81b602082015260009082611a545760405162461bcd60e51b8152600401610bf591906143b6565b506000612710600e60009054906101000a90046001600160a01b03166001600160a01b031663346162d56040518163ffffffff1660e01b815260040160206040518083038186803b158015611aa857600080fd5b505afa158015611abc573d6000803e3d6000fd5b505050506040513d601f19601f82011682018060405250810190611ae0919061424c565b611aea908561467d565b611af49190614549565b9050610ea5611b03828561469c565b6124c6565b600a546001600160a01b03163314611b325760405162461bcd60e51b8152600401610bf5906144d6565b604080518082019091526002815261031360f41b60208201526001600160a01b038216611b725760405162461bcd60e51b8152600401610bf591906143b6565b506013546040516001600160a01b038084169216907f0f06062680f9bd68e786e9980d9bb03d73d5620fc3b345e417b6eacb310b970690600090a3601380546001600160a01b0319166001600160a01b0392909216919091179055565b6000611bd96119d2565b600e60009054906101000a90046001600160a01b03166001600160a01b031663fc7b9c186040518163ffffffff1660e01b815260040160206040518083038186803b158015611c2757600080fd5b505afa158015611c3b573d6000803e3d6000fd5b505050506040513d601f19601f82011682018060405250810190611c5f919061424c565b610bb39190614531565b83421115611cb95760405162461bcd60e51b815260206004820152601d60248201527f45524332305065726d69743a206578706972656420646561646c696e650000006044820152606401610bf5565b6001600160a01b0387811660008181526009602090815260408083205481517f6e71edae12b1b97f4d1f60370fef10105fa2faae0126114a169c64845d6126c98185015280830195909552948b166060850152608084018a905260a0840185905260c08085018a90528151808603909101815260e09094019052825192019190912090611d446129d6565b60405161190160f01b60208201526022810191909152604281018390526062016040516020818303038152906040528051906020012090506000611d8a82888888612d7c565b90508a6001600160a01b0316816001600160a01b031614611ded5760405162461bcd60e51b815260206004820152601e60248201527f45524332305065726d69743a20696e76616c6964207369676e617475726500006044820152606401610bf5565b611df8846001614531565b6001600160a01b038c16600090815260096020526040902055611e1c8b8b8b6125f8565b5050505050505050505050565b600e54604051636a9eee1360e11b81526000916001600160a01b03169063d53ddc269061170790859060040161433c565b600a546001600160a01b0316331480611e775750611e7733610bd1565b611e935760405162461bcd60e51b8152600401610bf590614437565b610c09601b8261273f565b600061124c60178361271d565b600a546001600160a01b03163314611ed55760405162461bcd60e51b8152600401610bf5906144d6565b6013546040805180820190915260018152603760f81b6020820152906001600160a01b0316611f175760405162461bcd60e51b8152600401610bf591906143b6565b50604080518082019091526002815261313160f01b6020820152612710821115611f545760405162461bcd60e51b8152600401610bf591906143b6565b5060145460408051918252602082018390527f2bf847f5692332004b0f69e0d84a8f85ed020bcf8573b3ede68afc92009965bf910160405180910390a1601455565b600061124c601b8361271d565b801561200757600e546001600160a01b0316637f13086e33836040518363ffffffff1660e01b8152600401611fd9929190614350565b600060405180830381600087803b158015611ff357600080fd5b505af1158015611549573d6000803e3d6000fd5b50565b600a546001600160a01b0316331480612027575061202733610bd1565b6120435760405162461bcd60e51b8152600401610bf590614437565b600d546040805180820190915260018152600760fb1b6020820152906001600160a01b038381169116141561208b5760405162461bcd60e51b8152600401610bf591906143b6565b506013546040805180820190915260018152603760f81b6020820152906001600160a01b03166120ce5760405162461bcd60e51b8152600401610bf591906143b6565b506013546040516370a0823160e01b8152612007916001600160a01b0390811691908416906370a082319061210790309060040161433c565b60206040518083038186803b15801561211f57600080fd5b505afa158015612133573d6000803e3d6000fd5b505050506040513d601f19601f82011682018060405250810190612157919061424c565b6001600160a01b038416919061242d565b600b546001600160a01b031633146121be5760405162461bcd60e51b81526020600482015260196024820152783737ba16ba343296b83937b837b9b2b216b3b7bb32b93737b960391b6044820152606401610bf5565b600b54600a546040516001600160a01b0392831692909116907fd4459d5b8b913cab0244230fd9b1c08b6ceace7fe9230e60d0f74cbffdf849d090600090a3600b8054600a80546001600160a01b03199081166001600160a01b03841617909155169055565b60006015548261124c9190614549565b600a546001600160a01b0316331480612251575061225133610bd1565b61226d5760405162461bcd60e51b8152600401610bf590614437565b611018612f16565b600a546001600160a01b0316331480612292575061229233610bd1565b6122ae5760405162461bcd60e51b8152600401610bf590614437565b610c0960178261273f565b6060610bb36017612b31565b600e5460408051631f8f738360e31b815290516000926001600160a01b03169163fc7b9c18916004808301926020929190829003018186803b158015610ef157600080fd5b600a546001600160a01b0316331480612327575061232733610bd1565b6123435760405162461bcd60e51b8152600401610bf590614437565b611018612f7d565b6002600c54141561236e5760405162461bcd60e51b8152600401610bf59061447f565b6002600c55600b54600160a81b900460ff161561239d5760405162461bcd60e51b8152600401610bf59061445d565b6123aa335b60179061271d565b604051806040016040528060018152602001603560f81b815250906123e25760405162461bcd60e51b8152600401610bf591906143b6565b506040805180820190915260018152601960f91b6020820152816124195760405162461bcd60e51b8152600401610bf591906143b6565b50612424335b612ff9565b610f8e8161303a565b6124838363a9059cbb60e01b848460405160240161244c929190614350565b60408051601f198184030181529190526020810180516001600160e01b03166001600160e01b0319909316929092179091526130c3565b505050565b6040516001600160a01b03808516602483015283166044820152606481018290526124c09085906323b872dd60e01b9060840161244c565b50505050565b6000806124d1611676565b6124e384670de0b6b3a764000061467d565b6124ed9190614549565b9050670de0b6b3a7640000612500611676565b61250a908361467d565b6125149190614549565b83116125205780610ea5565b610ea5816001614531565b6001600160a01b0382166125815760405162461bcd60e51b815260206004820152601f60248201527f45524332303a206d696e7420746f20746865207a65726f2061646472657373006044820152606401610bf5565b80600260008282546125939190614531565b90915550506001600160a01b038216600090815260208190526040812080548392906125c0908490614531565b90915550506040518181526001600160a01b038316906000906000805160206147868339815191529060200160405180910390a35050565b6001600160a01b03831661265a5760405162461bcd60e51b8152602060048201526024808201527f45524332303a20617070726f76652066726f6d20746865207a65726f206164646044820152637265737360e01b6064820152608401610bf5565b6001600160a01b0382166126bb5760405162461bcd60e51b815260206004820152602260248201527f45524332303a20617070726f766520746f20746865207a65726f206164647265604482015261737360f01b6064820152608401610bf5565b6001600160a01b0383811660008181526001602090815260408083209487168084529482529182902085905590518481527f8c5be1e5ebec7d5bd14f71427d1e84f3dd0314c0f7b2291e5b200ac8c7c3b92591015b60405180910390a3505050565b6001600160a01b03811660009081526001830160205260408120541515610ea5565b6000610ea5836001600160a01b038416613195565b600f546001600160a01b03161561282a57600f5460405163632447c960e01b81526001600160a01b039091169063632447c99061279590869060040161433c565b600060405180830381600087803b1580156127af57600080fd5b505af11580156127c3573d6000803e3d6000fd5b5050600f5460405163632447c960e01b81526001600160a01b03909116925063632447c991506127f790859060040161433c565b600060405180830381600087803b15801561281157600080fd5b505af1158015612825573d6000803e3d6000fd5b505050505b6124838383836132b2565b600f546001600160a01b03161561200757600f5460405163632447c960e01b81526001600160a01b039091169063632447c990611fd990849060040161433c565b6040805180820190915260018152601960f91b6020820152816128ac5760405162461bcd60e51b8152600401610bf591906143b6565b5060145415806128c057506128c0336123a2565b156128d3576128ce8161303a565b612007565b6000612710601454836128e6919061467d565b6128f09190614549565b905060006128fe828461469c565b9050600061290b82613478565b90506000612918826124c6565b905061292383612224565b61292c82612224565b1015612969576014546129419061271061469c565b61294d6127108361467d565b6129579190614549565b9450612963818661469c565b93508092505b612974335b84613523565b61298a336013546001600160a01b031686612754565b61299382613660565b50604080518681526020810184905233917ff279e6a1f5e320cca91135676d9cb6e44ca8a08c0b88342bcdb1144f6511b568910160405180910390a25050505050565b60006008544614156129eb5750600654610b18565b6007546040805180820190915260018152603160f81b6020909101526116a8907f8b73c3c69bb8fe3d512ecc4cf759cc79239f7b179b0ffacaa9a75d522b39400f907fc89efdaa54c0f20c7adf612882df0950f5a951637e0307cdcb4c672f298b8bc661367d565b600b54600160a01b900460ff16612a995760405162461bcd60e51b815260206004820152600a6024820152691b9bdd0b5c185d5cd95960b21b6044820152606401610bf5565b600b54600160a81b900460ff1615612ac35760405162461bcd60e51b8152600401610bf59061445d565b600b805460ff60a01b191690557f5db9ee0a495bf2e6ff9c91a7834c1ba4fdd244a5e8aa4e537bd38aeae4b073aa335b604051612b00919061433c565b60405180910390a1565b6000610ea5836001600160a01b0384166136c6565b612b283361241f565b61200781612876565b60606000610ea583613715565b6000612b4982611a1b565b9050612b5482613771565b612b5e338261252b565b604080518281526020810184905233917f90890809c654f11d6e72a28fa60149770a0d11ec6c92319d6ceb2bb0a4ea1a15910160405180910390a25050565b600b54600160a01b900460ff1615612bc75760405162461bcd60e51b8152600401610bf5906144b6565b600b805460ff60a01b1916600160a01b1790557f62e78cea01bee320cd4e420270b5ea74000d11b0c9f74754ebdbfc544b05a258612af33390565b600554610100900460ff1680612c1b575060055460ff16155b612c375760405162461bcd60e51b8152600401610bf5906143e9565b600554610100900460ff16158015612c59576005805461ffff19166101011790555b604080518082019091526002815261031360f41b60208201526001600160a01b038316612c995760405162461bcd60e51b8152600401610bf591906143b6565b50612ca5858585613789565b612cad613901565b612cb8601933612b0a565b60405180604001604052806002815260200161313360f01b81525090612cf15760405162461bcd60e51b8152600401610bf591906143b6565b50612cfd601b33612b0a565b60405180604001604052806002815260200161313360f01b81525090612d365760405162461bcd60e51b8152600401610bf591906143b6565b50600e80546001600160a01b0319166001600160a01b0384161790558015611549576005805461ff00191690555050505050565b612d733361241f565b61200781612b3e565b60006fa2a8918ca85bafe22016d0b997e4df60600160ff1b03821115612def5760405162461bcd60e51b815260206004820152602260248201527f45434453413a20696e76616c6964207369676e6174757265202773272076616c604482015261756560f01b6064820152608401610bf5565b8360ff16601b1480612e0457508360ff16601c145b612e5b5760405162461bcd60e51b815260206004820152602260248201527f45434453413a20696e76616c6964207369676e6174757265202776272076616c604482015261756560f01b6064820152608401610bf5565b6040805160008082526020820180845288905260ff871692820192909252606081018590526080810184905260019060a0016020604051602081039080840390855afa158015612eaf573d6000803e3d6000fd5b5050604051601f1901519150506001600160a01b038116612f0d5760405162461bcd60e51b815260206004820152601860248201527745434453413a20696e76616c6964207369676e617475726560401b6044820152606401610bf5565b95945050505050565b600b54600160a81b900460ff1615612f405760405162461bcd60e51b8152600401610bf59061445d565b600b805461ffff60a01b191661010160a01b1790557f28b4c24cb1012c094cd2f59f98e89d791973295f8fda6eaa118022d6d318960a612af33390565b600b54600160a81b900460ff16612fc55760405162461bcd60e51b815260206004820152600c60248201526b3737ba16b9b43aba3237bbb760a11b6044820152606401610bf5565b600b805460ff60a81b191690557fece7583a70a505ef0e36d4dec768f5ae597713e09c26011022599ee01abdabfc33612af3565b600f546001600160a01b03161561200757600f5460405163d279c19160e01b81526001600160a01b039091169063d279c19190611fd990849060040161433c565b600061304582613478565b90506000613052826124c6565b905061305d83612224565b61306682612224565b1015613070578092505b6130793361296e565b61308282613660565b50604080518481526020810184905233917ff279e6a1f5e320cca91135676d9cb6e44ca8a08c0b88342bcdb1144f6511b568910160405180910390a2505050565b6000613118826040518060400160405280602081526020017f5361666545524332303a206c6f772d6c6576656c2063616c6c206661696c6564815250856001600160a01b03166139af9092919063ffffffff16565b80519091501561248357808060200190518101906131369190614125565b6124835760405162461bcd60e51b815260206004820152602a60248201527f5361666545524332303a204552433230206f7065726174696f6e20646964206e6044820152691bdd081cdd58d8d9595960b21b6064820152608401610bf5565b600081815260018301602052604081205480156132a85760006131b960018361469c565b85549091506000906131cd9060019061469c565b905081811461324e5760008660000182815481106131fb57634e487b7160e01b600052603260045260246000fd5b906000526020600020015490508087600001848154811061322c57634e487b7160e01b600052603260045260246000fd5b6000918252602080832090910192909255918252600188019052604090208390555b855486908061326d57634e487b7160e01b600052603160045260246000fd5b600190038181906000526020600020016000905590558560010160008681526020019081526020016000206000905560019350505050610b2c565b6000915050610b2c565b6001600160a01b0383166133165760405162461bcd60e51b815260206004820152602560248201527f45524332303a207472616e736665722066726f6d20746865207a65726f206164604482015264647265737360d81b6064820152608401610bf5565b6001600160a01b0382166133785760405162461bcd60e51b815260206004820152602360248201527f45524332303a207472616e7366657220746f20746865207a65726f206164647260448201526265737360e81b6064820152608401610bf5565b6001600160a01b038316600090815260208190526040902054818110156133f05760405162461bcd60e51b815260206004820152602660248201527f45524332303a207472616e7366657220616d6f756e7420657863656564732062604482015265616c616e636560d01b6064820152608401610bf5565b6133fa828261469c565b6001600160a01b038086166000908152602081905260408082209390935590851681529081208054849290613430908490614531565b92505081905550826001600160a01b0316846001600160a01b03166000805160206147868339815191528460405161346a91815260200190565b60405180910390a350505050565b600080670de0b6b3a764000061348c611676565b613496908561467d565b6134a09190614549565b905060006134ac6119d2565b9050808211156134d3576134c86134c3828461469c565b6139c6565b6134d06119d2565b90505b8181106134e057816134e2565b805b6040805180820190915260018152603160f81b60208201529093508361351b5760405162461bcd60e51b8152600401610bf591906143b6565b505050919050565b6001600160a01b0382166135835760405162461bcd60e51b815260206004820152602160248201527f45524332303a206275726e2066726f6d20746865207a65726f206164647265736044820152607360f81b6064820152608401610bf5565b6001600160a01b038216600090815260208190526040902054818110156135f75760405162461bcd60e51b815260206004820152602260248201527f45524332303a206275726e20616d6f756e7420657863656564732062616c616e604482015261636560f01b6064820152608401610bf5565b613601828261469c565b6001600160a01b0384166000908152602081905260408120919091556002805484929061362f90849061469c565b90915550506040518281526000906001600160a01b0385169060008051602061478683398151915290602001612710565b600061367933600d546001600160a01b0316908461242d565b5090565b6040805160208101859052908101839052606081018290524660808201523060a082015260009060c0016040516020818303038152906040528051906020012090509392505050565b600081815260018301602052604081205461370d57508154600181810184556000848152602080822090930184905584548482528286019093526040902091909155610b2c565b506000610b2c565b60608160000180548060200260200160405190810160405280929190818152602001828054801561376557602002820191906000526020600020905b815481526020019060010190808311613751575b50505050509050919050565b61200733600d546001600160a01b0316903084612488565b600554610100900460ff16806137a2575060055460ff16155b6137be5760405162461bcd60e51b8152600401610bf5906143e9565b600554610100900460ff161580156137e0576005805461ffff19166101011790555b604080518082019091526002815261031360f41b60208201526001600160a01b0383166138205760405162461bcd60e51b8152600401610bf591906143b6565b5061382a84613b62565b61383383613b75565b61383c84613b88565b600d80546001600160a01b0319166001600160a01b0384169081179091556040805163313ce56760e01b815290516000929163313ce567916004808301926020929190829003018186803b15801561389357600080fd5b505afa1580156138a7573d6000803e3d6000fd5b505050506040513d601f19601f820116820180604052508101906138cb9190614304565b60ff1690506138db81601261469c565b6138e690600a6145af565b6015555080156124c0576005805461ff001916905550505050565b600554610100900460ff168061391a575060055460ff16155b6139365760405162461bcd60e51b8152600401610bf5906143e9565b600554610100900460ff16158015613958576005805461ffff19166101011790555b600a80546001600160a01b0319163390811790915560405181906000907fd4459d5b8b913cab0244230fd9b1c08b6ceace7fe9230e60d0f74cbffdf849d0908290a3508015612007576005805461ff001916905550565b60606139be8484600085613c07565b949350505050565b6000806000806000806139d7610b32565b805190915060005b81811015613b575760006139f3858b61469c565b90506000848381518110613a1757634e487b7160e01b600052603260045260246000fd5b60200260200101519050613a2a816116d6565b995089613a38575050613b45565b89821115613a44578991505b613a4c6119d2565b604051632e1a7d4d60e01b8152600481018490529098506001600160a01b03821690632e1a7d4d90602401600060405180830381600087803b158015613a9157600080fd5b505af1925050508015613aa2575060015b613aad575050613b45565b613ab56119d2565b9850613ac1888a61469c565b600e54604051632fb9ba3160e01b81529198506001600160a01b031690632fb9ba3190613af49084908b90600401614350565b600060405180830381600087803b158015613b0e57600080fd5b505af1158015613b22573d6000803e3d6000fd5b505050508686613b329190614531565b95508a8610613b42575050613b57565b50505b80613b4f8161471a565b9150506139df565b505050505050505050565b8051610c42906003906020840190613d68565b8051610c42906004906020840190613d68565b80516020808301919091206007819055466008556040805180820190915260018152603160f81b920191909152613c01907f8b73c3c69bb8fe3d512ecc4cf759cc79239f7b179b0ffacaa9a75d522b39400f907fc89efdaa54c0f20c7adf612882df0950f5a951637e0307cdcb4c672f298b8bc661367d565b60065550565b606082471015613c685760405162461bcd60e51b815260206004820152602660248201527f416464726573733a20696e73756666696369656e742062616c616e636520666f6044820152651c8818d85b1b60d21b6064820152608401610bf5565b843b613cb65760405162461bcd60e51b815260206004820152601d60248201527f416464726573733a2063616c6c20746f206e6f6e2d636f6e74726163740000006044820152606401610bf5565b600080866001600160a01b03168587604051613cd29190614320565b60006040518083038185875af1925050503d8060008114613d0f576040519150601f19603f3d011682016040523d82523d6000602084013e613d14565b606091505b5091509150613d24828286613d2f565b979650505050505050565b60608315613d3e575081610ea5565b825115613d4e5782518084602001fd5b8160405162461bcd60e51b8152600401610bf591906143b6565b828054613d74906146df565b90600052602060002090601f016020900481019282613d965760008555613ddc565b82601f10613daf57805160ff1916838001178555613ddc565b82800160010185558215613ddc579182015b82811115613ddc578251825591602001919060010190613dc1565b506136799291505b808211156136795760008155600101613de4565b60008083601f840112613e09578182fd5b50813567ffffffffffffffff811115613e20578182fd5b6020830191508360208260051b8501011115613e3b57600080fd5b9250929050565b8051801515811461124f57600080fd5b600082601f830112613e62578081fd5b813567ffffffffffffffff811115613e7c57613e7c61474b565b613e8f601f8201601f1916602001614500565b818152846020838601011115613ea3578283fd5b816020850160208301379081016020019190915292915050565b600060208284031215613ece578081fd5b8135610ea581614761565b600060208284031215613eea578081fd5b8151610ea581614761565b60008060408385031215613f07578081fd5b8235613f1281614761565b91506020830135613f2281614761565b809150509250929050565b600080600060608486031215613f41578081fd5b8335613f4c81614761565b92506020840135613f5c81614761565b929592945050506040919091013590565b600080600080600080600060e0888a031215613f87578283fd5b8735613f9281614761565b96506020880135613fa281614761565b955060408801359450606088013593506080880135613fc081614776565b9699959850939692959460a0840135945060c09093013592915050565b60008060408385031215613fef578182fd5b8235613ffa81614761565b946020939093013593505050565b6000806000806040858703121561401d578384fd5b843567ffffffffffffffff80821115614034578586fd5b61404088838901613df8565b90965094506020870135915080821115614058578384fd5b5061406587828801613df8565b95989497509550505050565b60006020808385031215614083578182fd5b825167ffffffffffffffff8082111561409a578384fd5b818501915085601f8301126140ad578384fd5b8151818111156140bf576140bf61474b565b8060051b91506140d0848301614500565b8181528481019084860184860187018a10156140ea578788fd5b8795505b83861015614118578051945061410385614761565b848352600195909501949186019186016140ee565b5098975050505050505050565b600060208284031215614136578081fd5b610ea582613e42565b60008060008060008060008060006101208a8c03121561415d578283fd5b6141668a613e42565b985060208a0151975060408a0151965060608a0151955060808a0151945060a08a0151935060c08a0151925060e08a015191506101008a015190509295985092959850929598565b600080600080608085870312156141c3578182fd5b843567ffffffffffffffff808211156141da578384fd5b6141e688838901613e52565b955060208701359150808211156141fb578384fd5b5061420887828801613e52565b935050604085013561421981614761565b9150606085013561422981614761565b939692955090935050565b600060208284031215614245578081fd5b5035919050565b60006020828403121561425d578081fd5b5051919050565b600080600060608486031215614278578081fd5b505081359360208301359350604090920135919050565b6000806000606084860312156142a3578081fd5b8351925060208401519150604084015190509250925092565b600080600080600060a086880312156142d3578283fd5b853594506020860135935060408601356142ec81614776565b94979396509394606081013594506080013592915050565b600060208284031215614315578081fd5b8151610ea581614776565b600082516143328184602087016146b3565b9190910192915050565b6001600160a01b0391909116815260200190565b6001600160a01b03929092168252602082015260400190565b6020808252825182820181905260009190848201906040850190845b818110156143aa5783516001600160a01b031683529284019291840191600101614385565b50909695505050505050565b60006020825282518060208401526143d58160408501602087016146b3565b601f01601f19169190910160400192915050565b6020808252602e908201527f496e697469616c697a61626c653a20636f6e747261637420697320616c72656160408201526d191e481a5b9a5d1a585b1a5e995960921b606082015260800190565b6020808252600c908201526b3737ba16b096b5b2b2b832b960a11b604082015260600190565b60208082526008908201526739b43aba3237bbb760c11b604082015260600190565b6020808252601f908201527f5265656e7472616e637947756172643a207265656e7472616e742063616c6c00604082015260600190565b6020808252600690820152651c185d5cd95960d21b604082015260600190565b60208082526010908201526f3737ba16ba343296b3b7bb32b93737b960811b604082015260600190565b604051601f8201601f1916810167ffffffffffffffff811182821017156145295761452961474b565b604052919050565b6000821982111561454457614544614735565b500190565b60008261456457634e487b7160e01b81526012600452602481fd5b500490565b80825b600180861161457b57506145a6565b81870482111561458d5761458d614735565b8086161561459a57918102915b9490941c93800261456c565b94509492505050565b6000610ea560001984846000826145c857506001610ea5565b816145d557506000610ea5565b81600181146145eb57600281146145f557614622565b6001915050610ea5565b60ff84111561460657614606614735565b6001841b91508482111561461c5761461c614735565b50610ea5565b5060208310610133831016604e8410600b8410161715614655575081810a8381111561465057614650614735565b610ea5565b6146628484846001614569565b80860482111561467457614674614735565b02949350505050565b600081600019048311821515161561469757614697614735565b500290565b6000828210156146ae576146ae614735565b500390565b60005b838110156146ce5781810151838201526020016146b6565b838111156124c05750506000910152565b600181811c908216806146f357607f821691505b6020821081141561471457634e487b7160e01b600052602260045260246000fd5b50919050565b600060001982141561472e5761472e614735565b5060010190565b634e487b7160e01b600052601160045260246000fd5b634e487b7160e01b600052604160045260246000fd5b6001600160a01b038116811461200757600080fd5b60ff8116811461200757600080fdfeddf252ad1be2c89b69c2b068fc378daa952ba7f163c4a11628f55a4df523b3efa2646970667358221220fe4ef54910c54ff7709c8aa52f92d36e3ebd4a86779293b689185acb8679c82a64736f6c63430008030033",
  "devdoc": {
    "kind": "dev",
    "methods": {
      "DOMAIN_SEPARATOR()": {
        "details": "See {IERC20Permit-DOMAIN_SEPARATOR}."
      },
      "acceptGovernorship()": {
        "details": "Allows new governor to accept governorship of the contract."
      },
      "addKeeper(address)": {
        "params": {
          "_keeperAddress": "keeper address to add."
        }
      },
      "addMaintainer(address)": {
        "params": {
          "_maintainerAddress": "maintainer address to add."
        }
      },
      "addToFeeWhitelist(address)": {
        "params": {
          "_addressToAdd": "Address to add in feeWhitelist."
        }
      },
      "allowance(address,address)": {
        "details": "See {IERC20-allowance}."
      },
      "approve(address,uint256)": {
        "details": "See {IERC20-approve}. Requirements: - `spender` cannot be the zero address."
      },
      "availableCreditLimit(address)": {
        "details": "Available credit limit is calculated based on current debt of pool and strategy, current debt limit of pool and strategy. credit available = min(pool's debt limit, strategy's debt limit, max debt per rebalance) when some strategy do not pay back outstanding debt, this impact credit line of other strategy if totalDebt of pool >= debtLimit of pool",
        "params": {
          "_strategy": "Strategy address"
        }
      },
      "balanceOf(address)": {
        "details": "Returns the amount of tokens owned by `account`."
      },
      "calculateMintage(uint256)": {
        "params": {
          "_amount": "Collateral amount"
        },
        "returns": {
          "_shares": "Amount of share that user will get"
        }
      },
      "convertFrom18(uint256)": {
        "details": "Convert from 18 decimals to token defined decimals."
      },
      "decimals()": {
        "details": "Returns the decimals of the token. default to 18"
      },
      "decreaseAllowance(address,uint256)": {
        "details": "Atomically decreases the allowance granted to `spender` by the caller. This is an alternative to {approve} that can be used as a mitigation for problems described in {IERC20-approve}. Emits an {Approval} event indicating the updated allowance. Requirements: - `spender` cannot be the zero address. - `spender` must have allowance for the caller of at least `subtractedValue`."
      },
      "deposit(uint256)": {
        "params": {
          "_amount": "ERC20 token amount."
        }
      },
      "depositAndClaim(uint256)": {
        "params": {
          "_amount": "ERC20 token amount."
        }
      },
      "depositWithPermit(uint256,uint256,uint8,bytes32,bytes32)": {
        "params": {
          "_amount": "ERC20 token amount.",
          "_deadline": "The time at which signature will expire",
          "_r": "Half of the ECDSA signature pair",
          "_s": "Half of the ECDSA signature pair",
          "_v": "The recovery byte of the signature"
        }
      },
      "excessDebt(address)": {
        "params": {
          "_strategy": "Address of strategy"
        }
      },
      "increaseAllowance(address,uint256)": {
        "details": "Atomically increases the allowance granted to `spender` by the caller. This is an alternative to {approve} that can be used as a mitigation for problems described in {IERC20-approve}. Emits an {Approval} event indicating the updated allowance. Requirements: - `spender` cannot be the zero address."
      },
      "migrateStrategy(address,address)": {
        "details": "Migrating strategy aka old and new strategy should be of same type.",
        "params": {
          "_new": "Address of new strategy",
          "_old": "Address of strategy being migrated"
        }
      },
      "multiTransfer(address[],uint256[])": {
        "details": "Address array and amount array are 1:1 and are in order.",
        "params": {
          "_amounts": "array of token amounts",
          "_recipients": "array of recipient addresses"
        },
        "returns": {
          "_0": "true/false"
        }
      },
      "name()": {
        "details": "Returns the name of the token."
      },
      "permit(address,address,uint256,uint256,uint8,bytes32,bytes32)": {
        "details": "See {IERC20Permit-permit}."
      },
      "pricePerShare()": {
        "details": "Return value will be in token defined decimals."
      },
      "removeFromFeeWhitelist(address)": {
        "params": {
          "_addressToRemove": "Address to remove from feeWhitelist."
        }
      },
      "removeKeeper(address)": {
        "params": {
          "_keeperAddress": "keeper address to remove."
        }
      },
      "removeMaintainer(address)": {
        "params": {
          "_maintainerAddress": "maintainer address to remove."
        }
      },
      "reportEarning(uint256,uint256,uint256)": {
        "details": "Strategy call this in regular interval.",
        "params": {
          "_loss": "Reduce debt ,also reduce debtRatio, increase loss in record.",
          "_payback": "strategy willing to payback outstanding above debtLimit. no performance fee on this amount.  when governance has reduced debtRatio of strategy, strategy will report profit and payback amount separately.",
          "_profit": "yield generated by strategy. Strategy get performance fee on this amount"
        }
      },
      "reportLoss(uint256)": {
        "details": "Some strategies pay deposit fee thus realizing loss at deposit. For example: Curve's 3pool has some slippage due to deposit of one asset in 3pool. Strategy may want report this loss instead of waiting for next rebalance.",
        "params": {
          "_loss": "Loss that strategy want to report"
        }
      },
      "sweepERC20(address)": {
        "details": "Transfer given ERC20 token to feeCollector",
        "params": {
          "_fromToken": "Token address to sweep"
        }
      },
      "symbol()": {
        "details": "Returns the symbol of the token, usually a shorter version of the name."
      },
      "tokensHere()": {
        "details": "Returns the token stored in the pool. It will be in token defined decimals."
      },
      "totalDebtOf(address)": {
        "params": {
          "_strategy": "Strategy address"
        }
      },
      "totalSupply()": {
        "details": "Returns total supply of the token."
      },
      "totalValue()": {
        "details": "Returns total value of vesper pool, in terms of collateral token"
      },
      "transfer(address,uint256)": {
        "details": "See {IERC20-transfer}. Requirements: - `recipient` cannot be the zero address. - the caller must have a balance of at least `amount`."
      },
      "transferFrom(address,address,uint256)": {
        "details": "See {IERC20-transferFrom}. Emits an {Approval} event indicating the updated allowance. This is not required by the EIP. See the note at the beginning of {ERC20}. Requirements: - `sender` and `recipient` cannot be the zero address. - `sender` must have a balance of at least `amount`. - the caller must have allowance for ``sender``'s tokens of at least `amount`."
      },
      "transferGovernorship(address)": {
        "details": "Transfers governorship of the contract to a new account (`proposedGovernor`). Can only be called by the current owner."
      },
      "updateFeeCollector(address)": {
        "params": {
          "_newFeeCollector": "new fee collector address"
        }
      },
      "updatePoolRewards(address)": {
        "params": {
          "_newPoolRewards": "new pool rewards address"
        }
      },
      "updateWithdrawFee(uint256)": {
        "details": "Format: 1500 = 15% fee, 100 = 1%",
        "params": {
          "_newWithdrawFee": "new withdraw fee"
        }
      },
      "whitelistedWithdraw(uint256)": {
        "details": "Burn shares and return collateral. No withdraw fee will be assessed when this function is called. Only some white listed address can call this function.",
        "params": {
          "_shares": "Pool shares. It will be in 18 decimals. This function is deprecated, normal withdraw will check for whitelisted address"
        }
      },
      "withdraw(uint256)": {
        "params": {
          "_shares": "Pool shares. It will be in 18 decimals."
        }
      },
      "withdrawAndClaim(uint256)": {
        "params": {
          "_shares": "Pool shares. It will be in 18 decimals."
        }
      }
    },
    "version": 1
  },
  "userdoc": {
    "kind": "user",
    "methods": {
      "addKeeper(address)": {
        "notice": "Add given address in keepers list."
      },
      "addMaintainer(address)": {
        "notice": "Add given address in maintainers list."
      },
      "addToFeeWhitelist(address)": {
        "notice": "Add given address in feeWhitelist."
      },
      "availableCreditLimit(address)": {
        "notice": "Get available credit limit of strategy. This is the amount strategy can borrow from pool"
      },
      "calculateMintage(uint256)": {
        "notice": "Calculate how much shares user will get for given amount. Also return externalDepositFee if any."
      },
      "deposit(uint256)": {
        "notice": "Deposit ERC20 tokens and receive pool shares depending on the current share price."
      },
      "depositAndClaim(uint256)": {
        "notice": "Deposit ERC20 tokens and claim rewards if any"
      },
      "depositWithPermit(uint256,uint256,uint8,bytes32,bytes32)": {
        "notice": "Deposit ERC20 tokens with permit aka gasless approval."
      },
      "excessDebt(address)": {
        "notice": "Debt above current debt limit"
      },
      "feeWhitelist()": {
        "notice": "Return list of whitelisted addresses"
      },
      "keepers()": {
        "notice": "Return list of keepers"
      },
      "maintainers()": {
        "notice": "Return list of maintainers"
      },
      "migrateStrategy(address,address)": {
        "notice": "Migrate existing strategy to new strategy."
      },
      "multiTransfer(address[],uint256[])": {
        "notice": "Transfer tokens to multiple recipient"
      },
      "pricePerShare()": {
        "notice": "Get price per share"
      },
      "removeFromFeeWhitelist(address)": {
        "notice": "Remove given address from feeWhitelist."
      },
      "removeKeeper(address)": {
        "notice": "Remove given address from keepers list."
      },
      "removeMaintainer(address)": {
        "notice": "Remove given address from maintainers list."
      },
      "reportLoss(uint256)": {
        "notice": "Report loss outside of rebalance activity."
      },
      "totalDebt()": {
        "notice": "Get total debt of pool"
      },
      "totalDebtOf(address)": {
        "notice": "Get total debt of given strategy"
      },
      "totalDebtRatio()": {
        "notice": "Get total debt ratio. Total debt ratio helps us keep buffer in pool"
      },
      "updateFeeCollector(address)": {
        "notice": "Update fee collector address for this pool"
      },
      "updatePoolRewards(address)": {
        "notice": "Update pool rewards address for this pool"
      },
      "updateWithdrawFee(uint256)": {
        "notice": "Update withdraw fee for this pool"
      },
      "whitelistedWithdraw(uint256)": {
        "notice": "Withdraw collateral based on given shares and the current share price."
      },
      "withdraw(uint256)": {
        "notice": "Withdraw collateral based on given shares and the current share price. Withdraw fee, if any, will be deduced from given shares and transferred to feeCollector. Burn remaining shares and return collateral."
      },
      "withdrawAndClaim(uint256)": {
        "notice": "Withdraw collateral and claim rewards if any"
      }
    },
    "version": 1
  },
  "storageLayout": {
    "storage": [
      {
        "astId": 9078,
        "contract": "contracts/pool/VPool.sol:VPool",
        "label": "_balances",
        "offset": 0,
        "slot": "0",
        "type": "t_mapping(t_address,t_uint256)"
      },
      {
        "astId": 9084,
        "contract": "contracts/pool/VPool.sol:VPool",
        "label": "_allowances",
        "offset": 0,
        "slot": "1",
        "type": "t_mapping(t_address,t_mapping(t_address,t_uint256))"
      },
      {
        "astId": 9086,
        "contract": "contracts/pool/VPool.sol:VPool",
        "label": "_totalSupply",
        "offset": 0,
        "slot": "2",
        "type": "t_uint256"
      },
      {
        "astId": 9088,
        "contract": "contracts/pool/VPool.sol:VPool",
        "label": "_name",
        "offset": 0,
        "slot": "3",
        "type": "t_string_storage"
      },
      {
        "astId": 9090,
        "contract": "contracts/pool/VPool.sol:VPool",
        "label": "_symbol",
        "offset": 0,
        "slot": "4",
        "type": "t_string_storage"
      },
      {
        "astId": 887,
        "contract": "contracts/pool/VPool.sol:VPool",
        "label": "_initialized",
        "offset": 0,
        "slot": "5",
        "type": "t_bool"
      },
      {
        "astId": 890,
        "contract": "contracts/pool/VPool.sol:VPool",
        "label": "_initializing",
        "offset": 1,
        "slot": "5",
        "type": "t_bool"
      },
      {
        "astId": 9619,
        "contract": "contracts/pool/VPool.sol:VPool",
        "label": "_CACHED_DOMAIN_SEPARATOR",
        "offset": 0,
        "slot": "6",
        "type": "t_bytes32"
      },
      {
        "astId": 9621,
        "contract": "contracts/pool/VPool.sol:VPool",
        "label": "_HASHED_NAME",
        "offset": 0,
        "slot": "7",
        "type": "t_bytes32"
      },
      {
        "astId": 9623,
        "contract": "contracts/pool/VPool.sol:VPool",
        "label": "_CACHED_CHAIN_ID",
        "offset": 0,
        "slot": "8",
        "type": "t_uint256"
      },
      {
        "astId": 9629,
        "contract": "contracts/pool/VPool.sol:VPool",
        "label": "nonces",
        "offset": 0,
        "slot": "9",
        "type": "t_mapping(t_address,t_uint256)"
      },
      {
        "astId": 3732,
        "contract": "contracts/pool/VPool.sol:VPool",
        "label": "governor",
        "offset": 0,
        "slot": "10",
        "type": "t_address"
      },
      {
        "astId": 3734,
        "contract": "contracts/pool/VPool.sol:VPool",
        "label": "proposedGovernor",
        "offset": 0,
        "slot": "11",
        "type": "t_address"
      },
      {
        "astId": 3876,
        "contract": "contracts/pool/VPool.sol:VPool",
        "label": "paused",
        "offset": 20,
        "slot": "11",
        "type": "t_bool"
      },
      {
        "astId": 3878,
        "contract": "contracts/pool/VPool.sol:VPool",
        "label": "stopEverything",
        "offset": 21,
        "slot": "11",
        "type": "t_bool"
      },
      {
        "astId": 938,
        "contract": "contracts/pool/VPool.sol:VPool",
        "label": "_status",
        "offset": 0,
        "slot": "12",
        "type": "t_uint256"
      },
      {
        "astId": 11692,
        "contract": "contracts/pool/VPool.sol:VPool",
        "label": "token",
        "offset": 0,
        "slot": "13",
        "type": "t_contract(IERC20)1552"
      },
      {
        "astId": 11694,
        "contract": "contracts/pool/VPool.sol:VPool",
        "label": "poolAccountant",
        "offset": 0,
        "slot": "14",
        "type": "t_address"
      },
      {
        "astId": 11696,
        "contract": "contracts/pool/VPool.sol:VPool",
        "label": "poolRewards",
        "offset": 0,
        "slot": "15",
        "type": "t_address"
      },
      {
        "astId": 11698,
        "contract": "contracts/pool/VPool.sol:VPool",
        "label": "feeWhitelistObsolete",
        "offset": 0,
        "slot": "16",
        "type": "t_address"
      },
      {
        "astId": 11700,
        "contract": "contracts/pool/VPool.sol:VPool",
        "label": "keepersObsolete",
        "offset": 0,
        "slot": "17",
        "type": "t_address"
      },
      {
        "astId": 11702,
        "contract": "contracts/pool/VPool.sol:VPool",
        "label": "maintainersObsolete",
        "offset": 0,
        "slot": "18",
        "type": "t_address"
      },
      {
        "astId": 11704,
        "contract": "contracts/pool/VPool.sol:VPool",
        "label": "feeCollector",
        "offset": 0,
        "slot": "19",
        "type": "t_address"
      },
      {
        "astId": 11706,
        "contract": "contracts/pool/VPool.sol:VPool",
        "label": "withdrawFee",
        "offset": 0,
        "slot": "20",
        "type": "t_uint256"
      },
      {
        "astId": 11708,
        "contract": "contracts/pool/VPool.sol:VPool",
        "label": "decimalConversionFactor",
        "offset": 0,
        "slot": "21",
        "type": "t_uint256"
      },
      {
        "astId": 11710,
        "contract": "contracts/pool/VPool.sol:VPool",
        "label": "withdrawInETH",
        "offset": 0,
        "slot": "22",
        "type": "t_bool"
      },
      {
        "astId": 11716,
        "contract": "contracts/pool/VPool.sol:VPool",
        "label": "_feeWhitelist",
        "offset": 0,
        "slot": "23",
        "type": "t_struct(AddressSet)4299_storage"
      },
      {
        "astId": 11719,
        "contract": "contracts/pool/VPool.sol:VPool",
        "label": "_keepers",
        "offset": 0,
        "slot": "25",
        "type": "t_struct(AddressSet)4299_storage"
      },
      {
        "astId": 11722,
        "contract": "contracts/pool/VPool.sol:VPool",
        "label": "_maintainers",
        "offset": 0,
        "slot": "27",
        "type": "t_struct(AddressSet)4299_storage"
      }
    ],
    "types": {
      "t_address": {
        "encoding": "inplace",
        "label": "address",
        "numberOfBytes": "20"
      },
      "t_array(t_bytes32)dyn_storage": {
        "base": "t_bytes32",
        "encoding": "dynamic_array",
        "label": "bytes32[]",
        "numberOfBytes": "32"
      },
      "t_bool": {
        "encoding": "inplace",
        "label": "bool",
        "numberOfBytes": "1"
      },
      "t_bytes32": {
        "encoding": "inplace",
        "label": "bytes32",
        "numberOfBytes": "32"
      },
      "t_contract(IERC20)1552": {
        "encoding": "inplace",
        "label": "contract IERC20",
        "numberOfBytes": "20"
      },
      "t_mapping(t_address,t_mapping(t_address,t_uint256))": {
        "encoding": "mapping",
        "key": "t_address",
        "label": "mapping(address => mapping(address => uint256))",
        "numberOfBytes": "32",
        "value": "t_mapping(t_address,t_uint256)"
      },
      "t_mapping(t_address,t_uint256)": {
        "encoding": "mapping",
        "key": "t_address",
        "label": "mapping(address => uint256)",
        "numberOfBytes": "32",
        "value": "t_uint256"
      },
      "t_mapping(t_bytes32,t_uint256)": {
        "encoding": "mapping",
        "key": "t_bytes32",
        "label": "mapping(bytes32 => uint256)",
        "numberOfBytes": "32",
        "value": "t_uint256"
      },
      "t_string_storage": {
        "encoding": "bytes",
        "label": "string",
        "numberOfBytes": "32"
      },
      "t_struct(AddressSet)4299_storage": {
        "encoding": "inplace",
        "label": "struct EnumerableSet.AddressSet",
        "members": [
          {
            "astId": 4298,
            "contract": "contracts/pool/VPool.sol:VPool",
            "label": "_inner",
            "offset": 0,
            "slot": "0",
            "type": "t_struct(Set)3998_storage"
          }
        ],
        "numberOfBytes": "64"
      },
      "t_struct(Set)3998_storage": {
        "encoding": "inplace",
        "label": "struct EnumerableSet.Set",
        "members": [
          {
            "astId": 3993,
            "contract": "contracts/pool/VPool.sol:VPool",
            "label": "_values",
            "offset": 0,
            "slot": "0",
            "type": "t_array(t_bytes32)dyn_storage"
          },
          {
            "astId": 3997,
            "contract": "contracts/pool/VPool.sol:VPool",
            "label": "_indexes",
            "offset": 0,
            "slot": "1",
            "type": "t_mapping(t_bytes32,t_uint256)"
          }
        ],
        "numberOfBytes": "64"
      },
      "t_uint256": {
        "encoding": "inplace",
        "label": "uint256",
        "numberOfBytes": "32"
      }
    }
  }
}