{
  "address": "0x59246B1E23240fAb9a51cE97FB3F907Eb9758489",
  "abi": [
    {
      "anonymous": false,
      "inputs": [
        {
          "indexed": true,
          "internalType": "address",
          "name": "strategy",
          "type": "address"
        },
        {
          "indexed": false,
          "internalType": "uint256",
          "name": "profit",
          "type": "uint256"
        },
        {
          "indexed": false,
          "internalType": "uint256",
          "name": "loss",
          "type": "uint256"
        },
        {
          "indexed": false,
          "internalType": "uint256",
          "name": "payback",
          "type": "uint256"
        },
        {
          "indexed": false,
          "internalType": "uint256",
          "name": "strategyDebt",
          "type": "uint256"
        },
        {
          "indexed": false,
          "internalType": "uint256",
          "name": "poolDebt",
          "type": "uint256"
        },
        {
          "indexed": false,
          "internalType": "uint256",
          "name": "creditLine",
          "type": "uint256"
        }
      ],
      "name": "EarningReported",
      "type": "event"
    },
    {
      "anonymous": false,
      "inputs": [
        {
          "indexed": true,
          "internalType": "address",
          "name": "strategy",
          "type": "address"
        },
        {
          "indexed": false,
          "internalType": "uint256",
          "name": "interestFee",
          "type": "uint256"
        },
        {
          "indexed": false,
          "internalType": "uint256",
          "name": "debtRatio",
          "type": "uint256"
        },
        {
          "indexed": false,
          "internalType": "uint256",
          "name": "debtRate",
          "type": "uint256"
        },
        {
          "indexed": false,
          "internalType": "uint256",
          "name": "externalDepositFee",
          "type": "uint256"
        }
      ],
      "name": "StrategyAdded",
      "type": "event"
    },
    {
      "anonymous": false,
      "inputs": [
        {
          "indexed": true,
          "internalType": "address",
          "name": "oldStrategy",
          "type": "address"
        },
        {
          "indexed": true,
          "internalType": "address",
          "name": "newStrategy",
          "type": "address"
        },
        {
          "indexed": false,
          "internalType": "uint256",
          "name": "interestFee",
          "type": "uint256"
        },
        {
          "indexed": false,
          "internalType": "uint256",
          "name": "debtRatio",
          "type": "uint256"
        },
        {
          "indexed": false,
          "internalType": "uint256",
          "name": "debtRate",
          "type": "uint256"
        },
        {
          "indexed": false,
          "internalType": "uint256",
          "name": "externalDepositFee",
          "type": "uint256"
        }
      ],
      "name": "StrategyMigrated",
      "type": "event"
    },
    {
      "anonymous": false,
      "inputs": [
        {
          "indexed": true,
          "internalType": "address",
          "name": "strategy",
          "type": "address"
        }
      ],
      "name": "StrategyRemoved",
      "type": "event"
    },
    {
      "anonymous": false,
      "inputs": [
        {
          "indexed": true,
          "internalType": "address",
          "name": "strategy",
          "type": "address"
        },
        {
          "indexed": false,
          "internalType": "uint256",
          "name": "previousFee",
          "type": "uint256"
        },
        {
          "indexed": false,
          "internalType": "uint256",
          "name": "newFee",
          "type": "uint256"
        }
      ],
      "name": "UpdatedExternalDepositFee",
      "type": "event"
    },
    {
      "anonymous": false,
      "inputs": [
        {
          "indexed": true,
          "internalType": "address",
          "name": "strategy",
          "type": "address"
        },
        {
          "indexed": false,
          "internalType": "uint256",
          "name": "previousInterestFee",
          "type": "uint256"
        },
        {
          "indexed": false,
          "internalType": "uint256",
          "name": "newInterestFee",
          "type": "uint256"
        }
      ],
      "name": "UpdatedInterestFee",
      "type": "event"
    },
    {
      "anonymous": false,
      "inputs": [
        {
          "indexed": false,
          "internalType": "uint256",
          "name": "previousFee",
          "type": "uint256"
        },
        {
          "indexed": false,
          "internalType": "uint256",
          "name": "newFee",
          "type": "uint256"
        }
      ],
      "name": "UpdatedPoolExternalDepositFee",
      "type": "event"
    },
    {
      "anonymous": false,
      "inputs": [
        {
          "indexed": true,
          "internalType": "address",
          "name": "strategy",
          "type": "address"
        },
        {
          "indexed": false,
          "internalType": "uint256",
          "name": "debtRatio",
          "type": "uint256"
        },
        {
          "indexed": false,
          "internalType": "uint256",
          "name": "debtRate",
          "type": "uint256"
        }
      ],
      "name": "UpdatedStrategyDebtParams",
      "type": "event"
    },
    {
      "inputs": [],
      "name": "MAX_BPS",
      "outputs": [
        {
          "internalType": "uint256",
          "name": "",
          "type": "uint256"
        }
      ],
      "stateMutability": "view",
      "type": "function"
    },
    {
      "inputs": [],
      "name": "VERSION",
      "outputs": [
        {
          "internalType": "string",
          "name": "",
          "type": "string"
        }
      ],
      "stateMutability": "view",
      "type": "function"
    },
    {
      "inputs": [
        {
          "internalType": "address",
          "name": "_strategy",
          "type": "address"
        },
        {
          "internalType": "uint256",
          "name": "_interestFee",
          "type": "uint256"
        },
        {
          "internalType": "uint256",
          "name": "_debtRatio",
          "type": "uint256"
        },
        {
          "internalType": "uint256",
          "name": "_debtRate",
          "type": "uint256"
        },
        {
          "internalType": "uint256",
          "name": "_externalDepositFee",
          "type": "uint256"
        }
      ],
      "name": "addStrategy",
      "outputs": [],
      "stateMutability": "nonpayable",
      "type": "function"
    },
    {
      "inputs": [
        {
          "internalType": "address",
          "name": "_strategy",
          "type": "address"
        }
      ],
      "name": "availableCreditLimit",
      "outputs": [
        {
          "internalType": "uint256",
          "name": "",
          "type": "uint256"
        }
      ],
      "stateMutability": "view",
      "type": "function"
    },
    {
      "inputs": [
        {
          "internalType": "address",
          "name": "_strategy",
          "type": "address"
        },
        {
          "internalType": "uint256",
          "name": "_decreaseBy",
          "type": "uint256"
        }
      ],
      "name": "decreaseDebt",
      "outputs": [],
      "stateMutability": "nonpayable",
      "type": "function"
    },
    {
      "inputs": [
        {
          "internalType": "address",
          "name": "_strategy",
          "type": "address"
        }
      ],
      "name": "excessDebt",
      "outputs": [
        {
          "internalType": "uint256",
          "name": "",
          "type": "uint256"
        }
      ],
      "stateMutability": "view",
      "type": "function"
    },
    {
      "inputs": [],
      "name": "externalDepositFee",
      "outputs": [
        {
          "internalType": "uint256",
          "name": "",
          "type": "uint256"
        }
      ],
      "stateMutability": "view",
      "type": "function"
    },
    {
      "inputs": [],
      "name": "getStrategies",
      "outputs": [
        {
          "internalType": "address[]",
          "name": "",
          "type": "address[]"
        }
      ],
      "stateMutability": "view",
      "type": "function"
    },
    {
      "inputs": [],
      "name": "getWithdrawQueue",
      "outputs": [
        {
          "internalType": "address[]",
          "name": "",
          "type": "address[]"
        }
      ],
      "stateMutability": "view",
      "type": "function"
    },
    {
      "inputs": [
        {
          "internalType": "address",
          "name": "_pool",
          "type": "address"
        }
      ],
      "name": "init",
      "outputs": [],
      "stateMutability": "nonpayable",
      "type": "function"
    },
    {
      "inputs": [
        {
          "internalType": "address",
          "name": "_old",
          "type": "address"
        },
        {
          "internalType": "address",
          "name": "_new",
          "type": "address"
        }
      ],
      "name": "migrateStrategy",
      "outputs": [],
      "stateMutability": "nonpayable",
      "type": "function"
    },
    {
      "inputs": [],
      "name": "pool",
      "outputs": [
        {
          "internalType": "address",
          "name": "",
          "type": "address"
        }
      ],
      "stateMutability": "view",
      "type": "function"
    },
    {
      "inputs": [
        {
          "internalType": "uint256",
          "name": "_index",
          "type": "uint256"
        }
      ],
      "name": "removeStrategy",
      "outputs": [],
      "stateMutability": "nonpayable",
      "type": "function"
    },
    {
      "inputs": [
        {
          "internalType": "address",
          "name": "_strategy",
          "type": "address"
        },
        {
          "internalType": "uint256",
          "name": "_profit",
          "type": "uint256"
        },
        {
          "internalType": "uint256",
          "name": "_loss",
          "type": "uint256"
        },
        {
          "internalType": "uint256",
          "name": "_payback",
          "type": "uint256"
        }
      ],
      "name": "reportEarning",
      "outputs": [
        {
          "internalType": "uint256",
          "name": "_actualPayback",
          "type": "uint256"
        },
        {
          "internalType": "uint256",
          "name": "_creditLine",
          "type": "uint256"
        },
        {
          "internalType": "uint256",
          "name": "_fee",
          "type": "uint256"
        }
      ],
      "stateMutability": "nonpayable",
      "type": "function"
    },
    {
      "inputs": [
        {
          "internalType": "address",
          "name": "_strategy",
          "type": "address"
        },
        {
          "internalType": "uint256",
          "name": "_loss",
          "type": "uint256"
        }
      ],
      "name": "reportLoss",
      "outputs": [],
      "stateMutability": "nonpayable",
      "type": "function"
    },
    {
      "inputs": [
        {
          "internalType": "uint256",
          "name": "",
          "type": "uint256"
        }
      ],
      "name": "strategies",
      "outputs": [
        {
          "internalType": "address",
          "name": "",
          "type": "address"
        }
      ],
      "stateMutability": "view",
      "type": "function"
    },
    {
      "inputs": [
        {
          "internalType": "address",
          "name": "",
          "type": "address"
        }
      ],
      "name": "strategy",
      "outputs": [
        {
          "internalType": "bool",
          "name": "active",
          "type": "bool"
        },
        {
          "internalType": "uint256",
          "name": "interestFee",
          "type": "uint256"
        },
        {
          "internalType": "uint256",
          "name": "debtRate",
          "type": "uint256"
        },
        {
          "internalType": "uint256",
          "name": "lastRebalance",
          "type": "uint256"
        },
        {
          "internalType": "uint256",
          "name": "totalDebt",
          "type": "uint256"
        },
        {
          "internalType": "uint256",
          "name": "totalLoss",
          "type": "uint256"
        },
        {
          "internalType": "uint256",
          "name": "totalProfit",
          "type": "uint256"
        },
        {
          "internalType": "uint256",
          "name": "debtRatio",
          "type": "uint256"
        },
        {
          "internalType": "uint256",
          "name": "externalDepositFee",
          "type": "uint256"
        }
      ],
      "stateMutability": "view",
      "type": "function"
    },
    {
      "inputs": [
        {
          "internalType": "address",
          "name": "_fromToken",
          "type": "address"
        }
      ],
      "name": "sweepERC20",
      "outputs": [],
      "stateMutability": "nonpayable",
      "type": "function"
    },
    {
      "inputs": [],
      "name": "totalDebt",
      "outputs": [
        {
          "internalType": "uint256",
          "name": "",
          "type": "uint256"
        }
      ],
      "stateMutability": "view",
      "type": "function"
    },
    {
      "inputs": [
        {
          "internalType": "address",
          "name": "_strategy",
          "type": "address"
        }
      ],
      "name": "totalDebtOf",
      "outputs": [
        {
          "internalType": "uint256",
          "name": "",
          "type": "uint256"
        }
      ],
      "stateMutability": "view",
      "type": "function"
    },
    {
      "inputs": [],
      "name": "totalDebtRatio",
      "outputs": [
        {
          "internalType": "uint256",
          "name": "",
          "type": "uint256"
        }
      ],
      "stateMutability": "view",
      "type": "function"
    },
    {
      "inputs": [
        {
          "internalType": "address",
          "name": "_strategy",
          "type": "address"
        },
        {
          "internalType": "uint256",
          "name": "_debtRate",
          "type": "uint256"
        }
      ],
      "name": "updateDebtRate",
      "outputs": [],
      "stateMutability": "nonpayable",
      "type": "function"
    },
    {
      "inputs": [
        {
          "internalType": "address",
          "name": "_strategy",
          "type": "address"
        },
        {
          "internalType": "uint256",
          "name": "_debtRatio",
          "type": "uint256"
        }
      ],
      "name": "updateDebtRatio",
      "outputs": [],
      "stateMutability": "nonpayable",
      "type": "function"
    },
    {
      "inputs": [
        {
          "internalType": "address",
          "name": "_strategy",
          "type": "address"
        },
        {
          "internalType": "uint256",
          "name": "_externalDepositFee",
          "type": "uint256"
        }
      ],
      "name": "updateExternalDepositFee",
      "outputs": [],
      "stateMutability": "nonpayable",
      "type": "function"
    },
    {
      "inputs": [
        {
          "internalType": "address",
          "name": "_strategy",
          "type": "address"
        },
        {
          "internalType": "uint256",
          "name": "_interestFee",
          "type": "uint256"
        }
      ],
      "name": "updateInterestFee",
      "outputs": [],
      "stateMutability": "nonpayable",
      "type": "function"
    },
    {
      "inputs": [
        {
          "internalType": "address[]",
          "name": "_withdrawQueue",
          "type": "address[]"
        }
      ],
      "name": "updateWithdrawQueue",
      "outputs": [],
      "stateMutability": "nonpayable",
      "type": "function"
    },
    {
      "inputs": [
        {
          "internalType": "uint256",
          "name": "",
          "type": "uint256"
        }
      ],
      "name": "withdrawQueue",
      "outputs": [
        {
          "internalType": "address",
          "name": "",
          "type": "address"
        }
      ],
      "stateMutability": "view",
      "type": "function"
    }
  ],
  "transactionHash": "0x6f22bd9146d86a9341707b1d52d3160ee64ecd93515759e27e120481e2179254",
  "args": [],
  "solcInputHash": "6d6aa4d3dcd6d9148cc3cd04f20f5f5d",
  "bytecode": "0x608060405234801561001057600080fd5b506131f0806100206000396000f3fe608060405234801561001057600080fd5b50600436106101a95760003560e01c8063854f4d80116100f9578063d20ed3ef11610097578063e00af4a711610071578063e00af4a714610429578063fc7b9c181461043c578063fd967f4714610445578063ffa1ad741461044e576101a9565b8063d20ed3ef146103f0578063d53ddc2614610403578063d574ea3d14610416576101a9565b8063a066654b116100d3578063a066654b14610394578063b49a60bb146103c2578063b64321ec146103ca578063c0cbbca6146103dd576101a9565b8063854f4d801461035b5780638f88d18c1461036e5780639f2b283314610381576101a9565b80632fb9ba311161016657806362518ddf1161014057806362518ddf1461030f5780636cb56d19146103225780637b62f070146103355780637f13086e14610348576101a9565b80632fb9ba31146102e057806332b77a76146102f3578063346162d514610306576101a9565b806311183052146101ae57806314b4e26e146101cc57806316f0115b146101e157806319ab453c14610212578063228bfd9f146102255780632df9eab9146102c9575b600080fd5b6101b661047f565b6040516101c39190612ff6565b60405180910390f35b6101df6101da366004612e80565b6104e1565b005b6000546101fa906201000090046001600160a01b031681565b6040516001600160a01b0390911681526020016101c3565b6101df610220366004612dab565b6108d8565b610283610233366004612dab565b600560208190526000918252604090912080546001820154600283015460038401546004850154958501546006860154600787015460089097015460ff9096169794969395929493919290919089565b604080519915158a5260208a0198909852968801959095526060870193909352608086019190915260a085015260c084015260e0830152610100820152610120016101c3565b6102d260015481565b6040519081526020016101c3565b6101df6102ee366004612e1b565b6109ef565b6101df610301366004612e1b565b610a98565b6102d260065481565b6101fa61031d366004612faa565b610c3e565b6101df610330366004612de3565b610c68565b6101df610343366004612e1b565b611188565b6101df610356366004612e1b565b611339565b6101df610369366004612ec3565b6113cb565b6101df61037c366004612e1b565b6115b4565b6102d261038f366004612dab565b6117b8565b6103a76103a2366004612e46565b6117da565b604080519384526020840192909252908201526060016101c3565b6101b6611b74565b6102d26103d8366004612dab565b611bd4565b6101df6103eb366004612faa565b611be5565b6101df6103fe366004612e1b565b612067565b6102d2610411366004612dab565b6121ef565b6101fa610424366004612faa565b6121fa565b6101df610437366004612dab565b61220a565b6102d260025481565b6102d261271081565b610472604051806040016040528060058152602001640342e302e360dc1b81525081565b6040516101c39190613043565b606060048054806020026020016040519081016040528092919081815260200182805480156104d757602002820191906000526020600020905b81546001600160a01b031681526001909101906020018083116104b9575b5050505050905090565b6000546040805163030d028960e21b8152905133926201000090046001600160a01b031691630c340a24916004808301926020929190829003018186803b15801561052b57600080fd5b505afa15801561053f573d6000803e3d6000fd5b505050506040513d601f19601f820116820180604052508101906105639190612dc7565b6001600160a01b0316146105925760405162461bcd60e51b81526004016105899061309a565b60405180910390fd5b604080518082019091526002815261031360f41b60208201526001600160a01b0386166105d25760405162461bcd60e51b81526004016105899190613043565b506001600160a01b0385166000908152600560209081526040918290205482518084019093526002835261313560f01b9183019190915260ff161561062a5760405162461bcd60e51b81526004016105899190613043565b508260015461063991906130c4565b6001819055604080518082019091526002815261062760f31b602082015290612710101561067a5760405162461bcd60e51b81526004016105899190613043565b50604080518082019091526002815261313160f01b60208201526127108511156106b75760405162461bcd60e51b81526004016105899190613043565b50604080518082019091526002815261313160f01b60208201526127108211156106f45760405162461bcd60e51b81526004016105899190613043565b5060006040518061012001604052806001151581526020018681526020018481526020014381526020016000815260200160008152602001600081526020018581526020018381525090508060056000886001600160a01b03166001600160a01b0316815260200190815260200160002060008201518160000160006101000a81548160ff0219169083151502179055506020820151816001015560408201518160020155606082015181600301556080820151816004015560a0820151816005015560c0820151816006015560e0820151816007015561010082015181600801559050506003869080600181540180825580915050600190039060005260206000200160009091909190916101000a8154816001600160a01b0302191690836001600160a01b031602179055506004869080600181540180825580915050600190039060005260206000200160009091909190916101000a8154816001600160a01b0302191690836001600160a01b03160217905550856001600160a01b03167f5a6abd2af9fe6c0554fa08649e2d86e4393ff19dc304d072d38d295c9291d4dc868686866040516108c0949392919093845260208401929092526040830152606082015260800190565b60405180910390a26108d0612377565b505050505050565b600054610100900460ff16806108f1575060005460ff16155b6109545760405162461bcd60e51b815260206004820152602e60248201527f496e697469616c697a61626c653a20636f6e747261637420697320616c72656160448201526d191e481a5b9a5d1a585b1a5e995960921b6064820152608401610589565b600054610100900460ff16158015610976576000805461ffff19166101011790555b604080518082019091526002815261031360f41b60208201526001600160a01b0383166109b65760405162461bcd60e51b81526004016105899190613043565b506000805462010000600160b01b031916620100006001600160a01b0385160217905580156109eb576000805461ff00191690555b5050565b6000546001600160a01b0362010000909104163314610a205760405162461bcd60e51b815260040161058990613076565b6001600160a01b038216600090815260056020526040902060040154610a4690826124c0565b6001600160a01b038316600090815260056020526040812060040180549293508392909190610a7690849061311b565b925050819055508060026000828254610a8f919061311b565b90915550505050565b6000546040805163030d028960e21b8152905133926201000090046001600160a01b031691630c340a24916004808301926020929190829003018186803b158015610ae257600080fd5b505afa158015610af6573d6000803e3d6000fd5b505050506040513d601f19601f82011682018060405250810190610b1a9190612dc7565b6001600160a01b031614610b405760405162461bcd60e51b81526004016105899061309a565b6001600160a01b0382166000908152600560209081526040918290205482518084019093526002835261189b60f11b9183019190915260ff16610b965760405162461bcd60e51b81526004016105899190613043565b50604080518082019091526002815261313160f01b6020820152612710821115610bd35760405162461bcd60e51b81526004016105899190613043565b506001600160a01b038216600081815260056020908152604091829020600801805490859055825181815291820185905292917f3e57eabb1906726caa174b6716b34373026dfd25dbae17ba47ec46e8a9ced9ee910160405180910390a2610c39612377565b505050565b60048181548110610c4e57600080fd5b6000918252602090912001546001600160a01b0316905081565b6000546001600160a01b0362010000909104163314610c995760405162461bcd60e51b815260040161058990613076565b6001600160a01b0382166000908152600560209081526040918290205482518084019093526002835261189b60f11b9183019190915260ff16610cef5760405162461bcd60e51b81526004016105899190613043565b506001600160a01b0381166000908152600560209081526040918290205482518084019093526002835261313560f01b9183019190915260ff1615610d475760405162461bcd60e51b81526004016105899190613043565b50600060405180610120016040528060011515815260200160056000866001600160a01b03166001600160a01b0316815260200190815260200160002060010154815260200160056000866001600160a01b03166001600160a01b0316815260200190815260200160002060020154815260200160056000866001600160a01b03166001600160a01b0316815260200190815260200160002060030154815260200160056000866001600160a01b03166001600160a01b03168152602001908152602001600020600401548152602001600081526020016000815260200160056000866001600160a01b03166001600160a01b0316815260200190815260200160002060070154815260200160056000866001600160a01b03166001600160a01b0316815260200190815260200160002060080154815250905060056000846001600160a01b03166001600160a01b03168152602001908152602001600020600080820160006101000a81549060ff02191690556001820160009055600282016000905560038201600090556004820160009055600582016000905560068201600090556007820160009055600882016000905550508060056000846001600160a01b03166001600160a01b0316815260200190815260200160002060008201518160000160006101000a81548160ff0219169083151502179055506020820151816001015560408201518160020155606082015181600301556080820151816004015560a0820151816005015560c0820151816006015560e08201518160070155610100820151816008015590505060005b60035481101561105157836001600160a01b031660038281548110610fcf57634e487b7160e01b600052603260045260246000fd5b6000918252602090912001546001600160a01b0316141561103f57826003828154811061100c57634e487b7160e01b600052603260045260246000fd5b9060005260206000200160006101000a8154816001600160a01b0302191690836001600160a01b03160217905550611051565b806110498161315e565b915050610f9a565b5060005b60045481101561110c57836001600160a01b03166004828154811061108a57634e487b7160e01b600052603260045260246000fd5b6000918252602090912001546001600160a01b031614156110fa5782600482815481106110c757634e487b7160e01b600052603260045260246000fd5b9060005260206000200160006101000a8154816001600160a01b0302191690836001600160a01b0316021790555061110c565b806111048161315e565b915050611055565b506001600160a01b0382811660008181526005602090815260409182902060018101546007820154600283015460089093015485519283529382015292830152606082015290918516907f57fa1e7d3a2b5e958145b7cb7cf1a109b07a506ce684175770eb1c3819e97bae9060800160405180910390a3505050565b6000546040805163030d028960e21b8152905133926201000090046001600160a01b031691630c340a24916004808301926020929190829003018186803b1580156111d257600080fd5b505afa1580156111e6573d6000803e3d6000fd5b505050506040513d601f19601f8201168201806040525081019061120a9190612dc7565b6001600160a01b0316146112305760405162461bcd60e51b81526004016105899061309a565b6001600160a01b0382166000908152600560209081526040918290205482518084019093526002835261189b60f11b9183019190915260ff166112865760405162461bcd60e51b81526004016105899190613043565b50604080518082019091526002815261313160f01b60208201526127108211156112c35760405162461bcd60e51b81526004016105899190613043565b506001600160a01b0382166000818152600560209081526040918290206001015482519081529081018490527f1a0033773885cfe3f65a0d7839991fba7c63fdf719ae4b9ea27e4642ebd490ff910160405180910390a26001600160a01b03909116600090815260056020526040902060010155565b6000546001600160a01b036201000090910416331461136a5760405162461bcd60e51b815260040161058990613076565b6001600160a01b0382166000908152600560209081526040918290205482518084019093526002835261189b60f11b9183019190915260ff166113c05760405162461bcd60e51b81526004016105899190613043565b506109eb82826124d8565b6000546201000090046001600160a01b031663dd57366a6113e93390565b6040516001600160e01b031960e084901b1681526001600160a01b03909116600482015260240160206040518083038186803b15801561142857600080fd5b505afa15801561143c573d6000803e3d6000fd5b505050506040513d601f19601f820116820180604052508101906114609190612f8a565b61149f5760405162461bcd60e51b815260206004820152601060248201526f3737ba16b096b6b0b4b73a30b4b732b960811b6044820152606401610589565b8051600454811480156114b3575060035481145b604051806040016040528060018152602001600d60fa1b815250906114eb5760405162461bcd60e51b81526004016105899190613043565b5060005b818110156115a0576005600084838151811061151b57634e487b7160e01b600052603260045260246000fd5b60200260200101516001600160a01b03166001600160a01b0316815260200190815260200160002060000160009054906101000a900460ff1660405180604001604052806002815260200161189b60f11b8152509061158d5760405162461bcd60e51b81526004016105899190613043565b50806115988161315e565b9150506114ef565b508151610c39906004906020850190612d26565b6000546201000090046001600160a01b031663dd57366a6115d23390565b6040516001600160e01b031960e084901b1681526001600160a01b03909116600482015260240160206040518083038186803b15801561161157600080fd5b505afa158015611625573d6000803e3d6000fd5b505050506040513d601f19601f820116820180604052508101906116499190612f8a565b6116885760405162461bcd60e51b815260206004820152601060248201526f3737ba16b096b6b0b4b73a30b4b732b960811b6044820152606401610589565b6001600160a01b0382166000908152600560209081526040918290205482518084019093526002835261189b60f11b9183019190915260ff166116de5760405162461bcd60e51b81526004016105899190613043565b506001600160a01b03821660009081526005602052604090206007015460015482916117099161311b565b61171391906130c4565b6001819055604080518082019091526002815261062760f31b60208201529061271010156117545760405162461bcd60e51b81526004016105899190613043565b506001600160a01b03821660008181526005602090815260409182902060078101859055600201548251858152918201527f3819805ced44aeebe5cbf4f81a253424557ef66c0a682cf3b54501e3fb935ba1910160405180910390a26109eb612377565b6001600160a01b0381166000908152600560205260409020600401545b919050565b60008054819081906001600160a01b03620100009091041633146118105760405162461bcd60e51b815260040161058990613076565b6001600160a01b0387166000908152600560209081526040918290205482518084019093526002835261189b60f11b9183019190915260ff166118665760405162461bcd60e51b81526004016105899190613043565b5061187184876130c4565b600060029054906101000a90046001600160a01b03166001600160a01b031663fc0c546a6040518163ffffffff1660e01b815260040160206040518083038186803b1580156118bf57600080fd5b505afa1580156118d3573d6000803e3d6000fd5b505050506040513d601f19601f820116820180604052508101906118f79190612dc7565b6040516370a0823160e01b81526001600160a01b038a8116600483015291909116906370a082319060240160206040518083038186803b15801561193a57600080fd5b505afa15801561194e573d6000803e3d6000fd5b505050506040513d601f19601f820116820180604052508101906119729190612fc2565b1015604051806040016040528060018152602001603960f81b815250906119ac5760405162461bcd60e51b81526004016105899190613043565b5084156119bd576119bd87866124d8565b60006119c8886126c5565b90506119d481866124c0565b93508315611a26576001600160a01b03881660009081526005602052604081206004018054869290611a0790849061311b565b925050819055508360026000828254611a20919061311b565b90915550505b611a2f88612862565b92508215611a81576001600160a01b03881660009081526005602052604081206004018054859290611a629084906130c4565b925050819055508260026000828254611a7b91906130c4565b90915550505b8615611aee576001600160a01b03881660009081526005602052604081206006018054899290611ab29084906130c4565b90915550506001600160a01b03881660009081526005602052604090206001015461271090611ae190896130fc565b611aeb91906130dc565b91505b6001600160a01b0388166000818152600560209081526040918290204360038201556004015460025483518c81529283018b90529282018890526060820152608081019190915260a081018590527f29c6c60e040fcd722949346bda66341e8859b20b9a2124a625326ad10373391b9060c00160405180910390a2509450945094915050565b606060038054806020026020016040519081016040528092919081815260200182805480156104d7576020028201919060005260206000209081546001600160a01b031681526001909101906020018083116104b9575050505050905090565b6000611bdf82612862565b92915050565b6000546040805163030d028960e21b8152905133926201000090046001600160a01b031691630c340a24916004808301926020929190829003018186803b158015611c2f57600080fd5b505afa158015611c43573d6000803e3d6000fd5b505050506040513d601f19601f82011682018060405250810190611c679190612dc7565b6001600160a01b031614611c8d5760405162461bcd60e51b81526004016105899061309a565b600060038281548110611cb057634e487b7160e01b600052603260045260246000fd5b60009182526020808320909101546001600160a01b0316808352600582526040928390205483518085019094526002845261189b60f11b92840192909252925060ff16611d105760405162461bcd60e51b81526004016105899190613043565b506001600160a01b0381166000908152600560209081526040918290206004015482518084019093526002835261313960f01b9183019190915215611d685760405162461bcd60e51b81526004016105899190613043565b506001600160a01b0381166000908152600560205260408120600701546001805491929091611d9890849061311b565b90915550506001600160a01b03811660009081526005602081905260408220805460ff19168155600180820184905560028201849055600380830185905560048301859055928201849055600682018490556007820184905560089091019290925580549091611e079161311b565b81548110611e2557634e487b7160e01b600052603260045260246000fd5b600091825260209091200154600380546001600160a01b039092169184908110611e5f57634e487b7160e01b600052603260045260246000fd5b9060005260206000200160006101000a8154816001600160a01b0302191690836001600160a01b031602179055506003805480611eac57634e487b7160e01b600052603160045260246000fd5b600082815260208120820160001990810180546001600160a01b031916905590910190915560035467ffffffffffffffff811115611efa57634e487b7160e01b600052604160045260246000fd5b604051908082528060200260200182016040528015611f23578160200160208202803683370190505b5090506000805b60045481101561201057836001600160a01b031660048281548110611f5f57634e487b7160e01b600052603260045260246000fd5b6000918252602090912001546001600160a01b031614611ffe5760048181548110611f9a57634e487b7160e01b600052603260045260246000fd5b9060005260206000200160009054906101000a90046001600160a01b0316838381518110611fd857634e487b7160e01b600052603260045260246000fd5b6001600160a01b039092166020928302919091019091015281611ffa8161315e565b9250505b806120088161315e565b915050611f2a565b508151612024906004906020850190612d26565b506040516001600160a01b038416907f09a1db4b80c32706328728508c941a6b954f31eb5affd32f236c1fd405f8fea490600090a2612061612377565b50505050565b6000546201000090046001600160a01b0316636ba42aaa6120853390565b6040516001600160e01b031960e084901b1681526001600160a01b03909116600482015260240160206040518083038186803b1580156120c457600080fd5b505afa1580156120d8573d6000803e3d6000fd5b505050506040513d601f19601f820116820180604052508101906120fc9190612f8a565b6121375760405162461bcd60e51b815260206004820152600c60248201526b3737ba16b096b5b2b2b832b960a11b6044820152606401610589565b6001600160a01b0382166000908152600560209081526040918290205482518084019093526002835261189b60f11b9183019190915260ff1661218d5760405162461bcd60e51b81526004016105899190613043565b506001600160a01b038216600081815260056020908152604091829020600281018590556007015482519081529081018490527f3819805ced44aeebe5cbf4f81a253424557ef66c0a682cf3b54501e3fb935ba1910160405180910390a25050565b6000611bdf826126c5565b60038181548110610c4e57600080fd5b6000546201000090046001600160a01b0316636ba42aaa6122283390565b6040516001600160e01b031960e084901b1681526001600160a01b03909116600482015260240160206040518083038186803b15801561226757600080fd5b505afa15801561227b573d6000803e3d6000fd5b505050506040513d601f19601f8201168201806040525081019061229f9190612f8a565b6122da5760405162461bcd60e51b815260206004820152600c60248201526b3737ba16b096b5b2b2b832b960a11b6044820152606401610589565b6000546040516370a0823160e01b8152306004820152612374916201000090046001600160a01b0390811691908416906370a082319060240160206040518083038186803b15801561232b57600080fd5b505afa15801561233f573d6000803e3d6000fd5b505050506040513d601f19601f820116820180604052508101906123639190612fc2565b6001600160a01b0384169190612b1e565b50565b6003546001546000901561247b5760005b828110156124795760015460056000600384815481106123b857634e487b7160e01b600052603260045260246000fd5b9060005260206000200160009054906101000a90046001600160a01b03166001600160a01b03166001600160a01b0316815260200190815260200160002060070154600560006003858154811061241f57634e487b7160e01b600052603260045260246000fd5b60009182526020808320909101546001600160a01b0316835282019290925260400190206008015461245191906130fc565b61245b91906130dc565b61246590836130c4565b9150806124718161315e565b915050612388565b505b600680549082905560408051918252602082018390527f2d6a5770d560080bb77885132eea46b6db3b15e70e6e5e73087ea7bcd138fcf0910160405180910390a15050565b60008183106124cf57816124d1565b825b9392505050565b6001600160a01b0382166000908152600560209081526040918290206004015482518084019093526002835261032360f41b9183019190915290828210156125335760405162461bcd60e51b81526004016105899190613043565b506001600160a01b0383166000908152600560208190526040822001805484929061255f9084906130c4565b90915550506001600160a01b0383166000908152600560205260408120600401805484929061258f90849061311b565b9250508190555081600260008282546125a8919061311b565b925050819055506000612671600060029054906101000a90046001600160a01b03166001600160a01b031663d4c3eea06040518163ffffffff1660e01b815260040160206040518083038186803b15801561260257600080fd5b505afa158015612616573d6000803e3d6000fd5b505050506040513d601f19601f8201168201806040525081019061263a9190612fc2565b612646612710866130fc565b61265091906130dc565b6001600160a01b0386166000908152600560205260409020600701546124c0565b6001600160a01b0385166000908152600560205260408120600701805492935083929091906126a190849061311b565b9250508190555080600160008282546126ba919061311b565b909155505050505050565b60008060056000846001600160a01b03166001600160a01b03168152602001908152602001600020600401549050600060029054906101000a90046001600160a01b03166001600160a01b0316634938649a6040518163ffffffff1660e01b815260040160206040518083038186803b15801561274157600080fd5b505afa158015612755573d6000803e3d6000fd5b505050506040513d601f19601f820116820180604052508101906127799190612f8a565b156127855790506117d5565b6000612710600060029054906101000a90046001600160a01b03166001600160a01b031663d4c3eea06040518163ffffffff1660e01b815260040160206040518083038186803b1580156127d857600080fd5b505afa1580156127ec573d6000803e3d6000fd5b505050506040513d601f19601f820116820180604052508101906128109190612fc2565b6001600160a01b03861660009081526005602052604090206007015461283691906130fc565b61284091906130dc565b905080821161285057600061285a565b61285a818361311b565b949350505050565b60008060029054906101000a90046001600160a01b03166001600160a01b0316634938649a6040518163ffffffff1660e01b815260040160206040518083038186803b1580156128b157600080fd5b505afa1580156128c5573d6000803e3d6000fd5b505050506040513d601f19601f820116820180604052508101906128e99190612f8a565b156128f6575060006117d5565b60008060029054906101000a90046001600160a01b03166001600160a01b031663d4c3eea06040518163ffffffff1660e01b815260040160206040518083038186803b15801561294557600080fd5b505afa158015612959573d6000803e3d6000fd5b505050506040513d601f19601f8201168201806040525081019061297d9190612fc2565b6001600160a01b03841660009081526005602052604081206007015491925090612710906129ac9084906130fc565b6129b691906130dc565b6001600160a01b0385166000908152600560205260409020600401549091508181106129e857600093505050506117d5565b6000612710846001546129fb91906130fc565b612a0591906130dc565b90508060025410612a1d5760009450505050506117d5565b6000612a29838561311b565b9050612acf612abd600060029054906101000a90046001600160a01b03166001600160a01b031663b8cb343d6040518163ffffffff1660e01b815260040160206040518083038186803b158015612a7f57600080fd5b505afa158015612a93573d6000803e3d6000fd5b505050506040513d601f19601f82011682018060405250810190612ab79190612fc2565b836124c0565b600254612aca908561311b565b6124c0565b6001600160a01b03881660009081526005602052604090206002810154600390910154919250612b1391612b03904361311b565b612b0d91906130fc565b826124c0565b979650505050505050565b604080516001600160a01b03848116602483015260448083018590528351808403909101815260649092018352602080830180516001600160e01b031663a9059cbb60e01b17905283518085019094528084527f5361666545524332303a206c6f772d6c6576656c2063616c6c206661696c656490840152610c3992869291600091612bae918516908490612c2b565b805190915015610c395780806020019051810190612bcc9190612f8a565b610c395760405162461bcd60e51b815260206004820152602a60248201527f5361666545524332303a204552433230206f7065726174696f6e20646964206e6044820152691bdd081cdd58d8d9595960b21b6064820152608401610589565b606061285a848460008585843b612c845760405162461bcd60e51b815260206004820152601d60248201527f416464726573733a2063616c6c20746f206e6f6e2d636f6e74726163740000006044820152606401610589565b600080866001600160a01b03168587604051612ca09190612fda565b60006040518083038185875af1925050503d8060008114612cdd576040519150601f19603f3d011682016040523d82523d6000602084013e612ce2565b606091505b5091509150612b1382828660608315612cfc5750816124d1565b825115612d0c5782518084602001fd5b8160405162461bcd60e51b81526004016105899190613043565b828054828255906000526020600020908101928215612d7b579160200282015b82811115612d7b57825182546001600160a01b0319166001600160a01b03909116178255602090920191600190910190612d46565b50612d87929150612d8b565b5090565b5b80821115612d875760008155600101612d8c565b80356117d5816131a5565b600060208284031215612dbc578081fd5b81356124d1816131a5565b600060208284031215612dd8578081fd5b81516124d1816131a5565b60008060408385031215612df5578081fd5b8235612e00816131a5565b91506020830135612e10816131a5565b809150509250929050565b60008060408385031215612e2d578182fd5b8235612e38816131a5565b946020939093013593505050565b60008060008060808587031215612e5b578182fd5b8435612e66816131a5565b966020860135965060408601359560600135945092505050565b600080600080600060a08688031215612e97578081fd5b8535612ea2816131a5565b97602087013597506040870135966060810135965060800135945092505050565b60006020808385031215612ed5578182fd5b823567ffffffffffffffff80821115612eec578384fd5b818501915085601f830112612eff578384fd5b813581811115612f1157612f1161318f565b8060051b604051601f19603f83011681018181108582111715612f3657612f3661318f565b604052828152858101935084860182860187018a1015612f54578788fd5b8795505b83861015612f7d57612f6981612da0565b855260019590950194938601938601612f58565b5098975050505050505050565b600060208284031215612f9b578081fd5b815180151581146124d1578182fd5b600060208284031215612fbb578081fd5b5035919050565b600060208284031215612fd3578081fd5b5051919050565b60008251612fec818460208701613132565b9190910192915050565b6020808252825182820181905260009190848201906040850190845b818110156130375783516001600160a01b031683529284019291840191600101613012565b50909695505050505050565b6000602082528251806020840152613062816040850160208701613132565b601f01601f19169190910160400192915050565b6020808252600a90820152691b9bdd0b584b5c1bdbdb60b21b604082015260600190565b60208082526010908201526f3737ba16ba343296b3b7bb32b93737b960811b604082015260600190565b600082198211156130d7576130d7613179565b500190565b6000826130f757634e487b7160e01b81526012600452602481fd5b500490565b600081600019048311821515161561311657613116613179565b500290565b60008282101561312d5761312d613179565b500390565b60005b8381101561314d578181015183820152602001613135565b838111156120615750506000910152565b600060001982141561317257613172613179565b5060010190565b634e487b7160e01b600052601160045260246000fd5b634e487b7160e01b600052604160045260246000fd5b6001600160a01b038116811461237457600080fdfea26469706673582212201bdd78af2530805fac66d54294ca04b897c13182464f37aebbb0738c0237419b64736f6c63430008030033",
  "devdoc": {
    "kind": "dev",
    "methods": {
      "addStrategy(address,uint256,uint256,uint256,uint256)": {
        "details": "Recalculate pool level external deposit fee after all state variables are updated.",
        "params": {
          "_debtRate": "Debt rate per block",
          "_debtRatio": "Pool fund allocation to this strategy",
          "_externalDepositFee": "External deposit fee of strategy",
          "_interestFee": "Fee on earnings from this strategy",
          "_strategy": "Strategy address"
        }
      },
      "availableCreditLimit(address)": {
        "details": "Available credit limit is calculated based on current debt of pool and strategy, current debt limit of pool and strategy. credit available = min(pool's debt limit, strategy's debt limit, max debt per rebalance) when some strategy do not pay back outstanding debt, this impact credit line of other strategy if totalDebt of pool >= debtLimit of pool",
        "params": {
          "_strategy": "Strategy address"
        }
      },
      "decreaseDebt(address,uint256)": {
        "details": "In case of withdraw from strategy, pool will decrease debt by amount withdrawn",
        "params": {
          "_decreaseBy": "Amount by which strategy debt will be decreased",
          "_strategy": "Strategy Address"
        }
      },
      "excessDebt(address)": {
        "params": {
          "_strategy": "Address of strategy"
        }
      },
      "init(address)": {
        "details": "This init function meant to be called after proxy deployment.DO NOT CALL it with proxy deploy",
        "params": {
          "_pool": "Address of Vesper pool proxy"
        }
      },
      "migrateStrategy(address,address)": {
        "details": "Migrating strategy aka old and new strategy should be of same type.New strategy will replace old strategy in strategy mapping, strategies array, withdraw queue.",
        "params": {
          "_new": "Address of new strategy",
          "_old": "Address of strategy being migrated"
        }
      },
      "removeStrategy(uint256)": {
        "details": "Revoke and remove strategy from array. Update withdraw queue. Withdraw queue order should not change after remove. Strategy can be removed only after it has paid all debt. Use migrate strategy if debt is not paid and want to upgrade strategy."
      },
      "reportEarning(address,uint256,uint256,uint256)": {
        "details": "Strategy call this in regular interval.",
        "params": {
          "_loss": "Reduce debt ,also reduce debtRatio, increase loss in record.",
          "_payback": "strategy willing to payback outstanding above debtLimit. no performance fee on this amount.  when governance has reduced debtRatio of strategy, strategy will report profit and payback amount separately.",
          "_profit": "yield generated by strategy. Strategy get performance fee on this amount"
        }
      },
      "reportLoss(address,uint256)": {
        "params": {
          "_loss": "Loss of strategy",
          "_strategy": "Strategy which incur loss"
        }
      },
      "sweepERC20(address)": {
        "details": "Transfer given ERC20 token to pool",
        "params": {
          "_fromToken": "Token address to sweep"
        }
      },
      "totalDebtOf(address)": {
        "params": {
          "_strategy": "Strategy address"
        }
      },
      "updateDebtRate(address,uint256)": {
        "params": {
          "_debtRate": "New debt rate",
          "_strategy": "Strategy address for which debt rate is being updated"
        }
      },
      "updateDebtRatio(address,uint256)": {
        "details": "A strategy is retired when debtRatio is 0As debtRatio impacts pool level external deposit fee hence recalculate it after updating debtRatio.",
        "params": {
          "_debtRatio": "New debt ratio",
          "_strategy": "Strategy address for which debt ratio is being updated"
        }
      },
      "updateExternalDepositFee(address,uint256)": {
        "params": {
          "_externalDepositFee": "New external deposit fee",
          "_strategy": "Strategy address for which external deposit fee is being updated"
        }
      },
      "updateInterestFee(address,uint256)": {
        "params": {
          "_interestFee": "New interest fee",
          "_strategy": "Strategy address for which interest fee is being updated"
        }
      },
      "updateWithdrawQueue(address[])": {
        "details": "Pool always keep some buffer amount to satisfy withdrawal request, any withdrawal request higher than buffer will withdraw from withdraw queue. So withdrawQueue[0] will be the first strategy where withdrawal request will be send.",
        "params": {
          "_withdrawQueue": "Ordered list of strategy."
        }
      }
    },
    "title": "Accountant for Vesper pools which keep records of strategies.",
    "version": 1
  },
  "userdoc": {
    "kind": "user",
    "methods": {
      "addStrategy(address,uint256,uint256,uint256,uint256)": {
        "notice": "Add strategy. Once strategy is added it can call rebalance and borrow fund from pool and invest that fund in provider/lender."
      },
      "availableCreditLimit(address)": {
        "notice": "Get available credit limit of strategy. This is the amount strategy can borrow from pool"
      },
      "decreaseDebt(address,uint256)": {
        "notice": "Decrease debt of strategy, also decrease totalDebt"
      },
      "excessDebt(address)": {
        "notice": "Debt above current debt limit"
      },
      "getStrategies()": {
        "notice": "Return strategies array"
      },
      "getWithdrawQueue()": {
        "notice": "Return withdrawQueue"
      },
      "migrateStrategy(address,address)": {
        "notice": "Migrate existing strategy to new strategy."
      },
      "removeStrategy(uint256)": {
        "notice": "Remove strategy and recalculate pool level external deposit fee."
      },
      "reportLoss(address,uint256)": {
        "notice": "Update strategy loss."
      },
      "totalDebtOf(address)": {
        "notice": "Get total debt of given strategy"
      },
      "updateDebtRate(address,uint256)": {
        "notice": "Update debtRate per block."
      },
      "updateDebtRatio(address,uint256)": {
        "notice": "Update debt ratio."
      },
      "updateExternalDepositFee(address,uint256)": {
        "notice": "Update external deposit fee of strategy and recalculate pool level external deposit fee."
      },
      "updateInterestFee(address,uint256)": {
        "notice": "Update interest fee of strategy"
      },
      "updateWithdrawQueue(address[])": {
        "notice": "Update withdraw queue. Withdraw queue is list of strategy in the order in which funds should be withdrawn."
      }
    },
    "version": 1
  },
  "storageLayout": {
    "storage": [
      {
        "astId": 887,
        "contract": "contracts/pool/PoolAccountant.sol:PoolAccountant",
        "label": "_initialized",
        "offset": 0,
        "slot": "0",
        "type": "t_bool"
      },
      {
        "astId": 890,
        "contract": "contracts/pool/PoolAccountant.sol:PoolAccountant",
        "label": "_initializing",
        "offset": 1,
        "slot": "0",
        "type": "t_bool"
      },
      {
        "astId": 7594,
        "contract": "contracts/pool/PoolAccountant.sol:PoolAccountant",
        "label": "pool",
        "offset": 2,
        "slot": "0",
        "type": "t_address"
      },
      {
        "astId": 7596,
        "contract": "contracts/pool/PoolAccountant.sol:PoolAccountant",
        "label": "totalDebtRatio",
        "offset": 0,
        "slot": "1",
        "type": "t_uint256"
      },
      {
        "astId": 7598,
        "contract": "contracts/pool/PoolAccountant.sol:PoolAccountant",
        "label": "totalDebt",
        "offset": 0,
        "slot": "2",
        "type": "t_uint256"
      },
      {
        "astId": 7601,
        "contract": "contracts/pool/PoolAccountant.sol:PoolAccountant",
        "label": "strategies",
        "offset": 0,
        "slot": "3",
        "type": "t_array(t_address)dyn_storage"
      },
      {
        "astId": 7604,
        "contract": "contracts/pool/PoolAccountant.sol:PoolAccountant",
        "label": "withdrawQueue",
        "offset": 0,
        "slot": "4",
        "type": "t_array(t_address)dyn_storage"
      },
      {
        "astId": 7631,
        "contract": "contracts/pool/PoolAccountant.sol:PoolAccountant",
        "label": "strategy",
        "offset": 0,
        "slot": "5",
        "type": "t_mapping(t_address,t_struct(StrategyConfig)7626_storage)"
      },
      {
        "astId": 7633,
        "contract": "contracts/pool/PoolAccountant.sol:PoolAccountant",
        "label": "externalDepositFee",
        "offset": 0,
        "slot": "6",
        "type": "t_uint256"
      }
    ],
    "types": {
      "t_address": {
        "encoding": "inplace",
        "label": "address",
        "numberOfBytes": "20"
      },
      "t_array(t_address)dyn_storage": {
        "base": "t_address",
        "encoding": "dynamic_array",
        "label": "address[]",
        "numberOfBytes": "32"
      },
      "t_bool": {
        "encoding": "inplace",
        "label": "bool",
        "numberOfBytes": "1"
      },
      "t_mapping(t_address,t_struct(StrategyConfig)7626_storage)": {
        "encoding": "mapping",
        "key": "t_address",
        "label": "mapping(address => struct PoolAccountantStorageV2.StrategyConfig)",
        "numberOfBytes": "32",
        "value": "t_struct(StrategyConfig)7626_storage"
      },
      "t_struct(StrategyConfig)7626_storage": {
        "encoding": "inplace",
        "label": "struct PoolAccountantStorageV2.StrategyConfig",
        "members": [
          {
            "astId": 7609,
            "contract": "contracts/pool/PoolAccountant.sol:PoolAccountant",
            "label": "active",
            "offset": 0,
            "slot": "0",
            "type": "t_bool"
          },
          {
            "astId": 7611,
            "contract": "contracts/pool/PoolAccountant.sol:PoolAccountant",
            "label": "interestFee",
            "offset": 0,
            "slot": "1",
            "type": "t_uint256"
          },
          {
            "astId": 7613,
            "contract": "contracts/pool/PoolAccountant.sol:PoolAccountant",
            "label": "debtRate",
            "offset": 0,
            "slot": "2",
            "type": "t_uint256"
          },
          {
            "astId": 7615,
            "contract": "contracts/pool/PoolAccountant.sol:PoolAccountant",
            "label": "lastRebalance",
            "offset": 0,
            "slot": "3",
            "type": "t_uint256"
          },
          {
            "astId": 7617,
            "contract": "contracts/pool/PoolAccountant.sol:PoolAccountant",
            "label": "totalDebt",
            "offset": 0,
            "slot": "4",
            "type": "t_uint256"
          },
          {
            "astId": 7619,
            "contract": "contracts/pool/PoolAccountant.sol:PoolAccountant",
            "label": "totalLoss",
            "offset": 0,
            "slot": "5",
            "type": "t_uint256"
          },
          {
            "astId": 7621,
            "contract": "contracts/pool/PoolAccountant.sol:PoolAccountant",
            "label": "totalProfit",
            "offset": 0,
            "slot": "6",
            "type": "t_uint256"
          },
          {
            "astId": 7623,
            "contract": "contracts/pool/PoolAccountant.sol:PoolAccountant",
            "label": "debtRatio",
            "offset": 0,
            "slot": "7",
            "type": "t_uint256"
          },
          {
            "astId": 7625,
            "contract": "contracts/pool/PoolAccountant.sol:PoolAccountant",
            "label": "externalDepositFee",
            "offset": 0,
            "slot": "8",
            "type": "t_uint256"
          }
        ],
        "numberOfBytes": "288"
      },
      "t_uint256": {
        "encoding": "inplace",
        "label": "uint256",
        "numberOfBytes": "32"
      }
    }
  }
}