{
  "address": "0x13A3f5769164D86CA87D70B006249B25F3429CFE",
  "abi": [
    {
      "anonymous": false,
      "inputs": [
        {
          "indexed": true,
          "internalType": "address",
          "name": "rewardToken",
          "type": "address"
        },
        {
          "indexed": false,
          "internalType": "uint256",
          "name": "reward",
          "type": "uint256"
        },
        {
          "indexed": false,
          "internalType": "uint256",
          "name": "rewardDuration",
          "type": "uint256"
        }
      ],
      "name": "RewardAdded",
      "type": "event"
    },
    {
      "anonymous": false,
      "inputs": [
        {
          "indexed": true,
          "internalType": "address",
          "name": "user",
          "type": "address"
        },
        {
          "indexed": true,
          "internalType": "address",
          "name": "rewardToken",
          "type": "address"
        },
        {
          "indexed": false,
          "internalType": "uint256",
          "name": "reward",
          "type": "uint256"
        }
      ],
      "name": "RewardPaid",
      "type": "event"
    },
    {
      "anonymous": false,
      "inputs": [
        {
          "indexed": true,
          "internalType": "address",
          "name": "rewardToken",
          "type": "address"
        },
        {
          "indexed": false,
          "internalType": "address[]",
          "name": "existingRewardTokens",
          "type": "address[]"
        }
      ],
      "name": "RewardTokenAdded",
      "type": "event"
    },
    {
      "inputs": [],
      "name": "VERSION",
      "outputs": [
        {
          "internalType": "string",
          "name": "",
          "type": "string"
        }
      ],
      "stateMutability": "view",
      "type": "function"
    },
    {
      "inputs": [
        {
          "internalType": "address",
          "name": "_newRewardToken",
          "type": "address"
        }
      ],
      "name": "addRewardToken",
      "outputs": [],
      "stateMutability": "nonpayable",
      "type": "function"
    },
    {
      "inputs": [
        {
          "internalType": "address",
          "name": "_account",
          "type": "address"
        }
      ],
      "name": "claimReward",
      "outputs": [],
      "stateMutability": "nonpayable",
      "type": "function"
    },
    {
      "inputs": [
        {
          "internalType": "address",
          "name": "_account",
          "type": "address"
        }
      ],
      "name": "claimable",
      "outputs": [
        {
          "internalType": "address[]",
          "name": "_rewardTokens",
          "type": "address[]"
        },
        {
          "internalType": "uint256[]",
          "name": "_claimableAmounts",
          "type": "uint256[]"
        }
      ],
      "stateMutability": "view",
      "type": "function"
    },
    {
      "inputs": [],
      "name": "getRewardTokens",
      "outputs": [
        {
          "internalType": "address[]",
          "name": "",
          "type": "address[]"
        }
      ],
      "stateMutability": "view",
      "type": "function"
    },
    {
      "inputs": [
        {
          "internalType": "address",
          "name": "_pool",
          "type": "address"
        },
        {
          "internalType": "address[]",
          "name": "_rewardTokens",
          "type": "address[]"
        }
      ],
      "name": "initialize",
      "outputs": [],
      "stateMutability": "nonpayable",
      "type": "function"
    },
    {
      "inputs": [
        {
          "internalType": "address",
          "name": "",
          "type": "address"
        }
      ],
      "name": "isRewardToken",
      "outputs": [
        {
          "internalType": "bool",
          "name": "",
          "type": "bool"
        }
      ],
      "stateMutability": "view",
      "type": "function"
    },
    {
      "inputs": [
        {
          "internalType": "address",
          "name": "_rewardToken",
          "type": "address"
        }
      ],
      "name": "lastTimeRewardApplicable",
      "outputs": [
        {
          "internalType": "uint256",
          "name": "",
          "type": "uint256"
        }
      ],
      "stateMutability": "view",
      "type": "function"
    },
    {
      "inputs": [
        {
          "internalType": "address",
          "name": "",
          "type": "address"
        }
      ],
      "name": "lastUpdateTime",
      "outputs": [
        {
          "internalType": "uint256",
          "name": "",
          "type": "uint256"
        }
      ],
      "stateMutability": "view",
      "type": "function"
    },
    {
      "inputs": [
        {
          "internalType": "address",
          "name": "_rewardToken",
          "type": "address"
        },
        {
          "internalType": "uint256",
          "name": "_rewardAmount",
          "type": "uint256"
        },
        {
          "internalType": "uint256",
          "name": "_rewardDuration",
          "type": "uint256"
        }
      ],
      "name": "notifyRewardAmount",
      "outputs": [],
      "stateMutability": "nonpayable",
      "type": "function"
    },
    {
      "inputs": [
        {
          "internalType": "address[]",
          "name": "_rewardTokens",
          "type": "address[]"
        },
        {
          "internalType": "uint256[]",
          "name": "_rewardAmounts",
          "type": "uint256[]"
        },
        {
          "internalType": "uint256[]",
          "name": "_rewardDurations",
          "type": "uint256[]"
        }
      ],
      "name": "notifyRewardAmount",
      "outputs": [],
      "stateMutability": "nonpayable",
      "type": "function"
    },
    {
      "inputs": [
        {
          "internalType": "address",
          "name": "",
          "type": "address"
        }
      ],
      "name": "periodFinish",
      "outputs": [
        {
          "internalType": "uint256",
          "name": "",
          "type": "uint256"
        }
      ],
      "stateMutability": "view",
      "type": "function"
    },
    {
      "inputs": [],
      "name": "pool",
      "outputs": [
        {
          "internalType": "address",
          "name": "",
          "type": "address"
        }
      ],
      "stateMutability": "view",
      "type": "function"
    },
    {
      "inputs": [
        {
          "internalType": "address",
          "name": "",
          "type": "address"
        }
      ],
      "name": "rewardDuration",
      "outputs": [
        {
          "internalType": "uint256",
          "name": "",
          "type": "uint256"
        }
      ],
      "stateMutability": "view",
      "type": "function"
    },
    {
      "inputs": [],
      "name": "rewardForDuration",
      "outputs": [
        {
          "internalType": "address[]",
          "name": "_rewardTokens",
          "type": "address[]"
        },
        {
          "internalType": "uint256[]",
          "name": "_rewardForDuration",
          "type": "uint256[]"
        }
      ],
      "stateMutability": "view",
      "type": "function"
    },
    {
      "inputs": [],
      "name": "rewardPerToken",
      "outputs": [
        {
          "internalType": "address[]",
          "name": "_rewardTokens",
          "type": "address[]"
        },
        {
          "internalType": "uint256[]",
          "name": "_rewardPerTokenRate",
          "type": "uint256[]"
        }
      ],
      "stateMutability": "view",
      "type": "function"
    },
    {
      "inputs": [
        {
          "internalType": "address",
          "name": "",
          "type": "address"
        }
      ],
      "name": "rewardPerTokenStored",
      "outputs": [
        {
          "internalType": "uint256",
          "name": "",
          "type": "uint256"
        }
      ],
      "stateMutability": "view",
      "type": "function"
    },
    {
      "inputs": [
        {
          "internalType": "address",
          "name": "",
          "type": "address"
        }
      ],
      "name": "rewardRates",
      "outputs": [
        {
          "internalType": "uint256",
          "name": "",
          "type": "uint256"
        }
      ],
      "stateMutability": "view",
      "type": "function"
    },
    {
      "inputs": [
        {
          "internalType": "uint256",
          "name": "",
          "type": "uint256"
        }
      ],
      "name": "rewardTokens",
      "outputs": [
        {
          "internalType": "address",
          "name": "",
          "type": "address"
        }
      ],
      "stateMutability": "view",
      "type": "function"
    },
    {
      "inputs": [
        {
          "internalType": "address",
          "name": "",
          "type": "address"
        },
        {
          "internalType": "address",
          "name": "",
          "type": "address"
        }
      ],
      "name": "rewards",
      "outputs": [
        {
          "internalType": "uint256",
          "name": "",
          "type": "uint256"
        }
      ],
      "stateMutability": "view",
      "type": "function"
    },
    {
      "inputs": [
        {
          "internalType": "address",
          "name": "_account",
          "type": "address"
        }
      ],
      "name": "updateReward",
      "outputs": [],
      "stateMutability": "nonpayable",
      "type": "function"
    },
    {
      "inputs": [
        {
          "internalType": "address",
          "name": "",
          "type": "address"
        },
        {
          "internalType": "address",
          "name": "",
          "type": "address"
        }
      ],
      "name": "userRewardPerTokenPaid",
      "outputs": [
        {
          "internalType": "uint256",
          "name": "",
          "type": "uint256"
        }
      ],
      "stateMutability": "view",
      "type": "function"
    }
  ],
  "transactionHash": "0xbc5fb5e0b40e9136b723f6d9894f3049d78bd9a99424a0f6ea44a3b431d10360",
  "args": [],
  "solcInputHash": "6d6aa4d3dcd6d9148cc3cd04f20f5f5d",
  "bytecode": "0x608060405234801561001057600080fd5b5060018055612579806100246000396000f3fe608060405234801561001057600080fd5b50600436106101425760003560e01c80639ce43f90116100b8578063cd3daf9d1161007c578063cd3daf9d14610308578063d279c19114610310578063da09d19d14610323578063e70b9e2714610343578063e9c544881461036e578063ffa1ad741461038e57610142565b80639ce43f901461027a578063a3cd8ac41461029a578063b5fd73f8146102ad578063bcd68eb6146102e0578063c4f59f9b146102f357610142565b8063632447c91161010a578063632447c9146101fb578063638634ee1461020e5780636946a235146102215780637035ab98146102295780637bb7bed114610254578063946d92041461026757610142565b806316f0115b146101475780631c03e6cc146101775780632ce9aead1461018c5780633d3b2603146101ba578063402914f5146101da575b600080fd5b60025461015a906001600160a01b031681565b6040516001600160a01b0390911681526020015b60405180910390f35b61018a6101853660046120c5565b6103bf565b005b6101ac61019a3660046120c5565b60086020526000908152604090205481565b60405190815260200161016e565b6101ac6101c83660046120c5565b60066020526000908152604090205481565b6101ed6101e83660046120c5565b6105e6565b60405161016e9291906122fd565b61018a6102093660046120c5565b61083c565b6101ac61021c3660046120c5565b6109a7565b6101ed6109ec565b6101ac6102373660046120fd565b600a60209081526000928352604080842090915290825290205481565b61015a61026236600461225b565b610baa565b61018a610275366004612135565b610bd4565b6101ac6102883660046120c5565b60096020526000908152604090205481565b61018a6102a8366004612183565b610dc2565b6102d06102bb3660046120c5565b60046020526000908152604090205460ff1681565b604051901515815260200161016e565b61018a6102ee3660046121b7565b610f09565b6102fb611050565b60405161016e91906122ea565b6101ed6110b2565b61018a61031e3660046120c5565b611281565b6101ac6103313660046120c5565b60056020526000908152604090205481565b6101ac6103513660046120fd565b600b60209081526000928352604080842090915290825290205481565b6101ac61037c3660046120c5565b60076020526000908152604090205481565b6103b2604051806040016040528060058152602001640342e302e360dc1b81525081565b60405161016e9190612396565b600260009054906101000a90046001600160a01b03166001600160a01b0316630c340a246040518163ffffffff1660e01b815260040160206040518083038186803b15801561040d57600080fd5b505afa158015610421573d6000803e3d6000fd5b505050506040513d601f19601f8201168201806040525081019061044591906120e1565b6001600160a01b0316336001600160a01b03161461047e5760405162461bcd60e51b8152600401610475906123c9565b60405180910390fd5b6001600160a01b0381166104d45760405162461bcd60e51b815260206004820152601960248201527f7265776172642d746f6b656e2d616464726573732d7a65726f000000000000006044820152606401610475565b6001600160a01b03811660009081526004602052604090205460ff161561053d5760405162461bcd60e51b815260206004820152601a60248201527f7265776172642d746f6b656e2d616c72656164792d65786973740000000000006044820152606401610475565b806001600160a01b03167f438dc3ee1ea07ec168befb145c10eb363aad7cbec063f8a006b032031582ac2b60036040516105779190612346565b60405180910390a26003805460018181019092557fc2575a0e9e593c00f959f8c92f12db2869c3395a3b0502d05e2516446f71f85b0180546001600160a01b039093166001600160a01b031990931683179055600091825260046020526040909120805460ff19169091179055565b6060806000600260009054906101000a90046001600160a01b03166001600160a01b03166318160ddd6040518163ffffffff1660e01b815260040160206040518083038186803b15801561063957600080fd5b505afa15801561064d573d6000803e3d6000fd5b505050506040513d601f19601f820116820180604052508101906106719190612273565b6002546040516370a0823160e01b81526001600160a01b038781166004830152929350600092909116906370a082319060240160206040518083038186803b1580156106bc57600080fd5b505afa1580156106d0573d6000803e3d6000fd5b505050506040513d601f19601f820116820180604052508101906106f49190612273565b6003549091508067ffffffffffffffff81111561072157634e487b7160e01b600052604160045260246000fd5b60405190808252806020026020018201604052801561074a578160200160208202803683370190505b50935060005b818110156107d6576107996003828154811061077c57634e487b7160e01b600052603260045260246000fd5b6000918252602090912001546001600160a01b0316888686611559565b8582815181106107b957634e487b7160e01b600052603260045260246000fd5b6020908102919091010152806107ce816124e4565b915050610750565b50600380548060200260200160405190810160405280929190818152602001828054801561082d57602002820191906000526020600020905b81546001600160a01b0316815260019091019060200180831161080f575b50505050509450505050915091565b600254604080516318160ddd60e01b815290516000926001600160a01b0316916318160ddd916004808301926020929190829003018186803b15801561088157600080fd5b505afa158015610895573d6000803e3d6000fd5b505050506040513d601f19601f820116820180604052508101906108b99190612273565b6002546040516370a0823160e01b81526001600160a01b038581166004830152929350600092909116906370a082319060240160206040518083038186803b15801561090457600080fd5b505afa158015610918573d6000803e3d6000fd5b505050506040513d601f19601f8201168201806040525081019061093c9190612273565b60035490915060005b818110156109a05761098e6003828154811061097157634e487b7160e01b600052603260045260246000fd5b6000918252602090912001546001600160a01b03168686866115f7565b80610998816124e4565b915050610945565b5050505050565b6001600160a01b03811660009081526005602052604081205442106109e4576001600160a01b0382166000908152600560205260409020546109e6565b425b92915050565b60035460609081908067ffffffffffffffff811115610a1b57634e487b7160e01b600052604160045260246000fd5b604051908082528060200260200182016040528015610a44578160200160208202803683370190505b50915060005b81811015610b47576007600060038381548110610a7757634e487b7160e01b600052603260045260246000fd5b9060005260206000200160009054906101000a90046001600160a01b03166001600160a01b03166001600160a01b03168152602001908152602001600020546006600060038481548110610adb57634e487b7160e01b600052603260045260246000fd5b60009182526020808320909101546001600160a01b03168352820192909252604001902054610b0a919061247e565b838281518110610b2a57634e487b7160e01b600052603260045260246000fd5b602090810291909101015280610b3f816124e4565b915050610a4a565b506003805480602002602001604051908101604052809291908181526020018280548015610b9e57602002820191906000526020600020905b81546001600160a01b03168152600190910190602001808311610b80575b50505050509250509091565b60038181548110610bba57600080fd5b6000918252602090912001546001600160a01b0316905081565b600054610100900460ff1680610bed575060005460ff16155b610c505760405162461bcd60e51b815260206004820152602e60248201527f496e697469616c697a61626c653a20636f6e747261637420697320616c72656160448201526d191e481a5b9a5d1a585b1a5e995960921b6064820152608401610475565b600054610100900460ff16158015610c72576000805461ffff19166101011790555b6001600160a01b038316610cbf5760405162461bcd60e51b8152602060048201526014602482015273706f6f6c2d616464726573732d69732d7a65726f60601b6044820152606401610475565b8151610d055760405162461bcd60e51b8152602060048201526015602482015274696e76616c69642d7265776172642d746f6b656e7360581b6044820152606401610475565b600280546001600160a01b0319166001600160a01b0385161790558151610d33906003906020850190611f76565b5060005b8251811015610daa57600160046000858481518110610d6657634e487b7160e01b600052603260045260246000fd5b6020908102919091018101516001600160a01b03168252810191909152604001600020805460ff191691151591909117905580610da2816124e4565b915050610d37565b508015610dbd576000805461ff00191690555b505050565b600260009054906101000a90046001600160a01b03166001600160a01b0316630c340a246040518163ffffffff1660e01b815260040160206040518083038186803b158015610e1057600080fd5b505afa158015610e24573d6000803e3d6000fd5b505050506040513d601f19601f82011682018060405250810190610e4891906120e1565b6001600160a01b0316336001600160a01b031614610e785760405162461bcd60e51b8152600401610475906123c9565b610dbd838383600260009054906101000a90046001600160a01b03166001600160a01b03166318160ddd6040518163ffffffff1660e01b815260040160206040518083038186803b158015610ecc57600080fd5b505afa158015610ee0573d6000803e3d6000fd5b505050506040513d601f19601f82011682018060405250810190610f049190612273565b6116a0565b600260009054906101000a90046001600160a01b03166001600160a01b0316630c340a246040518163ffffffff1660e01b815260040160206040518083038186803b158015610f5757600080fd5b505afa158015610f6b573d6000803e3d6000fd5b505050506040513d601f19601f82011682018060405250810190610f8f91906120e1565b6001600160a01b0316336001600160a01b031614610fbf5760405162461bcd60e51b8152600401610475906123c9565b610dbd838383600260009054906101000a90046001600160a01b03166001600160a01b03166318160ddd6040518163ffffffff1660e01b815260040160206040518083038186803b15801561101357600080fd5b505afa158015611027573d6000803e3d6000fd5b505050506040513d601f19601f8201168201806040525081019061104b9190612273565b611a37565b606060038054806020026020016040519081016040528092919081815260200182805480156110a857602002820191906000526020600020905b81546001600160a01b0316815260019091019060200180831161108a575b5050505050905090565b6060806000600260009054906101000a90046001600160a01b03166001600160a01b03166318160ddd6040518163ffffffff1660e01b815260040160206040518083038186803b15801561110557600080fd5b505afa158015611119573d6000803e3d6000fd5b505050506040513d601f19601f8201168201806040525081019061113d9190612273565b6003549091508067ffffffffffffffff81111561116a57634e487b7160e01b600052604160045260246000fd5b604051908082528060200260200182016040528015611193578160200160208202803683370190505b50925060005b8181101561121d576111e0600382815481106111c557634e487b7160e01b600052603260045260246000fd5b6000918252602090912001546001600160a01b031684611c0f565b84828151811061120057634e487b7160e01b600052603260045260246000fd5b602090810291909101015280611215816124e4565b915050611199565b50600380548060200260200160405190810160405280929190818152602001828054801561127457602002820191906000526020600020905b81546001600160a01b03168152600190910190602001808311611256575b5050505050935050509091565b600260015414156112d45760405162461bcd60e51b815260206004820152601f60248201527f5265656e7472616e637947756172643a207265656e7472616e742063616c6c006044820152606401610475565b6002600181905554604080516318160ddd60e01b815290516000926001600160a01b0316916318160ddd916004808301926020929190829003018186803b15801561131e57600080fd5b505afa158015611332573d6000803e3d6000fd5b505050506040513d601f19601f820116820180604052508101906113569190612273565b6002546040516370a0823160e01b81526001600160a01b038581166004830152929350600092909116906370a082319060240160206040518083038186803b1580156113a157600080fd5b505afa1580156113b5573d6000803e3d6000fd5b505050506040513d601f19601f820116820180604052508101906113d99190612273565b60035490915060005b8181101561154e5760006003828154811061140d57634e487b7160e01b600052603260045260246000fd5b6000918252602090912001546001600160a01b03169050611430818787876115f7565b6001600160a01b038082166000908152600b60209081526040808320938a168352929052205480158015906114db57506040516370a0823160e01b81523060048201526001600160a01b038316906370a082319060240160206040518083038186803b15801561149f57600080fd5b505afa1580156114b3573d6000803e3d6000fd5b505050506040513d601f19601f820116820180604052508101906114d79190612273565b8111155b15611539576114eb828883611cda565b816001600160a01b0316876001600160a01b03167f540798df468d7b23d11f156fdb954cb19ad414d150722a7b6d55ba369dea792e8360405161153091815260200190565b60405180910390a35b50508080611546906124e4565b9150506113e2565b505060018055505050565b6001600160a01b038085166000908152600a60209081526040808320938716835292905290812054819061158d8786611c0f565b611597919061249d565b90506000670de0b6b3a76400006115ae838661247e565b6115b8919061245e565b6001600160a01b038089166000908152600b60209081526040808320938b16835292905220549091506115ec908290612446565b979650505050505050565b60006116038584611c0f565b6001600160a01b03861660009081526009602052604090208190559050611629856109a7565b6001600160a01b038087166000908152600860205260409020919091558416156109a05761165985858585611559565b6001600160a01b038087166000818152600b60209081526040808320948a1680845294825280832095909555918152600a8252838120928152919052208190555050505050565b6001600160a01b0384166116ef5760405162461bcd60e51b815260206004820152601660248201527534b731b7b93932b1ba16b932bbb0b93216ba37b5b2b760511b6044820152606401610475565b8261173c5760405162461bcd60e51b815260206004820152601760248201527f696e636f72726563742d7265776172642d616d6f756e740000000000000000006044820152606401610475565b816117895760405162461bcd60e51b815260206004820152601960248201527f696e636f72726563742d7265776172642d6475726174696f6e000000000000006044820152606401610475565b6001600160a01b03841660009081526004602052604090205460ff166117e85760405162461bcd60e51b815260206004820152601460248201527334b73b30b634b216b932bbb0b93216ba37b5b2b760611b6044820152606401610475565b6117f28482611c0f565b6001600160a01b038516600090815260096020908152604080832093909355600590522054421061184557611827828461245e565b6001600160a01b0385166000908152600660205260409020556118c3565b6001600160a01b03841660009081526005602052604081205461186990429061249d565b6001600160a01b03861660009081526006602052604081205491925090611890908361247e565b90508361189d8287612446565b6118a7919061245e565b6001600160a01b03871660009081526006602052604090205550505b6040516370a0823160e01b81523060048201526000906001600160a01b038616906370a082319060240160206040518083038186803b15801561190557600080fd5b505afa158015611919573d6000803e3d6000fd5b505050506040513d601f19601f8201168201806040525081019061193d9190612273565b9050611949838261245e565b6001600160a01b03861660009081526006602052604090205411156119a35760405162461bcd60e51b815260206004820152601060248201526f0e4caeec2e4c8e65ae8dede5ad0d2ced60831b6044820152606401610475565b6001600160a01b03851660009081526007602090815260408083208690556008909152902042908190556119d8908490612446565b6001600160a01b03861660008181526005602090815260409182902093909355805187815292830186905290917f6a6f77044107a33658235d41bedbbaf2fe9ccdceb313143c947a5e76e1ec8474910160405180910390a25050505050565b83518351835182611a825760405162461bcd60e51b8152602060048201526015602482015274696e76616c69642d7265776172642d746f6b656e7360581b6044820152606401610475565b81611ac85760405162461bcd60e51b8152602060048201526016602482015275696e76616c69642d7265776172642d616d6f756e747360501b6044820152606401610475565b80611b155760405162461bcd60e51b815260206004820152601860248201527f696e76616c69642d7265776172642d6475726174696f6e7300000000000000006044820152606401610475565b8183148015611b2357508083145b611b675760405162461bcd60e51b81526020600482015260156024820152740c2e4e4c2f25ad8cadccee8d05adad2e6dac2e8c6d605b1b6044820152606401610475565b60005b83811015611c0557611bf3888281518110611b9557634e487b7160e01b600052603260045260246000fd5b6020026020010151888381518110611bbd57634e487b7160e01b600052603260045260246000fd5b6020026020010151888481518110611be557634e487b7160e01b600052603260045260246000fd5b6020026020010151886116a0565b80611bfd816124e4565b915050611b6a565b5050505050505050565b600081611c3557506001600160a01b0382166000908152600960205260409020546109e6565b6001600160a01b038316600090815260086020526040812054611c57856109a7565b611c61919061249d565b6001600160a01b03851660009081526006602052604081205491925090611c88908361247e565b9050600084611c9f83670de0b6b3a764000061247e565b611ca9919061245e565b6001600160a01b038716600090815260096020526040902054909150611cd0908290612446565b9695505050505050565b6001600160a01b038381166000818152600b60209081526040808320948716808452948252808320839055805160248101959095526044808601879052815180870390910181526064909501815284820180516001600160e01b031663a9059cbb60e01b17905280518082019091528181527f5361666545524332303a206c6f772d6c6576656c2063616c6c206661696c656491810191909152610dbd9386928692869286929091611d8f9084908490611e0c565b805190915015610dbd5780806020019051810190611dad919061223b565b610dbd5760405162461bcd60e51b815260206004820152602a60248201527f5361666545524332303a204552433230206f7065726174696f6e20646964206e6044820152691bdd081cdd58d8d9595960b21b6064820152608401610475565b6060611e1b8484600085611e25565b90505b9392505050565b606082471015611e865760405162461bcd60e51b815260206004820152602660248201527f416464726573733a20696e73756666696369656e742062616c616e636520666f6044820152651c8818d85b1b60d21b6064820152608401610475565b843b611ed45760405162461bcd60e51b815260206004820152601d60248201527f416464726573733a2063616c6c20746f206e6f6e2d636f6e74726163740000006044820152606401610475565b600080866001600160a01b03168587604051611ef091906122ce565b60006040518083038185875af1925050503d8060008114611f2d576040519150601f19603f3d011682016040523d82523d6000602084013e611f32565b606091505b50915091506115ec82828660608315611f4c575081611e1e565b825115611f5c5782518084602001fd5b8160405162461bcd60e51b81526004016104759190612396565b828054828255906000526020600020908101928215611fcb579160200282015b82811115611fcb57825182546001600160a01b0319166001600160a01b03909116178255602090920191600190910190611f96565b50611fd7929150611fdb565b5090565b5b80821115611fd75760008155600101611fdc565b600082601f830112612000578081fd5b8135602061201561201083612422565b6123f1565b80838252828201915082860187848660051b8901011115612034578586fd5b855b8581101561205b5781356120498161252b565b84529284019290840190600101612036565b5090979650505050505050565b600082601f830112612078578081fd5b8135602061208861201083612422565b80838252828201915082860187848660051b89010111156120a7578586fd5b855b8581101561205b578135845292840192908401906001016120a9565b6000602082840312156120d6578081fd5b8135611e1e8161252b565b6000602082840312156120f2578081fd5b8151611e1e8161252b565b6000806040838503121561210f578081fd5b823561211a8161252b565b9150602083013561212a8161252b565b809150509250929050565b60008060408385031215612147578182fd5b82356121528161252b565b9150602083013567ffffffffffffffff81111561216d578182fd5b61217985828601611ff0565b9150509250929050565b600080600060608486031215612197578081fd5b83356121a28161252b565b95602085013595506040909401359392505050565b6000806000606084860312156121cb578283fd5b833567ffffffffffffffff808211156121e2578485fd5b6121ee87838801611ff0565b94506020860135915080821115612203578384fd5b61220f87838801612068565b93506040860135915080821115612224578283fd5b5061223186828701612068565b9150509250925092565b60006020828403121561224c578081fd5b81518015158114611e1e578182fd5b60006020828403121561226c578081fd5b5035919050565b600060208284031215612284578081fd5b5051919050565b6000815180845260208085019450808401835b838110156122c35781516001600160a01b03168752958201959082019060010161229e565b509495945050505050565b600082516122e08184602087016124b4565b9190910192915050565b600060208252611e1e602083018461228b565b600060408252612310604083018561228b565b828103602084810191909152845180835285820192820190845b8181101561205b5784518352938301939183019160010161232a565b6020808252825482820181905260008481528281209092916040850190845b8181101561238a5783546001600160a01b031683526001938401939285019201612365565b50909695505050505050565b60006020825282518060208401526123b58160408501602087016124b4565b601f01601f19169190910160400192915050565b6020808252600e908201526d1b9bdd0b585d5d1a1bdc9a5e995960921b604082015260600190565b604051601f8201601f1916810167ffffffffffffffff8111828210171561241a5761241a612515565b604052919050565b600067ffffffffffffffff82111561243c5761243c612515565b5060051b60200190565b60008219821115612459576124596124ff565b500190565b60008261247957634e487b7160e01b81526012600452602481fd5b500490565b6000816000190483118215151615612498576124986124ff565b500290565b6000828210156124af576124af6124ff565b500390565b60005b838110156124cf5781810151838201526020016124b7565b838111156124de576000848401525b50505050565b60006000198214156124f8576124f86124ff565b5060010190565b634e487b7160e01b600052601160045260246000fd5b634e487b7160e01b600052604160045260246000fd5b6001600160a01b038116811461254057600080fd5b5056fea26469706673582212209946bfaa59fd42e2c540a965a6aa9251ad129ee5aca5c0b8858ac31820b7c37864736f6c63430008030033",
  "devdoc": {
    "kind": "dev",
    "methods": {
      "claimReward(address)": {
        "details": "This function will claim rewards for all tokens being rewarded"
      },
      "claimable(address)": {
        "returns": {
          "_claimableAmounts": "Array of claimable for token on same index in rewardTokens",
          "_rewardTokens": "Array of tokens being rewarded"
        }
      },
      "initialize(address,address[])": {
        "details": "Called by proxy to initialize this contract",
        "params": {
          "_pool": "Vesper pool address",
          "_rewardTokens": "Array of reward token addresses"
        }
      },
      "notifyRewardAmount(address[],uint256[],uint256[])": {
        "details": "Also updates reward rate and reward earning period.",
        "params": {
          "_rewardAmounts": "Rewards amount for token on same index in rewardTokens array",
          "_rewardDurations": "Duration for which reward will be distributed",
          "_rewardTokens": "Tokens being rewarded"
        }
      },
      "rewardPerToken()": {
        "returns": {
          "_rewardPerTokenRate": "Array of Rewards rate for token on same index in rewardTokens",
          "_rewardTokens": "Array of tokens being rewarded"
        }
      }
    },
    "title": "Distribute rewards based on vesper pool balance and supply",
    "version": 1
  },
  "userdoc": {
    "events": {
      "RewardAdded(address,uint256,uint256)": {
        "notice": "Emitted after reward added"
      },
      "RewardPaid(address,address,uint256)": {
        "notice": "Emitted whenever any user claim rewards"
      },
      "RewardTokenAdded(address,address[])": {
        "notice": "Emitted after adding new rewards token into rewardTokens array"
      }
    },
    "kind": "user",
    "methods": {
      "addRewardToken(address)": {
        "notice": "Add new reward token in existing rewardsToken array"
      },
      "claimReward(address)": {
        "notice": "Claim earned rewards."
      },
      "claimable(address)": {
        "notice": "Returns claimable reward amount."
      },
      "getRewardTokens()": {
        "notice": "Provides easy access to all rewardTokens"
      },
      "isRewardToken(address)": {
        "notice": "Reward token to valid/invalid flag mapping"
      },
      "lastTimeRewardApplicable(address)": {
        "notice": "Returns timestamp of last reward update"
      },
      "lastUpdateTime(address)": {
        "notice": "Reward token to Last reward drip update time stamp mapping"
      },
      "notifyRewardAmount(address[],uint256[],uint256[])": {
        "notice": "Notify that reward is added. Only authorized caller can call"
      },
      "periodFinish(address)": {
        "notice": "Reward token to period ending of current reward"
      },
      "pool()": {
        "notice": "Vesper pool address"
      },
      "rewardDuration(address)": {
        "notice": "Reward token to Duration of current reward distribution"
      },
      "rewardPerToken()": {
        "notice": "Rewards rate per pool token"
      },
      "rewardPerTokenStored(address)": {
        "notice": "Reward token to Reward per token mapping. Calculated and stored at last drip update"
      },
      "rewardRates(address)": {
        "notice": "Reward token to current reward rate mapping"
      },
      "rewardTokens(uint256)": {
        "notice": "Array of reward token addresses"
      },
      "rewards(address,address)": {
        "notice": "RewardToken => User => Rewards earned till last reward update"
      },
      "updateReward(address)": {
        "notice": "Updated reward for given account."
      },
      "userRewardPerTokenPaid(address,address)": {
        "notice": "Reward token => User => Reward per token stored at last reward update"
      }
    },
    "version": 1
  },
  "storageLayout": {
    "storage": [
      {
        "astId": 887,
        "contract": "contracts/pool/PoolRewards.sol:PoolRewards",
        "label": "_initialized",
        "offset": 0,
        "slot": "0",
        "type": "t_bool"
      },
      {
        "astId": 890,
        "contract": "contracts/pool/PoolRewards.sol:PoolRewards",
        "label": "_initializing",
        "offset": 1,
        "slot": "0",
        "type": "t_bool"
      },
      {
        "astId": 938,
        "contract": "contracts/pool/PoolRewards.sol:PoolRewards",
        "label": "_status",
        "offset": 0,
        "slot": "1",
        "type": "t_uint256"
      },
      {
        "astId": 9803,
        "contract": "contracts/pool/PoolRewards.sol:PoolRewards",
        "label": "pool",
        "offset": 0,
        "slot": "2",
        "type": "t_address"
      },
      {
        "astId": 9807,
        "contract": "contracts/pool/PoolRewards.sol:PoolRewards",
        "label": "rewardTokens",
        "offset": 0,
        "slot": "3",
        "type": "t_array(t_address)dyn_storage"
      },
      {
        "astId": 9812,
        "contract": "contracts/pool/PoolRewards.sol:PoolRewards",
        "label": "isRewardToken",
        "offset": 0,
        "slot": "4",
        "type": "t_mapping(t_address,t_bool)"
      },
      {
        "astId": 9817,
        "contract": "contracts/pool/PoolRewards.sol:PoolRewards",
        "label": "periodFinish",
        "offset": 0,
        "slot": "5",
        "type": "t_mapping(t_address,t_uint256)"
      },
      {
        "astId": 9822,
        "contract": "contracts/pool/PoolRewards.sol:PoolRewards",
        "label": "rewardRates",
        "offset": 0,
        "slot": "6",
        "type": "t_mapping(t_address,t_uint256)"
      },
      {
        "astId": 9827,
        "contract": "contracts/pool/PoolRewards.sol:PoolRewards",
        "label": "rewardDuration",
        "offset": 0,
        "slot": "7",
        "type": "t_mapping(t_address,t_uint256)"
      },
      {
        "astId": 9832,
        "contract": "contracts/pool/PoolRewards.sol:PoolRewards",
        "label": "lastUpdateTime",
        "offset": 0,
        "slot": "8",
        "type": "t_mapping(t_address,t_uint256)"
      },
      {
        "astId": 9837,
        "contract": "contracts/pool/PoolRewards.sol:PoolRewards",
        "label": "rewardPerTokenStored",
        "offset": 0,
        "slot": "9",
        "type": "t_mapping(t_address,t_uint256)"
      },
      {
        "astId": 9844,
        "contract": "contracts/pool/PoolRewards.sol:PoolRewards",
        "label": "userRewardPerTokenPaid",
        "offset": 0,
        "slot": "10",
        "type": "t_mapping(t_address,t_mapping(t_address,t_uint256))"
      },
      {
        "astId": 9851,
        "contract": "contracts/pool/PoolRewards.sol:PoolRewards",
        "label": "rewards",
        "offset": 0,
        "slot": "11",
        "type": "t_mapping(t_address,t_mapping(t_address,t_uint256))"
      }
    ],
    "types": {
      "t_address": {
        "encoding": "inplace",
        "label": "address",
        "numberOfBytes": "20"
      },
      "t_array(t_address)dyn_storage": {
        "base": "t_address",
        "encoding": "dynamic_array",
        "label": "address[]",
        "numberOfBytes": "32"
      },
      "t_bool": {
        "encoding": "inplace",
        "label": "bool",
        "numberOfBytes": "1"
      },
      "t_mapping(t_address,t_bool)": {
        "encoding": "mapping",
        "key": "t_address",
        "label": "mapping(address => bool)",
        "numberOfBytes": "32",
        "value": "t_bool"
      },
      "t_mapping(t_address,t_mapping(t_address,t_uint256))": {
        "encoding": "mapping",
        "key": "t_address",
        "label": "mapping(address => mapping(address => uint256))",
        "numberOfBytes": "32",
        "value": "t_mapping(t_address,t_uint256)"
      },
      "t_mapping(t_address,t_uint256)": {
        "encoding": "mapping",
        "key": "t_address",
        "label": "mapping(address => uint256)",
        "numberOfBytes": "32",
        "value": "t_uint256"
      },
      "t_uint256": {
        "encoding": "inplace",
        "label": "uint256",
        "numberOfBytes": "32"
      }
    }
  }
}