{
  "address": "0xdb0950c877Db658E17a8120E89b4f2Ffc4Dd6e05",
  "abi": [
    {
      "inputs": [
        {
          "internalType": "address",
          "name": "_pool",
          "type": "address"
        },
        {
          "internalType": "address",
          "name": "_swapManager",
          "type": "address"
        }
      ],
      "stateMutability": "nonpayable",
      "type": "constructor"
    },
    {
      "anonymous": false,
      "inputs": [
        {
          "indexed": true,
          "internalType": "address",
          "name": "previousFeeCollector",
          "type": "address"
        },
        {
          "indexed": true,
          "internalType": "address",
          "name": "newFeeCollector",
          "type": "address"
        }
      ],
      "name": "UpdatedFeeCollector",
      "type": "event"
    },
    {
      "anonymous": false,
      "inputs": [
        {
          "indexed": true,
          "internalType": "address",
          "name": "previousSwapManager",
          "type": "address"
        },
        {
          "indexed": true,
          "internalType": "address",
          "name": "newSwapManager",
          "type": "address"
        }
      ],
      "name": "UpdatedSwapManager",
      "type": "event"
    },
    {
      "inputs": [],
      "name": "NAME",
      "outputs": [
        {
          "internalType": "string",
          "name": "",
          "type": "string"
        }
      ],
      "stateMutability": "view",
      "type": "function"
    },
    {
      "inputs": [],
      "name": "VERSION",
      "outputs": [
        {
          "internalType": "string",
          "name": "",
          "type": "string"
        }
      ],
      "stateMutability": "view",
      "type": "function"
    },
    {
      "inputs": [
        {
          "internalType": "address",
          "name": "_keeperAddress",
          "type": "address"
        }
      ],
      "name": "addKeeper",
      "outputs": [],
      "stateMutability": "nonpayable",
      "type": "function"
    },
    {
      "inputs": [],
      "name": "approveToken",
      "outputs": [],
      "stateMutability": "nonpayable",
      "type": "function"
    },
    {
      "inputs": [],
      "name": "collateralToken",
      "outputs": [
        {
          "internalType": "contract IERC20",
          "name": "",
          "type": "address"
        }
      ],
      "stateMutability": "view",
      "type": "function"
    },
    {
      "inputs": [
        {
          "internalType": "uint256",
          "name": "amount",
          "type": "uint256"
        }
      ],
      "name": "convertFrom18",
      "outputs": [
        {
          "internalType": "uint256",
          "name": "",
          "type": "uint256"
        }
      ],
      "stateMutability": "pure",
      "type": "function"
    },
    {
      "inputs": [],
      "name": "feeCollector",
      "outputs": [
        {
          "internalType": "address",
          "name": "",
          "type": "address"
        }
      ],
      "stateMutability": "view",
      "type": "function"
    },
    {
      "inputs": [
        {
          "internalType": "address",
          "name": "_addressListFactory",
          "type": "address"
        }
      ],
      "name": "init",
      "outputs": [],
      "stateMutability": "nonpayable",
      "type": "function"
    },
    {
      "inputs": [
        {
          "internalType": "address",
          "name": "_token",
          "type": "address"
        }
      ],
      "name": "isReservedToken",
      "outputs": [
        {
          "internalType": "bool",
          "name": "",
          "type": "bool"
        }
      ],
      "stateMutability": "view",
      "type": "function"
    },
    {
      "inputs": [],
      "name": "keepers",
      "outputs": [
        {
          "internalType": "contract IAddressList",
          "name": "",
          "type": "address"
        }
      ],
      "stateMutability": "view",
      "type": "function"
    },
    {
      "inputs": [
        {
          "internalType": "address",
          "name": "_newStrategy",
          "type": "address"
        }
      ],
      "name": "migrate",
      "outputs": [],
      "stateMutability": "nonpayable",
      "type": "function"
    },
    {
      "inputs": [],
      "name": "pool",
      "outputs": [
        {
          "internalType": "address",
          "name": "",
          "type": "address"
        }
      ],
      "stateMutability": "view",
      "type": "function"
    },
    {
      "inputs": [],
      "name": "rebalance",
      "outputs": [],
      "stateMutability": "nonpayable",
      "type": "function"
    },
    {
      "inputs": [],
      "name": "receiptToken",
      "outputs": [
        {
          "internalType": "address",
          "name": "",
          "type": "address"
        }
      ],
      "stateMutability": "view",
      "type": "function"
    },
    {
      "inputs": [
        {
          "internalType": "address",
          "name": "_keeperAddress",
          "type": "address"
        }
      ],
      "name": "removeKeeper",
      "outputs": [],
      "stateMutability": "nonpayable",
      "type": "function"
    },
    {
      "inputs": [],
      "name": "swapManager",
      "outputs": [
        {
          "internalType": "contract ISwapManager",
          "name": "",
          "type": "address"
        }
      ],
      "stateMutability": "view",
      "type": "function"
    },
    {
      "inputs": [
        {
          "internalType": "address",
          "name": "_fromToken",
          "type": "address"
        }
      ],
      "name": "sweepERC20",
      "outputs": [],
      "stateMutability": "nonpayable",
      "type": "function"
    },
    {
      "inputs": [],
      "name": "token",
      "outputs": [
        {
          "internalType": "address",
          "name": "",
          "type": "address"
        }
      ],
      "stateMutability": "view",
      "type": "function"
    },
    {
      "inputs": [],
      "name": "totalValue",
      "outputs": [
        {
          "internalType": "uint256",
          "name": "_totalValue",
          "type": "uint256"
        }
      ],
      "stateMutability": "view",
      "type": "function"
    },
    {
      "inputs": [
        {
          "internalType": "address",
          "name": "_feeCollector",
          "type": "address"
        }
      ],
      "name": "updateFeeCollector",
      "outputs": [],
      "stateMutability": "nonpayable",
      "type": "function"
    },
    {
      "inputs": [
        {
          "internalType": "address",
          "name": "_swapManager",
          "type": "address"
        }
      ],
      "name": "updateSwapManager",
      "outputs": [],
      "stateMutability": "nonpayable",
      "type": "function"
    },
    {
      "inputs": [
        {
          "internalType": "uint256",
          "name": "_amount",
          "type": "uint256"
        }
      ],
      "name": "withdraw",
      "outputs": [],
      "stateMutability": "nonpayable",
      "type": "function"
    }
  ],
  "transactionHash": "0x2feb20a77de384934480db0b6749f6f5bba2e53efc7971d80b23caaa830a6619",
  "args": [
    "0xfF43C327410F960261057ba1DA787eD78B42c257",
    "0xb3361918F2651409a6302DcEC2B1F0C6241fEC2e"
  ],
  "solcInputHash": "c2f62ce78ec0012540fd7a368ab20d45",
  "bytecode": "0x6101006040523480156200001257600080fd5b50604051620032793803806200327983398101604081905262000035916200022f565b81817335a18000230da775cac24873d00ff85bccded5508282826001600160a01b038316620000ab5760405162461bcd60e51b815260206004820152601460248201527f706f6f6c2d616464726573732d69732d7a65726f00000000000000000000000060448201526064015b60405180910390fd5b6001600160a01b038216620000f85760405162461bcd60e51b8152602060048201526012602482015271736d2d616464726573732d69732d7a65726f60701b6044820152606401620000a2565b600280546001600160a01b0319166001600160a01b0384811691909117909155606084901b6001600160601b03191660c05260408051637e062a3560e11b815290519185169163fc0c546a91600480820192602092909190829003018186803b1580156200016557600080fd5b505afa1580156200017a573d6000803e3d6000fd5b505050506040513d601f19601f82011682018060405250810190620001a091906200026d565b6001600160601b0319606091821b811660805291901b1660a05250506001600160a01b038116620002145760405162461bcd60e51b815260206004820152601660248201527f63546f6b656e2d616464726573732d69732d7a65726f000000000000000000006044820152606401620000a2565b60601b6001600160601b03191660e05250620002ac92505050565b6000806040838503121562000242578182fd5b82516200024f8162000293565b6020840151909250620002628162000293565b809150509250929050565b6000602082840312156200027f578081fd5b81516200028c8162000293565b9392505050565b6001600160a01b0381168114620002a957600080fd5b50565b60805160601c60a05160601c60c05160601c60e05160601c612e92620003e76000396000818161099b0152818161145301528181611a2101528181611b7501528181611dee01528181611fd00152818161206e015281816121730152818161231501526124ca01526000818161016101528181610393015281816105220152818161079d01528181610819015281816109ff01528181610c9601528181610dbe01528181610e8701528181611117015281816117a901528181611828015281816118c50152611b210152600081816103140152818161034901528181610f9b015261101f01526000818161028b01528181611069015281816110ee015281816113a1015281816115e2015281816117d30152818161198101528181611aff01528181611b530152818161202601526120cb0152612e926000f3fe608060405234801561001057600080fd5b50600436106101425760003560e01c8063a3f4df7e116100b8578063d4c3eea01161007c578063d4c3eea0146102e6578063e00af4a7146102fc578063ec78e8321461030f578063fb589de214610336578063fc0c546a14610347578063ffa1ad741461036d57610142565b8063a3f4df7e14610245578063b2016bd414610286578063c415b95c146102ad578063ce5494bb146102c0578063d2c35ce8146102d357610142565b8063440d72481161010a578063440d7248146101d95780634c36fad7146101fc578063709d039d1461020f5780637d7c2a1c14610222578063951dc22c1461022a57806399b71d5c1461023d57610142565b806314ae9f2e1461014757806316f0115b1461015c57806319ab453c146101a05780632e1a7d4d146101b35780634032b72b146101c6575b600080fd5b61015a610155366004612a06565b610391565b005b6101837f000000000000000000000000000000000000000000000000000000000000000081565b6040516001600160a01b0390911681526020015b60405180910390f35b61015a6101ae366004612a06565b610520565b61015a6101c1366004612b84565b61079a565b61015a6101d4366004612a06565b610817565b6101ec6101e7366004612a06565b610997565b6040519015158152602001610197565b61015a61020a366004612a06565b6109fd565b600254610183906001600160a01b031681565b61015a610bb0565b600054610183906001600160a01b031681565b61015a610cff565b61027960405180604001604052806015815260200174436f6d706f756e642d53747261746567792d554e4960581b81525081565b6040516101979190612c37565b6101837f000000000000000000000000000000000000000000000000000000000000000081565b600154610183906001600160a01b031681565b61015a6102ce366004612a06565b610dbb565b61015a6102e1366004612a06565b611115565b6102ee6112de565b604051908152602001610197565b61015a61030a366004612a06565b6114eb565b6101837f000000000000000000000000000000000000000000000000000000000000000081565b6102ee610344366004612b84565b90565b7f0000000000000000000000000000000000000000000000000000000000000000610183565b61027960405180604001604052806005815260200164199718171960d91b81525081565b7f00000000000000000000000000000000000000000000000000000000000000006001600160a01b0316630c340a246040518163ffffffff1660e01b815260040160206040518083038186803b1580156103ea57600080fd5b505afa1580156103fe573d6000803e3d6000fd5b505050506040513d601f19601f820116820180604052508101906104229190612a22565b6001600160a01b0316336001600160a01b03161461045b5760405162461bcd60e51b815260040161045290612c9a565b60405180910390fd5b600054604051631484968760e11b81526001600160a01b038381166004830152909116906329092d0e90602401602060405180830381600087803b1580156104a257600080fd5b505af11580156104b6573d6000803e3d6000fd5b505050506040513d601f19601f820116820180604052508101906104da9190612b64565b61051d5760405162461bcd60e51b81526020600482015260146024820152731c995b5bdd994b5ad9595c195c8b59985a5b195960621b6044820152606401610452565b50565b7f00000000000000000000000000000000000000000000000000000000000000006001600160a01b0316630c340a246040518163ffffffff1660e01b815260040160206040518083038186803b15801561057957600080fd5b505afa15801561058d573d6000803e3d6000fd5b505050506040513d601f19601f820116820180604052508101906105b19190612a22565b6001600160a01b0316336001600160a01b0316146105e15760405162461bcd60e51b815260040161045290612c9a565b6000546001600160a01b03161561063a5760405162461bcd60e51b815260206004820152601b60248201527f6b65657065722d6c6973742d616c72656164792d6372656174656400000000006044820152606401610452565b6000819050806001600160a01b0316630fab4d256040518163ffffffff1660e01b8152600401602060405180830381600087803b15801561067a57600080fd5b505af115801561068e573d6000803e3d6000fd5b505050506040513d601f19601f820116820180604052508101906106b29190612a22565b600080546001600160a01b0319166001600160a01b03929092169182179055630a3b0a4f6106dd3390565b6040516001600160e01b031960e084901b1681526001600160a01b039091166004820152602401602060405180830381600087803b15801561071e57600080fd5b505af1158015610732573d6000803e3d6000fd5b505050506040513d601f19601f820116820180604052508101906107569190612b64565b6107965760405162461bcd60e51b81526020600482015260116024820152701859190b5ad9595c195c8b59985a5b1959607a1b6044820152606401610452565b5050565b337f00000000000000000000000000000000000000000000000000000000000000006001600160a01b03161461080e5760405162461bcd60e51b815260206004820152601960248201527818d85b1b195c8b5a5ccb5b9bdd0b5d995cdc195c8b5c1bdbdb603a1b6044820152606401610452565b61051d81611786565b7f00000000000000000000000000000000000000000000000000000000000000006001600160a01b0316630c340a246040518163ffffffff1660e01b815260040160206040518083038186803b15801561087057600080fd5b505afa158015610884573d6000803e3d6000fd5b505050506040513d601f19601f820116820180604052508101906108a89190612a22565b6001600160a01b0316336001600160a01b0316146108d85760405162461bcd60e51b815260040161045290612c9a565b600054604051630a3b0a4f60e01b81526001600160a01b03838116600483015290911690630a3b0a4f90602401602060405180830381600087803b15801561091f57600080fd5b505af1158015610933573d6000803e3d6000fd5b505050506040513d601f19601f820116820180604052508101906109579190612b64565b61051d5760405162461bcd60e51b81526020600482015260116024820152701859190b5ad9595c195c8b59985a5b1959607a1b6044820152606401610452565b60007f00000000000000000000000000000000000000000000000000000000000000006001600160a01b0316826001600160a01b031614806109f557506001600160a01b03821673c00e94cb662c3520282e6f5717214004a7f26888145b90505b919050565b7f00000000000000000000000000000000000000000000000000000000000000006001600160a01b0316630c340a246040518163ffffffff1660e01b815260040160206040518083038186803b158015610a5657600080fd5b505afa158015610a6a573d6000803e3d6000fd5b505050506040513d601f19601f82011682018060405250810190610a8e9190612a22565b6001600160a01b0316336001600160a01b031614610abe5760405162461bcd60e51b815260040161045290612c9a565b6001600160a01b038116610b095760405162461bcd60e51b8152602060048201526012602482015271736d2d616464726573732d69732d7a65726f60701b6044820152606401610452565b6002546001600160a01b0382811691161415610b545760405162461bcd60e51b815260206004820152600a602482015269736d2d69732d73616d6560b01b6044820152606401610452565b6002546040516001600160a01b038084169216907f2d19927e7cac08ceb98b38898a4fdff6da6a27295b9a2d62fe250408ebe044e190600090a3600280546001600160a01b0319166001600160a01b0392909216919091179055565b6000546001600160a01b0316635dbe47e8336040516001600160e01b031960e084901b1681526001600160a01b03909116600482015260240160206040518083038186803b158015610c0157600080fd5b505afa158015610c15573d6000803e3d6000fd5b505050506040513d601f19601f82011682018060405250810190610c399190612b64565b610c555760405162461bcd60e51b815260040161045290612c6a565b6000806000610c62611802565b6040516302df682360e11b815260048101849052602481018390526044810182905292955090935091506001600160a01b037f000000000000000000000000000000000000000000000000000000000000000016906305bed04690606401600060405180830381600087803b158015610cda57600080fd5b505af1158015610cee573d6000803e3d6000fd5b50505050610cfa611969565b505050565b6000546001600160a01b0316635dbe47e8336040516001600160e01b031960e084901b1681526001600160a01b03909116600482015260240160206040518083038186803b158015610d5057600080fd5b505afa158015610d64573d6000803e3d6000fd5b505050506040513d601f19601f82011682018060405250810190610d889190612b64565b610da45760405162461bcd60e51b815260040161045290612c6a565b610dae6000611af2565b610db9600019611af2565b565b337f00000000000000000000000000000000000000000000000000000000000000006001600160a01b031614610e2f5760405162461bcd60e51b815260206004820152601960248201527818d85b1b195c8b5a5ccb5b9bdd0b5d995cdc195c8b5c1bdbdb603a1b6044820152606401610452565b6001600160a01b038116610e855760405162461bcd60e51b815260206004820152601c60248201527f6e65772d73747261746567792d616464726573732d69732d7a65726f000000006044820152606401610452565b7f00000000000000000000000000000000000000000000000000000000000000006001600160a01b0316816001600160a01b03166316f0115b6040518163ffffffff1660e01b815260040160206040518083038186803b158015610ee857600080fd5b505afa158015610efc573d6000803e3d6000fd5b505050506040513d601f19601f82011682018060405250810190610f209190612a22565b6001600160a01b031614610f6f5760405162461bcd60e51b81526020600482015260166024820152756e6f742d76616c69642d6e65772d737472617465677960501b6044820152606401610452565b610f7881611cd6565b6040516370a0823160e01b81523060048201526110469082906001600160a01b037f000000000000000000000000000000000000000000000000000000000000000016906370a082319060240160206040518083038186803b158015610fdd57600080fd5b505afa158015610ff1573d6000803e3d6000fd5b505050506040513d601f19601f820116820180604052508101906110159190612b9c565b6001600160a01b037f0000000000000000000000000000000000000000000000000000000000000000169190611d7e565b6040516370a0823160e01b815230600482015261051d9082906001600160a01b037f000000000000000000000000000000000000000000000000000000000000000016906370a08231906024015b60206040518083038186803b1580156110ac57600080fd5b505afa1580156110c0573d6000803e3d6000fd5b505050506040513d601f19601f820116820180604052508101906110e49190612b9c565b6001600160a01b037f0000000000000000000000000000000000000000000000000000000000000000169190611d7e565b7f00000000000000000000000000000000000000000000000000000000000000006001600160a01b0316630c340a246040518163ffffffff1660e01b815260040160206040518083038186803b15801561116e57600080fd5b505afa158015611182573d6000803e3d6000fd5b505050506040513d601f19601f820116820180604052508101906111a69190612a22565b6001600160a01b0316336001600160a01b0316146111d65760405162461bcd60e51b815260040161045290612c9a565b6001600160a01b03811661122c5760405162461bcd60e51b815260206004820152601d60248201527f6665652d636f6c6c6563746f722d616464726573732d69732d7a65726f0000006044820152606401610452565b6001546001600160a01b03828116911614156112825760405162461bcd60e51b81526020600482015260156024820152746665652d636f6c6c6563746f722d69732d73616d6560581b6044820152606401610452565b6001546040516001600160a01b038084169216907f0f06062680f9bd68e786e9980d9bb03d73d5620fc3b345e417b6eacb310b970690600090a3600180546001600160a01b0319166001600160a01b0392909216919091179055565b60405163331faf7160e21b81523060048201526000908190733d9819210a31b4961b30ef54be2aed79b9c9cd3b9063cc7ebdc49060240160206040518083038186803b15801561132d57600080fd5b505afa158015611341573d6000803e3d6000fd5b505050506040513d601f19601f820116820180604052508101906113659190612b9c565b9050801561143a576002546040516340b4c54560e11b815273c00e94cb662c3520282e6f5717214004a7f2688860048201526001600160a01b037f0000000000000000000000000000000000000000000000000000000000000000811660248301526044820184905260006064830152909116906381698a8a9060840160006040518083038186803b1580156113fa57600080fd5b505afa15801561140e573d6000803e3d6000fd5b505050506040513d6000823e601f3d908101601f191682016040526114369190810190612a3e565b9250505b6040516370a0823160e01b81523060048201526114db907f00000000000000000000000000000000000000000000000000000000000000006001600160a01b0316906370a08231906024015b60206040518083038186803b15801561149e57600080fd5b505afa1580156114b2573d6000803e3d6000fd5b505050506040513d601f19601f820116820180604052508101906114d69190612b9c565b611de1565b6114e59083612d62565b91505090565b6000546001600160a01b0316635dbe47e8336040516001600160e01b031960e084901b1681526001600160a01b03909116600482015260240160206040518083038186803b15801561153c57600080fd5b505afa158015611550573d6000803e3d6000fd5b505050506040513d601f19601f820116820180604052508101906115749190612b64565b6115905760405162461bcd60e51b815260040161045290612c6a565b6001546001600160a01b03166115e05760405162461bcd60e51b81526020600482015260156024820152741999594b58dbdb1b1958dd1bdc8b5b9bdd0b5cd95d605a1b6044820152606401610452565b7f00000000000000000000000000000000000000000000000000000000000000006001600160a01b0316816001600160a01b031614156116625760405162461bcd60e51b815260206004820152601f60248201527f6e6f742d616c6c6f7765642d746f2d73776565702d636f6c6c61746572616c006044820152606401610452565b61166b81610997565b156116af5760405162461bcd60e51b815260206004820152601460248201527306e6f742d616c6c6f7765642d746f2d73776565760641b6044820152606401610452565b6001600160a01b03811673eeeeeeeeeeeeeeeeeeeeeeeeeeeeeeeeeeeeeeee14156116ef576001546116ea906001600160a01b031647611e91565b61051d565b6040516370a0823160e01b81523060048201526000906001600160a01b038316906370a082319060240160206040518083038186803b15801561173157600080fd5b505afa158015611745573d6000803e3d6000fd5b505050506040513d601f19601f820116820180604052508101906117699190612b9c565b600154909150610796906001600160a01b03848116911683611d7e565b61178f81611faa565b506040516370a0823160e01b815230600482015261051d907f0000000000000000000000000000000000000000000000000000000000000000906001600160a01b037f000000000000000000000000000000000000000000000000000000000000000016906370a0823190602401611094565b604051636a9eee1360e11b81523060048201526000908190819081906001600160a01b037f0000000000000000000000000000000000000000000000000000000000000000169063d53ddc269060240160206040518083038186803b15801561186a57600080fd5b505afa15801561187e573d6000803e3d6000fd5b505050506040513d601f19601f820116820180604052508101906118a29190612b9c565b604051639f2b283360e01b81523060048201529091506000906001600160a01b037f00000000000000000000000000000000000000000000000000000000000000001690639f2b28339060240160206040518083038186803b15801561190757600080fd5b505afa15801561191b573d6000803e3d6000fd5b505050506040513d601f19601f8201168201806040525081019061193f9190612b9c565b905061194a8161201f565b94506119558161214d565b9350611960826121bc565b92505050909192565b6040516370a0823160e01b81523060048201526000907f00000000000000000000000000000000000000000000000000000000000000006001600160a01b0316906370a082319060240160206040518083038186803b1580156119cb57600080fd5b505afa1580156119df573d6000803e3d6000fd5b505050506040513d601f19601f82011682018060405250810190611a039190612b9c565b9050801561051d5760405163140e25ad60e31b8152600481018290527f00000000000000000000000000000000000000000000000000000000000000006001600160a01b03169063a0712d6890602401602060405180830381600087803b158015611a6d57600080fd5b505af1158015611a81573d6000803e3d6000fd5b505050506040513d601f19601f82011682018060405250810190611aa59190612b9c565b1561051d5760405162461bcd60e51b815260206004820152601a60248201527f6465706f7369742d746f2d636f6d706f756e642d6661696c65640000000000006044820152606401610452565b611b466001600160a01b037f0000000000000000000000000000000000000000000000000000000000000000167f0000000000000000000000000000000000000000000000000000000000000000836121cd565b611b9a6001600160a01b037f0000000000000000000000000000000000000000000000000000000000000000167f0000000000000000000000000000000000000000000000000000000000000000836121cd565b60005b600260009054906101000a90046001600160a01b03166001600160a01b031663c2fba6676040518163ffffffff1660e01b815260040160206040518083038186803b158015611beb57600080fd5b505afa158015611bff573d6000803e3d6000fd5b505050506040513d601f19601f82011682018060405250810190611c239190612b9c565b81101561079657600254604051636e74a6f760e01b815260048101839052611cc4916001600160a01b031690636e74a6f79060240160206040518083038186803b158015611c7057600080fd5b505afa158015611c84573d6000803e3d6000fd5b505050506040513d601f19601f82011682018060405250810190611ca89190612a22565b73c00e94cb662c3520282e6f5717214004a7f2688890846121cd565b80611cce81612e00565b915050611b9d565b611cde6122f1565b6040516370a0823160e01b815230600482015261051d90829073c00e94cb662c3520282e6f5717214004a7f26888906370a082319060240160206040518083038186803b158015611d2e57600080fd5b505afa158015611d42573d6000803e3d6000fd5b505050506040513d601f19601f82011682018060405250810190611d669190612b9c565b73c00e94cb662c3520282e6f5717214004a7f2688891905b6040516001600160a01b038316602482015260448101829052610cfa90849063a9059cbb60e01b906064015b60408051601f198184030181529190526020810180516001600160e01b03166001600160e01b0319909316929092179091526123da565b6000670de0b6b3a76400007f00000000000000000000000000000000000000000000000000000000000000006001600160a01b031663182df0f56040518163ffffffff1660e01b815260040160206040518083038186803b158015611e4557600080fd5b505afa158015611e59573d6000803e3d6000fd5b505050506040513d601f19601f82011682018060405250810190611e7d9190612b9c565b611e879084612d9a565b6109f59190612d7a565b80471015611ee15760405162461bcd60e51b815260206004820152601d60248201527f416464726573733a20696e73756666696369656e742062616c616e63650000006044820152606401610452565b6000826001600160a01b03168260405160006040518083038185875af1925050503d8060008114611f2e576040519150601f19603f3d011682016040523d82523d6000602084013e611f33565b606091505b5050905080610cfa5760405162461bcd60e51b815260206004820152603a60248201527f416464726573733a20756e61626c6520746f2073656e642076616c75652c207260448201527f6563697069656e74206d617920686176652072657665727465640000000000006064820152608401610452565b6040516370a0823160e01b81523060048201526000908190611fff906001600160a01b037f000000000000000000000000000000000000000000000000000000000000000016906370a0823190602401611486565b90506120188184106120115781612013565b835b6124ac565b9392505050565b600061204a7f000000000000000000000000000000000000000000000000000000000000000061259f565b6040516370a0823160e01b815230600482015260009061209d906001600160a01b037f000000000000000000000000000000000000000000000000000000000000000016906370a0823190602401611486565b9050828111156120b6576120b46120138483612db9565b505b6040516370a0823160e01b81523060048201527f00000000000000000000000000000000000000000000000000000000000000006001600160a01b0316906370a082319060240160206040518083038186803b15801561211557600080fd5b505afa158015612129573d6000803e3d6000fd5b505050506040513d601f19601f820116820180604052508101906120189190612b9c565b6040516370a0823160e01b815230600482015260009081906121a2906001600160a01b037f000000000000000000000000000000000000000000000000000000000000000016906370a0823190602401611486565b9050828110156121b6576120188184612db9565b50919050565b600081156109f8576109f582611faa565b8015806122565750604051636eb1769f60e11b81523060048201526001600160a01b03838116602483015284169063dd62ed3e9060440160206040518083038186803b15801561221c57600080fd5b505afa158015612230573d6000803e3d6000fd5b505050506040513d601f19601f820116820180604052508101906122549190612b9c565b155b6122c15760405162461bcd60e51b815260206004820152603660248201527f5361666545524332303a20617070726f76652066726f6d206e6f6e2d7a65726f60448201527520746f206e6f6e2d7a65726f20616c6c6f77616e636560501b6064820152608401610452565b6040516001600160a01b038316602482015260448101829052610cfa90849063095ea7b360e01b90606401611daa565b604080516001808252818301909252600091602080830190803683370190505090507f00000000000000000000000000000000000000000000000000000000000000008160008151811061235557634e487b7160e01b600052603260045260246000fd5b6001600160a01b039092166020928302919091019091015260405162e1ed9760e51b8152733d9819210a31b4961b30ef54be2aed79b9c9cd3b90631c3db2e0906123a59030908590600401612c13565b600060405180830381600087803b1580156123bf57600080fd5b505af11580156123d3573d6000803e3d6000fd5b5050505050565b600061242f826040518060400160405280602081526020017f5361666545524332303a206c6f772d6c6576656c2063616c6c206661696c6564815250856001600160a01b03166126559092919063ffffffff16565b805190915015610cfa578080602001905181019061244d9190612b64565b610cfa5760405162461bcd60e51b815260206004820152602a60248201527f5361666545524332303a204552433230206f7065726174696f6e20646964206e6044820152691bdd081cdd58d8d9595960b21b6064820152608401610452565b6000811561259b5760405163852a12e360e01b8152600481018390527f00000000000000000000000000000000000000000000000000000000000000006001600160a01b03169063852a12e390602401602060405180830381600087803b15801561251657600080fd5b505af115801561252a573d6000803e3d6000fd5b505050506040513d601f19601f8201168201806040525081019061254e9190612b9c565b1561259b5760405162461bcd60e51b815260206004820152601d60248201527f77697468647261772d66726f6d2d636f6d706f756e642d6661696c65640000006044820152606401610452565b5090565b6125a76122f1565b6040516370a0823160e01b815230600482015260009073c00e94cb662c3520282e6f5717214004a7f26888906370a082319060240160206040518083038186803b1580156125f457600080fd5b505afa158015612608573d6000803e3d6000fd5b505050506040513d601f19601f8201168201806040525081019061262c9190612b9c565b905080156107965761079673c00e94cb662c3520282e6f5717214004a7f268888383600161266c565b6060612664848460008561282d565b949350505050565b600254604051631d1f307960e31b81526001600160a01b038681166004830152858116602483015260448201859052600092839283929091169063e8f983c89060640160006040518083038186803b1580156126c757600080fd5b505afa1580156126db573d6000803e3d6000fd5b505050506040513d6000823e601f3d908101601f191682016040526127039190810190612a83565b925092509250836000141561271757600193505b811561282457600254604051636e74a6f760e01b8152600481018390526001600160a01b0390911690636e74a6f79060240160206040518083038186803b15801561276157600080fd5b505afa158015612775573d6000803e3d6000fd5b505050506040513d601f19601f820116820180604052508101906127999190612a22565b6001600160a01b03166338ed173986868630426040518663ffffffff1660e01b81526004016127cc959493929190612cd1565b600060405180830381600087803b1580156127e657600080fd5b505af11580156127fa573d6000803e3d6000fd5b505050506040513d6000823e601f3d908101601f191682016040526128229190810190612ad1565b505b50505050505050565b60608247101561288e5760405162461bcd60e51b815260206004820152602660248201527f416464726573733a20696e73756666696369656e742062616c616e636520666f6044820152651c8818d85b1b60d21b6064820152608401610452565b843b6128dc5760405162461bcd60e51b815260206004820152601d60248201527f416464726573733a2063616c6c20746f206e6f6e2d636f6e74726163740000006044820152606401610452565b600080866001600160a01b031685876040516128f89190612bf7565b60006040518083038185875af1925050503d8060008114612935576040519150601f19603f3d011682016040523d82523d6000602084013e61293a565b606091505b509150915061294a828286612955565b979650505050505050565b60608315612964575081612018565b8251156129745782518084602001fd5b8160405162461bcd60e51b81526004016104529190612c37565b600082601f83011261299e578081fd5b815160206129b36129ae83612d3e565b612d0d565b80838252828201915082860187848660051b89010111156129d2578586fd5b855b858110156129f95781516129e781612e47565b845292840192908401906001016129d4565b5090979650505050505050565b600060208284031215612a17578081fd5b813561201881612e47565b600060208284031215612a33578081fd5b815161201881612e47565b60008060408385031215612a50578081fd5b825167ffffffffffffffff811115612a66578182fd5b612a728582860161298e565b925050602083015190509250929050565b600080600060608486031215612a97578081fd5b835167ffffffffffffffff811115612aad578182fd5b612ab98682870161298e565b93505060208401519150604084015190509250925092565b60006020808385031215612ae3578182fd5b825167ffffffffffffffff811115612af9578283fd5b8301601f81018513612b09578283fd5b8051612b176129ae82612d3e565b80828252848201915084840188868560051b8701011115612b36578687fd5b8694505b83851015612b58578051835260019490940193918501918501612b3a565b50979650505050505050565b600060208284031215612b75578081fd5b81518015158114612018578182fd5b600060208284031215612b95578081fd5b5035919050565b600060208284031215612bad578081fd5b5051919050565b6000815180845260208085019450808401835b83811015612bec5781516001600160a01b031687529582019590820190600101612bc7565b509495945050505050565b60008251612c09818460208701612dd0565b9190910192915050565b6001600160a01b038316815260406020820181905260009061266490830184612bb4565b6000602082528251806020840152612c56816040850160208701612dd0565b601f01601f19169190910160400192915050565b60208082526016908201527531b0b63632b916b4b996b737ba16b096b5b2b2b832b960511b604082015260600190565b6020808252601a908201527f63616c6c65722d69732d6e6f742d7468652d676f7665726e6f72000000000000604082015260600190565b600086825285602083015260a06040830152612cf060a0830186612bb4565b6001600160a01b0394909416606083015250608001529392505050565b604051601f8201601f1916810167ffffffffffffffff81118282101715612d3657612d36612e31565b604052919050565b600067ffffffffffffffff821115612d5857612d58612e31565b5060051b60200190565b60008219821115612d7557612d75612e1b565b500190565b600082612d9557634e487b7160e01b81526012600452602481fd5b500490565b6000816000190483118215151615612db457612db4612e1b565b500290565b600082821015612dcb57612dcb612e1b565b500390565b60005b83811015612deb578181015183820152602001612dd3565b83811115612dfa576000848401525b50505050565b6000600019821415612e1457612e14612e1b565b5060010190565b634e487b7160e01b600052601160045260246000fd5b634e487b7160e01b600052604160045260246000fd5b6001600160a01b038116811461051d57600080fdfea26469706673582212206afa5a76117a1b0296deb13aa222c7169f73431eac33102469cad3f63698075f64736f6c63430008030033",
  "devdoc": {
    "kind": "dev",
    "methods": {
      "addKeeper(address)": {
        "params": {
          "_keeperAddress": "keeper address to add."
        }
      },
      "approveToken()": {
        "details": "Approve all required tokens"
      },
      "convertFrom18(uint256)": {
        "details": "Convert from 18 decimals to token defined decimals. Default no conversion."
      },
      "init(address)": {
        "params": {
          "_addressListFactory": "To support same code in eth side chain, user _addressListFactory as param ethereum- 0xded8217De022706A191eE7Ee0Dc9df1185Fb5dA3 polygon-0xD10D5696A350D65A9AA15FE8B258caB4ab1bF291"
        }
      },
      "migrate(address)": {
        "details": "_beforeMigration hook can be implemented in child strategy to do extra steps.",
        "params": {
          "_newStrategy": "Address of new strategy"
        }
      },
      "rebalance()": {
        "details": "Rebalance profit, loss and investment of this strategy"
      },
      "removeKeeper(address)": {
        "params": {
          "_keeperAddress": "keeper address to remove."
        }
      },
      "sweepERC20(address)": {
        "details": "sweep given token to feeCollector of strategy",
        "params": {
          "_fromToken": "token address to sweep"
        }
      },
      "totalValue()": {
        "details": "Report total value in collateral token"
      },
      "updateFeeCollector(address)": {
        "params": {
          "_feeCollector": "fee collector address"
        }
      },
      "updateSwapManager(address)": {
        "params": {
          "_swapManager": "swap manager address"
        }
      },
      "withdraw(uint256)": {
        "details": "Withdraw collateral token from lending pool.",
        "params": {
          "_amount": "Amount of collateral token"
        }
      }
    },
    "title": "Deposit UNI in Compound and earn interest.",
    "version": 1
  },
  "userdoc": {
    "kind": "user",
    "methods": {
      "addKeeper(address)": {
        "notice": "Add given address in keepers list."
      },
      "init(address)": {
        "notice": "Create keeper list NOTE: Any function with onlyKeeper modifier will not work until this function is called. NOTE: Due to gas constraint this function cannot be called in constructor."
      },
      "isReservedToken(address)": {
        "notice": "Check whether given token is reserved or not. Reserved tokens are not allowed to sweep."
      },
      "migrate(address)": {
        "notice": "Migrate all asset and vault ownership,if any, to new strategy"
      },
      "removeKeeper(address)": {
        "notice": "Remove given address from keepers list."
      },
      "token()": {
        "notice": "Returns address of token correspond to collateral token"
      },
      "totalValue()": {
        "notice": "Calculate total value using COMP accrued and cToken"
      },
      "updateFeeCollector(address)": {
        "notice": "Update fee collector"
      },
      "updateSwapManager(address)": {
        "notice": "Update swap manager address"
      }
    },
    "version": 1
  },
  "storageLayout": {
    "storage": [
      {
        "astId": 9453,
        "contract": "contracts/strategies/compound/CompoundStrategyUNI.sol:CompoundStrategyUNI",
        "label": "keepers",
        "offset": 0,
        "slot": "0",
        "type": "t_contract(IAddressList)3591"
      },
      {
        "astId": 9456,
        "contract": "contracts/strategies/compound/CompoundStrategyUNI.sol:CompoundStrategyUNI",
        "label": "feeCollector",
        "offset": 0,
        "slot": "1",
        "type": "t_address"
      },
      {
        "astId": 9459,
        "contract": "contracts/strategies/compound/CompoundStrategyUNI.sol:CompoundStrategyUNI",
        "label": "swapManager",
        "offset": 0,
        "slot": "2",
        "type": "t_contract(ISwapManager)3894"
      }
    ],
    "types": {
      "t_address": {
        "encoding": "inplace",
        "label": "address",
        "numberOfBytes": "20"
      },
      "t_contract(IAddressList)3591": {
        "encoding": "inplace",
        "label": "contract IAddressList",
        "numberOfBytes": "20"
      },
      "t_contract(ISwapManager)3894": {
        "encoding": "inplace",
        "label": "contract ISwapManager",
        "numberOfBytes": "20"
      }
    }
  }
}