{
  "address": "0x4a7Ce5Db8fa84E7aff6ad6E234C6C6b515951d5c",
  "abi": [
    {
      "anonymous": false,
      "inputs": [
        {
          "indexed": false,
          "internalType": "uint256",
          "name": "reward",
          "type": "uint256"
        }
      ],
      "name": "RewardAdded",
      "type": "event"
    },
    {
      "anonymous": false,
      "inputs": [
        {
          "indexed": true,
          "internalType": "address",
          "name": "dustReceiver",
          "type": "address"
        },
        {
          "indexed": false,
          "internalType": "uint256",
          "name": "dust",
          "type": "uint256"
        }
      ],
      "name": "RewardEnded",
      "type": "event"
    },
    {
      "anonymous": false,
      "inputs": [
        {
          "indexed": true,
          "internalType": "address",
          "name": "user",
          "type": "address"
        },
        {
          "indexed": false,
          "internalType": "uint256",
          "name": "reward",
          "type": "uint256"
        }
      ],
      "name": "RewardPaid",
      "type": "event"
    },
    {
      "anonymous": false,
      "inputs": [
        {
          "indexed": false,
          "internalType": "uint256",
          "name": "previousRewardEndTime",
          "type": "uint256"
        },
        {
          "indexed": false,
          "internalType": "uint256",
          "name": "newRewardEndTime",
          "type": "uint256"
        }
      ],
      "name": "UpdatedRewardEndTime",
      "type": "event"
    },
    {
      "inputs": [],
      "name": "GRACE_PERIOD",
      "outputs": [
        {
          "internalType": "uint256",
          "name": "",
          "type": "uint256"
        }
      ],
      "stateMutability": "view",
      "type": "function"
    },
    {
      "inputs": [
        {
          "internalType": "address",
          "name": "account",
          "type": "address"
        }
      ],
      "name": "claimReward",
      "outputs": [],
      "stateMutability": "nonpayable",
      "type": "function"
    },
    {
      "inputs": [
        {
          "internalType": "address",
          "name": "account",
          "type": "address"
        }
      ],
      "name": "claimable",
      "outputs": [
        {
          "internalType": "uint256",
          "name": "",
          "type": "uint256"
        }
      ],
      "stateMutability": "view",
      "type": "function"
    },
    {
      "inputs": [
        {
          "internalType": "address",
          "name": "_pool",
          "type": "address"
        },
        {
          "internalType": "address",
          "name": "_rewardToken",
          "type": "address"
        }
      ],
      "name": "initialize",
      "outputs": [],
      "stateMutability": "nonpayable",
      "type": "function"
    },
    {
      "inputs": [],
      "name": "lastTimeRewardApplicable",
      "outputs": [
        {
          "internalType": "uint256",
          "name": "",
          "type": "uint256"
        }
      ],
      "stateMutability": "view",
      "type": "function"
    },
    {
      "inputs": [],
      "name": "lastUpdateTime",
      "outputs": [
        {
          "internalType": "uint256",
          "name": "",
          "type": "uint256"
        }
      ],
      "stateMutability": "view",
      "type": "function"
    },
    {
      "inputs": [
        {
          "internalType": "uint256",
          "name": "rewardAmount",
          "type": "uint256"
        },
        {
          "internalType": "uint256",
          "name": "_rewardDuration",
          "type": "uint256"
        }
      ],
      "name": "notifyRewardAmount",
      "outputs": [],
      "stateMutability": "nonpayable",
      "type": "function"
    },
    {
      "inputs": [],
      "name": "periodFinish",
      "outputs": [
        {
          "internalType": "uint256",
          "name": "",
          "type": "uint256"
        }
      ],
      "stateMutability": "view",
      "type": "function"
    },
    {
      "inputs": [],
      "name": "pool",
      "outputs": [
        {
          "internalType": "address",
          "name": "",
          "type": "address"
        }
      ],
      "stateMutability": "view",
      "type": "function"
    },
    {
      "inputs": [],
      "name": "rewardDuration",
      "outputs": [
        {
          "internalType": "uint256",
          "name": "",
          "type": "uint256"
        }
      ],
      "stateMutability": "view",
      "type": "function"
    },
    {
      "inputs": [],
      "name": "rewardEndTime",
      "outputs": [
        {
          "internalType": "uint256",
          "name": "",
          "type": "uint256"
        }
      ],
      "stateMutability": "view",
      "type": "function"
    },
    {
      "inputs": [],
      "name": "rewardForDuration",
      "outputs": [
        {
          "internalType": "uint256",
          "name": "",
          "type": "uint256"
        }
      ],
      "stateMutability": "view",
      "type": "function"
    },
    {
      "inputs": [],
      "name": "rewardPerToken",
      "outputs": [
        {
          "internalType": "uint256",
          "name": "",
          "type": "uint256"
        }
      ],
      "stateMutability": "view",
      "type": "function"
    },
    {
      "inputs": [],
      "name": "rewardPerTokenStored",
      "outputs": [
        {
          "internalType": "uint256",
          "name": "",
          "type": "uint256"
        }
      ],
      "stateMutability": "view",
      "type": "function"
    },
    {
      "inputs": [],
      "name": "rewardRate",
      "outputs": [
        {
          "internalType": "uint256",
          "name": "",
          "type": "uint256"
        }
      ],
      "stateMutability": "view",
      "type": "function"
    },
    {
      "inputs": [],
      "name": "rewardToken",
      "outputs": [
        {
          "internalType": "address",
          "name": "",
          "type": "address"
        }
      ],
      "stateMutability": "view",
      "type": "function"
    },
    {
      "inputs": [
        {
          "internalType": "address",
          "name": "",
          "type": "address"
        }
      ],
      "name": "rewards",
      "outputs": [
        {
          "internalType": "uint256",
          "name": "",
          "type": "uint256"
        }
      ],
      "stateMutability": "view",
      "type": "function"
    },
    {
      "inputs": [
        {
          "internalType": "address",
          "name": "_account",
          "type": "address"
        }
      ],
      "name": "updateReward",
      "outputs": [],
      "stateMutability": "nonpayable",
      "type": "function"
    },
    {
      "inputs": [],
      "name": "updateRewardEndTime",
      "outputs": [],
      "stateMutability": "nonpayable",
      "type": "function"
    },
    {
      "inputs": [
        {
          "internalType": "address",
          "name": "",
          "type": "address"
        }
      ],
      "name": "userRewardPerTokenPaid",
      "outputs": [
        {
          "internalType": "uint256",
          "name": "",
          "type": "uint256"
        }
      ],
      "stateMutability": "view",
      "type": "function"
    },
    {
      "inputs": [
        {
          "internalType": "address",
          "name": "_toAddress",
          "type": "address"
        }
      ],
      "name": "withdrawRemaining",
      "outputs": [],
      "stateMutability": "nonpayable",
      "type": "function"
    }
  ],
  "transactionHash": "0x0b19b0dca24ff421800eb44eab92e01f30c3d7d4e8e492ecbdc26f45ef0d3566",
  "args": [],
  "solcInputHash": "070e5e38647b2db3fbc8bd07b1b0de43",
  "bytecode": "0x608060405234801561001057600080fd5b506001600a55611354806100256000396000f3fe608060405234801561001057600080fd5b50600436106101375760003560e01c80638b876347116100b8578063df136d651161007c578063df136d651461025e578063eb2da96214610267578063ebe2b12b1461026f578063f520e7e514610278578063f7c618c114610281578063fd0cdcdb1461029457610137565b80638b87634714610210578063c1a287e214610230578063c8f33c911461023a578063cd3daf9d14610243578063d279c1911461024b57610137565b8063485cc955116100ff578063485cc955146101d1578063632447c9146101e45780636946a235146101f75780637b0a47ee146101ff57806380faa57d1461020857610137565b80630700037d1461013c57806316f0115b1461016f578063246132f9146101a057806337e9f64a146101b5578063402914f5146101be575b600080fd5b61015c61014a366004611115565b60096020526000908152604090205481565b6040519081526020015b60405180910390f35b600054610188906201000090046001600160a01b031681565b6040516001600160a01b039091168152602001610166565b6101b36101ae3660046111bd565b6102a7565b005b61015c60045481565b61015c6101cc366004611115565b610597565b6101b36101df36600461114d565b61069b565b6101b36101f2366004611115565b610791565b61015c6107fd565b61015c60035481565b61015c610815565b61015c61021e366004611115565b60086020526000908152604090205481565b61015c62278d0081565b61015c60065481565b61015c61082d565b6101b3610259366004611115565b6109a7565b61015c60075481565b6101b3610b25565b61015c60025481565b61015c60055481565b600154610188906001600160a01b031681565b6101b36102a2366004611115565b610c46565b6102b16000610e32565b600060029054906101000a90046001600160a01b03166001600160a01b0316630c340a246040518163ffffffff1660e01b815260040160206040518083038186803b1580156102ff57600080fd5b505afa158015610313573d6000803e3d6000fd5b505050506040513d601f19601f820116820180604052508101906103379190611131565b6001600160a01b0316336001600160a01b0316146103705760405162461bcd60e51b81526004016103679061122d565b60405180910390fd5b6001546001600160a01b03166103c05760405162461bcd60e51b81526020600482015260156024820152741c995dd85c991ccb5d1bdad95b8b5b9bdd0b5cd95d605a1b6044820152606401610367565b600081116104105760405162461bcd60e51b815260206004820152601960248201527f696e636f72726563742d7265776172642d6475726174696f6e000000000000006044820152606401610367565b600581905560025442106104335760055461042b908361126d565b600355610475565b60004260025461044391906112ac565b9050600060035482610455919061128d565b6005549091506104658286611255565b61046f919061126d565b60035550505b6001546040516370a0823160e01b81523060048201526000916001600160a01b0316906370a082319060240160206040518083038186803b1580156104b957600080fd5b505afa1580156104cd573d6000803e3d6000fd5b505050506040513d601f19601f820116820180604052508101906104f191906111a5565b905060055481610501919061126d565b60035411156105455760405162461bcd60e51b815260206004820152601060248201526f0e4caeec2e4c8e65ae8dede5ad0d2ced60831b6044820152606401610367565b42600681905560055461055791611255565b60025560006004556040518381527fde88a922e0d3b88b24e9623efeb464919c6bf9f66857a65e2bfcf2ce87a9433d9060200160405180910390a1505050565b600080546040516370a0823160e01b81526001600160a01b038481166004830152839262010000900416906370a082319060240160206040518083038186803b1580156105e357600080fd5b505afa1580156105f7573d6000803e3d6000fd5b505050506040513d601f19601f8201168201806040525081019061061b91906111a5565b6001600160a01b0384166000908152600860205260408120549192509061064061082d565b61064a91906112ac565b90506000670de0b6b3a7640000610661838561128d565b61066b919061126d565b6001600160a01b038616600090815260096020526040902054909150610692908290611255565b95945050505050565b600054610100900460ff16806106b4575060005460ff16155b6107175760405162461bcd60e51b815260206004820152602e60248201527f496e697469616c697a61626c653a20636f6e747261637420697320616c72656160448201526d191e481a5b9a5d1a585b1a5e995960921b6064820152608401610367565b600054610100900460ff16158015610739576000805461ffff19166101011790555b6000805462010000600160b01b031916620100006001600160a01b038681169190910291909117909155600180546001600160a01b031916918416919091179055801561078c576000805461ff00191690555b505050565b6000546201000090046001600160a01b031633146107f15760405162461bcd60e51b815260206004820152601b60248201527f4f6e6c7920706f6f6c2063616e207570646174652072657761726400000000006044820152606401610367565b6107fa81610e32565b50565b600060055460035461080f919061128d565b90505b90565b600060025442106108285760025461080f565b504290565b60008060029054906101000a90046001600160a01b03166001600160a01b03166318160ddd6040518163ffffffff1660e01b815260040160206040518083038186803b15801561087c57600080fd5b505afa158015610890573d6000803e3d6000fd5b505050506040513d601f19601f820116820180604052508101906108b491906111a5565b6108c15750600754610812565b60006006546108ce610815565b6108d891906112ac565b90506000600354826108ea919061128d565b905060008060029054906101000a90046001600160a01b03166001600160a01b03166318160ddd6040518163ffffffff1660e01b815260040160206040518083038186803b15801561093b57600080fd5b505afa15801561094f573d6000803e3d6000fd5b505050506040513d601f19601f8201168201806040525081019061097391906111a5565b61098583670de0b6b3a764000061128d565b61098f919061126d565b90508060075461099f9190611255565b935050505090565b6002600a5414156109fa5760405162461bcd60e51b815260206004820152601f60248201527f5265656e7472616e637947756172643a207265656e7472616e742063616c6c006044820152606401610367565b6002600a55610a0881610e32565b6001600160a01b0381166000908152600960205260409020548015801590610aaa57506001546040516370a0823160e01b81523060048201526001600160a01b03909116906370a082319060240160206040518083038186803b158015610a6e57600080fd5b505afa158015610a82573d6000803e3d6000fd5b505050506040513d601f19601f82011682018060405250810190610aa691906111a5565b8111155b15610b1c576001600160a01b03808316600090815260096020526040812055600154610ad891168383610e8e565b816001600160a01b03167fe2403640ba68fed3a2f88b7557551d1993f84b99bb10ff833f0cf8db0c5e048682604051610b1391815260200190565b60405180910390a25b50506001600a55565b600060029054906101000a90046001600160a01b03166001600160a01b0316630c340a246040518163ffffffff1660e01b815260040160206040518083038186803b158015610b7357600080fd5b505afa158015610b87573d6000803e3d6000fd5b505050506040513d601f19601f82011682018060405250810190610bab9190611131565b6001600160a01b0316336001600160a01b031614610bdb5760405162461bcd60e51b81526004016103679061122d565b60006002544211610bee57600254610bf0565b425b90506000610c0162278d0083611255565b60045460408051918252602082018390529192507f20901034a1432c23e45adeaf10d4d2febb0fb2147cbc21435459e0a07d4d3879910160405180910390a160045550565b600060029054906101000a90046001600160a01b03166001600160a01b0316630c340a246040518163ffffffff1660e01b815260040160206040518083038186803b158015610c9457600080fd5b505afa158015610ca8573d6000803e3d6000fd5b505050506040513d601f19601f82011682018060405250810190610ccc9190611131565b6001600160a01b0316336001600160a01b031614610cfc5760405162461bcd60e51b81526004016103679061122d565b60045415801590610d0e575060045442115b610d515760405162461bcd60e51b8152602060048201526014602482015273726577617264732d7374696c6c2d61637469766560601b6044820152606401610367565b6001546040516370a0823160e01b81523060048201526000916001600160a01b0316906370a082319060240160206040518083038186803b158015610d9557600080fd5b505afa158015610da9573d6000803e3d6000fd5b505050506040513d601f19601f82011682018060405250810190610dcd91906111a5565b600154909150610de7906001600160a01b03168383610e8e565b6000600355426006556040518181526001600160a01b038316907f2f114387a199a557557366a7134d08871861cccef4d78e7976ab0f6d09b3528d9060200160405180910390a25050565b610e3a61082d565b600755610e45610815565b6006556001600160a01b038116156107fa57610e6081610597565b6001600160a01b03821660009081526009602090815260408083209390935560075460089091529190205550565b604080516001600160a01b03848116602483015260448083018590528351808403909101815260649092018352602080830180516001600160e01b031663a9059cbb60e01b17905283518085019094528084527f5361666545524332303a206c6f772d6c6576656c2063616c6c206661696c65649084015261078c92869291600091610f1e918516908490610f9b565b80519091501561078c5780806020019051810190610f3c9190611185565b61078c5760405162461bcd60e51b815260206004820152602a60248201527f5361666545524332303a204552433230206f7065726174696f6e20646964206e6044820152691bdd081cdd58d8d9595960b21b6064820152608401610367565b6060610faa8484600085610fb4565b90505b9392505050565b6060824710156110155760405162461bcd60e51b815260206004820152602660248201527f416464726573733a20696e73756666696369656e742062616c616e636520666f6044820152651c8818d85b1b60d21b6064820152608401610367565b843b6110635760405162461bcd60e51b815260206004820152601d60248201527f416464726573733a2063616c6c20746f206e6f6e2d636f6e74726163740000006044820152606401610367565b600080866001600160a01b0316858760405161107f91906111de565b60006040518083038185875af1925050503d80600081146110bc576040519150601f19603f3d011682016040523d82523d6000602084013e6110c1565b606091505b50915091506110d18282866110dc565b979650505050505050565b606083156110eb575081610fad565b8251156110fb5782518084602001fd5b8160405162461bcd60e51b815260040161036791906111fa565b600060208284031215611126578081fd5b8135610fad81611309565b600060208284031215611142578081fd5b8151610fad81611309565b6000806040838503121561115f578081fd5b823561116a81611309565b9150602083013561117a81611309565b809150509250929050565b600060208284031215611196578081fd5b81518015158114610fad578182fd5b6000602082840312156111b6578081fd5b5051919050565b600080604083850312156111cf578182fd5b50508035926020909101359150565b600082516111f08184602087016112c3565b9190910192915050565b60006020825282518060208401526112198160408501602087016112c3565b601f01601f19169190910160400192915050565b6020808252600e908201526d1b9bdd0b585d5d1a1bdc9a5e995960921b604082015260600190565b60008219821115611268576112686112f3565b500190565b60008261128857634e487b7160e01b81526012600452602481fd5b500490565b60008160001904831182151516156112a7576112a76112f3565b500290565b6000828210156112be576112be6112f3565b500390565b60005b838110156112de5781810151838201526020016112c6565b838111156112ed576000848401525b50505050565b634e487b7160e01b600052601160045260246000fd5b6001600160a01b03811681146107fa57600080fdfea2646970667358221220a51076d7dd30f34de6ae5f0288d6cda09e21f499c3f55a62fc09ceab0556c01164736f6c63430008030033",
  "devdoc": {
    "kind": "dev",
    "methods": {
      "claimReward(address)": {
        "details": "Claim earned rewards."
      },
      "claimable(address)": {
        "details": "Returns claimable reward amount."
      },
      "initialize(address,address)": {
        "details": "Called by proxy to initialize this contract",
        "params": {
          "_pool": "Vesper pool address",
          "_rewardToken": "VSP token address"
        }
      },
      "lastTimeRewardApplicable()": {
        "details": "Returns timestamp of last reward update"
      },
      "notifyRewardAmount(uint256,uint256)": {
        "details": "Notify that reward is added. Also updates reward rate and reward earning period."
      },
      "updateReward(address)": {
        "details": "Updated reward for given account. Only Pool can call"
      },
      "withdrawRemaining(address)": {
        "details": "rewardRate will be updated to 0",
        "params": {
          "_toAddress": "Address where governor want to withdraw tokens"
        }
      }
    },
    "version": 1
  },
  "userdoc": {
    "events": {
      "RewardAdded(uint256)": {
        "notice": "Emitted after reward added"
      },
      "RewardEnded(address,uint256)": {
        "notice": "Emitted when reward is ended"
      },
      "RewardPaid(address,uint256)": {
        "notice": "Emitted whenever any user claim rewards"
      }
    },
    "kind": "user",
    "methods": {
      "GRACE_PERIOD()": {
        "notice": "Once reward end is triggered, owner has to wait at least grace period to expire before he can withdraw remaining reward."
      },
      "lastUpdateTime()": {
        "notice": "Last reward drip update time stamp"
      },
      "periodFinish()": {
        "notice": "Where is current reward period ending"
      },
      "pool()": {
        "notice": "Vesper pool address"
      },
      "rewardDuration()": {
        "notice": "Duration of current reward distribution"
      },
      "rewardEndTime()": {
        "notice": "Reward end time"
      },
      "rewardPerTokenStored()": {
        "notice": "Reward per token calculated and stored at last drip update"
      },
      "rewardRate()": {
        "notice": "Current reward rate"
      },
      "rewardToken()": {
        "notice": "Reward token address, mostly it will be VSP"
      },
      "rewards(address)": {
        "notice": "User => Rewards earned till last reward update"
      },
      "updateRewardEndTime()": {
        "notice": "Updated reward end time. Time at which reward will be ended and governor can withdraw remaining tokens"
      },
      "userRewardPerTokenPaid(address)": {
        "notice": "User => Reward per token stored at last reward update"
      },
      "withdrawRemaining(address)": {
        "notice": "Withdraw remaining tokens Once reward end time is passed governor can withdraw remaining tokens."
      }
    },
    "version": 1
  },
  "storageLayout": {
    "storage": [
      {
        "astId": 887,
        "contract": "contracts/pool/PoolRewards.sol:PoolRewards",
        "label": "_initialized",
        "offset": 0,
        "slot": "0",
        "type": "t_bool"
      },
      {
        "astId": 890,
        "contract": "contracts/pool/PoolRewards.sol:PoolRewards",
        "label": "_initializing",
        "offset": 1,
        "slot": "0",
        "type": "t_bool"
      },
      {
        "astId": 7136,
        "contract": "contracts/pool/PoolRewards.sol:PoolRewards",
        "label": "pool",
        "offset": 2,
        "slot": "0",
        "type": "t_address"
      },
      {
        "astId": 7139,
        "contract": "contracts/pool/PoolRewards.sol:PoolRewards",
        "label": "rewardToken",
        "offset": 0,
        "slot": "1",
        "type": "t_address"
      },
      {
        "astId": 7146,
        "contract": "contracts/pool/PoolRewards.sol:PoolRewards",
        "label": "periodFinish",
        "offset": 0,
        "slot": "2",
        "type": "t_uint256"
      },
      {
        "astId": 7149,
        "contract": "contracts/pool/PoolRewards.sol:PoolRewards",
        "label": "rewardRate",
        "offset": 0,
        "slot": "3",
        "type": "t_uint256"
      },
      {
        "astId": 7152,
        "contract": "contracts/pool/PoolRewards.sol:PoolRewards",
        "label": "rewardEndTime",
        "offset": 0,
        "slot": "4",
        "type": "t_uint256"
      },
      {
        "astId": 7155,
        "contract": "contracts/pool/PoolRewards.sol:PoolRewards",
        "label": "rewardDuration",
        "offset": 0,
        "slot": "5",
        "type": "t_uint256"
      },
      {
        "astId": 7158,
        "contract": "contracts/pool/PoolRewards.sol:PoolRewards",
        "label": "lastUpdateTime",
        "offset": 0,
        "slot": "6",
        "type": "t_uint256"
      },
      {
        "astId": 7161,
        "contract": "contracts/pool/PoolRewards.sol:PoolRewards",
        "label": "rewardPerTokenStored",
        "offset": 0,
        "slot": "7",
        "type": "t_uint256"
      },
      {
        "astId": 7166,
        "contract": "contracts/pool/PoolRewards.sol:PoolRewards",
        "label": "userRewardPerTokenPaid",
        "offset": 0,
        "slot": "8",
        "type": "t_mapping(t_address,t_uint256)"
      },
      {
        "astId": 7171,
        "contract": "contracts/pool/PoolRewards.sol:PoolRewards",
        "label": "rewards",
        "offset": 0,
        "slot": "9",
        "type": "t_mapping(t_address,t_uint256)"
      },
      {
        "astId": 938,
        "contract": "contracts/pool/PoolRewards.sol:PoolRewards",
        "label": "_status",
        "offset": 0,
        "slot": "10",
        "type": "t_uint256"
      }
    ],
    "types": {
      "t_address": {
        "encoding": "inplace",
        "label": "address",
        "numberOfBytes": "20"
      },
      "t_bool": {
        "encoding": "inplace",
        "label": "bool",
        "numberOfBytes": "1"
      },
      "t_mapping(t_address,t_uint256)": {
        "encoding": "mapping",
        "key": "t_address",
        "label": "mapping(address => uint256)",
        "numberOfBytes": "32",
        "value": "t_uint256"
      },
      "t_uint256": {
        "encoding": "inplace",
        "label": "uint256",
        "numberOfBytes": "32"
      }
    }
  }
}