{
  "address": "0x7f0088F5a7b8d29936c1119a6446Ea90F69d5c0f",
  "abi": [
    {
      "inputs": [
        {
          "internalType": "string",
          "name": "_name",
          "type": "string"
        },
        {
          "internalType": "string",
          "name": "_symbol",
          "type": "string"
        },
        {
          "internalType": "address",
          "name": "_token",
          "type": "address"
        }
      ],
      "stateMutability": "nonpayable",
      "type": "constructor"
    },
    {
      "anonymous": false,
      "inputs": [
        {
          "indexed": true,
          "internalType": "address",
          "name": "owner",
          "type": "address"
        },
        {
          "indexed": true,
          "internalType": "address",
          "name": "spender",
          "type": "address"
        },
        {
          "indexed": false,
          "internalType": "uint256",
          "name": "value",
          "type": "uint256"
        }
      ],
      "name": "Approval",
      "type": "event"
    },
    {
      "anonymous": false,
      "inputs": [
        {
          "indexed": true,
          "internalType": "address",
          "name": "owner",
          "type": "address"
        },
        {
          "indexed": false,
          "internalType": "uint256",
          "name": "shares",
          "type": "uint256"
        },
        {
          "indexed": false,
          "internalType": "uint256",
          "name": "amount",
          "type": "uint256"
        }
      ],
      "name": "Deposit",
      "type": "event"
    },
    {
      "anonymous": false,
      "inputs": [
        {
          "indexed": false,
          "internalType": "address",
          "name": "account",
          "type": "address"
        }
      ],
      "name": "Open",
      "type": "event"
    },
    {
      "anonymous": false,
      "inputs": [
        {
          "indexed": false,
          "internalType": "address",
          "name": "account",
          "type": "address"
        }
      ],
      "name": "Paused",
      "type": "event"
    },
    {
      "anonymous": false,
      "inputs": [
        {
          "indexed": false,
          "internalType": "address",
          "name": "account",
          "type": "address"
        }
      ],
      "name": "Shutdown",
      "type": "event"
    },
    {
      "anonymous": false,
      "inputs": [
        {
          "indexed": true,
          "internalType": "address",
          "name": "from",
          "type": "address"
        },
        {
          "indexed": true,
          "internalType": "address",
          "name": "to",
          "type": "address"
        },
        {
          "indexed": false,
          "internalType": "uint256",
          "name": "value",
          "type": "uint256"
        }
      ],
      "name": "Transfer",
      "type": "event"
    },
    {
      "anonymous": false,
      "inputs": [
        {
          "indexed": false,
          "internalType": "address",
          "name": "account",
          "type": "address"
        }
      ],
      "name": "Unpaused",
      "type": "event"
    },
    {
      "anonymous": false,
      "inputs": [
        {
          "indexed": true,
          "internalType": "address",
          "name": "previousFeeCollector",
          "type": "address"
        },
        {
          "indexed": true,
          "internalType": "address",
          "name": "newFeeCollector",
          "type": "address"
        }
      ],
      "name": "UpdatedFeeCollector",
      "type": "event"
    },
    {
      "anonymous": false,
      "inputs": [
        {
          "indexed": true,
          "internalType": "address",
          "name": "previousGovernor",
          "type": "address"
        },
        {
          "indexed": true,
          "internalType": "address",
          "name": "proposedGovernor",
          "type": "address"
        }
      ],
      "name": "UpdatedGovernor",
      "type": "event"
    },
    {
      "anonymous": false,
      "inputs": [
        {
          "indexed": true,
          "internalType": "address",
          "name": "previousPoolRewards",
          "type": "address"
        },
        {
          "indexed": true,
          "internalType": "address",
          "name": "newPoolRewards",
          "type": "address"
        }
      ],
      "name": "UpdatedPoolRewards",
      "type": "event"
    },
    {
      "anonymous": false,
      "inputs": [
        {
          "indexed": false,
          "internalType": "uint256",
          "name": "previousWithdrawFee",
          "type": "uint256"
        },
        {
          "indexed": false,
          "internalType": "uint256",
          "name": "newWithdrawFee",
          "type": "uint256"
        }
      ],
      "name": "UpdatedWithdrawFee",
      "type": "event"
    },
    {
      "anonymous": false,
      "inputs": [
        {
          "indexed": true,
          "internalType": "address",
          "name": "owner",
          "type": "address"
        },
        {
          "indexed": false,
          "internalType": "uint256",
          "name": "shares",
          "type": "uint256"
        },
        {
          "indexed": false,
          "internalType": "uint256",
          "name": "amount",
          "type": "uint256"
        }
      ],
      "name": "Withdraw",
      "type": "event"
    },
    {
      "inputs": [],
      "name": "DOMAIN_SEPARATOR",
      "outputs": [
        {
          "internalType": "bytes32",
          "name": "",
          "type": "bytes32"
        }
      ],
      "stateMutability": "view",
      "type": "function"
    },
    {
      "inputs": [],
      "name": "MAX_BPS",
      "outputs": [
        {
          "internalType": "uint256",
          "name": "",
          "type": "uint256"
        }
      ],
      "stateMutability": "view",
      "type": "function"
    },
    {
      "inputs": [],
      "name": "VERSION",
      "outputs": [
        {
          "internalType": "string",
          "name": "",
          "type": "string"
        }
      ],
      "stateMutability": "view",
      "type": "function"
    },
    {
      "inputs": [],
      "name": "acceptGovernorship",
      "outputs": [],
      "stateMutability": "nonpayable",
      "type": "function"
    },
    {
      "inputs": [
        {
          "internalType": "address",
          "name": "_listToUpdate",
          "type": "address"
        },
        {
          "internalType": "address",
          "name": "_addressToAdd",
          "type": "address"
        }
      ],
      "name": "addInList",
      "outputs": [],
      "stateMutability": "nonpayable",
      "type": "function"
    },
    {
      "inputs": [
        {
          "internalType": "address",
          "name": "owner",
          "type": "address"
        },
        {
          "internalType": "address",
          "name": "spender",
          "type": "address"
        }
      ],
      "name": "allowance",
      "outputs": [
        {
          "internalType": "uint256",
          "name": "",
          "type": "uint256"
        }
      ],
      "stateMutability": "view",
      "type": "function"
    },
    {
      "inputs": [
        {
          "internalType": "address",
          "name": "spender",
          "type": "address"
        },
        {
          "internalType": "uint256",
          "name": "amount",
          "type": "uint256"
        }
      ],
      "name": "approve",
      "outputs": [
        {
          "internalType": "bool",
          "name": "",
          "type": "bool"
        }
      ],
      "stateMutability": "nonpayable",
      "type": "function"
    },
    {
      "inputs": [
        {
          "internalType": "address",
          "name": "_strategy",
          "type": "address"
        }
      ],
      "name": "availableCreditLimit",
      "outputs": [
        {
          "internalType": "uint256",
          "name": "",
          "type": "uint256"
        }
      ],
      "stateMutability": "view",
      "type": "function"
    },
    {
      "inputs": [
        {
          "internalType": "address",
          "name": "account",
          "type": "address"
        }
      ],
      "name": "balanceOf",
      "outputs": [
        {
          "internalType": "uint256",
          "name": "",
          "type": "uint256"
        }
      ],
      "stateMutability": "view",
      "type": "function"
    },
    {
      "inputs": [
        {
          "internalType": "uint256",
          "name": "_amount",
          "type": "uint256"
        }
      ],
      "name": "convertFrom18",
      "outputs": [
        {
          "internalType": "uint256",
          "name": "",
          "type": "uint256"
        }
      ],
      "stateMutability": "view",
      "type": "function"
    },
    {
      "inputs": [],
      "name": "decimalConversionFactor",
      "outputs": [
        {
          "internalType": "uint256",
          "name": "",
          "type": "uint256"
        }
      ],
      "stateMutability": "view",
      "type": "function"
    },
    {
      "inputs": [],
      "name": "decimals",
      "outputs": [
        {
          "internalType": "uint8",
          "name": "",
          "type": "uint8"
        }
      ],
      "stateMutability": "view",
      "type": "function"
    },
    {
      "inputs": [
        {
          "internalType": "address",
          "name": "spender",
          "type": "address"
        },
        {
          "internalType": "uint256",
          "name": "subtractedValue",
          "type": "uint256"
        }
      ],
      "name": "decreaseAllowance",
      "outputs": [
        {
          "internalType": "bool",
          "name": "",
          "type": "bool"
        }
      ],
      "stateMutability": "nonpayable",
      "type": "function"
    },
    {
      "inputs": [
        {
          "internalType": "uint256",
          "name": "_amount",
          "type": "uint256"
        }
      ],
      "name": "deposit",
      "outputs": [],
      "stateMutability": "nonpayable",
      "type": "function"
    },
    {
      "inputs": [
        {
          "internalType": "uint256",
          "name": "_amount",
          "type": "uint256"
        },
        {
          "internalType": "uint256",
          "name": "_deadline",
          "type": "uint256"
        },
        {
          "internalType": "uint8",
          "name": "_v",
          "type": "uint8"
        },
        {
          "internalType": "bytes32",
          "name": "_r",
          "type": "bytes32"
        },
        {
          "internalType": "bytes32",
          "name": "_s",
          "type": "bytes32"
        }
      ],
      "name": "depositWithPermit",
      "outputs": [],
      "stateMutability": "nonpayable",
      "type": "function"
    },
    {
      "inputs": [
        {
          "internalType": "address",
          "name": "_strategy",
          "type": "address"
        }
      ],
      "name": "excessDebt",
      "outputs": [
        {
          "internalType": "uint256",
          "name": "",
          "type": "uint256"
        }
      ],
      "stateMutability": "view",
      "type": "function"
    },
    {
      "inputs": [],
      "name": "feeCollector",
      "outputs": [
        {
          "internalType": "address",
          "name": "",
          "type": "address"
        }
      ],
      "stateMutability": "view",
      "type": "function"
    },
    {
      "inputs": [],
      "name": "feeWhitelist",
      "outputs": [
        {
          "internalType": "address",
          "name": "",
          "type": "address"
        }
      ],
      "stateMutability": "view",
      "type": "function"
    },
    {
      "inputs": [],
      "name": "getStrategies",
      "outputs": [
        {
          "internalType": "address[]",
          "name": "",
          "type": "address[]"
        }
      ],
      "stateMutability": "view",
      "type": "function"
    },
    {
      "inputs": [],
      "name": "getWithdrawQueue",
      "outputs": [
        {
          "internalType": "address[]",
          "name": "",
          "type": "address[]"
        }
      ],
      "stateMutability": "view",
      "type": "function"
    },
    {
      "inputs": [],
      "name": "governor",
      "outputs": [
        {
          "internalType": "address",
          "name": "",
          "type": "address"
        }
      ],
      "stateMutability": "view",
      "type": "function"
    },
    {
      "inputs": [
        {
          "internalType": "address",
          "name": "spender",
          "type": "address"
        },
        {
          "internalType": "uint256",
          "name": "addedValue",
          "type": "uint256"
        }
      ],
      "name": "increaseAllowance",
      "outputs": [
        {
          "internalType": "bool",
          "name": "",
          "type": "bool"
        }
      ],
      "stateMutability": "nonpayable",
      "type": "function"
    },
    {
      "inputs": [
        {
          "internalType": "string",
          "name": "_name",
          "type": "string"
        },
        {
          "internalType": "string",
          "name": "_symbol",
          "type": "string"
        },
        {
          "internalType": "address",
          "name": "_token",
          "type": "address"
        },
        {
          "internalType": "address",
          "name": "_poolAccountant",
          "type": "address"
        },
        {
          "internalType": "address",
          "name": "_addressListFactory",
          "type": "address"
        }
      ],
      "name": "initialize",
      "outputs": [],
      "stateMutability": "nonpayable",
      "type": "function"
    },
    {
      "inputs": [],
      "name": "keepers",
      "outputs": [
        {
          "internalType": "address",
          "name": "",
          "type": "address"
        }
      ],
      "stateMutability": "view",
      "type": "function"
    },
    {
      "inputs": [],
      "name": "maintainers",
      "outputs": [
        {
          "internalType": "address",
          "name": "",
          "type": "address"
        }
      ],
      "stateMutability": "view",
      "type": "function"
    },
    {
      "inputs": [
        {
          "internalType": "address",
          "name": "_old",
          "type": "address"
        },
        {
          "internalType": "address",
          "name": "_new",
          "type": "address"
        }
      ],
      "name": "migrateStrategy",
      "outputs": [],
      "stateMutability": "nonpayable",
      "type": "function"
    },
    {
      "inputs": [
        {
          "internalType": "address[]",
          "name": "_recipients",
          "type": "address[]"
        },
        {
          "internalType": "uint256[]",
          "name": "_amounts",
          "type": "uint256[]"
        }
      ],
      "name": "multiTransfer",
      "outputs": [
        {
          "internalType": "bool",
          "name": "",
          "type": "bool"
        }
      ],
      "stateMutability": "nonpayable",
      "type": "function"
    },
    {
      "inputs": [],
      "name": "name",
      "outputs": [
        {
          "internalType": "string",
          "name": "",
          "type": "string"
        }
      ],
      "stateMutability": "view",
      "type": "function"
    },
    {
      "inputs": [
        {
          "internalType": "address",
          "name": "",
          "type": "address"
        }
      ],
      "name": "nonces",
      "outputs": [
        {
          "internalType": "uint256",
          "name": "",
          "type": "uint256"
        }
      ],
      "stateMutability": "view",
      "type": "function"
    },
    {
      "inputs": [],
      "name": "open",
      "outputs": [],
      "stateMutability": "nonpayable",
      "type": "function"
    },
    {
      "inputs": [],
      "name": "pause",
      "outputs": [],
      "stateMutability": "nonpayable",
      "type": "function"
    },
    {
      "inputs": [],
      "name": "paused",
      "outputs": [
        {
          "internalType": "bool",
          "name": "",
          "type": "bool"
        }
      ],
      "stateMutability": "view",
      "type": "function"
    },
    {
      "inputs": [
        {
          "internalType": "address",
          "name": "owner",
          "type": "address"
        },
        {
          "internalType": "address",
          "name": "spender",
          "type": "address"
        },
        {
          "internalType": "uint256",
          "name": "value",
          "type": "uint256"
        },
        {
          "internalType": "uint256",
          "name": "deadline",
          "type": "uint256"
        },
        {
          "internalType": "uint8",
          "name": "v",
          "type": "uint8"
        },
        {
          "internalType": "bytes32",
          "name": "r",
          "type": "bytes32"
        },
        {
          "internalType": "bytes32",
          "name": "s",
          "type": "bytes32"
        }
      ],
      "name": "permit",
      "outputs": [],
      "stateMutability": "nonpayable",
      "type": "function"
    },
    {
      "inputs": [],
      "name": "poolAccountant",
      "outputs": [
        {
          "internalType": "address",
          "name": "",
          "type": "address"
        }
      ],
      "stateMutability": "view",
      "type": "function"
    },
    {
      "inputs": [],
      "name": "poolRewards",
      "outputs": [
        {
          "internalType": "address",
          "name": "",
          "type": "address"
        }
      ],
      "stateMutability": "view",
      "type": "function"
    },
    {
      "inputs": [],
      "name": "pricePerShare",
      "outputs": [
        {
          "internalType": "uint256",
          "name": "",
          "type": "uint256"
        }
      ],
      "stateMutability": "view",
      "type": "function"
    },
    {
      "inputs": [
        {
          "internalType": "address",
          "name": "_listToUpdate",
          "type": "address"
        },
        {
          "internalType": "address",
          "name": "_addressToRemove",
          "type": "address"
        }
      ],
      "name": "removeFromList",
      "outputs": [],
      "stateMutability": "nonpayable",
      "type": "function"
    },
    {
      "inputs": [
        {
          "internalType": "uint256",
          "name": "_profit",
          "type": "uint256"
        },
        {
          "internalType": "uint256",
          "name": "_loss",
          "type": "uint256"
        },
        {
          "internalType": "uint256",
          "name": "_payback",
          "type": "uint256"
        }
      ],
      "name": "reportEarning",
      "outputs": [],
      "stateMutability": "nonpayable",
      "type": "function"
    },
    {
      "inputs": [
        {
          "internalType": "uint256",
          "name": "_loss",
          "type": "uint256"
        }
      ],
      "name": "reportLoss",
      "outputs": [],
      "stateMutability": "nonpayable",
      "type": "function"
    },
    {
      "inputs": [],
      "name": "shutdown",
      "outputs": [],
      "stateMutability": "nonpayable",
      "type": "function"
    },
    {
      "inputs": [],
      "name": "stopEverything",
      "outputs": [
        {
          "internalType": "bool",
          "name": "",
          "type": "bool"
        }
      ],
      "stateMutability": "view",
      "type": "function"
    },
    {
      "inputs": [
        {
          "internalType": "address",
          "name": "_strategy",
          "type": "address"
        }
      ],
      "name": "strategy",
      "outputs": [
        {
          "internalType": "bool",
          "name": "_active",
          "type": "bool"
        },
        {
          "internalType": "uint256",
          "name": "_interestFee",
          "type": "uint256"
        },
        {
          "internalType": "uint256",
          "name": "_debtRate",
          "type": "uint256"
        },
        {
          "internalType": "uint256",
          "name": "_lastRebalance",
          "type": "uint256"
        },
        {
          "internalType": "uint256",
          "name": "_totalDebt",
          "type": "uint256"
        },
        {
          "internalType": "uint256",
          "name": "_totalLoss",
          "type": "uint256"
        },
        {
          "internalType": "uint256",
          "name": "_totalProfit",
          "type": "uint256"
        },
        {
          "internalType": "uint256",
          "name": "_debtRatio",
          "type": "uint256"
        }
      ],
      "stateMutability": "view",
      "type": "function"
    },
    {
      "inputs": [
        {
          "internalType": "address",
          "name": "_fromToken",
          "type": "address"
        }
      ],
      "name": "sweepERC20",
      "outputs": [],
      "stateMutability": "nonpayable",
      "type": "function"
    },
    {
      "inputs": [],
      "name": "symbol",
      "outputs": [
        {
          "internalType": "string",
          "name": "",
          "type": "string"
        }
      ],
      "stateMutability": "view",
      "type": "function"
    },
    {
      "inputs": [],
      "name": "token",
      "outputs": [
        {
          "internalType": "contract IERC20",
          "name": "",
          "type": "address"
        }
      ],
      "stateMutability": "view",
      "type": "function"
    },
    {
      "inputs": [],
      "name": "tokensHere",
      "outputs": [
        {
          "internalType": "uint256",
          "name": "",
          "type": "uint256"
        }
      ],
      "stateMutability": "view",
      "type": "function"
    },
    {
      "inputs": [],
      "name": "totalDebt",
      "outputs": [
        {
          "internalType": "uint256",
          "name": "",
          "type": "uint256"
        }
      ],
      "stateMutability": "view",
      "type": "function"
    },
    {
      "inputs": [
        {
          "internalType": "address",
          "name": "_strategy",
          "type": "address"
        }
      ],
      "name": "totalDebtOf",
      "outputs": [
        {
          "internalType": "uint256",
          "name": "",
          "type": "uint256"
        }
      ],
      "stateMutability": "view",
      "type": "function"
    },
    {
      "inputs": [],
      "name": "totalDebtRatio",
      "outputs": [
        {
          "internalType": "uint256",
          "name": "",
          "type": "uint256"
        }
      ],
      "stateMutability": "view",
      "type": "function"
    },
    {
      "inputs": [],
      "name": "totalSupply",
      "outputs": [
        {
          "internalType": "uint256",
          "name": "",
          "type": "uint256"
        }
      ],
      "stateMutability": "view",
      "type": "function"
    },
    {
      "inputs": [],
      "name": "totalValue",
      "outputs": [
        {
          "internalType": "uint256",
          "name": "",
          "type": "uint256"
        }
      ],
      "stateMutability": "view",
      "type": "function"
    },
    {
      "inputs": [
        {
          "internalType": "address",
          "name": "recipient",
          "type": "address"
        },
        {
          "internalType": "uint256",
          "name": "amount",
          "type": "uint256"
        }
      ],
      "name": "transfer",
      "outputs": [
        {
          "internalType": "bool",
          "name": "",
          "type": "bool"
        }
      ],
      "stateMutability": "nonpayable",
      "type": "function"
    },
    {
      "inputs": [
        {
          "internalType": "address",
          "name": "sender",
          "type": "address"
        },
        {
          "internalType": "address",
          "name": "recipient",
          "type": "address"
        },
        {
          "internalType": "uint256",
          "name": "amount",
          "type": "uint256"
        }
      ],
      "name": "transferFrom",
      "outputs": [
        {
          "internalType": "bool",
          "name": "",
          "type": "bool"
        }
      ],
      "stateMutability": "nonpayable",
      "type": "function"
    },
    {
      "inputs": [
        {
          "internalType": "address",
          "name": "_proposedGovernor",
          "type": "address"
        }
      ],
      "name": "transferGovernorship",
      "outputs": [],
      "stateMutability": "nonpayable",
      "type": "function"
    },
    {
      "inputs": [],
      "name": "unpause",
      "outputs": [],
      "stateMutability": "nonpayable",
      "type": "function"
    },
    {
      "inputs": [
        {
          "internalType": "address",
          "name": "_newFeeCollector",
          "type": "address"
        }
      ],
      "name": "updateFeeCollector",
      "outputs": [],
      "stateMutability": "nonpayable",
      "type": "function"
    },
    {
      "inputs": [
        {
          "internalType": "address",
          "name": "_newPoolRewards",
          "type": "address"
        }
      ],
      "name": "updatePoolRewards",
      "outputs": [],
      "stateMutability": "nonpayable",
      "type": "function"
    },
    {
      "inputs": [
        {
          "internalType": "uint256",
          "name": "_newWithdrawFee",
          "type": "uint256"
        }
      ],
      "name": "updateWithdrawFee",
      "outputs": [],
      "stateMutability": "nonpayable",
      "type": "function"
    },
    {
      "inputs": [
        {
          "internalType": "uint256",
          "name": "_shares",
          "type": "uint256"
        }
      ],
      "name": "whitelistedWithdraw",
      "outputs": [],
      "stateMutability": "nonpayable",
      "type": "function"
    },
    {
      "inputs": [
        {
          "internalType": "uint256",
          "name": "_shares",
          "type": "uint256"
        }
      ],
      "name": "withdraw",
      "outputs": [],
      "stateMutability": "nonpayable",
      "type": "function"
    },
    {
      "inputs": [],
      "name": "withdrawFee",
      "outputs": [
        {
          "internalType": "uint256",
          "name": "",
          "type": "uint256"
        }
      ],
      "stateMutability": "view",
      "type": "function"
    }
  ],
  "transactionHash": "0x018a5195742c51f79bfcd31bab083df1a0b1b38e1c34caf8f0ad87ae9f40a900",
  "args": [
    "vUNI Pool",
    "vUNI",
    "0x1f9840a85d5aF5bf1D1762F925BDADdC4201F984"
  ],
  "solcInputHash": "c2f62ce78ec0012540fd7a368ab20d45",
  "bytecode": "0x60806040523480156200001157600080fd5b5060405162004ba938038062004ba983398101604081905262000034916200025e565b828282828282828281600390805190602001906200005492919062000105565b5080516200006a90600490602084019062000105565b50505060006200007f6200010160201b60201c565b600a80546001600160a01b0319166001600160a01b038316908117909155604051919250906000907fd4459d5b8b913cab0244230fd9b1c08b6ceace7fe9230e60d0f74cbffdf849d0908290a3506001600c55600d80546001600160a01b0319166001600160a01b0392909216919091179055506200033a9650505050505050565b3390565b8280546200011390620002e7565b90600052602060002090601f01602090048101928262000137576000855562000182565b82601f106200015257805160ff191683800117855562000182565b8280016001018555821562000182579182015b828111156200018257825182559160200191906001019062000165565b506200019092915062000194565b5090565b5b8082111562000190576000815560010162000195565b600082601f830112620001bc578081fd5b81516001600160401b0380821115620001d957620001d962000324565b604051601f8301601f19908116603f0116810190828211818310171562000204576200020462000324565b8160405283815260209250868385880101111562000220578485fd5b8491505b8382101562000243578582018301518183018401529082019062000224565b838211156200025457848385830101525b9695505050505050565b60008060006060848603121562000273578283fd5b83516001600160401b03808211156200028a578485fd5b6200029887838801620001ab565b94506020860151915080821115620002ae578384fd5b50620002bd86828701620001ab565b604086015190935090506001600160a01b0381168114620002dc578182fd5b809150509250925092565b600181811c90821680620002fc57607f821691505b602082108114156200031e57634e487b7160e01b600052602260045260246000fd5b50919050565b634e487b7160e01b600052604160045260246000fd5b61485f806200034a6000396000f3fe608060405234801561001057600080fd5b50600436106103af5760003560e01c806399530b06116101f4578063daf635de1161011a578063fc0c546a116100ad578063fcfff16f1161007c578063fcfff16f146107fb578063fd967f4714610803578063ff643a7c1461080c578063ffa1ad741461081f576103af565b8063fc0c546a146107c5578063fc0e74d1146107d8578063fc767810146107e0578063fc7b9c18146107f3576103af565b8063e00af4a7116100e9578063e00af4a71461078e578063e941fa78146107a1578063f3b27bc3146107aa578063fb589de2146107b2576103af565b8063daf635de1461071c578063db0ed6a01461072f578063dd62ed3e14610742578063ddd6d2601461077b576103af565b8063b6b55f2511610192578063d2c35ce811610161578063d2c35ce8146106db578063d4c3eea0146106ee578063d505accf146106f6578063d53ddc2614610709576103af565b8063b6b55f251461069a578063b8cb343d146106ad578063c12d636b146106b5578063c415b95c146106c8576103af565b8063a9059cbb116101ce578063a9059cbb14610659578063b49a60bb1461066c578063b64321ec14610674578063b6aa515b14610687576103af565b806399530b061461062b5780639f2b283314610633578063a457c2d714610646576103af565b80633f4ba83a116102d957806370a08231116102775780638fe91ffb116102465780638fe91ffb146105f4578063940c4082146105fd578063951dc22c1461061057806395d89b4114610623576103af565b806370a08231146105a65780637ecebe00146105b95780638456cb59146105d95780638bc6beb2146105e1576103af565b80634a970be7116102b35780634a970be7146105595780635c975abb1461056c57806367187d3d146105805780636cb56d1914610593576103af565b80633f4ba83a1461052a5780634938649a1461053257806349eeb86014610546576103af565b80631e89d545116103515780632e1a7d4d116103205780632e1a7d4d146104ed578063313ce567146105005780633644e5151461050f5780633950935114610517576103af565b80631e89d5451461046f578063228bfd9f1461048257806323b872dd146104d25780632df9eab9146104e5576103af565b80630c340a241161038d5780630c340a241461040a578063111830521461043557806318160ddd1461044a5780631e751ac11461045c576103af565b806305bed046146103b457806306fdde03146103c9578063095ea7b3146103e7575b600080fd5b6103c76103c2366004614335565b610843565b005b6103d1610979565b6040516103de919061445a565b60405180910390f35b6103fa6103f53660046140a3565b610a0c565b60405190151581526020016103de565b600a5461041d906001600160a01b031681565b6040516001600160a01b0390911681526020016103de565b61043d610a22565b6040516103de919061440d565b6002545b6040519081526020016103de565b6103c761046a366004613fbb565b610aa8565b6103fa61047d3660046140ce565b610c10565b610495610490366004613f83565b610d12565b6040805198151589526020890197909752958701949094526060860192909252608085015260a084015260c083015260e0820152610100016103de565b6103fa6104e0366004613ff3565b610dbb565b61044e610e6e565b6103c76104fb366004614305565b610eeb565b604051601281526020016103de565b61044e610f4e565b6103fa6105253660046140a3565b610f58565b6103c7610f8f565b600b546103fa90600160a81b900460ff1681565b60125461041d906001600160a01b031681565b6103c761056736600461438d565b61103e565b600b546103fa90600160a01b900460ff1681565b6103c761058e366004613fbb565b61113b565b6103c76105a1366004613fbb565b611294565b61044e6105b4366004613f83565b6114d0565b61044e6105c7366004613f83565b60096020526000908152604090205481565b6103c76114ef565b600f5461041d906001600160a01b031681565b61044e60155481565b6103c761060b366004613f83565b61159c565b60115461041d906001600160a01b031681565b6103d1611663565b61044e611672565b61044e610641366004613f83565b6116d2565b6103fa6106543660046140a3565b611757565b6103fa6106673660046140a3565b6117f2565b61043d6117ff565b61044e610682366004613f83565b611844565b6103c7610695366004613f83565b611877565b6103c76106a8366004614305565b611919565b61044e611974565b600e5461041d906001600160a01b031681565b60135461041d906001600160a01b031681565b6103c76106e9366004613f83565b6119b8565b61044e611a7f565b6103c7610704366004614033565b611b19565b61044e610717366004613f83565b611cd9565b6103c761072a366004614305565b611d0c565b6103c761073d36600461426a565b611df7565b61044e610750366004613fbb565b6001600160a01b03918216600090815260016020908152604080832093909416825291909152205490565b6103c7610789366004614305565b611e74565b6103c761079c366004613f83565b611edc565b61044e60145481565b6103c76120a4565b61044e6107c0366004614305565b612164565b600d5461041d906001600160a01b031681565b6103c7612174565b60105461041d906001600160a01b031681565b61044e612221565b6103c7612266565b61044e61271081565b6103c761081a366004614305565b612313565b6103d1604051806040016040528060058152602001640ccb8c0b8d60da1b81525081565b600e54600090819081906001600160a01b031663a066654b336040516001600160e01b031960e084901b1681526001600160a01b039091166004820152602481018990526044810188905260648101879052608401606060405180830381600087803b1580156108b257600080fd5b505af11580156108c6573d6000803e3d6000fd5b505050506040513d601f19601f820116820180604052508101906108ea9190614360565b9194509250905060006108fd84886145d5565b90508281101561092d57610928336109158386614740565b600d546001600160a01b03169190612430565b610958565b828111156109585761095833306109448685614740565b600d546001600160a01b0316929190612493565b8115610970576109703361096b846124d1565b61256f565b50505050505050565b60606003805461098890614783565b80601f01602080910402602001604051908101604052809291908181526020018280546109b490614783565b8015610a015780601f106109d657610100808354040283529160200191610a01565b820191906000526020600020905b8154815290600101906020018083116109e457829003601f168201915b505050505090505b90565b6000610a1933848461264e565b50600192915050565b600e546040805163088c182960e11b815290516060926001600160a01b0316916311183052916004808301926000929190829003018186803b158015610a6757600080fd5b505afa158015610a7b573d6000803e3d6000fd5b505050506040513d6000823e601f3d908101601f19168201604052610aa39190810190614137565b905090565b6011546001600160a01b0316635dbe47e8336040516001600160e01b031960e084901b1681526001600160a01b03909116600482015260240160206040518083038186803b158015610af957600080fd5b505afa158015610b0d573d6000803e3d6000fd5b505050506040513d601f19601f82011682018060405250810190610b3191906141eb565b610b565760405162461bcd60e51b8152600401610b4d906144db565b60405180910390fd5b604051630a3b0a4f60e01b81526001600160a01b038281166004830152831690630a3b0a4f906024015b602060405180830381600087803b158015610b9a57600080fd5b505af1158015610bae573d6000803e3d6000fd5b505050506040513d601f19601f82011682018060405250810190610bd291906141eb565b60405180604001604052806002815260200161313360f01b81525090610c0b5760405162461bcd60e51b8152600401610b4d919061445a565b505050565b6040805180820190915260018152600d60fa1b6020820152600090848314610c4b5760405162461bcd60e51b8152600401610b4d919061445a565b5060005b84811015610d0657610cbb868683818110610c7a57634e487b7160e01b600052603260045260246000fd5b9050602002016020810190610c8f9190613f83565b858584818110610caf57634e487b7160e01b600052603260045260246000fd5b905060200201356117f2565b604051806040016040528060018152602001601b60f91b81525090610cf35760405162461bcd60e51b8152600401610b4d919061445a565b5080610cfe816147be565b915050610c4f565b50600195945050505050565b600e5460405163228bfd9f60e01b81526001600160a01b038381166004830152600092839283928392839283928392839291169063228bfd9f906024016101006040518083038186803b158015610d6857600080fd5b505afa158015610d7c573d6000803e3d6000fd5b505050506040513d601f19601f82011682018060405250810190610da09190614205565b97509750975097509750975097509750919395975091939597565b6000610dc8848484612773565b6001600160a01b038416600090815260016020908152604080832033845290915290205482811015610e4d5760405162461bcd60e51b815260206004820152602860248201527f45524332303a207472616e7366657220616d6f756e74206578636565647320616044820152676c6c6f77616e636560c01b6064820152608401610b4d565b610e618533610e5c8685614740565b61264e565b60019150505b9392505050565b600e5460408051632df9eab960e01b815290516000926001600160a01b031691632df9eab9916004808301926020929190829003018186803b158015610eb357600080fd5b505afa158015610ec7573d6000803e3d6000fd5b505050506040513d601f19601f82011682018060405250810190610aa3919061431d565b6002600c541415610f0e5760405162461bcd60e51b8152600401610b4d90614523565b6002600c55600b54600160a81b900460ff1615610f3d5760405162461bcd60e51b8152600401610b4d90614501565b610f468161284e565b506001600c55565b6000610aa36129a7565b3360008181526001602090815260408083206001600160a01b03871684529091528120549091610a19918590610e5c9086906145d5565b6011546001600160a01b0316635dbe47e8336040516001600160e01b031960e084901b1681526001600160a01b03909116600482015260240160206040518083038186803b158015610fe057600080fd5b505afa158015610ff4573d6000803e3d6000fd5b505050506040513d601f19601f8201168201806040525081019061101891906141eb565b6110345760405162461bcd60e51b8152600401610b4d906144db565b61103c612a24565b565b6002600c5414156110615760405162461bcd60e51b8152600401610b4d90614523565b6002600c55600b54600160a01b900460ff16156110905760405162461bcd60e51b8152600401610b4d9061455a565b600d546001600160a01b031663d505accf336040516001600160e01b031960e084901b1681526001600160a01b039091166004820152306024820152604481018890526064810187905260ff8616608482015260a4810185905260c4810184905260e401600060405180830381600087803b15801561110e57600080fd5b505af1158015611122573d6000803e3d6000fd5b5050505061112f85612ae1565b50506001600c55505050565b6011546001600160a01b0316635dbe47e8336040516001600160e01b031960e084901b1681526001600160a01b03909116600482015260240160206040518083038186803b15801561118c57600080fd5b505afa1580156111a0573d6000803e3d6000fd5b505050506040513d601f19601f820116820180604052508101906111c491906141eb565b6111e05760405162461bcd60e51b8152600401610b4d906144db565b604051631484968760e11b81526001600160a01b0382811660048301528316906329092d0e90602401602060405180830381600087803b15801561122357600080fd5b505af1158015611237573d6000803e3d6000fd5b505050506040513d601f19601f8201168201806040525081019061125b91906141eb565b604051806040016040528060028152602001610c4d60f21b81525090610c0b5760405162461bcd60e51b8152600401610b4d919061445a565b600a546001600160a01b031633146112be5760405162461bcd60e51b8152600401610b4d9061457a565b306001600160a01b0316816001600160a01b03166316f0115b6040518163ffffffff1660e01b815260040160206040518083038186803b15801561130157600080fd5b505afa158015611315573d6000803e3d6000fd5b505050506040513d601f19601f820116820180604052508101906113399190613f9f565b6001600160a01b03161480156113d05750306001600160a01b0316826001600160a01b03166316f0115b6040518163ffffffff1660e01b815260040160206040518083038186803b15801561138d57600080fd5b505afa1580156113a1573d6000803e3d6000fd5b505050506040513d601f19601f820116820180604052508101906113c59190613f9f565b6001600160a01b0316145b60405180604001604052806002815260200161313760f01b815250906114095760405162461bcd60e51b8152600401610b4d919061445a565b50600e54604051636cb56d1960e01b81526001600160a01b038481166004830152838116602483015290911690636cb56d1990604401600060405180830381600087803b15801561145957600080fd5b505af115801561146d573d6000803e3d6000fd5b505060405163ce5494bb60e01b81526001600160a01b0384811660048301528516925063ce5494bb9150602401600060405180830381600087803b1580156114b457600080fd5b505af11580156114c8573d6000803e3d6000fd5b505050505050565b6001600160a01b0381166000908152602081905260409020545b919050565b6011546001600160a01b0316635dbe47e8336040516001600160e01b031960e084901b1681526001600160a01b03909116600482015260240160206040518083038186803b15801561154057600080fd5b505afa158015611554573d6000803e3d6000fd5b505050506040513d601f19601f8201168201806040525081019061157891906141eb565b6115945760405162461bcd60e51b8152600401610b4d906144db565b61103c612b49565b600a546001600160a01b031633146115c65760405162461bcd60e51b8152600401610b4d9061457a565b604080518082019091526002815261031360f41b60208201526001600160a01b0382166116065760405162461bcd60e51b8152600401610b4d919061445a565b50600f546040516001600160a01b038084169216907fe239974dad08ac696e723caf1886bd0b5afc0870088f9a1266082757f824927690600090a3600f80546001600160a01b0319166001600160a01b0392909216919091179055565b60606004805461098890614783565b600061167d60025490565b158061168e575061168c611a7f565b155b156116ab576116a4670de0b6b3a7640000612164565b9050610a09565b6002546116b6611a7f565b6116c890670de0b6b3a7640000614721565b610aa391906145ed565b600e54604051639f2b283360e01b81526001600160a01b0383811660048301526000921690639f2b2833906024015b60206040518083038186803b15801561171957600080fd5b505afa15801561172d573d6000803e3d6000fd5b505050506040513d601f19601f82011682018060405250810190611751919061431d565b92915050565b3360009081526001602090815260408083206001600160a01b0386168452909152812054828110156117d95760405162461bcd60e51b815260206004820152602560248201527f45524332303a2064656372656173656420616c6c6f77616e63652062656c6f77604482015264207a65726f60d81b6064820152608401610b4d565b6117e83385610e5c8685614740565b5060019392505050565b6000610a19338484612773565b600e546040805163b49a60bb60e01b815290516060926001600160a01b03169163b49a60bb916004808301926000929190829003018186803b158015610a6757600080fd5b600e54604051632d90c87b60e21b81526001600160a01b038381166004830152600092169063b64321ec90602401611701565b600a546001600160a01b031633146118a15760405162461bcd60e51b8152600401610b4d9061457a565b6001600160a01b0381166118f75760405162461bcd60e51b815260206004820152601960248201527f70726f706f7365642d676f7665726e6f722d69732d7a65726f000000000000006044820152606401610b4d565b600b80546001600160a01b0319166001600160a01b0392909216919091179055565b6002600c54141561193c5760405162461bcd60e51b8152600401610b4d90614523565b6002600c55600b54600160a01b900460ff161561196b5760405162461bcd60e51b8152600401610b4d9061455a565b610f4681612ae1565b600d546040516370a0823160e01b81523060048201526000916001600160a01b0316906370a082319060240160206040518083038186803b158015610eb357600080fd5b600a546001600160a01b031633146119e25760405162461bcd60e51b8152600401610b4d9061457a565b604080518082019091526002815261031360f41b60208201526001600160a01b038216611a225760405162461bcd60e51b8152600401610b4d919061445a565b506013546040516001600160a01b038084169216907f0f06062680f9bd68e786e9980d9bb03d73d5620fc3b345e417b6eacb310b970690600090a3601380546001600160a01b0319166001600160a01b0392909216919091179055565b6000611a89611974565b600e60009054906101000a90046001600160a01b03166001600160a01b031663fc7b9c186040518163ffffffff1660e01b815260040160206040518083038186803b158015611ad757600080fd5b505afa158015611aeb573d6000803e3d6000fd5b505050506040513d601f19601f82011682018060405250810190611b0f919061431d565b610aa391906145d5565b83421115611b695760405162461bcd60e51b815260206004820152601d60248201527f45524332305065726d69743a206578706972656420646561646c696e650000006044820152606401610b4d565b6001600160a01b0387811660008181526009602090815260408083205481517f6e71edae12b1b97f4d1f60370fef10105fa2faae0126114a169c64845d6126c98185015280830195909552948b166060850152608084018a905260a0840185905260c08085018a90528151808603909101815260e09094019052825192019190912090611bf46129a7565b60405161190160f01b60208201526022810191909152604281018390526062016040516020818303038152906040528051906020012090506000611c3a82888888612bae565b90508a6001600160a01b0316816001600160a01b031614611c9d5760405162461bcd60e51b815260206004820152601e60248201527f45524332305065726d69743a20696e76616c6964207369676e617475726500006044820152606401610b4d565b611ca88460016145d5565b6001600160a01b038c16600090815260096020526040902055611ccc8b8b8b61264e565b5050505050505050505050565b600e54604051636a9eee1360e11b81526001600160a01b038381166004830152600092169063d53ddc2690602401611701565b600a546001600160a01b03163314611d365760405162461bcd60e51b8152600401610b4d9061457a565b6013546040805180820190915260018152603760f81b6020820152906001600160a01b0316611d785760405162461bcd60e51b8152600401610b4d919061445a565b50604080518082019091526002815261313160f01b6020820152612710821115611db55760405162461bcd60e51b8152600401610b4d919061445a565b5060145460408051918252602082018390527f2bf847f5692332004b0f69e0d84a8f85ed020bcf8573b3ede68afc92009965bf910160405180910390a1601455565b600554610100900460ff1680611e10575060055460ff16155b611e2c5760405162461bcd60e51b8152600401610b4d9061448d565b600554610100900460ff16158015611e4e576005805461ffff19166101011790555b611e5b8686868686612d57565b80156114c8576005805461ff0019169055505050505050565b600e54604051633f89843760e11b8152336004820152602481018390526001600160a01b0390911690637f13086e906044015b600060405180830381600087803b158015611ec157600080fd5b505af1158015611ed5573d6000803e3d6000fd5b5050505050565b6011546001600160a01b0316635dbe47e8336040516001600160e01b031960e084901b1681526001600160a01b03909116600482015260240160206040518083038186803b158015611f2d57600080fd5b505afa158015611f41573d6000803e3d6000fd5b505050506040513d601f19601f82011682018060405250810190611f6591906141eb565b611f815760405162461bcd60e51b8152600401610b4d906144db565b600d546040805180820190915260018152600760fb1b6020820152906001600160a01b0383811691161415611fc95760405162461bcd60e51b8152600401610b4d919061445a565b506013546040805180820190915260018152603760f81b6020820152906001600160a01b031661200c5760405162461bcd60e51b8152600401610b4d919061445a565b506013546040516370a0823160e01b81523060048201526120a1916001600160a01b0390811691908416906370a082319060240160206040518083038186803b15801561205857600080fd5b505afa15801561206c573d6000803e3d6000fd5b505050506040513d601f19601f82011682018060405250810190612090919061431d565b6001600160a01b0384169190612430565b50565b600b546001600160a01b031633146120fe5760405162461bcd60e51b815260206004820152601960248201527f6e6f742d7468652d70726f706f7365642d676f7665726e6f72000000000000006044820152606401610b4d565b600b54600a546040516001600160a01b0392831692909116907fd4459d5b8b913cab0244230fd9b1c08b6ceace7fe9230e60d0f74cbffdf849d090600090a3600b8054600a80546001600160a01b03199081166001600160a01b03841617909155169055565b60006015548261175191906145ed565b6011546001600160a01b0316635dbe47e8336040516001600160e01b031960e084901b1681526001600160a01b03909116600482015260240160206040518083038186803b1580156121c557600080fd5b505afa1580156121d9573d6000803e3d6000fd5b505050506040513d601f19601f820116820180604052508101906121fd91906141eb565b6122195760405162461bcd60e51b8152600401610b4d906144db565b61103c612e80565b600e5460408051631f8f738360e31b815290516000926001600160a01b03169163fc7b9c18916004808301926020929190829003018186803b158015610eb357600080fd5b6011546001600160a01b0316635dbe47e8336040516001600160e01b031960e084901b1681526001600160a01b03909116600482015260240160206040518083038186803b1580156122b757600080fd5b505afa1580156122cb573d6000803e3d6000fd5b505050506040513d601f19601f820116820180604052508101906122ef91906141eb565b61230b5760405162461bcd60e51b8152600401610b4d906144db565b61103c612ee7565b6002600c5414156123365760405162461bcd60e51b8152600401610b4d90614523565b6002600c55600b54600160a81b900460ff16156123655760405162461bcd60e51b8152600401610b4d90614501565b6010546001600160a01b0316635dbe47e8336040516001600160e01b031960e084901b1681526001600160a01b03909116600482015260240160206040518083038186803b1580156123b657600080fd5b505afa1580156123ca573d6000803e3d6000fd5b505050506040513d601f19601f820116820180604052508101906123ee91906141eb565b604051806040016040528060018152602001603560f81b815250906124265760405162461bcd60e51b8152600401610b4d919061445a565b50610f4681612f63565b6040516001600160a01b038316602482015260448101829052610c0b90849063a9059cbb60e01b906064015b60408051601f198184030181529190526020810180516001600160e01b03166001600160e01b03199093169290921790915261302c565b6040516001600160a01b03808516602483015283166044820152606481018290526124cb9085906323b872dd60e01b9060840161245c565b50505050565b6040805180820190915260018152603160f81b60208201526000908261250a5760405162461bcd60e51b8152600401610b4d919061445a565b506000612515611672565b61252784670de0b6b3a7640000614721565b61253191906145ed565b9050670de0b6b3a7640000612544611672565b61254e9083614721565b61255891906145ed565b83116125645780610e67565b610e678160016145d5565b6001600160a01b0382166125c55760405162461bcd60e51b815260206004820152601f60248201527f45524332303a206d696e7420746f20746865207a65726f2061646472657373006044820152606401610b4d565b80600260008282546125d791906145d5565b90915550506001600160a01b038216600090815260208190526040812080548392906126049084906145d5565b90915550506040518181526001600160a01b038316906000907fddf252ad1be2c89b69c2b068fc378daa952ba7f163c4a11628f55a4df523b3ef9060200160405180910390a35050565b6001600160a01b0383166126b05760405162461bcd60e51b8152602060048201526024808201527f45524332303a20617070726f76652066726f6d20746865207a65726f206164646044820152637265737360e01b6064820152608401610b4d565b6001600160a01b0382166127115760405162461bcd60e51b815260206004820152602260248201527f45524332303a20617070726f766520746f20746865207a65726f206164647265604482015261737360f01b6064820152608401610b4d565b6001600160a01b0383811660008181526001602090815260408083209487168084529482529182902085905590518481527f8c5be1e5ebec7d5bd14f71427d1e84f3dd0314c0f7b2291e5b200ac8c7c3b92591015b60405180910390a3505050565b600f546001600160a01b03161561284357600f5460405163632447c960e01b81526001600160a01b0385811660048301529091169063632447c990602401600060405180830381600087803b1580156127cb57600080fd5b505af11580156127df573d6000803e3d6000fd5b5050600f5460405163632447c960e01b81526001600160a01b038681166004830152909116925063632447c99150602401600060405180830381600087803b15801561282a57600080fd5b505af115801561283e573d6000803e3d6000fd5b505050505b610c0b8383836130fe565b6014546128635761285e81612f63565b6120a1565b6040805180820190915260018152601960f91b6020820152816128995760405162461bcd60e51b8152600401610b4d919061445a565b506128a4335b6132d6565b6000612710601454836128b79190614721565b6128c191906145ed565b905060006128cf8284614740565b905060006128dc82613319565b905060006128e9826124d1565b90506128f483612164565b6128fd82612164565b101561293a5760145461291290612710614740565b61291e61271083614721565b61292891906145ed565b94506129348186614740565b93508092505b612945335b8461338b565b61295b336013546001600160a01b031686612773565b612964826134da565b50604080518681526020810184905233917ff279e6a1f5e320cca91135676d9cb6e44ca8a08c0b88342bcdb1144f6511b568910160405180910390a25050505050565b60006008544614156129bc5750600654610a09565b6007546040805180820190915260018152603160f81b6020909101526116a4907f8b73c3c69bb8fe3d512ecc4cf759cc79239f7b179b0ffacaa9a75d522b39400f907fc89efdaa54c0f20c7adf612882df0950f5a951637e0307cdcb4c672f298b8bc66134f7565b600b54600160a01b900460ff16612a6a5760405162461bcd60e51b815260206004820152600a6024820152691b9bdd0b5c185d5cd95960b21b6044820152606401610b4d565b600b54600160a81b900460ff1615612a945760405162461bcd60e51b8152600401610b4d90614501565b600b805460ff60a01b191690557f5db9ee0a495bf2e6ff9c91a7834c1ba4fdd244a5e8aa4e537bd38aeae4b073aa335b6040516001600160a01b03909116815260200160405180910390a1565b612aea3361289f565b6000612af5826124d1565b9050612b0082613540565b612b0a338261256f565b604080518281526020810184905233917f90890809c654f11d6e72a28fa60149770a0d11ec6c92319d6ceb2bb0a4ea1a15910160405180910390a25050565b600b54600160a01b900460ff1615612b735760405162461bcd60e51b8152600401610b4d9061455a565b600b805460ff60a01b1916600160a01b1790557f62e78cea01bee320cd4e420270b5ea74000d11b0c9f74754ebdbfc544b05a258612ac43390565b60007f7fffffffffffffffffffffffffffffff5d576e7357a4501ddfe92f46681b20a0821115612c2b5760405162461bcd60e51b815260206004820152602260248201527f45434453413a20696e76616c6964207369676e6174757265202773272076616c604482015261756560f01b6064820152608401610b4d565b8360ff16601b1480612c4057508360ff16601c145b612c975760405162461bcd60e51b815260206004820152602260248201527f45434453413a20696e76616c6964207369676e6174757265202776272076616c604482015261756560f01b6064820152608401610b4d565b6040805160008082526020820180845288905260ff871692820192909252606081018590526080810184905260019060a0016020604051602081039080840390855afa158015612ceb573d6000803e3d6000fd5b5050604051601f1901519150506001600160a01b038116612d4e5760405162461bcd60e51b815260206004820152601860248201527f45434453413a20696e76616c6964207369676e617475726500000000000000006044820152606401610b4d565b95945050505050565b600554610100900460ff1680612d70575060055460ff16155b612d8c5760405162461bcd60e51b8152600401610b4d9061448d565b600554610100900460ff16158015612dae576005805461ffff19166101011790555b604080518082019091526002815261031360f41b60208201526001600160a01b038416612dee5760405162461bcd60e51b8152600401610b4d919061445a565b50604080518082019091526002815261031360f41b60208201526001600160a01b038316612e2f5760405162461bcd60e51b8152600401610b4d919061445a565b50612e3b868686613558565b612e436136d0565b612e4c8261377e565b600e80546001600160a01b0319166001600160a01b03851617905580156114c8576005805461ff0019169055505050505050565b600b54600160a81b900460ff1615612eaa5760405162461bcd60e51b8152600401610b4d90614501565b600b805461ffff60a01b191661010160a01b1790557f28b4c24cb1012c094cd2f59f98e89d791973295f8fda6eaa118022d6d318960a612ac43390565b600b54600160a81b900460ff16612f2f5760405162461bcd60e51b815260206004820152600c60248201526b3737ba16b9b43aba3237bbb760a11b6044820152606401610b4d565b600b805460ff60a81b191690557fece7583a70a505ef0e36d4dec768f5ae597713e09c26011022599ee01abdabfc33612ac4565b6040805180820190915260018152601960f91b602082015281612f995760405162461bcd60e51b8152600401610b4d919061445a565b50612fa33361289f565b6000612fae82613319565b90506000612fbb826124d1565b9050612fc683612164565b612fcf82612164565b1015612fd9578092505b612fe23361293f565b612feb826134da565b50604080518481526020810184905233917ff279e6a1f5e320cca91135676d9cb6e44ca8a08c0b88342bcdb1144f6511b568910160405180910390a2505050565b6000613081826040518060400160405280602081526020017f5361666545524332303a206c6f772d6c6576656c2063616c6c206661696c6564815250856001600160a01b0316613a7c9092919063ffffffff16565b805190915015610c0b578080602001905181019061309f91906141eb565b610c0b5760405162461bcd60e51b815260206004820152602a60248201527f5361666545524332303a204552433230206f7065726174696f6e20646964206e6044820152691bdd081cdd58d8d9595960b21b6064820152608401610b4d565b6001600160a01b0383166131625760405162461bcd60e51b815260206004820152602560248201527f45524332303a207472616e736665722066726f6d20746865207a65726f206164604482015264647265737360d81b6064820152608401610b4d565b6001600160a01b0382166131c45760405162461bcd60e51b815260206004820152602360248201527f45524332303a207472616e7366657220746f20746865207a65726f206164647260448201526265737360e81b6064820152608401610b4d565b6001600160a01b0383166000908152602081905260409020548181101561323c5760405162461bcd60e51b815260206004820152602660248201527f45524332303a207472616e7366657220616d6f756e7420657863656564732062604482015265616c616e636560d01b6064820152608401610b4d565b6132468282614740565b6001600160a01b03808616600090815260208190526040808220939093559085168152908120805484929061327c9084906145d5565b92505081905550826001600160a01b0316846001600160a01b03167fddf252ad1be2c89b69c2b068fc378daa952ba7f163c4a11628f55a4df523b3ef846040516132c891815260200190565b60405180910390a350505050565b600f546001600160a01b0316156120a157600f5460405163d279c19160e01b81526001600160a01b0383811660048301529091169063d279c19190602401611ea7565b600080670de0b6b3a764000061332d611672565b6133379085614721565b61334191906145ed565b9050600061334d611974565b905080821115613374576133696133648284614740565b613a8b565b613371611974565b90505b8181106133815781613383565b805b949350505050565b6001600160a01b0382166133eb5760405162461bcd60e51b815260206004820152602160248201527f45524332303a206275726e2066726f6d20746865207a65726f206164647265736044820152607360f81b6064820152608401610b4d565b6001600160a01b0382166000908152602081905260409020548181101561345f5760405162461bcd60e51b815260206004820152602260248201527f45524332303a206275726e20616d6f756e7420657863656564732062616c616e604482015261636560f01b6064820152608401610b4d565b6134698282614740565b6001600160a01b03841660009081526020819052604081209190915560028054849290613497908490614740565b90915550506040518281526000906001600160a01b038516907fddf252ad1be2c89b69c2b068fc378daa952ba7f163c4a11628f55a4df523b3ef90602001612766565b60006134f333600d546001600160a01b03169084612430565b5090565b6040805160208101859052908101839052606081018290524660808201523060a082015260009060c0016040516020818303038152906040528051906020012090509392505050565b6120a133600d546001600160a01b0316903084612493565b600554610100900460ff1680613571575060055460ff16155b61358d5760405162461bcd60e51b8152600401610b4d9061448d565b600554610100900460ff161580156135af576005805461ffff19166101011790555b604080518082019091526002815261031360f41b60208201526001600160a01b0383166135ef5760405162461bcd60e51b8152600401610b4d919061445a565b506135f984613c24565b61360283613c3b565b61360b84613c4e565b600d80546001600160a01b0319166001600160a01b0384169081179091556040805163313ce56760e01b815290516000929163313ce567916004808301926020929190829003018186803b15801561366257600080fd5b505afa158015613676573d6000803e3d6000fd5b505050506040513d601f19601f8201168201806040525081019061369a91906143d5565b60ff1690506136aa816012614740565b6136b590600a614653565b6015555080156124cb576005805461ff001916905550505050565b600554610100900460ff16806136e9575060055460ff16155b6137055760405162461bcd60e51b8152600401610b4d9061448d565b600554610100900460ff16158015613727576005805461ffff19166101011790555b600a80546001600160a01b0319163390811790915560405181906000907fd4459d5b8b913cab0244230fd9b1c08b6ceace7fe9230e60d0f74cbffdf849d0908290a35080156120a1576005805461ff001916905550565b601154604080518082019091526002815261189960f11b6020820152906001600160a01b0316156137c25760405162461bcd60e51b8152600401610b4d919061445a565b506000819050806001600160a01b0316630fab4d256040518163ffffffff1660e01b8152600401602060405180830381600087803b15801561380357600080fd5b505af1158015613817573d6000803e3d6000fd5b505050506040513d601f19601f8201168201806040525081019061383b9190613f9f565b601060006101000a8154816001600160a01b0302191690836001600160a01b03160217905550806001600160a01b0316630fab4d256040518163ffffffff1660e01b8152600401602060405180830381600087803b15801561389c57600080fd5b505af11580156138b0573d6000803e3d6000fd5b505050506040513d601f19601f820116820180604052508101906138d49190613f9f565b601160006101000a8154816001600160a01b0302191690836001600160a01b03160217905550806001600160a01b0316630fab4d256040518163ffffffff1660e01b8152600401602060405180830381600087803b15801561393557600080fd5b505af1158015613949573d6000803e3d6000fd5b505050506040513d601f19601f8201168201806040525081019061396d9190613f9f565b601280546001600160a01b0319166001600160a01b0392831617905560115416630a3b0a4f6139993390565b6040516001600160e01b031960e084901b1681526001600160a01b039091166004820152602401602060405180830381600087803b1580156139da57600080fd5b505af11580156139ee573d6000803e3d6000fd5b505050506040513d601f19601f82011682018060405250810190613a1291906141eb565b60405180604001604052806002815260200161313360f01b81525090613a4b5760405162461bcd60e51b8152600401610b4d919061445a565b50601254604051630a3b0a4f60e01b81523360048201526001600160a01b0390911690630a3b0a4f90602401610b80565b60606133838484600085613ccd565b6000808080848180613a9b610a22565b805190915060005b81811015613c18576000838281518110613acd57634e487b7160e01b600052603260045260246000fd5b60200260200101519050613ae0816116d2565b995089613aed5750613c06565b89861115613af9578995505b613b01611974565b604051632e1a7d4d60e01b8152600481018890529098506001600160a01b03821690632e1a7d4d90602401600060405180830381600087803b158015613b4657600080fd5b505af1925050508015613b57575060015b613b615750613c06565b613b69611974565b9850613b75888a614740565b600e54604051632fb9ba3160e01b81526001600160a01b03848116600483015260248201849052929950911690632fb9ba3190604401600060405180830381600087803b158015613bc557600080fd5b505af1158015613bd9573d6000803e3d6000fd5b505050508685613be991906145d5565b94508a8510613bf85750613c18565b613c02858c614740565b9550505b80613c10816147be565b915050613aa3565b50505050505050505050565b8051613c37906003906020840190613e2e565b5050565b8051613c37906004906020840190613e2e565b80516020808301919091206007819055466008556040805180820190915260018152603160f81b920191909152613cc7907f8b73c3c69bb8fe3d512ecc4cf759cc79239f7b179b0ffacaa9a75d522b39400f907fc89efdaa54c0f20c7adf612882df0950f5a951637e0307cdcb4c672f298b8bc66134f7565b60065550565b606082471015613d2e5760405162461bcd60e51b815260206004820152602660248201527f416464726573733a20696e73756666696369656e742062616c616e636520666f6044820152651c8818d85b1b60d21b6064820152608401610b4d565b843b613d7c5760405162461bcd60e51b815260206004820152601d60248201527f416464726573733a2063616c6c20746f206e6f6e2d636f6e74726163740000006044820152606401610b4d565b600080866001600160a01b03168587604051613d9891906143f1565b60006040518083038185875af1925050503d8060008114613dd5576040519150601f19603f3d011682016040523d82523d6000602084013e613dda565b606091505b5091509150613dea828286613df5565b979650505050505050565b60608315613e04575081610e67565b825115613e145782518084602001fd5b8160405162461bcd60e51b8152600401610b4d919061445a565b828054613e3a90614783565b90600052602060002090601f016020900481019282613e5c5760008555613ea2565b82601f10613e7557805160ff1916838001178555613ea2565b82800160010185558215613ea2579182015b82811115613ea2578251825591602001919060010190613e87565b506134f39291505b808211156134f35760008155600101613eaa565b60008083601f840112613ecf578182fd5b50813567ffffffffffffffff811115613ee6578182fd5b6020830191508360208260051b8501011115613f0157600080fd5b9250929050565b805180151581146114ea57600080fd5b600082601f830112613f28578081fd5b813567ffffffffffffffff811115613f4257613f426147ef565b613f55601f8201601f19166020016145a4565b818152846020838601011115613f69578283fd5b816020850160208301379081016020019190915292915050565b600060208284031215613f94578081fd5b8135610e6781614805565b600060208284031215613fb0578081fd5b8151610e6781614805565b60008060408385031215613fcd578081fd5b8235613fd881614805565b91506020830135613fe881614805565b809150509250929050565b600080600060608486031215614007578081fd5b833561401281614805565b9250602084013561402281614805565b929592945050506040919091013590565b600080600080600080600060e0888a03121561404d578283fd5b873561405881614805565b9650602088013561406881614805565b9550604088013594506060880135935060808801356140868161481a565b9699959850939692959460a0840135945060c09093013592915050565b600080604083850312156140b5578182fd5b82356140c081614805565b946020939093013593505050565b600080600080604085870312156140e3578384fd5b843567ffffffffffffffff808211156140fa578586fd5b61410688838901613ebe565b9096509450602087013591508082111561411e578384fd5b5061412b87828801613ebe565b95989497509550505050565b60006020808385031215614149578182fd5b825167ffffffffffffffff80821115614160578384fd5b818501915085601f830112614173578384fd5b815181811115614185576141856147ef565b8060051b91506141968483016145a4565b8181528481019084860184860187018a10156141b0578788fd5b8795505b838610156141de57805194506141c985614805565b848352600195909501949186019186016141b4565b5098975050505050505050565b6000602082840312156141fc578081fd5b610e6782613f08565b600080600080600080600080610100898b031215614221578182fd5b61422a89613f08565b97506020890151965060408901519550606089015194506080890151935060a0890151925060c0890151915060e089015190509295985092959890939650565b600080600080600060a08688031215614281578283fd5b853567ffffffffffffffff80821115614298578485fd5b6142a489838a01613f18565b965060208801359150808211156142b9578485fd5b506142c688828901613f18565b94505060408601356142d781614805565b925060608601356142e781614805565b915060808601356142f781614805565b809150509295509295909350565b600060208284031215614316578081fd5b5035919050565b60006020828403121561432e578081fd5b5051919050565b600080600060608486031215614349578081fd5b505081359360208301359350604090920135919050565b600080600060608486031215614374578081fd5b8351925060208401519150604084015190509250925092565b600080600080600060a086880312156143a4578283fd5b853594506020860135935060408601356143bd8161481a565b94979396509394606081013594506080013592915050565b6000602082840312156143e6578081fd5b8151610e678161481a565b60008251614403818460208701614757565b9190910192915050565b6020808252825182820181905260009190848201906040850190845b8181101561444e5783516001600160a01b031683529284019291840191600101614429565b50909695505050505050565b6000602082528251806020840152614479816040850160208701614757565b601f01601f19169190910160400192915050565b6020808252602e908201527f496e697469616c697a61626c653a20636f6e747261637420697320616c72656160408201526d191e481a5b9a5d1a585b1a5e995960921b606082015260800190565b6020808252600c908201526b3737ba16b096b5b2b2b832b960a11b604082015260600190565b60208082526008908201526739b43aba3237bbb760c11b604082015260600190565b6020808252601f908201527f5265656e7472616e637947756172643a207265656e7472616e742063616c6c00604082015260600190565b6020808252600690820152651c185d5cd95960d21b604082015260600190565b60208082526010908201526f3737ba16ba343296b3b7bb32b93737b960811b604082015260600190565b604051601f8201601f1916810167ffffffffffffffff811182821017156145cd576145cd6147ef565b604052919050565b600082198211156145e8576145e86147d9565b500190565b60008261460857634e487b7160e01b81526012600452602481fd5b500490565b80825b600180861161461f575061464a565b818704821115614631576146316147d9565b8086161561463e57918102915b9490941c938002614610565b94509492505050565b6000610e67600019848460008261466c57506001610e67565b8161467957506000610e67565b816001811461468f5760028114614699576146c6565b6001915050610e67565b60ff8411156146aa576146aa6147d9565b6001841b9150848211156146c0576146c06147d9565b50610e67565b5060208310610133831016604e8410600b84101617156146f9575081810a838111156146f4576146f46147d9565b610e67565b614706848484600161460d565b808604821115614718576147186147d9565b02949350505050565b600081600019048311821515161561473b5761473b6147d9565b500290565b600082821015614752576147526147d9565b500390565b60005b8381101561477257818101518382015260200161475a565b838111156124cb5750506000910152565b600181811c9082168061479757607f821691505b602082108114156147b857634e487b7160e01b600052602260045260246000fd5b50919050565b60006000198214156147d2576147d26147d9565b5060010190565b634e487b7160e01b600052601160045260246000fd5b634e487b7160e01b600052604160045260246000fd5b6001600160a01b03811681146120a157600080fd5b60ff811681146120a157600080fdfea2646970667358221220080a2ebab2a7804e39ebc79f71e60f9483fcaea6c86799bd81c1437cc449d30e64736f6c63430008030033",
  "devdoc": {
    "kind": "dev",
    "methods": {
      "DOMAIN_SEPARATOR()": {
        "details": "See {IERC20Permit-DOMAIN_SEPARATOR}."
      },
      "acceptGovernorship()": {
        "details": "Allows new governor to accept governorship of the contract."
      },
      "addInList(address,address)": {
        "details": "Use it to add keeper in keepers list and to add address in feeWhitelist",
        "params": {
          "_addressToAdd": "address which we want to add in AddressList.",
          "_listToUpdate": "address of AddressList contract."
        }
      },
      "allowance(address,address)": {
        "details": "See {IERC20-allowance}."
      },
      "approve(address,uint256)": {
        "details": "See {IERC20-approve}. Requirements: - `spender` cannot be the zero address."
      },
      "availableCreditLimit(address)": {
        "details": "Available credit limit is calculated based on current debt of pool and strategy, current debt limit of pool and strategy. credit available = min(pool's debt limit, strategy's debt limit, max debt per rebalance) when some strategy do not pay back outstanding debt, this impact credit line of other strategy if totalDebt of pool >= debtLimit of pool",
        "params": {
          "_strategy": "Strategy address"
        }
      },
      "balanceOf(address)": {
        "details": "Returns the amount of tokens owned by `account`."
      },
      "convertFrom18(uint256)": {
        "details": "Convert from 18 decimals to token defined decimals."
      },
      "decimals()": {
        "details": "Returns the decimals of the token. default to 18"
      },
      "decreaseAllowance(address,uint256)": {
        "details": "Atomically decreases the allowance granted to `spender` by the caller. This is an alternative to {approve} that can be used as a mitigation for problems described in {IERC20-approve}. Emits an {Approval} event indicating the updated allowance. Requirements: - `spender` cannot be the zero address. - `spender` must have allowance for the caller of at least `subtractedValue`."
      },
      "deposit(uint256)": {
        "params": {
          "_amount": "ERC20 token amount."
        }
      },
      "depositWithPermit(uint256,uint256,uint8,bytes32,bytes32)": {
        "params": {
          "_amount": "ERC20 token amount.",
          "_deadline": "The time at which signature will expire",
          "_r": "Half of the ECDSA signature pair",
          "_s": "Half of the ECDSA signature pair",
          "_v": "The recovery byte of the signature"
        }
      },
      "excessDebt(address)": {
        "params": {
          "_strategy": "Address of strategy"
        }
      },
      "increaseAllowance(address,uint256)": {
        "details": "Atomically increases the allowance granted to `spender` by the caller. This is an alternative to {approve} that can be used as a mitigation for problems described in {IERC20-approve}. Emits an {Approval} event indicating the updated allowance. Requirements: - `spender` cannot be the zero address."
      },
      "migrateStrategy(address,address)": {
        "details": "Migrating strategy aka old and new strategy should be of same type.",
        "params": {
          "_new": "Address of new strategy",
          "_old": "Address of strategy being migrated"
        }
      },
      "multiTransfer(address[],uint256[])": {
        "details": "Address array and amount array are 1:1 and are in order.",
        "params": {
          "_amounts": "array of token amounts",
          "_recipients": "array of recipient addresses"
        },
        "returns": {
          "_0": "true/false"
        }
      },
      "name()": {
        "details": "Returns the name of the token."
      },
      "permit(address,address,uint256,uint256,uint8,bytes32,bytes32)": {
        "details": "See {IERC20Permit-permit}."
      },
      "pricePerShare()": {
        "details": "Return value will be in token defined decimals."
      },
      "removeFromList(address,address)": {
        "details": "Use it to remove keeper from keepers list and to remove address from feeWhitelist",
        "params": {
          "_addressToRemove": "address which we want to remove from AddressList.",
          "_listToUpdate": "address of AddressList contract."
        }
      },
      "reportEarning(uint256,uint256,uint256)": {
        "details": "Strategy call this in regular interval.",
        "params": {
          "_loss": "Reduce debt ,also reduce debtRatio, increase loss in record.",
          "_payback": "strategy willing to payback outstanding above debtLimit. no performance fee on this amount.  when governance has reduced debtRatio of strategy, strategy will report profit and payback amount separately.",
          "_profit": "yield generated by strategy. Strategy get performance fee on this amount"
        }
      },
      "reportLoss(uint256)": {
        "details": "Some strategies pay deposit fee thus realizing loss at deposit. For example: Curve's 3pool has some slippage due to deposit of one asset in 3pool. Strategy may want report this loss instead of waiting for next rebalance.",
        "params": {
          "_loss": "Loss that strategy want to report"
        }
      },
      "sweepERC20(address)": {
        "details": "Transfer given ERC20 token to feeCollector",
        "params": {
          "_fromToken": "Token address to sweep"
        }
      },
      "symbol()": {
        "details": "Returns the symbol of the token, usually a shorter version of the name."
      },
      "tokensHere()": {
        "details": "Returns the token stored in the pool. It will be in token defined decimals."
      },
      "totalDebtOf(address)": {
        "params": {
          "_strategy": "Strategy address"
        }
      },
      "totalSupply()": {
        "details": "Returns total supply of the token."
      },
      "totalValue()": {
        "details": "Returns total value of vesper pool, in terms of collateral token"
      },
      "transfer(address,uint256)": {
        "details": "See {IERC20-transfer}. Requirements: - `recipient` cannot be the zero address. - the caller must have a balance of at least `amount`."
      },
      "transferFrom(address,address,uint256)": {
        "details": "See {IERC20-transferFrom}. Emits an {Approval} event indicating the updated allowance. This is not required by the EIP. See the note at the beginning of {ERC20}. Requirements: - `sender` and `recipient` cannot be the zero address. - `sender` must have a balance of at least `amount`. - the caller must have allowance for ``sender``'s tokens of at least `amount`."
      },
      "transferGovernorship(address)": {
        "details": "Transfers governorship of the contract to a new account (`proposedGovernor`). Can only be called by the current owner."
      },
      "updateFeeCollector(address)": {
        "params": {
          "_newFeeCollector": "new fee collector address"
        }
      },
      "updatePoolRewards(address)": {
        "params": {
          "_newPoolRewards": "new pool rewards address"
        }
      },
      "updateWithdrawFee(uint256)": {
        "details": "Format: 1500 = 15% fee, 100 = 1%",
        "params": {
          "_newWithdrawFee": "new withdraw fee"
        }
      },
      "whitelistedWithdraw(uint256)": {
        "details": "Burn shares and return collateral. No withdraw fee will be assessed when this function is called. Only some white listed address can call this function.",
        "params": {
          "_shares": "Pool shares. It will be in 18 decimals."
        }
      },
      "withdraw(uint256)": {
        "params": {
          "_shares": "Pool shares. It will be in 18 decimals."
        }
      }
    },
    "version": 1
  },
  "userdoc": {
    "kind": "user",
    "methods": {
      "addInList(address,address)": {
        "notice": "Add given address in provided address list."
      },
      "availableCreditLimit(address)": {
        "notice": "Get available credit limit of strategy. This is the amount strategy can borrow from pool"
      },
      "deposit(uint256)": {
        "notice": "Deposit ERC20 tokens and receive pool shares depending on the current share price."
      },
      "depositWithPermit(uint256,uint256,uint8,bytes32,bytes32)": {
        "notice": "Deposit ERC20 tokens with permit aka gasless approval."
      },
      "excessDebt(address)": {
        "notice": "Debt above current debt limit"
      },
      "migrateStrategy(address,address)": {
        "notice": "Migrate existing strategy to new strategy."
      },
      "multiTransfer(address[],uint256[])": {
        "notice": "Transfer tokens to multiple recipient"
      },
      "pricePerShare()": {
        "notice": "Get price per share"
      },
      "removeFromList(address,address)": {
        "notice": "Remove given address from provided address list."
      },
      "reportLoss(uint256)": {
        "notice": "Report loss outside of rebalance activity."
      },
      "totalDebt()": {
        "notice": "Get total debt of pool"
      },
      "totalDebtOf(address)": {
        "notice": "Get total debt of given strategy"
      },
      "totalDebtRatio()": {
        "notice": "Get total debt ratio. Total debt ratio helps us keep buffer in pool"
      },
      "updateFeeCollector(address)": {
        "notice": "Update fee collector address for this pool"
      },
      "updatePoolRewards(address)": {
        "notice": "Update pool rewards address for this pool"
      },
      "updateWithdrawFee(uint256)": {
        "notice": "Update withdraw fee for this pool"
      },
      "whitelistedWithdraw(uint256)": {
        "notice": "Withdraw collateral based on given shares and the current share price."
      },
      "withdraw(uint256)": {
        "notice": "Withdraw collateral based on given shares and the current share price. Withdraw fee, if any, will be deduced from given shares and transferred to feeCollector. Burn remaining shares and return collateral."
      }
    },
    "version": 1
  },
  "storageLayout": {
    "storage": [
      {
        "astId": 6383,
        "contract": "contracts/pool/VPool.sol:VPool",
        "label": "_balances",
        "offset": 0,
        "slot": "0",
        "type": "t_mapping(t_address,t_uint256)"
      },
      {
        "astId": 6389,
        "contract": "contracts/pool/VPool.sol:VPool",
        "label": "_allowances",
        "offset": 0,
        "slot": "1",
        "type": "t_mapping(t_address,t_mapping(t_address,t_uint256))"
      },
      {
        "astId": 6391,
        "contract": "contracts/pool/VPool.sol:VPool",
        "label": "_totalSupply",
        "offset": 0,
        "slot": "2",
        "type": "t_uint256"
      },
      {
        "astId": 6393,
        "contract": "contracts/pool/VPool.sol:VPool",
        "label": "_name",
        "offset": 0,
        "slot": "3",
        "type": "t_string_storage"
      },
      {
        "astId": 6395,
        "contract": "contracts/pool/VPool.sol:VPool",
        "label": "_symbol",
        "offset": 0,
        "slot": "4",
        "type": "t_string_storage"
      },
      {
        "astId": 887,
        "contract": "contracts/pool/VPool.sol:VPool",
        "label": "_initialized",
        "offset": 0,
        "slot": "5",
        "type": "t_bool"
      },
      {
        "astId": 890,
        "contract": "contracts/pool/VPool.sol:VPool",
        "label": "_initializing",
        "offset": 1,
        "slot": "5",
        "type": "t_bool"
      },
      {
        "astId": 6924,
        "contract": "contracts/pool/VPool.sol:VPool",
        "label": "_CACHED_DOMAIN_SEPARATOR",
        "offset": 0,
        "slot": "6",
        "type": "t_bytes32"
      },
      {
        "astId": 6926,
        "contract": "contracts/pool/VPool.sol:VPool",
        "label": "_HASHED_NAME",
        "offset": 0,
        "slot": "7",
        "type": "t_bytes32"
      },
      {
        "astId": 6928,
        "contract": "contracts/pool/VPool.sol:VPool",
        "label": "_CACHED_CHAIN_ID",
        "offset": 0,
        "slot": "8",
        "type": "t_uint256"
      },
      {
        "astId": 6934,
        "contract": "contracts/pool/VPool.sol:VPool",
        "label": "nonces",
        "offset": 0,
        "slot": "9",
        "type": "t_mapping(t_address,t_uint256)"
      },
      {
        "astId": 3080,
        "contract": "contracts/pool/VPool.sol:VPool",
        "label": "governor",
        "offset": 0,
        "slot": "10",
        "type": "t_address"
      },
      {
        "astId": 3082,
        "contract": "contracts/pool/VPool.sol:VPool",
        "label": "proposedGovernor",
        "offset": 0,
        "slot": "11",
        "type": "t_address"
      },
      {
        "astId": 3224,
        "contract": "contracts/pool/VPool.sol:VPool",
        "label": "paused",
        "offset": 20,
        "slot": "11",
        "type": "t_bool"
      },
      {
        "astId": 3226,
        "contract": "contracts/pool/VPool.sol:VPool",
        "label": "stopEverything",
        "offset": 21,
        "slot": "11",
        "type": "t_bool"
      },
      {
        "astId": 938,
        "contract": "contracts/pool/VPool.sol:VPool",
        "label": "_status",
        "offset": 0,
        "slot": "12",
        "type": "t_uint256"
      },
      {
        "astId": 8295,
        "contract": "contracts/pool/VPool.sol:VPool",
        "label": "token",
        "offset": 0,
        "slot": "13",
        "type": "t_contract(IERC20)1552"
      },
      {
        "astId": 8297,
        "contract": "contracts/pool/VPool.sol:VPool",
        "label": "poolAccountant",
        "offset": 0,
        "slot": "14",
        "type": "t_address"
      },
      {
        "astId": 8299,
        "contract": "contracts/pool/VPool.sol:VPool",
        "label": "poolRewards",
        "offset": 0,
        "slot": "15",
        "type": "t_address"
      },
      {
        "astId": 8301,
        "contract": "contracts/pool/VPool.sol:VPool",
        "label": "feeWhitelist",
        "offset": 0,
        "slot": "16",
        "type": "t_address"
      },
      {
        "astId": 8303,
        "contract": "contracts/pool/VPool.sol:VPool",
        "label": "keepers",
        "offset": 0,
        "slot": "17",
        "type": "t_address"
      },
      {
        "astId": 8305,
        "contract": "contracts/pool/VPool.sol:VPool",
        "label": "maintainers",
        "offset": 0,
        "slot": "18",
        "type": "t_address"
      },
      {
        "astId": 8307,
        "contract": "contracts/pool/VPool.sol:VPool",
        "label": "feeCollector",
        "offset": 0,
        "slot": "19",
        "type": "t_address"
      },
      {
        "astId": 8309,
        "contract": "contracts/pool/VPool.sol:VPool",
        "label": "withdrawFee",
        "offset": 0,
        "slot": "20",
        "type": "t_uint256"
      },
      {
        "astId": 8311,
        "contract": "contracts/pool/VPool.sol:VPool",
        "label": "decimalConversionFactor",
        "offset": 0,
        "slot": "21",
        "type": "t_uint256"
      },
      {
        "astId": 8313,
        "contract": "contracts/pool/VPool.sol:VPool",
        "label": "withdrawInETH",
        "offset": 0,
        "slot": "22",
        "type": "t_bool"
      }
    ],
    "types": {
      "t_address": {
        "encoding": "inplace",
        "label": "address",
        "numberOfBytes": "20"
      },
      "t_bool": {
        "encoding": "inplace",
        "label": "bool",
        "numberOfBytes": "1"
      },
      "t_bytes32": {
        "encoding": "inplace",
        "label": "bytes32",
        "numberOfBytes": "32"
      },
      "t_contract(IERC20)1552": {
        "encoding": "inplace",
        "label": "contract IERC20",
        "numberOfBytes": "20"
      },
      "t_mapping(t_address,t_mapping(t_address,t_uint256))": {
        "encoding": "mapping",
        "key": "t_address",
        "label": "mapping(address => mapping(address => uint256))",
        "numberOfBytes": "32",
        "value": "t_mapping(t_address,t_uint256)"
      },
      "t_mapping(t_address,t_uint256)": {
        "encoding": "mapping",
        "key": "t_address",
        "label": "mapping(address => uint256)",
        "numberOfBytes": "32",
        "value": "t_uint256"
      },
      "t_string_storage": {
        "encoding": "bytes",
        "label": "string",
        "numberOfBytes": "32"
      },
      "t_uint256": {
        "encoding": "inplace",
        "label": "uint256",
        "numberOfBytes": "32"
      }
    }
  }
}